{
  "_format": "hh-sol-artifact-1",
  "contractName": "cEVO",
  "sourceName": "contracts/ERC20/cEVOUpgradeable.sol",
  "abi": [
    {
      "inputs": [],
      "stateMutability": "nonpayable",
      "type": "constructor"
    },
    {
      "anonymous": false,
      "inputs": [
        {
          "indexed": true,
          "internalType": "address",
          "name": "owner",
          "type": "address"
        },
        {
          "indexed": true,
          "internalType": "address",
          "name": "spender",
          "type": "address"
        },
        {
          "indexed": false,
          "internalType": "uint256",
          "name": "value",
          "type": "uint256"
        }
      ],
      "name": "Approval",
      "type": "event"
    },
    {
      "anonymous": false,
      "inputs": [
        {
          "indexed": false,
          "internalType": "address",
          "name": "account",
          "type": "address"
        }
      ],
      "name": "Paused",
      "type": "event"
    },
    {
      "anonymous": false,
      "inputs": [
        {
          "indexed": true,
          "internalType": "bytes32",
          "name": "role",
          "type": "bytes32"
        },
        {
          "indexed": true,
          "internalType": "bytes32",
          "name": "previousAdminRole",
          "type": "bytes32"
        },
        {
          "indexed": true,
          "internalType": "bytes32",
          "name": "newAdminRole",
          "type": "bytes32"
        }
      ],
      "name": "RoleAdminChanged",
      "type": "event"
    },
    {
      "anonymous": false,
      "inputs": [
        {
          "indexed": true,
          "internalType": "bytes32",
          "name": "role",
          "type": "bytes32"
        },
        {
          "indexed": true,
          "internalType": "address",
          "name": "account",
          "type": "address"
        },
        {
          "indexed": true,
          "internalType": "address",
          "name": "sender",
          "type": "address"
        }
      ],
      "name": "RoleGranted",
      "type": "event"
    },
    {
      "anonymous": false,
      "inputs": [
        {
          "indexed": true,
          "internalType": "bytes32",
          "name": "role",
          "type": "bytes32"
        },
        {
          "indexed": true,
          "internalType": "address",
          "name": "account",
          "type": "address"
        },
        {
          "indexed": true,
          "internalType": "address",
          "name": "sender",
          "type": "address"
        }
      ],
      "name": "RoleRevoked",
      "type": "event"
    },
    {
      "anonymous": false,
      "inputs": [
        {
          "indexed": true,
          "internalType": "address",
          "name": "from",
          "type": "address"
        },
        {
          "indexed": true,
          "internalType": "address",
          "name": "to",
          "type": "address"
        },
        {
          "indexed": false,
          "internalType": "uint256",
          "name": "value",
          "type": "uint256"
        }
      ],
      "name": "Transfer",
      "type": "event"
    },
    {
      "anonymous": false,
      "inputs": [
        {
          "indexed": false,
          "internalType": "address",
          "name": "account",
          "type": "address"
        }
      ],
      "name": "Unpaused",
      "type": "event"
    },
    {
      "inputs": [],
      "name": "DEFAULT_ADMIN_ROLE",
      "outputs": [
        {
          "internalType": "bytes32",
          "name": "",
          "type": "bytes32"
        }
      ],
      "stateMutability": "view",
      "type": "function"
    },
    {
      "inputs": [],
      "name": "DEFAULT_VESTING_PERIOD",
      "outputs": [
        {
          "internalType": "uint256",
          "name": "",
          "type": "uint256"
        }
      ],
      "stateMutability": "view",
      "type": "function"
    },
    {
      "inputs": [],
      "name": "EVO",
      "outputs": [
        {
          "internalType": "contract IEvoToken",
          "name": "",
          "type": "address"
        }
      ],
      "stateMutability": "view",
      "type": "function"
    },
    {
      "inputs": [],
      "name": "MINTER_ROLE",
      "outputs": [
        {
          "internalType": "bytes32",
          "name": "",
          "type": "bytes32"
        }
      ],
      "stateMutability": "view",
      "type": "function"
    },
    {
      "inputs": [],
      "name": "PAUSER_ROLE",
      "outputs": [
        {
          "internalType": "bytes32",
          "name": "",
          "type": "bytes32"
        }
      ],
      "stateMutability": "view",
      "type": "function"
    },
    {
      "inputs": [
        {
          "internalType": "address",
          "name": "owner",
          "type": "address"
        },
        {
          "internalType": "address",
          "name": "spender",
          "type": "address"
        }
      ],
      "name": "allowance",
      "outputs": [
        {
          "internalType": "uint256",
          "name": "",
          "type": "uint256"
        }
      ],
      "stateMutability": "view",
      "type": "function"
    },
    {
      "inputs": [
        {
          "internalType": "address",
          "name": "spender",
          "type": "address"
        },
        {
          "internalType": "uint256",
          "name": "amount",
          "type": "uint256"
        }
      ],
      "name": "approve",
      "outputs": [
        {
          "internalType": "bool",
          "name": "",
          "type": "bool"
        }
      ],
      "stateMutability": "nonpayable",
      "type": "function"
    },
    {
      "inputs": [
        {
          "internalType": "address",
          "name": "account",
          "type": "address"
        }
      ],
      "name": "balanceOf",
      "outputs": [
        {
          "internalType": "uint256",
          "name": "",
          "type": "uint256"
        }
      ],
      "stateMutability": "view",
      "type": "function"
    },
    {
      "inputs": [
        {
          "internalType": "address[]",
          "name": "to",
          "type": "address[]"
        },
        {
          "internalType": "uint256[]",
          "name": "amount",
          "type": "uint256[]"
        },
        {
          "internalType": "uint256",
          "name": "startTime",
          "type": "uint256"
        },
        {
          "internalType": "uint256",
          "name": "duration",
          "type": "uint256"
        }
      ],
      "name": "batchMint",
      "outputs": [],
      "stateMutability": "nonpayable",
      "type": "function"
    },
    {
      "inputs": [],
      "name": "claimPending",
      "outputs": [],
      "stateMutability": "nonpayable",
      "type": "function"
    },
    {
      "inputs": [],
      "name": "decimals",
      "outputs": [
        {
          "internalType": "uint8",
          "name": "",
          "type": "uint8"
        }
      ],
      "stateMutability": "view",
      "type": "function"
    },
    {
      "inputs": [
        {
          "internalType": "address",
          "name": "spender",
          "type": "address"
        },
        {
          "internalType": "uint256",
          "name": "subtractedValue",
          "type": "uint256"
        }
      ],
      "name": "decreaseAllowance",
      "outputs": [
        {
          "internalType": "bool",
          "name": "",
          "type": "bool"
        }
      ],
      "stateMutability": "nonpayable",
      "type": "function"
    },
    {
      "inputs": [
        {
          "internalType": "address",
          "name": "",
          "type": "address"
        },
        {
          "internalType": "uint256",
          "name": "",
          "type": "uint256"
        }
      ],
      "name": "disbursements",
      "outputs": [
        {
          "internalType": "uint256",
          "name": "startTime",
          "type": "uint256"
        },
        {
          "internalType": "uint256",
          "name": "duration",
          "type": "uint256"
        },
        {
          "internalType": "uint256",
          "name": "amount",
          "type": "uint256"
        },
        {
          "internalType": "uint256",
          "name": "balance",
          "type": "uint256"
        }
      ],
      "stateMutability": "view",
      "type": "function"
    },
    {
      "inputs": [
        {
          "internalType": "bytes32",
          "name": "role",
          "type": "bytes32"
        }
      ],
      "name": "getRoleAdmin",
      "outputs": [
        {
          "internalType": "bytes32",
          "name": "",
          "type": "bytes32"
        }
      ],
      "stateMutability": "view",
      "type": "function"
    },
    {
      "inputs": [
        {
          "internalType": "bytes32",
          "name": "role",
          "type": "bytes32"
        },
        {
          "internalType": "address",
          "name": "account",
          "type": "address"
        }
      ],
      "name": "grantRole",
      "outputs": [],
      "stateMutability": "nonpayable",
      "type": "function"
    },
    {
      "inputs": [
        {
          "internalType": "bytes32",
          "name": "role",
          "type": "bytes32"
        },
        {
          "internalType": "address",
          "name": "account",
          "type": "address"
        }
      ],
      "name": "hasRole",
      "outputs": [
        {
          "internalType": "bool",
          "name": "",
          "type": "bool"
        }
      ],
      "stateMutability": "view",
      "type": "function"
    },
    {
      "inputs": [
        {
          "internalType": "address",
          "name": "spender",
          "type": "address"
        },
        {
          "internalType": "uint256",
          "name": "addedValue",
          "type": "uint256"
        }
      ],
      "name": "increaseAllowance",
      "outputs": [
        {
          "internalType": "bool",
          "name": "",
          "type": "bool"
        }
      ],
      "stateMutability": "nonpayable",
      "type": "function"
    },
    {
      "inputs": [],
      "name": "initialize",
      "outputs": [],
      "stateMutability": "nonpayable",
      "type": "function"
    },
    {
      "inputs": [
        {
          "internalType": "address",
          "name": "to",
          "type": "address"
        },
        {
          "internalType": "uint256",
          "name": "startTime",
          "type": "uint256"
        },
        {
          "internalType": "uint256",
          "name": "duration",
          "type": "uint256"
        },
        {
          "internalType": "uint256",
          "name": "amount",
          "type": "uint256"
        }
      ],
      "name": "mint",
      "outputs": [],
      "stateMutability": "nonpayable",
      "type": "function"
    },
    {
      "inputs": [],
      "name": "name",
      "outputs": [
        {
          "internalType": "string",
          "name": "",
          "type": "string"
        }
      ],
      "stateMutability": "view",
      "type": "function"
    },
    {
      "inputs": [],
      "name": "pause",
      "outputs": [],
      "stateMutability": "nonpayable",
      "type": "function"
    },
    {
      "inputs": [],
      "name": "paused",
      "outputs": [
        {
          "internalType": "bool",
          "name": "",
          "type": "bool"
        }
      ],
      "stateMutability": "view",
      "type": "function"
    },
    {
      "inputs": [
        {
          "internalType": "address",
          "name": "_address",
          "type": "address"
        }
      ],
      "name": "pendingOf",
      "outputs": [
        {
          "internalType": "uint256",
          "name": "",
          "type": "uint256"
        }
      ],
      "stateMutability": "view",
      "type": "function"
    },
    {
      "inputs": [
        {
          "internalType": "bytes32",
          "name": "role",
          "type": "bytes32"
        },
        {
          "internalType": "address",
          "name": "account",
          "type": "address"
        }
      ],
      "name": "renounceRole",
      "outputs": [],
      "stateMutability": "nonpayable",
      "type": "function"
    },
    {
      "inputs": [
        {
          "internalType": "bytes32",
          "name": "role",
          "type": "bytes32"
        },
        {
          "internalType": "address",
          "name": "account",
          "type": "address"
        }
      ],
      "name": "revokeRole",
      "outputs": [],
      "stateMutability": "nonpayable",
      "type": "function"
    },
    {
      "inputs": [
        {
          "internalType": "bytes4",
          "name": "interfaceId",
          "type": "bytes4"
        }
      ],
      "name": "supportsInterface",
      "outputs": [
        {
          "internalType": "bool",
          "name": "",
          "type": "bool"
        }
      ],
      "stateMutability": "view",
      "type": "function"
    },
    {
      "inputs": [],
      "name": "symbol",
      "outputs": [
        {
          "internalType": "string",
          "name": "",
          "type": "string"
        }
      ],
      "stateMutability": "view",
      "type": "function"
    },
    {
      "inputs": [],
      "name": "totalSupply",
      "outputs": [
        {
          "internalType": "uint256",
          "name": "",
          "type": "uint256"
        }
      ],
      "stateMutability": "view",
      "type": "function"
    },
    {
      "inputs": [
        {
          "internalType": "address",
          "name": "to",
          "type": "address"
        },
        {
          "internalType": "uint256",
          "name": "amount",
          "type": "uint256"
        }
      ],
      "name": "transfer",
      "outputs": [
        {
          "internalType": "bool",
          "name": "",
          "type": "bool"
        }
      ],
      "stateMutability": "nonpayable",
      "type": "function"
    },
    {
      "inputs": [
        {
          "internalType": "address",
          "name": "from",
          "type": "address"
        },
        {
          "internalType": "address",
          "name": "to",
          "type": "address"
        },
        {
          "internalType": "uint256",
          "name": "amount",
          "type": "uint256"
        }
      ],
      "name": "transferFrom",
      "outputs": [
        {
          "internalType": "bool",
          "name": "",
          "type": "bool"
        }
      ],
      "stateMutability": "nonpayable",
      "type": "function"
    },
    {
      "inputs": [],
      "name": "unpause",
      "outputs": [],
      "stateMutability": "nonpayable",
      "type": "function"
    }
  ],
  "bytecode": "0x60806040523480156200001157600080fd5b50600054610100900460ff166200002f5760005460ff161562000039565b62000039620000de565b620000a15760405162461bcd60e51b815260206004820152602e60248201527f496e697469616c697a61626c653a20636f6e747261637420697320616c72656160448201526d191e481a5b9a5d1a585b1a5e995960921b606482015260840160405180910390fd5b600054610100900460ff16158015620000c4576000805461ffff19166101011790555b8015620000d7576000805461ff00191690555b506200010b565b6000620000f630620000fc60201b62000e231760201c565b15905090565b6001600160a01b03163b151590565b611f21806200011b6000396000f3fe608060405234801561001057600080fd5b50600436106101e55760003560e01c80635c975abb1161010f578063a457c2d7116100a2578063d547741f11610071578063d547741f14610419578063dd62ed3e1461042c578063e63ab1e914610465578063f44136a11461047a57600080fd5b8063a457c2d7146103cb578063a647e8ec146103de578063a9059cbb146103f1578063d53913931461040457600080fd5b80638456cb59116100de5780638456cb59146103a057806391d14854146103a857806395d89b41146103bb578063a217fddf146103c357600080fd5b80635c975abb1461033157806370a082311461033c5780637a153043146103655780638129fc1c1461039857600080fd5b8063248a9ca311610187578063395093511161015657806339509351146102d05780633f4ba83a146102e357806349e8b863146102eb57806353f7ce2d1461031e57600080fd5b8063248a9ca3146102785780632f2ff15d1461029b578063313ce567146102ae57806336568abe146102bd57600080fd5b8063095ea7b3116101c3578063095ea7b314610231578063098480ec1461024457806318160ddd1461025d57806323b872dd1461026557600080fd5b806301ffc9a7146101ea57806303a9f06e1461021257806306fdde031461021c575b600080fd5b6101fd6101f8366004611909565b61048d565b60405190151581526020015b60405180910390f35b61021a6104c4565b005b610224610756565b604051610209919061195f565b6101fd61023f3660046119ae565b6107e8565b61024f630167e98081565b604051908152602001610209565b60355461024f565b6101fd6102733660046119d8565b610800565b61024f610286366004611a14565b600090815260c9602052604090206001015490565b61021a6102a9366004611a2d565b610824565b60405160128152602001610209565b61021a6102cb366004611a2d565b61084f565b6101fd6102de3660046119ae565b6108c9565b61021a610908565b610306735b747e23a9e4c509dd06fbd2c0e3cb8b846e398f81565b6040516001600160a01b039091168152602001610209565b61021a61032c366004611b2f565b61092c565b60655460ff166101fd565b61024f61034a366004611bff565b6001600160a01b031660009081526033602052604090205490565b6103786103733660046119ae565b6109fa565b604080519485526020850193909352918301526060820152608001610209565b61021a610a40565b61021a610b85565b6101fd6103b6366004611a2d565b610ba6565b610224610bd1565b61024f600081565b6101fd6103d93660046119ae565b610be0565b61021a6103ec366004611c1a565b610c72565b6101fd6103ff3660046119ae565b610d32565b61024f600080516020611ecc83398151915281565b61021a610427366004611a2d565b610d40565b61024f61043a366004611c53565b6001600160a01b03918216600090815260346020908152604080832093909416825291909152205490565b61024f600080516020611eac83398151915281565b61024f610488366004611bff565b610d66565b60006001600160e01b03198216637965db0b60e01b14806104be57506301ffc9a760e01b6001600160e01b03198316145b92915050565b60655460ff16156104f05760405162461bcd60e51b81526004016104e790611c7d565b60405180910390fd5b6000805b33600090815260fe60205260409020548110156105ad5733600090815260fe6020526040812080548390811061052c5761052c611ca7565b906000526020600020906004020190506000816003015482600201546105529190611cd3565b826001015483600201546105669190611cea565b6105709190611cd3565b9050808260030160008282546105869190611cd3565b9091555061059690508185611d0c565b9350505080806105a590611d24565b9150506104f4565b506040516370a0823160e01b81523060048201528190735b747e23a9e4c509dd06fbd2c0e3cb8b846e398f906370a082319060240160206040518083038186803b1580156105fa57600080fd5b505afa15801561060e573d6000803e3d6000fd5b505050506040513d601f19601f820116820180604052508101906106329190611d3f565b11156106d757735b747e23a9e4c509dd06fbd2c0e3cb8b846e398f63a9059cbb336040516001600160e01b031960e084901b1681526001600160a01b03909116600482015260248101849052604401602060405180830381600087803b15801561069b57600080fd5b505af11580156106af573d6000803e3d6000fd5b505050506040513d601f19601f820116820180604052508101906106d39190611d58565b5050565b735b747e23a9e4c509dd06fbd2c0e3cb8b846e398f6340c10f19336040516001600160e01b031960e084901b1681526001600160a01b03909116600482015260248101849052604401600060405180830381600087803b15801561073a57600080fd5b505af115801561074e573d6000803e3d6000fd5b50505050505b565b60606036805461076590611d7a565b80601f016020809104026020016040519081016040528092919081815260200182805461079190611d7a565b80156107de5780601f106107b3576101008083540402835291602001916107de565b820191906000526020600020905b8154815290600101906020018083116107c157829003601f168201915b5050505050905090565b6000336107f6818585610e32565b5060019392505050565b60003361080e858285610f56565b610819858585610fe8565b506001949350505050565b600082815260c9602052604090206001015461084081336111c1565b61084a8383611225565b505050565b6001600160a01b03811633146108bf5760405162461bcd60e51b815260206004820152602f60248201527f416363657373436f6e74726f6c3a2063616e206f6e6c792072656e6f756e636560448201526e103937b632b9903337b91039b2b63360891b60648201526084016104e7565b6106d382826112ab565b3360008181526034602090815260408083206001600160a01b03871684529091528120549091906107f69082908690610903908790611d0c565b610e32565b600080516020611eac83398151915261092181336111c1565b610929611312565b50565b600080516020611ecc83398151915261094581336111c1565b83518551146109965760405162461bcd60e51b815260206004820152601f60248201527f746f20616e6420616d6f756e7420617272617973206d757374206d617463680060448201526064016104e7565b60005b85518110156109f2576109e08682815181106109b7576109b7611ca7565b602002602001015185858885815181106109d3576109d3611ca7565b6020026020010151610c72565b806109ea81611d24565b915050610999565b505050505050565b60fe6020528160005260406000208181548110610a1657600080fd5b60009182526020909120600490910201805460018201546002830154600390930154919450925084565b600054610100900460ff16610a5b5760005460ff1615610a5f565b303b155b610ac25760405162461bcd60e51b815260206004820152602e60248201527f496e697469616c697a61626c653a20636f6e747261637420697320616c72656160448201526d191e481a5b9a5d1a585b1a5e995960921b60648201526084016104e7565b600054610100900460ff16158015610ae4576000805461ffff19166101011790555b610b26604051806040016040528060048152602001636345564f60e01b815250604051806040016040528060048152602001636345564f60e01b8152506113a5565b610b2e6113d6565b610b36611405565b610b41600033611225565b610b59600080516020611eac83398151915233611225565b610b71600080516020611ecc83398151915233611225565b8015610929576000805461ff001916905550565b600080516020611eac833981519152610b9e81336111c1565b61092961142c565b600091825260c9602090815260408084206001600160a01b0393909316845291905290205460ff1690565b60606037805461076590611d7a565b3360008181526034602090815260408083206001600160a01b038716845290915281205490919083811015610c655760405162461bcd60e51b815260206004820152602560248201527f45524332303a2064656372656173656420616c6c6f77616e63652062656c6f77604482015264207a65726f60d81b60648201526084016104e7565b6108198286868403610e32565b600080516020611ecc833981519152610c8b81336111c1565b6000808511610c9a5742610c9c565b845b90506000808511610cb157630167e980610cb3565b845b6001600160a01b038816600090815260fe6020908152604080832081516080810183528781528084018681529281018a8152606082018b8152835460018181018655948852959096209151600490950290910193845591519083015551600282015590516003909101559050610d298785611484565b50505050505050565b6000336107f6818585610fe8565b600082815260c96020526040902060010154610d5c81336111c1565b61084a83836112ab565b600080805b6001600160a01b038416600090815260fe6020526040902054811015610e1c576001600160a01b038416600090815260fe60205260408120805483908110610db557610db5611ca7565b90600052602060002090600402019050600081600301548260020154610ddb9190611cd3565b82600101548360020154610def9190611cea565b610df99190611cd3565b9050610e058185611d0c565b935050508080610e1490611d24565b915050610d6b565b5092915050565b6001600160a01b03163b151590565b6001600160a01b038316610e945760405162461bcd60e51b8152602060048201526024808201527f45524332303a20617070726f76652066726f6d20746865207a65726f206164646044820152637265737360e01b60648201526084016104e7565b6001600160a01b038216610ef55760405162461bcd60e51b815260206004820152602260248201527f45524332303a20617070726f766520746f20746865207a65726f206164647265604482015261737360f01b60648201526084016104e7565b6001600160a01b0383811660008181526034602090815260408083209487168084529482529182902085905590518481527f8c5be1e5ebec7d5bd14f71427d1e84f3dd0314c0f7b2291e5b200ac8c7c3b925910160405180910390a3505050565b6001600160a01b038381166000908152603460209081526040808320938616835292905220546000198114610fe25781811015610fd55760405162461bcd60e51b815260206004820152601d60248201527f45524332303a20696e73756666696369656e7420616c6c6f77616e636500000060448201526064016104e7565b610fe28484848403610e32565b50505050565b6001600160a01b03831661104c5760405162461bcd60e51b815260206004820152602560248201527f45524332303a207472616e736665722066726f6d20746865207a65726f206164604482015264647265737360d81b60648201526084016104e7565b6001600160a01b0382166110ae5760405162461bcd60e51b815260206004820152602360248201527f45524332303a207472616e7366657220746f20746865207a65726f206164647260448201526265737360e81b60648201526084016104e7565b6110b983838361156f565b6001600160a01b038316600090815260336020526040902054818110156111315760405162461bcd60e51b815260206004820152602660248201527f45524332303a207472616e7366657220616d6f756e7420657863656564732062604482015265616c616e636560d01b60648201526084016104e7565b6001600160a01b03808516600090815260336020526040808220858503905591851681529081208054849290611168908490611d0c565b92505081905550826001600160a01b0316846001600160a01b03167fddf252ad1be2c89b69c2b068fc378daa952ba7f163c4a11628f55a4df523b3ef846040516111b491815260200190565b60405180910390a3610fe2565b6111cb8282610ba6565b6106d3576111e3816001600160a01b0316601461162a565b6111ee83602061162a565b6040516020016111ff929190611db5565b60408051601f198184030181529082905262461bcd60e51b82526104e79160040161195f565b61122f8282610ba6565b6106d357600082815260c9602090815260408083206001600160a01b03851684529091529020805460ff191660011790556112673390565b6001600160a01b0316816001600160a01b0316837f2f8788117e7eff1d82e926ec794901d17c78024a50270940304540a733656f0d60405160405180910390a45050565b6112b58282610ba6565b156106d357600082815260c9602090815260408083206001600160a01b0385168085529252808320805460ff1916905551339285917ff6391f5c32d9c69d2a47ea670b442974b53935d1edc7fd64eb21e047a839171b9190a45050565b60655460ff1661135b5760405162461bcd60e51b815260206004820152601460248201527314185d5cd8589b194e881b9bdd081c185d5cd95960621b60448201526064016104e7565b6065805460ff191690557f5db9ee0a495bf2e6ff9c91a7834c1ba4fdd244a5e8aa4e537bd38aeae4b073aa335b6040516001600160a01b03909116815260200160405180910390a1565b600054610100900460ff166113cc5760405162461bcd60e51b81526004016104e790611e2a565b6106d382826117cd565b600054610100900460ff166113fd5760405162461bcd60e51b81526004016104e790611e2a565b61075461181b565b600054610100900460ff166107545760405162461bcd60e51b81526004016104e790611e2a565b60655460ff161561144f5760405162461bcd60e51b81526004016104e790611c7d565b6065805460ff191660011790557f62e78cea01bee320cd4e420270b5ea74000d11b0c9f74754ebdbfc544b05a2586113883390565b6001600160a01b0382166114da5760405162461bcd60e51b815260206004820152601f60248201527f45524332303a206d696e7420746f20746865207a65726f20616464726573730060448201526064016104e7565b6114e66000838361156f565b80603560008282546114f89190611d0c565b90915550506001600160a01b03821660009081526033602052604081208054839290611525908490611d0c565b90915550506040518181526001600160a01b038316906000907fddf252ad1be2c89b69c2b068fc378daa952ba7f163c4a11628f55a4df523b3ef9060200160405180910390a35050565b60655460ff16156115925760405162461bcd60e51b81526004016104e790611c7d565b828261159f60fb8261184e565b806115c757506001600160a01b038216600090815260fd602052604090206115c7908261184e565b806115d957506001600160a01b038216155b6116255760405162461bcd60e51b815260206004820152601860248201527f6345564f206973206e6f6e2d7472616e7366657261626c65000000000000000060448201526064016104e7565b61074e565b60606000611639836002611e75565b611644906002611d0c565b67ffffffffffffffff81111561165c5761165c611a59565b6040519080825280601f01601f191660200182016040528015611686576020820181803683370190505b509050600360fc1b816000815181106116a1576116a1611ca7565b60200101906001600160f81b031916908160001a905350600f60fb1b816001815181106116d0576116d0611ca7565b60200101906001600160f81b031916908160001a90535060006116f4846002611e75565b6116ff906001611d0c565b90505b6001811115611777576f181899199a1a9b1b9c1cb0b131b232b360811b85600f166010811061173357611733611ca7565b1a60f81b82828151811061174957611749611ca7565b60200101906001600160f81b031916908160001a90535060049490941c9361177081611e94565b9050611702565b5083156117c65760405162461bcd60e51b815260206004820181905260248201527f537472696e67733a20686578206c656e67746820696e73756666696369656e7460448201526064016104e7565b9392505050565b600054610100900460ff166117f45760405162461bcd60e51b81526004016104e790611e2a565b8151611807906036906020850190611870565b50805161084a906037906020840190611870565b600054610100900460ff166118425760405162461bcd60e51b81526004016104e790611e2a565b6065805460ff19169055565b6001600160a01b038116600090815260018301602052604081205415156117c6565b82805461187c90611d7a565b90600052602060002090601f01602090048101928261189e57600085556118e4565b82601f106118b757805160ff19168380011785556118e4565b828001600101855582156118e4579182015b828111156118e45782518255916020019190600101906118c9565b506118f09291506118f4565b5090565b5b808211156118f057600081556001016118f5565b60006020828403121561191b57600080fd5b81356001600160e01b0319811681146117c657600080fd5b60005b8381101561194e578181015183820152602001611936565b83811115610fe25750506000910152565b602081526000825180602084015261197e816040850160208701611933565b601f01601f19169190910160400192915050565b80356001600160a01b03811681146119a957600080fd5b919050565b600080604083850312156119c157600080fd5b6119ca83611992565b946020939093013593505050565b6000806000606084860312156119ed57600080fd5b6119f684611992565b9250611a0460208501611992565b9150604084013590509250925092565b600060208284031215611a2657600080fd5b5035919050565b60008060408385031215611a4057600080fd5b82359150611a5060208401611992565b90509250929050565b634e487b7160e01b600052604160045260246000fd5b604051601f8201601f1916810167ffffffffffffffff81118282101715611a9857611a98611a59565b604052919050565b600067ffffffffffffffff821115611aba57611aba611a59565b5060051b60200190565b600082601f830112611ad557600080fd5b81356020611aea611ae583611aa0565b611a6f565b82815260059290921b84018101918181019086841115611b0957600080fd5b8286015b84811015611b245780358352918301918301611b0d565b509695505050505050565b60008060008060808587031215611b4557600080fd5b843567ffffffffffffffff80821115611b5d57600080fd5b818701915087601f830112611b7157600080fd5b81356020611b81611ae583611aa0565b82815260059290921b8401810191818101908b841115611ba057600080fd5b948201945b83861015611bc557611bb686611992565b82529482019490820190611ba5565b98505088013592505080821115611bdb57600080fd5b50611be887828801611ac4565b949794965050505060408301359260600135919050565b600060208284031215611c1157600080fd5b6117c682611992565b60008060008060808587031215611c3057600080fd5b611c3985611992565b966020860135965060408601359560600135945092505050565b60008060408385031215611c6657600080fd5b611c6f83611992565b9150611a5060208401611992565b60208082526010908201526f14185d5cd8589b194e881c185d5cd95960821b604082015260600190565b634e487b7160e01b600052603260045260246000fd5b634e487b7160e01b600052601160045260246000fd5b600082821015611ce557611ce5611cbd565b500390565b600082611d0757634e487b7160e01b600052601260045260246000fd5b500490565b60008219821115611d1f57611d1f611cbd565b500190565b6000600019821415611d3857611d38611cbd565b5060010190565b600060208284031215611d5157600080fd5b5051919050565b600060208284031215611d6a57600080fd5b815180151581146117c657600080fd5b600181811c90821680611d8e57607f821691505b60208210811415611daf57634e487b7160e01b600052602260045260246000fd5b50919050565b7f416363657373436f6e74726f6c3a206163636f756e7420000000000000000000815260008351611ded816017850160208801611933565b7001034b99036b4b9b9b4b733903937b6329607d1b6017918401918201528351611e1e816028840160208801611933565b01602801949350505050565b6020808252602b908201527f496e697469616c697a61626c653a20636f6e7472616374206973206e6f74206960408201526a6e697469616c697a696e6760a81b606082015260800190565b6000816000190483118215151615611e8f57611e8f611cbd565b500290565b600081611ea357611ea3611cbd565b50600019019056fe65d7a28e3265b37a6474929f336521b332c1681b933f6cb9f3376673440d862a9f2df0fed2c77648de5860a4cc508cd0818c85b8b8a1ab4ceeef8d981c8956a6a26469706673582212203ecc6df83252e97768293eb8d4841fd0fdf87b098d9450f9bddd2f744b7619c664736f6c63430008090033",
  "linkReferences": {},
  "deployedLinkReferences": {}
}