{
  "_format": "hh-sol-artifact-1",
  "contractName": "cEVO",
  "sourceName": "contracts/ERC20/cEVOUpgradeable.sol",
  "abi": [
    {
      "inputs": [],
      "stateMutability": "nonpayable",
      "type": "constructor"
    },
    {
      "anonymous": false,
      "inputs": [
        {
          "indexed": true,
          "internalType": "address",
          "name": "owner",
          "type": "address"
        },
        {
          "indexed": true,
          "internalType": "address",
          "name": "spender",
          "type": "address"
        },
        {
          "indexed": false,
          "internalType": "uint256",
          "name": "value",
          "type": "uint256"
        }
      ],
      "name": "Approval",
      "type": "event"
    },
    {
      "anonymous": false,
      "inputs": [
        {
          "indexed": false,
          "internalType": "address",
          "name": "account",
          "type": "address"
        }
      ],
      "name": "Paused",
      "type": "event"
    },
    {
      "anonymous": false,
      "inputs": [
        {
          "indexed": true,
          "internalType": "bytes32",
          "name": "role",
          "type": "bytes32"
        },
        {
          "indexed": true,
          "internalType": "bytes32",
          "name": "previousAdminRole",
          "type": "bytes32"
        },
        {
          "indexed": true,
          "internalType": "bytes32",
          "name": "newAdminRole",
          "type": "bytes32"
        }
      ],
      "name": "RoleAdminChanged",
      "type": "event"
    },
    {
      "anonymous": false,
      "inputs": [
        {
          "indexed": true,
          "internalType": "bytes32",
          "name": "role",
          "type": "bytes32"
        },
        {
          "indexed": true,
          "internalType": "address",
          "name": "account",
          "type": "address"
        },
        {
          "indexed": true,
          "internalType": "address",
          "name": "sender",
          "type": "address"
        }
      ],
      "name": "RoleGranted",
      "type": "event"
    },
    {
      "anonymous": false,
      "inputs": [
        {
          "indexed": true,
          "internalType": "bytes32",
          "name": "role",
          "type": "bytes32"
        },
        {
          "indexed": true,
          "internalType": "address",
          "name": "account",
          "type": "address"
        },
        {
          "indexed": true,
          "internalType": "address",
          "name": "sender",
          "type": "address"
        }
      ],
      "name": "RoleRevoked",
      "type": "event"
    },
    {
      "anonymous": false,
      "inputs": [
        {
          "indexed": true,
          "internalType": "address",
          "name": "from",
          "type": "address"
        },
        {
          "indexed": true,
          "internalType": "address",
          "name": "to",
          "type": "address"
        },
        {
          "indexed": false,
          "internalType": "uint256",
          "name": "value",
          "type": "uint256"
        }
      ],
      "name": "Transfer",
      "type": "event"
    },
    {
      "anonymous": false,
      "inputs": [
        {
          "indexed": false,
          "internalType": "address",
          "name": "account",
          "type": "address"
        }
      ],
      "name": "Unpaused",
      "type": "event"
    },
    {
      "inputs": [],
      "name": "DEFAULT_ADMIN_ROLE",
      "outputs": [
        {
          "internalType": "bytes32",
          "name": "",
          "type": "bytes32"
        }
      ],
      "stateMutability": "view",
      "type": "function"
    },
    {
      "inputs": [],
      "name": "DEFAULT_VESTING_PERIOD",
      "outputs": [
        {
          "internalType": "uint256",
          "name": "",
          "type": "uint256"
        }
      ],
      "stateMutability": "view",
      "type": "function"
    },
    {
      "inputs": [],
      "name": "EVO",
      "outputs": [
        {
          "internalType": "contract IEvoToken",
          "name": "",
          "type": "address"
        }
      ],
      "stateMutability": "view",
      "type": "function"
    },
    {
      "inputs": [],
      "name": "MINTER_ROLE",
      "outputs": [
        {
          "internalType": "bytes32",
          "name": "",
          "type": "bytes32"
        }
      ],
      "stateMutability": "view",
      "type": "function"
    },
    {
      "inputs": [],
      "name": "PAUSER_ROLE",
      "outputs": [
        {
          "internalType": "bytes32",
          "name": "",
          "type": "bytes32"
        }
      ],
      "stateMutability": "view",
      "type": "function"
    },
    {
      "inputs": [
        {
          "internalType": "address",
          "name": "to",
          "type": "address"
        }
      ],
      "name": "addGlobalWhitelist",
      "outputs": [],
      "stateMutability": "nonpayable",
      "type": "function"
    },
    {
      "inputs": [
        {
          "internalType": "address",
          "name": "from",
          "type": "address"
        },
        {
          "internalType": "address",
          "name": "to",
          "type": "address"
        }
      ],
      "name": "addWhitelist",
      "outputs": [],
      "stateMutability": "nonpayable",
      "type": "function"
    },
    {
      "inputs": [
        {
          "internalType": "address",
          "name": "owner",
          "type": "address"
        },
        {
          "internalType": "address",
          "name": "spender",
          "type": "address"
        }
      ],
      "name": "allowance",
      "outputs": [
        {
          "internalType": "uint256",
          "name": "",
          "type": "uint256"
        }
      ],
      "stateMutability": "view",
      "type": "function"
    },
    {
      "inputs": [
        {
          "internalType": "address",
          "name": "spender",
          "type": "address"
        },
        {
          "internalType": "uint256",
          "name": "amount",
          "type": "uint256"
        }
      ],
      "name": "approve",
      "outputs": [
        {
          "internalType": "bool",
          "name": "",
          "type": "bool"
        }
      ],
      "stateMutability": "nonpayable",
      "type": "function"
    },
    {
      "inputs": [
        {
          "internalType": "address",
          "name": "account",
          "type": "address"
        }
      ],
      "name": "balanceOf",
      "outputs": [
        {
          "internalType": "uint256",
          "name": "",
          "type": "uint256"
        }
      ],
      "stateMutability": "view",
      "type": "function"
    },
    {
      "inputs": [
        {
          "internalType": "address[]",
          "name": "to",
          "type": "address[]"
        },
        {
          "internalType": "uint256[]",
          "name": "amount",
          "type": "uint256[]"
        },
        {
          "internalType": "uint256",
          "name": "startTime",
          "type": "uint256"
        },
        {
          "internalType": "uint256",
          "name": "duration",
          "type": "uint256"
        }
      ],
      "name": "batchMint",
      "outputs": [],
      "stateMutability": "nonpayable",
      "type": "function"
    },
    {
      "inputs": [],
      "name": "claimPending",
      "outputs": [],
      "stateMutability": "nonpayable",
      "type": "function"
    },
    {
      "inputs": [],
      "name": "convertLocked",
      "outputs": [],
      "stateMutability": "nonpayable",
      "type": "function"
    },
    {
      "inputs": [],
      "name": "decimals",
      "outputs": [
        {
          "internalType": "uint8",
          "name": "",
          "type": "uint8"
        }
      ],
      "stateMutability": "view",
      "type": "function"
    },
    {
      "inputs": [
        {
          "internalType": "address",
          "name": "spender",
          "type": "address"
        },
        {
          "internalType": "uint256",
          "name": "subtractedValue",
          "type": "uint256"
        }
      ],
      "name": "decreaseAllowance",
      "outputs": [
        {
          "internalType": "bool",
          "name": "",
          "type": "bool"
        }
      ],
      "stateMutability": "nonpayable",
      "type": "function"
    },
    {
      "inputs": [
        {
          "internalType": "address",
          "name": "",
          "type": "address"
        },
        {
          "internalType": "uint256",
          "name": "",
          "type": "uint256"
        }
      ],
      "name": "disbursements",
      "outputs": [
        {
          "internalType": "uint256",
          "name": "startTime",
          "type": "uint256"
        },
        {
          "internalType": "uint256",
          "name": "duration",
          "type": "uint256"
        },
        {
          "internalType": "uint256",
          "name": "amount",
          "type": "uint256"
        },
        {
          "internalType": "uint256",
          "name": "balance",
          "type": "uint256"
        }
      ],
      "stateMutability": "view",
      "type": "function"
    },
    {
      "inputs": [
        {
          "internalType": "bytes32",
          "name": "role",
          "type": "bytes32"
        }
      ],
      "name": "getRoleAdmin",
      "outputs": [
        {
          "internalType": "bytes32",
          "name": "",
          "type": "bytes32"
        }
      ],
      "stateMutability": "view",
      "type": "function"
    },
    {
      "inputs": [
        {
          "internalType": "bytes32",
          "name": "role",
          "type": "bytes32"
        },
        {
          "internalType": "address",
          "name": "account",
          "type": "address"
        }
      ],
      "name": "grantRole",
      "outputs": [],
      "stateMutability": "nonpayable",
      "type": "function"
    },
    {
      "inputs": [
        {
          "internalType": "bytes32",
          "name": "role",
          "type": "bytes32"
        },
        {
          "internalType": "address",
          "name": "account",
          "type": "address"
        }
      ],
      "name": "hasRole",
      "outputs": [
        {
          "internalType": "bool",
          "name": "",
          "type": "bool"
        }
      ],
      "stateMutability": "view",
      "type": "function"
    },
    {
      "inputs": [
        {
          "internalType": "address",
          "name": "spender",
          "type": "address"
        },
        {
          "internalType": "uint256",
          "name": "addedValue",
          "type": "uint256"
        }
      ],
      "name": "increaseAllowance",
      "outputs": [
        {
          "internalType": "bool",
          "name": "",
          "type": "bool"
        }
      ],
      "stateMutability": "nonpayable",
      "type": "function"
    },
    {
      "inputs": [],
      "name": "initialize",
      "outputs": [],
      "stateMutability": "nonpayable",
      "type": "function"
    },
    {
      "inputs": [
        {
          "internalType": "address",
          "name": "",
          "type": "address"
        }
      ],
      "name": "lockedOf",
      "outputs": [
        {
          "internalType": "uint256",
          "name": "",
          "type": "uint256"
        }
      ],
      "stateMutability": "view",
      "type": "function"
    },
    {
      "inputs": [
        {
          "internalType": "address",
          "name": "to",
          "type": "address"
        },
        {
          "internalType": "uint256",
          "name": "startTime",
          "type": "uint256"
        },
        {
          "internalType": "uint256",
          "name": "duration",
          "type": "uint256"
        },
        {
          "internalType": "uint256",
          "name": "amount",
          "type": "uint256"
        }
      ],
      "name": "mint",
      "outputs": [],
      "stateMutability": "nonpayable",
      "type": "function"
    },
    {
      "inputs": [
        {
          "internalType": "address",
          "name": "_address",
          "type": "address"
        },
        {
          "internalType": "uint256",
          "name": "amount",
          "type": "uint256"
        }
      ],
      "name": "mintLocked",
      "outputs": [],
      "stateMutability": "nonpayable",
      "type": "function"
    },
    {
      "inputs": [],
      "name": "name",
      "outputs": [
        {
          "internalType": "string",
          "name": "",
          "type": "string"
        }
      ],
      "stateMutability": "view",
      "type": "function"
    },
    {
      "inputs": [],
      "name": "pause",
      "outputs": [],
      "stateMutability": "nonpayable",
      "type": "function"
    },
    {
      "inputs": [],
      "name": "paused",
      "outputs": [
        {
          "internalType": "bool",
          "name": "",
          "type": "bool"
        }
      ],
      "stateMutability": "view",
      "type": "function"
    },
    {
      "inputs": [
        {
          "internalType": "address",
          "name": "_address",
          "type": "address"
        }
      ],
      "name": "pendingOf",
      "outputs": [
        {
          "internalType": "uint256",
          "name": "",
          "type": "uint256"
        }
      ],
      "stateMutability": "view",
      "type": "function"
    },
    {
      "inputs": [
        {
          "internalType": "address",
          "name": "_address",
          "type": "address"
        },
        {
          "internalType": "uint256",
          "name": "index",
          "type": "uint256"
        }
      ],
      "name": "removeDisbursement",
      "outputs": [],
      "stateMutability": "nonpayable",
      "type": "function"
    },
    {
      "inputs": [
        {
          "internalType": "bytes32",
          "name": "role",
          "type": "bytes32"
        },
        {
          "internalType": "address",
          "name": "account",
          "type": "address"
        }
      ],
      "name": "renounceRole",
      "outputs": [],
      "stateMutability": "nonpayable",
      "type": "function"
    },
    {
      "inputs": [
        {
          "internalType": "address",
          "name": "_address",
          "type": "address"
        },
        {
          "internalType": "uint256",
          "name": "index",
          "type": "uint256"
        },
        {
          "internalType": "uint256",
          "name": "amount",
          "type": "uint256"
        }
      ],
      "name": "resetDisbursement",
      "outputs": [],
      "stateMutability": "nonpayable",
      "type": "function"
    },
    {
      "inputs": [
        {
          "internalType": "bytes32",
          "name": "role",
          "type": "bytes32"
        },
        {
          "internalType": "address",
          "name": "account",
          "type": "address"
        }
      ],
      "name": "revokeRole",
      "outputs": [],
      "stateMutability": "nonpayable",
      "type": "function"
    },
    {
      "inputs": [
        {
          "internalType": "bytes4",
          "name": "interfaceId",
          "type": "bytes4"
        }
      ],
      "name": "supportsInterface",
      "outputs": [
        {
          "internalType": "bool",
          "name": "",
          "type": "bool"
        }
      ],
      "stateMutability": "view",
      "type": "function"
    },
    {
      "inputs": [],
      "name": "symbol",
      "outputs": [
        {
          "internalType": "string",
          "name": "",
          "type": "string"
        }
      ],
      "stateMutability": "view",
      "type": "function"
    },
    {
      "inputs": [],
      "name": "totalSupply",
      "outputs": [
        {
          "internalType": "uint256",
          "name": "",
          "type": "uint256"
        }
      ],
      "stateMutability": "view",
      "type": "function"
    },
    {
      "inputs": [
        {
          "internalType": "address",
          "name": "to",
          "type": "address"
        },
        {
          "internalType": "uint256",
          "name": "amount",
          "type": "uint256"
        }
      ],
      "name": "transfer",
      "outputs": [
        {
          "internalType": "bool",
          "name": "",
          "type": "bool"
        }
      ],
      "stateMutability": "nonpayable",
      "type": "function"
    },
    {
      "inputs": [
        {
          "internalType": "address",
          "name": "from",
          "type": "address"
        },
        {
          "internalType": "address",
          "name": "to",
          "type": "address"
        },
        {
          "internalType": "uint256",
          "name": "amount",
          "type": "uint256"
        }
      ],
      "name": "transferFrom",
      "outputs": [
        {
          "internalType": "bool",
          "name": "",
          "type": "bool"
        }
      ],
      "stateMutability": "nonpayable",
      "type": "function"
    },
    {
      "inputs": [],
      "name": "unpause",
      "outputs": [],
      "stateMutability": "nonpayable",
      "type": "function"
    }
  ],
  "bytecode": "0x60806040523480156200001157600080fd5b50600054610100900460ff166200002f5760005460ff161562000039565b62000039620000de565b620000a15760405162461bcd60e51b815260206004820152602e60248201527f496e697469616c697a61626c653a20636f6e747261637420697320616c72656160448201526d191e481a5b9a5d1a585b1a5e995960921b606482015260840160405180910390fd5b600054610100900460ff16158015620000c4576000805461ffff19166101011790555b8015620000d7576000805461ff00191690555b506200010b565b6000620000f630620000fc60201b6200139a1760201c565b15905090565b6001600160a01b03163b151590565b6126ad806200011b6000396000f3fe608060405234801561001057600080fd5b50600436106102325760003560e01c806370a0823111610130578063a5f1e282116100b8578063d53913931161007c578063d5391393146104d8578063d547741f146104ed578063dd62ed3e14610500578063e63ab1e914610539578063f44136a11461054e57600080fd5b8063a5f1e2821461046c578063a647e8ec1461048c578063a73d633c1461049f578063a9059cbb146104b2578063b45cc845146104c557600080fd5b806384f6e96b116100ff57806384f6e96b1461042e57806391d148541461043657806395d89b4114610449578063a217fddf14610451578063a457c2d71461045957600080fd5b806370a08231146103c25780637a153043146103eb5780638129fc1c1461041e5780638456cb591461042657600080fd5b8063313ce567116101be57806349e8b8631161018257806349e8b8631461034b5780635143e2461461037e57806353f7ce2d146103915780635c975abb146103a457806365982e60146103af57600080fd5b8063313ce567146102fb57806336568abe1461030a578063395093511461031d5780633f4ba83a14610330578063478b7ad51461033857600080fd5b8063098480ec11610205578063098480ec1461029157806318160ddd146102aa57806323b872dd146102b2578063248a9ca3146102c55780632f2ff15d146102e857600080fd5b806301ffc9a71461023757806303a9f06e1461025f57806306fdde0314610269578063095ea7b31461027e575b600080fd5b61024a610245366004612062565b610561565b60405190151581526020015b60405180910390f35b610267610598565b005b61027161086a565b60405161025691906120b8565b61024a61028c366004612107565b6108fc565b61029c630167e98081565b604051908152602001610256565b60355461029c565b61024a6102c0366004612131565b610914565b61029c6102d336600461216d565b600090815260c9602052604090206001015490565b6102676102f6366004612186565b610938565b60405160128152602001610256565b610267610318366004612186565b610963565b61024a61032b366004612107565b6109dd565b610267610a1c565b610267610346366004612107565b610a40565b610366735b747e23a9e4c509dd06fbd2c0e3cb8b846e398f81565b6040516001600160a01b039091168152602001610256565b61026761038c366004612107565b610af4565b61026761039f366004612288565b610b45565b60655460ff1661024a565b6102676103bd366004612358565b610c13565b61029c6103d036600461238b565b6001600160a01b031660009081526033602052604090205490565b6103fe6103f9366004612107565b610d0f565b604080519485526020850193909352918301526060820152608001610256565b610267610d55565b610267610e9a565b610267610ebb565b61024a610444366004612186565b6110a0565b6102716110cb565b61029c600081565b61024a610467366004612107565b6110da565b61029c61047a36600461238b565b60ff6020526000908152604090205481565b61026761049a3660046123a6565b61116c565b6102676104ad3660046123df565b61122c565b61024a6104c0366004612107565b61125a565b6102676104d336600461238b565b611268565b61029c60008051602061265883398151915281565b6102676104fb366004612186565b61127f565b61029c61050e3660046123df565b6001600160a01b03918216600090815260346020908152604080832093909416825291909152205490565b61029c60008051602061263883398151915281565b61029c61055c36600461238b565b6112a5565b60006001600160e01b03198216637965db0b60e01b148061059257506301ffc9a760e01b6001600160e01b03198316145b92915050565b60655460ff16156105c45760405162461bcd60e51b81526004016105bb90612409565b60405180910390fd5b6000805b33600090815260fe60205260409020548110156106af5733600090815260fe6020526040812080548390811061060057610600612433565b90600052602060002090600402019050600081600301548260020154610626919061245f565b905060008260010154836002015461063e9190612476565b9050600081846000015442610653919061245f565b61065d9190612498565b9050600061066b848361245f565b11156106985780846003016000828254610685919061245f565b90915550610695905086806124b7565b95505b5050505080806106a7906124cf565b9150506105c8565b50806106b85750565b6106c233826113a9565b6040516370a0823160e01b81523060048201528190735b747e23a9e4c509dd06fbd2c0e3cb8b846e398f906370a082319060240160206040518083038186803b15801561070e57600080fd5b505afa158015610722573d6000803e3d6000fd5b505050506040513d601f19601f8201168201806040525081019061074691906124ea565b11156107eb57735b747e23a9e4c509dd06fbd2c0e3cb8b846e398f63a9059cbb336040516001600160e01b031960e084901b1681526001600160a01b03909116600482015260248101849052604401602060405180830381600087803b1580156107af57600080fd5b505af11580156107c3573d6000803e3d6000fd5b505050506040513d601f19601f820116820180604052508101906107e79190612503565b5050565b735b747e23a9e4c509dd06fbd2c0e3cb8b846e398f6340c10f19336040516001600160e01b031960e084901b1681526001600160a01b03909116600482015260248101849052604401600060405180830381600087803b15801561084e57600080fd5b505af1158015610862573d6000803e3d6000fd5b50505050505b565b60606036805461087990612525565b80601f01602080910402602001604051908101604052809291908181526020018280546108a590612525565b80156108f25780601f106108c7576101008083540402835291602001916108f2565b820191906000526020600020905b8154815290600101906020018083116108d557829003601f168201915b5050505050905090565b60003361090a818585611503565b5060019392505050565b600033610922858285611627565b61092d8585856116b3565b506001949350505050565b600082815260c96020526040902060010154610954813361188c565b61095e83836118f0565b505050565b6001600160a01b03811633146109d35760405162461bcd60e51b815260206004820152602f60248201527f416363657373436f6e74726f6c3a2063616e206f6e6c792072656e6f756e636560448201526e103937b632b9903337b91039b2b63360891b60648201526084016105bb565b6107e78282611976565b3360008181526034602090815260408083206001600160a01b038716845290915281205490919061090a9082908690610a179087906124b7565b611503565b600080516020612638833981519152610a35813361188c565b610a3d6119dd565b50565b6000610a4c813361188c565b6001600160a01b038316600090815260fe60205260408120805484908110610a7657610a76612433565b906000526020600020906004020160030154905060fe6000856001600160a01b03166001600160a01b031681526020019081526020016000208381548110610ac057610ac0612433565b600091825260208220600490910201818155600181018290556002810182905560030155610aee84826113a9565b50505050565b600080516020612658833981519152610b0d813361188c565b6001600160a01b038316600090815260ff602052604081208054849290610b359084906124b7565b9091555061095e90508383611a70565b600080516020612658833981519152610b5e813361188c565b8351855114610baf5760405162461bcd60e51b815260206004820152601f60248201527f746f20616e6420616d6f756e7420617272617973206d757374206d617463680060448201526064016105bb565b60005b8551811015610c0b57610bf9868281518110610bd057610bd0612433565b60200260200101518585888581518110610bec57610bec612433565b602002602001015161116c565b80610c03816124cf565b915050610bb2565b505050505050565b6000610c1f813361188c565b6001600160a01b038416600090815260fe60205260408120805485908110610c4957610c49612433565b90600052602060002090600402016003015490508260fe6000876001600160a01b03166001600160a01b031681526020019081526020016000208581548110610c9457610c94612433565b9060005260206000209060040201600301819055508260fe6000876001600160a01b03166001600160a01b031681526020019081526020016000208581548110610ce057610ce0612433565b9060005260206000209060040201600201819055508281106108625761086285610d0a858461245f565b6113a9565b60fe6020528160005260406000208181548110610d2b57600080fd5b60009182526020909120600490910201805460018201546002830154600390930154919450925084565b600054610100900460ff16610d705760005460ff1615610d74565b303b155b610dd75760405162461bcd60e51b815260206004820152602e60248201527f496e697469616c697a61626c653a20636f6e747261637420697320616c72656160448201526d191e481a5b9a5d1a585b1a5e995960921b60648201526084016105bb565b600054610100900460ff16158015610df9576000805461ffff19166101011790555b610e3b604051806040016040528060048152602001636345564f60e01b815250604051806040016040528060048152602001636345564f60e01b815250611b5b565b610e43611b8c565b610e4b611bbb565b610e566000336118f0565b610e6e600080516020612638833981519152336118f0565b610e86600080516020612658833981519152336118f0565b8015610a3d576000805461ff001916905550565b600080516020612638833981519152610eb3813361188c565b610a3d611be2565b600080516020612658833981519152610ed4813361188c565b6000735b747e23a9e4c509dd06fbd2c0e3cb8b846e398f635a46d3b5336040516001600160e01b031960e084901b1681526001600160a01b03909116600482015260240160206040518083038186803b158015610f3057600080fd5b505afa158015610f44573d6000803e3d6000fd5b505050506040513d601f19601f82011682018060405250810190610f6891906124ea565b9050735b747e23a9e4c509dd06fbd2c0e3cb8b846e398f63af2b0f66336040516001600160e01b031960e084901b1681526001600160a01b03909116600482015260248101849052604401600060405180830381600087803b158015610fcd57600080fd5b505af1158015610fe1573d6000803e3d6000fd5b50505050735b747e23a9e4c509dd06fbd2c0e3cb8b846e398f6001600160a01b03166323b872dd61100f3390565b6040516001600160e01b031960e084901b1681526001600160a01b03909116600482015230602482015260448101849052606401602060405180830381600087803b15801561105d57600080fd5b505af1158015611071573d6000803e3d6000fd5b505050506040513d601f19601f820116820180604052508101906110959190612503565b506107e73382610af4565b600091825260c9602090815260408084206001600160a01b0393909316845291905290205460ff1690565b60606037805461087990612525565b3360008181526034602090815260408083206001600160a01b03871684529091528120549091908381101561115f5760405162461bcd60e51b815260206004820152602560248201527f45524332303a2064656372656173656420616c6c6f77616e63652062656c6f77604482015264207a65726f60d81b60648201526084016105bb565b61092d8286868403611503565b600080516020612658833981519152611185813361188c565b60008085116111945742611196565b845b905060008085116111ab57630167e9806111ad565b845b6001600160a01b038816600090815260fe6020908152604080832081516080810183528781528084018681529281018a8152606082018b81528354600181810186559488529590962091516004909502909101938455915190830155516002820155905160039091015590506112238785611a70565b50505050505050565b6000611238813361188c565b6001600160a01b038316600090815260fd60205260409020610aee9083611c3a565b60003361090a8185856116b3565b6000611274813361188c565b61095e60fb83611c3a565b600082815260c9602052604090206001015461129b813361188c565b61095e8383611976565b600080805b6001600160a01b038416600090815260fe6020526040902054811015611393576001600160a01b038416600090815260fe602052604081208054839081106112f4576112f4612433565b9060005260206000209060040201905060008160030154826002015461131a919061245f565b90506000826001015483600201546113329190612476565b9050600081846000015442611347919061245f565b6113519190612498565b9050600061135f848361245f565b111561137c5761136f838261245f565b61137990876124b7565b95505b50505050808061138b906124cf565b9150506112aa565b5092915050565b6001600160a01b03163b151590565b6001600160a01b0382166114095760405162461bcd60e51b815260206004820152602160248201527f45524332303a206275726e2066726f6d20746865207a65726f206164647265736044820152607360f81b60648201526084016105bb565b61141582600083611c56565b6001600160a01b038216600090815260336020526040902054818110156114895760405162461bcd60e51b815260206004820152602260248201527f45524332303a206275726e20616d6f756e7420657863656564732062616c616e604482015261636560f01b60648201526084016105bb565b6001600160a01b03831660009081526033602052604081208383039055603580548492906114b890849061245f565b90915550506040518281526000906001600160a01b038516907fddf252ad1be2c89b69c2b068fc378daa952ba7f163c4a11628f55a4df523b3ef9060200160405180910390a3505050565b6001600160a01b0383166115655760405162461bcd60e51b8152602060048201526024808201527f45524332303a20617070726f76652066726f6d20746865207a65726f206164646044820152637265737360e01b60648201526084016105bb565b6001600160a01b0382166115c65760405162461bcd60e51b815260206004820152602260248201527f45524332303a20617070726f766520746f20746865207a65726f206164647265604482015261737360f01b60648201526084016105bb565b6001600160a01b0383811660008181526034602090815260408083209487168084529482529182902085905590518481527f8c5be1e5ebec7d5bd14f71427d1e84f3dd0314c0f7b2291e5b200ac8c7c3b925910160405180910390a3505050565b6001600160a01b038381166000908152603460209081526040808320938616835292905220546000198114610aee57818110156116a65760405162461bcd60e51b815260206004820152601d60248201527f45524332303a20696e73756666696369656e7420616c6c6f77616e636500000060448201526064016105bb565b610aee8484848403611503565b6001600160a01b0383166117175760405162461bcd60e51b815260206004820152602560248201527f45524332303a207472616e736665722066726f6d20746865207a65726f206164604482015264647265737360d81b60648201526084016105bb565b6001600160a01b0382166117795760405162461bcd60e51b815260206004820152602360248201527f45524332303a207472616e7366657220746f20746865207a65726f206164647260448201526265737360e81b60648201526084016105bb565b611784838383611c56565b6001600160a01b038316600090815260336020526040902054818110156117fc5760405162461bcd60e51b815260206004820152602660248201527f45524332303a207472616e7366657220616d6f756e7420657863656564732062604482015265616c616e636560d01b60648201526084016105bb565b6001600160a01b038085166000908152603360205260408082208585039055918516815290812080548492906118339084906124b7565b92505081905550826001600160a01b0316846001600160a01b03167fddf252ad1be2c89b69c2b068fc378daa952ba7f163c4a11628f55a4df523b3ef8460405161187f91815260200190565b60405180910390a3610aee565b61189682826110a0565b6107e7576118ae816001600160a01b03166014611d5d565b6118b9836020611d5d565b6040516020016118ca929190612560565b60408051601f198184030181529082905262461bcd60e51b82526105bb916004016120b8565b6118fa82826110a0565b6107e757600082815260c9602090815260408083206001600160a01b03851684529091529020805460ff191660011790556119323390565b6001600160a01b0316816001600160a01b0316837f2f8788117e7eff1d82e926ec794901d17c78024a50270940304540a733656f0d60405160405180910390a45050565b61198082826110a0565b156107e757600082815260c9602090815260408083206001600160a01b0385168085529252808320805460ff1916905551339285917ff6391f5c32d9c69d2a47ea670b442974b53935d1edc7fd64eb21e047a839171b9190a45050565b60655460ff16611a265760405162461bcd60e51b815260206004820152601460248201527314185d5cd8589b194e881b9bdd081c185d5cd95960621b60448201526064016105bb565b6065805460ff191690557f5db9ee0a495bf2e6ff9c91a7834c1ba4fdd244a5e8aa4e537bd38aeae4b073aa335b6040516001600160a01b03909116815260200160405180910390a1565b6001600160a01b038216611ac65760405162461bcd60e51b815260206004820152601f60248201527f45524332303a206d696e7420746f20746865207a65726f20616464726573730060448201526064016105bb565b611ad260008383611c56565b8060356000828254611ae491906124b7565b90915550506001600160a01b03821660009081526033602052604081208054839290611b119084906124b7565b90915550506040518181526001600160a01b038316906000907fddf252ad1be2c89b69c2b068fc378daa952ba7f163c4a11628f55a4df523b3ef9060200160405180910390a35050565b600054610100900460ff16611b825760405162461bcd60e51b81526004016105bb906125d5565b6107e78282611ef9565b600054610100900460ff16611bb35760405162461bcd60e51b81526004016105bb906125d5565b610868611f47565b600054610100900460ff166108685760405162461bcd60e51b81526004016105bb906125d5565b60655460ff1615611c055760405162461bcd60e51b81526004016105bb90612409565b6065805460ff191660011790557f62e78cea01bee320cd4e420270b5ea74000d11b0c9f74754ebdbfc544b05a258611a533390565b6000611c4f836001600160a01b038416611f7a565b9392505050565b60655460ff1615611c795760405162461bcd60e51b81526004016105bb90612409565b8282611ca360fb826001600160a01b03811660009081526001830160205260408120541515611c4f565b80611ce857506001600160a01b038216600090815260fd60205260409020611ce890826001600160a01b03811660009081526001830160205260408120541515611c4f565b80611cfa57506001600160a01b038216155b80611d0c57506001600160a01b038116155b611d585760405162461bcd60e51b815260206004820152601860248201527f6345564f206973206e6f6e2d7472616e7366657261626c65000000000000000060448201526064016105bb565b610862565b60606000611d6c836002612498565b611d779060026124b7565b67ffffffffffffffff811115611d8f57611d8f6121b2565b6040519080825280601f01601f191660200182016040528015611db9576020820181803683370190505b509050600360fc1b81600081518110611dd457611dd4612433565b60200101906001600160f81b031916908160001a905350600f60fb1b81600181518110611e0357611e03612433565b60200101906001600160f81b031916908160001a9053506000611e27846002612498565b611e329060016124b7565b90505b6001811115611eaa576f181899199a1a9b1b9c1cb0b131b232b360811b85600f1660108110611e6657611e66612433565b1a60f81b828281518110611e7c57611e7c612433565b60200101906001600160f81b031916908160001a90535060049490941c93611ea381612620565b9050611e35565b508315611c4f5760405162461bcd60e51b815260206004820181905260248201527f537472696e67733a20686578206c656e67746820696e73756666696369656e7460448201526064016105bb565b600054610100900460ff16611f205760405162461bcd60e51b81526004016105bb906125d5565b8151611f33906036906020850190611fc9565b50805161095e906037906020840190611fc9565b600054610100900460ff16611f6e5760405162461bcd60e51b81526004016105bb906125d5565b6065805460ff19169055565b6000818152600183016020526040812054611fc157508154600181810184556000848152602080822090930184905584548482528286019093526040902091909155610592565b506000610592565b828054611fd590612525565b90600052602060002090601f016020900481019282611ff7576000855561203d565b82601f1061201057805160ff191683800117855561203d565b8280016001018555821561203d579182015b8281111561203d578251825591602001919060010190612022565b5061204992915061204d565b5090565b5b80821115612049576000815560010161204e565b60006020828403121561207457600080fd5b81356001600160e01b031981168114611c4f57600080fd5b60005b838110156120a757818101518382015260200161208f565b83811115610aee5750506000910152565b60208152600082518060208401526120d781604085016020870161208c565b601f01601f19169190910160400192915050565b80356001600160a01b038116811461210257600080fd5b919050565b6000806040838503121561211a57600080fd5b612123836120eb565b946020939093013593505050565b60008060006060848603121561214657600080fd5b61214f846120eb565b925061215d602085016120eb565b9150604084013590509250925092565b60006020828403121561217f57600080fd5b5035919050565b6000806040838503121561219957600080fd5b823591506121a9602084016120eb565b90509250929050565b634e487b7160e01b600052604160045260246000fd5b604051601f8201601f1916810167ffffffffffffffff811182821017156121f1576121f16121b2565b604052919050565b600067ffffffffffffffff821115612213576122136121b2565b5060051b60200190565b600082601f83011261222e57600080fd5b8135602061224361223e836121f9565b6121c8565b82815260059290921b8401810191818101908684111561226257600080fd5b8286015b8481101561227d5780358352918301918301612266565b509695505050505050565b6000806000806080858703121561229e57600080fd5b843567ffffffffffffffff808211156122b657600080fd5b818701915087601f8301126122ca57600080fd5b813560206122da61223e836121f9565b82815260059290921b8401810191818101908b8411156122f957600080fd5b948201945b8386101561231e5761230f866120eb565b825294820194908201906122fe565b9850508801359250508082111561233457600080fd5b506123418782880161221d565b949794965050505060408301359260600135919050565b60008060006060848603121561236d57600080fd5b612376846120eb565b95602085013595506040909401359392505050565b60006020828403121561239d57600080fd5b611c4f826120eb565b600080600080608085870312156123bc57600080fd5b6123c5856120eb565b966020860135965060408601359560600135945092505050565b600080604083850312156123f257600080fd5b6123fb836120eb565b91506121a9602084016120eb565b60208082526010908201526f14185d5cd8589b194e881c185d5cd95960821b604082015260600190565b634e487b7160e01b600052603260045260246000fd5b634e487b7160e01b600052601160045260246000fd5b60008282101561247157612471612449565b500390565b60008261249357634e487b7160e01b600052601260045260246000fd5b500490565b60008160001904831182151516156124b2576124b2612449565b500290565b600082198211156124ca576124ca612449565b500190565b60006000198214156124e3576124e3612449565b5060010190565b6000602082840312156124fc57600080fd5b5051919050565b60006020828403121561251557600080fd5b81518015158114611c4f57600080fd5b600181811c9082168061253957607f821691505b6020821081141561255a57634e487b7160e01b600052602260045260246000fd5b50919050565b7f416363657373436f6e74726f6c3a206163636f756e742000000000000000000081526000835161259881601785016020880161208c565b7001034b99036b4b9b9b4b733903937b6329607d1b60179184019182015283516125c981602884016020880161208c565b01602801949350505050565b6020808252602b908201527f496e697469616c697a61626c653a20636f6e7472616374206973206e6f74206960408201526a6e697469616c697a696e6760a81b606082015260800190565b60008161262f5761262f612449565b50600019019056fe65d7a28e3265b37a6474929f336521b332c1681b933f6cb9f3376673440d862a9f2df0fed2c77648de5860a4cc508cd0818c85b8b8a1ab4ceeef8d981c8956a6a2646970667358221220d1e853542c3c84be379adb5a8f396d71ee3bc7bc2fb869c8474e3d8c0df8fa9c64736f6c63430008090033",
  "linkReferences": {},
  "deployedLinkReferences": {}
}