{
  "_format": "hh-sol-artifact-1",
  "contractName": "cEVOUpgradeable",
  "sourceName": "contracts/ERC20/cEVOUpgradeable.sol",
  "abi": [
    {
      "inputs": [],
      "stateMutability": "nonpayable",
      "type": "constructor"
    },
    {
      "anonymous": false,
      "inputs": [
        {
          "indexed": true,
          "internalType": "address",
          "name": "owner",
          "type": "address"
        },
        {
          "indexed": true,
          "internalType": "address",
          "name": "spender",
          "type": "address"
        },
        {
          "indexed": false,
          "internalType": "uint256",
          "name": "value",
          "type": "uint256"
        }
      ],
      "name": "Approval",
      "type": "event"
    },
    {
      "anonymous": false,
      "inputs": [
        {
          "indexed": true,
          "internalType": "address",
          "name": "from",
          "type": "address"
        },
        {
          "indexed": false,
          "internalType": "uint256",
          "name": "amount",
          "type": "uint256"
        }
      ],
      "name": "ClaimedDisbursement",
      "type": "event"
    },
    {
      "anonymous": false,
      "inputs": [
        {
          "indexed": false,
          "internalType": "uint8",
          "name": "version",
          "type": "uint8"
        }
      ],
      "name": "Initialized",
      "type": "event"
    },
    {
      "anonymous": false,
      "inputs": [
        {
          "indexed": false,
          "internalType": "address",
          "name": "account",
          "type": "address"
        }
      ],
      "name": "Paused",
      "type": "event"
    },
    {
      "anonymous": false,
      "inputs": [
        {
          "indexed": true,
          "internalType": "bytes32",
          "name": "role",
          "type": "bytes32"
        },
        {
          "indexed": true,
          "internalType": "bytes32",
          "name": "previousAdminRole",
          "type": "bytes32"
        },
        {
          "indexed": true,
          "internalType": "bytes32",
          "name": "newAdminRole",
          "type": "bytes32"
        }
      ],
      "name": "RoleAdminChanged",
      "type": "event"
    },
    {
      "anonymous": false,
      "inputs": [
        {
          "indexed": true,
          "internalType": "bytes32",
          "name": "role",
          "type": "bytes32"
        },
        {
          "indexed": true,
          "internalType": "address",
          "name": "account",
          "type": "address"
        },
        {
          "indexed": true,
          "internalType": "address",
          "name": "sender",
          "type": "address"
        }
      ],
      "name": "RoleGranted",
      "type": "event"
    },
    {
      "anonymous": false,
      "inputs": [
        {
          "indexed": true,
          "internalType": "bytes32",
          "name": "role",
          "type": "bytes32"
        },
        {
          "indexed": true,
          "internalType": "address",
          "name": "account",
          "type": "address"
        },
        {
          "indexed": true,
          "internalType": "address",
          "name": "sender",
          "type": "address"
        }
      ],
      "name": "RoleRevoked",
      "type": "event"
    },
    {
      "anonymous": false,
      "inputs": [
        {
          "indexed": true,
          "internalType": "address",
          "name": "from",
          "type": "address"
        },
        {
          "indexed": true,
          "internalType": "address",
          "name": "to",
          "type": "address"
        },
        {
          "indexed": false,
          "internalType": "uint256",
          "name": "value",
          "type": "uint256"
        }
      ],
      "name": "Transfer",
      "type": "event"
    },
    {
      "anonymous": false,
      "inputs": [
        {
          "indexed": false,
          "internalType": "address",
          "name": "account",
          "type": "address"
        }
      ],
      "name": "Unpaused",
      "type": "event"
    },
    {
      "inputs": [],
      "name": "ADMIN_ROLE",
      "outputs": [
        {
          "internalType": "bytes32",
          "name": "",
          "type": "bytes32"
        }
      ],
      "stateMutability": "view",
      "type": "function"
    },
    {
      "inputs": [],
      "name": "DEFAULT_ADMIN_ROLE",
      "outputs": [
        {
          "internalType": "bytes32",
          "name": "",
          "type": "bytes32"
        }
      ],
      "stateMutability": "view",
      "type": "function"
    },
    {
      "inputs": [],
      "name": "DEFAULT_VESTING_PERIOD",
      "outputs": [
        {
          "internalType": "uint256",
          "name": "",
          "type": "uint256"
        }
      ],
      "stateMutability": "view",
      "type": "function"
    },
    {
      "inputs": [],
      "name": "DOMAIN_SEPARATOR",
      "outputs": [
        {
          "internalType": "bytes32",
          "name": "",
          "type": "bytes32"
        }
      ],
      "stateMutability": "view",
      "type": "function"
    },
    {
      "inputs": [],
      "name": "MINTER_ROLE",
      "outputs": [
        {
          "internalType": "bytes32",
          "name": "",
          "type": "bytes32"
        }
      ],
      "stateMutability": "view",
      "type": "function"
    },
    {
      "inputs": [
        {
          "internalType": "address",
          "name": "to",
          "type": "address"
        }
      ],
      "name": "addGlobalWhitelist",
      "outputs": [],
      "stateMutability": "nonpayable",
      "type": "function"
    },
    {
      "inputs": [
        {
          "internalType": "address",
          "name": "from",
          "type": "address"
        },
        {
          "internalType": "address",
          "name": "to",
          "type": "address"
        }
      ],
      "name": "addWhitelist",
      "outputs": [],
      "stateMutability": "nonpayable",
      "type": "function"
    },
    {
      "inputs": [
        {
          "internalType": "address",
          "name": "owner",
          "type": "address"
        },
        {
          "internalType": "address",
          "name": "spender",
          "type": "address"
        }
      ],
      "name": "allowance",
      "outputs": [
        {
          "internalType": "uint256",
          "name": "",
          "type": "uint256"
        }
      ],
      "stateMutability": "view",
      "type": "function"
    },
    {
      "inputs": [
        {
          "internalType": "address",
          "name": "spender",
          "type": "address"
        },
        {
          "internalType": "uint256",
          "name": "amount",
          "type": "uint256"
        }
      ],
      "name": "approve",
      "outputs": [
        {
          "internalType": "bool",
          "name": "",
          "type": "bool"
        }
      ],
      "stateMutability": "nonpayable",
      "type": "function"
    },
    {
      "inputs": [
        {
          "internalType": "address",
          "name": "account",
          "type": "address"
        }
      ],
      "name": "balanceOf",
      "outputs": [
        {
          "internalType": "uint256",
          "name": "",
          "type": "uint256"
        }
      ],
      "stateMutability": "view",
      "type": "function"
    },
    {
      "inputs": [
        {
          "internalType": "address[]",
          "name": "to",
          "type": "address[]"
        },
        {
          "internalType": "uint256[]",
          "name": "amount",
          "type": "uint256[]"
        },
        {
          "internalType": "uint256",
          "name": "startTime",
          "type": "uint256"
        },
        {
          "internalType": "uint256",
          "name": "duration",
          "type": "uint256"
        }
      ],
      "name": "batchMintDisbursement",
      "outputs": [],
      "stateMutability": "nonpayable",
      "type": "function"
    },
    {
      "inputs": [
        {
          "internalType": "address",
          "name": "to",
          "type": "address"
        },
        {
          "internalType": "uint256",
          "name": "startTime",
          "type": "uint256"
        },
        {
          "internalType": "uint256",
          "name": "duration",
          "type": "uint256"
        },
        {
          "internalType": "uint256",
          "name": "amount",
          "type": "uint256"
        },
        {
          "internalType": "uint256",
          "name": "balance",
          "type": "uint256"
        }
      ],
      "name": "bridgeMintDisbursement",
      "outputs": [],
      "stateMutability": "nonpayable",
      "type": "function"
    },
    {
      "inputs": [
        {
          "internalType": "uint256",
          "name": "amount",
          "type": "uint256"
        }
      ],
      "name": "burn",
      "outputs": [],
      "stateMutability": "nonpayable",
      "type": "function"
    },
    {
      "inputs": [
        {
          "internalType": "address",
          "name": "account",
          "type": "address"
        },
        {
          "internalType": "uint256",
          "name": "amount",
          "type": "uint256"
        }
      ],
      "name": "burnFrom",
      "outputs": [],
      "stateMutability": "nonpayable",
      "type": "function"
    },
    {
      "inputs": [],
      "name": "burnLocked",
      "outputs": [],
      "stateMutability": "nonpayable",
      "type": "function"
    },
    {
      "inputs": [],
      "name": "claimPending",
      "outputs": [],
      "stateMutability": "nonpayable",
      "type": "function"
    },
    {
      "inputs": [],
      "name": "decimals",
      "outputs": [
        {
          "internalType": "uint8",
          "name": "",
          "type": "uint8"
        }
      ],
      "stateMutability": "view",
      "type": "function"
    },
    {
      "inputs": [
        {
          "internalType": "address",
          "name": "spender",
          "type": "address"
        },
        {
          "internalType": "uint256",
          "name": "subtractedValue",
          "type": "uint256"
        }
      ],
      "name": "decreaseAllowance",
      "outputs": [
        {
          "internalType": "bool",
          "name": "",
          "type": "bool"
        }
      ],
      "stateMutability": "nonpayable",
      "type": "function"
    },
    {
      "inputs": [
        {
          "internalType": "address",
          "name": "",
          "type": "address"
        },
        {
          "internalType": "uint256",
          "name": "",
          "type": "uint256"
        }
      ],
      "name": "disbursements",
      "outputs": [
        {
          "internalType": "uint256",
          "name": "startTime",
          "type": "uint256"
        },
        {
          "internalType": "uint256",
          "name": "duration",
          "type": "uint256"
        },
        {
          "internalType": "uint256",
          "name": "amount",
          "type": "uint256"
        },
        {
          "internalType": "uint256",
          "name": "balance",
          "type": "uint256"
        }
      ],
      "stateMutability": "view",
      "type": "function"
    },
    {
      "inputs": [
        {
          "internalType": "address",
          "name": "_address",
          "type": "address"
        }
      ],
      "name": "disbursementsOf",
      "outputs": [
        {
          "components": [
            {
              "internalType": "uint256",
              "name": "startTime",
              "type": "uint256"
            },
            {
              "internalType": "uint256",
              "name": "duration",
              "type": "uint256"
            },
            {
              "internalType": "uint256",
              "name": "amount",
              "type": "uint256"
            },
            {
              "internalType": "uint256",
              "name": "balance",
              "type": "uint256"
            }
          ],
          "internalType": "struct cEVOUpgradeable.Disbursement[]",
          "name": "",
          "type": "tuple[]"
        }
      ],
      "stateMutability": "view",
      "type": "function"
    },
    {
      "inputs": [
        {
          "internalType": "bytes32",
          "name": "role",
          "type": "bytes32"
        }
      ],
      "name": "getRoleAdmin",
      "outputs": [
        {
          "internalType": "bytes32",
          "name": "",
          "type": "bytes32"
        }
      ],
      "stateMutability": "view",
      "type": "function"
    },
    {
      "inputs": [
        {
          "internalType": "bytes32",
          "name": "role",
          "type": "bytes32"
        },
        {
          "internalType": "address",
          "name": "account",
          "type": "address"
        }
      ],
      "name": "grantRole",
      "outputs": [],
      "stateMutability": "nonpayable",
      "type": "function"
    },
    {
      "inputs": [
        {
          "internalType": "bytes32",
          "name": "role",
          "type": "bytes32"
        },
        {
          "internalType": "address",
          "name": "account",
          "type": "address"
        }
      ],
      "name": "hasRole",
      "outputs": [
        {
          "internalType": "bool",
          "name": "",
          "type": "bool"
        }
      ],
      "stateMutability": "view",
      "type": "function"
    },
    {
      "inputs": [
        {
          "internalType": "address",
          "name": "spender",
          "type": "address"
        },
        {
          "internalType": "uint256",
          "name": "addedValue",
          "type": "uint256"
        }
      ],
      "name": "increaseAllowance",
      "outputs": [
        {
          "internalType": "bool",
          "name": "",
          "type": "bool"
        }
      ],
      "stateMutability": "nonpayable",
      "type": "function"
    },
    {
      "inputs": [],
      "name": "initialize",
      "outputs": [],
      "stateMutability": "nonpayable",
      "type": "function"
    },
    {
      "inputs": [
        {
          "internalType": "address",
          "name": "",
          "type": "address"
        }
      ],
      "name": "lockedOf",
      "outputs": [
        {
          "internalType": "uint256",
          "name": "",
          "type": "uint256"
        }
      ],
      "stateMutability": "view",
      "type": "function"
    },
    {
      "inputs": [
        {
          "internalType": "address",
          "name": "_address",
          "type": "address"
        },
        {
          "internalType": "uint256",
          "name": "amount",
          "type": "uint256"
        }
      ],
      "name": "mint",
      "outputs": [],
      "stateMutability": "nonpayable",
      "type": "function"
    },
    {
      "inputs": [
        {
          "internalType": "address",
          "name": "to",
          "type": "address"
        },
        {
          "internalType": "uint256",
          "name": "startTime",
          "type": "uint256"
        },
        {
          "internalType": "uint256",
          "name": "duration",
          "type": "uint256"
        },
        {
          "internalType": "uint256",
          "name": "amount",
          "type": "uint256"
        }
      ],
      "name": "mintDisbursement",
      "outputs": [],
      "stateMutability": "nonpayable",
      "type": "function"
    },
    {
      "inputs": [],
      "name": "name",
      "outputs": [
        {
          "internalType": "string",
          "name": "",
          "type": "string"
        }
      ],
      "stateMutability": "view",
      "type": "function"
    },
    {
      "inputs": [
        {
          "internalType": "address",
          "name": "owner",
          "type": "address"
        }
      ],
      "name": "nonces",
      "outputs": [
        {
          "internalType": "uint256",
          "name": "",
          "type": "uint256"
        }
      ],
      "stateMutability": "view",
      "type": "function"
    },
    {
      "inputs": [],
      "name": "pause",
      "outputs": [],
      "stateMutability": "nonpayable",
      "type": "function"
    },
    {
      "inputs": [],
      "name": "paused",
      "outputs": [
        {
          "internalType": "bool",
          "name": "",
          "type": "bool"
        }
      ],
      "stateMutability": "view",
      "type": "function"
    },
    {
      "inputs": [
        {
          "internalType": "address",
          "name": "_address",
          "type": "address"
        }
      ],
      "name": "pendingOf",
      "outputs": [
        {
          "internalType": "uint256",
          "name": "",
          "type": "uint256"
        }
      ],
      "stateMutability": "view",
      "type": "function"
    },
    {
      "inputs": [
        {
          "internalType": "address",
          "name": "owner",
          "type": "address"
        },
        {
          "internalType": "address",
          "name": "spender",
          "type": "address"
        },
        {
          "internalType": "uint256",
          "name": "value",
          "type": "uint256"
        },
        {
          "internalType": "uint256",
          "name": "deadline",
          "type": "uint256"
        },
        {
          "internalType": "uint8",
          "name": "v",
          "type": "uint8"
        },
        {
          "internalType": "bytes32",
          "name": "r",
          "type": "bytes32"
        },
        {
          "internalType": "bytes32",
          "name": "s",
          "type": "bytes32"
        }
      ],
      "name": "permit",
      "outputs": [],
      "stateMutability": "nonpayable",
      "type": "function"
    },
    {
      "inputs": [
        {
          "internalType": "bytes32",
          "name": "role",
          "type": "bytes32"
        },
        {
          "internalType": "address",
          "name": "account",
          "type": "address"
        }
      ],
      "name": "renounceRole",
      "outputs": [],
      "stateMutability": "nonpayable",
      "type": "function"
    },
    {
      "inputs": [
        {
          "internalType": "address",
          "name": "_address",
          "type": "address"
        }
      ],
      "name": "resetTransferTimeOf",
      "outputs": [],
      "stateMutability": "nonpayable",
      "type": "function"
    },
    {
      "inputs": [
        {
          "internalType": "bytes32",
          "name": "role",
          "type": "bytes32"
        },
        {
          "internalType": "address",
          "name": "account",
          "type": "address"
        }
      ],
      "name": "revokeRole",
      "outputs": [],
      "stateMutability": "nonpayable",
      "type": "function"
    },
    {
      "inputs": [
        {
          "internalType": "bytes4",
          "name": "interfaceId",
          "type": "bytes4"
        }
      ],
      "name": "supportsInterface",
      "outputs": [
        {
          "internalType": "bool",
          "name": "",
          "type": "bool"
        }
      ],
      "stateMutability": "view",
      "type": "function"
    },
    {
      "inputs": [],
      "name": "symbol",
      "outputs": [
        {
          "internalType": "string",
          "name": "",
          "type": "string"
        }
      ],
      "stateMutability": "view",
      "type": "function"
    },
    {
      "inputs": [],
      "name": "totalBurned",
      "outputs": [
        {
          "internalType": "uint256",
          "name": "",
          "type": "uint256"
        }
      ],
      "stateMutability": "view",
      "type": "function"
    },
    {
      "inputs": [],
      "name": "totalSupply",
      "outputs": [
        {
          "internalType": "uint256",
          "name": "",
          "type": "uint256"
        }
      ],
      "stateMutability": "view",
      "type": "function"
    },
    {
      "inputs": [
        {
          "internalType": "address",
          "name": "to",
          "type": "address"
        },
        {
          "internalType": "uint256",
          "name": "amount",
          "type": "uint256"
        }
      ],
      "name": "transfer",
      "outputs": [
        {
          "internalType": "bool",
          "name": "",
          "type": "bool"
        }
      ],
      "stateMutability": "nonpayable",
      "type": "function"
    },
    {
      "inputs": [
        {
          "internalType": "address",
          "name": "to",
          "type": "address"
        }
      ],
      "name": "transferAllDisbursements",
      "outputs": [],
      "stateMutability": "nonpayable",
      "type": "function"
    },
    {
      "inputs": [
        {
          "internalType": "address",
          "name": "from",
          "type": "address"
        },
        {
          "internalType": "address",
          "name": "to",
          "type": "address"
        },
        {
          "internalType": "uint256",
          "name": "amount",
          "type": "uint256"
        }
      ],
      "name": "transferFrom",
      "outputs": [
        {
          "internalType": "bool",
          "name": "",
          "type": "bool"
        }
      ],
      "stateMutability": "nonpayable",
      "type": "function"
    },
    {
      "inputs": [
        {
          "internalType": "address",
          "name": "",
          "type": "address"
        }
      ],
      "name": "transferTime",
      "outputs": [
        {
          "internalType": "uint256",
          "name": "",
          "type": "uint256"
        }
      ],
      "stateMutability": "view",
      "type": "function"
    },
    {
      "inputs": [],
      "name": "unpause",
      "outputs": [],
      "stateMutability": "nonpayable",
      "type": "function"
    },
    {
      "inputs": [
        {
          "internalType": "address",
          "name": "account",
          "type": "address"
        },
        {
          "internalType": "uint256",
          "name": "amount",
          "type": "uint256"
        }
      ],
      "name": "useLocked",
      "outputs": [],
      "stateMutability": "nonpayable",
      "type": "function"
    }
  ],
  "bytecode": "0x60806040523480156200001157600080fd5b506200001c62000022565b620000e4565b600054610100900460ff16156200008f5760405162461bcd60e51b815260206004820152602760248201527f496e697469616c697a61626c653a20636f6e747261637420697320696e697469604482015266616c697a696e6760c81b606482015260840160405180910390fd5b60005460ff9081161015620000e2576000805460ff191660ff9081179091556040519081527f7f26b83ff96e1f2b6a682f133852f6798a09c465da95921460cefb38474024989060200160405180910390a15b565b6133fe80620000f46000396000f3fe608060405234801561001057600080fd5b50600436106102955760003560e01c806375b238fc11610167578063a5f1e282116100ce578063d505accf11610087578063d505accf146105c5578063d5391393146105d8578063d547741f146105ed578063d89135cd14610600578063dd62ed3e14610609578063f44136a11461061c57600080fd5b8063a5f1e28214610545578063a6d2ba5214610566578063a73d633c14610579578063a9059cbb1461058c578063b45cc8451461059f578063c06bab2b146105b257600080fd5b806391d148541161012057806391d14854146104db57806393866707146104ee57806395d89b411461050f5780639f2310a414610517578063a217fddf1461052a578063a457c2d71461053257600080fd5b806375b238fc1461045d57806379cc6790146104725780637a153043146104855780637ecebe00146104b85780638129fc1c146104cb5780638456cb59146104d357600080fd5b80632f2ff15d1161020b5780633f4ba83a116101c45780633f4ba83a146103f357806340c10f19146103fb57806342966c681461040e5780634d3ef8dd146104215780635c975abb1461042957806370a082311461043457600080fd5b80632f2ff15d14610390578063313ce567146103a3578063314f8454146103b25780633644e515146103c557806336568abe146103cd57806339509351146103e057600080fd5b8063098480ec1161025d578063098480ec146103145780630c64936d1461032c578063181341111461033f57806318160ddd1461035257806323b872dd1461035a578063248a9ca31461036d57600080fd5b806301ffc9a71461029a57806303a9f06e146102c257806305cea05f146102cc57806306fdde03146102ec578063095ea7b314610301575b600080fd5b6102ad6102a8366004612cd1565b61062f565b60405190151581526020015b60405180910390f35b6102ca610666565b005b6102df6102da366004612d17565b6108fb565b6040516102b99190612d32565b6102f4610999565b6040516102b99190612dc2565b6102ad61030f366004612df5565b610a2b565b61031e6101c65481565b6040519081526020016102b9565b6102ca61033a366004612d17565b610a43565b6102ca61034d366004612ef5565b610a6a565b60355461031e565b6102ad610368366004612fc5565b610b3c565b61031e61037b366004613001565b600090815260c9602052604090206001015490565b6102ca61039e36600461301a565b610b60565b604051601281526020016102b9565b6102ca6103c0366004613046565b610b8a565b61031e610cae565b6102ca6103db36600461301a565b610cbd565b6102ad6103ee366004612df5565b610d37565b6102ca610d59565b6102ca610409366004612df5565b610d7c565b6102ca61041c366004613001565b610e31565b6102ca610e72565b60655460ff166102ad565b61031e610442366004612d17565b6001600160a01b031660009081526033602052604090205490565b61031e6000805160206133a983398151915281565b6102ca610480366004612df5565b610f20565b610498610493366004612df5565b610f2a565b6040805194855260208501939093529183015260608201526080016102b9565b61031e6104c6366004612d17565b610f71565b6102ca610f90565b6102ca611182565b6102ad6104e936600461301a565b6111a2565b61031e6104fc366004612d17565b6101cc6020526000908152604090205481565b6102f46111cd565b6102ca610525366004612d17565b6111dc565b61031e600081565b6102ad610540366004612df5565b61145a565b61031e610553366004612d17565b6101cb6020526000908152604090205481565b6102ca61057436600461307f565b6114d5565b6102ca6105873660046130c1565b6115fa565b6102ad61059a366004612df5565b61162e565b6102ca6105ad366004612d17565b61163c565b6102ca6105c0366004612df5565b611653565b6102ca6105d33660046130eb565b611788565b61031e60008051602061338983398151915281565b6102ca6105fb36600461301a565b6118ec565b6101625461031e565b61031e6106173660046130c1565b611911565b61031e61062a366004612d17565b61193c565b60006001600160e01b03198216637965db0b60e01b148061066057506301ffc9a760e01b6001600160e01b03198316145b92915050565b61066e611a29565b6000805b3360009081526101ca6020526040902054811015610764573360009081526101ca602052604081208054839081106106ac576106ac61315e565b906000526020600020906004020190506000816003015482600201546106d2919061318a565b90506000826001015483600201546106ea91906131a1565b90506000818460000154426106ff919061318a565b61070991906131c3565b90508083101561074d5761071d838261318a565b846003016000828254610730919061318a565b909155506107409050838261318a565b61074a90876131e2565b95505b50505050808061075c906131fa565b915050610672565b508061076d5750565b610778335b82611a6f565b6101c5546040516370a0823160e01b815230600482015282916001600160a01b0316906370a082319060240160206040518083038186803b1580156107bc57600080fd5b505afa1580156107d0573d6000803e3d6000fd5b505050506040513d601f19601f820116820180604052508101906107f49190613215565b1115610891576101c5546001600160a01b031663a9059cbb336040516001600160e01b031960e084901b1681526001600160a01b03909116600482015260248101849052604401602060405180830381600087803b15801561085557600080fd5b505af1158015610869573d6000803e3d6000fd5b505050506040513d601f19601f8201168201806040525081019061088d919061322e565b5050565b6101c5546040516340c10f1960e01b8152336004820152602481018390526001600160a01b03909116906340c10f19906044015b600060405180830381600087803b1580156108df57600080fd5b505af11580156108f3573d6000803e3d6000fd5b50505050505b565b6001600160a01b03811660009081526101ca60209081526040808320805482518185028101850190935280835260609492939192909184015b8282101561098e578382906000526020600020906004020160405180608001604052908160008201548152602001600182015481526020016002820154815260200160038201548152505081526020019060010190610934565b505050509050919050565b6060603680546109a890613250565b80601f01602080910402602001604051908101604052809291908181526020018280546109d490613250565b8015610a215780601f106109f657610100808354040283529160200191610a21565b820191906000526020600020905b815481529060010190602001808311610a0457829003601f168201915b5050505050905090565b600033610a39818585611bc9565b5060019392505050565b6000610a4e81611ced565b506001600160a01b031660009081526101cc6020526040812055565b600080516020613389833981519152610a8281611ced565b8351855114610ad85760405162461bcd60e51b815260206004820152601f60248201527f746f20616e6420616d6f756e7420617272617973206d757374206d617463680060448201526064015b60405180910390fd5b60005b8551811015610b3457610b22868281518110610af957610af961315e565b60200260200101518585888581518110610b1557610b1561315e565b6020026020010151610b8a565b80610b2c816131fa565b915050610adb565b505050505050565b600033610b4a858285611cf7565b610b55858585611d6b565b506001949350505050565b600082815260c96020526040902060010154610b7b81611ced565b610b858383611f44565b505050565b600080516020613389833981519152610ba281611ced565b6000808511610bb15742610bb3565b845b90506000808511610bc7576101c654610bc9565b845b6001600160a01b0388811660009081526101ca6020908152604080832081516080810183528881528084018781528184018c8152606083018d815284546001808201875595895296909720925160049687029093019283559051928201929092559051600282015592516003909301929092556101c55491516340c10f1960e01b815230918101919091526024810188905292935016906340c10f1990604401600060405180830381600087803b158015610c8357600080fd5b505af1158015610c97573d6000803e3d6000fd5b50505050610ca58785611fca565b50505050505050565b6000610cb86120b5565b905090565b6001600160a01b0381163314610d2d5760405162461bcd60e51b815260206004820152602f60248201527f416363657373436f6e74726f6c3a2063616e206f6e6c792072656e6f756e636560448201526e103937b632b9903337b91039b2b63360891b6064820152608401610acf565b61088d8282612130565b600033610a39818585610d4a8383611911565b610d5491906131e2565b611bc9565b6000805160206133a9833981519152610d7181611ced565b610d79612197565b50565b600080516020613389833981519152610d9481611ced565b6001600160a01b03831660009081526101cb602052604081208054849290610dbd9084906131e2565b90915550506101c5546040516340c10f1960e01b8152306004820152602481018490526001600160a01b03909116906340c10f1990604401600060405180830381600087803b158015610e0f57600080fd5b505af1158015610e23573d6000803e3d6000fd5b50505050610b858383611fca565b610e3a816121e9565b6101c554604051632770a7eb60e21b8152306004820152602481018390526001600160a01b0390911690639dc29fac906044016108c5565b600080516020613389833981519152610e8a81611ced565b306000908152603360205260408120549050806101626000828254610eaf91906131e2565b90915550610ebf90503082611a6f565b6101c55460405163079cc67960e41b8152306004820152602481018390526001600160a01b03909116906379cc679090604401600060405180830381600087803b158015610f0c57600080fd5b505af1158015610b34573d6000803e3d6000fd5b610ebf828261220b565b6101ca6020528160005260406000208181548110610f4757600080fd5b60009182526020909120600490910201805460018201546002830154600390930154919450925084565b6001600160a01b038116600090815261012f6020526040812054610660565b600054610100900460ff1615808015610fb05750600054600160ff909116105b80610fca5750303b158015610fca575060005460ff166001145b61102d5760405162461bcd60e51b815260206004820152602e60248201527f496e697469616c697a61626c653a20636f6e747261637420697320616c72656160448201526d191e481a5b9a5d1a585b1a5e995960921b6064820152608401610acf565b6000805460ff191660011790558015611050576000805461ff0019166101001790555b611092604051806040016040528060048152602001636345564f60e01b815250604051806040016040528060048152602001636345564f60e01b815250612249565b61109a61227a565b6110a26122a9565b6110c7604051806040016040528060048152602001636345564f60e01b8152506122d0565b6110cf6122a9565b6110da600033611f44565b6110f26000805160206133a983398151915233611f44565b61110a60008051602061338983398151915233611f44565b6101c580546001600160a01b0319167342006ab57701251b580bdfc24778c43c9ff589a11790556301e133806101c6558015610d79576000805461ff0019169055604051600181527f7f26b83ff96e1f2b6a682f133852f6798a09c465da95921460cefb38474024989060200160405180910390a150565b6000805160206133a983398151915261119a81611ced565b610d7961231a565b600091825260c9602090815260408084206001600160a01b0393909316845291905290205460ff1690565b6060603780546109a890613250565b3360009081526101cb6020526040902054806112275760405162461bcd60e51b815260206004820152600a6024820152694e6f2062616c616e636560b01b6044820152606401610acf565b6112336101c733612357565b158061124857506112466101c783612357565b155b15611316573360009081526101cc60205260409020544211801561128457506001600160a01b03821660009081526101cc602052604090205442115b6112d05760405162461bcd60e51b815260206004820152601f60248201527f436f6f6c646f776e20706572696f6420686173206e6f7420656c6170736564006044820152606401610acf565b6112dd426276a7006131e2565b3360009081526101cc60205260409020556112fb426276a7006131e2565b6001600160a01b03831660009081526101cc60205260409020555b3360009081526101cb60205260408082208290556001600160a01b0384168252812080548392906113489084906131e2565b90915550600090505b3360009081526101ca60205260409020548110156113f8576001600160a01b03831660009081526101ca6020526040808220338352912080548390811061139a5761139a61315e565b60009182526020808320845460018181018755958552919093206004928302909301805491909202909201918255828101549282019290925560028083015490820155600391820154910155806113f0816131fa565b915050611351565b503360009081526101ca6020526040812061141291612bee565b3360009081526101c96020526040902061142c908361237c565b50611440338361143b33610442565b611d6b565b3360009081526101c960205260409020610b859083612391565b600033816114688286611911565b9050838110156114c85760405162461bcd60e51b815260206004820152602560248201527f45524332303a2064656372656173656420616c6c6f77616e63652062656c6f77604482015264207a65726f60d81b6064820152608401610acf565b610b558286868403611bc9565b6000805160206133898339815191526114ed81611ced565b60008086116114fc57426114fe565b855b90506000808611611512576101c654611514565b855b6001600160a01b0389811660009081526101ca6020908152604080832081516080810183528881528084018781528184018d8152606083018d815284546001808201875595895296909720925160049687029093019283559051928201929092559051600282015592516003909301929092556101c55491516340c10f1960e01b815230918101919091526024810188905292935016906340c10f1990604401600060405180830381600087803b1580156115ce57600080fd5b505af11580156115e2573d6000803e3d6000fd5b505050506115f08885611fca565b5050505050505050565b600061160581611ced565b6001600160a01b03831660009081526101c960205260409020611628908361237c565b50505050565b600033610a39818585611d6b565b600061164781611ced565b610b856101c78361237c565b60008051602061338983398151915261166b81611ced565b6001600160a01b03831660009081526101cb60205260409020548211156116d45760405162461bcd60e51b815260206004820152601b60248201527f496e73756666696369656e74206c6f636b65642062616c616e636500000000006044820152606401610acf565b6001600160a01b03831660009081526101cb6020526040812080548492906116fd90849061318a565b9250508190555081610162600082825461171791906131e2565b9091555061172790508383611a6f565b6101c55460405163079cc67960e41b8152306004820152602481018490526001600160a01b03909116906379cc679090604401600060405180830381600087803b15801561177457600080fd5b505af1158015610ca5573d6000803e3d6000fd5b834211156117d85760405162461bcd60e51b815260206004820152601d60248201527f45524332305065726d69743a206578706972656420646561646c696e650000006044820152606401610acf565b60007f6e71edae12b1b97f4d1f60370fef10105fa2faae0126114a169c64845d6126c98888886118078c6123a6565b6040805160208101969096526001600160a01b0394851690860152929091166060840152608083015260a082015260c0810186905260e0016040516020818303038152906040528051906020012090506000611862826123cf565b905060006118728287878761241d565b9050896001600160a01b0316816001600160a01b0316146118d55760405162461bcd60e51b815260206004820152601e60248201527f45524332305065726d69743a20696e76616c6964207369676e617475726500006044820152606401610acf565b6118e08a8a8a611bc9565b50505050505050505050565b600082815260c9602052604090206001015461190781611ced565b610b858383612130565b6001600160a01b03918216600090815260346020908152604080832093909416825291909152205490565b600080805b6001600160a01b03841660009081526101ca6020526040902054811015611a22576001600160a01b03841660009081526101ca6020526040812080548390811061198d5761198d61315e565b906000526020600020906004020190506000816003015482600201546119b3919061318a565b90506000826001015483600201546119cb91906131a1565b90506000818460000154426119e0919061318a565b6119ea91906131c3565b905080831015611a0b576119fe838261318a565b611a0890876131e2565b95505b505050508080611a1a906131fa565b915050611941565b5092915050565b60655460ff16156108f95760405162461bcd60e51b815260206004820152601060248201526f14185d5cd8589b194e881c185d5cd95960821b6044820152606401610acf565b6001600160a01b038216611acf5760405162461bcd60e51b815260206004820152602160248201527f45524332303a206275726e2066726f6d20746865207a65726f206164647265736044820152607360f81b6064820152608401610acf565b611adb82600083612445565b6001600160a01b03821660009081526033602052604090205481811015611b4f5760405162461bcd60e51b815260206004820152602260248201527f45524332303a206275726e20616d6f756e7420657863656564732062616c616e604482015261636560f01b6064820152608401610acf565b6001600160a01b0383166000908152603360205260408120838303905560358054849290611b7e90849061318a565b90915550506040518281526000906001600160a01b038516907fddf252ad1be2c89b69c2b068fc378daa952ba7f163c4a11628f55a4df523b3ef9060200160405180910390a3505050565b6001600160a01b038316611c2b5760405162461bcd60e51b8152602060048201526024808201527f45524332303a20617070726f76652066726f6d20746865207a65726f206164646044820152637265737360e01b6064820152608401610acf565b6001600160a01b038216611c8c5760405162461bcd60e51b815260206004820152602260248201527f45524332303a20617070726f766520746f20746865207a65726f206164647265604482015261737360f01b6064820152608401610acf565b6001600160a01b0383811660008181526034602090815260408083209487168084529482529182902085905590518481527f8c5be1e5ebec7d5bd14f71427d1e84f3dd0314c0f7b2291e5b200ac8c7c3b925910160405180910390a3505050565b610d7981336124f9565b6000611d038484611911565b905060001981146116285781811015611d5e5760405162461bcd60e51b815260206004820152601d60248201527f45524332303a20696e73756666696369656e7420616c6c6f77616e63650000006044820152606401610acf565b6116288484848403611bc9565b6001600160a01b038316611dcf5760405162461bcd60e51b815260206004820152602560248201527f45524332303a207472616e736665722066726f6d20746865207a65726f206164604482015264647265737360d81b6064820152608401610acf565b6001600160a01b038216611e315760405162461bcd60e51b815260206004820152602360248201527f45524332303a207472616e7366657220746f20746865207a65726f206164647260448201526265737360e81b6064820152608401610acf565b611e3c838383612445565b6001600160a01b03831660009081526033602052604090205481811015611eb45760405162461bcd60e51b815260206004820152602660248201527f45524332303a207472616e7366657220616d6f756e7420657863656564732062604482015265616c616e636560d01b6064820152608401610acf565b6001600160a01b03808516600090815260336020526040808220858503905591851681529081208054849290611eeb9084906131e2565b92505081905550826001600160a01b0316846001600160a01b03167fddf252ad1be2c89b69c2b068fc378daa952ba7f163c4a11628f55a4df523b3ef84604051611f3791815260200190565b60405180910390a3611628565b611f4e82826111a2565b61088d57600082815260c9602090815260408083206001600160a01b03851684529091529020805460ff19166001179055611f863390565b6001600160a01b0316816001600160a01b0316837f2f8788117e7eff1d82e926ec794901d17c78024a50270940304540a733656f0d60405160405180910390a45050565b6001600160a01b0382166120205760405162461bcd60e51b815260206004820152601f60248201527f45524332303a206d696e7420746f20746865207a65726f2061646472657373006044820152606401610acf565b61202c60008383612445565b806035600082825461203e91906131e2565b90915550506001600160a01b0382166000908152603360205260408120805483929061206b9084906131e2565b90915550506040518181526001600160a01b038316906000907fddf252ad1be2c89b69c2b068fc378daa952ba7f163c4a11628f55a4df523b3ef9060200160405180910390a35050565b6000610cb87f8b73c3c69bb8fe3d512ecc4cf759cc79239f7b179b0ffacaa9a75d522b39400f6120e460fb5490565b60fc546040805160208101859052908101839052606081018290524660808201523060a082015260009060c0016040516020818303038152906040528051906020012090509392505050565b61213a82826111a2565b1561088d57600082815260c9602090815260408083206001600160a01b0385168085529252808320805460ff1916905551339285917ff6391f5c32d9c69d2a47ea670b442974b53935d1edc7fd64eb21e047a839171b9190a45050565b61219f61255d565b6065805460ff191690557f5db9ee0a495bf2e6ff9c91a7834c1ba4fdd244a5e8aa4e537bd38aeae4b073aa335b6040516001600160a01b03909116815260200160405180910390a1565b8061016260008282546121fc91906131e2565b90915550610d79905033610772565b6001600160a01b038216331461222657612226823383611cf7565b80610162600082825461223991906131e2565b9091555061088d90508282611a6f565b600054610100900460ff166122705760405162461bcd60e51b8152600401610acf90613285565b61088d82826125a6565b600054610100900460ff166122a15760405162461bcd60e51b8152600401610acf90613285565b6108f96125f4565b600054610100900460ff166108f95760405162461bcd60e51b8152600401610acf90613285565b600054610100900460ff166122f75760405162461bcd60e51b8152600401610acf90613285565b610d7981604051806040016040528060018152602001603160f81b815250612627565b612322611a29565b6065805460ff191660011790557f62e78cea01bee320cd4e420270b5ea74000d11b0c9f74754ebdbfc544b05a2586121cc3390565b6001600160a01b038116600090815260018301602052604081205415155b9392505050565b6000612375836001600160a01b038416612668565b6000612375836001600160a01b0384166126b7565b6001600160a01b038116600090815261012f602052604090208054600181018255905b50919050565b60006106606123dc6120b5565b8360405161190160f01b6020820152602281018390526042810182905260009060620160405160208183030381529060405280519060200120905092915050565b600080600061242e878787876127aa565b9150915061243b81612897565b5095945050505050565b61244d611a29565b828261245b6101c782612357565b8061248457506001600160a01b03821660009081526101c9602052604090206124849082612357565b8061249657506001600160a01b038216155b806124a857506001600160a01b038116155b6124f45760405162461bcd60e51b815260206004820152601860248201527f6345564f206973206e6f6e2d7472616e7366657261626c6500000000000000006044820152606401610acf565b6108f3565b61250382826111a2565b61088d5761251b816001600160a01b03166014612a52565b612526836020612a52565b6040516020016125379291906132d0565b60408051601f198184030181529082905262461bcd60e51b8252610acf91600401612dc2565b60655460ff166108f95760405162461bcd60e51b815260206004820152601460248201527314185d5cd8589b194e881b9bdd081c185d5cd95960621b6044820152606401610acf565b600054610100900460ff166125cd5760405162461bcd60e51b8152600401610acf90613285565b81516125e0906036906020850190612c0f565b508051610b85906037906020840190612c0f565b600054610100900460ff1661261b5760405162461bcd60e51b8152600401610acf90613285565b6065805460ff19169055565b600054610100900460ff1661264e5760405162461bcd60e51b8152600401610acf90613285565b81516020928301208151919092012060fb9190915560fc55565b60008181526001830160205260408120546126af57508154600181810184556000848152602080822090930184905584548482528286019093526040902091909155610660565b506000610660565b600081815260018301602052604081205480156127a05760006126db60018361318a565b85549091506000906126ef9060019061318a565b905081811461275457600086600001828154811061270f5761270f61315e565b90600052602060002001549050808760000184815481106127325761273261315e565b6000918252602080832090910192909255918252600188019052604090208390555b855486908061276557612765613345565b600190038181906000526020600020016000905590558560010160008681526020019081526020016000206000905560019350505050610660565b6000915050610660565b6000807f7fffffffffffffffffffffffffffffff5d576e7357a4501ddfe92f46681b20a08311156127e1575060009050600361288e565b8460ff16601b141580156127f957508460ff16601c14155b1561280a575060009050600461288e565b6040805160008082526020820180845289905260ff881692820192909252606081018690526080810185905260019060a0016020604051602081039080840390855afa15801561285e573d6000803e3d6000fd5b5050604051601f1901519150506001600160a01b0381166128875760006001925092505061288e565b9150600090505b94509492505050565b60008160048111156128ab576128ab61335b565b14156128b45750565b60018160048111156128c8576128c861335b565b14156129165760405162461bcd60e51b815260206004820152601860248201527f45434453413a20696e76616c6964207369676e617475726500000000000000006044820152606401610acf565b600281600481111561292a5761292a61335b565b14156129785760405162461bcd60e51b815260206004820152601f60248201527f45434453413a20696e76616c6964207369676e6174757265206c656e677468006044820152606401610acf565b600381600481111561298c5761298c61335b565b14156129e55760405162461bcd60e51b815260206004820152602260248201527f45434453413a20696e76616c6964207369676e6174757265202773272076616c604482015261756560f01b6064820152608401610acf565b60048160048111156129f9576129f961335b565b1415610d795760405162461bcd60e51b815260206004820152602260248201527f45434453413a20696e76616c6964207369676e6174757265202776272076616c604482015261756560f01b6064820152608401610acf565b60606000612a618360026131c3565b612a6c9060026131e2565b67ffffffffffffffff811115612a8457612a84612e1f565b6040519080825280601f01601f191660200182016040528015612aae576020820181803683370190505b509050600360fc1b81600081518110612ac957612ac961315e565b60200101906001600160f81b031916908160001a905350600f60fb1b81600181518110612af857612af861315e565b60200101906001600160f81b031916908160001a9053506000612b1c8460026131c3565b612b279060016131e2565b90505b6001811115612b9f576f181899199a1a9b1b9c1cb0b131b232b360811b85600f1660108110612b5b57612b5b61315e565b1a60f81b828281518110612b7157612b7161315e565b60200101906001600160f81b031916908160001a90535060049490941c93612b9881613371565b9050612b2a565b5083156123755760405162461bcd60e51b815260206004820181905260248201527f537472696e67733a20686578206c656e67746820696e73756666696369656e746044820152606401610acf565b5080546000825560040290600052602060002090810190610d799190612c93565b828054612c1b90613250565b90600052602060002090601f016020900481019282612c3d5760008555612c83565b82601f10612c5657805160ff1916838001178555612c83565b82800160010185558215612c83579182015b82811115612c83578251825591602001919060010190612c68565b50612c8f929150612cbc565b5090565b5b80821115612c8f57600080825560018201819055600282018190556003820155600401612c94565b5b80821115612c8f5760008155600101612cbd565b600060208284031215612ce357600080fd5b81356001600160e01b03198116811461237557600080fd5b80356001600160a01b0381168114612d1257600080fd5b919050565b600060208284031215612d2957600080fd5b61237582612cfb565b602080825282518282018190526000919060409081850190868401855b82811015612d8957815180518552868101518786015285810151868601526060908101519085015260809093019290850190600101612d4f565b5091979650505050505050565b60005b83811015612db1578181015183820152602001612d99565b838111156116285750506000910152565b6020815260008251806020840152612de1816040850160208701612d96565b601f01601f19169190910160400192915050565b60008060408385031215612e0857600080fd5b612e1183612cfb565b946020939093013593505050565b634e487b7160e01b600052604160045260246000fd5b604051601f8201601f1916810167ffffffffffffffff81118282101715612e5e57612e5e612e1f565b604052919050565b600067ffffffffffffffff821115612e8057612e80612e1f565b5060051b60200190565b600082601f830112612e9b57600080fd5b81356020612eb0612eab83612e66565b612e35565b82815260059290921b84018101918181019086841115612ecf57600080fd5b8286015b84811015612eea5780358352918301918301612ed3565b509695505050505050565b60008060008060808587031215612f0b57600080fd5b843567ffffffffffffffff80821115612f2357600080fd5b818701915087601f830112612f3757600080fd5b81356020612f47612eab83612e66565b82815260059290921b8401810191818101908b841115612f6657600080fd5b948201945b83861015612f8b57612f7c86612cfb565b82529482019490820190612f6b565b98505088013592505080821115612fa157600080fd5b50612fae87828801612e8a565b949794965050505060408301359260600135919050565b600080600060608486031215612fda57600080fd5b612fe384612cfb565b9250612ff160208501612cfb565b9150604084013590509250925092565b60006020828403121561301357600080fd5b5035919050565b6000806040838503121561302d57600080fd5b8235915061303d60208401612cfb565b90509250929050565b6000806000806080858703121561305c57600080fd5b61306585612cfb565b966020860135965060408601359560600135945092505050565b600080600080600060a0868803121561309757600080fd5b6130a086612cfb565b97602087013597506040870135966060810135965060800135945092505050565b600080604083850312156130d457600080fd5b6130dd83612cfb565b915061303d60208401612cfb565b600080600080600080600060e0888a03121561310657600080fd5b61310f88612cfb565b965061311d60208901612cfb565b95506040880135945060608801359350608088013560ff8116811461314157600080fd5b9699959850939692959460a0840135945060c09093013592915050565b634e487b7160e01b600052603260045260246000fd5b634e487b7160e01b600052601160045260246000fd5b60008282101561319c5761319c613174565b500390565b6000826131be57634e487b7160e01b600052601260045260246000fd5b500490565b60008160001904831182151516156131dd576131dd613174565b500290565b600082198211156131f5576131f5613174565b500190565b600060001982141561320e5761320e613174565b5060010190565b60006020828403121561322757600080fd5b5051919050565b60006020828403121561324057600080fd5b8151801515811461237557600080fd5b600181811c9082168061326457607f821691505b602082108114156123c957634e487b7160e01b600052602260045260246000fd5b6020808252602b908201527f496e697469616c697a61626c653a20636f6e7472616374206973206e6f74206960408201526a6e697469616c697a696e6760a81b606082015260800190565b7f416363657373436f6e74726f6c3a206163636f756e7420000000000000000000815260008351613308816017850160208801612d96565b7001034b99036b4b9b9b4b733903937b6329607d1b6017918401918201528351613339816028840160208801612d96565b01602801949350505050565b634e487b7160e01b600052603160045260246000fd5b634e487b7160e01b600052602160045260246000fd5b60008161338057613380613174565b50600019019056fe9f2df0fed2c77648de5860a4cc508cd0818c85b8b8a1ab4ceeef8d981c8956a6a49807205ce4d355092ef5a8a18f56e8913cf4a201fbe287825b095693c21775a2646970667358221220afe3e31d2cbbd02be98266726f8edb64c295b00868d6e803559a5da32878298c64736f6c63430008090033",
  "linkReferences": {},
  "deployedLinkReferences": {}
}