{
  "_format": "hh-sol-artifact-1",
  "contractName": "cEVOUpgradeable",
  "sourceName": "contracts/ERC20/cEVOUpgradeable.sol",
  "abi": [
    {
      "inputs": [],
      "stateMutability": "nonpayable",
      "type": "constructor"
    },
    {
      "anonymous": false,
      "inputs": [
        {
          "indexed": true,
          "internalType": "address",
          "name": "owner",
          "type": "address"
        },
        {
          "indexed": true,
          "internalType": "address",
          "name": "spender",
          "type": "address"
        },
        {
          "indexed": false,
          "internalType": "uint256",
          "name": "value",
          "type": "uint256"
        }
      ],
      "name": "Approval",
      "type": "event"
    },
    {
      "anonymous": false,
      "inputs": [
        {
          "indexed": true,
          "internalType": "address",
          "name": "from",
          "type": "address"
        },
        {
          "indexed": false,
          "internalType": "uint256",
          "name": "amount",
          "type": "uint256"
        }
      ],
      "name": "ClaimedDisbursement",
      "type": "event"
    },
    {
      "anonymous": false,
      "inputs": [
        {
          "indexed": false,
          "internalType": "uint8",
          "name": "version",
          "type": "uint8"
        }
      ],
      "name": "Initialized",
      "type": "event"
    },
    {
      "anonymous": false,
      "inputs": [
        {
          "indexed": false,
          "internalType": "address",
          "name": "account",
          "type": "address"
        }
      ],
      "name": "Paused",
      "type": "event"
    },
    {
      "anonymous": false,
      "inputs": [
        {
          "indexed": true,
          "internalType": "bytes32",
          "name": "role",
          "type": "bytes32"
        },
        {
          "indexed": true,
          "internalType": "bytes32",
          "name": "previousAdminRole",
          "type": "bytes32"
        },
        {
          "indexed": true,
          "internalType": "bytes32",
          "name": "newAdminRole",
          "type": "bytes32"
        }
      ],
      "name": "RoleAdminChanged",
      "type": "event"
    },
    {
      "anonymous": false,
      "inputs": [
        {
          "indexed": true,
          "internalType": "bytes32",
          "name": "role",
          "type": "bytes32"
        },
        {
          "indexed": true,
          "internalType": "address",
          "name": "account",
          "type": "address"
        },
        {
          "indexed": true,
          "internalType": "address",
          "name": "sender",
          "type": "address"
        }
      ],
      "name": "RoleGranted",
      "type": "event"
    },
    {
      "anonymous": false,
      "inputs": [
        {
          "indexed": true,
          "internalType": "bytes32",
          "name": "role",
          "type": "bytes32"
        },
        {
          "indexed": true,
          "internalType": "address",
          "name": "account",
          "type": "address"
        },
        {
          "indexed": true,
          "internalType": "address",
          "name": "sender",
          "type": "address"
        }
      ],
      "name": "RoleRevoked",
      "type": "event"
    },
    {
      "anonymous": false,
      "inputs": [
        {
          "indexed": true,
          "internalType": "address",
          "name": "from",
          "type": "address"
        },
        {
          "indexed": true,
          "internalType": "address",
          "name": "to",
          "type": "address"
        },
        {
          "indexed": false,
          "internalType": "uint256",
          "name": "value",
          "type": "uint256"
        }
      ],
      "name": "Transfer",
      "type": "event"
    },
    {
      "anonymous": false,
      "inputs": [
        {
          "indexed": false,
          "internalType": "address",
          "name": "account",
          "type": "address"
        }
      ],
      "name": "Unpaused",
      "type": "event"
    },
    {
      "inputs": [],
      "name": "ADMIN_ROLE",
      "outputs": [
        {
          "internalType": "bytes32",
          "name": "",
          "type": "bytes32"
        }
      ],
      "stateMutability": "view",
      "type": "function"
    },
    {
      "inputs": [],
      "name": "DEFAULT_ADMIN_ROLE",
      "outputs": [
        {
          "internalType": "bytes32",
          "name": "",
          "type": "bytes32"
        }
      ],
      "stateMutability": "view",
      "type": "function"
    },
    {
      "inputs": [],
      "name": "DEFAULT_VESTING_PERIOD",
      "outputs": [
        {
          "internalType": "uint256",
          "name": "",
          "type": "uint256"
        }
      ],
      "stateMutability": "view",
      "type": "function"
    },
    {
      "inputs": [],
      "name": "DOMAIN_SEPARATOR",
      "outputs": [
        {
          "internalType": "bytes32",
          "name": "",
          "type": "bytes32"
        }
      ],
      "stateMutability": "view",
      "type": "function"
    },
    {
      "inputs": [],
      "name": "MINTER_ROLE",
      "outputs": [
        {
          "internalType": "bytes32",
          "name": "",
          "type": "bytes32"
        }
      ],
      "stateMutability": "view",
      "type": "function"
    },
    {
      "inputs": [
        {
          "internalType": "address",
          "name": "to",
          "type": "address"
        }
      ],
      "name": "addGlobalWhitelist",
      "outputs": [],
      "stateMutability": "nonpayable",
      "type": "function"
    },
    {
      "inputs": [
        {
          "internalType": "address",
          "name": "from",
          "type": "address"
        },
        {
          "internalType": "address",
          "name": "to",
          "type": "address"
        }
      ],
      "name": "addWhitelist",
      "outputs": [],
      "stateMutability": "nonpayable",
      "type": "function"
    },
    {
      "inputs": [
        {
          "internalType": "address",
          "name": "from",
          "type": "address"
        },
        {
          "internalType": "address",
          "name": "to",
          "type": "address"
        }
      ],
      "name": "adminTransferAllDisbursements",
      "outputs": [],
      "stateMutability": "nonpayable",
      "type": "function"
    },
    {
      "inputs": [
        {
          "internalType": "address",
          "name": "owner",
          "type": "address"
        },
        {
          "internalType": "address",
          "name": "spender",
          "type": "address"
        }
      ],
      "name": "allowance",
      "outputs": [
        {
          "internalType": "uint256",
          "name": "",
          "type": "uint256"
        }
      ],
      "stateMutability": "view",
      "type": "function"
    },
    {
      "inputs": [
        {
          "internalType": "address",
          "name": "spender",
          "type": "address"
        },
        {
          "internalType": "uint256",
          "name": "amount",
          "type": "uint256"
        }
      ],
      "name": "approve",
      "outputs": [
        {
          "internalType": "bool",
          "name": "",
          "type": "bool"
        }
      ],
      "stateMutability": "nonpayable",
      "type": "function"
    },
    {
      "inputs": [
        {
          "internalType": "address",
          "name": "account",
          "type": "address"
        }
      ],
      "name": "balanceOf",
      "outputs": [
        {
          "internalType": "uint256",
          "name": "",
          "type": "uint256"
        }
      ],
      "stateMutability": "view",
      "type": "function"
    },
    {
      "inputs": [
        {
          "internalType": "address[]",
          "name": "to",
          "type": "address[]"
        },
        {
          "internalType": "uint256[]",
          "name": "amount",
          "type": "uint256[]"
        },
        {
          "internalType": "uint256",
          "name": "startTime",
          "type": "uint256"
        },
        {
          "internalType": "uint256",
          "name": "duration",
          "type": "uint256"
        }
      ],
      "name": "batchMintDisbursement",
      "outputs": [],
      "stateMutability": "nonpayable",
      "type": "function"
    },
    {
      "inputs": [
        {
          "internalType": "address",
          "name": "to",
          "type": "address"
        },
        {
          "internalType": "uint256",
          "name": "startTime",
          "type": "uint256"
        },
        {
          "internalType": "uint256",
          "name": "duration",
          "type": "uint256"
        },
        {
          "internalType": "uint256",
          "name": "amount",
          "type": "uint256"
        },
        {
          "internalType": "uint256",
          "name": "balance",
          "type": "uint256"
        }
      ],
      "name": "bridgeMintDisbursement",
      "outputs": [],
      "stateMutability": "nonpayable",
      "type": "function"
    },
    {
      "inputs": [
        {
          "internalType": "uint256",
          "name": "amount",
          "type": "uint256"
        }
      ],
      "name": "burn",
      "outputs": [],
      "stateMutability": "nonpayable",
      "type": "function"
    },
    {
      "inputs": [
        {
          "internalType": "address",
          "name": "account",
          "type": "address"
        },
        {
          "internalType": "uint256",
          "name": "amount",
          "type": "uint256"
        }
      ],
      "name": "burnFrom",
      "outputs": [],
      "stateMutability": "nonpayable",
      "type": "function"
    },
    {
      "inputs": [],
      "name": "burnLocked",
      "outputs": [],
      "stateMutability": "nonpayable",
      "type": "function"
    },
    {
      "inputs": [],
      "name": "claimPending",
      "outputs": [],
      "stateMutability": "nonpayable",
      "type": "function"
    },
    {
      "inputs": [],
      "name": "decimals",
      "outputs": [
        {
          "internalType": "uint8",
          "name": "",
          "type": "uint8"
        }
      ],
      "stateMutability": "view",
      "type": "function"
    },
    {
      "inputs": [
        {
          "internalType": "address",
          "name": "spender",
          "type": "address"
        },
        {
          "internalType": "uint256",
          "name": "subtractedValue",
          "type": "uint256"
        }
      ],
      "name": "decreaseAllowance",
      "outputs": [
        {
          "internalType": "bool",
          "name": "",
          "type": "bool"
        }
      ],
      "stateMutability": "nonpayable",
      "type": "function"
    },
    {
      "inputs": [
        {
          "internalType": "address",
          "name": "",
          "type": "address"
        },
        {
          "internalType": "uint256",
          "name": "",
          "type": "uint256"
        }
      ],
      "name": "disbursements",
      "outputs": [
        {
          "internalType": "uint256",
          "name": "startTime",
          "type": "uint256"
        },
        {
          "internalType": "uint256",
          "name": "duration",
          "type": "uint256"
        },
        {
          "internalType": "uint256",
          "name": "amount",
          "type": "uint256"
        },
        {
          "internalType": "uint256",
          "name": "balance",
          "type": "uint256"
        }
      ],
      "stateMutability": "view",
      "type": "function"
    },
    {
      "inputs": [
        {
          "internalType": "address",
          "name": "_address",
          "type": "address"
        }
      ],
      "name": "disbursementsOf",
      "outputs": [
        {
          "components": [
            {
              "internalType": "uint256",
              "name": "startTime",
              "type": "uint256"
            },
            {
              "internalType": "uint256",
              "name": "duration",
              "type": "uint256"
            },
            {
              "internalType": "uint256",
              "name": "amount",
              "type": "uint256"
            },
            {
              "internalType": "uint256",
              "name": "balance",
              "type": "uint256"
            }
          ],
          "internalType": "struct cEVOUpgradeable.Disbursement[]",
          "name": "",
          "type": "tuple[]"
        }
      ],
      "stateMutability": "view",
      "type": "function"
    },
    {
      "inputs": [
        {
          "internalType": "bytes32",
          "name": "role",
          "type": "bytes32"
        }
      ],
      "name": "getRoleAdmin",
      "outputs": [
        {
          "internalType": "bytes32",
          "name": "",
          "type": "bytes32"
        }
      ],
      "stateMutability": "view",
      "type": "function"
    },
    {
      "inputs": [
        {
          "internalType": "bytes32",
          "name": "role",
          "type": "bytes32"
        },
        {
          "internalType": "address",
          "name": "account",
          "type": "address"
        }
      ],
      "name": "grantRole",
      "outputs": [],
      "stateMutability": "nonpayable",
      "type": "function"
    },
    {
      "inputs": [
        {
          "internalType": "bytes32",
          "name": "role",
          "type": "bytes32"
        },
        {
          "internalType": "address",
          "name": "account",
          "type": "address"
        }
      ],
      "name": "hasRole",
      "outputs": [
        {
          "internalType": "bool",
          "name": "",
          "type": "bool"
        }
      ],
      "stateMutability": "view",
      "type": "function"
    },
    {
      "inputs": [
        {
          "internalType": "address",
          "name": "spender",
          "type": "address"
        },
        {
          "internalType": "uint256",
          "name": "addedValue",
          "type": "uint256"
        }
      ],
      "name": "increaseAllowance",
      "outputs": [
        {
          "internalType": "bool",
          "name": "",
          "type": "bool"
        }
      ],
      "stateMutability": "nonpayable",
      "type": "function"
    },
    {
      "inputs": [],
      "name": "initialize",
      "outputs": [],
      "stateMutability": "nonpayable",
      "type": "function"
    },
    {
      "inputs": [
        {
          "internalType": "address",
          "name": "",
          "type": "address"
        }
      ],
      "name": "lockedOf",
      "outputs": [
        {
          "internalType": "uint256",
          "name": "",
          "type": "uint256"
        }
      ],
      "stateMutability": "view",
      "type": "function"
    },
    {
      "inputs": [
        {
          "internalType": "address",
          "name": "_address",
          "type": "address"
        },
        {
          "internalType": "uint256",
          "name": "amount",
          "type": "uint256"
        }
      ],
      "name": "mint",
      "outputs": [],
      "stateMutability": "nonpayable",
      "type": "function"
    },
    {
      "inputs": [
        {
          "internalType": "address",
          "name": "to",
          "type": "address"
        },
        {
          "internalType": "uint256",
          "name": "startTime",
          "type": "uint256"
        },
        {
          "internalType": "uint256",
          "name": "duration",
          "type": "uint256"
        },
        {
          "internalType": "uint256",
          "name": "amount",
          "type": "uint256"
        }
      ],
      "name": "mintDisbursement",
      "outputs": [],
      "stateMutability": "nonpayable",
      "type": "function"
    },
    {
      "inputs": [],
      "name": "name",
      "outputs": [
        {
          "internalType": "string",
          "name": "",
          "type": "string"
        }
      ],
      "stateMutability": "view",
      "type": "function"
    },
    {
      "inputs": [
        {
          "internalType": "address",
          "name": "owner",
          "type": "address"
        }
      ],
      "name": "nonces",
      "outputs": [
        {
          "internalType": "uint256",
          "name": "",
          "type": "uint256"
        }
      ],
      "stateMutability": "view",
      "type": "function"
    },
    {
      "inputs": [],
      "name": "pause",
      "outputs": [],
      "stateMutability": "nonpayable",
      "type": "function"
    },
    {
      "inputs": [],
      "name": "paused",
      "outputs": [
        {
          "internalType": "bool",
          "name": "",
          "type": "bool"
        }
      ],
      "stateMutability": "view",
      "type": "function"
    },
    {
      "inputs": [
        {
          "internalType": "address",
          "name": "_address",
          "type": "address"
        }
      ],
      "name": "pendingOf",
      "outputs": [
        {
          "internalType": "uint256",
          "name": "",
          "type": "uint256"
        }
      ],
      "stateMutability": "view",
      "type": "function"
    },
    {
      "inputs": [
        {
          "internalType": "address",
          "name": "owner",
          "type": "address"
        },
        {
          "internalType": "address",
          "name": "spender",
          "type": "address"
        },
        {
          "internalType": "uint256",
          "name": "value",
          "type": "uint256"
        },
        {
          "internalType": "uint256",
          "name": "deadline",
          "type": "uint256"
        },
        {
          "internalType": "uint8",
          "name": "v",
          "type": "uint8"
        },
        {
          "internalType": "bytes32",
          "name": "r",
          "type": "bytes32"
        },
        {
          "internalType": "bytes32",
          "name": "s",
          "type": "bytes32"
        }
      ],
      "name": "permit",
      "outputs": [],
      "stateMutability": "nonpayable",
      "type": "function"
    },
    {
      "inputs": [
        {
          "internalType": "bytes32",
          "name": "role",
          "type": "bytes32"
        },
        {
          "internalType": "address",
          "name": "account",
          "type": "address"
        }
      ],
      "name": "renounceRole",
      "outputs": [],
      "stateMutability": "nonpayable",
      "type": "function"
    },
    {
      "inputs": [
        {
          "internalType": "address",
          "name": "_address",
          "type": "address"
        }
      ],
      "name": "resetTransferTimeOf",
      "outputs": [],
      "stateMutability": "nonpayable",
      "type": "function"
    },
    {
      "inputs": [
        {
          "internalType": "bytes32",
          "name": "role",
          "type": "bytes32"
        },
        {
          "internalType": "address",
          "name": "account",
          "type": "address"
        }
      ],
      "name": "revokeRole",
      "outputs": [],
      "stateMutability": "nonpayable",
      "type": "function"
    },
    {
      "inputs": [
        {
          "internalType": "bytes4",
          "name": "interfaceId",
          "type": "bytes4"
        }
      ],
      "name": "supportsInterface",
      "outputs": [
        {
          "internalType": "bool",
          "name": "",
          "type": "bool"
        }
      ],
      "stateMutability": "view",
      "type": "function"
    },
    {
      "inputs": [],
      "name": "symbol",
      "outputs": [
        {
          "internalType": "string",
          "name": "",
          "type": "string"
        }
      ],
      "stateMutability": "view",
      "type": "function"
    },
    {
      "inputs": [],
      "name": "totalBurned",
      "outputs": [
        {
          "internalType": "uint256",
          "name": "",
          "type": "uint256"
        }
      ],
      "stateMutability": "view",
      "type": "function"
    },
    {
      "inputs": [],
      "name": "totalSupply",
      "outputs": [
        {
          "internalType": "uint256",
          "name": "",
          "type": "uint256"
        }
      ],
      "stateMutability": "view",
      "type": "function"
    },
    {
      "inputs": [
        {
          "internalType": "address",
          "name": "to",
          "type": "address"
        },
        {
          "internalType": "uint256",
          "name": "amount",
          "type": "uint256"
        }
      ],
      "name": "transfer",
      "outputs": [
        {
          "internalType": "bool",
          "name": "",
          "type": "bool"
        }
      ],
      "stateMutability": "nonpayable",
      "type": "function"
    },
    {
      "inputs": [
        {
          "internalType": "address",
          "name": "to",
          "type": "address"
        }
      ],
      "name": "transferAllDisbursements",
      "outputs": [],
      "stateMutability": "nonpayable",
      "type": "function"
    },
    {
      "inputs": [
        {
          "internalType": "address",
          "name": "from",
          "type": "address"
        },
        {
          "internalType": "address",
          "name": "to",
          "type": "address"
        },
        {
          "internalType": "uint256",
          "name": "amount",
          "type": "uint256"
        }
      ],
      "name": "transferFrom",
      "outputs": [
        {
          "internalType": "bool",
          "name": "",
          "type": "bool"
        }
      ],
      "stateMutability": "nonpayable",
      "type": "function"
    },
    {
      "inputs": [
        {
          "internalType": "address",
          "name": "",
          "type": "address"
        }
      ],
      "name": "transferTime",
      "outputs": [
        {
          "internalType": "uint256",
          "name": "",
          "type": "uint256"
        }
      ],
      "stateMutability": "view",
      "type": "function"
    },
    {
      "inputs": [],
      "name": "unpause",
      "outputs": [],
      "stateMutability": "nonpayable",
      "type": "function"
    },
    {
      "inputs": [
        {
          "internalType": "address",
          "name": "account",
          "type": "address"
        },
        {
          "internalType": "uint256",
          "name": "amount",
          "type": "uint256"
        }
      ],
      "name": "useLocked",
      "outputs": [],
      "stateMutability": "nonpayable",
      "type": "function"
    }
  ],
  "bytecode": "0x60806040523480156200001157600080fd5b506200001c62000022565b620000e4565b600054610100900460ff16156200008f5760405162461bcd60e51b815260206004820152602760248201527f496e697469616c697a61626c653a20636f6e747261637420697320696e697469604482015266616c697a696e6760c81b606482015260840160405180910390fd5b60005460ff9081161015620000e2576000805460ff191660ff9081179091556040519081527f7f26b83ff96e1f2b6a682f133852f6798a09c465da95921460cefb38474024989060200160405180910390a15b565b6134f780620000f46000396000f3fe608060405234801561001057600080fd5b50600436106102a05760003560e01c806375b238fc11610167578063a5f1e282116100ce578063d505accf11610087578063d505accf146105e3578063d5391393146105f6578063d547741f1461060b578063d89135cd1461061e578063dd62ed3e14610627578063f44136a11461063a57600080fd5b8063a5f1e28214610563578063a6d2ba5214610584578063a73d633c14610597578063a9059cbb146105aa578063b45cc845146105bd578063c06bab2b146105d057600080fd5b806391d148541161012057806391d14854146104f9578063938667071461050c57806395d89b411461052d5780639f2310a414610535578063a217fddf14610548578063a457c2d71461055057600080fd5b806375b238fc1461047b57806379cc6790146104905780637a153043146104a35780637ecebe00146104d65780638129fc1c146104e95780638456cb59146104f157600080fd5b80632f2ff15d1161020b5780633f4ba83a116101c45780633f4ba83a1461041157806340c10f191461041957806342966c681461042c5780634d3ef8dd1461043f5780635c975abb1461044757806370a082311461045257600080fd5b80632f2ff15d146103ae578063313ce567146103c1578063314f8454146103d05780633644e515146103e357806336568abe146103eb57806339509351146103fe57600080fd5b80630c64936d1161025d5780630c64936d1461033757806312bdd0f21461034a578063181341111461035d57806318160ddd1461037057806323b872dd14610378578063248a9ca31461038b57600080fd5b806301ffc9a7146102a557806303a9f06e146102cd57806305cea05f146102d757806306fdde03146102f7578063095ea7b31461030c578063098480ec1461031f575b600080fd5b6102b86102b3366004612cd8565b61064d565b60405190151581526020015b60405180910390f35b6102d5610684565b005b6102ea6102e5366004612d1e565b6108fe565b6040516102c49190612d39565b6102ff61099c565b6040516102c49190612dc1565b6102b861031a366004612df4565b610a2e565b6103296101c65481565b6040519081526020016102c4565b6102d5610345366004612d1e565b610a46565b6102d5610358366004612e1e565b610a6d565b6102d561036b366004612f27565b610a94565b603554610329565b6102b8610386366004612ff7565b610b66565b610329610399366004613033565b600090815260c9602052604090206001015490565b6102d56103bc36600461304c565b610b8a565b604051601281526020016102c4565b6102d56103de36600461306f565b610baf565b610329610cd3565b6102d56103f936600461304c565b610ce2565b6102b861040c366004612df4565b610d5c565b6102d5610d7e565b6102d5610427366004612df4565b610da1565b6102d561043a366004613033565b610e56565b6102d5610e97565b60655460ff166102b8565b610329610460366004612d1e565b6001600160a01b031660009081526033602052604090205490565b6103296000805160206134a283398151915281565b6102d561049e366004612df4565b610f45565b6104b66104b1366004612df4565b610f4f565b6040805194855260208501939093529183015260608201526080016102c4565b6103296104e4366004612d1e565b610f96565b6102d5610fb5565b6102d56111a7565b6102b861050736600461304c565b6111c7565b61032961051a366004612d1e565b6101cc6020526000908152604090205481565b6102ff6111f2565b6102d5610543366004612d1e565b611201565b610329600081565b6102b861055e366004612df4565b61120b565b610329610571366004612d1e565b6101cb6020526000908152604090205481565b6102d56105923660046130a8565b611286565b6102d56105a5366004612e1e565b6113ab565b6102b86105b8366004612df4565b6113df565b6102d56105cb366004612d1e565b6113ed565b6102d56105de366004612df4565b611404565b6102d56105f13660046130ea565b611539565b61032960008051602061348283398151915281565b6102d561061936600461304c565b61169d565b61016254610329565b610329610635366004612e1e565b6116c2565b610329610648366004612d1e565b6116ed565b60006001600160e01b03198216637965db0b60e01b148061067e57506301ffc9a760e01b6001600160e01b03198316145b92915050565b61068c6117da565b6000805b3360009081526101ca6020526040902054811015610782573360009081526101ca602052604081208054839081106106ca576106ca61315d565b906000526020600020906004020190506000816003015482600201546106f09190613189565b9050600082600101548360020154610708919061319c565b905060008184600001544261071d9190613189565b61072791906131be565b90508083101561076b5761073b8382613189565b84600301600082825461074e9190613189565b9091555061075e90508382613189565b61076890876131dd565b95505b50505050808061077a906131f0565b915050610690565b508060000361078e5750565b610799335b82611820565b6101c5546040516370a0823160e01b815230600482015282916001600160a01b0316906370a0823190602401602060405180830381865afa1580156107e2573d6000803e3d6000fd5b505050506040513d601f19601f820116820180604052508101906108069190613209565b1115610894576101c5546001600160a01b031663a9059cbb336040516001600160e01b031960e084901b1681526001600160a01b039091166004820152602481018490526044016020604051808303816000875af115801561086c573d6000803e3d6000fd5b505050506040513d601f19601f820116820180604052508101906108909190613222565b5050565b6101c5546040516340c10f1960e01b8152336004820152602481018390526001600160a01b03909116906340c10f19906044015b600060405180830381600087803b1580156108e257600080fd5b505af11580156108f6573d6000803e3d6000fd5b50505050505b565b6001600160a01b03811660009081526101ca60209081526040808320805482518185028101850190935280835260609492939192909184015b82821015610991578382906000526020600020906004020160405180608001604052908160008201548152602001600182015481526020016002820154815260200160038201548152505081526020019060010190610937565b505050509050919050565b6060603680546109ab90613244565b80601f01602080910402602001604051908101604052809291908181526020018280546109d790613244565b8015610a245780601f106109f957610100808354040283529160200191610a24565b820191906000526020600020905b815481529060010190602001808311610a0757829003601f168201915b5050505050905090565b600033610a3c81858561197a565b5060019392505050565b6000610a5181611a9e565b506001600160a01b031660009081526101cc6020526040812055565b6000805160206134a2833981519152610a8581611a9e565b610a8f8383611aa8565b505050565b600080516020613482833981519152610aac81611a9e565b8351855114610b025760405162461bcd60e51b815260206004820152601f60248201527f746f20616e6420616d6f756e7420617272617973206d757374206d617463680060448201526064015b60405180910390fd5b60005b8551811015610b5e57610b4c868281518110610b2357610b2361315d565b60200260200101518585888581518110610b3f57610b3f61315d565b6020026020010151610baf565b80610b56816131f0565b915050610b05565b505050505050565b600033610b74858285611da7565b610b7f858585611e1b565b506001949350505050565b600082815260c96020526040902060010154610ba581611a9e565b610a8f8383611ff4565b600080516020613482833981519152610bc781611a9e565b6000808511610bd65742610bd8565b845b90506000808511610bec576101c654610bee565b845b6001600160a01b0388811660009081526101ca6020908152604080832081516080810183528881528084018781528184018c8152606083018d815284546001808201875595895296909720925160049687029093019283559051928201929092559051600282015592516003909301929092556101c55491516340c10f1960e01b815230918101919091526024810188905292935016906340c10f1990604401600060405180830381600087803b158015610ca857600080fd5b505af1158015610cbc573d6000803e3d6000fd5b50505050610cca878561207a565b50505050505050565b6000610cdd612165565b905090565b6001600160a01b0381163314610d525760405162461bcd60e51b815260206004820152602f60248201527f416363657373436f6e74726f6c3a2063616e206f6e6c792072656e6f756e636560448201526e103937b632b9903337b91039b2b63360891b6064820152608401610af9565b61089082826121e0565b600033610a3c818585610d6f83836116c2565b610d7991906131dd565b61197a565b6000805160206134a2833981519152610d9681611a9e565b610d9e612247565b50565b600080516020613482833981519152610db981611a9e565b6001600160a01b03831660009081526101cb602052604081208054849290610de29084906131dd565b90915550506101c5546040516340c10f1960e01b8152306004820152602481018490526001600160a01b03909116906340c10f1990604401600060405180830381600087803b158015610e3457600080fd5b505af1158015610e48573d6000803e3d6000fd5b50505050610a8f838361207a565b610e5f81612299565b6101c554604051632770a7eb60e21b8152306004820152602481018390526001600160a01b0390911690639dc29fac906044016108c8565b600080516020613482833981519152610eaf81611a9e565b306000908152603360205260408120549050806101626000828254610ed491906131dd565b90915550610ee490503082611820565b6101c55460405163079cc67960e41b8152306004820152602481018390526001600160a01b03909116906379cc679090604401600060405180830381600087803b158015610f3157600080fd5b505af1158015610b5e573d6000803e3d6000fd5b610ee482826122bb565b6101ca6020528160005260406000208181548110610f6c57600080fd5b60009182526020909120600490910201805460018201546002830154600390930154919450925084565b6001600160a01b038116600090815261012f602052604081205461067e565b600054610100900460ff1615808015610fd55750600054600160ff909116105b80610fef5750303b158015610fef575060005460ff166001145b6110525760405162461bcd60e51b815260206004820152602e60248201527f496e697469616c697a61626c653a20636f6e747261637420697320616c72656160448201526d191e481a5b9a5d1a585b1a5e995960921b6064820152608401610af9565b6000805460ff191660011790558015611075576000805461ff0019166101001790555b6110b7604051806040016040528060048152602001636345564f60e01b815250604051806040016040528060048152602001636345564f60e01b8152506122f9565b6110bf61232a565b6110c7612359565b6110ec604051806040016040528060048152602001636345564f60e01b815250612380565b6110f4612359565b6110ff600033611ff4565b6111176000805160206134a283398151915233611ff4565b61112f60008051602061348283398151915233611ff4565b6101c580546001600160a01b0319167342006ab57701251b580bdfc24778c43c9ff589a11790556301e133806101c6558015610d9e576000805461ff0019169055604051600181527f7f26b83ff96e1f2b6a682f133852f6798a09c465da95921460cefb38474024989060200160405180910390a150565b6000805160206134a28339815191526111bf81611a9e565b610d9e6123ca565b600091825260c9602090815260408084206001600160a01b0393909316845291905290205460ff1690565b6060603780546109ab90613244565b610d9e3382611aa8565b6000338161121982866116c2565b9050838110156112795760405162461bcd60e51b815260206004820152602560248201527f45524332303a2064656372656173656420616c6c6f77616e63652062656c6f77604482015264207a65726f60d81b6064820152608401610af9565b610b7f828686840361197a565b60008051602061348283398151915261129e81611a9e565b60008086116112ad57426112af565b855b905060008086116112c3576101c6546112c5565b855b6001600160a01b0389811660009081526101ca6020908152604080832081516080810183528881528084018781528184018d8152606083018d815284546001808201875595895296909720925160049687029093019283559051928201929092559051600282015592516003909301929092556101c55491516340c10f1960e01b815230918101919091526024810188905292935016906340c10f1990604401600060405180830381600087803b15801561137f57600080fd5b505af1158015611393573d6000803e3d6000fd5b505050506113a1888561207a565b5050505050505050565b60006113b681611a9e565b6001600160a01b03831660009081526101c9602052604090206113d99083612407565b50505050565b600033610a3c818585611e1b565b60006113f881611a9e565b610a8f6101c783612407565b60008051602061348283398151915261141c81611a9e565b6001600160a01b03831660009081526101cb60205260409020548211156114855760405162461bcd60e51b815260206004820152601b60248201527f496e73756666696369656e74206c6f636b65642062616c616e636500000000006044820152606401610af9565b6001600160a01b03831660009081526101cb6020526040812080548492906114ae908490613189565b925050819055508161016260008282546114c891906131dd565b909155506114d890508383611820565b6101c55460405163079cc67960e41b8152306004820152602481018490526001600160a01b03909116906379cc679090604401600060405180830381600087803b15801561152557600080fd5b505af1158015610cca573d6000803e3d6000fd5b834211156115895760405162461bcd60e51b815260206004820152601d60248201527f45524332305065726d69743a206578706972656420646561646c696e650000006044820152606401610af9565b60007f6e71edae12b1b97f4d1f60370fef10105fa2faae0126114a169c64845d6126c98888886115b88c612423565b6040805160208101969096526001600160a01b0394851690860152929091166060840152608083015260a082015260c0810186905260e00160405160208183030381529060405280519060200120905060006116138261244c565b905060006116238287878761249a565b9050896001600160a01b0316816001600160a01b0316146116865760405162461bcd60e51b815260206004820152601e60248201527f45524332305065726d69743a20696e76616c6964207369676e617475726500006044820152606401610af9565b6116918a8a8a61197a565b50505050505050505050565b600082815260c960205260409020600101546116b881611a9e565b610a8f83836121e0565b6001600160a01b03918216600090815260346020908152604080832093909416825291909152205490565b600080805b6001600160a01b03841660009081526101ca60205260409020548110156117d3576001600160a01b03841660009081526101ca6020526040812080548390811061173e5761173e61315d565b906000526020600020906004020190506000816003015482600201546117649190613189565b905060008260010154836002015461177c919061319c565b90506000818460000154426117919190613189565b61179b91906131be565b9050808310156117bc576117af8382613189565b6117b990876131dd565b95505b5050505080806117cb906131f0565b9150506116f2565b5092915050565b60655460ff16156108fc5760405162461bcd60e51b815260206004820152601060248201526f14185d5cd8589b194e881c185d5cd95960821b6044820152606401610af9565b6001600160a01b0382166118805760405162461bcd60e51b815260206004820152602160248201527f45524332303a206275726e2066726f6d20746865207a65726f206164647265736044820152607360f81b6064820152608401610af9565b61188c826000836124c2565b6001600160a01b038216600090815260336020526040902054818110156119005760405162461bcd60e51b815260206004820152602260248201527f45524332303a206275726e20616d6f756e7420657863656564732062616c616e604482015261636560f01b6064820152608401610af9565b6001600160a01b038316600090815260336020526040812083830390556035805484929061192f908490613189565b90915550506040518281526000906001600160a01b038516907fddf252ad1be2c89b69c2b068fc378daa952ba7f163c4a11628f55a4df523b3ef9060200160405180910390a3505050565b6001600160a01b0383166119dc5760405162461bcd60e51b8152602060048201526024808201527f45524332303a20617070726f76652066726f6d20746865207a65726f206164646044820152637265737360e01b6064820152608401610af9565b6001600160a01b038216611a3d5760405162461bcd60e51b815260206004820152602260248201527f45524332303a20617070726f766520746f20746865207a65726f206164647265604482015261737360f01b6064820152608401610af9565b6001600160a01b0383811660008181526034602090815260408083209487168084529482529182902085905590518481527f8c5be1e5ebec7d5bd14f71427d1e84f3dd0314c0f7b2291e5b200ac8c7c3b925910160405180910390a3505050565b610d9e8133612576565b6001600160a01b03821660009081526101cb602052604090205480151580611ae857506001600160a01b03831660009081526101ca602052604090205415155b611b215760405162461bcd60e51b815260206004820152600a6024820152694e6f2062616c616e636560b01b6044820152606401610af9565b611b2d6101c7846125da565b1580611b425750611b406101c7836125da565b155b15611c22576001600160a01b03831660009081526101cc602052604090205442118015611b8757506001600160a01b03821660009081526101cc602052604090205442115b611bd35760405162461bcd60e51b815260206004820152601f60248201527f436f6f6c646f776e20706572696f6420686173206e6f7420656c6170736564006044820152606401610af9565b611be0426276a7006131dd565b6001600160a01b03841660009081526101cc6020526040902055611c07426276a7006131dd565b6001600160a01b03831660009081526101cc60205260409020555b6001600160a01b0380841660009081526101cb602052604080822082905591841681529081208054839290611c589084906131dd565b90915550600090505b6001600160a01b03841660009081526101ca6020526040902054811015611d14576001600160a01b0380841660009081526101ca602052604080822092871682529020805483908110611cb657611cb661315d565b6000918252602080832084546001818101875595855291909320600492830290930180549190920290920191825582810154928201929092556002808301549082015560039182015491015580611d0c816131f0565b915050611c61565b506001600160a01b03831660009081526101ca60205260408120611d3791612c8f565b6001600160a01b03831660009081526101c960205260409020611d5a9083612407565b50611d848383611d7f866001600160a01b031660009081526033602052604090205490565b611e1b565b6001600160a01b03831660009081526101c9602052604090206113d990836125fc565b6000611db384846116c2565b905060001981146113d95781811015611e0e5760405162461bcd60e51b815260206004820152601d60248201527f45524332303a20696e73756666696369656e7420616c6c6f77616e63650000006044820152606401610af9565b6113d9848484840361197a565b6001600160a01b038316611e7f5760405162461bcd60e51b815260206004820152602560248201527f45524332303a207472616e736665722066726f6d20746865207a65726f206164604482015264647265737360d81b6064820152608401610af9565b6001600160a01b038216611ee15760405162461bcd60e51b815260206004820152602360248201527f45524332303a207472616e7366657220746f20746865207a65726f206164647260448201526265737360e81b6064820152608401610af9565b611eec8383836124c2565b6001600160a01b03831660009081526033602052604090205481811015611f645760405162461bcd60e51b815260206004820152602660248201527f45524332303a207472616e7366657220616d6f756e7420657863656564732062604482015265616c616e636560d01b6064820152608401610af9565b6001600160a01b03808516600090815260336020526040808220858503905591851681529081208054849290611f9b9084906131dd565b92505081905550826001600160a01b0316846001600160a01b03167fddf252ad1be2c89b69c2b068fc378daa952ba7f163c4a11628f55a4df523b3ef84604051611fe791815260200190565b60405180910390a36113d9565b611ffe82826111c7565b61089057600082815260c9602090815260408083206001600160a01b03851684529091529020805460ff191660011790556120363390565b6001600160a01b0316816001600160a01b0316837f2f8788117e7eff1d82e926ec794901d17c78024a50270940304540a733656f0d60405160405180910390a45050565b6001600160a01b0382166120d05760405162461bcd60e51b815260206004820152601f60248201527f45524332303a206d696e7420746f20746865207a65726f2061646472657373006044820152606401610af9565b6120dc600083836124c2565b80603560008282546120ee91906131dd565b90915550506001600160a01b0382166000908152603360205260408120805483929061211b9084906131dd565b90915550506040518181526001600160a01b038316906000907fddf252ad1be2c89b69c2b068fc378daa952ba7f163c4a11628f55a4df523b3ef9060200160405180910390a35050565b6000610cdd7f8b73c3c69bb8fe3d512ecc4cf759cc79239f7b179b0ffacaa9a75d522b39400f61219460fb5490565b60fc546040805160208101859052908101839052606081018290524660808201523060a082015260009060c0016040516020818303038152906040528051906020012090509392505050565b6121ea82826111c7565b1561089057600082815260c9602090815260408083206001600160a01b0385168085529252808320805460ff1916905551339285917ff6391f5c32d9c69d2a47ea670b442974b53935d1edc7fd64eb21e047a839171b9190a45050565b61224f612611565b6065805460ff191690557f5db9ee0a495bf2e6ff9c91a7834c1ba4fdd244a5e8aa4e537bd38aeae4b073aa335b6040516001600160a01b03909116815260200160405180910390a1565b8061016260008282546122ac91906131dd565b90915550610d9e905033610793565b6001600160a01b03821633146122d6576122d6823383611da7565b8061016260008282546122e991906131dd565b9091555061089090508282611820565b600054610100900460ff166123205760405162461bcd60e51b8152600401610af990613278565b610890828261265a565b600054610100900460ff166123515760405162461bcd60e51b8152600401610af990613278565b6108fc61269a565b600054610100900460ff166108fc5760405162461bcd60e51b8152600401610af990613278565b600054610100900460ff166123a75760405162461bcd60e51b8152600401610af990613278565b610d9e81604051806040016040528060018152602001603160f81b8152506126cd565b6123d26117da565b6065805460ff191660011790557f62e78cea01bee320cd4e420270b5ea74000d11b0c9f74754ebdbfc544b05a25861227c3390565b600061241c836001600160a01b03841661270e565b9392505050565b6001600160a01b038116600090815261012f602052604090208054600181018255905b50919050565b600061067e612459612165565b8360405161190160f01b6020820152602281018390526042810182905260009060620160405160208183030381529060405280519060200120905092915050565b60008060006124ab8787878761275d565b915091506124b88161284a565b5095945050505050565b6124ca6117da565b82826124d86101c7826125da565b8061250157506001600160a01b03821660009081526101c96020526040902061250190826125da565b8061251357506001600160a01b038216155b8061252557506001600160a01b038116155b6125715760405162461bcd60e51b815260206004820152601860248201527f6345564f206973206e6f6e2d7472616e7366657261626c6500000000000000006044820152606401610af9565b6108f6565b61258082826111c7565b61089057612598816001600160a01b03166014612a00565b6125a3836020612a00565b6040516020016125b49291906132c3565b60408051601f198184030181529082905262461bcd60e51b8252610af991600401612dc1565b6001600160a01b0381166000908152600183016020526040812054151561241c565b600061241c836001600160a01b038416612b9c565b60655460ff166108fc5760405162461bcd60e51b815260206004820152601460248201527314185d5cd8589b194e881b9bdd081c185d5cd95960621b6044820152606401610af9565b600054610100900460ff166126815760405162461bcd60e51b8152600401610af990613278565b603661268d838261337e565b506037610a8f828261337e565b600054610100900460ff166126c15760405162461bcd60e51b8152600401610af990613278565b6065805460ff19169055565b600054610100900460ff166126f45760405162461bcd60e51b8152600401610af990613278565b81516020928301208151919092012060fb9190915560fc55565b60008181526001830160205260408120546127555750815460018181018455600084815260208082209093018490558454848252828601909352604090209190915561067e565b50600061067e565b6000807f7fffffffffffffffffffffffffffffff5d576e7357a4501ddfe92f46681b20a08311156127945750600090506003612841565b8460ff16601b141580156127ac57508460ff16601c14155b156127bd5750600090506004612841565b6040805160008082526020820180845289905260ff881692820192909252606081018690526080810185905260019060a0016020604051602081039080840390855afa158015612811573d6000803e3d6000fd5b5050604051601f1901519150506001600160a01b03811661283a57600060019250925050612841565b9150600090505b94509492505050565b600081600481111561285e5761285e61343e565b036128665750565b600181600481111561287a5761287a61343e565b036128c75760405162461bcd60e51b815260206004820152601860248201527f45434453413a20696e76616c6964207369676e617475726500000000000000006044820152606401610af9565b60028160048111156128db576128db61343e565b036129285760405162461bcd60e51b815260206004820152601f60248201527f45434453413a20696e76616c6964207369676e6174757265206c656e677468006044820152606401610af9565b600381600481111561293c5761293c61343e565b036129945760405162461bcd60e51b815260206004820152602260248201527f45434453413a20696e76616c6964207369676e6174757265202773272076616c604482015261756560f01b6064820152608401610af9565b60048160048111156129a8576129a861343e565b03610d9e5760405162461bcd60e51b815260206004820152602260248201527f45434453413a20696e76616c6964207369676e6174757265202776272076616c604482015261756560f01b6064820152608401610af9565b60606000612a0f8360026131be565b612a1a9060026131dd565b67ffffffffffffffff811115612a3257612a32612e51565b6040519080825280601f01601f191660200182016040528015612a5c576020820181803683370190505b509050600360fc1b81600081518110612a7757612a7761315d565b60200101906001600160f81b031916908160001a905350600f60fb1b81600181518110612aa657612aa661315d565b60200101906001600160f81b031916908160001a9053506000612aca8460026131be565b612ad59060016131dd565b90505b6001811115612b4d576f181899199a1a9b1b9c1cb0b131b232b360811b85600f1660108110612b0957612b0961315d565b1a60f81b828281518110612b1f57612b1f61315d565b60200101906001600160f81b031916908160001a90535060049490941c93612b4681613454565b9050612ad8565b50831561241c5760405162461bcd60e51b815260206004820181905260248201527f537472696e67733a20686578206c656e67746820696e73756666696369656e746044820152606401610af9565b60008181526001830160205260408120548015612c85576000612bc0600183613189565b8554909150600090612bd490600190613189565b9050818114612c39576000866000018281548110612bf457612bf461315d565b9060005260206000200154905080876000018481548110612c1757612c1761315d565b6000918252602080832090910192909255918252600188019052604090208390555b8554869080612c4a57612c4a61346b565b60019003818190600052602060002001600090559055856001016000868152602001908152602001600020600090556001935050505061067e565b600091505061067e565b5080546000825560040290600052602060002090810190610d9e91905b80821115612cd457600080825560018201819055600282018190556003820155600401612cac565b5090565b600060208284031215612cea57600080fd5b81356001600160e01b03198116811461241c57600080fd5b80356001600160a01b0381168114612d1957600080fd5b919050565b600060208284031215612d3057600080fd5b61241c82612d02565b602080825282518282018190526000919060409081850190868401855b82811015612d9057815180518552868101518786015285810151868601526060908101519085015260809093019290850190600101612d56565b5091979650505050505050565b60005b83811015612db8578181015183820152602001612da0565b50506000910152565b6020815260008251806020840152612de0816040850160208701612d9d565b601f01601f19169190910160400192915050565b60008060408385031215612e0757600080fd5b612e1083612d02565b946020939093013593505050565b60008060408385031215612e3157600080fd5b612e3a83612d02565b9150612e4860208401612d02565b90509250929050565b634e487b7160e01b600052604160045260246000fd5b604051601f8201601f1916810167ffffffffffffffff81118282101715612e9057612e90612e51565b604052919050565b600067ffffffffffffffff821115612eb257612eb2612e51565b5060051b60200190565b600082601f830112612ecd57600080fd5b81356020612ee2612edd83612e98565b612e67565b82815260059290921b84018101918181019086841115612f0157600080fd5b8286015b84811015612f1c5780358352918301918301612f05565b509695505050505050565b60008060008060808587031215612f3d57600080fd5b843567ffffffffffffffff80821115612f5557600080fd5b818701915087601f830112612f6957600080fd5b81356020612f79612edd83612e98565b82815260059290921b8401810191818101908b841115612f9857600080fd5b948201945b83861015612fbd57612fae86612d02565b82529482019490820190612f9d565b98505088013592505080821115612fd357600080fd5b50612fe087828801612ebc565b949794965050505060408301359260600135919050565b60008060006060848603121561300c57600080fd5b61301584612d02565b925061302360208501612d02565b9150604084013590509250925092565b60006020828403121561304557600080fd5b5035919050565b6000806040838503121561305f57600080fd5b82359150612e4860208401612d02565b6000806000806080858703121561308557600080fd5b61308e85612d02565b966020860135965060408601359560600135945092505050565b600080600080600060a086880312156130c057600080fd5b6130c986612d02565b97602087013597506040870135966060810135965060800135945092505050565b600080600080600080600060e0888a03121561310557600080fd5b61310e88612d02565b965061311c60208901612d02565b95506040880135945060608801359350608088013560ff8116811461314057600080fd5b9699959850939692959460a0840135945060c09093013592915050565b634e487b7160e01b600052603260045260246000fd5b634e487b7160e01b600052601160045260246000fd5b8181038181111561067e5761067e613173565b6000826131b957634e487b7160e01b600052601260045260246000fd5b500490565b60008160001904831182151516156131d8576131d8613173565b500290565b8082018082111561067e5761067e613173565b60006001820161320257613202613173565b5060010190565b60006020828403121561321b57600080fd5b5051919050565b60006020828403121561323457600080fd5b8151801515811461241c57600080fd5b600181811c9082168061325857607f821691505b60208210810361244657634e487b7160e01b600052602260045260246000fd5b6020808252602b908201527f496e697469616c697a61626c653a20636f6e7472616374206973206e6f74206960408201526a6e697469616c697a696e6760a81b606082015260800190565b7f416363657373436f6e74726f6c3a206163636f756e74200000000000000000008152600083516132fb816017850160208801612d9d565b7001034b99036b4b9b9b4b733903937b6329607d1b601791840191820152835161332c816028840160208801612d9d565b01602801949350505050565b601f821115610a8f57600081815260208120601f850160051c8101602086101561335f5750805b601f850160051c820191505b81811015610b5e5782815560010161336b565b815167ffffffffffffffff81111561339857613398612e51565b6133ac816133a68454613244565b84613338565b602080601f8311600181146133e157600084156133c95750858301515b600019600386901b1c1916600185901b178555610b5e565b600085815260208120601f198616915b82811015613410578886015182559484019460019091019084016133f1565b508582101561342e5787850151600019600388901b60f8161c191681555b5050505050600190811b01905550565b634e487b7160e01b600052602160045260246000fd5b60008161346357613463613173565b506000190190565b634e487b7160e01b600052603160045260246000fdfe9f2df0fed2c77648de5860a4cc508cd0818c85b8b8a1ab4ceeef8d981c8956a6a49807205ce4d355092ef5a8a18f56e8913cf4a201fbe287825b095693c21775a264697066735822122082ce584fc2aa8fbf1c5425fd20749468728a731cbfd739aa8ed0f4073cfbabcc64736f6c63430008100033",
  "linkReferences": {},
  "deployedLinkReferences": {}
}