{
  "_format": "hh-sol-artifact-1",
  "contractName": "cEVO",
  "sourceName": "contracts/ERC20/cEVOUpgradeable.sol",
  "abi": [
    {
      "inputs": [],
      "stateMutability": "nonpayable",
      "type": "constructor"
    },
    {
      "anonymous": false,
      "inputs": [
        {
          "indexed": true,
          "internalType": "address",
          "name": "owner",
          "type": "address"
        },
        {
          "indexed": true,
          "internalType": "address",
          "name": "spender",
          "type": "address"
        },
        {
          "indexed": false,
          "internalType": "uint256",
          "name": "value",
          "type": "uint256"
        }
      ],
      "name": "Approval",
      "type": "event"
    },
    {
      "anonymous": false,
      "inputs": [
        {
          "indexed": false,
          "internalType": "address",
          "name": "account",
          "type": "address"
        }
      ],
      "name": "Paused",
      "type": "event"
    },
    {
      "anonymous": false,
      "inputs": [
        {
          "indexed": true,
          "internalType": "bytes32",
          "name": "role",
          "type": "bytes32"
        },
        {
          "indexed": true,
          "internalType": "bytes32",
          "name": "previousAdminRole",
          "type": "bytes32"
        },
        {
          "indexed": true,
          "internalType": "bytes32",
          "name": "newAdminRole",
          "type": "bytes32"
        }
      ],
      "name": "RoleAdminChanged",
      "type": "event"
    },
    {
      "anonymous": false,
      "inputs": [
        {
          "indexed": true,
          "internalType": "bytes32",
          "name": "role",
          "type": "bytes32"
        },
        {
          "indexed": true,
          "internalType": "address",
          "name": "account",
          "type": "address"
        },
        {
          "indexed": true,
          "internalType": "address",
          "name": "sender",
          "type": "address"
        }
      ],
      "name": "RoleGranted",
      "type": "event"
    },
    {
      "anonymous": false,
      "inputs": [
        {
          "indexed": true,
          "internalType": "bytes32",
          "name": "role",
          "type": "bytes32"
        },
        {
          "indexed": true,
          "internalType": "address",
          "name": "account",
          "type": "address"
        },
        {
          "indexed": true,
          "internalType": "address",
          "name": "sender",
          "type": "address"
        }
      ],
      "name": "RoleRevoked",
      "type": "event"
    },
    {
      "anonymous": false,
      "inputs": [
        {
          "indexed": true,
          "internalType": "address",
          "name": "from",
          "type": "address"
        },
        {
          "indexed": true,
          "internalType": "address",
          "name": "to",
          "type": "address"
        },
        {
          "indexed": false,
          "internalType": "uint256",
          "name": "value",
          "type": "uint256"
        }
      ],
      "name": "Transfer",
      "type": "event"
    },
    {
      "anonymous": false,
      "inputs": [
        {
          "indexed": false,
          "internalType": "address",
          "name": "account",
          "type": "address"
        }
      ],
      "name": "Unpaused",
      "type": "event"
    },
    {
      "inputs": [],
      "name": "DEFAULT_ADMIN_ROLE",
      "outputs": [
        {
          "internalType": "bytes32",
          "name": "",
          "type": "bytes32"
        }
      ],
      "stateMutability": "view",
      "type": "function"
    },
    {
      "inputs": [],
      "name": "DEFAULT_VESTING_PERIOD",
      "outputs": [
        {
          "internalType": "uint256",
          "name": "",
          "type": "uint256"
        }
      ],
      "stateMutability": "view",
      "type": "function"
    },
    {
      "inputs": [],
      "name": "EVO",
      "outputs": [
        {
          "internalType": "contract IEvoToken",
          "name": "",
          "type": "address"
        }
      ],
      "stateMutability": "view",
      "type": "function"
    },
    {
      "inputs": [],
      "name": "MINTER_ROLE",
      "outputs": [
        {
          "internalType": "bytes32",
          "name": "",
          "type": "bytes32"
        }
      ],
      "stateMutability": "view",
      "type": "function"
    },
    {
      "inputs": [],
      "name": "PAUSER_ROLE",
      "outputs": [
        {
          "internalType": "bytes32",
          "name": "",
          "type": "bytes32"
        }
      ],
      "stateMutability": "view",
      "type": "function"
    },
    {
      "inputs": [
        {
          "internalType": "address",
          "name": "to",
          "type": "address"
        }
      ],
      "name": "addGlobalWhitelist",
      "outputs": [],
      "stateMutability": "nonpayable",
      "type": "function"
    },
    {
      "inputs": [
        {
          "internalType": "address",
          "name": "from",
          "type": "address"
        },
        {
          "internalType": "address",
          "name": "to",
          "type": "address"
        }
      ],
      "name": "addWhitelist",
      "outputs": [],
      "stateMutability": "nonpayable",
      "type": "function"
    },
    {
      "inputs": [
        {
          "internalType": "address",
          "name": "owner",
          "type": "address"
        },
        {
          "internalType": "address",
          "name": "spender",
          "type": "address"
        }
      ],
      "name": "allowance",
      "outputs": [
        {
          "internalType": "uint256",
          "name": "",
          "type": "uint256"
        }
      ],
      "stateMutability": "view",
      "type": "function"
    },
    {
      "inputs": [
        {
          "internalType": "address",
          "name": "spender",
          "type": "address"
        },
        {
          "internalType": "uint256",
          "name": "amount",
          "type": "uint256"
        }
      ],
      "name": "approve",
      "outputs": [
        {
          "internalType": "bool",
          "name": "",
          "type": "bool"
        }
      ],
      "stateMutability": "nonpayable",
      "type": "function"
    },
    {
      "inputs": [
        {
          "internalType": "address",
          "name": "account",
          "type": "address"
        }
      ],
      "name": "balanceOf",
      "outputs": [
        {
          "internalType": "uint256",
          "name": "",
          "type": "uint256"
        }
      ],
      "stateMutability": "view",
      "type": "function"
    },
    {
      "inputs": [
        {
          "internalType": "address[]",
          "name": "to",
          "type": "address[]"
        },
        {
          "internalType": "uint256[]",
          "name": "amount",
          "type": "uint256[]"
        },
        {
          "internalType": "uint256",
          "name": "startTime",
          "type": "uint256"
        },
        {
          "internalType": "uint256",
          "name": "duration",
          "type": "uint256"
        }
      ],
      "name": "batchMint",
      "outputs": [],
      "stateMutability": "nonpayable",
      "type": "function"
    },
    {
      "inputs": [],
      "name": "claimPending",
      "outputs": [],
      "stateMutability": "nonpayable",
      "type": "function"
    },
    {
      "inputs": [],
      "name": "convertLocked",
      "outputs": [],
      "stateMutability": "nonpayable",
      "type": "function"
    },
    {
      "inputs": [],
      "name": "decimals",
      "outputs": [
        {
          "internalType": "uint8",
          "name": "",
          "type": "uint8"
        }
      ],
      "stateMutability": "view",
      "type": "function"
    },
    {
      "inputs": [
        {
          "internalType": "address",
          "name": "spender",
          "type": "address"
        },
        {
          "internalType": "uint256",
          "name": "subtractedValue",
          "type": "uint256"
        }
      ],
      "name": "decreaseAllowance",
      "outputs": [
        {
          "internalType": "bool",
          "name": "",
          "type": "bool"
        }
      ],
      "stateMutability": "nonpayable",
      "type": "function"
    },
    {
      "inputs": [
        {
          "internalType": "address",
          "name": "",
          "type": "address"
        },
        {
          "internalType": "uint256",
          "name": "",
          "type": "uint256"
        }
      ],
      "name": "disbursements",
      "outputs": [
        {
          "internalType": "uint256",
          "name": "startTime",
          "type": "uint256"
        },
        {
          "internalType": "uint256",
          "name": "duration",
          "type": "uint256"
        },
        {
          "internalType": "uint256",
          "name": "amount",
          "type": "uint256"
        },
        {
          "internalType": "uint256",
          "name": "balance",
          "type": "uint256"
        }
      ],
      "stateMutability": "view",
      "type": "function"
    },
    {
      "inputs": [
        {
          "internalType": "bytes32",
          "name": "role",
          "type": "bytes32"
        }
      ],
      "name": "getRoleAdmin",
      "outputs": [
        {
          "internalType": "bytes32",
          "name": "",
          "type": "bytes32"
        }
      ],
      "stateMutability": "view",
      "type": "function"
    },
    {
      "inputs": [
        {
          "internalType": "bytes32",
          "name": "role",
          "type": "bytes32"
        },
        {
          "internalType": "address",
          "name": "account",
          "type": "address"
        }
      ],
      "name": "grantRole",
      "outputs": [],
      "stateMutability": "nonpayable",
      "type": "function"
    },
    {
      "inputs": [
        {
          "internalType": "bytes32",
          "name": "role",
          "type": "bytes32"
        },
        {
          "internalType": "address",
          "name": "account",
          "type": "address"
        }
      ],
      "name": "hasRole",
      "outputs": [
        {
          "internalType": "bool",
          "name": "",
          "type": "bool"
        }
      ],
      "stateMutability": "view",
      "type": "function"
    },
    {
      "inputs": [
        {
          "internalType": "address",
          "name": "spender",
          "type": "address"
        },
        {
          "internalType": "uint256",
          "name": "addedValue",
          "type": "uint256"
        }
      ],
      "name": "increaseAllowance",
      "outputs": [
        {
          "internalType": "bool",
          "name": "",
          "type": "bool"
        }
      ],
      "stateMutability": "nonpayable",
      "type": "function"
    },
    {
      "inputs": [],
      "name": "initialize",
      "outputs": [],
      "stateMutability": "nonpayable",
      "type": "function"
    },
    {
      "inputs": [
        {
          "internalType": "address",
          "name": "",
          "type": "address"
        }
      ],
      "name": "lockedOf",
      "outputs": [
        {
          "internalType": "uint256",
          "name": "",
          "type": "uint256"
        }
      ],
      "stateMutability": "view",
      "type": "function"
    },
    {
      "inputs": [
        {
          "internalType": "address",
          "name": "to",
          "type": "address"
        },
        {
          "internalType": "uint256",
          "name": "startTime",
          "type": "uint256"
        },
        {
          "internalType": "uint256",
          "name": "duration",
          "type": "uint256"
        },
        {
          "internalType": "uint256",
          "name": "amount",
          "type": "uint256"
        }
      ],
      "name": "mint",
      "outputs": [],
      "stateMutability": "nonpayable",
      "type": "function"
    },
    {
      "inputs": [],
      "name": "name",
      "outputs": [
        {
          "internalType": "string",
          "name": "",
          "type": "string"
        }
      ],
      "stateMutability": "view",
      "type": "function"
    },
    {
      "inputs": [],
      "name": "pause",
      "outputs": [],
      "stateMutability": "nonpayable",
      "type": "function"
    },
    {
      "inputs": [],
      "name": "paused",
      "outputs": [
        {
          "internalType": "bool",
          "name": "",
          "type": "bool"
        }
      ],
      "stateMutability": "view",
      "type": "function"
    },
    {
      "inputs": [
        {
          "internalType": "address",
          "name": "_address",
          "type": "address"
        }
      ],
      "name": "pendingOf",
      "outputs": [
        {
          "internalType": "uint256",
          "name": "",
          "type": "uint256"
        }
      ],
      "stateMutability": "view",
      "type": "function"
    },
    {
      "inputs": [
        {
          "internalType": "address",
          "name": "_address",
          "type": "address"
        },
        {
          "internalType": "uint256",
          "name": "index",
          "type": "uint256"
        }
      ],
      "name": "removeDisbursement",
      "outputs": [],
      "stateMutability": "nonpayable",
      "type": "function"
    },
    {
      "inputs": [
        {
          "internalType": "bytes32",
          "name": "role",
          "type": "bytes32"
        },
        {
          "internalType": "address",
          "name": "account",
          "type": "address"
        }
      ],
      "name": "renounceRole",
      "outputs": [],
      "stateMutability": "nonpayable",
      "type": "function"
    },
    {
      "inputs": [
        {
          "internalType": "address",
          "name": "_address",
          "type": "address"
        },
        {
          "internalType": "uint256",
          "name": "index",
          "type": "uint256"
        },
        {
          "internalType": "uint256",
          "name": "amount",
          "type": "uint256"
        }
      ],
      "name": "resetDisbursement",
      "outputs": [],
      "stateMutability": "nonpayable",
      "type": "function"
    },
    {
      "inputs": [
        {
          "internalType": "bytes32",
          "name": "role",
          "type": "bytes32"
        },
        {
          "internalType": "address",
          "name": "account",
          "type": "address"
        }
      ],
      "name": "revokeRole",
      "outputs": [],
      "stateMutability": "nonpayable",
      "type": "function"
    },
    {
      "inputs": [
        {
          "internalType": "bytes4",
          "name": "interfaceId",
          "type": "bytes4"
        }
      ],
      "name": "supportsInterface",
      "outputs": [
        {
          "internalType": "bool",
          "name": "",
          "type": "bool"
        }
      ],
      "stateMutability": "view",
      "type": "function"
    },
    {
      "inputs": [],
      "name": "symbol",
      "outputs": [
        {
          "internalType": "string",
          "name": "",
          "type": "string"
        }
      ],
      "stateMutability": "view",
      "type": "function"
    },
    {
      "inputs": [],
      "name": "totalSupply",
      "outputs": [
        {
          "internalType": "uint256",
          "name": "",
          "type": "uint256"
        }
      ],
      "stateMutability": "view",
      "type": "function"
    },
    {
      "inputs": [
        {
          "internalType": "address",
          "name": "to",
          "type": "address"
        },
        {
          "internalType": "uint256",
          "name": "amount",
          "type": "uint256"
        }
      ],
      "name": "transfer",
      "outputs": [
        {
          "internalType": "bool",
          "name": "",
          "type": "bool"
        }
      ],
      "stateMutability": "nonpayable",
      "type": "function"
    },
    {
      "inputs": [
        {
          "internalType": "address",
          "name": "from",
          "type": "address"
        },
        {
          "internalType": "address",
          "name": "to",
          "type": "address"
        },
        {
          "internalType": "uint256",
          "name": "amount",
          "type": "uint256"
        }
      ],
      "name": "transferFrom",
      "outputs": [
        {
          "internalType": "bool",
          "name": "",
          "type": "bool"
        }
      ],
      "stateMutability": "nonpayable",
      "type": "function"
    },
    {
      "inputs": [],
      "name": "unpause",
      "outputs": [],
      "stateMutability": "nonpayable",
      "type": "function"
    }
  ],
  "bytecode": "0x60806040523480156200001157600080fd5b50600054610100900460ff166200002f5760005460ff161562000039565b62000039620000de565b620000a15760405162461bcd60e51b815260206004820152602e60248201527f496e697469616c697a61626c653a20636f6e747261637420697320616c72656160448201526d191e481a5b9a5d1a585b1a5e995960921b606482015260840160405180910390fd5b600054610100900460ff16158015620000c4576000805461ffff19166101011790555b8015620000d7576000805461ff00191690555b506200010b565b6000620000f630620000fc60201b620013501760201c565b15905090565b6001600160a01b03163b151590565b612663806200011b6000396000f3fe608060405234801561001057600080fd5b50600436106102275760003560e01c806370a0823111610130578063a5f1e282116100b8578063d53913931161007c578063d5391393146104ba578063d547741f146104cf578063dd62ed3e146104e2578063e63ab1e91461051b578063f44136a11461053057600080fd5b8063a5f1e2821461044e578063a647e8ec1461046e578063a73d633c14610481578063a9059cbb14610494578063b45cc845146104a757600080fd5b806384f6e96b116100ff57806384f6e96b1461041057806391d148541461041857806395d89b411461042b578063a217fddf14610433578063a457c2d71461043b57600080fd5b806370a08231146103a45780637a153043146103cd5780638129fc1c146104005780638456cb591461040857600080fd5b8063313ce567116101b3578063478b7ad511610182578063478b7ad51461032d57806349e8b8631461034057806353f7ce2d146103735780635c975abb1461038657806365982e601461039157600080fd5b8063313ce567146102f057806336568abe146102ff57806339509351146103125780633f4ba83a1461032557600080fd5b8063098480ec116101fa578063098480ec1461028657806318160ddd1461029f57806323b872dd146102a7578063248a9ca3146102ba5780632f2ff15d146102dd57600080fd5b806301ffc9a71461022c57806303a9f06e1461025457806306fdde031461025e578063095ea7b314610273575b600080fd5b61023f61023a366004612018565b610543565b60405190151581526020015b60405180910390f35b61025c61057a565b005b61026661084c565b60405161024b919061206e565b61023f6102813660046120bd565b6108de565b610291630167e98081565b60405190815260200161024b565b603554610291565b61023f6102b53660046120e7565b6108f6565b6102916102c8366004612123565b600090815260c9602052604090206001015490565b61025c6102eb36600461213c565b61091a565b6040516012815260200161024b565b61025c61030d36600461213c565b610945565b61023f6103203660046120bd565b6109bf565b61025c6109fe565b61025c61033b3660046120bd565b610a22565b61035b735b747e23a9e4c509dd06fbd2c0e3cb8b846e398f81565b6040516001600160a01b03909116815260200161024b565b61025c61038136600461223e565b610ad6565b60655460ff1661023f565b61025c61039f36600461230e565b610ba4565b6102916103b2366004612341565b6001600160a01b031660009081526033602052604090205490565b6103e06103db3660046120bd565b610ca0565b60408051948552602085019390935291830152606082015260800161024b565b61025c610ce6565b61025c610e2b565b61025c610e4c565b61023f61042636600461213c565b611056565b610266611081565b610291600081565b61023f6104493660046120bd565b611090565b61029161045c366004612341565b60ff6020526000908152604090205481565b61025c61047c36600461235c565b611122565b61025c61048f366004612395565b6111e2565b61023f6104a23660046120bd565b611210565b61025c6104b5366004612341565b61121e565b61029160008051602061260e83398151915281565b61025c6104dd36600461213c565b611235565b6102916104f0366004612395565b6001600160a01b03918216600090815260346020908152604080832093909416825291909152205490565b6102916000805160206125ee83398151915281565b61029161053e366004612341565b61125b565b60006001600160e01b03198216637965db0b60e01b148061057457506301ffc9a760e01b6001600160e01b03198316145b92915050565b60655460ff16156105a65760405162461bcd60e51b815260040161059d906123bf565b60405180910390fd5b6000805b33600090815260fe60205260409020548110156106915733600090815260fe602052604081208054839081106105e2576105e26123e9565b906000526020600020906004020190506000816003015482600201546106089190612415565b9050600082600101548360020154610620919061242c565b90506000818460000154426106359190612415565b61063f919061244e565b9050600061064d8483612415565b111561067a57808460030160008282546106679190612415565b909155506106779050868061246d565b95505b50505050808061068990612485565b9150506105aa565b508061069a5750565b6106a4338261135f565b6040516370a0823160e01b81523060048201528190735b747e23a9e4c509dd06fbd2c0e3cb8b846e398f906370a082319060240160206040518083038186803b1580156106f057600080fd5b505afa158015610704573d6000803e3d6000fd5b505050506040513d601f19601f8201168201806040525081019061072891906124a0565b11156107cd57735b747e23a9e4c509dd06fbd2c0e3cb8b846e398f63a9059cbb336040516001600160e01b031960e084901b1681526001600160a01b03909116600482015260248101849052604401602060405180830381600087803b15801561079157600080fd5b505af11580156107a5573d6000803e3d6000fd5b505050506040513d601f19601f820116820180604052508101906107c991906124b9565b5050565b735b747e23a9e4c509dd06fbd2c0e3cb8b846e398f6340c10f19336040516001600160e01b031960e084901b1681526001600160a01b03909116600482015260248101849052604401600060405180830381600087803b15801561083057600080fd5b505af1158015610844573d6000803e3d6000fd5b50505050505b565b60606036805461085b906124db565b80601f0160208091040260200160405190810160405280929190818152602001828054610887906124db565b80156108d45780601f106108a9576101008083540402835291602001916108d4565b820191906000526020600020905b8154815290600101906020018083116108b757829003601f168201915b5050505050905090565b6000336108ec8185856114b9565b5060019392505050565b6000336109048582856115dd565b61090f858585611669565b506001949350505050565b600082815260c960205260409020600101546109368133611842565b61094083836118a6565b505050565b6001600160a01b03811633146109b55760405162461bcd60e51b815260206004820152602f60248201527f416363657373436f6e74726f6c3a2063616e206f6e6c792072656e6f756e636560448201526e103937b632b9903337b91039b2b63360891b606482015260840161059d565b6107c9828261192c565b3360008181526034602090815260408083206001600160a01b03871684529091528120549091906108ec90829086906109f990879061246d565b6114b9565b6000805160206125ee833981519152610a178133611842565b610a1f611993565b50565b6000610a2e8133611842565b6001600160a01b038316600090815260fe60205260408120805484908110610a5857610a586123e9565b906000526020600020906004020160030154905060fe6000856001600160a01b03166001600160a01b031681526020019081526020016000208381548110610aa257610aa26123e9565b600091825260208220600490910201818155600181018290556002810182905560030155610ad0848261135f565b50505050565b60008051602061260e833981519152610aef8133611842565b8351855114610b405760405162461bcd60e51b815260206004820152601f60248201527f746f20616e6420616d6f756e7420617272617973206d757374206d6174636800604482015260640161059d565b60005b8551811015610b9c57610b8a868281518110610b6157610b616123e9565b60200260200101518585888581518110610b7d57610b7d6123e9565b6020026020010151611122565b80610b9481612485565b915050610b43565b505050505050565b6000610bb08133611842565b6001600160a01b038416600090815260fe60205260408120805485908110610bda57610bda6123e9565b90600052602060002090600402016003015490508260fe6000876001600160a01b03166001600160a01b031681526020019081526020016000208581548110610c2557610c256123e9565b9060005260206000209060040201600301819055508260fe6000876001600160a01b03166001600160a01b031681526020019081526020016000208581548110610c7157610c716123e9565b9060005260206000209060040201600201819055508281106108445761084485610c9b8584612415565b61135f565b60fe6020528160005260406000208181548110610cbc57600080fd5b60009182526020909120600490910201805460018201546002830154600390930154919450925084565b600054610100900460ff16610d015760005460ff1615610d05565b303b155b610d685760405162461bcd60e51b815260206004820152602e60248201527f496e697469616c697a61626c653a20636f6e747261637420697320616c72656160448201526d191e481a5b9a5d1a585b1a5e995960921b606482015260840161059d565b600054610100900460ff16158015610d8a576000805461ffff19166101011790555b610dcc604051806040016040528060048152602001636345564f60e01b815250604051806040016040528060048152602001636345564f60e01b815250611a26565b610dd4611a57565b610ddc611a86565b610de76000336118a6565b610dff6000805160206125ee833981519152336118a6565b610e1760008051602061260e833981519152336118a6565b8015610a1f576000805461ff001916905550565b6000805160206125ee833981519152610e448133611842565b610a1f611aad565b60008051602061260e833981519152610e658133611842565b6000735b747e23a9e4c509dd06fbd2c0e3cb8b846e398f635a46d3b5336040516001600160e01b031960e084901b1681526001600160a01b03909116600482015260240160206040518083038186803b158015610ec157600080fd5b505afa158015610ed5573d6000803e3d6000fd5b505050506040513d601f19601f82011682018060405250810190610ef991906124a0565b9050735b747e23a9e4c509dd06fbd2c0e3cb8b846e398f63af2b0f66336040516001600160e01b031960e084901b1681526001600160a01b03909116600482015260248101849052604401600060405180830381600087803b158015610f5e57600080fd5b505af1158015610f72573d6000803e3d6000fd5b50505050735b747e23a9e4c509dd06fbd2c0e3cb8b846e398f6001600160a01b03166323b872dd610fa03390565b6040516001600160e01b031960e084901b1681526001600160a01b03909116600482015230602482015260448101849052606401602060405180830381600087803b158015610fee57600080fd5b505af1158015611002573d6000803e3d6000fd5b505050506040513d601f19601f8201168201806040525081019061102691906124b9565b5033600090815260ff60205260408120805483929061104690849061246d565b909155506107c990503382611b05565b600091825260c9602090815260408084206001600160a01b0393909316845291905290205460ff1690565b60606037805461085b906124db565b3360008181526034602090815260408083206001600160a01b0387168452909152812054909190838110156111155760405162461bcd60e51b815260206004820152602560248201527f45524332303a2064656372656173656420616c6c6f77616e63652062656c6f77604482015264207a65726f60d81b606482015260840161059d565b61090f82868684036114b9565b60008051602061260e83398151915261113b8133611842565b600080851161114a574261114c565b845b9050600080851161116157630167e980611163565b845b6001600160a01b038816600090815260fe6020908152604080832081516080810183528781528084018681529281018a8152606082018b81528354600181810186559488529590962091516004909502909101938455915190830155516002820155905160039091015590506111d98785611b05565b50505050505050565b60006111ee8133611842565b6001600160a01b038316600090815260fd60205260409020610ad09083611bf0565b6000336108ec818585611669565b600061122a8133611842565b61094060fb83611bf0565b600082815260c960205260409020600101546112518133611842565b610940838361192c565b600080805b6001600160a01b038416600090815260fe6020526040902054811015611349576001600160a01b038416600090815260fe602052604081208054839081106112aa576112aa6123e9565b906000526020600020906004020190506000816003015482600201546112d09190612415565b90506000826001015483600201546112e8919061242c565b90506000818460000154426112fd9190612415565b611307919061244e565b905060006113158483612415565b1115611332576113258382612415565b61132f908761246d565b95505b50505050808061134190612485565b915050611260565b5092915050565b6001600160a01b03163b151590565b6001600160a01b0382166113bf5760405162461bcd60e51b815260206004820152602160248201527f45524332303a206275726e2066726f6d20746865207a65726f206164647265736044820152607360f81b606482015260840161059d565b6113cb82600083611c0c565b6001600160a01b0382166000908152603360205260409020548181101561143f5760405162461bcd60e51b815260206004820152602260248201527f45524332303a206275726e20616d6f756e7420657863656564732062616c616e604482015261636560f01b606482015260840161059d565b6001600160a01b038316600090815260336020526040812083830390556035805484929061146e908490612415565b90915550506040518281526000906001600160a01b038516907fddf252ad1be2c89b69c2b068fc378daa952ba7f163c4a11628f55a4df523b3ef9060200160405180910390a3505050565b6001600160a01b03831661151b5760405162461bcd60e51b8152602060048201526024808201527f45524332303a20617070726f76652066726f6d20746865207a65726f206164646044820152637265737360e01b606482015260840161059d565b6001600160a01b03821661157c5760405162461bcd60e51b815260206004820152602260248201527f45524332303a20617070726f766520746f20746865207a65726f206164647265604482015261737360f01b606482015260840161059d565b6001600160a01b0383811660008181526034602090815260408083209487168084529482529182902085905590518481527f8c5be1e5ebec7d5bd14f71427d1e84f3dd0314c0f7b2291e5b200ac8c7c3b925910160405180910390a3505050565b6001600160a01b038381166000908152603460209081526040808320938616835292905220546000198114610ad0578181101561165c5760405162461bcd60e51b815260206004820152601d60248201527f45524332303a20696e73756666696369656e7420616c6c6f77616e6365000000604482015260640161059d565b610ad084848484036114b9565b6001600160a01b0383166116cd5760405162461bcd60e51b815260206004820152602560248201527f45524332303a207472616e736665722066726f6d20746865207a65726f206164604482015264647265737360d81b606482015260840161059d565b6001600160a01b03821661172f5760405162461bcd60e51b815260206004820152602360248201527f45524332303a207472616e7366657220746f20746865207a65726f206164647260448201526265737360e81b606482015260840161059d565b61173a838383611c0c565b6001600160a01b038316600090815260336020526040902054818110156117b25760405162461bcd60e51b815260206004820152602660248201527f45524332303a207472616e7366657220616d6f756e7420657863656564732062604482015265616c616e636560d01b606482015260840161059d565b6001600160a01b038085166000908152603360205260408082208585039055918516815290812080548492906117e990849061246d565b92505081905550826001600160a01b0316846001600160a01b03167fddf252ad1be2c89b69c2b068fc378daa952ba7f163c4a11628f55a4df523b3ef8460405161183591815260200190565b60405180910390a3610ad0565b61184c8282611056565b6107c957611864816001600160a01b03166014611d13565b61186f836020611d13565b604051602001611880929190612516565b60408051601f198184030181529082905262461bcd60e51b825261059d9160040161206e565b6118b08282611056565b6107c957600082815260c9602090815260408083206001600160a01b03851684529091529020805460ff191660011790556118e83390565b6001600160a01b0316816001600160a01b0316837f2f8788117e7eff1d82e926ec794901d17c78024a50270940304540a733656f0d60405160405180910390a45050565b6119368282611056565b156107c957600082815260c9602090815260408083206001600160a01b0385168085529252808320805460ff1916905551339285917ff6391f5c32d9c69d2a47ea670b442974b53935d1edc7fd64eb21e047a839171b9190a45050565b60655460ff166119dc5760405162461bcd60e51b815260206004820152601460248201527314185d5cd8589b194e881b9bdd081c185d5cd95960621b604482015260640161059d565b6065805460ff191690557f5db9ee0a495bf2e6ff9c91a7834c1ba4fdd244a5e8aa4e537bd38aeae4b073aa335b6040516001600160a01b03909116815260200160405180910390a1565b600054610100900460ff16611a4d5760405162461bcd60e51b815260040161059d9061258b565b6107c98282611eaf565b600054610100900460ff16611a7e5760405162461bcd60e51b815260040161059d9061258b565b61084a611efd565b600054610100900460ff1661084a5760405162461bcd60e51b815260040161059d9061258b565b60655460ff1615611ad05760405162461bcd60e51b815260040161059d906123bf565b6065805460ff191660011790557f62e78cea01bee320cd4e420270b5ea74000d11b0c9f74754ebdbfc544b05a258611a093390565b6001600160a01b038216611b5b5760405162461bcd60e51b815260206004820152601f60248201527f45524332303a206d696e7420746f20746865207a65726f206164647265737300604482015260640161059d565b611b6760008383611c0c565b8060356000828254611b79919061246d565b90915550506001600160a01b03821660009081526033602052604081208054839290611ba690849061246d565b90915550506040518181526001600160a01b038316906000907fddf252ad1be2c89b69c2b068fc378daa952ba7f163c4a11628f55a4df523b3ef9060200160405180910390a35050565b6000611c05836001600160a01b038416611f30565b9392505050565b60655460ff1615611c2f5760405162461bcd60e51b815260040161059d906123bf565b8282611c5960fb826001600160a01b03811660009081526001830160205260408120541515611c05565b80611c9e57506001600160a01b038216600090815260fd60205260409020611c9e90826001600160a01b03811660009081526001830160205260408120541515611c05565b80611cb057506001600160a01b038216155b80611cc257506001600160a01b038116155b611d0e5760405162461bcd60e51b815260206004820152601860248201527f6345564f206973206e6f6e2d7472616e7366657261626c650000000000000000604482015260640161059d565b610844565b60606000611d2283600261244e565b611d2d90600261246d565b67ffffffffffffffff811115611d4557611d45612168565b6040519080825280601f01601f191660200182016040528015611d6f576020820181803683370190505b509050600360fc1b81600081518110611d8a57611d8a6123e9565b60200101906001600160f81b031916908160001a905350600f60fb1b81600181518110611db957611db96123e9565b60200101906001600160f81b031916908160001a9053506000611ddd84600261244e565b611de890600161246d565b90505b6001811115611e60576f181899199a1a9b1b9c1cb0b131b232b360811b85600f1660108110611e1c57611e1c6123e9565b1a60f81b828281518110611e3257611e326123e9565b60200101906001600160f81b031916908160001a90535060049490941c93611e59816125d6565b9050611deb565b508315611c055760405162461bcd60e51b815260206004820181905260248201527f537472696e67733a20686578206c656e67746820696e73756666696369656e74604482015260640161059d565b600054610100900460ff16611ed65760405162461bcd60e51b815260040161059d9061258b565b8151611ee9906036906020850190611f7f565b508051610940906037906020840190611f7f565b600054610100900460ff16611f245760405162461bcd60e51b815260040161059d9061258b565b6065805460ff19169055565b6000818152600183016020526040812054611f7757508154600181810184556000848152602080822090930184905584548482528286019093526040902091909155610574565b506000610574565b828054611f8b906124db565b90600052602060002090601f016020900481019282611fad5760008555611ff3565b82601f10611fc657805160ff1916838001178555611ff3565b82800160010185558215611ff3579182015b82811115611ff3578251825591602001919060010190611fd8565b50611fff929150612003565b5090565b5b80821115611fff5760008155600101612004565b60006020828403121561202a57600080fd5b81356001600160e01b031981168114611c0557600080fd5b60005b8381101561205d578181015183820152602001612045565b83811115610ad05750506000910152565b602081526000825180602084015261208d816040850160208701612042565b601f01601f19169190910160400192915050565b80356001600160a01b03811681146120b857600080fd5b919050565b600080604083850312156120d057600080fd5b6120d9836120a1565b946020939093013593505050565b6000806000606084860312156120fc57600080fd5b612105846120a1565b9250612113602085016120a1565b9150604084013590509250925092565b60006020828403121561213557600080fd5b5035919050565b6000806040838503121561214f57600080fd5b8235915061215f602084016120a1565b90509250929050565b634e487b7160e01b600052604160045260246000fd5b604051601f8201601f1916810167ffffffffffffffff811182821017156121a7576121a7612168565b604052919050565b600067ffffffffffffffff8211156121c9576121c9612168565b5060051b60200190565b600082601f8301126121e457600080fd5b813560206121f96121f4836121af565b61217e565b82815260059290921b8401810191818101908684111561221857600080fd5b8286015b84811015612233578035835291830191830161221c565b509695505050505050565b6000806000806080858703121561225457600080fd5b843567ffffffffffffffff8082111561226c57600080fd5b818701915087601f83011261228057600080fd5b813560206122906121f4836121af565b82815260059290921b8401810191818101908b8411156122af57600080fd5b948201945b838610156122d4576122c5866120a1565b825294820194908201906122b4565b985050880135925050808211156122ea57600080fd5b506122f7878288016121d3565b949794965050505060408301359260600135919050565b60008060006060848603121561232357600080fd5b61232c846120a1565b95602085013595506040909401359392505050565b60006020828403121561235357600080fd5b611c05826120a1565b6000806000806080858703121561237257600080fd5b61237b856120a1565b966020860135965060408601359560600135945092505050565b600080604083850312156123a857600080fd5b6123b1836120a1565b915061215f602084016120a1565b60208082526010908201526f14185d5cd8589b194e881c185d5cd95960821b604082015260600190565b634e487b7160e01b600052603260045260246000fd5b634e487b7160e01b600052601160045260246000fd5b600082821015612427576124276123ff565b500390565b60008261244957634e487b7160e01b600052601260045260246000fd5b500490565b6000816000190483118215151615612468576124686123ff565b500290565b60008219821115612480576124806123ff565b500190565b6000600019821415612499576124996123ff565b5060010190565b6000602082840312156124b257600080fd5b5051919050565b6000602082840312156124cb57600080fd5b81518015158114611c0557600080fd5b600181811c908216806124ef57607f821691505b6020821081141561251057634e487b7160e01b600052602260045260246000fd5b50919050565b7f416363657373436f6e74726f6c3a206163636f756e742000000000000000000081526000835161254e816017850160208801612042565b7001034b99036b4b9b9b4b733903937b6329607d1b601791840191820152835161257f816028840160208801612042565b01602801949350505050565b6020808252602b908201527f496e697469616c697a61626c653a20636f6e7472616374206973206e6f74206960408201526a6e697469616c697a696e6760a81b606082015260800190565b6000816125e5576125e56123ff565b50600019019056fe65d7a28e3265b37a6474929f336521b332c1681b933f6cb9f3376673440d862a9f2df0fed2c77648de5860a4cc508cd0818c85b8b8a1ab4ceeef8d981c8956a6a264697066735822122042262440e83ea003fc92b172c63b60595d4edaa2c38de8fb37432e6663c7e41a64736f6c63430008090033",
  "linkReferences": {},
  "deployedLinkReferences": {}
}