{
  "_format": "hh-sol-artifact-1",
  "contractName": "cEVO",
  "sourceName": "contracts/ERC20/cEVOUpgradeable.sol",
  "abi": [
    {
      "inputs": [],
      "stateMutability": "nonpayable",
      "type": "constructor"
    },
    {
      "anonymous": false,
      "inputs": [
        {
          "indexed": true,
          "internalType": "address",
          "name": "owner",
          "type": "address"
        },
        {
          "indexed": true,
          "internalType": "address",
          "name": "spender",
          "type": "address"
        },
        {
          "indexed": false,
          "internalType": "uint256",
          "name": "value",
          "type": "uint256"
        }
      ],
      "name": "Approval",
      "type": "event"
    },
    {
      "anonymous": false,
      "inputs": [
        {
          "indexed": true,
          "internalType": "address",
          "name": "from",
          "type": "address"
        },
        {
          "indexed": false,
          "internalType": "uint256",
          "name": "amount",
          "type": "uint256"
        }
      ],
      "name": "ClaimedDisbursement",
      "type": "event"
    },
    {
      "anonymous": false,
      "inputs": [
        {
          "indexed": false,
          "internalType": "uint8",
          "name": "version",
          "type": "uint8"
        }
      ],
      "name": "Initialized",
      "type": "event"
    },
    {
      "anonymous": false,
      "inputs": [
        {
          "indexed": false,
          "internalType": "address",
          "name": "account",
          "type": "address"
        }
      ],
      "name": "Paused",
      "type": "event"
    },
    {
      "anonymous": false,
      "inputs": [
        {
          "indexed": true,
          "internalType": "bytes32",
          "name": "role",
          "type": "bytes32"
        },
        {
          "indexed": true,
          "internalType": "bytes32",
          "name": "previousAdminRole",
          "type": "bytes32"
        },
        {
          "indexed": true,
          "internalType": "bytes32",
          "name": "newAdminRole",
          "type": "bytes32"
        }
      ],
      "name": "RoleAdminChanged",
      "type": "event"
    },
    {
      "anonymous": false,
      "inputs": [
        {
          "indexed": true,
          "internalType": "bytes32",
          "name": "role",
          "type": "bytes32"
        },
        {
          "indexed": true,
          "internalType": "address",
          "name": "account",
          "type": "address"
        },
        {
          "indexed": true,
          "internalType": "address",
          "name": "sender",
          "type": "address"
        }
      ],
      "name": "RoleGranted",
      "type": "event"
    },
    {
      "anonymous": false,
      "inputs": [
        {
          "indexed": true,
          "internalType": "bytes32",
          "name": "role",
          "type": "bytes32"
        },
        {
          "indexed": true,
          "internalType": "address",
          "name": "account",
          "type": "address"
        },
        {
          "indexed": true,
          "internalType": "address",
          "name": "sender",
          "type": "address"
        }
      ],
      "name": "RoleRevoked",
      "type": "event"
    },
    {
      "anonymous": false,
      "inputs": [
        {
          "indexed": true,
          "internalType": "address",
          "name": "from",
          "type": "address"
        },
        {
          "indexed": true,
          "internalType": "address",
          "name": "to",
          "type": "address"
        },
        {
          "indexed": false,
          "internalType": "uint256",
          "name": "value",
          "type": "uint256"
        }
      ],
      "name": "Transfer",
      "type": "event"
    },
    {
      "anonymous": false,
      "inputs": [
        {
          "indexed": false,
          "internalType": "address",
          "name": "account",
          "type": "address"
        }
      ],
      "name": "Unpaused",
      "type": "event"
    },
    {
      "inputs": [],
      "name": "DEFAULT_ADMIN_ROLE",
      "outputs": [
        {
          "internalType": "bytes32",
          "name": "",
          "type": "bytes32"
        }
      ],
      "stateMutability": "view",
      "type": "function"
    },
    {
      "inputs": [],
      "name": "DEFAULT_VESTING_PERIOD",
      "outputs": [
        {
          "internalType": "uint256",
          "name": "",
          "type": "uint256"
        }
      ],
      "stateMutability": "view",
      "type": "function"
    },
    {
      "inputs": [],
      "name": "EVO",
      "outputs": [
        {
          "internalType": "contract IEvoToken",
          "name": "",
          "type": "address"
        }
      ],
      "stateMutability": "view",
      "type": "function"
    },
    {
      "inputs": [],
      "name": "MINTER_ROLE",
      "outputs": [
        {
          "internalType": "bytes32",
          "name": "",
          "type": "bytes32"
        }
      ],
      "stateMutability": "view",
      "type": "function"
    },
    {
      "inputs": [],
      "name": "PAUSER_ROLE",
      "outputs": [
        {
          "internalType": "bytes32",
          "name": "",
          "type": "bytes32"
        }
      ],
      "stateMutability": "view",
      "type": "function"
    },
    {
      "inputs": [
        {
          "internalType": "address",
          "name": "to",
          "type": "address"
        }
      ],
      "name": "addGlobalWhitelist",
      "outputs": [],
      "stateMutability": "nonpayable",
      "type": "function"
    },
    {
      "inputs": [
        {
          "internalType": "address",
          "name": "from",
          "type": "address"
        },
        {
          "internalType": "address",
          "name": "to",
          "type": "address"
        }
      ],
      "name": "addWhitelist",
      "outputs": [],
      "stateMutability": "nonpayable",
      "type": "function"
    },
    {
      "inputs": [
        {
          "internalType": "address",
          "name": "owner",
          "type": "address"
        },
        {
          "internalType": "address",
          "name": "spender",
          "type": "address"
        }
      ],
      "name": "allowance",
      "outputs": [
        {
          "internalType": "uint256",
          "name": "",
          "type": "uint256"
        }
      ],
      "stateMutability": "view",
      "type": "function"
    },
    {
      "inputs": [
        {
          "internalType": "address",
          "name": "spender",
          "type": "address"
        },
        {
          "internalType": "uint256",
          "name": "amount",
          "type": "uint256"
        }
      ],
      "name": "approve",
      "outputs": [
        {
          "internalType": "bool",
          "name": "",
          "type": "bool"
        }
      ],
      "stateMutability": "nonpayable",
      "type": "function"
    },
    {
      "inputs": [
        {
          "internalType": "address",
          "name": "account",
          "type": "address"
        }
      ],
      "name": "balanceOf",
      "outputs": [
        {
          "internalType": "uint256",
          "name": "",
          "type": "uint256"
        }
      ],
      "stateMutability": "view",
      "type": "function"
    },
    {
      "inputs": [
        {
          "internalType": "address[]",
          "name": "to",
          "type": "address[]"
        },
        {
          "internalType": "uint256[]",
          "name": "amount",
          "type": "uint256[]"
        },
        {
          "internalType": "uint256",
          "name": "startTime",
          "type": "uint256"
        },
        {
          "internalType": "uint256",
          "name": "duration",
          "type": "uint256"
        }
      ],
      "name": "batchMint",
      "outputs": [],
      "stateMutability": "nonpayable",
      "type": "function"
    },
    {
      "inputs": [],
      "name": "claimPending",
      "outputs": [],
      "stateMutability": "nonpayable",
      "type": "function"
    },
    {
      "inputs": [],
      "name": "convertLocked",
      "outputs": [],
      "stateMutability": "nonpayable",
      "type": "function"
    },
    {
      "inputs": [],
      "name": "decimals",
      "outputs": [
        {
          "internalType": "uint8",
          "name": "",
          "type": "uint8"
        }
      ],
      "stateMutability": "view",
      "type": "function"
    },
    {
      "inputs": [
        {
          "internalType": "address",
          "name": "spender",
          "type": "address"
        },
        {
          "internalType": "uint256",
          "name": "subtractedValue",
          "type": "uint256"
        }
      ],
      "name": "decreaseAllowance",
      "outputs": [
        {
          "internalType": "bool",
          "name": "",
          "type": "bool"
        }
      ],
      "stateMutability": "nonpayable",
      "type": "function"
    },
    {
      "inputs": [
        {
          "internalType": "address",
          "name": "",
          "type": "address"
        },
        {
          "internalType": "uint256",
          "name": "",
          "type": "uint256"
        }
      ],
      "name": "disbursements",
      "outputs": [
        {
          "internalType": "uint256",
          "name": "startTime",
          "type": "uint256"
        },
        {
          "internalType": "uint256",
          "name": "duration",
          "type": "uint256"
        },
        {
          "internalType": "uint256",
          "name": "amount",
          "type": "uint256"
        },
        {
          "internalType": "uint256",
          "name": "balance",
          "type": "uint256"
        }
      ],
      "stateMutability": "view",
      "type": "function"
    },
    {
      "inputs": [
        {
          "internalType": "address",
          "name": "_address",
          "type": "address"
        }
      ],
      "name": "disbursementsOf",
      "outputs": [
        {
          "components": [
            {
              "internalType": "uint256",
              "name": "startTime",
              "type": "uint256"
            },
            {
              "internalType": "uint256",
              "name": "duration",
              "type": "uint256"
            },
            {
              "internalType": "uint256",
              "name": "amount",
              "type": "uint256"
            },
            {
              "internalType": "uint256",
              "name": "balance",
              "type": "uint256"
            }
          ],
          "internalType": "struct cEVO.Disbursement[]",
          "name": "",
          "type": "tuple[]"
        }
      ],
      "stateMutability": "view",
      "type": "function"
    },
    {
      "inputs": [
        {
          "internalType": "bytes32",
          "name": "role",
          "type": "bytes32"
        }
      ],
      "name": "getRoleAdmin",
      "outputs": [
        {
          "internalType": "bytes32",
          "name": "",
          "type": "bytes32"
        }
      ],
      "stateMutability": "view",
      "type": "function"
    },
    {
      "inputs": [
        {
          "internalType": "bytes32",
          "name": "role",
          "type": "bytes32"
        },
        {
          "internalType": "address",
          "name": "account",
          "type": "address"
        }
      ],
      "name": "grantRole",
      "outputs": [],
      "stateMutability": "nonpayable",
      "type": "function"
    },
    {
      "inputs": [
        {
          "internalType": "bytes32",
          "name": "role",
          "type": "bytes32"
        },
        {
          "internalType": "address",
          "name": "account",
          "type": "address"
        }
      ],
      "name": "hasRole",
      "outputs": [
        {
          "internalType": "bool",
          "name": "",
          "type": "bool"
        }
      ],
      "stateMutability": "view",
      "type": "function"
    },
    {
      "inputs": [
        {
          "internalType": "address",
          "name": "spender",
          "type": "address"
        },
        {
          "internalType": "uint256",
          "name": "addedValue",
          "type": "uint256"
        }
      ],
      "name": "increaseAllowance",
      "outputs": [
        {
          "internalType": "bool",
          "name": "",
          "type": "bool"
        }
      ],
      "stateMutability": "nonpayable",
      "type": "function"
    },
    {
      "inputs": [],
      "name": "initialize",
      "outputs": [],
      "stateMutability": "nonpayable",
      "type": "function"
    },
    {
      "inputs": [
        {
          "internalType": "address",
          "name": "",
          "type": "address"
        }
      ],
      "name": "lockedOf",
      "outputs": [
        {
          "internalType": "uint256",
          "name": "",
          "type": "uint256"
        }
      ],
      "stateMutability": "view",
      "type": "function"
    },
    {
      "inputs": [
        {
          "internalType": "address",
          "name": "to",
          "type": "address"
        },
        {
          "internalType": "uint256",
          "name": "startTime",
          "type": "uint256"
        },
        {
          "internalType": "uint256",
          "name": "duration",
          "type": "uint256"
        },
        {
          "internalType": "uint256",
          "name": "amount",
          "type": "uint256"
        }
      ],
      "name": "mint",
      "outputs": [],
      "stateMutability": "nonpayable",
      "type": "function"
    },
    {
      "inputs": [
        {
          "internalType": "address",
          "name": "_address",
          "type": "address"
        },
        {
          "internalType": "uint256",
          "name": "amount",
          "type": "uint256"
        }
      ],
      "name": "mintLocked",
      "outputs": [],
      "stateMutability": "nonpayable",
      "type": "function"
    },
    {
      "inputs": [],
      "name": "name",
      "outputs": [
        {
          "internalType": "string",
          "name": "",
          "type": "string"
        }
      ],
      "stateMutability": "view",
      "type": "function"
    },
    {
      "inputs": [],
      "name": "pause",
      "outputs": [],
      "stateMutability": "nonpayable",
      "type": "function"
    },
    {
      "inputs": [],
      "name": "paused",
      "outputs": [
        {
          "internalType": "bool",
          "name": "",
          "type": "bool"
        }
      ],
      "stateMutability": "view",
      "type": "function"
    },
    {
      "inputs": [
        {
          "internalType": "address",
          "name": "_address",
          "type": "address"
        }
      ],
      "name": "pendingOf",
      "outputs": [
        {
          "internalType": "uint256",
          "name": "",
          "type": "uint256"
        }
      ],
      "stateMutability": "view",
      "type": "function"
    },
    {
      "inputs": [
        {
          "internalType": "address",
          "name": "_address",
          "type": "address"
        },
        {
          "internalType": "uint256",
          "name": "index",
          "type": "uint256"
        }
      ],
      "name": "removeDisbursement",
      "outputs": [],
      "stateMutability": "nonpayable",
      "type": "function"
    },
    {
      "inputs": [
        {
          "internalType": "bytes32",
          "name": "role",
          "type": "bytes32"
        },
        {
          "internalType": "address",
          "name": "account",
          "type": "address"
        }
      ],
      "name": "renounceRole",
      "outputs": [],
      "stateMutability": "nonpayable",
      "type": "function"
    },
    {
      "inputs": [
        {
          "internalType": "address",
          "name": "_address",
          "type": "address"
        },
        {
          "internalType": "uint256",
          "name": "index",
          "type": "uint256"
        },
        {
          "internalType": "uint256",
          "name": "amount",
          "type": "uint256"
        }
      ],
      "name": "resetDisbursement",
      "outputs": [],
      "stateMutability": "nonpayable",
      "type": "function"
    },
    {
      "inputs": [
        {
          "internalType": "bytes32",
          "name": "role",
          "type": "bytes32"
        },
        {
          "internalType": "address",
          "name": "account",
          "type": "address"
        }
      ],
      "name": "revokeRole",
      "outputs": [],
      "stateMutability": "nonpayable",
      "type": "function"
    },
    {
      "inputs": [
        {
          "internalType": "bytes4",
          "name": "interfaceId",
          "type": "bytes4"
        }
      ],
      "name": "supportsInterface",
      "outputs": [
        {
          "internalType": "bool",
          "name": "",
          "type": "bool"
        }
      ],
      "stateMutability": "view",
      "type": "function"
    },
    {
      "inputs": [],
      "name": "symbol",
      "outputs": [
        {
          "internalType": "string",
          "name": "",
          "type": "string"
        }
      ],
      "stateMutability": "view",
      "type": "function"
    },
    {
      "inputs": [],
      "name": "totalSupply",
      "outputs": [
        {
          "internalType": "uint256",
          "name": "",
          "type": "uint256"
        }
      ],
      "stateMutability": "view",
      "type": "function"
    },
    {
      "inputs": [
        {
          "internalType": "address",
          "name": "to",
          "type": "address"
        },
        {
          "internalType": "uint256",
          "name": "amount",
          "type": "uint256"
        }
      ],
      "name": "transfer",
      "outputs": [
        {
          "internalType": "bool",
          "name": "",
          "type": "bool"
        }
      ],
      "stateMutability": "nonpayable",
      "type": "function"
    },
    {
      "inputs": [
        {
          "internalType": "address",
          "name": "from",
          "type": "address"
        },
        {
          "internalType": "address",
          "name": "to",
          "type": "address"
        },
        {
          "internalType": "uint256",
          "name": "amount",
          "type": "uint256"
        }
      ],
      "name": "transferFrom",
      "outputs": [
        {
          "internalType": "bool",
          "name": "",
          "type": "bool"
        }
      ],
      "stateMutability": "nonpayable",
      "type": "function"
    },
    {
      "inputs": [],
      "name": "unpause",
      "outputs": [],
      "stateMutability": "nonpayable",
      "type": "function"
    }
  ],
  "bytecode": "0x60806040523480156200001157600080fd5b50600062000020600162000087565b9050801562000039576000805461ff0019166101001790555b801562000080576000805461ff0019169055604051600181527f7f26b83ff96e1f2b6a682f133852f6798a09c465da95921460cefb38474024989060200160405180910390a15b50620001a8565b60008054610100900460ff161562000120578160ff166001148015620000c05750620000be306200019960201b620013e71760201c565b155b620001185760405162461bcd60e51b815260206004820152602e6024820152600080516020620029c683398151915260448201526d191e481a5b9a5d1a585b1a5e995960921b60648201526084015b60405180910390fd5b506000919050565b60005460ff8084169116106200017f5760405162461bcd60e51b815260206004820152602e6024820152600080516020620029c683398151915260448201526d191e481a5b9a5d1a585b1a5e995960921b60648201526084016200010f565b506000805460ff191660ff92909216919091179055600190565b6001600160a01b03163b151590565b61280e80620001b86000396000f3fe608060405234801561001057600080fd5b506004361061023d5760003560e01c806365982e601161013b578063a5f1e282116100b8578063d53913931161007c578063d539139314610503578063d547741f14610518578063dd62ed3e1461052b578063e63ab1e91461053e578063f44136a11461055357600080fd5b8063a5f1e28214610497578063a647e8ec146104b7578063a73d633c146104ca578063a9059cbb146104dd578063b45cc845146104f057600080fd5b806384f6e96b116100ff57806384f6e96b1461045957806391d148541461046157806395d89b4114610474578063a217fddf1461047c578063a457c2d71461048457600080fd5b806365982e60146103da57806370a08231146103ed5780637a153043146104165780638129fc1c146104495780638456cb591461045157600080fd5b80632f2ff15d116101c9578063478b7ad51161018d578063478b7ad51461036357806349e8b863146103765780635143e246146103a957806353f7ce2d146103bc5780635c975abb146103cf57600080fd5b80632f2ff15d14610313578063313ce5671461032657806336568abe1461033557806339509351146103485780633f4ba83a1461035b57600080fd5b8063095ea7b311610210578063095ea7b3146102a9578063098480ec146102bc57806318160ddd146102d557806323b872dd146102dd578063248a9ca3146102f057600080fd5b806301ffc9a71461024257806303a9f06e1461026a57806305cea05f1461027457806306fdde0314610294575b600080fd5b610255610250366004612116565b610566565b60405190151581526020015b60405180910390f35b61027261059d565b005b610287610282366004612157565b610878565b6040516102619190612172565b61029c610915565b6040516102619190612202565b6102556102b7366004612235565b6109a7565b6102c7630167e98081565b604051908152602001610261565b6035546102c7565b6102556102eb36600461225f565b6109bf565b6102c76102fe36600461229b565b600090815260c9602052604090206001015490565b6102726103213660046122b4565b6109e3565b60405160128152602001610261565b6102726103433660046122b4565b610a0d565b610255610356366004612235565b610a87565b610272610aa9565b610272610371366004612235565b610acc565b610391735b747e23a9e4c509dd06fbd2c0e3cb8b846e398f81565b6040516001600160a01b039091168152602001610261565b6102726103b7366004612235565b610b7f565b6102726103ca3660046123b6565b610bcf565b60655460ff16610255565b6102726103e8366004612486565b610c9c565b6102c76103fb366004612157565b6001600160a01b031660009081526033602052604090205490565b610429610424366004612235565b610d97565b604080519485526020850193909352918301526060820152608001610261565b610272610ddd565b610272610ed6565b610272610ef6565b61025561046f3660046122b4565b6110e7565b61029c611112565b6102c7600081565b610255610492366004612235565b611121565b6102c76104a5366004612157565b60ff6020526000908152604090205481565b6102726104c53660046124b9565b61119c565b6102726104d83660046124f2565b61125b565b6102556104eb366004612235565b611288565b6102726104fe366004612157565b611296565b6102c76000805160206127b983398151915281565b6102726105263660046122b4565b6112ac565b6102c76105393660046124f2565b6112d1565b6102c760008051602061279983398151915281565b6102c7610561366004612157565b6112fc565b60006001600160e01b03198216637965db0b60e01b148061059757506301ffc9a760e01b6001600160e01b03198316145b92915050565b60655460ff16156105c95760405162461bcd60e51b81526004016105c09061251c565b60405180910390fd5b6000805b33600090815260fe60205260409020548110156106bd5733600090815260fe6020526040812080548390811061060557610605612546565b9060005260206000209060040201905060008160030154826002015461062b9190612572565b90506000826001015483600201546106439190612589565b90506000818460000154426106589190612572565b61066291906125ab565b9050808310156106a6576106768382612572565b8460030160008282546106899190612572565b9091555061069990508382612572565b6106a390876125ca565b95505b5050505080806106b5906125e2565b9150506105cd565b50806106c65750565b6106d033826113f6565b6040516370a0823160e01b81523060048201528190735b747e23a9e4c509dd06fbd2c0e3cb8b846e398f906370a082319060240160206040518083038186803b15801561071c57600080fd5b505afa158015610730573d6000803e3d6000fd5b505050506040513d601f19601f8201168201806040525081019061075491906125fd565b11156107f957735b747e23a9e4c509dd06fbd2c0e3cb8b846e398f63a9059cbb336040516001600160e01b031960e084901b1681526001600160a01b03909116600482015260248101849052604401602060405180830381600087803b1580156107bd57600080fd5b505af11580156107d1573d6000803e3d6000fd5b505050506040513d601f19601f820116820180604052508101906107f59190612616565b5050565b735b747e23a9e4c509dd06fbd2c0e3cb8b846e398f6340c10f19336040516001600160e01b031960e084901b1681526001600160a01b03909116600482015260248101849052604401600060405180830381600087803b15801561085c57600080fd5b505af1158015610870573d6000803e3d6000fd5b50505050505b565b6001600160a01b038116600090815260fe60209081526040808320805482518185028101850190935280835260609492939192909184015b8282101561090a5783829060005260206000209060040201604051806080016040529081600082015481526020016001820154815260200160028201548152602001600382015481525050815260200190600101906108b0565b505050509050919050565b60606036805461092490612638565b80601f016020809104026020016040519081016040528092919081815260200182805461095090612638565b801561099d5780601f106109725761010080835404028352916020019161099d565b820191906000526020600020905b81548152906001019060200180831161098057829003601f168201915b5050505050905090565b6000336109b5818585611550565b5060019392505050565b6000336109cd858285611674565b6109d88585856116e8565b506001949350505050565b600082815260c960205260409020600101546109fe816118c1565b610a0883836118cb565b505050565b6001600160a01b0381163314610a7d5760405162461bcd60e51b815260206004820152602f60248201527f416363657373436f6e74726f6c3a2063616e206f6e6c792072656e6f756e636560448201526e103937b632b9903337b91039b2b63360891b60648201526084016105c0565b6107f58282611951565b6000336109b5818585610a9a83836112d1565b610aa491906125ca565b611550565b600080516020612799833981519152610ac1816118c1565b610ac96119b8565b50565b6000610ad7816118c1565b6001600160a01b038316600090815260fe60205260408120805484908110610b0157610b01612546565b906000526020600020906004020160030154905060fe6000856001600160a01b03166001600160a01b031681526020019081526020016000208381548110610b4b57610b4b612546565b600091825260208220600490910201818155600181018290556002810182905560030155610b7984826113f6565b50505050565b6000805160206127b9833981519152610b97816118c1565b6001600160a01b038316600090815260ff602052604081208054849290610bbf9084906125ca565b90915550610a0890508383611a4b565b6000805160206127b9833981519152610be7816118c1565b8351855114610c385760405162461bcd60e51b815260206004820152601f60248201527f746f20616e6420616d6f756e7420617272617973206d757374206d617463680060448201526064016105c0565b60005b8551811015610c9457610c82868281518110610c5957610c59612546565b60200260200101518585888581518110610c7557610c75612546565b602002602001015161119c565b80610c8c816125e2565b915050610c3b565b505050505050565b6000610ca7816118c1565b6001600160a01b038416600090815260fe60205260408120805485908110610cd157610cd1612546565b90600052602060002090600402016003015490508260fe6000876001600160a01b03166001600160a01b031681526020019081526020016000208581548110610d1c57610d1c612546565b9060005260206000209060040201600301819055508260fe6000876001600160a01b03166001600160a01b031681526020019081526020016000208581548110610d6857610d68612546565b9060005260206000209060040201600201819055508281106108705761087085610d928584612572565b6113f6565b60fe6020528160005260406000208181548110610db357600080fd5b60009182526020909120600490910201805460018201546002830154600390930154919450925084565b6000610de96001611b36565b90508015610e01576000805461ff0019166101001790555b610e43604051806040016040528060048152602001636345564f60e01b815250604051806040016040528060048152602001636345564f60e01b815250611bc3565b610e4b611bf4565b610e53611c23565b610e5e6000336118cb565b610e76600080516020612799833981519152336118cb565b610e8e6000805160206127b9833981519152336118cb565b8015610ac9576000805461ff0019169055604051600181527f7f26b83ff96e1f2b6a682f133852f6798a09c465da95921460cefb38474024989060200160405180910390a150565b600080516020612799833981519152610eee816118c1565b610ac9611c4a565b6000735b747e23a9e4c509dd06fbd2c0e3cb8b846e398f635a46d3b5336040516001600160e01b031960e084901b1681526001600160a01b03909116600482015260240160206040518083038186803b158015610f5257600080fd5b505afa158015610f66573d6000803e3d6000fd5b505050506040513d601f19601f82011682018060405250810190610f8a91906125fd565b9050735b747e23a9e4c509dd06fbd2c0e3cb8b846e398f63af2b0f66336040516001600160e01b031960e084901b1681526001600160a01b03909116600482015260248101849052604401600060405180830381600087803b158015610fef57600080fd5b505af1158015611003573d6000803e3d6000fd5b50505050735b747e23a9e4c509dd06fbd2c0e3cb8b846e398f6001600160a01b03166323b872dd6110313390565b6040516001600160e01b031960e084901b1681526001600160a01b03909116600482015230602482015260448101849052606401602060405180830381600087803b15801561107f57600080fd5b505af1158015611093573d6000803e3d6000fd5b505050506040513d601f19601f820116820180604052508101906110b79190612616565b5033600090815260ff6020526040812080548392906110d79084906125ca565b90915550610ac990503382611a4b565b600091825260c9602090815260408084206001600160a01b0393909316845291905290205460ff1690565b60606037805461092490612638565b6000338161112f82866112d1565b90508381101561118f5760405162461bcd60e51b815260206004820152602560248201527f45524332303a2064656372656173656420616c6c6f77616e63652062656c6f77604482015264207a65726f60d81b60648201526084016105c0565b6109d88286868403611550565b6000805160206127b98339815191526111b4816118c1565b60008085116111c357426111c5565b845b905060008085116111da57630167e9806111dc565b845b6001600160a01b038816600090815260fe6020908152604080832081516080810183528781528084018681529281018a8152606082018b81528354600181810186559488529590962091516004909502909101938455915190830155516002820155905160039091015590506112528785611a4b565b50505050505050565b6000611266816118c1565b6001600160a01b038316600090815260fd60205260409020610b799083611ca2565b6000336109b58185856116e8565b60006112a1816118c1565b610a0860fb83611ca2565b600082815260c960205260409020600101546112c7816118c1565b610a088383611951565b6001600160a01b03918216600090815260346020908152604080832093909416825291909152205490565b600080805b6001600160a01b038416600090815260fe60205260409020548110156113e0576001600160a01b038416600090815260fe6020526040812080548390811061134b5761134b612546565b906000526020600020906004020190506000816003015482600201546113719190612572565b90506000826001015483600201546113899190612589565b905060008184600001544261139e9190612572565b6113a891906125ab565b9050808310156113c9576113bc8382612572565b6113c690876125ca565b95505b5050505080806113d8906125e2565b915050611301565b5092915050565b6001600160a01b03163b151590565b6001600160a01b0382166114565760405162461bcd60e51b815260206004820152602160248201527f45524332303a206275726e2066726f6d20746865207a65726f206164647265736044820152607360f81b60648201526084016105c0565b61146282600083611cbe565b6001600160a01b038216600090815260336020526040902054818110156114d65760405162461bcd60e51b815260206004820152602260248201527f45524332303a206275726e20616d6f756e7420657863656564732062616c616e604482015261636560f01b60648201526084016105c0565b6001600160a01b0383166000908152603360205260408120838303905560358054849290611505908490612572565b90915550506040518281526000906001600160a01b038516907fddf252ad1be2c89b69c2b068fc378daa952ba7f163c4a11628f55a4df523b3ef9060200160405180910390a3505050565b6001600160a01b0383166115b25760405162461bcd60e51b8152602060048201526024808201527f45524332303a20617070726f76652066726f6d20746865207a65726f206164646044820152637265737360e01b60648201526084016105c0565b6001600160a01b0382166116135760405162461bcd60e51b815260206004820152602260248201527f45524332303a20617070726f766520746f20746865207a65726f206164647265604482015261737360f01b60648201526084016105c0565b6001600160a01b0383811660008181526034602090815260408083209487168084529482529182902085905590518481527f8c5be1e5ebec7d5bd14f71427d1e84f3dd0314c0f7b2291e5b200ac8c7c3b925910160405180910390a3505050565b600061168084846112d1565b90506000198114610b7957818110156116db5760405162461bcd60e51b815260206004820152601d60248201527f45524332303a20696e73756666696369656e7420616c6c6f77616e636500000060448201526064016105c0565b610b798484848403611550565b6001600160a01b03831661174c5760405162461bcd60e51b815260206004820152602560248201527f45524332303a207472616e736665722066726f6d20746865207a65726f206164604482015264647265737360d81b60648201526084016105c0565b6001600160a01b0382166117ae5760405162461bcd60e51b815260206004820152602360248201527f45524332303a207472616e7366657220746f20746865207a65726f206164647260448201526265737360e81b60648201526084016105c0565b6117b9838383611cbe565b6001600160a01b038316600090815260336020526040902054818110156118315760405162461bcd60e51b815260206004820152602660248201527f45524332303a207472616e7366657220616d6f756e7420657863656564732062604482015265616c616e636560d01b60648201526084016105c0565b6001600160a01b038085166000908152603360205260408082208585039055918516815290812080548492906118689084906125ca565b92505081905550826001600160a01b0316846001600160a01b03167fddf252ad1be2c89b69c2b068fc378daa952ba7f163c4a11628f55a4df523b3ef846040516118b491815260200190565b60405180910390a3610b79565b610ac98133611d8b565b6118d582826110e7565b6107f557600082815260c9602090815260408083206001600160a01b03851684529091529020805460ff1916600117905561190d3390565b6001600160a01b0316816001600160a01b0316837f2f8788117e7eff1d82e926ec794901d17c78024a50270940304540a733656f0d60405160405180910390a45050565b61195b82826110e7565b156107f557600082815260c9602090815260408083206001600160a01b0385168085529252808320805460ff1916905551339285917ff6391f5c32d9c69d2a47ea670b442974b53935d1edc7fd64eb21e047a839171b9190a45050565b60655460ff16611a015760405162461bcd60e51b815260206004820152601460248201527314185d5cd8589b194e881b9bdd081c185d5cd95960621b60448201526064016105c0565b6065805460ff191690557f5db9ee0a495bf2e6ff9c91a7834c1ba4fdd244a5e8aa4e537bd38aeae4b073aa335b6040516001600160a01b03909116815260200160405180910390a1565b6001600160a01b038216611aa15760405162461bcd60e51b815260206004820152601f60248201527f45524332303a206d696e7420746f20746865207a65726f20616464726573730060448201526064016105c0565b611aad60008383611cbe565b8060356000828254611abf91906125ca565b90915550506001600160a01b03821660009081526033602052604081208054839290611aec9084906125ca565b90915550506040518181526001600160a01b038316906000907fddf252ad1be2c89b69c2b068fc378daa952ba7f163c4a11628f55a4df523b3ef9060200160405180910390a35050565b60008054610100900460ff1615611b7d578160ff166001148015611b595750303b155b611b755760405162461bcd60e51b81526004016105c090612673565b506000919050565b60005460ff808416911610611ba45760405162461bcd60e51b81526004016105c090612673565b506000805460ff191660ff92909216919091179055600190565b919050565b600054610100900460ff16611bea5760405162461bcd60e51b81526004016105c0906126c1565b6107f58282611def565b600054610100900460ff16611c1b5760405162461bcd60e51b81526004016105c0906126c1565b610876611e3d565b600054610100900460ff166108765760405162461bcd60e51b81526004016105c0906126c1565b60655460ff1615611c6d5760405162461bcd60e51b81526004016105c09061251c565b6065805460ff191660011790557f62e78cea01bee320cd4e420270b5ea74000d11b0c9f74754ebdbfc544b05a258611a2e3390565b6000611cb7836001600160a01b038416611e70565b9392505050565b60655460ff1615611ce15760405162461bcd60e51b81526004016105c09061251c565b8282611cee60fb82611ebf565b80611d1657506001600160a01b038216600090815260fd60205260409020611d169082611ebf565b80611d2857506001600160a01b038216155b80611d3a57506001600160a01b038116155b611d865760405162461bcd60e51b815260206004820152601860248201527f6345564f206973206e6f6e2d7472616e7366657261626c65000000000000000060448201526064016105c0565b610870565b611d9582826110e7565b6107f557611dad816001600160a01b03166014611ee1565b611db8836020611ee1565b604051602001611dc992919061270c565b60408051601f198184030181529082905262461bcd60e51b82526105c091600401612202565b600054610100900460ff16611e165760405162461bcd60e51b81526004016105c0906126c1565b8151611e2990603690602085019061207d565b508051610a0890603790602084019061207d565b600054610100900460ff16611e645760405162461bcd60e51b81526004016105c0906126c1565b6065805460ff19169055565b6000818152600183016020526040812054611eb757508154600181810184556000848152602080822090930184905584548482528286019093526040902091909155610597565b506000610597565b6001600160a01b03811660009081526001830160205260408120541515611cb7565b60606000611ef08360026125ab565b611efb9060026125ca565b67ffffffffffffffff811115611f1357611f136122e0565b6040519080825280601f01601f191660200182016040528015611f3d576020820181803683370190505b509050600360fc1b81600081518110611f5857611f58612546565b60200101906001600160f81b031916908160001a905350600f60fb1b81600181518110611f8757611f87612546565b60200101906001600160f81b031916908160001a9053506000611fab8460026125ab565b611fb69060016125ca565b90505b600181111561202e576f181899199a1a9b1b9c1cb0b131b232b360811b85600f1660108110611fea57611fea612546565b1a60f81b82828151811061200057612000612546565b60200101906001600160f81b031916908160001a90535060049490941c9361202781612781565b9050611fb9565b508315611cb75760405162461bcd60e51b815260206004820181905260248201527f537472696e67733a20686578206c656e67746820696e73756666696369656e7460448201526064016105c0565b82805461208990612638565b90600052602060002090601f0160209004810192826120ab57600085556120f1565b82601f106120c457805160ff19168380011785556120f1565b828001600101855582156120f1579182015b828111156120f15782518255916020019190600101906120d6565b506120fd929150612101565b5090565b5b808211156120fd5760008155600101612102565b60006020828403121561212857600080fd5b81356001600160e01b031981168114611cb757600080fd5b80356001600160a01b0381168114611bbe57600080fd5b60006020828403121561216957600080fd5b611cb782612140565b602080825282518282018190526000919060409081850190868401855b828110156121c95781518051855286810151878601528581015186860152606090810151908501526080909301929085019060010161218f565b5091979650505050505050565b60005b838110156121f15781810151838201526020016121d9565b83811115610b795750506000910152565b60208152600082518060208401526122218160408501602087016121d6565b601f01601f19169190910160400192915050565b6000806040838503121561224857600080fd5b61225183612140565b946020939093013593505050565b60008060006060848603121561227457600080fd5b61227d84612140565b925061228b60208501612140565b9150604084013590509250925092565b6000602082840312156122ad57600080fd5b5035919050565b600080604083850312156122c757600080fd5b823591506122d760208401612140565b90509250929050565b634e487b7160e01b600052604160045260246000fd5b604051601f8201601f1916810167ffffffffffffffff8111828210171561231f5761231f6122e0565b604052919050565b600067ffffffffffffffff821115612341576123416122e0565b5060051b60200190565b600082601f83011261235c57600080fd5b8135602061237161236c83612327565b6122f6565b82815260059290921b8401810191818101908684111561239057600080fd5b8286015b848110156123ab5780358352918301918301612394565b509695505050505050565b600080600080608085870312156123cc57600080fd5b843567ffffffffffffffff808211156123e457600080fd5b818701915087601f8301126123f857600080fd5b8135602061240861236c83612327565b82815260059290921b8401810191818101908b84111561242757600080fd5b948201945b8386101561244c5761243d86612140565b8252948201949082019061242c565b9850508801359250508082111561246257600080fd5b5061246f8782880161234b565b949794965050505060408301359260600135919050565b60008060006060848603121561249b57600080fd5b6124a484612140565b95602085013595506040909401359392505050565b600080600080608085870312156124cf57600080fd5b6124d885612140565b966020860135965060408601359560600135945092505050565b6000806040838503121561250557600080fd5b61250e83612140565b91506122d760208401612140565b60208082526010908201526f14185d5cd8589b194e881c185d5cd95960821b604082015260600190565b634e487b7160e01b600052603260045260246000fd5b634e487b7160e01b600052601160045260246000fd5b6000828210156125845761258461255c565b500390565b6000826125a657634e487b7160e01b600052601260045260246000fd5b500490565b60008160001904831182151516156125c5576125c561255c565b500290565b600082198211156125dd576125dd61255c565b500190565b60006000198214156125f6576125f661255c565b5060010190565b60006020828403121561260f57600080fd5b5051919050565b60006020828403121561262857600080fd5b81518015158114611cb757600080fd5b600181811c9082168061264c57607f821691505b6020821081141561266d57634e487b7160e01b600052602260045260246000fd5b50919050565b6020808252602e908201527f496e697469616c697a61626c653a20636f6e747261637420697320616c72656160408201526d191e481a5b9a5d1a585b1a5e995960921b606082015260800190565b6020808252602b908201527f496e697469616c697a61626c653a20636f6e7472616374206973206e6f74206960408201526a6e697469616c697a696e6760a81b606082015260800190565b7f416363657373436f6e74726f6c3a206163636f756e74200000000000000000008152600083516127448160178501602088016121d6565b7001034b99036b4b9b9b4b733903937b6329607d1b60179184019182015283516127758160288401602088016121d6565b01602801949350505050565b6000816127905761279061255c565b50600019019056fe65d7a28e3265b37a6474929f336521b332c1681b933f6cb9f3376673440d862a9f2df0fed2c77648de5860a4cc508cd0818c85b8b8a1ab4ceeef8d981c8956a6a26469706673582212203d13ba71e1194b1c54802c53f79a8bc510a8d06d4176954286dbdad6b7b7f18764736f6c63430008090033496e697469616c697a61626c653a20636f6e747261637420697320616c726561",
  "linkReferences": {},
  "deployedLinkReferences": {}
}