{
  "_format": "hh-sol-artifact-1",
  "contractName": "cEVO",
  "sourceName": "contracts/ERC20/cEVOUpgradeable.sol",
  "abi": [
    {
      "inputs": [],
      "stateMutability": "nonpayable",
      "type": "constructor"
    },
    {
      "anonymous": false,
      "inputs": [
        {
          "indexed": true,
          "internalType": "address",
          "name": "owner",
          "type": "address"
        },
        {
          "indexed": true,
          "internalType": "address",
          "name": "spender",
          "type": "address"
        },
        {
          "indexed": false,
          "internalType": "uint256",
          "name": "value",
          "type": "uint256"
        }
      ],
      "name": "Approval",
      "type": "event"
    },
    {
      "anonymous": false,
      "inputs": [
        {
          "indexed": false,
          "internalType": "address",
          "name": "account",
          "type": "address"
        }
      ],
      "name": "Paused",
      "type": "event"
    },
    {
      "anonymous": false,
      "inputs": [
        {
          "indexed": true,
          "internalType": "bytes32",
          "name": "role",
          "type": "bytes32"
        },
        {
          "indexed": true,
          "internalType": "bytes32",
          "name": "previousAdminRole",
          "type": "bytes32"
        },
        {
          "indexed": true,
          "internalType": "bytes32",
          "name": "newAdminRole",
          "type": "bytes32"
        }
      ],
      "name": "RoleAdminChanged",
      "type": "event"
    },
    {
      "anonymous": false,
      "inputs": [
        {
          "indexed": true,
          "internalType": "bytes32",
          "name": "role",
          "type": "bytes32"
        },
        {
          "indexed": true,
          "internalType": "address",
          "name": "account",
          "type": "address"
        },
        {
          "indexed": true,
          "internalType": "address",
          "name": "sender",
          "type": "address"
        }
      ],
      "name": "RoleGranted",
      "type": "event"
    },
    {
      "anonymous": false,
      "inputs": [
        {
          "indexed": true,
          "internalType": "bytes32",
          "name": "role",
          "type": "bytes32"
        },
        {
          "indexed": true,
          "internalType": "address",
          "name": "account",
          "type": "address"
        },
        {
          "indexed": true,
          "internalType": "address",
          "name": "sender",
          "type": "address"
        }
      ],
      "name": "RoleRevoked",
      "type": "event"
    },
    {
      "anonymous": false,
      "inputs": [
        {
          "indexed": true,
          "internalType": "address",
          "name": "from",
          "type": "address"
        },
        {
          "indexed": true,
          "internalType": "address",
          "name": "to",
          "type": "address"
        },
        {
          "indexed": false,
          "internalType": "uint256",
          "name": "value",
          "type": "uint256"
        }
      ],
      "name": "Transfer",
      "type": "event"
    },
    {
      "anonymous": false,
      "inputs": [
        {
          "indexed": false,
          "internalType": "address",
          "name": "account",
          "type": "address"
        }
      ],
      "name": "Unpaused",
      "type": "event"
    },
    {
      "inputs": [],
      "name": "DEFAULT_ADMIN_ROLE",
      "outputs": [
        {
          "internalType": "bytes32",
          "name": "",
          "type": "bytes32"
        }
      ],
      "stateMutability": "view",
      "type": "function"
    },
    {
      "inputs": [],
      "name": "DEFAULT_VESTING_PERIOD",
      "outputs": [
        {
          "internalType": "uint256",
          "name": "",
          "type": "uint256"
        }
      ],
      "stateMutability": "view",
      "type": "function"
    },
    {
      "inputs": [],
      "name": "EVO",
      "outputs": [
        {
          "internalType": "contract IEvoToken",
          "name": "",
          "type": "address"
        }
      ],
      "stateMutability": "view",
      "type": "function"
    },
    {
      "inputs": [],
      "name": "MINTER_ROLE",
      "outputs": [
        {
          "internalType": "bytes32",
          "name": "",
          "type": "bytes32"
        }
      ],
      "stateMutability": "view",
      "type": "function"
    },
    {
      "inputs": [],
      "name": "PAUSER_ROLE",
      "outputs": [
        {
          "internalType": "bytes32",
          "name": "",
          "type": "bytes32"
        }
      ],
      "stateMutability": "view",
      "type": "function"
    },
    {
      "inputs": [
        {
          "internalType": "address",
          "name": "owner",
          "type": "address"
        },
        {
          "internalType": "address",
          "name": "spender",
          "type": "address"
        }
      ],
      "name": "allowance",
      "outputs": [
        {
          "internalType": "uint256",
          "name": "",
          "type": "uint256"
        }
      ],
      "stateMutability": "view",
      "type": "function"
    },
    {
      "inputs": [
        {
          "internalType": "address",
          "name": "spender",
          "type": "address"
        },
        {
          "internalType": "uint256",
          "name": "amount",
          "type": "uint256"
        }
      ],
      "name": "approve",
      "outputs": [
        {
          "internalType": "bool",
          "name": "",
          "type": "bool"
        }
      ],
      "stateMutability": "nonpayable",
      "type": "function"
    },
    {
      "inputs": [
        {
          "internalType": "address",
          "name": "account",
          "type": "address"
        }
      ],
      "name": "balanceOf",
      "outputs": [
        {
          "internalType": "uint256",
          "name": "",
          "type": "uint256"
        }
      ],
      "stateMutability": "view",
      "type": "function"
    },
    {
      "inputs": [
        {
          "internalType": "address[]",
          "name": "to",
          "type": "address[]"
        },
        {
          "internalType": "uint256[]",
          "name": "amount",
          "type": "uint256[]"
        }
      ],
      "name": "batchMint",
      "outputs": [],
      "stateMutability": "nonpayable",
      "type": "function"
    },
    {
      "inputs": [],
      "name": "claimPending",
      "outputs": [],
      "stateMutability": "nonpayable",
      "type": "function"
    },
    {
      "inputs": [],
      "name": "decimals",
      "outputs": [
        {
          "internalType": "uint8",
          "name": "",
          "type": "uint8"
        }
      ],
      "stateMutability": "view",
      "type": "function"
    },
    {
      "inputs": [
        {
          "internalType": "address",
          "name": "spender",
          "type": "address"
        },
        {
          "internalType": "uint256",
          "name": "subtractedValue",
          "type": "uint256"
        }
      ],
      "name": "decreaseAllowance",
      "outputs": [
        {
          "internalType": "bool",
          "name": "",
          "type": "bool"
        }
      ],
      "stateMutability": "nonpayable",
      "type": "function"
    },
    {
      "inputs": [
        {
          "internalType": "address",
          "name": "",
          "type": "address"
        },
        {
          "internalType": "uint256",
          "name": "",
          "type": "uint256"
        }
      ],
      "name": "disbursements",
      "outputs": [
        {
          "internalType": "uint256",
          "name": "startTime",
          "type": "uint256"
        },
        {
          "internalType": "uint256",
          "name": "duration",
          "type": "uint256"
        },
        {
          "internalType": "uint256",
          "name": "amount",
          "type": "uint256"
        },
        {
          "internalType": "uint256",
          "name": "balance",
          "type": "uint256"
        }
      ],
      "stateMutability": "view",
      "type": "function"
    },
    {
      "inputs": [
        {
          "internalType": "bytes32",
          "name": "role",
          "type": "bytes32"
        }
      ],
      "name": "getRoleAdmin",
      "outputs": [
        {
          "internalType": "bytes32",
          "name": "",
          "type": "bytes32"
        }
      ],
      "stateMutability": "view",
      "type": "function"
    },
    {
      "inputs": [
        {
          "internalType": "bytes32",
          "name": "role",
          "type": "bytes32"
        },
        {
          "internalType": "address",
          "name": "account",
          "type": "address"
        }
      ],
      "name": "grantRole",
      "outputs": [],
      "stateMutability": "nonpayable",
      "type": "function"
    },
    {
      "inputs": [
        {
          "internalType": "bytes32",
          "name": "role",
          "type": "bytes32"
        },
        {
          "internalType": "address",
          "name": "account",
          "type": "address"
        }
      ],
      "name": "hasRole",
      "outputs": [
        {
          "internalType": "bool",
          "name": "",
          "type": "bool"
        }
      ],
      "stateMutability": "view",
      "type": "function"
    },
    {
      "inputs": [
        {
          "internalType": "address",
          "name": "spender",
          "type": "address"
        },
        {
          "internalType": "uint256",
          "name": "addedValue",
          "type": "uint256"
        }
      ],
      "name": "increaseAllowance",
      "outputs": [
        {
          "internalType": "bool",
          "name": "",
          "type": "bool"
        }
      ],
      "stateMutability": "nonpayable",
      "type": "function"
    },
    {
      "inputs": [],
      "name": "initialize",
      "outputs": [],
      "stateMutability": "nonpayable",
      "type": "function"
    },
    {
      "inputs": [
        {
          "internalType": "address",
          "name": "to",
          "type": "address"
        },
        {
          "internalType": "uint256",
          "name": "startTime",
          "type": "uint256"
        },
        {
          "internalType": "uint256",
          "name": "duration",
          "type": "uint256"
        },
        {
          "internalType": "uint256",
          "name": "amount",
          "type": "uint256"
        }
      ],
      "name": "mint",
      "outputs": [],
      "stateMutability": "nonpayable",
      "type": "function"
    },
    {
      "inputs": [],
      "name": "name",
      "outputs": [
        {
          "internalType": "string",
          "name": "",
          "type": "string"
        }
      ],
      "stateMutability": "view",
      "type": "function"
    },
    {
      "inputs": [],
      "name": "pause",
      "outputs": [],
      "stateMutability": "nonpayable",
      "type": "function"
    },
    {
      "inputs": [],
      "name": "paused",
      "outputs": [
        {
          "internalType": "bool",
          "name": "",
          "type": "bool"
        }
      ],
      "stateMutability": "view",
      "type": "function"
    },
    {
      "inputs": [
        {
          "internalType": "bytes32",
          "name": "role",
          "type": "bytes32"
        },
        {
          "internalType": "address",
          "name": "account",
          "type": "address"
        }
      ],
      "name": "renounceRole",
      "outputs": [],
      "stateMutability": "nonpayable",
      "type": "function"
    },
    {
      "inputs": [
        {
          "internalType": "bytes32",
          "name": "role",
          "type": "bytes32"
        },
        {
          "internalType": "address",
          "name": "account",
          "type": "address"
        }
      ],
      "name": "revokeRole",
      "outputs": [],
      "stateMutability": "nonpayable",
      "type": "function"
    },
    {
      "inputs": [
        {
          "internalType": "bytes4",
          "name": "interfaceId",
          "type": "bytes4"
        }
      ],
      "name": "supportsInterface",
      "outputs": [
        {
          "internalType": "bool",
          "name": "",
          "type": "bool"
        }
      ],
      "stateMutability": "view",
      "type": "function"
    },
    {
      "inputs": [],
      "name": "symbol",
      "outputs": [
        {
          "internalType": "string",
          "name": "",
          "type": "string"
        }
      ],
      "stateMutability": "view",
      "type": "function"
    },
    {
      "inputs": [],
      "name": "totalSupply",
      "outputs": [
        {
          "internalType": "uint256",
          "name": "",
          "type": "uint256"
        }
      ],
      "stateMutability": "view",
      "type": "function"
    },
    {
      "inputs": [
        {
          "internalType": "address",
          "name": "to",
          "type": "address"
        },
        {
          "internalType": "uint256",
          "name": "amount",
          "type": "uint256"
        }
      ],
      "name": "transfer",
      "outputs": [
        {
          "internalType": "bool",
          "name": "",
          "type": "bool"
        }
      ],
      "stateMutability": "nonpayable",
      "type": "function"
    },
    {
      "inputs": [
        {
          "internalType": "address",
          "name": "from",
          "type": "address"
        },
        {
          "internalType": "address",
          "name": "to",
          "type": "address"
        },
        {
          "internalType": "uint256",
          "name": "amount",
          "type": "uint256"
        }
      ],
      "name": "transferFrom",
      "outputs": [
        {
          "internalType": "bool",
          "name": "",
          "type": "bool"
        }
      ],
      "stateMutability": "nonpayable",
      "type": "function"
    },
    {
      "inputs": [],
      "name": "unpause",
      "outputs": [],
      "stateMutability": "nonpayable",
      "type": "function"
    }
  ],
  "bytecode": "0x60806040523480156200001157600080fd5b50600054610100900460ff166200002f5760005460ff161562000039565b62000039620000de565b620000a15760405162461bcd60e51b815260206004820152602e60248201527f496e697469616c697a61626c653a20636f6e747261637420697320616c72656160448201526d191e481a5b9a5d1a585b1a5e995960921b606482015260840160405180910390fd5b600054610100900460ff16158015620000c4576000805461ffff19166101011790555b8015620000d7576000805461ff00191690555b506200010b565b6000620000f630620000fc60201b62000d4a1760201c565b15905090565b6001600160a01b03163b151590565b611e20806200011b6000396000f3fe608060405234801561001057600080fd5b50600436106101da5760003560e01c80636857310711610104578063a217fddf116100a2578063d539139311610071578063d5391393146103f9578063d547741f1461040e578063dd62ed3e14610421578063e63ab1e91461045a57600080fd5b8063a217fddf146103b8578063a457c2d7146103c0578063a647e8ec146103d3578063a9059cbb146103e657600080fd5b80638129fc1c116100de5780638129fc1c1461038d5780638456cb591461039557806391d148541461039d57806395d89b41146103b057600080fd5b8063685731071461031e57806370a08231146103315780637a1530431461035a57600080fd5b8063248a9ca31161017c578063395093511161014b57806339509351146102c55780633f4ba83a146102d857806349e8b863146102e05780635c975abb1461031357600080fd5b8063248a9ca31461026d5780632f2ff15d14610290578063313ce567146102a357806336568abe146102b257600080fd5b8063095ea7b3116101b8578063095ea7b314610226578063098480ec1461023957806318160ddd1461025257806323b872dd1461025a57600080fd5b806301ffc9a7146101df57806303a9f06e1461020757806306fdde0314610211575b600080fd5b6101f26101ed366004611818565b61046f565b60405190151581526020015b60405180910390f35b61020f6104a6565b005b610219610738565b6040516101fe919061186e565b6101f26102343660046118bd565b6107ca565b610244630167e98081565b6040519081526020016101fe565b603554610244565b6101f26102683660046118e7565b6107e2565b61024461027b366004611923565b600090815260c9602052604090206001015490565b61020f61029e36600461193c565b610806565b604051601281526020016101fe565b61020f6102c036600461193c565b610831565b6101f26102d33660046118bd565b6108ab565b61020f6108ea565b6102fb735b747e23a9e4c509dd06fbd2c0e3cb8b846e398f81565b6040516001600160a01b0390911681526020016101fe565b60655460ff166101f2565b61020f61032c366004611a3e565b61090e565b61024461033f366004611afe565b6001600160a01b031660009081526033602052604090205490565b61036d6103683660046118bd565b6109de565b6040805194855260208501939093529183015260608201526080016101fe565b61020f610a24565b61020f610b69565b6101f26103ab36600461193c565b610b8a565b610219610bb5565b610244600081565b6101f26103ce3660046118bd565b610bc4565b61020f6103e1366004611b19565b610c56565b6101f26103f43660046118bd565b610d16565b610244600080516020611dcb83398151915281565b61020f61041c36600461193c565b610d24565b61024461042f366004611b52565b6001600160a01b03918216600090815260346020908152604080832093909416825291909152205490565b610244600080516020611dab83398151915281565b60006001600160e01b03198216637965db0b60e01b14806104a057506301ffc9a760e01b6001600160e01b03198316145b92915050565b60655460ff16156104d25760405162461bcd60e51b81526004016104c990611b7c565b60405180910390fd5b6000805b33600090815260fe602052604090205481101561058f5733600090815260fe6020526040812080548390811061050e5761050e611ba6565b906000526020600020906004020190506000816003015482600201546105349190611bd2565b826001015483600201546105489190611be9565b6105529190611bd2565b9050808260030160008282546105689190611bd2565b9091555061057890508185611c0b565b93505050808061058790611c23565b9150506104d6565b506040516370a0823160e01b81523060048201528190735b747e23a9e4c509dd06fbd2c0e3cb8b846e398f906370a082319060240160206040518083038186803b1580156105dc57600080fd5b505afa1580156105f0573d6000803e3d6000fd5b505050506040513d601f19601f820116820180604052508101906106149190611c3e565b11156106b957735b747e23a9e4c509dd06fbd2c0e3cb8b846e398f63a9059cbb336040516001600160e01b031960e084901b1681526001600160a01b03909116600482015260248101849052604401602060405180830381600087803b15801561067d57600080fd5b505af1158015610691573d6000803e3d6000fd5b505050506040513d601f19601f820116820180604052508101906106b59190611c57565b5050565b735b747e23a9e4c509dd06fbd2c0e3cb8b846e398f6340c10f19336040516001600160e01b031960e084901b1681526001600160a01b03909116600482015260248101849052604401600060405180830381600087803b15801561071c57600080fd5b505af1158015610730573d6000803e3d6000fd5b50505050505b565b60606036805461074790611c79565b80601f016020809104026020016040519081016040528092919081815260200182805461077390611c79565b80156107c05780601f10610795576101008083540402835291602001916107c0565b820191906000526020600020905b8154815290600101906020018083116107a357829003601f168201915b5050505050905090565b6000336107d8818585610d59565b5060019392505050565b6000336107f0858285610e7d565b6107fb858585610f09565b506001949350505050565b600082815260c9602052604090206001015461082281336110e2565b61082c8383611146565b505050565b6001600160a01b03811633146108a15760405162461bcd60e51b815260206004820152602f60248201527f416363657373436f6e74726f6c3a2063616e206f6e6c792072656e6f756e636560448201526e103937b632b9903337b91039b2b63360891b60648201526084016104c9565b6106b582826111cc565b3360008181526034602090815260408083206001600160a01b03871684529091528120549091906107d890829086906108e5908790611c0b565b610d59565b600080516020611dab83398151915261090381336110e2565b61090b611233565b50565b600080516020611dcb83398151915261092781336110e2565b81518351146109785760405162461bcd60e51b815260206004820152601f60248201527f746f20616e6420616d6f756e7420617272617973206d757374206d617463680060448201526064016104c9565b60005b83518110156109d8576109c684828151811061099957610999611ba6565b602002602001015142630167e9808685815181106109b9576109b9611ba6565b6020026020010151610c56565b806109d081611c23565b91505061097b565b50505050565b60fe60205281600052604060002081815481106109fa57600080fd5b60009182526020909120600490910201805460018201546002830154600390930154919450925084565b600054610100900460ff16610a3f5760005460ff1615610a43565b303b155b610aa65760405162461bcd60e51b815260206004820152602e60248201527f496e697469616c697a61626c653a20636f6e747261637420697320616c72656160448201526d191e481a5b9a5d1a585b1a5e995960921b60648201526084016104c9565b600054610100900460ff16158015610ac8576000805461ffff19166101011790555b610b0a604051806040016040528060048152602001636345564f60e01b815250604051806040016040528060048152602001636345564f60e01b8152506112c6565b610b126112f7565b610b1a611326565b610b25600033611146565b610b3d600080516020611dab83398151915233611146565b610b55600080516020611dcb83398151915233611146565b801561090b576000805461ff001916905550565b600080516020611dab833981519152610b8281336110e2565b61090b61134d565b600091825260c9602090815260408084206001600160a01b0393909316845291905290205460ff1690565b60606037805461074790611c79565b3360008181526034602090815260408083206001600160a01b038716845290915281205490919083811015610c495760405162461bcd60e51b815260206004820152602560248201527f45524332303a2064656372656173656420616c6c6f77616e63652062656c6f77604482015264207a65726f60d81b60648201526084016104c9565b6107fb8286868403610d59565b600080516020611dcb833981519152610c6f81336110e2565b6000808511610c7e5742610c80565b845b90506000808511610c9557630167e980610c97565b845b6001600160a01b038816600090815260fe6020908152604080832081516080810183528781528084018681529281018a8152606082018b8152835460018181018655948852959096209151600490950290910193845591519083015551600282015590516003909101559050610d0d87856113a5565b50505050505050565b6000336107d8818585610f09565b600082815260c96020526040902060010154610d4081336110e2565b61082c83836111cc565b6001600160a01b03163b151590565b6001600160a01b038316610dbb5760405162461bcd60e51b8152602060048201526024808201527f45524332303a20617070726f76652066726f6d20746865207a65726f206164646044820152637265737360e01b60648201526084016104c9565b6001600160a01b038216610e1c5760405162461bcd60e51b815260206004820152602260248201527f45524332303a20617070726f766520746f20746865207a65726f206164647265604482015261737360f01b60648201526084016104c9565b6001600160a01b0383811660008181526034602090815260408083209487168084529482529182902085905590518481527f8c5be1e5ebec7d5bd14f71427d1e84f3dd0314c0f7b2291e5b200ac8c7c3b925910160405180910390a3505050565b6001600160a01b0383811660009081526034602090815260408083209386168352929052205460001981146109d85781811015610efc5760405162461bcd60e51b815260206004820152601d60248201527f45524332303a20696e73756666696369656e7420616c6c6f77616e636500000060448201526064016104c9565b6109d88484848403610d59565b6001600160a01b038316610f6d5760405162461bcd60e51b815260206004820152602560248201527f45524332303a207472616e736665722066726f6d20746865207a65726f206164604482015264647265737360d81b60648201526084016104c9565b6001600160a01b038216610fcf5760405162461bcd60e51b815260206004820152602360248201527f45524332303a207472616e7366657220746f20746865207a65726f206164647260448201526265737360e81b60648201526084016104c9565b610fda838383611490565b6001600160a01b038316600090815260336020526040902054818110156110525760405162461bcd60e51b815260206004820152602660248201527f45524332303a207472616e7366657220616d6f756e7420657863656564732062604482015265616c616e636560d01b60648201526084016104c9565b6001600160a01b03808516600090815260336020526040808220858503905591851681529081208054849290611089908490611c0b565b92505081905550826001600160a01b0316846001600160a01b03167fddf252ad1be2c89b69c2b068fc378daa952ba7f163c4a11628f55a4df523b3ef846040516110d591815260200190565b60405180910390a36109d8565b6110ec8282610b8a565b6106b557611104816001600160a01b03166014611539565b61110f836020611539565b604051602001611120929190611cb4565b60408051601f198184030181529082905262461bcd60e51b82526104c99160040161186e565b6111508282610b8a565b6106b557600082815260c9602090815260408083206001600160a01b03851684529091529020805460ff191660011790556111883390565b6001600160a01b0316816001600160a01b0316837f2f8788117e7eff1d82e926ec794901d17c78024a50270940304540a733656f0d60405160405180910390a45050565b6111d68282610b8a565b156106b557600082815260c9602090815260408083206001600160a01b0385168085529252808320805460ff1916905551339285917ff6391f5c32d9c69d2a47ea670b442974b53935d1edc7fd64eb21e047a839171b9190a45050565b60655460ff1661127c5760405162461bcd60e51b815260206004820152601460248201527314185d5cd8589b194e881b9bdd081c185d5cd95960621b60448201526064016104c9565b6065805460ff191690557f5db9ee0a495bf2e6ff9c91a7834c1ba4fdd244a5e8aa4e537bd38aeae4b073aa335b6040516001600160a01b03909116815260200160405180910390a1565b600054610100900460ff166112ed5760405162461bcd60e51b81526004016104c990611d29565b6106b582826116dc565b600054610100900460ff1661131e5760405162461bcd60e51b81526004016104c990611d29565b61073661172a565b600054610100900460ff166107365760405162461bcd60e51b81526004016104c990611d29565b60655460ff16156113705760405162461bcd60e51b81526004016104c990611b7c565b6065805460ff191660011790557f62e78cea01bee320cd4e420270b5ea74000d11b0c9f74754ebdbfc544b05a2586112a93390565b6001600160a01b0382166113fb5760405162461bcd60e51b815260206004820152601f60248201527f45524332303a206d696e7420746f20746865207a65726f20616464726573730060448201526064016104c9565b61140760008383611490565b80603560008282546114199190611c0b565b90915550506001600160a01b03821660009081526033602052604081208054839290611446908490611c0b565b90915550506040518181526001600160a01b038316906000907fddf252ad1be2c89b69c2b068fc378daa952ba7f163c4a11628f55a4df523b3ef9060200160405180910390a35050565b60655460ff16156114b35760405162461bcd60e51b81526004016104c990611b7c565b82826114c060fb8261175d565b806114e857506001600160a01b038216600090815260fd602052604090206114e8908261175d565b6115345760405162461bcd60e51b815260206004820152601860248201527f6345564f206973206e6f6e2d7472616e7366657261626c65000000000000000060448201526064016104c9565b610730565b60606000611548836002611d74565b611553906002611c0b565b67ffffffffffffffff81111561156b5761156b611968565b6040519080825280601f01601f191660200182016040528015611595576020820181803683370190505b509050600360fc1b816000815181106115b0576115b0611ba6565b60200101906001600160f81b031916908160001a905350600f60fb1b816001815181106115df576115df611ba6565b60200101906001600160f81b031916908160001a9053506000611603846002611d74565b61160e906001611c0b565b90505b6001811115611686576f181899199a1a9b1b9c1cb0b131b232b360811b85600f166010811061164257611642611ba6565b1a60f81b82828151811061165857611658611ba6565b60200101906001600160f81b031916908160001a90535060049490941c9361167f81611d93565b9050611611565b5083156116d55760405162461bcd60e51b815260206004820181905260248201527f537472696e67733a20686578206c656e67746820696e73756666696369656e7460448201526064016104c9565b9392505050565b600054610100900460ff166117035760405162461bcd60e51b81526004016104c990611d29565b815161171690603690602085019061177f565b50805161082c90603790602084019061177f565b600054610100900460ff166117515760405162461bcd60e51b81526004016104c990611d29565b6065805460ff19169055565b6001600160a01b038116600090815260018301602052604081205415156116d5565b82805461178b90611c79565b90600052602060002090601f0160209004810192826117ad57600085556117f3565b82601f106117c657805160ff19168380011785556117f3565b828001600101855582156117f3579182015b828111156117f35782518255916020019190600101906117d8565b506117ff929150611803565b5090565b5b808211156117ff5760008155600101611804565b60006020828403121561182a57600080fd5b81356001600160e01b0319811681146116d557600080fd5b60005b8381101561185d578181015183820152602001611845565b838111156109d85750506000910152565b602081526000825180602084015261188d816040850160208701611842565b601f01601f19169190910160400192915050565b80356001600160a01b03811681146118b857600080fd5b919050565b600080604083850312156118d057600080fd5b6118d9836118a1565b946020939093013593505050565b6000806000606084860312156118fc57600080fd5b611905846118a1565b9250611913602085016118a1565b9150604084013590509250925092565b60006020828403121561193557600080fd5b5035919050565b6000806040838503121561194f57600080fd5b8235915061195f602084016118a1565b90509250929050565b634e487b7160e01b600052604160045260246000fd5b604051601f8201601f1916810167ffffffffffffffff811182821017156119a7576119a7611968565b604052919050565b600067ffffffffffffffff8211156119c9576119c9611968565b5060051b60200190565b600082601f8301126119e457600080fd5b813560206119f96119f4836119af565b61197e565b82815260059290921b84018101918181019086841115611a1857600080fd5b8286015b84811015611a335780358352918301918301611a1c565b509695505050505050565b60008060408385031215611a5157600080fd5b823567ffffffffffffffff80821115611a6957600080fd5b818501915085601f830112611a7d57600080fd5b81356020611a8d6119f4836119af565b82815260059290921b84018101918181019089841115611aac57600080fd5b948201945b83861015611ad157611ac2866118a1565b82529482019490820190611ab1565b96505086013592505080821115611ae757600080fd5b50611af4858286016119d3565b9150509250929050565b600060208284031215611b1057600080fd5b6116d5826118a1565b60008060008060808587031215611b2f57600080fd5b611b38856118a1565b966020860135965060408601359560600135945092505050565b60008060408385031215611b6557600080fd5b611b6e836118a1565b915061195f602084016118a1565b60208082526010908201526f14185d5cd8589b194e881c185d5cd95960821b604082015260600190565b634e487b7160e01b600052603260045260246000fd5b634e487b7160e01b600052601160045260246000fd5b600082821015611be457611be4611bbc565b500390565b600082611c0657634e487b7160e01b600052601260045260246000fd5b500490565b60008219821115611c1e57611c1e611bbc565b500190565b6000600019821415611c3757611c37611bbc565b5060010190565b600060208284031215611c5057600080fd5b5051919050565b600060208284031215611c6957600080fd5b815180151581146116d557600080fd5b600181811c90821680611c8d57607f821691505b60208210811415611cae57634e487b7160e01b600052602260045260246000fd5b50919050565b7f416363657373436f6e74726f6c3a206163636f756e7420000000000000000000815260008351611cec816017850160208801611842565b7001034b99036b4b9b9b4b733903937b6329607d1b6017918401918201528351611d1d816028840160208801611842565b01602801949350505050565b6020808252602b908201527f496e697469616c697a61626c653a20636f6e7472616374206973206e6f74206960408201526a6e697469616c697a696e6760a81b606082015260800190565b6000816000190483118215151615611d8e57611d8e611bbc565b500290565b600081611da257611da2611bbc565b50600019019056fe65d7a28e3265b37a6474929f336521b332c1681b933f6cb9f3376673440d862a9f2df0fed2c77648de5860a4cc508cd0818c85b8b8a1ab4ceeef8d981c8956a6a2646970667358221220da69dac1a30c0c29fc71a59e7fa85d8de5893495916701bfd49f6f6c7798260164736f6c63430008090033",
  "linkReferences": {},
  "deployedLinkReferences": {}
}