{
  "_format": "hh-sol-artifact-1",
  "contractName": "cEVOUpgradeable",
  "sourceName": "contracts/ERC20/cEVOUpgradeable.sol",
  "abi": [
    {
      "inputs": [],
      "stateMutability": "nonpayable",
      "type": "constructor"
    },
    {
      "anonymous": false,
      "inputs": [
        {
          "indexed": true,
          "internalType": "address",
          "name": "owner",
          "type": "address"
        },
        {
          "indexed": true,
          "internalType": "address",
          "name": "spender",
          "type": "address"
        },
        {
          "indexed": false,
          "internalType": "uint256",
          "name": "value",
          "type": "uint256"
        }
      ],
      "name": "Approval",
      "type": "event"
    },
    {
      "anonymous": false,
      "inputs": [
        {
          "indexed": true,
          "internalType": "address",
          "name": "from",
          "type": "address"
        },
        {
          "indexed": false,
          "internalType": "uint256",
          "name": "amount",
          "type": "uint256"
        }
      ],
      "name": "ClaimedDisbursement",
      "type": "event"
    },
    {
      "anonymous": false,
      "inputs": [
        {
          "indexed": false,
          "internalType": "uint8",
          "name": "version",
          "type": "uint8"
        }
      ],
      "name": "Initialized",
      "type": "event"
    },
    {
      "anonymous": false,
      "inputs": [
        {
          "indexed": false,
          "internalType": "address",
          "name": "account",
          "type": "address"
        }
      ],
      "name": "Paused",
      "type": "event"
    },
    {
      "anonymous": false,
      "inputs": [
        {
          "indexed": true,
          "internalType": "bytes32",
          "name": "role",
          "type": "bytes32"
        },
        {
          "indexed": true,
          "internalType": "bytes32",
          "name": "previousAdminRole",
          "type": "bytes32"
        },
        {
          "indexed": true,
          "internalType": "bytes32",
          "name": "newAdminRole",
          "type": "bytes32"
        }
      ],
      "name": "RoleAdminChanged",
      "type": "event"
    },
    {
      "anonymous": false,
      "inputs": [
        {
          "indexed": true,
          "internalType": "bytes32",
          "name": "role",
          "type": "bytes32"
        },
        {
          "indexed": true,
          "internalType": "address",
          "name": "account",
          "type": "address"
        },
        {
          "indexed": true,
          "internalType": "address",
          "name": "sender",
          "type": "address"
        }
      ],
      "name": "RoleGranted",
      "type": "event"
    },
    {
      "anonymous": false,
      "inputs": [
        {
          "indexed": true,
          "internalType": "bytes32",
          "name": "role",
          "type": "bytes32"
        },
        {
          "indexed": true,
          "internalType": "address",
          "name": "account",
          "type": "address"
        },
        {
          "indexed": true,
          "internalType": "address",
          "name": "sender",
          "type": "address"
        }
      ],
      "name": "RoleRevoked",
      "type": "event"
    },
    {
      "anonymous": false,
      "inputs": [
        {
          "indexed": true,
          "internalType": "address",
          "name": "from",
          "type": "address"
        },
        {
          "indexed": true,
          "internalType": "address",
          "name": "to",
          "type": "address"
        },
        {
          "indexed": false,
          "internalType": "uint256",
          "name": "value",
          "type": "uint256"
        }
      ],
      "name": "Transfer",
      "type": "event"
    },
    {
      "anonymous": false,
      "inputs": [
        {
          "indexed": false,
          "internalType": "address",
          "name": "account",
          "type": "address"
        }
      ],
      "name": "Unpaused",
      "type": "event"
    },
    {
      "inputs": [],
      "name": "ADMIN_ROLE",
      "outputs": [
        {
          "internalType": "bytes32",
          "name": "",
          "type": "bytes32"
        }
      ],
      "stateMutability": "view",
      "type": "function"
    },
    {
      "inputs": [],
      "name": "DEFAULT_ADMIN_ROLE",
      "outputs": [
        {
          "internalType": "bytes32",
          "name": "",
          "type": "bytes32"
        }
      ],
      "stateMutability": "view",
      "type": "function"
    },
    {
      "inputs": [],
      "name": "DEFAULT_VESTING_PERIOD",
      "outputs": [
        {
          "internalType": "uint256",
          "name": "",
          "type": "uint256"
        }
      ],
      "stateMutability": "view",
      "type": "function"
    },
    {
      "inputs": [],
      "name": "DOMAIN_SEPARATOR",
      "outputs": [
        {
          "internalType": "bytes32",
          "name": "",
          "type": "bytes32"
        }
      ],
      "stateMutability": "view",
      "type": "function"
    },
    {
      "inputs": [],
      "name": "MINTER_ROLE",
      "outputs": [
        {
          "internalType": "bytes32",
          "name": "",
          "type": "bytes32"
        }
      ],
      "stateMutability": "view",
      "type": "function"
    },
    {
      "inputs": [
        {
          "internalType": "address",
          "name": "to",
          "type": "address"
        }
      ],
      "name": "addGlobalWhitelist",
      "outputs": [],
      "stateMutability": "nonpayable",
      "type": "function"
    },
    {
      "inputs": [
        {
          "internalType": "address",
          "name": "from",
          "type": "address"
        },
        {
          "internalType": "address",
          "name": "to",
          "type": "address"
        }
      ],
      "name": "addWhitelist",
      "outputs": [],
      "stateMutability": "nonpayable",
      "type": "function"
    },
    {
      "inputs": [
        {
          "internalType": "address",
          "name": "from",
          "type": "address"
        },
        {
          "internalType": "address",
          "name": "to",
          "type": "address"
        }
      ],
      "name": "adminTransferAllDisbursements",
      "outputs": [],
      "stateMutability": "nonpayable",
      "type": "function"
    },
    {
      "inputs": [
        {
          "internalType": "address",
          "name": "owner",
          "type": "address"
        },
        {
          "internalType": "address",
          "name": "spender",
          "type": "address"
        }
      ],
      "name": "allowance",
      "outputs": [
        {
          "internalType": "uint256",
          "name": "",
          "type": "uint256"
        }
      ],
      "stateMutability": "view",
      "type": "function"
    },
    {
      "inputs": [
        {
          "internalType": "address",
          "name": "spender",
          "type": "address"
        },
        {
          "internalType": "uint256",
          "name": "amount",
          "type": "uint256"
        }
      ],
      "name": "approve",
      "outputs": [
        {
          "internalType": "bool",
          "name": "",
          "type": "bool"
        }
      ],
      "stateMutability": "nonpayable",
      "type": "function"
    },
    {
      "inputs": [
        {
          "internalType": "address",
          "name": "account",
          "type": "address"
        }
      ],
      "name": "balanceOf",
      "outputs": [
        {
          "internalType": "uint256",
          "name": "",
          "type": "uint256"
        }
      ],
      "stateMutability": "view",
      "type": "function"
    },
    {
      "inputs": [
        {
          "internalType": "address[]",
          "name": "to",
          "type": "address[]"
        },
        {
          "internalType": "uint256[]",
          "name": "amount",
          "type": "uint256[]"
        },
        {
          "internalType": "uint256",
          "name": "startTime",
          "type": "uint256"
        },
        {
          "internalType": "uint256",
          "name": "duration",
          "type": "uint256"
        }
      ],
      "name": "batchMintDisbursement",
      "outputs": [],
      "stateMutability": "nonpayable",
      "type": "function"
    },
    {
      "inputs": [
        {
          "internalType": "address",
          "name": "to",
          "type": "address"
        },
        {
          "internalType": "uint256",
          "name": "startTime",
          "type": "uint256"
        },
        {
          "internalType": "uint256",
          "name": "duration",
          "type": "uint256"
        },
        {
          "internalType": "uint256",
          "name": "amount",
          "type": "uint256"
        },
        {
          "internalType": "uint256",
          "name": "balance",
          "type": "uint256"
        }
      ],
      "name": "bridgeMintDisbursement",
      "outputs": [],
      "stateMutability": "nonpayable",
      "type": "function"
    },
    {
      "inputs": [
        {
          "internalType": "uint256",
          "name": "amount",
          "type": "uint256"
        }
      ],
      "name": "burn",
      "outputs": [],
      "stateMutability": "nonpayable",
      "type": "function"
    },
    {
      "inputs": [
        {
          "internalType": "address",
          "name": "account",
          "type": "address"
        },
        {
          "internalType": "uint256",
          "name": "amount",
          "type": "uint256"
        }
      ],
      "name": "burnFrom",
      "outputs": [],
      "stateMutability": "nonpayable",
      "type": "function"
    },
    {
      "inputs": [],
      "name": "burnLocked",
      "outputs": [],
      "stateMutability": "nonpayable",
      "type": "function"
    },
    {
      "inputs": [],
      "name": "claimPending",
      "outputs": [],
      "stateMutability": "nonpayable",
      "type": "function"
    },
    {
      "inputs": [],
      "name": "decimals",
      "outputs": [
        {
          "internalType": "uint8",
          "name": "",
          "type": "uint8"
        }
      ],
      "stateMutability": "view",
      "type": "function"
    },
    {
      "inputs": [
        {
          "internalType": "address",
          "name": "spender",
          "type": "address"
        },
        {
          "internalType": "uint256",
          "name": "subtractedValue",
          "type": "uint256"
        }
      ],
      "name": "decreaseAllowance",
      "outputs": [
        {
          "internalType": "bool",
          "name": "",
          "type": "bool"
        }
      ],
      "stateMutability": "nonpayable",
      "type": "function"
    },
    {
      "inputs": [
        {
          "internalType": "address",
          "name": "",
          "type": "address"
        },
        {
          "internalType": "uint256",
          "name": "",
          "type": "uint256"
        }
      ],
      "name": "disbursements",
      "outputs": [
        {
          "internalType": "uint256",
          "name": "startTime",
          "type": "uint256"
        },
        {
          "internalType": "uint256",
          "name": "duration",
          "type": "uint256"
        },
        {
          "internalType": "uint256",
          "name": "amount",
          "type": "uint256"
        },
        {
          "internalType": "uint256",
          "name": "balance",
          "type": "uint256"
        }
      ],
      "stateMutability": "view",
      "type": "function"
    },
    {
      "inputs": [
        {
          "internalType": "address",
          "name": "_address",
          "type": "address"
        }
      ],
      "name": "disbursementsOf",
      "outputs": [
        {
          "components": [
            {
              "internalType": "uint256",
              "name": "startTime",
              "type": "uint256"
            },
            {
              "internalType": "uint256",
              "name": "duration",
              "type": "uint256"
            },
            {
              "internalType": "uint256",
              "name": "amount",
              "type": "uint256"
            },
            {
              "internalType": "uint256",
              "name": "balance",
              "type": "uint256"
            }
          ],
          "internalType": "struct cEVOUpgradeable.Disbursement[]",
          "name": "",
          "type": "tuple[]"
        }
      ],
      "stateMutability": "view",
      "type": "function"
    },
    {
      "inputs": [
        {
          "internalType": "bytes32",
          "name": "role",
          "type": "bytes32"
        }
      ],
      "name": "getRoleAdmin",
      "outputs": [
        {
          "internalType": "bytes32",
          "name": "",
          "type": "bytes32"
        }
      ],
      "stateMutability": "view",
      "type": "function"
    },
    {
      "inputs": [
        {
          "internalType": "bytes32",
          "name": "role",
          "type": "bytes32"
        },
        {
          "internalType": "address",
          "name": "account",
          "type": "address"
        }
      ],
      "name": "grantRole",
      "outputs": [],
      "stateMutability": "nonpayable",
      "type": "function"
    },
    {
      "inputs": [
        {
          "internalType": "bytes32",
          "name": "role",
          "type": "bytes32"
        },
        {
          "internalType": "address",
          "name": "account",
          "type": "address"
        }
      ],
      "name": "hasRole",
      "outputs": [
        {
          "internalType": "bool",
          "name": "",
          "type": "bool"
        }
      ],
      "stateMutability": "view",
      "type": "function"
    },
    {
      "inputs": [
        {
          "internalType": "address",
          "name": "spender",
          "type": "address"
        },
        {
          "internalType": "uint256",
          "name": "addedValue",
          "type": "uint256"
        }
      ],
      "name": "increaseAllowance",
      "outputs": [
        {
          "internalType": "bool",
          "name": "",
          "type": "bool"
        }
      ],
      "stateMutability": "nonpayable",
      "type": "function"
    },
    {
      "inputs": [],
      "name": "initialize",
      "outputs": [],
      "stateMutability": "nonpayable",
      "type": "function"
    },
    {
      "inputs": [
        {
          "internalType": "address",
          "name": "_address",
          "type": "address"
        }
      ],
      "name": "lockedOf",
      "outputs": [
        {
          "internalType": "uint256",
          "name": "",
          "type": "uint256"
        }
      ],
      "stateMutability": "view",
      "type": "function"
    },
    {
      "inputs": [
        {
          "internalType": "address",
          "name": "_address",
          "type": "address"
        },
        {
          "internalType": "uint256",
          "name": "amount",
          "type": "uint256"
        }
      ],
      "name": "mint",
      "outputs": [],
      "stateMutability": "nonpayable",
      "type": "function"
    },
    {
      "inputs": [
        {
          "internalType": "address",
          "name": "to",
          "type": "address"
        },
        {
          "internalType": "uint256",
          "name": "startTime",
          "type": "uint256"
        },
        {
          "internalType": "uint256",
          "name": "duration",
          "type": "uint256"
        },
        {
          "internalType": "uint256",
          "name": "amount",
          "type": "uint256"
        }
      ],
      "name": "mintDisbursement",
      "outputs": [],
      "stateMutability": "nonpayable",
      "type": "function"
    },
    {
      "inputs": [],
      "name": "name",
      "outputs": [
        {
          "internalType": "string",
          "name": "",
          "type": "string"
        }
      ],
      "stateMutability": "view",
      "type": "function"
    },
    {
      "inputs": [
        {
          "internalType": "address",
          "name": "owner",
          "type": "address"
        }
      ],
      "name": "nonces",
      "outputs": [
        {
          "internalType": "uint256",
          "name": "",
          "type": "uint256"
        }
      ],
      "stateMutability": "view",
      "type": "function"
    },
    {
      "inputs": [],
      "name": "pause",
      "outputs": [],
      "stateMutability": "nonpayable",
      "type": "function"
    },
    {
      "inputs": [],
      "name": "paused",
      "outputs": [
        {
          "internalType": "bool",
          "name": "",
          "type": "bool"
        }
      ],
      "stateMutability": "view",
      "type": "function"
    },
    {
      "inputs": [
        {
          "internalType": "address",
          "name": "_address",
          "type": "address"
        }
      ],
      "name": "pendingOf",
      "outputs": [
        {
          "internalType": "uint256",
          "name": "",
          "type": "uint256"
        }
      ],
      "stateMutability": "view",
      "type": "function"
    },
    {
      "inputs": [
        {
          "internalType": "address",
          "name": "owner",
          "type": "address"
        },
        {
          "internalType": "address",
          "name": "spender",
          "type": "address"
        },
        {
          "internalType": "uint256",
          "name": "value",
          "type": "uint256"
        },
        {
          "internalType": "uint256",
          "name": "deadline",
          "type": "uint256"
        },
        {
          "internalType": "uint8",
          "name": "v",
          "type": "uint8"
        },
        {
          "internalType": "bytes32",
          "name": "r",
          "type": "bytes32"
        },
        {
          "internalType": "bytes32",
          "name": "s",
          "type": "bytes32"
        }
      ],
      "name": "permit",
      "outputs": [],
      "stateMutability": "nonpayable",
      "type": "function"
    },
    {
      "inputs": [
        {
          "internalType": "bytes32",
          "name": "role",
          "type": "bytes32"
        },
        {
          "internalType": "address",
          "name": "account",
          "type": "address"
        }
      ],
      "name": "renounceRole",
      "outputs": [],
      "stateMutability": "nonpayable",
      "type": "function"
    },
    {
      "inputs": [
        {
          "internalType": "address",
          "name": "_address",
          "type": "address"
        }
      ],
      "name": "resetTransferTimeOf",
      "outputs": [],
      "stateMutability": "nonpayable",
      "type": "function"
    },
    {
      "inputs": [
        {
          "internalType": "bytes32",
          "name": "role",
          "type": "bytes32"
        },
        {
          "internalType": "address",
          "name": "account",
          "type": "address"
        }
      ],
      "name": "revokeRole",
      "outputs": [],
      "stateMutability": "nonpayable",
      "type": "function"
    },
    {
      "inputs": [
        {
          "internalType": "address",
          "name": "",
          "type": "address"
        }
      ],
      "name": "selfDisbursement",
      "outputs": [
        {
          "internalType": "uint256",
          "name": "startTime",
          "type": "uint256"
        },
        {
          "internalType": "uint256",
          "name": "duration",
          "type": "uint256"
        },
        {
          "internalType": "uint256",
          "name": "amount",
          "type": "uint256"
        },
        {
          "internalType": "uint256",
          "name": "balance",
          "type": "uint256"
        }
      ],
      "stateMutability": "view",
      "type": "function"
    },
    {
      "inputs": [
        {
          "internalType": "bytes4",
          "name": "interfaceId",
          "type": "bytes4"
        }
      ],
      "name": "supportsInterface",
      "outputs": [
        {
          "internalType": "bool",
          "name": "",
          "type": "bool"
        }
      ],
      "stateMutability": "view",
      "type": "function"
    },
    {
      "inputs": [],
      "name": "symbol",
      "outputs": [
        {
          "internalType": "string",
          "name": "",
          "type": "string"
        }
      ],
      "stateMutability": "view",
      "type": "function"
    },
    {
      "inputs": [],
      "name": "totalBurned",
      "outputs": [
        {
          "internalType": "uint256",
          "name": "",
          "type": "uint256"
        }
      ],
      "stateMutability": "view",
      "type": "function"
    },
    {
      "inputs": [],
      "name": "totalSupply",
      "outputs": [
        {
          "internalType": "uint256",
          "name": "",
          "type": "uint256"
        }
      ],
      "stateMutability": "view",
      "type": "function"
    },
    {
      "inputs": [
        {
          "internalType": "address",
          "name": "to",
          "type": "address"
        },
        {
          "internalType": "uint256",
          "name": "amount",
          "type": "uint256"
        }
      ],
      "name": "transfer",
      "outputs": [
        {
          "internalType": "bool",
          "name": "",
          "type": "bool"
        }
      ],
      "stateMutability": "nonpayable",
      "type": "function"
    },
    {
      "inputs": [
        {
          "internalType": "address",
          "name": "to",
          "type": "address"
        }
      ],
      "name": "transferAllDisbursements",
      "outputs": [],
      "stateMutability": "nonpayable",
      "type": "function"
    },
    {
      "inputs": [
        {
          "internalType": "address",
          "name": "from",
          "type": "address"
        },
        {
          "internalType": "address",
          "name": "to",
          "type": "address"
        },
        {
          "internalType": "uint256",
          "name": "amount",
          "type": "uint256"
        }
      ],
      "name": "transferFrom",
      "outputs": [
        {
          "internalType": "bool",
          "name": "",
          "type": "bool"
        }
      ],
      "stateMutability": "nonpayable",
      "type": "function"
    },
    {
      "inputs": [
        {
          "internalType": "address",
          "name": "",
          "type": "address"
        }
      ],
      "name": "transferTime",
      "outputs": [
        {
          "internalType": "uint256",
          "name": "",
          "type": "uint256"
        }
      ],
      "stateMutability": "view",
      "type": "function"
    },
    {
      "inputs": [],
      "name": "unpause",
      "outputs": [],
      "stateMutability": "nonpayable",
      "type": "function"
    },
    {
      "inputs": [
        {
          "internalType": "address",
          "name": "account",
          "type": "address"
        },
        {
          "internalType": "uint256",
          "name": "amount",
          "type": "uint256"
        }
      ],
      "name": "useLocked",
      "outputs": [],
      "stateMutability": "nonpayable",
      "type": "function"
    }
  ],
  "bytecode": "0x60806040523480156200001157600080fd5b506200001c62000022565b620000e4565b600054610100900460ff16156200008f5760405162461bcd60e51b815260206004820152602760248201527f496e697469616c697a61626c653a20636f6e747261637420697320696e697469604482015266616c697a696e6760c81b606482015260840160405180910390fd5b60005460ff9081161015620000e2576000805460ff191660ff9081179091556040519081527f7f26b83ff96e1f2b6a682f133852f6798a09c465da95921460cefb38474024989060200160405180910390a15b565b613a5380620000f46000396000f3fe608060405234801561001057600080fd5b50600436106102bb5760003560e01c806375b238fc11610182578063a457c2d7116100e9578063c06bab2b116100a2578063d547741f1161007c578063d547741f1461064e578063d89135cd14610661578063dd62ed3e1461066a578063f44136a11461067d57600080fd5b8063c06bab2b14610613578063d505accf14610626578063d53913931461063957600080fd5b8063a457c2d7146105a1578063a5f1e282146105b4578063a6d2ba52146105c7578063a73d633c146105da578063a9059cbb146105ed578063b45cc8451461060057600080fd5b80638456cb591161013b5780638456cb591461054257806391d148541461054a578063938667071461055d57806395d89b411461057e5780639f2310a414610586578063a217fddf1461059957600080fd5b806375b238fc1461049657806379cc6790146104ab5780637a153043146104be5780637ccdd45d146104f15780637ecebe00146105275780638129fc1c1461053a57600080fd5b80632f2ff15d116102265780633f4ba83a116101df5780633f4ba83a1461042c57806340c10f191461043457806342966c68146104475780634d3ef8dd1461045a5780635c975abb1461046257806370a082311461046d57600080fd5b80632f2ff15d146103c9578063313ce567146103dc578063314f8454146103eb5780633644e515146103fe57806336568abe14610406578063395093511461041957600080fd5b80630c64936d116102785780630c64936d1461035257806312bdd0f214610365578063181341111461037857806318160ddd1461038b57806323b872dd14610393578063248a9ca3146103a657600080fd5b806301ffc9a7146102c057806303a9f06e146102e857806305cea05f146102f257806306fdde0314610312578063095ea7b314610327578063098480ec1461033a575b600080fd5b6102d36102ce366004613234565b610690565b60405190151581526020015b60405180910390f35b6102f06106c7565b005b61030561030036600461327a565b610a9f565b6040516102df9190613295565b61031a610b3d565b6040516102df919061331d565b6102d3610335366004613350565b610bcf565b6103446101c65481565b6040519081526020016102df565b6102f061036036600461327a565b610be7565b6102f061037336600461337a565b610c0e565b6102f0610386366004613483565b610c35565b603554610344565b6102d36103a1366004613553565b610d07565b6103446103b436600461358f565b600090815260c9602052604090206001015490565b6102f06103d73660046135a8565b610d2b565b604051601281526020016102df565b6102f06103f93660046135cb565b610d50565b610344610e6b565b6102f06104143660046135a8565b610e7a565b6102d3610427366004613350565b610ef8565b6102f0610f1a565b6102f0610442366004613350565b610f3d565b6102f061045536600461358f565b61109c565b6102f061110d565b60655460ff166102d3565b61034461047b36600461327a565b6001600160a01b031660009081526033602052604090205490565b6103446000805160206139fe83398151915281565b6102f06104b9366004613350565b6111bb565b6104d16104cc366004613350565b6111c5565b6040805194855260208501939093529183015260608201526080016102df565b6104d16104ff36600461327a565b6101cd6020526000908152604090208054600182015460028301546003909301549192909184565b61034461053536600461327a565b61120c565b6102f061122b565b6102f061141d565b6102d36105583660046135a8565b61143d565b61034461056b36600461327a565b6101cc6020526000908152604090205481565b61031a611468565b6102f061059436600461327a565b611477565b610344600081565b6102d36105af366004613350565b611481565b6103446105c236600461327a565b6114fc565b6102f06105d5366004613604565b61152f565b6102f06105e836600461337a565b611654565b6102d36105fb366004613350565b611682565b6102f061060e36600461327a565b611690565b6102f0610621366004613350565b6116a7565b6102f0610634366004613646565b6117b3565b6103446000805160206139de83398151915281565b6102f061065c3660046135a8565b611917565b61016254610344565b61034461067836600461337a565b61193c565b61034461068b36600461327a565b611967565b60006001600160e01b03198216637965db0b60e01b14806106c157506301ffc9a760e01b6001600160e01b03198316145b92915050565b6106cf611bab565b6000805b3360009081526101ca60205260409020548110156107e6573360009081526101ca6020526040812080548390811061070d5761070d6136b9565b9060005260206000209060040201905060008160030154826002015461073391906136e5565b905060008260010154836002015461074b91906136f8565b905060004284600101548560000154610764919061371a565b1161077357836002015461078b565b8354829061078190426136e5565b61078b919061372d565b9050808310156107cf5761079f83826136e5565b8460030160008282546107b291906136e5565b909155506107c2905083826136e5565b6107cc908761371a565b95505b5050505080806107de9061374c565b9150506106d3565b503360009081526101cd602090815260408083206101cb90925290912054801561086e573360009081526101cb60205260408120819055600183015490036108395763643f293682556101c65460018301555b8082600301600082825461084d919061371a565b9250508190555080826002016000828254610868919061371a565b90915550505b60038201541561092e5760008260030154836002015461088e91906136e5565b90506000836001015484600201546108a691906136f8565b9050600042856001015486600001546108bf919061371a565b116108ce5784600201546108e6565b845482906108dc90426136e5565b6108e6919061372d565b90508083101561092a576108fa83826136e5565b85600301600082825461090d91906136e5565b9091555061091d905083826136e5565b610927908761371a565b95505b5050505b8260000361093b57505050565b6109453384611bf1565b6101c5546040516370a0823160e01b815230600482015284916001600160a01b0316906370a0823190602401602060405180830381865afa15801561098e573d6000803e3d6000fd5b505050506040513d601f19601f820116820180604052508101906109b29190613765565b10610a33576101c55460405163a9059cbb60e01b8152336004820152602481018590526001600160a01b039091169063a9059cbb906044016020604051808303816000875af1158015610a09573d6000803e3d6000fd5b505050506040513d601f19601f82011682018060405250810190610a2d919061377e565b50505050565b6101c5546040516340c10f1960e01b8152336004820152602481018590526001600160a01b03909116906340c10f19906044015b600060405180830381600087803b158015610a8157600080fd5b505af1158015610a95573d6000803e3d6000fd5b505050505050505b565b6001600160a01b03811660009081526101ca60209081526040808320805482518185028101850190935280835260609492939192909184015b82821015610b32578382906000526020600020906004020160405180608001604052908160008201548152602001600182015481526020016002820154815260200160038201548152505081526020019060010190610ad8565b505050509050919050565b606060368054610b4c906137a0565b80601f0160208091040260200160405190810160405280929190818152602001828054610b78906137a0565b8015610bc55780601f10610b9a57610100808354040283529160200191610bc5565b820191906000526020600020905b815481529060010190602001808311610ba857829003601f168201915b5050505050905090565b600033610bdd818585611d4b565b5060019392505050565b6000610bf281611e6f565b506001600160a01b031660009081526101cc6020526040812055565b6000805160206139fe833981519152610c2681611e6f565b610c308383611e79565b505050565b6000805160206139de833981519152610c4d81611e6f565b8351855114610ca35760405162461bcd60e51b815260206004820152601f60248201527f746f20616e6420616d6f756e7420617272617973206d757374206d617463680060448201526064015b60405180910390fd5b60005b8551811015610cff57610ced868281518110610cc457610cc46136b9565b60200260200101518585888581518110610ce057610ce06136b9565b6020026020010151610d50565b80610cf78161374c565b915050610ca6565b505050505050565b600033610d15858285612302565b610d20858585612376565b506001949350505050565b600082815260c96020526040902060010154610d4681611e6f565b610c30838361254f565b6000805160206139de833981519152610d6881611e6f565b6000808511610d775742610d79565b845b90506000808511610d8d576101c654610d8f565b845b6001600160a01b0388811660009081526101ca6020908152604080832081516080810183528881528084018781528184018c8152606083018d815284546001808201875595895296909720925160049687029093019283559051928201929092559051600282015592516003909301929092556101c55491516340c10f1960e01b815230918101919091526024810188905292935016906340c10f1990604401600060405180830381600087803b158015610e4957600080fd5b505af1158015610e5d573d6000803e3d6000fd5b50505050610a9587856125d5565b6000610e756126c0565b905090565b6001600160a01b0381163314610eea5760405162461bcd60e51b815260206004820152602f60248201527f416363657373436f6e74726f6c3a2063616e206f6e6c792072656e6f756e636560448201526e103937b632b9903337b91039b2b63360891b6064820152608401610c9a565b610ef4828261273b565b5050565b600033610bdd818585610f0b838361193c565b610f15919061371a565b611d4b565b6000805160206139fe833981519152610f3281611e6f565b610f3a6127a2565b50565b6000805160206139de833981519152610f5581611e6f565b6001600160a01b03831660009081526101cb602090815260408083208054908490556101cd909252822060010154909103610fb6576001600160a01b03841660009081526101cd6020526040902063643f293681556301e133806001909101555b610fc0838261371a565b6001600160a01b03851660009081526101cd602052604081206003018054909190610fec90849061371a565b90915550610ffc9050838261371a565b6001600160a01b03851660009081526101cd60205260408120600201805490919061102890849061371a565b90915550506101c5546040516340c10f1960e01b8152306004820152602481018590526001600160a01b03909116906340c10f1990604401600060405180830381600087803b15801561107a57600080fd5b505af115801561108e573d6000803e3d6000fd5b50505050610a2d84846125d5565b6110a5816127f4565b6101c554604051632770a7eb60e21b8152306004820152602481018390526001600160a01b0390911690639dc29fac90604401600060405180830381600087803b1580156110f257600080fd5b505af1158015611106573d6000803e3d6000fd5b5050505050565b6000805160206139de83398151915261112581611e6f565b30600090815260336020526040812054905080610162600082825461114a919061371a565b9091555061115a90503082611bf1565b6101c55460405163079cc67960e41b8152306004820152602481018390526001600160a01b03909116906379cc679090604401600060405180830381600087803b1580156111a757600080fd5b505af1158015610cff573d6000803e3d6000fd5b61115a8282612817565b6101ca60205281600052604060002081815481106111e257600080fd5b60009182526020909120600490910201805460018201546002830154600390930154919450925084565b6001600160a01b038116600090815261012f60205260408120546106c1565b600054610100900460ff161580801561124b5750600054600160ff909116105b806112655750303b158015611265575060005460ff166001145b6112c85760405162461bcd60e51b815260206004820152602e60248201527f496e697469616c697a61626c653a20636f6e747261637420697320616c72656160448201526d191e481a5b9a5d1a585b1a5e995960921b6064820152608401610c9a565b6000805460ff1916600117905580156112eb576000805461ff0019166101001790555b61132d604051806040016040528060048152602001636345564f60e01b815250604051806040016040528060048152602001636345564f60e01b815250612855565b611335612886565b61133d6128b5565b611362604051806040016040528060048152602001636345564f60e01b8152506128dc565b61136a6128b5565b61137560003361254f565b61138d6000805160206139fe8339815191523361254f565b6113a56000805160206139de8339815191523361254f565b6101c580546001600160a01b0319167342006ab57701251b580bdfc24778c43c9ff589a11790556301e133806101c6558015610f3a576000805461ff0019169055604051600181527f7f26b83ff96e1f2b6a682f133852f6798a09c465da95921460cefb38474024989060200160405180910390a150565b6000805160206139fe83398151915261143581611e6f565b610f3a612926565b600091825260c9602090815260408084206001600160a01b0393909316845291905290205460ff1690565b606060378054610b4c906137a0565b610f3a3382611e79565b6000338161148f828661193c565b9050838110156114ef5760405162461bcd60e51b815260206004820152602560248201527f45524332303a2064656372656173656420616c6c6f77616e63652062656c6f77604482015264207a65726f60d81b6064820152608401610c9a565b610d208286868403611d4b565b6001600160a01b03811660009081526101cd60209081526040808320600301546101cb9092528220546106c1919061371a565b6000805160206139de83398151915261154781611e6f565b60008086116115565742611558565b855b9050600080861161156c576101c65461156e565b855b6001600160a01b0389811660009081526101ca6020908152604080832081516080810183528881528084018781528184018d8152606083018d815284546001808201875595895296909720925160049687029093019283559051928201929092559051600282015592516003909301929092556101c55491516340c10f1960e01b815230918101919091526024810188905292935016906340c10f1990604401600060405180830381600087803b15801561162857600080fd5b505af115801561163c573d6000803e3d6000fd5b5050505061164a88856125d5565b5050505050505050565b600061165f81611e6f565b6001600160a01b03831660009081526101c960205260409020610a2d9083612963565b600033610bdd818585612376565b600061169b81611e6f565b610c306101c783612963565b6000805160206139de8339815191526116bf81611e6f565b6001600160a01b03831660009081526101cb60205260409020548211156117285760405162461bcd60e51b815260206004820152601b60248201527f496e73756666696369656e74206c6f636b65642062616c616e636500000000006044820152606401610c9a565b6001600160a01b03831660009081526101cb6020526040812080548492906117519084906136e5565b9250508190555081610162600082825461176b919061371a565b9091555061177b90508383611bf1565b6101c55460405163079cc67960e41b8152306004820152602481018490526001600160a01b03909116906379cc679090604401610a67565b834211156118035760405162461bcd60e51b815260206004820152601d60248201527f45524332305065726d69743a206578706972656420646561646c696e650000006044820152606401610c9a565b60007f6e71edae12b1b97f4d1f60370fef10105fa2faae0126114a169c64845d6126c98888886118328c61297f565b6040805160208101969096526001600160a01b0394851690860152929091166060840152608083015260a082015260c0810186905260e001604051602081830303815290604052805190602001209050600061188d826129a8565b9050600061189d828787876129f6565b9050896001600160a01b0316816001600160a01b0316146119005760405162461bcd60e51b815260206004820152601e60248201527f45524332305065726d69743a20696e76616c6964207369676e617475726500006044820152606401610c9a565b61190b8a8a8a611d4b565b50505050505050505050565b600082815260c9602052604090206001015461193281611e6f565b610c30838361273b565b6001600160a01b03918216600090815260346020908152604080832093909416825291909152205490565b600080805b6001600160a01b03841660009081526101ca6020526040902054811015611a6e576001600160a01b03841660009081526101ca602052604081208054839081106119b8576119b86136b9565b906000526020600020906004020190506000816003015482600201546119de91906136e5565b90506000826001015483600201546119f691906136f8565b905060004284600101548560000154611a0f919061371a565b11611a1e578360020154611a36565b83548290611a2c90426136e5565b611a36919061372d565b905080831015611a5757611a4a83826136e5565b611a54908761371a565b95505b505050508080611a669061374c565b91505061196c565b506001600160a01b03831660009081526101cb60205260409020548015611aed5760006101c65482611aa091906136f8565b90506000426101c65463643f2936611ab8919061371a565b11611ac35782611adc565b81611ad263643f2936426136e5565b611adc919061372d565b9050611ae8818561371a565b935050505b6001600160a01b03841660009081526101cd60205260409020600381015415611ba257600081600301548260020154611b2691906136e5565b905060006101c6548360020154611b3d91906136f8565b90506000426101c65463643f2936611b55919061371a565b11611b64578360020154611b7d565b81611b7363643f2936426136e5565b611b7d919061372d565b905080831015611b9e57611b9183826136e5565b611b9b908761371a565b95505b5050505b50909392505050565b60655460ff1615610a9d5760405162461bcd60e51b815260206004820152601060248201526f14185d5cd8589b194e881c185d5cd95960821b6044820152606401610c9a565b6001600160a01b038216611c515760405162461bcd60e51b815260206004820152602160248201527f45524332303a206275726e2066726f6d20746865207a65726f206164647265736044820152607360f81b6064820152608401610c9a565b611c5d82600083612a1e565b6001600160a01b03821660009081526033602052604090205481811015611cd15760405162461bcd60e51b815260206004820152602260248201527f45524332303a206275726e20616d6f756e7420657863656564732062616c616e604482015261636560f01b6064820152608401610c9a565b6001600160a01b0383166000908152603360205260408120838303905560358054849290611d009084906136e5565b90915550506040518281526000906001600160a01b038516907fddf252ad1be2c89b69c2b068fc378daa952ba7f163c4a11628f55a4df523b3ef9060200160405180910390a3505050565b6001600160a01b038316611dad5760405162461bcd60e51b8152602060048201526024808201527f45524332303a20617070726f76652066726f6d20746865207a65726f206164646044820152637265737360e01b6064820152608401610c9a565b6001600160a01b038216611e0e5760405162461bcd60e51b815260206004820152602260248201527f45524332303a20617070726f766520746f20746865207a65726f206164647265604482015261737360f01b6064820152608401610c9a565b6001600160a01b0383811660008181526034602090815260408083209487168084529482529182902085905590518481527f8c5be1e5ebec7d5bd14f71427d1e84f3dd0314c0f7b2291e5b200ac8c7c3b925910160405180910390a3505050565b610f3a8133612ad2565b6001600160a01b03821660009081526101cb60209081526040808320546101cd83529281902081516080810183528154815260018201549381019390935260028101549183019190915260030154606082015281151580611ef257506001600160a01b03841660009081526101ca602052604090205415155b611f2b5760405162461bcd60e51b815260206004820152600a6024820152694e6f2062616c616e636560b01b6044820152606401610c9a565b611f376101c785612b36565b1580611f4c5750611f4a6101c784612b36565b155b1561202c576001600160a01b03841660009081526101cc602052604090205442118015611f9157506001600160a01b03831660009081526101cc602052604090205442115b611fdd5760405162461bcd60e51b815260206004820152601f60248201527f436f6f6c646f776e20706572696f6420686173206e6f7420656c6170736564006044820152606401610c9a565b611fea426276a70061371a565b6001600160a01b03851660009081526101cc6020526040902055612011426276a70061371a565b6001600160a01b03841660009081526101cc60205260409020555b6001600160a01b0380851660008181526101cb602090815260408083208390558051608081018252838152808301848152818301858152606083018681529686526101cd909452828520915182555160018083019190915592516002820155935160039094019390935592861681529081209091015490036120d4576001600160a01b03831660009081526101cd6020526040902063643f293681556301e133806001909101555b6001600160a01b03831660009081526101cb60205260409081902054908201516120ff90849061371a565b612109919061371a565b6001600160a01b03841660009081526101cd60205260408120600201805490919061213590849061371a565b90915550506001600160a01b03831660009081526101cb6020526040902054606082015161216490849061371a565b61216e919061371a565b6001600160a01b03841660009081526101cd60205260408120600301805490919061219a90849061371a565b90915550506001600160a01b03831660009081526101cb602052604081208190555b6001600160a01b03851660009081526101ca602052604090205481101561226f576001600160a01b0380851660009081526101ca602052604080822092881682529020805483908110612211576122116136b9565b60009182526020808320845460018181018755958552919093206004928302909301805491909202909201918255828101549282019290925560028083015490820155600391820154910155806122678161374c565b9150506121bc565b506001600160a01b03841660009081526101ca60205260408120612292916131eb565b6001600160a01b03841660009081526101c9602052604090206122b59084612963565b506122df84846122da876001600160a01b031660009081526033602052604090205490565b612376565b6001600160a01b03841660009081526101c9602052604090206111069084612b58565b600061230e848461193c565b90506000198114610a2d57818110156123695760405162461bcd60e51b815260206004820152601d60248201527f45524332303a20696e73756666696369656e7420616c6c6f77616e63650000006044820152606401610c9a565b610a2d8484848403611d4b565b6001600160a01b0383166123da5760405162461bcd60e51b815260206004820152602560248201527f45524332303a207472616e736665722066726f6d20746865207a65726f206164604482015264647265737360d81b6064820152608401610c9a565b6001600160a01b03821661243c5760405162461bcd60e51b815260206004820152602360248201527f45524332303a207472616e7366657220746f20746865207a65726f206164647260448201526265737360e81b6064820152608401610c9a565b612447838383612a1e565b6001600160a01b038316600090815260336020526040902054818110156124bf5760405162461bcd60e51b815260206004820152602660248201527f45524332303a207472616e7366657220616d6f756e7420657863656564732062604482015265616c616e636560d01b6064820152608401610c9a565b6001600160a01b038085166000908152603360205260408082208585039055918516815290812080548492906124f690849061371a565b92505081905550826001600160a01b0316846001600160a01b03167fddf252ad1be2c89b69c2b068fc378daa952ba7f163c4a11628f55a4df523b3ef8460405161254291815260200190565b60405180910390a3610a2d565b612559828261143d565b610ef457600082815260c9602090815260408083206001600160a01b03851684529091529020805460ff191660011790556125913390565b6001600160a01b0316816001600160a01b0316837f2f8788117e7eff1d82e926ec794901d17c78024a50270940304540a733656f0d60405160405180910390a45050565b6001600160a01b03821661262b5760405162461bcd60e51b815260206004820152601f60248201527f45524332303a206d696e7420746f20746865207a65726f2061646472657373006044820152606401610c9a565b61263760008383612a1e565b8060356000828254612649919061371a565b90915550506001600160a01b0382166000908152603360205260408120805483929061267690849061371a565b90915550506040518181526001600160a01b038316906000907fddf252ad1be2c89b69c2b068fc378daa952ba7f163c4a11628f55a4df523b3ef9060200160405180910390a35050565b6000610e757f8b73c3c69bb8fe3d512ecc4cf759cc79239f7b179b0ffacaa9a75d522b39400f6126ef60fb5490565b60fc546040805160208101859052908101839052606081018290524660808201523060a082015260009060c0016040516020818303038152906040528051906020012090509392505050565b612745828261143d565b15610ef457600082815260c9602090815260408083206001600160a01b0385168085529252808320805460ff1916905551339285917ff6391f5c32d9c69d2a47ea670b442974b53935d1edc7fd64eb21e047a839171b9190a45050565b6127aa612b6d565b6065805460ff191690557f5db9ee0a495bf2e6ff9c91a7834c1ba4fdd244a5e8aa4e537bd38aeae4b073aa335b6040516001600160a01b03909116815260200160405180910390a1565b806101626000828254612807919061371a565b90915550610f3a90503382611bf1565b6001600160a01b038216331461283257612832823383612302565b806101626000828254612845919061371a565b90915550610ef490508282611bf1565b600054610100900460ff1661287c5760405162461bcd60e51b8152600401610c9a906137d4565b610ef48282612bb6565b600054610100900460ff166128ad5760405162461bcd60e51b8152600401610c9a906137d4565b610a9d612bf6565b600054610100900460ff16610a9d5760405162461bcd60e51b8152600401610c9a906137d4565b600054610100900460ff166129035760405162461bcd60e51b8152600401610c9a906137d4565b610f3a81604051806040016040528060018152602001603160f81b815250612c29565b61292e611bab565b6065805460ff191660011790557f62e78cea01bee320cd4e420270b5ea74000d11b0c9f74754ebdbfc544b05a2586127d73390565b6000612978836001600160a01b038416612c6a565b9392505050565b6001600160a01b038116600090815261012f602052604090208054600181018255905b50919050565b60006106c16129b56126c0565b8360405161190160f01b6020820152602281018390526042810182905260009060620160405160208183030381529060405280519060200120905092915050565b6000806000612a0787878787612cb9565b91509150612a1481612da6565b5095945050505050565b612a26611bab565b8282612a346101c782612b36565b80612a5d57506001600160a01b03821660009081526101c960205260409020612a5d9082612b36565b80612a6f57506001600160a01b038216155b80612a8157506001600160a01b038116155b612acd5760405162461bcd60e51b815260206004820152601860248201527f6345564f206973206e6f6e2d7472616e7366657261626c6500000000000000006044820152606401610c9a565b611106565b612adc828261143d565b610ef457612af4816001600160a01b03166014612f5c565b612aff836020612f5c565b604051602001612b1092919061381f565b60408051601f198184030181529082905262461bcd60e51b8252610c9a9160040161331d565b6001600160a01b03811660009081526001830160205260408120541515612978565b6000612978836001600160a01b0384166130f8565b60655460ff16610a9d5760405162461bcd60e51b815260206004820152601460248201527314185d5cd8589b194e881b9bdd081c185d5cd95960621b6044820152606401610c9a565b600054610100900460ff16612bdd5760405162461bcd60e51b8152600401610c9a906137d4565b6036612be983826138da565b506037610c3082826138da565b600054610100900460ff16612c1d5760405162461bcd60e51b8152600401610c9a906137d4565b6065805460ff19169055565b600054610100900460ff16612c505760405162461bcd60e51b8152600401610c9a906137d4565b81516020928301208151919092012060fb9190915560fc55565b6000818152600183016020526040812054612cb1575081546001818101845560008481526020808220909301849055845484825282860190935260409020919091556106c1565b5060006106c1565b6000807f7fffffffffffffffffffffffffffffff5d576e7357a4501ddfe92f46681b20a0831115612cf05750600090506003612d9d565b8460ff16601b14158015612d0857508460ff16601c14155b15612d195750600090506004612d9d565b6040805160008082526020820180845289905260ff881692820192909252606081018690526080810185905260019060a0016020604051602081039080840390855afa158015612d6d573d6000803e3d6000fd5b5050604051601f1901519150506001600160a01b038116612d9657600060019250925050612d9d565b9150600090505b94509492505050565b6000816004811115612dba57612dba61399a565b03612dc25750565b6001816004811115612dd657612dd661399a565b03612e235760405162461bcd60e51b815260206004820152601860248201527f45434453413a20696e76616c6964207369676e617475726500000000000000006044820152606401610c9a565b6002816004811115612e3757612e3761399a565b03612e845760405162461bcd60e51b815260206004820152601f60248201527f45434453413a20696e76616c6964207369676e6174757265206c656e677468006044820152606401610c9a565b6003816004811115612e9857612e9861399a565b03612ef05760405162461bcd60e51b815260206004820152602260248201527f45434453413a20696e76616c6964207369676e6174757265202773272076616c604482015261756560f01b6064820152608401610c9a565b6004816004811115612f0457612f0461399a565b03610f3a5760405162461bcd60e51b815260206004820152602260248201527f45434453413a20696e76616c6964207369676e6174757265202776272076616c604482015261756560f01b6064820152608401610c9a565b60606000612f6b83600261372d565b612f7690600261371a565b67ffffffffffffffff811115612f8e57612f8e6133ad565b6040519080825280601f01601f191660200182016040528015612fb8576020820181803683370190505b509050600360fc1b81600081518110612fd357612fd36136b9565b60200101906001600160f81b031916908160001a905350600f60fb1b81600181518110613002576130026136b9565b60200101906001600160f81b031916908160001a905350600061302684600261372d565b61303190600161371a565b90505b60018111156130a9576f181899199a1a9b1b9c1cb0b131b232b360811b85600f1660108110613065576130656136b9565b1a60f81b82828151811061307b5761307b6136b9565b60200101906001600160f81b031916908160001a90535060049490941c936130a2816139b0565b9050613034565b5083156129785760405162461bcd60e51b815260206004820181905260248201527f537472696e67733a20686578206c656e67746820696e73756666696369656e746044820152606401610c9a565b600081815260018301602052604081205480156131e157600061311c6001836136e5565b8554909150600090613130906001906136e5565b9050818114613195576000866000018281548110613150576131506136b9565b9060005260206000200154905080876000018481548110613173576131736136b9565b6000918252602080832090910192909255918252600188019052604090208390555b85548690806131a6576131a66139c7565b6001900381819060005260206000200160009055905585600101600086815260200190815260200160002060009055600193505050506106c1565b60009150506106c1565b5080546000825560040290600052602060002090810190610f3a91905b8082111561323057600080825560018201819055600282018190556003820155600401613208565b5090565b60006020828403121561324657600080fd5b81356001600160e01b03198116811461297857600080fd5b80356001600160a01b038116811461327557600080fd5b919050565b60006020828403121561328c57600080fd5b6129788261325e565b602080825282518282018190526000919060409081850190868401855b828110156132ec578151805185528681015187860152858101518686015260609081015190850152608090930192908501906001016132b2565b5091979650505050505050565b60005b838110156133145781810151838201526020016132fc565b50506000910152565b602081526000825180602084015261333c8160408501602087016132f9565b601f01601f19169190910160400192915050565b6000806040838503121561336357600080fd5b61336c8361325e565b946020939093013593505050565b6000806040838503121561338d57600080fd5b6133968361325e565b91506133a46020840161325e565b90509250929050565b634e487b7160e01b600052604160045260246000fd5b604051601f8201601f1916810167ffffffffffffffff811182821017156133ec576133ec6133ad565b604052919050565b600067ffffffffffffffff82111561340e5761340e6133ad565b5060051b60200190565b600082601f83011261342957600080fd5b8135602061343e613439836133f4565b6133c3565b82815260059290921b8401810191818101908684111561345d57600080fd5b8286015b848110156134785780358352918301918301613461565b509695505050505050565b6000806000806080858703121561349957600080fd5b843567ffffffffffffffff808211156134b157600080fd5b818701915087601f8301126134c557600080fd5b813560206134d5613439836133f4565b82815260059290921b8401810191818101908b8411156134f457600080fd5b948201945b838610156135195761350a8661325e565b825294820194908201906134f9565b9850508801359250508082111561352f57600080fd5b5061353c87828801613418565b949794965050505060408301359260600135919050565b60008060006060848603121561356857600080fd5b6135718461325e565b925061357f6020850161325e565b9150604084013590509250925092565b6000602082840312156135a157600080fd5b5035919050565b600080604083850312156135bb57600080fd5b823591506133a46020840161325e565b600080600080608085870312156135e157600080fd5b6135ea8561325e565b966020860135965060408601359560600135945092505050565b600080600080600060a0868803121561361c57600080fd5b6136258661325e565b97602087013597506040870135966060810135965060800135945092505050565b600080600080600080600060e0888a03121561366157600080fd5b61366a8861325e565b96506136786020890161325e565b95506040880135945060608801359350608088013560ff8116811461369c57600080fd5b9699959850939692959460a0840135945060c09093013592915050565b634e487b7160e01b600052603260045260246000fd5b634e487b7160e01b600052601160045260246000fd5b818103818111156106c1576106c16136cf565b60008261371557634e487b7160e01b600052601260045260246000fd5b500490565b808201808211156106c1576106c16136cf565b6000816000190483118215151615613747576137476136cf565b500290565b60006001820161375e5761375e6136cf565b5060010190565b60006020828403121561377757600080fd5b5051919050565b60006020828403121561379057600080fd5b8151801515811461297857600080fd5b600181811c908216806137b457607f821691505b6020821081036129a257634e487b7160e01b600052602260045260246000fd5b6020808252602b908201527f496e697469616c697a61626c653a20636f6e7472616374206973206e6f74206960408201526a6e697469616c697a696e6760a81b606082015260800190565b7f416363657373436f6e74726f6c3a206163636f756e74200000000000000000008152600083516138578160178501602088016132f9565b7001034b99036b4b9b9b4b733903937b6329607d1b60179184019182015283516138888160288401602088016132f9565b01602801949350505050565b601f821115610c3057600081815260208120601f850160051c810160208610156138bb5750805b601f850160051c820191505b81811015610cff578281556001016138c7565b815167ffffffffffffffff8111156138f4576138f46133ad565b6139088161390284546137a0565b84613894565b602080601f83116001811461393d57600084156139255750858301515b600019600386901b1c1916600185901b178555610cff565b600085815260208120601f198616915b8281101561396c5788860151825594840194600190910190840161394d565b508582101561398a5787850151600019600388901b60f8161c191681555b5050505050600190811b01905550565b634e487b7160e01b600052602160045260246000fd5b6000816139bf576139bf6136cf565b506000190190565b634e487b7160e01b600052603160045260246000fdfe9f2df0fed2c77648de5860a4cc508cd0818c85b8b8a1ab4ceeef8d981c8956a6a49807205ce4d355092ef5a8a18f56e8913cf4a201fbe287825b095693c21775a26469706673582212200661b8f67b19b8bd16527769573d315aeabe7114de19c89e3200ed902f6b193b64736f6c63430008100033",
  "linkReferences": {},
  "deployedLinkReferences": {}
}