{
  "_format": "hh-sol-artifact-1",
  "contractName": "cEVOUpgradeable",
  "sourceName": "contracts/ERC20/cEVOUpgradeable.sol",
  "abi": [
    {
      "inputs": [],
      "stateMutability": "nonpayable",
      "type": "constructor"
    },
    {
      "anonymous": false,
      "inputs": [
        {
          "indexed": true,
          "internalType": "address",
          "name": "owner",
          "type": "address"
        },
        {
          "indexed": true,
          "internalType": "address",
          "name": "spender",
          "type": "address"
        },
        {
          "indexed": false,
          "internalType": "uint256",
          "name": "value",
          "type": "uint256"
        }
      ],
      "name": "Approval",
      "type": "event"
    },
    {
      "anonymous": false,
      "inputs": [
        {
          "indexed": true,
          "internalType": "address",
          "name": "from",
          "type": "address"
        },
        {
          "indexed": false,
          "internalType": "uint256",
          "name": "amount",
          "type": "uint256"
        }
      ],
      "name": "ClaimedDisbursement",
      "type": "event"
    },
    {
      "anonymous": false,
      "inputs": [
        {
          "indexed": false,
          "internalType": "uint8",
          "name": "version",
          "type": "uint8"
        }
      ],
      "name": "Initialized",
      "type": "event"
    },
    {
      "anonymous": false,
      "inputs": [
        {
          "indexed": false,
          "internalType": "address",
          "name": "account",
          "type": "address"
        }
      ],
      "name": "Paused",
      "type": "event"
    },
    {
      "anonymous": false,
      "inputs": [
        {
          "indexed": true,
          "internalType": "bytes32",
          "name": "role",
          "type": "bytes32"
        },
        {
          "indexed": true,
          "internalType": "bytes32",
          "name": "previousAdminRole",
          "type": "bytes32"
        },
        {
          "indexed": true,
          "internalType": "bytes32",
          "name": "newAdminRole",
          "type": "bytes32"
        }
      ],
      "name": "RoleAdminChanged",
      "type": "event"
    },
    {
      "anonymous": false,
      "inputs": [
        {
          "indexed": true,
          "internalType": "bytes32",
          "name": "role",
          "type": "bytes32"
        },
        {
          "indexed": true,
          "internalType": "address",
          "name": "account",
          "type": "address"
        },
        {
          "indexed": true,
          "internalType": "address",
          "name": "sender",
          "type": "address"
        }
      ],
      "name": "RoleGranted",
      "type": "event"
    },
    {
      "anonymous": false,
      "inputs": [
        {
          "indexed": true,
          "internalType": "bytes32",
          "name": "role",
          "type": "bytes32"
        },
        {
          "indexed": true,
          "internalType": "address",
          "name": "account",
          "type": "address"
        },
        {
          "indexed": true,
          "internalType": "address",
          "name": "sender",
          "type": "address"
        }
      ],
      "name": "RoleRevoked",
      "type": "event"
    },
    {
      "anonymous": false,
      "inputs": [
        {
          "indexed": true,
          "internalType": "address",
          "name": "from",
          "type": "address"
        },
        {
          "indexed": true,
          "internalType": "address",
          "name": "to",
          "type": "address"
        },
        {
          "indexed": false,
          "internalType": "uint256",
          "name": "value",
          "type": "uint256"
        }
      ],
      "name": "Transfer",
      "type": "event"
    },
    {
      "anonymous": false,
      "inputs": [
        {
          "indexed": false,
          "internalType": "address",
          "name": "account",
          "type": "address"
        }
      ],
      "name": "Unpaused",
      "type": "event"
    },
    {
      "inputs": [],
      "name": "ADMIN_ROLE",
      "outputs": [
        {
          "internalType": "bytes32",
          "name": "",
          "type": "bytes32"
        }
      ],
      "stateMutability": "view",
      "type": "function"
    },
    {
      "inputs": [],
      "name": "DEFAULT_ADMIN_ROLE",
      "outputs": [
        {
          "internalType": "bytes32",
          "name": "",
          "type": "bytes32"
        }
      ],
      "stateMutability": "view",
      "type": "function"
    },
    {
      "inputs": [],
      "name": "DEFAULT_VESTING_PERIOD",
      "outputs": [
        {
          "internalType": "uint256",
          "name": "",
          "type": "uint256"
        }
      ],
      "stateMutability": "view",
      "type": "function"
    },
    {
      "inputs": [],
      "name": "DOMAIN_SEPARATOR",
      "outputs": [
        {
          "internalType": "bytes32",
          "name": "",
          "type": "bytes32"
        }
      ],
      "stateMutability": "view",
      "type": "function"
    },
    {
      "inputs": [],
      "name": "MINTER_ROLE",
      "outputs": [
        {
          "internalType": "bytes32",
          "name": "",
          "type": "bytes32"
        }
      ],
      "stateMutability": "view",
      "type": "function"
    },
    {
      "inputs": [
        {
          "internalType": "address",
          "name": "to",
          "type": "address"
        }
      ],
      "name": "addGlobalWhitelist",
      "outputs": [],
      "stateMutability": "nonpayable",
      "type": "function"
    },
    {
      "inputs": [
        {
          "internalType": "address",
          "name": "from",
          "type": "address"
        },
        {
          "internalType": "address",
          "name": "to",
          "type": "address"
        }
      ],
      "name": "addWhitelist",
      "outputs": [],
      "stateMutability": "nonpayable",
      "type": "function"
    },
    {
      "inputs": [
        {
          "internalType": "address",
          "name": "owner",
          "type": "address"
        },
        {
          "internalType": "address",
          "name": "spender",
          "type": "address"
        }
      ],
      "name": "allowance",
      "outputs": [
        {
          "internalType": "uint256",
          "name": "",
          "type": "uint256"
        }
      ],
      "stateMutability": "view",
      "type": "function"
    },
    {
      "inputs": [
        {
          "internalType": "address",
          "name": "spender",
          "type": "address"
        },
        {
          "internalType": "uint256",
          "name": "amount",
          "type": "uint256"
        }
      ],
      "name": "approve",
      "outputs": [
        {
          "internalType": "bool",
          "name": "",
          "type": "bool"
        }
      ],
      "stateMutability": "nonpayable",
      "type": "function"
    },
    {
      "inputs": [
        {
          "internalType": "address",
          "name": "account",
          "type": "address"
        }
      ],
      "name": "balanceOf",
      "outputs": [
        {
          "internalType": "uint256",
          "name": "",
          "type": "uint256"
        }
      ],
      "stateMutability": "view",
      "type": "function"
    },
    {
      "inputs": [
        {
          "internalType": "address[]",
          "name": "to",
          "type": "address[]"
        },
        {
          "internalType": "uint256[]",
          "name": "amount",
          "type": "uint256[]"
        },
        {
          "internalType": "uint256",
          "name": "startTime",
          "type": "uint256"
        },
        {
          "internalType": "uint256",
          "name": "duration",
          "type": "uint256"
        }
      ],
      "name": "batchMintDisbursement",
      "outputs": [],
      "stateMutability": "nonpayable",
      "type": "function"
    },
    {
      "inputs": [
        {
          "internalType": "address",
          "name": "to",
          "type": "address"
        },
        {
          "internalType": "uint256",
          "name": "startTime",
          "type": "uint256"
        },
        {
          "internalType": "uint256",
          "name": "duration",
          "type": "uint256"
        },
        {
          "internalType": "uint256",
          "name": "amount",
          "type": "uint256"
        },
        {
          "internalType": "uint256",
          "name": "balance",
          "type": "uint256"
        }
      ],
      "name": "bridgeMintDisbursement",
      "outputs": [],
      "stateMutability": "nonpayable",
      "type": "function"
    },
    {
      "inputs": [
        {
          "internalType": "uint256",
          "name": "amount",
          "type": "uint256"
        }
      ],
      "name": "burn",
      "outputs": [],
      "stateMutability": "nonpayable",
      "type": "function"
    },
    {
      "inputs": [
        {
          "internalType": "address",
          "name": "account",
          "type": "address"
        },
        {
          "internalType": "uint256",
          "name": "amount",
          "type": "uint256"
        }
      ],
      "name": "burnFrom",
      "outputs": [],
      "stateMutability": "nonpayable",
      "type": "function"
    },
    {
      "inputs": [],
      "name": "burnLocked",
      "outputs": [],
      "stateMutability": "nonpayable",
      "type": "function"
    },
    {
      "inputs": [],
      "name": "claimPending",
      "outputs": [],
      "stateMutability": "nonpayable",
      "type": "function"
    },
    {
      "inputs": [],
      "name": "decimals",
      "outputs": [
        {
          "internalType": "uint8",
          "name": "",
          "type": "uint8"
        }
      ],
      "stateMutability": "view",
      "type": "function"
    },
    {
      "inputs": [
        {
          "internalType": "address",
          "name": "spender",
          "type": "address"
        },
        {
          "internalType": "uint256",
          "name": "subtractedValue",
          "type": "uint256"
        }
      ],
      "name": "decreaseAllowance",
      "outputs": [
        {
          "internalType": "bool",
          "name": "",
          "type": "bool"
        }
      ],
      "stateMutability": "nonpayable",
      "type": "function"
    },
    {
      "inputs": [
        {
          "internalType": "address",
          "name": "",
          "type": "address"
        },
        {
          "internalType": "uint256",
          "name": "",
          "type": "uint256"
        }
      ],
      "name": "disbursements",
      "outputs": [
        {
          "internalType": "uint256",
          "name": "startTime",
          "type": "uint256"
        },
        {
          "internalType": "uint256",
          "name": "duration",
          "type": "uint256"
        },
        {
          "internalType": "uint256",
          "name": "amount",
          "type": "uint256"
        },
        {
          "internalType": "uint256",
          "name": "balance",
          "type": "uint256"
        }
      ],
      "stateMutability": "view",
      "type": "function"
    },
    {
      "inputs": [
        {
          "internalType": "address",
          "name": "_address",
          "type": "address"
        }
      ],
      "name": "disbursementsOf",
      "outputs": [
        {
          "components": [
            {
              "internalType": "uint256",
              "name": "startTime",
              "type": "uint256"
            },
            {
              "internalType": "uint256",
              "name": "duration",
              "type": "uint256"
            },
            {
              "internalType": "uint256",
              "name": "amount",
              "type": "uint256"
            },
            {
              "internalType": "uint256",
              "name": "balance",
              "type": "uint256"
            }
          ],
          "internalType": "struct cEVOUpgradeable.Disbursement[]",
          "name": "",
          "type": "tuple[]"
        }
      ],
      "stateMutability": "view",
      "type": "function"
    },
    {
      "inputs": [
        {
          "internalType": "bytes32",
          "name": "role",
          "type": "bytes32"
        }
      ],
      "name": "getRoleAdmin",
      "outputs": [
        {
          "internalType": "bytes32",
          "name": "",
          "type": "bytes32"
        }
      ],
      "stateMutability": "view",
      "type": "function"
    },
    {
      "inputs": [
        {
          "internalType": "bytes32",
          "name": "role",
          "type": "bytes32"
        },
        {
          "internalType": "address",
          "name": "account",
          "type": "address"
        }
      ],
      "name": "grantRole",
      "outputs": [],
      "stateMutability": "nonpayable",
      "type": "function"
    },
    {
      "inputs": [
        {
          "internalType": "bytes32",
          "name": "role",
          "type": "bytes32"
        },
        {
          "internalType": "address",
          "name": "account",
          "type": "address"
        }
      ],
      "name": "hasRole",
      "outputs": [
        {
          "internalType": "bool",
          "name": "",
          "type": "bool"
        }
      ],
      "stateMutability": "view",
      "type": "function"
    },
    {
      "inputs": [
        {
          "internalType": "address",
          "name": "spender",
          "type": "address"
        },
        {
          "internalType": "uint256",
          "name": "addedValue",
          "type": "uint256"
        }
      ],
      "name": "increaseAllowance",
      "outputs": [
        {
          "internalType": "bool",
          "name": "",
          "type": "bool"
        }
      ],
      "stateMutability": "nonpayable",
      "type": "function"
    },
    {
      "inputs": [],
      "name": "initialize",
      "outputs": [],
      "stateMutability": "nonpayable",
      "type": "function"
    },
    {
      "inputs": [
        {
          "internalType": "address",
          "name": "",
          "type": "address"
        }
      ],
      "name": "lockedOf",
      "outputs": [
        {
          "internalType": "uint256",
          "name": "",
          "type": "uint256"
        }
      ],
      "stateMutability": "view",
      "type": "function"
    },
    {
      "inputs": [
        {
          "internalType": "address",
          "name": "_address",
          "type": "address"
        },
        {
          "internalType": "uint256",
          "name": "amount",
          "type": "uint256"
        }
      ],
      "name": "mint",
      "outputs": [],
      "stateMutability": "nonpayable",
      "type": "function"
    },
    {
      "inputs": [
        {
          "internalType": "address",
          "name": "to",
          "type": "address"
        },
        {
          "internalType": "uint256",
          "name": "startTime",
          "type": "uint256"
        },
        {
          "internalType": "uint256",
          "name": "duration",
          "type": "uint256"
        },
        {
          "internalType": "uint256",
          "name": "amount",
          "type": "uint256"
        }
      ],
      "name": "mintDisbursement",
      "outputs": [],
      "stateMutability": "nonpayable",
      "type": "function"
    },
    {
      "inputs": [
        {
          "internalType": "address",
          "name": "to",
          "type": "address"
        }
      ],
      "name": "moveLocked",
      "outputs": [],
      "stateMutability": "nonpayable",
      "type": "function"
    },
    {
      "inputs": [],
      "name": "name",
      "outputs": [
        {
          "internalType": "string",
          "name": "",
          "type": "string"
        }
      ],
      "stateMutability": "view",
      "type": "function"
    },
    {
      "inputs": [
        {
          "internalType": "address",
          "name": "owner",
          "type": "address"
        }
      ],
      "name": "nonces",
      "outputs": [
        {
          "internalType": "uint256",
          "name": "",
          "type": "uint256"
        }
      ],
      "stateMutability": "view",
      "type": "function"
    },
    {
      "inputs": [],
      "name": "pause",
      "outputs": [],
      "stateMutability": "nonpayable",
      "type": "function"
    },
    {
      "inputs": [],
      "name": "paused",
      "outputs": [
        {
          "internalType": "bool",
          "name": "",
          "type": "bool"
        }
      ],
      "stateMutability": "view",
      "type": "function"
    },
    {
      "inputs": [
        {
          "internalType": "address",
          "name": "_address",
          "type": "address"
        }
      ],
      "name": "pendingOf",
      "outputs": [
        {
          "internalType": "uint256",
          "name": "",
          "type": "uint256"
        }
      ],
      "stateMutability": "view",
      "type": "function"
    },
    {
      "inputs": [
        {
          "internalType": "address",
          "name": "owner",
          "type": "address"
        },
        {
          "internalType": "address",
          "name": "spender",
          "type": "address"
        },
        {
          "internalType": "uint256",
          "name": "value",
          "type": "uint256"
        },
        {
          "internalType": "uint256",
          "name": "deadline",
          "type": "uint256"
        },
        {
          "internalType": "uint8",
          "name": "v",
          "type": "uint8"
        },
        {
          "internalType": "bytes32",
          "name": "r",
          "type": "bytes32"
        },
        {
          "internalType": "bytes32",
          "name": "s",
          "type": "bytes32"
        }
      ],
      "name": "permit",
      "outputs": [],
      "stateMutability": "nonpayable",
      "type": "function"
    },
    {
      "inputs": [
        {
          "internalType": "bytes32",
          "name": "role",
          "type": "bytes32"
        },
        {
          "internalType": "address",
          "name": "account",
          "type": "address"
        }
      ],
      "name": "renounceRole",
      "outputs": [],
      "stateMutability": "nonpayable",
      "type": "function"
    },
    {
      "inputs": [
        {
          "internalType": "bytes32",
          "name": "role",
          "type": "bytes32"
        },
        {
          "internalType": "address",
          "name": "account",
          "type": "address"
        }
      ],
      "name": "revokeRole",
      "outputs": [],
      "stateMutability": "nonpayable",
      "type": "function"
    },
    {
      "inputs": [
        {
          "internalType": "bytes4",
          "name": "interfaceId",
          "type": "bytes4"
        }
      ],
      "name": "supportsInterface",
      "outputs": [
        {
          "internalType": "bool",
          "name": "",
          "type": "bool"
        }
      ],
      "stateMutability": "view",
      "type": "function"
    },
    {
      "inputs": [],
      "name": "symbol",
      "outputs": [
        {
          "internalType": "string",
          "name": "",
          "type": "string"
        }
      ],
      "stateMutability": "view",
      "type": "function"
    },
    {
      "inputs": [],
      "name": "totalBurned",
      "outputs": [
        {
          "internalType": "uint256",
          "name": "",
          "type": "uint256"
        }
      ],
      "stateMutability": "view",
      "type": "function"
    },
    {
      "inputs": [],
      "name": "totalSupply",
      "outputs": [
        {
          "internalType": "uint256",
          "name": "",
          "type": "uint256"
        }
      ],
      "stateMutability": "view",
      "type": "function"
    },
    {
      "inputs": [
        {
          "internalType": "address",
          "name": "to",
          "type": "address"
        },
        {
          "internalType": "uint256",
          "name": "amount",
          "type": "uint256"
        }
      ],
      "name": "transfer",
      "outputs": [
        {
          "internalType": "bool",
          "name": "",
          "type": "bool"
        }
      ],
      "stateMutability": "nonpayable",
      "type": "function"
    },
    {
      "inputs": [
        {
          "internalType": "address",
          "name": "from",
          "type": "address"
        },
        {
          "internalType": "address",
          "name": "to",
          "type": "address"
        },
        {
          "internalType": "uint256",
          "name": "amount",
          "type": "uint256"
        }
      ],
      "name": "transferFrom",
      "outputs": [
        {
          "internalType": "bool",
          "name": "",
          "type": "bool"
        }
      ],
      "stateMutability": "nonpayable",
      "type": "function"
    },
    {
      "inputs": [
        {
          "internalType": "address",
          "name": "",
          "type": "address"
        }
      ],
      "name": "transferTime",
      "outputs": [
        {
          "internalType": "uint256",
          "name": "",
          "type": "uint256"
        }
      ],
      "stateMutability": "view",
      "type": "function"
    },
    {
      "inputs": [],
      "name": "unpause",
      "outputs": [],
      "stateMutability": "nonpayable",
      "type": "function"
    },
    {
      "inputs": [
        {
          "internalType": "address",
          "name": "account",
          "type": "address"
        },
        {
          "internalType": "uint256",
          "name": "amount",
          "type": "uint256"
        }
      ],
      "name": "useLocked",
      "outputs": [],
      "stateMutability": "nonpayable",
      "type": "function"
    }
  ],
  "bytecode": "0x60806040523480156200001157600080fd5b506200001c62000022565b620000e4565b600054610100900460ff16156200008f5760405162461bcd60e51b815260206004820152602760248201527f496e697469616c697a61626c653a20636f6e747261637420697320696e697469604482015266616c697a696e6760c81b606482015260840160405180910390fd5b60005460ff9081161015620000e2576000805460ff191660ff9081179091556040519081527f7f26b83ff96e1f2b6a682f133852f6798a09c465da95921460cefb38474024989060200160405180910390a15b565b6132b180620000f46000396000f3fe608060405234801561001057600080fd5b506004361061028a5760003560e01c806379cc67901161015c578063a6d2ba52116100ce578063d539139311610087578063d5391393146105a7578063d547741f146105bc578063d89135cd146105cf578063dd62ed3e146105d8578063f44136a1146105eb578063fbb2e10e146105fe57600080fd5b8063a6d2ba5214610535578063a73d633c14610548578063a9059cbb1461055b578063b45cc8451461056e578063c06bab2b14610581578063d505accf1461059457600080fd5b806391d148541161012057806391d14854146104bd57806393866707146104d057806395d89b41146104f1578063a217fddf146104f9578063a457c2d714610501578063a5f1e2821461051457600080fd5b806379cc6790146104545780637a153043146104675780637ecebe001461049a5780638129fc1c146104ad5780638456cb59146104b557600080fd5b8063313ce5671161020057806340c10f19116101b957806340c10f19146103dd57806342966c68146103f05780634d3ef8dd146104035780635c975abb1461040b57806370a082311461041657806375b238fc1461043f57600080fd5b8063313ce56714610385578063314f8454146103945780633644e515146103a757806336568abe146103af57806339509351146103c25780633f4ba83a146103d557600080fd5b8063098480ec11610252578063098480ec14610309578063181341111461032157806318160ddd1461033457806323b872dd1461033c578063248a9ca31461034f5780632f2ff15d1461037257600080fd5b806301ffc9a71461028f57806303a9f06e146102b757806305cea05f146102c157806306fdde03146102e1578063095ea7b3146102f6575b600080fd5b6102a261029d366004612b84565b610611565b60405190151581526020015b60405180910390f35b6102bf610648565b005b6102d46102cf366004612bca565b6108dd565b6040516102ae9190612be5565b6102e961097b565b6040516102ae9190612c75565b6102a2610304366004612ca8565b610a0d565b6103136101c65481565b6040519081526020016102ae565b6102bf61032f366004612da8565b610a25565b603554610313565b6102a261034a366004612e78565b610af7565b61031361035d366004612eb4565b600090815260c9602052604090206001015490565b6102bf610380366004612ecd565b610b1b565b604051601281526020016102ae565b6102bf6103a2366004612ef9565b610b45565b610313610c69565b6102bf6103bd366004612ecd565b610c78565b6102a26103d0366004612ca8565b610cf2565b6102bf610d14565b6102bf6103eb366004612ca8565b610d37565b6102bf6103fe366004612eb4565b610dec565b6102bf610e2d565b60655460ff166102a2565b610313610424366004612bca565b6001600160a01b031660009081526033602052604090205490565b61031360008051602061325c83398151915281565b6102bf610462366004612ca8565b610edb565b61047a610475366004612ca8565b610ee5565b6040805194855260208501939093529183015260608201526080016102ae565b6103136104a8366004612bca565b610f2c565b6102bf610f4b565b6102bf61113d565b6102a26104cb366004612ecd565b61115d565b6103136104de366004612bca565b6101cc6020526000908152604090205481565b6102e9611188565b610313600081565b6102a261050f366004612ca8565b611197565b610313610522366004612bca565b6101cb6020526000908152604090205481565b6102bf610543366004612f32565b611212565b6102bf610556366004612f74565b611337565b6102a2610569366004612ca8565b61136b565b6102bf61057c366004612bca565b611379565b6102bf61058f366004612ca8565b611390565b6102bf6105a2366004612f9e565b6114c5565b61031360008051602061323c83398151915281565b6102bf6105ca366004612ecd565b611629565b61016254610313565b6103136105e6366004612f74565b61164e565b6103136105f9366004612bca565b611679565b6102bf61060c366004612bca565b611766565b60006001600160e01b03198216637965db0b60e01b148061064257506301ffc9a760e01b6001600160e01b03198316145b92915050565b610650611922565b6000805b3360009081526101ca6020526040902054811015610746573360009081526101ca6020526040812080548390811061068e5761068e613011565b906000526020600020906004020190506000816003015482600201546106b4919061303d565b90506000826001015483600201546106cc9190613054565b90506000818460000154426106e1919061303d565b6106eb9190613076565b90508083101561072f576106ff838261303d565b846003016000828254610712919061303d565b909155506107229050838261303d565b61072c9087613095565b95505b50505050808061073e906130ad565b915050610654565b508061074f5750565b61075a335b82611968565b6101c5546040516370a0823160e01b815230600482015282916001600160a01b0316906370a082319060240160206040518083038186803b15801561079e57600080fd5b505afa1580156107b2573d6000803e3d6000fd5b505050506040513d601f19601f820116820180604052508101906107d691906130c8565b1115610873576101c5546001600160a01b031663a9059cbb336040516001600160e01b031960e084901b1681526001600160a01b03909116600482015260248101849052604401602060405180830381600087803b15801561083757600080fd5b505af115801561084b573d6000803e3d6000fd5b505050506040513d601f19601f8201168201806040525081019061086f91906130e1565b5050565b6101c5546040516340c10f1960e01b8152336004820152602481018390526001600160a01b03909116906340c10f19906044015b600060405180830381600087803b1580156108c157600080fd5b505af11580156108d5573d6000803e3d6000fd5b50505050505b565b6001600160a01b03811660009081526101ca60209081526040808320805482518185028101850190935280835260609492939192909184015b82821015610970578382906000526020600020906004020160405180608001604052908160008201548152602001600182015481526020016002820154815260200160038201548152505081526020019060010190610916565b505050509050919050565b60606036805461098a90613103565b80601f01602080910402602001604051908101604052809291908181526020018280546109b690613103565b8015610a035780601f106109d857610100808354040283529160200191610a03565b820191906000526020600020905b8154815290600101906020018083116109e657829003601f168201915b5050505050905090565b600033610a1b818585611ac2565b5060019392505050565b60008051602061323c833981519152610a3d81611be6565b8351855114610a935760405162461bcd60e51b815260206004820152601f60248201527f746f20616e6420616d6f756e7420617272617973206d757374206d617463680060448201526064015b60405180910390fd5b60005b8551811015610aef57610add868281518110610ab457610ab4613011565b60200260200101518585888581518110610ad057610ad0613011565b6020026020010151610b45565b80610ae7816130ad565b915050610a96565b505050505050565b600033610b05858285611bf0565b610b10858585611c64565b506001949350505050565b600082815260c96020526040902060010154610b3681611be6565b610b408383611e3d565b505050565b60008051602061323c833981519152610b5d81611be6565b6000808511610b6c5742610b6e565b845b90506000808511610b82576101c654610b84565b845b6001600160a01b0388811660009081526101ca6020908152604080832081516080810183528881528084018781528184018c8152606083018d815284546001808201875595895296909720925160049687029093019283559051928201929092559051600282015592516003909301929092556101c55491516340c10f1960e01b815230918101919091526024810188905292935016906340c10f1990604401600060405180830381600087803b158015610c3e57600080fd5b505af1158015610c52573d6000803e3d6000fd5b50505050610c608785611ec3565b50505050505050565b6000610c73611fae565b905090565b6001600160a01b0381163314610ce85760405162461bcd60e51b815260206004820152602f60248201527f416363657373436f6e74726f6c3a2063616e206f6e6c792072656e6f756e636560448201526e103937b632b9903337b91039b2b63360891b6064820152608401610a8a565b61086f8282612029565b600033610a1b818585610d05838361164e565b610d0f9190613095565b611ac2565b60008051602061325c833981519152610d2c81611be6565b610d34612090565b50565b60008051602061323c833981519152610d4f81611be6565b6001600160a01b03831660009081526101cb602052604081208054849290610d78908490613095565b90915550506101c5546040516340c10f1960e01b8152306004820152602481018490526001600160a01b03909116906340c10f1990604401600060405180830381600087803b158015610dca57600080fd5b505af1158015610dde573d6000803e3d6000fd5b50505050610b408383611ec3565b610df5816120e2565b6101c554604051632770a7eb60e21b8152306004820152602481018390526001600160a01b0390911690639dc29fac906044016108a7565b60008051602061323c833981519152610e4581611be6565b306000908152603360205260408120549050806101626000828254610e6a9190613095565b90915550610e7a90503082611968565b6101c55460405163079cc67960e41b8152306004820152602481018390526001600160a01b03909116906379cc679090604401600060405180830381600087803b158015610ec757600080fd5b505af1158015610aef573d6000803e3d6000fd5b610e7a8282612104565b6101ca6020528160005260406000208181548110610f0257600080fd5b60009182526020909120600490910201805460018201546002830154600390930154919450925084565b6001600160a01b038116600090815261012f6020526040812054610642565b600054610100900460ff1615808015610f6b5750600054600160ff909116105b80610f855750303b158015610f85575060005460ff166001145b610fe85760405162461bcd60e51b815260206004820152602e60248201527f496e697469616c697a61626c653a20636f6e747261637420697320616c72656160448201526d191e481a5b9a5d1a585b1a5e995960921b6064820152608401610a8a565b6000805460ff19166001179055801561100b576000805461ff0019166101001790555b61104d604051806040016040528060048152602001636345564f60e01b815250604051806040016040528060048152602001636345564f60e01b815250612142565b611055612173565b61105d6121a2565b611082604051806040016040528060048152602001636345564f60e01b8152506121c9565b61108a6121a2565b611095600033611e3d565b6110ad60008051602061325c83398151915233611e3d565b6110c560008051602061323c83398151915233611e3d565b6101c580546001600160a01b0319167342006ab57701251b580bdfc24778c43c9ff589a11790556301e133806101c6558015610d34576000805461ff0019169055604051600181527f7f26b83ff96e1f2b6a682f133852f6798a09c465da95921460cefb38474024989060200160405180910390a150565b60008051602061325c83398151915261115581611be6565b610d34612213565b600091825260c9602090815260408084206001600160a01b0393909316845291905290205460ff1690565b60606037805461098a90613103565b600033816111a5828661164e565b9050838110156112055760405162461bcd60e51b815260206004820152602560248201527f45524332303a2064656372656173656420616c6c6f77616e63652062656c6f77604482015264207a65726f60d81b6064820152608401610a8a565b610b108286868403611ac2565b60008051602061323c83398151915261122a81611be6565b6000808611611239574261123b565b855b9050600080861161124f576101c654611251565b855b6001600160a01b0389811660009081526101ca6020908152604080832081516080810183528881528084018781528184018d8152606083018d815284546001808201875595895296909720925160049687029093019283559051928201929092559051600282015592516003909301929092556101c55491516340c10f1960e01b815230918101919091526024810188905292935016906340c10f1990604401600060405180830381600087803b15801561130b57600080fd5b505af115801561131f573d6000803e3d6000fd5b5050505061132d8885611ec3565b5050505050505050565b600061134281611be6565b6001600160a01b03831660009081526101c9602052604090206113659083612250565b50505050565b600033610a1b818585611c64565b600061138481611be6565b610b406101c783612250565b60008051602061323c8339815191526113a881611be6565b6001600160a01b03831660009081526101cb60205260409020548211156114115760405162461bcd60e51b815260206004820152601b60248201527f496e73756666696369656e74206c6f636b65642062616c616e636500000000006044820152606401610a8a565b6001600160a01b03831660009081526101cb60205260408120805484929061143a90849061303d565b925050819055508161016260008282546114549190613095565b9091555061146490508383611968565b6101c55460405163079cc67960e41b8152306004820152602481018490526001600160a01b03909116906379cc679090604401600060405180830381600087803b1580156114b157600080fd5b505af1158015610c60573d6000803e3d6000fd5b834211156115155760405162461bcd60e51b815260206004820152601d60248201527f45524332305065726d69743a206578706972656420646561646c696e650000006044820152606401610a8a565b60007f6e71edae12b1b97f4d1f60370fef10105fa2faae0126114a169c64845d6126c98888886115448c61226c565b6040805160208101969096526001600160a01b0394851690860152929091166060840152608083015260a082015260c0810186905260e001604051602081830303815290604052805190602001209050600061159f82612295565b905060006115af828787876122e3565b9050896001600160a01b0316816001600160a01b0316146116125760405162461bcd60e51b815260206004820152601e60248201527f45524332305065726d69743a20696e76616c6964207369676e617475726500006044820152606401610a8a565b61161d8a8a8a611ac2565b50505050505050505050565b600082815260c9602052604090206001015461164481611be6565b610b408383612029565b6001600160a01b03918216600090815260346020908152604080832093909416825291909152205490565b600080805b6001600160a01b03841660009081526101ca602052604090205481101561175f576001600160a01b03841660009081526101ca602052604081208054839081106116ca576116ca613011565b906000526020600020906004020190506000816003015482600201546116f0919061303d565b90506000826001015483600201546117089190613054565b905060008184600001544261171d919061303d565b6117279190613076565b9050808310156117485761173b838261303d565b6117459087613095565b95505b505050508080611757906130ad565b91505061167e565b5092915050565b600061177181611be6565b3360009081526101cb6020526040902054806117bc5760405162461bcd60e51b815260206004820152600a6024820152694e6f2062616c616e636560b01b6044820152606401610a8a565b6117c86101c73361230b565b15806117dd57506117db6101c78461230b565b155b156118ab573360009081526101cc60205260409020544211801561181957506001600160a01b03831660009081526101cc602052604090205442115b6118655760405162461bcd60e51b815260206004820152601f60248201527f436f6f6c646f776e20706572696f6420686173206e6f7420656c6170736564006044820152606401610a8a565b611872426276a700613095565b3360009081526101cc6020526040902055611890426276a700613095565b6001600160a01b03841660009081526101cc60205260409020555b3360009081526101cb60205260408082208290556001600160a01b0385168252812080548392906118dd908490613095565b90915550503360009081526101c9602052604090206118fc9084612250565b50611908338483611c64565b3360009081526101c960205260409020611365908461232d565b60655460ff16156108db5760405162461bcd60e51b815260206004820152601060248201526f14185d5cd8589b194e881c185d5cd95960821b6044820152606401610a8a565b6001600160a01b0382166119c85760405162461bcd60e51b815260206004820152602160248201527f45524332303a206275726e2066726f6d20746865207a65726f206164647265736044820152607360f81b6064820152608401610a8a565b6119d482600083612342565b6001600160a01b03821660009081526033602052604090205481811015611a485760405162461bcd60e51b815260206004820152602260248201527f45524332303a206275726e20616d6f756e7420657863656564732062616c616e604482015261636560f01b6064820152608401610a8a565b6001600160a01b0383166000908152603360205260408120838303905560358054849290611a7790849061303d565b90915550506040518281526000906001600160a01b038516907fddf252ad1be2c89b69c2b068fc378daa952ba7f163c4a11628f55a4df523b3ef9060200160405180910390a3505050565b6001600160a01b038316611b245760405162461bcd60e51b8152602060048201526024808201527f45524332303a20617070726f76652066726f6d20746865207a65726f206164646044820152637265737360e01b6064820152608401610a8a565b6001600160a01b038216611b855760405162461bcd60e51b815260206004820152602260248201527f45524332303a20617070726f766520746f20746865207a65726f206164647265604482015261737360f01b6064820152608401610a8a565b6001600160a01b0383811660008181526034602090815260408083209487168084529482529182902085905590518481527f8c5be1e5ebec7d5bd14f71427d1e84f3dd0314c0f7b2291e5b200ac8c7c3b925910160405180910390a3505050565b610d3481336123f6565b6000611bfc848461164e565b905060001981146113655781811015611c575760405162461bcd60e51b815260206004820152601d60248201527f45524332303a20696e73756666696369656e7420616c6c6f77616e63650000006044820152606401610a8a565b6113658484848403611ac2565b6001600160a01b038316611cc85760405162461bcd60e51b815260206004820152602560248201527f45524332303a207472616e736665722066726f6d20746865207a65726f206164604482015264647265737360d81b6064820152608401610a8a565b6001600160a01b038216611d2a5760405162461bcd60e51b815260206004820152602360248201527f45524332303a207472616e7366657220746f20746865207a65726f206164647260448201526265737360e81b6064820152608401610a8a565b611d35838383612342565b6001600160a01b03831660009081526033602052604090205481811015611dad5760405162461bcd60e51b815260206004820152602660248201527f45524332303a207472616e7366657220616d6f756e7420657863656564732062604482015265616c616e636560d01b6064820152608401610a8a565b6001600160a01b03808516600090815260336020526040808220858503905591851681529081208054849290611de4908490613095565b92505081905550826001600160a01b0316846001600160a01b03167fddf252ad1be2c89b69c2b068fc378daa952ba7f163c4a11628f55a4df523b3ef84604051611e3091815260200190565b60405180910390a3611365565b611e47828261115d565b61086f57600082815260c9602090815260408083206001600160a01b03851684529091529020805460ff19166001179055611e7f3390565b6001600160a01b0316816001600160a01b0316837f2f8788117e7eff1d82e926ec794901d17c78024a50270940304540a733656f0d60405160405180910390a45050565b6001600160a01b038216611f195760405162461bcd60e51b815260206004820152601f60248201527f45524332303a206d696e7420746f20746865207a65726f2061646472657373006044820152606401610a8a565b611f2560008383612342565b8060356000828254611f379190613095565b90915550506001600160a01b03821660009081526033602052604081208054839290611f64908490613095565b90915550506040518181526001600160a01b038316906000907fddf252ad1be2c89b69c2b068fc378daa952ba7f163c4a11628f55a4df523b3ef9060200160405180910390a35050565b6000610c737f8b73c3c69bb8fe3d512ecc4cf759cc79239f7b179b0ffacaa9a75d522b39400f611fdd60fb5490565b60fc546040805160208101859052908101839052606081018290524660808201523060a082015260009060c0016040516020818303038152906040528051906020012090509392505050565b612033828261115d565b1561086f57600082815260c9602090815260408083206001600160a01b0385168085529252808320805460ff1916905551339285917ff6391f5c32d9c69d2a47ea670b442974b53935d1edc7fd64eb21e047a839171b9190a45050565b61209861245a565b6065805460ff191690557f5db9ee0a495bf2e6ff9c91a7834c1ba4fdd244a5e8aa4e537bd38aeae4b073aa335b6040516001600160a01b03909116815260200160405180910390a1565b8061016260008282546120f59190613095565b90915550610d34905033610754565b6001600160a01b038216331461211f5761211f823383611bf0565b8061016260008282546121329190613095565b9091555061086f90508282611968565b600054610100900460ff166121695760405162461bcd60e51b8152600401610a8a90613138565b61086f82826124a3565b600054610100900460ff1661219a5760405162461bcd60e51b8152600401610a8a90613138565b6108db6124f1565b600054610100900460ff166108db5760405162461bcd60e51b8152600401610a8a90613138565b600054610100900460ff166121f05760405162461bcd60e51b8152600401610a8a90613138565b610d3481604051806040016040528060018152602001603160f81b815250612524565b61221b611922565b6065805460ff191660011790557f62e78cea01bee320cd4e420270b5ea74000d11b0c9f74754ebdbfc544b05a2586120c53390565b6000612265836001600160a01b038416612565565b9392505050565b6001600160a01b038116600090815261012f602052604090208054600181018255905b50919050565b60006106426122a2611fae565b8360405161190160f01b6020820152602281018390526042810182905260009060620160405160208183030381529060405280519060200120905092915050565b60008060006122f4878787876125b4565b91509150612301816126a1565b5095945050505050565b6001600160a01b03811660009081526001830160205260408120541515612265565b6000612265836001600160a01b03841661285c565b61234a611922565b82826123586101c78261230b565b8061238157506001600160a01b03821660009081526101c960205260409020612381908261230b565b8061239357506001600160a01b038216155b806123a557506001600160a01b038116155b6123f15760405162461bcd60e51b815260206004820152601860248201527f6345564f206973206e6f6e2d7472616e7366657261626c6500000000000000006044820152606401610a8a565b6108d5565b612400828261115d565b61086f57612418816001600160a01b0316601461294f565b61242383602061294f565b604051602001612434929190613183565b60408051601f198184030181529082905262461bcd60e51b8252610a8a91600401612c75565b60655460ff166108db5760405162461bcd60e51b815260206004820152601460248201527314185d5cd8589b194e881b9bdd081c185d5cd95960621b6044820152606401610a8a565b600054610100900460ff166124ca5760405162461bcd60e51b8152600401610a8a90613138565b81516124dd906036906020850190612aeb565b508051610b40906037906020840190612aeb565b600054610100900460ff166125185760405162461bcd60e51b8152600401610a8a90613138565b6065805460ff19169055565b600054610100900460ff1661254b5760405162461bcd60e51b8152600401610a8a90613138565b81516020928301208151919092012060fb9190915560fc55565b60008181526001830160205260408120546125ac57508154600181810184556000848152602080822090930184905584548482528286019093526040902091909155610642565b506000610642565b6000807f7fffffffffffffffffffffffffffffff5d576e7357a4501ddfe92f46681b20a08311156125eb5750600090506003612698565b8460ff16601b1415801561260357508460ff16601c14155b156126145750600090506004612698565b6040805160008082526020820180845289905260ff881692820192909252606081018690526080810185905260019060a0016020604051602081039080840390855afa158015612668573d6000803e3d6000fd5b5050604051601f1901519150506001600160a01b03811661269157600060019250925050612698565b9150600090505b94509492505050565b60008160048111156126b5576126b56131f8565b14156126be5750565b60018160048111156126d2576126d26131f8565b14156127205760405162461bcd60e51b815260206004820152601860248201527f45434453413a20696e76616c6964207369676e617475726500000000000000006044820152606401610a8a565b6002816004811115612734576127346131f8565b14156127825760405162461bcd60e51b815260206004820152601f60248201527f45434453413a20696e76616c6964207369676e6174757265206c656e677468006044820152606401610a8a565b6003816004811115612796576127966131f8565b14156127ef5760405162461bcd60e51b815260206004820152602260248201527f45434453413a20696e76616c6964207369676e6174757265202773272076616c604482015261756560f01b6064820152608401610a8a565b6004816004811115612803576128036131f8565b1415610d345760405162461bcd60e51b815260206004820152602260248201527f45434453413a20696e76616c6964207369676e6174757265202776272076616c604482015261756560f01b6064820152608401610a8a565b6000818152600183016020526040812054801561294557600061288060018361303d565b85549091506000906128949060019061303d565b90508181146128f95760008660000182815481106128b4576128b4613011565b90600052602060002001549050808760000184815481106128d7576128d7613011565b6000918252602080832090910192909255918252600188019052604090208390555b855486908061290a5761290a61320e565b600190038181906000526020600020016000905590558560010160008681526020019081526020016000206000905560019350505050610642565b6000915050610642565b6060600061295e836002613076565b612969906002613095565b67ffffffffffffffff81111561298157612981612cd2565b6040519080825280601f01601f1916602001820160405280156129ab576020820181803683370190505b509050600360fc1b816000815181106129c6576129c6613011565b60200101906001600160f81b031916908160001a905350600f60fb1b816001815181106129f5576129f5613011565b60200101906001600160f81b031916908160001a9053506000612a19846002613076565b612a24906001613095565b90505b6001811115612a9c576f181899199a1a9b1b9c1cb0b131b232b360811b85600f1660108110612a5857612a58613011565b1a60f81b828281518110612a6e57612a6e613011565b60200101906001600160f81b031916908160001a90535060049490941c93612a9581613224565b9050612a27565b5083156122655760405162461bcd60e51b815260206004820181905260248201527f537472696e67733a20686578206c656e67746820696e73756666696369656e746044820152606401610a8a565b828054612af790613103565b90600052602060002090601f016020900481019282612b195760008555612b5f565b82601f10612b3257805160ff1916838001178555612b5f565b82800160010185558215612b5f579182015b82811115612b5f578251825591602001919060010190612b44565b50612b6b929150612b6f565b5090565b5b80821115612b6b5760008155600101612b70565b600060208284031215612b9657600080fd5b81356001600160e01b03198116811461226557600080fd5b80356001600160a01b0381168114612bc557600080fd5b919050565b600060208284031215612bdc57600080fd5b61226582612bae565b602080825282518282018190526000919060409081850190868401855b82811015612c3c57815180518552868101518786015285810151868601526060908101519085015260809093019290850190600101612c02565b5091979650505050505050565b60005b83811015612c64578181015183820152602001612c4c565b838111156113655750506000910152565b6020815260008251806020840152612c94816040850160208701612c49565b601f01601f19169190910160400192915050565b60008060408385031215612cbb57600080fd5b612cc483612bae565b946020939093013593505050565b634e487b7160e01b600052604160045260246000fd5b604051601f8201601f1916810167ffffffffffffffff81118282101715612d1157612d11612cd2565b604052919050565b600067ffffffffffffffff821115612d3357612d33612cd2565b5060051b60200190565b600082601f830112612d4e57600080fd5b81356020612d63612d5e83612d19565b612ce8565b82815260059290921b84018101918181019086841115612d8257600080fd5b8286015b84811015612d9d5780358352918301918301612d86565b509695505050505050565b60008060008060808587031215612dbe57600080fd5b843567ffffffffffffffff80821115612dd657600080fd5b818701915087601f830112612dea57600080fd5b81356020612dfa612d5e83612d19565b82815260059290921b8401810191818101908b841115612e1957600080fd5b948201945b83861015612e3e57612e2f86612bae565b82529482019490820190612e1e565b98505088013592505080821115612e5457600080fd5b50612e6187828801612d3d565b949794965050505060408301359260600135919050565b600080600060608486031215612e8d57600080fd5b612e9684612bae565b9250612ea460208501612bae565b9150604084013590509250925092565b600060208284031215612ec657600080fd5b5035919050565b60008060408385031215612ee057600080fd5b82359150612ef060208401612bae565b90509250929050565b60008060008060808587031215612f0f57600080fd5b612f1885612bae565b966020860135965060408601359560600135945092505050565b600080600080600060a08688031215612f4a57600080fd5b612f5386612bae565b97602087013597506040870135966060810135965060800135945092505050565b60008060408385031215612f8757600080fd5b612f9083612bae565b9150612ef060208401612bae565b600080600080600080600060e0888a031215612fb957600080fd5b612fc288612bae565b9650612fd060208901612bae565b95506040880135945060608801359350608088013560ff81168114612ff457600080fd5b9699959850939692959460a0840135945060c09093013592915050565b634e487b7160e01b600052603260045260246000fd5b634e487b7160e01b600052601160045260246000fd5b60008282101561304f5761304f613027565b500390565b60008261307157634e487b7160e01b600052601260045260246000fd5b500490565b600081600019048311821515161561309057613090613027565b500290565b600082198211156130a8576130a8613027565b500190565b60006000198214156130c1576130c1613027565b5060010190565b6000602082840312156130da57600080fd5b5051919050565b6000602082840312156130f357600080fd5b8151801515811461226557600080fd5b600181811c9082168061311757607f821691505b6020821081141561228f57634e487b7160e01b600052602260045260246000fd5b6020808252602b908201527f496e697469616c697a61626c653a20636f6e7472616374206973206e6f74206960408201526a6e697469616c697a696e6760a81b606082015260800190565b7f416363657373436f6e74726f6c3a206163636f756e74200000000000000000008152600083516131bb816017850160208801612c49565b7001034b99036b4b9b9b4b733903937b6329607d1b60179184019182015283516131ec816028840160208801612c49565b01602801949350505050565b634e487b7160e01b600052602160045260246000fd5b634e487b7160e01b600052603160045260246000fd5b60008161323357613233613027565b50600019019056fe9f2df0fed2c77648de5860a4cc508cd0818c85b8b8a1ab4ceeef8d981c8956a6a49807205ce4d355092ef5a8a18f56e8913cf4a201fbe287825b095693c21775a26469706673582212201acb4e15da56f3fd972dc17d6800c1446a658e29edcd64e7c4fd13d32bb40bb264736f6c63430008090033",
  "linkReferences": {},
  "deployedLinkReferences": {}
}