{
  "_format": "hh-sol-artifact-1",
  "contractName": "cEVO",
  "sourceName": "contracts/ERC20/cEVOUpgradeable.sol",
  "abi": [
    {
      "inputs": [],
      "stateMutability": "nonpayable",
      "type": "constructor"
    },
    {
      "anonymous": false,
      "inputs": [
        {
          "indexed": true,
          "internalType": "address",
          "name": "owner",
          "type": "address"
        },
        {
          "indexed": true,
          "internalType": "address",
          "name": "spender",
          "type": "address"
        },
        {
          "indexed": false,
          "internalType": "uint256",
          "name": "value",
          "type": "uint256"
        }
      ],
      "name": "Approval",
      "type": "event"
    },
    {
      "anonymous": false,
      "inputs": [
        {
          "indexed": false,
          "internalType": "address",
          "name": "account",
          "type": "address"
        }
      ],
      "name": "Paused",
      "type": "event"
    },
    {
      "anonymous": false,
      "inputs": [
        {
          "indexed": true,
          "internalType": "bytes32",
          "name": "role",
          "type": "bytes32"
        },
        {
          "indexed": true,
          "internalType": "bytes32",
          "name": "previousAdminRole",
          "type": "bytes32"
        },
        {
          "indexed": true,
          "internalType": "bytes32",
          "name": "newAdminRole",
          "type": "bytes32"
        }
      ],
      "name": "RoleAdminChanged",
      "type": "event"
    },
    {
      "anonymous": false,
      "inputs": [
        {
          "indexed": true,
          "internalType": "bytes32",
          "name": "role",
          "type": "bytes32"
        },
        {
          "indexed": true,
          "internalType": "address",
          "name": "account",
          "type": "address"
        },
        {
          "indexed": true,
          "internalType": "address",
          "name": "sender",
          "type": "address"
        }
      ],
      "name": "RoleGranted",
      "type": "event"
    },
    {
      "anonymous": false,
      "inputs": [
        {
          "indexed": true,
          "internalType": "bytes32",
          "name": "role",
          "type": "bytes32"
        },
        {
          "indexed": true,
          "internalType": "address",
          "name": "account",
          "type": "address"
        },
        {
          "indexed": true,
          "internalType": "address",
          "name": "sender",
          "type": "address"
        }
      ],
      "name": "RoleRevoked",
      "type": "event"
    },
    {
      "anonymous": false,
      "inputs": [
        {
          "indexed": true,
          "internalType": "address",
          "name": "from",
          "type": "address"
        },
        {
          "indexed": true,
          "internalType": "address",
          "name": "to",
          "type": "address"
        },
        {
          "indexed": false,
          "internalType": "uint256",
          "name": "value",
          "type": "uint256"
        }
      ],
      "name": "Transfer",
      "type": "event"
    },
    {
      "anonymous": false,
      "inputs": [
        {
          "indexed": false,
          "internalType": "address",
          "name": "account",
          "type": "address"
        }
      ],
      "name": "Unpaused",
      "type": "event"
    },
    {
      "inputs": [],
      "name": "DEFAULT_ADMIN_ROLE",
      "outputs": [
        {
          "internalType": "bytes32",
          "name": "",
          "type": "bytes32"
        }
      ],
      "stateMutability": "view",
      "type": "function"
    },
    {
      "inputs": [],
      "name": "DEFAULT_VESTING_PERIOD",
      "outputs": [
        {
          "internalType": "uint256",
          "name": "",
          "type": "uint256"
        }
      ],
      "stateMutability": "view",
      "type": "function"
    },
    {
      "inputs": [],
      "name": "EVO",
      "outputs": [
        {
          "internalType": "contract IEvoToken",
          "name": "",
          "type": "address"
        }
      ],
      "stateMutability": "view",
      "type": "function"
    },
    {
      "inputs": [],
      "name": "MINTER_ROLE",
      "outputs": [
        {
          "internalType": "bytes32",
          "name": "",
          "type": "bytes32"
        }
      ],
      "stateMutability": "view",
      "type": "function"
    },
    {
      "inputs": [],
      "name": "PAUSER_ROLE",
      "outputs": [
        {
          "internalType": "bytes32",
          "name": "",
          "type": "bytes32"
        }
      ],
      "stateMutability": "view",
      "type": "function"
    },
    {
      "inputs": [
        {
          "internalType": "address",
          "name": "to",
          "type": "address"
        }
      ],
      "name": "addGlobalWhitelist",
      "outputs": [],
      "stateMutability": "nonpayable",
      "type": "function"
    },
    {
      "inputs": [
        {
          "internalType": "address",
          "name": "from",
          "type": "address"
        },
        {
          "internalType": "address",
          "name": "to",
          "type": "address"
        }
      ],
      "name": "addWhitelist",
      "outputs": [],
      "stateMutability": "nonpayable",
      "type": "function"
    },
    {
      "inputs": [
        {
          "internalType": "address",
          "name": "owner",
          "type": "address"
        },
        {
          "internalType": "address",
          "name": "spender",
          "type": "address"
        }
      ],
      "name": "allowance",
      "outputs": [
        {
          "internalType": "uint256",
          "name": "",
          "type": "uint256"
        }
      ],
      "stateMutability": "view",
      "type": "function"
    },
    {
      "inputs": [
        {
          "internalType": "address",
          "name": "spender",
          "type": "address"
        },
        {
          "internalType": "uint256",
          "name": "amount",
          "type": "uint256"
        }
      ],
      "name": "approve",
      "outputs": [
        {
          "internalType": "bool",
          "name": "",
          "type": "bool"
        }
      ],
      "stateMutability": "nonpayable",
      "type": "function"
    },
    {
      "inputs": [
        {
          "internalType": "address",
          "name": "account",
          "type": "address"
        }
      ],
      "name": "balanceOf",
      "outputs": [
        {
          "internalType": "uint256",
          "name": "",
          "type": "uint256"
        }
      ],
      "stateMutability": "view",
      "type": "function"
    },
    {
      "inputs": [
        {
          "internalType": "address[]",
          "name": "to",
          "type": "address[]"
        },
        {
          "internalType": "uint256[]",
          "name": "amount",
          "type": "uint256[]"
        },
        {
          "internalType": "uint256",
          "name": "startTime",
          "type": "uint256"
        },
        {
          "internalType": "uint256",
          "name": "duration",
          "type": "uint256"
        }
      ],
      "name": "batchMint",
      "outputs": [],
      "stateMutability": "nonpayable",
      "type": "function"
    },
    {
      "inputs": [],
      "name": "claimPending",
      "outputs": [],
      "stateMutability": "nonpayable",
      "type": "function"
    },
    {
      "inputs": [],
      "name": "convertLocked",
      "outputs": [],
      "stateMutability": "nonpayable",
      "type": "function"
    },
    {
      "inputs": [],
      "name": "decimals",
      "outputs": [
        {
          "internalType": "uint8",
          "name": "",
          "type": "uint8"
        }
      ],
      "stateMutability": "view",
      "type": "function"
    },
    {
      "inputs": [
        {
          "internalType": "address",
          "name": "spender",
          "type": "address"
        },
        {
          "internalType": "uint256",
          "name": "subtractedValue",
          "type": "uint256"
        }
      ],
      "name": "decreaseAllowance",
      "outputs": [
        {
          "internalType": "bool",
          "name": "",
          "type": "bool"
        }
      ],
      "stateMutability": "nonpayable",
      "type": "function"
    },
    {
      "inputs": [
        {
          "internalType": "address",
          "name": "",
          "type": "address"
        },
        {
          "internalType": "uint256",
          "name": "",
          "type": "uint256"
        }
      ],
      "name": "disbursements",
      "outputs": [
        {
          "internalType": "uint256",
          "name": "startTime",
          "type": "uint256"
        },
        {
          "internalType": "uint256",
          "name": "duration",
          "type": "uint256"
        },
        {
          "internalType": "uint256",
          "name": "amount",
          "type": "uint256"
        },
        {
          "internalType": "uint256",
          "name": "balance",
          "type": "uint256"
        }
      ],
      "stateMutability": "view",
      "type": "function"
    },
    {
      "inputs": [
        {
          "internalType": "address",
          "name": "_address",
          "type": "address"
        }
      ],
      "name": "disbursementsOf",
      "outputs": [
        {
          "components": [
            {
              "internalType": "uint256",
              "name": "startTime",
              "type": "uint256"
            },
            {
              "internalType": "uint256",
              "name": "duration",
              "type": "uint256"
            },
            {
              "internalType": "uint256",
              "name": "amount",
              "type": "uint256"
            },
            {
              "internalType": "uint256",
              "name": "balance",
              "type": "uint256"
            }
          ],
          "internalType": "struct cEVO.Disbursement[]",
          "name": "",
          "type": "tuple[]"
        }
      ],
      "stateMutability": "view",
      "type": "function"
    },
    {
      "inputs": [
        {
          "internalType": "bytes32",
          "name": "role",
          "type": "bytes32"
        }
      ],
      "name": "getRoleAdmin",
      "outputs": [
        {
          "internalType": "bytes32",
          "name": "",
          "type": "bytes32"
        }
      ],
      "stateMutability": "view",
      "type": "function"
    },
    {
      "inputs": [
        {
          "internalType": "bytes32",
          "name": "role",
          "type": "bytes32"
        },
        {
          "internalType": "address",
          "name": "account",
          "type": "address"
        }
      ],
      "name": "grantRole",
      "outputs": [],
      "stateMutability": "nonpayable",
      "type": "function"
    },
    {
      "inputs": [
        {
          "internalType": "bytes32",
          "name": "role",
          "type": "bytes32"
        },
        {
          "internalType": "address",
          "name": "account",
          "type": "address"
        }
      ],
      "name": "hasRole",
      "outputs": [
        {
          "internalType": "bool",
          "name": "",
          "type": "bool"
        }
      ],
      "stateMutability": "view",
      "type": "function"
    },
    {
      "inputs": [
        {
          "internalType": "address",
          "name": "spender",
          "type": "address"
        },
        {
          "internalType": "uint256",
          "name": "addedValue",
          "type": "uint256"
        }
      ],
      "name": "increaseAllowance",
      "outputs": [
        {
          "internalType": "bool",
          "name": "",
          "type": "bool"
        }
      ],
      "stateMutability": "nonpayable",
      "type": "function"
    },
    {
      "inputs": [],
      "name": "initialize",
      "outputs": [],
      "stateMutability": "nonpayable",
      "type": "function"
    },
    {
      "inputs": [
        {
          "internalType": "address",
          "name": "",
          "type": "address"
        }
      ],
      "name": "lockedOf",
      "outputs": [
        {
          "internalType": "uint256",
          "name": "",
          "type": "uint256"
        }
      ],
      "stateMutability": "view",
      "type": "function"
    },
    {
      "inputs": [
        {
          "internalType": "address",
          "name": "to",
          "type": "address"
        },
        {
          "internalType": "uint256",
          "name": "startTime",
          "type": "uint256"
        },
        {
          "internalType": "uint256",
          "name": "duration",
          "type": "uint256"
        },
        {
          "internalType": "uint256",
          "name": "amount",
          "type": "uint256"
        }
      ],
      "name": "mint",
      "outputs": [],
      "stateMutability": "nonpayable",
      "type": "function"
    },
    {
      "inputs": [
        {
          "internalType": "address",
          "name": "_address",
          "type": "address"
        },
        {
          "internalType": "uint256",
          "name": "amount",
          "type": "uint256"
        }
      ],
      "name": "mintLocked",
      "outputs": [],
      "stateMutability": "nonpayable",
      "type": "function"
    },
    {
      "inputs": [],
      "name": "name",
      "outputs": [
        {
          "internalType": "string",
          "name": "",
          "type": "string"
        }
      ],
      "stateMutability": "view",
      "type": "function"
    },
    {
      "inputs": [],
      "name": "pause",
      "outputs": [],
      "stateMutability": "nonpayable",
      "type": "function"
    },
    {
      "inputs": [],
      "name": "paused",
      "outputs": [
        {
          "internalType": "bool",
          "name": "",
          "type": "bool"
        }
      ],
      "stateMutability": "view",
      "type": "function"
    },
    {
      "inputs": [
        {
          "internalType": "address",
          "name": "_address",
          "type": "address"
        }
      ],
      "name": "pendingOf",
      "outputs": [
        {
          "internalType": "uint256",
          "name": "",
          "type": "uint256"
        }
      ],
      "stateMutability": "view",
      "type": "function"
    },
    {
      "inputs": [
        {
          "internalType": "address",
          "name": "_address",
          "type": "address"
        },
        {
          "internalType": "uint256",
          "name": "index",
          "type": "uint256"
        }
      ],
      "name": "removeDisbursement",
      "outputs": [],
      "stateMutability": "nonpayable",
      "type": "function"
    },
    {
      "inputs": [
        {
          "internalType": "bytes32",
          "name": "role",
          "type": "bytes32"
        },
        {
          "internalType": "address",
          "name": "account",
          "type": "address"
        }
      ],
      "name": "renounceRole",
      "outputs": [],
      "stateMutability": "nonpayable",
      "type": "function"
    },
    {
      "inputs": [
        {
          "internalType": "address",
          "name": "_address",
          "type": "address"
        },
        {
          "internalType": "uint256",
          "name": "index",
          "type": "uint256"
        },
        {
          "internalType": "uint256",
          "name": "amount",
          "type": "uint256"
        }
      ],
      "name": "resetDisbursement",
      "outputs": [],
      "stateMutability": "nonpayable",
      "type": "function"
    },
    {
      "inputs": [
        {
          "internalType": "bytes32",
          "name": "role",
          "type": "bytes32"
        },
        {
          "internalType": "address",
          "name": "account",
          "type": "address"
        }
      ],
      "name": "revokeRole",
      "outputs": [],
      "stateMutability": "nonpayable",
      "type": "function"
    },
    {
      "inputs": [
        {
          "internalType": "bytes4",
          "name": "interfaceId",
          "type": "bytes4"
        }
      ],
      "name": "supportsInterface",
      "outputs": [
        {
          "internalType": "bool",
          "name": "",
          "type": "bool"
        }
      ],
      "stateMutability": "view",
      "type": "function"
    },
    {
      "inputs": [],
      "name": "symbol",
      "outputs": [
        {
          "internalType": "string",
          "name": "",
          "type": "string"
        }
      ],
      "stateMutability": "view",
      "type": "function"
    },
    {
      "inputs": [],
      "name": "totalSupply",
      "outputs": [
        {
          "internalType": "uint256",
          "name": "",
          "type": "uint256"
        }
      ],
      "stateMutability": "view",
      "type": "function"
    },
    {
      "inputs": [
        {
          "internalType": "address",
          "name": "to",
          "type": "address"
        },
        {
          "internalType": "uint256",
          "name": "amount",
          "type": "uint256"
        }
      ],
      "name": "transfer",
      "outputs": [
        {
          "internalType": "bool",
          "name": "",
          "type": "bool"
        }
      ],
      "stateMutability": "nonpayable",
      "type": "function"
    },
    {
      "inputs": [
        {
          "internalType": "address",
          "name": "from",
          "type": "address"
        },
        {
          "internalType": "address",
          "name": "to",
          "type": "address"
        },
        {
          "internalType": "uint256",
          "name": "amount",
          "type": "uint256"
        }
      ],
      "name": "transferFrom",
      "outputs": [
        {
          "internalType": "bool",
          "name": "",
          "type": "bool"
        }
      ],
      "stateMutability": "nonpayable",
      "type": "function"
    },
    {
      "inputs": [],
      "name": "unpause",
      "outputs": [],
      "stateMutability": "nonpayable",
      "type": "function"
    }
  ],
  "bytecode": "0x60806040523480156200001157600080fd5b50600054610100900460ff166200002f5760005460ff161562000039565b62000039620000de565b620000a15760405162461bcd60e51b815260206004820152602e60248201527f496e697469616c697a61626c653a20636f6e747261637420697320616c72656160448201526d191e481a5b9a5d1a585b1a5e995960921b606482015260840160405180910390fd5b600054610100900460ff16158015620000c4576000805461ffff19166101011790555b8015620000d7576000805461ff00191690555b506200010b565b6000620000f630620000fc60201b6200146e1760201c565b15905090565b6001600160a01b03163b151590565b6127e5806200011b6000396000f3fe608060405234801561001057600080fd5b506004361061023d5760003560e01c806365982e601161013b578063a5f1e282116100b8578063d53913931161007c578063d539139314610503578063d547741f14610518578063dd62ed3e1461052b578063e63ab1e914610564578063f44136a11461057957600080fd5b8063a5f1e28214610497578063a647e8ec146104b7578063a73d633c146104ca578063a9059cbb146104dd578063b45cc845146104f057600080fd5b806384f6e96b116100ff57806384f6e96b1461045957806391d148541461046157806395d89b4114610474578063a217fddf1461047c578063a457c2d71461048457600080fd5b806365982e60146103da57806370a08231146103ed5780637a153043146104165780638129fc1c146104495780638456cb591461045157600080fd5b80632f2ff15d116101c9578063478b7ad51161018d578063478b7ad51461036357806349e8b863146103765780635143e246146103a957806353f7ce2d146103bc5780635c975abb146103cf57600080fd5b80632f2ff15d14610313578063313ce5671461032657806336568abe1461033557806339509351146103485780633f4ba83a1461035b57600080fd5b8063095ea7b311610210578063095ea7b3146102a9578063098480ec146102bc57806318160ddd146102d557806323b872dd146102dd578063248a9ca3146102f057600080fd5b806301ffc9a71461024257806303a9f06e1461026a57806305cea05f1461027457806306fdde0314610294575b600080fd5b610255610250366004612136565b61058c565b60405190151581526020015b60405180910390f35b6102726105c3565b005b61028761028236600461217c565b610895565b6040516102619190612197565b61029c610932565b6040516102619190612227565b6102556102b736600461225a565b6109c4565b6102c7630167e98081565b604051908152602001610261565b6035546102c7565b6102556102eb366004612284565b6109dc565b6102c76102fe3660046122c0565b600090815260c9602052604090206001015490565b6102726103213660046122d9565b610a00565b60405160128152602001610261565b6102726103433660046122d9565b610a2b565b61025561035636600461225a565b610aa5565b610272610ae4565b61027261037136600461225a565b610b08565b610391735b747e23a9e4c509dd06fbd2c0e3cb8b846e398f81565b6040516001600160a01b039091168152602001610261565b6102726103b736600461225a565b610bbc565b6102726103ca3660046123db565b610c0d565b60655460ff16610255565b6102726103e83660046124ab565b610cdb565b6102c76103fb36600461217c565b6001600160a01b031660009081526033602052604090205490565b61042961042436600461225a565b610dd7565b604080519485526020850193909352918301526060820152608001610261565b610272610e1d565b610272610f62565b610272610f83565b61025561046f3660046122d9565b611174565b61029c61119f565b6102c7600081565b61025561049236600461225a565b6111ae565b6102c76104a536600461217c565b60ff6020526000908152604090205481565b6102726104c53660046124de565b611240565b6102726104d8366004612517565b611300565b6102556104eb36600461225a565b61132e565b6102726104fe36600461217c565b61133c565b6102c760008051602061279083398151915281565b6102726105263660046122d9565b611353565b6102c7610539366004612517565b6001600160a01b03918216600090815260346020908152604080832093909416825291909152205490565b6102c760008051602061277083398151915281565b6102c761058736600461217c565b611379565b60006001600160e01b03198216637965db0b60e01b14806105bd57506301ffc9a760e01b6001600160e01b03198316145b92915050565b60655460ff16156105ef5760405162461bcd60e51b81526004016105e690612541565b60405180910390fd5b6000805b33600090815260fe60205260409020548110156106da5733600090815260fe6020526040812080548390811061062b5761062b61256b565b906000526020600020906004020190506000816003015482600201546106519190612597565b905060008260010154836002015461066991906125ae565b905060008184600001544261067e9190612597565b61068891906125d0565b905060006106968483612597565b11156106c357808460030160008282546106b09190612597565b909155506106c0905086806125ef565b95505b5050505080806106d290612607565b9150506105f3565b50806106e35750565b6106ed338261147d565b6040516370a0823160e01b81523060048201528190735b747e23a9e4c509dd06fbd2c0e3cb8b846e398f906370a082319060240160206040518083038186803b15801561073957600080fd5b505afa15801561074d573d6000803e3d6000fd5b505050506040513d601f19601f820116820180604052508101906107719190612622565b111561081657735b747e23a9e4c509dd06fbd2c0e3cb8b846e398f63a9059cbb336040516001600160e01b031960e084901b1681526001600160a01b03909116600482015260248101849052604401602060405180830381600087803b1580156107da57600080fd5b505af11580156107ee573d6000803e3d6000fd5b505050506040513d601f19601f82011682018060405250810190610812919061263b565b5050565b735b747e23a9e4c509dd06fbd2c0e3cb8b846e398f6340c10f19336040516001600160e01b031960e084901b1681526001600160a01b03909116600482015260248101849052604401600060405180830381600087803b15801561087957600080fd5b505af115801561088d573d6000803e3d6000fd5b50505050505b565b6001600160a01b038116600090815260fe60209081526040808320805482518185028101850190935280835260609492939192909184015b828210156109275783829060005260206000209060040201604051806080016040529081600082015481526020016001820154815260200160028201548152602001600382015481525050815260200190600101906108cd565b505050509050919050565b6060603680546109419061265d565b80601f016020809104026020016040519081016040528092919081815260200182805461096d9061265d565b80156109ba5780601f1061098f576101008083540402835291602001916109ba565b820191906000526020600020905b81548152906001019060200180831161099d57829003601f168201915b5050505050905090565b6000336109d28185856115d7565b5060019392505050565b6000336109ea8582856116fb565b6109f5858585611787565b506001949350505050565b600082815260c96020526040902060010154610a1c8133611960565b610a2683836119c4565b505050565b6001600160a01b0381163314610a9b5760405162461bcd60e51b815260206004820152602f60248201527f416363657373436f6e74726f6c3a2063616e206f6e6c792072656e6f756e636560448201526e103937b632b9903337b91039b2b63360891b60648201526084016105e6565b6108128282611a4a565b3360008181526034602090815260408083206001600160a01b03871684529091528120549091906109d29082908690610adf9087906125ef565b6115d7565b600080516020612770833981519152610afd8133611960565b610b05611ab1565b50565b6000610b148133611960565b6001600160a01b038316600090815260fe60205260408120805484908110610b3e57610b3e61256b565b906000526020600020906004020160030154905060fe6000856001600160a01b03166001600160a01b031681526020019081526020016000208381548110610b8857610b8861256b565b600091825260208220600490910201818155600181018290556002810182905560030155610bb6848261147d565b50505050565b600080516020612790833981519152610bd58133611960565b6001600160a01b038316600090815260ff602052604081208054849290610bfd9084906125ef565b90915550610a2690508383611b44565b600080516020612790833981519152610c268133611960565b8351855114610c775760405162461bcd60e51b815260206004820152601f60248201527f746f20616e6420616d6f756e7420617272617973206d757374206d617463680060448201526064016105e6565b60005b8551811015610cd357610cc1868281518110610c9857610c9861256b565b60200260200101518585888581518110610cb457610cb461256b565b6020026020010151611240565b80610ccb81612607565b915050610c7a565b505050505050565b6000610ce78133611960565b6001600160a01b038416600090815260fe60205260408120805485908110610d1157610d1161256b565b90600052602060002090600402016003015490508260fe6000876001600160a01b03166001600160a01b031681526020019081526020016000208581548110610d5c57610d5c61256b565b9060005260206000209060040201600301819055508260fe6000876001600160a01b03166001600160a01b031681526020019081526020016000208581548110610da857610da861256b565b90600052602060002090600402016002018190555082811061088d5761088d85610dd28584612597565b61147d565b60fe6020528160005260406000208181548110610df357600080fd5b60009182526020909120600490910201805460018201546002830154600390930154919450925084565b600054610100900460ff16610e385760005460ff1615610e3c565b303b155b610e9f5760405162461bcd60e51b815260206004820152602e60248201527f496e697469616c697a61626c653a20636f6e747261637420697320616c72656160448201526d191e481a5b9a5d1a585b1a5e995960921b60648201526084016105e6565b600054610100900460ff16158015610ec1576000805461ffff19166101011790555b610f03604051806040016040528060048152602001636345564f60e01b815250604051806040016040528060048152602001636345564f60e01b815250611c2f565b610f0b611c60565b610f13611c8f565b610f1e6000336119c4565b610f36600080516020612770833981519152336119c4565b610f4e600080516020612790833981519152336119c4565b8015610b05576000805461ff001916905550565b600080516020612770833981519152610f7b8133611960565b610b05611cb6565b6000735b747e23a9e4c509dd06fbd2c0e3cb8b846e398f635a46d3b5336040516001600160e01b031960e084901b1681526001600160a01b03909116600482015260240160206040518083038186803b158015610fdf57600080fd5b505afa158015610ff3573d6000803e3d6000fd5b505050506040513d601f19601f820116820180604052508101906110179190612622565b9050735b747e23a9e4c509dd06fbd2c0e3cb8b846e398f63af2b0f66336040516001600160e01b031960e084901b1681526001600160a01b03909116600482015260248101849052604401600060405180830381600087803b15801561107c57600080fd5b505af1158015611090573d6000803e3d6000fd5b50505050735b747e23a9e4c509dd06fbd2c0e3cb8b846e398f6001600160a01b03166323b872dd6110be3390565b6040516001600160e01b031960e084901b1681526001600160a01b03909116600482015230602482015260448101849052606401602060405180830381600087803b15801561110c57600080fd5b505af1158015611120573d6000803e3d6000fd5b505050506040513d601f19601f82011682018060405250810190611144919061263b565b5033600090815260ff6020526040812080548392906111649084906125ef565b90915550610b0590503382611b44565b600091825260c9602090815260408084206001600160a01b0393909316845291905290205460ff1690565b6060603780546109419061265d565b3360008181526034602090815260408083206001600160a01b0387168452909152812054909190838110156112335760405162461bcd60e51b815260206004820152602560248201527f45524332303a2064656372656173656420616c6c6f77616e63652062656c6f77604482015264207a65726f60d81b60648201526084016105e6565b6109f582868684036115d7565b6000805160206127908339815191526112598133611960565b6000808511611268574261126a565b845b9050600080851161127f57630167e980611281565b845b6001600160a01b038816600090815260fe6020908152604080832081516080810183528781528084018681529281018a8152606082018b81528354600181810186559488529590962091516004909502909101938455915190830155516002820155905160039091015590506112f78785611b44565b50505050505050565b600061130c8133611960565b6001600160a01b038316600090815260fd60205260409020610bb69083611d0e565b6000336109d2818585611787565b60006113488133611960565b610a2660fb83611d0e565b600082815260c9602052604090206001015461136f8133611960565b610a268383611a4a565b600080805b6001600160a01b038416600090815260fe6020526040902054811015611467576001600160a01b038416600090815260fe602052604081208054839081106113c8576113c861256b565b906000526020600020906004020190506000816003015482600201546113ee9190612597565b905060008260010154836002015461140691906125ae565b905060008184600001544261141b9190612597565b61142591906125d0565b905060006114338483612597565b1115611450576114438382612597565b61144d90876125ef565b95505b50505050808061145f90612607565b91505061137e565b5092915050565b6001600160a01b03163b151590565b6001600160a01b0382166114dd5760405162461bcd60e51b815260206004820152602160248201527f45524332303a206275726e2066726f6d20746865207a65726f206164647265736044820152607360f81b60648201526084016105e6565b6114e982600083611d2a565b6001600160a01b0382166000908152603360205260409020548181101561155d5760405162461bcd60e51b815260206004820152602260248201527f45524332303a206275726e20616d6f756e7420657863656564732062616c616e604482015261636560f01b60648201526084016105e6565b6001600160a01b038316600090815260336020526040812083830390556035805484929061158c908490612597565b90915550506040518281526000906001600160a01b038516907fddf252ad1be2c89b69c2b068fc378daa952ba7f163c4a11628f55a4df523b3ef9060200160405180910390a3505050565b6001600160a01b0383166116395760405162461bcd60e51b8152602060048201526024808201527f45524332303a20617070726f76652066726f6d20746865207a65726f206164646044820152637265737360e01b60648201526084016105e6565b6001600160a01b03821661169a5760405162461bcd60e51b815260206004820152602260248201527f45524332303a20617070726f766520746f20746865207a65726f206164647265604482015261737360f01b60648201526084016105e6565b6001600160a01b0383811660008181526034602090815260408083209487168084529482529182902085905590518481527f8c5be1e5ebec7d5bd14f71427d1e84f3dd0314c0f7b2291e5b200ac8c7c3b925910160405180910390a3505050565b6001600160a01b038381166000908152603460209081526040808320938616835292905220546000198114610bb6578181101561177a5760405162461bcd60e51b815260206004820152601d60248201527f45524332303a20696e73756666696369656e7420616c6c6f77616e636500000060448201526064016105e6565b610bb684848484036115d7565b6001600160a01b0383166117eb5760405162461bcd60e51b815260206004820152602560248201527f45524332303a207472616e736665722066726f6d20746865207a65726f206164604482015264647265737360d81b60648201526084016105e6565b6001600160a01b03821661184d5760405162461bcd60e51b815260206004820152602360248201527f45524332303a207472616e7366657220746f20746865207a65726f206164647260448201526265737360e81b60648201526084016105e6565b611858838383611d2a565b6001600160a01b038316600090815260336020526040902054818110156118d05760405162461bcd60e51b815260206004820152602660248201527f45524332303a207472616e7366657220616d6f756e7420657863656564732062604482015265616c616e636560d01b60648201526084016105e6565b6001600160a01b038085166000908152603360205260408082208585039055918516815290812080548492906119079084906125ef565b92505081905550826001600160a01b0316846001600160a01b03167fddf252ad1be2c89b69c2b068fc378daa952ba7f163c4a11628f55a4df523b3ef8460405161195391815260200190565b60405180910390a3610bb6565b61196a8282611174565b61081257611982816001600160a01b03166014611e31565b61198d836020611e31565b60405160200161199e929190612698565b60408051601f198184030181529082905262461bcd60e51b82526105e691600401612227565b6119ce8282611174565b61081257600082815260c9602090815260408083206001600160a01b03851684529091529020805460ff19166001179055611a063390565b6001600160a01b0316816001600160a01b0316837f2f8788117e7eff1d82e926ec794901d17c78024a50270940304540a733656f0d60405160405180910390a45050565b611a548282611174565b1561081257600082815260c9602090815260408083206001600160a01b0385168085529252808320805460ff1916905551339285917ff6391f5c32d9c69d2a47ea670b442974b53935d1edc7fd64eb21e047a839171b9190a45050565b60655460ff16611afa5760405162461bcd60e51b815260206004820152601460248201527314185d5cd8589b194e881b9bdd081c185d5cd95960621b60448201526064016105e6565b6065805460ff191690557f5db9ee0a495bf2e6ff9c91a7834c1ba4fdd244a5e8aa4e537bd38aeae4b073aa335b6040516001600160a01b03909116815260200160405180910390a1565b6001600160a01b038216611b9a5760405162461bcd60e51b815260206004820152601f60248201527f45524332303a206d696e7420746f20746865207a65726f20616464726573730060448201526064016105e6565b611ba660008383611d2a565b8060356000828254611bb891906125ef565b90915550506001600160a01b03821660009081526033602052604081208054839290611be59084906125ef565b90915550506040518181526001600160a01b038316906000907fddf252ad1be2c89b69c2b068fc378daa952ba7f163c4a11628f55a4df523b3ef9060200160405180910390a35050565b600054610100900460ff16611c565760405162461bcd60e51b81526004016105e69061270d565b6108128282611fcd565b600054610100900460ff16611c875760405162461bcd60e51b81526004016105e69061270d565b61089361201b565b600054610100900460ff166108935760405162461bcd60e51b81526004016105e69061270d565b60655460ff1615611cd95760405162461bcd60e51b81526004016105e690612541565b6065805460ff191660011790557f62e78cea01bee320cd4e420270b5ea74000d11b0c9f74754ebdbfc544b05a258611b273390565b6000611d23836001600160a01b03841661204e565b9392505050565b60655460ff1615611d4d5760405162461bcd60e51b81526004016105e690612541565b8282611d7760fb826001600160a01b03811660009081526001830160205260408120541515611d23565b80611dbc57506001600160a01b038216600090815260fd60205260409020611dbc90826001600160a01b03811660009081526001830160205260408120541515611d23565b80611dce57506001600160a01b038216155b80611de057506001600160a01b038116155b611e2c5760405162461bcd60e51b815260206004820152601860248201527f6345564f206973206e6f6e2d7472616e7366657261626c65000000000000000060448201526064016105e6565b61088d565b60606000611e408360026125d0565b611e4b9060026125ef565b67ffffffffffffffff811115611e6357611e63612305565b6040519080825280601f01601f191660200182016040528015611e8d576020820181803683370190505b509050600360fc1b81600081518110611ea857611ea861256b565b60200101906001600160f81b031916908160001a905350600f60fb1b81600181518110611ed757611ed761256b565b60200101906001600160f81b031916908160001a9053506000611efb8460026125d0565b611f069060016125ef565b90505b6001811115611f7e576f181899199a1a9b1b9c1cb0b131b232b360811b85600f1660108110611f3a57611f3a61256b565b1a60f81b828281518110611f5057611f5061256b565b60200101906001600160f81b031916908160001a90535060049490941c93611f7781612758565b9050611f09565b508315611d235760405162461bcd60e51b815260206004820181905260248201527f537472696e67733a20686578206c656e67746820696e73756666696369656e7460448201526064016105e6565b600054610100900460ff16611ff45760405162461bcd60e51b81526004016105e69061270d565b815161200790603690602085019061209d565b508051610a2690603790602084019061209d565b600054610100900460ff166120425760405162461bcd60e51b81526004016105e69061270d565b6065805460ff19169055565b6000818152600183016020526040812054612095575081546001818101845560008481526020808220909301849055845484825282860190935260409020919091556105bd565b5060006105bd565b8280546120a99061265d565b90600052602060002090601f0160209004810192826120cb5760008555612111565b82601f106120e457805160ff1916838001178555612111565b82800160010185558215612111579182015b828111156121115782518255916020019190600101906120f6565b5061211d929150612121565b5090565b5b8082111561211d5760008155600101612122565b60006020828403121561214857600080fd5b81356001600160e01b031981168114611d2357600080fd5b80356001600160a01b038116811461217757600080fd5b919050565b60006020828403121561218e57600080fd5b611d2382612160565b602080825282518282018190526000919060409081850190868401855b828110156121ee578151805185528681015187860152858101518686015260609081015190850152608090930192908501906001016121b4565b5091979650505050505050565b60005b838110156122165781810151838201526020016121fe565b83811115610bb65750506000910152565b60208152600082518060208401526122468160408501602087016121fb565b601f01601f19169190910160400192915050565b6000806040838503121561226d57600080fd5b61227683612160565b946020939093013593505050565b60008060006060848603121561229957600080fd5b6122a284612160565b92506122b060208501612160565b9150604084013590509250925092565b6000602082840312156122d257600080fd5b5035919050565b600080604083850312156122ec57600080fd5b823591506122fc60208401612160565b90509250929050565b634e487b7160e01b600052604160045260246000fd5b604051601f8201601f1916810167ffffffffffffffff8111828210171561234457612344612305565b604052919050565b600067ffffffffffffffff82111561236657612366612305565b5060051b60200190565b600082601f83011261238157600080fd5b813560206123966123918361234c565b61231b565b82815260059290921b840181019181810190868411156123b557600080fd5b8286015b848110156123d057803583529183019183016123b9565b509695505050505050565b600080600080608085870312156123f157600080fd5b843567ffffffffffffffff8082111561240957600080fd5b818701915087601f83011261241d57600080fd5b8135602061242d6123918361234c565b82815260059290921b8401810191818101908b84111561244c57600080fd5b948201945b838610156124715761246286612160565b82529482019490820190612451565b9850508801359250508082111561248757600080fd5b5061249487828801612370565b949794965050505060408301359260600135919050565b6000806000606084860312156124c057600080fd5b6124c984612160565b95602085013595506040909401359392505050565b600080600080608085870312156124f457600080fd5b6124fd85612160565b966020860135965060408601359560600135945092505050565b6000806040838503121561252a57600080fd5b61253383612160565b91506122fc60208401612160565b60208082526010908201526f14185d5cd8589b194e881c185d5cd95960821b604082015260600190565b634e487b7160e01b600052603260045260246000fd5b634e487b7160e01b600052601160045260246000fd5b6000828210156125a9576125a9612581565b500390565b6000826125cb57634e487b7160e01b600052601260045260246000fd5b500490565b60008160001904831182151516156125ea576125ea612581565b500290565b6000821982111561260257612602612581565b500190565b600060001982141561261b5761261b612581565b5060010190565b60006020828403121561263457600080fd5b5051919050565b60006020828403121561264d57600080fd5b81518015158114611d2357600080fd5b600181811c9082168061267157607f821691505b6020821081141561269257634e487b7160e01b600052602260045260246000fd5b50919050565b7f416363657373436f6e74726f6c3a206163636f756e74200000000000000000008152600083516126d08160178501602088016121fb565b7001034b99036b4b9b9b4b733903937b6329607d1b60179184019182015283516127018160288401602088016121fb565b01602801949350505050565b6020808252602b908201527f496e697469616c697a61626c653a20636f6e7472616374206973206e6f74206960408201526a6e697469616c697a696e6760a81b606082015260800190565b60008161276757612767612581565b50600019019056fe65d7a28e3265b37a6474929f336521b332c1681b933f6cb9f3376673440d862a9f2df0fed2c77648de5860a4cc508cd0818c85b8b8a1ab4ceeef8d981c8956a6a2646970667358221220265502e0bcad441131f6e587c4217c0b36bc277503fddee3827fb599648e87de64736f6c63430008090033",
  "linkReferences": {},
  "deployedLinkReferences": {}
}