{
  "_format": "hh-sol-artifact-1",
  "contractName": "Marketplace",
  "sourceName": "contracts/marketplace/Marketplace.sol",
  "abi": [
    {
      "inputs": [],
      "stateMutability": "nonpayable",
      "type": "constructor"
    },
    {
      "anonymous": false,
      "inputs": [
        {
          "indexed": true,
          "internalType": "uint256",
          "name": "saleId",
          "type": "uint256"
        },
        {
          "indexed": true,
          "internalType": "address",
          "name": "seller",
          "type": "address"
        },
        {
          "indexed": true,
          "internalType": "address",
          "name": "bidder",
          "type": "address"
        },
        {
          "indexed": false,
          "internalType": "uint256",
          "name": "royalty",
          "type": "uint256"
        },
        {
          "indexed": false,
          "internalType": "uint256",
          "name": "fee",
          "type": "uint256"
        },
        {
          "indexed": false,
          "internalType": "uint256",
          "name": "revenue",
          "type": "uint256"
        }
      ],
      "name": "AuctionFinalized",
      "type": "event"
    },
    {
      "anonymous": false,
      "inputs": [
        {
          "indexed": true,
          "internalType": "uint256",
          "name": "saleId",
          "type": "uint256"
        },
        {
          "indexed": false,
          "internalType": "address",
          "name": "bidder",
          "type": "address"
        },
        {
          "indexed": false,
          "internalType": "uint256",
          "name": "bidAbount",
          "type": "uint256"
        },
        {
          "indexed": false,
          "internalType": "uint256",
          "name": "endTime",
          "type": "uint256"
        }
      ],
      "name": "BidPlaced",
      "type": "event"
    },
    {
      "anonymous": false,
      "inputs": [
        {
          "indexed": true,
          "internalType": "uint256",
          "name": "saleId",
          "type": "uint256"
        },
        {
          "indexed": true,
          "internalType": "address",
          "name": "seller",
          "type": "address"
        },
        {
          "indexed": true,
          "internalType": "address",
          "name": "buyer",
          "type": "address"
        },
        {
          "indexed": false,
          "internalType": "uint256",
          "name": "royalty",
          "type": "uint256"
        },
        {
          "indexed": false,
          "internalType": "uint256",
          "name": "fee",
          "type": "uint256"
        },
        {
          "indexed": false,
          "internalType": "uint256",
          "name": "revenue",
          "type": "uint256"
        }
      ],
      "name": "FixedPriceFinalized",
      "type": "event"
    },
    {
      "anonymous": false,
      "inputs": [
        {
          "indexed": false,
          "internalType": "uint8",
          "name": "version",
          "type": "uint8"
        }
      ],
      "name": "Initialized",
      "type": "event"
    },
    {
      "anonymous": false,
      "inputs": [
        {
          "indexed": false,
          "internalType": "uint256",
          "name": "nexBidPercentInBasisPoint",
          "type": "uint256"
        },
        {
          "indexed": false,
          "internalType": "uint256",
          "name": "extensionDuration",
          "type": "uint256"
        }
      ],
      "name": "MarketplaceAuctionConfigUpdated",
      "type": "event"
    },
    {
      "anonymous": false,
      "inputs": [
        {
          "indexed": true,
          "internalType": "address",
          "name": "contractAddress",
          "type": "address"
        },
        {
          "indexed": true,
          "internalType": "address",
          "name": "bidTokenAddress",
          "type": "address"
        }
      ],
      "name": "MarketplaceBidTokenConfigured",
      "type": "event"
    },
    {
      "anonymous": false,
      "inputs": [
        {
          "indexed": true,
          "internalType": "uint256",
          "name": "fee",
          "type": "uint256"
        }
      ],
      "name": "MarketplaceFeeUpdated",
      "type": "event"
    },
    {
      "anonymous": false,
      "inputs": [
        {
          "indexed": true,
          "internalType": "uint256",
          "name": "feeWeight",
          "type": "uint256"
        },
        {
          "indexed": false,
          "internalType": "enum MarketplaceConstants.FeeType",
          "name": "feeType",
          "type": "uint8"
        }
      ],
      "name": "MarketplaceFeeWeightUpdated",
      "type": "event"
    },
    {
      "anonymous": false,
      "inputs": [
        {
          "indexed": true,
          "internalType": "uint256",
          "name": "maxRoyaltyPercent",
          "type": "uint256"
        }
      ],
      "name": "MarketplaceRoyaltiesUpdated",
      "type": "event"
    },
    {
      "anonymous": false,
      "inputs": [
        {
          "indexed": true,
          "internalType": "uint256",
          "name": "saleId",
          "type": "uint256"
        },
        {
          "indexed": true,
          "internalType": "address",
          "name": "seller",
          "type": "address"
        },
        {
          "indexed": true,
          "internalType": "address",
          "name": "buyer",
          "type": "address"
        },
        {
          "indexed": false,
          "internalType": "uint256",
          "name": "royalty",
          "type": "uint256"
        },
        {
          "indexed": false,
          "internalType": "uint256",
          "name": "fee",
          "type": "uint256"
        },
        {
          "indexed": false,
          "internalType": "uint256",
          "name": "revenue",
          "type": "uint256"
        }
      ],
      "name": "OfferFinalized",
      "type": "event"
    },
    {
      "anonymous": false,
      "inputs": [
        {
          "indexed": true,
          "internalType": "bytes32",
          "name": "role",
          "type": "bytes32"
        },
        {
          "indexed": true,
          "internalType": "bytes32",
          "name": "previousAdminRole",
          "type": "bytes32"
        },
        {
          "indexed": true,
          "internalType": "bytes32",
          "name": "newAdminRole",
          "type": "bytes32"
        }
      ],
      "name": "RoleAdminChanged",
      "type": "event"
    },
    {
      "anonymous": false,
      "inputs": [
        {
          "indexed": true,
          "internalType": "bytes32",
          "name": "role",
          "type": "bytes32"
        },
        {
          "indexed": true,
          "internalType": "address",
          "name": "account",
          "type": "address"
        },
        {
          "indexed": true,
          "internalType": "address",
          "name": "sender",
          "type": "address"
        }
      ],
      "name": "RoleGranted",
      "type": "event"
    },
    {
      "anonymous": false,
      "inputs": [
        {
          "indexed": true,
          "internalType": "bytes32",
          "name": "role",
          "type": "bytes32"
        },
        {
          "indexed": true,
          "internalType": "address",
          "name": "account",
          "type": "address"
        },
        {
          "indexed": true,
          "internalType": "address",
          "name": "sender",
          "type": "address"
        }
      ],
      "name": "RoleRevoked",
      "type": "event"
    },
    {
      "anonymous": false,
      "inputs": [
        {
          "indexed": true,
          "internalType": "uint256",
          "name": "saleId",
          "type": "uint256"
        },
        {
          "indexed": false,
          "internalType": "string",
          "name": "reason",
          "type": "string"
        }
      ],
      "name": "SaleCanceled",
      "type": "event"
    },
    {
      "anonymous": false,
      "inputs": [
        {
          "indexed": true,
          "internalType": "uint256",
          "name": "saleId",
          "type": "uint256"
        },
        {
          "indexed": false,
          "internalType": "enum MarketplaceCore.SaleType",
          "name": "saleType",
          "type": "uint8"
        },
        {
          "indexed": true,
          "internalType": "address",
          "name": "seller",
          "type": "address"
        },
        {
          "indexed": true,
          "internalType": "address",
          "name": "contractAddress",
          "type": "address"
        },
        {
          "indexed": false,
          "internalType": "uint256[]",
          "name": "tokenIds",
          "type": "uint256[]"
        },
        {
          "indexed": false,
          "internalType": "uint256[]",
          "name": "values",
          "type": "uint256[]"
        },
        {
          "indexed": false,
          "internalType": "address",
          "name": "bidToken",
          "type": "address"
        },
        {
          "indexed": false,
          "internalType": "uint256",
          "name": "startTime",
          "type": "uint256"
        },
        {
          "indexed": false,
          "internalType": "uint256",
          "name": "duration",
          "type": "uint256"
        },
        {
          "indexed": false,
          "internalType": "uint256",
          "name": "extensionDuration",
          "type": "uint256"
        },
        {
          "indexed": false,
          "internalType": "uint256",
          "name": "endTime",
          "type": "uint256"
        },
        {
          "indexed": false,
          "internalType": "uint256",
          "name": "minPrice",
          "type": "uint256"
        }
      ],
      "name": "SaleCreated",
      "type": "event"
    },
    {
      "inputs": [],
      "name": "ADMIN_ROLE",
      "outputs": [
        {
          "internalType": "bytes32",
          "name": "",
          "type": "bytes32"
        }
      ],
      "stateMutability": "view",
      "type": "function"
    },
    {
      "inputs": [],
      "name": "DEFAULT_ADMIN_ROLE",
      "outputs": [
        {
          "internalType": "bytes32",
          "name": "",
          "type": "bytes32"
        }
      ],
      "stateMutability": "view",
      "type": "function"
    },
    {
      "inputs": [],
      "name": "UPDATER_ROLE",
      "outputs": [
        {
          "internalType": "bytes32",
          "name": "",
          "type": "bytes32"
        }
      ],
      "stateMutability": "view",
      "type": "function"
    },
    {
      "inputs": [
        {
          "internalType": "uint256",
          "name": "saleId",
          "type": "uint256"
        }
      ],
      "name": "acceptOffer",
      "outputs": [],
      "stateMutability": "nonpayable",
      "type": "function"
    },
    {
      "inputs": [],
      "name": "activeSaleIds",
      "outputs": [
        {
          "internalType": "uint256[]",
          "name": "",
          "type": "uint256[]"
        }
      ],
      "stateMutability": "view",
      "type": "function"
    },
    {
      "inputs": [],
      "name": "activeSales",
      "outputs": [
        {
          "components": [
            {
              "internalType": "enum MarketplaceCore.SaleType",
              "name": "saleType",
              "type": "uint8"
            },
            {
              "internalType": "address",
              "name": "seller",
              "type": "address"
            },
            {
              "internalType": "address",
              "name": "contractAddress",
              "type": "address"
            },
            {
              "internalType": "enum MarketplaceCore.TokenType",
              "name": "tokenType",
              "type": "uint8"
            },
            {
              "internalType": "uint256[]",
              "name": "tokenIds",
              "type": "uint256[]"
            },
            {
              "internalType": "uint256[]",
              "name": "values",
              "type": "uint256[]"
            },
            {
              "internalType": "address",
              "name": "bidToken",
              "type": "address"
            },
            {
              "internalType": "uint256",
              "name": "startTime",
              "type": "uint256"
            },
            {
              "internalType": "uint256",
              "name": "duration",
              "type": "uint256"
            },
            {
              "internalType": "uint256",
              "name": "extensionDuration",
              "type": "uint256"
            },
            {
              "internalType": "uint256",
              "name": "endTime",
              "type": "uint256"
            },
            {
              "internalType": "address",
              "name": "bidder",
              "type": "address"
            },
            {
              "internalType": "uint256",
              "name": "bidAmount",
              "type": "uint256"
            }
          ],
          "internalType": "struct MarketplaceCore.Sale[]",
          "name": "",
          "type": "tuple[]"
        }
      ],
      "stateMutability": "view",
      "type": "function"
    },
    {
      "inputs": [
        {
          "internalType": "uint256",
          "name": "saleId",
          "type": "uint256"
        },
        {
          "internalType": "uint256",
          "name": "bidAmount",
          "type": "uint256"
        }
      ],
      "name": "bidAuction",
      "outputs": [],
      "stateMutability": "nonpayable",
      "type": "function"
    },
    {
      "inputs": [
        {
          "internalType": "uint256",
          "name": "saleId",
          "type": "uint256"
        },
        {
          "internalType": "uint256",
          "name": "buyAmount",
          "type": "uint256"
        }
      ],
      "name": "buyFixedPrice",
      "outputs": [],
      "stateMutability": "nonpayable",
      "type": "function"
    },
    {
      "inputs": [
        {
          "internalType": "uint256",
          "name": "saleId",
          "type": "uint256"
        },
        {
          "internalType": "string",
          "name": "reason",
          "type": "string"
        }
      ],
      "name": "cancelAuction",
      "outputs": [],
      "stateMutability": "nonpayable",
      "type": "function"
    },
    {
      "inputs": [
        {
          "internalType": "uint256",
          "name": "saleId",
          "type": "uint256"
        }
      ],
      "name": "cancelOffer",
      "outputs": [],
      "stateMutability": "nonpayable",
      "type": "function"
    },
    {
      "inputs": [
        {
          "internalType": "uint256",
          "name": "saleId",
          "type": "uint256"
        },
        {
          "internalType": "string",
          "name": "reason",
          "type": "string"
        }
      ],
      "name": "cancelSale",
      "outputs": [],
      "stateMutability": "nonpayable",
      "type": "function"
    },
    {
      "inputs": [
        {
          "internalType": "uint256",
          "name": "saleId",
          "type": "uint256"
        },
        {
          "internalType": "string",
          "name": "reason",
          "type": "string"
        }
      ],
      "name": "cancelSaleByAdmin",
      "outputs": [],
      "stateMutability": "nonpayable",
      "type": "function"
    },
    {
      "inputs": [
        {
          "internalType": "address",
          "name": "contractAddress",
          "type": "address"
        },
        {
          "internalType": "uint256",
          "name": "tokenId",
          "type": "uint256"
        },
        {
          "internalType": "uint256",
          "name": "value",
          "type": "uint256"
        },
        {
          "internalType": "address",
          "name": "bidToken",
          "type": "address"
        },
        {
          "internalType": "uint256",
          "name": "startTime",
          "type": "uint256"
        },
        {
          "internalType": "uint256",
          "name": "duration",
          "type": "uint256"
        },
        {
          "internalType": "uint256",
          "name": "minPrice",
          "type": "uint256"
        }
      ],
      "name": "createERC1155Auction",
      "outputs": [],
      "stateMutability": "nonpayable",
      "type": "function"
    },
    {
      "inputs": [
        {
          "internalType": "address",
          "name": "contractAddress",
          "type": "address"
        },
        {
          "internalType": "uint256[]",
          "name": "tokenIds",
          "type": "uint256[]"
        },
        {
          "internalType": "uint256[]",
          "name": "values",
          "type": "uint256[]"
        },
        {
          "internalType": "address",
          "name": "bidToken",
          "type": "address"
        },
        {
          "internalType": "uint256",
          "name": "startTime",
          "type": "uint256"
        },
        {
          "internalType": "uint256",
          "name": "duration",
          "type": "uint256"
        },
        {
          "internalType": "uint256",
          "name": "minPrice",
          "type": "uint256"
        }
      ],
      "name": "createERC1155BundleAuction",
      "outputs": [],
      "stateMutability": "nonpayable",
      "type": "function"
    },
    {
      "inputs": [
        {
          "internalType": "address",
          "name": "contractAddress",
          "type": "address"
        },
        {
          "internalType": "uint256[]",
          "name": "tokenIds",
          "type": "uint256[]"
        },
        {
          "internalType": "uint256[]",
          "name": "values",
          "type": "uint256[]"
        },
        {
          "internalType": "address",
          "name": "bidToken",
          "type": "address"
        },
        {
          "internalType": "uint256",
          "name": "startTime",
          "type": "uint256"
        },
        {
          "internalType": "uint256",
          "name": "duration",
          "type": "uint256"
        },
        {
          "internalType": "uint256",
          "name": "minPrice",
          "type": "uint256"
        }
      ],
      "name": "createERC1155BundleFixedPrice",
      "outputs": [],
      "stateMutability": "nonpayable",
      "type": "function"
    },
    {
      "inputs": [
        {
          "internalType": "address",
          "name": "contractAddress",
          "type": "address"
        },
        {
          "internalType": "uint256",
          "name": "tokenId",
          "type": "uint256"
        },
        {
          "internalType": "uint256",
          "name": "value",
          "type": "uint256"
        },
        {
          "internalType": "address",
          "name": "bidToken",
          "type": "address"
        },
        {
          "internalType": "uint256",
          "name": "startTime",
          "type": "uint256"
        },
        {
          "internalType": "uint256",
          "name": "duration",
          "type": "uint256"
        },
        {
          "internalType": "uint256",
          "name": "minPrice",
          "type": "uint256"
        }
      ],
      "name": "createERC1155FixedPrice",
      "outputs": [],
      "stateMutability": "nonpayable",
      "type": "function"
    },
    {
      "inputs": [
        {
          "internalType": "address",
          "name": "contractAddress",
          "type": "address"
        },
        {
          "internalType": "uint256",
          "name": "tokenId",
          "type": "uint256"
        },
        {
          "internalType": "address",
          "name": "bidToken",
          "type": "address"
        },
        {
          "internalType": "uint256",
          "name": "startTime",
          "type": "uint256"
        },
        {
          "internalType": "uint256",
          "name": "duration",
          "type": "uint256"
        },
        {
          "internalType": "uint256",
          "name": "minPrice",
          "type": "uint256"
        },
        {
          "internalType": "uint256",
          "name": "royaltyBps",
          "type": "uint256"
        }
      ],
      "name": "createERC721Auction",
      "outputs": [],
      "stateMutability": "nonpayable",
      "type": "function"
    },
    {
      "inputs": [
        {
          "internalType": "address",
          "name": "contractAddress",
          "type": "address"
        },
        {
          "internalType": "uint256",
          "name": "tokenId",
          "type": "uint256"
        },
        {
          "internalType": "address",
          "name": "bidToken",
          "type": "address"
        },
        {
          "internalType": "uint256",
          "name": "startTime",
          "type": "uint256"
        },
        {
          "internalType": "uint256",
          "name": "duration",
          "type": "uint256"
        },
        {
          "internalType": "uint256",
          "name": "minPrice",
          "type": "uint256"
        },
        {
          "internalType": "uint256",
          "name": "royaltyBps",
          "type": "uint256"
        }
      ],
      "name": "createERC721FixedPrice",
      "outputs": [],
      "stateMutability": "nonpayable",
      "type": "function"
    },
    {
      "inputs": [
        {
          "internalType": "address",
          "name": "contractAddress",
          "type": "address"
        },
        {
          "internalType": "uint256",
          "name": "tokenId",
          "type": "uint256"
        },
        {
          "internalType": "address",
          "name": "bidToken",
          "type": "address"
        },
        {
          "internalType": "uint256",
          "name": "duration",
          "type": "uint256"
        },
        {
          "internalType": "uint256",
          "name": "minPrice",
          "type": "uint256"
        }
      ],
      "name": "createERC721Offer",
      "outputs": [],
      "stateMutability": "nonpayable",
      "type": "function"
    },
    {
      "inputs": [],
      "name": "currentSaleId",
      "outputs": [
        {
          "internalType": "uint256",
          "name": "",
          "type": "uint256"
        }
      ],
      "stateMutability": "view",
      "type": "function"
    },
    {
      "inputs": [
        {
          "internalType": "uint256",
          "name": "saleId",
          "type": "uint256"
        }
      ],
      "name": "finalizeAuction",
      "outputs": [],
      "stateMutability": "nonpayable",
      "type": "function"
    },
    {
      "inputs": [
        {
          "internalType": "uint256",
          "name": "saleId",
          "type": "uint256"
        }
      ],
      "name": "getAuctionMinBidAmount",
      "outputs": [
        {
          "internalType": "uint256",
          "name": "",
          "type": "uint256"
        }
      ],
      "stateMutability": "view",
      "type": "function"
    },
    {
      "inputs": [],
      "name": "getMarketplaceAuctionConfig",
      "outputs": [
        {
          "internalType": "uint256",
          "name": "",
          "type": "uint256"
        },
        {
          "internalType": "uint256",
          "name": "",
          "type": "uint256"
        }
      ],
      "stateMutability": "view",
      "type": "function"
    },
    {
      "inputs": [
        {
          "internalType": "address",
          "name": "contractAddress",
          "type": "address"
        }
      ],
      "name": "getMarketplaceBidTokenOf",
      "outputs": [
        {
          "internalType": "address",
          "name": "",
          "type": "address"
        }
      ],
      "stateMutability": "view",
      "type": "function"
    },
    {
      "inputs": [],
      "name": "getMarketplaceFee",
      "outputs": [
        {
          "internalType": "uint256",
          "name": "",
          "type": "uint256"
        }
      ],
      "stateMutability": "view",
      "type": "function"
    },
    {
      "inputs": [
        {
          "internalType": "enum MarketplaceConstants.FeeType",
          "name": "feeType",
          "type": "uint8"
        }
      ],
      "name": "getMarketplaceFeeDestination",
      "outputs": [
        {
          "internalType": "address",
          "name": "",
          "type": "address"
        }
      ],
      "stateMutability": "view",
      "type": "function"
    },
    {
      "inputs": [],
      "name": "getMarketplaceFeeWeights",
      "outputs": [
        {
          "internalType": "uint256",
          "name": "",
          "type": "uint256"
        },
        {
          "internalType": "uint256",
          "name": "",
          "type": "uint256"
        },
        {
          "internalType": "uint256",
          "name": "",
          "type": "uint256"
        },
        {
          "internalType": "uint256",
          "name": "",
          "type": "uint256"
        },
        {
          "internalType": "uint256",
          "name": "",
          "type": "uint256"
        }
      ],
      "stateMutability": "view",
      "type": "function"
    },
    {
      "inputs": [],
      "name": "getMarketplaceRoyaltyPercent",
      "outputs": [
        {
          "internalType": "uint256",
          "name": "",
          "type": "uint256"
        }
      ],
      "stateMutability": "view",
      "type": "function"
    },
    {
      "inputs": [],
      "name": "getMarketplaceTreasury",
      "outputs": [
        {
          "internalType": "address",
          "name": "",
          "type": "address"
        }
      ],
      "stateMutability": "view",
      "type": "function"
    },
    {
      "inputs": [
        {
          "internalType": "bytes32",
          "name": "role",
          "type": "bytes32"
        }
      ],
      "name": "getRoleAdmin",
      "outputs": [
        {
          "internalType": "bytes32",
          "name": "",
          "type": "bytes32"
        }
      ],
      "stateMutability": "view",
      "type": "function"
    },
    {
      "inputs": [
        {
          "internalType": "bytes32",
          "name": "role",
          "type": "bytes32"
        },
        {
          "internalType": "uint256",
          "name": "index",
          "type": "uint256"
        }
      ],
      "name": "getRoleMember",
      "outputs": [
        {
          "internalType": "address",
          "name": "",
          "type": "address"
        }
      ],
      "stateMutability": "view",
      "type": "function"
    },
    {
      "inputs": [
        {
          "internalType": "bytes32",
          "name": "role",
          "type": "bytes32"
        }
      ],
      "name": "getRoleMemberCount",
      "outputs": [
        {
          "internalType": "uint256",
          "name": "",
          "type": "uint256"
        }
      ],
      "stateMutability": "view",
      "type": "function"
    },
    {
      "inputs": [
        {
          "internalType": "bytes32",
          "name": "role",
          "type": "bytes32"
        },
        {
          "internalType": "address",
          "name": "account",
          "type": "address"
        }
      ],
      "name": "grantRole",
      "outputs": [],
      "stateMutability": "nonpayable",
      "type": "function"
    },
    {
      "inputs": [
        {
          "internalType": "bytes32",
          "name": "role",
          "type": "bytes32"
        },
        {
          "internalType": "address",
          "name": "account",
          "type": "address"
        }
      ],
      "name": "hasRole",
      "outputs": [
        {
          "internalType": "bool",
          "name": "",
          "type": "bool"
        }
      ],
      "stateMutability": "view",
      "type": "function"
    },
    {
      "inputs": [],
      "name": "initialize",
      "outputs": [],
      "stateMutability": "nonpayable",
      "type": "function"
    },
    {
      "inputs": [
        {
          "internalType": "address",
          "name": "contractAddress",
          "type": "address"
        }
      ],
      "name": "removeMarketplaceBidToken",
      "outputs": [],
      "stateMutability": "nonpayable",
      "type": "function"
    },
    {
      "inputs": [
        {
          "internalType": "bytes32",
          "name": "role",
          "type": "bytes32"
        },
        {
          "internalType": "address",
          "name": "account",
          "type": "address"
        }
      ],
      "name": "renounceRole",
      "outputs": [],
      "stateMutability": "nonpayable",
      "type": "function"
    },
    {
      "inputs": [
        {
          "internalType": "bytes32",
          "name": "role",
          "type": "bytes32"
        },
        {
          "internalType": "address",
          "name": "account",
          "type": "address"
        }
      ],
      "name": "revokeRole",
      "outputs": [],
      "stateMutability": "nonpayable",
      "type": "function"
    },
    {
      "inputs": [
        {
          "internalType": "address",
          "name": "contractAddress",
          "type": "address"
        },
        {
          "internalType": "address",
          "name": "bidTokenAddress",
          "type": "address"
        }
      ],
      "name": "setMarketplaceBidToken",
      "outputs": [],
      "stateMutability": "nonpayable",
      "type": "function"
    },
    {
      "inputs": [
        {
          "internalType": "uint256",
          "name": "fee",
          "type": "uint256"
        }
      ],
      "name": "setMarketplaceFee",
      "outputs": [],
      "stateMutability": "nonpayable",
      "type": "function"
    },
    {
      "inputs": [
        {
          "internalType": "address",
          "name": "destination",
          "type": "address"
        },
        {
          "internalType": "enum MarketplaceConstants.FeeType",
          "name": "feeType",
          "type": "uint8"
        }
      ],
      "name": "setMarketplaceFeeDestination",
      "outputs": [],
      "stateMutability": "nonpayable",
      "type": "function"
    },
    {
      "inputs": [
        {
          "internalType": "uint256",
          "name": "feeWeight",
          "type": "uint256"
        },
        {
          "internalType": "enum MarketplaceConstants.FeeType",
          "name": "feeType",
          "type": "uint8"
        }
      ],
      "name": "setMarketplaceFeeWeight",
      "outputs": [],
      "stateMutability": "nonpayable",
      "type": "function"
    },
    {
      "inputs": [
        {
          "internalType": "uint256",
          "name": "maxRoyaltyPercent",
          "type": "uint256"
        }
      ],
      "name": "setMarketplaceRoyaltyPercent",
      "outputs": [],
      "stateMutability": "nonpayable",
      "type": "function"
    },
    {
      "inputs": [
        {
          "internalType": "address",
          "name": "treasury",
          "type": "address"
        }
      ],
      "name": "setMarketplaceTreasury",
      "outputs": [],
      "stateMutability": "nonpayable",
      "type": "function"
    },
    {
      "inputs": [
        {
          "internalType": "bytes4",
          "name": "interfaceId",
          "type": "bytes4"
        }
      ],
      "name": "supportsInterface",
      "outputs": [
        {
          "internalType": "bool",
          "name": "",
          "type": "bool"
        }
      ],
      "stateMutability": "view",
      "type": "function"
    },
    {
      "inputs": [
        {
          "internalType": "uint256",
          "name": "nexBidPercent",
          "type": "uint256"
        },
        {
          "internalType": "uint256",
          "name": "_extensionSeconds",
          "type": "uint256"
        }
      ],
      "name": "updateMarketplaceAuctionConfig",
      "outputs": [],
      "stateMutability": "nonpayable",
      "type": "function"
    }
  ],
  "bytecode": "0x60806040523480156200001157600080fd5b506200001c62000022565b620000e4565b600054610100900460ff16156200008f5760405162461bcd60e51b815260206004820152602760248201527f496e697469616c697a61626c653a20636f6e747261637420697320696e697469604482015266616c697a696e6760c81b606482015260840160405180910390fd5b60005460ff9081161015620000e2576000805460ff191660ff9081179091556040519081527f7f26b83ff96e1f2b6a682f133852f6798a09c465da95921460cefb38474024989060200160405180910390a15b565b615eb680620000f46000396000f3fe608060405234801561001057600080fd5b506004361061028a5760003560e01c80639010d07c1161015c578063c815729d116100ce578063d6bfef8311610087578063d6bfef83146106ac578063e8083863146106bf578063eecabdf0146106d2578063ef706adf146106e5578063fb022cf1146106f8578063fe0a2c0a1461070b57600080fd5b8063c815729d14610638578063ca15c8731461064b578063cd462ab71461065e578063d181e98414610671578063d3b7f2f314610684578063d547741f1461069957600080fd5b80639e7e4480116101205780639e7e4480146104eb578063a04341da146104fe578063a0c5539714610513578063a217fddf14610526578063b6b03ef71461052e578063bb4f0c571461055b57600080fd5b80639010d07c1461048257806391d1485414610495578063924c1059146104a85780639407ea98146104c55780639914b00d146104d857600080fd5b806332ee5f371161020057806375b238fc116101b957806375b238fc1461040757806375fe7bcf1461042e57806376840be514610441578063809411ee146104545780638129fc1c14610467578063856e50b51461046f57600080fd5b806332ee5f371461038057806336568abe1461039357806347e63380146103a65780634ce89690146103bb57806374c1f09f146103ce5780637587b4df146103f457600080fd5b8063248de0ed11610252578063248de0ed1461032357806326a7b37b146103365780632b3b0ced1461033f5780632e849894146103525780632f2ff15d1461035a578063302076051461036d57600080fd5b806301ffc9a71461028f57806306cd5ce3146102b757806313586029146102cc5780631637c6d6146102df578063248a9ca3146102f2575b600080fd5b6102a261029d366004615236565b610714565b60405190151581526020015b60405180910390f35b6102ca6102c5366004615275565b61073f565b005b6102ca6102da3660046152d6565b6107e6565b6102ca6102ed366004615349565b6109a8565b6103156103003660046153e8565b60009081526065602052604090206001015490565b6040519081526020016102ae565b6102ca610331366004615401565b610d3e565b6101bf54610315565b6102ca61034d366004615349565b610d7f565b6103156111e7565b6102ca61036836600461541e565b6111f7565b6102ca61037b36600461544e565b611221565b6102ca61038e3660046154ef565b611299565b6102ca6103a136600461541e565b6112b6565b610315600080516020615e6183398151915281565b6102ca6103c9366004615593565b611334565b6101f1546001600160a01b03165b6040516001600160a01b0390911681526020016102ae565b6102ca6104023660046155c1565b6113ca565b6103157fa49807205ce4d355092ef5a8a18f56e8913cf4a201fbe287825b095693c2177581565b6102ca61043c3660046155c1565b611711565b61031561044f3660046153e8565b6117ff565b6103dc6104623660046155e3565b61183e565b6102ca611888565b6102ca61047d366004615349565b61195a565b6103dc6104903660046155c1565b611c1b565b6102a26104a336600461541e565b611c33565b6102565461025554604080519283526020830191909152016102ae565b6102ca6104d33660046153e8565b611c5e565b6102ca6104e63660046154ef565b611d0b565b6102ca6104f93660046153e8565b611d21565b610506611dd7565b6040516102ae9190615639565b6102ca6105213660046155c1565b611de4565b610315600081565b6103dc61053c366004615401565b6001600160a01b03908116600090815261015b60205260409020541690565b6101c06020527f123a9b76e49b873732b4a769f58b0697f10de134da5c8244265fe1b96dbfbfcf547f36cb6b4f5b1d18e216416ee0979ed7d517f88d6567d3882f165013381d5b76f2547f406287258596eef92d1ee61b5373616b4dbff6a9e15cffac6779ead439a830cd547f40114ed3586007997a312f56a5f82c72545dd9a8cc0b147767d1eb0ae95803885460036000527f650cf9f8f355f77487234e4d3882486493a51981a100027b8a1d8741411838de54604080519586526020860194909452928401919091526060830152608082015260a0016102ae565b6102ca6106463660046153e8565b6122ea565b6103156106593660046153e8565b6126f5565b6102ca61066c366004615401565b61270c565b6102ca61067f36600461564c565b612748565b61068c6127f5565b6040516102ae91906156eb565b6102ca6106a736600461541e565b612a71565b6102ca6106ba36600461581e565b612a96565b6102ca6106cd3660046153e8565b612b31565b6102ca6106e036600461581e565b612f89565b6102ca6106f33660046153e8565b613024565b6102ca61070636600461564c565b6133c6565b61018d54610315565b60006001600160e01b03198216635a05180f60e01b1480610739575061073982613462565b92915050565b60408051600180825281830190925260009160208083019080368337019050509050848160008151811061077557610775615862565b60209081029190910101526040805160018082528183019092526000918160200160208202803683370190505090506001816000815181106107b9576107b9615862565b6020026020010181815250506107dd6107d888600085858a8a8a613497565b613686565b50505050505050565b600080516020615e618339815191526107fe816138b1565b826101c06000846004811115610816576108166156b1565b6004811115610827576108276156b1565b81526020808201929092526040016000908120929092556101c090527f650cf9f8f355f77487234e4d3882486493a51981a100027b8a1d8741411838de547f40114ed3586007997a312f56a5f82c72545dd9a8cc0b147767d1eb0ae9580388547f406287258596eef92d1ee61b5373616b4dbff6a9e15cffac6779ead439a830cd547f36cb6b4f5b1d18e216416ee0979ed7d517f88d6567d3882f165013381d5b76f2548480527f123a9b76e49b873732b4a769f58b0697f10de134da5c8244265fe1b96dbfbfcf546108fa919061588e565b610904919061588e565b61090e919061588e565b610918919061588e565b905061271081111561096a5760405162461bcd60e51b8152602060048201526016602482015275546f74616c204665657320657863656564203130302560501b60448201526064015b60405180910390fd5b837fe5edd9df7d1e7aa8f6cc6017f60b471bb0d64f718c9f7acec8d6b80f30eed92d8460405161099a91906158a1565b60405180910390a250505050565b600260c954036109ca5760405162461bcd60e51b8152600401610961906158bb565b600260c955600080516020615e618339815191526109e7816138b1565b6000825111610a085760405162461bcd60e51b8152600401610961906158f2565b6000838152610287602052604080822081516101a081019092528054829060ff166002811115610a3a57610a3a6156b1565b6002811115610a4b57610a4b6156b1565b8152815461010090046001600160a01b0390811660208301526001808401549182166040840152606090920191600160a01b90910460ff1690811115610a9357610a936156b1565b6001811115610aa457610aa46156b1565b815260200160028201805480602002602001604051908101604052809291908181526020018280548015610af757602002820191906000526020600020905b815481526020019060010190808311610ae3575b5050505050815260200160038201805480602002602001604051908101604052809291908181526020018280548015610b4f57602002820191906000526020600020905b815481526020019060010190808311610b3b575b505050918352505060048201546001600160a01b039081166020830152600583015460408301526006830154606083015260078301546080830152600883015460a083015260098301541660c0820152600a9091015460e090910152610140810151909150610c005760405162461bcd60e51b815260206004820152601f60248201527f4d61726b6574706c616365436f72653a2053616c65206e6f7420666f756e64006044820152606401610961565b60008481526102876020526040812080546001600160a81b03199081168255600182018054909116905590610c38600283018261511c565b610c4660038301600061511c565b506004810180546001600160a01b0319908116909155600060058301819055600683018190556007830181905560088301819055600983018054909216909155600a90910155610c98610288856138bb565b50610cbb8160600151826040015130846020015185608001518660a001516138c7565b6101608101516001600160a01b031615610cfb57610cfb8161016001518261018001518360c001516001600160a01b0316613a209092919063ffffffff16565b837feea67889aa1eb47570ae236516cf0e18f0627d822a512e46bb29b1a683d09f1b84604051610d2b9190615973565b60405180910390a25050600160c9555050565b600080516020615e61833981519152610d56816138b1565b506001600160a01b0316600090815261015b6020526040902080546001600160a01b0319169055565b600260c95403610da15760405162461bcd60e51b8152600401610961906158bb565b600260c9558051610dc45760405162461bcd60e51b8152600401610961906158f2565b6000828152610287602052604080822081516101a081019092528054829060ff166002811115610df657610df66156b1565b6002811115610e0757610e076156b1565b8152815461010090046001600160a01b0390811660208301526001808401549182166040840152606090920191600160a01b90910460ff1690811115610e4f57610e4f6156b1565b6001811115610e6057610e606156b1565b815260200160028201805480602002602001604051908101604052809291908181526020018280548015610eb357602002820191906000526020600020905b815481526020019060010190808311610e9f575b5050505050815260200160038201805480602002602001604051908101604052809291908181526020018280548015610f0b57602002820191906000526020600020905b815481526020019060010190808311610ef7575b505050918352505060048201546001600160a01b039081166020830152600583015460408301526006830154606083015260078301546080830152600883015460a083015260098301541660c0820152600a9091015460e0909101529050336001600160a01b031681602001516001600160a01b031614610fd85760405162461bcd60e51b815260206004820152602160248201527f4d61726b6574706c616365436f72653a204e6f7420796f75722061756374696f6044820152603760f91b6064820152608401610961565b600081516002811115610fed57610fed6156b1565b1461103a5760405162461bcd60e51b815260206004820152601f60248201527f4d61726b6574706c616365436f72653a204e6f7420616e2061756374696f6e006044820152606401610961565b6101608101516001600160a01b0316156110aa5760405162461bcd60e51b815260206004820152602b60248201527f4d61726b6574706c616365436f72653a2041756374696f6e206861732061637460448201526a697665206269646465727360a81b6064820152608401610961565b60008381526102876020526040812080546001600160a81b031990811682556001820180549091169055906110e2600283018261511c565b6110f060038301600061511c565b506004810180546001600160a01b0319908116909155600060058301819055600683018190556007830181905560088301819055600983018054909216909155600a90910155611142610288846138bb565b506111658160600151826040015130846020015185608001518660a001516138c7565b6101608101516001600160a01b0316156111a5576111a58161016001518261018001518360c001516001600160a01b0316613a209092919063ffffffff16565b827feea67889aa1eb47570ae236516cf0e18f0627d822a512e46bb29b1a683d09f1b836040516111d59190615973565b60405180910390a25050600160c95550565b60006111f260fb5490565b905090565b600082815260656020526040902060010154611212816138b1565b61121c8383613a83565b505050565b600080516020615e61833981519152611239816138b1565b826101f26000846004811115611251576112516156b1565b6004811115611262576112626156b1565b815260200190815260200160002060006101000a8154816001600160a01b0302191690836001600160a01b03160217905550505050565b6107dd6112af60008960018a8a8a8a8a8a613aa5565b6000613ca6565b6001600160a01b03811633146113265760405162461bcd60e51b815260206004820152602f60248201527f416363657373436f6e74726f6c3a2063616e206f6e6c792072656e6f756e636560448201526e103937b632b9903337b91039b2b63360891b6064820152608401610961565b6113308282613ee1565b5050565b600080516020615e6183398151915261134c816138b1565b6001600160a01b0383163b6113735760405162461bcd60e51b8152600401610961906159a6565b6001600160a01b0382163b61139a5760405162461bcd60e51b8152600401610961906159a6565b506001600160a01b03918216600090815261015b6020526040902080546001600160a01b03191691909216179055565b600260c954036113ec5760405162461bcd60e51b8152600401610961906158bb565b600260c95560008281526102876020526040812090815460ff166002811115611417576114176156b1565b146114645760405162461bcd60e51b815260206004820152601c60248201527f4d61726b6574706c616365436f72653a204e6f742041756374696f6e000000006044820152606401610961565b428160080154116114b75760405162461bcd60e51b815260206004820152601d60248201527f4d61726b6574706c616365436f72653a2053616c65206973206f7665720000006044820152606401610961565b42816005015411156114db5760405162461bcd60e51b8152600401610961906159f5565b6009810154336001600160a01b03909116036115515760405162461bcd60e51b815260206004820152602f60248201527f4d61726b6574706c616365436f72653a20596f7520616c72656164792061726560448201526e1031bab93932b73a103134b23232b960891b6064820152608401610961565b8054336101009091046001600160a01b0316036115b05760405162461bcd60e51b815260206004820152601960248201527f4d61726b6574706c616365436f72653a2053656c6620626964000000000000006044820152606401610961565b60098101546001600160a01b03166115eb578181600a015411156115e65760405162461bcd60e51b815260040161096190615a36565b61161e565b60006115fa82600a0154613f03565b90508083101561161c5760405162461bcd60e51b815260040161096190615a36565b505b600a81018054600983018054928590556001600160a01b03198316331790556007830154600884015491926001600160a01b03169161165e904290615a79565b1015611679576007830154611673904261588e565b60088401555b60048301546001600160a01b031661169381333088613f44565b6001600160a01b038216156116b6576116b66001600160a01b0382168385613a20565b857f51db8e23b3f4479b162fd48823b8402895442b8f6cfd94f66239391881ec7b6f336008870154604080516001600160a01b039093168352602083018a905282015260600160405180910390a25050600160c95550505050565b600080516020615e61833981519152611729816138b1565b6127108311156117b55760405162461bcd60e51b815260206004820152604b60248201527f4d61726b6574706c61636541756374696f6e436f6e666967557067726164656160448201527f626c653a204d696e20696e6372656d656e74206d757374206265203e3d30252060648201526a616e64203c3d203130302560a81b608482015260a401610961565b61025683905561025582905560408051848152602081018490527f1ffe3fb8dff3c6bf01dce5eb6611ff49840debc0c49cb48f73e4943799bc7de0910160405180910390a1505050565b60008181526102876020526040812060098101546001600160a01b031661182a57600a015492915050565b61183781600a0154613f03565b9392505050565b60006101f26000836004811115611857576118576156b1565b6004811115611868576118686156b1565b81526020810191909152604001600020546001600160a01b031692915050565b600054610100900460ff16158080156118a85750600054600160ff909116105b806118c25750303b1580156118c2575060005460ff166001145b6118de5760405162461bcd60e51b815260040161096190615a8c565b6000805460ff191660011790558015611901576000805461ff0019166101001790555b611909613f82565b611911613fab565b8015611957576000805461ff0019169055604051600181527f7f26b83ff96e1f2b6a682f133852f6798a09c465da95921460cefb38474024989060200160405180910390a15b50565b600260c9540361197c5760405162461bcd60e51b8152600401610961906158bb565b600260c955805161199f5760405162461bcd60e51b8152600401610961906158f2565b6000828152610287602052604080822081516101a081019092528054829060ff1660028111156119d1576119d16156b1565b60028111156119e2576119e26156b1565b8152815461010090046001600160a01b0390811660208301526001808401549182166040840152606090920191600160a01b90910460ff1690811115611a2a57611a2a6156b1565b6001811115611a3b57611a3b6156b1565b815260200160028201805480602002602001604051908101604052809291908181526020018280548015611a8e57602002820191906000526020600020905b815481526020019060010190808311611a7a575b5050505050815260200160038201805480602002602001604051908101604052809291908181526020018280548015611ae657602002820191906000526020600020905b815481526020019060010190808311611ad2575b505050918352505060048201546001600160a01b039081166020830152600583015460408301526006830154606083015260078301546080830152600883015460a083015260098301541660c0820152600a9091015460e0909101529050336001600160a01b031681602001516001600160a01b031614611ba95760405162461bcd60e51b815260206004820152601e60248201527f4d61726b6574706c616365436f72653a204e6f7420796f75722073616c6500006044820152606401610961565b600181516002811115611bbe57611bbe6156b1565b146110aa5760405162461bcd60e51b815260206004820152602760248201527f4d61726b6574706c616365436f72653a204e6f7420612066697865642d70726960448201526663652073616c6560c81b6064820152608401610961565b60008281526097602052604081206118379083614047565b60009182526065602090815260408084206001600160a01b0393909316845291905290205460ff1690565b600080516020615e61833981519152611c76816138b1565b6103e8821115611cd65760405162461bcd60e51b815260206004820152602560248201527f4d61726b6574706c6163654665655570677261646561626c653a2046656573206044820152643e2031302560d81b6064820152608401610961565b6101bf82905560405182907fe18aa129833f655a8166b6185277fee7a53f67e46fd32329bc2fc2ac21274d5590600090a25050565b6107dd6112af60018960018a8a8a8a8a8a613aa5565b600080516020615e61833981519152611d39816138b1565b6103e8821115611da25760405162461bcd60e51b815260206004820152602e60248201527f4d61726b6574706c616365526f79616c746965735570677261646561626c653a60448201526d20526f79616c7479203e2031302560901b6064820152608401610961565b61018d82905560405182907f89afacb18fe1d58d6e5250629b682650f4d3ed83667a19e072953949a96b513c90600090a25050565b60606111f2610288614053565b600260c95403611e065760405162461bcd60e51b8152600401610961906158bb565b600260c98190556000838152610287602052604080822081516101a081019092528054929391929091839160ff1690811115611e4457611e446156b1565b6002811115611e5557611e556156b1565b8152815461010090046001600160a01b0390811660208301526001808401549182166040840152606090920191600160a01b90910460ff1690811115611e9d57611e9d6156b1565b6001811115611eae57611eae6156b1565b815260200160028201805480602002602001604051908101604052809291908181526020018280548015611f0157602002820191906000526020600020905b815481526020019060010190808311611eed575b5050505050815260200160038201805480602002602001604051908101604052809291908181526020018280548015611f5957602002820191906000526020600020905b815481526020019060010190808311611f45575b505050918352505060048201546001600160a01b039081166020830152600583015460408301526006830154606083015260078301546080830152600883015460a083015260098301541660c0820152600a9091015460e0909101529050600181516002811115611fcc57611fcc6156b1565b146120195760405162461bcd60e51b815260206004820181905260248201527f4d61726b6574706c616365436f72653a204e6f742046697865642d70726963656044820152606401610961565b42816101400151101561206e5760405162461bcd60e51b815260206004820152601d60248201527f4d61726b6574706c616365436f72653a2053616c65206973206f7665720000006044820152606401610961565b428160e0015111156120925760405162461bcd60e51b8152600401610961906159f5565b81816101800151146120f05760405162461bcd60e51b815260206004820152602160248201527f4d61726b6574706c616365436f72653a2057726f6e672062757920616d6f756e6044820152601d60fa1b6064820152608401610961565b336001600160a01b031681602001516001600160a01b0316036121555760405162461bcd60e51b815260206004820152601960248201527f4d61726b6574706c616365436f72653a2053656c6620627579000000000000006044820152606401610961565b60008381526102876020526040812080546001600160a81b0319908116825560018201805490911690559061218d600283018261511c565b61219b60038301600061511c565b506004810180546001600160a01b0319908116909155600060058301819055600683018190556007830181905560088301819055600983018054909216909155600a909101556121ed610288846138bb565b5061018081015160c08201513391612212916001600160a01b03169083903090613f44565b61223082606001518360400151308486608001518760a001516138c7565b60008060006122718560400151866080015160008151811061225457612254615862565b60200260200101518760c001518860200151896101800151614060565b925092509250836001600160a01b031685602001516001600160a01b0316887f84c291c877f36c4dec491685a451cdc7ef25d8dc76807e6e27748c597e99eb6c8686866040516122d4939291909283526020830191909152604082015260600190565b60405180910390a45050600160c9555050505050565b600260c9540361230c5760405162461bcd60e51b8152600401610961906158bb565b600260c98190556000828152610287602052604080822081516101a081019092528054929391929091839160ff169081111561234a5761234a6156b1565b600281111561235b5761235b6156b1565b8152815461010090046001600160a01b0390811660208301526001808401549182166040840152606090920191600160a01b90910460ff16908111156123a3576123a36156b1565b60018111156123b4576123b46156b1565b81526020016002820180548060200260200160405190810160405280929190818152602001828054801561240757602002820191906000526020600020905b8154815260200190600101908083116123f3575b505050505081526020016003820180548060200260200160405190810160405280929190818152602001828054801561245f57602002820191906000526020600020905b81548152602001906001019080831161244b575b505050918352505060048201546001600160a01b039081166020830152600583015460408301526006830154606083015260078301546080830152600883015460a083015260098301541660c0820152600a9091015460e09091015290506002815160028111156124d2576124d26156b1565b1461251f5760405162461bcd60e51b815260206004820152601a60248201527f4d61726b6574706c616365436f72653a204e6f74206f666665720000000000006044820152606401610961565b4281610140015111156125745760405162461bcd60e51b815260206004820152601e60248201527f4d61726b6574706c616365436f72653a204f66666572206973206f76657200006044820152606401610961565b60008281526102876020526040812080546001600160a81b031990811682556001820180549091169055906125ac600283018261511c565b6125ba60038301600061511c565b506004810180546001600160a01b0319908116909155600060058301819055600683018190556007830181905560088301819055600983018054909216909155600a9091015561260c610288836138bb565b50612636816060015182604001516126213390565b84610160015185608001518660a001516138c7565b60008060006126798460400151856080015160008151811061265a5761265a615862565b60200260200101518660c0015161266e3390565b886101800151614060565b9250925092508361016001516001600160a01b031684602001516001600160a01b0316867f7c0fede85ef76479a8dac8062ea64c0ca72c1a862849b88ef93d223dcccc3cbe8686866040516126e1939291909283526020830191909152604082015260600190565b60405180910390a45050600160c955505050565b60008181526097602052604081206107399061411c565b600080516020615e61833981519152612724816138b1565b506101f180546001600160a01b0319166001600160a01b0392909216919091179055565b60408051600180825281830190925260009160208083019080368337019050509050868160008151811061277e5761277e615862565b60209081029190910101526040805160018082528183019092526000918160200160208202803683370190505090506001816000815181106127c2576127c2615862565b6020026020010181815250506127ea6127e460008b600086868d8d8d8d613aa5565b84613ca6565b505050505050505050565b60606000612804610288614053565b90506000815167ffffffffffffffff81111561282257612822615302565b60405190808252806020026020018201604052801561285b57816020015b61284861513a565b8152602001906001900390816128405790505b50905060005b8251811015612a6a57610287600084838151811061288157612881615862565b60200260200101518152602001908152602001600020604051806101a00160405290816000820160009054906101000a900460ff1660028111156128c7576128c76156b1565b60028111156128d8576128d86156b1565b8152815461010090046001600160a01b0390811660208301526001808401549182166040840152606090920191600160a01b90910460ff1690811115612920576129206156b1565b6001811115612931576129316156b1565b81526020016002820180548060200260200160405190810160405280929190818152602001828054801561298457602002820191906000526020600020905b815481526020019060010190808311612970575b50505050508152602001600382018054806020026020016040519081016040528092919081815260200182805480156129dc57602002820191906000526020600020905b8154815260200190600101908083116129c8575b505050918352505060048201546001600160a01b039081166020830152600583015460408301526006830154606083015260078301546080830152600883015460a083015260098301541660c0820152600a9091015460e0909101528251839083908110612a4c57612a4c615862565b60200260200101819052508080612a6290615ada565b915050612861565b5092915050565b600082815260656020526040902060010154612a8c816138b1565b61121c8383613ee1565b604080516001808252818301909252600091602080830190803683370190505090508681600081518110612acc57612acc615862565b60209081029190910101526040805160018082528183019092526000918160200160208202803683370190505090508681600081518110612b0f57612b0f615862565b6020026020010181815250506127ea6112af60018b600186868c8c8c8c613aa5565b600260c95403612b535760405162461bcd60e51b8152600401610961906158bb565b600260c98190556000828152610287602052604080822081516101a081019092528054929391929091839160ff1690811115612b9157612b916156b1565b6002811115612ba257612ba26156b1565b8152815461010090046001600160a01b0390811660208301526001808401549182166040840152606090920191600160a01b90910460ff1690811115612bea57612bea6156b1565b6001811115612bfb57612bfb6156b1565b815260200160028201805480602002602001604051908101604052809291908181526020018280548015612c4e57602002820191906000526020600020905b815481526020019060010190808311612c3a575b5050505050815260200160038201805480602002602001604051908101604052809291908181526020018280548015612ca657602002820191906000526020600020905b815481526020019060010190808311612c92575b505050918352505060048201546001600160a01b039081166020830152600583015460408301526006830154606083015260078301546080830152600883015460a083015260098301541660c0820152600a9091015460e090910152610140810151909150612d625760405162461bcd60e51b815260206004820152602260248201527f4d61726b6574706c616365436f72653a2041756374696f6e206e6f7420666f756044820152611b9960f21b6064820152608401610961565b4281610140015110612dc95760405162461bcd60e51b815260206004820152602a60248201527f4d61726b6574706c616365436f72653a2041756374696f6e207374696c6c20696044820152696e2070726f677265737360b01b6064820152608401610961565b6101608101516001600160a01b0316612e245760405162461bcd60e51b815260206004820152601a60248201527f4d61726b6574706c616365436f72653a204e6f206269646465720000000000006044820152606401610961565b60008281526102876020526040812080546001600160a81b03199081168255600182018054909116905590612e5c600283018261511c565b612e6a60038301600061511c565b506004810180546001600160a01b0319908116909155600060058301819055600683018190556007830181905560088301819055600983018054909216909155600a90910155612ebc610288836138bb565b50612ee0816060015182604001513084610160015185608001518660a001516138c7565b6000806000612f2184604001518560800151600081518110612f0457612f04615862565b60200260200101518660c001518760200151886101800151614060565b9250925092508361016001516001600160a01b031684602001516001600160a01b0316867f09d19bc6c9a71e6ce2f33285073bb069912c80a714bf42bcaddc9247716ffb488686866040516126e1939291909283526020830191909152604082015260600190565b604080516001808252818301909252600091602080830190803683370190505090508681600081518110612fbf57612fbf615862565b6020908102919091010152604080516001808252818301909252600091816020016020820280368337019050509050868160008151811061300257613002615862565b6020026020010181815250506127ea6112af60008b600186868c8c8c8c613aa5565b600260c954036130465760405162461bcd60e51b8152600401610961906158bb565b600260c98190556000828152610287602052604080822081516101a081019092528054929391929091839160ff1690811115613084576130846156b1565b6002811115613095576130956156b1565b8152815461010090046001600160a01b0390811660208301526001808401549182166040840152606090920191600160a01b90910460ff16908111156130dd576130dd6156b1565b60018111156130ee576130ee6156b1565b81526020016002820180548060200260200160405190810160405280929190818152602001828054801561314157602002820191906000526020600020905b81548152602001906001019080831161312d575b505050505081526020016003820180548060200260200160405190810160405280929190818152602001828054801561319957602002820191906000526020600020905b815481526020019060010190808311613185575b505050918352505060048201546001600160a01b039081166020830152600583015460408301526006830154606083015260078301546080830152600883015460a083015260098301541660c0820152600a9091015460e090910152905060028151600281111561320c5761320c6156b1565b146132595760405162461bcd60e51b815260206004820152601a60248201527f4d61726b6574706c616365436f72653a204e6f74206f666665720000000000006044820152606401610961565b6101608101516001600160a01b031633146132b65760405162461bcd60e51b815260206004820152601f60248201527f4d61726b6574706c616365436f72653a204e6f7420796f7572206f66666572006044820152606401610961565b60008281526102876020526040812080546001600160a81b031990811682556001820180549091169055906132ee600283018261511c565b6132fc60038301600061511c565b506004810180546001600160a01b0319908116909155600060058301819055600683018190556007830181905560088301819055600983018054909216909155600a9091015561334e610288836138bb565b5061337b8161016001518261018001518360c001516001600160a01b0316613a209092919063ffffffff16565b817feea67889aa1eb47570ae236516cf0e18f0627d822a512e46bb29b1a683d09f1b6040516133b590602080825260009082015260400190565b60405180910390a25050600160c955565b6040805160018082528183019092526000916020808301908036833701905050905086816000815181106133fc576133fc615862565b602090810291909101015260408051600180825281830190925260009181602001602082028036833701905050905060018160008151811061344057613440615862565b6020026020010181815250506127ea6127e460018b600086868d8d8d8d613aa5565b60006001600160e01b03198216637965db0b60e01b148061073957506301ffc9a760e01b6001600160e01b0319831614610739565b61349f61513a565b60008651116134c05760405162461bcd60e51b815260040161096190615af3565b84518651146134e15760405162461bcd60e51b815260040161096190615b3b565b6001600160a01b03808916600090815261015b602052604090205481169085161461351e5760405162461bcd60e51b815260040161096190615b86565b613529856001614126565b6135755760405162461bcd60e51b815260206004820152601e60248201527f4d61726b6574706c616365436f72653a20496e76616c69642076616c756500006044820152606401610961565b600083116135955760405162461bcd60e51b815260040161096190615bc8565b61359f8887614178565b6135eb5760405162461bcd60e51b815260206004820152601b60248201527f4d61726b6574706c616365436f72653a2053656c66206f6666657200000000006044820152606401610961565b604080516101a0810190915242908060028152600060208201526001600160a01b038b166040820152606001896001811115613629576136296156b1565b8152602001888152602001878152602001866001600160a01b03168152602001828152602001858152602001610255548152602001858361366a919061588e565b8152336020820152604001939093525090979650505050505050565b6000613690614223565b600081815261028760205260409020835181549293508492829060ff191660018360028111156136c2576136c26156b1565b0217905550602082015181546001600160a01b0391821661010002610100600160a81b0319909116178255604083015160018084018054929093166001600160a01b0319831681178455606086015193926001600160a81b0319161790600160a01b908490811115613736576137366156b1565b0217905550608082015180516137569160028401916020909101906151b8565b5060a082015180516137729160038401916020909101906151b8565b5060c08201516004820180546001600160a01b039283166001600160a01b03199182161790915560e0840151600584015561010084015160068401556101208401516007840155610140840151600884015561016084015160098401805491909316911617905561018090910151600a909101556137f261028882614244565b5060c0820151613815336101808501516001600160a01b03841691903090613f44565b82604001516001600160a01b03168361016001516001600160a01b0316837f0c93cebaa7f8b20ed02ebb54d9a7ffcaa31b566f866a0b2e783e599b7bae24af600287608001518860a001518960c001518a60e001518b6101000151610255548d61010001518e60e00151613889919061588e565b8e61018001516040516138a499989796959493929190615c09565b60405180910390a4505050565b6119578133614250565b600061183783836142b4565b60018660018111156138db576138db6156b1565b0361394957604051631759616b60e11b81526001600160a01b03861690632eb2c2d690613912908790879087908790600401615c7c565b600060405180830381600087803b15801561392c57600080fd5b505af1158015613940573d6000803e3d6000fd5b50505050613a18565b600086600181111561395d5761395d6156b1565b03613a18578460005b8351811015613a1557816001600160a01b03166323b872dd878787858151811061399257613992615862565b60209081029190910101516040516001600160e01b031960e086901b1681526001600160a01b0393841660048201529290911660248301526044820152606401600060405180830381600087803b1580156139ec57600080fd5b505af1158015613a00573d6000803e3d6000fd5b5050505080613a0e90615ada565b9050613966565b50505b505050505050565b6040516001600160a01b03831660248201526044810182905261121c90849063a9059cbb60e01b906064015b60408051601f198184030181529190526020810180516001600160e01b03166001600160e01b0319909316929092179091526143a7565b613a8d8282614479565b600082815260976020526040902061121c90826144ff565b613aad61513a565b6000875111613ace5760405162461bcd60e51b815260040161096190615af3565b8551875114613aef5760405162461bcd60e51b815260040161096190615b3b565b6001600160a01b03808a16600090815261015b6020526040902054811690861614613b2c5760405162461bcd60e51b815260040161096190615b86565b613b37866001614126565b613b835760405162461bcd60e51b815260206004820152601e60248201527f4d61726b6574706c616365436f72653a20496e76616c69642076616c756500006044820152606401610961565b42841015613bde5760405162461bcd60e51b815260206004820152602260248201527f4d61726b6574706c616365436f72653a20496e76616c696420737461727454696044820152616d6560f01b6064820152608401610961565b60008311613bfe5760405162461bcd60e51b815260040161096190615bc8565b604051806101a001604052808b6002811115613c1c57613c1c6156b1565b81523360208201526001600160a01b038b166040820152606001896001811115613c4857613c486156b1565b8152602001888152602001878152602001866001600160a01b031681526020018581526020018481526020016102555481526020018486613c89919061588e565b815260006020820152604001929092525098975050505050505050565b8015613cda57613cda3383604001518460800151600081518110613ccc57613ccc615862565b602002602001015184614514565b6000613ce4614223565b600081815261028760205260409020845181549293508592829060ff19166001836002811115613d1657613d166156b1565b0217905550602082015181546001600160a01b0391821661010002610100600160a81b0319909116178255604083015160018084018054929093166001600160a01b0319831681178455606086015193926001600160a81b0319161790600160a01b908490811115613d8a57613d8a6156b1565b021790555060808201518051613daa9160028401916020909101906151b8565b5060a08201518051613dc69160038401916020909101906151b8565b5060c08201516004820180546001600160a01b039283166001600160a01b03199182161790915560e0840151600584015561010084015160068401556101208401516007840155610140840151600884015561016084015160098401805491909316911617905561018090910151600a90910155613e4661028882614244565b50613e6b83606001518460400151613e5b3390565b3087608001518860a001516138c7565b82604001516001600160a01b031683602001516001600160a01b0316827f0c93cebaa7f8b20ed02ebb54d9a7ffcaa31b566f866a0b2e783e599b7bae24af866000015187608001518860a001518960c001518a60e001518b6101000151610255548d61010001518e60e00151613889919061588e565b613eeb8282614675565b600082815260976020526040902061121c90826146dc565b6000806127106102565484613f189190615cd7565b613f229190615cf6565b90508015613f3957613f34818461588e565b611837565b61183783600161588e565b6040516001600160a01b0380851660248301528316604482015260648101829052613f7c9085906323b872dd60e01b90608401613a4c565b50505050565b600054610100900460ff16613fa95760405162461bcd60e51b815260040161096190615d18565b565b600054610100900460ff16613fd25760405162461bcd60e51b815260040161096190615d18565b613fda613f82565b613fe26146f1565b613fea614720565b613ff261474f565b613ffa61478e565b614005600033613a83565b61402f7fa49807205ce4d355092ef5a8a18f56e8913cf4a201fbe287825b095693c2177533613a83565b613fa9600080516020615e6183398151915233613a83565b600061183783836147c6565b60606000611837836147f0565b60008060008061406f8561484c565b9050808761407d828261486a565b6140879083615a79565b915061409383826148e1565b61409d9083615a79565b915081156140cc576140cc6140bb6101f1546001600160a01b031690565b6001600160a01b0383169084613a20565b60006140da8c8b8d8b6149a9565b90506000816140e9868b615a79565b6140f39190615a79565b90506141096001600160a01b0384168b83613a20565b909c939b50995091975050505050505050565b6000610739825490565b6000805b835181101561416e578284828151811061414657614146615862565b6020026020010151101561415e576000915050610739565b61416781615ada565b905061412a565b5060019392505050565b6000826001600160a01b0316636352211e8360008151811061419c5761419c615862565b60200260200101516040518263ffffffff1660e01b81526004016141c291815260200190565b602060405180830381865afa1580156141df573d6000803e3d6000fd5b505050506040513d601f19601f820116820180604052508101906142039190615d63565b6001600160a01b0316330361421a57506000610739565b50600192915050565b60008061422f60fb5490565b905061423f60fb80546001019055565b919050565b600061183783836149e2565b61425a8282611c33565b61133057614272816001600160a01b03166014614a31565b61427d836020614a31565b60405160200161428e929190615d80565b60408051601f198184030181529082905262461bcd60e51b825261096191600401615973565b6000818152600183016020526040812054801561439d5760006142d8600183615a79565b85549091506000906142ec90600190615a79565b905081811461435157600086600001828154811061430c5761430c615862565b906000526020600020015490508087600001848154811061432f5761432f615862565b6000918252602080832090910192909255918252600188019052604090208390555b855486908061436257614362615df5565b600190038181906000526020600020016000905590558560010160008681526020019081526020016000206000905560019350505050610739565b6000915050610739565b60006143fc826040518060400160405280602081526020017f5361666545524332303a206c6f772d6c6576656c2063616c6c206661696c6564815250856001600160a01b0316614bcd9092919063ffffffff16565b80519091501561121c578080602001905181019061441a9190615e0b565b61121c5760405162461bcd60e51b815260206004820152602a60248201527f5361666545524332303a204552433230206f7065726174696f6e20646964206e6044820152691bdd081cdd58d8d9595960b21b6064820152608401610961565b6144838282611c33565b6113305760008281526065602090815260408083206001600160a01b03851684529091529020805460ff191660011790556144bb3390565b6001600160a01b0316816001600160a01b0316837f2f8788117e7eff1d82e926ec794901d17c78024a50270940304540a733656f0d60405160405180910390a45050565b6000611837836001600160a01b0384166149e2565b6001600160a01b03838116600090815261018e6020908152604080832086845290915290205416156145a55760405162461bcd60e51b815260206004820152603460248201527f4d61726b6574706c616365526f79616c746965735570677261646561626c653a60448201527308149bde585b1d1e48185b1c9958591e481cd95d60621b6064820152608401610961565b6000811180156145b8575061018d548111155b61461d5760405162461bcd60e51b815260206004820152603060248201527f4d61726b6574706c616365526f79616c746965735570677261646561626c653a60448201526f20496e76616c696420726f79616c747960801b6064820152608401610961565b6040805180820182526001600160a01b0395861681526020808201938452948616600090815261018e865282812094815293909452909120915182546001600160a01b03191693169290921781559051600190910155565b61467f8282611c33565b156113305760008281526065602090815260408083206001600160a01b0385168085529252808320805460ff1916905551339285917ff6391f5c32d9c69d2a47ea670b442974b53935d1edc7fd64eb21e047a839171b9190a45050565b6000611837836001600160a01b0384166142b4565b600054610100900460ff166147185760405162461bcd60e51b815260040161096190615d18565b613fa9614be4565b600054610100900460ff166147475760405162461bcd60e51b815260040161096190615d18565b613fa9613f82565b600054610100900460ff166147765760405162461bcd60e51b815260040161096190615d18565b61477e614c12565b614786614c48565b613fa9614d3f565b600054610100900460ff166147b55760405162461bcd60e51b815260040161096190615d18565b6147bd613f82565b6103e861025655565b60008260000182815481106147dd576147dd615862565b9060005260206000200154905092915050565b60608160000180548060200260200160405190810160405280929190818152602001828054801561484057602002820191906000526020600020905b81548152602001906001019080831161482c575b50505050509050919050565b60006127106101bf54836148609190615cd7565b6107399190615cf6565b600080614878846000614dc0565b9050801561183757604051630852cd8d60e31b8152600481018290526001600160a01b038416906342966c6890602401600060405180830381600087803b1580156148c257600080fd5b505af11580156148d6573d6000803e3d6000fd5b505050509392505050565b6000806148ed84614e11565b905060006148f9614e6a565b90506000805b600481101561499f57600084826004811061491c5761491c615862565b6020020151111561498d5761496983826004811061493c5761493c615862565b602002015185836004811061495357614953615862565b60200201516001600160a01b0389169190613a20565b83816004811061497b5761497b615862565b602002015161498a908361588e565b91505b8061499781615ada565b9150506148ff565b5095945050505050565b60008060006149b9878686614f3c565b909250905080156149d8576149d86001600160a01b0387168383613a20565b9695505050505050565b6000818152600183016020526040812054614a2957508154600181810184556000848152602080822090930184905584548482528286019093526040902091909155610739565b506000610739565b60606000614a40836002615cd7565b614a4b90600261588e565b67ffffffffffffffff811115614a6357614a63615302565b6040519080825280601f01601f191660200182016040528015614a8d576020820181803683370190505b509050600360fc1b81600081518110614aa857614aa8615862565b60200101906001600160f81b031916908160001a905350600f60fb1b81600181518110614ad757614ad7615862565b60200101906001600160f81b031916908160001a9053506000614afb846002615cd7565b614b0690600161588e565b90505b6001811115614b7e576f181899199a1a9b1b9c1cb0b131b232b360811b85600f1660108110614b3a57614b3a615862565b1a60f81b828281518110614b5057614b50615862565b60200101906001600160f81b031916908160001a90535060049490941c93614b7781615e2d565b9050614b09565b5083156118375760405162461bcd60e51b815260206004820181905260248201527f537472696e67733a20686578206c656e67746820696e73756666696369656e746044820152606401610961565b6060614bdc8484600085614fb2565b949350505050565b600054610100900460ff16614c0b5760405162461bcd60e51b815260040161096190615d18565b600160c955565b600054610100900460ff16614c395760405162461bcd60e51b815260040161096190615d18565b6103e861018d55613fa9613f82565b600054610100900460ff16614c6f5760405162461bcd60e51b815260040161096190615d18565b614c77613f82565b60646101bf556101c06020526103e87f123a9b76e49b873732b4a769f58b0697f10de134da5c8244265fe1b96dbfbfcf8190557f36cb6b4f5b1d18e216416ee0979ed7d517f88d6567d3882f165013381d5b76f28190557f406287258596eef92d1ee61b5373616b4dbff6a9e15cffac6779ead439a830cd8190557f40114ed3586007997a312f56a5f82c72545dd9a8cc0b147767d1eb0ae958038881905560036000527f650cf9f8f355f77487234e4d3882486493a51981a100027b8a1d8741411838de55565b600054610100900460ff1615808015614d5f5750600054600160ff909116105b80614d795750303b158015614d79575060005460ff166001145b614d955760405162461bcd60e51b815260040161096190615a8c565b6000805460ff191660011790558015614db8576000805461ff0019166101001790555b611911613f82565b60006127106101c06000846004811115614ddc57614ddc6156b1565b6004811115614ded57614ded6156b1565b81526020019081526020016000205484614e079190615cd7565b6118379190615cf6565b614e19615203565b60006040518060800160405280614e31856001614dc0565b8152602001614e41856004614dc0565b8152602001614e51856002614dc0565b8152602001614e61856003614dc0565b90529392505050565b614e72615203565b50604080516080810182527f406f36e413ed55e71cb5eb53a4c8ae92810b98beb278dda36a9726ecfc75f90e546001600160a01b0390811682527f1e8d509806a63427737062283b69327d51e177dc1aa7727ad8b60cb64d0188925481166020808401919091527fbc40288e9fcdf6c65844a1100f08001b371f6d72a9b746ba7dd0a660f72c8acf5482169383019390935260036000526101f29092527ff3ea710bd913b11d46a8bb045be6b74773714e429efd3633381568c675975c1654909116606082015290565b6001600160a01b03808416600090815261018e60209081526040808320868452909152812080549192839216614f79576000809250925050614faa565b805460018201546001600160a01b039091169061271090614f9a9087615cd7565b614fa49190615cf6565b92509250505b935093915050565b6060824710156150135760405162461bcd60e51b815260206004820152602660248201527f416464726573733a20696e73756666696369656e742062616c616e636520666f6044820152651c8818d85b1b60d21b6064820152608401610961565b6001600160a01b0385163b61506a5760405162461bcd60e51b815260206004820152601d60248201527f416464726573733a2063616c6c20746f206e6f6e2d636f6e74726163740000006044820152606401610961565b600080866001600160a01b031685876040516150869190615e44565b60006040518083038185875af1925050503d80600081146150c3576040519150601f19603f3d011682016040523d82523d6000602084013e6150c8565b606091505b50915091506150d88282866150e3565b979650505050505050565b606083156150f2575081611837565b8251156151025782518084602001fd5b8160405162461bcd60e51b81526004016109619190615973565b50805460008255906000526020600020908101906119579190615221565b604080516101a081019091528060008152600060208201819052604082018190526060909101908152602001606081526020016060815260200160006001600160a01b031681526020016000815260200160008152602001600081526020016000815260200160006001600160a01b03168152602001600081525090565b8280548282559060005260206000209081019282156151f3579160200282015b828111156151f35782518255916020019190600101906151d8565b506151ff929150615221565b5090565b60405180608001604052806004906020820280368337509192915050565b5b808211156151ff5760008155600101615222565b60006020828403121561524857600080fd5b81356001600160e01b03198116811461183757600080fd5b6001600160a01b038116811461195757600080fd5b600080600080600060a0868803121561528d57600080fd5b853561529881615260565b94506020860135935060408601356152af81615260565b94979396509394606081013594506080013592915050565b80356005811061423f57600080fd5b600080604083850312156152e957600080fd5b823591506152f9602084016152c7565b90509250929050565b634e487b7160e01b600052604160045260246000fd5b604051601f8201601f1916810167ffffffffffffffff8111828210171561534157615341615302565b604052919050565b6000806040838503121561535c57600080fd5b8235915060208084013567ffffffffffffffff8082111561537c57600080fd5b818601915086601f83011261539057600080fd5b8135818111156153a2576153a2615302565b6153b4601f8201601f19168501615318565b915080825287848285010111156153ca57600080fd5b80848401858401376000848284010152508093505050509250929050565b6000602082840312156153fa57600080fd5b5035919050565b60006020828403121561541357600080fd5b813561183781615260565b6000806040838503121561543157600080fd5b82359150602083013561544381615260565b809150509250929050565b6000806040838503121561546157600080fd5b823561546c81615260565b91506152f9602084016152c7565b600082601f83011261548b57600080fd5b8135602067ffffffffffffffff8211156154a7576154a7615302565b8160051b6154b6828201615318565b92835284810182019282810190878511156154d057600080fd5b83870192505b848310156150d8578235825291830191908301906154d6565b600080600080600080600060e0888a03121561550a57600080fd5b873561551581615260565b9650602088013567ffffffffffffffff8082111561553257600080fd5b61553e8b838c0161547a565b975060408a013591508082111561555457600080fd5b506155618a828b0161547a565b955050606088013561557281615260565b9699959850939660808101359560a0820135955060c0909101359350915050565b600080604083850312156155a657600080fd5b82356155b181615260565b9150602083013561544381615260565b600080604083850312156155d457600080fd5b50508035926020909101359150565b6000602082840312156155f557600080fd5b611837826152c7565b600081518084526020808501945080840160005b8381101561562e57815187529582019590820190600101615612565b509495945050505050565b60208152600061183760208301846155fe565b600080600080600080600060e0888a03121561566757600080fd5b873561567281615260565b965060208801359550604088013561568981615260565b969995985095966060810135965060808101359560a0820135955060c0909101359350915050565b634e487b7160e01b600052602160045260246000fd5b600381106156d7576156d76156b1565b9052565b600281106156d7576156d76156b1565b60006020808301818452808551808352604092508286019150828160051b87010184880160005b8381101561581057603f1989840301855281516101a06157338583516156c7565b888201516001600160a01b03908116868b0152888301511688860152606080830151615761828801826156db565b5050608080830151828288015261577a838801826155fe565b9250505060a0808301518683038288015261579583826155fe565b9250505060c0808301516157b3828801826001600160a01b03169052565b505060e08281015190860152610100808301519086015261012080830151908601526101408083015190860152610160808301516001600160a01b0316908601526101809182015191909401529386019390860190600101615712565b509098975050505050505050565b600080600080600080600060e0888a03121561583957600080fd5b873561584481615260565b96506020880135955060408801359450606088013561557281615260565b634e487b7160e01b600052603260045260246000fd5b634e487b7160e01b600052601160045260246000fd5b8082018082111561073957610739615878565b60208101600583106158b5576158b56156b1565b91905290565b6020808252601f908201527f5265656e7472616e637947756172643a207265656e7472616e742063616c6c00604082015260600190565b60208082526037908201527f4d61726b6574706c616365436f72653a20496e636c756465206120726561736f60408201527f6e20666f7220746869732063616e63656c6c6174696f6e000000000000000000606082015260800190565b60005b8381101561596a578181015183820152602001615952565b50506000910152565b602081526000825180602084015261599281604085016020870161594f565b601f01601f19169190910160400192915050565b6020808252602f908201527f4d61726b6574706c616365426964546f6b656e735570677261646561626c653a60408201526e08139bdd08184818dbdb9d1c9858dd608a1b606082015260800190565b60208082526021908201527f4d61726b6574706c616365436f72653a2053616c65206e6f74207374617274656040820152601960fa1b606082015260800190565b60208082526023908201527f4d61726b6574706c616365436f72653a2042696420616d6f756e7420746f6f206040820152626c6f7760e81b606082015260800190565b8181038181111561073957610739615878565b6020808252602e908201527f496e697469616c697a61626c653a20636f6e747261637420697320616c72656160408201526d191e481a5b9a5d1a585b1a5e995960921b606082015260800190565b600060018201615aec57615aec615878565b5060010190565b60208082526028908201527f4d61726b6574706c616365436f72653a20496e76616c696420746f6b656e49646040820152670e640d8cadccee8d60c31b606082015260800190565b6020808252602b908201527f4d61726b6574706c616365436f72653a20546f6b656e496473206c656e67746860408201526a040c8dedce840dac2e8c6d60ab1b606082015260800190565b60208082526022908201527f4d61726b6574706c616365436f72653a20496e76616c69642062696420746f6b60408201526132b760f11b606082015260800190565b60208082526021908201527f4d61726b6574706c616365436f72653a20496e76616c6964206475726174696f6040820152603760f91b606082015260800190565b6000610120615c18838d6156c7565b806020840152615c2a8184018c6155fe565b90508281036040840152615c3e818b6155fe565b6001600160a01b039990991660608401525050608081019590955260a085019390935260c084019190915260e0830152610100909101529392505050565b6001600160a01b0385811682528416602082015260a060408201819052600090615ca8908301856155fe565b8281036060840152615cba81856155fe565b838103608090940193909352505060008152602001949350505050565b6000816000190483118215151615615cf157615cf1615878565b500290565b600082615d1357634e487b7160e01b600052601260045260246000fd5b500490565b6020808252602b908201527f496e697469616c697a61626c653a20636f6e7472616374206973206e6f74206960408201526a6e697469616c697a696e6760a81b606082015260800190565b600060208284031215615d7557600080fd5b815161183781615260565b7f416363657373436f6e74726f6c3a206163636f756e7420000000000000000000815260008351615db881601785016020880161594f565b7001034b99036b4b9b9b4b733903937b6329607d1b6017918401918201528351615de981602884016020880161594f565b01602801949350505050565b634e487b7160e01b600052603160045260246000fd5b600060208284031215615e1d57600080fd5b8151801515811461183757600080fd5b600081615e3c57615e3c615878565b506000190190565b60008251615e5681846020870161594f565b919091019291505056fe73e573f9566d61418a34d5de3ff49360f9c51fec37f7486551670290f6285daba2646970667358221220a5895c177cf395476ac964f737645bc04150ec6a54db6a070373bccc730d547a64736f6c63430008100033",
  "linkReferences": {},
  "deployedLinkReferences": {}
}