{
  "_format": "hh-sol-artifact-1",
  "contractName": "UnrealEngineQueryHelper",
  "sourceName": "contracts/utils/unrealEngine/UnrealEngineQueryHelper.sol",
  "abi": [
    {
      "inputs": [],
      "stateMutability": "nonpayable",
      "type": "constructor"
    },
    {
      "anonymous": false,
      "inputs": [
        {
          "indexed": false,
          "internalType": "uint8",
          "name": "version",
          "type": "uint8"
        }
      ],
      "name": "Initialized",
      "type": "event"
    },
    {
      "anonymous": false,
      "inputs": [
        {
          "indexed": true,
          "internalType": "bytes32",
          "name": "role",
          "type": "bytes32"
        },
        {
          "indexed": true,
          "internalType": "bytes32",
          "name": "previousAdminRole",
          "type": "bytes32"
        },
        {
          "indexed": true,
          "internalType": "bytes32",
          "name": "newAdminRole",
          "type": "bytes32"
        }
      ],
      "name": "RoleAdminChanged",
      "type": "event"
    },
    {
      "anonymous": false,
      "inputs": [
        {
          "indexed": true,
          "internalType": "bytes32",
          "name": "role",
          "type": "bytes32"
        },
        {
          "indexed": true,
          "internalType": "address",
          "name": "account",
          "type": "address"
        },
        {
          "indexed": true,
          "internalType": "address",
          "name": "sender",
          "type": "address"
        }
      ],
      "name": "RoleGranted",
      "type": "event"
    },
    {
      "anonymous": false,
      "inputs": [
        {
          "indexed": true,
          "internalType": "bytes32",
          "name": "role",
          "type": "bytes32"
        },
        {
          "indexed": true,
          "internalType": "address",
          "name": "account",
          "type": "address"
        },
        {
          "indexed": true,
          "internalType": "address",
          "name": "sender",
          "type": "address"
        }
      ],
      "name": "RoleRevoked",
      "type": "event"
    },
    {
      "inputs": [],
      "name": "DEFAULT_ADMIN_ROLE",
      "outputs": [
        {
          "internalType": "bytes32",
          "name": "",
          "type": "bytes32"
        }
      ],
      "stateMutability": "view",
      "type": "function"
    },
    {
      "inputs": [
        {
          "internalType": "address",
          "name": "owner",
          "type": "address"
        }
      ],
      "name": "allTokenUriOf",
      "outputs": [
        {
          "internalType": "string[]",
          "name": "",
          "type": "string[]"
        }
      ],
      "stateMutability": "view",
      "type": "function"
    },
    {
      "inputs": [
        {
          "internalType": "address",
          "name": "owner",
          "type": "address"
        }
      ],
      "name": "balancesOf",
      "outputs": [
        {
          "internalType": "uint256",
          "name": "",
          "type": "uint256"
        },
        {
          "internalType": "uint256",
          "name": "",
          "type": "uint256"
        }
      ],
      "stateMutability": "view",
      "type": "function"
    },
    {
      "inputs": [
        {
          "internalType": "address",
          "name": "owner",
          "type": "address"
        }
      ],
      "name": "dataOf",
      "outputs": [
        {
          "internalType": "uint256",
          "name": "",
          "type": "uint256"
        },
        {
          "internalType": "uint256",
          "name": "",
          "type": "uint256"
        },
        {
          "internalType": "string[]",
          "name": "",
          "type": "string[]"
        }
      ],
      "stateMutability": "view",
      "type": "function"
    },
    {
      "inputs": [
        {
          "internalType": "address",
          "name": "owner",
          "type": "address"
        },
        {
          "internalType": "string",
          "name": "uid",
          "type": "string"
        }
      ],
      "name": "dataOf2",
      "outputs": [
        {
          "internalType": "string",
          "name": "",
          "type": "string"
        },
        {
          "internalType": "uint256",
          "name": "",
          "type": "uint256"
        },
        {
          "internalType": "uint256",
          "name": "",
          "type": "uint256"
        },
        {
          "internalType": "string[]",
          "name": "",
          "type": "string[]"
        }
      ],
      "stateMutability": "view",
      "type": "function"
    },
    {
      "inputs": [
        {
          "internalType": "bytes32",
          "name": "role",
          "type": "bytes32"
        }
      ],
      "name": "getRoleAdmin",
      "outputs": [
        {
          "internalType": "bytes32",
          "name": "",
          "type": "bytes32"
        }
      ],
      "stateMutability": "view",
      "type": "function"
    },
    {
      "inputs": [
        {
          "internalType": "bytes32",
          "name": "role",
          "type": "bytes32"
        },
        {
          "internalType": "uint256",
          "name": "index",
          "type": "uint256"
        }
      ],
      "name": "getRoleMember",
      "outputs": [
        {
          "internalType": "address",
          "name": "",
          "type": "address"
        }
      ],
      "stateMutability": "view",
      "type": "function"
    },
    {
      "inputs": [
        {
          "internalType": "bytes32",
          "name": "role",
          "type": "bytes32"
        }
      ],
      "name": "getRoleMemberCount",
      "outputs": [
        {
          "internalType": "uint256",
          "name": "",
          "type": "uint256"
        }
      ],
      "stateMutability": "view",
      "type": "function"
    },
    {
      "inputs": [
        {
          "internalType": "bytes32",
          "name": "role",
          "type": "bytes32"
        },
        {
          "internalType": "address",
          "name": "account",
          "type": "address"
        }
      ],
      "name": "grantRole",
      "outputs": [],
      "stateMutability": "nonpayable",
      "type": "function"
    },
    {
      "inputs": [
        {
          "internalType": "bytes32",
          "name": "role",
          "type": "bytes32"
        },
        {
          "internalType": "address",
          "name": "account",
          "type": "address"
        }
      ],
      "name": "hasRole",
      "outputs": [
        {
          "internalType": "bool",
          "name": "",
          "type": "bool"
        }
      ],
      "stateMutability": "view",
      "type": "function"
    },
    {
      "inputs": [],
      "name": "initialize",
      "outputs": [],
      "stateMutability": "nonpayable",
      "type": "function"
    },
    {
      "inputs": [
        {
          "internalType": "bytes32",
          "name": "role",
          "type": "bytes32"
        },
        {
          "internalType": "address",
          "name": "account",
          "type": "address"
        }
      ],
      "name": "renounceRole",
      "outputs": [],
      "stateMutability": "nonpayable",
      "type": "function"
    },
    {
      "inputs": [
        {
          "internalType": "bytes32",
          "name": "role",
          "type": "bytes32"
        },
        {
          "internalType": "address",
          "name": "account",
          "type": "address"
        }
      ],
      "name": "revokeRole",
      "outputs": [],
      "stateMutability": "nonpayable",
      "type": "function"
    },
    {
      "inputs": [
        {
          "internalType": "bytes4",
          "name": "interfaceId",
          "type": "bytes4"
        }
      ],
      "name": "supportsInterface",
      "outputs": [
        {
          "internalType": "bool",
          "name": "",
          "type": "bool"
        }
      ],
      "stateMutability": "view",
      "type": "function"
    }
  ],
  "bytecode": "0x608060405234801561001057600080fd5b5061001961001e565b6100de565b600054610100900460ff161561008a5760405162461bcd60e51b815260206004820152602760248201527f496e697469616c697a61626c653a20636f6e747261637420697320696e697469604482015266616c697a696e6760c81b606482015260840160405180910390fd5b60005460ff90811610156100dc576000805460ff191660ff9081179091556040519081527f7f26b83ff96e1f2b6a682f133852f6798a09c465da95921460cefb38474024989060200160405180910390a15b565b61138a806100ed6000396000f3fe608060405234801561001057600080fd5b50600436106100ea5760003560e01c80638a54302f1161008c578063a217fddf11610066578063a217fddf14610221578063bb3d456214610229578063ca15c8731461024b578063d547741f1461025e57600080fd5b80638a54302f146101c35780639010d07c146101e357806391d148541461020e57600080fd5b806336568abe116100c857806336568abe1461015d5780634d5ba5d6146101705780636392a51f146101935780638129fc1c146101bb57600080fd5b806301ffc9a7146100ef578063248a9ca3146101175780632f2ff15d14610148575b600080fd5b6101026100fd366004610d41565b610271565b60405190151581526020015b60405180910390f35b61013a610125366004610d6b565b60009081526065602052604090206001015490565b60405190815260200161010e565b61015b610156366004610da0565b61029c565b005b61015b61016b366004610da0565b6102c6565b61018361017e366004610e3b565b610349565b60405161010e9493929190610f7d565b6101a66101a1366004610fb9565b61037f565b6040805192835260208301919091520161010e565b61015b610486565b6101d66101d1366004610fb9565b610608565b60405161010e9190610fd4565b6101f66101f1366004610fe7565b610702565b6040516001600160a01b03909116815260200161010e565b61010261021c366004610da0565b610721565b61013a600081565b61023c610237366004610fb9565b61074c565b60405161010e93929190611009565b61013a610259366004610d6b565b61077c565b61015b61026c366004610da0565b610793565b60006001600160e01b03198216635a05180f60e01b14806102965750610296826107b8565b92915050565b6000828152606560205260409020600101546102b7816107ed565b6102c183836107f7565b505050565b6001600160a01b038116331461033b5760405162461bcd60e51b815260206004820152602f60248201527f416363657373436f6e74726f6c3a2063616e206f6e6c792072656e6f756e636560448201526e103937b632b9903337b91039b2b63360891b60648201526084015b60405180910390fd5b6103458282610819565b5050565b6060600080606060008061035c8861037f565b909250905086828261036d8b610608565b929b919a509850909650945050505050565b60c9546040516370a0823160e01b81526001600160a01b03838116600483015260009283929116906370a082319060240160206040518083038186803b1580156103c857600080fd5b505afa1580156103dc573d6000803e3d6000fd5b505050506040513d601f19601f820116820180604052508101906104009190611031565b60ca546040516370a0823160e01b81526001600160a01b038681166004830152909116906370a082319060240160206040518083038186803b15801561044557600080fd5b505afa158015610459573d6000803e3d6000fd5b505050506040513d601f19601f8201168201806040525081019061047d9190611031565b91509150915091565b600054610100900460ff16158080156104a65750600054600160ff909116105b806104c05750303b1580156104c0575060005460ff166001145b6105235760405162461bcd60e51b815260206004820152602e60248201527f496e697469616c697a61626c653a20636f6e747261637420697320616c72656160448201526d191e481a5b9a5d1a585b1a5e995960921b6064820152608401610332565b6000805460ff191660011790558015610546576000805461ff0019166101001790555b61054e61083b565b6105596000336107f7565b60cb80546001600160a01b031990811673454a0e479ac78e508a95880216c06f50bf3c321c1790915560c9805482167342006ab57701251b580bdfc24778c43c9ff589a117905560ca8054909116737b5501109c2605834f7a4153a75850db7521c37e1790558015610605576000805461ff0019169055604051600181527f7f26b83ff96e1f2b6a682f133852f6798a09c465da95921460cefb38474024989060200160405180910390a15b50565b60cb54604051632118854760e21b81526001600160a01b038381166004830152606092169063ac81d361908290638462151c9060240160006040518083038186803b15801561065657600080fd5b505afa15801561066a573d6000803e3d6000fd5b505050506040513d6000823e601f3d908101601f19168201604052610692919081019061106e565b6040518263ffffffff1660e01b81526004016106ae91906110f4565b60006040518083038186803b1580156106c657600080fd5b505afa1580156106da573d6000803e3d6000fd5b505050506040513d6000823e601f3d908101601f191682016040526102969190810190611138565b600082815260976020526040812061071a90836108a8565b9392505050565b60009182526065602090815260408084206001600160a01b0393909316845291905290205460ff1690565b600080606060008061075d8661037f565b9092509050818161076d88610608565b94509450945050509193909250565b6000818152609760205260408120610296906108b4565b6000828152606560205260409020600101546107ae816107ed565b6102c18383610819565b60006001600160e01b03198216637965db0b60e01b148061029657506301ffc9a760e01b6001600160e01b0319831614610296565b61060581336108be565b6108018282610922565b60008281526097602052604090206102c190826109a8565b61082382826109bd565b60008281526097602052604090206102c19082610a24565b600054610100900460ff166108a65760405162461bcd60e51b815260206004820152602b60248201527f496e697469616c697a61626c653a20636f6e7472616374206973206e6f74206960448201526a6e697469616c697a696e6760a81b6064820152608401610332565b565b600061071a8383610a39565b6000610296825490565b6108c88282610721565b610345576108e0816001600160a01b03166014610a63565b6108eb836020610a63565b6040516020016108fc929190611225565b60408051601f198184030181529082905262461bcd60e51b82526103329160040161129a565b61092c8282610721565b6103455760008281526065602090815260408083206001600160a01b03851684529091529020805460ff191660011790556109643390565b6001600160a01b0316816001600160a01b0316837f2f8788117e7eff1d82e926ec794901d17c78024a50270940304540a733656f0d60405160405180910390a45050565b600061071a836001600160a01b038416610bff565b6109c78282610721565b156103455760008281526065602090815260408083206001600160a01b0385168085529252808320805460ff1916905551339285917ff6391f5c32d9c69d2a47ea670b442974b53935d1edc7fd64eb21e047a839171b9190a45050565b600061071a836001600160a01b038416610c4e565b6000826000018281548110610a5057610a506112ad565b9060005260206000200154905092915050565b60606000610a728360026112d9565b610a7d9060026112f8565b67ffffffffffffffff811115610a9557610a95610dcc565b6040519080825280601f01601f191660200182016040528015610abf576020820181803683370190505b509050600360fc1b81600081518110610ada57610ada6112ad565b60200101906001600160f81b031916908160001a905350600f60fb1b81600181518110610b0957610b096112ad565b60200101906001600160f81b031916908160001a9053506000610b2d8460026112d9565b610b389060016112f8565b90505b6001811115610bb0576f181899199a1a9b1b9c1cb0b131b232b360811b85600f1660108110610b6c57610b6c6112ad565b1a60f81b828281518110610b8257610b826112ad565b60200101906001600160f81b031916908160001a90535060049490941c93610ba981611310565b9050610b3b565b50831561071a5760405162461bcd60e51b815260206004820181905260248201527f537472696e67733a20686578206c656e67746820696e73756666696369656e746044820152606401610332565b6000818152600183016020526040812054610c4657508154600181810184556000848152602080822090930184905584548482528286019093526040902091909155610296565b506000610296565b60008181526001830160205260408120548015610d37576000610c72600183611327565b8554909150600090610c8690600190611327565b9050818114610ceb576000866000018281548110610ca657610ca66112ad565b9060005260206000200154905080876000018481548110610cc957610cc96112ad565b6000918252602080832090910192909255918252600188019052604090208390555b8554869080610cfc57610cfc61133e565b600190038181906000526020600020016000905590558560010160008681526020019081526020016000206000905560019350505050610296565b6000915050610296565b600060208284031215610d5357600080fd5b81356001600160e01b03198116811461071a57600080fd5b600060208284031215610d7d57600080fd5b5035919050565b80356001600160a01b0381168114610d9b57600080fd5b919050565b60008060408385031215610db357600080fd5b82359150610dc360208401610d84565b90509250929050565b634e487b7160e01b600052604160045260246000fd5b604051601f8201601f1916810167ffffffffffffffff81118282101715610e0b57610e0b610dcc565b604052919050565b600067ffffffffffffffff821115610e2d57610e2d610dcc565b50601f01601f191660200190565b60008060408385031215610e4e57600080fd5b610e5783610d84565b9150602083013567ffffffffffffffff811115610e7357600080fd5b8301601f81018513610e8457600080fd5b8035610e97610e9282610e13565b610de2565b818152866020838501011115610eac57600080fd5b816020840160208301376000602083830101528093505050509250929050565b60005b83811015610ee7578181015183820152602001610ecf565b83811115610ef6576000848401525b50505050565b60008151808452610f14816020860160208601610ecc565b601f01601f19169290920160200192915050565b600081518084526020808501808196508360051b8101915082860160005b85811015610f70578284038952610f5e848351610efc565b98850198935090840190600101610f46565b5091979650505050505050565b608081526000610f906080830187610efc565b8560208401528460408401528281036060840152610fae8185610f28565b979650505050505050565b600060208284031215610fcb57600080fd5b61071a82610d84565b60208152600061071a6020830184610f28565b60008060408385031215610ffa57600080fd5b50508035926020909101359150565b8381528260208201526060604082015260006110286060830184610f28565b95945050505050565b60006020828403121561104357600080fd5b5051919050565b600067ffffffffffffffff82111561106457611064610dcc565b5060051b60200190565b6000602080838503121561108157600080fd5b825167ffffffffffffffff81111561109857600080fd5b8301601f810185136110a957600080fd5b80516110b7610e928261104a565b81815260059190911b820183019083810190878311156110d657600080fd5b928401925b82841015610fae578351825292840192908401906110db565b6020808252825182820181905260009190848201906040850190845b8181101561112c57835183529284019291840191600101611110565b50909695505050505050565b6000602080838503121561114b57600080fd5b825167ffffffffffffffff8082111561116357600080fd5b818501915085601f83011261117757600080fd5b8151611185610e928261104a565b81815260059190911b830184019084810190888311156111a457600080fd5b8585015b83811015611218578051858111156111c05760008081fd5b8601603f81018b136111d25760008081fd5b8781015160406111e4610e9283610e13565b8281528d828486010111156111f95760008081fd5b611208838c8301848701610ecc565b86525050509186019186016111a8565b5098975050505050505050565b7f416363657373436f6e74726f6c3a206163636f756e742000000000000000000081526000835161125d816017850160208801610ecc565b7001034b99036b4b9b9b4b733903937b6329607d1b601791840191820152835161128e816028840160208801610ecc565b01602801949350505050565b60208152600061071a6020830184610efc565b634e487b7160e01b600052603260045260246000fd5b634e487b7160e01b600052601160045260246000fd5b60008160001904831182151516156112f3576112f36112c3565b500290565b6000821982111561130b5761130b6112c3565b500190565b60008161131f5761131f6112c3565b506000190190565b600082821015611339576113396112c3565b500390565b634e487b7160e01b600052603160045260246000fdfea264697066735822122059cd94c180cc01bd692748dbcec8cb5b46fd4ce7c5ef7e9cfd45494dadd453cd64736f6c63430008090033",
  "linkReferences": {},
  "deployedLinkReferences": {}
}