{
  "_format": "hh-sol-artifact-1",
  "contractName": "Evo",
  "sourceName": "contracts/ERC721/Evo/Evo.sol",
  "abi": [
    {
      "inputs": [],
      "stateMutability": "nonpayable",
      "type": "constructor"
    },
    {
      "inputs": [
        {
          "internalType": "address",
          "name": "have",
          "type": "address"
        },
        {
          "internalType": "address",
          "name": "want",
          "type": "address"
        }
      ],
      "name": "OnlyCoordinatorCanFulfill",
      "type": "error"
    },
    {
      "anonymous": false,
      "inputs": [
        {
          "indexed": true,
          "internalType": "address",
          "name": "owner",
          "type": "address"
        },
        {
          "indexed": true,
          "internalType": "address",
          "name": "approved",
          "type": "address"
        },
        {
          "indexed": true,
          "internalType": "uint256",
          "name": "tokenId",
          "type": "uint256"
        }
      ],
      "name": "Approval",
      "type": "event"
    },
    {
      "anonymous": false,
      "inputs": [
        {
          "indexed": true,
          "internalType": "address",
          "name": "owner",
          "type": "address"
        },
        {
          "indexed": true,
          "internalType": "address",
          "name": "operator",
          "type": "address"
        },
        {
          "indexed": false,
          "internalType": "bool",
          "name": "approved",
          "type": "bool"
        }
      ],
      "name": "ApprovalForAll",
      "type": "event"
    },
    {
      "anonymous": false,
      "inputs": [
        {
          "indexed": false,
          "internalType": "uint8",
          "name": "version",
          "type": "uint8"
        }
      ],
      "name": "Initialized",
      "type": "event"
    },
    {
      "anonymous": false,
      "inputs": [
        {
          "indexed": false,
          "internalType": "address",
          "name": "account",
          "type": "address"
        }
      ],
      "name": "Paused",
      "type": "event"
    },
    {
      "anonymous": false,
      "inputs": [
        {
          "indexed": true,
          "internalType": "bytes32",
          "name": "role",
          "type": "bytes32"
        },
        {
          "indexed": true,
          "internalType": "bytes32",
          "name": "previousAdminRole",
          "type": "bytes32"
        },
        {
          "indexed": true,
          "internalType": "bytes32",
          "name": "newAdminRole",
          "type": "bytes32"
        }
      ],
      "name": "RoleAdminChanged",
      "type": "event"
    },
    {
      "anonymous": false,
      "inputs": [
        {
          "indexed": true,
          "internalType": "bytes32",
          "name": "role",
          "type": "bytes32"
        },
        {
          "indexed": true,
          "internalType": "address",
          "name": "account",
          "type": "address"
        },
        {
          "indexed": true,
          "internalType": "address",
          "name": "sender",
          "type": "address"
        }
      ],
      "name": "RoleGranted",
      "type": "event"
    },
    {
      "anonymous": false,
      "inputs": [
        {
          "indexed": true,
          "internalType": "bytes32",
          "name": "role",
          "type": "bytes32"
        },
        {
          "indexed": true,
          "internalType": "address",
          "name": "account",
          "type": "address"
        },
        {
          "indexed": true,
          "internalType": "address",
          "name": "sender",
          "type": "address"
        }
      ],
      "name": "RoleRevoked",
      "type": "event"
    },
    {
      "anonymous": false,
      "inputs": [
        {
          "indexed": true,
          "internalType": "address",
          "name": "from",
          "type": "address"
        },
        {
          "indexed": true,
          "internalType": "address",
          "name": "to",
          "type": "address"
        },
        {
          "indexed": true,
          "internalType": "uint256",
          "name": "tokenId",
          "type": "uint256"
        }
      ],
      "name": "Transfer",
      "type": "event"
    },
    {
      "anonymous": false,
      "inputs": [
        {
          "indexed": false,
          "internalType": "address",
          "name": "account",
          "type": "address"
        }
      ],
      "name": "Unpaused",
      "type": "event"
    },
    {
      "inputs": [],
      "name": "ADMIN_ROLE",
      "outputs": [
        {
          "internalType": "bytes32",
          "name": "",
          "type": "bytes32"
        }
      ],
      "stateMutability": "view",
      "type": "function"
    },
    {
      "inputs": [],
      "name": "BRIDGE_ROLE",
      "outputs": [
        {
          "internalType": "bytes32",
          "name": "",
          "type": "bytes32"
        }
      ],
      "stateMutability": "view",
      "type": "function"
    },
    {
      "inputs": [],
      "name": "DEFAULT_ADMIN_ROLE",
      "outputs": [
        {
          "internalType": "bytes32",
          "name": "",
          "type": "bytes32"
        }
      ],
      "stateMutability": "view",
      "type": "function"
    },
    {
      "inputs": [],
      "name": "MINTER_ROLE",
      "outputs": [
        {
          "internalType": "bytes32",
          "name": "",
          "type": "bytes32"
        }
      ],
      "stateMutability": "view",
      "type": "function"
    },
    {
      "inputs": [
        {
          "internalType": "address",
          "name": "_address",
          "type": "address"
        }
      ],
      "name": "addBlacklist",
      "outputs": [],
      "stateMutability": "nonpayable",
      "type": "function"
    },
    {
      "inputs": [],
      "name": "animationBaseURI",
      "outputs": [
        {
          "internalType": "string",
          "name": "",
          "type": "string"
        }
      ],
      "stateMutability": "view",
      "type": "function"
    },
    {
      "inputs": [
        {
          "internalType": "address",
          "name": "to",
          "type": "address"
        },
        {
          "internalType": "uint256",
          "name": "tokenId",
          "type": "uint256"
        }
      ],
      "name": "approve",
      "outputs": [],
      "stateMutability": "nonpayable",
      "type": "function"
    },
    {
      "inputs": [
        {
          "internalType": "address",
          "name": "owner",
          "type": "address"
        }
      ],
      "name": "balanceOf",
      "outputs": [
        {
          "internalType": "uint256",
          "name": "",
          "type": "uint256"
        }
      ],
      "stateMutability": "view",
      "type": "function"
    },
    {
      "inputs": [
        {
          "internalType": "uint256",
          "name": "tokenId",
          "type": "uint256"
        },
        {
          "internalType": "uint256[]",
          "name": "attributeIds",
          "type": "uint256[]"
        },
        {
          "internalType": "uint256[]",
          "name": "values",
          "type": "uint256[]"
        }
      ],
      "name": "batchAddToAttribute",
      "outputs": [],
      "stateMutability": "nonpayable",
      "type": "function"
    },
    {
      "inputs": [
        {
          "internalType": "address",
          "name": "_address",
          "type": "address"
        },
        {
          "components": [
            {
              "internalType": "uint256",
              "name": "tokenId",
              "type": "uint256"
            },
            {
              "internalType": "uint256",
              "name": "species",
              "type": "uint256"
            },
            {
              "internalType": "uint256",
              "name": "generation",
              "type": "uint256"
            },
            {
              "internalType": "uint256",
              "name": "experience",
              "type": "uint256"
            },
            {
              "components": [
                {
                  "internalType": "uint256",
                  "name": "gender",
                  "type": "uint256"
                },
                {
                  "internalType": "uint256",
                  "name": "rarity",
                  "type": "uint256"
                },
                {
                  "internalType": "uint256",
                  "name": "primaryType",
                  "type": "uint256"
                },
                {
                  "internalType": "uint256",
                  "name": "secondaryType",
                  "type": "uint256"
                },
                {
                  "internalType": "uint256",
                  "name": "nature",
                  "type": "uint256"
                },
                {
                  "internalType": "uint256",
                  "name": "size",
                  "type": "uint256"
                }
              ],
              "internalType": "struct EvoStructs.Attributes",
              "name": "attributes",
              "type": "tuple"
            },
            {
              "components": [
                {
                  "internalType": "uint256",
                  "name": "health",
                  "type": "uint256"
                },
                {
                  "internalType": "uint256",
                  "name": "attack",
                  "type": "uint256"
                },
                {
                  "internalType": "uint256",
                  "name": "defense",
                  "type": "uint256"
                },
                {
                  "internalType": "uint256",
                  "name": "special",
                  "type": "uint256"
                },
                {
                  "internalType": "uint256",
                  "name": "resistance",
                  "type": "uint256"
                },
                {
                  "internalType": "uint256",
                  "name": "speed",
                  "type": "uint256"
                }
              ],
              "internalType": "struct EvoStructs.Stats",
              "name": "stats",
              "type": "tuple"
            },
            {
              "components": [
                {
                  "internalType": "uint256",
                  "name": "total",
                  "type": "uint256"
                },
                {
                  "internalType": "uint256",
                  "name": "remaining",
                  "type": "uint256"
                },
                {
                  "internalType": "uint256",
                  "name": "lastBreedTime",
                  "type": "uint256"
                }
              ],
              "internalType": "struct EvoStructs.Breeds",
              "name": "breeds",
              "type": "tuple"
            },
            {
              "components": [
                {
                  "internalType": "uint256",
                  "name": "move0",
                  "type": "uint256"
                },
                {
                  "internalType": "uint256",
                  "name": "move1",
                  "type": "uint256"
                },
                {
                  "internalType": "uint256",
                  "name": "move2",
                  "type": "uint256"
                },
                {
                  "internalType": "uint256",
                  "name": "move3",
                  "type": "uint256"
                }
              ],
              "internalType": "struct EvoStructs.Moves",
              "name": "moves",
              "type": "tuple"
            }
          ],
          "internalType": "struct EvoStructs.Evo[]",
          "name": "evos",
          "type": "tuple[]"
        }
      ],
      "name": "batchMint",
      "outputs": [],
      "stateMutability": "nonpayable",
      "type": "function"
    },
    {
      "inputs": [
        {
          "internalType": "uint256",
          "name": "tokenId",
          "type": "uint256"
        },
        {
          "internalType": "uint256[]",
          "name": "attributeIds",
          "type": "uint256[]"
        },
        {
          "internalType": "uint256[]",
          "name": "values",
          "type": "uint256[]"
        }
      ],
      "name": "batchSetAttribute",
      "outputs": [],
      "stateMutability": "nonpayable",
      "type": "function"
    },
    {
      "inputs": [
        {
          "internalType": "uint256[]",
          "name": "tokenIds",
          "type": "uint256[]"
        }
      ],
      "name": "batchTokenURI",
      "outputs": [
        {
          "internalType": "string[]",
          "name": "",
          "type": "string[]"
        }
      ],
      "stateMutability": "view",
      "type": "function"
    },
    {
      "inputs": [
        {
          "internalType": "uint256[]",
          "name": "tokenIds",
          "type": "uint256[]"
        }
      ],
      "name": "batchTokenUriJson",
      "outputs": [
        {
          "internalType": "string[]",
          "name": "",
          "type": "string[]"
        }
      ],
      "stateMutability": "view",
      "type": "function"
    },
    {
      "inputs": [
        {
          "internalType": "uint256",
          "name": "tokenId",
          "type": "uint256"
        }
      ],
      "name": "bridgeExtraData",
      "outputs": [
        {
          "internalType": "bytes",
          "name": "",
          "type": "bytes"
        }
      ],
      "stateMutability": "view",
      "type": "function"
    },
    {
      "inputs": [
        {
          "internalType": "uint256",
          "name": "tokenId",
          "type": "uint256"
        }
      ],
      "name": "burn",
      "outputs": [],
      "stateMutability": "nonpayable",
      "type": "function"
    },
    {
      "inputs": [],
      "name": "burnedIds",
      "outputs": [
        {
          "internalType": "uint256[]",
          "name": "",
          "type": "uint256[]"
        }
      ],
      "stateMutability": "view",
      "type": "function"
    },
    {
      "inputs": [
        {
          "internalType": "address",
          "name": "_address",
          "type": "address"
        }
      ],
      "name": "clearPendingHatch",
      "outputs": [],
      "stateMutability": "nonpayable",
      "type": "function"
    },
    {
      "inputs": [],
      "name": "getAllTokenIds",
      "outputs": [
        {
          "internalType": "uint256[]",
          "name": "",
          "type": "uint256[]"
        }
      ],
      "stateMutability": "view",
      "type": "function"
    },
    {
      "inputs": [
        {
          "internalType": "uint256",
          "name": "tokenId",
          "type": "uint256"
        }
      ],
      "name": "getApproved",
      "outputs": [
        {
          "internalType": "address",
          "name": "",
          "type": "address"
        }
      ],
      "stateMutability": "view",
      "type": "function"
    },
    {
      "inputs": [
        {
          "internalType": "uint256",
          "name": "tokenId",
          "type": "uint256"
        },
        {
          "internalType": "uint256",
          "name": "attributeId",
          "type": "uint256"
        }
      ],
      "name": "getAttribute",
      "outputs": [
        {
          "internalType": "uint256",
          "name": "",
          "type": "uint256"
        }
      ],
      "stateMutability": "view",
      "type": "function"
    },
    {
      "inputs": [
        {
          "internalType": "address",
          "name": "_address",
          "type": "address"
        }
      ],
      "name": "getPendingHatchFor",
      "outputs": [
        {
          "components": [
            {
              "internalType": "uint256[]",
              "name": "ids",
              "type": "uint256[]"
            },
            {
              "internalType": "uint256",
              "name": "requestId",
              "type": "uint256"
            },
            {
              "internalType": "uint256[]",
              "name": "words",
              "type": "uint256[]"
            }
          ],
          "internalType": "struct EvoStructs.PendingHatch",
          "name": "",
          "type": "tuple"
        }
      ],
      "stateMutability": "view",
      "type": "function"
    },
    {
      "inputs": [],
      "name": "getPendingHatchWallets",
      "outputs": [
        {
          "internalType": "address[]",
          "name": "",
          "type": "address[]"
        }
      ],
      "stateMutability": "view",
      "type": "function"
    },
    {
      "inputs": [
        {
          "internalType": "bytes32",
          "name": "role",
          "type": "bytes32"
        }
      ],
      "name": "getRoleAdmin",
      "outputs": [
        {
          "internalType": "bytes32",
          "name": "",
          "type": "bytes32"
        }
      ],
      "stateMutability": "view",
      "type": "function"
    },
    {
      "inputs": [
        {
          "internalType": "bytes32",
          "name": "role",
          "type": "bytes32"
        },
        {
          "internalType": "uint256",
          "name": "index",
          "type": "uint256"
        }
      ],
      "name": "getRoleMember",
      "outputs": [
        {
          "internalType": "address",
          "name": "",
          "type": "address"
        }
      ],
      "stateMutability": "view",
      "type": "function"
    },
    {
      "inputs": [
        {
          "internalType": "bytes32",
          "name": "role",
          "type": "bytes32"
        }
      ],
      "name": "getRoleMemberCount",
      "outputs": [
        {
          "internalType": "uint256",
          "name": "",
          "type": "uint256"
        }
      ],
      "stateMutability": "view",
      "type": "function"
    },
    {
      "inputs": [
        {
          "internalType": "bytes32",
          "name": "role",
          "type": "bytes32"
        },
        {
          "internalType": "address",
          "name": "account",
          "type": "address"
        }
      ],
      "name": "grantRole",
      "outputs": [],
      "stateMutability": "nonpayable",
      "type": "function"
    },
    {
      "inputs": [
        {
          "internalType": "bytes32",
          "name": "role",
          "type": "bytes32"
        },
        {
          "internalType": "address",
          "name": "account",
          "type": "address"
        }
      ],
      "name": "hasRole",
      "outputs": [
        {
          "internalType": "bool",
          "name": "",
          "type": "bool"
        }
      ],
      "stateMutability": "view",
      "type": "function"
    },
    {
      "inputs": [],
      "name": "imageBaseURI",
      "outputs": [
        {
          "internalType": "string",
          "name": "",
          "type": "string"
        }
      ],
      "stateMutability": "view",
      "type": "function"
    },
    {
      "inputs": [],
      "name": "initialize",
      "outputs": [],
      "stateMutability": "nonpayable",
      "type": "function"
    },
    {
      "inputs": [
        {
          "internalType": "address",
          "name": "owner",
          "type": "address"
        },
        {
          "internalType": "address",
          "name": "operator",
          "type": "address"
        }
      ],
      "name": "isApprovedForAll",
      "outputs": [
        {
          "internalType": "bool",
          "name": "",
          "type": "bool"
        }
      ],
      "stateMutability": "view",
      "type": "function"
    },
    {
      "inputs": [],
      "name": "l2Contract",
      "outputs": [
        {
          "internalType": "address",
          "name": "",
          "type": "address"
        }
      ],
      "stateMutability": "view",
      "type": "function"
    },
    {
      "inputs": [
        {
          "internalType": "address",
          "name": "_address",
          "type": "address"
        },
        {
          "components": [
            {
              "internalType": "uint256",
              "name": "tokenId",
              "type": "uint256"
            },
            {
              "internalType": "uint256",
              "name": "species",
              "type": "uint256"
            },
            {
              "internalType": "uint256",
              "name": "generation",
              "type": "uint256"
            },
            {
              "internalType": "uint256",
              "name": "experience",
              "type": "uint256"
            },
            {
              "components": [
                {
                  "internalType": "uint256",
                  "name": "gender",
                  "type": "uint256"
                },
                {
                  "internalType": "uint256",
                  "name": "rarity",
                  "type": "uint256"
                },
                {
                  "internalType": "uint256",
                  "name": "primaryType",
                  "type": "uint256"
                },
                {
                  "internalType": "uint256",
                  "name": "secondaryType",
                  "type": "uint256"
                },
                {
                  "internalType": "uint256",
                  "name": "nature",
                  "type": "uint256"
                },
                {
                  "internalType": "uint256",
                  "name": "size",
                  "type": "uint256"
                }
              ],
              "internalType": "struct EvoStructs.Attributes",
              "name": "attributes",
              "type": "tuple"
            },
            {
              "components": [
                {
                  "internalType": "uint256",
                  "name": "health",
                  "type": "uint256"
                },
                {
                  "internalType": "uint256",
                  "name": "attack",
                  "type": "uint256"
                },
                {
                  "internalType": "uint256",
                  "name": "defense",
                  "type": "uint256"
                },
                {
                  "internalType": "uint256",
                  "name": "special",
                  "type": "uint256"
                },
                {
                  "internalType": "uint256",
                  "name": "resistance",
                  "type": "uint256"
                },
                {
                  "internalType": "uint256",
                  "name": "speed",
                  "type": "uint256"
                }
              ],
              "internalType": "struct EvoStructs.Stats",
              "name": "stats",
              "type": "tuple"
            },
            {
              "components": [
                {
                  "internalType": "uint256",
                  "name": "total",
                  "type": "uint256"
                },
                {
                  "internalType": "uint256",
                  "name": "remaining",
                  "type": "uint256"
                },
                {
                  "internalType": "uint256",
                  "name": "lastBreedTime",
                  "type": "uint256"
                }
              ],
              "internalType": "struct EvoStructs.Breeds",
              "name": "breeds",
              "type": "tuple"
            },
            {
              "components": [
                {
                  "internalType": "uint256",
                  "name": "move0",
                  "type": "uint256"
                },
                {
                  "internalType": "uint256",
                  "name": "move1",
                  "type": "uint256"
                },
                {
                  "internalType": "uint256",
                  "name": "move2",
                  "type": "uint256"
                },
                {
                  "internalType": "uint256",
                  "name": "move3",
                  "type": "uint256"
                }
              ],
              "internalType": "struct EvoStructs.Moves",
              "name": "moves",
              "type": "tuple"
            }
          ],
          "internalType": "struct EvoStructs.Evo",
          "name": "evo",
          "type": "tuple"
        }
      ],
      "name": "mint",
      "outputs": [],
      "stateMutability": "nonpayable",
      "type": "function"
    },
    {
      "inputs": [],
      "name": "name",
      "outputs": [
        {
          "internalType": "string",
          "name": "",
          "type": "string"
        }
      ],
      "stateMutability": "view",
      "type": "function"
    },
    {
      "inputs": [
        {
          "internalType": "uint256",
          "name": "tokenId",
          "type": "uint256"
        }
      ],
      "name": "ownerOf",
      "outputs": [
        {
          "internalType": "address",
          "name": "",
          "type": "address"
        }
      ],
      "stateMutability": "view",
      "type": "function"
    },
    {
      "inputs": [],
      "name": "pause",
      "outputs": [],
      "stateMutability": "nonpayable",
      "type": "function"
    },
    {
      "inputs": [],
      "name": "paused",
      "outputs": [
        {
          "internalType": "bool",
          "name": "",
          "type": "bool"
        }
      ],
      "stateMutability": "view",
      "type": "function"
    },
    {
      "inputs": [
        {
          "internalType": "uint256",
          "name": "requestId",
          "type": "uint256"
        },
        {
          "internalType": "uint256[]",
          "name": "randomWords",
          "type": "uint256[]"
        }
      ],
      "name": "rawFulfillRandomWords",
      "outputs": [],
      "stateMutability": "nonpayable",
      "type": "function"
    },
    {
      "inputs": [
        {
          "internalType": "address",
          "name": "_address",
          "type": "address"
        }
      ],
      "name": "removeBlacklist",
      "outputs": [],
      "stateMutability": "nonpayable",
      "type": "function"
    },
    {
      "inputs": [
        {
          "internalType": "bytes32",
          "name": "role",
          "type": "bytes32"
        },
        {
          "internalType": "address",
          "name": "account",
          "type": "address"
        }
      ],
      "name": "renounceRole",
      "outputs": [],
      "stateMutability": "nonpayable",
      "type": "function"
    },
    {
      "inputs": [
        {
          "internalType": "bytes32",
          "name": "role",
          "type": "bytes32"
        },
        {
          "internalType": "address",
          "name": "account",
          "type": "address"
        }
      ],
      "name": "revokeRole",
      "outputs": [],
      "stateMutability": "nonpayable",
      "type": "function"
    },
    {
      "inputs": [
        {
          "internalType": "address",
          "name": "from",
          "type": "address"
        },
        {
          "internalType": "address",
          "name": "to",
          "type": "address"
        },
        {
          "internalType": "uint256",
          "name": "tokenId",
          "type": "uint256"
        }
      ],
      "name": "safeTransferFrom",
      "outputs": [],
      "stateMutability": "nonpayable",
      "type": "function"
    },
    {
      "inputs": [
        {
          "internalType": "address",
          "name": "from",
          "type": "address"
        },
        {
          "internalType": "address",
          "name": "to",
          "type": "address"
        },
        {
          "internalType": "uint256",
          "name": "tokenId",
          "type": "uint256"
        },
        {
          "internalType": "bytes",
          "name": "data",
          "type": "bytes"
        }
      ],
      "name": "safeTransferFrom",
      "outputs": [],
      "stateMutability": "nonpayable",
      "type": "function"
    },
    {
      "inputs": [
        {
          "internalType": "string",
          "name": "_animationBaseURI",
          "type": "string"
        }
      ],
      "name": "setAnimationBaseURI",
      "outputs": [],
      "stateMutability": "nonpayable",
      "type": "function"
    },
    {
      "inputs": [
        {
          "internalType": "address",
          "name": "operator",
          "type": "address"
        },
        {
          "internalType": "bool",
          "name": "approved",
          "type": "bool"
        }
      ],
      "name": "setApprovalForAll",
      "outputs": [],
      "stateMutability": "nonpayable",
      "type": "function"
    },
    {
      "inputs": [
        {
          "internalType": "uint256",
          "name": "tokenId",
          "type": "uint256"
        },
        {
          "internalType": "uint256",
          "name": "attributeId",
          "type": "uint256"
        },
        {
          "internalType": "uint256",
          "name": "value",
          "type": "uint256"
        }
      ],
      "name": "setAttribute",
      "outputs": [],
      "stateMutability": "nonpayable",
      "type": "function"
    },
    {
      "inputs": [
        {
          "internalType": "uint256",
          "name": "attributeId",
          "type": "uint256"
        },
        {
          "internalType": "uint256[]",
          "name": "indexes",
          "type": "uint256[]"
        },
        {
          "internalType": "string[]",
          "name": "strings",
          "type": "string[]"
        }
      ],
      "name": "setBaseAttributeStrings",
      "outputs": [],
      "stateMutability": "nonpayable",
      "type": "function"
    },
    {
      "inputs": [
        {
          "internalType": "string",
          "name": "_imageBaseURI",
          "type": "string"
        }
      ],
      "name": "setImageBaseURI",
      "outputs": [],
      "stateMutability": "nonpayable",
      "type": "function"
    },
    {
      "inputs": [
        {
          "internalType": "address",
          "name": "_address",
          "type": "address"
        }
      ],
      "name": "setL2Contract",
      "outputs": [],
      "stateMutability": "nonpayable",
      "type": "function"
    },
    {
      "inputs": [
        {
          "internalType": "bytes4",
          "name": "interfaceId",
          "type": "bytes4"
        }
      ],
      "name": "supportsInterface",
      "outputs": [
        {
          "internalType": "bool",
          "name": "",
          "type": "bool"
        }
      ],
      "stateMutability": "view",
      "type": "function"
    },
    {
      "inputs": [],
      "name": "symbol",
      "outputs": [
        {
          "internalType": "string",
          "name": "",
          "type": "string"
        }
      ],
      "stateMutability": "view",
      "type": "function"
    },
    {
      "inputs": [
        {
          "internalType": "uint256",
          "name": "index",
          "type": "uint256"
        }
      ],
      "name": "tokenByIndex",
      "outputs": [
        {
          "internalType": "uint256",
          "name": "",
          "type": "uint256"
        }
      ],
      "stateMutability": "view",
      "type": "function"
    },
    {
      "inputs": [
        {
          "internalType": "address",
          "name": "owner",
          "type": "address"
        },
        {
          "internalType": "uint256",
          "name": "index",
          "type": "uint256"
        }
      ],
      "name": "tokenOfOwnerByIndex",
      "outputs": [
        {
          "internalType": "uint256",
          "name": "",
          "type": "uint256"
        }
      ],
      "stateMutability": "view",
      "type": "function"
    },
    {
      "inputs": [
        {
          "internalType": "uint256",
          "name": "tokenId",
          "type": "uint256"
        }
      ],
      "name": "tokenURI",
      "outputs": [
        {
          "internalType": "string",
          "name": "",
          "type": "string"
        }
      ],
      "stateMutability": "view",
      "type": "function"
    },
    {
      "inputs": [
        {
          "internalType": "address",
          "name": "owner",
          "type": "address"
        }
      ],
      "name": "tokensOfOwner",
      "outputs": [
        {
          "internalType": "uint256[]",
          "name": "",
          "type": "uint256[]"
        }
      ],
      "stateMutability": "view",
      "type": "function"
    },
    {
      "inputs": [],
      "name": "totalBurned",
      "outputs": [
        {
          "internalType": "uint256",
          "name": "",
          "type": "uint256"
        }
      ],
      "stateMutability": "view",
      "type": "function"
    },
    {
      "inputs": [],
      "name": "totalSupply",
      "outputs": [
        {
          "internalType": "uint256",
          "name": "",
          "type": "uint256"
        }
      ],
      "stateMutability": "view",
      "type": "function"
    },
    {
      "inputs": [
        {
          "internalType": "address",
          "name": "from",
          "type": "address"
        },
        {
          "internalType": "address",
          "name": "to",
          "type": "address"
        },
        {
          "internalType": "uint256",
          "name": "tokenId",
          "type": "uint256"
        }
      ],
      "name": "transferFrom",
      "outputs": [],
      "stateMutability": "nonpayable",
      "type": "function"
    },
    {
      "inputs": [],
      "name": "unpause",
      "outputs": [],
      "stateMutability": "nonpayable",
      "type": "function"
    }
  ],
  "bytecode": "0x60806040523480156200001157600080fd5b506200001c62000022565b620000e4565b600054610100900460ff16156200008f5760405162461bcd60e51b815260206004820152602760248201527f496e697469616c697a61626c653a20636f6e747261637420697320696e697469604482015266616c697a696e6760c81b606482015260840160405180910390fd5b60005460ff9081161015620000e2576000805460ff191660ff9081179091556040519081527f7f26b83ff96e1f2b6a682f133852f6798a09c465da95921460cefb38474024989060200160405180910390a15b565b615d2980620000f46000396000f3fe608060405234801561001057600080fd5b506004361061038e5760003560e01c8063779c7527116101de578063a2c6e8881161010f578063ca15c873116100ad578063d89135cd1161007c578063d89135cd146107ae578063e985e9c5146107b6578063eb91e651146107f2578063fd5eea4e1461080557600080fd5b8063ca15c8731461076b578063cfa4e54f1461077e578063d539139314610786578063d547741f1461079b57600080fd5b8063b5bfddea116100e9578063b5bfddea14610716578063b88d4fde1461073d578063bdbed72214610750578063c87b56dd1461075857600080fd5b8063a2c6e888146106d0578063a5435ec1146106e3578063ac81d3611461070357600080fd5b806395d89b411161017c5780639bf66fa7116101565780639bf66fa71461068f5780639cfe42da146106a2578063a217fddf146106b5578063a22cb465146106bd57600080fd5b806395d89b41146106615780639b57b7d0146106695780639b9284f91461067c57600080fd5b80638456cb59116101b85780638456cb59146106135780638462151c1461061b5780639010d07c1461063b57806391d148541461064e57600080fd5b8063779c7527146105e55780637d7a6d13146105f85780638129fc1c1461060b57600080fd5b80633f4ba83a116102c35780636352211e1161026157806370a082311161023057806370a08231146105a257806375b238fc146105b55780637685945e146105ca57806377645839146105dd57600080fd5b80636352211e1461054957806364cb59d61461055c5780636cfa24cc1461056f5780636d94f13a1461058257600080fd5b80634c35ec441161029d5780634c35ec441461050d5780634f6ccce7146105225780635c975abb14610535578063633f43f71461054157600080fd5b80633f4ba83a146104df57806342842e0e146104e757806342966c68146104fa57600080fd5b80631fe543e3116103305780632f2ff15d1161030a5780632f2ff15d146104925780632f745c59146104a557806336568abe146104b85780633aced149146104cb57600080fd5b80631fe543e31461044857806323b872dd1461045b578063248a9ca31461046e57600080fd5b8063095ea7b31161036c578063095ea7b3146103fb5780630c9ac092146104105780630f3002c11461042357806318160ddd1461043657600080fd5b806301ffc9a71461039357806306fdde03146103bb578063081812fc146103d0575b600080fd5b6103a66103a1366004614570565b610818565b60405190151581526020015b60405180910390f35b6103c3610843565b6040516103b291906145e5565b6103e36103de3660046145f8565b6108d5565b6040516001600160a01b0390911681526020016103b2565b61040e61040936600461462d565b6108fc565b005b61040e61041e366004614657565b61093e565b61040e6104313660046148cd565b6109c4565b60ca545b6040519081526020016103b2565b61040e6104563660046149e5565b610a23565b61040e610469366004614a2b565b610a7c565b61043a61047c3660046145f8565b600090815261015e602052604090206001015490565b61040e6104a0366004614a67565b610aae565b61043a6104b336600461462d565b610ad4565b61040e6104c6366004614a67565b610b6a565b610296546103e3906001600160a01b031681565b61040e610be4565b61040e6104f5366004614a2b565b610c07565b61040e6105083660046145f8565b610c22565b610515610c5d565b6040516103b29190614a93565b61043a6105303660046145f8565b610c89565b61012c5460ff166103a6565b6103c3610d1c565b6103e36105573660046145f8565b610dab565b61040e61056a366004614ae0565b610e0b565b61040e61057d366004614bc3565b610ee6565b610595610590366004614bf7565b610f12565b6040516103b29190614c2b565b61043a6105b0366004614657565b610fca565b61043a600080516020615cd483398151915281565b61043a6105d8366004614c8d565b611050565b6103c361108d565b61040e6105f3366004614caf565b61109b565b61040e610606366004614ae0565b6112da565b61040e61136b565b61040e6115b7565b61062e610629366004614657565b6115d7565b6040516103b29190614d16565b6103e3610649366004614c8d565b6115e2565b6103a661065c366004614a67565b611602565b6103c361162e565b61040e610677366004614657565b61163d565b6103c361068a3660046145f8565b611679565b61040e61069d366004614d29565b61191e565b61040e6106b0366004614657565b6119c0565b61043a600081565b61040e6106cb366004614e09565b6119e4565b61040e6106de366004614bc3565b611a18565b6106f66106f1366004614657565b611a44565b6040516103b29190614e45565b610595610711366004614bf7565b611b5f565b61043a7f52ba824bfabc2bcfcdf7f0edbb486ebb05e1836c90e78047efeb949990f72e5f81565b61040e61074b366004614e91565b611c10565b61062e611c42565b6103c36107663660046145f8565b611d2c565b61043a6107793660046145f8565b611fcd565b61062e611fe5565b61043a600080516020615c7783398151915281565b61040e6107a9366004614a67565b611ff7565b61043a61201d565b6103a66107c4366004614f0c565b6001600160a01b039182166000908152609b6020908152604080832093909416825291909152205460ff1690565b61040e610800366004614657565b61202a565b61040e610813366004614f36565b61204e565b6000639b9284f960e01b6001600160e01b03198316148061083d575061083d82612080565b92915050565b60606096805461085290614f62565b80601f016020809104026020016040519081016040528092919081815260200182805461087e90614f62565b80156108cb5780601f106108a0576101008083540402835291602001916108cb565b820191906000526020600020905b8154815290600101906020018083116108ae57829003601f168201915b5050505050905090565b60006108e08261208b565b506000908152609a60205260409020546001600160a01b031690565b81610909610225826120db565b1561092f5760405162461bcd60e51b815260040161092690614f97565b60405180910390fd5b61093983836120fd565b505050565b600080516020615c778339815191526109568161220e565b6001600160a01b038216600081815261028a602081815260408084206001810154855261028d835290842080546001600160a01b03191690559383525261099d828261446d565b60018201600090556002820160006109b5919061446d565b50610939905061028b83612218565b600080516020615c778339815191526109dc8161220e565b60005b8251811015610a1d57610a0b848483815181106109fe576109fe614fc4565b602002602001015161109b565b80610a1581614ff0565b9150506109df565b50505050565b6000546201000090046001600160a01b03163314610a6e5760005460405163073e64fd60e21b8152336004820152620100009091046001600160a01b03166024820152604401610926565b610a78828261222d565b5050565b610a87335b82612267565b610aa35760405162461bcd60e51b81526004016109269061500b565b6109398383836122e6565b600082815261015e6020526040902060010154610aca8161220e565b610939838361248d565b6000610adf83610fca565b8210610b415760405162461bcd60e51b815260206004820152602b60248201527f455243373231456e756d657261626c653a206f776e657220696e646578206f7560448201526a74206f6620626f756e647360a81b6064820152608401610926565b506001600160a01b0391909116600090815260c860209081526040808320938352929052205490565b6001600160a01b0381163314610bda5760405162461bcd60e51b815260206004820152602f60248201527f416363657373436f6e74726f6c3a2063616e206f6e6c792072656e6f756e636560448201526e103937b632b9903337b91039b2b63360891b6064820152608401610926565b610a7882826124b0565b600080516020615cd4833981519152610bfc8161220e565b610c046124d3565b50565b61093983838360405180602001604052806000815250611c10565b610c2b33610a81565b610c475760405162461bcd60e51b81526004016109269061500b565b610c536101c282612526565b50610c0481612532565b6060600080516020615cd4833981519152610c778161220e565b610c8261028b6125d9565b91505b5090565b6000610c9460ca5490565b8210610cf75760405162461bcd60e51b815260206004820152602c60248201527f455243373231456e756d657261626c653a20676c6f62616c20696e646578206f60448201526b7574206f6620626f756e647360a01b6064820152608401610926565b60ca8281548110610d0a57610d0a614fc4565b90600052602060002001549050919050565b6102948054610d2a90614f62565b80601f0160208091040260200160405190810160405280929190818152602001828054610d5690614f62565b8015610da35780601f10610d7857610100808354040283529160200191610da3565b820191906000526020600020905b815481529060010190602001808311610d8657829003601f168201915b505050505081565b6000818152609860205260408120546001600160a01b03168061083d5760405162461bcd60e51b8152602060048201526018602482015277115490cdcc8c4e881a5b9d985b1a59081d1bdad95b88125160421b6044820152606401610926565b600080516020615c77833981519152610e238161220e565b60005b8351811015610edf576000610e70858381518110610e4657610e46614fc4565b602002602001015161029160008981526020019081526020016000206125e690919063ffffffff16565b9050610eca858381518110610e8757610e87614fc4565b6020026020010151858481518110610ea157610ea1614fc4565b602002602001015183610eb49190615059565b60008981526102916020526040902091906125f2565b50508080610ed790614ff0565b915050610e26565b5050505050565b600080516020615cd4833981519152610efe8161220e565b81516109399061029390602085019061448b565b6060600082516001600160401b03811115610f2f57610f2f614672565b604051908082528060200260200182016040528015610f6257816020015b6060815260200190600190039081610f4d5790505b50905060005b8351811015610fc357610f93848281518110610f8657610f86614fc4565b6020026020010151611d2c565b828281518110610fa557610fa5614fc4565b60200260200101819052508080610fbb90614ff0565b915050610f68565b5092915050565b60006001600160a01b0382166110345760405162461bcd60e51b815260206004820152602960248201527f4552433732313a2061646472657373207a65726f206973206e6f7420612076616044820152683634b21037bbb732b960b91b6064820152608401610926565b506001600160a01b031660009081526099602052604090205490565b6000600080516020615c7783398151915261106a8161220e565b60008481526102916020526040812061108390856125ff565b9695505050505050565b6102938054610d2a90614f62565b600080516020615c778339815191526110b38161220e565b60208083015183516000908152610291909252604082206110d59290916125f2565b5060808201516020908101518351600090815261029190925260409091206110ff916001906125f2565b506080820151518251600090815261029160205260409020611123916002906125f2565b506040808301518351600090815261029160205291909120611147916003906125f2565b5060808201516040908101518351600090815261029160205291909120611170916004906125f2565b506080820151606001518251600090815261029160205260409020611197916005906125f2565b5060c08201515182516000908152610291602052604090206111bb916006906125f2565b50606082015182516000908152610291602052604090206111de916007906125f2565b5060808083015101518251600090815261029160205260409020611204916008906125f2565b5060a082015160209081015183516000908152610291909252604090912061122e916009906125f2565b5060a0820151604090810151835160009081526102916020529190912061125791600a906125f2565b5060a082015160600151825160009081526102916020526040902061127e91600b906125f2565b5060a08201516080015182516000908152610291602052604090206112a591600c906125f2565b5060a080830151015182516000908152610291602052604090206112cb91600d906125f2565b5061093983836000015161261d565b600080516020615c778339815191526112f28161220e565b60005b8351811015610edf5761135884828151811061131357611313614fc4565b602002602001015184838151811061132d5761132d614fc4565b602002602001015161029160008981526020019081526020016000206125f29092919063ffffffff16565b508061136381614ff0565b9150506112f5565b600054610100900460ff161580801561138b5750600054600160ff909116105b806113a55750303b1580156113a5575060005460ff166001145b6114085760405162461bcd60e51b815260206004820152602e60248201527f496e697469616c697a61626c653a20636f6e747261637420697320616c72656160448201526d191e481a5b9a5d1a585b1a5e995960921b6064820152608401610926565b6000805460ff19166001179055801561142b576000805461ff0019166101001790555b61146b6040518060400160405280600381526020016245766f60e81b8152506040518060400160405280600381526020016245766f60e81b815250612637565b611473612668565b61147b612699565b6114836126c8565b61148b6126c8565b6114936126ef565b73d5d517abe5cf79b7e95ec98db0f0277788aff6347f83250c5584ffa93feb6ee082981c5ebe484c865196750b39835ad4f13780435d601d60036114d98484848461271e565b6114e460003361248d565b6114fc600080516020615cd48339815191523361248d565b611514600080516020615c778339815191523361248d565b6040518060600160405280603d8152602001615c97603d91398051611542916102939160209091019061448b565b505061028980546001600160a01b0319167375ddd2b19e6f7bed3bfe9d2d21dd226c38c0cbc4179055505081159050610c04576000805461ff0019169055604051600181527f7f26b83ff96e1f2b6a682f133852f6798a09c465da95921460cefb38474024989060200160405180910390a150565b600080516020615cd48339815191526115cf8161220e565b610c04612762565b606061083d826127a0565b6000828152610190602052604081206115fb9083612841565b9392505050565b600091825261015e602090815260408084206001600160a01b0393909316845291905290205460ff1690565b60606097805461085290614f62565b600080516020615cd48339815191526116558161220e565b5061029680546001600160a01b0319166001600160a01b0392909216919091179055565b6040805160c0810182526000838152610291602052918220606092919081906116a39060026125e6565b81526000858152610291602090815260409091209101906116c59060016125e6565b81526000858152610291602090815260409091209101906116e79060046125e6565b81526000858152610291602090815260409091209101906117099060056125e6565b815260008581526102916020908152604090912091019061172b9060086125e6565b81526020016000815250905060006040518060c0016040528060328152602001611772600961029160008981526020019081526020016000206125e690919063ffffffff16565b815260008681526102916020908152604090912091019061179490600a6125e6565b81526000868152610291602090815260409091209101906117b690600b6125e6565b81526000868152610291602090815260409091209101906117d890600c6125e6565b81526000868152610291602090815260409091209101906117fa90600d6125e6565b905260408051610100810182528681526000878152610291602090815292812093945092909182019061182d90846125e6565b815260008781526102916020908152604090912091019061184f9060036125e6565b81526000878152610291602090815260409091209101906118719060076125e6565b815260200184815260200183815260200160405180606001604052806118b4600661029160008c81526020019081526020016000206125e690919063ffffffff16565b81526020016000815260200160008152508152602001604051806080016040528060008152602001600081526020016000815260200160008152508152509050806040516020016119059190615071565b6040516020818303038152906040529350505050919050565b600080516020615cd48339815191526119368161220e565b60005b8351811015610edf5782818151811061195457611954614fc4565b60200260200101516102926000878152602001908152602001600020600086848151811061198457611984614fc4565b6020026020010151815260200190815260200160002090805190602001906119ad92919061448b565b50806119b881614ff0565b915050611939565b600080516020615cd48339815191526119d88161220e565b6109396102258361284d565b816119f1610225826120db565b15611a0e5760405162461bcd60e51b815260040161092690614f97565b6109398383612862565b600080516020615cd4833981519152611a308161220e565b81516109399061029490602085019061448b565b611a6860405180606001604052806060815260200160008152602001606081525090565b600080516020615c77833981519152611a808161220e565b6001600160a01b038316600090815261028a602090815260409182902082518154608093810282018401909452606081018481529093919284928491840182828015611aeb57602002820191906000526020600020905b815481526020019060010190808311611ad7575b505050505081526020016001820154815260200160028201805480602002602001604051908101604052809291908181526020018280548015611b4d57602002820191906000526020600020905b815481526020019060010190808311611b39575b50505050508152505091505b50919050565b6060600082516001600160401b03811115611b7c57611b7c614672565b604051908082528060200260200182016040528015611baf57816020015b6060815260200190600190039081611b9a5790505b50905060005b8351811015610fc357611be0848281518110611bd357611bd3614fc4565b602002602001015161286d565b828281518110611bf257611bf2614fc4565b60200260200101819052508080611c0890614ff0565b915050611bb5565b611c1a3383612267565b611c365760405162461bcd60e51b81526004016109269061500b565b610a1d84848484612a15565b6060600060015b612710811015611c8157611c5c81612a48565b15611c6f5781611c6b81614ff0565b9250505b80611c7981614ff0565b915050611c49565b506000816001600160401b03811115611c9c57611c9c614672565b604051908082528060200260200182016040528015611cc5578160200160208202803683370190505b509050600060015b612710811015611d2357611ce081612a48565b15611d115780838381518110611cf857611cf8614fc4565b602090810291909101015281611d0d81614ff0565b9250505b80611d1b81614ff0565b915050611ccd565b50909392505050565b60008181526102916020526040812060609190611d4990826125e6565b60008181527f64b0ea277fa228112a0515bbec12ee5ad8763a1bd8c09dfcbf922eaedf8fb8a36020526040812080549293509091611d8690614f62565b80601f0160208091040260200160405190810160405280929190818152602001828054611db290614f62565b8015611dff5780601f10611dd457610100808354040283529160200191611dff565b820191906000526020600020905b815481529060010190602001808311611de257829003601f168201915b505050600087815261029160205260408120939450927fdd65ea48f42c32853e504599a5705633f5988eee4bc61d4ec3f69b9a5eece2119250839150611e469060016125e6565b81526020019081526020016000208054611e5f90614f62565b80601f0160208091040260200160405190810160405280929190818152602001828054611e8b90614f62565b8015611ed85780601f10611ead57610100808354040283529160200191611ed8565b820191906000526020600020905b815481529060010190602001808311611ebb57829003601f168201915b5050505050905060006102938383604051602001611ef893929190615231565b60405160208183030381529060405290506000611f25611f1788610dab565b6001600160a01b0316612a67565b9050600084611f3389612a7d565b8484611f3e8c612a7d565b604051602001611f52959493929190615277565b60405160208183030381529060405290506000611f6e89612b7a565b905060008282604051602001611f85929190615390565b6040516020818303038152906040529050611f9f81612c1b565b604051602001611faf91906153dd565b60405160208183030381529060405298505050505050505050919050565b60008181526101906020526040812061083d90612d6e565b6060611ff26101c26125d9565b905090565b600082815261015e60205260409020600101546120138161220e565b61093983836124b0565b6000611ff26101c2612d6e565b600080516020615cd48339815191526120428161220e565b61093961022583612218565b600080516020615c778339815191526120668161220e565b600084815261029160205260409020610edf9084846125f2565b600061083d82612d78565b61209481612a48565b610c045760405162461bcd60e51b8152602060048201526018602482015277115490cdcc8c4e881a5b9d985b1a59081d1bdad95b88125160421b6044820152606401610926565b6001600160a01b038116600090815260018301602052604081205415156115fb565b600061210882610dab565b9050806001600160a01b0316836001600160a01b031614156121765760405162461bcd60e51b815260206004820152602160248201527f4552433732313a20617070726f76616c20746f2063757272656e74206f776e656044820152603960f91b6064820152608401610926565b336001600160a01b0382161480612192575061219281336107c4565b6122045760405162461bcd60e51b815260206004820152603e60248201527f4552433732313a20617070726f76652063616c6c6572206973206e6f7420746f60448201527f6b656e206f776e6572206e6f7220617070726f76656420666f7220616c6c00006064820152608401610926565b6109398383612d9d565b610c048133612e0b565b60006115fb836001600160a01b038416612e6f565b600082815261028d60209081526040808320546001600160a01b0316835261028a825290912082516109399260029092019184019061450b565b60008061227383610dab565b9050806001600160a01b0316846001600160a01b031614806122ba57506001600160a01b038082166000908152609b602090815260408083209388168352929052205460ff165b806122de5750836001600160a01b03166122d3846108d5565b6001600160a01b0316145b949350505050565b826001600160a01b03166122f982610dab565b6001600160a01b03161461235d5760405162461bcd60e51b815260206004820152602560248201527f4552433732313a207472616e736665722066726f6d20696e636f72726563742060448201526437bbb732b960d91b6064820152608401610926565b6001600160a01b0382166123bf5760405162461bcd60e51b8152602060048201526024808201527f4552433732313a207472616e7366657220746f20746865207a65726f206164646044820152637265737360e01b6064820152608401610926565b6123ca838383612f62565b6123d5600082612d9d565b6001600160a01b03831660009081526099602052604081208054600192906123fe908490615422565b90915550506001600160a01b038216600090815260996020526040812080546001929061242c908490615059565b909155505060008181526098602052604080822080546001600160a01b0319166001600160a01b0386811691821790925591518493918716917fddf252ad1be2c89b69c2b068fc378daa952ba7f163c4a11628f55a4df523b3ef91a4505050565b61249782826130de565b600082815261019060205260409020610939908261284d565b6124ba8282613165565b6000828152610190602052604090206109399082612218565b6124db6131cd565b61012c805460ff191690557f5db9ee0a495bf2e6ff9c91a7834c1ba4fdd244a5e8aa4e537bd38aeae4b073aa335b6040516001600160a01b03909116815260200160405180910390a1565b60006115fb8383613217565b600061253d82610dab565b905061254b81600084612f62565b612556600083612d9d565b6001600160a01b038116600090815260996020526040812080546001929061257f908490615422565b909155505060008281526098602052604080822080546001600160a01b0319169055518391906001600160a01b038416907fddf252ad1be2c89b69c2b068fc378daa952ba7f163c4a11628f55a4df523b3ef908390a45050565b606060006115fb83613266565b60006115fb83836132c2565b60006122de848484613332565b600080808061260e868661334f565b909450925050505b9250929050565b610a78828260405180602001604052806000815250613389565b600054610100900460ff1661265e5760405162461bcd60e51b815260040161092690615439565b610a7882826133bc565b600054610100900460ff1661268f5760405162461bcd60e51b815260040161092690615439565b6126976126c8565b565b600054610100900460ff166126c05760405162461bcd60e51b815260040161092690615439565b61269761340a565b600054610100900460ff166126975760405162461bcd60e51b815260040161092690615439565b600054610100900460ff166127165760405162461bcd60e51b815260040161092690615439565b61268f6126c8565b600054610100900460ff166127455760405162461bcd60e51b815260040161092690615439565b61274d6126c8565b6127568461343e565b610a1d8484848461346e565b61276a6134f5565b61012c805460ff191660011790557f62e78cea01bee320cd4e420270b5ea74000d11b0c9f74754ebdbfc544b05a2586125093390565b606060006127ad83610fca565b90506000816001600160401b038111156127c9576127c9614672565b6040519080825280602002602001820160405280156127f2578160200160208202803683370190505b50905060005b828110156128395761280a8582610ad4565b82828151811061281c5761281c614fc4565b60209081029190910101528061283181614ff0565b9150506127f8565b509392505050565b60006115fb838361353c565b60006115fb836001600160a01b038416613217565b610a78338383613566565b6000818152610291602052604081206060919061288a90826125e6565b60008181527f64b0ea277fa228112a0515bbec12ee5ad8763a1bd8c09dfcbf922eaedf8fb8a360205260408120805492935090916128c790614f62565b80601f01602080910402602001604051908101604052809291908181526020018280546128f390614f62565b80156129405780601f1061291557610100808354040283529160200191612940565b820191906000526020600020905b81548152906001019060200180831161292357829003601f168201915b50505050509050600061029361295584612a7d565b604051602001612966929190615484565b6040516020818303038152906040529050600061029461298587612a7d565b604051602001612996929190615484565b60405160208183030381529060405290506000836129b388612a7d565b84846040516020016129c894939291906154a9565b604051602081830303815290604052905060006129e488612b7a565b905081816040516020016129f9929190615390565b6040516020818303038152906040529650505050505050919050565b612a208484846122e6565b612a2c84848484613635565b610a1d5760405162461bcd60e51b815260040161092690615593565b6000818152609860205260408120546001600160a01b0316151561083d565b606061083d6001600160a01b0383166014613742565b606081612aa15750506040805180820190915260018152600360fc1b602082015290565b8160005b8115612acb5780612ab581614ff0565b9150612ac49050600a836155fb565b9150612aa5565b6000816001600160401b03811115612ae557612ae5614672565b6040519080825280601f01601f191660200182016040528015612b0f576020820181803683370190505b5090505b84156122de57612b24600183615422565b9150612b31600a8661560f565b612b3c906030615059565b60f81b818381518110612b5157612b51614fc4565b60200101906001600160f81b031916908160001a905350612b73600a866155fb565b9450612b13565b60606000612b87836138dd565b90506000612b9484613b4d565b90506000612ba185613d65565b9050600083604051602001612bb69190615623565b604051602081830303815290604052905060008383604051602001612bdc92919061565b565b60405160208183030381529060405290508181604051602001612c00929190615696565b60405160208183030381529060405295505050505050919050565b6060815160001415612c3b57505060408051602081019091526000815290565b6000604051806060016040528060408152602001615c376040913990506000600384516002612c6a9190615059565b612c7491906155fb565b612c7f9060046156bc565b6001600160401b03811115612c9657612c96614672565b6040519080825280601f01601f191660200182016040528015612cc0576020820181803683370190505b509050600182016020820185865187015b80821015612d2c576003820191508151603f8160121c168501518453600184019350603f81600c1c168501518453600184019350603f8160061c168501518453600184019350603f8116850151845350600183019250612cd1565b5050600386510660018114612d485760028114612d5b57612d63565b603d6001830353603d6002830353612d63565b603d60018303535b509195945050505050565b600061083d825490565b60006001600160e01b03198216635a05180f60e01b148061083d575061083d82613f62565b6000818152609a6020526040902080546001600160a01b0319166001600160a01b0384169081179091558190612dd282610dab565b6001600160a01b03167f8c5be1e5ebec7d5bd14f71427d1e84f3dd0314c0f7b2291e5b200ac8c7c3b92560405160405180910390a45050565b612e158282611602565b610a7857612e2d816001600160a01b03166014613742565b612e38836020613742565b604051602001612e499291906156db565b60408051601f198184030181529082905262461bcd60e51b8252610926916004016145e5565b60008181526001830160205260408120548015612f58576000612e93600183615422565b8554909150600090612ea790600190615422565b9050818114612f0c576000866000018281548110612ec757612ec7614fc4565b9060005260206000200154905080876000018481548110612eea57612eea614fc4565b6000918252602080832090910192909255918252600188019052604090208390555b8554869080612f1d57612f1d615750565b60019003818190600052602060002001600090559055856001016000868152602001908152602001600020600090556001935050505061083d565b600091505061083d565b612f6a6134f5565b828282732f52abfca2074b99759b58345bb984419d3042437339af60141b91f7941eb13aeda2124a61a953b7c073328eb74673eaa1d2d90a48e8137b015f1b6ed35d6032841180612fc257506001600160a01b038616155b80612fd457506001600160a01b038516155b80612ff05750826001600160a01b0316866001600160a01b0316145b8061300c5750826001600160a01b0316856001600160a01b0316145b806130285750816001600160a01b0316866001600160a01b0316145b806130445750816001600160a01b0316856001600160a01b0316145b806130605750806001600160a01b0316866001600160a01b0316145b8061307c5750806001600160a01b0316856001600160a01b0316145b6130c85760405162461bcd60e51b815260206004820152601d60248201527f5465616d2045766f20617265206e6f6e2d7472616e7366657261626c650000006044820152606401610926565b6130d3898989613f87565b505050505050505050565b6130e88282611602565b610a7857600082815261015e602090815260408083206001600160a01b03851684529091529020805460ff191660011790556131213390565b6001600160a01b0316816001600160a01b0316837f2f8788117e7eff1d82e926ec794901d17c78024a50270940304540a733656f0d60405160405180910390a45050565b61316f8282611602565b15610a7857600082815261015e602090815260408083206001600160a01b0385168085529252808320805460ff1916905551339285917ff6391f5c32d9c69d2a47ea670b442974b53935d1edc7fd64eb21e047a839171b9190a45050565b61012c5460ff166126975760405162461bcd60e51b815260206004820152601460248201527314185d5cd8589b194e881b9bdd081c185d5cd95960621b6044820152606401610926565b600081815260018301602052604081205461325e5750815460018181018455600084815260208082209093018490558454848252828601909352604090209190915561083d565b50600061083d565b6060816000018054806020026020016040519081016040528092919081815260200182805480156132b657602002820191906000526020600020905b8154815260200190600101908083116132a2575b50505050509050919050565b6000818152600283016020526040812054801515806132e657506132e68484613fe6565b6115fb5760405162461bcd60e51b815260206004820152601e60248201527f456e756d657261626c654d61703a206e6f6e6578697374656e74206b657900006044820152606401610926565b600082815260028401602052604081208290556122de8484612526565b600081815260028301602052604081205481908061337e576133718585613fe6565b9250600091506126169050565b600192509050612616565b6133938383613ff2565b6133a06000848484613635565b6109395760405162461bcd60e51b815260040161092690615593565b600054610100900460ff166133e35760405162461bcd60e51b815260040161092690615439565b81516133f690609690602085019061448b565b50805161093990609790602084019061448b565b600054610100900460ff166134315760405162461bcd60e51b815260040161092690615439565b61012c805460ff19169055565b600054610100900460ff166134655760405162461bcd60e51b815260040161092690615439565b610c0481614131565b600054610100900460ff166134955760405162461bcd60e51b815260040161092690615439565b61025880546001600160a01b039095166001600160a01b03199095169490941790935561025a80546102599390935561ffff909316680100000000000000000269ffffffffffffffffffff199092166001600160401b0390911617179055565b61012c5460ff16156126975760405162461bcd60e51b815260206004820152601060248201526f14185d5cd8589b194e881c185d5cd95960821b6044820152606401610926565b600082600001828154811061355357613553614fc4565b9060005260206000200154905092915050565b816001600160a01b0316836001600160a01b031614156135c85760405162461bcd60e51b815260206004820152601960248201527f4552433732313a20617070726f766520746f2063616c6c6572000000000000006044820152606401610926565b6001600160a01b038381166000818152609b6020908152604080832094871680845294825291829020805460ff191686151590811790915591519182527f17307eab39ab6107e8899845ad3d59bd9653f200f220920489ca2b5937696c31910160405180910390a3505050565b60006001600160a01b0384163b1561373757604051630a85bd0160e11b81526001600160a01b0385169063150b7a0290613679903390899088908890600401615766565b602060405180830381600087803b15801561369357600080fd5b505af19250505080156136c3575060408051601f3d908101601f191682019092526136c091810190615799565b60015b61371d573d8080156136f1576040519150601f19603f3d011682016040523d82523d6000602084013e6136f6565b606091505b5080516137155760405162461bcd60e51b815260040161092690615593565b805181602001fd5b6001600160e01b031916630a85bd0160e11b1490506122de565b506001949350505050565b606060006137518360026156bc565b61375c906002615059565b6001600160401b0381111561377357613773614672565b6040519080825280601f01601f19166020018201604052801561379d576020820181803683370190505b509050600360fc1b816000815181106137b8576137b8614fc4565b60200101906001600160f81b031916908160001a905350600f60fb1b816001815181106137e7576137e7614fc4565b60200101906001600160f81b031916908160001a905350600061380b8460026156bc565b613816906001615059565b90505b600181111561388e576f181899199a1a9b1b9c1cb0b131b232b360811b85600f166010811061384a5761384a614fc4565b1a60f81b82828151811061386057613860614fc4565b60200101906001600160f81b031916908160001a90535060049490941c93613887816157b6565b9050613819565b5083156115fb5760405162461bcd60e51b815260206004820181905260248201527f537472696e67733a20686578206c656e67746820696e73756666696369656e746044820152606401610926565b600081815261029160205260408120606091907f64b0ea277fa228112a0515bbec12ee5ad8763a1bd8c09dfcbf922eaedf8fb8a390829061391e90826125e6565b8152602001908152602001600020805461393790614f62565b80601f016020809104026020016040519081016040528092919081815260200182805461396390614f62565b80156139b05780601f10613985576101008083540402835291602001916139b0565b820191906000526020600020905b81548152906001019060200180831161399357829003601f168201915b505050600086815261029160205260408120939450927fdd65ea48f42c32853e504599a5705633f5988eee4bc61d4ec3f69b9a5eece21192508391506139f79060016125e6565b81526020019081526020016000208054613a1090614f62565b80601f0160208091040260200160405190810160405280929190818152602001828054613a3c90614f62565b8015613a895780601f10613a5e57610100808354040283529160200191613a89565b820191906000526020600020905b815481529060010190602001808311613a6c57829003601f168201915b50505060008781526102916020526040812093945092613aad9250905060026125e6565b15613ad6576040518060400160405280600681526020016546656d616c6560d01b815250613af4565b604051806040016040528060048152602001634d616c6560e01b8152505b60008681526102916020526040812091925090613b129060036125e6565b9050838383613b2084612a7d565b604051602001613b3394939291906157cd565b604051602081830303815290604052945050505050919050565b600081815261029160205260408120606091907fda3736b6211b14d372b9ecb2464211a5db2c6794abdf366575bf09e94acae9c6908290613b8f9060046125e6565b81526020019081526020016000208054613ba890614f62565b80601f0160208091040260200160405190810160405280929190818152602001828054613bd490614f62565b8015613c215780601f10613bf657610100808354040283529160200191613c21565b820191906000526020600020905b815481529060010190602001808311613c0457829003601f168201915b505050600086815261029160205260408120939450927fda3736b6211b14d372b9ecb2464211a5db2c6794abdf366575bf09e94acae9c69250839150613c689060056125e6565b81526020019081526020016000208054613c8190614f62565b80601f0160208091040260200160405190810160405280929190818152602001828054613cad90614f62565b8015613cfa5780601f10613ccf57610100808354040283529160200191613cfa565b820191906000526020600020905b815481529060010190602001808311613cdd57829003601f168201915b50505060008781526102916020526040812093945092613d1e9250905060066125e6565b60008681526102916020526040812091925090613d3c9060076125e6565b90508383613d4984612a7d565b613d5284612a7d565b604051602001613b3394939291906158f5565b600081815261029160205260408120606091907f6278f01af0addd8c6e4df064e22ea61de8f79a3d04d6ca1865112dfd8f6ccf85908290613da79060086125e6565b81526020019081526020016000208054613dc090614f62565b80601f0160208091040260200160405190810160405280929190818152602001828054613dec90614f62565b8015613e395780601f10613e0e57610100808354040283529160200191613e39565b820191906000526020600020905b815481529060010190602001808311613e1c57829003601f168201915b50505060008681526102916020526040812093945092613e5d9250905060096125e6565b60008581526102916020526040812091925090613e7b90600a6125e6565b60008681526102916020526040812091925090613e9990600b6125e6565b60008781526102916020526040812091925090613eb790600c6125e6565b60008881526102916020526040812091925090613ed590600d6125e6565b9050600086613ee387612a7d565b613eec87612a7d565b604051602001613efe93929190615a6b565b60405160208183030381529060405290506000613f1a85612a7d565b613f2385612a7d565b613f2c85612a7d565b604051602001613f3e93929190615b4c565b60405160208183030381529060405290508181604051602001611faf929190615696565b60006001600160e01b03198216637965db0b60e01b148061083d575061083d82614182565b82613f94610225826120db565b15613fb15760405162461bcd60e51b815260040161092690614f97565b82613fbe610225826120db565b15613fdb5760405162461bcd60e51b815260040161092690614f97565b610edf85858561418d565b60006115fb8383614198565b6001600160a01b0382166140485760405162461bcd60e51b815260206004820181905260248201527f4552433732313a206d696e7420746f20746865207a65726f20616464726573736044820152606401610926565b61405181612a48565b1561409e5760405162461bcd60e51b815260206004820152601c60248201527f4552433732313a20746f6b656e20616c7265616479206d696e746564000000006044820152606401610926565b6140aa60008383612f62565b6001600160a01b03821660009081526099602052604081208054600192906140d3908490615059565b909155505060008181526098602052604080822080546001600160a01b0319166001600160a01b03861690811790915590518392907fddf252ad1be2c89b69c2b068fc378daa952ba7f163c4a11628f55a4df523b3ef908290a45050565b600054610100900460ff166141585760405162461bcd60e51b815260040161092690615439565b600080546001600160a01b03909216620100000262010000600160b01b0319909216919091179055565b600061083d826141b0565b6109398383836141d5565b600081815260018301602052604081205415156115fb565b60006001600160e01b0319821663780e9d6360e01b148061083d575061083d8261428d565b6001600160a01b0383166142305761422b8160ca8054600083815260cb60205260408120829055600182018355919091527f42d72674974f694b5f5159593243114d38a5c39c89d6b62fee061ff523240ee10155565b614253565b816001600160a01b0316836001600160a01b0316146142535761425383826142dd565b6001600160a01b03821661426a576109398161437a565b826001600160a01b0316826001600160a01b031614610939576109398282614429565b60006001600160e01b031982166380ac58cd60e01b14806142be57506001600160e01b03198216635b5e139f60e01b145b8061083d57506301ffc9a760e01b6001600160e01b031983161461083d565b600060016142ea84610fca565b6142f49190615422565b600083815260c96020526040902054909150808214614347576001600160a01b038416600090815260c860209081526040808320858452825280832054848452818420819055835260c990915290208190555b50600091825260c9602090815260408084208490556001600160a01b03909416835260c881528383209183525290812055565b60ca5460009061438c90600190615422565b600083815260cb602052604081205460ca80549394509092849081106143b4576143b4614fc4565b906000526020600020015490508060ca83815481106143d5576143d5614fc4565b600091825260208083209091019290925582815260cb909152604080822084905585825281205560ca80548061440d5761440d615750565b6001900381819060005260206000200160009055905550505050565b600061443483610fca565b6001600160a01b03909316600090815260c860209081526040808320868452825280832085905593825260c99052919091209190915550565b5080546000825590600052602060002090810190610c049190614545565b82805461449790614f62565b90600052602060002090601f0160209004810192826144b957600085556144ff565b82601f106144d257805160ff19168380011785556144ff565b828001600101855582156144ff579182015b828111156144ff5782518255916020019190600101906144e4565b50610c85929150614545565b8280548282559060005260206000209081019282156144ff57916020028201828111156144ff5782518255916020019190600101906144e4565b5b80821115610c855760008155600101614546565b6001600160e01b031981168114610c0457600080fd5b60006020828403121561458257600080fd5b81356115fb8161455a565b60005b838110156145a8578181015183820152602001614590565b83811115610a1d5750506000910152565b600081518084526145d181602086016020860161458d565b601f01601f19169290920160200192915050565b6020815260006115fb60208301846145b9565b60006020828403121561460a57600080fd5b5035919050565b80356001600160a01b038116811461462857600080fd5b919050565b6000806040838503121561464057600080fd5b61464983614611565b946020939093013593505050565b60006020828403121561466957600080fd5b6115fb82614611565b634e487b7160e01b600052604160045260246000fd5b60405161010081016001600160401b03811182821017156146ab576146ab614672565b60405290565b604051601f8201601f191681016001600160401b03811182821017156146d9576146d9614672565b604052919050565b60006001600160401b038211156146fa576146fa614672565b5060051b60200190565b600060c0828403121561471657600080fd5b60405160c081018181106001600160401b038211171561473857614738614672565b8060405250809150823581526020830135602082015260408301356040820152606083013560608201526080830135608082015260a083013560a08201525092915050565b60006060828403121561478f57600080fd5b604051606081018181106001600160401b03821117156147b1576147b1614672565b80604052508091508235815260208301356020820152604083013560408201525092915050565b6000608082840312156147ea57600080fd5b604051608081018181106001600160401b038211171561480c5761480c614672565b8060405250809150823581526020830135602082015260408301356040820152606083013560608201525092915050565b60006102e0828403121561485057600080fd5b614858614688565b9050813581526020820135602082015260408201356040820152606082013560608201526148898360808401614704565b608082015261489c836101408401614704565b60a08201526148af83610200840161477d565b60c08201526148c28361026084016147d8565b60e082015292915050565b600080604083850312156148e057600080fd5b6148e983614611565b91506020808401356001600160401b0381111561490557600080fd5b8401601f8101861361491657600080fd5b8035614929614924826146e1565b6146b1565b8181526102e0918202830184019184820191908984111561494957600080fd5b938501935b8385101561496f576149608a8661483d565b8352938401939185019161494e565b5080955050505050509250929050565b600082601f83011261499057600080fd5b813560206149a0614924836146e1565b82815260059290921b840181019181810190868411156149bf57600080fd5b8286015b848110156149da57803583529183019183016149c3565b509695505050505050565b600080604083850312156149f857600080fd5b8235915060208301356001600160401b03811115614a1557600080fd5b614a218582860161497f565b9150509250929050565b600080600060608486031215614a4057600080fd5b614a4984614611565b9250614a5760208501614611565b9150604084013590509250925092565b60008060408385031215614a7a57600080fd5b82359150614a8a60208401614611565b90509250929050565b6020808252825182820181905260009190848201906040850190845b81811015614ad45783516001600160a01b031683529284019291840191600101614aaf565b50909695505050505050565b600080600060608486031215614af557600080fd5b8335925060208401356001600160401b0380821115614b1357600080fd5b614b1f8783880161497f565b93506040860135915080821115614b3557600080fd5b50614b428682870161497f565b9150509250925092565b60006001600160401b03831115614b6557614b65614672565b614b78601f8401601f19166020016146b1565b9050828152838383011115614b8c57600080fd5b828260208301376000602084830101529392505050565b600082601f830112614bb457600080fd5b6115fb83833560208501614b4c565b600060208284031215614bd557600080fd5b81356001600160401b03811115614beb57600080fd5b6122de84828501614ba3565b600060208284031215614c0957600080fd5b81356001600160401b03811115614c1f57600080fd5b6122de8482850161497f565b6000602080830181845280855180835260408601915060408160051b870101925083870160005b82811015614c8057603f19888603018452614c6e8583516145b9565b94509285019290850190600101614c52565b5092979650505050505050565b60008060408385031215614ca057600080fd5b50508035926020909101359150565b6000806103008385031215614cc357600080fd5b614ccc83614611565b9150614a8a846020850161483d565b600081518084526020808501945080840160005b83811015614d0b57815187529582019590820190600101614cef565b509495945050505050565b6020815260006115fb6020830184614cdb565b600080600060608486031215614d3e57600080fd5b833592506020808501356001600160401b0380821115614d5d57600080fd5b614d698883890161497f565b94506040870135915080821115614d7f57600080fd5b818701915087601f830112614d9357600080fd5b8135614da1614924826146e1565b81815260059190911b8301840190848101908a831115614dc057600080fd5b8585015b83811015614df857803585811115614ddc5760008081fd5b614dea8d89838a0101614ba3565b845250918601918601614dc4565b508096505050505050509250925092565b60008060408385031215614e1c57600080fd5b614e2583614611565b915060208301358015158114614e3a57600080fd5b809150509250929050565b602081526000825160606020840152614e616080840182614cdb565b9050602084015160408401526040840151601f19848303016060850152614e888282614cdb565b95945050505050565b60008060008060808587031215614ea757600080fd5b614eb085614611565b9350614ebe60208601614611565b92506040850135915060608501356001600160401b03811115614ee057600080fd5b8501601f81018713614ef157600080fd5b614f0087823560208401614b4c565b91505092959194509250565b60008060408385031215614f1f57600080fd5b614f2883614611565b9150614a8a60208401614611565b600080600060608486031215614f4b57600080fd5b505081359360208301359350604090920135919050565b600181811c90821680614f7657607f821691505b60208210811415611b5957634e487b7160e01b600052602260045260246000fd5b602080825260139082015272426c61636b6c6973746564206164647265737360681b604082015260600190565b634e487b7160e01b600052603260045260246000fd5b634e487b7160e01b600052601160045260246000fd5b600060001982141561500457615004614fda565b5060010190565b6020808252602e908201527f4552433732313a2063616c6c6572206973206e6f7420746f6b656e206f776e6560408201526d1c881b9bdc88185c1c1c9bdd995960921b606082015260800190565b6000821982111561506c5761506c614fda565b500190565b60006102e0820190508251825260208301516020830152604083015160408301526060830151606083015260808301516150e36080840182805182526020810151602083015260408101516040830152606081015160608301526080810151608083015260a081015160a08301525050565b5060a08381015180516101408501526020808201516101608601526040808301516101808701526060808401516101a088015260808401516101c088015292909301516101e086015260c086015180516102008701528082015161022087015283015161024086015260e0860151805161026087015290810151610280860152918201516102a08501528101516102c0840152610fc3565b8054600090600181811c908083168061519557607f831692505b60208084108214156151b757634e487b7160e01b600052602260045260246000fd5b8180156151cb57600181146151dc57615209565b60ff19861689528489019650615209565b60008881526020902060005b868110156152015781548b8201529085019083016151e8565b505084890196505b50505050505092915050565b6000815161522781856020860161458d565b9290920192915050565b600061523d828661517b565b845161524d81836020890161458d565b602f60f81b9101908152835161526a81600184016020880161458d565b0160010195945050505050565b67113730b6b2911d1160c11b8152855160009061529b816008850160208b0161458d565b61202360f01b60089184019182015286516152bd81600a840160208b0161458d565b61088b60f21b600a929091019182018190527f226465736372697074696f6e223a2245766f5665727365732045766f222c0000600c830152681134b6b0b3b2911d1160b91b602a830152865161531a816033850160208b0161458d565b6033920191820152681137bbb732b9111d1160b91b603582015261538461537761537161535b61534d603e86018a615215565b61088b60f21b815260020190565b69113a37b5b2b724b2111d60b11b8152600a0190565b86615215565b600b60fa1b815260010190565b98975050505050505050565b607b60f81b8152600083516153ac81600185016020880161458d565b8351908301906153c381600184016020880161458d565b607d60f81b60019290910191820152600201949350505050565b7f646174613a6170706c69636174696f6e2f6a736f6e3b6261736536342c00000081526000825161541581601d85016020870161458d565b91909101601d0192915050565b60008282101561543457615434614fda565b500390565b6020808252602b908201527f496e697469616c697a61626c653a20636f6e7472616374206973206e6f74206960408201526a6e697469616c697a696e6760a81b606082015260800190565b6000615490828561517b565b83516154a081836020880161458d565b01949350505050565b67113730b6b2911d1160c11b815284516000906154cd816008850160208a0161458d565b61202360f01b60089184019182015285516154ef81600a840160208a0161458d565b61088b60f21b600a92909101918201527f226465736372697074696f6e223a2245766f5665727365732045766f222c0000600c820152681134b6b0b3b2911d1160b91b602a820152845161554a81603384016020890161458d565b650b9c1b99c88b60d21b60339290910191820152701130b734b6b0ba34b7b72fbab936111d1160791b603982015261558861534d604a830186615215565b979650505050505050565b60208082526032908201527f4552433732313a207472616e7366657220746f206e6f6e20455243373231526560408201527131b2b4bb32b91034b6b83632b6b2b73a32b960711b606082015260800190565b634e487b7160e01b600052601260045260246000fd5b60008261560a5761560a6155e5565b500490565b60008261561e5761561e6155e5565b500690565b6e2261747472696275746573223a205b60881b8152815160009061564e81600f85016020870161458d565b91909101600f0192915050565b6000835161566d81846020880161458d565b83519083019061568181836020880161458d565b605d60f81b9101908152600101949350505050565b600083516156a881846020880161458d565b8351908301906154a081836020880161458d565b60008160001904831182151516156156d6576156d6614fda565b500290565b7f416363657373436f6e74726f6c3a206163636f756e742000000000000000000081526000835161571381601785016020880161458d565b7001034b99036b4b9b9b4b733903937b6329607d1b601791840191820152835161574481602884016020880161458d565b01602801949350505050565b634e487b7160e01b600052603160045260246000fd5b6001600160a01b0385811682528416602082015260408101839052608060608201819052600090611083908301846145b9565b6000602082840312156157ab57600080fd5b81516115fb8161455a565b6000816157c5576157c5614fda565b506000190190565b7f7b2274726169745f74797065223a2273706563696573222c2276616c7565223a8152601160f91b60208201526000855161580f816021850160208a0161458d565b62089f4b60ea1b60219184019182018190527f7b2274726169745f74797065223a22726172697479222c2276616c7565223a226024830152865161585a816044850160208b0161458d565b604492019182018190527f7b2274726169745f74797065223a2267656e646572222c2276616c7565223a226047830152855161589d816067850160208a0161458d565b60679201918201527f7b2274726169745f74797065223a2267656e65726174696f6e222c2276616c75606a8201526232911d60e91b608a8201526155886158e7608d830186615215565b611f4b60f21b815260020190565b7f7b2274726169745f74797065223a227072696d61727954797065222c2276616c8152643ab2911d1160d91b60208201526000855161593b816025850160208a0161458d565b62089f4b60ea1b60259184019182018190527f7b2274726169745f74797065223a225365636f6e6461727954797065222c227660288301526630b63ab2911d1160c91b6048830152865161599681604f850160208b0161458d565b604f9201918201527f7b2274726169745f74797065223a226272656564436f756e74222c2276616c7560528201526232911d60e91b60728201526155886158e7615371615a3682615a286159ee82607589018d615215565b7f7b2274726169745f74797065223a22617661696c61626c65427265656473222c815267113b30b63ab2911d60c11b602082015260280190565b612d3160f01b815260020190565b7f7b2274726169745f74797065223a22657870657269656e6365222c2276616c7581526232911d60e91b602082015260230190565b7f7b2274726169745f74797065223a226e6174757265222c2276616c7565223a22815260008451615aa381602085016020890161458d565b808301905062089f4b60ea1b60208201527f7b2274726169745f74797065223a2261747461636b222c2276616c7565223a0060238201528451615aed81604284016020890161458d565b808201915050611f4b60f21b8060428301527f7b2274726169745f74797065223a22646566656e7365222c2276616c7565223a60448301528451615b3881606485016020890161458d565b606492019182015260660195945050505050565b7f7b2274726169745f74797065223a227370656369616c222c2276616c7565223a815260008451615b8481602085016020890161458d565b8083019050611f4b60f21b8060208301527f7b2274726169745f74797065223a22726573697374616e6365222c2276616c7560228301526232911d60e91b60428301528551615bda816045850160208a0161458d565b60459201918201527f7b2274726169745f74797065223a227370656564222c2276616c7565223a000060478201528351615c1b81606584016020880161458d565b607d60f81b606592909101918201526066019594505050505056fe4142434445464748494a4b4c4d4e4f505152535455565758595a6162636465666768696a6b6c6d6e6f707172737475767778797a303132333435363738392b2f9f2df0fed2c77648de5860a4cc508cd0818c85b8b8a1ab4ceeef8d981c8956a668747470733a2f2f6769746875622e636f6d2f45766f5665727365732f7075626c69632d6173736574732f7261772f6d61696e2f6e6674732f45766f2fa49807205ce4d355092ef5a8a18f56e8913cf4a201fbe287825b095693c21775a2646970667358221220421426054e2cc9a90b14fcc267d6784770f59184fd4a2e08fa550fd82cc2b28e64736f6c63430008090033",
  "linkReferences": {},
  "deployedLinkReferences": {}
}