{
  "_format": "hh-sol-artifact-1",
  "contractName": "Evo",
  "sourceName": "contracts/ERC721/Evo/Evo.sol",
  "abi": [
    {
      "inputs": [],
      "stateMutability": "nonpayable",
      "type": "constructor"
    },
    {
      "inputs": [
        {
          "internalType": "address",
          "name": "have",
          "type": "address"
        },
        {
          "internalType": "address",
          "name": "want",
          "type": "address"
        }
      ],
      "name": "OnlyCoordinatorCanFulfill",
      "type": "error"
    },
    {
      "anonymous": false,
      "inputs": [
        {
          "indexed": true,
          "internalType": "address",
          "name": "owner",
          "type": "address"
        },
        {
          "indexed": true,
          "internalType": "address",
          "name": "approved",
          "type": "address"
        },
        {
          "indexed": true,
          "internalType": "uint256",
          "name": "tokenId",
          "type": "uint256"
        }
      ],
      "name": "Approval",
      "type": "event"
    },
    {
      "anonymous": false,
      "inputs": [
        {
          "indexed": true,
          "internalType": "address",
          "name": "owner",
          "type": "address"
        },
        {
          "indexed": true,
          "internalType": "address",
          "name": "operator",
          "type": "address"
        },
        {
          "indexed": false,
          "internalType": "bool",
          "name": "approved",
          "type": "bool"
        }
      ],
      "name": "ApprovalForAll",
      "type": "event"
    },
    {
      "anonymous": false,
      "inputs": [
        {
          "indexed": false,
          "internalType": "uint8",
          "name": "version",
          "type": "uint8"
        }
      ],
      "name": "Initialized",
      "type": "event"
    },
    {
      "anonymous": false,
      "inputs": [
        {
          "indexed": false,
          "internalType": "address",
          "name": "account",
          "type": "address"
        }
      ],
      "name": "Paused",
      "type": "event"
    },
    {
      "anonymous": false,
      "inputs": [
        {
          "indexed": true,
          "internalType": "bytes32",
          "name": "role",
          "type": "bytes32"
        },
        {
          "indexed": true,
          "internalType": "bytes32",
          "name": "previousAdminRole",
          "type": "bytes32"
        },
        {
          "indexed": true,
          "internalType": "bytes32",
          "name": "newAdminRole",
          "type": "bytes32"
        }
      ],
      "name": "RoleAdminChanged",
      "type": "event"
    },
    {
      "anonymous": false,
      "inputs": [
        {
          "indexed": true,
          "internalType": "bytes32",
          "name": "role",
          "type": "bytes32"
        },
        {
          "indexed": true,
          "internalType": "address",
          "name": "account",
          "type": "address"
        },
        {
          "indexed": true,
          "internalType": "address",
          "name": "sender",
          "type": "address"
        }
      ],
      "name": "RoleGranted",
      "type": "event"
    },
    {
      "anonymous": false,
      "inputs": [
        {
          "indexed": true,
          "internalType": "bytes32",
          "name": "role",
          "type": "bytes32"
        },
        {
          "indexed": true,
          "internalType": "address",
          "name": "account",
          "type": "address"
        },
        {
          "indexed": true,
          "internalType": "address",
          "name": "sender",
          "type": "address"
        }
      ],
      "name": "RoleRevoked",
      "type": "event"
    },
    {
      "anonymous": false,
      "inputs": [
        {
          "indexed": true,
          "internalType": "address",
          "name": "from",
          "type": "address"
        },
        {
          "indexed": true,
          "internalType": "address",
          "name": "to",
          "type": "address"
        },
        {
          "indexed": true,
          "internalType": "uint256",
          "name": "tokenId",
          "type": "uint256"
        }
      ],
      "name": "Transfer",
      "type": "event"
    },
    {
      "anonymous": false,
      "inputs": [
        {
          "indexed": false,
          "internalType": "address",
          "name": "account",
          "type": "address"
        }
      ],
      "name": "Unpaused",
      "type": "event"
    },
    {
      "inputs": [],
      "name": "ADMIN_ROLE",
      "outputs": [
        {
          "internalType": "bytes32",
          "name": "",
          "type": "bytes32"
        }
      ],
      "stateMutability": "view",
      "type": "function"
    },
    {
      "inputs": [],
      "name": "BRIDGE_ROLE",
      "outputs": [
        {
          "internalType": "bytes32",
          "name": "",
          "type": "bytes32"
        }
      ],
      "stateMutability": "view",
      "type": "function"
    },
    {
      "inputs": [],
      "name": "DEFAULT_ADMIN_ROLE",
      "outputs": [
        {
          "internalType": "bytes32",
          "name": "",
          "type": "bytes32"
        }
      ],
      "stateMutability": "view",
      "type": "function"
    },
    {
      "inputs": [],
      "name": "MINTER_ROLE",
      "outputs": [
        {
          "internalType": "bytes32",
          "name": "",
          "type": "bytes32"
        }
      ],
      "stateMutability": "view",
      "type": "function"
    },
    {
      "inputs": [
        {
          "internalType": "address",
          "name": "_address",
          "type": "address"
        }
      ],
      "name": "addBlacklist",
      "outputs": [],
      "stateMutability": "nonpayable",
      "type": "function"
    },
    {
      "inputs": [],
      "name": "animationBaseURI",
      "outputs": [
        {
          "internalType": "string",
          "name": "",
          "type": "string"
        }
      ],
      "stateMutability": "view",
      "type": "function"
    },
    {
      "inputs": [
        {
          "internalType": "address",
          "name": "to",
          "type": "address"
        },
        {
          "internalType": "uint256",
          "name": "tokenId",
          "type": "uint256"
        }
      ],
      "name": "approve",
      "outputs": [],
      "stateMutability": "nonpayable",
      "type": "function"
    },
    {
      "inputs": [
        {
          "internalType": "address",
          "name": "owner",
          "type": "address"
        }
      ],
      "name": "balanceOf",
      "outputs": [
        {
          "internalType": "uint256",
          "name": "",
          "type": "uint256"
        }
      ],
      "stateMutability": "view",
      "type": "function"
    },
    {
      "inputs": [
        {
          "internalType": "uint256",
          "name": "tokenId",
          "type": "uint256"
        },
        {
          "internalType": "uint256[]",
          "name": "attributeIds",
          "type": "uint256[]"
        },
        {
          "internalType": "uint256[]",
          "name": "values",
          "type": "uint256[]"
        }
      ],
      "name": "batchAddToAttribute",
      "outputs": [],
      "stateMutability": "nonpayable",
      "type": "function"
    },
    {
      "inputs": [
        {
          "internalType": "address",
          "name": "_address",
          "type": "address"
        },
        {
          "components": [
            {
              "internalType": "uint256",
              "name": "tokenId",
              "type": "uint256"
            },
            {
              "internalType": "uint256",
              "name": "species",
              "type": "uint256"
            },
            {
              "internalType": "uint256",
              "name": "generation",
              "type": "uint256"
            },
            {
              "internalType": "uint256",
              "name": "experience",
              "type": "uint256"
            },
            {
              "components": [
                {
                  "internalType": "uint256",
                  "name": "gender",
                  "type": "uint256"
                },
                {
                  "internalType": "uint256",
                  "name": "rarity",
                  "type": "uint256"
                },
                {
                  "internalType": "uint256",
                  "name": "primaryType",
                  "type": "uint256"
                },
                {
                  "internalType": "uint256",
                  "name": "secondaryType",
                  "type": "uint256"
                },
                {
                  "internalType": "uint256",
                  "name": "nature",
                  "type": "uint256"
                },
                {
                  "internalType": "uint256",
                  "name": "size",
                  "type": "uint256"
                }
              ],
              "internalType": "struct EvoStructs.Attributes",
              "name": "attributes",
              "type": "tuple"
            },
            {
              "components": [
                {
                  "internalType": "uint256",
                  "name": "health",
                  "type": "uint256"
                },
                {
                  "internalType": "uint256",
                  "name": "attack",
                  "type": "uint256"
                },
                {
                  "internalType": "uint256",
                  "name": "defense",
                  "type": "uint256"
                },
                {
                  "internalType": "uint256",
                  "name": "special",
                  "type": "uint256"
                },
                {
                  "internalType": "uint256",
                  "name": "resistance",
                  "type": "uint256"
                },
                {
                  "internalType": "uint256",
                  "name": "speed",
                  "type": "uint256"
                }
              ],
              "internalType": "struct EvoStructs.Stats",
              "name": "stats",
              "type": "tuple"
            },
            {
              "components": [
                {
                  "internalType": "uint256",
                  "name": "total",
                  "type": "uint256"
                },
                {
                  "internalType": "uint256",
                  "name": "remaining",
                  "type": "uint256"
                },
                {
                  "internalType": "uint256",
                  "name": "lastBreedTime",
                  "type": "uint256"
                }
              ],
              "internalType": "struct EvoStructs.Breeds",
              "name": "breeds",
              "type": "tuple"
            },
            {
              "components": [
                {
                  "internalType": "uint256",
                  "name": "move0",
                  "type": "uint256"
                },
                {
                  "internalType": "uint256",
                  "name": "move1",
                  "type": "uint256"
                },
                {
                  "internalType": "uint256",
                  "name": "move2",
                  "type": "uint256"
                },
                {
                  "internalType": "uint256",
                  "name": "move3",
                  "type": "uint256"
                }
              ],
              "internalType": "struct EvoStructs.Moves",
              "name": "moves",
              "type": "tuple"
            }
          ],
          "internalType": "struct EvoStructs.Evo[]",
          "name": "evos",
          "type": "tuple[]"
        }
      ],
      "name": "batchMint",
      "outputs": [],
      "stateMutability": "nonpayable",
      "type": "function"
    },
    {
      "inputs": [
        {
          "internalType": "uint256",
          "name": "tokenId",
          "type": "uint256"
        },
        {
          "internalType": "uint256[]",
          "name": "attributeIds",
          "type": "uint256[]"
        },
        {
          "internalType": "uint256[]",
          "name": "values",
          "type": "uint256[]"
        }
      ],
      "name": "batchSetAttribute",
      "outputs": [],
      "stateMutability": "nonpayable",
      "type": "function"
    },
    {
      "inputs": [
        {
          "internalType": "uint256[]",
          "name": "tokenIds",
          "type": "uint256[]"
        }
      ],
      "name": "batchTokenURI",
      "outputs": [
        {
          "internalType": "string[]",
          "name": "",
          "type": "string[]"
        }
      ],
      "stateMutability": "view",
      "type": "function"
    },
    {
      "inputs": [
        {
          "internalType": "uint256[]",
          "name": "tokenIds",
          "type": "uint256[]"
        }
      ],
      "name": "batchTokenUriJson",
      "outputs": [
        {
          "internalType": "string[]",
          "name": "",
          "type": "string[]"
        }
      ],
      "stateMutability": "view",
      "type": "function"
    },
    {
      "inputs": [
        {
          "internalType": "uint256",
          "name": "tokenId",
          "type": "uint256"
        }
      ],
      "name": "bridgeExtraData",
      "outputs": [
        {
          "internalType": "bytes",
          "name": "",
          "type": "bytes"
        }
      ],
      "stateMutability": "view",
      "type": "function"
    },
    {
      "inputs": [
        {
          "internalType": "uint256",
          "name": "tokenId",
          "type": "uint256"
        }
      ],
      "name": "burn",
      "outputs": [],
      "stateMutability": "nonpayable",
      "type": "function"
    },
    {
      "inputs": [],
      "name": "burnedIds",
      "outputs": [
        {
          "internalType": "uint256[]",
          "name": "",
          "type": "uint256[]"
        }
      ],
      "stateMutability": "view",
      "type": "function"
    },
    {
      "inputs": [
        {
          "internalType": "address",
          "name": "_address",
          "type": "address"
        }
      ],
      "name": "clearPendingHatch",
      "outputs": [],
      "stateMutability": "nonpayable",
      "type": "function"
    },
    {
      "inputs": [],
      "name": "getAllTokenIds",
      "outputs": [
        {
          "internalType": "uint256[]",
          "name": "",
          "type": "uint256[]"
        }
      ],
      "stateMutability": "view",
      "type": "function"
    },
    {
      "inputs": [
        {
          "internalType": "uint256",
          "name": "tokenId",
          "type": "uint256"
        }
      ],
      "name": "getApproved",
      "outputs": [
        {
          "internalType": "address",
          "name": "",
          "type": "address"
        }
      ],
      "stateMutability": "view",
      "type": "function"
    },
    {
      "inputs": [
        {
          "internalType": "uint256",
          "name": "tokenId",
          "type": "uint256"
        },
        {
          "internalType": "uint256",
          "name": "attributeId",
          "type": "uint256"
        }
      ],
      "name": "getAttribute",
      "outputs": [
        {
          "internalType": "uint256",
          "name": "",
          "type": "uint256"
        }
      ],
      "stateMutability": "view",
      "type": "function"
    },
    {
      "inputs": [
        {
          "internalType": "address",
          "name": "_address",
          "type": "address"
        }
      ],
      "name": "getPendingHatchFor",
      "outputs": [
        {
          "components": [
            {
              "internalType": "uint256[]",
              "name": "ids",
              "type": "uint256[]"
            },
            {
              "internalType": "uint256",
              "name": "requestId",
              "type": "uint256"
            },
            {
              "internalType": "uint256[]",
              "name": "words",
              "type": "uint256[]"
            }
          ],
          "internalType": "struct EvoStructs.PendingHatch",
          "name": "",
          "type": "tuple"
        }
      ],
      "stateMutability": "view",
      "type": "function"
    },
    {
      "inputs": [],
      "name": "getPendingHatchWallets",
      "outputs": [
        {
          "internalType": "address[]",
          "name": "",
          "type": "address[]"
        }
      ],
      "stateMutability": "view",
      "type": "function"
    },
    {
      "inputs": [
        {
          "internalType": "bytes32",
          "name": "role",
          "type": "bytes32"
        }
      ],
      "name": "getRoleAdmin",
      "outputs": [
        {
          "internalType": "bytes32",
          "name": "",
          "type": "bytes32"
        }
      ],
      "stateMutability": "view",
      "type": "function"
    },
    {
      "inputs": [
        {
          "internalType": "bytes32",
          "name": "role",
          "type": "bytes32"
        },
        {
          "internalType": "uint256",
          "name": "index",
          "type": "uint256"
        }
      ],
      "name": "getRoleMember",
      "outputs": [
        {
          "internalType": "address",
          "name": "",
          "type": "address"
        }
      ],
      "stateMutability": "view",
      "type": "function"
    },
    {
      "inputs": [
        {
          "internalType": "bytes32",
          "name": "role",
          "type": "bytes32"
        }
      ],
      "name": "getRoleMemberCount",
      "outputs": [
        {
          "internalType": "uint256",
          "name": "",
          "type": "uint256"
        }
      ],
      "stateMutability": "view",
      "type": "function"
    },
    {
      "inputs": [
        {
          "internalType": "bytes32",
          "name": "role",
          "type": "bytes32"
        },
        {
          "internalType": "address",
          "name": "account",
          "type": "address"
        }
      ],
      "name": "grantRole",
      "outputs": [],
      "stateMutability": "nonpayable",
      "type": "function"
    },
    {
      "inputs": [
        {
          "internalType": "bytes32",
          "name": "role",
          "type": "bytes32"
        },
        {
          "internalType": "address",
          "name": "account",
          "type": "address"
        }
      ],
      "name": "hasRole",
      "outputs": [
        {
          "internalType": "bool",
          "name": "",
          "type": "bool"
        }
      ],
      "stateMutability": "view",
      "type": "function"
    },
    {
      "inputs": [],
      "name": "imageBaseURI",
      "outputs": [
        {
          "internalType": "string",
          "name": "",
          "type": "string"
        }
      ],
      "stateMutability": "view",
      "type": "function"
    },
    {
      "inputs": [],
      "name": "initialize",
      "outputs": [],
      "stateMutability": "nonpayable",
      "type": "function"
    },
    {
      "inputs": [
        {
          "internalType": "address",
          "name": "owner",
          "type": "address"
        },
        {
          "internalType": "address",
          "name": "operator",
          "type": "address"
        }
      ],
      "name": "isApprovedForAll",
      "outputs": [
        {
          "internalType": "bool",
          "name": "",
          "type": "bool"
        }
      ],
      "stateMutability": "view",
      "type": "function"
    },
    {
      "inputs": [],
      "name": "l2Contract",
      "outputs": [
        {
          "internalType": "address",
          "name": "",
          "type": "address"
        }
      ],
      "stateMutability": "view",
      "type": "function"
    },
    {
      "inputs": [
        {
          "internalType": "address",
          "name": "_address",
          "type": "address"
        },
        {
          "components": [
            {
              "internalType": "uint256",
              "name": "tokenId",
              "type": "uint256"
            },
            {
              "internalType": "uint256",
              "name": "species",
              "type": "uint256"
            },
            {
              "internalType": "uint256",
              "name": "generation",
              "type": "uint256"
            },
            {
              "internalType": "uint256",
              "name": "experience",
              "type": "uint256"
            },
            {
              "components": [
                {
                  "internalType": "uint256",
                  "name": "gender",
                  "type": "uint256"
                },
                {
                  "internalType": "uint256",
                  "name": "rarity",
                  "type": "uint256"
                },
                {
                  "internalType": "uint256",
                  "name": "primaryType",
                  "type": "uint256"
                },
                {
                  "internalType": "uint256",
                  "name": "secondaryType",
                  "type": "uint256"
                },
                {
                  "internalType": "uint256",
                  "name": "nature",
                  "type": "uint256"
                },
                {
                  "internalType": "uint256",
                  "name": "size",
                  "type": "uint256"
                }
              ],
              "internalType": "struct EvoStructs.Attributes",
              "name": "attributes",
              "type": "tuple"
            },
            {
              "components": [
                {
                  "internalType": "uint256",
                  "name": "health",
                  "type": "uint256"
                },
                {
                  "internalType": "uint256",
                  "name": "attack",
                  "type": "uint256"
                },
                {
                  "internalType": "uint256",
                  "name": "defense",
                  "type": "uint256"
                },
                {
                  "internalType": "uint256",
                  "name": "special",
                  "type": "uint256"
                },
                {
                  "internalType": "uint256",
                  "name": "resistance",
                  "type": "uint256"
                },
                {
                  "internalType": "uint256",
                  "name": "speed",
                  "type": "uint256"
                }
              ],
              "internalType": "struct EvoStructs.Stats",
              "name": "stats",
              "type": "tuple"
            },
            {
              "components": [
                {
                  "internalType": "uint256",
                  "name": "total",
                  "type": "uint256"
                },
                {
                  "internalType": "uint256",
                  "name": "remaining",
                  "type": "uint256"
                },
                {
                  "internalType": "uint256",
                  "name": "lastBreedTime",
                  "type": "uint256"
                }
              ],
              "internalType": "struct EvoStructs.Breeds",
              "name": "breeds",
              "type": "tuple"
            },
            {
              "components": [
                {
                  "internalType": "uint256",
                  "name": "move0",
                  "type": "uint256"
                },
                {
                  "internalType": "uint256",
                  "name": "move1",
                  "type": "uint256"
                },
                {
                  "internalType": "uint256",
                  "name": "move2",
                  "type": "uint256"
                },
                {
                  "internalType": "uint256",
                  "name": "move3",
                  "type": "uint256"
                }
              ],
              "internalType": "struct EvoStructs.Moves",
              "name": "moves",
              "type": "tuple"
            }
          ],
          "internalType": "struct EvoStructs.Evo",
          "name": "evo",
          "type": "tuple"
        }
      ],
      "name": "mint",
      "outputs": [],
      "stateMutability": "nonpayable",
      "type": "function"
    },
    {
      "inputs": [],
      "name": "name",
      "outputs": [
        {
          "internalType": "string",
          "name": "",
          "type": "string"
        }
      ],
      "stateMutability": "view",
      "type": "function"
    },
    {
      "inputs": [
        {
          "internalType": "uint256",
          "name": "tokenId",
          "type": "uint256"
        }
      ],
      "name": "ownerOf",
      "outputs": [
        {
          "internalType": "address",
          "name": "",
          "type": "address"
        }
      ],
      "stateMutability": "view",
      "type": "function"
    },
    {
      "inputs": [],
      "name": "pause",
      "outputs": [],
      "stateMutability": "nonpayable",
      "type": "function"
    },
    {
      "inputs": [],
      "name": "paused",
      "outputs": [
        {
          "internalType": "bool",
          "name": "",
          "type": "bool"
        }
      ],
      "stateMutability": "view",
      "type": "function"
    },
    {
      "inputs": [
        {
          "internalType": "uint256",
          "name": "requestId",
          "type": "uint256"
        },
        {
          "internalType": "uint256[]",
          "name": "randomWords",
          "type": "uint256[]"
        }
      ],
      "name": "rawFulfillRandomWords",
      "outputs": [],
      "stateMutability": "nonpayable",
      "type": "function"
    },
    {
      "inputs": [
        {
          "internalType": "address",
          "name": "_address",
          "type": "address"
        }
      ],
      "name": "removeBlacklist",
      "outputs": [],
      "stateMutability": "nonpayable",
      "type": "function"
    },
    {
      "inputs": [
        {
          "internalType": "bytes32",
          "name": "role",
          "type": "bytes32"
        },
        {
          "internalType": "address",
          "name": "account",
          "type": "address"
        }
      ],
      "name": "renounceRole",
      "outputs": [],
      "stateMutability": "nonpayable",
      "type": "function"
    },
    {
      "inputs": [
        {
          "internalType": "bytes32",
          "name": "role",
          "type": "bytes32"
        },
        {
          "internalType": "address",
          "name": "account",
          "type": "address"
        }
      ],
      "name": "revokeRole",
      "outputs": [],
      "stateMutability": "nonpayable",
      "type": "function"
    },
    {
      "inputs": [
        {
          "internalType": "address",
          "name": "from",
          "type": "address"
        },
        {
          "internalType": "address",
          "name": "to",
          "type": "address"
        },
        {
          "internalType": "uint256",
          "name": "tokenId",
          "type": "uint256"
        }
      ],
      "name": "safeTransferFrom",
      "outputs": [],
      "stateMutability": "nonpayable",
      "type": "function"
    },
    {
      "inputs": [
        {
          "internalType": "address",
          "name": "from",
          "type": "address"
        },
        {
          "internalType": "address",
          "name": "to",
          "type": "address"
        },
        {
          "internalType": "uint256",
          "name": "tokenId",
          "type": "uint256"
        },
        {
          "internalType": "bytes",
          "name": "data",
          "type": "bytes"
        }
      ],
      "name": "safeTransferFrom",
      "outputs": [],
      "stateMutability": "nonpayable",
      "type": "function"
    },
    {
      "inputs": [
        {
          "internalType": "string",
          "name": "_animationBaseURI",
          "type": "string"
        }
      ],
      "name": "setAnimationBaseURI",
      "outputs": [],
      "stateMutability": "nonpayable",
      "type": "function"
    },
    {
      "inputs": [
        {
          "internalType": "address",
          "name": "operator",
          "type": "address"
        },
        {
          "internalType": "bool",
          "name": "approved",
          "type": "bool"
        }
      ],
      "name": "setApprovalForAll",
      "outputs": [],
      "stateMutability": "nonpayable",
      "type": "function"
    },
    {
      "inputs": [
        {
          "internalType": "uint256",
          "name": "tokenId",
          "type": "uint256"
        },
        {
          "internalType": "uint256",
          "name": "attributeId",
          "type": "uint256"
        },
        {
          "internalType": "uint256",
          "name": "value",
          "type": "uint256"
        }
      ],
      "name": "setAttribute",
      "outputs": [],
      "stateMutability": "nonpayable",
      "type": "function"
    },
    {
      "inputs": [
        {
          "internalType": "uint256",
          "name": "attributeId",
          "type": "uint256"
        },
        {
          "internalType": "uint256[]",
          "name": "indexes",
          "type": "uint256[]"
        },
        {
          "internalType": "string[]",
          "name": "strings",
          "type": "string[]"
        }
      ],
      "name": "setBaseAttributeStrings",
      "outputs": [],
      "stateMutability": "nonpayable",
      "type": "function"
    },
    {
      "inputs": [
        {
          "internalType": "string",
          "name": "_imageBaseURI",
          "type": "string"
        }
      ],
      "name": "setImageBaseURI",
      "outputs": [],
      "stateMutability": "nonpayable",
      "type": "function"
    },
    {
      "inputs": [
        {
          "internalType": "address",
          "name": "_address",
          "type": "address"
        }
      ],
      "name": "setL2Contract",
      "outputs": [],
      "stateMutability": "nonpayable",
      "type": "function"
    },
    {
      "inputs": [
        {
          "internalType": "bytes4",
          "name": "interfaceId",
          "type": "bytes4"
        }
      ],
      "name": "supportsInterface",
      "outputs": [
        {
          "internalType": "bool",
          "name": "",
          "type": "bool"
        }
      ],
      "stateMutability": "view",
      "type": "function"
    },
    {
      "inputs": [],
      "name": "symbol",
      "outputs": [
        {
          "internalType": "string",
          "name": "",
          "type": "string"
        }
      ],
      "stateMutability": "view",
      "type": "function"
    },
    {
      "inputs": [
        {
          "internalType": "uint256",
          "name": "index",
          "type": "uint256"
        }
      ],
      "name": "tokenByIndex",
      "outputs": [
        {
          "internalType": "uint256",
          "name": "",
          "type": "uint256"
        }
      ],
      "stateMutability": "view",
      "type": "function"
    },
    {
      "inputs": [
        {
          "internalType": "address",
          "name": "owner",
          "type": "address"
        },
        {
          "internalType": "uint256",
          "name": "index",
          "type": "uint256"
        }
      ],
      "name": "tokenOfOwnerByIndex",
      "outputs": [
        {
          "internalType": "uint256",
          "name": "",
          "type": "uint256"
        }
      ],
      "stateMutability": "view",
      "type": "function"
    },
    {
      "inputs": [
        {
          "internalType": "uint256",
          "name": "tokenId",
          "type": "uint256"
        }
      ],
      "name": "tokenURI",
      "outputs": [
        {
          "internalType": "string",
          "name": "",
          "type": "string"
        }
      ],
      "stateMutability": "view",
      "type": "function"
    },
    {
      "inputs": [
        {
          "internalType": "address",
          "name": "owner",
          "type": "address"
        }
      ],
      "name": "tokensOfOwner",
      "outputs": [
        {
          "internalType": "uint256[]",
          "name": "",
          "type": "uint256[]"
        }
      ],
      "stateMutability": "view",
      "type": "function"
    },
    {
      "inputs": [],
      "name": "totalBurned",
      "outputs": [
        {
          "internalType": "uint256",
          "name": "",
          "type": "uint256"
        }
      ],
      "stateMutability": "view",
      "type": "function"
    },
    {
      "inputs": [],
      "name": "totalSupply",
      "outputs": [
        {
          "internalType": "uint256",
          "name": "",
          "type": "uint256"
        }
      ],
      "stateMutability": "view",
      "type": "function"
    },
    {
      "inputs": [
        {
          "internalType": "address",
          "name": "from",
          "type": "address"
        },
        {
          "internalType": "address",
          "name": "to",
          "type": "address"
        },
        {
          "internalType": "uint256",
          "name": "tokenId",
          "type": "uint256"
        }
      ],
      "name": "transferFrom",
      "outputs": [],
      "stateMutability": "nonpayable",
      "type": "function"
    },
    {
      "inputs": [],
      "name": "unpause",
      "outputs": [],
      "stateMutability": "nonpayable",
      "type": "function"
    }
  ],
  "bytecode": "0x60806040523480156200001157600080fd5b506200001c62000022565b620000e4565b600054610100900460ff16156200008f5760405162461bcd60e51b815260206004820152602760248201527f496e697469616c697a61626c653a20636f6e747261637420697320696e697469604482015266616c697a696e6760c81b606482015260840160405180910390fd5b60005460ff9081161015620000e2576000805460ff191660ff9081179091556040519081527f7f26b83ff96e1f2b6a682f133852f6798a09c465da95921460cefb38474024989060200160405180910390a15b565b615b0b80620000f46000396000f3fe608060405234801561001057600080fd5b506004361061038e5760003560e01c8063779c7527116101de578063a2c6e8881161010f578063ca15c873116100ad578063d89135cd1161007c578063d89135cd146107ae578063e985e9c5146107b6578063eb91e651146107f2578063fd5eea4e1461080557600080fd5b8063ca15c8731461076b578063cfa4e54f1461077e578063d539139314610786578063d547741f1461079b57600080fd5b8063b5bfddea116100e9578063b5bfddea14610716578063b88d4fde1461073d578063bdbed72214610750578063c87b56dd1461075857600080fd5b8063a2c6e888146106d0578063a5435ec1146106e3578063ac81d3611461070357600080fd5b806395d89b411161017c5780639bf66fa7116101565780639bf66fa71461068f5780639cfe42da146106a2578063a217fddf146106b5578063a22cb465146106bd57600080fd5b806395d89b41146106615780639b57b7d0146106695780639b9284f91461067c57600080fd5b80638456cb59116101b85780638456cb59146106135780638462151c1461061b5780639010d07c1461063b57806391d148541461064e57600080fd5b8063779c7527146105e55780637d7a6d13146105f85780638129fc1c1461060b57600080fd5b80633f4ba83a116102c35780636352211e1161026157806370a082311161023057806370a08231146105a257806375b238fc146105b55780637685945e146105ca57806377645839146105dd57600080fd5b80636352211e1461054957806364cb59d61461055c5780636cfa24cc1461056f5780636d94f13a1461058257600080fd5b80634c35ec441161029d5780634c35ec441461050d5780634f6ccce7146105225780635c975abb14610535578063633f43f71461054157600080fd5b80633f4ba83a146104df57806342842e0e146104e757806342966c68146104fa57600080fd5b80631fe543e3116103305780632f2ff15d1161030a5780632f2ff15d146104925780632f745c59146104a557806336568abe146104b85780633aced149146104cb57600080fd5b80631fe543e31461044857806323b872dd1461045b578063248a9ca31461046e57600080fd5b8063095ea7b31161036c578063095ea7b3146103fb5780630c9ac092146104105780630f3002c11461042357806318160ddd1461043657600080fd5b806301ffc9a71461039357806306fdde03146103bb578063081812fc146103d0575b600080fd5b6103a66103a13660046144ac565b610818565b60405190151581526020015b60405180910390f35b6103c3610843565b6040516103b29190614521565b6103e36103de366004614534565b6108d5565b6040516001600160a01b0390911681526020016103b2565b61040e610409366004614569565b6108fc565b005b61040e61041e366004614593565b61093e565b61040e610431366004614809565b6109c4565b60ca545b6040519081526020016103b2565b61040e610456366004614921565b610a23565b61040e610469366004614967565b610a7c565b61043a61047c366004614534565b600090815261015e602052604090206001015490565b61040e6104a03660046149a3565b610aae565b61043a6104b3366004614569565b610ad4565b61040e6104c63660046149a3565b610b6a565b610296546103e3906001600160a01b031681565b61040e610be4565b61040e6104f5366004614967565b610c07565b61040e610508366004614534565b610c22565b610515610c5d565b6040516103b291906149cf565b61043a610530366004614534565b610c89565b61012c5460ff166103a6565b6103c3610d1c565b6103e3610557366004614534565b610dab565b61040e61056a366004614a1c565b610e0b565b61040e61057d366004614aff565b610ee6565b610595610590366004614b33565b610f12565b6040516103b29190614b67565b61043a6105b0366004614593565b610fca565b61043a600080516020615ab683398151915281565b61043a6105d8366004614bc9565b611050565b6103c361108d565b61040e6105f3366004614beb565b61109b565b61040e610606366004614a1c565b6112da565b61040e61136b565b61040e6115b7565b61062e610629366004614593565b6115d7565b6040516103b29190614c52565b6103e3610649366004614bc9565b6115e2565b6103a661065c3660046149a3565b611602565b6103c361162e565b61040e610677366004614593565b61163d565b6103c361068a366004614534565b611679565b61040e61069d366004614c65565b61191e565b61040e6106b0366004614593565b6119c0565b61043a600081565b61040e6106cb366004614d45565b6119e4565b61040e6106de366004614aff565b611a18565b6106f66106f1366004614593565b611a44565b6040516103b29190614d81565b610595610711366004614b33565b611b5f565b61043a7f52ba824bfabc2bcfcdf7f0edbb486ebb05e1836c90e78047efeb949990f72e5f81565b61040e61074b366004614dcd565b611c10565b61062e611c42565b6103c3610766366004614534565b611d2c565b61043a610779366004614534565b611f01565b61062e611f19565b61043a600080516020615a5983398151915281565b61040e6107a93660046149a3565b611f2b565b61043a611f51565b6103a66107c4366004614e48565b6001600160a01b039182166000908152609b6020908152604080832093909416825291909152205460ff1690565b61040e610800366004614593565b611f5e565b61040e610813366004614e72565b611f82565b6000639b9284f960e01b6001600160e01b03198316148061083d575061083d82611fb4565b92915050565b60606096805461085290614e9e565b80601f016020809104026020016040519081016040528092919081815260200182805461087e90614e9e565b80156108cb5780601f106108a0576101008083540402835291602001916108cb565b820191906000526020600020905b8154815290600101906020018083116108ae57829003601f168201915b5050505050905090565b60006108e082611fbf565b506000908152609a60205260409020546001600160a01b031690565b816109096102258261200f565b1561092f5760405162461bcd60e51b815260040161092690614ed3565b60405180910390fd5b6109398383612031565b505050565b600080516020615a5983398151915261095681612142565b6001600160a01b038216600081815261028a602081815260408084206001810154855261028d835290842080546001600160a01b03191690559383525261099d82826143a9565b60018201600090556002820160006109b591906143a9565b50610939905061028b8361214c565b600080516020615a598339815191526109dc81612142565b60005b8251811015610a1d57610a0b848483815181106109fe576109fe614f00565b602002602001015161109b565b80610a1581614f2c565b9150506109df565b50505050565b6000546201000090046001600160a01b03163314610a6e5760005460405163073e64fd60e21b8152336004820152620100009091046001600160a01b03166024820152604401610926565b610a788282612161565b5050565b610a87335b8261219b565b610aa35760405162461bcd60e51b815260040161092690614f47565b61093983838361221a565b600082815261015e6020526040902060010154610aca81612142565b61093983836123c1565b6000610adf83610fca565b8210610b415760405162461bcd60e51b815260206004820152602b60248201527f455243373231456e756d657261626c653a206f776e657220696e646578206f7560448201526a74206f6620626f756e647360a81b6064820152608401610926565b506001600160a01b0391909116600090815260c860209081526040808320938352929052205490565b6001600160a01b0381163314610bda5760405162461bcd60e51b815260206004820152602f60248201527f416363657373436f6e74726f6c3a2063616e206f6e6c792072656e6f756e636560448201526e103937b632b9903337b91039b2b63360891b6064820152608401610926565b610a7882826123e4565b600080516020615ab6833981519152610bfc81612142565b610c04612407565b50565b61093983838360405180602001604052806000815250611c10565b610c2b33610a81565b610c475760405162461bcd60e51b815260040161092690614f47565b610c536101c28261245a565b50610c0481612466565b6060600080516020615ab6833981519152610c7781612142565b610c8261028b61250d565b91505b5090565b6000610c9460ca5490565b8210610cf75760405162461bcd60e51b815260206004820152602c60248201527f455243373231456e756d657261626c653a20676c6f62616c20696e646578206f60448201526b7574206f6620626f756e647360a01b6064820152608401610926565b60ca8281548110610d0a57610d0a614f00565b90600052602060002001549050919050565b6102948054610d2a90614e9e565b80601f0160208091040260200160405190810160405280929190818152602001828054610d5690614e9e565b8015610da35780601f10610d7857610100808354040283529160200191610da3565b820191906000526020600020905b815481529060010190602001808311610d8657829003601f168201915b505050505081565b6000818152609860205260408120546001600160a01b03168061083d5760405162461bcd60e51b8152602060048201526018602482015277115490cdcc8c4e881a5b9d985b1a59081d1bdad95b88125160421b6044820152606401610926565b600080516020615a59833981519152610e2381612142565b60005b8351811015610edf576000610e70858381518110610e4657610e46614f00565b6020026020010151610291600089815260200190815260200160002061251a90919063ffffffff16565b9050610eca858381518110610e8757610e87614f00565b6020026020010151858481518110610ea157610ea1614f00565b602002602001015183610eb49190614f95565b6000898152610291602052604090209190612526565b50508080610ed790614f2c565b915050610e26565b5050505050565b600080516020615ab6833981519152610efe81612142565b8151610939906102939060208501906143c7565b6060600082516001600160401b03811115610f2f57610f2f6145ae565b604051908082528060200260200182016040528015610f6257816020015b6060815260200190600190039081610f4d5790505b50905060005b8351811015610fc357610f93848281518110610f8657610f86614f00565b6020026020010151611d2c565b828281518110610fa557610fa5614f00565b60200260200101819052508080610fbb90614f2c565b915050610f68565b5092915050565b60006001600160a01b0382166110345760405162461bcd60e51b815260206004820152602960248201527f4552433732313a2061646472657373207a65726f206973206e6f7420612076616044820152683634b21037bbb732b960b91b6064820152608401610926565b506001600160a01b031660009081526099602052604090205490565b6000600080516020615a5983398151915261106a81612142565b6000848152610291602052604081206110839085612533565b9695505050505050565b6102938054610d2a90614e9e565b600080516020615a598339815191526110b381612142565b60208083015183516000908152610291909252604082206110d5929091612526565b5060808201516020908101518351600090815261029190925260409091206110ff91600190612526565b50608082015151825160009081526102916020526040902061112391600290612526565b50604080830151835160009081526102916020529190912061114791600390612526565b506080820151604090810151835160009081526102916020529190912061117091600490612526565b50608082015160600151825160009081526102916020526040902061119791600590612526565b5060c08201515182516000908152610291602052604090206111bb91600690612526565b50606082015182516000908152610291602052604090206111de91600790612526565b506080808301510151825160009081526102916020526040902061120491600890612526565b5060a082015160209081015183516000908152610291909252604090912061122e91600990612526565b5060a0820151604090810151835160009081526102916020529190912061125791600a90612526565b5060a082015160600151825160009081526102916020526040902061127e91600b90612526565b5060a08201516080015182516000908152610291602052604090206112a591600c90612526565b5060a080830151015182516000908152610291602052604090206112cb91600d90612526565b50610939838360000151612551565b600080516020615a598339815191526112f281612142565b60005b8351811015610edf5761135884828151811061131357611313614f00565b602002602001015184838151811061132d5761132d614f00565b602002602001015161029160008981526020019081526020016000206125269092919063ffffffff16565b508061136381614f2c565b9150506112f5565b600054610100900460ff161580801561138b5750600054600160ff909116105b806113a55750303b1580156113a5575060005460ff166001145b6114085760405162461bcd60e51b815260206004820152602e60248201527f496e697469616c697a61626c653a20636f6e747261637420697320616c72656160448201526d191e481a5b9a5d1a585b1a5e995960921b6064820152608401610926565b6000805460ff19166001179055801561142b576000805461ff0019166101001790555b61146b6040518060400160405280600381526020016245766f60e81b8152506040518060400160405280600381526020016245766f60e81b81525061256b565b61147361259c565b61147b6125cd565b6114836125fc565b61148b6125fc565b611493612623565b73d5d517abe5cf79b7e95ec98db0f0277788aff6347f83250c5584ffa93feb6ee082981c5ebe484c865196750b39835ad4f13780435d601d60036114d984848484612652565b6114e46000336123c1565b6114fc600080516020615ab6833981519152336123c1565b611514600080516020615a59833981519152336123c1565b6040518060600160405280603d8152602001615a79603d9139805161154291610293916020909101906143c7565b505061028980546001600160a01b0319167375ddd2b19e6f7bed3bfe9d2d21dd226c38c0cbc4179055505081159050610c04576000805461ff0019169055604051600181527f7f26b83ff96e1f2b6a682f133852f6798a09c465da95921460cefb38474024989060200160405180910390a150565b600080516020615ab68339815191526115cf81612142565b610c04612696565b606061083d826126d4565b6000828152610190602052604081206115fb9083612775565b9392505050565b600091825261015e602090815260408084206001600160a01b0393909316845291905290205460ff1690565b60606097805461085290614e9e565b600080516020615ab683398151915261165581612142565b5061029680546001600160a01b0319166001600160a01b0392909216919091179055565b6040805160c0810182526000838152610291602052918220606092919081906116a390600261251a565b81526000858152610291602090815260409091209101906116c590600161251a565b81526000858152610291602090815260409091209101906116e790600461251a565b815260008581526102916020908152604090912091019061170990600561251a565b815260008581526102916020908152604090912091019061172b90600861251a565b81526020016000815250905060006040518060c00160405280603281526020016117726009610291600089815260200190815260200160002061251a90919063ffffffff16565b815260008681526102916020908152604090912091019061179490600a61251a565b81526000868152610291602090815260409091209101906117b690600b61251a565b81526000868152610291602090815260409091209101906117d890600c61251a565b81526000868152610291602090815260409091209101906117fa90600d61251a565b905260408051610100810182528681526000878152610291602090815292812093945092909182019061182d908461251a565b815260008781526102916020908152604090912091019061184f90600361251a565b815260008781526102916020908152604090912091019061187190600761251a565b815260200184815260200183815260200160405180606001604052806118b4600661029160008c815260200190815260200160002061251a90919063ffffffff16565b81526020016000815260200160008152508152602001604051806080016040528060008152602001600081526020016000815260200160008152508152509050806040516020016119059190614fad565b6040516020818303038152906040529350505050919050565b600080516020615ab683398151915261193681612142565b60005b8351811015610edf5782818151811061195457611954614f00565b60200260200101516102926000878152602001908152602001600020600086848151811061198457611984614f00565b6020026020010151815260200190815260200160002090805190602001906119ad9291906143c7565b50806119b881614f2c565b915050611939565b600080516020615ab68339815191526119d881612142565b61093961022583612781565b816119f16102258261200f565b15611a0e5760405162461bcd60e51b815260040161092690614ed3565b6109398383612796565b600080516020615ab6833981519152611a3081612142565b8151610939906102949060208501906143c7565b611a6860405180606001604052806060815260200160008152602001606081525090565b600080516020615a59833981519152611a8081612142565b6001600160a01b038316600090815261028a602090815260409182902082518154608093810282018401909452606081018481529093919284928491840182828015611aeb57602002820191906000526020600020905b815481526020019060010190808311611ad7575b505050505081526020016001820154815260200160028201805480602002602001604051908101604052809291908181526020018280548015611b4d57602002820191906000526020600020905b815481526020019060010190808311611b39575b50505050508152505091505b50919050565b6060600082516001600160401b03811115611b7c57611b7c6145ae565b604051908082528060200260200182016040528015611baf57816020015b6060815260200190600190039081611b9a5790505b50905060005b8351811015610fc357611be0848281518110611bd357611bd3614f00565b60200260200101516127a1565b828281518110611bf257611bf2614f00565b60200260200101819052508080611c0890614f2c565b915050611bb5565b611c1a338361219b565b611c365760405162461bcd60e51b815260040161092690614f47565b610a1d84848484612949565b6060600060015b612710811015611c8157611c5c8161297c565b15611c6f5781611c6b81614f2c565b9250505b80611c7981614f2c565b915050611c49565b506000816001600160401b03811115611c9c57611c9c6145ae565b604051908082528060200260200182016040528015611cc5578160200160208202803683370190505b509050600060015b612710811015611d2357611ce08161297c565b15611d115780838381518110611cf857611cf8614f00565b602090810291909101015281611d0d81614f2c565b9250505b80611d1b81614f2c565b915050611ccd565b50909392505050565b60008181526102916020526040812060609190611d49908261251a565b60008181527f64b0ea277fa228112a0515bbec12ee5ad8763a1bd8c09dfcbf922eaedf8fb8a36020526040812080549293509091611d8690614e9e565b80601f0160208091040260200160405190810160405280929190818152602001828054611db290614e9e565b8015611dff5780601f10611dd457610100808354040283529160200191611dff565b820191906000526020600020905b815481529060010190602001808311611de257829003601f168201915b505050505090506000610293611e148461299b565b604051602001611e259291906150d3565b60405160208183030381529060405290506000610294611e448761299b565b604051602001611e559291906150d3565b6040516020818303038152906040529050600083611e728861299b565b8484604051602001611e879493929190615171565b60405160208183030381529060405290506000611ea388612a98565b905060008282604051602001611eba929190615269565b6040516020818303038152906040529050611ed481612b39565b604051602001611ee491906152b6565b604051602081830303815290604052975050505050505050919050565b60008181526101906020526040812061083d90612c8c565b6060611f266101c261250d565b905090565b600082815261015e6020526040902060010154611f4781612142565b61093983836123e4565b6000611f266101c2612c8c565b600080516020615ab6833981519152611f7681612142565b6109396102258361214c565b600080516020615a59833981519152611f9a81612142565b600084815261029160205260409020610edf908484612526565b600061083d82612c96565b611fc88161297c565b610c045760405162461bcd60e51b8152602060048201526018602482015277115490cdcc8c4e881a5b9d985b1a59081d1bdad95b88125160421b6044820152606401610926565b6001600160a01b038116600090815260018301602052604081205415156115fb565b600061203c82610dab565b9050806001600160a01b0316836001600160a01b031614156120aa5760405162461bcd60e51b815260206004820152602160248201527f4552433732313a20617070726f76616c20746f2063757272656e74206f776e656044820152603960f91b6064820152608401610926565b336001600160a01b03821614806120c657506120c681336107c4565b6121385760405162461bcd60e51b815260206004820152603e60248201527f4552433732313a20617070726f76652063616c6c6572206973206e6f7420746f60448201527f6b656e206f776e6572206e6f7220617070726f76656420666f7220616c6c00006064820152608401610926565b6109398383612cbb565b610c048133612d29565b60006115fb836001600160a01b038416612d8d565b600082815261028d60209081526040808320546001600160a01b0316835261028a8252909120825161093992600290920191840190614447565b6000806121a783610dab565b9050806001600160a01b0316846001600160a01b031614806121ee57506001600160a01b038082166000908152609b602090815260408083209388168352929052205460ff165b806122125750836001600160a01b0316612207846108d5565b6001600160a01b0316145b949350505050565b826001600160a01b031661222d82610dab565b6001600160a01b0316146122915760405162461bcd60e51b815260206004820152602560248201527f4552433732313a207472616e736665722066726f6d20696e636f72726563742060448201526437bbb732b960d91b6064820152608401610926565b6001600160a01b0382166122f35760405162461bcd60e51b8152602060048201526024808201527f4552433732313a207472616e7366657220746f20746865207a65726f206164646044820152637265737360e01b6064820152608401610926565b6122fe838383612e80565b612309600082612cbb565b6001600160a01b03831660009081526099602052604081208054600192906123329084906152fb565b90915550506001600160a01b0382166000908152609960205260408120805460019290612360908490614f95565b909155505060008181526098602052604080822080546001600160a01b0319166001600160a01b0386811691821790925591518493918716917fddf252ad1be2c89b69c2b068fc378daa952ba7f163c4a11628f55a4df523b3ef91a4505050565b6123cb8282612ffc565b6000828152610190602052604090206109399082612781565b6123ee8282613083565b600082815261019060205260409020610939908261214c565b61240f6130eb565b61012c805460ff191690557f5db9ee0a495bf2e6ff9c91a7834c1ba4fdd244a5e8aa4e537bd38aeae4b073aa335b6040516001600160a01b03909116815260200160405180910390a1565b60006115fb8383613135565b600061247182610dab565b905061247f81600084612e80565b61248a600083612cbb565b6001600160a01b03811660009081526099602052604081208054600192906124b39084906152fb565b909155505060008281526098602052604080822080546001600160a01b0319169055518391906001600160a01b038416907fddf252ad1be2c89b69c2b068fc378daa952ba7f163c4a11628f55a4df523b3ef908390a45050565b606060006115fb83613184565b60006115fb83836131e0565b6000612212848484613250565b6000808080612542868661326d565b909450925050505b9250929050565b610a788282604051806020016040528060008152506132a7565b600054610100900460ff166125925760405162461bcd60e51b815260040161092690615312565b610a7882826132da565b600054610100900460ff166125c35760405162461bcd60e51b815260040161092690615312565b6125cb6125fc565b565b600054610100900460ff166125f45760405162461bcd60e51b815260040161092690615312565b6125cb613328565b600054610100900460ff166125cb5760405162461bcd60e51b815260040161092690615312565b600054610100900460ff1661264a5760405162461bcd60e51b815260040161092690615312565b6125c36125fc565b600054610100900460ff166126795760405162461bcd60e51b815260040161092690615312565b6126816125fc565b61268a8461335c565b610a1d8484848461338c565b61269e613413565b61012c805460ff191660011790557f62e78cea01bee320cd4e420270b5ea74000d11b0c9f74754ebdbfc544b05a25861243d3390565b606060006126e183610fca565b90506000816001600160401b038111156126fd576126fd6145ae565b604051908082528060200260200182016040528015612726578160200160208202803683370190505b50905060005b8281101561276d5761273e8582610ad4565b82828151811061275057612750614f00565b60209081029190910101528061276581614f2c565b91505061272c565b509392505050565b60006115fb838361345a565b60006115fb836001600160a01b038416613135565b610a78338383613484565b600081815261029160205260408120606091906127be908261251a565b60008181527f64b0ea277fa228112a0515bbec12ee5ad8763a1bd8c09dfcbf922eaedf8fb8a360205260408120805492935090916127fb90614e9e565b80601f016020809104026020016040519081016040528092919081815260200182805461282790614e9e565b80156128745780601f1061284957610100808354040283529160200191612874565b820191906000526020600020905b81548152906001019060200180831161285757829003601f168201915b5050505050905060006102936128898461299b565b60405160200161289a9291906150d3565b604051602081830303815290604052905060006102946128b98761299b565b6040516020016128ca9291906150d3565b60405160208183030381529060405290506000836128e78861299b565b84846040516020016128fc9493929190615171565b6040516020818303038152906040529050600061291888612a98565b9050818160405160200161292d929190615269565b6040516020818303038152906040529650505050505050919050565b61295484848461221a565b61296084848484613553565b610a1d5760405162461bcd60e51b81526004016109269061535d565b6000818152609860205260408120546001600160a01b0316151561083d565b6060816129bf5750506040805180820190915260018152600360fc1b602082015290565b8160005b81156129e957806129d381614f2c565b91506129e29050600a836153c5565b91506129c3565b6000816001600160401b03811115612a0357612a036145ae565b6040519080825280601f01601f191660200182016040528015612a2d576020820181803683370190505b5090505b841561221257612a426001836152fb565b9150612a4f600a866153d9565b612a5a906030614f95565b60f81b818381518110612a6f57612a6f614f00565b60200101906001600160f81b031916908160001a905350612a91600a866153c5565b9450612a31565b60606000612aa583613660565b90506000612ab2846138d0565b90506000612abf85613ae8565b9050600083604051602001612ad491906153ed565b604051602081830303815290604052905060008383604051602001612afa929190615425565b60405160208183030381529060405290508181604051602001612b1e929190615460565b60405160208183030381529060405295505050505050919050565b6060815160001415612b5957505060408051602081019091526000815290565b6000604051806060016040528060408152602001615a196040913990506000600384516002612b889190614f95565b612b9291906153c5565b612b9d90600461548f565b6001600160401b03811115612bb457612bb46145ae565b6040519080825280601f01601f191660200182016040528015612bde576020820181803683370190505b509050600182016020820185865187015b80821015612c4a576003820191508151603f8160121c168501518453600184019350603f81600c1c168501518453600184019350603f8160061c168501518453600184019350603f8116850151845350600183019250612bef565b5050600386510660018114612c665760028114612c7957612c81565b603d6001830353603d6002830353612c81565b603d60018303535b509195945050505050565b600061083d825490565b60006001600160e01b03198216635a05180f60e01b148061083d575061083d82613d03565b6000818152609a6020526040902080546001600160a01b0319166001600160a01b0384169081179091558190612cf082610dab565b6001600160a01b03167f8c5be1e5ebec7d5bd14f71427d1e84f3dd0314c0f7b2291e5b200ac8c7c3b92560405160405180910390a45050565b612d338282611602565b610a7857612d4b816001600160a01b03166014613d28565b612d56836020613d28565b604051602001612d679291906154ae565b60408051601f198184030181529082905262461bcd60e51b825261092691600401614521565b60008181526001830160205260408120548015612e76576000612db16001836152fb565b8554909150600090612dc5906001906152fb565b9050818114612e2a576000866000018281548110612de557612de5614f00565b9060005260206000200154905080876000018481548110612e0857612e08614f00565b6000918252602080832090910192909255918252600188019052604090208390555b8554869080612e3b57612e3b615523565b60019003818190600052602060002001600090559055856001016000868152602001908152602001600020600090556001935050505061083d565b600091505061083d565b612e88613413565b828282732f52abfca2074b99759b58345bb984419d3042437339af60141b91f7941eb13aeda2124a61a953b7c073328eb74673eaa1d2d90a48e8137b015f1b6ed35d6032841180612ee057506001600160a01b038616155b80612ef257506001600160a01b038516155b80612f0e5750826001600160a01b0316866001600160a01b0316145b80612f2a5750826001600160a01b0316856001600160a01b0316145b80612f465750816001600160a01b0316866001600160a01b0316145b80612f625750816001600160a01b0316856001600160a01b0316145b80612f7e5750806001600160a01b0316866001600160a01b0316145b80612f9a5750806001600160a01b0316856001600160a01b0316145b612fe65760405162461bcd60e51b815260206004820152601d60248201527f5465616d2045766f20617265206e6f6e2d7472616e7366657261626c650000006044820152606401610926565b612ff1898989613ec3565b505050505050505050565b6130068282611602565b610a7857600082815261015e602090815260408083206001600160a01b03851684529091529020805460ff1916600117905561303f3390565b6001600160a01b0316816001600160a01b0316837f2f8788117e7eff1d82e926ec794901d17c78024a50270940304540a733656f0d60405160405180910390a45050565b61308d8282611602565b15610a7857600082815261015e602090815260408083206001600160a01b0385168085529252808320805460ff1916905551339285917ff6391f5c32d9c69d2a47ea670b442974b53935d1edc7fd64eb21e047a839171b9190a45050565b61012c5460ff166125cb5760405162461bcd60e51b815260206004820152601460248201527314185d5cd8589b194e881b9bdd081c185d5cd95960621b6044820152606401610926565b600081815260018301602052604081205461317c5750815460018181018455600084815260208082209093018490558454848252828601909352604090209190915561083d565b50600061083d565b6060816000018054806020026020016040519081016040528092919081815260200182805480156131d457602002820191906000526020600020905b8154815260200190600101908083116131c0575b50505050509050919050565b60008181526002830160205260408120548015158061320457506132048484613f22565b6115fb5760405162461bcd60e51b815260206004820152601e60248201527f456e756d657261626c654d61703a206e6f6e6578697374656e74206b657900006044820152606401610926565b60008281526002840160205260408120829055612212848461245a565b600081815260028301602052604081205481908061329c5761328f8585613f22565b92506000915061254a9050565b60019250905061254a565b6132b18383613f2e565b6132be6000848484613553565b6109395760405162461bcd60e51b81526004016109269061535d565b600054610100900460ff166133015760405162461bcd60e51b815260040161092690615312565b81516133149060969060208501906143c7565b5080516109399060979060208401906143c7565b600054610100900460ff1661334f5760405162461bcd60e51b815260040161092690615312565b61012c805460ff19169055565b600054610100900460ff166133835760405162461bcd60e51b815260040161092690615312565b610c048161406d565b600054610100900460ff166133b35760405162461bcd60e51b815260040161092690615312565b61025880546001600160a01b039095166001600160a01b03199095169490941790935561025a80546102599390935561ffff909316680100000000000000000269ffffffffffffffffffff199092166001600160401b0390911617179055565b61012c5460ff16156125cb5760405162461bcd60e51b815260206004820152601060248201526f14185d5cd8589b194e881c185d5cd95960821b6044820152606401610926565b600082600001828154811061347157613471614f00565b9060005260206000200154905092915050565b816001600160a01b0316836001600160a01b031614156134e65760405162461bcd60e51b815260206004820152601960248201527f4552433732313a20617070726f766520746f2063616c6c6572000000000000006044820152606401610926565b6001600160a01b038381166000818152609b6020908152604080832094871680845294825291829020805460ff191686151590811790915591519182527f17307eab39ab6107e8899845ad3d59bd9653f200f220920489ca2b5937696c31910160405180910390a3505050565b60006001600160a01b0384163b1561365557604051630a85bd0160e11b81526001600160a01b0385169063150b7a0290613597903390899088908890600401615539565b602060405180830381600087803b1580156135b157600080fd5b505af19250505080156135e1575060408051601f3d908101601f191682019092526135de9181019061556c565b60015b61363b573d80801561360f576040519150601f19603f3d011682016040523d82523d6000602084013e613614565b606091505b5080516136335760405162461bcd60e51b81526004016109269061535d565b805181602001fd5b6001600160e01b031916630a85bd0160e11b149050612212565b506001949350505050565b600081815261029160205260408120606091907f64b0ea277fa228112a0515bbec12ee5ad8763a1bd8c09dfcbf922eaedf8fb8a39082906136a1908261251a565b815260200190815260200160002080546136ba90614e9e565b80601f01602080910402602001604051908101604052809291908181526020018280546136e690614e9e565b80156137335780601f1061370857610100808354040283529160200191613733565b820191906000526020600020905b81548152906001019060200180831161371657829003601f168201915b505050600086815261029160205260408120939450927fdd65ea48f42c32853e504599a5705633f5988eee4bc61d4ec3f69b9a5eece211925083915061377a90600161251a565b8152602001908152602001600020805461379390614e9e565b80601f01602080910402602001604051908101604052809291908181526020018280546137bf90614e9e565b801561380c5780601f106137e15761010080835404028352916020019161380c565b820191906000526020600020905b8154815290600101906020018083116137ef57829003601f168201915b5050506000878152610291602052604081209394509261383092509050600261251a565b15613859576040518060400160405280600681526020016546656d616c6560d01b815250613877565b604051806040016040528060048152602001634d616c6560e01b8152505b6000868152610291602052604081209192509061389590600361251a565b90508383836138a38461299b565b6040516020016138b69493929190615589565b604051602081830303815290604052945050505050919050565b600081815261029160205260408120606091907fda3736b6211b14d372b9ecb2464211a5db2c6794abdf366575bf09e94acae9c690829061391290600461251a565b8152602001908152602001600020805461392b90614e9e565b80601f016020809104026020016040519081016040528092919081815260200182805461395790614e9e565b80156139a45780601f10613979576101008083540402835291602001916139a4565b820191906000526020600020905b81548152906001019060200180831161398757829003601f168201915b505050600086815261029160205260408120939450927fda3736b6211b14d372b9ecb2464211a5db2c6794abdf366575bf09e94acae9c692508391506139eb90600561251a565b81526020019081526020016000208054613a0490614e9e565b80601f0160208091040260200160405190810160405280929190818152602001828054613a3090614e9e565b8015613a7d5780601f10613a5257610100808354040283529160200191613a7d565b820191906000526020600020905b815481529060010190602001808311613a6057829003601f168201915b50505060008781526102916020526040812093945092613aa192509050600661251a565b60008681526102916020526040812091925090613abf90600761251a565b90508383613acc8461299b565b613ad58461299b565b6040516020016138b694939291906156b1565b600081815261029160205260408120606091907f6278f01af0addd8c6e4df064e22ea61de8f79a3d04d6ca1865112dfd8f6ccf85908290613b2a90600861251a565b81526020019081526020016000208054613b4390614e9e565b80601f0160208091040260200160405190810160405280929190818152602001828054613b6f90614e9e565b8015613bbc5780601f10613b9157610100808354040283529160200191613bbc565b820191906000526020600020905b815481529060010190602001808311613b9f57829003601f168201915b50505060008681526102916020526040812093945092613be092509050600961251a565b60008581526102916020526040812091925090613bfe90600a61251a565b60008681526102916020526040812091925090613c1c90600b61251a565b60008781526102916020526040812091925090613c3a90600c61251a565b60008881526102916020526040812091925090613c5890600d61251a565b9050600086613c668761299b565b613c6f8761299b565b604051602001613c8193929190615831565b60405160208183030381529060405290506000613c9d8561299b565b613ca68561299b565b613caf8561299b565b604051602001613cc193929190615912565b60405160208183030381529060405290508181604051602001613ce5929190615460565b60405160208183030381529060405298505050505050505050919050565b60006001600160e01b03198216637965db0b60e01b148061083d575061083d826140be565b60606000613d3783600261548f565b613d42906002614f95565b6001600160401b03811115613d5957613d596145ae565b6040519080825280601f01601f191660200182016040528015613d83576020820181803683370190505b509050600360fc1b81600081518110613d9e57613d9e614f00565b60200101906001600160f81b031916908160001a905350600f60fb1b81600181518110613dcd57613dcd614f00565b60200101906001600160f81b031916908160001a9053506000613df184600261548f565b613dfc906001614f95565b90505b6001811115613e74576f181899199a1a9b1b9c1cb0b131b232b360811b85600f1660108110613e3057613e30614f00565b1a60f81b828281518110613e4657613e46614f00565b60200101906001600160f81b031916908160001a90535060049490941c93613e6d81615a01565b9050613dff565b5083156115fb5760405162461bcd60e51b815260206004820181905260248201527f537472696e67733a20686578206c656e67746820696e73756666696369656e746044820152606401610926565b82613ed06102258261200f565b15613eed5760405162461bcd60e51b815260040161092690614ed3565b82613efa6102258261200f565b15613f175760405162461bcd60e51b815260040161092690614ed3565b610edf8585856140c9565b60006115fb83836140d4565b6001600160a01b038216613f845760405162461bcd60e51b815260206004820181905260248201527f4552433732313a206d696e7420746f20746865207a65726f20616464726573736044820152606401610926565b613f8d8161297c565b15613fda5760405162461bcd60e51b815260206004820152601c60248201527f4552433732313a20746f6b656e20616c7265616479206d696e746564000000006044820152606401610926565b613fe660008383612e80565b6001600160a01b038216600090815260996020526040812080546001929061400f908490614f95565b909155505060008181526098602052604080822080546001600160a01b0319166001600160a01b03861690811790915590518392907fddf252ad1be2c89b69c2b068fc378daa952ba7f163c4a11628f55a4df523b3ef908290a45050565b600054610100900460ff166140945760405162461bcd60e51b815260040161092690615312565b600080546001600160a01b03909216620100000262010000600160b01b0319909216919091179055565b600061083d826140ec565b610939838383614111565b600081815260018301602052604081205415156115fb565b60006001600160e01b0319821663780e9d6360e01b148061083d575061083d826141c9565b6001600160a01b03831661416c576141678160ca8054600083815260cb60205260408120829055600182018355919091527f42d72674974f694b5f5159593243114d38a5c39c89d6b62fee061ff523240ee10155565b61418f565b816001600160a01b0316836001600160a01b03161461418f5761418f8382614219565b6001600160a01b0382166141a657610939816142b6565b826001600160a01b0316826001600160a01b031614610939576109398282614365565b60006001600160e01b031982166380ac58cd60e01b14806141fa57506001600160e01b03198216635b5e139f60e01b145b8061083d57506301ffc9a760e01b6001600160e01b031983161461083d565b6000600161422684610fca565b61423091906152fb565b600083815260c96020526040902054909150808214614283576001600160a01b038416600090815260c860209081526040808320858452825280832054848452818420819055835260c990915290208190555b50600091825260c9602090815260408084208490556001600160a01b03909416835260c881528383209183525290812055565b60ca546000906142c8906001906152fb565b600083815260cb602052604081205460ca80549394509092849081106142f0576142f0614f00565b906000526020600020015490508060ca838154811061431157614311614f00565b600091825260208083209091019290925582815260cb909152604080822084905585825281205560ca80548061434957614349615523565b6001900381819060005260206000200160009055905550505050565b600061437083610fca565b6001600160a01b03909316600090815260c860209081526040808320868452825280832085905593825260c99052919091209190915550565b5080546000825590600052602060002090810190610c049190614481565b8280546143d390614e9e565b90600052602060002090601f0160209004810192826143f5576000855561443b565b82601f1061440e57805160ff191683800117855561443b565b8280016001018555821561443b579182015b8281111561443b578251825591602001919060010190614420565b50610c85929150614481565b82805482825590600052602060002090810192821561443b579160200282018281111561443b578251825591602001919060010190614420565b5b80821115610c855760008155600101614482565b6001600160e01b031981168114610c0457600080fd5b6000602082840312156144be57600080fd5b81356115fb81614496565b60005b838110156144e45781810151838201526020016144cc565b83811115610a1d5750506000910152565b6000815180845261450d8160208601602086016144c9565b601f01601f19169290920160200192915050565b6020815260006115fb60208301846144f5565b60006020828403121561454657600080fd5b5035919050565b80356001600160a01b038116811461456457600080fd5b919050565b6000806040838503121561457c57600080fd5b6145858361454d565b946020939093013593505050565b6000602082840312156145a557600080fd5b6115fb8261454d565b634e487b7160e01b600052604160045260246000fd5b60405161010081016001600160401b03811182821017156145e7576145e76145ae565b60405290565b604051601f8201601f191681016001600160401b0381118282101715614615576146156145ae565b604052919050565b60006001600160401b03821115614636576146366145ae565b5060051b60200190565b600060c0828403121561465257600080fd5b60405160c081018181106001600160401b0382111715614674576146746145ae565b8060405250809150823581526020830135602082015260408301356040820152606083013560608201526080830135608082015260a083013560a08201525092915050565b6000606082840312156146cb57600080fd5b604051606081018181106001600160401b03821117156146ed576146ed6145ae565b80604052508091508235815260208301356020820152604083013560408201525092915050565b60006080828403121561472657600080fd5b604051608081018181106001600160401b0382111715614748576147486145ae565b8060405250809150823581526020830135602082015260408301356040820152606083013560608201525092915050565b60006102e0828403121561478c57600080fd5b6147946145c4565b9050813581526020820135602082015260408201356040820152606082013560608201526147c58360808401614640565b60808201526147d8836101408401614640565b60a08201526147eb8361020084016146b9565b60c08201526147fe836102608401614714565b60e082015292915050565b6000806040838503121561481c57600080fd5b6148258361454d565b91506020808401356001600160401b0381111561484157600080fd5b8401601f8101861361485257600080fd5b80356148656148608261461d565b6145ed565b8181526102e0918202830184019184820191908984111561488557600080fd5b938501935b838510156148ab5761489c8a86614779565b8352938401939185019161488a565b5080955050505050509250929050565b600082601f8301126148cc57600080fd5b813560206148dc6148608361461d565b82815260059290921b840181019181810190868411156148fb57600080fd5b8286015b8481101561491657803583529183019183016148ff565b509695505050505050565b6000806040838503121561493457600080fd5b8235915060208301356001600160401b0381111561495157600080fd5b61495d858286016148bb565b9150509250929050565b60008060006060848603121561497c57600080fd5b6149858461454d565b92506149936020850161454d565b9150604084013590509250925092565b600080604083850312156149b657600080fd5b823591506149c66020840161454d565b90509250929050565b6020808252825182820181905260009190848201906040850190845b81811015614a105783516001600160a01b0316835292840192918401916001016149eb565b50909695505050505050565b600080600060608486031215614a3157600080fd5b8335925060208401356001600160401b0380821115614a4f57600080fd5b614a5b878388016148bb565b93506040860135915080821115614a7157600080fd5b50614a7e868287016148bb565b9150509250925092565b60006001600160401b03831115614aa157614aa16145ae565b614ab4601f8401601f19166020016145ed565b9050828152838383011115614ac857600080fd5b828260208301376000602084830101529392505050565b600082601f830112614af057600080fd5b6115fb83833560208501614a88565b600060208284031215614b1157600080fd5b81356001600160401b03811115614b2757600080fd5b61221284828501614adf565b600060208284031215614b4557600080fd5b81356001600160401b03811115614b5b57600080fd5b612212848285016148bb565b6000602080830181845280855180835260408601915060408160051b870101925083870160005b82811015614bbc57603f19888603018452614baa8583516144f5565b94509285019290850190600101614b8e565b5092979650505050505050565b60008060408385031215614bdc57600080fd5b50508035926020909101359150565b6000806103008385031215614bff57600080fd5b614c088361454d565b91506149c68460208501614779565b600081518084526020808501945080840160005b83811015614c4757815187529582019590820190600101614c2b565b509495945050505050565b6020815260006115fb6020830184614c17565b600080600060608486031215614c7a57600080fd5b833592506020808501356001600160401b0380821115614c9957600080fd5b614ca5888389016148bb565b94506040870135915080821115614cbb57600080fd5b818701915087601f830112614ccf57600080fd5b8135614cdd6148608261461d565b81815260059190911b8301840190848101908a831115614cfc57600080fd5b8585015b83811015614d3457803585811115614d185760008081fd5b614d268d89838a0101614adf565b845250918601918601614d00565b508096505050505050509250925092565b60008060408385031215614d5857600080fd5b614d618361454d565b915060208301358015158114614d7657600080fd5b809150509250929050565b602081526000825160606020840152614d9d6080840182614c17565b9050602084015160408401526040840151601f19848303016060850152614dc48282614c17565b95945050505050565b60008060008060808587031215614de357600080fd5b614dec8561454d565b9350614dfa6020860161454d565b92506040850135915060608501356001600160401b03811115614e1c57600080fd5b8501601f81018713614e2d57600080fd5b614e3c87823560208401614a88565b91505092959194509250565b60008060408385031215614e5b57600080fd5b614e648361454d565b91506149c66020840161454d565b600080600060608486031215614e8757600080fd5b505081359360208301359350604090920135919050565b600181811c90821680614eb257607f821691505b60208210811415611b5957634e487b7160e01b600052602260045260246000fd5b602080825260139082015272426c61636b6c6973746564206164647265737360681b604082015260600190565b634e487b7160e01b600052603260045260246000fd5b634e487b7160e01b600052601160045260246000fd5b6000600019821415614f4057614f40614f16565b5060010190565b6020808252602e908201527f4552433732313a2063616c6c6572206973206e6f7420746f6b656e206f776e6560408201526d1c881b9bdc88185c1c1c9bdd995960921b606082015260800190565b60008219821115614fa857614fa8614f16565b500190565b60006102e08201905082518252602083015160208301526040830151604083015260608301516060830152608083015161501f6080840182805182526020810151602083015260408101516040830152606081015160608301526080810151608083015260a081015160a08301525050565b5060a08381015180516101408501526020808201516101608601526040808301516101808701526060808401516101a088015260808401516101c088015292909301516101e086015260c086015180516102008701528082015161022087015283015161024086015260e0860151805161026087015290810151610280860152918201516102a08501528101516102c0840152610fc3565b600081516150c98185602086016144c9565b9290920192915050565b600080845481600182811c9150808316806150ef57607f831692505b602080841082141561510f57634e487b7160e01b86526022600452602486fd5b818015615123576001811461513457615161565b60ff19861689528489019650615161565b60008b81526020902060005b868110156151595781548b820152908501908301615140565b505084890196505b505050505050614dc481856150b7565b67113730b6b2911d1160c11b81528451600090615195816008850160208a016144c9565b61202360f01b60089184019182015285516151b781600a840160208a016144c9565b61088b60f21b600a92909101918201527f226465736372697074696f6e223a2245766f5665727365732045766f222c0000600c820152681134b6b0b3b2911d1160b91b602a82015284516152128160338401602089016144c9565b650b9c1b99c88b60d21b60339290910191820152701130b734b6b0ba34b7b72fbab936111d1160791b603982015261525e615250604a8301866150b7565b61088b60f21b815260020190565b979650505050505050565b607b60f81b8152600083516152858160018501602088016144c9565b83519083019061529c8160018401602088016144c9565b607d60f81b60019290910191820152600201949350505050565b7f646174613a6170706c69636174696f6e2f6a736f6e3b6261736536342c0000008152600082516152ee81601d8501602087016144c9565b91909101601d0192915050565b60008282101561530d5761530d614f16565b500390565b6020808252602b908201527f496e697469616c697a61626c653a20636f6e7472616374206973206e6f74206960408201526a6e697469616c697a696e6760a81b606082015260800190565b60208082526032908201527f4552433732313a207472616e7366657220746f206e6f6e20455243373231526560408201527131b2b4bb32b91034b6b83632b6b2b73a32b960711b606082015260800190565b634e487b7160e01b600052601260045260246000fd5b6000826153d4576153d46153af565b500490565b6000826153e8576153e86153af565b500690565b6e2261747472696275746573223a205b60881b8152815160009061541881600f8501602087016144c9565b91909101600f0192915050565b600083516154378184602088016144c9565b83519083019061544b8183602088016144c9565b605d60f81b9101908152600101949350505050565b600083516154728184602088016144c9565b8351908301906154868183602088016144c9565b01949350505050565b60008160001904831182151516156154a9576154a9614f16565b500290565b7f416363657373436f6e74726f6c3a206163636f756e74200000000000000000008152600083516154e68160178501602088016144c9565b7001034b99036b4b9b9b4b733903937b6329607d1b60179184019182015283516155178160288401602088016144c9565b01602801949350505050565b634e487b7160e01b600052603160045260246000fd5b6001600160a01b0385811682528416602082015260408101839052608060608201819052600090611083908301846144f5565b60006020828403121561557e57600080fd5b81516115fb81614496565b7f7b2274726169745f74797065223a2253706563696573222c2276616c7565223a8152601160f91b6020820152600085516155cb816021850160208a016144c9565b62089f4b60ea1b60219184019182018190527f7b2274726169745f74797065223a22526172697479222c2276616c7565223a2260248301528651615616816044850160208b016144c9565b604492019182018190527f7b2274726169745f74797065223a2247656e646572222c2276616c7565223a2260478301528551615659816067850160208a016144c9565b60679201918201527f7b2274726169745f74797065223a2247656e65726174696f6e222c2276616c75606a8201526232911d60e91b608a82015261525e6156a3608d8301866150b7565b611f4b60f21b815260020190565b7f7b2274726169745f74797065223a225072696d6172792054797065222c227661815265363ab2911d1160d11b6020820152600085516156f8816026850160208a016144c9565b62089f4b60ea1b60269184019182018190527f7b2274726169745f74797065223a225365636f6e646172792054797065222c226029830152673b30b63ab2911d1160c11b60498301528651615754816051850160208b016144c9565b60519201918201527f7b2274726169745f74797065223a22427265656420436f756e74222c2276616c6054820152633ab2911d60e11b607482015261525e6156a361582b6157f6826157e86157ad82607889018d6150b7565b7f7b2274726169745f74797065223a22417661696c61626c65204272656564732281526816113b30b63ab2911d60b91b602082015260290190565b612d3160f01b815260020190565b7f7b2274726169745f74797065223a22457870657269656e6365222c2276616c7581526232911d60e91b602082015260230190565b866150b7565b7f7b2274726169745f74797065223a224e6174757265222c2276616c7565223a228152600084516158698160208501602089016144c9565b808301905062089f4b60ea1b60208201527f7b2274726169745f74797065223a2241747461636b222c2276616c7565223a00602382015284516158b38160428401602089016144c9565b808201915050611f4b60f21b8060428301527f7b2274726169745f74797065223a22446566656e7365222c2276616c7565223a604483015284516158fe8160648501602089016144c9565b606492019182015260660195945050505050565b7f7b2274726169745f74797065223a225370656369616c222c2276616c7565223a81526000845161594a8160208501602089016144c9565b8083019050611f4b60f21b8060208301527f7b2274726169745f74797065223a225370656369616c20446566656e7365222c602283015267113b30b63ab2911d60c11b604283015285516159a581604a850160208a016144c9565b604a9201918201527f7b2274726169745f74797065223a225370656564222c2276616c7565223a0000604c82015283516159e681606a8401602088016144c9565b607d60f81b606a9290910191820152606b0195945050505050565b600081615a1057615a10614f16565b50600019019056fe4142434445464748494a4b4c4d4e4f505152535455565758595a6162636465666768696a6b6c6d6e6f707172737475767778797a303132333435363738392b2f9f2df0fed2c77648de5860a4cc508cd0818c85b8b8a1ab4ceeef8d981c8956a668747470733a2f2f6769746875622e636f6d2f45766f5665727365732f7075626c69632d6173736574732f7261772f6d61696e2f6e6674732f45766f2fa49807205ce4d355092ef5a8a18f56e8913cf4a201fbe287825b095693c21775a26469706673582212207948dffe5b06f6252324a2482f923294275fd645868a87e9955738e5b031a2e864736f6c63430008090033",
  "linkReferences": {},
  "deployedLinkReferences": {}
}