{
  "_format": "hh-sol-artifact-1",
  "contractName": "xEVOAvalanche",
  "sourceName": "contracts/ERC20/xEVO/xEVOAvalanche.sol",
  "abi": [
    {
      "inputs": [],
      "stateMutability": "nonpayable",
      "type": "constructor"
    },
    {
      "anonymous": false,
      "inputs": [
        {
          "indexed": true,
          "internalType": "address",
          "name": "owner",
          "type": "address"
        },
        {
          "indexed": true,
          "internalType": "address",
          "name": "spender",
          "type": "address"
        },
        {
          "indexed": false,
          "internalType": "uint256",
          "name": "value",
          "type": "uint256"
        }
      ],
      "name": "Approval",
      "type": "event"
    },
    {
      "anonymous": false,
      "inputs": [
        {
          "indexed": false,
          "internalType": "uint8",
          "name": "version",
          "type": "uint8"
        }
      ],
      "name": "Initialized",
      "type": "event"
    },
    {
      "anonymous": false,
      "inputs": [
        {
          "indexed": false,
          "internalType": "address",
          "name": "account",
          "type": "address"
        }
      ],
      "name": "Paused",
      "type": "event"
    },
    {
      "anonymous": false,
      "inputs": [
        {
          "indexed": true,
          "internalType": "bytes32",
          "name": "role",
          "type": "bytes32"
        },
        {
          "indexed": true,
          "internalType": "bytes32",
          "name": "previousAdminRole",
          "type": "bytes32"
        },
        {
          "indexed": true,
          "internalType": "bytes32",
          "name": "newAdminRole",
          "type": "bytes32"
        }
      ],
      "name": "RoleAdminChanged",
      "type": "event"
    },
    {
      "anonymous": false,
      "inputs": [
        {
          "indexed": true,
          "internalType": "bytes32",
          "name": "role",
          "type": "bytes32"
        },
        {
          "indexed": true,
          "internalType": "address",
          "name": "account",
          "type": "address"
        },
        {
          "indexed": true,
          "internalType": "address",
          "name": "sender",
          "type": "address"
        }
      ],
      "name": "RoleGranted",
      "type": "event"
    },
    {
      "anonymous": false,
      "inputs": [
        {
          "indexed": true,
          "internalType": "bytes32",
          "name": "role",
          "type": "bytes32"
        },
        {
          "indexed": true,
          "internalType": "address",
          "name": "account",
          "type": "address"
        },
        {
          "indexed": true,
          "internalType": "address",
          "name": "sender",
          "type": "address"
        }
      ],
      "name": "RoleRevoked",
      "type": "event"
    },
    {
      "anonymous": false,
      "inputs": [
        {
          "indexed": true,
          "internalType": "address",
          "name": "from",
          "type": "address"
        },
        {
          "indexed": true,
          "internalType": "address",
          "name": "to",
          "type": "address"
        },
        {
          "indexed": false,
          "internalType": "uint256",
          "name": "value",
          "type": "uint256"
        }
      ],
      "name": "Transfer",
      "type": "event"
    },
    {
      "anonymous": false,
      "inputs": [
        {
          "indexed": false,
          "internalType": "address",
          "name": "account",
          "type": "address"
        }
      ],
      "name": "Unpaused",
      "type": "event"
    },
    {
      "inputs": [],
      "name": "CONTRACT_ROLE",
      "outputs": [
        {
          "internalType": "bytes32",
          "name": "",
          "type": "bytes32"
        }
      ],
      "stateMutability": "view",
      "type": "function"
    },
    {
      "inputs": [],
      "name": "DEFAULT_ADMIN_ROLE",
      "outputs": [
        {
          "internalType": "bytes32",
          "name": "",
          "type": "bytes32"
        }
      ],
      "stateMutability": "view",
      "type": "function"
    },
    {
      "inputs": [],
      "name": "PAUSER_ROLE",
      "outputs": [
        {
          "internalType": "bytes32",
          "name": "",
          "type": "bytes32"
        }
      ],
      "stateMutability": "view",
      "type": "function"
    },
    {
      "inputs": [
        {
          "internalType": "address[]",
          "name": "users",
          "type": "address[]"
        }
      ],
      "name": "adminMigrate",
      "outputs": [],
      "stateMutability": "nonpayable",
      "type": "function"
    },
    {
      "inputs": [
        {
          "internalType": "address",
          "name": "owner",
          "type": "address"
        },
        {
          "internalType": "address",
          "name": "spender",
          "type": "address"
        }
      ],
      "name": "allowance",
      "outputs": [
        {
          "internalType": "uint256",
          "name": "",
          "type": "uint256"
        }
      ],
      "stateMutability": "view",
      "type": "function"
    },
    {
      "inputs": [
        {
          "internalType": "address",
          "name": "spender",
          "type": "address"
        },
        {
          "internalType": "uint256",
          "name": "amount",
          "type": "uint256"
        }
      ],
      "name": "approve",
      "outputs": [
        {
          "internalType": "bool",
          "name": "",
          "type": "bool"
        }
      ],
      "stateMutability": "nonpayable",
      "type": "function"
    },
    {
      "inputs": [
        {
          "internalType": "address",
          "name": "account",
          "type": "address"
        }
      ],
      "name": "balanceOf",
      "outputs": [
        {
          "internalType": "uint256",
          "name": "",
          "type": "uint256"
        }
      ],
      "stateMutability": "view",
      "type": "function"
    },
    {
      "inputs": [],
      "name": "decimals",
      "outputs": [
        {
          "internalType": "uint8",
          "name": "",
          "type": "uint8"
        }
      ],
      "stateMutability": "view",
      "type": "function"
    },
    {
      "inputs": [
        {
          "internalType": "address",
          "name": "spender",
          "type": "address"
        },
        {
          "internalType": "uint256",
          "name": "subtractedValue",
          "type": "uint256"
        }
      ],
      "name": "decreaseAllowance",
      "outputs": [
        {
          "internalType": "bool",
          "name": "",
          "type": "bool"
        }
      ],
      "stateMutability": "nonpayable",
      "type": "function"
    },
    {
      "inputs": [
        {
          "internalType": "uint256",
          "name": "amount",
          "type": "uint256"
        }
      ],
      "name": "deposit",
      "outputs": [],
      "stateMutability": "nonpayable",
      "type": "function"
    },
    {
      "inputs": [],
      "name": "getAllFinalBalances",
      "outputs": [
        {
          "internalType": "address[]",
          "name": "users",
          "type": "address[]"
        },
        {
          "internalType": "uint256[]",
          "name": "xevo",
          "type": "uint256[]"
        },
        {
          "internalType": "uint256[]",
          "name": "evo",
          "type": "uint256[]"
        }
      ],
      "stateMutability": "view",
      "type": "function"
    },
    {
      "inputs": [
        {
          "internalType": "address",
          "name": "user",
          "type": "address"
        }
      ],
      "name": "getFinalBalance",
      "outputs": [
        {
          "internalType": "uint256",
          "name": "xevo",
          "type": "uint256"
        },
        {
          "internalType": "uint256",
          "name": "evo",
          "type": "uint256"
        }
      ],
      "stateMutability": "view",
      "type": "function"
    },
    {
      "inputs": [
        {
          "internalType": "bytes32",
          "name": "role",
          "type": "bytes32"
        }
      ],
      "name": "getRoleAdmin",
      "outputs": [
        {
          "internalType": "bytes32",
          "name": "",
          "type": "bytes32"
        }
      ],
      "stateMutability": "view",
      "type": "function"
    },
    {
      "inputs": [
        {
          "internalType": "bytes32",
          "name": "role",
          "type": "bytes32"
        },
        {
          "internalType": "address",
          "name": "account",
          "type": "address"
        }
      ],
      "name": "grantRole",
      "outputs": [],
      "stateMutability": "nonpayable",
      "type": "function"
    },
    {
      "inputs": [
        {
          "internalType": "bytes32",
          "name": "role",
          "type": "bytes32"
        },
        {
          "internalType": "address",
          "name": "account",
          "type": "address"
        }
      ],
      "name": "hasRole",
      "outputs": [
        {
          "internalType": "bool",
          "name": "",
          "type": "bool"
        }
      ],
      "stateMutability": "view",
      "type": "function"
    },
    {
      "inputs": [
        {
          "internalType": "address",
          "name": "spender",
          "type": "address"
        },
        {
          "internalType": "uint256",
          "name": "addedValue",
          "type": "uint256"
        }
      ],
      "name": "increaseAllowance",
      "outputs": [
        {
          "internalType": "bool",
          "name": "",
          "type": "bool"
        }
      ],
      "stateMutability": "nonpayable",
      "type": "function"
    },
    {
      "inputs": [],
      "name": "initialize",
      "outputs": [],
      "stateMutability": "nonpayable",
      "type": "function"
    },
    {
      "inputs": [],
      "name": "name",
      "outputs": [
        {
          "internalType": "string",
          "name": "",
          "type": "string"
        }
      ],
      "stateMutability": "view",
      "type": "function"
    },
    {
      "inputs": [],
      "name": "pause",
      "outputs": [],
      "stateMutability": "nonpayable",
      "type": "function"
    },
    {
      "inputs": [],
      "name": "paused",
      "outputs": [
        {
          "internalType": "bool",
          "name": "",
          "type": "bool"
        }
      ],
      "stateMutability": "view",
      "type": "function"
    },
    {
      "inputs": [
        {
          "internalType": "bytes32",
          "name": "role",
          "type": "bytes32"
        },
        {
          "internalType": "address",
          "name": "account",
          "type": "address"
        }
      ],
      "name": "renounceRole",
      "outputs": [],
      "stateMutability": "nonpayable",
      "type": "function"
    },
    {
      "inputs": [
        {
          "internalType": "bytes32",
          "name": "role",
          "type": "bytes32"
        },
        {
          "internalType": "address",
          "name": "account",
          "type": "address"
        }
      ],
      "name": "revokeRole",
      "outputs": [],
      "stateMutability": "nonpayable",
      "type": "function"
    },
    {
      "inputs": [
        {
          "internalType": "address",
          "name": "_address",
          "type": "address"
        }
      ],
      "name": "setBaseToken",
      "outputs": [],
      "stateMutability": "nonpayable",
      "type": "function"
    },
    {
      "inputs": [
        {
          "internalType": "bytes4",
          "name": "interfaceId",
          "type": "bytes4"
        }
      ],
      "name": "supportsInterface",
      "outputs": [
        {
          "internalType": "bool",
          "name": "",
          "type": "bool"
        }
      ],
      "stateMutability": "view",
      "type": "function"
    },
    {
      "inputs": [],
      "name": "symbol",
      "outputs": [
        {
          "internalType": "string",
          "name": "",
          "type": "string"
        }
      ],
      "stateMutability": "view",
      "type": "function"
    },
    {
      "inputs": [],
      "name": "totalSupply",
      "outputs": [
        {
          "internalType": "uint256",
          "name": "",
          "type": "uint256"
        }
      ],
      "stateMutability": "view",
      "type": "function"
    },
    {
      "inputs": [
        {
          "internalType": "address",
          "name": "to",
          "type": "address"
        },
        {
          "internalType": "uint256",
          "name": "amount",
          "type": "uint256"
        }
      ],
      "name": "transfer",
      "outputs": [
        {
          "internalType": "bool",
          "name": "",
          "type": "bool"
        }
      ],
      "stateMutability": "nonpayable",
      "type": "function"
    },
    {
      "inputs": [
        {
          "internalType": "address",
          "name": "from",
          "type": "address"
        },
        {
          "internalType": "address",
          "name": "to",
          "type": "address"
        },
        {
          "internalType": "uint256",
          "name": "amount",
          "type": "uint256"
        }
      ],
      "name": "transferFrom",
      "outputs": [
        {
          "internalType": "bool",
          "name": "",
          "type": "bool"
        }
      ],
      "stateMutability": "nonpayable",
      "type": "function"
    },
    {
      "inputs": [],
      "name": "unpause",
      "outputs": [],
      "stateMutability": "nonpayable",
      "type": "function"
    },
    {
      "inputs": [
        {
          "internalType": "uint256",
          "name": "amount",
          "type": "uint256"
        }
      ],
      "name": "withdraw",
      "outputs": [],
      "stateMutability": "nonpayable",
      "type": "function"
    }
  ],
  "bytecode": "0x60806040523480156200001157600080fd5b50600054610100900460ff1615808015620000335750600054600160ff909116105b8062000063575062000050306200013d60201b62000fbf1760201c565b15801562000063575060005460ff166001145b620000cb5760405162461bcd60e51b815260206004820152602e60248201527f496e697469616c697a61626c653a20636f6e747261637420697320616c72656160448201526d191e481a5b9a5d1a585b1a5e995960921b606482015260840160405180910390fd5b6000805460ff191660011790558015620000ef576000805461ff0019166101001790555b801562000136576000805461ff0019169055604051600181527f7f26b83ff96e1f2b6a682f133852f6798a09c465da95921460cefb38474024989060200160405180910390a15b506200014c565b6001600160a01b03163b151590565b6122c9806200015c6000396000f3fe608060405234801561001057600080fd5b50600436106101da5760003560e01c80634b4a767d11610104578063a217fddf116100a2578063ce0ef48e11610071578063ce0ef48e146103f5578063d547741f1461040c578063dd62ed3e1461041f578063e63ab1e91461043257600080fd5b8063a217fddf146103b4578063a457c2d7146103bc578063a9059cbb146103cf578063b6b55f25146103e257600080fd5b80638129fc1c116100de5780638129fc1c146103895780638456cb591461039157806391d148541461039957806395d89b41146103ac57600080fd5b80634b4a767d1461032d5780635c975abb1461035557806370a082311461036057600080fd5b8063248a9ca31161017c57806336568abe1161014b57806336568abe146102ec57806339509351146102ff5780633f4ba83a1461031257806345ceef961461031a57600080fd5b8063248a9ca3146102945780632e1a7d4d146102b75780632f2ff15d146102ca578063313ce567146102dd57600080fd5b8063095ea7b3116101b8578063095ea7b31461025157806316bb6c131461026457806318160ddd1461027957806323b872dd1461028157600080fd5b806301ffc9a7146101df57806303fe46ab1461020757806306fdde031461023c575b600080fd5b6101f26101ed366004611c55565b610447565b60405190151581526020015b60405180910390f35b61022e7f364d3d7565c7a8300c96fd53e065d19b65848d7b23b3191adcd55621c744223c81565b6040519081526020016101fe565b61024461047e565b6040516101fe9190611ca3565b6101f261025f366004611cf2565b610510565b610277610272366004611d1c565b610528565b005b60cb5461022e565b6101f261028f366004611d37565b610556565b61022e6102a2366004611d73565b60009081526097602052604090206001015490565b6102776102c5366004611d73565b61057a565b6102776102d8366004611d8c565b61069b565b604051601281526020016101fe565b6102776102fa366004611d8c565b6106c5565b6101f261030d366004611cf2565b610748565b61027761076a565b610277610328366004611dce565b61078d565b61034061033b366004611d1c565b6109d9565b604080519283526020830191909152016101fe565b60335460ff166101f2565b61022e61036e366004611d1c565b6001600160a01b0316600090815260c9602052604090205490565b6102776109fb565b610277610bc8565b6101f26103a7366004611d8c565b610be8565b610244610c13565b61022e600081565b6101f26103ca366004611cf2565b610c22565b6101f26103dd366004611cf2565b610c9d565b6102776103f0366004611d73565b610cab565b6103fd610db0565b6040516101fe93929190611ece565b61027761041a366004611d8c565b610f6f565b61022e61042d366004611f43565b610f94565b61022e60008051602061227483398151915281565b60006001600160e01b03198216637965db0b60e01b148061047857506301ffc9a760e01b6001600160e01b03198316145b92915050565b606060cc805461048d90611f6d565b80601f01602080910402602001604051908101604052809291908181526020018280546104b990611f6d565b80156105065780601f106104db57610100808354040283529160200191610506565b820191906000526020600020905b8154815290600101906020018083116104e957829003601f168201915b5050505050905090565b60003361051e818585610fce565b5060019392505050565b6000610533816110f2565b5060fb80546001600160a01b0319166001600160a01b0392909216919091179055565b6000336105648582856110fc565b61056f858585611170565b506001949350505050565b61058261133e565b600061058d60cb5490565b60fb546040516370a0823160e01b815230600482015291925060009183916001600160a01b0316906370a0823190602401602060405180830381865afa1580156105db573d6000803e3d6000fd5b505050506040513d601f19601f820116820180604052508101906105ff9190611fa7565b6106099085611fd6565b6106139190611ff5565b905061061f3384611386565b60fb5460405163a9059cbb60e01b8152336004820152602481018390526001600160a01b039091169063a9059cbb906044015b6020604051808303816000875af1158015610671573d6000803e3d6000fd5b505050506040513d601f19601f820116820180604052508101906106959190612017565b50505050565b6000828152609760205260409020600101546106b6816110f2565b6106c083836114d4565b505050565b6001600160a01b038116331461073a5760405162461bcd60e51b815260206004820152602f60248201527f416363657373436f6e74726f6c3a2063616e206f6e6c792072656e6f756e636560448201526e103937b632b9903337b91039b2b63360891b60648201526084015b60405180910390fd5b610744828261155a565b5050565b60003361051e81858561075b8383610f94565b6107659190612039565b610fce565b600080516020612274833981519152610782816110f2565b61078a6115c1565b50565b6000610798816110f2565b60005b82518110156106c05760006107af60cb5490565b905060006107eb8584815181106107c8576107c861204c565b60200260200101516001600160a01b0316600090815260c9602052604090205490565b9050600081116108355760405162461bcd60e51b8152602060048201526015602482015274155cd95c88185b1c9958591e481b5a59dc985d1959605a1b6044820152606401610731565b60fb546040516370a0823160e01b815230600482015260009184916001600160a01b03909116906370a0823190602401602060405180830381865afa158015610882573d6000803e3d6000fd5b505050506040513d601f19601f820116820180604052508101906108a69190611fa7565b6108b09084611fd6565b6108ba9190611ff5565b90506108df8685815181106108d1576108d161204c565b602002602001015183611386565b61090e8685815181106108f4576108f461204c565b60200260200101518360fc6116139092919063ffffffff16565b5060fb546001600160a01b031663a9059cbb336040516001600160e01b031960e084901b1681526001600160a01b039091166004820152602481018490526044016020604051808303816000875af115801561096e573d6000803e3d6000fd5b505050506040513d601f19601f820116820180604052508101906109929190612017565b506109c28685815181106109a8576109a861204c565b60200260200101518260ff6116139092919063ffffffff16565b5050505080806109d190612062565b91505061079b565b6000806109e760fc84611631565b91506109f460ff84611631565b9050915091565b600054610100900460ff1615808015610a1b5750600054600160ff909116105b80610a355750303b158015610a35575060005460ff166001145b610a985760405162461bcd60e51b815260206004820152602e60248201527f496e697469616c697a61626c653a20636f6e747261637420697320616c72656160448201526d191e481a5b9a5d1a585b1a5e995960921b6064820152608401610731565b6000805460ff191660011790558015610abb576000805461ff0019166101001790555b610afd604051806040016040528060048152602001637845564f60e01b815250604051806040016040528060048152602001637845564f60e01b81525061164d565b610b0561167e565b610b0d6116ad565b610b186000336114d4565b610b30600080516020612274833981519152336114d4565b610b5a7f364d3d7565c7a8300c96fd53e065d19b65848d7b23b3191adcd55621c744223c336114d4565b60fb80546001600160a01b0319167342006ab57701251b580bdfc24778c43c9ff589a1179055801561078a576000805461ff0019169055604051600181527f7f26b83ff96e1f2b6a682f133852f6798a09c465da95921460cefb38474024989060200160405180910390a150565b600080516020612274833981519152610be0816110f2565b61078a6116d4565b60009182526097602090815260408084206001600160a01b0393909316845291905290205460ff1690565b606060cd805461048d90611f6d565b60003381610c308286610f94565b905083811015610c905760405162461bcd60e51b815260206004820152602560248201527f45524332303a2064656372656173656420616c6c6f77616e63652062656c6f77604482015264207a65726f60d81b6064820152608401610731565b61056f8286868403610fce565b60003361051e818585611170565b610cb361133e565b60fb546040516370a0823160e01b81523060048201526000916001600160a01b0316906370a0823190602401602060405180830381865afa158015610cfc573d6000803e3d6000fd5b505050506040513d601f19601f82011682018060405250810190610d209190611fa7565b90506000610d2d60cb5490565b9050801580610d3a575081155b15610d4e57610d493384611711565b610d73565b600082610d5b8386611fd6565b610d659190611ff5565b9050610d713382611711565b505b60fb546040516323b872dd60e01b8152336004820152306024820152604481018590526001600160a01b03909116906323b872dd90606401610652565b60608060606000610dc160fc6117f0565b90508067ffffffffffffffff811115610ddc57610ddc611db8565b604051908082528060200260200182016040528015610e05578160200160208202803683370190505b5093508067ffffffffffffffff811115610e2157610e21611db8565b604051908082528060200260200182016040528015610e4a578160200160208202803683370190505b5092508067ffffffffffffffff811115610e6657610e66611db8565b604051908082528060200260200182016040528015610e8f578160200160208202803683370190505b50915060005b81811015610f0057610ea860fc826117fb565b868381518110610eba57610eba61204c565b60200260200101868481518110610ed357610ed361204c565b60209081029190910101919091526001600160a01b03909116905280610ef881612062565b915050610e95565b5060005b81811015610f6857610f39858281518110610f2157610f2161204c565b602002602001015160ff61163190919063ffffffff16565b838281518110610f4b57610f4b61204c565b602090810291909101015280610f6081612062565b915050610f04565b5050909192565b600082815260976020526040902060010154610f8a816110f2565b6106c0838361155a565b6001600160a01b03918216600090815260ca6020908152604080832093909416825291909152205490565b6001600160a01b03163b151590565b6001600160a01b0383166110305760405162461bcd60e51b8152602060048201526024808201527f45524332303a20617070726f76652066726f6d20746865207a65726f206164646044820152637265737360e01b6064820152608401610731565b6001600160a01b0382166110915760405162461bcd60e51b815260206004820152602260248201527f45524332303a20617070726f766520746f20746865207a65726f206164647265604482015261737360f01b6064820152608401610731565b6001600160a01b03838116600081815260ca602090815260408083209487168084529482529182902085905590518481527f8c5be1e5ebec7d5bd14f71427d1e84f3dd0314c0f7b2291e5b200ac8c7c3b925910160405180910390a3505050565b61078a8133611817565b60006111088484610f94565b9050600019811461069557818110156111635760405162461bcd60e51b815260206004820152601d60248201527f45524332303a20696e73756666696369656e7420616c6c6f77616e63650000006044820152606401610731565b6106958484848403610fce565b6001600160a01b0383166111d45760405162461bcd60e51b815260206004820152602560248201527f45524332303a207472616e736665722066726f6d20746865207a65726f206164604482015264647265737360d81b6064820152608401610731565b6001600160a01b0382166112365760405162461bcd60e51b815260206004820152602360248201527f45524332303a207472616e7366657220746f20746865207a65726f206164647260448201526265737360e81b6064820152608401610731565b6001600160a01b038316600090815260c96020526040902054818110156112ae5760405162461bcd60e51b815260206004820152602660248201527f45524332303a207472616e7366657220616d6f756e7420657863656564732062604482015265616c616e636560d01b6064820152608401610731565b6001600160a01b03808516600090815260c960205260408082208585039055918516815290812080548492906112e5908490612039565b92505081905550826001600160a01b0316846001600160a01b03167fddf252ad1be2c89b69c2b068fc378daa952ba7f163c4a11628f55a4df523b3ef8460405161133191815260200190565b60405180910390a3610695565b60335460ff16156113845760405162461bcd60e51b815260206004820152601060248201526f14185d5cd8589b194e881c185d5cd95960821b6044820152606401610731565b565b6001600160a01b0382166113e65760405162461bcd60e51b815260206004820152602160248201527f45524332303a206275726e2066726f6d20746865207a65726f206164647265736044820152607360f81b6064820152608401610731565b6001600160a01b038216600090815260c960205260409020548181101561145a5760405162461bcd60e51b815260206004820152602260248201527f45524332303a206275726e20616d6f756e7420657863656564732062616c616e604482015261636560f01b6064820152608401610731565b6001600160a01b038316600090815260c960205260408120838303905560cb805484929061148990849061207b565b90915550506040518281526000906001600160a01b038516907fddf252ad1be2c89b69c2b068fc378daa952ba7f163c4a11628f55a4df523b3ef9060200160405180910390a3505050565b6114de8282610be8565b6107445760008281526097602090815260408083206001600160a01b03851684529091529020805460ff191660011790556115163390565b6001600160a01b0316816001600160a01b0316837f2f8788117e7eff1d82e926ec794901d17c78024a50270940304540a733656f0d60405160405180910390a45050565b6115648282610be8565b156107445760008281526097602090815260408083206001600160a01b0385168085529252808320805460ff1916905551339285917ff6391f5c32d9c69d2a47ea670b442974b53935d1edc7fd64eb21e047a839171b9190a45050565b6115c961187b565b6033805460ff191690557f5db9ee0a495bf2e6ff9c91a7834c1ba4fdd244a5e8aa4e537bd38aeae4b073aa335b6040516001600160a01b03909116815260200160405180910390a1565b6000611629846001600160a01b038516846118c4565b949350505050565b6000611646836001600160a01b0384166118e1565b9392505050565b600054610100900460ff166116745760405162461bcd60e51b81526004016107319061208e565b6107448282611951565b600054610100900460ff166116a55760405162461bcd60e51b81526004016107319061208e565b611384611991565b600054610100900460ff166113845760405162461bcd60e51b81526004016107319061208e565b6116dc61133e565b6033805460ff191660011790557f62e78cea01bee320cd4e420270b5ea74000d11b0c9f74754ebdbfc544b05a2586115f63390565b6001600160a01b0382166117675760405162461bcd60e51b815260206004820152601f60248201527f45524332303a206d696e7420746f20746865207a65726f2061646472657373006044820152606401610731565b8060cb60008282546117799190612039565b90915550506001600160a01b038216600090815260c96020526040812080548392906117a6908490612039565b90915550506040518181526001600160a01b038316906000907fddf252ad1be2c89b69c2b068fc378daa952ba7f163c4a11628f55a4df523b3ef9060200160405180910390a35050565b6000610478826119c4565b600080808061180a86866119cf565b9097909650945050505050565b6118218282610be8565b61074457611839816001600160a01b031660146119fa565b6118448360206119fa565b6040516020016118559291906120d9565b60408051601f198184030181529082905262461bcd60e51b825261073191600401611ca3565b60335460ff166113845760405162461bcd60e51b815260206004820152601460248201527314185d5cd8589b194e881b9bdd081c185d5cd95960621b6044820152606401610731565b600082815260028401602052604081208290556116298484611b96565b60008181526002830160205260408120548015158061190557506119058484611ba2565b6116465760405162461bcd60e51b815260206004820152601e60248201527f456e756d657261626c654d61703a206e6f6e6578697374656e74206b657900006044820152606401610731565b600054610100900460ff166119785760405162461bcd60e51b81526004016107319061208e565b60cc611984838261219c565b5060cd6106c0828261219c565b600054610100900460ff166119b85760405162461bcd60e51b81526004016107319061208e565b6033805460ff19169055565b600061047882611bae565b600080806119dd8585611bb8565b600081815260029690960160205260409095205494959350505050565b60606000611a09836002611fd6565b611a14906002612039565b67ffffffffffffffff811115611a2c57611a2c611db8565b6040519080825280601f01601f191660200182016040528015611a56576020820181803683370190505b509050600360fc1b81600081518110611a7157611a7161204c565b60200101906001600160f81b031916908160001a905350600f60fb1b81600181518110611aa057611aa061204c565b60200101906001600160f81b031916908160001a9053506000611ac4846002611fd6565b611acf906001612039565b90505b6001811115611b47576f181899199a1a9b1b9c1cb0b131b232b360811b85600f1660108110611b0357611b0361204c565b1a60f81b828281518110611b1957611b1961204c565b60200101906001600160f81b031916908160001a90535060049490941c93611b408161225c565b9050611ad2565b5083156116465760405162461bcd60e51b815260206004820181905260248201527f537472696e67733a20686578206c656e67746820696e73756666696369656e746044820152606401610731565b60006116468383611bc4565b60006116468383611c13565b6000610478825490565b60006116468383611c2b565b6000818152600183016020526040812054611c0b57508154600181810184556000848152602080822090930184905584548482528286019093526040902091909155610478565b506000610478565b60008181526001830160205260408120541515611646565b6000826000018281548110611c4257611c4261204c565b9060005260206000200154905092915050565b600060208284031215611c6757600080fd5b81356001600160e01b03198116811461164657600080fd5b60005b83811015611c9a578181015183820152602001611c82565b50506000910152565b6020815260008251806020840152611cc2816040850160208701611c7f565b601f01601f19169190910160400192915050565b80356001600160a01b0381168114611ced57600080fd5b919050565b60008060408385031215611d0557600080fd5b611d0e83611cd6565b946020939093013593505050565b600060208284031215611d2e57600080fd5b61164682611cd6565b600080600060608486031215611d4c57600080fd5b611d5584611cd6565b9250611d6360208501611cd6565b9150604084013590509250925092565b600060208284031215611d8557600080fd5b5035919050565b60008060408385031215611d9f57600080fd5b82359150611daf60208401611cd6565b90509250929050565b634e487b7160e01b600052604160045260246000fd5b60006020808385031215611de157600080fd5b823567ffffffffffffffff80821115611df957600080fd5b818501915085601f830112611e0d57600080fd5b813581811115611e1f57611e1f611db8565b8060051b604051601f19603f83011681018181108582111715611e4457611e44611db8565b604052918252848201925083810185019188831115611e6257600080fd5b938501935b82851015611e8757611e7885611cd6565b84529385019392850192611e67565b98975050505050505050565b600081518084526020808501945080840160005b83811015611ec357815187529582019590820190600101611ea7565b509495945050505050565b606080825284519082018190526000906020906080840190828801845b82811015611f105781516001600160a01b031684529284019290840190600101611eeb565b50505083810382850152611f248187611e93565b9150508281036040840152611f398185611e93565b9695505050505050565b60008060408385031215611f5657600080fd5b611f5f83611cd6565b9150611daf60208401611cd6565b600181811c90821680611f8157607f821691505b602082108103611fa157634e487b7160e01b600052602260045260246000fd5b50919050565b600060208284031215611fb957600080fd5b5051919050565b634e487b7160e01b600052601160045260246000fd5b6000816000190483118215151615611ff057611ff0611fc0565b500290565b60008261201257634e487b7160e01b600052601260045260246000fd5b500490565b60006020828403121561202957600080fd5b8151801515811461164657600080fd5b8082018082111561047857610478611fc0565b634e487b7160e01b600052603260045260246000fd5b60006001820161207457612074611fc0565b5060010190565b8181038181111561047857610478611fc0565b6020808252602b908201527f496e697469616c697a61626c653a20636f6e7472616374206973206e6f74206960408201526a6e697469616c697a696e6760a81b606082015260800190565b7f416363657373436f6e74726f6c3a206163636f756e7420000000000000000000815260008351612111816017850160208801611c7f565b7001034b99036b4b9b9b4b733903937b6329607d1b6017918401918201528351612142816028840160208801611c7f565b01602801949350505050565b601f8211156106c057600081815260208120601f850160051c810160208610156121755750805b601f850160051c820191505b8181101561219457828155600101612181565b505050505050565b815167ffffffffffffffff8111156121b6576121b6611db8565b6121ca816121c48454611f6d565b8461214e565b602080601f8311600181146121ff57600084156121e75750858301515b600019600386901b1c1916600185901b178555612194565b600085815260208120601f198616915b8281101561222e5788860151825594840194600190910190840161220f565b508582101561224c5787850151600019600388901b60f8161c191681555b5050505050600190811b01905550565b60008161226b5761226b611fc0565b50600019019056fe65d7a28e3265b37a6474929f336521b332c1681b933f6cb9f3376673440d862aa2646970667358221220fb8035cea04750d7fcf1a868656b167a44e17ea506541a395d81711f9917bf9d64736f6c63430008100033",
  "linkReferences": {},
  "deployedLinkReferences": {}
}