{
  "_format": "hh-sol-artifact-1",
  "contractName": "EvoEggGen0",
  "sourceName": "contracts/ERC721/EvoEgg/EvoEggGen0.sol",
  "abi": [
    {
      "inputs": [],
      "stateMutability": "nonpayable",
      "type": "constructor"
    },
    {
      "anonymous": false,
      "inputs": [
        {
          "indexed": true,
          "internalType": "address",
          "name": "owner",
          "type": "address"
        },
        {
          "indexed": true,
          "internalType": "address",
          "name": "approved",
          "type": "address"
        },
        {
          "indexed": true,
          "internalType": "uint256",
          "name": "tokenId",
          "type": "uint256"
        }
      ],
      "name": "Approval",
      "type": "event"
    },
    {
      "anonymous": false,
      "inputs": [
        {
          "indexed": true,
          "internalType": "address",
          "name": "owner",
          "type": "address"
        },
        {
          "indexed": true,
          "internalType": "address",
          "name": "operator",
          "type": "address"
        },
        {
          "indexed": false,
          "internalType": "bool",
          "name": "approved",
          "type": "bool"
        }
      ],
      "name": "ApprovalForAll",
      "type": "event"
    },
    {
      "anonymous": false,
      "inputs": [
        {
          "indexed": true,
          "internalType": "address",
          "name": "from",
          "type": "address"
        },
        {
          "indexed": true,
          "internalType": "uint256",
          "name": "tokenId",
          "type": "uint256"
        },
        {
          "indexed": false,
          "internalType": "bool",
          "name": "withLocked",
          "type": "bool"
        }
      ],
      "name": "EggMinted",
      "type": "event"
    },
    {
      "anonymous": false,
      "inputs": [
        {
          "indexed": true,
          "internalType": "address",
          "name": "from",
          "type": "address"
        },
        {
          "indexed": true,
          "internalType": "uint256",
          "name": "tokenId",
          "type": "uint256"
        }
      ],
      "name": "EggTreated",
      "type": "event"
    },
    {
      "anonymous": false,
      "inputs": [
        {
          "indexed": false,
          "internalType": "uint8",
          "name": "version",
          "type": "uint8"
        }
      ],
      "name": "Initialized",
      "type": "event"
    },
    {
      "anonymous": false,
      "inputs": [
        {
          "indexed": false,
          "internalType": "address",
          "name": "account",
          "type": "address"
        }
      ],
      "name": "Paused",
      "type": "event"
    },
    {
      "anonymous": false,
      "inputs": [
        {
          "indexed": false,
          "internalType": "uint256",
          "name": "unlocked",
          "type": "uint256"
        },
        {
          "indexed": false,
          "internalType": "uint256",
          "name": "locked",
          "type": "uint256"
        },
        {
          "indexed": false,
          "internalType": "uint256",
          "name": "treat",
          "type": "uint256"
        }
      ],
      "name": "PricesUpdated",
      "type": "event"
    },
    {
      "anonymous": false,
      "inputs": [
        {
          "indexed": true,
          "internalType": "bytes32",
          "name": "role",
          "type": "bytes32"
        },
        {
          "indexed": true,
          "internalType": "bytes32",
          "name": "previousAdminRole",
          "type": "bytes32"
        },
        {
          "indexed": true,
          "internalType": "bytes32",
          "name": "newAdminRole",
          "type": "bytes32"
        }
      ],
      "name": "RoleAdminChanged",
      "type": "event"
    },
    {
      "anonymous": false,
      "inputs": [
        {
          "indexed": true,
          "internalType": "bytes32",
          "name": "role",
          "type": "bytes32"
        },
        {
          "indexed": true,
          "internalType": "address",
          "name": "account",
          "type": "address"
        },
        {
          "indexed": true,
          "internalType": "address",
          "name": "sender",
          "type": "address"
        }
      ],
      "name": "RoleGranted",
      "type": "event"
    },
    {
      "anonymous": false,
      "inputs": [
        {
          "indexed": true,
          "internalType": "bytes32",
          "name": "role",
          "type": "bytes32"
        },
        {
          "indexed": true,
          "internalType": "address",
          "name": "account",
          "type": "address"
        },
        {
          "indexed": true,
          "internalType": "address",
          "name": "sender",
          "type": "address"
        }
      ],
      "name": "RoleRevoked",
      "type": "event"
    },
    {
      "anonymous": false,
      "inputs": [
        {
          "indexed": true,
          "internalType": "address",
          "name": "from",
          "type": "address"
        },
        {
          "indexed": true,
          "internalType": "address",
          "name": "to",
          "type": "address"
        },
        {
          "indexed": true,
          "internalType": "uint256",
          "name": "tokenId",
          "type": "uint256"
        }
      ],
      "name": "Transfer",
      "type": "event"
    },
    {
      "anonymous": false,
      "inputs": [
        {
          "indexed": false,
          "internalType": "address",
          "name": "account",
          "type": "address"
        }
      ],
      "name": "Unpaused",
      "type": "event"
    },
    {
      "inputs": [],
      "name": "ADMIN_ROLE",
      "outputs": [
        {
          "internalType": "bytes32",
          "name": "",
          "type": "bytes32"
        }
      ],
      "stateMutability": "view",
      "type": "function"
    },
    {
      "inputs": [],
      "name": "DEFAULT_ADMIN_ROLE",
      "outputs": [
        {
          "internalType": "bytes32",
          "name": "",
          "type": "bytes32"
        }
      ],
      "stateMutability": "view",
      "type": "function"
    },
    {
      "inputs": [],
      "name": "MINTER_ROLE",
      "outputs": [
        {
          "internalType": "bytes32",
          "name": "",
          "type": "bytes32"
        }
      ],
      "stateMutability": "view",
      "type": "function"
    },
    {
      "inputs": [
        {
          "internalType": "address",
          "name": "_address",
          "type": "address"
        }
      ],
      "name": "addBlacklist",
      "outputs": [],
      "stateMutability": "nonpayable",
      "type": "function"
    },
    {
      "inputs": [
        {
          "internalType": "address",
          "name": "to",
          "type": "address"
        },
        {
          "internalType": "uint256",
          "name": "tokenId",
          "type": "uint256"
        }
      ],
      "name": "approve",
      "outputs": [],
      "stateMutability": "nonpayable",
      "type": "function"
    },
    {
      "inputs": [
        {
          "internalType": "address",
          "name": "owner",
          "type": "address"
        }
      ],
      "name": "balanceOf",
      "outputs": [
        {
          "internalType": "uint256",
          "name": "",
          "type": "uint256"
        }
      ],
      "stateMutability": "view",
      "type": "function"
    },
    {
      "inputs": [
        {
          "internalType": "uint256[]",
          "name": "tokenIds",
          "type": "uint256[]"
        }
      ],
      "name": "batchTokenURI",
      "outputs": [
        {
          "internalType": "string[]",
          "name": "",
          "type": "string[]"
        }
      ],
      "stateMutability": "view",
      "type": "function"
    },
    {
      "inputs": [
        {
          "internalType": "address",
          "name": "from",
          "type": "address"
        },
        {
          "internalType": "address",
          "name": "to",
          "type": "address"
        },
        {
          "internalType": "uint256[]",
          "name": "tokenIds",
          "type": "uint256[]"
        }
      ],
      "name": "batchTransferFrom",
      "outputs": [],
      "stateMutability": "nonpayable",
      "type": "function"
    },
    {
      "inputs": [],
      "name": "cap",
      "outputs": [
        {
          "internalType": "uint256",
          "name": "",
          "type": "uint256"
        }
      ],
      "stateMutability": "view",
      "type": "function"
    },
    {
      "inputs": [
        {
          "internalType": "uint256[]",
          "name": "tokenIds",
          "type": "uint256[]"
        }
      ],
      "name": "checkTreated",
      "outputs": [
        {
          "internalType": "bool[]",
          "name": "",
          "type": "bool[]"
        }
      ],
      "stateMutability": "view",
      "type": "function"
    },
    {
      "inputs": [],
      "name": "getAllTokenIds",
      "outputs": [
        {
          "internalType": "uint256[]",
          "name": "",
          "type": "uint256[]"
        }
      ],
      "stateMutability": "view",
      "type": "function"
    },
    {
      "inputs": [
        {
          "internalType": "uint256",
          "name": "tokenId",
          "type": "uint256"
        }
      ],
      "name": "getApproved",
      "outputs": [
        {
          "internalType": "address",
          "name": "",
          "type": "address"
        }
      ],
      "stateMutability": "view",
      "type": "function"
    },
    {
      "inputs": [],
      "name": "getMintCounts",
      "outputs": [
        {
          "internalType": "uint256",
          "name": "unlocked",
          "type": "uint256"
        },
        {
          "internalType": "uint256",
          "name": "locked",
          "type": "uint256"
        },
        {
          "internalType": "uint256",
          "name": "treated",
          "type": "uint256"
        }
      ],
      "stateMutability": "view",
      "type": "function"
    },
    {
      "inputs": [],
      "name": "getMintPrices",
      "outputs": [
        {
          "internalType": "uint256",
          "name": "unlocked",
          "type": "uint256"
        },
        {
          "internalType": "uint256",
          "name": "locked",
          "type": "uint256"
        },
        {
          "internalType": "uint256",
          "name": "treated",
          "type": "uint256"
        }
      ],
      "stateMutability": "view",
      "type": "function"
    },
    {
      "inputs": [],
      "name": "getMintValues",
      "outputs": [
        {
          "internalType": "uint256",
          "name": "unlocked",
          "type": "uint256"
        },
        {
          "internalType": "uint256",
          "name": "locked",
          "type": "uint256"
        },
        {
          "internalType": "uint256",
          "name": "treated",
          "type": "uint256"
        }
      ],
      "stateMutability": "view",
      "type": "function"
    },
    {
      "inputs": [
        {
          "internalType": "bytes32",
          "name": "role",
          "type": "bytes32"
        }
      ],
      "name": "getRoleAdmin",
      "outputs": [
        {
          "internalType": "bytes32",
          "name": "",
          "type": "bytes32"
        }
      ],
      "stateMutability": "view",
      "type": "function"
    },
    {
      "inputs": [
        {
          "internalType": "bytes32",
          "name": "role",
          "type": "bytes32"
        },
        {
          "internalType": "uint256",
          "name": "index",
          "type": "uint256"
        }
      ],
      "name": "getRoleMember",
      "outputs": [
        {
          "internalType": "address",
          "name": "",
          "type": "address"
        }
      ],
      "stateMutability": "view",
      "type": "function"
    },
    {
      "inputs": [
        {
          "internalType": "bytes32",
          "name": "role",
          "type": "bytes32"
        }
      ],
      "name": "getRoleMemberCount",
      "outputs": [
        {
          "internalType": "uint256",
          "name": "",
          "type": "uint256"
        }
      ],
      "stateMutability": "view",
      "type": "function"
    },
    {
      "inputs": [
        {
          "internalType": "bytes32",
          "name": "role",
          "type": "bytes32"
        },
        {
          "internalType": "address",
          "name": "account",
          "type": "address"
        }
      ],
      "name": "grantRole",
      "outputs": [],
      "stateMutability": "nonpayable",
      "type": "function"
    },
    {
      "inputs": [
        {
          "internalType": "bytes32",
          "name": "role",
          "type": "bytes32"
        },
        {
          "internalType": "address",
          "name": "account",
          "type": "address"
        }
      ],
      "name": "hasRole",
      "outputs": [
        {
          "internalType": "bool",
          "name": "",
          "type": "bool"
        }
      ],
      "stateMutability": "view",
      "type": "function"
    },
    {
      "inputs": [
        {
          "internalType": "address",
          "name": "spender",
          "type": "address"
        },
        {
          "internalType": "uint256[]",
          "name": "tokenIds",
          "type": "uint256[]"
        }
      ],
      "name": "hatch",
      "outputs": [],
      "stateMutability": "nonpayable",
      "type": "function"
    },
    {
      "inputs": [],
      "name": "imageBaseURI",
      "outputs": [
        {
          "internalType": "string",
          "name": "",
          "type": "string"
        }
      ],
      "stateMutability": "view",
      "type": "function"
    },
    {
      "inputs": [],
      "name": "initialize",
      "outputs": [],
      "stateMutability": "nonpayable",
      "type": "function"
    },
    {
      "inputs": [
        {
          "internalType": "address",
          "name": "owner",
          "type": "address"
        },
        {
          "internalType": "address",
          "name": "operator",
          "type": "address"
        }
      ],
      "name": "isApprovedForAll",
      "outputs": [
        {
          "internalType": "bool",
          "name": "",
          "type": "bool"
        }
      ],
      "stateMutability": "view",
      "type": "function"
    },
    {
      "inputs": [],
      "name": "lastMinted",
      "outputs": [
        {
          "internalType": "uint256",
          "name": "",
          "type": "uint256"
        }
      ],
      "stateMutability": "view",
      "type": "function"
    },
    {
      "inputs": [
        {
          "internalType": "address",
          "name": "",
          "type": "address"
        }
      ],
      "name": "lockedMintsRemaining",
      "outputs": [
        {
          "internalType": "uint256",
          "name": "",
          "type": "uint256"
        }
      ],
      "stateMutability": "view",
      "type": "function"
    },
    {
      "inputs": [],
      "name": "mint",
      "outputs": [],
      "stateMutability": "nonpayable",
      "type": "function"
    },
    {
      "inputs": [],
      "name": "mintLocked",
      "outputs": [],
      "stateMutability": "nonpayable",
      "type": "function"
    },
    {
      "inputs": [],
      "name": "name",
      "outputs": [
        {
          "internalType": "string",
          "name": "",
          "type": "string"
        }
      ],
      "stateMutability": "view",
      "type": "function"
    },
    {
      "inputs": [
        {
          "internalType": "uint256",
          "name": "tokenId",
          "type": "uint256"
        }
      ],
      "name": "ownerOf",
      "outputs": [
        {
          "internalType": "address",
          "name": "",
          "type": "address"
        }
      ],
      "stateMutability": "view",
      "type": "function"
    },
    {
      "inputs": [],
      "name": "pause",
      "outputs": [],
      "stateMutability": "nonpayable",
      "type": "function"
    },
    {
      "inputs": [],
      "name": "paused",
      "outputs": [
        {
          "internalType": "bool",
          "name": "",
          "type": "bool"
        }
      ],
      "stateMutability": "view",
      "type": "function"
    },
    {
      "inputs": [
        {
          "internalType": "address",
          "name": "_address",
          "type": "address"
        }
      ],
      "name": "removeBlacklist",
      "outputs": [],
      "stateMutability": "nonpayable",
      "type": "function"
    },
    {
      "inputs": [
        {
          "internalType": "bytes32",
          "name": "role",
          "type": "bytes32"
        },
        {
          "internalType": "address",
          "name": "account",
          "type": "address"
        }
      ],
      "name": "renounceRole",
      "outputs": [],
      "stateMutability": "nonpayable",
      "type": "function"
    },
    {
      "inputs": [
        {
          "internalType": "bytes32",
          "name": "role",
          "type": "bytes32"
        },
        {
          "internalType": "address",
          "name": "account",
          "type": "address"
        }
      ],
      "name": "revokeRole",
      "outputs": [],
      "stateMutability": "nonpayable",
      "type": "function"
    },
    {
      "inputs": [
        {
          "internalType": "address",
          "name": "from",
          "type": "address"
        },
        {
          "internalType": "address",
          "name": "to",
          "type": "address"
        },
        {
          "internalType": "uint256",
          "name": "tokenId",
          "type": "uint256"
        }
      ],
      "name": "safeTransferFrom",
      "outputs": [],
      "stateMutability": "nonpayable",
      "type": "function"
    },
    {
      "inputs": [
        {
          "internalType": "address",
          "name": "from",
          "type": "address"
        },
        {
          "internalType": "address",
          "name": "to",
          "type": "address"
        },
        {
          "internalType": "uint256",
          "name": "tokenId",
          "type": "uint256"
        },
        {
          "internalType": "bytes",
          "name": "data",
          "type": "bytes"
        }
      ],
      "name": "safeTransferFrom",
      "outputs": [],
      "stateMutability": "nonpayable",
      "type": "function"
    },
    {
      "inputs": [
        {
          "internalType": "address",
          "name": "operator",
          "type": "address"
        },
        {
          "internalType": "bool",
          "name": "approved",
          "type": "bool"
        }
      ],
      "name": "setApprovalForAll",
      "outputs": [],
      "stateMutability": "nonpayable",
      "type": "function"
    },
    {
      "inputs": [
        {
          "internalType": "uint256",
          "name": "_cap",
          "type": "uint256"
        }
      ],
      "name": "setCap",
      "outputs": [],
      "stateMutability": "nonpayable",
      "type": "function"
    },
    {
      "inputs": [
        {
          "internalType": "string",
          "name": "imageBaseUri",
          "type": "string"
        }
      ],
      "name": "setImageBaseUri",
      "outputs": [],
      "stateMutability": "nonpayable",
      "type": "function"
    },
    {
      "inputs": [
        {
          "internalType": "uint256",
          "name": "dollarOfEvo",
          "type": "uint256"
        }
      ],
      "name": "setPrices",
      "outputs": [],
      "stateMutability": "nonpayable",
      "type": "function"
    },
    {
      "inputs": [
        {
          "internalType": "uint256",
          "name": "time",
          "type": "uint256"
        }
      ],
      "name": "setStartTime",
      "outputs": [],
      "stateMutability": "nonpayable",
      "type": "function"
    },
    {
      "inputs": [
        {
          "internalType": "bytes4",
          "name": "interfaceId",
          "type": "bytes4"
        }
      ],
      "name": "supportsInterface",
      "outputs": [
        {
          "internalType": "bool",
          "name": "",
          "type": "bool"
        }
      ],
      "stateMutability": "view",
      "type": "function"
    },
    {
      "inputs": [],
      "name": "symbol",
      "outputs": [
        {
          "internalType": "string",
          "name": "",
          "type": "string"
        }
      ],
      "stateMutability": "view",
      "type": "function"
    },
    {
      "inputs": [
        {
          "internalType": "uint256",
          "name": "index",
          "type": "uint256"
        }
      ],
      "name": "tokenByIndex",
      "outputs": [
        {
          "internalType": "uint256",
          "name": "",
          "type": "uint256"
        }
      ],
      "stateMutability": "view",
      "type": "function"
    },
    {
      "inputs": [
        {
          "internalType": "address",
          "name": "owner",
          "type": "address"
        },
        {
          "internalType": "uint256",
          "name": "index",
          "type": "uint256"
        }
      ],
      "name": "tokenOfOwnerByIndex",
      "outputs": [
        {
          "internalType": "uint256",
          "name": "",
          "type": "uint256"
        }
      ],
      "stateMutability": "view",
      "type": "function"
    },
    {
      "inputs": [
        {
          "internalType": "uint256",
          "name": "tokenId",
          "type": "uint256"
        }
      ],
      "name": "tokenURI",
      "outputs": [
        {
          "internalType": "string",
          "name": "",
          "type": "string"
        }
      ],
      "stateMutability": "view",
      "type": "function"
    },
    {
      "inputs": [
        {
          "internalType": "address",
          "name": "owner",
          "type": "address"
        }
      ],
      "name": "tokensOfOwner",
      "outputs": [
        {
          "internalType": "uint256[]",
          "name": "",
          "type": "uint256[]"
        }
      ],
      "stateMutability": "view",
      "type": "function"
    },
    {
      "inputs": [],
      "name": "totalSupply",
      "outputs": [
        {
          "internalType": "uint256",
          "name": "",
          "type": "uint256"
        }
      ],
      "stateMutability": "view",
      "type": "function"
    },
    {
      "inputs": [
        {
          "internalType": "address",
          "name": "from",
          "type": "address"
        },
        {
          "internalType": "address",
          "name": "to",
          "type": "address"
        },
        {
          "internalType": "uint256",
          "name": "tokenId",
          "type": "uint256"
        }
      ],
      "name": "transferFrom",
      "outputs": [],
      "stateMutability": "nonpayable",
      "type": "function"
    },
    {
      "inputs": [
        {
          "internalType": "address",
          "name": "from",
          "type": "address"
        },
        {
          "internalType": "address",
          "name": "to",
          "type": "address"
        },
        {
          "internalType": "uint256",
          "name": "tokenId",
          "type": "uint256"
        }
      ],
      "name": "transferTeamEgg",
      "outputs": [],
      "stateMutability": "nonpayable",
      "type": "function"
    },
    {
      "inputs": [
        {
          "internalType": "address",
          "name": "from",
          "type": "address"
        },
        {
          "internalType": "address",
          "name": "to",
          "type": "address"
        },
        {
          "internalType": "uint256[]",
          "name": "tokenIds",
          "type": "uint256[]"
        }
      ],
      "name": "transferTeamEggs",
      "outputs": [],
      "stateMutability": "nonpayable",
      "type": "function"
    },
    {
      "inputs": [
        {
          "internalType": "uint256",
          "name": "tokenId",
          "type": "uint256"
        }
      ],
      "name": "treat",
      "outputs": [],
      "stateMutability": "nonpayable",
      "type": "function"
    },
    {
      "inputs": [],
      "name": "unpause",
      "outputs": [],
      "stateMutability": "nonpayable",
      "type": "function"
    },
    {
      "inputs": [
        {
          "internalType": "uint256[]",
          "name": "tokenIds",
          "type": "uint256[]"
        }
      ],
      "name": "updateAttribute",
      "outputs": [],
      "stateMutability": "nonpayable",
      "type": "function"
    }
  ],
  "bytecode": "0x60806040523480156200001157600080fd5b506200001c62000022565b620000e4565b600054610100900460ff16156200008f5760405162461bcd60e51b815260206004820152602760248201527f496e697469616c697a61626c653a20636f6e747261637420697320696e697469604482015266616c697a696e6760c81b606482015260840160405180910390fd5b60005460ff9081161015620000e2576000805460ff191660ff9081179091556040519081527f7f26b83ff96e1f2b6a682f133852f6798a09c465da95921460cefb38474024989060200160405180910390a15b565b61439280620000f46000396000f3fe608060405234801561001057600080fd5b506004361061035d5760003560e01c806375b238fc116101d3578063a3201daa11610104578063d5391393116100a2578063df3c3a301161007c578063df3c3a301461074b578063e985e9c514610753578063eb91e6511461078f578063f3993d11146107a257600080fd5b8063d539139314610700578063d547741f14610727578063db00fb201461073a57600080fd5b8063bdbed722116100de578063bdbed722146106ca578063c0687f0d146106d2578063c87b56dd146106da578063ca15c873146106ed57600080fd5b8063a3201daa1461069c578063b88d4fde146106af578063bbc19ab0146106c257600080fd5b806391d14854116101715780639cfe42da1161014b5780639cfe42da1461065b5780639f83bcb21461066e578063a217fddf14610681578063a22cb4651461068957600080fd5b806391d148541461062057806395d89b411461063357806396908f511461063b57600080fd5b80638129fc1c116101ad5780638129fc1c146105dd5780638456cb59146105e55780638462151c146105ed5780639010d07c1461060d57600080fd5b806375b238fc1461059f57806377645839146105b45780637b092b6b146105bc57600080fd5b8063356f2b53116102ad5780634e2ff8181161024b5780636352211e116102255780636352211e146105315780636d94f13a146105445780636f35f57c1461056457806370a082311461058c57600080fd5b80634e2ff818146105005780634f6ccce7146105135780635c975abb1461052657600080fd5b80633e0a322d116102875780633e0a322d146104bf5780633f4ba83a146104d257806342842e0e146104da57806347786d37146104ed57600080fd5b8063356f2b531461048657806336568abe1461049957806339b92bbb146104ac57600080fd5b80631249c58b1161031a578063248a9ca3116102f4578063248a9ca3146104325780632f2ff15d146104565780632f745c5914610469578063355274ea1461047c57600080fd5b80631249c58b1461040557806318160ddd1461040d57806323b872dd1461041f57600080fd5b806301ffc9a71461036257806302b3b3681461038a57806306fdde031461039f578063081812fc146103b4578063095ea7b3146103df5780630b6539e7146103f2575b600080fd5b610375610370366004613680565b6107b5565b60405190151581526020015b60405180910390f35b61039d61039836600461369d565b6107c6565b005b6103a761099b565b604051610381919061370e565b6103c76103c236600461369d565b610a2d565b6040516001600160a01b039091168152602001610381565b61039d6103ed36600461373d565b610a54565b61039d61040036600461382c565b610b6a565b61039d610c41565b6099545b604051908152602001610381565b61039d61042d366004613879565b610d7d565b61041161044036600461369d565b600090815261012d602052604090206001015490565b61039d6104643660046138b5565b610dae565b61041161047736600461373d565b610dd4565b61041161022b5481565b61039d610494366004613879565b610e6a565b61039d6104a73660046138b5565b610e9b565b61039d6104ba366004613938565b610f19565b61039d6104cd36600461369d565b610f45565b61039d610f64565b61039d6104e8366004613879565b610f87565b61039d6104fb36600461369d565b610fa2565b61039d61050e366004613980565b610fc1565b61041161052136600461369d565b611049565b60fb5460ff16610375565b6103c761053f36600461369d565b6110dc565b6105576105523660046139dd565b61113c565b6040516103819190613a11565b6102305461023254610231545b60408051938452602084019290925290820152606001610381565b61041161059a366004613a73565b6111f4565b61041160008051602061433d83398151915281565b6103a761127a565b6104116105ca366004613a73565b6102376020526000908152604090205481565b61039d611309565b61039d61156c565b6106006105fb366004613a73565b61158c565b6040516103819190613a8e565b6103c761061b366004613ad2565b61162d565b61037561062e3660046138b5565b61164d565b6103a7611679565b61064e6106493660046139dd565b611688565b6040516103819190613af4565b61039d610669366004613a73565b61174c565b61039d61067c3660046139dd565b611770565b610411600081565b61039d610697366004613b3c565b61188b565b61039d6106aa36600461369d565b611896565b61039d6106bd366004613b73565b6118e0565b610411611912565b61060061192f565b610571611a37565b6103a76106e836600461369d565b611a65565b6104116106fb36600461369d565b611c7c565b6104117f9f2df0fed2c77648de5860a4cc508cd0818c85b8b8a1ab4ceeef8d981c8956a681565b61039d6107353660046138b5565b611c94565b61022d5461022e5461022f54610571565b61039d611cba565b610375610761366004613bee565b6001600160a01b039182166000908152606a6020908152604080832093909416825291909152205460ff1690565b61039d61079d366004613a73565b611e3c565b61039d6107b0366004613980565b611e60565b60006107c082611ea2565b92915050565b60008051602061433d8339815191526107de81611ead565b336107e8836110dc565b6001600160a01b03161461082f5760405162461bcd60e51b81526020600482015260096024820152682737ba1037bbb732b960b91b60448201526064015b60405180910390fd5b6000828152610238602052604090205460ff16156108865760405162461bcd60e51b815260206004820152601460248201527345676720616c726561647920747265617465642160601b6044820152606401610826565b610228546001600160a01b03166323b872dd3361022a5461022f5460405160e085901b6001600160e01b03191681526001600160a01b0393841660048201529290911660248301526044820152606401602060405180830381600087803b1580156108f057600080fd5b505af1158015610904573d6000803e3d6000fd5b505050506040513d601f19601f820116820180604052508101906109289190613c18565b50600082815261023860205260408120805460ff1916600117905561022f5461023180549192909161095b908490613c4b565b909155505061023580546001019055604051829033907f2b46c803cd96db888f07882ad77808b66dada9f88a734eed1db5d86fbb97ce6d90600090a35050565b6060606580546109aa90613c63565b80601f01602080910402602001604051908101604052809291908181526020018280546109d690613c63565b8015610a235780601f106109f857610100808354040283529160200191610a23565b820191906000526020600020905b815481529060010190602001808311610a0657829003601f168201915b5050505050905090565b6000610a3882611eb7565b506000908152606960205260409020546001600160a01b031690565b6000610a5f826110dc565b9050806001600160a01b0316836001600160a01b03161415610acd5760405162461bcd60e51b815260206004820152602160248201527f4552433732313a20617070726f76616c20746f2063757272656e74206f776e656044820152603960f91b6064820152608401610826565b336001600160a01b0382161480610ae95750610ae98133610761565b610b5b5760405162461bcd60e51b815260206004820152603e60248201527f4552433732313a20617070726f76652063616c6c6572206973206e6f7420746f60448201527f6b656e206f776e6572206e6f7220617070726f76656420666f7220616c6c00006064820152608401610826565b610b658383611f16565b505050565b7f9f2df0fed2c77648de5860a4cc508cd0818c85b8b8a1ab4ceeef8d981c8956a6610b9481611ead565b60005b8251811015610c3b57610bc384848381518110610bb657610bb6613c9e565b6020026020010151611f84565b610c075760405162461bcd60e51b81526020600482015260156024820152742737ba1030b8383937bb32b21037b91037bbb732b960591b6044820152606401610826565b610c29838281518110610c1c57610c1c613c9e565b6020026020010151612003565b80610c3381613cb4565b915050610b97565b50505050565b60026101f5541415610c955760405162461bcd60e51b815260206004820152601f60248201527f5265656e7472616e637947756172643a207265656e7472616e742063616c6c006044820152606401610826565b60026101f555610ca36120aa565b610228546001600160a01b03166323b872dd3361022a5461022d5460405160e085901b6001600160e01b03191681526001600160a01b0393841660048201529290911660248301526044820152606401602060405180830381600087803b158015610d0d57600080fd5b505af1158015610d21573d6000803e3d6000fd5b505050506040513d601f19601f82011682018060405250810190610d459190613c18565b5061022d546102306000828254610d5c9190613c4b565b9091555050610233805460010190555b610d75336120f2565b60016101f555565b610d873382611f84565b610da35760405162461bcd60e51b815260040161082690613ccf565b610b658383836121aa565b600082815261012d6020526040902060010154610dca81611ead565b610b658383612351565b6000610ddf836111f4565b8210610e415760405162461bcd60e51b815260206004820152602b60248201527f455243373231456e756d657261626c653a206f776e657220696e646578206f7560448201526a74206f6620626f756e647360a81b6064820152608401610826565b506001600160a01b03919091166000908152609760209081526040808320938352929052205490565b60008051602061433d833981519152610e8281611ead565b6032821115610e9057600080fd5b610c3b8484846121aa565b6001600160a01b0381163314610f0b5760405162461bcd60e51b815260206004820152602f60248201527f416363657373436f6e74726f6c3a2063616e206f6e6c792072656e6f756e636560448201526e103937b632b9903337b91039b2b63360891b6064820152608401610826565b610f158282612374565b5050565b60008051602061433d833981519152610f3181611ead565b8151610b65906102369060208501906135d1565b60008051602061433d833981519152610f5d81611ead565b5061022c55565b60008051602061433d833981519152610f7c81611ead565b610f84612397565b50565b610b65838383604051806020016040528060008152506118e0565b60008051602061433d833981519152610fba81611ead565b5061022b55565b60008051602061433d833981519152610fd981611ead565b60005b8251811015611042576032838281518110610ff957610ff9613c9e565b6020026020010151111561100c57600080fd5b611030858585848151811061102357611023613c9e565b60200260200101516121aa565b8061103a81613cb4565b915050610fdc565b5050505050565b600061105460995490565b82106110b75760405162461bcd60e51b815260206004820152602c60248201527f455243373231456e756d657261626c653a20676c6f62616c20696e646578206f60448201526b7574206f6620626f756e647360a01b6064820152608401610826565b609982815481106110ca576110ca613c9e565b90600052602060002001549050919050565b6000818152606760205260408120546001600160a01b0316806107c05760405162461bcd60e51b8152602060048201526018602482015277115490cdcc8c4e881a5b9d985b1a59081d1bdad95b88125160421b6044820152606401610826565b6060600082516001600160401b0381111561115957611159613767565b60405190808252806020026020018201604052801561118c57816020015b60608152602001906001900390816111775790505b50905060005b83518110156111ed576111bd8482815181106111b0576111b0613c9e565b6020026020010151611a65565b8282815181106111cf576111cf613c9e565b602002602001018190525080806111e590613cb4565b915050611192565b5092915050565b60006001600160a01b03821661125e5760405162461bcd60e51b815260206004820152602960248201527f4552433732313a2061646472657373207a65726f206973206e6f7420612076616044820152683634b21037bbb732b960b91b6064820152608401610826565b506001600160a01b031660009081526068602052604090205490565b610236805461128890613c63565b80601f01602080910402602001604051908101604052809291908181526020018280546112b490613c63565b80156113015780601f106112d657610100808354040283529160200191611301565b820191906000526020600020905b8154815290600101906020018083116112e457829003601f168201915b505050505081565b600054610100900460ff16158080156113295750600054600160ff909116105b806113435750303b158015611343575060005460ff166001145b6113a65760405162461bcd60e51b815260206004820152602e60248201527f496e697469616c697a61626c653a20636f6e747261637420697320616c72656160448201526d191e481a5b9a5d1a585b1a5e995960921b6064820152608401610826565b6000805460ff1916600117905580156113c9576000805461ff0019166101001790555b6114196040518060400160405280600c81526020016b045766f204567672047656e360a41b8152506040518060400160405280600a815260200169045564f45474747454e360b41b8152506123e9565b61142161241a565b611429612449565b611431612478565b6114396124a7565b6114416124ce565b61144c600033612351565b61146460008051602061433d83398151915233612351565b61148e7f9f2df0fed2c77648de5860a4cc508cd0818c85b8b8a1ab4ceeef8d981c8956a633612351565b61022a80546001600160a01b03199081167339af60141b91f7941eb13aeda2124a61a953b7c017909155610228805482167342006ab57701251b580bdfc24778c43c9ff589a11790556102298054909116737b5501109c2605834f7a4153a75850db7521c37e179055610bea61022b556362c870a061022c556115116102275490565b6115245761152461022780546001019055565b8015610f84576000805461ff0019169055604051600181527f7f26b83ff96e1f2b6a682f133852f6798a09c465da95921460cefb38474024989060200160405180910390a150565b60008051602061433d83398151915261158481611ead565b610f846124fd565b60606000611599836111f4565b90506000816001600160401b038111156115b5576115b5613767565b6040519080825280602002602001820160405280156115de578160200160208202803683370190505b50905060005b82811015611625576115f68582610dd4565b82828151811061160857611608613c9e565b60209081029190910101528061161d81613cb4565b9150506115e4565b509392505050565b600082815261015f60205260408120611646908361253a565b9392505050565b600091825261012d602090815260408084206001600160a01b0393909316845291905290205460ff1690565b6060606680546109aa90613c63565b6060600082516001600160401b038111156116a5576116a5613767565b6040519080825280602002602001820160405280156116ce578160200160208202803683370190505b50905060005b83518110156111ed5761023860008583815181106116f4576116f4613c9e565b6020026020010151815260200190815260200160002060009054906101000a900460ff1682828151811061172a5761172a613c9e565b911515602092830291909101909101528061174481613cb4565b9150506116d4565b60008051602061433d83398151915261176481611ead565b610b656101c283612546565b60008051602061433d83398151915261178881611ead565b60005b8251811015610b655761023860008483815181106117ab576117ab613c9e565b60209081029190910181015182528101919091526040016000205460ff1661187957600161023860008584815181106117e6576117e6613c9e565b6020026020010151815260200190815260200160002060006101000a81548160ff02191690831515021790555061182261023580546001019055565b82818151811061183457611834613c9e565b60200260200101516118433390565b6001600160a01b03167f2b46c803cd96db888f07882ad77808b66dada9f88a734eed1db5d86fbb97ce6d60405160405180910390a35b8061188381613cb4565b91505061178b565b610f1533838361255b565b60008051602061433d8339815191526118ae81611ead565b6118b98260c8613d1d565b61022d556118c982610320613d1d565b61022e556118d882600a613d1d565b61022f555050565b6118ea3383611f84565b6119065760405162461bcd60e51b815260040161082690613ccf565b610c3b8484848461262a565b600060016119206102275490565b61192a9190613d3c565b905090565b6060600060015b61271081101561197d576000818152606760205260409020546001600160a01b03161561196b578161196781613cb4565b9250505b8061197581613cb4565b915050611936565b506000816001600160401b0381111561199857611998613767565b6040519080825280602002602001820160405280156119c1578160200160208202803683370190505b509050600060015b612710811015611a2e576000818152606760205260409020546001600160a01b031615611a1c5780838381518110611a0357611a03613c9e565b602090810291909101015281611a1881613cb4565b9250505b80611a2681613cb4565b9150506119c9565b50909392505050565b6000806000611a466102335490565b9250611a526102345490565b9150611a5e6102355490565b9050909192565b60606000610236611a7f611a7a600486613d69565b61265d565b604051602001611a90929190613e33565b60408051601f1981840301815291905290506000610236611ab5611a7a600487613d69565b604051602001611ac6929190613e67565b60405160208183030381529060405290506000611af3611ae5866110dc565b6001600160a01b031661275a565b90506000611b008661265d565b848484604051602001611b169493929190613e9c565b604051602081830303815290604052905060006032871115611b475760405180602001604052806000815250611b74565b604051806040016040528060138152602001721ec89d985b1d59488e88089cdd185999889f4b606a1b8152505b604051602001611b849190613fee565b60408051601f198184030181529181526000898152610238602052908120549192509060ff16611bc35760405180602001604052806000815250611bf7565b604051741ec89d985b1d59488e88089d1c99585d1959089f4b605a1b60208201526035016040516020818303038152906040525b905060008282604051602001611c0e92919061400a565b604051602081830303815290604052905060008482604051602001611c349291906140bd565b6040516020818303038152906040529050611c4e81612770565b604051602001611c5e919061410a565b60405160208183030381529060405298505050505050505050919050565b600081815261015f602052604081206107c0906128c3565b600082815261012d6020526040902060010154611cb081611ead565b610b658383612374565b60026101f5541415611d0e5760405162461bcd60e51b815260206004820152601f60248201527f5265656e7472616e637947756172643a207265656e7472616e742063616c6c006044820152606401610826565b60026101f555611d1c6120aa565b3360009081526102376020526040902054600211611d7c5760405162461bcd60e51b815260206004820152601960248201527f4e6f206c6f636b6564206d696e74732072656d61696e696e67000000000000006044820152606401610826565b33600090815261023760205260408120805491611d9883613cb4565b9091555050610229546001600160a01b031663c06bab2b3361022e546040516001600160e01b031960e085901b1681526001600160a01b0390921660048301526024820152604401600060405180830381600087803b158015611dfa57600080fd5b505af1158015611e0e573d6000803e3d6000fd5b5050505061022e546102326000828254611e289190613c4b565b909155505061023480546001019055610d6c565b60008051602061433d833981519152611e5481611ead565b610b656101c2836128cd565b60005b8151811015610c3b57611e908484848481518110611e8357611e83613c9e565b6020026020010151610d7d565b80611e9a81613cb4565b915050611e63565b60006107c0826128e2565b610f848133612907565b6000818152606760205260409020546001600160a01b0316610f845760405162461bcd60e51b8152602060048201526018602482015277115490cdcc8c4e881a5b9d985b1a59081d1bdad95b88125160421b6044820152606401610826565b600081815260696020526040902080546001600160a01b0319166001600160a01b0384169081179091558190611f4b826110dc565b6001600160a01b03167f8c5be1e5ebec7d5bd14f71427d1e84f3dd0314c0f7b2291e5b200ac8c7c3b92560405160405180910390a45050565b600080611f90836110dc565b9050806001600160a01b0316846001600160a01b03161480611fd757506001600160a01b038082166000908152606a602090815260408083209388168352929052205460ff165b80611ffb5750836001600160a01b0316611ff084610a2d565b6001600160a01b0316145b949350505050565b600061200e826110dc565b905061201c8160008461296b565b612027600083611f16565b6001600160a01b0381166000908152606860205260408120805460019290612050908490613d3c565b909155505060008281526067602052604080822080546001600160a01b0319169055518391906001600160a01b038416907fddf252ad1be2c89b69c2b068fc378daa952ba7f163c4a11628f55a4df523b3ef908390a45050565b60fb5460ff16156120f05760405162461bcd60e51b815260206004820152601060248201526f14185d5cd8589b194e881c185d5cd95960821b6044820152606401610826565b565b60006120fe6102275490565b90504261022c5411156121535760405162461bcd60e51b815260206004820152601860248201527f4d696e7420686173206e6f7420737461727465642079657400000000000000006044820152606401610826565b61022b548111156121915760405162461bcd60e51b815260206004820152600860248201526714dbdb19081bdd5d60c21b6044820152606401610826565b6121a061022780546001019055565b610f158282612a7d565b826001600160a01b03166121bd826110dc565b6001600160a01b0316146122215760405162461bcd60e51b815260206004820152602560248201527f4552433732313a207472616e736665722066726f6d20696e636f72726563742060448201526437bbb732b960d91b6064820152608401610826565b6001600160a01b0382166122835760405162461bcd60e51b8152602060048201526024808201527f4552433732313a207472616e7366657220746f20746865207a65726f206164646044820152637265737360e01b6064820152608401610826565b61228e83838361296b565b612299600082611f16565b6001600160a01b03831660009081526068602052604081208054600192906122c2908490613d3c565b90915550506001600160a01b03821660009081526068602052604081208054600192906122f0908490613c4b565b909155505060008181526067602052604080822080546001600160a01b0319166001600160a01b0386811691821790925591518493918716917fddf252ad1be2c89b69c2b068fc378daa952ba7f163c4a11628f55a4df523b3ef91a4505050565b61235b8282612a97565b600082815261015f60205260409020610b659082612546565b61237e8282612b1e565b600082815261015f60205260409020610b6590826128cd565b61239f612b86565b60fb805460ff191690557f5db9ee0a495bf2e6ff9c91a7834c1ba4fdd244a5e8aa4e537bd38aeae4b073aa335b6040516001600160a01b03909116815260200160405180910390a1565b600054610100900460ff166124105760405162461bcd60e51b81526004016108269061414f565b610f158282612bcf565b600054610100900460ff166124415760405162461bcd60e51b81526004016108269061414f565b6120f06124a7565b600054610100900460ff166124705760405162461bcd60e51b81526004016108269061414f565b6124416124a7565b600054610100900460ff1661249f5760405162461bcd60e51b81526004016108269061414f565b6120f0612c1d565b600054610100900460ff166120f05760405162461bcd60e51b81526004016108269061414f565b600054610100900460ff166124f55760405162461bcd60e51b81526004016108269061414f565b6120f0612c50565b6125056120aa565b60fb805460ff191660011790557f62e78cea01bee320cd4e420270b5ea74000d11b0c9f74754ebdbfc544b05a2586123cc3390565b60006116468383612c77565b6000611646836001600160a01b038416612ca1565b816001600160a01b0316836001600160a01b031614156125bd5760405162461bcd60e51b815260206004820152601960248201527f4552433732313a20617070726f766520746f2063616c6c6572000000000000006044820152606401610826565b6001600160a01b038381166000818152606a6020908152604080832094871680845294825291829020805460ff191686151590811790915591519182527f17307eab39ab6107e8899845ad3d59bd9653f200f220920489ca2b5937696c31910160405180910390a3505050565b6126358484846121aa565b61264184848484612cf0565b610c3b5760405162461bcd60e51b81526004016108269061419a565b6060816126815750506040805180820190915260018152600360fc1b602082015290565b8160005b81156126ab578061269581613cb4565b91506126a49050600a836141ec565b9150612685565b6000816001600160401b038111156126c5576126c5613767565b6040519080825280601f01601f1916602001820160405280156126ef576020820181803683370190505b5090505b8415611ffb57612704600183613d3c565b9150612711600a86613d69565b61271c906030613c4b565b60f81b81838151811061273157612731613c9e565b60200101906001600160f81b031916908160001a905350612753600a866141ec565b94506126f3565b60606107c06001600160a01b0383166014612dfd565b606081516000141561279057505060408051602081019091526000815290565b60006040518060600160405280604081526020016142fd60409139905060006003845160026127bf9190613c4b565b6127c991906141ec565b6127d4906004613d1d565b6001600160401b038111156127eb576127eb613767565b6040519080825280601f01601f191660200182016040528015612815576020820181803683370190505b509050600182016020820185865187015b80821015612881576003820191508151603f8160121c168501518453600184019350603f81600c1c168501518453600184019350603f8160061c168501518453600184019350603f8116850151845350600183019250612826565b505060038651066001811461289d57600281146128b0576128b8565b603d6001830353603d60028303536128b8565b603d60018303535b509195945050505050565b60006107c0825490565b6000611646836001600160a01b038416612f98565b60006001600160e01b03198216635a05180f60e01b14806107c057506107c08261308b565b612911828261164d565b610f1557612929816001600160a01b03166014612dfd565b612934836020612dfd565b604051602001612945929190614200565b60408051601f198184030181529082905262461bcd60e51b82526108269160040161370e565b6129736120aa565b828282732f52abfca2074b99759b58345bb984419d30424360328211806129a157506001600160a01b038416155b806129b357506001600160a01b038316155b806129cf5750806001600160a01b0316846001600160a01b0316145b806129eb5750806001600160a01b0316836001600160a01b0316145b80612a04575061022a546001600160a01b038581169116145b80612a1d575061022a546001600160a01b038481169116145b612a695760405162461bcd60e51b815260206004820152601e60248201527f5465616d204567677320617265206e6f6e2d7472616e7366657261626c6500006044820152606401610826565b612a748787876130b0565b50505050505050565b610f1582826040518060200160405280600081525061315b565b612aa1828261164d565b610f1557600082815261012d602090815260408083206001600160a01b03851684529091529020805460ff19166001179055612ada3390565b6001600160a01b0316816001600160a01b0316837f2f8788117e7eff1d82e926ec794901d17c78024a50270940304540a733656f0d60405160405180910390a45050565b612b28828261164d565b15610f1557600082815261012d602090815260408083206001600160a01b0385168085529252808320805460ff1916905551339285917ff6391f5c32d9c69d2a47ea670b442974b53935d1edc7fd64eb21e047a839171b9190a45050565b60fb5460ff166120f05760405162461bcd60e51b815260206004820152601460248201527314185d5cd8589b194e881b9bdd081c185d5cd95960621b6044820152606401610826565b600054610100900460ff16612bf65760405162461bcd60e51b81526004016108269061414f565b8151612c099060659060208501906135d1565b508051610b659060669060208401906135d1565b600054610100900460ff16612c445760405162461bcd60e51b81526004016108269061414f565b60fb805460ff19169055565b600054610100900460ff16610d755760405162461bcd60e51b81526004016108269061414f565b6000826000018281548110612c8e57612c8e613c9e565b9060005260206000200154905092915050565b6000818152600183016020526040812054612ce8575081546001818101845560008481526020808220909301849055845484825282860190935260409020919091556107c0565b5060006107c0565b60006001600160a01b0384163b15612df257604051630a85bd0160e11b81526001600160a01b0385169063150b7a0290612d34903390899088908890600401614275565b602060405180830381600087803b158015612d4e57600080fd5b505af1925050508015612d7e575060408051601f3d908101601f19168201909252612d7b918101906142b2565b60015b612dd8573d808015612dac576040519150601f19603f3d011682016040523d82523d6000602084013e612db1565b606091505b508051612dd05760405162461bcd60e51b81526004016108269061419a565b805181602001fd5b6001600160e01b031916630a85bd0160e11b149050611ffb565b506001949350505050565b60606000612e0c836002613d1d565b612e17906002613c4b565b6001600160401b03811115612e2e57612e2e613767565b6040519080825280601f01601f191660200182016040528015612e58576020820181803683370190505b509050600360fc1b81600081518110612e7357612e73613c9e565b60200101906001600160f81b031916908160001a905350600f60fb1b81600181518110612ea257612ea2613c9e565b60200101906001600160f81b031916908160001a9053506000612ec6846002613d1d565b612ed1906001613c4b565b90505b6001811115612f49576f181899199a1a9b1b9c1cb0b131b232b360811b85600f1660108110612f0557612f05613c9e565b1a60f81b828281518110612f1b57612f1b613c9e565b60200101906001600160f81b031916908160001a90535060049490941c93612f42816142cf565b9050612ed4565b5083156116465760405162461bcd60e51b815260206004820181905260248201527f537472696e67733a20686578206c656e67746820696e73756666696369656e746044820152606401610826565b60008181526001830160205260408120548015613081576000612fbc600183613d3c565b8554909150600090612fd090600190613d3c565b9050818114613035576000866000018281548110612ff057612ff0613c9e565b906000526020600020015490508087600001848154811061301357613013613c9e565b6000918252602080832090910192909255918252600188019052604090208390555b8554869080613046576130466142e6565b6001900381819060005260206000200160009055905585600101600086815260200190815260200160002060009055600193505050506107c0565b60009150506107c0565b60006001600160e01b03198216637965db0b60e01b14806107c057506107c08261318e565b826130bd6101c282613199565b156131005760405162461bcd60e51b8152602060048201526013602482015272426c61636b6c6973746564206164647265737360681b6044820152606401610826565b8261310d6101c282613199565b156131505760405162461bcd60e51b8152602060048201526013602482015272426c61636b6c6973746564206164647265737360681b6044820152606401610826565b6110428585856131bb565b61316583836131c6565b6131726000848484612cf0565b610b655760405162461bcd60e51b81526004016108269061419a565b60006107c082613314565b6001600160a01b03811660009081526001830160205260408120541515611646565b610b65838383613339565b6001600160a01b03821661321c5760405162461bcd60e51b815260206004820181905260248201527f4552433732313a206d696e7420746f20746865207a65726f20616464726573736044820152606401610826565b6000818152606760205260409020546001600160a01b0316156132815760405162461bcd60e51b815260206004820152601c60248201527f4552433732313a20746f6b656e20616c7265616479206d696e746564000000006044820152606401610826565b61328d6000838361296b565b6001600160a01b03821660009081526068602052604081208054600192906132b6908490613c4b565b909155505060008181526067602052604080822080546001600160a01b0319166001600160a01b03861690811790915590518392907fddf252ad1be2c89b69c2b068fc378daa952ba7f163c4a11628f55a4df523b3ef908290a45050565b60006001600160e01b0319821663780e9d6360e01b14806107c057506107c0826133f1565b6001600160a01b0383166133945761338f81609980546000838152609a60205260408120829055600182018355919091527f72a152ddfb8e864297c917af52ea6c1c68aead0fee1a62673fcc7e0c94979d000155565b6133b7565b816001600160a01b0316836001600160a01b0316146133b7576133b78382613441565b6001600160a01b0382166133ce57610b65816134de565b826001600160a01b0316826001600160a01b031614610b6557610b65828261358d565b60006001600160e01b031982166380ac58cd60e01b148061342257506001600160e01b03198216635b5e139f60e01b145b806107c057506301ffc9a760e01b6001600160e01b03198316146107c0565b6000600161344e846111f4565b6134589190613d3c565b6000838152609860205260409020549091508082146134ab576001600160a01b03841660009081526097602090815260408083208584528252808320548484528184208190558352609890915290208190555b5060009182526098602090815260408084208490556001600160a01b039094168352609781528383209183525290812055565b6099546000906134f090600190613d3c565b6000838152609a60205260408120546099805493945090928490811061351857613518613c9e565b90600052602060002001549050806099838154811061353957613539613c9e565b6000918252602080832090910192909255828152609a90915260408082208490558582528120556099805480613571576135716142e6565b6001900381819060005260206000200160009055905550505050565b6000613598836111f4565b6001600160a01b039093166000908152609760209081526040808320868452825280832085905593825260989052919091209190915550565b8280546135dd90613c63565b90600052602060002090601f0160209004810192826135ff5760008555613645565b82601f1061361857805160ff1916838001178555613645565b82800160010185558215613645579182015b8281111561364557825182559160200191906001019061362a565b50613651929150613655565b5090565b5b808211156136515760008155600101613656565b6001600160e01b031981168114610f8457600080fd5b60006020828403121561369257600080fd5b81356116468161366a565b6000602082840312156136af57600080fd5b5035919050565b60005b838110156136d15781810151838201526020016136b9565b83811115610c3b5750506000910152565b600081518084526136fa8160208601602086016136b6565b601f01601f19169290920160200192915050565b60208152600061164660208301846136e2565b80356001600160a01b038116811461373857600080fd5b919050565b6000806040838503121561375057600080fd5b61375983613721565b946020939093013593505050565b634e487b7160e01b600052604160045260246000fd5b604051601f8201601f191681016001600160401b03811182821017156137a5576137a5613767565b604052919050565b600082601f8301126137be57600080fd5b813560206001600160401b038211156137d9576137d9613767565b8160051b6137e882820161377d565b928352848101820192828101908785111561380257600080fd5b83870192505b8483101561382157823582529183019190830190613808565b979650505050505050565b6000806040838503121561383f57600080fd5b61384883613721565b915060208301356001600160401b0381111561386357600080fd5b61386f858286016137ad565b9150509250929050565b60008060006060848603121561388e57600080fd5b61389784613721565b92506138a560208501613721565b9150604084013590509250925092565b600080604083850312156138c857600080fd5b823591506138d860208401613721565b90509250929050565b60006001600160401b038311156138fa576138fa613767565b61390d601f8401601f191660200161377d565b905082815283838301111561392157600080fd5b828260208301376000602084830101529392505050565b60006020828403121561394a57600080fd5b81356001600160401b0381111561396057600080fd5b8201601f8101841361397157600080fd5b611ffb848235602084016138e1565b60008060006060848603121561399557600080fd5b61399e84613721565b92506139ac60208501613721565b915060408401356001600160401b038111156139c757600080fd5b6139d3868287016137ad565b9150509250925092565b6000602082840312156139ef57600080fd5b81356001600160401b03811115613a0557600080fd5b611ffb848285016137ad565b6000602080830181845280855180835260408601915060408160051b870101925083870160005b82811015613a6657603f19888603018452613a548583516136e2565b94509285019290850190600101613a38565b5092979650505050505050565b600060208284031215613a8557600080fd5b61164682613721565b6020808252825182820181905260009190848201906040850190845b81811015613ac657835183529284019291840191600101613aaa565b50909695505050505050565b60008060408385031215613ae557600080fd5b50508035926020909101359150565b6020808252825182820181905260009190848201906040850190845b81811015613ac6578351151583529284019291840191600101613b10565b8015158114610f8457600080fd5b60008060408385031215613b4f57600080fd5b613b5883613721565b91506020830135613b6881613b2e565b809150509250929050565b60008060008060808587031215613b8957600080fd5b613b9285613721565b9350613ba060208601613721565b92506040850135915060608501356001600160401b03811115613bc257600080fd5b8501601f81018713613bd357600080fd5b613be2878235602084016138e1565b91505092959194509250565b60008060408385031215613c0157600080fd5b613c0a83613721565b91506138d860208401613721565b600060208284031215613c2a57600080fd5b815161164681613b2e565b634e487b7160e01b600052601160045260246000fd5b60008219821115613c5e57613c5e613c35565b500190565b600181811c90821680613c7757607f821691505b60208210811415613c9857634e487b7160e01b600052602260045260246000fd5b50919050565b634e487b7160e01b600052603260045260246000fd5b6000600019821415613cc857613cc8613c35565b5060010190565b6020808252602e908201527f4552433732313a2063616c6c6572206973206e6f7420746f6b656e206f776e6560408201526d1c881b9bdc88185c1c1c9bdd995960921b606082015260800190565b6000816000190483118215151615613d3757613d37613c35565b500290565b600082821015613d4e57613d4e613c35565b500390565b634e487b7160e01b600052601260045260246000fd5b600082613d7857613d78613d53565b500690565b8054600090600181811c9080831680613d9757607f831692505b6020808410821415613db957634e487b7160e01b600052602260045260246000fd5b818015613dcd5760018114613dde57613e0b565b60ff19861689528489019650613e0b565b60008881526020902060005b86811015613e035781548b820152908501908301613dea565b505084890196505b50505050505092915050565b60008151613e298185602086016136b6565b9290920192915050565b6000613e3f8285613d7d565b8351613e4f8183602088016136b6565b632e706e6760e01b9101908152600401949350505050565b6000613e738285613d7d565b8351613e838183602088016136b6565b642e7765626d60d81b9101908152600501949350505050565b71226e616d65223a202245766f20456767202360701b81528451600090613eca816012850160208a016136b6565b6201116160ed1b60129184019182018190527f226465736372697074696f6e223a202245766f5665727365732047656e302045601583015264033b39116160dd1b6035830152691134b6b0b3b2911d101160b11b603a8301528651613f36816044850160208b016136b6565b6044920191820152711130b734b6b0ba34b7b72fbab936111d101160711b60478201528451613f6c8160598401602089016136b6565b613fe2613fd4613fce613fb9613f906059868801016201116160ed1b815260030190565b7f22616e696d6174696f6e5f74797065223a20227765626d2f6d7034222c2000008152601e0190565b681137bbb732b9111d1160b91b815260090190565b87613e17565b61088b60f21b815260020190565b98975050505050505050565b600082516140008184602087016136b6565b9190910192915050565b6e2261747472696275746573223a205b60881b8152825160009061403581600f8501602088016136b6565b83519083019061404c81600f8401602088016136b6565b7f7b2274726169745f74797065223a202267656e65726174696f6e222c20226469600f92909101918201527f73706c61795f74797065223a20226e756d626572222c202276616c7565223a20602f82015261307d60f01b604f820152605d60f81b6051820152605201949350505050565b607b60f81b8152600083516140d98160018501602088016136b6565b8351908301906140f08160018401602088016136b6565b607d60f81b60019290910191820152600201949350505050565b7f646174613a6170706c69636174696f6e2f6a736f6e3b6261736536342c00000081526000825161414281601d8501602087016136b6565b91909101601d0192915050565b6020808252602b908201527f496e697469616c697a61626c653a20636f6e7472616374206973206e6f74206960408201526a6e697469616c697a696e6760a81b606082015260800190565b60208082526032908201527f4552433732313a207472616e7366657220746f206e6f6e20455243373231526560408201527131b2b4bb32b91034b6b83632b6b2b73a32b960711b606082015260800190565b6000826141fb576141fb613d53565b500490565b7f416363657373436f6e74726f6c3a206163636f756e74200000000000000000008152600083516142388160178501602088016136b6565b7001034b99036b4b9b9b4b733903937b6329607d1b60179184019182015283516142698160288401602088016136b6565b01602801949350505050565b6001600160a01b03858116825284166020820152604081018390526080606082018190526000906142a8908301846136e2565b9695505050505050565b6000602082840312156142c457600080fd5b81516116468161366a565b6000816142de576142de613c35565b506000190190565b634e487b7160e01b600052603160045260246000fdfe4142434445464748494a4b4c4d4e4f505152535455565758595a6162636465666768696a6b6c6d6e6f707172737475767778797a303132333435363738392b2fa49807205ce4d355092ef5a8a18f56e8913cf4a201fbe287825b095693c21775a26469706673582212202125649c9b199cee06422da288d5cee8ff629ba00ecf21957c1424248af0d8fb64736f6c63430008090033",
  "linkReferences": {},
  "deployedLinkReferences": {}
}