{
  "_format": "hh-sol-artifact-1",
  "contractName": "AccountantAurora",
  "sourceName": "contracts/npc/AccountantAurora/AccountantAurora.sol",
  "abi": [
    {
      "anonymous": false,
      "inputs": [
        {
          "indexed": false,
          "internalType": "uint8",
          "name": "version",
          "type": "uint8"
        }
      ],
      "name": "Initialized",
      "type": "event"
    },
    {
      "anonymous": false,
      "inputs": [
        {
          "indexed": true,
          "internalType": "bytes32",
          "name": "role",
          "type": "bytes32"
        },
        {
          "indexed": true,
          "internalType": "bytes32",
          "name": "previousAdminRole",
          "type": "bytes32"
        },
        {
          "indexed": true,
          "internalType": "bytes32",
          "name": "newAdminRole",
          "type": "bytes32"
        }
      ],
      "name": "RoleAdminChanged",
      "type": "event"
    },
    {
      "anonymous": false,
      "inputs": [
        {
          "indexed": true,
          "internalType": "bytes32",
          "name": "role",
          "type": "bytes32"
        },
        {
          "indexed": true,
          "internalType": "address",
          "name": "account",
          "type": "address"
        },
        {
          "indexed": true,
          "internalType": "address",
          "name": "sender",
          "type": "address"
        }
      ],
      "name": "RoleGranted",
      "type": "event"
    },
    {
      "anonymous": false,
      "inputs": [
        {
          "indexed": true,
          "internalType": "bytes32",
          "name": "role",
          "type": "bytes32"
        },
        {
          "indexed": true,
          "internalType": "address",
          "name": "account",
          "type": "address"
        },
        {
          "indexed": true,
          "internalType": "address",
          "name": "sender",
          "type": "address"
        }
      ],
      "name": "RoleRevoked",
      "type": "event"
    },
    {
      "inputs": [],
      "name": "ADMIN_ROLE",
      "outputs": [
        {
          "internalType": "bytes32",
          "name": "",
          "type": "bytes32"
        }
      ],
      "stateMutability": "view",
      "type": "function"
    },
    {
      "inputs": [],
      "name": "CONTRACT_ROLE",
      "outputs": [
        {
          "internalType": "bytes32",
          "name": "",
          "type": "bytes32"
        }
      ],
      "stateMutability": "view",
      "type": "function"
    },
    {
      "inputs": [],
      "name": "DEFAULT_ADMIN_ROLE",
      "outputs": [
        {
          "internalType": "bytes32",
          "name": "",
          "type": "bytes32"
        }
      ],
      "stateMutability": "view",
      "type": "function"
    },
    {
      "inputs": [],
      "name": "Development",
      "outputs": [
        {
          "internalType": "address",
          "name": "",
          "type": "address"
        }
      ],
      "stateMutability": "view",
      "type": "function"
    },
    {
      "inputs": [],
      "name": "Director",
      "outputs": [
        {
          "internalType": "address",
          "name": "",
          "type": "address"
        }
      ],
      "stateMutability": "view",
      "type": "function"
    },
    {
      "inputs": [],
      "name": "Founders",
      "outputs": [
        {
          "internalType": "address",
          "name": "",
          "type": "address"
        }
      ],
      "stateMutability": "view",
      "type": "function"
    },
    {
      "inputs": [],
      "name": "Marketing",
      "outputs": [
        {
          "internalType": "address",
          "name": "",
          "type": "address"
        }
      ],
      "stateMutability": "view",
      "type": "function"
    },
    {
      "inputs": [],
      "name": "Treasury",
      "outputs": [
        {
          "internalType": "address",
          "name": "",
          "type": "address"
        }
      ],
      "stateMutability": "view",
      "type": "function"
    },
    {
      "inputs": [
        {
          "internalType": "bytes32",
          "name": "role",
          "type": "bytes32"
        }
      ],
      "name": "getRoleAdmin",
      "outputs": [
        {
          "internalType": "bytes32",
          "name": "",
          "type": "bytes32"
        }
      ],
      "stateMutability": "view",
      "type": "function"
    },
    {
      "inputs": [
        {
          "internalType": "bytes32",
          "name": "role",
          "type": "bytes32"
        },
        {
          "internalType": "uint256",
          "name": "index",
          "type": "uint256"
        }
      ],
      "name": "getRoleMember",
      "outputs": [
        {
          "internalType": "address",
          "name": "",
          "type": "address"
        }
      ],
      "stateMutability": "view",
      "type": "function"
    },
    {
      "inputs": [
        {
          "internalType": "bytes32",
          "name": "role",
          "type": "bytes32"
        }
      ],
      "name": "getRoleMemberCount",
      "outputs": [
        {
          "internalType": "uint256",
          "name": "",
          "type": "uint256"
        }
      ],
      "stateMutability": "view",
      "type": "function"
    },
    {
      "inputs": [
        {
          "internalType": "bytes32",
          "name": "role",
          "type": "bytes32"
        },
        {
          "internalType": "address",
          "name": "account",
          "type": "address"
        }
      ],
      "name": "grantRole",
      "outputs": [],
      "stateMutability": "nonpayable",
      "type": "function"
    },
    {
      "inputs": [
        {
          "internalType": "bytes32",
          "name": "role",
          "type": "bytes32"
        },
        {
          "internalType": "address",
          "name": "account",
          "type": "address"
        }
      ],
      "name": "hasRole",
      "outputs": [
        {
          "internalType": "bool",
          "name": "",
          "type": "bool"
        }
      ],
      "stateMutability": "view",
      "type": "function"
    },
    {
      "inputs": [
        {
          "internalType": "bytes32",
          "name": "role",
          "type": "bytes32"
        },
        {
          "internalType": "address",
          "name": "account",
          "type": "address"
        }
      ],
      "name": "renounceRole",
      "outputs": [],
      "stateMutability": "nonpayable",
      "type": "function"
    },
    {
      "inputs": [
        {
          "internalType": "bytes32",
          "name": "role",
          "type": "bytes32"
        },
        {
          "internalType": "address",
          "name": "account",
          "type": "address"
        }
      ],
      "name": "revokeRole",
      "outputs": [],
      "stateMutability": "nonpayable",
      "type": "function"
    },
    {
      "inputs": [
        {
          "internalType": "bytes4",
          "name": "interfaceId",
          "type": "bytes4"
        }
      ],
      "name": "supportsInterface",
      "outputs": [
        {
          "internalType": "bool",
          "name": "",
          "type": "bool"
        }
      ],
      "stateMutability": "view",
      "type": "function"
    }
  ],
  "bytecode": "0x608060405234801561001057600080fd5b50610b8d806100206000396000f3fe608060405234801561001057600080fd5b50600436106101005760003560e01c806375b238fc11610097578063a217fddf11610066578063a217fddf14610262578063ca15c8731461026a578063d547741f1461027d578063db886f231461029057600080fd5b806375b238fc146102015780639010d07c1461022857806391d148541461023b57806394e8075d1461024e57600080fd5b806327aedd10116100d357806327aedd10146101b15780632f2ff15d146101c557806336568abe146101da578063563df32f146101ed57600080fd5b806301ffc9a71461010557806303fe46ab1461012d5780631e1dc92f14610162578063248a9ca31461018e575b600080fd5b610118610113366004610921565b6102a4565b60405190151581526020015b60405180910390f35b6101547f364d3d7565c7a8300c96fd53e065d19b65848d7b23b3191adcd55621c744223c81565b604051908152602001610124565b61012c54610176906001600160a01b031681565b6040516001600160a01b039091168152602001610124565b61015461019c36600461094b565b60009081526065602052604090206001015490565b61012d54610176906001600160a01b031681565b6101d86101d3366004610964565b6102cf565b005b6101d86101e8366004610964565b6102f9565b61012b54610176906001600160a01b031681565b6101547fa49807205ce4d355092ef5a8a18f56e8913cf4a201fbe287825b095693c2177581565b6101766102363660046109a0565b61037c565b610118610249366004610964565b61039b565b61012f54610176906001600160a01b031681565b610154600081565b61015461027836600461094b565b6103c6565b6101d861028b366004610964565b6103dd565b61012e54610176906001600160a01b031681565b60006001600160e01b03198216635a05180f60e01b14806102c957506102c982610402565b92915050565b6000828152606560205260409020600101546102ea81610437565b6102f48383610444565b505050565b6001600160a01b038116331461036e5760405162461bcd60e51b815260206004820152602f60248201527f416363657373436f6e74726f6c3a2063616e206f6e6c792072656e6f756e636560448201526e103937b632b9903337b91039b2b63360891b60648201526084015b60405180910390fd5b6103788282610466565b5050565b60008281526097602052604081206103949083610488565b9392505050565b60009182526065602090815260408084206001600160a01b0393909316845291905290205460ff1690565b60008181526097602052604081206102c990610494565b6000828152606560205260409020600101546103f881610437565b6102f48383610466565b60006001600160e01b03198216637965db0b60e01b14806102c957506301ffc9a760e01b6001600160e01b03198316146102c9565b610441813361049e565b50565b61044e8282610502565b60008281526097602052604090206102f49082610588565b610470828261059d565b60008281526097602052604090206102f49082610604565b60006103948383610619565b60006102c9825490565b6104a8828261039b565b610378576104c0816001600160a01b03166014610643565b6104cb836020610643565b6040516020016104dc9291906109f2565b60408051601f198184030181529082905262461bcd60e51b825261036591600401610a67565b61050c828261039b565b6103785760008281526065602090815260408083206001600160a01b03851684529091529020805460ff191660011790556105443390565b6001600160a01b0316816001600160a01b0316837f2f8788117e7eff1d82e926ec794901d17c78024a50270940304540a733656f0d60405160405180910390a45050565b6000610394836001600160a01b0384166107df565b6105a7828261039b565b156103785760008281526065602090815260408083206001600160a01b0385168085529252808320805460ff1916905551339285917ff6391f5c32d9c69d2a47ea670b442974b53935d1edc7fd64eb21e047a839171b9190a45050565b6000610394836001600160a01b03841661082e565b600082600001828154811061063057610630610a9a565b9060005260206000200154905092915050565b60606000610652836002610ac6565b61065d906002610ae5565b67ffffffffffffffff81111561067557610675610afd565b6040519080825280601f01601f19166020018201604052801561069f576020820181803683370190505b509050600360fc1b816000815181106106ba576106ba610a9a565b60200101906001600160f81b031916908160001a905350600f60fb1b816001815181106106e9576106e9610a9a565b60200101906001600160f81b031916908160001a905350600061070d846002610ac6565b610718906001610ae5565b90505b6001811115610790576f181899199a1a9b1b9c1cb0b131b232b360811b85600f166010811061074c5761074c610a9a565b1a60f81b82828151811061076257610762610a9a565b60200101906001600160f81b031916908160001a90535060049490941c9361078981610b13565b905061071b565b5083156103945760405162461bcd60e51b815260206004820181905260248201527f537472696e67733a20686578206c656e67746820696e73756666696369656e746044820152606401610365565b6000818152600183016020526040812054610826575081546001818101845560008481526020808220909301849055845484825282860190935260409020919091556102c9565b5060006102c9565b60008181526001830160205260408120548015610917576000610852600183610b2a565b855490915060009061086690600190610b2a565b90508181146108cb57600086600001828154811061088657610886610a9a565b90600052602060002001549050808760000184815481106108a9576108a9610a9a565b6000918252602080832090910192909255918252600188019052604090208390555b85548690806108dc576108dc610b41565b6001900381819060005260206000200160009055905585600101600086815260200190815260200160002060009055600193505050506102c9565b60009150506102c9565b60006020828403121561093357600080fd5b81356001600160e01b03198116811461039457600080fd5b60006020828403121561095d57600080fd5b5035919050565b6000806040838503121561097757600080fd5b8235915060208301356001600160a01b038116811461099557600080fd5b809150509250929050565b600080604083850312156109b357600080fd5b50508035926020909101359150565b60005b838110156109dd5781810151838201526020016109c5565b838111156109ec576000848401525b50505050565b7f416363657373436f6e74726f6c3a206163636f756e7420000000000000000000815260008351610a2a8160178501602088016109c2565b7001034b99036b4b9b9b4b733903937b6329607d1b6017918401918201528351610a5b8160288401602088016109c2565b01602801949350505050565b6020815260008251806020840152610a868160408501602087016109c2565b601f01601f19169190910160400192915050565b634e487b7160e01b600052603260045260246000fd5b634e487b7160e01b600052601160045260246000fd5b6000816000190483118215151615610ae057610ae0610ab0565b500290565b60008219821115610af857610af8610ab0565b500190565b634e487b7160e01b600052604160045260246000fd5b600081610b2257610b22610ab0565b506000190190565b600082821015610b3c57610b3c610ab0565b500390565b634e487b7160e01b600052603160045260246000fdfea2646970667358221220bf0eb87d2c8c346a78c9744a4633688b05b6b0285eb327be0f205f10f2a5e0a064736f6c63430008090033",
  "linkReferences": {},
  "deployedLinkReferences": {}
}