{
  "_format": "hh-sol-artifact-1",
  "contractName": "BreederBetty",
  "sourceName": "contracts/npc/BreederBetty/BreederBetty.sol",
  "abi": [
    {
      "inputs": [],
      "stateMutability": "nonpayable",
      "type": "constructor"
    },
    {
      "anonymous": false,
      "inputs": [
        {
          "indexed": true,
          "internalType": "address",
          "name": "from",
          "type": "address"
        },
        {
          "indexed": false,
          "internalType": "uint256",
          "name": "cost",
          "type": "uint256"
        },
        {
          "indexed": false,
          "internalType": "uint256",
          "name": "parent1",
          "type": "uint256"
        },
        {
          "indexed": false,
          "internalType": "uint256",
          "name": "parent2",
          "type": "uint256"
        },
        {
          "components": [
            {
              "internalType": "uint256",
              "name": "tokenId",
              "type": "uint256"
            },
            {
              "internalType": "uint256",
              "name": "species",
              "type": "uint256"
            },
            {
              "internalType": "uint256",
              "name": "generation",
              "type": "uint256"
            },
            {
              "internalType": "uint256",
              "name": "parent1",
              "type": "uint256"
            },
            {
              "internalType": "uint256",
              "name": "parent2",
              "type": "uint256"
            },
            {
              "internalType": "uint256",
              "name": "treated",
              "type": "uint256"
            },
            {
              "internalType": "uint256",
              "name": "createdAt",
              "type": "uint256"
            }
          ],
          "indexed": false,
          "internalType": "struct EvoStructs.Egg",
          "name": "evoEgg",
          "type": "tuple"
        }
      ],
      "name": "EvoBred",
      "type": "event"
    },
    {
      "anonymous": false,
      "inputs": [
        {
          "indexed": false,
          "internalType": "uint8",
          "name": "version",
          "type": "uint8"
        }
      ],
      "name": "Initialized",
      "type": "event"
    },
    {
      "anonymous": false,
      "inputs": [
        {
          "indexed": false,
          "internalType": "address",
          "name": "account",
          "type": "address"
        }
      ],
      "name": "Paused",
      "type": "event"
    },
    {
      "anonymous": false,
      "inputs": [
        {
          "indexed": true,
          "internalType": "bytes32",
          "name": "role",
          "type": "bytes32"
        },
        {
          "indexed": true,
          "internalType": "bytes32",
          "name": "previousAdminRole",
          "type": "bytes32"
        },
        {
          "indexed": true,
          "internalType": "bytes32",
          "name": "newAdminRole",
          "type": "bytes32"
        }
      ],
      "name": "RoleAdminChanged",
      "type": "event"
    },
    {
      "anonymous": false,
      "inputs": [
        {
          "indexed": true,
          "internalType": "bytes32",
          "name": "role",
          "type": "bytes32"
        },
        {
          "indexed": true,
          "internalType": "address",
          "name": "account",
          "type": "address"
        },
        {
          "indexed": true,
          "internalType": "address",
          "name": "sender",
          "type": "address"
        }
      ],
      "name": "RoleGranted",
      "type": "event"
    },
    {
      "anonymous": false,
      "inputs": [
        {
          "indexed": true,
          "internalType": "bytes32",
          "name": "role",
          "type": "bytes32"
        },
        {
          "indexed": true,
          "internalType": "address",
          "name": "account",
          "type": "address"
        },
        {
          "indexed": true,
          "internalType": "address",
          "name": "sender",
          "type": "address"
        }
      ],
      "name": "RoleRevoked",
      "type": "event"
    },
    {
      "anonymous": false,
      "inputs": [
        {
          "indexed": false,
          "internalType": "address",
          "name": "account",
          "type": "address"
        }
      ],
      "name": "Unpaused",
      "type": "event"
    },
    {
      "inputs": [],
      "name": "ADMIN_ROLE",
      "outputs": [
        {
          "internalType": "bytes32",
          "name": "",
          "type": "bytes32"
        }
      ],
      "stateMutability": "view",
      "type": "function"
    },
    {
      "inputs": [],
      "name": "CONTRACT_ROLE",
      "outputs": [
        {
          "internalType": "bytes32",
          "name": "",
          "type": "bytes32"
        }
      ],
      "stateMutability": "view",
      "type": "function"
    },
    {
      "inputs": [],
      "name": "DEFAULT_ADMIN_ROLE",
      "outputs": [
        {
          "internalType": "bytes32",
          "name": "",
          "type": "bytes32"
        }
      ],
      "stateMutability": "view",
      "type": "function"
    },
    {
      "inputs": [
        {
          "internalType": "uint256[]",
          "name": "tokenIds",
          "type": "uint256[]"
        }
      ],
      "name": "breed",
      "outputs": [],
      "stateMutability": "payable",
      "type": "function"
    },
    {
      "inputs": [],
      "name": "getFeeShares",
      "outputs": [
        {
          "internalType": "address[]",
          "name": "destinations",
          "type": "address[]"
        },
        {
          "internalType": "uint256[]",
          "name": "shares",
          "type": "uint256[]"
        },
        {
          "internalType": "uint256",
          "name": "total",
          "type": "uint256"
        }
      ],
      "stateMutability": "view",
      "type": "function"
    },
    {
      "inputs": [
        {
          "internalType": "bytes32",
          "name": "role",
          "type": "bytes32"
        }
      ],
      "name": "getRoleAdmin",
      "outputs": [
        {
          "internalType": "bytes32",
          "name": "",
          "type": "bytes32"
        }
      ],
      "stateMutability": "view",
      "type": "function"
    },
    {
      "inputs": [
        {
          "internalType": "bytes32",
          "name": "role",
          "type": "bytes32"
        },
        {
          "internalType": "uint256",
          "name": "index",
          "type": "uint256"
        }
      ],
      "name": "getRoleMember",
      "outputs": [
        {
          "internalType": "address",
          "name": "",
          "type": "address"
        }
      ],
      "stateMutability": "view",
      "type": "function"
    },
    {
      "inputs": [
        {
          "internalType": "bytes32",
          "name": "role",
          "type": "bytes32"
        }
      ],
      "name": "getRoleMemberCount",
      "outputs": [
        {
          "internalType": "uint256",
          "name": "",
          "type": "uint256"
        }
      ],
      "stateMutability": "view",
      "type": "function"
    },
    {
      "inputs": [
        {
          "internalType": "bytes32",
          "name": "role",
          "type": "bytes32"
        },
        {
          "internalType": "address",
          "name": "account",
          "type": "address"
        }
      ],
      "name": "grantRole",
      "outputs": [],
      "stateMutability": "nonpayable",
      "type": "function"
    },
    {
      "inputs": [
        {
          "internalType": "bytes32",
          "name": "role",
          "type": "bytes32"
        },
        {
          "internalType": "address",
          "name": "account",
          "type": "address"
        }
      ],
      "name": "hasRole",
      "outputs": [
        {
          "internalType": "bool",
          "name": "",
          "type": "bool"
        }
      ],
      "stateMutability": "view",
      "type": "function"
    },
    {
      "inputs": [],
      "name": "initialize",
      "outputs": [],
      "stateMutability": "nonpayable",
      "type": "function"
    },
    {
      "inputs": [],
      "name": "pause",
      "outputs": [],
      "stateMutability": "nonpayable",
      "type": "function"
    },
    {
      "inputs": [],
      "name": "paused",
      "outputs": [
        {
          "internalType": "bool",
          "name": "",
          "type": "bool"
        }
      ],
      "stateMutability": "view",
      "type": "function"
    },
    {
      "inputs": [
        {
          "internalType": "address",
          "name": "destination",
          "type": "address"
        }
      ],
      "name": "removeFeeShare",
      "outputs": [],
      "stateMutability": "nonpayable",
      "type": "function"
    },
    {
      "inputs": [
        {
          "internalType": "bytes32",
          "name": "role",
          "type": "bytes32"
        },
        {
          "internalType": "address",
          "name": "account",
          "type": "address"
        }
      ],
      "name": "renounceRole",
      "outputs": [],
      "stateMutability": "nonpayable",
      "type": "function"
    },
    {
      "inputs": [
        {
          "internalType": "bytes32",
          "name": "role",
          "type": "bytes32"
        },
        {
          "internalType": "address",
          "name": "account",
          "type": "address"
        }
      ],
      "name": "revokeRole",
      "outputs": [],
      "stateMutability": "nonpayable",
      "type": "function"
    },
    {
      "inputs": [
        {
          "internalType": "address",
          "name": "destination",
          "type": "address"
        },
        {
          "internalType": "uint256",
          "name": "share",
          "type": "uint256"
        }
      ],
      "name": "setFeeShare",
      "outputs": [],
      "stateMutability": "nonpayable",
      "type": "function"
    },
    {
      "inputs": [
        {
          "internalType": "bytes4",
          "name": "interfaceId",
          "type": "bytes4"
        }
      ],
      "name": "supportsInterface",
      "outputs": [
        {
          "internalType": "bool",
          "name": "",
          "type": "bool"
        }
      ],
      "stateMutability": "view",
      "type": "function"
    },
    {
      "inputs": [],
      "name": "unpause",
      "outputs": [],
      "stateMutability": "nonpayable",
      "type": "function"
    }
  ],
  "bytecode": "0x60806040523480156200001157600080fd5b506200001c62000022565b620000e4565b600054610100900460ff16156200008f5760405162461bcd60e51b815260206004820152602760248201527f496e697469616c697a61626c653a20636f6e747261637420697320696e697469604482015266616c697a696e6760c81b606482015260840160405180910390fd5b60005460ff9081161015620000e2576000805460ff191660ff9081179091556040519081527f7f26b83ff96e1f2b6a682f133852f6798a09c465da95921460cefb38474024989060200160405180910390a15b565b6129ae80620000f46000396000f3fe6080604052600436106101145760003560e01c80638129fc1c116100a0578063a217fddf11610064578063a217fddf14610313578063ca15c87314610328578063d547741f14610348578063eb266fa814610368578063eb6cad411461038c57600080fd5b80638129fc1c146102715780638456cb5914610286578063874e077a1461029b5780639010d07c146102bb57806391d14854146102f357600080fd5b806336568abe116100e757806336568abe146101e25780633f4ba83a14610202578063564f360e146102175780635c975abb1461023757806375b238fc1461024f57600080fd5b806301ffc9a71461011957806303fe46ab1461014e578063248a9ca3146101905780632f2ff15d146101c0575b600080fd5b34801561012557600080fd5b50610139610134366004612112565b61039f565b60405190151581526020015b60405180910390f35b34801561015a57600080fd5b506101827f364d3d7565c7a8300c96fd53e065d19b65848d7b23b3191adcd55621c744223c81565b604051908152602001610145565b34801561019c57600080fd5b506101826101ab36600461213c565b60009081526097602052604090206001015490565b3480156101cc57600080fd5b506101e06101db36600461216a565b6103ca565b005b3480156101ee57600080fd5b506101e06101fd36600461216a565b6103f4565b34801561020e57600080fd5b506101e0610477565b34801561022357600080fd5b506101e061023236600461219a565b61049a565b34801561024357600080fd5b5060335460ff16610139565b34801561025b57600080fd5b5061018260008051602061295983398151915281565b34801561027d57600080fd5b506101e0610544565b34801561029257600080fd5b506101e0610760565b3480156102a757600080fd5b506101e06102b63660046121c6565b610780565b3480156102c757600080fd5b506102db6102d63660046121e3565b6107df565b6040516001600160a01b039091168152602001610145565b3480156102ff57600080fd5b5061013961030e36600461216a565b6107fe565b34801561031f57600080fd5b50610182600081565b34801561033457600080fd5b5061018261034336600461213c565b610829565b34801561035457600080fd5b506101e061036336600461216a565b610840565b34801561037457600080fd5b5061037d610865565b60405161014593929190612205565b6101e061039a366004612303565b61097d565b60006001600160e01b03198216635a05180f60e01b14806103c457506103c482610e01565b92915050565b6000828152609760205260409020600101546103e581610e36565b6103ef8383610e40565b505050565b6001600160a01b03811633146104695760405162461bcd60e51b815260206004820152602f60248201527f416363657373436f6e74726f6c3a2063616e206f6e6c792072656e6f756e636560448201526e103937b632b9903337b91039b2b63360891b60648201526084015b60405180910390fd5b6104738282610e62565b5050565b60008051602061295983398151915261048f81610e36565b610497610e84565b50565b6000805160206129598339815191526104b281610e36565b6000806104c161012c86610ed6565b90925090508115610516578084106104fa576104dd81856123bf565b61012f60008282546104ef91906123d6565b9091555061052f9050565b61050484826123bf565b61012f60008282546104ef91906123bf565b8361012f600082825461052991906123d6565b90915550505b61053c61012c8686610efd565b505050505050565b600054610100900460ff16158080156105645750600054600160ff909116105b8061057e5750303b15801561057e575060005460ff166001145b6105e15760405162461bcd60e51b815260206004820152602e60248201527f496e697469616c697a61626c653a20636f6e747261637420697320616c72656160448201526d191e481a5b9a5d1a585b1a5e995960921b6064820152608401610460565b6000805460ff191660011790558015610604576000805461ff0019166101001790555b61060c610f1b565b610614610f4c565b61063173c8849f32138de93f6097199c5721a9efd91cee01610f73565b61063c600033610e40565b61065460008051602061295983398151915233610e40565b61067e7f364d3d7565c7a8300c96fd53e065d19b65848d7b23b3191adcd55621c744223c33610e40565b61019180546001600160a01b031990811673680e176b2bbdb2336063d0c82961bdb7a52cf13c1790915561019280548216733e9694a37846c864c67253af6f5d1f534ff3bf461790556101938054821673a3b63c50f0518aaacf5cf4720b773e1371d10ebf1790556101948054821673918ea0e87ef08a5931ad3777b8c0eb69e2ce37dd17905561019580549091166020602160991b011790558015610497576000805461ff0019169055604051600181527f7f26b83ff96e1f2b6a682f133852f6798a09c465da95921460cefb38474024989060200160405180910390a150565b60008051602061295983398151915261077881610e36565b610497610fc5565b60008051602061295983398151915261079881610e36565b6000806107a761012c85610ed6565b909250905081156107d9578061012f60008282546107c591906123bf565b909155506107d7905061012c85611002565b505b50505050565b600082815260c9602052604081206107f79083611017565b9392505050565b60009182526097602090815260408084206001600160a01b0393909316845291905290205460ff1690565b600081815260c9602052604081206103c490611023565b60008281526097602052604090206001015461085b81610e36565b6103ef8383610e62565b61012f546060908190600061087b61012c61102d565b90508067ffffffffffffffff81111561089657610896612292565b6040519080825280602002602001820160405280156108bf578160200160208202803683370190505b5093508067ffffffffffffffff8111156108db576108db612292565b604051908082528060200260200182016040528015610904578160200160208202803683370190505b50925060005b818110156109765761091e61012c82611038565b868381518110610930576109306123ee565b60200260200101868481518110610949576109496123ee565b60209081029190910101919091526001600160a01b0390911690528061096e81612404565b91505061090a565b5050909192565b80516002146109c65760405162461bcd60e51b8152602060048201526015602482015274125b9d985b1a59081d1bdad95b92590818dbdd5b9d605a1b6044820152606401610460565b806001815181106109d9576109d96123ee565b6020026020010151816000815181106109f4576109f46123ee565b60200260200101511415610a415760405162461bcd60e51b815260206004820152601460248201527321b0b73a10313932b2b2103bb4ba341039b2b63360611b6044820152606401610460565b60408051600280825260608201909252600091829190816020015b610a64612015565b815260200190600190039081610a5c57905050905060005b8351811015610cfc5761019254845133916001600160a01b031690636352211e90879085908110610aaf57610aaf6123ee565b60200260200101516040518263ffffffff1660e01b8152600401610ad591815260200190565b60206040518083038186803b158015610aed57600080fd5b505afa158015610b01573d6000803e3d6000fd5b505050506040513d601f19601f82011682018060405250810190610b25919061241f565b6001600160a01b031614610b675760405162461bcd60e51b81526020600482015260096024820152682737ba1037bbb732b960b91b6044820152606401610460565b6101925484516000916001600160a01b03169063b791e67b90879085908110610b9257610b926123ee565b60200260200101516040518263ffffffff1660e01b8152600401610bb891815260200190565b6102e06040518083038186803b158015610bd157600080fd5b505afa158015610be5573d6000803e3d6000fd5b505050506040513d601f19601f82011682018060405250810190610c099190612578565b9050610c1481611047565b610c605760405162461bcd60e51b815260206004820152601b60248201527f45766f20686173206e6f206272656564732072656d61696e696e6700000000006044820152606401610460565b610c698161106f565b610cb55760405162461bcd60e51b815260206004820152601760248201527f45766f206973207374696c6c207265636f766572696e670000000000000000006044820152606401610460565b80838381518110610cc857610cc86123ee565b6020026020010181905250610cdc816110ca565b610ce690856123d6565b9350508080610cf490612404565b915050610a7c565b50610d0681611136565b610d0f826112da565b6000610d1a8261145e565b61019354604051634b7ddec160e01b81529192506001600160a01b031690634b7ddec190610d4e903390859060040161264b565b600060405180830381600087803b158015610d6857600080fd5b505af1158015610d7c573d6000803e3d6000fd5b50505050336001600160a01b03167f561177e6feb059a81b75aabeecbb5133913a936d9058c51e133ed9cbd89c45be8486600081518110610dbf57610dbf6123ee565b602002602001015187600181518110610dda57610dda6123ee565b602002602001015185604051610df39493929190612669565b60405180910390a250505050565b60006001600160e01b03198216637965db0b60e01b14806103c457506301ffc9a760e01b6001600160e01b03198316146103c4565b6104978133611835565b610e4a8282611899565b600082815260c9602052604090206103ef908261191f565b610e6c8282611934565b600082815260c9602052604090206103ef908261199b565b610e8c6119b0565b6033805460ff191690557f5db9ee0a495bf2e6ff9c91a7834c1ba4fdd244a5e8aa4e537bd38aeae4b073aa335b6040516001600160a01b03909116815260200160405180910390a1565b6000808080610eee866001600160a01b0387166119f9565b909450925050505b9250929050565b6000610f13846001600160a01b03851684611a3b565b949350505050565b600054610100900460ff16610f425760405162461bcd60e51b81526004016104609061268c565b610f4a611a58565b565b600054610100900460ff16610f4a5760405162461bcd60e51b81526004016104609061268c565b600054610100900460ff16610f9a5760405162461bcd60e51b81526004016104609061268c565b610fa2610f4c565b61013080546001600160a01b0319166001600160a01b0392909216919091179055565b610fcd611a8b565b6033805460ff191660011790557f62e78cea01bee320cd4e420270b5ea74000d11b0c9f74754ebdbfc544b05a258610eb93390565b60006107f7836001600160a01b038416611ad1565b60006107f78383611aee565b60006103c4825490565b60006103c482611b18565b6000808080610eee8686611b23565b604081015160009060059061105f5750600192915050565b60c0909201515191909110919050565b604081015160009062093a80906201518090600611156110a857604084015161109b90620151806126d7565b6110a590836123bf565b90505b6000818560c00151604001516110be91906123d6565b42101595945050505050565b6040810151600090680d8d726b7177a800009082906110ea9060026127d2565b6110f490836126d7565b60c0850151516040860151919250901580156111105750600481115b15611119575060045b61112381836126d7565b61112d90836123d6565b95945050505050565b60008160008151811061114b5761114b6123ee565b602002602001015160800151905060008260018151811061116e5761116e6123ee565b60200260200101516080015190508060000151826000015114156111e35760405162461bcd60e51b815260206004820152602660248201527f4272656564657242657474793a3a45766f7320617265207468652073616d652060448201526533b2b73232b960d11b6064820152608401610460565b60008160400151836040015114156111fd57506001611281565b60008360600151118015611218575081604001518360600151145b1561122557506001611281565b60008260600151118015611240575082604001518260600151145b1561124d57506001611281565b60008360600151118015611265575060008260600151115b8015611278575081606001518360600151145b15611281575060015b806107d95760405162461bcd60e51b815260206004820152602360248201527f4272656564657242657474793a3a45766f732061726520696e636f6d70617469604482015262626c6560e81b6064820152608401610460565b60006112e761012c61102d565b905060005b818110156103ef5760008061130361012c84611038565b61012f54919350915060009061131983886126d7565b61132391906127f4565b90506001600160a01b0383166113ab57610130546001600160a01b03166379cc6790336040516001600160e01b031960e084901b1681526001600160a01b03909116600482015260248101849052604401600060405180830381600087803b15801561138e57600080fd5b505af11580156113a2573d6000803e3d6000fd5b50505050611448565b610130546001600160a01b03166323b872dd336040516001600160e01b031960e084901b1681526001600160a01b039182166004820152908616602482015260448101849052606401602060405180830381600087803b15801561140e57600080fd5b505af1158015611422573d6000803e3d6000fd5b505050506040513d601f19601f820116820180604052508101906114469190612808565b505b505050808061145690612404565b9150506112ec565b61149e6040518060e00160405280600081526020016000815260200160008152602001600081526020016000815260200160008152602001600081525090565b60005b82518110156115e6576101925483516001600160a01b0390911690634bb8fd64908590849081106114d4576114d46123ee565b6020908102919091010151516040516001600160e01b031960e084901b16815260048101919091526006602482015260016044820152606401600060405180830381600087803b15801561152757600080fd5b505af115801561153b573d6000803e3d6000fd5b50506101925485516001600160a01b03909116925063fd5eea4e9150859084908110611569576115696123ee565b6020908102919091010151516040516001600160e01b031960e084901b1681526004810191909152600f6024820152426044820152606401600060405180830381600087803b1580156115bb57600080fd5b505af11580156115cf573d6000803e3d6000fd5b5050505080806115de90612404565b9150506114a1565b506115ef611b4e565b610191546040805163604a6fa960e01b815290516000926001600160a01b03169163604a6fa991600480830192602092919082900301818787803b15801561163657600080fd5b505af115801561164a573d6000803e3d6000fd5b505050506040513d601f19601f8201168201806040525081019061166e919061282a565b9050600061167e6103e883612843565b9050600084600181518110611695576116956123ee565b602002602001015160200151856000815181106116b4576116b46123ee565b6020026020010151602001511480156116cf57506101f48211155b156116fa57846000815181106116e7576116e76123ee565b60200260200101516020015190506117b2565b607d82101561171657846000815181106116e7576116e76123ee565b60fa82101561173257846001815181106116e7576116e76123ee565b61019454604051631f5ee9fd60e01b8152600481018590526001600160a01b0390911690631f5ee9fd9060240160206040518083038186803b15801561177757600080fd5b505afa15801561178b573d6000803e3d6000fd5b505050506040513d601f19601f820116820180604052508101906117af919061282a565b90505b6040518060e00160405280600081526020018281526020016117d387611c84565b8152602001866000815181106117eb576117eb6123ee565b60200260200101516000015181526020018660018151811061180f5761180f6123ee565b602002602001015160000151815260200160008152602001428152509350505050919050565b61183f82826107fe565b61047357611857816001600160a01b03166014611cfb565b611862836020611cfb565b604051602001611873929190612883565b60408051601f198184030181529082905262461bcd60e51b8252610460916004016128f8565b6118a382826107fe565b6104735760008281526097602090815260408083206001600160a01b03851684529091529020805460ff191660011790556118db3390565b6001600160a01b0316816001600160a01b0316837f2f8788117e7eff1d82e926ec794901d17c78024a50270940304540a733656f0d60405160405180910390a45050565b60006107f7836001600160a01b038416611e97565b61193e82826107fe565b156104735760008281526097602090815260408083206001600160a01b0385168085529252808320805460ff1916905551339285917ff6391f5c32d9c69d2a47ea670b442974b53935d1edc7fd64eb21e047a839171b9190a45050565b60006107f7836001600160a01b038416611ee6565b60335460ff16610f4a5760405162461bcd60e51b815260206004820152601460248201527314185d5cd8589b194e881b9bdd081c185d5cd95960621b6044820152606401610460565b6000818152600283016020526040812054819080611a2857611a1b8585611fd9565b925060009150610ef69050565b600192509050610ef6565b509250929050565b60008281526002840160205260408120829055610f138484611fe5565b600054610100900460ff16611a7f5760405162461bcd60e51b81526004016104609061268c565b6033805460ff19169055565b60335460ff1615610f4a5760405162461bcd60e51b815260206004820152601060248201526f14185d5cd8589b194e881c185d5cd95960821b6044820152606401610460565b600081815260028301602052604081208190556107f78383611ff1565b6000826000018281548110611b0557611b056123ee565b9060005260206000200154905092915050565b60006103c482611023565b60008080611b318585611017565b600081815260029690960160205260409095205494959350505050565b6101955460408051637126fe6f60e11b815290516000926001600160a01b03169163e24dfcde916004808301926020929190829003018186803b158015611b9457600080fd5b505afa158015611ba8573d6000803e3d6000fd5b505050506040513d601f19601f82011682018060405250810190611bcc919061282a565b9050803414611c1d5760405162461bcd60e51b815260206004820152601760248201527f496e73756666696369656e7420547572696e67204665650000000000000000006044820152606401610460565b6101955461019154604051631fb1244f60e31b8152600481018490526001600160a01b03918216602482015291169063fd8922789083906044016000604051808303818588803b158015611c7057600080fd5b505af115801561053c573d6000803e3d6000fd5b60008082600081518110611c9a57611c9a6123ee565b60200260200101516040015190508083600181518110611cbc57611cbc6123ee565b6020026020010151604001511115611cf05782600181518110611ce157611ce16123ee565b60200260200101516040015190505b6107f78160016123d6565b60606000611d0a8360026126d7565b611d159060026123d6565b67ffffffffffffffff811115611d2d57611d2d612292565b6040519080825280601f01601f191660200182016040528015611d57576020820181803683370190505b509050600360fc1b81600081518110611d7257611d726123ee565b60200101906001600160f81b031916908160001a905350600f60fb1b81600181518110611da157611da16123ee565b60200101906001600160f81b031916908160001a9053506000611dc58460026126d7565b611dd09060016123d6565b90505b6001811115611e48576f181899199a1a9b1b9c1cb0b131b232b360811b85600f1660108110611e0457611e046123ee565b1a60f81b828281518110611e1a57611e1a6123ee565b60200101906001600160f81b031916908160001a90535060049490941c93611e418161292b565b9050611dd3565b5083156107f75760405162461bcd60e51b815260206004820181905260248201527f537472696e67733a20686578206c656e67746820696e73756666696369656e746044820152606401610460565b6000818152600183016020526040812054611ede575081546001818101845560008481526020808220909301849055845484825282860190935260409020919091556103c4565b5060006103c4565b60008181526001830160205260408120548015611fcf576000611f0a6001836123bf565b8554909150600090611f1e906001906123bf565b9050818114611f83576000866000018281548110611f3e57611f3e6123ee565b9060005260206000200154905080876000018481548110611f6157611f616123ee565b6000918252602080832090910192909255918252600188019052604090208390555b8554869080611f9457611f94612942565b6001900381819060005260206000200160009055905585600101600086815260200190815260200160002060009055600193505050506103c4565b60009150506103c4565b60006107f78383611ffd565b60006107f78383611e97565b60006107f78383611ee6565b600081815260018301602052604081205415156107f7565b604051806101000160405280600081526020016000815260200160008152602001600081526020016120766040518060c001604052806000815260200160008152602001600081526020016000815260200160008152602001600081525090565b81526020016120b46040518060c001604052806000815260200160008152602001600081526020016000815260200160008152602001600081525090565b81526020016120dd60405180606001604052806000815260200160008152602001600081525090565b815260200161210d6040518060800160405280600081526020016000815260200160008152602001600081525090565b905290565b60006020828403121561212457600080fd5b81356001600160e01b0319811681146107f757600080fd5b60006020828403121561214e57600080fd5b5035919050565b6001600160a01b038116811461049757600080fd5b6000806040838503121561217d57600080fd5b82359150602083013561218f81612155565b809150509250929050565b600080604083850312156121ad57600080fd5b82356121b881612155565b946020939093013593505050565b6000602082840312156121d857600080fd5b81356107f781612155565b600080604083850312156121f657600080fd5b50508035926020909101359150565b606080825284519082018190526000906020906080840190828801845b828110156122475781516001600160a01b031684529284019290840190600101612222565b5050508381038285015285518082528683019183019060005b8181101561227c57835183529284019291840191600101612260565b5050809350505050826040830152949350505050565b634e487b7160e01b600052604160045260246000fd5b604051610100810167ffffffffffffffff811182821017156122cc576122cc612292565b60405290565b604051601f8201601f1916810167ffffffffffffffff811182821017156122fb576122fb612292565b604052919050565b6000602080838503121561231657600080fd5b823567ffffffffffffffff8082111561232e57600080fd5b818501915085601f83011261234257600080fd5b81358181111561235457612354612292565b8060051b91506123658483016122d2565b818152918301840191848101908884111561237f57600080fd5b938501935b8385101561239d57843582529385019390850190612384565b98975050505050505050565b634e487b7160e01b600052601160045260246000fd5b6000828210156123d1576123d16123a9565b500390565b600082198211156123e9576123e96123a9565b500190565b634e487b7160e01b600052603260045260246000fd5b6000600019821415612418576124186123a9565b5060010190565b60006020828403121561243157600080fd5b81516107f781612155565b600060c0828403121561244e57600080fd5b60405160c0810181811067ffffffffffffffff8211171561247157612471612292565b8060405250809150825181526020830151602082015260408301516040820152606083015160608201526080830151608082015260a083015160a08201525092915050565b6000606082840312156124c857600080fd5b6040516060810181811067ffffffffffffffff821117156124eb576124eb612292565b80604052508091508251815260208301516020820152604083015160408201525092915050565b60006080828403121561252457600080fd5b6040516080810181811067ffffffffffffffff8211171561254757612547612292565b8060405250809150825181526020830151602082015260408301516040820152606083015160608201525092915050565b60006102e0828403121561258b57600080fd5b6125936122a8565b825181526020830151602082015260408301516040820152606083015160608201526125c2846080850161243c565b60808201526125d584610140850161243c565b60a08201526125e88461020085016124b6565b60c08201526125fb846102608501612512565b60e08201529392505050565b805182526020810151602083015260408101516040830152606081015160608301526080810151608083015260a081015160a083015260c081015160c08301525050565b6001600160a01b038316815261010081016107f76020830184612607565b8481526020810184905260408101839052610140810161112d6060830184612607565b6020808252602b908201527f496e697469616c697a61626c653a20636f6e7472616374206973206e6f74206960408201526a6e697469616c697a696e6760a81b606082015260800190565b60008160001904831182151516156126f1576126f16123a9565b500290565b600181815b80851115611a33578160001904821115612717576127176123a9565b8085161561272457918102915b93841c93908002906126fb565b600082612740575060016103c4565b8161274d575060006103c4565b8160018114612763576002811461276d57612789565b60019150506103c4565b60ff84111561277e5761277e6123a9565b50506001821b6103c4565b5060208310610133831016604e8410600b84101617156127ac575081810a6103c4565b6127b683836126f6565b80600019048211156127ca576127ca6123a9565b029392505050565b60006107f78383612731565b634e487b7160e01b600052601260045260246000fd5b600082612803576128036127de565b500490565b60006020828403121561281a57600080fd5b815180151581146107f757600080fd5b60006020828403121561283c57600080fd5b5051919050565b600082612852576128526127de565b500690565b60005b8381101561287257818101518382015260200161285a565b838111156107d95750506000910152565b7f416363657373436f6e74726f6c3a206163636f756e74200000000000000000008152600083516128bb816017850160208801612857565b7001034b99036b4b9b9b4b733903937b6329607d1b60179184019182015283516128ec816028840160208801612857565b01602801949350505050565b6020815260008251806020840152612917816040850160208701612857565b601f01601f19169190910160400192915050565b60008161293a5761293a6123a9565b506000190190565b634e487b7160e01b600052603160045260246000fdfea49807205ce4d355092ef5a8a18f56e8913cf4a201fbe287825b095693c21775a26469706673582212207cc2829f03e9b9e3d1348382a9fe32a6e625e4220f5ec4bfdbe2464adcd08e3464736f6c63430008090033",
  "linkReferences": {},
  "deployedLinkReferences": {}
}