{
  "_format": "hh-sol-artifact-1",
  "contractName": "BreederBetty",
  "sourceName": "contracts/npc/BreederBetty/BreederBetty.sol",
  "abi": [
    {
      "inputs": [],
      "stateMutability": "nonpayable",
      "type": "constructor"
    },
    {
      "anonymous": false,
      "inputs": [
        {
          "indexed": true,
          "internalType": "address",
          "name": "from",
          "type": "address"
        },
        {
          "indexed": false,
          "internalType": "uint256",
          "name": "cost",
          "type": "uint256"
        },
        {
          "indexed": false,
          "internalType": "uint256",
          "name": "parent1",
          "type": "uint256"
        },
        {
          "indexed": false,
          "internalType": "uint256",
          "name": "parent2",
          "type": "uint256"
        },
        {
          "components": [
            {
              "internalType": "uint256",
              "name": "tokenId",
              "type": "uint256"
            },
            {
              "internalType": "uint256",
              "name": "species",
              "type": "uint256"
            },
            {
              "internalType": "uint256",
              "name": "generation",
              "type": "uint256"
            },
            {
              "internalType": "uint256",
              "name": "parent1",
              "type": "uint256"
            },
            {
              "internalType": "uint256",
              "name": "parent2",
              "type": "uint256"
            },
            {
              "internalType": "uint256",
              "name": "treated",
              "type": "uint256"
            },
            {
              "internalType": "uint256",
              "name": "createdAt",
              "type": "uint256"
            }
          ],
          "indexed": false,
          "internalType": "struct EvoStructs.Egg",
          "name": "evoEgg",
          "type": "tuple"
        }
      ],
      "name": "EvoBred",
      "type": "event"
    },
    {
      "anonymous": false,
      "inputs": [
        {
          "indexed": false,
          "internalType": "uint8",
          "name": "version",
          "type": "uint8"
        }
      ],
      "name": "Initialized",
      "type": "event"
    },
    {
      "anonymous": false,
      "inputs": [
        {
          "indexed": false,
          "internalType": "address",
          "name": "account",
          "type": "address"
        }
      ],
      "name": "Paused",
      "type": "event"
    },
    {
      "anonymous": false,
      "inputs": [
        {
          "indexed": true,
          "internalType": "bytes32",
          "name": "role",
          "type": "bytes32"
        },
        {
          "indexed": true,
          "internalType": "bytes32",
          "name": "previousAdminRole",
          "type": "bytes32"
        },
        {
          "indexed": true,
          "internalType": "bytes32",
          "name": "newAdminRole",
          "type": "bytes32"
        }
      ],
      "name": "RoleAdminChanged",
      "type": "event"
    },
    {
      "anonymous": false,
      "inputs": [
        {
          "indexed": true,
          "internalType": "bytes32",
          "name": "role",
          "type": "bytes32"
        },
        {
          "indexed": true,
          "internalType": "address",
          "name": "account",
          "type": "address"
        },
        {
          "indexed": true,
          "internalType": "address",
          "name": "sender",
          "type": "address"
        }
      ],
      "name": "RoleGranted",
      "type": "event"
    },
    {
      "anonymous": false,
      "inputs": [
        {
          "indexed": true,
          "internalType": "bytes32",
          "name": "role",
          "type": "bytes32"
        },
        {
          "indexed": true,
          "internalType": "address",
          "name": "account",
          "type": "address"
        },
        {
          "indexed": true,
          "internalType": "address",
          "name": "sender",
          "type": "address"
        }
      ],
      "name": "RoleRevoked",
      "type": "event"
    },
    {
      "anonymous": false,
      "inputs": [
        {
          "indexed": false,
          "internalType": "address",
          "name": "account",
          "type": "address"
        }
      ],
      "name": "Unpaused",
      "type": "event"
    },
    {
      "inputs": [],
      "name": "ADMIN_ROLE",
      "outputs": [
        {
          "internalType": "bytes32",
          "name": "",
          "type": "bytes32"
        }
      ],
      "stateMutability": "view",
      "type": "function"
    },
    {
      "inputs": [],
      "name": "CONTRACT_ROLE",
      "outputs": [
        {
          "internalType": "bytes32",
          "name": "",
          "type": "bytes32"
        }
      ],
      "stateMutability": "view",
      "type": "function"
    },
    {
      "inputs": [],
      "name": "DEFAULT_ADMIN_ROLE",
      "outputs": [
        {
          "internalType": "bytes32",
          "name": "",
          "type": "bytes32"
        }
      ],
      "stateMutability": "view",
      "type": "function"
    },
    {
      "inputs": [
        {
          "internalType": "uint256[]",
          "name": "tokenIds",
          "type": "uint256[]"
        }
      ],
      "name": "breed",
      "outputs": [],
      "stateMutability": "payable",
      "type": "function"
    },
    {
      "inputs": [],
      "name": "getFeeShares",
      "outputs": [
        {
          "internalType": "address[]",
          "name": "destinations",
          "type": "address[]"
        },
        {
          "internalType": "uint256[]",
          "name": "shares",
          "type": "uint256[]"
        },
        {
          "internalType": "uint256",
          "name": "total",
          "type": "uint256"
        }
      ],
      "stateMutability": "view",
      "type": "function"
    },
    {
      "inputs": [
        {
          "internalType": "bytes32",
          "name": "role",
          "type": "bytes32"
        }
      ],
      "name": "getRoleAdmin",
      "outputs": [
        {
          "internalType": "bytes32",
          "name": "",
          "type": "bytes32"
        }
      ],
      "stateMutability": "view",
      "type": "function"
    },
    {
      "inputs": [
        {
          "internalType": "bytes32",
          "name": "role",
          "type": "bytes32"
        },
        {
          "internalType": "uint256",
          "name": "index",
          "type": "uint256"
        }
      ],
      "name": "getRoleMember",
      "outputs": [
        {
          "internalType": "address",
          "name": "",
          "type": "address"
        }
      ],
      "stateMutability": "view",
      "type": "function"
    },
    {
      "inputs": [
        {
          "internalType": "bytes32",
          "name": "role",
          "type": "bytes32"
        }
      ],
      "name": "getRoleMemberCount",
      "outputs": [
        {
          "internalType": "uint256",
          "name": "",
          "type": "uint256"
        }
      ],
      "stateMutability": "view",
      "type": "function"
    },
    {
      "inputs": [
        {
          "internalType": "bytes32",
          "name": "role",
          "type": "bytes32"
        },
        {
          "internalType": "address",
          "name": "account",
          "type": "address"
        }
      ],
      "name": "grantRole",
      "outputs": [],
      "stateMutability": "nonpayable",
      "type": "function"
    },
    {
      "inputs": [
        {
          "internalType": "bytes32",
          "name": "role",
          "type": "bytes32"
        },
        {
          "internalType": "address",
          "name": "account",
          "type": "address"
        }
      ],
      "name": "hasRole",
      "outputs": [
        {
          "internalType": "bool",
          "name": "",
          "type": "bool"
        }
      ],
      "stateMutability": "view",
      "type": "function"
    },
    {
      "inputs": [],
      "name": "initialize",
      "outputs": [],
      "stateMutability": "nonpayable",
      "type": "function"
    },
    {
      "inputs": [],
      "name": "pause",
      "outputs": [],
      "stateMutability": "nonpayable",
      "type": "function"
    },
    {
      "inputs": [],
      "name": "paused",
      "outputs": [
        {
          "internalType": "bool",
          "name": "",
          "type": "bool"
        }
      ],
      "stateMutability": "view",
      "type": "function"
    },
    {
      "inputs": [
        {
          "internalType": "address",
          "name": "destination",
          "type": "address"
        }
      ],
      "name": "removeFeeShare",
      "outputs": [],
      "stateMutability": "nonpayable",
      "type": "function"
    },
    {
      "inputs": [
        {
          "internalType": "bytes32",
          "name": "role",
          "type": "bytes32"
        },
        {
          "internalType": "address",
          "name": "account",
          "type": "address"
        }
      ],
      "name": "renounceRole",
      "outputs": [],
      "stateMutability": "nonpayable",
      "type": "function"
    },
    {
      "inputs": [
        {
          "internalType": "bytes32",
          "name": "role",
          "type": "bytes32"
        },
        {
          "internalType": "address",
          "name": "account",
          "type": "address"
        }
      ],
      "name": "revokeRole",
      "outputs": [],
      "stateMutability": "nonpayable",
      "type": "function"
    },
    {
      "inputs": [
        {
          "internalType": "address",
          "name": "destination",
          "type": "address"
        },
        {
          "internalType": "uint256",
          "name": "share",
          "type": "uint256"
        }
      ],
      "name": "setFeeShare",
      "outputs": [],
      "stateMutability": "nonpayable",
      "type": "function"
    },
    {
      "inputs": [
        {
          "internalType": "bytes4",
          "name": "interfaceId",
          "type": "bytes4"
        }
      ],
      "name": "supportsInterface",
      "outputs": [
        {
          "internalType": "bool",
          "name": "",
          "type": "bool"
        }
      ],
      "stateMutability": "view",
      "type": "function"
    },
    {
      "inputs": [],
      "name": "unpause",
      "outputs": [],
      "stateMutability": "nonpayable",
      "type": "function"
    }
  ],
  "bytecode": "0x60806040523480156200001157600080fd5b506200001c62000022565b620000e4565b600054610100900460ff16156200008f5760405162461bcd60e51b815260206004820152602760248201527f496e697469616c697a61626c653a20636f6e747261637420697320696e697469604482015266616c697a696e6760c81b606482015260840160405180910390fd5b60005460ff9081161015620000e2576000805460ff191660ff9081179091556040519081527f7f26b83ff96e1f2b6a682f133852f6798a09c465da95921460cefb38474024989060200160405180910390a15b565b6129b680620000f46000396000f3fe6080604052600436106101145760003560e01c80638129fc1c116100a0578063a217fddf11610064578063a217fddf14610313578063ca15c87314610328578063d547741f14610348578063eb266fa814610368578063eb6cad411461038c57600080fd5b80638129fc1c146102715780638456cb5914610286578063874e077a1461029b5780639010d07c146102bb57806391d14854146102f357600080fd5b806336568abe116100e757806336568abe146101e25780633f4ba83a14610202578063564f360e146102175780635c975abb1461023757806375b238fc1461024f57600080fd5b806301ffc9a71461011957806303fe46ab1461014e578063248a9ca3146101905780632f2ff15d146101c0575b600080fd5b34801561012557600080fd5b5061013961013436600461211a565b61039f565b60405190151581526020015b60405180910390f35b34801561015a57600080fd5b506101827f364d3d7565c7a8300c96fd53e065d19b65848d7b23b3191adcd55621c744223c81565b604051908152602001610145565b34801561019c57600080fd5b506101826101ab366004612144565b60009081526097602052604090206001015490565b3480156101cc57600080fd5b506101e06101db366004612172565b6103ca565b005b3480156101ee57600080fd5b506101e06101fd366004612172565b6103f4565b34801561020e57600080fd5b506101e0610477565b34801561022357600080fd5b506101e06102323660046121a2565b61049a565b34801561024357600080fd5b5060335460ff16610139565b34801561025b57600080fd5b5061018260008051602061296183398151915281565b34801561027d57600080fd5b506101e0610544565b34801561029257600080fd5b506101e0610760565b3480156102a757600080fd5b506101e06102b63660046121ce565b610780565b3480156102c757600080fd5b506102db6102d63660046121eb565b6107df565b6040516001600160a01b039091168152602001610145565b3480156102ff57600080fd5b5061013961030e366004612172565b6107fe565b34801561031f57600080fd5b50610182600081565b34801561033457600080fd5b50610182610343366004612144565b610829565b34801561035457600080fd5b506101e0610363366004612172565b610840565b34801561037457600080fd5b5061037d610865565b6040516101459392919061220d565b6101e061039a36600461230b565b61097d565b60006001600160e01b03198216635a05180f60e01b14806103c457506103c482610e09565b92915050565b6000828152609760205260409020600101546103e581610e3e565b6103ef8383610e48565b505050565b6001600160a01b03811633146104695760405162461bcd60e51b815260206004820152602f60248201527f416363657373436f6e74726f6c3a2063616e206f6e6c792072656e6f756e636560448201526e103937b632b9903337b91039b2b63360891b60648201526084015b60405180910390fd5b6104738282610e6a565b5050565b60008051602061296183398151915261048f81610e3e565b610497610e8c565b50565b6000805160206129618339815191526104b281610e3e565b6000806104c161012c86610ede565b90925090508115610516578084106104fa576104dd81856123c7565b61012f60008282546104ef91906123de565b9091555061052f9050565b61050484826123c7565b61012f60008282546104ef91906123c7565b8361012f600082825461052991906123de565b90915550505b61053c61012c8686610f05565b505050505050565b600054610100900460ff16158080156105645750600054600160ff909116105b8061057e5750303b15801561057e575060005460ff166001145b6105e15760405162461bcd60e51b815260206004820152602e60248201527f496e697469616c697a61626c653a20636f6e747261637420697320616c72656160448201526d191e481a5b9a5d1a585b1a5e995960921b6064820152608401610460565b6000805460ff191660011790558015610604576000805461ff0019166101001790555b61060c610f23565b610614610f54565b61063173c8849f32138de93f6097199c5721a9efd91cee01610f7b565b61063c600033610e48565b61065460008051602061296183398151915233610e48565b61067e7f364d3d7565c7a8300c96fd53e065d19b65848d7b23b3191adcd55621c744223c33610e48565b61019180546001600160a01b031990811673680e176b2bbdb2336063d0c82961bdb7a52cf13c1790915561019280548216733e9694a37846c864c67253af6f5d1f534ff3bf461790556101938054821673a3b63c50f0518aaacf5cf4720b773e1371d10ebf1790556101948054821673918ea0e87ef08a5931ad3777b8c0eb69e2ce37dd17905561019580549091166020602160991b011790558015610497576000805461ff0019169055604051600181527f7f26b83ff96e1f2b6a682f133852f6798a09c465da95921460cefb38474024989060200160405180910390a150565b60008051602061296183398151915261077881610e3e565b610497610fcd565b60008051602061296183398151915261079881610e3e565b6000806107a761012c85610ede565b909250905081156107d9578061012f60008282546107c591906123c7565b909155506107d7905061012c8561100a565b505b50505050565b600082815260c9602052604081206107f7908361101f565b9392505050565b60009182526097602090815260408084206001600160a01b0393909316845291905290205460ff1690565b600081815260c9602052604081206103c49061102b565b60008281526097602052604090206001015461085b81610e3e565b6103ef8383610e6a565b61012f546060908190600061087b61012c611035565b90508067ffffffffffffffff8111156108965761089661229a565b6040519080825280602002602001820160405280156108bf578160200160208202803683370190505b5093508067ffffffffffffffff8111156108db576108db61229a565b604051908082528060200260200182016040528015610904578160200160208202803683370190505b50925060005b818110156109765761091e61012c82611040565b868381518110610930576109306123f6565b60200260200101868481518110610949576109496123f6565b60209081029190910101919091526001600160a01b0390911690528061096e8161240c565b91505061090a565b5050909192565b61098561104f565b80516002146109ce5760405162461bcd60e51b8152602060048201526015602482015274125b9d985b1a59081d1bdad95b92590818dbdd5b9d605a1b6044820152606401610460565b806001815181106109e1576109e16123f6565b6020026020010151816000815181106109fc576109fc6123f6565b60200260200101511415610a495760405162461bcd60e51b815260206004820152601460248201527321b0b73a10313932b2b2103bb4ba341039b2b63360611b6044820152606401610460565b60408051600280825260608201909252600091829190816020015b610a6c61201d565b815260200190600190039081610a6457905050905060005b8351811015610d045761019254845133916001600160a01b031690636352211e90879085908110610ab757610ab76123f6565b60200260200101516040518263ffffffff1660e01b8152600401610add91815260200190565b60206040518083038186803b158015610af557600080fd5b505afa158015610b09573d6000803e3d6000fd5b505050506040513d601f19601f82011682018060405250810190610b2d9190612427565b6001600160a01b031614610b6f5760405162461bcd60e51b81526020600482015260096024820152682737ba1037bbb732b960b91b6044820152606401610460565b6101925484516000916001600160a01b03169063b791e67b90879085908110610b9a57610b9a6123f6565b60200260200101516040518263ffffffff1660e01b8152600401610bc091815260200190565b6102e06040518083038186803b158015610bd957600080fd5b505afa158015610bed573d6000803e3d6000fd5b505050506040513d601f19601f82011682018060405250810190610c119190612580565b9050610c1c81611095565b610c685760405162461bcd60e51b815260206004820152601b60248201527f45766f20686173206e6f206272656564732072656d61696e696e6700000000006044820152606401610460565b610c71816110bd565b610cbd5760405162461bcd60e51b815260206004820152601760248201527f45766f206973207374696c6c207265636f766572696e670000000000000000006044820152606401610460565b80838381518110610cd057610cd06123f6565b6020026020010181905250610ce481611118565b610cee90856123de565b9350508080610cfc9061240c565b915050610a84565b50610d0e81611184565b610d1782611328565b6000610d22826114ac565b61019354604051634b7ddec160e01b81529192506001600160a01b031690634b7ddec190610d569033908590600401612653565b600060405180830381600087803b158015610d7057600080fd5b505af1158015610d84573d6000803e3d6000fd5b50505050336001600160a01b03167f561177e6feb059a81b75aabeecbb5133913a936d9058c51e133ed9cbd89c45be8486600081518110610dc757610dc76123f6565b602002602001015187600181518110610de257610de26123f6565b602002602001015185604051610dfb9493929190612671565b60405180910390a250505050565b60006001600160e01b03198216637965db0b60e01b14806103c457506301ffc9a760e01b6001600160e01b03198316146103c4565b6104978133611883565b610e5282826118e7565b600082815260c9602052604090206103ef908261196d565b610e748282611982565b600082815260c9602052604090206103ef90826119e9565b610e946119fe565b6033805460ff191690557f5db9ee0a495bf2e6ff9c91a7834c1ba4fdd244a5e8aa4e537bd38aeae4b073aa335b6040516001600160a01b03909116815260200160405180910390a1565b6000808080610ef6866001600160a01b038716611a47565b909450925050505b9250929050565b6000610f1b846001600160a01b03851684611a89565b949350505050565b600054610100900460ff16610f4a5760405162461bcd60e51b815260040161046090612694565b610f52611aa6565b565b600054610100900460ff16610f525760405162461bcd60e51b815260040161046090612694565b600054610100900460ff16610fa25760405162461bcd60e51b815260040161046090612694565b610faa610f54565b61013080546001600160a01b0319166001600160a01b0392909216919091179055565b610fd561104f565b6033805460ff191660011790557f62e78cea01bee320cd4e420270b5ea74000d11b0c9f74754ebdbfc544b05a258610ec13390565b60006107f7836001600160a01b038416611ad9565b60006107f78383611af6565b60006103c4825490565b60006103c482611b20565b6000808080610ef68686611b2b565b60335460ff1615610f525760405162461bcd60e51b815260206004820152601060248201526f14185d5cd8589b194e881c185d5cd95960821b6044820152606401610460565b60408101516000906005906110ad5750600192915050565b60c0909201515191909110919050565b604081015160009062093a80906201518090600611156110f65760408401516110e990620151806126df565b6110f390836123c7565b90505b6000818560c001516040015161110c91906123de565b42101595945050505050565b6040810151600090680d8d726b7177a800009082906111389060026127da565b61114290836126df565b60c08501515160408601519192509015801561115e5750600481115b15611167575060045b61117181836126df565b61117b90836123de565b95945050505050565b600081600081518110611199576111996123f6565b60200260200101516080015190506000826001815181106111bc576111bc6123f6565b60200260200101516080015190508060000151826000015114156112315760405162461bcd60e51b815260206004820152602660248201527f4272656564657242657474793a3a45766f7320617265207468652073616d652060448201526533b2b73232b960d11b6064820152608401610460565b600081604001518360400151141561124b575060016112cf565b60008360600151118015611266575081604001518360600151145b15611273575060016112cf565b6000826060015111801561128e575082604001518260600151145b1561129b575060016112cf565b600083606001511180156112b3575060008260600151115b80156112c6575081606001518360600151145b156112cf575060015b806107d95760405162461bcd60e51b815260206004820152602360248201527f4272656564657242657474793a3a45766f732061726520696e636f6d70617469604482015262626c6560e81b6064820152608401610460565b600061133561012c611035565b905060005b818110156103ef5760008061135161012c84611040565b61012f54919350915060009061136783886126df565b61137191906127fc565b90506001600160a01b0383166113f957610130546001600160a01b03166379cc6790336040516001600160e01b031960e084901b1681526001600160a01b03909116600482015260248101849052604401600060405180830381600087803b1580156113dc57600080fd5b505af11580156113f0573d6000803e3d6000fd5b50505050611496565b610130546001600160a01b03166323b872dd336040516001600160e01b031960e084901b1681526001600160a01b039182166004820152908616602482015260448101849052606401602060405180830381600087803b15801561145c57600080fd5b505af1158015611470573d6000803e3d6000fd5b505050506040513d601f19601f820116820180604052508101906114949190612810565b505b50505080806114a49061240c565b91505061133a565b6114ec6040518060e00160405280600081526020016000815260200160008152602001600081526020016000815260200160008152602001600081525090565b60005b8251811015611634576101925483516001600160a01b0390911690634bb8fd6490859084908110611522576115226123f6565b6020908102919091010151516040516001600160e01b031960e084901b16815260048101919091526006602482015260016044820152606401600060405180830381600087803b15801561157557600080fd5b505af1158015611589573d6000803e3d6000fd5b50506101925485516001600160a01b03909116925063fd5eea4e91508590849081106115b7576115b76123f6565b6020908102919091010151516040516001600160e01b031960e084901b1681526004810191909152600f6024820152426044820152606401600060405180830381600087803b15801561160957600080fd5b505af115801561161d573d6000803e3d6000fd5b50505050808061162c9061240c565b9150506114ef565b5061163d611b56565b610191546040805163604a6fa960e01b815290516000926001600160a01b03169163604a6fa991600480830192602092919082900301818787803b15801561168457600080fd5b505af1158015611698573d6000803e3d6000fd5b505050506040513d601f19601f820116820180604052508101906116bc9190612832565b905060006116cc6103e88361284b565b90506000846001815181106116e3576116e36123f6565b60200260200101516020015185600081518110611702576117026123f6565b60200260200101516020015114801561171d57506101f48211155b156117485784600081518110611735576117356123f6565b6020026020010151602001519050611800565b607d8210156117645784600081518110611735576117356123f6565b60fa8210156117805784600181518110611735576117356123f6565b61019454604051631f5ee9fd60e01b8152600481018590526001600160a01b0390911690631f5ee9fd9060240160206040518083038186803b1580156117c557600080fd5b505afa1580156117d9573d6000803e3d6000fd5b505050506040513d601f19601f820116820180604052508101906117fd9190612832565b90505b6040518060e001604052806000815260200182815260200161182187611c8c565b815260200186600081518110611839576118396123f6565b60200260200101516000015181526020018660018151811061185d5761185d6123f6565b602002602001015160000151815260200160008152602001428152509350505050919050565b61188d82826107fe565b610473576118a5816001600160a01b03166014611d03565b6118b0836020611d03565b6040516020016118c192919061288b565b60408051601f198184030181529082905262461bcd60e51b825261046091600401612900565b6118f182826107fe565b6104735760008281526097602090815260408083206001600160a01b03851684529091529020805460ff191660011790556119293390565b6001600160a01b0316816001600160a01b0316837f2f8788117e7eff1d82e926ec794901d17c78024a50270940304540a733656f0d60405160405180910390a45050565b60006107f7836001600160a01b038416611e9f565b61198c82826107fe565b156104735760008281526097602090815260408083206001600160a01b0385168085529252808320805460ff1916905551339285917ff6391f5c32d9c69d2a47ea670b442974b53935d1edc7fd64eb21e047a839171b9190a45050565b60006107f7836001600160a01b038416611eee565b60335460ff16610f525760405162461bcd60e51b815260206004820152601460248201527314185d5cd8589b194e881b9bdd081c185d5cd95960621b6044820152606401610460565b6000818152600283016020526040812054819080611a7657611a698585611fe1565b925060009150610efe9050565b600192509050610efe565b509250929050565b60008281526002840160205260408120829055610f1b8484611fed565b600054610100900460ff16611acd5760405162461bcd60e51b815260040161046090612694565b6033805460ff19169055565b600081815260028301602052604081208190556107f78383611ff9565b6000826000018281548110611b0d57611b0d6123f6565b9060005260206000200154905092915050565b60006103c48261102b565b60008080611b39858561101f565b600081815260029690960160205260409095205494959350505050565b6101955460408051637126fe6f60e11b815290516000926001600160a01b03169163e24dfcde916004808301926020929190829003018186803b158015611b9c57600080fd5b505afa158015611bb0573d6000803e3d6000fd5b505050506040513d601f19601f82011682018060405250810190611bd49190612832565b9050803414611c255760405162461bcd60e51b815260206004820152601760248201527f496e73756666696369656e7420547572696e67204665650000000000000000006044820152606401610460565b6101955461019154604051631fb1244f60e31b8152600481018490526001600160a01b03918216602482015291169063fd8922789083906044016000604051808303818588803b158015611c7857600080fd5b505af115801561053c573d6000803e3d6000fd5b60008082600081518110611ca257611ca26123f6565b60200260200101516040015190508083600181518110611cc457611cc46123f6565b6020026020010151604001511115611cf85782600181518110611ce957611ce96123f6565b60200260200101516040015190505b6107f78160016123de565b60606000611d128360026126df565b611d1d9060026123de565b67ffffffffffffffff811115611d3557611d3561229a565b6040519080825280601f01601f191660200182016040528015611d5f576020820181803683370190505b509050600360fc1b81600081518110611d7a57611d7a6123f6565b60200101906001600160f81b031916908160001a905350600f60fb1b81600181518110611da957611da96123f6565b60200101906001600160f81b031916908160001a9053506000611dcd8460026126df565b611dd89060016123de565b90505b6001811115611e50576f181899199a1a9b1b9c1cb0b131b232b360811b85600f1660108110611e0c57611e0c6123f6565b1a60f81b828281518110611e2257611e226123f6565b60200101906001600160f81b031916908160001a90535060049490941c93611e4981612933565b9050611ddb565b5083156107f75760405162461bcd60e51b815260206004820181905260248201527f537472696e67733a20686578206c656e67746820696e73756666696369656e746044820152606401610460565b6000818152600183016020526040812054611ee6575081546001818101845560008481526020808220909301849055845484825282860190935260409020919091556103c4565b5060006103c4565b60008181526001830160205260408120548015611fd7576000611f126001836123c7565b8554909150600090611f26906001906123c7565b9050818114611f8b576000866000018281548110611f4657611f466123f6565b9060005260206000200154905080876000018481548110611f6957611f696123f6565b6000918252602080832090910192909255918252600188019052604090208390555b8554869080611f9c57611f9c61294a565b6001900381819060005260206000200160009055905585600101600086815260200190815260200160002060009055600193505050506103c4565b60009150506103c4565b60006107f78383612005565b60006107f78383611e9f565b60006107f78383611eee565b600081815260018301602052604081205415156107f7565b6040518061010001604052806000815260200160008152602001600081526020016000815260200161207e6040518060c001604052806000815260200160008152602001600081526020016000815260200160008152602001600081525090565b81526020016120bc6040518060c001604052806000815260200160008152602001600081526020016000815260200160008152602001600081525090565b81526020016120e560405180606001604052806000815260200160008152602001600081525090565b81526020016121156040518060800160405280600081526020016000815260200160008152602001600081525090565b905290565b60006020828403121561212c57600080fd5b81356001600160e01b0319811681146107f757600080fd5b60006020828403121561215657600080fd5b5035919050565b6001600160a01b038116811461049757600080fd5b6000806040838503121561218557600080fd5b8235915060208301356121978161215d565b809150509250929050565b600080604083850312156121b557600080fd5b82356121c08161215d565b946020939093013593505050565b6000602082840312156121e057600080fd5b81356107f78161215d565b600080604083850312156121fe57600080fd5b50508035926020909101359150565b606080825284519082018190526000906020906080840190828801845b8281101561224f5781516001600160a01b03168452928401929084019060010161222a565b5050508381038285015285518082528683019183019060005b8181101561228457835183529284019291840191600101612268565b5050809350505050826040830152949350505050565b634e487b7160e01b600052604160045260246000fd5b604051610100810167ffffffffffffffff811182821017156122d4576122d461229a565b60405290565b604051601f8201601f1916810167ffffffffffffffff811182821017156123035761230361229a565b604052919050565b6000602080838503121561231e57600080fd5b823567ffffffffffffffff8082111561233657600080fd5b818501915085601f83011261234a57600080fd5b81358181111561235c5761235c61229a565b8060051b915061236d8483016122da565b818152918301840191848101908884111561238757600080fd5b938501935b838510156123a55784358252938501939085019061238c565b98975050505050505050565b634e487b7160e01b600052601160045260246000fd5b6000828210156123d9576123d96123b1565b500390565b600082198211156123f1576123f16123b1565b500190565b634e487b7160e01b600052603260045260246000fd5b6000600019821415612420576124206123b1565b5060010190565b60006020828403121561243957600080fd5b81516107f78161215d565b600060c0828403121561245657600080fd5b60405160c0810181811067ffffffffffffffff821117156124795761247961229a565b8060405250809150825181526020830151602082015260408301516040820152606083015160608201526080830151608082015260a083015160a08201525092915050565b6000606082840312156124d057600080fd5b6040516060810181811067ffffffffffffffff821117156124f3576124f361229a565b80604052508091508251815260208301516020820152604083015160408201525092915050565b60006080828403121561252c57600080fd5b6040516080810181811067ffffffffffffffff8211171561254f5761254f61229a565b8060405250809150825181526020830151602082015260408301516040820152606083015160608201525092915050565b60006102e0828403121561259357600080fd5b61259b6122b0565b825181526020830151602082015260408301516040820152606083015160608201526125ca8460808501612444565b60808201526125dd846101408501612444565b60a08201526125f08461020085016124be565b60c082015261260384610260850161251a565b60e08201529392505050565b805182526020810151602083015260408101516040830152606081015160608301526080810151608083015260a081015160a083015260c081015160c08301525050565b6001600160a01b038316815261010081016107f7602083018461260f565b8481526020810184905260408101839052610140810161117b606083018461260f565b6020808252602b908201527f496e697469616c697a61626c653a20636f6e7472616374206973206e6f74206960408201526a6e697469616c697a696e6760a81b606082015260800190565b60008160001904831182151516156126f9576126f96123b1565b500290565b600181815b80851115611a8157816000190482111561271f5761271f6123b1565b8085161561272c57918102915b93841c9390800290612703565b600082612748575060016103c4565b81612755575060006103c4565b816001811461276b576002811461277557612791565b60019150506103c4565b60ff841115612786576127866123b1565b50506001821b6103c4565b5060208310610133831016604e8410600b84101617156127b4575081810a6103c4565b6127be83836126fe565b80600019048211156127d2576127d26123b1565b029392505050565b60006107f78383612739565b634e487b7160e01b600052601260045260246000fd5b60008261280b5761280b6127e6565b500490565b60006020828403121561282257600080fd5b815180151581146107f757600080fd5b60006020828403121561284457600080fd5b5051919050565b60008261285a5761285a6127e6565b500690565b60005b8381101561287a578181015183820152602001612862565b838111156107d95750506000910152565b7f416363657373436f6e74726f6c3a206163636f756e74200000000000000000008152600083516128c381601785016020880161285f565b7001034b99036b4b9b9b4b733903937b6329607d1b60179184019182015283516128f481602884016020880161285f565b01602801949350505050565b602081526000825180602084015261291f81604085016020870161285f565b601f01601f19169190910160400192915050565b600081612942576129426123b1565b506000190190565b634e487b7160e01b600052603160045260246000fdfea49807205ce4d355092ef5a8a18f56e8913cf4a201fbe287825b095693c21775a2646970667358221220967a25b73f3b94df5c7a2845eb49216453949643923bf903ecb9d8fa36d1f2fd64736f6c63430008090033",
  "linkReferences": {},
  "deployedLinkReferences": {}
}