{
  "_format": "hh-sol-artifact-1",
  "contractName": "EvoEgg",
  "sourceName": "contracts/ERC721/EvoEgg/EvoEgg.sol",
  "abi": [
    {
      "inputs": [],
      "stateMutability": "nonpayable",
      "type": "constructor"
    },
    {
      "anonymous": false,
      "inputs": [
        {
          "indexed": true,
          "internalType": "address",
          "name": "owner",
          "type": "address"
        },
        {
          "indexed": true,
          "internalType": "address",
          "name": "approved",
          "type": "address"
        },
        {
          "indexed": true,
          "internalType": "uint256",
          "name": "tokenId",
          "type": "uint256"
        }
      ],
      "name": "Approval",
      "type": "event"
    },
    {
      "anonymous": false,
      "inputs": [
        {
          "indexed": true,
          "internalType": "address",
          "name": "owner",
          "type": "address"
        },
        {
          "indexed": true,
          "internalType": "address",
          "name": "operator",
          "type": "address"
        },
        {
          "indexed": false,
          "internalType": "bool",
          "name": "approved",
          "type": "bool"
        }
      ],
      "name": "ApprovalForAll",
      "type": "event"
    },
    {
      "anonymous": false,
      "inputs": [
        {
          "indexed": true,
          "internalType": "uint256",
          "name": "tokenId",
          "type": "uint256"
        },
        {
          "indexed": false,
          "internalType": "uint256",
          "name": "attributeId",
          "type": "uint256"
        },
        {
          "indexed": false,
          "internalType": "string",
          "name": "value",
          "type": "string"
        }
      ],
      "name": "EggAttributeStringUpdated",
      "type": "event"
    },
    {
      "anonymous": false,
      "inputs": [
        {
          "indexed": true,
          "internalType": "uint256",
          "name": "tokenId",
          "type": "uint256"
        },
        {
          "indexed": false,
          "internalType": "uint256[]",
          "name": "attributeIds",
          "type": "uint256[]"
        },
        {
          "indexed": false,
          "internalType": "string[]",
          "name": "value",
          "type": "string[]"
        }
      ],
      "name": "EggAttributeStringsUpdated",
      "type": "event"
    },
    {
      "anonymous": false,
      "inputs": [
        {
          "indexed": true,
          "internalType": "uint256",
          "name": "tokenId",
          "type": "uint256"
        },
        {
          "indexed": false,
          "internalType": "uint256",
          "name": "attributeId",
          "type": "uint256"
        },
        {
          "indexed": false,
          "internalType": "uint256",
          "name": "value",
          "type": "uint256"
        }
      ],
      "name": "EggAttributeUpdated",
      "type": "event"
    },
    {
      "anonymous": false,
      "inputs": [
        {
          "indexed": true,
          "internalType": "uint256",
          "name": "tokenId",
          "type": "uint256"
        },
        {
          "indexed": false,
          "internalType": "uint256[]",
          "name": "attributeId",
          "type": "uint256[]"
        },
        {
          "indexed": false,
          "internalType": "uint256[]",
          "name": "value",
          "type": "uint256[]"
        }
      ],
      "name": "EggAttributesUpdated",
      "type": "event"
    },
    {
      "anonymous": false,
      "inputs": [
        {
          "indexed": false,
          "internalType": "uint8",
          "name": "version",
          "type": "uint8"
        }
      ],
      "name": "Initialized",
      "type": "event"
    },
    {
      "anonymous": false,
      "inputs": [
        {
          "indexed": false,
          "internalType": "address",
          "name": "account",
          "type": "address"
        }
      ],
      "name": "Paused",
      "type": "event"
    },
    {
      "anonymous": false,
      "inputs": [
        {
          "indexed": true,
          "internalType": "bytes32",
          "name": "role",
          "type": "bytes32"
        },
        {
          "indexed": true,
          "internalType": "bytes32",
          "name": "previousAdminRole",
          "type": "bytes32"
        },
        {
          "indexed": true,
          "internalType": "bytes32",
          "name": "newAdminRole",
          "type": "bytes32"
        }
      ],
      "name": "RoleAdminChanged",
      "type": "event"
    },
    {
      "anonymous": false,
      "inputs": [
        {
          "indexed": true,
          "internalType": "bytes32",
          "name": "role",
          "type": "bytes32"
        },
        {
          "indexed": true,
          "internalType": "address",
          "name": "account",
          "type": "address"
        },
        {
          "indexed": true,
          "internalType": "address",
          "name": "sender",
          "type": "address"
        }
      ],
      "name": "RoleGranted",
      "type": "event"
    },
    {
      "anonymous": false,
      "inputs": [
        {
          "indexed": true,
          "internalType": "bytes32",
          "name": "role",
          "type": "bytes32"
        },
        {
          "indexed": true,
          "internalType": "address",
          "name": "account",
          "type": "address"
        },
        {
          "indexed": true,
          "internalType": "address",
          "name": "sender",
          "type": "address"
        }
      ],
      "name": "RoleRevoked",
      "type": "event"
    },
    {
      "anonymous": false,
      "inputs": [
        {
          "indexed": true,
          "internalType": "address",
          "name": "from",
          "type": "address"
        },
        {
          "indexed": true,
          "internalType": "address",
          "name": "to",
          "type": "address"
        },
        {
          "indexed": true,
          "internalType": "uint256",
          "name": "tokenId",
          "type": "uint256"
        }
      ],
      "name": "Transfer",
      "type": "event"
    },
    {
      "anonymous": false,
      "inputs": [
        {
          "indexed": false,
          "internalType": "address",
          "name": "account",
          "type": "address"
        }
      ],
      "name": "Unpaused",
      "type": "event"
    },
    {
      "inputs": [],
      "name": "ADMIN_ROLE",
      "outputs": [
        {
          "internalType": "bytes32",
          "name": "",
          "type": "bytes32"
        }
      ],
      "stateMutability": "view",
      "type": "function"
    },
    {
      "inputs": [],
      "name": "CONTRACT_ROLE",
      "outputs": [
        {
          "internalType": "bytes32",
          "name": "",
          "type": "bytes32"
        }
      ],
      "stateMutability": "view",
      "type": "function"
    },
    {
      "inputs": [],
      "name": "DEFAULT_ADMIN_ROLE",
      "outputs": [
        {
          "internalType": "bytes32",
          "name": "",
          "type": "bytes32"
        }
      ],
      "stateMutability": "view",
      "type": "function"
    },
    {
      "inputs": [],
      "name": "MINTER_ROLE",
      "outputs": [
        {
          "internalType": "bytes32",
          "name": "",
          "type": "bytes32"
        }
      ],
      "stateMutability": "view",
      "type": "function"
    },
    {
      "inputs": [
        {
          "internalType": "address",
          "name": "_address",
          "type": "address"
        }
      ],
      "name": "addBlacklist",
      "outputs": [],
      "stateMutability": "nonpayable",
      "type": "function"
    },
    {
      "inputs": [
        {
          "internalType": "uint256",
          "name": "tokenId",
          "type": "uint256"
        },
        {
          "internalType": "uint256",
          "name": "attributeId",
          "type": "uint256"
        },
        {
          "internalType": "uint256",
          "name": "value",
          "type": "uint256"
        }
      ],
      "name": "addToAttribute",
      "outputs": [],
      "stateMutability": "nonpayable",
      "type": "function"
    },
    {
      "inputs": [],
      "name": "animationBaseURI",
      "outputs": [
        {
          "internalType": "string",
          "name": "",
          "type": "string"
        }
      ],
      "stateMutability": "view",
      "type": "function"
    },
    {
      "inputs": [
        {
          "internalType": "address",
          "name": "to",
          "type": "address"
        },
        {
          "internalType": "uint256",
          "name": "tokenId",
          "type": "uint256"
        }
      ],
      "name": "approve",
      "outputs": [],
      "stateMutability": "nonpayable",
      "type": "function"
    },
    {
      "inputs": [
        {
          "internalType": "address",
          "name": "owner",
          "type": "address"
        }
      ],
      "name": "balanceOf",
      "outputs": [
        {
          "internalType": "uint256",
          "name": "",
          "type": "uint256"
        }
      ],
      "stateMutability": "view",
      "type": "function"
    },
    {
      "inputs": [
        {
          "internalType": "uint256",
          "name": "tokenId",
          "type": "uint256"
        },
        {
          "internalType": "uint256[]",
          "name": "attributeIds",
          "type": "uint256[]"
        },
        {
          "internalType": "uint256[]",
          "name": "values",
          "type": "uint256[]"
        }
      ],
      "name": "batchAddToAttribute",
      "outputs": [],
      "stateMutability": "nonpayable",
      "type": "function"
    },
    {
      "inputs": [
        {
          "internalType": "uint256",
          "name": "tokenId",
          "type": "uint256"
        },
        {
          "internalType": "uint256[]",
          "name": "attributeIds",
          "type": "uint256[]"
        },
        {
          "internalType": "uint256[]",
          "name": "values",
          "type": "uint256[]"
        }
      ],
      "name": "batchSetAttribute",
      "outputs": [],
      "stateMutability": "nonpayable",
      "type": "function"
    },
    {
      "inputs": [
        {
          "internalType": "uint256",
          "name": "attributeId",
          "type": "uint256"
        },
        {
          "internalType": "uint256[]",
          "name": "indices",
          "type": "uint256[]"
        },
        {
          "internalType": "string[]",
          "name": "values",
          "type": "string[]"
        }
      ],
      "name": "batchSetAttributeStrings",
      "outputs": [],
      "stateMutability": "nonpayable",
      "type": "function"
    },
    {
      "inputs": [
        {
          "internalType": "uint256[]",
          "name": "tokenIds",
          "type": "uint256[]"
        }
      ],
      "name": "batchTokenURI",
      "outputs": [
        {
          "internalType": "string[]",
          "name": "",
          "type": "string[]"
        }
      ],
      "stateMutability": "view",
      "type": "function"
    },
    {
      "inputs": [
        {
          "internalType": "uint256[]",
          "name": "tokenIds",
          "type": "uint256[]"
        }
      ],
      "name": "checkTreated",
      "outputs": [
        {
          "internalType": "bool[]",
          "name": "",
          "type": "bool[]"
        }
      ],
      "stateMutability": "view",
      "type": "function"
    },
    {
      "inputs": [],
      "name": "getAllTokenIds",
      "outputs": [
        {
          "internalType": "uint256[]",
          "name": "",
          "type": "uint256[]"
        }
      ],
      "stateMutability": "view",
      "type": "function"
    },
    {
      "inputs": [
        {
          "internalType": "uint256",
          "name": "tokenId",
          "type": "uint256"
        }
      ],
      "name": "getApproved",
      "outputs": [
        {
          "internalType": "address",
          "name": "",
          "type": "address"
        }
      ],
      "stateMutability": "view",
      "type": "function"
    },
    {
      "inputs": [
        {
          "internalType": "uint256",
          "name": "tokenId",
          "type": "uint256"
        }
      ],
      "name": "getEgg",
      "outputs": [
        {
          "components": [
            {
              "internalType": "uint256",
              "name": "tokenId",
              "type": "uint256"
            },
            {
              "internalType": "uint256",
              "name": "species",
              "type": "uint256"
            },
            {
              "internalType": "uint256",
              "name": "generation",
              "type": "uint256"
            },
            {
              "internalType": "uint256",
              "name": "parent1",
              "type": "uint256"
            },
            {
              "internalType": "uint256",
              "name": "parent2",
              "type": "uint256"
            },
            {
              "internalType": "uint256",
              "name": "treated",
              "type": "uint256"
            },
            {
              "internalType": "uint256",
              "name": "createdAt",
              "type": "uint256"
            }
          ],
          "internalType": "struct EvoStructs.Egg",
          "name": "egg",
          "type": "tuple"
        }
      ],
      "stateMutability": "view",
      "type": "function"
    },
    {
      "inputs": [
        {
          "internalType": "bytes32",
          "name": "role",
          "type": "bytes32"
        }
      ],
      "name": "getRoleAdmin",
      "outputs": [
        {
          "internalType": "bytes32",
          "name": "",
          "type": "bytes32"
        }
      ],
      "stateMutability": "view",
      "type": "function"
    },
    {
      "inputs": [
        {
          "internalType": "bytes32",
          "name": "role",
          "type": "bytes32"
        },
        {
          "internalType": "uint256",
          "name": "index",
          "type": "uint256"
        }
      ],
      "name": "getRoleMember",
      "outputs": [
        {
          "internalType": "address",
          "name": "",
          "type": "address"
        }
      ],
      "stateMutability": "view",
      "type": "function"
    },
    {
      "inputs": [
        {
          "internalType": "bytes32",
          "name": "role",
          "type": "bytes32"
        }
      ],
      "name": "getRoleMemberCount",
      "outputs": [
        {
          "internalType": "uint256",
          "name": "",
          "type": "uint256"
        }
      ],
      "stateMutability": "view",
      "type": "function"
    },
    {
      "inputs": [
        {
          "internalType": "bytes32",
          "name": "role",
          "type": "bytes32"
        },
        {
          "internalType": "address",
          "name": "account",
          "type": "address"
        }
      ],
      "name": "grantRole",
      "outputs": [],
      "stateMutability": "nonpayable",
      "type": "function"
    },
    {
      "inputs": [
        {
          "internalType": "bytes32",
          "name": "role",
          "type": "bytes32"
        },
        {
          "internalType": "address",
          "name": "account",
          "type": "address"
        }
      ],
      "name": "hasRole",
      "outputs": [
        {
          "internalType": "bool",
          "name": "",
          "type": "bool"
        }
      ],
      "stateMutability": "view",
      "type": "function"
    },
    {
      "inputs": [
        {
          "internalType": "uint256",
          "name": "tokenId",
          "type": "uint256"
        }
      ],
      "name": "hatch",
      "outputs": [],
      "stateMutability": "nonpayable",
      "type": "function"
    },
    {
      "inputs": [],
      "name": "imageBaseURI",
      "outputs": [
        {
          "internalType": "string",
          "name": "",
          "type": "string"
        }
      ],
      "stateMutability": "view",
      "type": "function"
    },
    {
      "inputs": [
        {
          "internalType": "address",
          "name": "to",
          "type": "address"
        },
        {
          "components": [
            {
              "internalType": "uint256",
              "name": "tokenId",
              "type": "uint256"
            },
            {
              "internalType": "uint256",
              "name": "species",
              "type": "uint256"
            },
            {
              "internalType": "uint256",
              "name": "generation",
              "type": "uint256"
            },
            {
              "internalType": "uint256",
              "name": "parent1",
              "type": "uint256"
            },
            {
              "internalType": "uint256",
              "name": "parent2",
              "type": "uint256"
            },
            {
              "internalType": "uint256",
              "name": "treated",
              "type": "uint256"
            },
            {
              "internalType": "uint256",
              "name": "createdAt",
              "type": "uint256"
            }
          ],
          "internalType": "struct EvoStructs.Egg",
          "name": "egg",
          "type": "tuple"
        }
      ],
      "name": "incubate",
      "outputs": [],
      "stateMutability": "nonpayable",
      "type": "function"
    },
    {
      "inputs": [],
      "name": "initialize",
      "outputs": [],
      "stateMutability": "nonpayable",
      "type": "function"
    },
    {
      "inputs": [
        {
          "internalType": "address",
          "name": "owner",
          "type": "address"
        },
        {
          "internalType": "address",
          "name": "operator",
          "type": "address"
        }
      ],
      "name": "isApprovedForAll",
      "outputs": [
        {
          "internalType": "bool",
          "name": "",
          "type": "bool"
        }
      ],
      "stateMutability": "view",
      "type": "function"
    },
    {
      "inputs": [],
      "name": "name",
      "outputs": [
        {
          "internalType": "string",
          "name": "",
          "type": "string"
        }
      ],
      "stateMutability": "view",
      "type": "function"
    },
    {
      "inputs": [
        {
          "internalType": "uint256",
          "name": "tokenId",
          "type": "uint256"
        }
      ],
      "name": "ownerOf",
      "outputs": [
        {
          "internalType": "address",
          "name": "",
          "type": "address"
        }
      ],
      "stateMutability": "view",
      "type": "function"
    },
    {
      "inputs": [],
      "name": "pause",
      "outputs": [],
      "stateMutability": "nonpayable",
      "type": "function"
    },
    {
      "inputs": [],
      "name": "paused",
      "outputs": [
        {
          "internalType": "bool",
          "name": "",
          "type": "bool"
        }
      ],
      "stateMutability": "view",
      "type": "function"
    },
    {
      "inputs": [
        {
          "internalType": "address",
          "name": "_address",
          "type": "address"
        }
      ],
      "name": "removeBlacklist",
      "outputs": [],
      "stateMutability": "nonpayable",
      "type": "function"
    },
    {
      "inputs": [
        {
          "internalType": "bytes32",
          "name": "role",
          "type": "bytes32"
        },
        {
          "internalType": "address",
          "name": "account",
          "type": "address"
        }
      ],
      "name": "renounceRole",
      "outputs": [],
      "stateMutability": "nonpayable",
      "type": "function"
    },
    {
      "inputs": [
        {
          "internalType": "bytes32",
          "name": "role",
          "type": "bytes32"
        },
        {
          "internalType": "address",
          "name": "account",
          "type": "address"
        }
      ],
      "name": "revokeRole",
      "outputs": [],
      "stateMutability": "nonpayable",
      "type": "function"
    },
    {
      "inputs": [
        {
          "internalType": "address",
          "name": "from",
          "type": "address"
        },
        {
          "internalType": "address",
          "name": "to",
          "type": "address"
        },
        {
          "internalType": "uint256",
          "name": "tokenId",
          "type": "uint256"
        }
      ],
      "name": "safeTransferFrom",
      "outputs": [],
      "stateMutability": "nonpayable",
      "type": "function"
    },
    {
      "inputs": [
        {
          "internalType": "address",
          "name": "from",
          "type": "address"
        },
        {
          "internalType": "address",
          "name": "to",
          "type": "address"
        },
        {
          "internalType": "uint256",
          "name": "tokenId",
          "type": "uint256"
        },
        {
          "internalType": "bytes",
          "name": "data",
          "type": "bytes"
        }
      ],
      "name": "safeTransferFrom",
      "outputs": [],
      "stateMutability": "nonpayable",
      "type": "function"
    },
    {
      "inputs": [
        {
          "internalType": "address",
          "name": "operator",
          "type": "address"
        },
        {
          "internalType": "bool",
          "name": "approved",
          "type": "bool"
        }
      ],
      "name": "setApprovalForAll",
      "outputs": [],
      "stateMutability": "nonpayable",
      "type": "function"
    },
    {
      "inputs": [
        {
          "internalType": "uint256",
          "name": "tokenId",
          "type": "uint256"
        },
        {
          "internalType": "uint256",
          "name": "attributeId",
          "type": "uint256"
        },
        {
          "internalType": "uint256",
          "name": "value",
          "type": "uint256"
        }
      ],
      "name": "setAttribute",
      "outputs": [],
      "stateMutability": "nonpayable",
      "type": "function"
    },
    {
      "inputs": [
        {
          "internalType": "uint256",
          "name": "attributeId",
          "type": "uint256"
        },
        {
          "internalType": "uint256",
          "name": "index",
          "type": "uint256"
        },
        {
          "internalType": "string",
          "name": "value",
          "type": "string"
        }
      ],
      "name": "setAttributeString",
      "outputs": [],
      "stateMutability": "nonpayable",
      "type": "function"
    },
    {
      "inputs": [
        {
          "internalType": "string",
          "name": "_imageBaseURI",
          "type": "string"
        }
      ],
      "name": "setImageBaseURI",
      "outputs": [],
      "stateMutability": "nonpayable",
      "type": "function"
    },
    {
      "inputs": [
        {
          "internalType": "bytes4",
          "name": "interfaceId",
          "type": "bytes4"
        }
      ],
      "name": "supportsInterface",
      "outputs": [
        {
          "internalType": "bool",
          "name": "",
          "type": "bool"
        }
      ],
      "stateMutability": "view",
      "type": "function"
    },
    {
      "inputs": [],
      "name": "symbol",
      "outputs": [
        {
          "internalType": "string",
          "name": "",
          "type": "string"
        }
      ],
      "stateMutability": "view",
      "type": "function"
    },
    {
      "inputs": [
        {
          "internalType": "uint256",
          "name": "index",
          "type": "uint256"
        }
      ],
      "name": "tokenByIndex",
      "outputs": [
        {
          "internalType": "uint256",
          "name": "",
          "type": "uint256"
        }
      ],
      "stateMutability": "view",
      "type": "function"
    },
    {
      "inputs": [
        {
          "internalType": "address",
          "name": "owner",
          "type": "address"
        },
        {
          "internalType": "uint256",
          "name": "index",
          "type": "uint256"
        }
      ],
      "name": "tokenOfOwnerByIndex",
      "outputs": [
        {
          "internalType": "uint256",
          "name": "",
          "type": "uint256"
        }
      ],
      "stateMutability": "view",
      "type": "function"
    },
    {
      "inputs": [
        {
          "internalType": "uint256",
          "name": "tokenId",
          "type": "uint256"
        }
      ],
      "name": "tokenURI",
      "outputs": [
        {
          "internalType": "string",
          "name": "",
          "type": "string"
        }
      ],
      "stateMutability": "view",
      "type": "function"
    },
    {
      "inputs": [
        {
          "internalType": "address",
          "name": "owner",
          "type": "address"
        }
      ],
      "name": "tokensOfOwner",
      "outputs": [
        {
          "internalType": "uint256[]",
          "name": "",
          "type": "uint256[]"
        }
      ],
      "stateMutability": "view",
      "type": "function"
    },
    {
      "inputs": [],
      "name": "totalSupply",
      "outputs": [
        {
          "internalType": "uint256",
          "name": "",
          "type": "uint256"
        }
      ],
      "stateMutability": "view",
      "type": "function"
    },
    {
      "inputs": [
        {
          "internalType": "address",
          "name": "from",
          "type": "address"
        },
        {
          "internalType": "address",
          "name": "to",
          "type": "address"
        },
        {
          "internalType": "uint256",
          "name": "tokenId",
          "type": "uint256"
        }
      ],
      "name": "transferFrom",
      "outputs": [],
      "stateMutability": "nonpayable",
      "type": "function"
    },
    {
      "inputs": [],
      "name": "unpause",
      "outputs": [],
      "stateMutability": "nonpayable",
      "type": "function"
    }
  ],
  "bytecode": "0x60806040523480156200001157600080fd5b506200001c62000022565b620000e4565b600054610100900460ff16156200008f5760405162461bcd60e51b815260206004820152602760248201527f496e697469616c697a61626c653a20636f6e747261637420697320696e697469604482015266616c697a696e6760c81b606482015260840160405180910390fd5b60005460ff9081161015620000e2576000805460ff191660ff9081179091556040519081527f7f26b83ff96e1f2b6a682f133852f6798a09c465da95921460cefb38474024989060200160405180910390a15b565b61435580620000f46000396000f3fe608060405234801561001057600080fd5b50600436106102bb5760003560e01c80637764583911610182578063a217fddf116100e9578063ca15c873116100a2578063e985e9c51161007c578063e985e9c514610629578063eb91e65114610665578063fd5eea4e14610678578063feb40f7e1461068b57600080fd5b8063ca15c873146105ee578063d539139314610601578063d547741f1461061657600080fd5b8063a217fddf14610592578063a22cb4651461059a578063b88d4fde146105ad578063bdbed722146105c0578063c87b56dd146105c8578063c8c18842146105db57600080fd5b80639010d07c1161013b5780639010d07c1461051e57806391d148541461053157806395d89b411461054457806396908f511461054c5780639ab89ad21461056c5780639cfe42da1461057f57600080fd5b806377645839146104c05780637d7a6d13146104c85780638129fc1c146104db5780638456cb59146104e35780638462151c146104eb578063853d60711461050b57600080fd5b806342842e0e116102265780636352211e116101df5780636352211e1461043f57806364cb59d6146104525780636cfa24cc146104655780636d94f13a1461047857806370a082311461049857806375b238fc146104ab57600080fd5b806342842e0e146103e05780634b7ddec1146103f35780634bb8fd64146104065780634f6ccce7146104195780635c975abb1461042c578063633f43f71461043757600080fd5b806323b872dd1161027857806323b872dd14610368578063248a9ca31461037b5780632f2ff15d1461039f5780632f745c59146103b257806336568abe146103c55780633f4ba83a146103d857600080fd5b806301ffc9a7146102c057806303fe46ab146102e857806306fdde031461030b578063081812fc14610320578063095ea7b31461034b57806318160ddd14610360575b600080fd5b6102d36102ce366004613479565b6106f4565b60405190151581526020015b60405180910390f35b6102fd60008051602061430083398151915281565b6040519081526020016102df565b610313610705565b6040516102df91906134ee565b61033361032e366004613501565b610797565b6040516001600160a01b0390911681526020016102df565b61035e610359366004613536565b6107be565b005b6099546102fd565b61035e610376366004613560565b6108d9565b6102fd610389366004613501565b600090815261012d602052604090206001015490565b61035e6103ad36600461359c565b61090a565b6102fd6103c0366004613536565b610930565b61035e6103d336600461359c565b6109c6565b61035e610a44565b61035e6103ee366004613560565b610a67565b61035e610401366004613636565b610a82565b61035e6104143660046136bf565b610ad3565b6102fd610427366004613501565b610b73565b60fb5460ff166102d3565b610313610c06565b61033361044d366004613501565b610c95565b61035e610460366004613779565b610cf5565b61035e61047336600461385c565b610e84565b61048b610486366004613890565b610ea5565b6040516102df91906138c4565b6102fd6104a6366004613926565b610f5d565b6102fd6000805160206142e083398151915281565b610313610fe3565b61035e6104d6366004613779565b610ff1565b61035e6110c3565b61035e611287565b6104fe6104f9366004613926565b6112a7565b6040516102df919061397c565b61035e61051936600461398f565b611348565b61033361052c3660046139d4565b611382565b6102d361053f36600461359c565b6113a2565b6103136113ce565b61055f61055a366004613890565b6113dd565b6040516102df91906139f6565b61035e61057a366004613a3c565b61148d565b61035e61058d366004613926565b611522565b6102fd600081565b61035e6105a8366004613b1c565b611546565b61035e6105bb366004613b58565b611551565b6104fe611583565b6103136105d6366004613501565b61168b565b61035e6105e9366004613501565b6117c9565b6102fd6105fc366004613501565b6117ea565b6102fd6000805160206142c083398151915281565b61035e61062436600461359c565b611802565b6102d3610637366004613bd3565b6001600160a01b039182166000908152606a6020908152604080832093909416825291909152205460ff1690565b61035e610673366004613926565b611828565b61035e6106863660046136bf565b61184c565b61069e610699366004613501565b6118b7565b6040516102df9190600060e082019050825182526020830151602083015260408301516040830152606083015160608301526080830151608083015260a083015160a083015260c083015160c083015292915050565b60006106ff82611959565b92915050565b60606065805461071490613bfd565b80601f016020809104026020016040519081016040528092919081815260200182805461074090613bfd565b801561078d5780601f106107625761010080835404028352916020019161078d565b820191906000526020600020905b81548152906001019060200180831161077057829003601f168201915b5050505050905090565b60006107a282611964565b506000908152606960205260409020546001600160a01b031690565b60006107c982610c95565b9050806001600160a01b0316836001600160a01b0316141561083c5760405162461bcd60e51b815260206004820152602160248201527f4552433732313a20617070726f76616c20746f2063757272656e74206f776e656044820152603960f91b60648201526084015b60405180910390fd5b336001600160a01b038216148061085857506108588133610637565b6108ca5760405162461bcd60e51b815260206004820152603e60248201527f4552433732313a20617070726f76652063616c6c6572206973206e6f7420746f60448201527f6b656e206f776e6572206e6f7220617070726f76656420666f7220616c6c00006064820152608401610833565b6108d483836119c3565b505050565b6108e33382611a31565b6108ff5760405162461bcd60e51b815260040161083390613c38565b6108d4838383611ab0565b600082815261012d602052604090206001015461092681611c57565b6108d48383611c61565b600061093b83610f5d565b821061099d5760405162461bcd60e51b815260206004820152602b60248201527f455243373231456e756d657261626c653a206f776e657220696e646578206f7560448201526a74206f6620626f756e647360a81b6064820152608401610833565b506001600160a01b03919091166000908152609760209081526040808320938352929052205490565b6001600160a01b0381163314610a365760405162461bcd60e51b815260206004820152602f60248201527f416363657373436f6e74726f6c3a2063616e206f6e6c792072656e6f756e636560448201526e103937b632b9903337b91039b2b63360891b6064820152608401610833565b610a408282611c84565b5050565b6000805160206142e0833981519152610a5c81611c57565b610a64611ca7565b50565b6108d483838360405180602001604052806000815250611551565b6000805160206142c0833981519152610a9a81611c57565b6000610aa661028a5490565b9050610ab761028a80546001019055565b610ac18482611cf9565b808352610acd83611d13565b50505050565b600080516020614300833981519152610aeb81611c57565b600084815261022660205260408120610b049085611dfd565b90506000610b128483613c9c565b600087815261022660205260409020909150610b2f908683611e09565b50604080518681526020810183905287917f2638b17b289529322d9a46367ff10cea9d78d4817d8a4086d1bdd7f5e0d3ad11910160405180910390a2505050505050565b6000610b7e60995490565b8210610be15760405162461bcd60e51b815260206004820152602c60248201527f455243373231456e756d657261626c653a20676c6f62616c20696e646578206f60448201526b7574206f6620626f756e647360a01b6064820152608401610833565b60998281548110610bf457610bf4613cb4565b90600052602060002001549050919050565b6102588054610c1490613bfd565b80601f0160208091040260200160405190810160405280929190818152602001828054610c4090613bfd565b8015610c8d5780601f10610c6257610100808354040283529160200191610c8d565b820191906000526020600020905b815481529060010190602001808311610c7057829003601f168201915b505050505081565b6000818152606760205260408120546001600160a01b0316806106ff5760405162461bcd60e51b8152602060048201526018602482015277115490cdcc8c4e881a5b9d985b1a59081d1bdad95b88125160421b6044820152606401610833565b600080516020614300833981519152610d0d81611c57565b600082516001600160401b03811115610d2857610d286135c8565b604051908082528060200260200182016040528015610d51578160200160208202803683370190505b50905060005b8451811015610e42576000610da1868381518110610d7757610d77613cb4565b602002602001015161022660008a8152602001908152602001600020611dfd90919063ffffffff16565b90506000858381518110610db757610db7613cb4565b602002602001015182610dca9190613c9c565b9050610e0d878481518110610de157610de1613cb4565b60200260200101518261022660008c8152602001908152602001600020611e099092919063ffffffff16565b5080848481518110610e2157610e21613cb4565b60200260200101818152505050508080610e3a90613cca565b915050610d57565b50847f1867a2a22d8b337bcd90d802614e12493528c80ab8f8efd4800af358761736e98583604051610e75929190613ce5565b60405180910390a25050505050565b6000805160206142e0833981519152610e9c81611c57565b610a4082611e16565b6060600082516001600160401b03811115610ec257610ec26135c8565b604051908082528060200260200182016040528015610ef557816020015b6060815260200190600190039081610ee05790505b50905060005b8351811015610f5657610f26848281518110610f1957610f19613cb4565b602002602001015161168b565b828281518110610f3857610f38613cb4565b60200260200101819052508080610f4e90613cca565b915050610efb565b5092915050565b60006001600160a01b038216610fc75760405162461bcd60e51b815260206004820152602960248201527f4552433732313a2061646472657373207a65726f206973206e6f7420612076616044820152683634b21037bbb732b960b91b6064820152608401610833565b506001600160a01b031660009081526068602052604090205490565b6102578054610c1490613bfd565b60008051602061430083398151915261100981611c57565b60005b83518110156110825761106f84828151811061102a5761102a613cb4565b602002602001015184838151811061104457611044613cb4565b60200260200101516102266000898152602001908152602001600020611e099092919063ffffffff16565b508061107a81613cca565b91505061100c565b50837f1867a2a22d8b337bcd90d802614e12493528c80ab8f8efd4800af358761736e984846040516110b5929190613ce5565b60405180910390a250505050565b600054610100900460ff16158080156110e35750600054600160ff909116105b806110fd5750303b1580156110fd575060005460ff166001145b6111605760405162461bcd60e51b815260206004820152602e60248201527f496e697469616c697a61626c653a20636f6e747261637420697320616c72656160448201526d191e481a5b9a5d1a585b1a5e995960921b6064820152608401610833565b6000805460ff191660011790558015611183576000805461ff0019166101001790555b6111ca6040518060400160405280600781526020016645766f2045676760c81b8152506040518060400160405280600681526020016545564f45474760d01b815250611e2a565b6111d2611e5b565b6111da611e8c565b6111e2611ebb565b6111ea611eea565b6111f5600033611c61565b61120d6000805160206142e083398151915233611c61565b6112256000805160206142c083398151915233611c61565b610bea61123261028a5490565b1161123f57610beb61028a555b8015610a64576000805461ff0019169055604051600181527f7f26b83ff96e1f2b6a682f133852f6798a09c465da95921460cefb38474024989060200160405180910390a150565b6000805160206142e083398151915261129f81611c57565b610a64611f11565b606060006112b483610f5d565b90506000816001600160401b038111156112d0576112d06135c8565b6040519080825280602002602001820160405280156112f9578160200160208202803683370190505b50905060005b82811015611340576113118582610930565b82828151811061132357611323613cb4565b60209081029190910101528061133881613cca565b9150506112ff565b509392505050565b600061135381611c57565b6000848152610227602090815260408083208684528252909120835161137b928501906133ca565b5050505050565b600082815261015f6020526040812061139b9083611f4e565b9392505050565b600091825261012d602090815260408084206001600160a01b0393909316845291905290205460ff1690565b60606066805461071490613bfd565b6060600082516001600160401b038111156113fa576113fa6135c8565b604051908082528060200260200182016040528015611423578160200160208202803683370190505b50905060005b8351811015610f565761145684828151811061144757611447613cb4565b60200260200101516004611f5a565b60011482828151811061146b5761146b613cb4565b911515602092830291909101909101528061148581613cca565b915050611429565b600061149881611c57565b60005b835181101561137b578281815181106114b6576114b6613cb4565b6020026020010151610227600087815260200190815260200160002060008684815181106114e6576114e6613cb4565b60200260200101518152602001908152602001600020908051906020019061150f9291906133ca565b508061151a81613cca565b91505061149b565b6000805160206142e083398151915261153a81611c57565b6108d46101f383611f73565b610a40338383611f88565b61155b3383611a31565b6115775760405162461bcd60e51b815260040161083390613c38565b610acd84848484612057565b6060600060015b6127108110156115d1576000818152606760205260409020546001600160a01b0316156115bf57816115bb81613cca565b9250505b806115c981613cca565b91505061158a565b506000816001600160401b038111156115ec576115ec6135c8565b604051908082528060200260200182016040528015611615578160200160208202803683370190505b509050600060015b612710811015611682576000818152606760205260409020546001600160a01b031615611670578083838151811061165757611657613cb4565b60209081029190910101528161166c81613cca565b9250505b8061167a81613cca565b91505061161d565b50909392505050565b6060600061169a836000611f5a565b905060006116a960008361208a565b60408051600680825260e082019092529192509060009082816020015b6116f360405180608001604052806060815260200160608152602001606081526020016000151581525090565b8152602001906001900390816116c657905050905060005b8281101561178d57604051806080016040528061172a6103e78461208a565b81526040805160208181018352600082528301520161175161174c8a85611f5a565b612139565b81526020016001151581525082828151811061176f5761176f613cb4565b6020026020010181905250808061178590613cca565b91505061170b565b506117bf86846040518060400160405280600d81526020016c45766f5665727365732045676760981b81525084612236565b9695505050505050565b6000805160206142c08339815191526117e181611c57565b610a4082612282565b600081815261015f602052604081206106ff90612329565b600082815261012d602052604090206001015461181e81611c57565b6108d48383611c84565b6000805160206142e083398151915261184081611c57565b6108d46101f383612333565b60008051602061430083398151915261186481611c57565b60008481526102266020526040902061187e908484611e09565b50604080518481526020810184905285917f2638b17b289529322d9a46367ff10cea9d78d4817d8a4086d1bdd7f5e0d3ad1191016110b5565b6118f76040518060e00160405280600081526020016000815260200160008152602001600081526020016000815260200160008152602001600081525090565b6000828152606760205260409020546001600160a01b03166119505760405162461bcd60e51b81526020600482015260126024820152712737b716b2bc34b9ba32b73a103a37b5b2b760711b6044820152606401610833565b6106ff82612348565b60006106ff82612465565b6000818152606760205260409020546001600160a01b0316610a645760405162461bcd60e51b8152602060048201526018602482015277115490cdcc8c4e881a5b9d985b1a59081d1bdad95b88125160421b6044820152606401610833565b600081815260696020526040902080546001600160a01b0319166001600160a01b03841690811790915581906119f882610c95565b6001600160a01b03167f8c5be1e5ebec7d5bd14f71427d1e84f3dd0314c0f7b2291e5b200ac8c7c3b92560405160405180910390a45050565b600080611a3d83610c95565b9050806001600160a01b0316846001600160a01b03161480611a8457506001600160a01b038082166000908152606a602090815260408083209388168352929052205460ff165b80611aa85750836001600160a01b0316611a9d84610797565b6001600160a01b0316145b949350505050565b826001600160a01b0316611ac382610c95565b6001600160a01b031614611b275760405162461bcd60e51b815260206004820152602560248201527f4552433732313a207472616e736665722066726f6d20696e636f72726563742060448201526437bbb732b960d91b6064820152608401610833565b6001600160a01b038216611b895760405162461bcd60e51b8152602060048201526024808201527f4552433732313a207472616e7366657220746f20746865207a65726f206164646044820152637265737360e01b6064820152608401610833565b611b9483838361248a565b611b9f6000826119c3565b6001600160a01b0383166000908152606860205260408120805460019290611bc8908490613d13565b90915550506001600160a01b0382166000908152606860205260408120805460019290611bf6908490613c9c565b909155505060008181526067602052604080822080546001600160a01b0319166001600160a01b0386811691821790925591518493918716917fddf252ad1be2c89b69c2b068fc378daa952ba7f163c4a11628f55a4df523b3ef91a4505050565b610a64813361249d565b611c6b8282612501565b600082815261015f602052604090206108d49082611f73565b611c8e8282612588565b600082815261015f602052604090206108d49082612333565b611caf6125f0565b60fb805460ff191690557f5db9ee0a495bf2e6ff9c91a7834c1ba4fdd244a5e8aa4e537bd38aeae4b073aa335b6040516001600160a01b03909116815260200160405180910390a1565b610a40828260405180602001604052806000815250612639565b6000805160206142c0833981519152611d2b81611c57565b6020808301518351600090815261022690925260408220611d4d929091611e09565b506040808301518351600090815261022660205291909120611d7191600190611e09565b5060608201518251600090815261022660205260409020611d9491600290611e09565b5060808201518251600090815261022660205260409020611db791600390611e09565b5060a08201518251600090815261022660205260409020611dda91600490611e09565b5060c082015182516000908152610226602052604090206108d491600590611e09565b600061139b838361266c565b6000611aa88484846126dc565b8051610a40906102579060208401906133ca565b600054610100900460ff16611e515760405162461bcd60e51b815260040161083390613d2a565b610a4082826126f9565b600054610100900460ff16611e825760405162461bcd60e51b815260040161083390613d2a565b611e8a611eea565b565b600054610100900460ff16611eb35760405162461bcd60e51b815260040161083390613d2a565b611e82611eea565b600054610100900460ff16611ee25760405162461bcd60e51b815260040161083390613d2a565b611e8a612747565b600054610100900460ff16611e8a5760405162461bcd60e51b815260040161083390613d2a565b611f1961277a565b60fb805460ff191660011790557f62e78cea01bee320cd4e420270b5ea74000d11b0c9f74754ebdbfc544b05a258611cdc3390565b600061139b83836127c0565b60008281526102266020526040812061139b9083611dfd565b600061139b836001600160a01b0384166127ea565b816001600160a01b0316836001600160a01b03161415611fea5760405162461bcd60e51b815260206004820152601960248201527f4552433732313a20617070726f766520746f2063616c6c6572000000000000006044820152606401610833565b6001600160a01b038381166000818152606a6020908152604080832094871680845294825291829020805460ff191686151590811790915591519182527f17307eab39ab6107e8899845ad3d59bd9653f200f220920489ca2b5937696c31910160405180910390a3505050565b612062848484611ab0565b61206e84848484612839565b610acd5760405162461bcd60e51b815260040161083390613d75565b60008281526102276020908152604080832084845290915290208054606091906120b390613bfd565b80601f01602080910402602001604051908101604052809291908181526020018280546120df90613bfd565b801561212c5780601f106121015761010080835404028352916020019161212c565b820191906000526020600020905b81548152906001019060200180831161210f57829003601f168201915b5050505050905092915050565b60608161215d5750506040805180820190915260018152600360fc1b602082015290565b8160005b8115612187578061217181613cca565b91506121809050600a83613ddd565b9150612161565b6000816001600160401b038111156121a1576121a16135c8565b6040519080825280601f01601f1916602001820160405280156121cb576020820181803683370190505b5090505b8415611aa8576121e0600183613d13565b91506121ed600a86613df1565b6121f8906030613c9c565b60f81b81838151811061220d5761220d613cb4565b60200101906001600160f81b031916908160001a90535061222f600a86613ddd565b94506121cf565b60606000612245868686612943565b90506000612252846129d8565b90508181604051602001612267929190613e21565b60405160208183030381529060405292505050949350505050565b600061228d82610c95565b905061229b8160008461248a565b6122a66000836119c3565b6001600160a01b03811660009081526068602052604081208054600192906122cf908490613d13565b909155505060008281526067602052604080822080546001600160a01b0319169055518391906001600160a01b038416907fddf252ad1be2c89b69c2b068fc378daa952ba7f163c4a11628f55a4df523b3ef908390a45050565b60006106ff825490565b600061139b836001600160a01b038416612be3565b6123886040518060e00160405280600081526020016000815260200160008152602001600081526020016000815260200160008152602001600081525090565b6040805160e0810182528381526000848152610226602090815292812091928301916123b391611dfd565b81526000848152610226602090815260409091209101906123d5906001611dfd565b81526000848152610226602090815260409091209101906123f7906002611dfd565b8152600084815261022660209081526040909120910190612419906003611dfd565b815260008481526102266020908152604090912091019061243b906004611dfd565b815260008481526102266020908152604090912091019061245d906005611dfd565b905292915050565b60006001600160e01b03198216635a05180f60e01b14806106ff57506106ff82612cd6565b61249261277a565b6108d4838383612cfb565b6124a782826113a2565b610a40576124bf816001600160a01b03166014612da6565b6124ca836020612da6565b6040516020016124db929190613e6e565b60408051601f198184030181529082905262461bcd60e51b8252610833916004016134ee565b61250b82826113a2565b610a4057600082815261012d602090815260408083206001600160a01b03851684529091529020805460ff191660011790556125443390565b6001600160a01b0316816001600160a01b0316837f2f8788117e7eff1d82e926ec794901d17c78024a50270940304540a733656f0d60405160405180910390a45050565b61259282826113a2565b15610a4057600082815261012d602090815260408083206001600160a01b0385168085529252808320805460ff1916905551339285917ff6391f5c32d9c69d2a47ea670b442974b53935d1edc7fd64eb21e047a839171b9190a45050565b60fb5460ff16611e8a5760405162461bcd60e51b815260206004820152601460248201527314185d5cd8589b194e881b9bdd081c185d5cd95960621b6044820152606401610833565b6126438383612f41565b6126506000848484612839565b6108d45760405162461bcd60e51b815260040161083390613d75565b6000818152600283016020526040812054801515806126905750612690848461308f565b61139b5760405162461bcd60e51b815260206004820152601e60248201527f456e756d657261626c654d61703a206e6f6e6578697374656e74206b657900006044820152606401610833565b60008281526002840160205260408120829055611aa8848461309b565b600054610100900460ff166127205760405162461bcd60e51b815260040161083390613d2a565b81516127339060659060208501906133ca565b5080516108d49060669060208401906133ca565b600054610100900460ff1661276e5760405162461bcd60e51b815260040161083390613d2a565b60fb805460ff19169055565b60fb5460ff1615611e8a5760405162461bcd60e51b815260206004820152601060248201526f14185d5cd8589b194e881c185d5cd95960821b6044820152606401610833565b60008260000182815481106127d7576127d7613cb4565b9060005260206000200154905092915050565b6000818152600183016020526040812054612831575081546001818101845560008481526020808220909301849055845484825282860190935260409020919091556106ff565b5060006106ff565b60006001600160a01b0384163b1561293b57604051630a85bd0160e11b81526001600160a01b0385169063150b7a029061287d903390899088908890600401613ee3565b602060405180830381600087803b15801561289757600080fd5b505af19250505080156128c7575060408051601f3d908101601f191682019092526128c491810190613f16565b60015b612921573d8080156128f5576040519150601f19603f3d011682016040523d82523d6000602084013e6128fa565b606091505b5080516129195760405162461bcd60e51b815260040161083390613d75565b805181602001fd5b6001600160e01b031916630a85bd0160e11b149050611aa8565b506001611aa8565b6060600061025761295386612139565b604051602001612964929190613f33565b6040516020818303038152906040529050600061299161298387610c95565b6001600160a01b03166130a7565b90508461299d87612139565b8584846129a98b612139565b6040516020016129be96959493929190613fd1565b604051602081830303815290604052925050509392505050565b60408051602081019091526000808252606091905b8351811015612bba57600060018551612a069190613d13565b8214612a2b57604051806040016040528060018152602001600b60fa1b815250612a3c565b604051806020016040528060008152505b90506000858381518110612a5257612a52613cb4565b602002602001015160600151612a8157604051806040016040528060018152602001601160f91b815250612a92565b604051806020016040528060008152505b9050600081878581518110612aa957612aa9613cb4565b60200260200101516040015183604051602001612ac8939291906140ed565b60405160208183030381529060405290506000878581518110612aed57612aed613cb4565b60200260200101516020015151600014612b4357878581518110612b1357612b13613cb4565b602002602001015160200151604051602001612b2f9190614130565b604051602081830303815290604052612b54565b604051806020016040528060008152505b9050600086898781518110612b6b57612b6b613cb4565b602002602001015160000151838588604051602001612b8e959493929190614176565b604051602081830303815290604052905080965050505050508080612bb290613cca565b9150506129ed565b5080604051602001612bcc9190614231565b604051602081830303815290604052915050919050565b60008181526001830160205260408120548015612ccc576000612c07600183613d13565b8554909150600090612c1b90600190613d13565b9050818114612c80576000866000018281548110612c3b57612c3b613cb4565b9060005260206000200154905080876000018481548110612c5e57612c5e613cb4565b6000918252602080832090910192909255918252600188019052604090208390555b8554869080612c9157612c91614273565b6001900381819060005260206000200160009055905585600101600086815260200190815260200160002060009055600193505050506106ff565b60009150506106ff565b60006001600160e01b03198216637965db0b60e01b14806106ff57506106ff826130bd565b82612d086101f3826130c8565b15612d4b5760405162461bcd60e51b8152602060048201526013602482015272426c61636b6c6973746564206164647265737360681b6044820152606401610833565b82612d586101f3826130c8565b15612d9b5760405162461bcd60e51b8152602060048201526013602482015272426c61636b6c6973746564206164647265737360681b6044820152606401610833565b61137b8585856130ea565b60606000612db5836002614289565b612dc0906002613c9c565b6001600160401b03811115612dd757612dd76135c8565b6040519080825280601f01601f191660200182016040528015612e01576020820181803683370190505b509050600360fc1b81600081518110612e1c57612e1c613cb4565b60200101906001600160f81b031916908160001a905350600f60fb1b81600181518110612e4b57612e4b613cb4565b60200101906001600160f81b031916908160001a9053506000612e6f846002614289565b612e7a906001613c9c565b90505b6001811115612ef2576f181899199a1a9b1b9c1cb0b131b232b360811b85600f1660108110612eae57612eae613cb4565b1a60f81b828281518110612ec457612ec4613cb4565b60200101906001600160f81b031916908160001a90535060049490941c93612eeb816142a8565b9050612e7d565b50831561139b5760405162461bcd60e51b815260206004820181905260248201527f537472696e67733a20686578206c656e67746820696e73756666696369656e746044820152606401610833565b6001600160a01b038216612f975760405162461bcd60e51b815260206004820181905260248201527f4552433732313a206d696e7420746f20746865207a65726f20616464726573736044820152606401610833565b6000818152606760205260409020546001600160a01b031615612ffc5760405162461bcd60e51b815260206004820152601c60248201527f4552433732313a20746f6b656e20616c7265616479206d696e746564000000006044820152606401610833565b6130086000838361248a565b6001600160a01b0382166000908152606860205260408120805460019290613031908490613c9c565b909155505060008181526067602052604080822080546001600160a01b0319166001600160a01b03861690811790915590518392907fddf252ad1be2c89b69c2b068fc378daa952ba7f163c4a11628f55a4df523b3ef908290a45050565b600061139b83836130f5565b600061139b83836127ea565b60606106ff6001600160a01b0383166014612da6565b60006106ff8261310d565b6001600160a01b0381166000908152600183016020526040812054151561139b565b6108d4838383613132565b6000818152600183016020526040812054151561139b565b60006001600160e01b0319821663780e9d6360e01b14806106ff57506106ff826131ea565b6001600160a01b03831661318d5761318881609980546000838152609a60205260408120829055600182018355919091527f72a152ddfb8e864297c917af52ea6c1c68aead0fee1a62673fcc7e0c94979d000155565b6131b0565b816001600160a01b0316836001600160a01b0316146131b0576131b0838261323a565b6001600160a01b0382166131c7576108d4816132d7565b826001600160a01b0316826001600160a01b0316146108d4576108d48282613386565b60006001600160e01b031982166380ac58cd60e01b148061321b57506001600160e01b03198216635b5e139f60e01b145b806106ff57506301ffc9a760e01b6001600160e01b03198316146106ff565b6000600161324784610f5d565b6132519190613d13565b6000838152609860205260409020549091508082146132a4576001600160a01b03841660009081526097602090815260408083208584528252808320548484528184208190558352609890915290208190555b5060009182526098602090815260408084208490556001600160a01b039094168352609781528383209183525290812055565b6099546000906132e990600190613d13565b6000838152609a60205260408120546099805493945090928490811061331157613311613cb4565b90600052602060002001549050806099838154811061333257613332613cb4565b6000918252602080832090910192909255828152609a9091526040808220849055858252812055609980548061336a5761336a614273565b6001900381819060005260206000200160009055905550505050565b600061339183610f5d565b6001600160a01b039093166000908152609760209081526040808320868452825280832085905593825260989052919091209190915550565b8280546133d690613bfd565b90600052602060002090601f0160209004810192826133f8576000855561343e565b82601f1061341157805160ff191683800117855561343e565b8280016001018555821561343e579182015b8281111561343e578251825591602001919060010190613423565b5061344a92915061344e565b5090565b5b8082111561344a576000815560010161344f565b6001600160e01b031981168114610a6457600080fd5b60006020828403121561348b57600080fd5b813561139b81613463565b60005b838110156134b1578181015183820152602001613499565b83811115610acd5750506000910152565b600081518084526134da816020860160208601613496565b601f01601f19169290920160200192915050565b60208152600061139b60208301846134c2565b60006020828403121561351357600080fd5b5035919050565b80356001600160a01b038116811461353157600080fd5b919050565b6000806040838503121561354957600080fd5b6135528361351a565b946020939093013593505050565b60008060006060848603121561357557600080fd5b61357e8461351a565b925061358c6020850161351a565b9150604084013590509250925092565b600080604083850312156135af57600080fd5b823591506135bf6020840161351a565b90509250929050565b634e487b7160e01b600052604160045260246000fd5b60405160e081016001600160401b0381118282101715613600576136006135c8565b60405290565b604051601f8201601f191681016001600160401b038111828210171561362e5761362e6135c8565b604052919050565b60008082840361010081121561364b57600080fd5b6136548461351a565b925060e0601f198201121561366857600080fd5b506136716135de565b6020840135815260408401356020820152606084013560408201526080840135606082015260a0840135608082015260c084013560a082015260e084013560c0820152809150509250929050565b6000806000606084860312156136d457600080fd5b505081359360208301359350604090920135919050565b60006001600160401b03821115613704576137046135c8565b5060051b60200190565b600082601f83011261371f57600080fd5b8135602061373461372f836136eb565b613606565b82815260059290921b8401810191818101908684111561375357600080fd5b8286015b8481101561376e5780358352918301918301613757565b509695505050505050565b60008060006060848603121561378e57600080fd5b8335925060208401356001600160401b03808211156137ac57600080fd5b6137b88783880161370e565b935060408601359150808211156137ce57600080fd5b506137db8682870161370e565b9150509250925092565b60006001600160401b038311156137fe576137fe6135c8565b613811601f8401601f1916602001613606565b905082815283838301111561382557600080fd5b828260208301376000602084830101529392505050565b600082601f83011261384d57600080fd5b61139b838335602085016137e5565b60006020828403121561386e57600080fd5b81356001600160401b0381111561388457600080fd5b611aa88482850161383c565b6000602082840312156138a257600080fd5b81356001600160401b038111156138b857600080fd5b611aa88482850161370e565b6000602080830181845280855180835260408601915060408160051b870101925083870160005b8281101561391957603f198886030184526139078583516134c2565b945092850192908501906001016138eb565b5092979650505050505050565b60006020828403121561393857600080fd5b61139b8261351a565b600081518084526020808501945080840160005b8381101561397157815187529582019590820190600101613955565b509495945050505050565b60208152600061139b6020830184613941565b6000806000606084860312156139a457600080fd5b833592506020840135915060408401356001600160401b038111156139c857600080fd5b6137db8682870161383c565b600080604083850312156139e757600080fd5b50508035926020909101359150565b6020808252825182820181905260009190848201906040850190845b81811015613a30578351151583529284019291840191600101613a12565b50909695505050505050565b600080600060608486031215613a5157600080fd5b833592506020808501356001600160401b0380821115613a7057600080fd5b613a7c8883890161370e565b94506040870135915080821115613a9257600080fd5b818701915087601f830112613aa657600080fd5b8135613ab461372f826136eb565b81815260059190911b8301840190848101908a831115613ad357600080fd5b8585015b83811015613b0b57803585811115613aef5760008081fd5b613afd8d89838a010161383c565b845250918601918601613ad7565b508096505050505050509250925092565b60008060408385031215613b2f57600080fd5b613b388361351a565b915060208301358015158114613b4d57600080fd5b809150509250929050565b60008060008060808587031215613b6e57600080fd5b613b778561351a565b9350613b856020860161351a565b92506040850135915060608501356001600160401b03811115613ba757600080fd5b8501601f81018713613bb857600080fd5b613bc7878235602084016137e5565b91505092959194509250565b60008060408385031215613be657600080fd5b613bef8361351a565b91506135bf6020840161351a565b600181811c90821680613c1157607f821691505b60208210811415613c3257634e487b7160e01b600052602260045260246000fd5b50919050565b6020808252602e908201527f4552433732313a2063616c6c6572206973206e6f7420746f6b656e206f776e6560408201526d1c881b9bdc88185c1c1c9bdd995960921b606082015260800190565b634e487b7160e01b600052601160045260246000fd5b60008219821115613caf57613caf613c86565b500190565b634e487b7160e01b600052603260045260246000fd5b6000600019821415613cde57613cde613c86565b5060010190565b604081526000613cf86040830185613941565b8281036020840152613d0a8185613941565b95945050505050565b600082821015613d2557613d25613c86565b500390565b6020808252602b908201527f496e697469616c697a61626c653a20636f6e7472616374206973206e6f74206960408201526a6e697469616c697a696e6760a81b606082015260800190565b60208082526032908201527f4552433732313a207472616e7366657220746f206e6f6e20455243373231526560408201527131b2b4bb32b91034b6b83632b6b2b73a32b960711b606082015260800190565b634e487b7160e01b600052601260045260246000fd5b600082613dec57613dec613dc7565b500490565b600082613e0057613e00613dc7565b500690565b60008151613e17818560208601613496565b9290920192915050565b607b60f81b815260008351613e3d816001850160208801613496565b835190830190613e54816001840160208801613496565b607d60f81b60019290910191820152600201949350505050565b7f416363657373436f6e74726f6c3a206163636f756e7420000000000000000000815260008351613ea6816017850160208801613496565b7001034b99036b4b9b9b4b733903937b6329607d1b6017918401918201528351613ed7816028840160208801613496565b01602801949350505050565b6001600160a01b03858116825284166020820152604081018390526080606082018190526000906117bf908301846134c2565b600060208284031215613f2857600080fd5b815161139b81613463565b600080845481600182811c915080831680613f4f57607f831692505b6020808410821415613f6f57634e487b7160e01b86526022600452602486fd5b818015613f835760018114613f9457613fc1565b60ff19861689528489019650613fc1565b60008b81526020902060005b86811015613fb95781548b820152908501908301613fa0565b505084890196505b505050505050613d0a8185613e05565b67113730b6b2911d1160c11b81528651600090613ff5816008850160208c01613496565b61202360f01b600891840191820152875161401781600a840160208c01613496565b61088b60f21b600a929091019182018190526e113232b9b1b934b83a34b7b7111d1160891b600c830152875161405481601b850160208c01613496565b601b920191820152681134b6b0b3b2911d1160b91b601d8201526140e06140d36140cd6140b761408e6140b161409c82602689018e613e05565b61088b60f21b815260020190565b681137bbb732b9111d1160b91b815260090190565b8a613e05565b69113a37b5b2b724b2111d60b11b8152600a0190565b86613e05565b600b60fa1b815260010190565b9998505050505050505050565b600084516140ff818460208901613496565b845190830190614113818360208901613496565b8451910190614126818360208801613496565b0195945050505050565b703d913234b9b83630bcafba3cb832911d1160791b8152815160009061415d816011850160208701613496565b61088b60f21b6011939091019283015250601301919050565b60008651614188818460208b01613496565b6e3d913a3930b4ba2fba3cb832911d1160891b90830190815286516141b481600f840160208b01613496565b61088b60f21b600f929091019182015285516141d7816011840160208a01613496565b67113b30b63ab2911d60c11b601192909101918201528451614200816019840160208901613496565b607d60f81b60199290910191820152835161422281601a840160208801613496565b01601a01979650505050505050565b6d2261747472696275746573223a5b60901b8152815160009061425b81600e850160208701613496565b605d60f81b600e939091019283015250600f01919050565b634e487b7160e01b600052603160045260246000fd5b60008160001904831182151516156142a3576142a3613c86565b500290565b6000816142b7576142b7613c86565b50600019019056fe9f2df0fed2c77648de5860a4cc508cd0818c85b8b8a1ab4ceeef8d981c8956a6a49807205ce4d355092ef5a8a18f56e8913cf4a201fbe287825b095693c21775364d3d7565c7a8300c96fd53e065d19b65848d7b23b3191adcd55621c744223ca26469706673582212201618ff6d6f891dcde40bc0888783dfab6aec8b386bb06fc3ea9d087916ce12d364736f6c63430008090033",
  "linkReferences": {},
  "deployedLinkReferences": {}
}