{
  "_format": "hh-sol-artifact-1",
  "contractName": "SecurityGuardSamuel",
  "sourceName": "contracts/NPCs/SecurityGuardSamuel.sol",
  "abi": [
    {
      "inputs": [],
      "stateMutability": "nonpayable",
      "type": "constructor"
    },
    {
      "inputs": [
        {
          "internalType": "bytes32",
          "name": "operationId",
          "type": "bytes32"
        }
      ],
      "name": "AccessManagerAlreadyScheduled",
      "type": "error"
    },
    {
      "inputs": [],
      "name": "AccessManagerBadConfirmation",
      "type": "error"
    },
    {
      "inputs": [
        {
          "internalType": "bytes32",
          "name": "operationId",
          "type": "bytes32"
        }
      ],
      "name": "AccessManagerExpired",
      "type": "error"
    },
    {
      "inputs": [
        {
          "internalType": "address",
          "name": "initialAdmin",
          "type": "address"
        }
      ],
      "name": "AccessManagerInvalidInitialAdmin",
      "type": "error"
    },
    {
      "inputs": [
        {
          "internalType": "address",
          "name": "account",
          "type": "address"
        }
      ],
      "name": "AccessManagerLockedAccount",
      "type": "error"
    },
    {
      "inputs": [
        {
          "internalType": "uint64",
          "name": "roleId",
          "type": "uint64"
        }
      ],
      "name": "AccessManagerLockedRole",
      "type": "error"
    },
    {
      "inputs": [
        {
          "internalType": "bytes32",
          "name": "operationId",
          "type": "bytes32"
        }
      ],
      "name": "AccessManagerNotReady",
      "type": "error"
    },
    {
      "inputs": [
        {
          "internalType": "bytes32",
          "name": "operationId",
          "type": "bytes32"
        }
      ],
      "name": "AccessManagerNotScheduled",
      "type": "error"
    },
    {
      "inputs": [
        {
          "internalType": "address",
          "name": "msgsender",
          "type": "address"
        },
        {
          "internalType": "uint64",
          "name": "roleId",
          "type": "uint64"
        }
      ],
      "name": "AccessManagerUnauthorizedAccount",
      "type": "error"
    },
    {
      "inputs": [
        {
          "internalType": "address",
          "name": "caller",
          "type": "address"
        },
        {
          "internalType": "address",
          "name": "target",
          "type": "address"
        },
        {
          "internalType": "bytes4",
          "name": "selector",
          "type": "bytes4"
        }
      ],
      "name": "AccessManagerUnauthorizedCall",
      "type": "error"
    },
    {
      "inputs": [
        {
          "internalType": "address",
          "name": "msgsender",
          "type": "address"
        },
        {
          "internalType": "address",
          "name": "caller",
          "type": "address"
        },
        {
          "internalType": "address",
          "name": "target",
          "type": "address"
        },
        {
          "internalType": "bytes4",
          "name": "selector",
          "type": "bytes4"
        }
      ],
      "name": "AccessManagerUnauthorizedCancel",
      "type": "error"
    },
    {
      "inputs": [
        {
          "internalType": "address",
          "name": "target",
          "type": "address"
        }
      ],
      "name": "AccessManagerUnauthorizedConsume",
      "type": "error"
    },
    {
      "inputs": [
        {
          "internalType": "address",
          "name": "target",
          "type": "address"
        }
      ],
      "name": "AddressEmptyCode",
      "type": "error"
    },
    {
      "inputs": [
        {
          "internalType": "address",
          "name": "account",
          "type": "address"
        }
      ],
      "name": "AddressInsufficientBalance",
      "type": "error"
    },
    {
      "inputs": [
        {
          "internalType": "address",
          "name": "implementation",
          "type": "address"
        }
      ],
      "name": "ERC1967InvalidImplementation",
      "type": "error"
    },
    {
      "inputs": [],
      "name": "ERC1967NonPayable",
      "type": "error"
    },
    {
      "inputs": [],
      "name": "FailedInnerCall",
      "type": "error"
    },
    {
      "inputs": [],
      "name": "InvalidInitialization",
      "type": "error"
    },
    {
      "inputs": [],
      "name": "NotInitializing",
      "type": "error"
    },
    {
      "inputs": [
        {
          "internalType": "uint8",
          "name": "bits",
          "type": "uint8"
        },
        {
          "internalType": "uint256",
          "name": "value",
          "type": "uint256"
        }
      ],
      "name": "SafeCastOverflowedUintDowncast",
      "type": "error"
    },
    {
      "inputs": [],
      "name": "UUPSUnauthorizedCallContext",
      "type": "error"
    },
    {
      "inputs": [
        {
          "internalType": "bytes32",
          "name": "slot",
          "type": "bytes32"
        }
      ],
      "name": "UUPSUnsupportedProxiableUUID",
      "type": "error"
    },
    {
      "anonymous": false,
      "inputs": [
        {
          "indexed": false,
          "internalType": "uint64",
          "name": "version",
          "type": "uint64"
        }
      ],
      "name": "Initialized",
      "type": "event"
    },
    {
      "anonymous": false,
      "inputs": [
        {
          "indexed": true,
          "internalType": "bytes32",
          "name": "operationId",
          "type": "bytes32"
        },
        {
          "indexed": true,
          "internalType": "uint32",
          "name": "nonce",
          "type": "uint32"
        }
      ],
      "name": "OperationCanceled",
      "type": "event"
    },
    {
      "anonymous": false,
      "inputs": [
        {
          "indexed": true,
          "internalType": "bytes32",
          "name": "operationId",
          "type": "bytes32"
        },
        {
          "indexed": true,
          "internalType": "uint32",
          "name": "nonce",
          "type": "uint32"
        }
      ],
      "name": "OperationExecuted",
      "type": "event"
    },
    {
      "anonymous": false,
      "inputs": [
        {
          "indexed": true,
          "internalType": "bytes32",
          "name": "operationId",
          "type": "bytes32"
        },
        {
          "indexed": true,
          "internalType": "uint32",
          "name": "nonce",
          "type": "uint32"
        },
        {
          "indexed": false,
          "internalType": "uint48",
          "name": "schedule",
          "type": "uint48"
        },
        {
          "indexed": false,
          "internalType": "address",
          "name": "caller",
          "type": "address"
        },
        {
          "indexed": false,
          "internalType": "address",
          "name": "target",
          "type": "address"
        },
        {
          "indexed": false,
          "internalType": "bytes",
          "name": "data",
          "type": "bytes"
        }
      ],
      "name": "OperationScheduled",
      "type": "event"
    },
    {
      "anonymous": false,
      "inputs": [
        {
          "indexed": true,
          "internalType": "uint64",
          "name": "roleId",
          "type": "uint64"
        },
        {
          "indexed": true,
          "internalType": "uint64",
          "name": "admin",
          "type": "uint64"
        }
      ],
      "name": "RoleAdminChanged",
      "type": "event"
    },
    {
      "anonymous": false,
      "inputs": [
        {
          "indexed": true,
          "internalType": "uint64",
          "name": "roleId",
          "type": "uint64"
        },
        {
          "indexed": false,
          "internalType": "uint32",
          "name": "delay",
          "type": "uint32"
        },
        {
          "indexed": false,
          "internalType": "uint48",
          "name": "since",
          "type": "uint48"
        }
      ],
      "name": "RoleGrantDelayChanged",
      "type": "event"
    },
    {
      "anonymous": false,
      "inputs": [
        {
          "indexed": true,
          "internalType": "uint64",
          "name": "roleId",
          "type": "uint64"
        },
        {
          "indexed": true,
          "internalType": "address",
          "name": "account",
          "type": "address"
        },
        {
          "indexed": false,
          "internalType": "uint32",
          "name": "delay",
          "type": "uint32"
        },
        {
          "indexed": false,
          "internalType": "uint48",
          "name": "since",
          "type": "uint48"
        },
        {
          "indexed": false,
          "internalType": "bool",
          "name": "newMember",
          "type": "bool"
        }
      ],
      "name": "RoleGranted",
      "type": "event"
    },
    {
      "anonymous": false,
      "inputs": [
        {
          "indexed": true,
          "internalType": "uint64",
          "name": "roleId",
          "type": "uint64"
        },
        {
          "indexed": true,
          "internalType": "uint64",
          "name": "guardian",
          "type": "uint64"
        }
      ],
      "name": "RoleGuardianChanged",
      "type": "event"
    },
    {
      "anonymous": false,
      "inputs": [
        {
          "indexed": true,
          "internalType": "uint64",
          "name": "roleId",
          "type": "uint64"
        },
        {
          "indexed": false,
          "internalType": "string",
          "name": "label",
          "type": "string"
        }
      ],
      "name": "RoleLabel",
      "type": "event"
    },
    {
      "anonymous": false,
      "inputs": [
        {
          "indexed": true,
          "internalType": "uint64",
          "name": "roleId",
          "type": "uint64"
        },
        {
          "indexed": true,
          "internalType": "address",
          "name": "account",
          "type": "address"
        }
      ],
      "name": "RoleRevoked",
      "type": "event"
    },
    {
      "anonymous": false,
      "inputs": [
        {
          "indexed": true,
          "internalType": "address",
          "name": "target",
          "type": "address"
        },
        {
          "indexed": false,
          "internalType": "uint32",
          "name": "delay",
          "type": "uint32"
        },
        {
          "indexed": false,
          "internalType": "uint48",
          "name": "since",
          "type": "uint48"
        }
      ],
      "name": "TargetAdminDelayUpdated",
      "type": "event"
    },
    {
      "anonymous": false,
      "inputs": [
        {
          "indexed": true,
          "internalType": "address",
          "name": "target",
          "type": "address"
        },
        {
          "indexed": false,
          "internalType": "bool",
          "name": "closed",
          "type": "bool"
        }
      ],
      "name": "TargetClosed",
      "type": "event"
    },
    {
      "anonymous": false,
      "inputs": [
        {
          "indexed": true,
          "internalType": "address",
          "name": "target",
          "type": "address"
        },
        {
          "indexed": false,
          "internalType": "bytes4",
          "name": "selector",
          "type": "bytes4"
        },
        {
          "indexed": true,
          "internalType": "uint64",
          "name": "roleId",
          "type": "uint64"
        }
      ],
      "name": "TargetFunctionRoleUpdated",
      "type": "event"
    },
    {
      "anonymous": false,
      "inputs": [
        {
          "indexed": true,
          "internalType": "address",
          "name": "implementation",
          "type": "address"
        }
      ],
      "name": "Upgraded",
      "type": "event"
    },
    {
      "inputs": [],
      "name": "ADMIN_ROLE",
      "outputs": [
        {
          "internalType": "uint64",
          "name": "",
          "type": "uint64"
        }
      ],
      "stateMutability": "view",
      "type": "function"
    },
    {
      "inputs": [],
      "name": "PUBLIC_ROLE",
      "outputs": [
        {
          "internalType": "uint64",
          "name": "",
          "type": "uint64"
        }
      ],
      "stateMutability": "view",
      "type": "function"
    },
    {
      "inputs": [],
      "name": "UPGRADE_INTERFACE_VERSION",
      "outputs": [
        {
          "internalType": "string",
          "name": "",
          "type": "string"
        }
      ],
      "stateMutability": "view",
      "type": "function"
    },
    {
      "inputs": [
        {
          "internalType": "address",
          "name": "caller",
          "type": "address"
        },
        {
          "internalType": "address",
          "name": "target",
          "type": "address"
        },
        {
          "internalType": "bytes4",
          "name": "selector",
          "type": "bytes4"
        }
      ],
      "name": "canCall",
      "outputs": [
        {
          "internalType": "bool",
          "name": "immediate",
          "type": "bool"
        },
        {
          "internalType": "uint32",
          "name": "delay",
          "type": "uint32"
        }
      ],
      "stateMutability": "view",
      "type": "function"
    },
    {
      "inputs": [
        {
          "internalType": "address",
          "name": "caller",
          "type": "address"
        },
        {
          "internalType": "address",
          "name": "target",
          "type": "address"
        },
        {
          "internalType": "bytes",
          "name": "data",
          "type": "bytes"
        }
      ],
      "name": "cancel",
      "outputs": [
        {
          "internalType": "uint32",
          "name": "",
          "type": "uint32"
        }
      ],
      "stateMutability": "nonpayable",
      "type": "function"
    },
    {
      "inputs": [
        {
          "internalType": "address",
          "name": "caller",
          "type": "address"
        },
        {
          "internalType": "bytes",
          "name": "data",
          "type": "bytes"
        }
      ],
      "name": "consumeScheduledOp",
      "outputs": [],
      "stateMutability": "nonpayable",
      "type": "function"
    },
    {
      "inputs": [
        {
          "internalType": "address",
          "name": "target",
          "type": "address"
        },
        {
          "internalType": "bytes",
          "name": "data",
          "type": "bytes"
        }
      ],
      "name": "execute",
      "outputs": [
        {
          "internalType": "uint32",
          "name": "",
          "type": "uint32"
        }
      ],
      "stateMutability": "payable",
      "type": "function"
    },
    {
      "inputs": [],
      "name": "expiration",
      "outputs": [
        {
          "internalType": "uint32",
          "name": "",
          "type": "uint32"
        }
      ],
      "stateMutability": "view",
      "type": "function"
    },
    {
      "inputs": [
        {
          "internalType": "uint64",
          "name": "roleId",
          "type": "uint64"
        },
        {
          "internalType": "address",
          "name": "account",
          "type": "address"
        }
      ],
      "name": "getAccess",
      "outputs": [
        {
          "internalType": "uint48",
          "name": "since",
          "type": "uint48"
        },
        {
          "internalType": "uint32",
          "name": "currentDelay",
          "type": "uint32"
        },
        {
          "internalType": "uint32",
          "name": "pendingDelay",
          "type": "uint32"
        },
        {
          "internalType": "uint48",
          "name": "effect",
          "type": "uint48"
        }
      ],
      "stateMutability": "view",
      "type": "function"
    },
    {
      "inputs": [
        {
          "internalType": "bytes32",
          "name": "id",
          "type": "bytes32"
        }
      ],
      "name": "getNonce",
      "outputs": [
        {
          "internalType": "uint32",
          "name": "",
          "type": "uint32"
        }
      ],
      "stateMutability": "view",
      "type": "function"
    },
    {
      "inputs": [
        {
          "internalType": "uint64",
          "name": "roleId",
          "type": "uint64"
        }
      ],
      "name": "getRoleAdmin",
      "outputs": [
        {
          "internalType": "uint64",
          "name": "",
          "type": "uint64"
        }
      ],
      "stateMutability": "view",
      "type": "function"
    },
    {
      "inputs": [
        {
          "internalType": "uint64",
          "name": "roleId",
          "type": "uint64"
        }
      ],
      "name": "getRoleGrantDelay",
      "outputs": [
        {
          "internalType": "uint32",
          "name": "",
          "type": "uint32"
        }
      ],
      "stateMutability": "view",
      "type": "function"
    },
    {
      "inputs": [
        {
          "internalType": "uint64",
          "name": "roleId",
          "type": "uint64"
        }
      ],
      "name": "getRoleGuardian",
      "outputs": [
        {
          "internalType": "uint64",
          "name": "",
          "type": "uint64"
        }
      ],
      "stateMutability": "view",
      "type": "function"
    },
    {
      "inputs": [
        {
          "internalType": "bytes32",
          "name": "id",
          "type": "bytes32"
        }
      ],
      "name": "getSchedule",
      "outputs": [
        {
          "internalType": "uint48",
          "name": "",
          "type": "uint48"
        }
      ],
      "stateMutability": "view",
      "type": "function"
    },
    {
      "inputs": [
        {
          "internalType": "address",
          "name": "target",
          "type": "address"
        }
      ],
      "name": "getTargetAdminDelay",
      "outputs": [
        {
          "internalType": "uint32",
          "name": "",
          "type": "uint32"
        }
      ],
      "stateMutability": "view",
      "type": "function"
    },
    {
      "inputs": [
        {
          "internalType": "address",
          "name": "target",
          "type": "address"
        },
        {
          "internalType": "bytes4",
          "name": "selector",
          "type": "bytes4"
        }
      ],
      "name": "getTargetFunctionRole",
      "outputs": [
        {
          "internalType": "uint64",
          "name": "",
          "type": "uint64"
        }
      ],
      "stateMutability": "view",
      "type": "function"
    },
    {
      "inputs": [
        {
          "internalType": "uint64",
          "name": "roleId",
          "type": "uint64"
        },
        {
          "internalType": "address",
          "name": "account",
          "type": "address"
        },
        {
          "internalType": "uint32",
          "name": "executionDelay",
          "type": "uint32"
        }
      ],
      "name": "grantRole",
      "outputs": [],
      "stateMutability": "nonpayable",
      "type": "function"
    },
    {
      "inputs": [
        {
          "internalType": "uint64",
          "name": "roleId",
          "type": "uint64"
        },
        {
          "internalType": "address",
          "name": "account",
          "type": "address"
        }
      ],
      "name": "hasRole",
      "outputs": [
        {
          "internalType": "bool",
          "name": "isMember",
          "type": "bool"
        },
        {
          "internalType": "uint32",
          "name": "executionDelay",
          "type": "uint32"
        }
      ],
      "stateMutability": "view",
      "type": "function"
    },
    {
      "inputs": [
        {
          "internalType": "address",
          "name": "caller",
          "type": "address"
        },
        {
          "internalType": "address",
          "name": "target",
          "type": "address"
        },
        {
          "internalType": "bytes",
          "name": "data",
          "type": "bytes"
        }
      ],
      "name": "hashOperation",
      "outputs": [
        {
          "internalType": "bytes32",
          "name": "",
          "type": "bytes32"
        }
      ],
      "stateMutability": "view",
      "type": "function"
    },
    {
      "inputs": [],
      "name": "initialize",
      "outputs": [],
      "stateMutability": "nonpayable",
      "type": "function"
    },
    {
      "inputs": [
        {
          "internalType": "address",
          "name": "target",
          "type": "address"
        }
      ],
      "name": "isTargetClosed",
      "outputs": [
        {
          "internalType": "bool",
          "name": "",
          "type": "bool"
        }
      ],
      "stateMutability": "view",
      "type": "function"
    },
    {
      "inputs": [
        {
          "internalType": "uint64",
          "name": "roleId",
          "type": "uint64"
        },
        {
          "internalType": "string",
          "name": "label",
          "type": "string"
        }
      ],
      "name": "labelRole",
      "outputs": [],
      "stateMutability": "nonpayable",
      "type": "function"
    },
    {
      "inputs": [],
      "name": "minSetback",
      "outputs": [
        {
          "internalType": "uint32",
          "name": "",
          "type": "uint32"
        }
      ],
      "stateMutability": "view",
      "type": "function"
    },
    {
      "inputs": [
        {
          "internalType": "bytes[]",
          "name": "data",
          "type": "bytes[]"
        }
      ],
      "name": "multicall",
      "outputs": [
        {
          "internalType": "bytes[]",
          "name": "results",
          "type": "bytes[]"
        }
      ],
      "stateMutability": "nonpayable",
      "type": "function"
    },
    {
      "inputs": [],
      "name": "proxiableUUID",
      "outputs": [
        {
          "internalType": "bytes32",
          "name": "",
          "type": "bytes32"
        }
      ],
      "stateMutability": "view",
      "type": "function"
    },
    {
      "inputs": [
        {
          "internalType": "uint64",
          "name": "roleId",
          "type": "uint64"
        },
        {
          "internalType": "address",
          "name": "callerConfirmation",
          "type": "address"
        }
      ],
      "name": "renounceRole",
      "outputs": [],
      "stateMutability": "nonpayable",
      "type": "function"
    },
    {
      "inputs": [
        {
          "internalType": "uint64",
          "name": "roleId",
          "type": "uint64"
        },
        {
          "internalType": "address",
          "name": "account",
          "type": "address"
        }
      ],
      "name": "revokeRole",
      "outputs": [],
      "stateMutability": "nonpayable",
      "type": "function"
    },
    {
      "inputs": [
        {
          "internalType": "address",
          "name": "target",
          "type": "address"
        },
        {
          "internalType": "bytes",
          "name": "data",
          "type": "bytes"
        },
        {
          "internalType": "uint48",
          "name": "when",
          "type": "uint48"
        }
      ],
      "name": "schedule",
      "outputs": [
        {
          "internalType": "bytes32",
          "name": "operationId",
          "type": "bytes32"
        },
        {
          "internalType": "uint32",
          "name": "nonce",
          "type": "uint32"
        }
      ],
      "stateMutability": "nonpayable",
      "type": "function"
    },
    {
      "inputs": [
        {
          "internalType": "uint64",
          "name": "roleId",
          "type": "uint64"
        },
        {
          "internalType": "uint32",
          "name": "newDelay",
          "type": "uint32"
        }
      ],
      "name": "setGrantDelay",
      "outputs": [],
      "stateMutability": "nonpayable",
      "type": "function"
    },
    {
      "inputs": [
        {
          "internalType": "uint64",
          "name": "roleId",
          "type": "uint64"
        },
        {
          "internalType": "uint64",
          "name": "admin",
          "type": "uint64"
        }
      ],
      "name": "setRoleAdmin",
      "outputs": [],
      "stateMutability": "nonpayable",
      "type": "function"
    },
    {
      "inputs": [
        {
          "internalType": "uint64",
          "name": "roleId",
          "type": "uint64"
        },
        {
          "internalType": "uint64",
          "name": "guardian",
          "type": "uint64"
        }
      ],
      "name": "setRoleGuardian",
      "outputs": [],
      "stateMutability": "nonpayable",
      "type": "function"
    },
    {
      "inputs": [
        {
          "internalType": "address",
          "name": "target",
          "type": "address"
        },
        {
          "internalType": "uint32",
          "name": "newDelay",
          "type": "uint32"
        }
      ],
      "name": "setTargetAdminDelay",
      "outputs": [],
      "stateMutability": "nonpayable",
      "type": "function"
    },
    {
      "inputs": [
        {
          "internalType": "address",
          "name": "target",
          "type": "address"
        },
        {
          "internalType": "bool",
          "name": "closed",
          "type": "bool"
        }
      ],
      "name": "setTargetClosed",
      "outputs": [],
      "stateMutability": "nonpayable",
      "type": "function"
    },
    {
      "inputs": [
        {
          "internalType": "address",
          "name": "target",
          "type": "address"
        },
        {
          "internalType": "bytes4[]",
          "name": "selectors",
          "type": "bytes4[]"
        },
        {
          "internalType": "uint64",
          "name": "roleId",
          "type": "uint64"
        }
      ],
      "name": "setTargetFunctionRole",
      "outputs": [],
      "stateMutability": "nonpayable",
      "type": "function"
    },
    {
      "inputs": [
        {
          "internalType": "address",
          "name": "target",
          "type": "address"
        },
        {
          "internalType": "address",
          "name": "newAuthority",
          "type": "address"
        }
      ],
      "name": "updateAuthority",
      "outputs": [],
      "stateMutability": "nonpayable",
      "type": "function"
    },
    {
      "inputs": [
        {
          "internalType": "address",
          "name": "newImplementation",
          "type": "address"
        },
        {
          "internalType": "bytes",
          "name": "data",
          "type": "bytes"
        }
      ],
      "name": "upgradeToAndCall",
      "outputs": [],
      "stateMutability": "payable",
      "type": "function"
    }
  ],
  "bytecode": "0x60a0604052306080523480156200001557600080fd5b506200002062000026565b620000da565b7ff0c57e16840df040f15088dc2f81fe391c3923bec73e23a9662efc9c229c6a00805468010000000000000000900460ff1615620000775760405163f92ee8a960e01b815260040160405180910390fd5b80546001600160401b0390811614620000d75780546001600160401b0319166001600160401b0390811782556040519081527fc7f505b2f371ae2175ee4913f4499e1f2633a7b5936321eed1cdaeb6115181d29060200160405180910390a15b50565b60805161313f6200010460003960008181611bf601528181611c1f0152611e25015261313f6000f3fe60806040526004361061020f5760003560e01c80636d5115bd11610118578063ad3cb1cc116100a0578063d1f856ee1161006f578063d1f856ee1461068a578063d22b5989146106aa578063d6bb62c6146106ca578063f801a698146106ea578063fe0776f51461072457600080fd5b8063ad3cb1cc146105da578063b700961314610618578063b7d2b16214610654578063cc1b6c811461067457600080fd5b806394c7d7ee116100e757806394c7d7ee1461051d578063a166aa891461053d578063a64d95ce1461056d578063abd9bd2a1461058d578063ac9650d8146105ad57600080fd5b80636d5115bd146104b357806375b238fc146104d35780638129fc1c146104e8578063853551b8146104fd57600080fd5b80633adc277a1161019b5780634c1da1e21161016a5780634c1da1e21461041d5780634f1ef2861461043d578063529629521461045057806352d1902d14610470578063530dd4561461049357600080fd5b80633adc277a146103955780633ca7c02a146103cc5780634136a33c146103e75780634665096d1461040757600080fd5b806318ff183c116101e257806318ff183c146102c85780631cff79cd146102e857806325c471a0146102fb5780633078f1141461031b57806330cae1871461037557600080fd5b806308d6122d146102145780630b0a93ba1461023657806312be872714610273578063167bd395146102a8575b600080fd5b34801561022057600080fd5b5061023461022f36600461289f565b610744565b005b34801561024257600080fd5b50610256610251366004612905565b61079f565b6040516001600160401b0390911681526020015b60405180910390f35b34801561027f57600080fd5b5061029361028e366004612905565b6107d8565b60405163ffffffff909116815260200161026a565b3480156102b457600080fd5b506102346102c3366004612920565b610824565b3480156102d457600080fd5b506102346102e336600461295e565b61083a565b6102936102f63660046129cd565b6108a1565b34801561030757600080fd5b50610234610316366004612a35565b6109e7565b34801561032757600080fd5b5061033b610336366004612a7a565b610a09565b60405161026a949392919065ffffffffffff948516815263ffffffff93841660208201529190921660408201529116606082015260800190565b34801561038157600080fd5b50610234610390366004612a96565b610a80565b3480156103a157600080fd5b506103b56103b0366004612ac9565b610a92565b60405165ffffffffffff909116815260200161026a565b3480156103d857600080fd5b506102566001600160401b0381565b3480156103f357600080fd5b50610293610402366004612ac9565b610ad7565b34801561041357600080fd5b5062093a80610293565b34801561042957600080fd5b50610293610438366004612ae2565b610b04565b61023461044b366004612b15565b610b40565b34801561045c57600080fd5b5061023461046b366004612a96565b610b5b565b34801561047c57600080fd5b50610485610b6d565b60405190815260200161026a565b34801561049f57600080fd5b506102566104ae366004612905565b610b8a565b3480156104bf57600080fd5b506102566104ce366004612bee565b610bbc565b3480156104df57600080fd5b50610256600081565b3480156104f457600080fd5b50610234610c05565b34801561050957600080fd5b50610234610518366004612c1c565b610d11565b34801561052957600080fd5b506102346105383660046129cd565b610da8565b34801561054957600080fd5b5061055d610558366004612ae2565b610e54565b604051901515815260200161026a565b34801561057957600080fd5b50610234610588366004612c3a565b610e8d565b34801561059957600080fd5b506104856105a8366004612c64565b610e9f565b3480156105b957600080fd5b506105cd6105c8366004612cc8565b610ed8565b60405161026a9190612d59565b3480156105e657600080fd5b5061060b604051806040016040528060058152602001640352e302e360dc1b81525081565b60405161026a9190612dbb565b34801561062457600080fd5b50610638610633366004612dce565b610fcc565b60408051921515835263ffffffff90911660208301520161026a565b34801561066057600080fd5b5061023461066f366004612a7a565b611053565b34801561068057600080fd5b5062069780610293565b34801561069657600080fd5b506106386106a5366004612a7a565b61106a565b3480156106b657600080fd5b506102346106c5366004612e19565b6110e7565b3480156106d657600080fd5b506102936106e5366004612c64565b6110f9565b3480156106f657600080fd5b5061070a610705366004612e37565b611264565b6040805192835263ffffffff90911660208301520161026a565b34801561073057600080fd5b5061023461073f366004612a7a565b61140f565b61074c611438565b60005b82811015610798576107888585858481811061076d5761076d612ea9565b90506020020160208101906107829190612ebf565b846114b3565b61079181612ef2565b905061074f565b5050505050565b6000806107aa611541565b6001600160401b0393841660009081526001918201602052604090200154600160401b900490921692915050565b6000806107e3611541565b6001600160401b038416600090815260018281016020526040909120015490915061081d90600160801b90046001600160701b0316611565565b9392505050565b61082c611438565b6108368282611584565b5050565b610842611438565b604051637a9e5e4b60e01b81526001600160a01b038281166004830152831690637a9e5e4b90602401600060405180830381600087803b15801561088557600080fd5b505af1158015610899573d6000803e3d6000fd5b505050505050565b6000806108ac611541565b9050336000806108be8389898961162a565b91509150811580156108d4575063ffffffff8116155b156109275782886108e5898961167d565b6040516381c6f24b60e01b81526001600160a01b0393841660048201529290911660248301526001600160e01b03191660448201526064015b60405180910390fd5b6000610935848a8a8a610e9f565b9050600063ffffffff831615158061095c575061095182610a92565b65ffffffffffff1615155b1561096d5761096a82611695565b90505b60038601546109858b6109808c8c61167d565b6117a9565b87600301819055506109cf8b8b8b8080601f0160208091040260200160405190810160405280939291908181526020018383808284376000920191909152503492506117eb915050565b50600390960195909555509293505050509392505050565b6109ef611438565b610a0383836109fd866107d8565b84611888565b50505050565b6000806000806000610a19611541565b6001600160401b038816600090815260018201602090815260408083206001600160a01b038b1684529091529020805465ffffffffffff8116975091925090610a7190600160301b90046001600160701b0316611ae7565b979a9199509750945050505050565b610a88611438565b6108368282611b0a565b600080610a9d611541565b600084815260028201602052604090205490915065ffffffffffff16610ac281611bbc565b610acc5780610acf565b60005b949350505050565b600080610ae2611541565b600093845260020160205250506040902054600160301b900463ffffffff1690565b600080610b0f611541565b6001600160a01b03841660009081526020829052604090206001015490915061081d906001600160701b0316611565565b610b48611beb565b610b5182611c92565b6108368282611c9d565b610b63611438565b6108368282611d5a565b6000610b77611e1a565b506000805160206130ea83398151915290565b600080610b95611541565b6001600160401b039384166000908152600191820160205260409020015490921692915050565b600080610bc7611541565b6001600160a01b0385166000908152602091825260408082206001600160e01b03198716835290925220546001600160401b03169150505b92915050565b7ff0c57e16840df040f15088dc2f81fe391c3923bec73e23a9662efc9c229c6a008054600160401b810460ff1615906001600160401b0316600081158015610c4a5750825b90506000826001600160401b03166001148015610c665750303b155b905081158015610c74575080155b15610c925760405163f92ee8a960e01b815260040160405180910390fd5b845467ffffffffffffffff191660011785558315610cbc57845460ff60401b1916600160401b1785555b610cc533611e63565b831561079857845460ff60401b19168555604051600181527fc7f505b2f371ae2175ee4913f4499e1f2633a7b5936321eed1cdaeb6115181d29060200160405180910390a15050505050565b610d19611438565b6001600160401b0383161580610d3757506001600160401b03838116145b15610d605760405163061c6a4360e21b81526001600160401b038416600482015260240161091e565b826001600160401b03167f1256f5b5ecb89caec12db449738f2fbcd1ba5806cf38f35413f4e5c15bf6a4508383604051610d9b929190612f34565b60405180910390a2505050565b60408051638fb3603760e01b80825291513392918391638fb36037916004808201926020929091908290030181865afa158015610de9573d6000803e3d6000fd5b505050506040513d601f19601f82011682018060405250810190610e0d9190612f48565b6001600160e01b03191614610e4057604051630641fee960e31b81526001600160a01b038216600482015260240161091e565b610798610e4f85838686610e9f565b611695565b600080610e5f611541565b6001600160a01b0390931660009081526020939093525050604090206001015460ff600160701b9091041690565b610e95611438565b6108368282611e74565b600084848484604051602001610eb89493929190612f65565b604051602081830303815290604052805190602001209050949350505050565b6060816001600160401b03811115610ef257610ef2612aff565b604051908082528060200260200182016040528015610f2557816020015b6060815260200190600190039081610f105790505b50905060005b82811015610fc557610f9530858584818110610f4957610f49612ea9565b9050602002810190610f5b9190612f92565b8080601f016020809104026020016040519081016040528093929190818152602001838380828437600092019190915250611fa192505050565b828281518110610fa757610fa7612ea9565b60200260200101819052508080610fbd90612ef2565b915050610f2b565b5092915050565b600080610fd884610e54565b15610fe85750600090508061104b565b306001600160a01b0386160361100d576110028484612017565b60009150915061104b565b60006110198585610bbc565b9050600080611028838961106a565b915091508161103957600080611043565b63ffffffff811615815b945094505050505b935093915050565b61105b611438565b611065828261203c565b505050565b60008067fffffffffffffffe196001600160401b0385160161109257506001905060006110e0565b60008061109f8686610a09565b5050915091508165ffffffffffff166000141580156110d557506110c161213b565b65ffffffffffff168265ffffffffffff1611155b935091506110e09050565b9250929050565b6110ef611438565b610836828261214b565b600080611104611541565b9050336000611113868661167d565b9050600061112389898989610e9f565b600081815260028601602052604081205491925065ffffffffffff90911690036111635760405163060a299b60e41b81526004810182905260240161091e565b826001600160a01b0316896001600160a01b0316146111ff57600061118960008561106a565b50905060006111a461119e6102518c87610bbc565b8661106a565b509050811580156111b3575080155b156111fc57604051630ff89d4760e21b81526001600160a01b038087166004830152808d1660248301528b1660448201526001600160e01b03198516606482015260840161091e565b50505b6000818152600285016020526040808220805465ffffffffffff1916908190559051600160301b90910463ffffffff1691829184917fbd9ac67a6e2f6463b80927326310338bcbb4bdb7936ce1365ea3e01067e7b9f791a39998505050505050505050565b6000806000611271611541565b9050336000611282828a8a8a61162a565b91505060008163ffffffff1661129661213b565b6112a09190612fd8565b905063ffffffff821615806112d7575060008765ffffffffffff161180156112d757508065ffffffffffff168765ffffffffffff16105b156112e857828a6108e58b8b61167d565b6113028765ffffffffffff168265ffffffffffff16612217565b9650611310838b8b8b610e9f565b955061131b8661222d565b83600201600087815260200190815260200160002060000160069054906101000a900463ffffffff1660010194508684600201600088815260200190815260200160002060000160006101000a81548165ffffffffffff021916908365ffffffffffff1602179055508484600201600088815260200190815260200160002060000160066101000a81548163ffffffff021916908363ffffffff1602179055508463ffffffff16867f82a2da5dee54ea8021c6545b4444620291e07ee83be6dd57edb175062715f3b489868e8e8e6040516113fa959493929190612ff7565b60405180910390a35050505094509492505050565b6001600160a01b038116331461105b57604051635f159e6360e01b815260040160405180910390fd5b33600080611447838236612289565b9150915081611065578063ffffffff166000036114a357600061146a8136612341565b5060405163f07e038f60e01b81526001600160a01b03871660048201526001600160401b0382166024820152909250604401905061091e565b610a03610e4f8430600036610e9f565b60006114bd611541565b6001600160a01b0385166000818152602083815260408083206001600160e01b0319891680855290835292819020805467ffffffffffffffff19166001600160401b03891690811790915590519283529394507f9ea6790c7dadfd01c9f8b9762b3682607af2c7e79e05a9f9fdf5580dde949151910160405180910390a350505050565b7f40c6c8c28789853c7efd823ab20824bbd71718a8a5915e855f6f288c9a26ad0090565b60008061157a836001600160701b0316611ae7565b5090949350505050565b600061158e611541565b9050306001600160a01b038416036115c457604051630b40d17960e31b81526001600160a01b038416600482015260240161091e565b6001600160a01b038316600081815260208390526040908190206001018054851515600160701b0260ff60701b19909116179055517f90d4e7bb7e5d933792b3562e1741306f8be94837e1348dacef9b6f1df56eb13890610d9b90851515815260200190565b600080306001600160a01b0386160361165157611648868585612289565b91509150611674565b6004831061166d576116688686610633878761167d565b611648565b5060009050805b94509492505050565b600061168c600482848661303d565b61081d91613067565b6000806116a0611541565b600084815260028201602052604081205491925065ffffffffffff821691600160301b900463ffffffff16908290036116ef5760405163060a299b60e41b81526004810186905260240161091e565b6116f761213b565b65ffffffffffff168265ffffffffffff16111561172a57604051630c65b5bd60e11b81526004810186905260240161091e565b61173382611bbc565b1561175457604051631e2975b960e21b81526004810186905260240161091e565b6000858152600284016020526040808220805465ffffffffffff191690555163ffffffff83169187917f76a2a46953689d4861a5d3f6ed883ad7e6af674a21f8e162707159fc9dde614d9190a3949350505050565b604080516001600160a01b03939093166020808501919091526001600160e01b0319929092168382015280518084038201815260609093019052815191012090565b6060814710156118105760405163cd78605960e01b815230600482015260240161091e565b600080856001600160a01b0316848660405161182c9190613097565b60006040518083038185875af1925050503d8060008114611869576040519150601f19603f3d011682016040523d82523d6000602084013e61186e565b606091505b509150915061187e86838361250d565b9695505050505050565b600080611893611541565b905067fffffffffffffffe196001600160401b038716016118d25760405163061c6a4360e21b81526001600160401b038716600482015260240161091e565b6001600160401b038616600090815260018201602090815260408083206001600160a01b038916845290915281205465ffffffffffff16159081156119c8578563ffffffff1661192061213b565b61192a9190612fd8565b905060405180604001604052808265ffffffffffff1681526020016119588763ffffffff1663ffffffff1690565b6001600160701b039081169091526001600160401b038a16600090815260018601602090815260408083206001600160a01b038d1684528252909120835181549490920151909216600160301b026001600160a01b031990931665ffffffffffff90911617919091179055611a78565b6001600160401b038816600090815260018401602090815260408083206001600160a01b038b168452909152812054611a1491600160301b9091046001600160701b0316908790612569565b6001600160401b038a16600090815260018601602090815260408083206001600160a01b038d168452909152902080546001600160701b03909316600160301b0273ffffffffffffffffffffffffffff000000000000199093169290921790915590505b6040805163ffffffff8716815265ffffffffffff831660208201528315158183015290516001600160a01b038916916001600160401b038b16917ff98448b987f1428e0e230e1f3c6e2ce15b5693eaf31827fbd0b1ec4b424ae7cf9181900360600190a3509695505050505050565b6000806000611afd84611af861213b565b612613565b9250925092509193909250565b6000611b14611541565b90506001600160401b0383161580611b3457506001600160401b03838116145b15611b5d5760405163061c6a4360e21b81526001600160401b038416600482015260240161091e565b6001600160401b03838116600081815260018481016020526040808320909101805467ffffffffffffffff19169487169485179055517f1fd6dd7631312dfac2205b52913f99de03b4d7e381d5d27d3dbfe0713e6e63409190a3505050565b6000611bc661213b565b65ffffffffffff16611bdb62093a8084612fd8565b65ffffffffffff16111592915050565b306001600160a01b037f0000000000000000000000000000000000000000000000000000000000000000161480611c7257507f00000000000000000000000000000000000000000000000000000000000000006001600160a01b0316611c666000805160206130ea833981519152546001600160a01b031690565b6001600160a01b031614155b15611c905760405163703e46dd60e11b815260040160405180910390fd5b565b611c9a611438565b50565b816001600160a01b03166352d1902d6040518163ffffffff1660e01b8152600401602060405180830381865afa925050508015611cf7575060408051601f3d908101601f19168201909252611cf4918101906130b3565b60015b611d1f57604051634c9c8ce360e01b81526001600160a01b038316600482015260240161091e565b6000805160206130ea8339815191528114611d5057604051632a87526960e21b81526004810182905260240161091e565b6110658383612667565b6000611d64611541565b90506001600160401b0383161580611d8457506001600160401b03838116145b15611dad5760405163061c6a4360e21b81526001600160401b038416600482015260240161091e565b6001600160401b0383811660008181526001848101602052604080832090910180546fffffffffffffffff00000000000000001916600160401b958816958602179055517f7a8059630b897b5de4c08ade69f8b90c3ead1f8596d62d10b6c4d14a0afb4ae29190a3505050565b306001600160a01b037f00000000000000000000000000000000000000000000000000000000000000001614611c905760405163703e46dd60e11b815260040160405180910390fd5b611e6b6126bd565b611c9a81612706565b6000611e7e611541565b905067fffffffffffffffe196001600160401b03841601611ebd5760405163061c6a4360e21b81526001600160401b038416600482015260240161091e565b6001600160401b03831660009081526001828101602052604082200154611ef890600160801b90046001600160701b03168462069780612569565b6001600160401b038616600081815260018087016020526040918290200180546001600160701b03909516600160801b026dffffffffffffffffffffffffffff60801b199095169490941790935591519092507ffeb69018ee8b8fd50ea86348f1267d07673379f72cffdeccec63853ee8ce8b4890611f93908690859063ffffffff92909216825265ffffffffffff16602082015260400190565b60405180910390a250505050565b6060600080846001600160a01b031684604051611fbe9190613097565b600060405180830381855af49150503d8060008114611ff9576040519150601f19603f3d011682016040523d82523d6000602084013e611ffe565b606091505b509150915061200e85838361250d565b95945050505050565b600080612022611541565b905061202e84846117a9565b600390910154149392505050565b600080612047611541565b905067fffffffffffffffe196001600160401b038516016120865760405163061c6a4360e21b81526001600160401b038516600482015260240161091e565b6001600160401b038416600090815260018201602090815260408083206001600160a01b038716845290915281205465ffffffffffff1690036120cd576000915050610bff565b6001600160401b038416600081815260018301602090815260408083206001600160a01b038816808552925280832080546001600160a01b0319169055519092917ff229baa593af28c41b1d16b748cd7688f0c83aaf92d4be41c44005defe84c16691a35060019392505050565b600061214642612746565b905090565b6000612155611541565b9050600061218d83620697806001600160a01b0387166000908152602086905260409020600101546001600160701b03169190612569565b6001600160a01b0386166000818152602086815260409182902060010180546dffffffffffffffffffffffffffff19166001600160701b039690961695909517909455805163ffffffff8816815265ffffffffffff841694810194909452919350917fa56b76017453f399ec2327ba00375dbfb1fd070ff854341ad6191e6a2e2de19c9101611f93565b6000818311612226578161081d565b5090919050565b6000612237611541565b600083815260028201602052604090205490915065ffffffffffff168015801590612268575061226681611bbc565b155b156110655760405163813e945960e01b81526004810184905260240161091e565b60008060048310156122a05750600090508061104b565b306001600160a01b038616036122c357611002306122be868661167d565b612017565b60008060006122d28787612341565b925092509250826122ec576000809450945050505061104b565b6000806122f9848b61106a565b91509150816123135760008096509650505050505061104b565b6123298363ffffffff168263ffffffff16612217565b63ffffffff8116159b909a5098505050505050505050565b60008080600484101561235c57506000915081905080612506565b6000612368868661167d565b90506001600160e01b031981166310a6aa3760e31b148061239957506001600160e01b031981166330cae18760e01b145b806123b457506001600160e01b0319811663294b14a960e11b145b806123cf57506001600160e01b03198116635326cae760e11b145b806123ea57506001600160e01b0319811663d22b598960e01b145b1561240057600160008093509350935050612506565b6001600160e01b0319811663063fc60f60e21b148061242f57506001600160e01b0319811663167bd39560e01b145b8061244a57506001600160e01b031981166308d6122d60e01b145b1561248c57600061245f60246004888a61303d565b81019061246c9190612ae2565b9050600061247982610b04565b6001965060009550935061250692505050565b6001600160e01b0319811663012e238d60e51b14806124bb57506001600160e01b03198116635be958b160e11b145b156124f95760006124d060246004888a61303d565b8101906124dd9190612905565b905060016124ea82610b8a565b60009450945094505050612506565b6000806000935093509350505b9250925092565b6060826125225761251d8261277d565b61081d565b815115801561253957506001600160a01b0384163b155b1561256257604051639996b31560e01b81526001600160a01b038516600482015260240161091e565b508061081d565b6000806000612580866001600160701b0316611565565b905060006125bd8563ffffffff168763ffffffff168463ffffffff16116125a85760006125b2565b6125b288856130cc565b63ffffffff16612217565b90508063ffffffff166125ce61213b565b6125d89190612fd8565b925063ffffffff8616602083901b67ffffffff0000000016604085901b6dffffffffffff000000000000000016171793505050935093915050565b6000808069ffffffffffffffffffff602086901c166001600160701b03861665ffffffffffff604088901c811690871681111561265257828282612657565b816000805b9550955095505050509250925092565b612670826127a6565b6040516001600160a01b038316907fbc7cd75a20ee27fd9adebab32041f755214dbc6bffa90cc0225b39da2e5c2d3b90600090a28051156126b5576110658282611fa1565b61083661280b565b7ff0c57e16840df040f15088dc2f81fe391c3923bec73e23a9662efc9c229c6a0054600160401b900460ff16611c9057604051631afcd79f60e31b815260040160405180910390fd5b61270e6126bd565b6001600160a01b03811661273857604051630409d6d160e11b81526000600482015260240161091e565b610836600082600080611888565b600065ffffffffffff821115612779576040516306dfcc6560e41b8152603060048201526024810183905260440161091e565b5090565b80511561278d5780518082602001fd5b604051630a12f52160e11b815260040160405180910390fd5b806001600160a01b03163b6000036127dc57604051634c9c8ce360e01b81526001600160a01b038216600482015260240161091e565b6000805160206130ea83398151915280546001600160a01b0319166001600160a01b0392909216919091179055565b3415611c905760405163b398979f60e01b815260040160405180910390fd5b6001600160a01b0381168114611c9a57600080fd5b60008083601f84011261285157600080fd5b5081356001600160401b0381111561286857600080fd5b6020830191508360208260051b85010111156110e057600080fd5b80356001600160401b038116811461289a57600080fd5b919050565b600080600080606085870312156128b557600080fd5b84356128c08161282a565b935060208501356001600160401b038111156128db57600080fd5b6128e78782880161283f565b90945092506128fa905060408601612883565b905092959194509250565b60006020828403121561291757600080fd5b61081d82612883565b6000806040838503121561293357600080fd5b823561293e8161282a565b91506020830135801515811461295357600080fd5b809150509250929050565b6000806040838503121561297157600080fd5b823561297c8161282a565b915060208301356129538161282a565b60008083601f84011261299e57600080fd5b5081356001600160401b038111156129b557600080fd5b6020830191508360208285010111156110e057600080fd5b6000806000604084860312156129e257600080fd5b83356129ed8161282a565b925060208401356001600160401b03811115612a0857600080fd5b612a148682870161298c565b9497909650939450505050565b803563ffffffff8116811461289a57600080fd5b600080600060608486031215612a4a57600080fd5b612a5384612883565b92506020840135612a638161282a565b9150612a7160408501612a21565b90509250925092565b60008060408385031215612a8d57600080fd5b61297c83612883565b60008060408385031215612aa957600080fd5b612ab283612883565b9150612ac060208401612883565b90509250929050565b600060208284031215612adb57600080fd5b5035919050565b600060208284031215612af457600080fd5b813561081d8161282a565b634e487b7160e01b600052604160045260246000fd5b60008060408385031215612b2857600080fd5b8235612b338161282a565b915060208301356001600160401b0380821115612b4f57600080fd5b818501915085601f830112612b6357600080fd5b813581811115612b7557612b75612aff565b604051601f8201601f19908116603f01168101908382118183101715612b9d57612b9d612aff565b81604052828152886020848701011115612bb657600080fd5b8260208601602083013760006020848301015280955050505050509250929050565b6001600160e01b031981168114611c9a57600080fd5b60008060408385031215612c0157600080fd5b8235612c0c8161282a565b9150602083013561295381612bd8565b600080600060408486031215612c3157600080fd5b6129ed84612883565b60008060408385031215612c4d57600080fd5b612c5683612883565b9150612ac060208401612a21565b60008060008060608587031215612c7a57600080fd5b8435612c858161282a565b93506020850135612c958161282a565b925060408501356001600160401b03811115612cb057600080fd5b612cbc8782880161298c565b95989497509550505050565b60008060208385031215612cdb57600080fd5b82356001600160401b03811115612cf157600080fd5b612cfd8582860161283f565b90969095509350505050565b60005b83811015612d24578181015183820152602001612d0c565b50506000910152565b60008151808452612d45816020860160208601612d09565b601f01601f19169290920160200192915050565b6000602080830181845280855180835260408601915060408160051b870101925083870160005b82811015612dae57603f19888603018452612d9c858351612d2d565b94509285019290850190600101612d80565b5092979650505050505050565b60208152600061081d6020830184612d2d565b600080600060608486031215612de357600080fd5b8335612dee8161282a565b92506020840135612dfe8161282a565b91506040840135612e0e81612bd8565b809150509250925092565b60008060408385031215612e2c57600080fd5b8235612c568161282a565b60008060008060608587031215612e4d57600080fd5b8435612e588161282a565b935060208501356001600160401b03811115612e7357600080fd5b612e7f8782880161298c565b909450925050604085013565ffffffffffff81168114612e9e57600080fd5b939692955090935050565b634e487b7160e01b600052603260045260246000fd5b600060208284031215612ed157600080fd5b813561081d81612bd8565b634e487b7160e01b600052601160045260246000fd5b600060018201612f0457612f04612edc565b5060010190565b81835281816020850137506000828201602090810191909152601f909101601f19169091010190565b602081526000610acf602083018486612f0b565b600060208284031215612f5a57600080fd5b815161081d81612bd8565b6001600160a01b0385811682528416602082015260606040820181905260009061187e9083018486612f0b565b6000808335601e19843603018112612fa957600080fd5b8301803591506001600160401b03821115612fc357600080fd5b6020019150368190038213156110e057600080fd5b65ffffffffffff818116838216019080821115610fc557610fc5612edc565b65ffffffffffff861681526001600160a01b038581166020830152841660408201526080606082018190526000906130329083018486612f0b565b979650505050505050565b6000808585111561304d57600080fd5b8386111561305a57600080fd5b5050820193919092039150565b6001600160e01b0319813581811691600485101561308f5780818660040360031b1b83161692505b505092915050565b600082516130a9818460208701612d09565b9190910192915050565b6000602082840312156130c557600080fd5b5051919050565b63ffffffff828116828216039080821115610fc557610fc5612edc56fe360894a13ba1a3210667c828492db98dca3e2076cc3735a920a3ca505d382bbca26469706673582212202c4e345c34a56dfc0e3ae1b1957b74546ec9fa7e5e16995510a4061842e47a1c64736f6c63430008140033",
  "linkReferences": {},
  "deployedLinkReferences": {}
}