{
  "_format": "hh-sol-artifact-1",
  "contractName": "L2NFTBridge",
  "sourceName": "contracts/npc/BobaBridge/NFT/L2/L2NFTBridge.sol",
  "abi": [
    {
      "inputs": [],
      "stateMutability": "nonpayable",
      "type": "constructor"
    },
    {
      "anonymous": false,
      "inputs": [
        {
          "indexed": true,
          "internalType": "address",
          "name": "l1Token",
          "type": "address"
        },
        {
          "indexed": true,
          "internalType": "address",
          "name": "l2Token",
          "type": "address"
        },
        {
          "indexed": true,
          "internalType": "address",
          "name": "from",
          "type": "address"
        },
        {
          "indexed": false,
          "internalType": "address",
          "name": "to",
          "type": "address"
        },
        {
          "indexed": false,
          "internalType": "uint256",
          "name": "tokenId",
          "type": "uint256"
        },
        {
          "indexed": false,
          "internalType": "uint256",
          "name": "amount",
          "type": "uint256"
        },
        {
          "indexed": false,
          "internalType": "enum INFTBridge.NFTType",
          "name": "nftType",
          "type": "uint8"
        },
        {
          "indexed": false,
          "internalType": "bytes",
          "name": "data",
          "type": "bytes"
        }
      ],
      "name": "BridgeFailed",
      "type": "event"
    },
    {
      "anonymous": false,
      "inputs": [
        {
          "indexed": true,
          "internalType": "address",
          "name": "l1Token",
          "type": "address"
        },
        {
          "indexed": true,
          "internalType": "address",
          "name": "l2Token",
          "type": "address"
        },
        {
          "indexed": true,
          "internalType": "address",
          "name": "from",
          "type": "address"
        },
        {
          "indexed": false,
          "internalType": "address",
          "name": "to",
          "type": "address"
        },
        {
          "indexed": false,
          "internalType": "uint256",
          "name": "tokenId",
          "type": "uint256"
        },
        {
          "indexed": false,
          "internalType": "uint256",
          "name": "amount",
          "type": "uint256"
        },
        {
          "indexed": false,
          "internalType": "enum INFTBridge.NFTType",
          "name": "nftType",
          "type": "uint8"
        },
        {
          "indexed": false,
          "internalType": "bytes",
          "name": "data",
          "type": "bytes"
        }
      ],
      "name": "BridgeFinalized",
      "type": "event"
    },
    {
      "anonymous": false,
      "inputs": [
        {
          "indexed": true,
          "internalType": "address",
          "name": "l1Nft",
          "type": "address"
        },
        {
          "indexed": true,
          "internalType": "address",
          "name": "l2Nft",
          "type": "address"
        },
        {
          "indexed": true,
          "internalType": "address",
          "name": "from",
          "type": "address"
        },
        {
          "indexed": false,
          "internalType": "address",
          "name": "to",
          "type": "address"
        },
        {
          "indexed": false,
          "internalType": "uint256",
          "name": "tokenId",
          "type": "uint256"
        },
        {
          "indexed": false,
          "internalType": "uint256",
          "name": "amount",
          "type": "uint256"
        },
        {
          "indexed": false,
          "internalType": "enum INFTBridge.NFTType",
          "name": "nftType",
          "type": "uint8"
        },
        {
          "indexed": false,
          "internalType": "bytes",
          "name": "data",
          "type": "bytes"
        }
      ],
      "name": "BridgeInitiated",
      "type": "event"
    },
    {
      "anonymous": false,
      "inputs": [
        {
          "indexed": false,
          "internalType": "uint8",
          "name": "version",
          "type": "uint8"
        }
      ],
      "name": "Initialized",
      "type": "event"
    },
    {
      "anonymous": false,
      "inputs": [
        {
          "indexed": false,
          "internalType": "address",
          "name": "account",
          "type": "address"
        }
      ],
      "name": "Paused",
      "type": "event"
    },
    {
      "anonymous": false,
      "inputs": [
        {
          "indexed": true,
          "internalType": "bytes32",
          "name": "role",
          "type": "bytes32"
        },
        {
          "indexed": true,
          "internalType": "bytes32",
          "name": "previousAdminRole",
          "type": "bytes32"
        },
        {
          "indexed": true,
          "internalType": "bytes32",
          "name": "newAdminRole",
          "type": "bytes32"
        }
      ],
      "name": "RoleAdminChanged",
      "type": "event"
    },
    {
      "anonymous": false,
      "inputs": [
        {
          "indexed": true,
          "internalType": "bytes32",
          "name": "role",
          "type": "bytes32"
        },
        {
          "indexed": true,
          "internalType": "address",
          "name": "account",
          "type": "address"
        },
        {
          "indexed": true,
          "internalType": "address",
          "name": "sender",
          "type": "address"
        }
      ],
      "name": "RoleGranted",
      "type": "event"
    },
    {
      "anonymous": false,
      "inputs": [
        {
          "indexed": true,
          "internalType": "bytes32",
          "name": "role",
          "type": "bytes32"
        },
        {
          "indexed": true,
          "internalType": "address",
          "name": "account",
          "type": "address"
        },
        {
          "indexed": true,
          "internalType": "address",
          "name": "sender",
          "type": "address"
        }
      ],
      "name": "RoleRevoked",
      "type": "event"
    },
    {
      "anonymous": false,
      "inputs": [
        {
          "indexed": false,
          "internalType": "address",
          "name": "account",
          "type": "address"
        }
      ],
      "name": "Unpaused",
      "type": "event"
    },
    {
      "inputs": [],
      "name": "DEFAULT_ADMIN_ROLE",
      "outputs": [
        {
          "internalType": "bytes32",
          "name": "",
          "type": "bytes32"
        }
      ],
      "stateMutability": "view",
      "type": "function"
    },
    {
      "inputs": [],
      "name": "NFTBridge",
      "outputs": [
        {
          "internalType": "address",
          "name": "",
          "type": "address"
        }
      ],
      "stateMutability": "view",
      "type": "function"
    },
    {
      "inputs": [],
      "name": "billingContract",
      "outputs": [
        {
          "internalType": "address",
          "name": "",
          "type": "address"
        }
      ],
      "stateMutability": "view",
      "type": "function"
    },
    {
      "inputs": [
        {
          "internalType": "address",
          "name": "nft",
          "type": "address"
        },
        {
          "internalType": "address",
          "name": "to",
          "type": "address"
        },
        {
          "internalType": "uint256",
          "name": "tokenId",
          "type": "uint256"
        },
        {
          "internalType": "uint256",
          "name": "amount",
          "type": "uint256"
        },
        {
          "internalType": "enum INFTBridge.NFTType",
          "name": "nftType",
          "type": "uint8"
        },
        {
          "internalType": "uint32",
          "name": "gas",
          "type": "uint32"
        }
      ],
      "name": "bridge",
      "outputs": [],
      "stateMutability": "payable",
      "type": "function"
    },
    {
      "inputs": [],
      "name": "exitGas",
      "outputs": [
        {
          "internalType": "uint32",
          "name": "",
          "type": "uint32"
        }
      ],
      "stateMutability": "view",
      "type": "function"
    },
    {
      "inputs": [],
      "name": "extraGasRelay",
      "outputs": [
        {
          "internalType": "uint256",
          "name": "",
          "type": "uint256"
        }
      ],
      "stateMutability": "view",
      "type": "function"
    },
    {
      "inputs": [
        {
          "internalType": "address",
          "name": "l1Nft",
          "type": "address"
        },
        {
          "internalType": "address",
          "name": "l2Nft",
          "type": "address"
        },
        {
          "internalType": "address",
          "name": "from",
          "type": "address"
        },
        {
          "internalType": "address",
          "name": "to",
          "type": "address"
        },
        {
          "internalType": "uint256",
          "name": "tokenId",
          "type": "uint256"
        },
        {
          "internalType": "uint256",
          "name": "amount",
          "type": "uint256"
        },
        {
          "internalType": "enum INFTBridge.NFTType",
          "name": "nftType",
          "type": "uint8"
        },
        {
          "internalType": "bytes",
          "name": "data",
          "type": "bytes"
        }
      ],
      "name": "finalize",
      "outputs": [],
      "stateMutability": "nonpayable",
      "type": "function"
    },
    {
      "inputs": [
        {
          "internalType": "bytes32",
          "name": "role",
          "type": "bytes32"
        }
      ],
      "name": "getRoleAdmin",
      "outputs": [
        {
          "internalType": "bytes32",
          "name": "",
          "type": "bytes32"
        }
      ],
      "stateMutability": "view",
      "type": "function"
    },
    {
      "inputs": [
        {
          "internalType": "bytes32",
          "name": "role",
          "type": "bytes32"
        },
        {
          "internalType": "uint256",
          "name": "index",
          "type": "uint256"
        }
      ],
      "name": "getRoleMember",
      "outputs": [
        {
          "internalType": "address",
          "name": "",
          "type": "address"
        }
      ],
      "stateMutability": "view",
      "type": "function"
    },
    {
      "inputs": [
        {
          "internalType": "bytes32",
          "name": "role",
          "type": "bytes32"
        }
      ],
      "name": "getRoleMemberCount",
      "outputs": [
        {
          "internalType": "uint256",
          "name": "",
          "type": "uint256"
        }
      ],
      "stateMutability": "view",
      "type": "function"
    },
    {
      "inputs": [
        {
          "internalType": "bytes32",
          "name": "role",
          "type": "bytes32"
        },
        {
          "internalType": "address",
          "name": "account",
          "type": "address"
        }
      ],
      "name": "grantRole",
      "outputs": [],
      "stateMutability": "nonpayable",
      "type": "function"
    },
    {
      "inputs": [
        {
          "internalType": "bytes32",
          "name": "role",
          "type": "bytes32"
        },
        {
          "internalType": "address",
          "name": "account",
          "type": "address"
        }
      ],
      "name": "hasRole",
      "outputs": [
        {
          "internalType": "bool",
          "name": "",
          "type": "bool"
        }
      ],
      "stateMutability": "view",
      "type": "function"
    },
    {
      "inputs": [],
      "name": "initialize",
      "outputs": [],
      "stateMutability": "nonpayable",
      "type": "function"
    },
    {
      "inputs": [
        {
          "internalType": "address",
          "name": "nft",
          "type": "address"
        },
        {
          "internalType": "enum INFTBridge.NFTType",
          "name": "nftType",
          "type": "uint8"
        }
      ],
      "name": "isBridgeCompliant",
      "outputs": [
        {
          "internalType": "bool",
          "name": "",
          "type": "bool"
        }
      ],
      "stateMutability": "view",
      "type": "function"
    },
    {
      "inputs": [],
      "name": "messenger",
      "outputs": [
        {
          "internalType": "address",
          "name": "",
          "type": "address"
        }
      ],
      "stateMutability": "view",
      "type": "function"
    },
    {
      "inputs": [
        {
          "internalType": "address",
          "name": "",
          "type": "address"
        }
      ],
      "name": "pairNFTInfo",
      "outputs": [
        {
          "internalType": "address",
          "name": "l1Nft",
          "type": "address"
        },
        {
          "internalType": "address",
          "name": "l2Nft",
          "type": "address"
        },
        {
          "internalType": "enum INFTBridge.NFTType",
          "name": "nftType",
          "type": "uint8"
        }
      ],
      "stateMutability": "view",
      "type": "function"
    },
    {
      "inputs": [],
      "name": "pause",
      "outputs": [],
      "stateMutability": "nonpayable",
      "type": "function"
    },
    {
      "inputs": [],
      "name": "paused",
      "outputs": [
        {
          "internalType": "bool",
          "name": "",
          "type": "bool"
        }
      ],
      "stateMutability": "view",
      "type": "function"
    },
    {
      "inputs": [
        {
          "internalType": "address",
          "name": "l1Nft",
          "type": "address"
        },
        {
          "internalType": "address",
          "name": "l2Nft",
          "type": "address"
        },
        {
          "internalType": "enum INFTBridge.NFTType",
          "name": "nftType",
          "type": "uint8"
        }
      ],
      "name": "registerNFTPair",
      "outputs": [],
      "stateMutability": "nonpayable",
      "type": "function"
    },
    {
      "inputs": [
        {
          "internalType": "bytes32",
          "name": "role",
          "type": "bytes32"
        },
        {
          "internalType": "address",
          "name": "account",
          "type": "address"
        }
      ],
      "name": "renounceRole",
      "outputs": [],
      "stateMutability": "nonpayable",
      "type": "function"
    },
    {
      "inputs": [
        {
          "internalType": "bytes32",
          "name": "role",
          "type": "bytes32"
        },
        {
          "internalType": "address",
          "name": "account",
          "type": "address"
        }
      ],
      "name": "revokeRole",
      "outputs": [],
      "stateMutability": "nonpayable",
      "type": "function"
    },
    {
      "inputs": [
        {
          "internalType": "bytes4",
          "name": "interfaceId",
          "type": "bytes4"
        }
      ],
      "name": "supportsInterface",
      "outputs": [
        {
          "internalType": "bool",
          "name": "",
          "type": "bool"
        }
      ],
      "stateMutability": "view",
      "type": "function"
    },
    {
      "inputs": [],
      "name": "unpause",
      "outputs": [],
      "stateMutability": "nonpayable",
      "type": "function"
    },
    {
      "inputs": [
        {
          "internalType": "address",
          "name": "_billingContract",
          "type": "address"
        }
      ],
      "name": "updateBillingContract",
      "outputs": [],
      "stateMutability": "nonpayable",
      "type": "function"
    },
    {
      "inputs": [
        {
          "internalType": "uint32",
          "name": "_exitGas",
          "type": "uint32"
        }
      ],
      "name": "updateGas",
      "outputs": [],
      "stateMutability": "nonpayable",
      "type": "function"
    },
    {
      "inputs": [
        {
          "internalType": "address",
          "name": "_nftBridge",
          "type": "address"
        }
      ],
      "name": "updateNFTBridge",
      "outputs": [],
      "stateMutability": "nonpayable",
      "type": "function"
    }
  ],
  "bytecode": "0x60806040523480156200001157600080fd5b506200001c6200002c565b620000266200002c565b620000ee565b600054610100900460ff1615620000995760405162461bcd60e51b815260206004820152602760248201527f496e697469616c697a61626c653a20636f6e747261637420697320696e697469604482015266616c697a696e6760c81b606482015260840160405180910390fd5b60005460ff9081161015620000ec576000805460ff191660ff9081179091556040519081527f7f26b83ff96e1f2b6a682f133852f6798a09c465da95921460cefb38474024989060200160405180910390a15b565b6127b680620000fe6000396000f3fe6080604052600436106101815760003560e01c806370ac3180116100d15780639010d07c1161008a5780639dc68a64116100645780639dc68a64146104b9578063a217fddf146104cc578063ca15c873146104e1578063d547741f1461050157600080fd5b80639010d07c1461045857806390affb511461047857806391d148541461049957600080fd5b806370ac3180146103675780638129fc1c1461037e5780638456cb5914610393578063863081dd146103a8578063884e2e8d146104055780638e4934ca1461042557600080fd5b80633cb747bf1161013e5780634389767e116101185780634389767e146102ee5780634bcf48311461030e5780635c975abb1461032f5780636aa483cc1461034757600080fd5b80633cb747bf1461027b5780633f4ba83a146102b95780633f5e044f146102ce57600080fd5b806301ffc9a714610186578063094c1090146101bb57806322de13e8146101db578063248a9ca3146101fd5780632f2ff15d1461023b57806336568abe1461025b575b600080fd5b34801561019257600080fd5b506101a66101a1366004612005565b610521565b60405190151581526020015b60405180910390f35b3480156101c757600080fd5b506101a66101d6366004612058565b61054c565b3480156101e757600080fd5b506101fb6101f636600461208d565b6105ba565b005b34801561020957600080fd5b5061022d6102183660046120aa565b600090815260fa602052604090206001015490565b6040519081526020016101b2565b34801561024757600080fd5b506101fb6102563660046120c3565b610664565b34801561026757600080fd5b506101fb6102763660046120c3565b61068e565b34801561028757600080fd5b506000546102a1906201000090046001600160a01b031681565b6040516001600160a01b0390911681526020016101b2565b3480156102c557600080fd5b506101fb61070c565b3480156102da57600080fd5b506101fb6102e9366004612162565b61072d565b3480156102fa57600080fd5b506101fb61030936600461208d565b610b5d565b34801561031a57600080fd5b5061018c546102a1906001600160a01b031681565b34801561033b57600080fd5b5060965460ff166101a6565b34801561035357600080fd5b506101fb610362366004612251565b610c08565b34801561037357600080fd5b5061022d61018d5481565b34801561038a57600080fd5b506101fb610db7565b34801561039f57600080fd5b506101fb610f45565b3480156103b457600080fd5b506103f66103c336600461208d565b61018f60205260009081526040902080546001909101546001600160a01b0391821691811690600160a01b900460ff1683565b6040516101b2939291906122d0565b34801561041157600080fd5b506101fb610420366004612311565b610f64565b34801561043157600080fd5b5061018e546104439063ffffffff1681565b60405163ffffffff90911681526020016101b2565b34801561046457600080fd5b506102a161047336600461232c565b611001565b34801561048457600080fd5b50610190546102a1906001600160a01b031681565b3480156104a557600080fd5b506101a66104b43660046120c3565b611021565b6101fb6104c736600461234e565b61104c565b3480156104d857600080fd5b5061022d600081565b3480156104ed57600080fd5b5061022d6104fc3660046120aa565b6111b7565b34801561050d57600080fd5b506101fb61051c3660046120c3565b6111cf565b60006001600160e01b03198216635a05180f60e01b14806105465750610546826111f4565b92915050565b6000600182600281111561056257610562612298565b0361057f576105788363808d85fd60e01b611229565b9050610546565b600082600281111561059357610593612298565b036105a9576105788363b0f4708d60e01b611229565b610578836303112fcb60e61b611229565b6105d1600080516020612761833981519152611245565b6001600160a01b0381166106415760405162461bcd60e51b815260206004820152602c60248201527f4e46544272696467653a3a4e4654204272696467652063616e6e6f742062652060448201526b7a65726f206164647265737360a01b60648201526084015b60405180910390fd5b61018c80546001600160a01b0319166001600160a01b0392909216919091179055565b600082815260fa602052604090206001015461067f81611245565b610689838361124f565b505050565b6001600160a01b03811633146106fe5760405162461bcd60e51b815260206004820152602f60248201527f416363657373436f6e74726f6c3a2063616e206f6e6c792072656e6f756e636560448201526e103937b632b9903337b91039b2b63360891b6064820152608401610638565b6107088282611272565b5050565b610723600080516020612761833981519152611245565b61072b611295565b565b61018c546001600160a01b03166107536000546001600160a01b03620100009091041690565b6001600160a01b0316336001600160a01b0316146107ca5760405162461bcd60e51b815260206004820152602e60248201527f4f564d5f58434841494e3a206d657373656e67657220636f6e7472616374207560448201526d1b985d5d1a195b9d1a58d85d195960921b6064820152608401610638565b6000546001600160a01b0380831691620100009004166001600160a01b0316636e296e456040518163ffffffff1660e01b8152600401602060405180830381865afa15801561081d573d6000803e3d6000fd5b505050506040513d601f19601f8201168201806040525081019061084191906123b8565b6001600160a01b0316146108b05760405162461bcd60e51b815260206004820152603060248201527f4f564d5f58434841494e3a2077726f6e672073656e646572206f662063726f7360448201526f732d646f6d61696e206d65737361676560801b6064820152608401610638565b6108ba888461054c565b80156108e357506001600160a01b03888116600090815261018f60205260409020548116908a16145b15610a785760018360028111156108fc576108fc612298565b03610968576040516394d008ef60e01b81526001600160a01b038916906394d008ef9061093190899089908790600401612425565b600060405180830381600087803b15801561094b57600080fd5b505af115801561095f573d6000803e3d6000fd5b50505050610a16565b600083600281111561097c5761097c612298565b036109b35760405163731133e960e01b81526001600160a01b0389169063731133e990610931908990899089908890600401612455565b6040516394d008ef60e01b81526001600160a01b038916906394d008ef906109e390899088908790600401612425565b600060405180830381600087803b1580156109fd57600080fd5b505af1158015610a11573d6000803e3d6000fd5b505050505b866001600160a01b0316886001600160a01b03168a6001600160a01b03167f83d2d3b030065af8582313b1cabb5b5b8e919735818ceb8b9b5e28cac78ad99e8989898989604051610a6b95949392919061248c565b60405180910390a4610b52565b61018c5461018e54604051610af4926001600160a01b03169163ffffffff1690633f5e044f60e01b90610abd908e908e908d908f908e908e908e908e906024016124c9565b60408051601f198184030181529190526020810180516001600160e01b03166001600160e01b0319909316929092179091526112e7565b866001600160a01b0316886001600160a01b03168a6001600160a01b03167f6d0b80688176beb8ea74eeea79075d5151a987be37e67aa21775c6a06eee05e98989898989604051610b4995949392919061248c565b60405180910390a45b505050505050505050565b610b74600080516020612761833981519152611245565b6001600160a01b038116610be55760405162461bcd60e51b815260206004820152603260248201527f4e46544272696467653a3a42696c6c696e6720636f6e74726163742063616e6e6044820152716f74206265207a65726f206164647265737360701b6064820152608401610638565b61019080546001600160a01b0319166001600160a01b0392909216919091179055565b610c1f600080516020612761833981519152611245565b610c29828261054c565b610c755760405162461bcd60e51b815260206004820181905260248201527f4e46544272696467653a3a4e4654206973206e6f742062726964676561626c656044820152606401610638565b6001600160a01b03808316600090815261018f60205260409020805490911615610cf65760405162461bcd60e51b815260206004820152602c60248201527f4e46544272696467653a3a4c31204e4654206164647265737320616c7265616460448201526b1e481c9959da5cdd195c995960a21b6064820152608401610638565b6040518060600160405280856001600160a01b03168152602001846001600160a01b03168152602001836002811115610d3157610d31612298565b90526001600160a01b03808516600090815261018f6020908152604091829020845181549085166001600160a01b0319918216178255918501516001820180549190951692811683178555928501519093909290916001600160a81b031990911617600160a01b836002811115610daa57610daa612298565b0217905550505050505050565b600054610100900460ff1615808015610dd75750600054600160ff909116105b80610df15750303b158015610df1575060005460ff166001145b610e545760405162461bcd60e51b815260206004820152602e60248201527f496e697469616c697a61626c653a20636f6e747261637420697320616c72656160448201526d191e481a5b9a5d1a585b1a5e995960921b6064820152608401610638565b6000805460ff191660011790558015610e77576000805461ff0019166101001790555b610e876007602160991b0161135f565b61018c80546001600160a01b03199081167318505cec943ecb79999262c2deb5127157c104cc1790915561018e805463ffffffff1916620186a0179055610190805490911673c71411f3fde3a34cde5668cc4156841629321904179055610eec6113b0565b610ef46113df565b610efc61140e565b8015610f42576000805461ff0019169055604051600181527f7f26b83ff96e1f2b6a682f133852f6798a09c465da95921460cefb38474024989060200160405180910390a15b50565b610f5c600080516020612761833981519152611245565b61072b6114de565b610f7b600080516020612761833981519152611245565b60008163ffffffff1611610fe45760405162461bcd60e51b815260206004820152602a60248201527f4e46544272696467653a3a4578697420476173206d75737420626520677265616044820152690746572207468616e20360b41b6064820152608401610638565b61018e805463ffffffff191663ffffffff92909216919091179055565b600082815261012c6020526040812061101a908361151b565b9392505050565b600091825260fa602090815260408084206001600160a01b0393909316845291905290205460ff1690565b60026032540361109e5760405162461bcd60e51b815260206004820152601f60248201527f5265656e7472616e637947756172643a207265656e7472616e742063616c6c006044820152606401610638565b60026032556110ab611527565b606060008360028111156110c1576110c1612298565b036111425760405163fb95ac2d60e01b815260048101869052602481018590526001600160a01b0388169063fb95ac2d906044015b600060405180830381865afa158015611113573d6000803e3d6000fd5b505050506040513d6000823e601f3d908101601f1916820160405261113b919081019061252e565b9050611199565b600183600281111561115657611156612298565b0361118857604051639b9284f960e01b8152600481018690526001600160a01b03881690639b9284f9906024016110f6565b506040805160208101909152600081525b6111a9873388888887898861156d565b505060016032555050505050565b600081815261012c60205260408120610546906119eb565b600082815260fa60205260409020600101546111ea81611245565b6106898383611272565b60006001600160e01b03198216637965db0b60e01b148061054657506301ffc9a760e01b6001600160e01b0319831614610546565b6000611234836119f5565b801561101a575061101a8383611a28565b610f428133611ab1565b6112598282611b15565b600082815261012c602052604090206106899082611b9b565b61127c8282611bb0565b600082815261012c602052604090206106899082611c17565b61129d611c2c565b6096805460ff191690557f5db9ee0a495bf2e6ff9c91a7834c1ba4fdd244a5e8aa4e537bd38aeae4b073aa335b6040516001600160a01b03909116815260200160405180910390a1565b6000546201000090046001600160a01b03166001600160a01b0316633dbb202b8483856040518463ffffffff1660e01b81526004016113289392919061259c565b600060405180830381600087803b15801561134257600080fd5b505af1158015611356573d6000803e3d6000fd5b50505050505050565b600054610100900460ff166113865760405162461bcd60e51b8152600401610638906125d6565b600080546001600160a01b03909216620100000262010000600160b01b0319909216919091179055565b600054610100900460ff166113d75760405162461bcd60e51b8152600401610638906125d6565b61072b611c75565b600054610100900460ff166114065760405162461bcd60e51b8152600401610638906125d6565b61072b611ca8565b600054610100900460ff166114355760405162461bcd60e51b8152600401610638906125d6565b61143d611cd6565b61144860003361124f565b6114606000805160206127618339815191523361124f565b61148a7f364d3d7565c7a8300c96fd53e065d19b65848d7b23b3191adcd55621c744223c3361124f565b6114b47f9f2df0fed2c77648de5860a4cc508cd0818c85b8b8a1ab4ceeef8d981c8956a63361124f565b61072b7ff18b77e1ef402111bacb54bd5e03494cbdba92fbd1bd3bbcc1ce77e69b42ea6c3361124f565b6114e6611527565b6096805460ff191660011790557f62e78cea01bee320cd4e420270b5ea74000d11b0c9f74754ebdbfc544b05a2586112ca3390565b600061101a8383611cfd565b60965460ff161561072b5760405162461bcd60e51b815260206004820152601060248201526f14185d5cd8589b194e881c185d5cd95960821b6044820152606401610638565b6101905460408051636284ae4160e01b815290516001600160a01b03909216916000918391636284ae4191600480820192602092909190829003018187875af11580156115be573d6000803e3d6000fd5b505050506040513d601f19601f820116820180604052508101906115e29190612621565b9050803410156116405760405162461bcd60e51b815260206004820152602360248201527f4e46544272696467653a3a496e73756666696369656e7420426f626120616d6f6044820152621d5b9d60ea1b6064820152608401610638565b816001600160a01b031663d4d5d32a826040518263ffffffff1660e01b81526004016000604051808303818588803b15801561167b57600080fd5b505af115801561168f573d6000803e3d6000fd5b505050506001600160a01b038b8116600090815261018f602052604090208054909250166117155760405162461bcd60e51b815260206004820152602d60248201527f4e46544272696467653a3a4e4654206973206e6f7420636f6e6669677572656460448201526c20666f72206272696467696e6760981b6064820152608401610638565b8a6001600160a01b031663cd5965836040518163ffffffff1660e01b81526004016020604051808303816000875af1158015611755573d6000803e3d6000fd5b505050506040513d601f19601f8201168201806040525081019061177991906123b8565b81546001600160a01b039081169116146117e95760405162461bcd60e51b815260206004820152602b60248201527f4e46544272696467653a3a4c31204e465420636f6e747261637420616464726560448201526a0e6e640dad2e6dac2e8c6d60ab1b6064820152608401610638565b60008560028111156117fd576117fd612298565b0361186f57604051637a94c56560e11b815233600482015260248101899052604481018890526001600160a01b038c169063f5298aca906064015b600060405180830381600087803b15801561185257600080fd5b505af1158015611866573d6000803e3d6000fd5b50505050611916565b600185600281111561188357611883612298565b036118b557604051630852cd8d60e31b8152600481018990526001600160a01b038c16906342966c6890602401611838565b604051632770a7eb60e21b8152336004820152602481018890526001600160a01b038c1690639dc29fac90604401600060405180830381600087803b1580156118fd57600080fd5b505af1158015611911573d6000803e3d6000fd5b505050505b61198661018c60009054906101000a90046001600160a01b031687633f5e044f60e01b8460000160009054906101000a90046001600160a01b03168560010160009054906101000a90046001600160a01b03168f8f8f8f8e8e604051602401610abd9897969594939291906124c9565b600181015481546040516001600160a01b03808e169381169216907f5bb7810a4aee7990cc486a7bc8f89a6e7e0d9f879f9f116f74886bba7713874b906119d6908e908e908e908d908d9061248c565b60405180910390a45050505050505050505050565b6000610546825490565b6000611a08826301ffc9a760e01b611a28565b80156105465750611a21826001600160e01b0319611a28565b1592915050565b604080516001600160e01b03198316602480830191909152825180830390910181526044909101909152602080820180516001600160e01b03166301ffc9a760e01b178152825160009392849283928392918391908a617530fa92503d91506000519050828015611a9a575060208210155b8015611aa65750600081115b979650505050505050565b611abb8282611021565b61070857611ad3816001600160a01b03166014611d27565b611ade836020611d27565b604051602001611aef92919061263a565b60408051601f198184030181529082905262461bcd60e51b8252610638916004016126af565b611b1f8282611021565b61070857600082815260fa602090815260408083206001600160a01b03851684529091529020805460ff19166001179055611b573390565b6001600160a01b0316816001600160a01b0316837f2f8788117e7eff1d82e926ec794901d17c78024a50270940304540a733656f0d60405160405180910390a45050565b600061101a836001600160a01b038416611ec3565b611bba8282611021565b1561070857600082815260fa602090815260408083206001600160a01b0385168085529252808320805460ff1916905551339285917ff6391f5c32d9c69d2a47ea670b442974b53935d1edc7fd64eb21e047a839171b9190a45050565b600061101a836001600160a01b038416611f12565b60965460ff1661072b5760405162461bcd60e51b815260206004820152601460248201527314185d5cd8589b194e881b9bdd081c185d5cd95960621b6044820152606401610638565b600054610100900460ff16611c9c5760405162461bcd60e51b8152600401610638906125d6565b6096805460ff19169055565b600054610100900460ff16611ccf5760405162461bcd60e51b8152600401610638906125d6565b6001603255565b600054610100900460ff1661072b5760405162461bcd60e51b8152600401610638906125d6565b6000826000018281548110611d1457611d146126c2565b9060005260206000200154905092915050565b60606000611d368360026126ee565b611d4190600261270d565b67ffffffffffffffff811115611d5957611d596120f3565b6040519080825280601f01601f191660200182016040528015611d83576020820181803683370190505b509050600360fc1b81600081518110611d9e57611d9e6126c2565b60200101906001600160f81b031916908160001a905350600f60fb1b81600181518110611dcd57611dcd6126c2565b60200101906001600160f81b031916908160001a9053506000611df18460026126ee565b611dfc90600161270d565b90505b6001811115611e74576f181899199a1a9b1b9c1cb0b131b232b360811b85600f1660108110611e3057611e306126c2565b1a60f81b828281518110611e4657611e466126c2565b60200101906001600160f81b031916908160001a90535060049490941c93611e6d81612720565b9050611dff565b50831561101a5760405162461bcd60e51b815260206004820181905260248201527f537472696e67733a20686578206c656e67746820696e73756666696369656e746044820152606401610638565b6000818152600183016020526040812054611f0a57508154600181810184556000848152602080822090930184905584548482528286019093526040902091909155610546565b506000610546565b60008181526001830160205260408120548015611ffb576000611f36600183612737565b8554909150600090611f4a90600190612737565b9050818114611faf576000866000018281548110611f6a57611f6a6126c2565b9060005260206000200154905080876000018481548110611f8d57611f8d6126c2565b6000918252602080832090910192909255918252600188019052604090208390555b8554869080611fc057611fc061274a565b600190038181906000526020600020016000905590558560010160008681526020019081526020016000206000905560019350505050610546565b6000915050610546565b60006020828403121561201757600080fd5b81356001600160e01b03198116811461101a57600080fd5b6001600160a01b0381168114610f4257600080fd5b80356003811061205357600080fd5b919050565b6000806040838503121561206b57600080fd5b82356120768161202f565b915061208460208401612044565b90509250929050565b60006020828403121561209f57600080fd5b813561101a8161202f565b6000602082840312156120bc57600080fd5b5035919050565b600080604083850312156120d657600080fd5b8235915060208301356120e88161202f565b809150509250929050565b634e487b7160e01b600052604160045260246000fd5b604051601f8201601f1916810167ffffffffffffffff81118282101715612132576121326120f3565b604052919050565b600067ffffffffffffffff821115612154576121546120f3565b50601f01601f191660200190565b600080600080600080600080610100898b03121561217f57600080fd5b883561218a8161202f565b9750602089013561219a8161202f565b965060408901356121aa8161202f565b955060608901356121ba8161202f565b94506080890135935060a089013592506121d660c08a01612044565b915060e089013567ffffffffffffffff8111156121f257600080fd5b8901601f81018b1361220357600080fd5b80356122166122118261213a565b612109565b8181528c602083850101111561222b57600080fd5b816020840160208301376000602083830101528093505050509295985092959890939650565b60008060006060848603121561226657600080fd5b83356122718161202f565b925060208401356122818161202f565b915061228f60408501612044565b90509250925092565b634e487b7160e01b600052602160045260246000fd5b600381106122cc57634e487b7160e01b600052602160045260246000fd5b9052565b6001600160a01b03848116825283166020820152606081016122f560408301846122ae565b949350505050565b803563ffffffff8116811461205357600080fd5b60006020828403121561232357600080fd5b61101a826122fd565b6000806040838503121561233f57600080fd5b50508035926020909101359150565b60008060008060008060c0878903121561236757600080fd5b86356123728161202f565b955060208701356123828161202f565b9450604087013593506060870135925061239e60808801612044565b91506123ac60a088016122fd565b90509295509295509295565b6000602082840312156123ca57600080fd5b815161101a8161202f565b60005b838110156123f05781810151838201526020016123d8565b50506000910152565b600081518084526124118160208601602086016123d5565b601f01601f19169290920160200192915050565b60018060a01b038416815282602082015260606040820152600061244c60608301846123f9565b95945050505050565b60018060a01b038516815283602082015282604082015260806060820152600061248260808301846123f9565b9695505050505050565b6001600160a01b038616815260208101859052604081018490526124b360608201846122ae565b60a060808201526000611aa660a08301846123f9565b6001600160a01b03898116825288811660208301528781166040830152861660608201526080810185905260a08101849052600061010061250d60c08401866122ae565b8060e084015261251f818401856123f9565b9b9a5050505050505050505050565b60006020828403121561254057600080fd5b815167ffffffffffffffff81111561255757600080fd5b8201601f8101841361256857600080fd5b80516125766122118261213a565b81815285602083850101111561258b57600080fd5b61244c8260208301602086016123d5565b6001600160a01b03841681526060602082018190526000906125c0908301856123f9565b905063ffffffff83166040830152949350505050565b6020808252602b908201527f496e697469616c697a61626c653a20636f6e7472616374206973206e6f74206960408201526a6e697469616c697a696e6760a81b606082015260800190565b60006020828403121561263357600080fd5b5051919050565b7f416363657373436f6e74726f6c3a206163636f756e74200000000000000000008152600083516126728160178501602088016123d5565b7001034b99036b4b9b9b4b733903937b6329607d1b60179184019182015283516126a38160288401602088016123d5565b01602801949350505050565b60208152600061101a60208301846123f9565b634e487b7160e01b600052603260045260246000fd5b634e487b7160e01b600052601160045260246000fd5b6000816000190483118215151615612708576127086126d8565b500290565b80820180821115610546576105466126d8565b60008161272f5761272f6126d8565b506000190190565b81810381811115610546576105466126d8565b634e487b7160e01b600052603160045260246000fdfea49807205ce4d355092ef5a8a18f56e8913cf4a201fbe287825b095693c21775a2646970667358221220926a1bc88630860339e684811777e8dbce1d311f32309626f9fc335800c684a264736f6c63430008100033",
  "linkReferences": {},
  "deployedLinkReferences": {}
}