{
  "_format": "hh-sol-artifact-1",
  "contractName": "L2NFTBridge",
  "sourceName": "contracts/npc/BobaBridge/NFT/L2/L2NFTBridge.sol",
  "abi": [
    {
      "inputs": [],
      "stateMutability": "nonpayable",
      "type": "constructor"
    },
    {
      "anonymous": false,
      "inputs": [
        {
          "indexed": true,
          "internalType": "address",
          "name": "l1Token",
          "type": "address"
        },
        {
          "indexed": true,
          "internalType": "address",
          "name": "l2Token",
          "type": "address"
        },
        {
          "indexed": true,
          "internalType": "address",
          "name": "from",
          "type": "address"
        },
        {
          "indexed": false,
          "internalType": "address",
          "name": "to",
          "type": "address"
        },
        {
          "indexed": false,
          "internalType": "uint256",
          "name": "tokenId",
          "type": "uint256"
        },
        {
          "indexed": false,
          "internalType": "uint256",
          "name": "amount",
          "type": "uint256"
        },
        {
          "indexed": false,
          "internalType": "enum INFTBridge.NFTType",
          "name": "nftType",
          "type": "uint8"
        },
        {
          "indexed": false,
          "internalType": "bytes",
          "name": "data",
          "type": "bytes"
        }
      ],
      "name": "BridgeFailed",
      "type": "event"
    },
    {
      "anonymous": false,
      "inputs": [
        {
          "indexed": true,
          "internalType": "address",
          "name": "l1Token",
          "type": "address"
        },
        {
          "indexed": true,
          "internalType": "address",
          "name": "l2Token",
          "type": "address"
        },
        {
          "indexed": true,
          "internalType": "address",
          "name": "from",
          "type": "address"
        },
        {
          "indexed": false,
          "internalType": "address",
          "name": "to",
          "type": "address"
        },
        {
          "indexed": false,
          "internalType": "uint256",
          "name": "tokenId",
          "type": "uint256"
        },
        {
          "indexed": false,
          "internalType": "uint256",
          "name": "amount",
          "type": "uint256"
        },
        {
          "indexed": false,
          "internalType": "enum INFTBridge.NFTType",
          "name": "nftType",
          "type": "uint8"
        },
        {
          "indexed": false,
          "internalType": "bytes",
          "name": "data",
          "type": "bytes"
        }
      ],
      "name": "BridgeFinalized",
      "type": "event"
    },
    {
      "anonymous": false,
      "inputs": [
        {
          "indexed": true,
          "internalType": "address",
          "name": "l1Nft",
          "type": "address"
        },
        {
          "indexed": true,
          "internalType": "address",
          "name": "l2Nft",
          "type": "address"
        },
        {
          "indexed": true,
          "internalType": "address",
          "name": "from",
          "type": "address"
        },
        {
          "indexed": false,
          "internalType": "address",
          "name": "to",
          "type": "address"
        },
        {
          "indexed": false,
          "internalType": "uint256",
          "name": "tokenId",
          "type": "uint256"
        },
        {
          "indexed": false,
          "internalType": "uint256",
          "name": "amount",
          "type": "uint256"
        },
        {
          "indexed": false,
          "internalType": "enum INFTBridge.NFTType",
          "name": "nftType",
          "type": "uint8"
        },
        {
          "indexed": false,
          "internalType": "bytes",
          "name": "data",
          "type": "bytes"
        }
      ],
      "name": "BridgeInitiated",
      "type": "event"
    },
    {
      "anonymous": false,
      "inputs": [
        {
          "indexed": false,
          "internalType": "uint8",
          "name": "version",
          "type": "uint8"
        }
      ],
      "name": "Initialized",
      "type": "event"
    },
    {
      "anonymous": false,
      "inputs": [
        {
          "indexed": false,
          "internalType": "address",
          "name": "account",
          "type": "address"
        }
      ],
      "name": "Paused",
      "type": "event"
    },
    {
      "anonymous": false,
      "inputs": [
        {
          "indexed": true,
          "internalType": "bytes32",
          "name": "role",
          "type": "bytes32"
        },
        {
          "indexed": true,
          "internalType": "bytes32",
          "name": "previousAdminRole",
          "type": "bytes32"
        },
        {
          "indexed": true,
          "internalType": "bytes32",
          "name": "newAdminRole",
          "type": "bytes32"
        }
      ],
      "name": "RoleAdminChanged",
      "type": "event"
    },
    {
      "anonymous": false,
      "inputs": [
        {
          "indexed": true,
          "internalType": "bytes32",
          "name": "role",
          "type": "bytes32"
        },
        {
          "indexed": true,
          "internalType": "address",
          "name": "account",
          "type": "address"
        },
        {
          "indexed": true,
          "internalType": "address",
          "name": "sender",
          "type": "address"
        }
      ],
      "name": "RoleGranted",
      "type": "event"
    },
    {
      "anonymous": false,
      "inputs": [
        {
          "indexed": true,
          "internalType": "bytes32",
          "name": "role",
          "type": "bytes32"
        },
        {
          "indexed": true,
          "internalType": "address",
          "name": "account",
          "type": "address"
        },
        {
          "indexed": true,
          "internalType": "address",
          "name": "sender",
          "type": "address"
        }
      ],
      "name": "RoleRevoked",
      "type": "event"
    },
    {
      "anonymous": false,
      "inputs": [
        {
          "indexed": false,
          "internalType": "address",
          "name": "account",
          "type": "address"
        }
      ],
      "name": "Unpaused",
      "type": "event"
    },
    {
      "inputs": [],
      "name": "DEFAULT_ADMIN_ROLE",
      "outputs": [
        {
          "internalType": "bytes32",
          "name": "",
          "type": "bytes32"
        }
      ],
      "stateMutability": "view",
      "type": "function"
    },
    {
      "inputs": [],
      "name": "NFTBridge",
      "outputs": [
        {
          "internalType": "address",
          "name": "",
          "type": "address"
        }
      ],
      "stateMutability": "view",
      "type": "function"
    },
    {
      "inputs": [],
      "name": "billingContract",
      "outputs": [
        {
          "internalType": "address",
          "name": "",
          "type": "address"
        }
      ],
      "stateMutability": "view",
      "type": "function"
    },
    {
      "inputs": [
        {
          "internalType": "address",
          "name": "nft",
          "type": "address"
        },
        {
          "internalType": "address",
          "name": "to",
          "type": "address"
        },
        {
          "internalType": "uint256",
          "name": "tokenId",
          "type": "uint256"
        },
        {
          "internalType": "uint256",
          "name": "amount",
          "type": "uint256"
        },
        {
          "internalType": "enum INFTBridge.NFTType",
          "name": "nftType",
          "type": "uint8"
        },
        {
          "internalType": "uint32",
          "name": "gas",
          "type": "uint32"
        }
      ],
      "name": "bridge",
      "outputs": [],
      "stateMutability": "nonpayable",
      "type": "function"
    },
    {
      "inputs": [],
      "name": "exitGas",
      "outputs": [
        {
          "internalType": "uint32",
          "name": "",
          "type": "uint32"
        }
      ],
      "stateMutability": "view",
      "type": "function"
    },
    {
      "inputs": [],
      "name": "extraGasRelay",
      "outputs": [
        {
          "internalType": "uint256",
          "name": "",
          "type": "uint256"
        }
      ],
      "stateMutability": "view",
      "type": "function"
    },
    {
      "inputs": [
        {
          "internalType": "address",
          "name": "l1Nft",
          "type": "address"
        },
        {
          "internalType": "address",
          "name": "l2Nft",
          "type": "address"
        },
        {
          "internalType": "address",
          "name": "from",
          "type": "address"
        },
        {
          "internalType": "address",
          "name": "to",
          "type": "address"
        },
        {
          "internalType": "uint256",
          "name": "tokenId",
          "type": "uint256"
        },
        {
          "internalType": "uint256",
          "name": "amount",
          "type": "uint256"
        },
        {
          "internalType": "enum INFTBridge.NFTType",
          "name": "nftType",
          "type": "uint8"
        },
        {
          "internalType": "bytes",
          "name": "data",
          "type": "bytes"
        }
      ],
      "name": "finalize",
      "outputs": [],
      "stateMutability": "nonpayable",
      "type": "function"
    },
    {
      "inputs": [
        {
          "internalType": "bytes32",
          "name": "role",
          "type": "bytes32"
        }
      ],
      "name": "getRoleAdmin",
      "outputs": [
        {
          "internalType": "bytes32",
          "name": "",
          "type": "bytes32"
        }
      ],
      "stateMutability": "view",
      "type": "function"
    },
    {
      "inputs": [
        {
          "internalType": "bytes32",
          "name": "role",
          "type": "bytes32"
        },
        {
          "internalType": "uint256",
          "name": "index",
          "type": "uint256"
        }
      ],
      "name": "getRoleMember",
      "outputs": [
        {
          "internalType": "address",
          "name": "",
          "type": "address"
        }
      ],
      "stateMutability": "view",
      "type": "function"
    },
    {
      "inputs": [
        {
          "internalType": "bytes32",
          "name": "role",
          "type": "bytes32"
        }
      ],
      "name": "getRoleMemberCount",
      "outputs": [
        {
          "internalType": "uint256",
          "name": "",
          "type": "uint256"
        }
      ],
      "stateMutability": "view",
      "type": "function"
    },
    {
      "inputs": [
        {
          "internalType": "bytes32",
          "name": "role",
          "type": "bytes32"
        },
        {
          "internalType": "address",
          "name": "account",
          "type": "address"
        }
      ],
      "name": "grantRole",
      "outputs": [],
      "stateMutability": "nonpayable",
      "type": "function"
    },
    {
      "inputs": [
        {
          "internalType": "bytes32",
          "name": "role",
          "type": "bytes32"
        },
        {
          "internalType": "address",
          "name": "account",
          "type": "address"
        }
      ],
      "name": "hasRole",
      "outputs": [
        {
          "internalType": "bool",
          "name": "",
          "type": "bool"
        }
      ],
      "stateMutability": "view",
      "type": "function"
    },
    {
      "inputs": [],
      "name": "initialize",
      "outputs": [],
      "stateMutability": "nonpayable",
      "type": "function"
    },
    {
      "inputs": [
        {
          "internalType": "address",
          "name": "nft",
          "type": "address"
        },
        {
          "internalType": "enum INFTBridge.NFTType",
          "name": "nftType",
          "type": "uint8"
        }
      ],
      "name": "isBridgeCompliant",
      "outputs": [
        {
          "internalType": "bool",
          "name": "",
          "type": "bool"
        }
      ],
      "stateMutability": "view",
      "type": "function"
    },
    {
      "inputs": [],
      "name": "messenger",
      "outputs": [
        {
          "internalType": "address",
          "name": "",
          "type": "address"
        }
      ],
      "stateMutability": "view",
      "type": "function"
    },
    {
      "inputs": [
        {
          "internalType": "address",
          "name": "",
          "type": "address"
        }
      ],
      "name": "pairNFTInfo",
      "outputs": [
        {
          "internalType": "address",
          "name": "l1Nft",
          "type": "address"
        },
        {
          "internalType": "address",
          "name": "l2Nft",
          "type": "address"
        },
        {
          "internalType": "enum INFTBridge.NFTType",
          "name": "nftType",
          "type": "uint8"
        }
      ],
      "stateMutability": "view",
      "type": "function"
    },
    {
      "inputs": [],
      "name": "pause",
      "outputs": [],
      "stateMutability": "nonpayable",
      "type": "function"
    },
    {
      "inputs": [],
      "name": "paused",
      "outputs": [
        {
          "internalType": "bool",
          "name": "",
          "type": "bool"
        }
      ],
      "stateMutability": "view",
      "type": "function"
    },
    {
      "inputs": [
        {
          "internalType": "address",
          "name": "l1Nft",
          "type": "address"
        },
        {
          "internalType": "address",
          "name": "l2Nft",
          "type": "address"
        },
        {
          "internalType": "enum INFTBridge.NFTType",
          "name": "nftType",
          "type": "uint8"
        }
      ],
      "name": "registerNFTPair",
      "outputs": [],
      "stateMutability": "nonpayable",
      "type": "function"
    },
    {
      "inputs": [
        {
          "internalType": "bytes32",
          "name": "role",
          "type": "bytes32"
        },
        {
          "internalType": "address",
          "name": "account",
          "type": "address"
        }
      ],
      "name": "renounceRole",
      "outputs": [],
      "stateMutability": "nonpayable",
      "type": "function"
    },
    {
      "inputs": [
        {
          "internalType": "bytes32",
          "name": "role",
          "type": "bytes32"
        },
        {
          "internalType": "address",
          "name": "account",
          "type": "address"
        }
      ],
      "name": "revokeRole",
      "outputs": [],
      "stateMutability": "nonpayable",
      "type": "function"
    },
    {
      "inputs": [
        {
          "internalType": "bytes4",
          "name": "interfaceId",
          "type": "bytes4"
        }
      ],
      "name": "supportsInterface",
      "outputs": [
        {
          "internalType": "bool",
          "name": "",
          "type": "bool"
        }
      ],
      "stateMutability": "view",
      "type": "function"
    },
    {
      "inputs": [],
      "name": "unpause",
      "outputs": [],
      "stateMutability": "nonpayable",
      "type": "function"
    },
    {
      "inputs": [
        {
          "internalType": "address",
          "name": "_billingContract",
          "type": "address"
        }
      ],
      "name": "updateBillingContract",
      "outputs": [],
      "stateMutability": "nonpayable",
      "type": "function"
    },
    {
      "inputs": [
        {
          "internalType": "uint32",
          "name": "_exitGas",
          "type": "uint32"
        }
      ],
      "name": "updateGas",
      "outputs": [],
      "stateMutability": "nonpayable",
      "type": "function"
    },
    {
      "inputs": [
        {
          "internalType": "address",
          "name": "_nftBridge",
          "type": "address"
        }
      ],
      "name": "updateNFTBridge",
      "outputs": [],
      "stateMutability": "nonpayable",
      "type": "function"
    }
  ],
  "bytecode": "0x60806040523480156200001157600080fd5b506200001c6200002c565b620000266200002c565b620000ee565b600054610100900460ff1615620000995760405162461bcd60e51b815260206004820152602760248201527f496e697469616c697a61626c653a20636f6e747261637420697320696e697469604482015266616c697a696e6760c81b606482015260840160405180910390fd5b60005460ff9081161015620000ec576000805460ff191660ff9081179091556040519081527f7f26b83ff96e1f2b6a682f133852f6798a09c465da95921460cefb38474024989060200160405180910390a15b565b6125f980620000fe6000396000f3fe608060405234801561001057600080fd5b506004361061018e5760003560e01c806370ac3180116100de5780639010d07c116100975780639dc68a64116100715780639dc68a64146103a8578063a217fddf146103bb578063ca15c873146103c3578063d547741f146103d657600080fd5b80639010d07c1461036e57806390affb511461038157806391d148541461039557600080fd5b806370ac3180146102cb5780638129fc1c146102d55780638456cb59146102dd578063863081dd146102e5578063884e2e8d146103355780638e4934ca1461034857600080fd5b80633cb747bf1161014b5780634389767e116101255780634389767e146102865780634bcf4831146102995780635c975abb146102ad5780636aa483cc146102b857600080fd5b80633cb747bf1461023a5780633f4ba83a1461026b5780633f5e044f1461027357600080fd5b806301ffc9a714610193578063094c1090146101bb57806322de13e8146101ce578063248a9ca3146101e35780632f2ff15d1461021457806336568abe14610227575b600080fd5b6101a66101a1366004611e48565b6103e9565b60405190151581526020015b60405180910390f35b6101a66101c9366004611e9b565b610414565b6101e16101dc366004611ed0565b610475565b005b6102066101f1366004611eed565b600090815260fa602052604090206001015490565b6040519081526020016101b2565b6101e1610222366004611f06565b61051f565b6101e1610235366004611f06565b610549565b600054610253906201000090046001600160a01b031681565b6040516001600160a01b0390911681526020016101b2565b6101e16105c7565b6101e1610281366004611fa5565b6105e8565b6101e1610294366004611ed0565b6109cf565b61018c54610253906001600160a01b031681565b60965460ff166101a6565b6101e16102c6366004612094565b610a7a565b61020661018d5481565b6101e1610c2b565b6101e1610db9565b6103266102f3366004611ed0565b61018f60205260009081526040902080546001909101546001600160a01b0391821691811690600160a01b900460ff1683565b6040516101b293929190612113565b6101e1610343366004612154565b610dd8565b61018e546103599063ffffffff1681565b60405163ffffffff90911681526020016101b2565b61025361037c36600461216f565b610e75565b61019054610253906001600160a01b031681565b6101a66103a3366004611f06565b610e95565b6101e16103b6366004612191565b610ec0565b610206600081565b6102066103d1366004611eed565b611047565b6101e16103e4366004611f06565b61105f565b60006001600160e01b03198216635a05180f60e01b148061040e575061040e82611084565b92915050565b60006104278363663ab59d60e01b6110b9565b6104335750600061040e565b6001826001811115610447576104476120db565b036104645761045d836326ea703f60e11b6110b9565b905061040e565b61045d83633ed68a8760e11b6110b9565b61048c6000805160206125a48339815191526110d5565b6001600160a01b0381166104fc5760405162461bcd60e51b815260206004820152602c60248201527f4e46544272696467653a3a4e4654204272696467652063616e6e6f742062652060448201526b7a65726f206164647265737360a01b60648201526084015b60405180910390fd5b61018c80546001600160a01b0319166001600160a01b0392909216919091179055565b600082815260fa602052604090206001015461053a816110d5565b61054483836110df565b505050565b6001600160a01b03811633146105b95760405162461bcd60e51b815260206004820152602f60248201527f416363657373436f6e74726f6c3a2063616e206f6e6c792072656e6f756e636560448201526e103937b632b9903337b91039b2b63360891b60648201526084016104f3565b6105c38282611102565b5050565b6105de6000805160206125a48339815191526110d5565b6105e6611125565b565b61018c546001600160a01b031661060e6000546001600160a01b03620100009091041690565b6001600160a01b0316336001600160a01b0316146106855760405162461bcd60e51b815260206004820152602e60248201527f4f564d5f58434841494e3a206d657373656e67657220636f6e7472616374207560448201526d1b985d5d1a195b9d1a58d85d195960921b60648201526084016104f3565b6000546001600160a01b0380831691620100009004166001600160a01b0316636e296e456040518163ffffffff1660e01b8152600401602060405180830381865afa1580156106d8573d6000803e3d6000fd5b505050506040513d601f19601f820116820180604052508101906106fc91906121fb565b6001600160a01b03161461076b5760405162461bcd60e51b815260206004820152603060248201527f4f564d5f58434841494e3a2077726f6e672073656e646572206f662063726f7360448201526f732d646f6d61696e206d65737361676560801b60648201526084016104f3565b6107758884610414565b801561079e57506001600160a01b03888116600090815261018f60205260409020548116908a16145b156108ea5760018360018111156107b7576107b76120db565b03610823576040516394d008ef60e01b81526001600160a01b038916906394d008ef906107ec90899089908790600401612268565b600060405180830381600087803b15801561080657600080fd5b505af115801561081a573d6000803e3d6000fd5b50505050610888565b60405163731133e960e01b81526001600160a01b0389169063731133e990610855908990899089908890600401612298565b600060405180830381600087803b15801561086f57600080fd5b505af1158015610883573d6000803e3d6000fd5b505050505b866001600160a01b0316886001600160a01b03168a6001600160a01b03167f83d2d3b030065af8582313b1cabb5b5b8e919735818ceb8b9b5e28cac78ad99e89898989896040516108dd9594939291906122cf565b60405180910390a46109c4565b61018c5461018e54604051610966926001600160a01b03169163ffffffff1690633f5e044f60e01b9061092f908e908e908d908f908e908e908e908e9060240161230c565b60408051601f198184030181529190526020810180516001600160e01b03166001600160e01b031990931692909217909152611177565b866001600160a01b0316886001600160a01b03168a6001600160a01b03167f6d0b80688176beb8ea74eeea79075d5151a987be37e67aa21775c6a06eee05e989898989896040516109bb9594939291906122cf565b60405180910390a45b505050505050505050565b6109e66000805160206125a48339815191526110d5565b6001600160a01b038116610a575760405162461bcd60e51b815260206004820152603260248201527f4e46544272696467653a3a42696c6c696e6720636f6e74726163742063616e6e6044820152716f74206265207a65726f206164647265737360701b60648201526084016104f3565b61019080546001600160a01b0319166001600160a01b0392909216919091179055565b610a916000805160206125a48339815191526110d5565b610a9b8282610414565b610ae75760405162461bcd60e51b815260206004820181905260248201527f4e46544272696467653a3a4e4654206973206e6f742062726964676561626c6560448201526064016104f3565b6001600160a01b03808316600090815261018f60205260409020805490911615610b685760405162461bcd60e51b815260206004820152602c60248201527f4e46544272696467653a3a4c31204e4654206164647265737320616c7265616460448201526b1e481c9959da5cdd195c995960a21b60648201526084016104f3565b6040518060600160405280856001600160a01b03168152602001846001600160a01b03168152602001836001811115610ba357610ba36120db565b90526001600160a01b03808516600090815261018f6020908152604091829020845181549085166001600160a01b031991821617825591850151600180830180549290961693821684178655938601519194919391926001600160a81b03199091161790600160a01b908490811115610c1e57610c1e6120db565b0217905550505050505050565b600054610100900460ff1615808015610c4b5750600054600160ff909116105b80610c655750303b158015610c65575060005460ff166001145b610cc85760405162461bcd60e51b815260206004820152602e60248201527f496e697469616c697a61626c653a20636f6e747261637420697320616c72656160448201526d191e481a5b9a5d1a585b1a5e995960921b60648201526084016104f3565b6000805460ff191660011790558015610ceb576000805461ff0019166101001790555b610cfb6007602160991b016111ef565b61018c80546001600160a01b03199081167318505cec943ecb79999262c2deb5127157c104cc1790915561018e805463ffffffff1916620186a0179055610190805490911673c71411f3fde3a34cde5668cc4156841629321904179055610d60611240565b610d6861126f565b610d7061129e565b8015610db6576000805461ff0019169055604051600181527f7f26b83ff96e1f2b6a682f133852f6798a09c465da95921460cefb38474024989060200160405180910390a15b50565b610dd06000805160206125a48339815191526110d5565b6105e661136e565b610def6000805160206125a48339815191526110d5565b60008163ffffffff1611610e585760405162461bcd60e51b815260206004820152602a60248201527f4e46544272696467653a3a4578697420476173206d75737420626520677265616044820152690746572207468616e20360b41b60648201526084016104f3565b61018e805463ffffffff191663ffffffff92909216919091179055565b600082815261012c60205260408120610e8e90836113ab565b9392505050565b600091825260fa602090815260408084206001600160a01b0393909316845291905290205460ff1690565b600260325403610f125760405162461bcd60e51b815260206004820152601f60248201527f5265656e7472616e637947756172643a207265656e7472616e742063616c6c0060448201526064016104f3565b6002603255610f1f6113b7565b60606000836001811115610f3557610f356120db565b03610fb75760405163fb95ac2d60e01b815260048101869052602481018590526001600160a01b0388169063fb95ac2d906044016000604051808303816000875af1158015610f88573d6000803e3d6000fd5b505050506040513d6000823e601f3d908101601f19168201604052610fb09190810190612371565b9050611029565b604051639b9284f960e01b8152600481018690526001600160a01b03881690639b9284f9906024016000604051808303816000875af1158015610ffe573d6000803e3d6000fd5b505050506040513d6000823e601f3d908101601f191682016040526110269190810190612371565b90505b61103987338888888789886113fd565b505060016032555050505050565b600081815261012c6020526040812061040e9061182e565b600082815260fa602052604090206001015461107a816110d5565b6105448383611102565b60006001600160e01b03198216637965db0b60e01b148061040e57506301ffc9a760e01b6001600160e01b031983161461040e565b60006110c483611838565b8015610e8e5750610e8e838361186b565b610db681336118f4565b6110e98282611958565b600082815261012c6020526040902061054490826119de565b61110c82826119f3565b600082815261012c602052604090206105449082611a5a565b61112d611a6f565b6096805460ff191690557f5db9ee0a495bf2e6ff9c91a7834c1ba4fdd244a5e8aa4e537bd38aeae4b073aa335b6040516001600160a01b03909116815260200160405180910390a1565b6000546201000090046001600160a01b03166001600160a01b0316633dbb202b8483856040518463ffffffff1660e01b81526004016111b8939291906123df565b600060405180830381600087803b1580156111d257600080fd5b505af11580156111e6573d6000803e3d6000fd5b50505050505050565b600054610100900460ff166112165760405162461bcd60e51b81526004016104f390612419565b600080546001600160a01b03909216620100000262010000600160b01b0319909216919091179055565b600054610100900460ff166112675760405162461bcd60e51b81526004016104f390612419565b6105e6611ab8565b600054610100900460ff166112965760405162461bcd60e51b81526004016104f390612419565b6105e6611aeb565b600054610100900460ff166112c55760405162461bcd60e51b81526004016104f390612419565b6112cd611b19565b6112d86000336110df565b6112f06000805160206125a4833981519152336110df565b61131a7f364d3d7565c7a8300c96fd53e065d19b65848d7b23b3191adcd55621c744223c336110df565b6113447f9f2df0fed2c77648de5860a4cc508cd0818c85b8b8a1ab4ceeef8d981c8956a6336110df565b6105e67ff18b77e1ef402111bacb54bd5e03494cbdba92fbd1bd3bbcc1ce77e69b42ea6c336110df565b6113766113b7565b6096805460ff191660011790557f62e78cea01bee320cd4e420270b5ea74000d11b0c9f74754ebdbfc544b05a25861115a3390565b6000610e8e8383611b40565b60965460ff16156105e65760405162461bcd60e51b815260206004820152601060248201526f14185d5cd8589b194e881c185d5cd95960821b60448201526064016104f3565b6101905460408051636284ae4160e01b815290516001600160a01b03909216916000918391636284ae4191600480820192602092909190829003018187875af115801561144e573d6000803e3d6000fd5b505050506040513d601f19601f820116820180604052508101906114729190612464565b9050803410156114d05760405162461bcd60e51b815260206004820152602360248201527f4e46544272696467653a3a496e73756666696369656e7420426f626120616d6f6044820152621d5b9d60ea1b60648201526084016104f3565b816001600160a01b031663d4d5d32a826040518263ffffffff1660e01b81526004016000604051808303818588803b15801561150b57600080fd5b505af115801561151f573d6000803e3d6000fd5b505050506001600160a01b038b8116600090815261018f602052604090208054909250166115a55760405162461bcd60e51b815260206004820152602d60248201527f4e46544272696467653a3a4e4654206973206e6f7420636f6e6669677572656460448201526c20666f72206272696467696e6760981b60648201526084016104f3565b8a6001600160a01b031663663ab59d6040518163ffffffff1660e01b81526004016020604051808303816000875af11580156115e5573d6000803e3d6000fd5b505050506040513d601f19601f8201168201806040525081019061160991906121fb565b81546001600160a01b039081169116146116795760405162461bcd60e51b815260206004820152602b60248201527f4e46544272696467653a3a4c31204e465420636f6e747261637420616464726560448201526a0e6e640dad2e6dac2e8c6d60ab1b60648201526084016104f3565b600085600181111561168d5761168d6120db565b036116fe57604051637a94c56560e11b815233600482015260248101899052604481018890526001600160a01b038c169063f5298aca90606401600060405180830381600087803b1580156116e157600080fd5b505af11580156116f5573d6000803e3d6000fd5b50505050611759565b604051630852cd8d60e31b8152600481018990526001600160a01b038c16906342966c6890602401600060405180830381600087803b15801561174057600080fd5b505af1158015611754573d6000803e3d6000fd5b505050505b6117c961018c60009054906101000a90046001600160a01b031687633f5e044f60e01b8460000160009054906101000a90046001600160a01b03168560010160009054906101000a90046001600160a01b03168f8f8f8f8e8e60405160240161092f98979695949392919061230c565b600181015481546040516001600160a01b03808e169381169216907f5bb7810a4aee7990cc486a7bc8f89a6e7e0d9f879f9f116f74886bba7713874b90611819908e908e908e908d908d906122cf565b60405180910390a45050505050505050505050565b600061040e825490565b600061184b826301ffc9a760e01b61186b565b801561040e5750611864826001600160e01b031961186b565b1592915050565b604080516001600160e01b03198316602480830191909152825180830390910181526044909101909152602080820180516001600160e01b03166301ffc9a760e01b178152825160009392849283928392918391908a617530fa92503d915060005190508280156118dd575060208210155b80156118e95750600081115b979650505050505050565b6118fe8282610e95565b6105c357611916816001600160a01b03166014611b6a565b611921836020611b6a565b60405160200161193292919061247d565b60408051601f198184030181529082905262461bcd60e51b82526104f3916004016124f2565b6119628282610e95565b6105c357600082815260fa602090815260408083206001600160a01b03851684529091529020805460ff1916600117905561199a3390565b6001600160a01b0316816001600160a01b0316837f2f8788117e7eff1d82e926ec794901d17c78024a50270940304540a733656f0d60405160405180910390a45050565b6000610e8e836001600160a01b038416611d06565b6119fd8282610e95565b156105c357600082815260fa602090815260408083206001600160a01b0385168085529252808320805460ff1916905551339285917ff6391f5c32d9c69d2a47ea670b442974b53935d1edc7fd64eb21e047a839171b9190a45050565b6000610e8e836001600160a01b038416611d55565b60965460ff166105e65760405162461bcd60e51b815260206004820152601460248201527314185d5cd8589b194e881b9bdd081c185d5cd95960621b60448201526064016104f3565b600054610100900460ff16611adf5760405162461bcd60e51b81526004016104f390612419565b6096805460ff19169055565b600054610100900460ff16611b125760405162461bcd60e51b81526004016104f390612419565b6001603255565b600054610100900460ff166105e65760405162461bcd60e51b81526004016104f390612419565b6000826000018281548110611b5757611b57612505565b9060005260206000200154905092915050565b60606000611b79836002612531565b611b84906002612550565b67ffffffffffffffff811115611b9c57611b9c611f36565b6040519080825280601f01601f191660200182016040528015611bc6576020820181803683370190505b509050600360fc1b81600081518110611be157611be1612505565b60200101906001600160f81b031916908160001a905350600f60fb1b81600181518110611c1057611c10612505565b60200101906001600160f81b031916908160001a9053506000611c34846002612531565b611c3f906001612550565b90505b6001811115611cb7576f181899199a1a9b1b9c1cb0b131b232b360811b85600f1660108110611c7357611c73612505565b1a60f81b828281518110611c8957611c89612505565b60200101906001600160f81b031916908160001a90535060049490941c93611cb081612563565b9050611c42565b508315610e8e5760405162461bcd60e51b815260206004820181905260248201527f537472696e67733a20686578206c656e67746820696e73756666696369656e7460448201526064016104f3565b6000818152600183016020526040812054611d4d5750815460018181018455600084815260208082209093018490558454848252828601909352604090209190915561040e565b50600061040e565b60008181526001830160205260408120548015611e3e576000611d7960018361257a565b8554909150600090611d8d9060019061257a565b9050818114611df2576000866000018281548110611dad57611dad612505565b9060005260206000200154905080876000018481548110611dd057611dd0612505565b6000918252602080832090910192909255918252600188019052604090208390555b8554869080611e0357611e0361258d565b60019003818190600052602060002001600090559055856001016000868152602001908152602001600020600090556001935050505061040e565b600091505061040e565b600060208284031215611e5a57600080fd5b81356001600160e01b031981168114610e8e57600080fd5b6001600160a01b0381168114610db657600080fd5b803560028110611e9657600080fd5b919050565b60008060408385031215611eae57600080fd5b8235611eb981611e72565b9150611ec760208401611e87565b90509250929050565b600060208284031215611ee257600080fd5b8135610e8e81611e72565b600060208284031215611eff57600080fd5b5035919050565b60008060408385031215611f1957600080fd5b823591506020830135611f2b81611e72565b809150509250929050565b634e487b7160e01b600052604160045260246000fd5b604051601f8201601f1916810167ffffffffffffffff81118282101715611f7557611f75611f36565b604052919050565b600067ffffffffffffffff821115611f9757611f97611f36565b50601f01601f191660200190565b600080600080600080600080610100898b031215611fc257600080fd5b8835611fcd81611e72565b97506020890135611fdd81611e72565b96506040890135611fed81611e72565b95506060890135611ffd81611e72565b94506080890135935060a0890135925061201960c08a01611e87565b915060e089013567ffffffffffffffff81111561203557600080fd5b8901601f81018b1361204657600080fd5b803561205961205482611f7d565b611f4c565b8181528c602083850101111561206e57600080fd5b816020840160208301376000602083830101528093505050509295985092959890939650565b6000806000606084860312156120a957600080fd5b83356120b481611e72565b925060208401356120c481611e72565b91506120d260408501611e87565b90509250925092565b634e487b7160e01b600052602160045260246000fd5b6002811061210f57634e487b7160e01b600052602160045260246000fd5b9052565b6001600160a01b038481168252831660208201526060810161213860408301846120f1565b949350505050565b803563ffffffff81168114611e9657600080fd5b60006020828403121561216657600080fd5b610e8e82612140565b6000806040838503121561218257600080fd5b50508035926020909101359150565b60008060008060008060c087890312156121aa57600080fd5b86356121b581611e72565b955060208701356121c581611e72565b945060408701359350606087013592506121e160808801611e87565b91506121ef60a08801612140565b90509295509295509295565b60006020828403121561220d57600080fd5b8151610e8e81611e72565b60005b8381101561223357818101518382015260200161221b565b50506000910152565b60008151808452612254816020860160208601612218565b601f01601f19169290920160200192915050565b60018060a01b038416815282602082015260606040820152600061228f606083018461223c565b95945050505050565b60018060a01b03851681528360208201528260408201526080606082015260006122c5608083018461223c565b9695505050505050565b6001600160a01b038616815260208101859052604081018490526122f660608201846120f1565b60a0608082015260006118e960a083018461223c565b6001600160a01b03898116825288811660208301528781166040830152861660608201526080810185905260a08101849052600061010061235060c08401866120f1565b8060e08401526123628184018561223c565b9b9a5050505050505050505050565b60006020828403121561238357600080fd5b815167ffffffffffffffff81111561239a57600080fd5b8201601f810184136123ab57600080fd5b80516123b961205482611f7d565b8181528560208385010111156123ce57600080fd5b61228f826020830160208601612218565b6001600160a01b03841681526060602082018190526000906124039083018561223c565b905063ffffffff83166040830152949350505050565b6020808252602b908201527f496e697469616c697a61626c653a20636f6e7472616374206973206e6f74206960408201526a6e697469616c697a696e6760a81b606082015260800190565b60006020828403121561247657600080fd5b5051919050565b7f416363657373436f6e74726f6c3a206163636f756e74200000000000000000008152600083516124b5816017850160208801612218565b7001034b99036b4b9b9b4b733903937b6329607d1b60179184019182015283516124e6816028840160208801612218565b01602801949350505050565b602081526000610e8e602083018461223c565b634e487b7160e01b600052603260045260246000fd5b634e487b7160e01b600052601160045260246000fd5b600081600019048311821515161561254b5761254b61251b565b500290565b8082018082111561040e5761040e61251b565b6000816125725761257261251b565b506000190190565b8181038181111561040e5761040e61251b565b634e487b7160e01b600052603160045260246000fdfea49807205ce4d355092ef5a8a18f56e8913cf4a201fbe287825b095693c21775a26469706673582212201365e975add9b45f2c2da95b700a038593e0f0bbfe7c77d3163892d9589aa0d064736f6c63430008100033",
  "linkReferences": {},
  "deployedLinkReferences": {}
}