{
  "_format": "hh-sol-artifact-1",
  "contractName": "L1NFTBridge",
  "sourceName": "contracts/npc/BobaBridge/NFT/L1/L1NFTBridge.sol",
  "abi": [
    {
      "inputs": [],
      "stateMutability": "nonpayable",
      "type": "constructor"
    },
    {
      "anonymous": false,
      "inputs": [
        {
          "indexed": true,
          "internalType": "address",
          "name": "l1Token",
          "type": "address"
        },
        {
          "indexed": true,
          "internalType": "address",
          "name": "l2Token",
          "type": "address"
        },
        {
          "indexed": true,
          "internalType": "address",
          "name": "from",
          "type": "address"
        },
        {
          "indexed": false,
          "internalType": "address",
          "name": "to",
          "type": "address"
        },
        {
          "indexed": false,
          "internalType": "uint256",
          "name": "tokenId",
          "type": "uint256"
        },
        {
          "indexed": false,
          "internalType": "uint256",
          "name": "amount",
          "type": "uint256"
        },
        {
          "indexed": false,
          "internalType": "enum INFTBridge.NFTType",
          "name": "nftType",
          "type": "uint8"
        },
        {
          "indexed": false,
          "internalType": "bytes",
          "name": "data",
          "type": "bytes"
        }
      ],
      "name": "BridgeFailed",
      "type": "event"
    },
    {
      "anonymous": false,
      "inputs": [
        {
          "indexed": true,
          "internalType": "address",
          "name": "l1Token",
          "type": "address"
        },
        {
          "indexed": true,
          "internalType": "address",
          "name": "l2Token",
          "type": "address"
        },
        {
          "indexed": true,
          "internalType": "address",
          "name": "from",
          "type": "address"
        },
        {
          "indexed": false,
          "internalType": "address",
          "name": "to",
          "type": "address"
        },
        {
          "indexed": false,
          "internalType": "uint256",
          "name": "tokenId",
          "type": "uint256"
        },
        {
          "indexed": false,
          "internalType": "uint256",
          "name": "amount",
          "type": "uint256"
        },
        {
          "indexed": false,
          "internalType": "enum INFTBridge.NFTType",
          "name": "nftType",
          "type": "uint8"
        },
        {
          "indexed": false,
          "internalType": "bytes",
          "name": "data",
          "type": "bytes"
        }
      ],
      "name": "BridgeFinalized",
      "type": "event"
    },
    {
      "anonymous": false,
      "inputs": [
        {
          "indexed": true,
          "internalType": "address",
          "name": "l1Nft",
          "type": "address"
        },
        {
          "indexed": true,
          "internalType": "address",
          "name": "l2Nft",
          "type": "address"
        },
        {
          "indexed": true,
          "internalType": "address",
          "name": "from",
          "type": "address"
        },
        {
          "indexed": false,
          "internalType": "address",
          "name": "to",
          "type": "address"
        },
        {
          "indexed": false,
          "internalType": "uint256",
          "name": "tokenId",
          "type": "uint256"
        },
        {
          "indexed": false,
          "internalType": "uint256",
          "name": "amount",
          "type": "uint256"
        },
        {
          "indexed": false,
          "internalType": "enum INFTBridge.NFTType",
          "name": "nftType",
          "type": "uint8"
        },
        {
          "indexed": false,
          "internalType": "bytes",
          "name": "data",
          "type": "bytes"
        }
      ],
      "name": "BridgeInitiated",
      "type": "event"
    },
    {
      "anonymous": false,
      "inputs": [
        {
          "indexed": false,
          "internalType": "uint8",
          "name": "version",
          "type": "uint8"
        }
      ],
      "name": "Initialized",
      "type": "event"
    },
    {
      "anonymous": false,
      "inputs": [
        {
          "indexed": false,
          "internalType": "address",
          "name": "account",
          "type": "address"
        }
      ],
      "name": "Paused",
      "type": "event"
    },
    {
      "anonymous": false,
      "inputs": [
        {
          "indexed": true,
          "internalType": "bytes32",
          "name": "role",
          "type": "bytes32"
        },
        {
          "indexed": true,
          "internalType": "bytes32",
          "name": "previousAdminRole",
          "type": "bytes32"
        },
        {
          "indexed": true,
          "internalType": "bytes32",
          "name": "newAdminRole",
          "type": "bytes32"
        }
      ],
      "name": "RoleAdminChanged",
      "type": "event"
    },
    {
      "anonymous": false,
      "inputs": [
        {
          "indexed": true,
          "internalType": "bytes32",
          "name": "role",
          "type": "bytes32"
        },
        {
          "indexed": true,
          "internalType": "address",
          "name": "account",
          "type": "address"
        },
        {
          "indexed": true,
          "internalType": "address",
          "name": "sender",
          "type": "address"
        }
      ],
      "name": "RoleGranted",
      "type": "event"
    },
    {
      "anonymous": false,
      "inputs": [
        {
          "indexed": true,
          "internalType": "bytes32",
          "name": "role",
          "type": "bytes32"
        },
        {
          "indexed": true,
          "internalType": "address",
          "name": "account",
          "type": "address"
        },
        {
          "indexed": true,
          "internalType": "address",
          "name": "sender",
          "type": "address"
        }
      ],
      "name": "RoleRevoked",
      "type": "event"
    },
    {
      "anonymous": false,
      "inputs": [
        {
          "indexed": false,
          "internalType": "address",
          "name": "account",
          "type": "address"
        }
      ],
      "name": "Unpaused",
      "type": "event"
    },
    {
      "inputs": [],
      "name": "DEFAULT_ADMIN_ROLE",
      "outputs": [
        {
          "internalType": "bytes32",
          "name": "",
          "type": "bytes32"
        }
      ],
      "stateMutability": "view",
      "type": "function"
    },
    {
      "inputs": [],
      "name": "NFTBridge",
      "outputs": [
        {
          "internalType": "address",
          "name": "",
          "type": "address"
        }
      ],
      "stateMutability": "view",
      "type": "function"
    },
    {
      "inputs": [
        {
          "internalType": "address",
          "name": "nft",
          "type": "address"
        },
        {
          "internalType": "address",
          "name": "to",
          "type": "address"
        },
        {
          "internalType": "uint256",
          "name": "tokenId",
          "type": "uint256"
        },
        {
          "internalType": "uint256",
          "name": "amount",
          "type": "uint256"
        },
        {
          "internalType": "enum INFTBridge.NFTType",
          "name": "nftType",
          "type": "uint8"
        },
        {
          "internalType": "uint32",
          "name": "gas",
          "type": "uint32"
        }
      ],
      "name": "bridge",
      "outputs": [],
      "stateMutability": "nonpayable",
      "type": "function"
    },
    {
      "inputs": [],
      "name": "exitGas",
      "outputs": [
        {
          "internalType": "uint32",
          "name": "",
          "type": "uint32"
        }
      ],
      "stateMutability": "view",
      "type": "function"
    },
    {
      "inputs": [],
      "name": "extraGasRelay",
      "outputs": [
        {
          "internalType": "uint256",
          "name": "",
          "type": "uint256"
        }
      ],
      "stateMutability": "view",
      "type": "function"
    },
    {
      "inputs": [
        {
          "internalType": "address",
          "name": "l1Nft",
          "type": "address"
        },
        {
          "internalType": "address",
          "name": "l2Nft",
          "type": "address"
        },
        {
          "internalType": "address",
          "name": "from",
          "type": "address"
        },
        {
          "internalType": "address",
          "name": "to",
          "type": "address"
        },
        {
          "internalType": "uint256",
          "name": "tokenId",
          "type": "uint256"
        },
        {
          "internalType": "uint256",
          "name": "amount",
          "type": "uint256"
        },
        {
          "internalType": "enum INFTBridge.NFTType",
          "name": "nftType",
          "type": "uint8"
        },
        {
          "internalType": "bytes",
          "name": "data",
          "type": "bytes"
        }
      ],
      "name": "finalize",
      "outputs": [],
      "stateMutability": "nonpayable",
      "type": "function"
    },
    {
      "inputs": [
        {
          "internalType": "bytes32",
          "name": "role",
          "type": "bytes32"
        }
      ],
      "name": "getRoleAdmin",
      "outputs": [
        {
          "internalType": "bytes32",
          "name": "",
          "type": "bytes32"
        }
      ],
      "stateMutability": "view",
      "type": "function"
    },
    {
      "inputs": [
        {
          "internalType": "bytes32",
          "name": "role",
          "type": "bytes32"
        },
        {
          "internalType": "uint256",
          "name": "index",
          "type": "uint256"
        }
      ],
      "name": "getRoleMember",
      "outputs": [
        {
          "internalType": "address",
          "name": "",
          "type": "address"
        }
      ],
      "stateMutability": "view",
      "type": "function"
    },
    {
      "inputs": [
        {
          "internalType": "bytes32",
          "name": "role",
          "type": "bytes32"
        }
      ],
      "name": "getRoleMemberCount",
      "outputs": [
        {
          "internalType": "uint256",
          "name": "",
          "type": "uint256"
        }
      ],
      "stateMutability": "view",
      "type": "function"
    },
    {
      "inputs": [
        {
          "internalType": "bytes32",
          "name": "role",
          "type": "bytes32"
        },
        {
          "internalType": "address",
          "name": "account",
          "type": "address"
        }
      ],
      "name": "grantRole",
      "outputs": [],
      "stateMutability": "nonpayable",
      "type": "function"
    },
    {
      "inputs": [
        {
          "internalType": "bytes32",
          "name": "role",
          "type": "bytes32"
        },
        {
          "internalType": "address",
          "name": "account",
          "type": "address"
        }
      ],
      "name": "hasRole",
      "outputs": [
        {
          "internalType": "bool",
          "name": "",
          "type": "bool"
        }
      ],
      "stateMutability": "view",
      "type": "function"
    },
    {
      "inputs": [],
      "name": "initialize",
      "outputs": [],
      "stateMutability": "nonpayable",
      "type": "function"
    },
    {
      "inputs": [
        {
          "internalType": "address",
          "name": "nft",
          "type": "address"
        },
        {
          "internalType": "enum INFTBridge.NFTType",
          "name": "nftType",
          "type": "uint8"
        }
      ],
      "name": "isBridgeCompliant",
      "outputs": [
        {
          "internalType": "bool",
          "name": "",
          "type": "bool"
        }
      ],
      "stateMutability": "view",
      "type": "function"
    },
    {
      "inputs": [],
      "name": "messenger",
      "outputs": [
        {
          "internalType": "address",
          "name": "",
          "type": "address"
        }
      ],
      "stateMutability": "view",
      "type": "function"
    },
    {
      "inputs": [
        {
          "internalType": "address",
          "name": "",
          "type": "address"
        }
      ],
      "name": "pairNFTInfo",
      "outputs": [
        {
          "internalType": "address",
          "name": "l1Nft",
          "type": "address"
        },
        {
          "internalType": "address",
          "name": "l2Nft",
          "type": "address"
        },
        {
          "internalType": "enum INFTBridge.NFTType",
          "name": "nftType",
          "type": "uint8"
        }
      ],
      "stateMutability": "view",
      "type": "function"
    },
    {
      "inputs": [],
      "name": "pause",
      "outputs": [],
      "stateMutability": "nonpayable",
      "type": "function"
    },
    {
      "inputs": [],
      "name": "paused",
      "outputs": [
        {
          "internalType": "bool",
          "name": "",
          "type": "bool"
        }
      ],
      "stateMutability": "view",
      "type": "function"
    },
    {
      "inputs": [
        {
          "internalType": "address",
          "name": "l1Nft",
          "type": "address"
        },
        {
          "internalType": "address",
          "name": "l2Nft",
          "type": "address"
        },
        {
          "internalType": "enum INFTBridge.NFTType",
          "name": "nftType",
          "type": "uint8"
        }
      ],
      "name": "registerNFTPair",
      "outputs": [],
      "stateMutability": "nonpayable",
      "type": "function"
    },
    {
      "inputs": [
        {
          "internalType": "bytes32",
          "name": "role",
          "type": "bytes32"
        },
        {
          "internalType": "address",
          "name": "account",
          "type": "address"
        }
      ],
      "name": "renounceRole",
      "outputs": [],
      "stateMutability": "nonpayable",
      "type": "function"
    },
    {
      "inputs": [
        {
          "internalType": "bytes32",
          "name": "role",
          "type": "bytes32"
        },
        {
          "internalType": "address",
          "name": "account",
          "type": "address"
        }
      ],
      "name": "revokeRole",
      "outputs": [],
      "stateMutability": "nonpayable",
      "type": "function"
    },
    {
      "inputs": [
        {
          "internalType": "bytes4",
          "name": "interfaceId",
          "type": "bytes4"
        }
      ],
      "name": "supportsInterface",
      "outputs": [
        {
          "internalType": "bool",
          "name": "",
          "type": "bool"
        }
      ],
      "stateMutability": "view",
      "type": "function"
    },
    {
      "inputs": [],
      "name": "unpause",
      "outputs": [],
      "stateMutability": "nonpayable",
      "type": "function"
    },
    {
      "inputs": [
        {
          "internalType": "uint32",
          "name": "_exitGas",
          "type": "uint32"
        }
      ],
      "name": "updateGas",
      "outputs": [],
      "stateMutability": "nonpayable",
      "type": "function"
    },
    {
      "inputs": [
        {
          "internalType": "address",
          "name": "_nftBridge",
          "type": "address"
        }
      ],
      "name": "updateNFTBridge",
      "outputs": [],
      "stateMutability": "nonpayable",
      "type": "function"
    }
  ],
  "bytecode": "0x60806040523480156200001157600080fd5b506200001c6200002c565b620000266200002c565b620000ee565b600054610100900460ff1615620000995760405162461bcd60e51b815260206004820152602760248201527f496e697469616c697a61626c653a20636f6e747261637420697320696e697469604482015266616c697a696e6760c81b606482015260840160405180910390fd5b60005460ff9081161015620000ec576000805460ff191660ff9081179091556040519081527f7f26b83ff96e1f2b6a682f133852f6798a09c465da95921460cefb38474024989060200160405180910390a15b565b61236b80620000fe6000396000f3fe608060405234801561001057600080fd5b50600436106101585760003560e01c806370ac3180116100c35780639010d07c1161007c5780639010d07c1461032557806391d14854146103385780639dc68a641461034b578063a217fddf1461035e578063ca15c87314610366578063d547741f1461037957600080fd5b806370ac3180146102825780638129fc1c1461028c5780638456cb5914610294578063863081dd1461029c578063884e2e8d146102ec5780638e4934ca146102ff57600080fd5b80633cb747bf116101155780633cb747bf146102045780633f4ba83a146102355780633f5e044f1461023d5780634bcf4831146102505780635c975abb146102645780636aa483cc1461026f57600080fd5b806301ffc9a71461015d578063094c10901461018557806322de13e814610198578063248a9ca3146101ad5780632f2ff15d146101de57806336568abe146101f1575b600080fd5b61017061016b366004611bd3565b61038c565b60405190151581526020015b60405180910390f35b610170610193366004611c26565b6103b7565b6101ab6101a6366004611c5b565b610418565b005b6101d06101bb366004611c78565b600090815260fa602052604090206001015490565b60405190815260200161017c565b6101ab6101ec366004611c91565b6104c2565b6101ab6101ff366004611c91565b6104ec565b60005461021d906201000090046001600160a01b031681565b6040516001600160a01b03909116815260200161017c565b6101ab61056a565b6101ab61024b366004611d30565b61058b565b61018c5461021d906001600160a01b031681565b60965460ff16610170565b6101ab61027d366004611e1f565b610975565b6101d061018d5481565b6101ab610b29565b6101ab610ca1565b6102dd6102aa366004611c5b565b61018f60205260009081526040902080546001909101546001600160a01b0391821691811690600160a01b900460ff1683565b60405161017c93929190611e9e565b6101ab6102fa366004611edf565b610cc0565b61018e546103109063ffffffff1681565b60405163ffffffff909116815260200161017c565b61021d610333366004611efa565b610d5d565b610170610346366004611c91565b610d7d565b6101ab610359366004611f1c565b610da8565b6101d0600081565b6101d0610374366004611c78565b610f2f565b6101ab610387366004611c91565b610f47565b60006001600160e01b03198216635a05180f60e01b14806103b157506103b182610f6c565b92915050565b60006103ca83633aced14960e01b610fa1565b6103d6575060006103b1565b60018260018111156103ea576103ea611e66565b0361040757610400836326ea703f60e11b610fa1565b90506103b1565b61040083633ed68a8760e11b610fa1565b61042f600080516020612316833981519152610fbd565b6001600160a01b03811661049f5760405162461bcd60e51b815260206004820152602c60248201527f4e46544272696467653a3a4e4654204272696467652063616e6e6f742062652060448201526b7a65726f206164647265737360a01b60648201526084015b60405180910390fd5b61018c80546001600160a01b0319166001600160a01b0392909216919091179055565b600082815260fa60205260409020600101546104dd81610fbd565b6104e78383610fc7565b505050565b6001600160a01b038116331461055c5760405162461bcd60e51b815260206004820152602f60248201527f416363657373436f6e74726f6c3a2063616e206f6e6c792072656e6f756e636560448201526e103937b632b9903337b91039b2b63360891b6064820152608401610496565b6105668282610fea565b5050565b610581600080516020612316833981519152610fbd565b61058961100d565b565b61018c546001600160a01b03166105b16000546001600160a01b03620100009091041690565b6001600160a01b0316336001600160a01b0316146106285760405162461bcd60e51b815260206004820152602e60248201527f4f564d5f58434841494e3a206d657373656e67657220636f6e7472616374207560448201526d1b985d5d1a195b9d1a58d85d195960921b6064820152608401610496565b6000546001600160a01b0380831691620100009004166001600160a01b0316636e296e456040518163ffffffff1660e01b8152600401602060405180830381865afa15801561067b573d6000803e3d6000fd5b505050506040513d601f19601f8201168201806040525081019061069f9190611f86565b6001600160a01b03161461070e5760405162461bcd60e51b815260206004820152603060248201527f4f564d5f58434841494e3a2077726f6e672073656e646572206f662063726f7360448201526f732d646f6d61696e206d65737361676560801b6064820152608401610496565b61071889846103b7565b801561074457506001600160a01b03898116600090815261018f60205260409020600101548116908916145b1561089057600183600181111561075d5761075d611e66565b036107c9576040516394d008ef60e01b81526001600160a01b038a16906394d008ef9061079290899089908790600401611ff3565b600060405180830381600087803b1580156107ac57600080fd5b505af11580156107c0573d6000803e3d6000fd5b5050505061082e565b60405163731133e960e01b81526001600160a01b038a169063731133e9906107fb908990899089908890600401612023565b600060405180830381600087803b15801561081557600080fd5b505af1158015610829573d6000803e3d6000fd5b505050505b866001600160a01b0316886001600160a01b03168a6001600160a01b03167f83d2d3b030065af8582313b1cabb5b5b8e919735818ceb8b9b5e28cac78ad99e898989898960405161088395949392919061205a565b60405180910390a461096a565b61018c5461018e5460405161090c926001600160a01b03169163ffffffff1690633f5e044f60e01b906108d5908e908e908d908f908e908e908e908e90602401612097565b60408051601f198184030181529190526020810180516001600160e01b03166001600160e01b03199093169290921790915261105f565b866001600160a01b0316886001600160a01b03168a6001600160a01b03167f6d0b80688176beb8ea74eeea79075d5151a987be37e67aa21775c6a06eee05e9898989898960405161096195949392919061205a565b60405180910390a45b505050505050505050565b61098c600080516020612316833981519152610fbd565b61099683826103b7565b6109e25760405162461bcd60e51b815260206004820181905260248201527f4e46544272696467653a3a4e4654206973206e6f742062726964676561626c656044820152606401610496565b6001600160a01b03808416600090815261018f60205260409020600181015490911615610a665760405162461bcd60e51b815260206004820152602c60248201527f4e46544272696467653a3a4c32204e4654206164647265737320616c7265616460448201526b1e481c9959da5cdd195c995960a21b6064820152608401610496565b6040518060600160405280856001600160a01b03168152602001846001600160a01b03168152602001836001811115610aa157610aa1611e66565b90526001600160a01b03808616600090815261018f6020908152604091829020845181549085166001600160a01b031991821617825591850151600180830180549290961693821684178655938601519194919391926001600160a81b03199091161790600160a01b908490811115610b1c57610b1c611e66565b0217905550505050505050565b600054610100900460ff1615808015610b495750600054600160ff909116105b80610b635750303b158015610b63575060005460ff166001145b610bc65760405162461bcd60e51b815260206004820152602e60248201527f496e697469616c697a61626c653a20636f6e747261637420697320616c72656160448201526d191e481a5b9a5d1a585b1a5e995960921b6064820152608401610496565b6000805460ff191660011790558015610be9576000805461ff0019166101001790555b610c06730fc742332ae6d447d6619d93985aa288b81cbb0c6110d7565b61018c80546001600160a01b031916730e1455d86920b399369a7c871be8d26f585af44017905561018e805463ffffffff191662155cc0179055610c48611128565b610c50611157565b610c58611186565b8015610c9e576000805461ff0019169055604051600181527f7f26b83ff96e1f2b6a682f133852f6798a09c465da95921460cefb38474024989060200160405180910390a15b50565b610cb8600080516020612316833981519152610fbd565b610589611256565b610cd7600080516020612316833981519152610fbd565b60008163ffffffff1611610d405760405162461bcd60e51b815260206004820152602a60248201527f4e46544272696467653a3a4578697420476173206d75737420626520677265616044820152690746572207468616e20360b41b6064820152608401610496565b61018e805463ffffffff191663ffffffff92909216919091179055565b600082815261012c60205260408120610d769083611293565b9392505050565b600091825260fa602090815260408084206001600160a01b0393909316845291905290205460ff1690565b600260325403610dfa5760405162461bcd60e51b815260206004820152601f60248201527f5265656e7472616e637947756172643a207265656e7472616e742063616c6c006044820152606401610496565b6002603255610e0761129f565b60606000836001811115610e1d57610e1d611e66565b03610e9f5760405163fb95ac2d60e01b815260048101869052602481018590526001600160a01b0388169063fb95ac2d906044016000604051808303816000875af1158015610e70573d6000803e3d6000fd5b505050506040513d6000823e601f3d908101601f19168201604052610e9891908101906120fc565b9050610f11565b604051639b9284f960e01b8152600481018690526001600160a01b03881690639b9284f9906024016000604051808303816000875af1158015610ee6573d6000803e3d6000fd5b505050506040513d6000823e601f3d908101601f19168201604052610f0e91908101906120fc565b90505b610f2187338888888789886112e5565b505060016032555050505050565b600081815261012c602052604081206103b1906115b9565b600082815260fa6020526040902060010154610f6281610fbd565b6104e78383610fea565b60006001600160e01b03198216637965db0b60e01b14806103b157506301ffc9a760e01b6001600160e01b03198316146103b1565b6000610fac836115c3565b8015610d765750610d7683836115f6565b610c9e813361167f565b610fd182826116e3565b600082815261012c602052604090206104e79082611769565b610ff4828261177e565b600082815261012c602052604090206104e790826117e5565b6110156117fa565b6096805460ff191690557f5db9ee0a495bf2e6ff9c91a7834c1ba4fdd244a5e8aa4e537bd38aeae4b073aa335b6040516001600160a01b03909116815260200160405180910390a1565b6000546201000090046001600160a01b03166001600160a01b0316633dbb202b8483856040518463ffffffff1660e01b81526004016110a09392919061216a565b600060405180830381600087803b1580156110ba57600080fd5b505af11580156110ce573d6000803e3d6000fd5b50505050505050565b600054610100900460ff166110fe5760405162461bcd60e51b8152600401610496906121a4565b600080546001600160a01b03909216620100000262010000600160b01b0319909216919091179055565b600054610100900460ff1661114f5760405162461bcd60e51b8152600401610496906121a4565b610589611843565b600054610100900460ff1661117e5760405162461bcd60e51b8152600401610496906121a4565b610589611876565b600054610100900460ff166111ad5760405162461bcd60e51b8152600401610496906121a4565b6111b56118a4565b6111c0600033610fc7565b6111d860008051602061231683398151915233610fc7565b6112027f364d3d7565c7a8300c96fd53e065d19b65848d7b23b3191adcd55621c744223c33610fc7565b61122c7f9f2df0fed2c77648de5860a4cc508cd0818c85b8b8a1ab4ceeef8d981c8956a633610fc7565b6105897ff18b77e1ef402111bacb54bd5e03494cbdba92fbd1bd3bbcc1ce77e69b42ea6c33610fc7565b61125e61129f565b6096805460ff191660011790557f62e78cea01bee320cd4e420270b5ea74000d11b0c9f74754ebdbfc544b05a2586110423390565b6000610d7683836118cb565b60965460ff16156105895760405162461bcd60e51b815260206004820152601060248201526f14185d5cd8589b194e881c185d5cd95960821b6044820152606401610496565b6001600160a01b03808916600090815261018f6020526040902060018101549091166113695760405162461bcd60e51b815260206004820152602d60248201527f4e46544272696467653a3a4e4654206973206e6f7420636f6e6669677572656460448201526c20666f72206272696467696e6760981b6064820152608401610496565b886001600160a01b0316633aced1496040518163ffffffff1660e01b81526004016020604051808303816000875af11580156113a9573d6000803e3d6000fd5b505050506040513d601f19601f820116820180604052508101906113cd9190611f86565b60018201546001600160a01b039081169116146114405760405162461bcd60e51b815260206004820152602b60248201527f4e46544272696467653a3a4c32204e465420636f6e747261637420616464726560448201526a0e6e640dad2e6dac2e8c6d60ab1b6064820152608401610496565b600083600181111561145457611454611e66565b036114c557604051637a94c56560e11b815233600482015260248101879052604481018690526001600160a01b038a169063f5298aca90606401600060405180830381600087803b1580156114a857600080fd5b505af11580156114bc573d6000803e3d6000fd5b50505050611520565b604051630852cd8d60e31b8152600481018790526001600160a01b038a16906342966c6890602401600060405180830381600087803b15801561150757600080fd5b505af115801561151b573d6000803e3d6000fd5b505050505b61018c5481546001830154604051611569936001600160a01b03908116938993633f5e044f60e01b936108d59392831692909116908f908f908f908f908e908e90602401612097565b600181015481546040516001600160a01b03808c169381169216907f5bb7810a4aee7990cc486a7bc8f89a6e7e0d9f879f9f116f74886bba7713874b90610961908c908c908c908b908b9061205a565b60006103b1825490565b60006115d6826301ffc9a760e01b6115f6565b80156103b157506115ef826001600160e01b03196115f6565b1592915050565b604080516001600160e01b03198316602480830191909152825180830390910181526044909101909152602080820180516001600160e01b03166301ffc9a760e01b178152825160009392849283928392918391908a617530fa92503d91506000519050828015611668575060208210155b80156116745750600081115b979650505050505050565b6116898282610d7d565b610566576116a1816001600160a01b031660146118f5565b6116ac8360206118f5565b6040516020016116bd9291906121ef565b60408051601f198184030181529082905262461bcd60e51b825261049691600401612264565b6116ed8282610d7d565b61056657600082815260fa602090815260408083206001600160a01b03851684529091529020805460ff191660011790556117253390565b6001600160a01b0316816001600160a01b0316837f2f8788117e7eff1d82e926ec794901d17c78024a50270940304540a733656f0d60405160405180910390a45050565b6000610d76836001600160a01b038416611a91565b6117888282610d7d565b1561056657600082815260fa602090815260408083206001600160a01b0385168085529252808320805460ff1916905551339285917ff6391f5c32d9c69d2a47ea670b442974b53935d1edc7fd64eb21e047a839171b9190a45050565b6000610d76836001600160a01b038416611ae0565b60965460ff166105895760405162461bcd60e51b815260206004820152601460248201527314185d5cd8589b194e881b9bdd081c185d5cd95960621b6044820152606401610496565b600054610100900460ff1661186a5760405162461bcd60e51b8152600401610496906121a4565b6096805460ff19169055565b600054610100900460ff1661189d5760405162461bcd60e51b8152600401610496906121a4565b6001603255565b600054610100900460ff166105895760405162461bcd60e51b8152600401610496906121a4565b60008260000182815481106118e2576118e2612277565b9060005260206000200154905092915050565b606060006119048360026122a3565b61190f9060026122c2565b67ffffffffffffffff81111561192757611927611cc1565b6040519080825280601f01601f191660200182016040528015611951576020820181803683370190505b509050600360fc1b8160008151811061196c5761196c612277565b60200101906001600160f81b031916908160001a905350600f60fb1b8160018151811061199b5761199b612277565b60200101906001600160f81b031916908160001a90535060006119bf8460026122a3565b6119ca9060016122c2565b90505b6001811115611a42576f181899199a1a9b1b9c1cb0b131b232b360811b85600f16601081106119fe576119fe612277565b1a60f81b828281518110611a1457611a14612277565b60200101906001600160f81b031916908160001a90535060049490941c93611a3b816122d5565b90506119cd565b508315610d765760405162461bcd60e51b815260206004820181905260248201527f537472696e67733a20686578206c656e67746820696e73756666696369656e746044820152606401610496565b6000818152600183016020526040812054611ad8575081546001818101845560008481526020808220909301849055845484825282860190935260409020919091556103b1565b5060006103b1565b60008181526001830160205260408120548015611bc9576000611b046001836122ec565b8554909150600090611b18906001906122ec565b9050818114611b7d576000866000018281548110611b3857611b38612277565b9060005260206000200154905080876000018481548110611b5b57611b5b612277565b6000918252602080832090910192909255918252600188019052604090208390555b8554869080611b8e57611b8e6122ff565b6001900381819060005260206000200160009055905585600101600086815260200190815260200160002060009055600193505050506103b1565b60009150506103b1565b600060208284031215611be557600080fd5b81356001600160e01b031981168114610d7657600080fd5b6001600160a01b0381168114610c9e57600080fd5b803560028110611c2157600080fd5b919050565b60008060408385031215611c3957600080fd5b8235611c4481611bfd565b9150611c5260208401611c12565b90509250929050565b600060208284031215611c6d57600080fd5b8135610d7681611bfd565b600060208284031215611c8a57600080fd5b5035919050565b60008060408385031215611ca457600080fd5b823591506020830135611cb681611bfd565b809150509250929050565b634e487b7160e01b600052604160045260246000fd5b604051601f8201601f1916810167ffffffffffffffff81118282101715611d0057611d00611cc1565b604052919050565b600067ffffffffffffffff821115611d2257611d22611cc1565b50601f01601f191660200190565b600080600080600080600080610100898b031215611d4d57600080fd5b8835611d5881611bfd565b97506020890135611d6881611bfd565b96506040890135611d7881611bfd565b95506060890135611d8881611bfd565b94506080890135935060a08901359250611da460c08a01611c12565b915060e089013567ffffffffffffffff811115611dc057600080fd5b8901601f81018b13611dd157600080fd5b8035611de4611ddf82611d08565b611cd7565b8181528c6020838501011115611df957600080fd5b816020840160208301376000602083830101528093505050509295985092959890939650565b600080600060608486031215611e3457600080fd5b8335611e3f81611bfd565b92506020840135611e4f81611bfd565b9150611e5d60408501611c12565b90509250925092565b634e487b7160e01b600052602160045260246000fd5b60028110611e9a57634e487b7160e01b600052602160045260246000fd5b9052565b6001600160a01b0384811682528316602082015260608101611ec36040830184611e7c565b949350505050565b803563ffffffff81168114611c2157600080fd5b600060208284031215611ef157600080fd5b610d7682611ecb565b60008060408385031215611f0d57600080fd5b50508035926020909101359150565b60008060008060008060c08789031215611f3557600080fd5b8635611f4081611bfd565b95506020870135611f5081611bfd565b94506040870135935060608701359250611f6c60808801611c12565b9150611f7a60a08801611ecb565b90509295509295509295565b600060208284031215611f9857600080fd5b8151610d7681611bfd565b60005b83811015611fbe578181015183820152602001611fa6565b50506000910152565b60008151808452611fdf816020860160208601611fa3565b601f01601f19169290920160200192915050565b60018060a01b038416815282602082015260606040820152600061201a6060830184611fc7565b95945050505050565b60018060a01b03851681528360208201528260408201526080606082015260006120506080830184611fc7565b9695505050505050565b6001600160a01b038616815260208101859052604081018490526120816060820184611e7c565b60a06080820152600061167460a0830184611fc7565b6001600160a01b03898116825288811660208301528781166040830152861660608201526080810185905260a0810184905260006101006120db60c0840186611e7c565b8060e08401526120ed81840185611fc7565b9b9a5050505050505050505050565b60006020828403121561210e57600080fd5b815167ffffffffffffffff81111561212557600080fd5b8201601f8101841361213657600080fd5b8051612144611ddf82611d08565b81815285602083850101111561215957600080fd5b61201a826020830160208601611fa3565b6001600160a01b038416815260606020820181905260009061218e90830185611fc7565b905063ffffffff83166040830152949350505050565b6020808252602b908201527f496e697469616c697a61626c653a20636f6e7472616374206973206e6f74206960408201526a6e697469616c697a696e6760a81b606082015260800190565b7f416363657373436f6e74726f6c3a206163636f756e7420000000000000000000815260008351612227816017850160208801611fa3565b7001034b99036b4b9b9b4b733903937b6329607d1b6017918401918201528351612258816028840160208801611fa3565b01602801949350505050565b602081526000610d766020830184611fc7565b634e487b7160e01b600052603260045260246000fd5b634e487b7160e01b600052601160045260246000fd5b60008160001904831182151516156122bd576122bd61228d565b500290565b808201808211156103b1576103b161228d565b6000816122e4576122e461228d565b506000190190565b818103818111156103b1576103b161228d565b634e487b7160e01b600052603160045260246000fdfea49807205ce4d355092ef5a8a18f56e8913cf4a201fbe287825b095693c21775a2646970667358221220bcb37b966109972bd82eeb20f6e3992c640a583cc6675d49aad6f8130a84043964736f6c63430008100033",
  "linkReferences": {},
  "deployedLinkReferences": {}
}