{
  "_format": "hh-sol-artifact-1",
  "contractName": "L1NFTBridge",
  "sourceName": "contracts/npc/BobaBridge/NFT/L1/L1NFTBridge.sol",
  "abi": [
    {
      "inputs": [],
      "stateMutability": "nonpayable",
      "type": "constructor"
    },
    {
      "anonymous": false,
      "inputs": [
        {
          "indexed": true,
          "internalType": "address",
          "name": "l1Token",
          "type": "address"
        },
        {
          "indexed": true,
          "internalType": "address",
          "name": "l2Token",
          "type": "address"
        },
        {
          "indexed": true,
          "internalType": "address",
          "name": "from",
          "type": "address"
        },
        {
          "indexed": false,
          "internalType": "address",
          "name": "to",
          "type": "address"
        },
        {
          "indexed": false,
          "internalType": "uint256",
          "name": "tokenId",
          "type": "uint256"
        },
        {
          "indexed": false,
          "internalType": "uint256",
          "name": "amount",
          "type": "uint256"
        },
        {
          "indexed": false,
          "internalType": "enum INFTBridge.NFTType",
          "name": "nftType",
          "type": "uint8"
        },
        {
          "indexed": false,
          "internalType": "bytes",
          "name": "data",
          "type": "bytes"
        }
      ],
      "name": "BridgeFailed",
      "type": "event"
    },
    {
      "anonymous": false,
      "inputs": [
        {
          "indexed": true,
          "internalType": "address",
          "name": "l1Token",
          "type": "address"
        },
        {
          "indexed": true,
          "internalType": "address",
          "name": "l2Token",
          "type": "address"
        },
        {
          "indexed": true,
          "internalType": "address",
          "name": "from",
          "type": "address"
        },
        {
          "indexed": false,
          "internalType": "address",
          "name": "to",
          "type": "address"
        },
        {
          "indexed": false,
          "internalType": "uint256",
          "name": "tokenId",
          "type": "uint256"
        },
        {
          "indexed": false,
          "internalType": "uint256",
          "name": "amount",
          "type": "uint256"
        },
        {
          "indexed": false,
          "internalType": "enum INFTBridge.NFTType",
          "name": "nftType",
          "type": "uint8"
        },
        {
          "indexed": false,
          "internalType": "bytes",
          "name": "data",
          "type": "bytes"
        }
      ],
      "name": "BridgeFinalized",
      "type": "event"
    },
    {
      "anonymous": false,
      "inputs": [
        {
          "indexed": true,
          "internalType": "address",
          "name": "l1Nft",
          "type": "address"
        },
        {
          "indexed": true,
          "internalType": "address",
          "name": "l2Nft",
          "type": "address"
        },
        {
          "indexed": true,
          "internalType": "address",
          "name": "from",
          "type": "address"
        },
        {
          "indexed": false,
          "internalType": "address",
          "name": "to",
          "type": "address"
        },
        {
          "indexed": false,
          "internalType": "uint256",
          "name": "tokenId",
          "type": "uint256"
        },
        {
          "indexed": false,
          "internalType": "uint256",
          "name": "amount",
          "type": "uint256"
        },
        {
          "indexed": false,
          "internalType": "enum INFTBridge.NFTType",
          "name": "nftType",
          "type": "uint8"
        },
        {
          "indexed": false,
          "internalType": "bytes",
          "name": "data",
          "type": "bytes"
        }
      ],
      "name": "BridgeInitiated",
      "type": "event"
    },
    {
      "anonymous": false,
      "inputs": [
        {
          "indexed": false,
          "internalType": "uint8",
          "name": "version",
          "type": "uint8"
        }
      ],
      "name": "Initialized",
      "type": "event"
    },
    {
      "anonymous": false,
      "inputs": [
        {
          "indexed": false,
          "internalType": "address",
          "name": "account",
          "type": "address"
        }
      ],
      "name": "Paused",
      "type": "event"
    },
    {
      "anonymous": false,
      "inputs": [
        {
          "indexed": true,
          "internalType": "bytes32",
          "name": "role",
          "type": "bytes32"
        },
        {
          "indexed": true,
          "internalType": "bytes32",
          "name": "previousAdminRole",
          "type": "bytes32"
        },
        {
          "indexed": true,
          "internalType": "bytes32",
          "name": "newAdminRole",
          "type": "bytes32"
        }
      ],
      "name": "RoleAdminChanged",
      "type": "event"
    },
    {
      "anonymous": false,
      "inputs": [
        {
          "indexed": true,
          "internalType": "bytes32",
          "name": "role",
          "type": "bytes32"
        },
        {
          "indexed": true,
          "internalType": "address",
          "name": "account",
          "type": "address"
        },
        {
          "indexed": true,
          "internalType": "address",
          "name": "sender",
          "type": "address"
        }
      ],
      "name": "RoleGranted",
      "type": "event"
    },
    {
      "anonymous": false,
      "inputs": [
        {
          "indexed": true,
          "internalType": "bytes32",
          "name": "role",
          "type": "bytes32"
        },
        {
          "indexed": true,
          "internalType": "address",
          "name": "account",
          "type": "address"
        },
        {
          "indexed": true,
          "internalType": "address",
          "name": "sender",
          "type": "address"
        }
      ],
      "name": "RoleRevoked",
      "type": "event"
    },
    {
      "anonymous": false,
      "inputs": [
        {
          "indexed": false,
          "internalType": "address",
          "name": "account",
          "type": "address"
        }
      ],
      "name": "Unpaused",
      "type": "event"
    },
    {
      "inputs": [],
      "name": "DEFAULT_ADMIN_ROLE",
      "outputs": [
        {
          "internalType": "bytes32",
          "name": "",
          "type": "bytes32"
        }
      ],
      "stateMutability": "view",
      "type": "function"
    },
    {
      "inputs": [],
      "name": "NFTBridge",
      "outputs": [
        {
          "internalType": "address",
          "name": "",
          "type": "address"
        }
      ],
      "stateMutability": "view",
      "type": "function"
    },
    {
      "inputs": [
        {
          "internalType": "address",
          "name": "nft",
          "type": "address"
        },
        {
          "internalType": "address",
          "name": "to",
          "type": "address"
        },
        {
          "internalType": "uint256",
          "name": "tokenId",
          "type": "uint256"
        },
        {
          "internalType": "uint256",
          "name": "amount",
          "type": "uint256"
        },
        {
          "internalType": "enum INFTBridge.NFTType",
          "name": "nftType",
          "type": "uint8"
        },
        {
          "internalType": "uint32",
          "name": "gas",
          "type": "uint32"
        }
      ],
      "name": "bridge",
      "outputs": [],
      "stateMutability": "payable",
      "type": "function"
    },
    {
      "inputs": [],
      "name": "exitGas",
      "outputs": [
        {
          "internalType": "uint32",
          "name": "",
          "type": "uint32"
        }
      ],
      "stateMutability": "view",
      "type": "function"
    },
    {
      "inputs": [],
      "name": "extraGasRelay",
      "outputs": [
        {
          "internalType": "uint256",
          "name": "",
          "type": "uint256"
        }
      ],
      "stateMutability": "view",
      "type": "function"
    },
    {
      "inputs": [
        {
          "internalType": "address",
          "name": "l1Nft",
          "type": "address"
        },
        {
          "internalType": "address",
          "name": "l2Nft",
          "type": "address"
        },
        {
          "internalType": "address",
          "name": "from",
          "type": "address"
        },
        {
          "internalType": "address",
          "name": "to",
          "type": "address"
        },
        {
          "internalType": "uint256",
          "name": "tokenId",
          "type": "uint256"
        },
        {
          "internalType": "uint256",
          "name": "amount",
          "type": "uint256"
        },
        {
          "internalType": "enum INFTBridge.NFTType",
          "name": "nftType",
          "type": "uint8"
        },
        {
          "internalType": "bytes",
          "name": "data",
          "type": "bytes"
        }
      ],
      "name": "finalize",
      "outputs": [],
      "stateMutability": "nonpayable",
      "type": "function"
    },
    {
      "inputs": [
        {
          "internalType": "bytes32",
          "name": "role",
          "type": "bytes32"
        }
      ],
      "name": "getRoleAdmin",
      "outputs": [
        {
          "internalType": "bytes32",
          "name": "",
          "type": "bytes32"
        }
      ],
      "stateMutability": "view",
      "type": "function"
    },
    {
      "inputs": [
        {
          "internalType": "bytes32",
          "name": "role",
          "type": "bytes32"
        },
        {
          "internalType": "uint256",
          "name": "index",
          "type": "uint256"
        }
      ],
      "name": "getRoleMember",
      "outputs": [
        {
          "internalType": "address",
          "name": "",
          "type": "address"
        }
      ],
      "stateMutability": "view",
      "type": "function"
    },
    {
      "inputs": [
        {
          "internalType": "bytes32",
          "name": "role",
          "type": "bytes32"
        }
      ],
      "name": "getRoleMemberCount",
      "outputs": [
        {
          "internalType": "uint256",
          "name": "",
          "type": "uint256"
        }
      ],
      "stateMutability": "view",
      "type": "function"
    },
    {
      "inputs": [
        {
          "internalType": "bytes32",
          "name": "role",
          "type": "bytes32"
        },
        {
          "internalType": "address",
          "name": "account",
          "type": "address"
        }
      ],
      "name": "grantRole",
      "outputs": [],
      "stateMutability": "nonpayable",
      "type": "function"
    },
    {
      "inputs": [
        {
          "internalType": "bytes32",
          "name": "role",
          "type": "bytes32"
        },
        {
          "internalType": "address",
          "name": "account",
          "type": "address"
        }
      ],
      "name": "hasRole",
      "outputs": [
        {
          "internalType": "bool",
          "name": "",
          "type": "bool"
        }
      ],
      "stateMutability": "view",
      "type": "function"
    },
    {
      "inputs": [],
      "name": "initialize",
      "outputs": [],
      "stateMutability": "nonpayable",
      "type": "function"
    },
    {
      "inputs": [
        {
          "internalType": "address",
          "name": "nft",
          "type": "address"
        },
        {
          "internalType": "enum INFTBridge.NFTType",
          "name": "nftType",
          "type": "uint8"
        }
      ],
      "name": "isBridgeCompliant",
      "outputs": [
        {
          "internalType": "bool",
          "name": "",
          "type": "bool"
        }
      ],
      "stateMutability": "view",
      "type": "function"
    },
    {
      "inputs": [],
      "name": "messenger",
      "outputs": [
        {
          "internalType": "address",
          "name": "",
          "type": "address"
        }
      ],
      "stateMutability": "view",
      "type": "function"
    },
    {
      "inputs": [
        {
          "internalType": "address",
          "name": "",
          "type": "address"
        }
      ],
      "name": "pairNFTInfo",
      "outputs": [
        {
          "internalType": "address",
          "name": "l1Nft",
          "type": "address"
        },
        {
          "internalType": "address",
          "name": "l2Nft",
          "type": "address"
        },
        {
          "internalType": "enum INFTBridge.NFTType",
          "name": "nftType",
          "type": "uint8"
        }
      ],
      "stateMutability": "view",
      "type": "function"
    },
    {
      "inputs": [],
      "name": "pause",
      "outputs": [],
      "stateMutability": "nonpayable",
      "type": "function"
    },
    {
      "inputs": [],
      "name": "paused",
      "outputs": [
        {
          "internalType": "bool",
          "name": "",
          "type": "bool"
        }
      ],
      "stateMutability": "view",
      "type": "function"
    },
    {
      "inputs": [
        {
          "internalType": "address",
          "name": "l1Nft",
          "type": "address"
        },
        {
          "internalType": "address",
          "name": "l2Nft",
          "type": "address"
        },
        {
          "internalType": "enum INFTBridge.NFTType",
          "name": "nftType",
          "type": "uint8"
        }
      ],
      "name": "registerNFTPair",
      "outputs": [],
      "stateMutability": "nonpayable",
      "type": "function"
    },
    {
      "inputs": [
        {
          "internalType": "bytes32",
          "name": "role",
          "type": "bytes32"
        },
        {
          "internalType": "address",
          "name": "account",
          "type": "address"
        }
      ],
      "name": "renounceRole",
      "outputs": [],
      "stateMutability": "nonpayable",
      "type": "function"
    },
    {
      "inputs": [
        {
          "internalType": "bytes32",
          "name": "role",
          "type": "bytes32"
        },
        {
          "internalType": "address",
          "name": "account",
          "type": "address"
        }
      ],
      "name": "revokeRole",
      "outputs": [],
      "stateMutability": "nonpayable",
      "type": "function"
    },
    {
      "inputs": [
        {
          "internalType": "bytes4",
          "name": "interfaceId",
          "type": "bytes4"
        }
      ],
      "name": "supportsInterface",
      "outputs": [
        {
          "internalType": "bool",
          "name": "",
          "type": "bool"
        }
      ],
      "stateMutability": "view",
      "type": "function"
    },
    {
      "inputs": [],
      "name": "unpause",
      "outputs": [],
      "stateMutability": "nonpayable",
      "type": "function"
    },
    {
      "inputs": [
        {
          "internalType": "uint32",
          "name": "_exitGas",
          "type": "uint32"
        }
      ],
      "name": "updateGas",
      "outputs": [],
      "stateMutability": "nonpayable",
      "type": "function"
    },
    {
      "inputs": [
        {
          "internalType": "address",
          "name": "_nftBridge",
          "type": "address"
        }
      ],
      "name": "updateNFTBridge",
      "outputs": [],
      "stateMutability": "nonpayable",
      "type": "function"
    }
  ],
  "bytecode": "0x60806040523480156200001157600080fd5b506200001c6200002c565b620000266200002c565b620000ee565b600054610100900460ff1615620000995760405162461bcd60e51b815260206004820152602760248201527f496e697469616c697a61626c653a20636f6e747261637420697320696e697469604482015266616c697a696e6760c81b606482015260840160405180910390fd5b60005460ff9081161015620000ec576000805460ff191660ff9081179091556040519081527f7f26b83ff96e1f2b6a682f133852f6798a09c465da95921460cefb38474024989060200160405180910390a15b565b61250e80620000fe6000396000f3fe60806040526004361061014b5760003560e01c806370ac3180116100b65780639010d07c1161006f5780639010d07c1461040257806391d14854146104225780639dc68a6414610442578063a217fddf14610455578063ca15c8731461046a578063d547741f1461048a57600080fd5b806370ac3180146103115780638129fc1c146103285780638456cb591461033d578063863081dd14610352578063884e2e8d146103af5780638e4934ca146103cf57600080fd5b80633cb747bf116101085780633cb747bf146102455780633f4ba83a146102835780633f5e044f146102985780634bcf4831146102b85780635c975abb146102d95780636aa483cc146102f157600080fd5b806301ffc9a714610150578063094c10901461018557806322de13e8146101a5578063248a9ca3146101c75780632f2ff15d1461020557806336568abe14610225575b600080fd5b34801561015c57600080fd5b5061017061016b366004611d76565b6104aa565b60405190151581526020015b60405180910390f35b34801561019157600080fd5b506101706101a0366004611dc9565b6104d5565b3480156101b157600080fd5b506101c56101c0366004611dfe565b610543565b005b3480156101d357600080fd5b506101f76101e2366004611e1b565b600090815260fa602052604090206001015490565b60405190815260200161017c565b34801561021157600080fd5b506101c5610220366004611e34565b6105ed565b34801561023157600080fd5b506101c5610240366004611e34565b610617565b34801561025157600080fd5b5060005461026b906201000090046001600160a01b031681565b6040516001600160a01b03909116815260200161017c565b34801561028f57600080fd5b506101c5610695565b3480156102a457600080fd5b506101c56102b3366004611ed3565b6106b6565b3480156102c457600080fd5b5061018c5461026b906001600160a01b031681565b3480156102e557600080fd5b5060965460ff16610170565b3480156102fd57600080fd5b506101c561030c366004611fc2565b610ae9565b34801561031d57600080fd5b506101f761018d5481565b34801561033457600080fd5b506101c5610c9b565b34801561034957600080fd5b506101c5610e13565b34801561035e57600080fd5b506103a061036d366004611dfe565b61018f60205260009081526040902080546001909101546001600160a01b0391821691811690600160a01b900460ff1683565b60405161017c93929190612041565b3480156103bb57600080fd5b506101c56103ca366004612082565b610e32565b3480156103db57600080fd5b5061018e546103ed9063ffffffff1681565b60405163ffffffff909116815260200161017c565b34801561040e57600080fd5b5061026b61041d36600461209d565b610ecf565b34801561042e57600080fd5b5061017061043d366004611e34565b610eef565b6101c56104503660046120bf565b610f1a565b34801561046157600080fd5b506101f7600081565b34801561047657600080fd5b506101f7610485366004611e1b565b611085565b34801561049657600080fd5b506101c56104a5366004611e34565b61109d565b60006001600160e01b03198216635a05180f60e01b14806104cf57506104cf826110c2565b92915050565b600060018260028111156104eb576104eb612009565b03610508576105018363808d85fd60e01b6110f7565b90506104cf565b600082600281111561051c5761051c612009565b03610532576105018363b0f4708d60e01b6110f7565b610501836303112fcb60e61b6110f7565b61055a6000805160206124b9833981519152611113565b6001600160a01b0381166105ca5760405162461bcd60e51b815260206004820152602c60248201527f4e46544272696467653a3a4e4654204272696467652063616e6e6f742062652060448201526b7a65726f206164647265737360a01b60648201526084015b60405180910390fd5b61018c80546001600160a01b0319166001600160a01b0392909216919091179055565b600082815260fa602052604090206001015461060881611113565b610612838361111d565b505050565b6001600160a01b03811633146106875760405162461bcd60e51b815260206004820152602f60248201527f416363657373436f6e74726f6c3a2063616e206f6e6c792072656e6f756e636560448201526e103937b632b9903337b91039b2b63360891b60648201526084016105c1565b6106918282611140565b5050565b6106ac6000805160206124b9833981519152611113565b6106b4611163565b565b61018c546001600160a01b03166106dc6000546001600160a01b03620100009091041690565b6001600160a01b0316336001600160a01b0316146107535760405162461bcd60e51b815260206004820152602e60248201527f4f564d5f58434841494e3a206d657373656e67657220636f6e7472616374207560448201526d1b985d5d1a195b9d1a58d85d195960921b60648201526084016105c1565b6000546001600160a01b0380831691620100009004166001600160a01b0316636e296e456040518163ffffffff1660e01b8152600401602060405180830381865afa1580156107a6573d6000803e3d6000fd5b505050506040513d601f19601f820116820180604052508101906107ca9190612129565b6001600160a01b0316146108395760405162461bcd60e51b815260206004820152603060248201527f4f564d5f58434841494e3a2077726f6e672073656e646572206f662063726f7360448201526f732d646f6d61696e206d65737361676560801b60648201526084016105c1565b61084389846104d5565b801561086f57506001600160a01b03898116600090815261018f60205260409020600101548116908916145b15610a0457600183600281111561088857610888612009565b036108f4576040516394d008ef60e01b81526001600160a01b038a16906394d008ef906108bd90899089908790600401612196565b600060405180830381600087803b1580156108d757600080fd5b505af11580156108eb573d6000803e3d6000fd5b505050506109a2565b600083600281111561090857610908612009565b0361093f5760405163731133e960e01b81526001600160a01b038a169063731133e9906108bd9089908990899088906004016121c6565b6040516394d008ef60e01b81526001600160a01b038a16906394d008ef9061096f90899088908790600401612196565b600060405180830381600087803b15801561098957600080fd5b505af115801561099d573d6000803e3d6000fd5b505050505b866001600160a01b0316886001600160a01b03168a6001600160a01b03167f83d2d3b030065af8582313b1cabb5b5b8e919735818ceb8b9b5e28cac78ad99e89898989896040516109f79594939291906121fd565b60405180910390a4610ade565b61018c5461018e54604051610a80926001600160a01b03169163ffffffff1690633f5e044f60e01b90610a49908e908e908d908f908e908e908e908e9060240161223a565b60408051601f198184030181529190526020810180516001600160e01b03166001600160e01b0319909316929092179091526111b5565b866001600160a01b0316886001600160a01b03168a6001600160a01b03167f6d0b80688176beb8ea74eeea79075d5151a987be37e67aa21775c6a06eee05e98989898989604051610ad59594939291906121fd565b60405180910390a45b505050505050505050565b610b006000805160206124b9833981519152611113565b610b0a83826104d5565b610b565760405162461bcd60e51b815260206004820181905260248201527f4e46544272696467653a3a4e4654206973206e6f742062726964676561626c6560448201526064016105c1565b6001600160a01b03808416600090815261018f60205260409020600181015490911615610bda5760405162461bcd60e51b815260206004820152602c60248201527f4e46544272696467653a3a4c32204e4654206164647265737320616c7265616460448201526b1e481c9959da5cdd195c995960a21b60648201526084016105c1565b6040518060600160405280856001600160a01b03168152602001846001600160a01b03168152602001836002811115610c1557610c15612009565b90526001600160a01b03808616600090815261018f6020908152604091829020845181549085166001600160a01b0319918216178255918501516001820180549190951692811683178555928501519093909290916001600160a81b031990911617600160a01b836002811115610c8e57610c8e612009565b0217905550505050505050565b600054610100900460ff1615808015610cbb5750600054600160ff909116105b80610cd55750303b158015610cd5575060005460ff166001145b610d385760405162461bcd60e51b815260206004820152602e60248201527f496e697469616c697a61626c653a20636f6e747261637420697320616c72656160448201526d191e481a5b9a5d1a585b1a5e995960921b60648201526084016105c1565b6000805460ff191660011790558015610d5b576000805461ff0019166101001790555b610d78730fc742332ae6d447d6619d93985aa288b81cbb0c61122d565b61018c80546001600160a01b031916730e1455d86920b399369a7c871be8d26f585af44017905561018e805463ffffffff191662155cc0179055610dba61127e565b610dc26112ad565b610dca6112dc565b8015610e10576000805461ff0019169055604051600181527f7f26b83ff96e1f2b6a682f133852f6798a09c465da95921460cefb38474024989060200160405180910390a15b50565b610e2a6000805160206124b9833981519152611113565b6106b46113ac565b610e496000805160206124b9833981519152611113565b60008163ffffffff1611610eb25760405162461bcd60e51b815260206004820152602a60248201527f4e46544272696467653a3a4578697420476173206d75737420626520677265616044820152690746572207468616e20360b41b60648201526084016105c1565b61018e805463ffffffff191663ffffffff92909216919091179055565b600082815261012c60205260408120610ee890836113e9565b9392505050565b600091825260fa602090815260408084206001600160a01b0393909316845291905290205460ff1690565b600260325403610f6c5760405162461bcd60e51b815260206004820152601f60248201527f5265656e7472616e637947756172643a207265656e7472616e742063616c6c0060448201526064016105c1565b6002603255610f796113f5565b60606000836002811115610f8f57610f8f612009565b036110105760405163fb95ac2d60e01b815260048101869052602481018590526001600160a01b0388169063fb95ac2d906044015b600060405180830381865afa158015610fe1573d6000803e3d6000fd5b505050506040513d6000823e601f3d908101601f19168201604052611009919081019061229f565b9050611067565b600183600281111561102457611024612009565b0361105657604051639b9284f960e01b8152600481018690526001600160a01b03881690639b9284f990602401610fc4565b506040805160208101909152600081525b611077873388888887898861143b565b505060016032555050505050565b600081815261012c602052604081206104cf9061175c565b600082815260fa60205260409020600101546110b881611113565b6106128383611140565b60006001600160e01b03198216637965db0b60e01b14806104cf57506301ffc9a760e01b6001600160e01b03198316146104cf565b600061110283611766565b8015610ee85750610ee88383611799565b610e108133611822565b6111278282611886565b600082815261012c60205260409020610612908261190c565b61114a8282611921565b600082815261012c602052604090206106129082611988565b61116b61199d565b6096805460ff191690557f5db9ee0a495bf2e6ff9c91a7834c1ba4fdd244a5e8aa4e537bd38aeae4b073aa335b6040516001600160a01b03909116815260200160405180910390a1565b6000546201000090046001600160a01b03166001600160a01b0316633dbb202b8483856040518463ffffffff1660e01b81526004016111f69392919061230d565b600060405180830381600087803b15801561121057600080fd5b505af1158015611224573d6000803e3d6000fd5b50505050505050565b600054610100900460ff166112545760405162461bcd60e51b81526004016105c190612347565b600080546001600160a01b03909216620100000262010000600160b01b0319909216919091179055565b600054610100900460ff166112a55760405162461bcd60e51b81526004016105c190612347565b6106b46119e6565b600054610100900460ff166112d45760405162461bcd60e51b81526004016105c190612347565b6106b4611a19565b600054610100900460ff166113035760405162461bcd60e51b81526004016105c190612347565b61130b611a47565b61131660003361111d565b61132e6000805160206124b98339815191523361111d565b6113587f364d3d7565c7a8300c96fd53e065d19b65848d7b23b3191adcd55621c744223c3361111d565b6113827f9f2df0fed2c77648de5860a4cc508cd0818c85b8b8a1ab4ceeef8d981c8956a63361111d565b6106b47ff18b77e1ef402111bacb54bd5e03494cbdba92fbd1bd3bbcc1ce77e69b42ea6c3361111d565b6113b46113f5565b6096805460ff191660011790557f62e78cea01bee320cd4e420270b5ea74000d11b0c9f74754ebdbfc544b05a2586111983390565b6000610ee88383611a6e565b60965460ff16156106b45760405162461bcd60e51b815260206004820152601060248201526f14185d5cd8589b194e881c185d5cd95960821b60448201526064016105c1565b6001600160a01b03808916600090815261018f6020526040902060018101549091166114bf5760405162461bcd60e51b815260206004820152602d60248201527f4e46544272696467653a3a4e4654206973206e6f7420636f6e6669677572656460448201526c20666f72206272696467696e6760981b60648201526084016105c1565b886001600160a01b031663cd5965836040518163ffffffff1660e01b81526004016020604051808303816000875af11580156114ff573d6000803e3d6000fd5b505050506040513d601f19601f820116820180604052508101906115239190612129565b60018201546001600160a01b039081169116146115965760405162461bcd60e51b815260206004820152602b60248201527f4e46544272696467653a3a4c32204e465420636f6e747261637420616464726560448201526a0e6e640dad2e6dac2e8c6d60ab1b60648201526084016105c1565b60008360028111156115aa576115aa612009565b0361161c57604051637a94c56560e11b815233600482015260248101879052604481018690526001600160a01b038a169063f5298aca906064015b600060405180830381600087803b1580156115ff57600080fd5b505af1158015611613573d6000803e3d6000fd5b505050506116c3565b600183600281111561163057611630612009565b0361166257604051630852cd8d60e31b8152600481018790526001600160a01b038a16906342966c68906024016115e5565b604051632770a7eb60e21b8152336004820152602481018690526001600160a01b038a1690639dc29fac90604401600060405180830381600087803b1580156116aa57600080fd5b505af11580156116be573d6000803e3d6000fd5b505050505b61018c548154600183015460405161170c936001600160a01b03908116938993633f5e044f60e01b93610a499392831692909116908f908f908f908f908e908e9060240161223a565b600181015481546040516001600160a01b03808c169381169216907f5bb7810a4aee7990cc486a7bc8f89a6e7e0d9f879f9f116f74886bba7713874b90610ad5908c908c908c908b908b906121fd565b60006104cf825490565b6000611779826301ffc9a760e01b611799565b80156104cf5750611792826001600160e01b0319611799565b1592915050565b604080516001600160e01b03198316602480830191909152825180830390910181526044909101909152602080820180516001600160e01b03166301ffc9a760e01b178152825160009392849283928392918391908a617530fa92503d9150600051905082801561180b575060208210155b80156118175750600081115b979650505050505050565b61182c8282610eef565b61069157611844816001600160a01b03166014611a98565b61184f836020611a98565b604051602001611860929190612392565b60408051601f198184030181529082905262461bcd60e51b82526105c191600401612407565b6118908282610eef565b61069157600082815260fa602090815260408083206001600160a01b03851684529091529020805460ff191660011790556118c83390565b6001600160a01b0316816001600160a01b0316837f2f8788117e7eff1d82e926ec794901d17c78024a50270940304540a733656f0d60405160405180910390a45050565b6000610ee8836001600160a01b038416611c34565b61192b8282610eef565b1561069157600082815260fa602090815260408083206001600160a01b0385168085529252808320805460ff1916905551339285917ff6391f5c32d9c69d2a47ea670b442974b53935d1edc7fd64eb21e047a839171b9190a45050565b6000610ee8836001600160a01b038416611c83565b60965460ff166106b45760405162461bcd60e51b815260206004820152601460248201527314185d5cd8589b194e881b9bdd081c185d5cd95960621b60448201526064016105c1565b600054610100900460ff16611a0d5760405162461bcd60e51b81526004016105c190612347565b6096805460ff19169055565b600054610100900460ff16611a405760405162461bcd60e51b81526004016105c190612347565b6001603255565b600054610100900460ff166106b45760405162461bcd60e51b81526004016105c190612347565b6000826000018281548110611a8557611a8561241a565b9060005260206000200154905092915050565b60606000611aa7836002612446565b611ab2906002612465565b67ffffffffffffffff811115611aca57611aca611e64565b6040519080825280601f01601f191660200182016040528015611af4576020820181803683370190505b509050600360fc1b81600081518110611b0f57611b0f61241a565b60200101906001600160f81b031916908160001a905350600f60fb1b81600181518110611b3e57611b3e61241a565b60200101906001600160f81b031916908160001a9053506000611b62846002612446565b611b6d906001612465565b90505b6001811115611be5576f181899199a1a9b1b9c1cb0b131b232b360811b85600f1660108110611ba157611ba161241a565b1a60f81b828281518110611bb757611bb761241a565b60200101906001600160f81b031916908160001a90535060049490941c93611bde81612478565b9050611b70565b508315610ee85760405162461bcd60e51b815260206004820181905260248201527f537472696e67733a20686578206c656e67746820696e73756666696369656e7460448201526064016105c1565b6000818152600183016020526040812054611c7b575081546001818101845560008481526020808220909301849055845484825282860190935260409020919091556104cf565b5060006104cf565b60008181526001830160205260408120548015611d6c576000611ca760018361248f565b8554909150600090611cbb9060019061248f565b9050818114611d20576000866000018281548110611cdb57611cdb61241a565b9060005260206000200154905080876000018481548110611cfe57611cfe61241a565b6000918252602080832090910192909255918252600188019052604090208390555b8554869080611d3157611d316124a2565b6001900381819060005260206000200160009055905585600101600086815260200190815260200160002060009055600193505050506104cf565b60009150506104cf565b600060208284031215611d8857600080fd5b81356001600160e01b031981168114610ee857600080fd5b6001600160a01b0381168114610e1057600080fd5b803560038110611dc457600080fd5b919050565b60008060408385031215611ddc57600080fd5b8235611de781611da0565b9150611df560208401611db5565b90509250929050565b600060208284031215611e1057600080fd5b8135610ee881611da0565b600060208284031215611e2d57600080fd5b5035919050565b60008060408385031215611e4757600080fd5b823591506020830135611e5981611da0565b809150509250929050565b634e487b7160e01b600052604160045260246000fd5b604051601f8201601f1916810167ffffffffffffffff81118282101715611ea357611ea3611e64565b604052919050565b600067ffffffffffffffff821115611ec557611ec5611e64565b50601f01601f191660200190565b600080600080600080600080610100898b031215611ef057600080fd5b8835611efb81611da0565b97506020890135611f0b81611da0565b96506040890135611f1b81611da0565b95506060890135611f2b81611da0565b94506080890135935060a08901359250611f4760c08a01611db5565b915060e089013567ffffffffffffffff811115611f6357600080fd5b8901601f81018b13611f7457600080fd5b8035611f87611f8282611eab565b611e7a565b8181528c6020838501011115611f9c57600080fd5b816020840160208301376000602083830101528093505050509295985092959890939650565b600080600060608486031215611fd757600080fd5b8335611fe281611da0565b92506020840135611ff281611da0565b915061200060408501611db5565b90509250925092565b634e487b7160e01b600052602160045260246000fd5b6003811061203d57634e487b7160e01b600052602160045260246000fd5b9052565b6001600160a01b0384811682528316602082015260608101612066604083018461201f565b949350505050565b803563ffffffff81168114611dc457600080fd5b60006020828403121561209457600080fd5b610ee88261206e565b600080604083850312156120b057600080fd5b50508035926020909101359150565b60008060008060008060c087890312156120d857600080fd5b86356120e381611da0565b955060208701356120f381611da0565b9450604087013593506060870135925061210f60808801611db5565b915061211d60a0880161206e565b90509295509295509295565b60006020828403121561213b57600080fd5b8151610ee881611da0565b60005b83811015612161578181015183820152602001612149565b50506000910152565b60008151808452612182816020860160208601612146565b601f01601f19169290920160200192915050565b60018060a01b03841681528260208201526060604082015260006121bd606083018461216a565b95945050505050565b60018060a01b03851681528360208201528260408201526080606082015260006121f3608083018461216a565b9695505050505050565b6001600160a01b03861681526020810185905260408101849052612224606082018461201f565b60a06080820152600061181760a083018461216a565b6001600160a01b03898116825288811660208301528781166040830152861660608201526080810185905260a08101849052600061010061227e60c084018661201f565b8060e08401526122908184018561216a565b9b9a5050505050505050505050565b6000602082840312156122b157600080fd5b815167ffffffffffffffff8111156122c857600080fd5b8201601f810184136122d957600080fd5b80516122e7611f8282611eab565b8181528560208385010111156122fc57600080fd5b6121bd826020830160208601612146565b6001600160a01b03841681526060602082018190526000906123319083018561216a565b905063ffffffff83166040830152949350505050565b6020808252602b908201527f496e697469616c697a61626c653a20636f6e7472616374206973206e6f74206960408201526a6e697469616c697a696e6760a81b606082015260800190565b7f416363657373436f6e74726f6c3a206163636f756e74200000000000000000008152600083516123ca816017850160208801612146565b7001034b99036b4b9b9b4b733903937b6329607d1b60179184019182015283516123fb816028840160208801612146565b01602801949350505050565b602081526000610ee8602083018461216a565b634e487b7160e01b600052603260045260246000fd5b634e487b7160e01b600052601160045260246000fd5b600081600019048311821515161561246057612460612430565b500290565b808201808211156104cf576104cf612430565b60008161248757612487612430565b506000190190565b818103818111156104cf576104cf612430565b634e487b7160e01b600052603160045260246000fdfea49807205ce4d355092ef5a8a18f56e8913cf4a201fbe287825b095693c21775a26469706673582212208154e86ba7e0773ae35cf431b7dbb93b55a454b7a26f9f4933254c12a097e67764736f6c63430008100033",
  "linkReferences": {},
  "deployedLinkReferences": {}
}