{
  "_format": "hh-sol-artifact-1",
  "contractName": "HealerHayley",
  "sourceName": "contracts/npc/HealerHayley/HealerHayley.sol",
  "abi": [
    {
      "inputs": [],
      "stateMutability": "nonpayable",
      "type": "constructor"
    },
    {
      "anonymous": false,
      "inputs": [
        {
          "indexed": true,
          "internalType": "address",
          "name": "from",
          "type": "address"
        },
        {
          "indexed": false,
          "internalType": "uint256",
          "name": "tokenId",
          "type": "uint256"
        },
        {
          "indexed": false,
          "internalType": "enum HealerHayley.Reason",
          "name": "reason",
          "type": "uint8"
        },
        {
          "indexed": false,
          "internalType": "uint256",
          "name": "value",
          "type": "uint256"
        }
      ],
      "name": "Healed",
      "type": "event"
    },
    {
      "anonymous": false,
      "inputs": [
        {
          "indexed": false,
          "internalType": "uint8",
          "name": "version",
          "type": "uint8"
        }
      ],
      "name": "Initialized",
      "type": "event"
    },
    {
      "anonymous": false,
      "inputs": [
        {
          "indexed": false,
          "internalType": "address",
          "name": "account",
          "type": "address"
        }
      ],
      "name": "Paused",
      "type": "event"
    },
    {
      "anonymous": false,
      "inputs": [
        {
          "indexed": true,
          "internalType": "bytes32",
          "name": "role",
          "type": "bytes32"
        },
        {
          "indexed": true,
          "internalType": "bytes32",
          "name": "previousAdminRole",
          "type": "bytes32"
        },
        {
          "indexed": true,
          "internalType": "bytes32",
          "name": "newAdminRole",
          "type": "bytes32"
        }
      ],
      "name": "RoleAdminChanged",
      "type": "event"
    },
    {
      "anonymous": false,
      "inputs": [
        {
          "indexed": true,
          "internalType": "bytes32",
          "name": "role",
          "type": "bytes32"
        },
        {
          "indexed": true,
          "internalType": "address",
          "name": "account",
          "type": "address"
        },
        {
          "indexed": true,
          "internalType": "address",
          "name": "sender",
          "type": "address"
        }
      ],
      "name": "RoleGranted",
      "type": "event"
    },
    {
      "anonymous": false,
      "inputs": [
        {
          "indexed": true,
          "internalType": "bytes32",
          "name": "role",
          "type": "bytes32"
        },
        {
          "indexed": true,
          "internalType": "address",
          "name": "account",
          "type": "address"
        },
        {
          "indexed": true,
          "internalType": "address",
          "name": "sender",
          "type": "address"
        }
      ],
      "name": "RoleRevoked",
      "type": "event"
    },
    {
      "anonymous": false,
      "inputs": [
        {
          "indexed": false,
          "internalType": "address",
          "name": "account",
          "type": "address"
        }
      ],
      "name": "Unpaused",
      "type": "event"
    },
    {
      "inputs": [],
      "name": "ADMIN_ROLE",
      "outputs": [
        {
          "internalType": "bytes32",
          "name": "",
          "type": "bytes32"
        }
      ],
      "stateMutability": "view",
      "type": "function"
    },
    {
      "inputs": [],
      "name": "CONTRACT_ROLE",
      "outputs": [
        {
          "internalType": "bytes32",
          "name": "",
          "type": "bytes32"
        }
      ],
      "stateMutability": "view",
      "type": "function"
    },
    {
      "inputs": [],
      "name": "DEFAULT_ADMIN_ROLE",
      "outputs": [
        {
          "internalType": "bytes32",
          "name": "",
          "type": "bytes32"
        }
      ],
      "stateMutability": "view",
      "type": "function"
    },
    {
      "inputs": [
        {
          "internalType": "bytes32",
          "name": "role",
          "type": "bytes32"
        }
      ],
      "name": "getRoleAdmin",
      "outputs": [
        {
          "internalType": "bytes32",
          "name": "",
          "type": "bytes32"
        }
      ],
      "stateMutability": "view",
      "type": "function"
    },
    {
      "inputs": [
        {
          "internalType": "bytes32",
          "name": "role",
          "type": "bytes32"
        },
        {
          "internalType": "uint256",
          "name": "index",
          "type": "uint256"
        }
      ],
      "name": "getRoleMember",
      "outputs": [
        {
          "internalType": "address",
          "name": "",
          "type": "address"
        }
      ],
      "stateMutability": "view",
      "type": "function"
    },
    {
      "inputs": [
        {
          "internalType": "bytes32",
          "name": "role",
          "type": "bytes32"
        }
      ],
      "name": "getRoleMemberCount",
      "outputs": [
        {
          "internalType": "uint256",
          "name": "",
          "type": "uint256"
        }
      ],
      "stateMutability": "view",
      "type": "function"
    },
    {
      "inputs": [
        {
          "internalType": "bytes32",
          "name": "role",
          "type": "bytes32"
        },
        {
          "internalType": "address",
          "name": "account",
          "type": "address"
        }
      ],
      "name": "grantRole",
      "outputs": [],
      "stateMutability": "nonpayable",
      "type": "function"
    },
    {
      "inputs": [
        {
          "internalType": "bytes32",
          "name": "role",
          "type": "bytes32"
        },
        {
          "internalType": "address",
          "name": "account",
          "type": "address"
        }
      ],
      "name": "hasRole",
      "outputs": [
        {
          "internalType": "bool",
          "name": "",
          "type": "bool"
        }
      ],
      "stateMutability": "view",
      "type": "function"
    },
    {
      "inputs": [
        {
          "internalType": "uint256[]",
          "name": "tokenIds",
          "type": "uint256[]"
        }
      ],
      "name": "healSize",
      "outputs": [],
      "stateMutability": "payable",
      "type": "function"
    },
    {
      "inputs": [],
      "name": "initialize",
      "outputs": [],
      "stateMutability": "nonpayable",
      "type": "function"
    },
    {
      "inputs": [],
      "name": "pause",
      "outputs": [],
      "stateMutability": "nonpayable",
      "type": "function"
    },
    {
      "inputs": [],
      "name": "paused",
      "outputs": [
        {
          "internalType": "bool",
          "name": "",
          "type": "bool"
        }
      ],
      "stateMutability": "view",
      "type": "function"
    },
    {
      "inputs": [
        {
          "internalType": "enum HealerHayley.Reason",
          "name": "reason",
          "type": "uint8"
        }
      ],
      "name": "remainingAffected",
      "outputs": [
        {
          "internalType": "uint256[]",
          "name": "",
          "type": "uint256[]"
        },
        {
          "internalType": "uint256[]",
          "name": "",
          "type": "uint256[]"
        }
      ],
      "stateMutability": "view",
      "type": "function"
    },
    {
      "inputs": [
        {
          "internalType": "bytes32",
          "name": "role",
          "type": "bytes32"
        },
        {
          "internalType": "address",
          "name": "account",
          "type": "address"
        }
      ],
      "name": "renounceRole",
      "outputs": [],
      "stateMutability": "nonpayable",
      "type": "function"
    },
    {
      "inputs": [
        {
          "internalType": "bytes32",
          "name": "role",
          "type": "bytes32"
        },
        {
          "internalType": "address",
          "name": "account",
          "type": "address"
        }
      ],
      "name": "revokeRole",
      "outputs": [],
      "stateMutability": "nonpayable",
      "type": "function"
    },
    {
      "inputs": [
        {
          "internalType": "enum HealerHayley.Reason",
          "name": "reason",
          "type": "uint8"
        },
        {
          "internalType": "uint256[]",
          "name": "affected",
          "type": "uint256[]"
        }
      ],
      "name": "setAffected",
      "outputs": [],
      "stateMutability": "nonpayable",
      "type": "function"
    },
    {
      "inputs": [
        {
          "internalType": "bytes4",
          "name": "interfaceId",
          "type": "bytes4"
        }
      ],
      "name": "supportsInterface",
      "outputs": [
        {
          "internalType": "bool",
          "name": "",
          "type": "bool"
        }
      ],
      "stateMutability": "view",
      "type": "function"
    },
    {
      "inputs": [],
      "name": "unpause",
      "outputs": [],
      "stateMutability": "nonpayable",
      "type": "function"
    }
  ],
  "bytecode": "0x608060405234801561001057600080fd5b5061001961001e565b6100de565b600054610100900460ff161561008a5760405162461bcd60e51b815260206004820152602760248201527f496e697469616c697a61626c653a20636f6e747261637420697320696e697469604482015266616c697a696e6760c81b606482015260840160405180910390fd5b60005460ff90811610156100dc576000805460ff191660ff9081179091556040519081527f7f26b83ff96e1f2b6a682f133852f6798a09c465da95921460cefb38474024989060200160405180910390a15b565b6119db806100ed6000396000f3fe6080604052600436106101095760003560e01c80638129fc1c11610095578063a217fddf11610064578063a217fddf146102db578063ca15c873146102f0578063d547741f14610310578063e170653b14610330578063fff171c31461035e57600080fd5b80638129fc1c146102595780638456cb591461026e5780639010d07c1461028357806391d14854146102bb57600080fd5b80632f2ff15d116100dc5780632f2ff15d146101ca57806336568abe146101ea5780633f4ba83a1461020a5780635c975abb1461021f57806375b238fc1461023757600080fd5b806301ffc9a71461010e57806303fe46ab146101435780632042c98614610185578063248a9ca31461019a575b600080fd5b34801561011a57600080fd5b5061012e61012936600461148c565b61037e565b60405190151581526020015b60405180910390f35b34801561014f57600080fd5b506101777f364d3d7565c7a8300c96fd53e065d19b65848d7b23b3191adcd55621c744223c81565b60405190815260200161013a565b610198610193366004611567565b6103a9565b005b3480156101a657600080fd5b506101776101b53660046115a4565b60009081526097602052604090206001015490565b3480156101d657600080fd5b506101986101e53660046115bd565b61074f565b3480156101f657600080fd5b506101986102053660046115bd565b610779565b34801561021657600080fd5b506101986107f7565b34801561022b57600080fd5b5060335460ff1661012e565b34801561024357600080fd5b5061017760008051602061198683398151915281565b34801561026557600080fd5b5061019861081a565b34801561027a57600080fd5b506101986109db565b34801561028f57600080fd5b506102a361029e3660046115f9565b6109fb565b6040516001600160a01b03909116815260200161013a565b3480156102c757600080fd5b5061012e6102d63660046115bd565b610a1a565b3480156102e757600080fd5b50610177600081565b3480156102fc57600080fd5b5061017761030b3660046115a4565b610a45565b34801561031c57600080fd5b5061019861032b3660046115bd565b610a5c565b34801561033c57600080fd5b5061035061034b36600461162f565b610a81565b60405161013a929190611685565b34801561036a57600080fd5b506101986103793660046116b3565b610adc565b60006001600160e01b03198216635a05180f60e01b14806103a357506103a382610b47565b92915050565b600f815111156104145760405162461bcd60e51b815260206004820152602b60248201527f4865616c65724861796c65793a3a4d6178696d756d2031352045766f7320706560448201526a1c881cda5e99481a19585b60aa1b60648201526084015b60405180910390fd5b61041c610b7c565b61015e546040805163604a6fa960e01b815290516000926001600160a01b03169163604a6fa991600480830192602092919082900301818787803b15801561046357600080fd5b505af1158015610477573d6000803e3d6000fd5b505050506040513d601f19601f8201168201806040525081019061049b9190611701565b905060006104ad82612710600f610cbc565b905060005b8351811015610749576105198482815181106104d0576104d061171a565b602002602001015161016160008060008111156104ef576104ef611730565b80156104fd576104fd611730565b8152602001908152602001600020610d6390919063ffffffff16565b61055a5760405162461bcd60e51b8152602060048201526012602482015271115d9bc8185b1c9958591e481a19585b195960721b604482015260640161040b565b600060158383815181106105705761057061171a565b6020026020010151610582919061175c565b61015f5486519192506001600160a01b03169063fd5eea4e908790859081106105ad576105ad61171a565b6020026020010151600e846040518463ffffffff1660e01b81526004016105e7939291909283526020830191909152604082015260600190565b600060405180830381600087803b15801561060157600080fd5b505af1158015610615573d6000803e3d6000fd5b5050505061067785838151811061062e5761062e61171a565b6020026020010151610161600080600081111561064d5761064d611730565b801561065b5761065b611730565b8152602001908152602001600020610d7b90919063ffffffff16565b506106d685838151811061068d5761068d61171a565b602002602001015161016260008060008111156106ac576106ac611730565b80156106ba576106ba611730565b8152602001908152602001600020610d8790919063ffffffff16565b50336001600160a01b03167fc5d9e7408d5fa69e1dd194f9235741699524e90e6c8eae0b2b84e5c6890e98b48684815181106107145761071461171a565b602002602001015160008460405161072e93929190611770565b60405180910390a25080610741816117bc565b9150506104b2565b50505050565b60008281526097602052604090206001015461076a81610d93565b6107748383610d9d565b505050565b6001600160a01b03811633146107e95760405162461bcd60e51b815260206004820152602f60248201527f416363657373436f6e74726f6c3a2063616e206f6e6c792072656e6f756e636560448201526e103937b632b9903337b91039b2b63360891b606482015260840161040b565b6107f38282610dbf565b5050565b60008051602061198683398151915261080f81610d93565b610817610de1565b50565b600054610100900460ff161580801561083a5750600054600160ff909116105b806108545750303b158015610854575060005460ff166001145b6108b75760405162461bcd60e51b815260206004820152602e60248201527f496e697469616c697a61626c653a20636f6e747261637420697320616c72656160448201526d191e481a5b9a5d1a585b1a5e995960921b606482015260840161040b565b6000805460ff1916600117905580156108da576000805461ff0019166101001790555b6108e2610e33565b6108ea610e64565b6108f5600033610d9d565b61090d60008051602061198683398151915233610d9d565b6109377f364d3d7565c7a8300c96fd53e065d19b65848d7b23b3191adcd55621c744223c33610d9d565b61015d80546001600160a01b03199081166020602160991b011790915561015e8054821673680e176b2bbdb2336063d0c82961bdb7a52cf13c17905561015f8054909116733e9694a37846c864c67253af6f5d1f534ff3bf461790558015610817576000805461ff0019169055604051600181527f7f26b83ff96e1f2b6a682f133852f6798a09c465da95921460cefb38474024989060200160405180910390a150565b6000805160206119868339815191526109f381610d93565b610817610e8b565b600082815260c960205260408120610a139083610ec8565b9392505050565b60009182526097602090815260408084206001600160a01b0393909316845291905290205460ff1690565b600081815260c9602052604081206103a390610ed4565b600082815260976020526040902060010154610a7781610d93565b6107748383610dbf565b606080610abc6101616000858015610a9b57610a9b611730565b8015610aa957610aa9611730565b8152602001908152602001600020610ede565b610ad36101626000868015610a9b57610a9b611730565b91509150915091565b600080516020611986833981519152610af481610d93565b60005b825181101561074957610b34838281518110610b1557610b1561171a565b602002602001015161016160008760008111156106ac576106ac611730565b5080610b3f816117bc565b915050610af7565b60006001600160e01b03198216637965db0b60e01b14806103a357506301ffc9a760e01b6001600160e01b03198316146103a3565b61015d5460408051637126fe6f60e11b815290516000926001600160a01b03169163e24dfcde916004808301926020929190829003018186803b158015610bc257600080fd5b505afa158015610bd6573d6000803e3d6000fd5b505050506040513d601f19601f82011682018060405250810190610bfa9190611701565b9050803414610c4b5760405162461bcd60e51b815260206004820152601760248201527f496e73756666696369656e7420547572696e6720466565000000000000000000604482015260640161040b565b61015d5461015e54604051631fb1244f60e31b815234600482018190526001600160a01b039283166024830152919092169163fd89227891906044016000604051808303818588803b158015610ca057600080fd5b505af1158015610cb4573d6000803e3d6000fd5b505050505050565b60608167ffffffffffffffff811115610cd757610cd76114b6565b604051908082528060200260200182016040528015610d00578160200160208202803683370190505b5090508360005b83811015610d5a576000610d1b868461175c565b9050610d2786846117d7565b925080848381518110610d3c57610d3c61171a565b60209081029190910101525080610d52816117bc565b915050610d07565b50509392505050565b60008181526001830160205260408120541515610a13565b6000610a138383610eeb565b6000610a138383610fde565b610817813361102d565b610da78282611091565b600082815260c9602052604090206107749082611117565b610dc9828261112c565b600082815260c9602052604090206107749082611193565b610de96111a8565b6033805460ff191690557f5db9ee0a495bf2e6ff9c91a7834c1ba4fdd244a5e8aa4e537bd38aeae4b073aa335b6040516001600160a01b03909116815260200160405180910390a1565b600054610100900460ff16610e5a5760405162461bcd60e51b815260040161040b906117eb565b610e626111f1565b565b600054610100900460ff16610e625760405162461bcd60e51b815260040161040b906117eb565b610e93611224565b6033805460ff191660011790557f62e78cea01bee320cd4e420270b5ea74000d11b0c9f74754ebdbfc544b05a258610e163390565b6000610a13838361126a565b60006103a3825490565b60606000610a1383611294565b60008181526001830160205260408120548015610fd4576000610f0f600183611836565b8554909150600090610f2390600190611836565b9050818114610f88576000866000018281548110610f4357610f4361171a565b9060005260206000200154905080876000018481548110610f6657610f6661171a565b6000918252602080832090910192909255918252600188019052604090208390555b8554869080610f9957610f9961184d565b6001900381819060005260206000200160009055905585600101600086815260200190815260200160002060009055600193505050506103a3565b60009150506103a3565b6000818152600183016020526040812054611025575081546001818101845560008481526020808220909301849055845484825282860190935260409020919091556103a3565b5060006103a3565b6110378282610a1a565b6107f35761104f816001600160a01b031660146112f0565b61105a8360206112f0565b60405160200161106b92919061188f565b60408051601f198184030181529082905262461bcd60e51b825261040b91600401611904565b61109b8282610a1a565b6107f35760008281526097602090815260408083206001600160a01b03851684529091529020805460ff191660011790556110d33390565b6001600160a01b0316816001600160a01b0316837f2f8788117e7eff1d82e926ec794901d17c78024a50270940304540a733656f0d60405160405180910390a45050565b6000610a13836001600160a01b038416610fde565b6111368282610a1a565b156107f35760008281526097602090815260408083206001600160a01b0385168085529252808320805460ff1916905551339285917ff6391f5c32d9c69d2a47ea670b442974b53935d1edc7fd64eb21e047a839171b9190a45050565b6000610a13836001600160a01b038416610eeb565b60335460ff16610e625760405162461bcd60e51b815260206004820152601460248201527314185d5cd8589b194e881b9bdd081c185d5cd95960621b604482015260640161040b565b600054610100900460ff166112185760405162461bcd60e51b815260040161040b906117eb565b6033805460ff19169055565b60335460ff1615610e625760405162461bcd60e51b815260206004820152601060248201526f14185d5cd8589b194e881c185d5cd95960821b604482015260640161040b565b60008260000182815481106112815761128161171a565b9060005260206000200154905092915050565b6060816000018054806020026020016040519081016040528092919081815260200182805480156112e457602002820191906000526020600020905b8154815260200190600101908083116112d0575b50505050509050919050565b606060006112ff836002611937565b61130a906002611956565b67ffffffffffffffff811115611322576113226114b6565b6040519080825280601f01601f19166020018201604052801561134c576020820181803683370190505b509050600360fc1b816000815181106113675761136761171a565b60200101906001600160f81b031916908160001a905350600f60fb1b816001815181106113965761139661171a565b60200101906001600160f81b031916908160001a90535060006113ba846002611937565b6113c5906001611956565b90505b600181111561143d576f181899199a1a9b1b9c1cb0b131b232b360811b85600f16601081106113f9576113f961171a565b1a60f81b82828151811061140f5761140f61171a565b60200101906001600160f81b031916908160001a90535060049490941c936114368161196e565b90506113c8565b508315610a135760405162461bcd60e51b815260206004820181905260248201527f537472696e67733a20686578206c656e67746820696e73756666696369656e74604482015260640161040b565b60006020828403121561149e57600080fd5b81356001600160e01b031981168114610a1357600080fd5b634e487b7160e01b600052604160045260246000fd5b600082601f8301126114dd57600080fd5b8135602067ffffffffffffffff808311156114fa576114fa6114b6565b8260051b604051601f19603f8301168101818110848211171561151f5761151f6114b6565b60405293845285810183019383810192508785111561153d57600080fd5b83870191505b8482101561155c57813583529183019190830190611543565b979650505050505050565b60006020828403121561157957600080fd5b813567ffffffffffffffff81111561159057600080fd5b61159c848285016114cc565b949350505050565b6000602082840312156115b657600080fd5b5035919050565b600080604083850312156115d057600080fd5b8235915060208301356001600160a01b03811681146115ee57600080fd5b809150509250929050565b6000806040838503121561160c57600080fd5b50508035926020909101359150565b80356001811061162a57600080fd5b919050565b60006020828403121561164157600080fd5b610a138261161b565b600081518084526020808501945080840160005b8381101561167a5781518752958201959082019060010161165e565b509495945050505050565b604081526000611698604083018561164a565b82810360208401526116aa818561164a565b95945050505050565b600080604083850312156116c657600080fd5b6116cf8361161b565b9150602083013567ffffffffffffffff8111156116eb57600080fd5b6116f7858286016114cc565b9150509250929050565b60006020828403121561171357600080fd5b5051919050565b634e487b7160e01b600052603260045260246000fd5b634e487b7160e01b600052602160045260246000fd5b634e487b7160e01b600052601260045260246000fd5b60008261176b5761176b611746565b500690565b838152606081016001841061179557634e487b7160e01b600052602160045260246000fd5b602082019390935260400152919050565b634e487b7160e01b600052601160045260246000fd5b60006000198214156117d0576117d06117a6565b5060010190565b6000826117e6576117e6611746565b500490565b6020808252602b908201527f496e697469616c697a61626c653a20636f6e7472616374206973206e6f74206960408201526a6e697469616c697a696e6760a81b606082015260800190565b600082821015611848576118486117a6565b500390565b634e487b7160e01b600052603160045260246000fd5b60005b8381101561187e578181015183820152602001611866565b838111156107495750506000910152565b7f416363657373436f6e74726f6c3a206163636f756e74200000000000000000008152600083516118c7816017850160208801611863565b7001034b99036b4b9b9b4b733903937b6329607d1b60179184019182015283516118f8816028840160208801611863565b01602801949350505050565b6020815260008251806020840152611923816040850160208701611863565b601f01601f19169190910160400192915050565b6000816000190483118215151615611951576119516117a6565b500290565b60008219821115611969576119696117a6565b500190565b60008161197d5761197d6117a6565b50600019019056fea49807205ce4d355092ef5a8a18f56e8913cf4a201fbe287825b095693c21775a264697066735822122003b1fc21d98d4eab75a4fc7dfac10b267f2aa136c62e21d40eaca74e7ba270ad64736f6c63430008090033",
  "linkReferences": {},
  "deployedLinkReferences": {}
}