{
  "_format": "hh-sol-artifact-1",
  "contractName": "Authorizable",
  "sourceName": "contracts/libraries/Authorizable.sol",
  "abi": [
    {
      "anonymous": false,
      "inputs": [
        {
          "indexed": true,
          "internalType": "address",
          "name": "previousOwner",
          "type": "address"
        },
        {
          "indexed": true,
          "internalType": "address",
          "name": "newOwner",
          "type": "address"
        }
      ],
      "name": "OwnershipTransferred",
      "type": "event"
    },
    {
      "inputs": [
        {
          "internalType": "address",
          "name": "_toAdd",
          "type": "address"
        }
      ],
      "name": "addAuthorized",
      "outputs": [],
      "stateMutability": "nonpayable",
      "type": "function"
    },
    {
      "inputs": [
        {
          "internalType": "address",
          "name": "",
          "type": "address"
        }
      ],
      "name": "authorized",
      "outputs": [
        {
          "internalType": "bool",
          "name": "",
          "type": "bool"
        }
      ],
      "stateMutability": "view",
      "type": "function"
    },
    {
      "inputs": [],
      "name": "owner",
      "outputs": [
        {
          "internalType": "address",
          "name": "",
          "type": "address"
        }
      ],
      "stateMutability": "view",
      "type": "function"
    },
    {
      "inputs": [
        {
          "internalType": "address",
          "name": "_toRemove",
          "type": "address"
        }
      ],
      "name": "removeAuthorized",
      "outputs": [],
      "stateMutability": "nonpayable",
      "type": "function"
    },
    {
      "inputs": [],
      "name": "renounceOwnership",
      "outputs": [],
      "stateMutability": "nonpayable",
      "type": "function"
    },
    {
      "inputs": [
        {
          "internalType": "address",
          "name": "newOwner",
          "type": "address"
        }
      ],
      "name": "transferOwnership",
      "outputs": [],
      "stateMutability": "nonpayable",
      "type": "function"
    }
  ],
  "bytecode": "0x608060405234801561001057600080fd5b5061001a3361001f565b61006f565b600080546001600160a01b038381166001600160a01b0319831681178455604051919092169283917f8be0079c531659141344cd1fd0a4f28419497f9722a3daafe3b4186f6b6457e09190a35050565b61030d8061007e6000396000f3fe608060405234801561001057600080fd5b50600436106100625760003560e01c8063485d7d9414610067578063715018a61461007c5780638da5cb5b14610084578063b9181611146100a4578063cf1c316a146100d7578063f2fde38b146100ea575b600080fd5b61007a6100753660046102a7565b6100fd565b005b61007a61013c565b6000546040516001600160a01b0390911681526020015b60405180910390f35b6100c76100b23660046102a7565b60016020526000908152604090205460ff1681565b604051901515815260200161009b565b61007a6100e53660046102a7565b610150565b61007a6100f83660046102a7565b61017f565b6101056101fd565b6001600160a01b03811633141561011b57600080fd5b6001600160a01b03166000908152600160205260409020805460ff19169055565b6101446101fd565b61014e6000610257565b565b6101586101fd565b6001600160a01b03166000908152600160208190526040909120805460ff19169091179055565b6101876101fd565b6001600160a01b0381166101f15760405162461bcd60e51b815260206004820152602660248201527f4f776e61626c653a206e6577206f776e657220697320746865207a65726f206160448201526564647265737360d01b60648201526084015b60405180910390fd5b6101fa81610257565b50565b6000546001600160a01b0316331461014e5760405162461bcd60e51b815260206004820181905260248201527f4f776e61626c653a2063616c6c6572206973206e6f7420746865206f776e657260448201526064016101e8565b600080546001600160a01b038381166001600160a01b0319831681178455604051919092169283917f8be0079c531659141344cd1fd0a4f28419497f9722a3daafe3b4186f6b6457e09190a35050565b6000602082840312156102b957600080fd5b81356001600160a01b03811681146102d057600080fd5b939250505056fea2646970667358221220a21f8835a331732c70678974e96970ea51224190ae64bf76bc9e7986d561f81d64736f6c63430008090033",
  "linkReferences": {},
  "deployedLinkReferences": {}
}