{
  "_format": "hh-sol-artifact-1",
  "contractName": "HealerHayley",
  "sourceName": "contracts/npc/HealerHayley.sol",
  "abi": [
    {
      "inputs": [],
      "stateMutability": "nonpayable",
      "type": "constructor"
    },
    {
      "inputs": [
        {
          "internalType": "address",
          "name": "have",
          "type": "address"
        },
        {
          "internalType": "address",
          "name": "want",
          "type": "address"
        }
      ],
      "name": "OnlyCoordinatorCanFulfill",
      "type": "error"
    },
    {
      "anonymous": false,
      "inputs": [
        {
          "indexed": true,
          "internalType": "uint256",
          "name": "requestId",
          "type": "uint256"
        },
        {
          "indexed": false,
          "internalType": "uint256[]",
          "name": "randomWords",
          "type": "uint256[]"
        }
      ],
      "name": "HealRequestFulfilled",
      "type": "event"
    },
    {
      "anonymous": false,
      "inputs": [
        {
          "indexed": true,
          "internalType": "address",
          "name": "from",
          "type": "address"
        },
        {
          "indexed": true,
          "internalType": "uint256",
          "name": "requestId",
          "type": "uint256"
        },
        {
          "indexed": false,
          "internalType": "uint256[]",
          "name": "tokenIds",
          "type": "uint256[]"
        }
      ],
      "name": "HealRequested",
      "type": "event"
    },
    {
      "anonymous": false,
      "inputs": [
        {
          "indexed": true,
          "internalType": "address",
          "name": "from",
          "type": "address"
        },
        {
          "indexed": true,
          "internalType": "uint256",
          "name": "requestId",
          "type": "uint256"
        },
        {
          "indexed": false,
          "internalType": "uint256",
          "name": "tokenId",
          "type": "uint256"
        },
        {
          "indexed": false,
          "internalType": "uint256[]",
          "name": "values",
          "type": "uint256[]"
        }
      ],
      "name": "Healed",
      "type": "event"
    },
    {
      "anonymous": false,
      "inputs": [
        {
          "indexed": false,
          "internalType": "uint8",
          "name": "version",
          "type": "uint8"
        }
      ],
      "name": "Initialized",
      "type": "event"
    },
    {
      "anonymous": false,
      "inputs": [
        {
          "indexed": false,
          "internalType": "address",
          "name": "account",
          "type": "address"
        }
      ],
      "name": "Paused",
      "type": "event"
    },
    {
      "anonymous": false,
      "inputs": [
        {
          "indexed": true,
          "internalType": "bytes32",
          "name": "role",
          "type": "bytes32"
        },
        {
          "indexed": true,
          "internalType": "bytes32",
          "name": "previousAdminRole",
          "type": "bytes32"
        },
        {
          "indexed": true,
          "internalType": "bytes32",
          "name": "newAdminRole",
          "type": "bytes32"
        }
      ],
      "name": "RoleAdminChanged",
      "type": "event"
    },
    {
      "anonymous": false,
      "inputs": [
        {
          "indexed": true,
          "internalType": "bytes32",
          "name": "role",
          "type": "bytes32"
        },
        {
          "indexed": true,
          "internalType": "address",
          "name": "account",
          "type": "address"
        },
        {
          "indexed": true,
          "internalType": "address",
          "name": "sender",
          "type": "address"
        }
      ],
      "name": "RoleGranted",
      "type": "event"
    },
    {
      "anonymous": false,
      "inputs": [
        {
          "indexed": true,
          "internalType": "bytes32",
          "name": "role",
          "type": "bytes32"
        },
        {
          "indexed": true,
          "internalType": "address",
          "name": "account",
          "type": "address"
        },
        {
          "indexed": true,
          "internalType": "address",
          "name": "sender",
          "type": "address"
        }
      ],
      "name": "RoleRevoked",
      "type": "event"
    },
    {
      "anonymous": false,
      "inputs": [
        {
          "indexed": false,
          "internalType": "address",
          "name": "account",
          "type": "address"
        }
      ],
      "name": "Unpaused",
      "type": "event"
    },
    {
      "inputs": [],
      "name": "ADMIN_ROLE",
      "outputs": [
        {
          "internalType": "bytes32",
          "name": "",
          "type": "bytes32"
        }
      ],
      "stateMutability": "view",
      "type": "function"
    },
    {
      "inputs": [],
      "name": "CONTRACT_ROLE",
      "outputs": [
        {
          "internalType": "bytes32",
          "name": "",
          "type": "bytes32"
        }
      ],
      "stateMutability": "view",
      "type": "function"
    },
    {
      "inputs": [],
      "name": "DEFAULT_ADMIN_ROLE",
      "outputs": [
        {
          "internalType": "bytes32",
          "name": "",
          "type": "bytes32"
        }
      ],
      "stateMutability": "view",
      "type": "function"
    },
    {
      "inputs": [
        {
          "internalType": "uint256[]",
          "name": "affected",
          "type": "uint256[]"
        }
      ],
      "name": "checkAffected",
      "outputs": [
        {
          "internalType": "bool[]",
          "name": "",
          "type": "bool[]"
        }
      ],
      "stateMutability": "view",
      "type": "function"
    },
    {
      "inputs": [
        {
          "internalType": "address",
          "name": "_address",
          "type": "address"
        }
      ],
      "name": "clearHealRequestOf",
      "outputs": [],
      "stateMutability": "nonpayable",
      "type": "function"
    },
    {
      "inputs": [
        {
          "internalType": "bytes32",
          "name": "role",
          "type": "bytes32"
        }
      ],
      "name": "getRoleAdmin",
      "outputs": [
        {
          "internalType": "bytes32",
          "name": "",
          "type": "bytes32"
        }
      ],
      "stateMutability": "view",
      "type": "function"
    },
    {
      "inputs": [
        {
          "internalType": "bytes32",
          "name": "role",
          "type": "bytes32"
        },
        {
          "internalType": "uint256",
          "name": "index",
          "type": "uint256"
        }
      ],
      "name": "getRoleMember",
      "outputs": [
        {
          "internalType": "address",
          "name": "",
          "type": "address"
        }
      ],
      "stateMutability": "view",
      "type": "function"
    },
    {
      "inputs": [
        {
          "internalType": "bytes32",
          "name": "role",
          "type": "bytes32"
        }
      ],
      "name": "getRoleMemberCount",
      "outputs": [
        {
          "internalType": "uint256",
          "name": "",
          "type": "uint256"
        }
      ],
      "stateMutability": "view",
      "type": "function"
    },
    {
      "inputs": [
        {
          "internalType": "bytes32",
          "name": "role",
          "type": "bytes32"
        },
        {
          "internalType": "address",
          "name": "account",
          "type": "address"
        }
      ],
      "name": "grantRole",
      "outputs": [],
      "stateMutability": "nonpayable",
      "type": "function"
    },
    {
      "inputs": [
        {
          "internalType": "bytes32",
          "name": "role",
          "type": "bytes32"
        },
        {
          "internalType": "address",
          "name": "account",
          "type": "address"
        }
      ],
      "name": "hasRole",
      "outputs": [
        {
          "internalType": "bool",
          "name": "",
          "type": "bool"
        }
      ],
      "stateMutability": "view",
      "type": "function"
    },
    {
      "inputs": [],
      "name": "heal",
      "outputs": [],
      "stateMutability": "nonpayable",
      "type": "function"
    },
    {
      "inputs": [],
      "name": "initialize",
      "outputs": [],
      "stateMutability": "nonpayable",
      "type": "function"
    },
    {
      "inputs": [],
      "name": "pause",
      "outputs": [],
      "stateMutability": "nonpayable",
      "type": "function"
    },
    {
      "inputs": [],
      "name": "paused",
      "outputs": [
        {
          "internalType": "bool",
          "name": "",
          "type": "bool"
        }
      ],
      "stateMutability": "view",
      "type": "function"
    },
    {
      "inputs": [
        {
          "internalType": "address",
          "name": "_address",
          "type": "address"
        }
      ],
      "name": "pendingHealOf",
      "outputs": [
        {
          "internalType": "bool",
          "name": "exists",
          "type": "bool"
        },
        {
          "internalType": "bool",
          "name": "ready",
          "type": "bool"
        },
        {
          "internalType": "uint256[]",
          "name": "ids",
          "type": "uint256[]"
        }
      ],
      "stateMutability": "view",
      "type": "function"
    },
    {
      "inputs": [
        {
          "internalType": "uint256",
          "name": "requestId",
          "type": "uint256"
        },
        {
          "internalType": "uint256[]",
          "name": "randomWords",
          "type": "uint256[]"
        }
      ],
      "name": "rawFulfillRandomWords",
      "outputs": [],
      "stateMutability": "nonpayable",
      "type": "function"
    },
    {
      "inputs": [
        {
          "internalType": "bytes32",
          "name": "role",
          "type": "bytes32"
        },
        {
          "internalType": "address",
          "name": "account",
          "type": "address"
        }
      ],
      "name": "renounceRole",
      "outputs": [],
      "stateMutability": "nonpayable",
      "type": "function"
    },
    {
      "inputs": [
        {
          "internalType": "uint256[]",
          "name": "tokenIds",
          "type": "uint256[]"
        }
      ],
      "name": "requestHeal",
      "outputs": [],
      "stateMutability": "nonpayable",
      "type": "function"
    },
    {
      "inputs": [
        {
          "internalType": "bytes32",
          "name": "role",
          "type": "bytes32"
        },
        {
          "internalType": "address",
          "name": "account",
          "type": "address"
        }
      ],
      "name": "revokeRole",
      "outputs": [],
      "stateMutability": "nonpayable",
      "type": "function"
    },
    {
      "inputs": [
        {
          "internalType": "uint256[]",
          "name": "affected",
          "type": "uint256[]"
        }
      ],
      "name": "setAffected",
      "outputs": [],
      "stateMutability": "nonpayable",
      "type": "function"
    },
    {
      "inputs": [
        {
          "internalType": "bytes4",
          "name": "interfaceId",
          "type": "bytes4"
        }
      ],
      "name": "supportsInterface",
      "outputs": [
        {
          "internalType": "bool",
          "name": "",
          "type": "bool"
        }
      ],
      "stateMutability": "view",
      "type": "function"
    },
    {
      "inputs": [],
      "name": "unpause",
      "outputs": [],
      "stateMutability": "nonpayable",
      "type": "function"
    }
  ],
  "bytecode": "0x608060405234801561001057600080fd5b5061001961001e565b6100de565b600054610100900460ff161561008a5760405162461bcd60e51b815260206004820152602760248201527f496e697469616c697a61626c653a20636f6e747261637420697320696e697469604482015266616c697a696e6760c81b606482015260840160405180910390fd5b60005460ff90811610156100dc576000805460ff191660ff9081179091556040519081527f7f26b83ff96e1f2b6a682f133852f6798a09c465da95921460cefb38474024989060200160405180910390a15b565b6120d980620000ee6000396000f3fe608060405234801561001057600080fd5b50600436106101425760003560e01c80638129fc1c116100b857806391d148541161007c57806391d14854146102b3578063a217fddf146102c6578063ca15c873146102ce578063d547741f146102e1578063dad97a40146102f4578063edd6cb471461030757600080fd5b80638129fc1c1461024557806383a413d21461024d5780638456cb5914610260578063890d152e146102685780639010d07c1461028857600080fd5b80632f2ff15d1161010a5780632f2ff15d146101e457806336568abe146101f75780633f4ba83a1461020a57806341fa92cd146102125780635c975abb1461022557806375b238fc1461023057600080fd5b806301ffc9a71461014757806303fe46ab1461016f5780630434fe0b146101a45780631fe543e3146101ae578063248a9ca3146101c1575b600080fd5b61015a610155366004611ab1565b610329565b60405190151581526020015b60405180910390f35b6101967f364d3d7565c7a8300c96fd53e065d19b65848d7b23b3191adcd55621c744223c81565b604051908152602001610166565b6101ac610354565b005b6101ac6101bc366004611b8c565b61047b565b6101966101cf366004611bd3565b60009081526097602052604090206001015490565b6101ac6101f2366004611c08565b6104c5565b6101ac610205366004611c08565b6104ef565b6101ac610569565b6101ac610220366004611c34565b61058c565b60335460ff1661015a565b61019660008051602061208483398151915281565b6101ac610624565b6101ac61025b366004611c71565b6107fa565b6101ac61095b565b61027b610276366004611c34565b61097b565b6040516101669190611c8c565b61029b610296366004611cd2565b610a3a565b6040516001600160a01b039091168152602001610166565b61015a6102c1366004611c08565b610a59565b610196600081565b6101966102dc366004611bd3565b610a84565b6101ac6102ef366004611c08565b610a9b565b6101ac610302366004611c34565b610ac0565b61031a610315366004611c71565b610cba565b60405161016693929190611d2f565b60006001600160e01b03198216635a05180f60e01b148061034e575061034e82610d49565b92915050565b3360009081526101c16020526040902060018101546103ba5760405162461bcd60e51b815260206004820152601c60248201527f4e6f2070656e64696e6720686174636820696e2070726f67726573730000000060448201526064015b60405180910390fd5b60028101546104035760405162461bcd60e51b8152602060048201526015602482015274526573756c7473207374696c6c2070656e64696e6760581b60448201526064016103b1565b61040c33610d7e565b3360008181526101c160208181526040808420600181015485526101c4835290842080546001600160a01b03191690559383525261044a8282611a33565b60018201600090556002820160006104629190611a33565b505061047761046e3390565b6101c290610fb8565b5050565b60fb546001600160a01b031633146104bb5760fb5460405163073e64fd60e21b81523360048201526001600160a01b0390911660248201526044016103b1565b6104778282610fcd565b6000828152609760205260409020600101546104e081611044565b6104ea838361104e565b505050565b6001600160a01b038116331461055f5760405162461bcd60e51b815260206004820152602f60248201527f416363657373436f6e74726f6c3a2063616e206f6e6c792072656e6f756e636560448201526e103937b632b9903337b91039b2b63360891b60648201526084016103b1565b6104778282611070565b60008051602061208483398151915261058181611044565b610589611092565b50565b6000805160206120848339815191526105a481611044565b60005b82518110156104ea576105de8382815181106105c5576105c5611d5b565b60200260200101516101c76110e490919063ffffffff16565b610612576106108382815181106105f7576105f7611d5b565b60200260200101516101c56110fc90919063ffffffff16565b505b8061061c81611d87565b9150506105a7565b600054610100900460ff16158080156106445750600054600160ff909116105b8061065e5750303b15801561065e575060005460ff166001145b6106c15760405162461bcd60e51b815260206004820152602e60248201527f496e697469616c697a61626c653a20636f6e747261637420697320616c72656160448201526d191e481a5b9a5d1a585b1a5e995960921b60648201526084016103b1565b6000805460ff1916600117905580156106e4576000805461ff0019166101001790555b6106ec611108565b6106f4611139565b73d5d517abe5cf79b7e95ec98db0f0277788aff6347f83250c5584ffa93feb6ee082981c5ebe484c865196750b39835ad4f13780435d601d600361073a84848484611160565b61074560003361104e565b61075d6000805160206120848339815191523361104e565b6107877f364d3d7565c7a8300c96fd53e065d19b65848d7b23b3191adcd55621c744223c3361104e565b50506101c080546001600160a01b03191673454a0e479ac78e508a95880216c06f50bf3c321c17905550508015610589576000805461ff0019169055604051600181527f7f26b83ff96e1f2b6a682f133852f6798a09c465da95921460cefb38474024989060200160405180910390a150565b60008051602061208483398151915261081281611044565b6001600160a01b03821660009081526101c160209081526040808320815181546080948102820185019093526060810183815290939192849284919084018282801561087d57602002820191906000526020600020905b815481526020019060010190808311610869575b5050505050815260200160018201548152602001600282018054806020026020016040519081016040528092919081815260200182805480156108df57602002820191906000526020600020905b8154815260200190600101908083116108cb575b5050509190925250505060208082015160009081526101c48252604080822080546001600160a01b03191690556001600160a01b03871682526101c190925290812091925061092e8282611a33565b60018201600090556002820160006109469190611a33565b5061095590506101c284610fb8565b50505050565b60008051602061208483398151915261097381611044565b61058961119c565b60606000825167ffffffffffffffff81111561099957610999611adb565b6040519080825280602002602001820160405280156109c2578160200160208202803683370190505b50905060005b8351811015610a33576109ff8482815181106109e6576109e6611d5b565b60200260200101516101c56110e490919063ffffffff16565b828281518110610a1157610a11611d5b565b9115156020928302919091019091015280610a2b81611d87565b9150506109c8565b5092915050565b600082815260c960205260408120610a5290836111d9565b9392505050565b60009182526097602090815260408084206001600160a01b0393909316845291905290205460ff1690565b600081815260c96020526040812061034e906111e5565b600082815260976020526040902060010154610ab681611044565b6104ea8383611070565b600a81511115610b085760405162461bcd60e51b815260206004820152601360248201527213585e1a5b5d5b480c4c081c195c881a19585b606a1b60448201526064016103b1565b6000815111610b4c5760405162461bcd60e51b815260206004820152601060248201526f139bc81d1bdad95b92591cc81cd95b9d60821b60448201526064016103b1565b60005b8151811015610bbd57610b6d8282815181106109e6576109e6611d5b565b610bab5760405162461bcd60e51b815260206004820152600f60248201526e125b9d985b1a59081d1bdad95b9259608a1b60448201526064016103b1565b80610bb581611d87565b915050610b4f565b503360009081526101c160205260409020600181015415610c205760405162461bcd60e51b815260206004820152601960248201527f4578697374696e67206865616c20696e2070726f67726573730000000000000060448201526064016103b1565b610c2a82516111ef565b60018201558151610c419082906020850190611a51565b50600181015460009081526101c46020526040902080546001600160a01b03191633908117909155610c76906101c2906112c8565b50600181015460405133907fca6084e96cd341333e309e3454804c777740cc7a7e3be864e4b4d216fc5fd5a390610cae908590611da2565b60405180910390a35050565b6001600160a01b03811660009081526101c1602090815260408083206001810154600282015482548451818702810187019095528085528695606095931515939215159285929091839190830182828015610d3457602002820191906000526020600020905b815481526020019060010190808311610d20575b50505050509050935093509350509193909250565b60006001600160e01b03198216637965db0b60e01b148061034e57506301ffc9a760e01b6001600160e01b031983161461034e565b6001600160a01b03811660009081526101c160205260408082208151600580825260c0820190935290929181602001602082028036833701905050905060095b600e811015610e01578082610dd4600983611ddd565b81518110610de457610de4611d5b565b602090810291909101015280610df981611d87565b915050610dbe565b5060005b8254811015610955576000610e3d846002018381548110610e2857610e28611d5b565b906000526020600020015461271060056112dd565b9050610e73846000018381548110610e5757610e57611d5b565b90600052602060002001546101c561138890919063ffffffff16565b50610ea8846000018381548110610e8c57610e8c611d5b565b90600052602060002001546101c76110fc90919063ffffffff16565b506000610eb482611394565b6101c05486549192506001600160a01b0316906364cb59d690879086908110610edf57610edf611d5b565b906000526020600020015486846040518463ffffffff1660e01b8152600401610f0a93929190611df4565b600060405180830381600087803b158015610f2457600080fd5b505af1158015610f38573d6000803e3d6000fd5b505050508460010154866001600160a01b03167f46cbc1e1e88873d617e82d8c844be959dbe88a4e2ee98b5474343ae807d602ee876000018681548110610f8157610f81611d5b565b906000526020600020015484604051610f9b929190611e29565b60405180910390a350508080610fb090611d87565b915050610e05565b6000610a52836001600160a01b03841661141c565b60008281526101c460209081526040808320546001600160a01b031683526101c18252909120825161100792600290920191840190611a51565b50817f99e36fc74b992673404259ff258de58428f0b40739a724062b8537a9c4ea3b2c826040516110389190611e42565b60405180910390a25050565b610589813361150f565b6110588282611573565b600082815260c9602052604090206104ea90826112c8565b61107a82826115f9565b600082815260c9602052604090206104ea9082610fb8565b61109a611660565b6033805460ff191690557f5db9ee0a495bf2e6ff9c91a7834c1ba4fdd244a5e8aa4e537bd38aeae4b073aa335b6040516001600160a01b03909116815260200160405180910390a1565b60008181526001830160205260408120541515610a52565b6000610a5283836116a9565b600054610100900460ff1661112f5760405162461bcd60e51b81526004016103b190611e55565b6111376116f8565b565b600054610100900460ff166111375760405162461bcd60e51b81526004016103b190611e55565b600054610100900460ff166111875760405162461bcd60e51b81526004016103b190611e55565b6111908461172b565b6109558484848461175b565b6111a46117de565b6033805460ff191660011790557f62e78cea01bee320cd4e420270b5ea74000d11b0c9f74754ebdbfc544b05a2586110c73390565b6000610a528383611824565b600061034e825490565b6000806111fe83614e20611ea0565b61120b90620186a0611ecc565b61012d5461012e5461012f546040516305d3b1d360e41b8152600481019290925267ffffffffffffffff81166024830152600160401b900461ffff16604482015263ffffffff8084166064830152861660848201529192506001600160a01b031690635d3b1d309060a401602060405180830381600087803b15801561129057600080fd5b505af11580156112a4573d6000803e3d6000fd5b505050506040513d601f19601f82011682018060405250810190610a529190611ef4565b6000610a52836001600160a01b0384166116a9565b606060008267ffffffffffffffff8111156112fa576112fa611adb565b604051908082528060200260200182016040528015611323578160200160208202803683370190505b5090508460005b8481101561137d57600061133e8784611f23565b905061134a8784611f37565b92508084838151811061135f5761135f611d5b565b6020908102919091010152508061137581611d87565b91505061132a565b509095945050505050565b6000610a52838361141c565b60408051600580825260c08201909252606091600091906020820160a08036833701905050905060005b8151811015610a335760028482815181106113db576113db611d5b565b60200260200101516113ed9190611f23565b8282815181106113ff576113ff611d5b565b60209081029190910101528061141481611d87565b9150506113be565b60008181526001830160205260408120548015611505576000611440600183611ddd565b855490915060009061145490600190611ddd565b90508181146114b957600086600001828154811061147457611474611d5b565b906000526020600020015490508087600001848154811061149757611497611d5b565b6000918252602080832090910192909255918252600188019052604090208390555b85548690806114ca576114ca611f4b565b60019003818190600052602060002001600090559055856001016000868152602001908152602001600020600090556001935050505061034e565b600091505061034e565b6115198282610a59565b61047757611531816001600160a01b0316601461184e565b61153c83602061184e565b60405160200161154d929190611f8d565b60408051601f198184030181529082905262461bcd60e51b82526103b191600401612002565b61157d8282610a59565b6104775760008281526097602090815260408083206001600160a01b03851684529091529020805460ff191660011790556115b53390565b6001600160a01b0316816001600160a01b0316837f2f8788117e7eff1d82e926ec794901d17c78024a50270940304540a733656f0d60405160405180910390a45050565b6116038282610a59565b156104775760008281526097602090815260408083206001600160a01b0385168085529252808320805460ff1916905551339285917ff6391f5c32d9c69d2a47ea670b442974b53935d1edc7fd64eb21e047a839171b9190a45050565b60335460ff166111375760405162461bcd60e51b815260206004820152601460248201527314185d5cd8589b194e881b9bdd081c185d5cd95960621b60448201526064016103b1565b60008181526001830160205260408120546116f05750815460018181018455600084815260208082209093018490558454848252828601909352604090209190915561034e565b50600061034e565b600054610100900460ff1661171f5760405162461bcd60e51b81526004016103b190611e55565b6033805460ff19169055565b600054610100900460ff166117525760405162461bcd60e51b81526004016103b190611e55565b610589816119ea565b600054610100900460ff166117825760405162461bcd60e51b81526004016103b190611e55565b61012d80546001600160a01b039095166001600160a01b03199095169490941790935561012f805461012e9390935561ffff909316600160401b0269ffffffffffffffffffff1990921667ffffffffffffffff90911617179055565b60335460ff16156111375760405162461bcd60e51b815260206004820152601060248201526f14185d5cd8589b194e881c185d5cd95960821b60448201526064016103b1565b600082600001828154811061183b5761183b611d5b565b9060005260206000200154905092915050565b6060600061185d836002612035565b611868906002612054565b67ffffffffffffffff81111561188057611880611adb565b6040519080825280601f01601f1916602001820160405280156118aa576020820181803683370190505b509050600360fc1b816000815181106118c5576118c5611d5b565b60200101906001600160f81b031916908160001a905350600f60fb1b816001815181106118f4576118f4611d5b565b60200101906001600160f81b031916908160001a9053506000611918846002612035565b611923906001612054565b90505b600181111561199b576f181899199a1a9b1b9c1cb0b131b232b360811b85600f166010811061195757611957611d5b565b1a60f81b82828151811061196d5761196d611d5b565b60200101906001600160f81b031916908160001a90535060049490941c936119948161206c565b9050611926565b508315610a525760405162461bcd60e51b815260206004820181905260248201527f537472696e67733a20686578206c656e67746820696e73756666696369656e7460448201526064016103b1565b600054610100900460ff16611a115760405162461bcd60e51b81526004016103b190611e55565b60fb80546001600160a01b0319166001600160a01b0392909216919091179055565b50805460008255906000526020600020908101906105899190611a9c565b828054828255906000526020600020908101928215611a8c579160200282015b82811115611a8c578251825591602001919060010190611a71565b50611a98929150611a9c565b5090565b5b80821115611a985760008155600101611a9d565b600060208284031215611ac357600080fd5b81356001600160e01b031981168114610a5257600080fd5b634e487b7160e01b600052604160045260246000fd5b600082601f830112611b0257600080fd5b8135602067ffffffffffffffff80831115611b1f57611b1f611adb565b8260051b604051601f19603f83011681018181108482111715611b4457611b44611adb565b604052938452858101830193838101925087851115611b6257600080fd5b83870191505b84821015611b8157813583529183019190830190611b68565b979650505050505050565b60008060408385031215611b9f57600080fd5b82359150602083013567ffffffffffffffff811115611bbd57600080fd5b611bc985828601611af1565b9150509250929050565b600060208284031215611be557600080fd5b5035919050565b80356001600160a01b0381168114611c0357600080fd5b919050565b60008060408385031215611c1b57600080fd5b82359150611c2b60208401611bec565b90509250929050565b600060208284031215611c4657600080fd5b813567ffffffffffffffff811115611c5d57600080fd5b611c6984828501611af1565b949350505050565b600060208284031215611c8357600080fd5b610a5282611bec565b6020808252825182820181905260009190848201906040850190845b81811015611cc6578351151583529284019291840191600101611ca8565b50909695505050505050565b60008060408385031215611ce557600080fd5b50508035926020909101359150565b600081518084526020808501945080840160005b83811015611d2457815187529582019590820190600101611d08565b509495945050505050565b83151581528215156020820152606060408201526000611d526060830184611cf4565b95945050505050565b634e487b7160e01b600052603260045260246000fd5b634e487b7160e01b600052601160045260246000fd5b6000600019821415611d9b57611d9b611d71565b5060010190565b6020808252825482820181905260008481528281209092916040850190845b81811015611cc657835483526001938401939285019201611dc1565b600082821015611def57611def611d71565b500390565b838152606060208201526000611e0d6060830185611cf4565b8281036040840152611e1f8185611cf4565b9695505050505050565b828152604060208201526000611c696040830184611cf4565b602081526000610a526020830184611cf4565b6020808252602b908201527f496e697469616c697a61626c653a20636f6e7472616374206973206e6f74206960408201526a6e697469616c697a696e6760a81b606082015260800190565b600063ffffffff80831681851681830481118215151615611ec357611ec3611d71565b02949350505050565b600063ffffffff808316818516808303821115611eeb57611eeb611d71565b01949350505050565b600060208284031215611f0657600080fd5b5051919050565b634e487b7160e01b600052601260045260246000fd5b600082611f3257611f32611f0d565b500690565b600082611f4657611f46611f0d565b500490565b634e487b7160e01b600052603160045260246000fd5b60005b83811015611f7c578181015183820152602001611f64565b838111156109555750506000910152565b7f416363657373436f6e74726f6c3a206163636f756e7420000000000000000000815260008351611fc5816017850160208801611f61565b7001034b99036b4b9b9b4b733903937b6329607d1b6017918401918201528351611ff6816028840160208801611f61565b01602801949350505050565b6020815260008251806020840152612021816040850160208701611f61565b601f01601f19169190910160400192915050565b600081600019048311821515161561204f5761204f611d71565b500290565b6000821982111561206757612067611d71565b500190565b60008161207b5761207b611d71565b50600019019056fea49807205ce4d355092ef5a8a18f56e8913cf4a201fbe287825b095693c21775a2646970667358221220d24ebf914468ab010e5724080c18e9017bc5efc721f0dae0739a317e31df1bbf64736f6c63430008090033",
  "linkReferences": {},
  "deployedLinkReferences": {}
}