{
  "_format": "hh-sol-artifact-1",
  "contractName": "EmergencyWithdrawalReimbursementUpgradeable",
  "sourceName": "contracts/EmergencyWithdrawalReimbursementUpgradeable.sol",
  "abi": [
    {
      "inputs": [],
      "stateMutability": "nonpayable",
      "type": "constructor"
    },
    {
      "anonymous": false,
      "inputs": [
        {
          "indexed": false,
          "internalType": "address",
          "name": "account",
          "type": "address"
        }
      ],
      "name": "Paused",
      "type": "event"
    },
    {
      "anonymous": false,
      "inputs": [
        {
          "indexed": true,
          "internalType": "bytes32",
          "name": "role",
          "type": "bytes32"
        },
        {
          "indexed": true,
          "internalType": "bytes32",
          "name": "previousAdminRole",
          "type": "bytes32"
        },
        {
          "indexed": true,
          "internalType": "bytes32",
          "name": "newAdminRole",
          "type": "bytes32"
        }
      ],
      "name": "RoleAdminChanged",
      "type": "event"
    },
    {
      "anonymous": false,
      "inputs": [
        {
          "indexed": true,
          "internalType": "bytes32",
          "name": "role",
          "type": "bytes32"
        },
        {
          "indexed": true,
          "internalType": "address",
          "name": "account",
          "type": "address"
        },
        {
          "indexed": true,
          "internalType": "address",
          "name": "sender",
          "type": "address"
        }
      ],
      "name": "RoleGranted",
      "type": "event"
    },
    {
      "anonymous": false,
      "inputs": [
        {
          "indexed": true,
          "internalType": "bytes32",
          "name": "role",
          "type": "bytes32"
        },
        {
          "indexed": true,
          "internalType": "address",
          "name": "account",
          "type": "address"
        },
        {
          "indexed": true,
          "internalType": "address",
          "name": "sender",
          "type": "address"
        }
      ],
      "name": "RoleRevoked",
      "type": "event"
    },
    {
      "anonymous": false,
      "inputs": [
        {
          "indexed": false,
          "internalType": "address",
          "name": "account",
          "type": "address"
        }
      ],
      "name": "Unpaused",
      "type": "event"
    },
    {
      "inputs": [],
      "name": "ADMIN_ROLE",
      "outputs": [
        {
          "internalType": "bytes32",
          "name": "",
          "type": "bytes32"
        }
      ],
      "stateMutability": "view",
      "type": "function"
    },
    {
      "inputs": [],
      "name": "DEFAULT_ADMIN_ROLE",
      "outputs": [
        {
          "internalType": "bytes32",
          "name": "",
          "type": "bytes32"
        }
      ],
      "stateMutability": "view",
      "type": "function"
    },
    {
      "inputs": [],
      "name": "GENESIS_REFUND_FROM_BLOCK",
      "outputs": [
        {
          "internalType": "uint256",
          "name": "",
          "type": "uint256"
        }
      ],
      "stateMutability": "view",
      "type": "function"
    },
    {
      "inputs": [],
      "name": "LAST_SNAPSHOT_BLOCK",
      "outputs": [
        {
          "internalType": "uint256",
          "name": "",
          "type": "uint256"
        }
      ],
      "stateMutability": "view",
      "type": "function"
    },
    {
      "inputs": [],
      "name": "REFUND_TOKEN",
      "outputs": [
        {
          "internalType": "contract IERC20Upgradeable",
          "name": "",
          "type": "address"
        }
      ],
      "stateMutability": "view",
      "type": "function"
    },
    {
      "inputs": [],
      "name": "SCRIBE_ROLE",
      "outputs": [
        {
          "internalType": "bytes32",
          "name": "",
          "type": "bytes32"
        }
      ],
      "stateMutability": "view",
      "type": "function"
    },
    {
      "inputs": [],
      "name": "TOTAL_FEES",
      "outputs": [
        {
          "internalType": "uint256",
          "name": "",
          "type": "uint256"
        }
      ],
      "stateMutability": "view",
      "type": "function"
    },
    {
      "inputs": [],
      "name": "TOTAL_REFUNDED",
      "outputs": [
        {
          "internalType": "uint256",
          "name": "",
          "type": "uint256"
        }
      ],
      "stateMutability": "view",
      "type": "function"
    },
    {
      "inputs": [],
      "name": "TOTAL_TO_REFUND",
      "outputs": [
        {
          "internalType": "uint256",
          "name": "",
          "type": "uint256"
        }
      ],
      "stateMutability": "view",
      "type": "function"
    },
    {
      "inputs": [
        {
          "components": [
            {
              "internalType": "address",
              "name": "_address",
              "type": "address"
            },
            {
              "internalType": "uint256",
              "name": "withdrawn",
              "type": "uint256"
            },
            {
              "internalType": "string",
              "name": "txHash",
              "type": "string"
            },
            {
              "internalType": "uint256",
              "name": "block",
              "type": "uint256"
            },
            {
              "internalType": "uint256",
              "name": "time",
              "type": "uint256"
            },
            {
              "internalType": "uint256",
              "name": "fee",
              "type": "uint256"
            },
            {
              "internalType": "bool",
              "name": "paid",
              "type": "bool"
            }
          ],
          "internalType": "struct EmergencyWithdrawalReimbursementUpgradeable.Refund",
          "name": "_refund",
          "type": "tuple"
        },
        {
          "internalType": "uint256",
          "name": "poolId",
          "type": "uint256"
        }
      ],
      "name": "addRefund",
      "outputs": [],
      "stateMutability": "nonpayable",
      "type": "function"
    },
    {
      "inputs": [],
      "name": "allAffectedAddresses",
      "outputs": [
        {
          "internalType": "address[]",
          "name": "",
          "type": "address[]"
        }
      ],
      "stateMutability": "view",
      "type": "function"
    },
    {
      "inputs": [],
      "name": "allRefunds",
      "outputs": [
        {
          "components": [
            {
              "internalType": "address",
              "name": "_address",
              "type": "address"
            },
            {
              "internalType": "uint256",
              "name": "withdrawn",
              "type": "uint256"
            },
            {
              "internalType": "string",
              "name": "txHash",
              "type": "string"
            },
            {
              "internalType": "uint256",
              "name": "block",
              "type": "uint256"
            },
            {
              "internalType": "uint256",
              "name": "time",
              "type": "uint256"
            },
            {
              "internalType": "uint256",
              "name": "fee",
              "type": "uint256"
            },
            {
              "internalType": "bool",
              "name": "paid",
              "type": "bool"
            }
          ],
          "internalType": "struct EmergencyWithdrawalReimbursementUpgradeable.Refund[][]",
          "name": "",
          "type": "tuple[][]"
        }
      ],
      "stateMutability": "view",
      "type": "function"
    },
    {
      "inputs": [
        {
          "components": [
            {
              "internalType": "address",
              "name": "_address",
              "type": "address"
            },
            {
              "internalType": "uint256",
              "name": "withdrawn",
              "type": "uint256"
            },
            {
              "internalType": "string",
              "name": "txHash",
              "type": "string"
            },
            {
              "internalType": "uint256",
              "name": "block",
              "type": "uint256"
            },
            {
              "internalType": "uint256",
              "name": "time",
              "type": "uint256"
            },
            {
              "internalType": "uint256",
              "name": "fee",
              "type": "uint256"
            },
            {
              "internalType": "bool",
              "name": "paid",
              "type": "bool"
            }
          ],
          "internalType": "struct EmergencyWithdrawalReimbursementUpgradeable.Refund[]",
          "name": "_refunds",
          "type": "tuple[]"
        },
        {
          "internalType": "uint256[]",
          "name": "poolIds",
          "type": "uint256[]"
        }
      ],
      "name": "batchAddRefunds",
      "outputs": [],
      "stateMutability": "nonpayable",
      "type": "function"
    },
    {
      "inputs": [],
      "name": "claimRefund",
      "outputs": [],
      "stateMutability": "nonpayable",
      "type": "function"
    },
    {
      "inputs": [
        {
          "internalType": "uint256",
          "name": "poolId",
          "type": "uint256"
        }
      ],
      "name": "getExtendedRefund",
      "outputs": [
        {
          "components": [
            {
              "internalType": "contract IERC20Upgradeable",
              "name": "refundToken",
              "type": "address"
            },
            {
              "internalType": "uint256",
              "name": "totalFees",
              "type": "uint256"
            },
            {
              "internalType": "uint256",
              "name": "totalRefunded",
              "type": "uint256"
            },
            {
              "internalType": "uint256",
              "name": "totalToRefund",
              "type": "uint256"
            }
          ],
          "internalType": "struct EmergencyWithdrawalReimbursementUpgradeable.ExtendedRefund",
          "name": "",
          "type": "tuple"
        }
      ],
      "stateMutability": "view",
      "type": "function"
    },
    {
      "inputs": [
        {
          "internalType": "bytes32",
          "name": "role",
          "type": "bytes32"
        }
      ],
      "name": "getRoleAdmin",
      "outputs": [
        {
          "internalType": "bytes32",
          "name": "",
          "type": "bytes32"
        }
      ],
      "stateMutability": "view",
      "type": "function"
    },
    {
      "inputs": [
        {
          "internalType": "bytes32",
          "name": "role",
          "type": "bytes32"
        },
        {
          "internalType": "address",
          "name": "account",
          "type": "address"
        }
      ],
      "name": "grantRole",
      "outputs": [],
      "stateMutability": "nonpayable",
      "type": "function"
    },
    {
      "inputs": [
        {
          "internalType": "bytes32",
          "name": "role",
          "type": "bytes32"
        },
        {
          "internalType": "address",
          "name": "account",
          "type": "address"
        }
      ],
      "name": "hasRole",
      "outputs": [
        {
          "internalType": "bool",
          "name": "",
          "type": "bool"
        }
      ],
      "stateMutability": "view",
      "type": "function"
    },
    {
      "inputs": [],
      "name": "initialize",
      "outputs": [],
      "stateMutability": "nonpayable",
      "type": "function"
    },
    {
      "inputs": [],
      "name": "pause",
      "outputs": [],
      "stateMutability": "nonpayable",
      "type": "function"
    },
    {
      "inputs": [],
      "name": "paused",
      "outputs": [
        {
          "internalType": "bool",
          "name": "",
          "type": "bool"
        }
      ],
      "stateMutability": "view",
      "type": "function"
    },
    {
      "inputs": [
        {
          "internalType": "address",
          "name": "_address",
          "type": "address"
        }
      ],
      "name": "pendingRefundsByAddress",
      "outputs": [
        {
          "components": [
            {
              "internalType": "address",
              "name": "_address",
              "type": "address"
            },
            {
              "internalType": "uint256",
              "name": "withdrawn",
              "type": "uint256"
            },
            {
              "internalType": "string",
              "name": "txHash",
              "type": "string"
            },
            {
              "internalType": "uint256",
              "name": "block",
              "type": "uint256"
            },
            {
              "internalType": "uint256",
              "name": "time",
              "type": "uint256"
            },
            {
              "internalType": "uint256",
              "name": "fee",
              "type": "uint256"
            },
            {
              "internalType": "bool",
              "name": "paid",
              "type": "bool"
            }
          ],
          "internalType": "struct EmergencyWithdrawalReimbursementUpgradeable.Refund[]",
          "name": "",
          "type": "tuple[]"
        }
      ],
      "stateMutability": "view",
      "type": "function"
    },
    {
      "inputs": [
        {
          "internalType": "address",
          "name": "_address",
          "type": "address"
        }
      ],
      "name": "refundsByAddress",
      "outputs": [
        {
          "components": [
            {
              "internalType": "address",
              "name": "_address",
              "type": "address"
            },
            {
              "internalType": "uint256",
              "name": "withdrawn",
              "type": "uint256"
            },
            {
              "internalType": "string",
              "name": "txHash",
              "type": "string"
            },
            {
              "internalType": "uint256",
              "name": "block",
              "type": "uint256"
            },
            {
              "internalType": "uint256",
              "name": "time",
              "type": "uint256"
            },
            {
              "internalType": "uint256",
              "name": "fee",
              "type": "uint256"
            },
            {
              "internalType": "bool",
              "name": "paid",
              "type": "bool"
            }
          ],
          "internalType": "struct EmergencyWithdrawalReimbursementUpgradeable.Refund[]",
          "name": "",
          "type": "tuple[]"
        }
      ],
      "stateMutability": "view",
      "type": "function"
    },
    {
      "inputs": [
        {
          "internalType": "bytes32",
          "name": "role",
          "type": "bytes32"
        },
        {
          "internalType": "address",
          "name": "account",
          "type": "address"
        }
      ],
      "name": "renounceRole",
      "outputs": [],
      "stateMutability": "nonpayable",
      "type": "function"
    },
    {
      "inputs": [
        {
          "internalType": "bytes32",
          "name": "role",
          "type": "bytes32"
        },
        {
          "internalType": "address",
          "name": "account",
          "type": "address"
        }
      ],
      "name": "revokeRole",
      "outputs": [],
      "stateMutability": "nonpayable",
      "type": "function"
    },
    {
      "inputs": [
        {
          "internalType": "uint256",
          "name": "poolId",
          "type": "uint256"
        },
        {
          "components": [
            {
              "internalType": "contract IERC20Upgradeable",
              "name": "refundToken",
              "type": "address"
            },
            {
              "internalType": "uint256",
              "name": "totalFees",
              "type": "uint256"
            },
            {
              "internalType": "uint256",
              "name": "totalRefunded",
              "type": "uint256"
            },
            {
              "internalType": "uint256",
              "name": "totalToRefund",
              "type": "uint256"
            }
          ],
          "internalType": "struct EmergencyWithdrawalReimbursementUpgradeable.ExtendedRefund",
          "name": "eRefund",
          "type": "tuple"
        }
      ],
      "name": "setExtendedRefund",
      "outputs": [],
      "stateMutability": "nonpayable",
      "type": "function"
    },
    {
      "inputs": [
        {
          "internalType": "bytes4",
          "name": "interfaceId",
          "type": "bytes4"
        }
      ],
      "name": "supportsInterface",
      "outputs": [
        {
          "internalType": "bool",
          "name": "",
          "type": "bool"
        }
      ],
      "stateMutability": "view",
      "type": "function"
    },
    {
      "inputs": [],
      "name": "unpause",
      "outputs": [],
      "stateMutability": "nonpayable",
      "type": "function"
    },
    {
      "inputs": [
        {
          "internalType": "uint256",
          "name": "genesisBlock",
          "type": "uint256"
        }
      ],
      "name": "updateGenesisBlock",
      "outputs": [],
      "stateMutability": "nonpayable",
      "type": "function"
    },
    {
      "inputs": [
        {
          "internalType": "string[]",
          "name": "txHashes",
          "type": "string[]"
        },
        {
          "internalType": "uint256[]",
          "name": "poolIds",
          "type": "uint256[]"
        }
      ],
      "name": "upgradeExistingRefunds",
      "outputs": [],
      "stateMutability": "nonpayable",
      "type": "function"
    },
    {
      "inputs": [
        {
          "internalType": "address",
          "name": "_address",
          "type": "address"
        }
      ],
      "name": "upgradeRefundValuesByAddress",
      "outputs": [],
      "stateMutability": "nonpayable",
      "type": "function"
    }
  ],
  "bytecode": "0x60806040523480156200001157600080fd5b50600054610100900460ff166200002f5760005460ff161562000039565b62000039620000de565b620000a15760405162461bcd60e51b815260206004820152602e60248201527f496e697469616c697a61626c653a20636f6e747261637420697320616c72656160448201526d191e481a5b9a5d1a585b1a5e995960921b606482015260840160405180910390fd5b600054610100900460ff16158015620000c4576000805461ffff19166101011790555b8015620000d7576000805461ff00191690555b506200010b565b6000620000f630620000fc60201b620017951760201c565b15905090565b6001600160a01b03163b151590565b612af2806200011b6000396000f3fe608060405234801561001057600080fd5b50600436106101e55760003560e01c80638456cb591161010f578063a217fddf116100a2578063ea39e7af11610071578063ea39e7af14610421578063ed5b3d0414610434578063f076714214610449578063ff7f26271461045c57600080fd5b8063a217fddf146103e9578063b5545a3c146103f1578063d46fbab7146103f9578063d547741f1461040e57600080fd5b806390f4e4bc116100de57806390f4e4bc146103a757806391d14854146103ba57806392ca1e8d146103cd578063a0b02449146103d657600080fd5b80638456cb59146103285780638d547728146103305780638eb0c7cb146103455780638ff046bb1461035857600080fd5b80632f2ff15d116101875780635c975abb116101565780635c975abb146102f75780636e7830231461030257806375b238fc1461030b5780638129fc1c1461032057600080fd5b80632f2ff15d1461029d57806336568abe146102b05780633f4ba83a146102c357806359285c3a146102cb57600080fd5b80631aa34945116101c35780631aa349451461023e57806321937d0314610251578063248a9ca3146102715780632e7940081461029457600080fd5b806301ffc9a7146101ea5780630a5b907d1461021257806311856c6914610227575b600080fd5b6101fd6101f83660046120fa565b610465565b60405190151581526020015b60405180910390f35b6102256102203660046122d4565b61049c565b005b61023060fb5481565b604051908152602001610209565b61022561024c366004612319565b610781565b61026461025f3660046123a5565b6107ea565b60405161020991906124c6565b61023061027f3660046124d9565b60009081526065602052604090206001015490565b61023060ff5481565b6102256102ab3660046124f2565b610938565b6102256102be3660046124f2565b610963565b6102256109e6565b610100546102df906001600160a01b031681565b6040516001600160a01b039091168152602001610209565b60c95460ff166101fd565b61023060fc5481565b610230600080516020612a9d83398151915281565b610225610a0a565b610225610b58565b610338610b79565b6040516102099190612522565b6102256103533660046124d9565b610dc0565b61036b6103663660046124d9565b610ddf565b604051610209919081516001600160a01b0316815260208083015190820152604080830151908201526060918201519181019190915260800190565b6102256103b5366004612613565b610e80565b6101fd6103c83660046124f2565b610fb3565b61023060fd5481565b6102256103e43660046126e7565b610fde565b610230600081565b6102256110f0565b610230600080516020612a7d83398151915281565b61022561041c3660046124f2565b6114aa565b61022561042f3660046123a5565b6114d0565b61043c61160e565b604051610209919061278d565b6102646104573660046123a5565b61163a565b61023060fe5481565b60006001600160e01b03198216637965db0b60e01b148061049657506301ffc9a760e01b6001600160e01b03198316145b92915050565b600080516020612a7d8339815191526104b581336117a4565b82516001600160a01b031660009081526101016020526040812090805b82548110156105c8576105a88360000182815481106104f3576104f36127da565b9060005260206000209060070201600201805461050f906127f0565b80601f016020809104026020016040519081016040528092919081815260200182805461053b906127f0565b80156105885780601f1061055d57610100808354040283529160200191610588565b820191906000526020600020905b81548152906001019060200180831161056b57829003601f168201915b505050505087604001518051602091820120825192909101919091201490565b156105b657600191506105c8565b806105c08161283b565b9150506104d2565b508061077a576105d6612022565b85516001600160a01b0390811682526020808801518184019081526040808a01519085019081526060808b0151908601526080808b01519086015260a0808b01519086015260c0808b01511515908601528654600180820189556000898152859020875160079093020180546001600160a01b0319169290961691909117855591519184019190915551805184939261067692600285019291019061206a565b50606082015160038201556080820151600482015560a0820151600582015560c0909101516006909101805460ff191691151591909117905580516106be9061010290611808565b5085516106ce9061010690611824565b6106e25785516106dd906114d0565b61073b565b60a08601516000868152610105602052604081206001018054909190610709908490612856565b909155505060a08601516000868152610105602052604081206003018054909190610735908490612856565b90915550505b846101048760400151604051610751919061286e565b90815260405190819003602001902055606081015160fc54101561077857606081015160fc555b505b5050505050565b600080516020612a9d83398151915261079a81336117a4565b5080516000928352610105602090815260409384902080546001600160a01b0319166001600160a01b03909316929092178255820151600182015591810151600283015560600151600390910155565b606060006107f78361163a565b90506000805b825181101561084b57828181518110610818576108186127da565b602090810291909101015160c0015161083957816108358161283b565b9250505b806108438161283b565b9150506107fd565b5060008167ffffffffffffffff81111561086757610867612124565b6040519080825280602002602001820160405280156108a057816020015b61088d612022565b8152602001906001900390816108855790505b5090506000805b845181101561092d578481815181106108c2576108c26127da565b602090810291909101015160c0015161091b578481815181106108e7576108e76127da565b6020026020010151838381518110610901576109016127da565b602002602001018190525081806109179061283b565b9250505b806109258161283b565b9150506108a7565b509095945050505050565b60008281526065602052604090206001015461095481336117a4565b61095e8383611846565b505050565b6001600160a01b03811633146109d85760405162461bcd60e51b815260206004820152602f60248201527f416363657373436f6e74726f6c3a2063616e206f6e6c792072656e6f756e636560448201526e103937b632b9903337b91039b2b63360891b60648201526084015b60405180910390fd5b6109e282826118cc565b5050565b600080516020612a9d8339815191526109ff81336117a4565b610a07611933565b50565b600054610100900460ff16610a255760005460ff1615610a29565b303b155b610a8c5760405162461bcd60e51b815260206004820152602e60248201527f496e697469616c697a61626c653a20636f6e747261637420697320616c72656160448201526d191e481a5b9a5d1a585b1a5e995960921b60648201526084016109cf565b600054610100900460ff16158015610aae576000805461ffff19166101011790555b610ab66119c6565b610abe6119ef565b610ac6611a1e565b610ad1600033611846565b610ae9600080516020612a9d83398151915233611846565b610b01600080516020612a7d83398151915233611846565b630184cf5160fb81905560fc5561010080546001600160a01b03191673d6e76742962379e234e9fd4e73768cef779f38b5179055600060fd81905560fe81905560ff558015610a07576000805461ff001916905550565b600080516020612a9d833981519152610b7181336117a4565b610a07611a4d565b6060600080516020612a9d833981519152610b9481336117a4565b60606000610ba061160e565b905060005b8151811015610db65760005b6101016000848481518110610bc857610bc86127da565b6020908102919091018101516001600160a01b0316825281019190915260400160002054811015610da3576101016000848481518110610c0a57610c0a6127da565b60200260200101516001600160a01b03166001600160a01b031681526020019081526020016000206000018181548110610c4657610c466127da565b90600052602060002090600702016040518060e00160405290816000820160009054906101000a90046001600160a01b03166001600160a01b03166001600160a01b0316815260200160018201548152602001600282018054610ca8906127f0565b80601f0160208091040260200160405190810160405280929190818152602001828054610cd4906127f0565b8015610d215780601f10610cf657610100808354040283529160200191610d21565b820191906000526020600020905b815481529060010190602001808311610d0457829003601f168201915b505050918352505060038201546020820152600482015460408201526005820154606082015260069091015460ff1615156080909101528451859084908110610d6c57610d6c6127da565b60200260200101518281518110610d8557610d856127da565b60200260200101819052508080610d9b9061283b565b915050610bb1565b5080610dae8161283b565b915050610ba5565b50909250505b5090565b600080516020612a9d833981519152610dd981336117a4565b5060fb55565b610e13604051806080016040528060006001600160a01b031681526020016000815260200160008152602001600081525090565b600080516020612a9d833981519152610e2c81336117a4565b60008381526101056020908152604091829020825160808101845281546001600160a01b03168152600182015492810192909252600281015492820192909252600390910154606082015291505b50919050565b600080516020612a9d833981519152610e9981336117a4565b8151835114610efc5760405162461bcd60e51b815260206004820152602960248201527f7478486173686573206c656e677468206d757374206d6174636820706f6f6c496044820152680c8e640d8cadccee8d60bb1b60648201526084016109cf565b6000835111610f3b5760405162461bcd60e51b815260206004820152600b60248201526a115b5c1d1e481a5b9c1d5d60aa1b60448201526064016109cf565b60005b8351811015610fad57828181518110610f5957610f596127da565b6020026020010151610104858381518110610f7657610f766127da565b6020026020010151604051610f8b919061286e565b9081526040519081900360200190205580610fa58161283b565b915050610f3e565b50505050565b60009182526065602090815260408084206001600160a01b0393909316845291905290205460ff1690565b600080516020612a7d833981519152610ff781336117a4565b81518351146110575760405162461bcd60e51b815260206004820152602660248201527f526566756e64206c656e677468206d757374206d6174636820706f6f6c4964206044820152650d8cadccee8d60d31b60648201526084016109cf565b60008351116110965760405162461bcd60e51b815260206004820152600b60248201526a115b5c1d1e481a5b9c1d5d60aa1b60448201526064016109cf565b60005b8351811015610fad576110de8482815181106110b7576110b76127da565b60200260200101518483815181106110d1576110d16127da565b602002602001015161049c565b806110e88161283b565b915050611099565b600260975414156111435760405162461bcd60e51b815260206004820152601f60248201527f5265656e7472616e637947756172643a207265656e7472616e742063616c6c0060448201526064016109cf565b600260975560c95460ff161561118e5760405162461bcd60e51b815260206004820152601060248201526f14185d5cd8589b194e881c185d5cd95960821b60448201526064016109cf565b6000611199336107ea565b51116111dc5760405162461bcd60e51b81526020600482015260126024820152714e6f2070656e64696e6720726566756e647360701b60448201526064016109cf565b33600090815261010160205260408120905b81548110156114a15781600001818154811061120c5761120c6127da565b600091825260209091206006600790920201015460ff1661148f576000610104836000018381548110611241576112416127da565b906000526020600020906007020160020160405161125f919061288a565b908152604080516020928190038301812054600081815261010590945291832080546370a0823160e01b835230600484015292945092916001600160a01b0316906370a082319060240160206040518083038186803b1580156112c157600080fd5b505afa1580156112d5573d6000803e3d6000fd5b505050506040513d601f19601f820116820180604052508101906112f99190612926565b9050846000018481548110611310576113106127da565b90600052602060002090600702016005015481116113965760405162461bcd60e51b815260206004820152603a60248201527f496e73756666696369656e7420636f6e74726163742062616c616e636520746f60448201527f20726566756e642e204e6f7469667920696e20646973636f726400000000000060648201526084016109cf565b60018560000185815481106113ad576113ad6127da565b60009182526020909120600790910201600601805460ff191691151591909117905584548590859081106113e3576113e36127da565b9060005260206000209060070201600501548260020160008282546114089190612856565b90915550508454859085908110611421576114216127da565b906000526020600020906007020160050154826003016000828254611446919061293f565b9091555061148b905033866000018681548110611465576114656127da565b600091825260209091206005600790920201015484546001600160a01b03169190611ac8565b5050505b806114998161283b565b9150506111ee565b50506001609755565b6000828152606560205260409020600101546114c681336117a4565b61095e83836118cc565b600080516020612a9d8339815191526114e981336117a4565b6114f561010683611824565b156114fe575050565b60006115098361163a565b905060005b815181101561160157600061010483838151811061152e5761152e6127da565b602002602001015160400151604051611547919061286e565b908152602001604051809103902054905082828151811061156a5761156a6127da565b602002602001015160a001516101056000838152602001908152602001600020600101600082825461159c9190612856565b925050819055508282815181106115b5576115b56127da565b602002602001015160a00151610105600083815260200190815260200160002060030160008282546115e79190612856565b909155508291506115f990508161283b565b91505061150e565b50610fad61010684611808565b6060600080516020612a9d83398151915261162981336117a4565b611634610102611b1a565b91505090565b6001600160a01b038116600090815261010160209081526040808320805482518185028101850190935280835260609492939192909184015b8282101561178a5760008481526020908190206040805160e0810182526007860290920180546001600160a01b03168352600181015493830193909352600283018054929392918401916116c6906127f0565b80601f01602080910402602001604051908101604052809291908181526020018280546116f2906127f0565b801561173f5780601f106117145761010080835404028352916020019161173f565b820191906000526020600020905b81548152906001019060200180831161172257829003601f168201915b50505091835250506003820154602080830191909152600483015460408301526005830154606083015260069092015460ff1615156080909101529082526001929092019101611673565b505050509050919050565b6001600160a01b03163b151590565b6117ae8282610fb3565b6109e2576117c6816001600160a01b03166014611b27565b6117d1836020611b27565b6040516020016117e2929190612956565b60408051601f198184030181529082905262461bcd60e51b82526109cf916004016129cb565b600061181d836001600160a01b038416611cc3565b9392505050565b6001600160a01b0381166000908152600183016020526040812054151561181d565b6118508282610fb3565b6109e25760008281526065602090815260408083206001600160a01b03851684529091529020805460ff191660011790556118883390565b6001600160a01b0316816001600160a01b0316837f2f8788117e7eff1d82e926ec794901d17c78024a50270940304540a733656f0d60405160405180910390a45050565b6118d68282610fb3565b156109e25760008281526065602090815260408083206001600160a01b0385168085529252808320805460ff1916905551339285917ff6391f5c32d9c69d2a47ea670b442974b53935d1edc7fd64eb21e047a839171b9190a45050565b60c95460ff1661197c5760405162461bcd60e51b815260206004820152601460248201527314185d5cd8589b194e881b9bdd081c185d5cd95960621b60448201526064016109cf565b60c9805460ff191690557f5db9ee0a495bf2e6ff9c91a7834c1ba4fdd244a5e8aa4e537bd38aeae4b073aa335b6040516001600160a01b03909116815260200160405180910390a1565b600054610100900460ff166119ed5760405162461bcd60e51b81526004016109cf906129de565b565b600054610100900460ff16611a165760405162461bcd60e51b81526004016109cf906129de565b6119ed611d12565b600054610100900460ff16611a455760405162461bcd60e51b81526004016109cf906129de565b6119ed611d40565b60c95460ff1615611a935760405162461bcd60e51b815260206004820152601060248201526f14185d5cd8589b194e881c185d5cd95960821b60448201526064016109cf565b60c9805460ff191660011790557f62e78cea01bee320cd4e420270b5ea74000d11b0c9f74754ebdbfc544b05a2586119a93390565b604080516001600160a01b038416602482015260448082018490528251808303909101815260649091019091526020810180516001600160e01b031663a9059cbb60e01b17905261095e908490611d73565b6060600061181d83611e45565b60606000611b36836002612a29565b611b41906002612856565b67ffffffffffffffff811115611b5957611b59612124565b6040519080825280601f01601f191660200182016040528015611b83576020820181803683370190505b509050600360fc1b81600081518110611b9e57611b9e6127da565b60200101906001600160f81b031916908160001a905350600f60fb1b81600181518110611bcd57611bcd6127da565b60200101906001600160f81b031916908160001a9053506000611bf1846002612a29565b611bfc906001612856565b90505b6001811115611c74576f181899199a1a9b1b9c1cb0b131b232b360811b85600f1660108110611c3057611c306127da565b1a60f81b828281518110611c4657611c466127da565b60200101906001600160f81b031916908160001a90535060049490941c93611c6d81612a48565b9050611bff565b50831561181d5760405162461bcd60e51b815260206004820181905260248201527f537472696e67733a20686578206c656e67746820696e73756666696369656e7460448201526064016109cf565b6000818152600183016020526040812054611d0a57508154600181810184556000848152602080822090930184905584548482528286019093526040902091909155610496565b506000610496565b600054610100900460ff16611d395760405162461bcd60e51b81526004016109cf906129de565b6001609755565b600054610100900460ff16611d675760405162461bcd60e51b81526004016109cf906129de565b60c9805460ff19169055565b6000611dc8826040518060400160405280602081526020017f5361666545524332303a206c6f772d6c6576656c2063616c6c206661696c6564815250856001600160a01b0316611ea19092919063ffffffff16565b80519091501561095e5780806020019051810190611de69190612a5f565b61095e5760405162461bcd60e51b815260206004820152602a60248201527f5361666545524332303a204552433230206f7065726174696f6e20646964206e6044820152691bdd081cdd58d8d9595960b21b60648201526084016109cf565b606081600001805480602002602001604051908101604052809291908181526020018280548015611e9557602002820191906000526020600020905b815481526020019060010190808311611e81575b50505050509050919050565b6060611eb08484600085611eb8565b949350505050565b606082471015611f195760405162461bcd60e51b815260206004820152602660248201527f416464726573733a20696e73756666696369656e742062616c616e636520666f6044820152651c8818d85b1b60d21b60648201526084016109cf565b6001600160a01b0385163b611f705760405162461bcd60e51b815260206004820152601d60248201527f416464726573733a2063616c6c20746f206e6f6e2d636f6e747261637400000060448201526064016109cf565b600080866001600160a01b03168587604051611f8c919061286e565b60006040518083038185875af1925050503d8060008114611fc9576040519150601f19603f3d011682016040523d82523d6000602084013e611fce565b606091505b5091509150611fde828286611fe9565b979650505050505050565b60608315611ff857508161181d565b8251156120085782518084602001fd5b8160405162461bcd60e51b81526004016109cf91906129cb565b6040518060e0016040528060006001600160a01b0316815260200160008152602001606081526020016000815260200160008152602001600081526020016000151581525090565b828054612076906127f0565b90600052602060002090601f01602090048101928261209857600085556120de565b82601f106120b157805160ff19168380011785556120de565b828001600101855582156120de579182015b828111156120de5782518255916020019190600101906120c3565b50610dbc9291505b80821115610dbc57600081556001016120e6565b60006020828403121561210c57600080fd5b81356001600160e01b03198116811461181d57600080fd5b634e487b7160e01b600052604160045260246000fd5b60405160e0810167ffffffffffffffff8111828210171561215d5761215d612124565b60405290565b604051601f8201601f1916810167ffffffffffffffff8111828210171561218c5761218c612124565b604052919050565b6001600160a01b0381168114610a0757600080fd5b80356121b481612194565b919050565b600082601f8301126121ca57600080fd5b813567ffffffffffffffff8111156121e4576121e4612124565b6121f7601f8201601f1916602001612163565b81815284602083860101111561220c57600080fd5b816020850160208301376000918101602001919091529392505050565b8015158114610a0757600080fd5b80356121b481612229565b600060e0828403121561225457600080fd5b61225c61213a565b9050612267826121a9565b815260208201356020820152604082013567ffffffffffffffff81111561228d57600080fd5b612299848285016121b9565b604083015250606082013560608201526080820135608082015260a082013560a08201526122c960c08301612237565b60c082015292915050565b600080604083850312156122e757600080fd5b823567ffffffffffffffff8111156122fe57600080fd5b61230a85828601612242565b95602094909401359450505050565b60008082840360a081121561232d57600080fd5b833592506080601f198201121561234357600080fd5b506040516080810181811067ffffffffffffffff8211171561236757612367612124565b604052602084013561237881612194565b80825250604084013560208201526060840135604082015260808401356060820152809150509250929050565b6000602082840312156123b757600080fd5b813561181d81612194565b60005b838110156123dd5781810151838201526020016123c5565b83811115610fad5750506000910152565b600081518084526124068160208601602086016123c2565b601f01601f19169290920160200192915050565b600081518084526020808501808196508360051b8101915082860160005b858110156124b9578284038952815180516001600160a01b03168552858101518686015260408082015160e08288018190529190612478838901826123ee565b606085810151908a0152608080860151908a015260a080860151908a015260c094850151151594909801939093525050509784019790840190600101612438565b5091979650505050505050565b60208152600061181d602083018461241a565b6000602082840312156124eb57600080fd5b5035919050565b6000806040838503121561250557600080fd5b82359150602083013561251781612194565b809150509250929050565b6000602080830181845280855180835260408601915060408160051b870101925083870160005b8281101561257757603f1988860301845261256585835161241a565b94509285019290850190600101612549565b5092979650505050505050565b600067ffffffffffffffff82111561259e5761259e612124565b5060051b60200190565b600082601f8301126125b957600080fd5b813560206125ce6125c983612584565b612163565b82815260059290921b840181019181810190868411156125ed57600080fd5b8286015b8481101561260857803583529183019183016125f1565b509695505050505050565b6000806040838503121561262657600080fd5b823567ffffffffffffffff8082111561263e57600080fd5b818501915085601f83011261265257600080fd5b813560206126626125c983612584565b82815260059290921b8401810191818101908984111561268157600080fd5b8286015b848110156126b95780358681111561269d5760008081fd5b6126ab8c86838b01016121b9565b845250918301918301612685565b50965050860135925050808211156126d057600080fd5b506126dd858286016125a8565b9150509250929050565b600080604083850312156126fa57600080fd5b823567ffffffffffffffff8082111561271257600080fd5b818501915085601f83011261272657600080fd5b813560206127366125c983612584565b82815260059290921b8401810191818101908984111561275557600080fd5b8286015b848110156126b9578035868111156127715760008081fd5b61277f8c86838b0101612242565b845250918301918301612759565b6020808252825182820181905260009190848201906040850190845b818110156127ce5783516001600160a01b0316835292840192918401916001016127a9565b50909695505050505050565b634e487b7160e01b600052603260045260246000fd5b600181811c9082168061280457607f821691505b60208210811415610e7a57634e487b7160e01b600052602260045260246000fd5b634e487b7160e01b600052601160045260246000fd5b600060001982141561284f5761284f612825565b5060010190565b6000821982111561286957612869612825565b500190565b600082516128808184602087016123c2565b9190910192915050565b600080835481600182811c9150808316806128a657607f831692505b60208084108214156128c657634e487b7160e01b86526022600452602486fd5b8180156128da57600181146128eb57612918565b60ff19861689528489019650612918565b60008a81526020902060005b868110156129105781548b8201529085019083016128f7565b505084890196505b509498975050505050505050565b60006020828403121561293857600080fd5b5051919050565b60008282101561295157612951612825565b500390565b7f416363657373436f6e74726f6c3a206163636f756e742000000000000000000081526000835161298e8160178501602088016123c2565b7001034b99036b4b9b9b4b733903937b6329607d1b60179184019182015283516129bf8160288401602088016123c2565b01602801949350505050565b60208152600061181d60208301846123ee565b6020808252602b908201527f496e697469616c697a61626c653a20636f6e7472616374206973206e6f74206960408201526a6e697469616c697a696e6760a81b606082015260800190565b6000816000190483118215151615612a4357612a43612825565b500290565b600081612a5757612a57612825565b506000190190565b600060208284031215612a7157600080fd5b815161181d8161222956fefa1e1e55aab7c0e3c46cc6e18746f0998e83fcd9df45896dbb1db42e5637efa8a49807205ce4d355092ef5a8a18f56e8913cf4a201fbe287825b095693c21775a264697066735822122074c302a64f23f871360be83b8044d2d1e060f8aa9de24ea22c34a3c0a9e56fe564736f6c63430008090033",
  "linkReferences": {},
  "deployedLinkReferences": {}
}