{
  "_format": "hh-sol-artifact-1",
  "contractName": "EvoToken",
  "sourceName": "contracts/ERC20/EvoToken.sol",
  "abi": [
    {
      "inputs": [
        {
          "internalType": "string",
          "name": "_name",
          "type": "string"
        },
        {
          "internalType": "string",
          "name": "_symbol",
          "type": "string"
        },
        {
          "internalType": "uint256",
          "name": "cap_",
          "type": "uint256"
        },
        {
          "internalType": "uint256",
          "name": "_manualMintLimit",
          "type": "uint256"
        },
        {
          "internalType": "uint256",
          "name": "_lockFromBlock",
          "type": "uint256"
        },
        {
          "internalType": "uint256",
          "name": "_lockToBlock",
          "type": "uint256"
        }
      ],
      "stateMutability": "nonpayable",
      "type": "constructor"
    },
    {
      "anonymous": false,
      "inputs": [
        {
          "indexed": true,
          "internalType": "address",
          "name": "owner",
          "type": "address"
        },
        {
          "indexed": true,
          "internalType": "address",
          "name": "spender",
          "type": "address"
        },
        {
          "indexed": false,
          "internalType": "uint256",
          "name": "value",
          "type": "uint256"
        }
      ],
      "name": "Approval",
      "type": "event"
    },
    {
      "anonymous": false,
      "inputs": [
        {
          "indexed": true,
          "internalType": "address",
          "name": "delegator",
          "type": "address"
        },
        {
          "indexed": true,
          "internalType": "address",
          "name": "fromDelegate",
          "type": "address"
        },
        {
          "indexed": true,
          "internalType": "address",
          "name": "toDelegate",
          "type": "address"
        }
      ],
      "name": "DelegateChanged",
      "type": "event"
    },
    {
      "anonymous": false,
      "inputs": [
        {
          "indexed": true,
          "internalType": "address",
          "name": "delegate",
          "type": "address"
        },
        {
          "indexed": false,
          "internalType": "uint256",
          "name": "previousBalance",
          "type": "uint256"
        },
        {
          "indexed": false,
          "internalType": "uint256",
          "name": "newBalance",
          "type": "uint256"
        }
      ],
      "name": "DelegateVotesChanged",
      "type": "event"
    },
    {
      "anonymous": false,
      "inputs": [
        {
          "indexed": true,
          "internalType": "address",
          "name": "to",
          "type": "address"
        },
        {
          "indexed": false,
          "internalType": "uint256",
          "name": "value",
          "type": "uint256"
        }
      ],
      "name": "Lock",
      "type": "event"
    },
    {
      "anonymous": false,
      "inputs": [
        {
          "indexed": false,
          "internalType": "uint256",
          "name": "previousRate",
          "type": "uint256"
        },
        {
          "indexed": false,
          "internalType": "uint256",
          "name": "newRate",
          "type": "uint256"
        }
      ],
      "name": "MaxTransferAmountRateUpdated",
      "type": "event"
    },
    {
      "anonymous": false,
      "inputs": [
        {
          "indexed": true,
          "internalType": "address",
          "name": "previousOwner",
          "type": "address"
        },
        {
          "indexed": true,
          "internalType": "address",
          "name": "newOwner",
          "type": "address"
        }
      ],
      "name": "OwnershipTransferred",
      "type": "event"
    },
    {
      "anonymous": false,
      "inputs": [
        {
          "indexed": true,
          "internalType": "address",
          "name": "from",
          "type": "address"
        },
        {
          "indexed": true,
          "internalType": "address",
          "name": "to",
          "type": "address"
        },
        {
          "indexed": false,
          "internalType": "uint256",
          "name": "value",
          "type": "uint256"
        }
      ],
      "name": "Transfer",
      "type": "event"
    },
    {
      "anonymous": false,
      "inputs": [
        {
          "indexed": true,
          "internalType": "address",
          "name": "to",
          "type": "address"
        },
        {
          "indexed": false,
          "internalType": "uint256",
          "name": "value",
          "type": "uint256"
        }
      ],
      "name": "Unlock",
      "type": "event"
    },
    {
      "inputs": [],
      "name": "DELEGATION_TYPEHASH",
      "outputs": [
        {
          "internalType": "bytes32",
          "name": "",
          "type": "bytes32"
        }
      ],
      "stateMutability": "view",
      "type": "function"
    },
    {
      "inputs": [],
      "name": "DOMAIN_TYPEHASH",
      "outputs": [
        {
          "internalType": "bytes32",
          "name": "",
          "type": "bytes32"
        }
      ],
      "stateMutability": "view",
      "type": "function"
    },
    {
      "inputs": [
        {
          "internalType": "address",
          "name": "_toAdd",
          "type": "address"
        }
      ],
      "name": "addAuthorized",
      "outputs": [],
      "stateMutability": "nonpayable",
      "type": "function"
    },
    {
      "inputs": [
        {
          "internalType": "address",
          "name": "owner",
          "type": "address"
        },
        {
          "internalType": "address",
          "name": "spender",
          "type": "address"
        }
      ],
      "name": "allowance",
      "outputs": [
        {
          "internalType": "uint256",
          "name": "",
          "type": "uint256"
        }
      ],
      "stateMutability": "view",
      "type": "function"
    },
    {
      "inputs": [
        {
          "internalType": "address",
          "name": "spender",
          "type": "address"
        },
        {
          "internalType": "uint256",
          "name": "amount",
          "type": "uint256"
        }
      ],
      "name": "approve",
      "outputs": [
        {
          "internalType": "bool",
          "name": "",
          "type": "bool"
        }
      ],
      "stateMutability": "nonpayable",
      "type": "function"
    },
    {
      "inputs": [
        {
          "internalType": "address",
          "name": "",
          "type": "address"
        }
      ],
      "name": "authorized",
      "outputs": [
        {
          "internalType": "bool",
          "name": "",
          "type": "bool"
        }
      ],
      "stateMutability": "view",
      "type": "function"
    },
    {
      "inputs": [
        {
          "internalType": "address",
          "name": "account",
          "type": "address"
        }
      ],
      "name": "balanceOf",
      "outputs": [
        {
          "internalType": "uint256",
          "name": "",
          "type": "uint256"
        }
      ],
      "stateMutability": "view",
      "type": "function"
    },
    {
      "inputs": [
        {
          "internalType": "address",
          "name": "_holder",
          "type": "address"
        }
      ],
      "name": "canUnlockAmount",
      "outputs": [
        {
          "internalType": "uint256",
          "name": "",
          "type": "uint256"
        }
      ],
      "stateMutability": "view",
      "type": "function"
    },
    {
      "inputs": [],
      "name": "cap",
      "outputs": [
        {
          "internalType": "uint256",
          "name": "",
          "type": "uint256"
        }
      ],
      "stateMutability": "view",
      "type": "function"
    },
    {
      "inputs": [
        {
          "internalType": "uint256",
          "name": "_newCap",
          "type": "uint256"
        }
      ],
      "name": "capUpdate",
      "outputs": [],
      "stateMutability": "nonpayable",
      "type": "function"
    },
    {
      "inputs": [
        {
          "internalType": "address",
          "name": "",
          "type": "address"
        },
        {
          "internalType": "uint32",
          "name": "",
          "type": "uint32"
        }
      ],
      "name": "checkpoints",
      "outputs": [
        {
          "internalType": "uint32",
          "name": "fromBlock",
          "type": "uint32"
        },
        {
          "internalType": "uint256",
          "name": "votes",
          "type": "uint256"
        }
      ],
      "stateMutability": "view",
      "type": "function"
    },
    {
      "inputs": [],
      "name": "circulatingSupply",
      "outputs": [
        {
          "internalType": "uint256",
          "name": "",
          "type": "uint256"
        }
      ],
      "stateMutability": "view",
      "type": "function"
    },
    {
      "inputs": [],
      "name": "decimals",
      "outputs": [
        {
          "internalType": "uint8",
          "name": "",
          "type": "uint8"
        }
      ],
      "stateMutability": "view",
      "type": "function"
    },
    {
      "inputs": [
        {
          "internalType": "address",
          "name": "spender",
          "type": "address"
        },
        {
          "internalType": "uint256",
          "name": "subtractedValue",
          "type": "uint256"
        }
      ],
      "name": "decreaseAllowance",
      "outputs": [
        {
          "internalType": "bool",
          "name": "",
          "type": "bool"
        }
      ],
      "stateMutability": "nonpayable",
      "type": "function"
    },
    {
      "inputs": [
        {
          "internalType": "address",
          "name": "delegatee",
          "type": "address"
        }
      ],
      "name": "delegate",
      "outputs": [],
      "stateMutability": "nonpayable",
      "type": "function"
    },
    {
      "inputs": [
        {
          "internalType": "address",
          "name": "delegatee",
          "type": "address"
        },
        {
          "internalType": "uint256",
          "name": "nonce",
          "type": "uint256"
        },
        {
          "internalType": "uint256",
          "name": "expiry",
          "type": "uint256"
        },
        {
          "internalType": "uint8",
          "name": "v",
          "type": "uint8"
        },
        {
          "internalType": "bytes32",
          "name": "r",
          "type": "bytes32"
        },
        {
          "internalType": "bytes32",
          "name": "s",
          "type": "bytes32"
        }
      ],
      "name": "delegateBySig",
      "outputs": [],
      "stateMutability": "nonpayable",
      "type": "function"
    },
    {
      "inputs": [
        {
          "internalType": "address",
          "name": "delegator",
          "type": "address"
        }
      ],
      "name": "delegates",
      "outputs": [
        {
          "internalType": "address",
          "name": "",
          "type": "address"
        }
      ],
      "stateMutability": "view",
      "type": "function"
    },
    {
      "inputs": [],
      "name": "getChainId",
      "outputs": [
        {
          "internalType": "uint256",
          "name": "",
          "type": "uint256"
        }
      ],
      "stateMutability": "view",
      "type": "function"
    },
    {
      "inputs": [
        {
          "internalType": "address",
          "name": "account",
          "type": "address"
        }
      ],
      "name": "getCurrentVotes",
      "outputs": [
        {
          "internalType": "uint256",
          "name": "",
          "type": "uint256"
        }
      ],
      "stateMutability": "view",
      "type": "function"
    },
    {
      "inputs": [
        {
          "internalType": "address",
          "name": "account",
          "type": "address"
        },
        {
          "internalType": "uint256",
          "name": "blockNumber",
          "type": "uint256"
        }
      ],
      "name": "getPriorVotes",
      "outputs": [
        {
          "internalType": "uint256",
          "name": "",
          "type": "uint256"
        }
      ],
      "stateMutability": "view",
      "type": "function"
    },
    {
      "inputs": [
        {
          "internalType": "address",
          "name": "spender",
          "type": "address"
        },
        {
          "internalType": "uint256",
          "name": "addedValue",
          "type": "uint256"
        }
      ],
      "name": "increaseAllowance",
      "outputs": [
        {
          "internalType": "bool",
          "name": "",
          "type": "bool"
        }
      ],
      "stateMutability": "nonpayable",
      "type": "function"
    },
    {
      "inputs": [
        {
          "internalType": "address",
          "name": "_holder",
          "type": "address"
        }
      ],
      "name": "lastUnlockBlock",
      "outputs": [
        {
          "internalType": "uint256",
          "name": "",
          "type": "uint256"
        }
      ],
      "stateMutability": "view",
      "type": "function"
    },
    {
      "inputs": [
        {
          "internalType": "address",
          "name": "_holder",
          "type": "address"
        },
        {
          "internalType": "uint256",
          "name": "_amount",
          "type": "uint256"
        }
      ],
      "name": "lock",
      "outputs": [],
      "stateMutability": "nonpayable",
      "type": "function"
    },
    {
      "inputs": [],
      "name": "lockFromBlock",
      "outputs": [
        {
          "internalType": "uint256",
          "name": "",
          "type": "uint256"
        }
      ],
      "stateMutability": "view",
      "type": "function"
    },
    {
      "inputs": [
        {
          "internalType": "uint256",
          "name": "_newLockFrom",
          "type": "uint256"
        }
      ],
      "name": "lockFromUpdate",
      "outputs": [],
      "stateMutability": "nonpayable",
      "type": "function"
    },
    {
      "inputs": [
        {
          "internalType": "address",
          "name": "_holder",
          "type": "address"
        }
      ],
      "name": "lockOf",
      "outputs": [
        {
          "internalType": "uint256",
          "name": "",
          "type": "uint256"
        }
      ],
      "stateMutability": "view",
      "type": "function"
    },
    {
      "inputs": [],
      "name": "lockToBlock",
      "outputs": [
        {
          "internalType": "uint256",
          "name": "",
          "type": "uint256"
        }
      ],
      "stateMutability": "view",
      "type": "function"
    },
    {
      "inputs": [
        {
          "internalType": "uint256",
          "name": "_newLockTo",
          "type": "uint256"
        }
      ],
      "name": "lockToUpdate",
      "outputs": [],
      "stateMutability": "nonpayable",
      "type": "function"
    },
    {
      "inputs": [],
      "name": "lockedSupply",
      "outputs": [
        {
          "internalType": "uint256",
          "name": "",
          "type": "uint256"
        }
      ],
      "stateMutability": "view",
      "type": "function"
    },
    {
      "inputs": [
        {
          "internalType": "address",
          "name": "_to",
          "type": "address"
        },
        {
          "internalType": "uint256",
          "name": "_amount",
          "type": "uint256"
        }
      ],
      "name": "manualMint",
      "outputs": [],
      "stateMutability": "nonpayable",
      "type": "function"
    },
    {
      "inputs": [],
      "name": "manualMintLimit",
      "outputs": [
        {
          "internalType": "uint256",
          "name": "",
          "type": "uint256"
        }
      ],
      "stateMutability": "view",
      "type": "function"
    },
    {
      "inputs": [],
      "name": "manualMinted",
      "outputs": [
        {
          "internalType": "uint256",
          "name": "",
          "type": "uint256"
        }
      ],
      "stateMutability": "view",
      "type": "function"
    },
    {
      "inputs": [],
      "name": "maxTransferAmount",
      "outputs": [
        {
          "internalType": "uint256",
          "name": "",
          "type": "uint256"
        }
      ],
      "stateMutability": "view",
      "type": "function"
    },
    {
      "inputs": [],
      "name": "maxTransferAmountRate",
      "outputs": [
        {
          "internalType": "uint16",
          "name": "",
          "type": "uint16"
        }
      ],
      "stateMutability": "view",
      "type": "function"
    },
    {
      "inputs": [],
      "name": "miner",
      "outputs": [
        {
          "internalType": "address",
          "name": "",
          "type": "address"
        }
      ],
      "stateMutability": "view",
      "type": "function"
    },
    {
      "inputs": [
        {
          "internalType": "address",
          "name": "_to",
          "type": "address"
        },
        {
          "internalType": "uint256",
          "name": "_amount",
          "type": "uint256"
        }
      ],
      "name": "mint",
      "outputs": [],
      "stateMutability": "nonpayable",
      "type": "function"
    },
    {
      "inputs": [],
      "name": "name",
      "outputs": [
        {
          "internalType": "string",
          "name": "",
          "type": "string"
        }
      ],
      "stateMutability": "view",
      "type": "function"
    },
    {
      "inputs": [
        {
          "internalType": "address",
          "name": "",
          "type": "address"
        }
      ],
      "name": "nonces",
      "outputs": [
        {
          "internalType": "uint256",
          "name": "",
          "type": "uint256"
        }
      ],
      "stateMutability": "view",
      "type": "function"
    },
    {
      "inputs": [
        {
          "internalType": "address",
          "name": "",
          "type": "address"
        }
      ],
      "name": "numCheckpoints",
      "outputs": [
        {
          "internalType": "uint32",
          "name": "",
          "type": "uint32"
        }
      ],
      "stateMutability": "view",
      "type": "function"
    },
    {
      "inputs": [],
      "name": "owner",
      "outputs": [
        {
          "internalType": "address",
          "name": "",
          "type": "address"
        }
      ],
      "stateMutability": "view",
      "type": "function"
    },
    {
      "inputs": [],
      "name": "profileAgeReq",
      "outputs": [
        {
          "internalType": "uint64",
          "name": "",
          "type": "uint64"
        }
      ],
      "stateMutability": "view",
      "type": "function"
    },
    {
      "inputs": [],
      "name": "profilesContract",
      "outputs": [
        {
          "internalType": "contract IProfiles",
          "name": "",
          "type": "address"
        }
      ],
      "stateMutability": "view",
      "type": "function"
    },
    {
      "inputs": [
        {
          "internalType": "address",
          "name": "_toRemove",
          "type": "address"
        }
      ],
      "name": "removeAuthorized",
      "outputs": [],
      "stateMutability": "nonpayable",
      "type": "function"
    },
    {
      "inputs": [],
      "name": "renounceOwnership",
      "outputs": [],
      "stateMutability": "nonpayable",
      "type": "function"
    },
    {
      "inputs": [
        {
          "internalType": "address",
          "name": "_account",
          "type": "address"
        },
        {
          "internalType": "bool",
          "name": "_excluded",
          "type": "bool"
        }
      ],
      "name": "setExcludedFromAntiWhale",
      "outputs": [],
      "stateMutability": "nonpayable",
      "type": "function"
    },
    {
      "inputs": [
        {
          "internalType": "uint64",
          "name": "_age",
          "type": "uint64"
        }
      ],
      "name": "setProfileAgeReq",
      "outputs": [
        {
          "internalType": "bool",
          "name": "success",
          "type": "bool"
        }
      ],
      "stateMutability": "nonpayable",
      "type": "function"
    },
    {
      "inputs": [
        {
          "internalType": "address",
          "name": "_profilesAddress",
          "type": "address"
        }
      ],
      "name": "setProfiles",
      "outputs": [
        {
          "internalType": "bool",
          "name": "success",
          "type": "bool"
        }
      ],
      "stateMutability": "nonpayable",
      "type": "function"
    },
    {
      "inputs": [],
      "name": "symbol",
      "outputs": [
        {
          "internalType": "string",
          "name": "",
          "type": "string"
        }
      ],
      "stateMutability": "view",
      "type": "function"
    },
    {
      "inputs": [
        {
          "internalType": "address",
          "name": "_holder",
          "type": "address"
        }
      ],
      "name": "totalBalanceOf",
      "outputs": [
        {
          "internalType": "uint256",
          "name": "",
          "type": "uint256"
        }
      ],
      "stateMutability": "view",
      "type": "function"
    },
    {
      "inputs": [],
      "name": "totalLock",
      "outputs": [
        {
          "internalType": "uint256",
          "name": "",
          "type": "uint256"
        }
      ],
      "stateMutability": "view",
      "type": "function"
    },
    {
      "inputs": [],
      "name": "totalSupply",
      "outputs": [
        {
          "internalType": "uint256",
          "name": "",
          "type": "uint256"
        }
      ],
      "stateMutability": "view",
      "type": "function"
    },
    {
      "inputs": [
        {
          "internalType": "address",
          "name": "to",
          "type": "address"
        },
        {
          "internalType": "uint256",
          "name": "amount",
          "type": "uint256"
        }
      ],
      "name": "transfer",
      "outputs": [
        {
          "internalType": "bool",
          "name": "",
          "type": "bool"
        }
      ],
      "stateMutability": "nonpayable",
      "type": "function"
    },
    {
      "inputs": [
        {
          "internalType": "address",
          "name": "_to",
          "type": "address"
        }
      ],
      "name": "transferAll",
      "outputs": [],
      "stateMutability": "nonpayable",
      "type": "function"
    },
    {
      "inputs": [
        {
          "internalType": "address",
          "name": "from",
          "type": "address"
        },
        {
          "internalType": "address",
          "name": "to",
          "type": "address"
        },
        {
          "internalType": "uint256",
          "name": "amount",
          "type": "uint256"
        }
      ],
      "name": "transferFrom",
      "outputs": [
        {
          "internalType": "bool",
          "name": "",
          "type": "bool"
        }
      ],
      "stateMutability": "nonpayable",
      "type": "function"
    },
    {
      "inputs": [
        {
          "internalType": "address",
          "name": "newOwner",
          "type": "address"
        }
      ],
      "name": "transferOwnership",
      "outputs": [],
      "stateMutability": "nonpayable",
      "type": "function"
    },
    {
      "inputs": [],
      "name": "unlock",
      "outputs": [],
      "stateMutability": "nonpayable",
      "type": "function"
    },
    {
      "inputs": [
        {
          "internalType": "address",
          "name": "account",
          "type": "address"
        },
        {
          "internalType": "uint256",
          "name": "amount",
          "type": "uint256"
        }
      ],
      "name": "unlockForUser",
      "outputs": [],
      "stateMutability": "nonpayable",
      "type": "function"
    },
    {
      "inputs": [],
      "name": "unlockedSupply",
      "outputs": [
        {
          "internalType": "uint256",
          "name": "",
          "type": "uint256"
        }
      ],
      "stateMutability": "view",
      "type": "function"
    },
    {
      "inputs": [
        {
          "internalType": "uint256",
          "name": "_newLimit",
          "type": "uint256"
        }
      ],
      "name": "updateManualMintLimit",
      "outputs": [],
      "stateMutability": "nonpayable",
      "type": "function"
    },
    {
      "inputs": [
        {
          "internalType": "uint16",
          "name": "_maxTransferAmountRate",
          "type": "uint16"
        }
      ],
      "name": "updateMaxTransferAmountRate",
      "outputs": [],
      "stateMutability": "nonpayable",
      "type": "function"
    }
  ],
  "bytecode": "0x60806040526000600c55600e8054600160a01b600160e01b03191690556011805461ffff19166127101790553480156200003857600080fd5b506040516200340f3803806200340f8339810160408190526200005b91620002e4565b8551869086906200007490600390602085019062000171565b5080516200008a90600490602084019062000171565b505050620000a7620000a16200011b60201b60201c565b6200011f565b600793909355600b91909155600955600a55505033600090815260126020526040808220805460ff1990811660019081179092557f7e7fa33969761a458e04f477e039a608702b4f924981d6653935a8319a08ad7b80548216831790553084529190922080549091169091179055620003b0565b3390565b600580546001600160a01b038381166001600160a01b0319831681179093556040519116919082907f8be0079c531659141344cd1fd0a4f28419497f9722a3daafe3b4186f6b6457e090600090a35050565b8280546200017f9062000373565b90600052602060002090601f016020900481019282620001a35760008555620001ee565b82601f10620001be57805160ff1916838001178555620001ee565b82800160010185558215620001ee579182015b82811115620001ee578251825591602001919060010190620001d1565b50620001fc92915062000200565b5090565b5b80821115620001fc576000815560010162000201565b634e487b7160e01b600052604160045260246000fd5b600082601f8301126200023f57600080fd5b81516001600160401b03808211156200025c576200025c62000217565b604051601f8301601f19908116603f0116810190828211818310171562000287576200028762000217565b81604052838152602092508683858801011115620002a457600080fd5b600091505b83821015620002c85785820183015181830184015290820190620002a9565b83821115620002da5760008385830101525b9695505050505050565b60008060008060008060c08789031215620002fe57600080fd5b86516001600160401b03808211156200031657600080fd5b620003248a838b016200022d565b975060208901519150808211156200033b57600080fd5b506200034a89828a016200022d565b95505060408701519350606087015192506080870151915060a087015190509295509295509295565b600181811c908216806200038857607f821691505b60208210811415620003aa57634e487b7160e01b600052602260045260246000fd5b50919050565b61304f80620003c06000396000f3fe608060405234801561001057600080fd5b50600436106103a45760003560e01c8063715018a6116101e9578063b91816111161010f578063e4c5ff46116100ad578063f2fde38b1161007c578063f2fde38b1461089d578063f85b84a4146108b0578063f96cbc1c146108b9578063fd3d27b8146108cc57600080fd5b8063e4c5ff4614610803578063e6b2fb4a14610816578063e7a324dc1461081f578063f1127ed81461084657600080fd5b8063c7f59a67116100e9578063c7f59a67146107c2578063ca5c7b91146107d5578063cf1c316a146107dd578063dd62ed3e146107f057600080fd5b8063b918161114610779578063c38533c61461079c578063c3cda520146107af57600080fd5b806395d89b4111610187578063a9059cbb11610156578063a9059cbb14610738578063a9e757231461074b578063af2b0f6614610753578063b4b5ea571461076657600080fd5b806395d89b4114610702578063a3a7e7f31461070a578063a457c2d71461071d578063a69df4b51461073057600080fd5b806389a2867c116101c357806389a2867c146106b75780638da5cb5b146106e05780638e875e1a146106f15780639358928b146106fa57600080fd5b8063715018a61461067c578063782d6fe1146106845780637ecebe001461069757600080fd5b806336c41a28116102ce5780634b0ee02a1161026c57806366fc237b1161023b57806366fc237b146106125780636a141e2c1461061b5780636fcfff451461062e57806370a082311461066957600080fd5b80634b0ee02a14610597578063587cde1e146105aa5780635a46d3b5146105d65780635c19a95c146105ff57600080fd5b80633ff8bf2e116102a85780633ff8bf2e1461053d57806340346c491461055e57806340c10f1914610571578063485d7d941461058457600080fd5b806336c41a281461050f57806339509351146105225780633a1aae351461053557600080fd5b8063202b176011610346578063313ce56711610315578063313ce567146104df5780633408e470146104ee578063349dc329146104f4578063355274ea1461050757600080fd5b8063202b17601461047f57806320606b701461049257806323b872dd146104b9578063282d3fdf146104cc57600080fd5b80630cb285e2116103825780630cb285e21461041157806318160ddd146104265780631abc4e76146104385780631bc528351461044b57600080fd5b806306428f02146103a957806306fdde03146103d9578063095ea7b3146103ee575b600080fd5b600e546103bc906001600160a01b031681565b6040516001600160a01b0390911681526020015b60405180910390f35b6103e16108d4565b6040516103d09190612a87565b6104016103fc366004612acf565b610966565b60405190151581526020016103d0565b61042461041f366004612afb565b610980565b005b6002545b6040519081526020016103d0565b610424610446366004612afb565b6109e1565b600e5461046690600160a01b900467ffffffffffffffff1681565b60405167ffffffffffffffff90911681526020016103d0565b61042a61048d366004612b14565b610a39565b61042a7f8cad95687ba82c2ce50e74f7b754645e5117c3a5bec8151c0726d5857980a86681565b6104016104c7366004612b31565b610b00565b6104246104da366004612acf565b610b24565b604051601281526020016103d0565b4661042a565b600d546103bc906001600160a01b031681565b60075461042a565b61040161051d366004612b14565b610d04565b610401610530366004612acf565b610e41565b60085461042a565b60115461054b9061ffff1681565b60405161ffff90911681526020016103d0565b61042461056c366004612afb565b610e63565b61042461057f366004612acf565b610ebb565b610424610592366004612b14565b610f41565b61042a6105a5366004612b14565b610fa2565b6103bc6105b8366004612b14565b6001600160a01b039081166000908152601360205260409020541690565b61042a6105e4366004612b14565b6001600160a01b03166000908152600f602052604090205490565b61042461060d366004612b14565b610fd0565b61042a60095481565b610424610629366004612b72565b610fdd565b61065461063c366004612b14565b60156020526000908152604090205463ffffffff1681565b60405163ffffffff90911681526020016103d0565b61042a610677366004612b14565b6111be565b6104246111d9565b61042a610692366004612acf565b61120f565b61042a6106a5366004612b14565b60166020526000908152604090205481565b61042a6106c5366004612b14565b6001600160a01b031660009081526010602052604090205490565b6005546001600160a01b03166103bc565b61042a600a5481565b61042a611478565b6103e1611488565b610424610718366004612b14565b611497565b61040161072b366004612acf565b611586565b610424611601565b610401610746366004612acf565b611618565b61042a611626565b610424610761366004612acf565b611651565b61042a610774366004612b14565b6116d0565b610401610787366004612b14565b60066020526000908152604090205460ff1681565b6104246107aa366004612afb565b611745565b6104246107bd366004612ba5565b61179d565b6104246107d0366004612c01565b611a77565b61042a611af5565b6104246107eb366004612b14565b611b00565b61042a6107fe366004612c3f565b611b4e565b610424610811366004612acf565b611b79565b61042a600c5481565b61042a7fe48329057bfd03d55e49b547132e39cffd9c1820ad7b9d4c5307691425d15adf81565b610881610854366004612c6d565b60146020908152600092835260408084209091529082529020805460019091015463ffffffff9091169082565b6040805163ffffffff90931683526020830191909152016103d0565b6104246108ab366004612b14565b611c7c565b61042a600b5481565b6104016108c7366004612cba565b611d14565b61042a611d97565b6060600380546108e390612cd7565b80601f016020809104026020016040519081016040528092919081815260200182805461090f90612cd7565b801561095c5780601f106109315761010080835404028352916020019161095c565b820191906000526020600020905b81548152906001019060200180831161093f57829003601f168201915b5050505050905090565b600033610974818585611daf565b60019150505b92915050565b3360009081526006602052604090205460ff16806109b75750336109ac6005546001600160a01b031690565b6001600160a01b0316145b6109dc5760405162461bcd60e51b81526004016109d390612d12565b60405180910390fd5b600a55565b3360009081526006602052604090205460ff1680610a18575033610a0d6005546001600160a01b031690565b6001600160a01b0316145b610a345760405162461bcd60e51b81526004016109d390612d12565b600b55565b6000600954431015610a4d57506000919050565b600a544310610a7257506001600160a01b03166000908152600f602052604090205490565b6001600160a01b038216600090815260106020526040812054610a959043612d5f565b6001600160a01b038416600090815260106020526040812054600a549293509091610ac09190612d5f565b6001600160a01b0385166000908152600f60205260409020549091508190610ae9908490612d76565b610af39190612dab565b949350505050565b919050565b600033610b0e858285611ed3565b610b19858585611f4d565b506001949350505050565b3360009081526006602052604090205460ff1680610b5b575033610b506005546001600160a01b031690565b6001600160a01b0316145b610b775760405162461bcd60e51b81526004016109d390612d12565b6001600160a01b038216610bcd5760405162461bcd60e51b815260206004820152601f60248201527f43616e6e6f74206c6f636b20746f20746865207a65726f20616464726573730060448201526064016109d3565b610bd6826111be565b811115610c255760405162461bcd60e51b815260206004820152601860248201527f4c6f636b20616d6f756e74206f7665722062616c616e6365000000000000000060448201526064016109d3565b610c30823083611f4d565b6001600160a01b0382166000908152600f6020526040902054610c54908290612dbf565b6001600160a01b0383166000908152600f6020526040902055600854610c7b908290612dbf565b6008556009546001600160a01b0383166000908152601060205260409020541015610cbd576009546001600160a01b0383166000908152601060205260409020555b816001600160a01b03167f625fed9875dada8643f2418b838ae0bc78d9a148a18eee4ee1979ff0f3f5d42782604051610cf891815260200190565b60405180910390a25050565b3360009081526006602052604081205460ff1680610d3b575033610d306005546001600160a01b031690565b6001600160a01b0316145b610d575760405162461bcd60e51b81526004016109d390612d12565b600082905060006001600160a01b0316816001600160a01b031663b5708ccc6040518163ffffffff1660e01b815260040160206040518083038186803b158015610da057600080fd5b505afa158015610db4573d6000803e3d6000fd5b505050506040513d601f19601f82011682018060405250810190610dd89190612dd7565b6001600160a01b03161415610e195760405162461bcd60e51b81526020600482015260076024820152661a5b9d985b1a5960ca1b60448201526064016109d3565b600e80546001600160a01b0319166001600160a01b0392909216919091179055506001919050565b600033610974818585610e548383611b4e565b610e5e9190612dbf565b611daf565b3360009081526006602052604090205460ff1680610e9a575033610e8f6005546001600160a01b031690565b6001600160a01b0316145b610eb65760405162461bcd60e51b81526004016109d390612d12565b600755565b3360009081526006602052604090205460ff1680610ef2575033610ee76005546001600160a01b031690565b6001600160a01b0316145b610f0e5760405162461bcd60e51b81526004016109d390612d12565b610f1882826121b4565b6001600160a01b03808316600090815260136020526040812054610f3d92168361229f565b5050565b6005546001600160a01b03163314610f6b5760405162461bcd60e51b81526004016109d390612df4565b6001600160a01b038116331415610f8157600080fd5b6001600160a01b03166000908152600660205260409020805460ff19169055565b6000610fad826111be565b6001600160a01b0383166000908152600f602052604090205461097a9190612dbf565b610fda33826123fe565b50565b3360009081526006602052604090205460ff16806110145750336110096005546001600160a01b031690565b6001600160a01b0316145b6110305760405162461bcd60e51b81526004016109d390612d12565b6127108161ffff1611156110d25760405162461bcd60e51b815260206004820152605760248201527f7570646174654d61785472616e73666572416d6f756e74526174653a204d617860448201527f207472616e7366657220616d6f756e742072617465206d757374206e6f74206560648201527f786365656420746865206d6178696d756d20726174652e000000000000000000608482015260a4016109d3565b60328161ffff1610156111645760405162461bcd60e51b815260206004820152604e60248201527f7570646174654d61785472616e73666572416d6f756e74526174653a204d617860448201527f207472616e7366657220616d6f756e742072617465206d757374206265206d6f60648201526d3932903a3430b710181718181a9760911b608482015260a4016109d3565b6011546040805161ffff928316815291831660208301527fff6316521befb2f41341a167cc0af9a05541f2b9d73de40cba35c37d34e87e6f910160405180910390a16011805461ffff191661ffff92909216919091179055565b6001600160a01b031660009081526020819052604090205490565b6005546001600160a01b031633146112035760405162461bcd60e51b81526004016109d390612df4565b61120d600061248d565b565b60004382106112745760405162461bcd60e51b815260206004820152602b60248201527f45766f546f6b656e3a3a6765745072696f72566f7465733a206e6f742079657460448201526a0819195d195c9b5a5b995960aa1b60648201526084016109d3565b6001600160a01b03831660009081526015602052604090205463ffffffff16806112a257600091505061097a565b6001600160a01b038416600090815260146020526040812084916112c7600185612e29565b63ffffffff90811682526020820192909252604001600020541611611330576001600160a01b03841660009081526014602052604081209061130a600184612e29565b63ffffffff1663ffffffff1681526020019081526020016000206001015491505061097a565b6001600160a01b038416600090815260146020908152604080832083805290915290205463ffffffff1683101561136b57600091505061097a565b600080611379600184612e29565b90505b8163ffffffff168163ffffffff161115611441576000600261139e8484612e29565b6113a89190612e4e565b6113b29083612e29565b6001600160a01b038816600090815260146020908152604080832063ffffffff80861685529083529281902081518083019092528054909316808252600190930154918101919091529192508714156114155760200151945061097a9350505050565b805163ffffffff1687111561142c5781935061143a565b611437600183612e29565b92505b505061137c565b506001600160a01b038516600090815260146020908152604080832063ffffffff9094168352929052206001015491505092915050565b600061148360025490565b905090565b6060600480546108e390612cd7565b336000908152600f6020526040808220546001600160a01b03841683529120546114c19190612dbf565b6001600160a01b0382166000908152600f6020908152604080832093909355600954601090915291902054101561150f576009546001600160a01b0382166000908152601060205260409020555b33600090815260106020526040808220546001600160a01b038416835291205410156115565733600090815260106020526040808220546001600160a01b03841683529120555b336000818152600f602090815260408083208390556010909152812055610fda9082611581826111be565b611f4d565b600033816115948286611b4e565b9050838110156115f45760405162461bcd60e51b815260206004820152602560248201527f45524332303a2064656372656173656420616c6c6f77616e63652062656c6f77604482015264207a65726f60d81b60648201526084016109d3565b610b198286868403611daf565b600061160c33610a39565b9050610fda33826124df565b600033610974818585611f4d565b6011546000906127109061ffff1661163d60025490565b6116479190612d76565b6114839190612dab565b3360009081526006602052604090205460ff168061168857503361167d6005546001600160a01b031690565b6001600160a01b0316145b6116a45760405162461bcd60e51b81526004016109d390612d12565b60006116af83610a39565b905080156116c1576116c183826124df565b6116cb83836124df565b505050565b6001600160a01b03811660009081526015602052604081205463ffffffff16806116fb57600061173e565b6001600160a01b03831660009081526014602052604081209061171f600184612e29565b63ffffffff1663ffffffff168152602001908152602001600020600101545b9392505050565b3360009081526006602052604090205460ff168061177c5750336117716005546001600160a01b031690565b6001600160a01b0316145b6117985760405162461bcd60e51b81526004016109d390612d12565b600955565b60007f8cad95687ba82c2ce50e74f7b754645e5117c3a5bec8151c0726d5857980a8666117c86108d4565b805190602001206117d64690565b60408051602080820195909552808201939093526060830191909152306080808401919091528151808403909101815260a0830182528051908401207fe48329057bfd03d55e49b547132e39cffd9c1820ad7b9d4c5307691425d15adf60c08401526001600160a01b038b1660e084015261010083018a90526101208084018a90528251808503909101815261014084019092528151919093012061190160f01b610160830152610162820183905261018282018190529192506000906101a20160408051601f198184030181528282528051602091820120600080855291840180845281905260ff8a169284019290925260608301889052608083018790529092509060019060a0016020604051602081039080840390855afa158015611902573d6000803e3d6000fd5b5050604051601f1901519150506001600160a01b0381166119785760405162461bcd60e51b815260206004820152602a60248201527f45766f546f6b656e3a3a64656c656761746542795369673a20696e76616c6964604482015269207369676e617475726560b01b60648201526084016109d3565b6001600160a01b038116600090815260166020526040812080549161199c83612e71565b9190505589146119fd5760405162461bcd60e51b815260206004820152602660248201527f45766f546f6b656e3a3a64656c656761746542795369673a20696e76616c6964604482015265206e6f6e636560d01b60648201526084016109d3565b87421115611a605760405162461bcd60e51b815260206004820152602a60248201527f45766f546f6b656e3a3a64656c656761746542795369673a207369676e6174756044820152691c9948195e1c1a5c995960b21b60648201526084016109d3565b611a6a818b6123fe565b505050505b505050505050565b3360009081526006602052604090205460ff1680611aae575033611aa36005546001600160a01b031690565b6001600160a01b0316145b611aca5760405162461bcd60e51b81526004016109d390612d12565b6001600160a01b03919091166000908152601260205260409020805460ff1916911515919091179055565b600061148360085490565b6005546001600160a01b03163314611b2a5760405162461bcd60e51b81526004016109d390612df4565b6001600160a01b03166000908152600660205260409020805460ff19166001179055565b6001600160a01b03918216600090815260016020908152604080832093909416825291909152205490565b3360009081526006602052604090205460ff1680611bb0575033611ba56005546001600160a01b031690565b6001600160a01b0316145b611bcc5760405162461bcd60e51b81526004016109d390612d12565b600b54600c5410611c385760405162461bcd60e51b815260206004820152603060248201527f45524332303a206d616e75616c4d696e7465642067726561746572207468616e60448201526f081b585b9d585b135a5b9d131a5b5a5d60821b60648201526084016109d3565b611c4282826121b4565b6001600160a01b03808316600090815260136020526040812054611c6792168361229f565b80600c54611c759190612dbf565b600c555050565b6005546001600160a01b03163314611ca65760405162461bcd60e51b81526004016109d390612df4565b6001600160a01b038116611d0b5760405162461bcd60e51b815260206004820152602660248201527f4f776e61626c653a206e6577206f776e657220697320746865207a65726f206160448201526564647265737360d01b60648201526084016109d3565b610fda8161248d565b3360009081526006602052604081205460ff1680611d4b575033611d406005546001600160a01b031690565b6001600160a01b0316145b611d675760405162461bcd60e51b81526004016109d390612d12565b50600e805467ffffffffffffffff8316600160a01b0267ffffffffffffffff60a01b199091161790556001919050565b6000600854611da560025490565b6114839190612d5f565b6001600160a01b038316611e115760405162461bcd60e51b8152602060048201526024808201527f45524332303a20617070726f76652066726f6d20746865207a65726f206164646044820152637265737360e01b60648201526084016109d3565b6001600160a01b038216611e725760405162461bcd60e51b815260206004820152602260248201527f45524332303a20617070726f766520746f20746865207a65726f206164647265604482015261737360f01b60648201526084016109d3565b6001600160a01b0383811660008181526001602090815260408083209487168084529482529182902085905590518481527f8c5be1e5ebec7d5bd14f71427d1e84f3dd0314c0f7b2291e5b200ac8c7c3b925910160405180910390a3505050565b6000611edf8484611b4e565b90506000198114611f475781811015611f3a5760405162461bcd60e51b815260206004820152601d60248201527f45524332303a20696e73756666696369656e7420616c6c6f77616e636500000060448201526064016109d3565b611f478484848403611daf565b50505050565b8282826000611f5a611626565b1115612024576001600160a01b03831660009081526012602052604090205460ff16158015611fa257506001600160a01b03821660009081526012602052604090205460ff16155b1561202457611faf611626565b8111156120245760405162461bcd60e51b815260206004820152603860248201527f616e74695768616c653a205472616e7366657220616d6f756e7420657863656560448201527f647320746865206d61785472616e73666572416d6f756e74000000000000000060648201526084016109d3565b600e5486908690600160a01b900467ffffffffffffffff161561216d576001600160a01b03811660009081526012602052604090205460ff1661216d57600e54604051631335a56760e21b81526001600160a01b0383811660048301526000921690634cd6959c9060240160006040518083038186803b1580156120a757600080fd5b505afa1580156120bb573d6000803e3d6000fd5b505050506040513d6000823e601f3d908101601f191682016040526120e39190810190612eb8565b5091955050505067ffffffffffffffff8316158015925090506121265750600e5467ffffffffffffffff600160a01b90910481169061212490831642612d5f565b115b61216b5760405162461bcd60e51b81526020600482015260166024820152750e0e4deccd2d8ca40dcdee840ded8c840cadcdeeaced60531b60448201526064016109d3565b505b61217888888861263d565b6001600160a01b03808916600090815260136020526040808220548a841683529120546121aa9291821691168861229f565b5050505050505050565b6001600160a01b03821661220a5760405162461bcd60e51b815260206004820152601f60248201527f45524332303a206d696e7420746f20746865207a65726f20616464726573730060448201526064016109d3565b61221660008383612816565b80600260008282546122289190612dbf565b90915550506001600160a01b03821660009081526020819052604081208054839290612255908490612dbf565b90915550506040518181526001600160a01b038316906000907fddf252ad1be2c89b69c2b068fc378daa952ba7f163c4a11628f55a4df523b3ef9060200160405180910390a35050565b816001600160a01b0316836001600160a01b0316141580156122c15750600081115b156116cb576001600160a01b03831615612364576001600160a01b03831660009081526015602052604081205463ffffffff169081612301576000612344565b6001600160a01b038516600090815260146020526040812090612325600185612e29565b63ffffffff1663ffffffff168152602001908152602001600020600101545b905060006123528483612d5f565b905061236086848484612889565b5050505b6001600160a01b038216156116cb576001600160a01b03821660009081526015602052604081205463ffffffff16908161239f5760006123e2565b6001600160a01b0384166000908152601460205260408120906123c3600185612e29565b63ffffffff1663ffffffff168152602001908152602001600020600101545b905060006123f08483612dbf565b9050611a6f85848484612889565b6001600160a01b0380831660009081526013602052604081205490911690612425846111be565b6001600160a01b0385811660008181526013602052604080822080546001600160a01b031916898616908117909155905194955093928616927f3134e8a2e6d97e929a7e54011ea5485d7d196dd5f0ba4d4ef95803e8e3fc257f9190a4611f4782848361229f565b600580546001600160a01b038381166001600160a01b0319831681179093556040519116919082907f8be0079c531659141344cd1fd0a4f28419497f9722a3daafe3b4186f6b6457e090600090a35050565b6001600160a01b0382166000908152600f60205260409020546125445760405162461bcd60e51b815260206004820152601a60248201527f496e73756666696369656e74206c6f636b656420746f6b656e7300000000000060448201526064016109d3565b6001600160a01b0382166000908152600f602052604090205481111561257f57506001600160a01b0381166000908152600f60205260409020545b612588306111be565b81111561259b57612598306111be565b90505b6125a6308383611f4d565b6001600160a01b0382166000908152600f60205260409020546125ca908290612d5f565b6001600160a01b0383166000908152600f602090815260408083209390935560109052204390556008546125ff908290612d5f565b6008556040518181526001600160a01b038316907f6381d9813cabeb57471b5a7e05078e64845ccdb563146a6911d536f24ce960f190602001610cf8565b6001600160a01b0383166126a15760405162461bcd60e51b815260206004820152602560248201527f45524332303a207472616e736665722066726f6d20746865207a65726f206164604482015264647265737360d81b60648201526084016109d3565b6001600160a01b0382166127035760405162461bcd60e51b815260206004820152602360248201527f45524332303a207472616e7366657220746f20746865207a65726f206164647260448201526265737360e81b60648201526084016109d3565b61270e838383612816565b6001600160a01b038316600090815260208190526040902054818110156127865760405162461bcd60e51b815260206004820152602660248201527f45524332303a207472616e7366657220616d6f756e7420657863656564732062604482015265616c616e636560d01b60648201526084016109d3565b6001600160a01b038085166000908152602081905260408082208585039055918516815290812080548492906127bd908490612dbf565b92505081905550826001600160a01b0316846001600160a01b03167fddf252ad1be2c89b69c2b068fc378daa952ba7f163c4a11628f55a4df523b3ef8460405161280991815260200190565b60405180910390a3611f47565b6001600160a01b0383166116cb576007548161283160025490565b61283b9190612dbf565b11156116cb5760405162461bcd60e51b815260206004820152601960248201527f45524332304361707065643a206361702065786365656465640000000000000060448201526064016109d3565b60006128ad43604051806060016040528060388152602001612fe260389139612a2b565b905060008463ffffffff1611801561290757506001600160a01b038516600090815260146020526040812063ffffffff8316916128eb600188612e29565b63ffffffff908116825260208201929092526040016000205416145b15612950576001600160a01b03851660009081526014602052604081208391612931600188612e29565b63ffffffff1681526020810191909152604001600020600101556129e0565b60408051808201825263ffffffff838116825260208083018681526001600160a01b038a166000908152601483528581208a851682529092529390209151825463ffffffff1916911617815590516001918201556129af908590612fb9565b6001600160a01b0386166000908152601560205260409020805463ffffffff191663ffffffff929092169190911790555b60408051848152602081018490526001600160a01b038716917fdec2bacdd2f05b59de34da9b523dff8be42e5e38e818c82fdb0bae774387a724910160405180910390a25050505050565b6000816401000000008410612a535760405162461bcd60e51b81526004016109d39190612a87565b509192915050565b60005b83811015612a76578181015183820152602001612a5e565b83811115611f475750506000910152565b6020815260008251806020840152612aa6816040850160208701612a5b565b601f01601f19169190910160400192915050565b6001600160a01b0381168114610fda57600080fd5b60008060408385031215612ae257600080fd5b8235612aed81612aba565b946020939093013593505050565b600060208284031215612b0d57600080fd5b5035919050565b600060208284031215612b2657600080fd5b813561173e81612aba565b600080600060608486031215612b4657600080fd5b8335612b5181612aba565b92506020840135612b6181612aba565b929592945050506040919091013590565b600060208284031215612b8457600080fd5b813561ffff8116811461173e57600080fd5b60ff81168114610fda57600080fd5b60008060008060008060c08789031215612bbe57600080fd5b8635612bc981612aba565b955060208701359450604087013593506060870135612be781612b96565b9598949750929560808101359460a0909101359350915050565b60008060408385031215612c1457600080fd5b8235612c1f81612aba565b915060208301358015158114612c3457600080fd5b809150509250929050565b60008060408385031215612c5257600080fd5b8235612c5d81612aba565b91506020830135612c3481612aba565b60008060408385031215612c8057600080fd5b8235612c8b81612aba565b9150602083013563ffffffff81168114612c3457600080fd5b67ffffffffffffffff81168114610fda57600080fd5b600060208284031215612ccc57600080fd5b813561173e81612ca4565b600181811c90821680612ceb57607f821691505b60208210811415612d0c57634e487b7160e01b600052602260045260246000fd5b50919050565b60208082526018908201527f63616c6c6572206973206e6f7420617574686f72697a65640000000000000000604082015260600190565b634e487b7160e01b600052601160045260246000fd5b600082821015612d7157612d71612d49565b500390565b6000816000190483118215151615612d9057612d90612d49565b500290565b634e487b7160e01b600052601260045260246000fd5b600082612dba57612dba612d95565b500490565b60008219821115612dd257612dd2612d49565b500190565b600060208284031215612de957600080fd5b815161173e81612aba565b6020808252818101527f4f776e61626c653a2063616c6c6572206973206e6f7420746865206f776e6572604082015260600190565b600063ffffffff83811690831681811015612e4657612e46612d49565b039392505050565b600063ffffffff80841680612e6557612e65612d95565b92169190910492915050565b6000600019821415612e8557612e85612d49565b5060010190565b634e487b7160e01b600052604160045260246000fd5b8051610afb81612ca4565b8051610afb81612b96565b600080600080600080600060e0888a031215612ed357600080fd5b875196506020880151612ee581612aba565b604089015190965067ffffffffffffffff80821115612f0357600080fd5b818a0191508a601f830112612f1757600080fd5b815181811115612f2957612f29612e8c565b604051601f8201601f19908116603f01168101908382118183101715612f5157612f51612e8c565b816040528281528d6020848701011115612f6a57600080fd5b612f7b836020830160208801612a5b565b8099505050505050612f8f60608901612ea2565b9350612f9d60808901612ead565b925060a0880151915060c0880151905092959891949750929550565b600063ffffffff808316818516808303821115612fd857612fd8612d49565b0194935050505056fe45766f546f6b656e3a3a5f7772697465436865636b706f696e743a20626c6f636b206e756d62657220657863656564732033322062697473a2646970667358221220f6d8824062b5cbfd0791ed68dd143ff3ce3f567e8d55cd642c55b1f2075693b864736f6c63430008090033",
  "linkReferences": {},
  "deployedLinkReferences": {}
}