{
  "_format": "hh-sol-artifact-1",
  "contractName": "EvoEggUpgradeable",
  "sourceName": "contracts/ERC721/EvoEggUpgradeable.sol",
  "abi": [
    {
      "inputs": [],
      "stateMutability": "nonpayable",
      "type": "constructor"
    },
    {
      "anonymous": false,
      "inputs": [
        {
          "indexed": true,
          "internalType": "address",
          "name": "owner",
          "type": "address"
        },
        {
          "indexed": true,
          "internalType": "address",
          "name": "approved",
          "type": "address"
        },
        {
          "indexed": true,
          "internalType": "uint256",
          "name": "tokenId",
          "type": "uint256"
        }
      ],
      "name": "Approval",
      "type": "event"
    },
    {
      "anonymous": false,
      "inputs": [
        {
          "indexed": true,
          "internalType": "address",
          "name": "owner",
          "type": "address"
        },
        {
          "indexed": true,
          "internalType": "address",
          "name": "operator",
          "type": "address"
        },
        {
          "indexed": false,
          "internalType": "bool",
          "name": "approved",
          "type": "bool"
        }
      ],
      "name": "ApprovalForAll",
      "type": "event"
    },
    {
      "anonymous": false,
      "inputs": [
        {
          "indexed": true,
          "internalType": "address",
          "name": "from",
          "type": "address"
        },
        {
          "indexed": true,
          "internalType": "uint256",
          "name": "tokenId",
          "type": "uint256"
        },
        {
          "indexed": false,
          "internalType": "bool",
          "name": "withLocked",
          "type": "bool"
        }
      ],
      "name": "EggMinted",
      "type": "event"
    },
    {
      "anonymous": false,
      "inputs": [
        {
          "indexed": true,
          "internalType": "address",
          "name": "from",
          "type": "address"
        },
        {
          "indexed": true,
          "internalType": "uint256",
          "name": "tokenId",
          "type": "uint256"
        }
      ],
      "name": "EggTreated",
      "type": "event"
    },
    {
      "anonymous": false,
      "inputs": [
        {
          "indexed": false,
          "internalType": "uint8",
          "name": "version",
          "type": "uint8"
        }
      ],
      "name": "Initialized",
      "type": "event"
    },
    {
      "anonymous": false,
      "inputs": [
        {
          "indexed": false,
          "internalType": "address",
          "name": "account",
          "type": "address"
        }
      ],
      "name": "Paused",
      "type": "event"
    },
    {
      "anonymous": false,
      "inputs": [
        {
          "indexed": false,
          "internalType": "uint256",
          "name": "unlocked",
          "type": "uint256"
        },
        {
          "indexed": false,
          "internalType": "uint256",
          "name": "locked",
          "type": "uint256"
        },
        {
          "indexed": false,
          "internalType": "uint256",
          "name": "treat",
          "type": "uint256"
        }
      ],
      "name": "PricesUpdated",
      "type": "event"
    },
    {
      "anonymous": false,
      "inputs": [
        {
          "indexed": true,
          "internalType": "bytes32",
          "name": "role",
          "type": "bytes32"
        },
        {
          "indexed": true,
          "internalType": "bytes32",
          "name": "previousAdminRole",
          "type": "bytes32"
        },
        {
          "indexed": true,
          "internalType": "bytes32",
          "name": "newAdminRole",
          "type": "bytes32"
        }
      ],
      "name": "RoleAdminChanged",
      "type": "event"
    },
    {
      "anonymous": false,
      "inputs": [
        {
          "indexed": true,
          "internalType": "bytes32",
          "name": "role",
          "type": "bytes32"
        },
        {
          "indexed": true,
          "internalType": "address",
          "name": "account",
          "type": "address"
        },
        {
          "indexed": true,
          "internalType": "address",
          "name": "sender",
          "type": "address"
        }
      ],
      "name": "RoleGranted",
      "type": "event"
    },
    {
      "anonymous": false,
      "inputs": [
        {
          "indexed": true,
          "internalType": "bytes32",
          "name": "role",
          "type": "bytes32"
        },
        {
          "indexed": true,
          "internalType": "address",
          "name": "account",
          "type": "address"
        },
        {
          "indexed": true,
          "internalType": "address",
          "name": "sender",
          "type": "address"
        }
      ],
      "name": "RoleRevoked",
      "type": "event"
    },
    {
      "anonymous": false,
      "inputs": [
        {
          "indexed": true,
          "internalType": "address",
          "name": "from",
          "type": "address"
        },
        {
          "indexed": true,
          "internalType": "address",
          "name": "to",
          "type": "address"
        },
        {
          "indexed": true,
          "internalType": "uint256",
          "name": "tokenId",
          "type": "uint256"
        }
      ],
      "name": "Transfer",
      "type": "event"
    },
    {
      "anonymous": false,
      "inputs": [
        {
          "indexed": false,
          "internalType": "address",
          "name": "account",
          "type": "address"
        }
      ],
      "name": "Unpaused",
      "type": "event"
    },
    {
      "inputs": [],
      "name": "ADMIN_ROLE",
      "outputs": [
        {
          "internalType": "bytes32",
          "name": "",
          "type": "bytes32"
        }
      ],
      "stateMutability": "view",
      "type": "function"
    },
    {
      "inputs": [],
      "name": "DEFAULT_ADMIN_ROLE",
      "outputs": [
        {
          "internalType": "bytes32",
          "name": "",
          "type": "bytes32"
        }
      ],
      "stateMutability": "view",
      "type": "function"
    },
    {
      "inputs": [],
      "name": "MINTER_ROLE",
      "outputs": [
        {
          "internalType": "bytes32",
          "name": "",
          "type": "bytes32"
        }
      ],
      "stateMutability": "view",
      "type": "function"
    },
    {
      "inputs": [
        {
          "internalType": "address",
          "name": "_address",
          "type": "address"
        }
      ],
      "name": "addBlacklist",
      "outputs": [],
      "stateMutability": "nonpayable",
      "type": "function"
    },
    {
      "inputs": [
        {
          "internalType": "address",
          "name": "to",
          "type": "address"
        },
        {
          "internalType": "uint256",
          "name": "tokenId",
          "type": "uint256"
        }
      ],
      "name": "approve",
      "outputs": [],
      "stateMutability": "nonpayable",
      "type": "function"
    },
    {
      "inputs": [
        {
          "internalType": "address",
          "name": "owner",
          "type": "address"
        }
      ],
      "name": "balanceOf",
      "outputs": [
        {
          "internalType": "uint256",
          "name": "",
          "type": "uint256"
        }
      ],
      "stateMutability": "view",
      "type": "function"
    },
    {
      "inputs": [
        {
          "internalType": "uint256[]",
          "name": "tokenIds",
          "type": "uint256[]"
        }
      ],
      "name": "batchTokenURI",
      "outputs": [
        {
          "internalType": "string[]",
          "name": "",
          "type": "string[]"
        }
      ],
      "stateMutability": "view",
      "type": "function"
    },
    {
      "inputs": [
        {
          "internalType": "address",
          "name": "from",
          "type": "address"
        },
        {
          "internalType": "address",
          "name": "to",
          "type": "address"
        },
        {
          "internalType": "uint256[]",
          "name": "tokenIds",
          "type": "uint256[]"
        }
      ],
      "name": "batchTransferFrom",
      "outputs": [],
      "stateMutability": "nonpayable",
      "type": "function"
    },
    {
      "inputs": [],
      "name": "cap",
      "outputs": [
        {
          "internalType": "uint256",
          "name": "",
          "type": "uint256"
        }
      ],
      "stateMutability": "view",
      "type": "function"
    },
    {
      "inputs": [
        {
          "internalType": "uint256[]",
          "name": "tokenIds",
          "type": "uint256[]"
        }
      ],
      "name": "checkTreated",
      "outputs": [
        {
          "internalType": "bool[]",
          "name": "",
          "type": "bool[]"
        }
      ],
      "stateMutability": "view",
      "type": "function"
    },
    {
      "inputs": [
        {
          "internalType": "uint256",
          "name": "tokenId",
          "type": "uint256"
        }
      ],
      "name": "getApproved",
      "outputs": [
        {
          "internalType": "address",
          "name": "",
          "type": "address"
        }
      ],
      "stateMutability": "view",
      "type": "function"
    },
    {
      "inputs": [],
      "name": "getMintCounts",
      "outputs": [
        {
          "internalType": "uint256",
          "name": "unlocked",
          "type": "uint256"
        },
        {
          "internalType": "uint256",
          "name": "locked",
          "type": "uint256"
        },
        {
          "internalType": "uint256",
          "name": "treated",
          "type": "uint256"
        }
      ],
      "stateMutability": "view",
      "type": "function"
    },
    {
      "inputs": [],
      "name": "getMintPrices",
      "outputs": [
        {
          "internalType": "uint256",
          "name": "unlocked",
          "type": "uint256"
        },
        {
          "internalType": "uint256",
          "name": "locked",
          "type": "uint256"
        },
        {
          "internalType": "uint256",
          "name": "treated",
          "type": "uint256"
        }
      ],
      "stateMutability": "view",
      "type": "function"
    },
    {
      "inputs": [],
      "name": "getMintValues",
      "outputs": [
        {
          "internalType": "uint256",
          "name": "unlocked",
          "type": "uint256"
        },
        {
          "internalType": "uint256",
          "name": "locked",
          "type": "uint256"
        },
        {
          "internalType": "uint256",
          "name": "treated",
          "type": "uint256"
        }
      ],
      "stateMutability": "view",
      "type": "function"
    },
    {
      "inputs": [
        {
          "internalType": "bytes32",
          "name": "role",
          "type": "bytes32"
        }
      ],
      "name": "getRoleAdmin",
      "outputs": [
        {
          "internalType": "bytes32",
          "name": "",
          "type": "bytes32"
        }
      ],
      "stateMutability": "view",
      "type": "function"
    },
    {
      "inputs": [
        {
          "internalType": "bytes32",
          "name": "role",
          "type": "bytes32"
        },
        {
          "internalType": "uint256",
          "name": "index",
          "type": "uint256"
        }
      ],
      "name": "getRoleMember",
      "outputs": [
        {
          "internalType": "address",
          "name": "",
          "type": "address"
        }
      ],
      "stateMutability": "view",
      "type": "function"
    },
    {
      "inputs": [
        {
          "internalType": "bytes32",
          "name": "role",
          "type": "bytes32"
        }
      ],
      "name": "getRoleMemberCount",
      "outputs": [
        {
          "internalType": "uint256",
          "name": "",
          "type": "uint256"
        }
      ],
      "stateMutability": "view",
      "type": "function"
    },
    {
      "inputs": [
        {
          "internalType": "bytes32",
          "name": "role",
          "type": "bytes32"
        },
        {
          "internalType": "address",
          "name": "account",
          "type": "address"
        }
      ],
      "name": "grantRole",
      "outputs": [],
      "stateMutability": "nonpayable",
      "type": "function"
    },
    {
      "inputs": [
        {
          "internalType": "bytes32",
          "name": "role",
          "type": "bytes32"
        },
        {
          "internalType": "address",
          "name": "account",
          "type": "address"
        }
      ],
      "name": "hasRole",
      "outputs": [
        {
          "internalType": "bool",
          "name": "",
          "type": "bool"
        }
      ],
      "stateMutability": "view",
      "type": "function"
    },
    {
      "inputs": [
        {
          "internalType": "address",
          "name": "spender",
          "type": "address"
        },
        {
          "internalType": "uint256[]",
          "name": "tokenIds",
          "type": "uint256[]"
        }
      ],
      "name": "hatch",
      "outputs": [],
      "stateMutability": "nonpayable",
      "type": "function"
    },
    {
      "inputs": [],
      "name": "imageBaseURI",
      "outputs": [
        {
          "internalType": "string",
          "name": "",
          "type": "string"
        }
      ],
      "stateMutability": "view",
      "type": "function"
    },
    {
      "inputs": [],
      "name": "initialize",
      "outputs": [],
      "stateMutability": "nonpayable",
      "type": "function"
    },
    {
      "inputs": [
        {
          "internalType": "address",
          "name": "owner",
          "type": "address"
        },
        {
          "internalType": "address",
          "name": "operator",
          "type": "address"
        }
      ],
      "name": "isApprovedForAll",
      "outputs": [
        {
          "internalType": "bool",
          "name": "",
          "type": "bool"
        }
      ],
      "stateMutability": "view",
      "type": "function"
    },
    {
      "inputs": [],
      "name": "lastMinted",
      "outputs": [
        {
          "internalType": "uint256",
          "name": "",
          "type": "uint256"
        }
      ],
      "stateMutability": "view",
      "type": "function"
    },
    {
      "inputs": [
        {
          "internalType": "address",
          "name": "",
          "type": "address"
        }
      ],
      "name": "lockedMintsRemaining",
      "outputs": [
        {
          "internalType": "uint256",
          "name": "",
          "type": "uint256"
        }
      ],
      "stateMutability": "view",
      "type": "function"
    },
    {
      "inputs": [],
      "name": "mint",
      "outputs": [],
      "stateMutability": "nonpayable",
      "type": "function"
    },
    {
      "inputs": [],
      "name": "mintLocked",
      "outputs": [],
      "stateMutability": "nonpayable",
      "type": "function"
    },
    {
      "inputs": [],
      "name": "name",
      "outputs": [
        {
          "internalType": "string",
          "name": "",
          "type": "string"
        }
      ],
      "stateMutability": "view",
      "type": "function"
    },
    {
      "inputs": [
        {
          "internalType": "uint256",
          "name": "tokenId",
          "type": "uint256"
        }
      ],
      "name": "ownerOf",
      "outputs": [
        {
          "internalType": "address",
          "name": "",
          "type": "address"
        }
      ],
      "stateMutability": "view",
      "type": "function"
    },
    {
      "inputs": [],
      "name": "pause",
      "outputs": [],
      "stateMutability": "nonpayable",
      "type": "function"
    },
    {
      "inputs": [],
      "name": "paused",
      "outputs": [
        {
          "internalType": "bool",
          "name": "",
          "type": "bool"
        }
      ],
      "stateMutability": "view",
      "type": "function"
    },
    {
      "inputs": [
        {
          "internalType": "address",
          "name": "_address",
          "type": "address"
        }
      ],
      "name": "removeBlacklist",
      "outputs": [],
      "stateMutability": "nonpayable",
      "type": "function"
    },
    {
      "inputs": [
        {
          "internalType": "bytes32",
          "name": "role",
          "type": "bytes32"
        },
        {
          "internalType": "address",
          "name": "account",
          "type": "address"
        }
      ],
      "name": "renounceRole",
      "outputs": [],
      "stateMutability": "nonpayable",
      "type": "function"
    },
    {
      "inputs": [
        {
          "internalType": "bytes32",
          "name": "role",
          "type": "bytes32"
        },
        {
          "internalType": "address",
          "name": "account",
          "type": "address"
        }
      ],
      "name": "revokeRole",
      "outputs": [],
      "stateMutability": "nonpayable",
      "type": "function"
    },
    {
      "inputs": [
        {
          "internalType": "address",
          "name": "from",
          "type": "address"
        },
        {
          "internalType": "address",
          "name": "to",
          "type": "address"
        },
        {
          "internalType": "uint256",
          "name": "tokenId",
          "type": "uint256"
        }
      ],
      "name": "safeTransferFrom",
      "outputs": [],
      "stateMutability": "nonpayable",
      "type": "function"
    },
    {
      "inputs": [
        {
          "internalType": "address",
          "name": "from",
          "type": "address"
        },
        {
          "internalType": "address",
          "name": "to",
          "type": "address"
        },
        {
          "internalType": "uint256",
          "name": "tokenId",
          "type": "uint256"
        },
        {
          "internalType": "bytes",
          "name": "data",
          "type": "bytes"
        }
      ],
      "name": "safeTransferFrom",
      "outputs": [],
      "stateMutability": "nonpayable",
      "type": "function"
    },
    {
      "inputs": [
        {
          "internalType": "address",
          "name": "operator",
          "type": "address"
        },
        {
          "internalType": "bool",
          "name": "approved",
          "type": "bool"
        }
      ],
      "name": "setApprovalForAll",
      "outputs": [],
      "stateMutability": "nonpayable",
      "type": "function"
    },
    {
      "inputs": [
        {
          "internalType": "uint256",
          "name": "_cap",
          "type": "uint256"
        }
      ],
      "name": "setCap",
      "outputs": [],
      "stateMutability": "nonpayable",
      "type": "function"
    },
    {
      "inputs": [
        {
          "internalType": "string",
          "name": "imageBaseUri",
          "type": "string"
        }
      ],
      "name": "setImageBaseUri",
      "outputs": [],
      "stateMutability": "nonpayable",
      "type": "function"
    },
    {
      "inputs": [
        {
          "internalType": "uint256",
          "name": "dollarOfEvo",
          "type": "uint256"
        }
      ],
      "name": "setPrices",
      "outputs": [],
      "stateMutability": "nonpayable",
      "type": "function"
    },
    {
      "inputs": [
        {
          "internalType": "uint256",
          "name": "time",
          "type": "uint256"
        }
      ],
      "name": "setStartTime",
      "outputs": [],
      "stateMutability": "nonpayable",
      "type": "function"
    },
    {
      "inputs": [
        {
          "internalType": "bytes4",
          "name": "interfaceId",
          "type": "bytes4"
        }
      ],
      "name": "supportsInterface",
      "outputs": [
        {
          "internalType": "bool",
          "name": "",
          "type": "bool"
        }
      ],
      "stateMutability": "view",
      "type": "function"
    },
    {
      "inputs": [],
      "name": "symbol",
      "outputs": [
        {
          "internalType": "string",
          "name": "",
          "type": "string"
        }
      ],
      "stateMutability": "view",
      "type": "function"
    },
    {
      "inputs": [
        {
          "internalType": "uint256",
          "name": "index",
          "type": "uint256"
        }
      ],
      "name": "tokenByIndex",
      "outputs": [
        {
          "internalType": "uint256",
          "name": "",
          "type": "uint256"
        }
      ],
      "stateMutability": "view",
      "type": "function"
    },
    {
      "inputs": [
        {
          "internalType": "address",
          "name": "owner",
          "type": "address"
        },
        {
          "internalType": "uint256",
          "name": "index",
          "type": "uint256"
        }
      ],
      "name": "tokenOfOwnerByIndex",
      "outputs": [
        {
          "internalType": "uint256",
          "name": "",
          "type": "uint256"
        }
      ],
      "stateMutability": "view",
      "type": "function"
    },
    {
      "inputs": [
        {
          "internalType": "uint256",
          "name": "tokenId",
          "type": "uint256"
        }
      ],
      "name": "tokenURI",
      "outputs": [
        {
          "internalType": "string",
          "name": "",
          "type": "string"
        }
      ],
      "stateMutability": "view",
      "type": "function"
    },
    {
      "inputs": [
        {
          "internalType": "address",
          "name": "owner",
          "type": "address"
        }
      ],
      "name": "tokensOfOwner",
      "outputs": [
        {
          "internalType": "uint256[]",
          "name": "",
          "type": "uint256[]"
        }
      ],
      "stateMutability": "view",
      "type": "function"
    },
    {
      "inputs": [],
      "name": "totalSupply",
      "outputs": [
        {
          "internalType": "uint256",
          "name": "",
          "type": "uint256"
        }
      ],
      "stateMutability": "view",
      "type": "function"
    },
    {
      "inputs": [
        {
          "internalType": "address",
          "name": "from",
          "type": "address"
        },
        {
          "internalType": "address",
          "name": "to",
          "type": "address"
        },
        {
          "internalType": "uint256",
          "name": "tokenId",
          "type": "uint256"
        }
      ],
      "name": "transferFrom",
      "outputs": [],
      "stateMutability": "nonpayable",
      "type": "function"
    },
    {
      "inputs": [
        {
          "internalType": "uint256",
          "name": "tokenId",
          "type": "uint256"
        }
      ],
      "name": "treat",
      "outputs": [],
      "stateMutability": "nonpayable",
      "type": "function"
    },
    {
      "inputs": [],
      "name": "unpause",
      "outputs": [],
      "stateMutability": "nonpayable",
      "type": "function"
    },
    {
      "inputs": [
        {
          "internalType": "uint256[]",
          "name": "tokenIds",
          "type": "uint256[]"
        }
      ],
      "name": "updateAttribute",
      "outputs": [],
      "stateMutability": "nonpayable",
      "type": "function"
    }
  ],
  "bytecode": "0x60806040523480156200001157600080fd5b506200001c62000022565b620000e4565b600054610100900460ff16156200008f5760405162461bcd60e51b815260206004820152602760248201527f496e697469616c697a61626c653a20636f6e747261637420697320696e697469604482015266616c697a696e6760c81b606482015260840160405180910390fd5b60005460ff9081161015620000e2576000805460ff191660ff9081179091556040519081527f7f26b83ff96e1f2b6a682f133852f6798a09c465da95921460cefb38474024989060200160405180910390a15b565b6140bd80620000f46000396000f3fe608060405234801561001057600080fd5b506004361061030c5760003560e01c8063776458391161019d578063a3201daa116100e9578063d5391393116100a2578063df3c3a301161007c578063df3c3a30146106cc578063e985e9c5146106d4578063eb91e65114610710578063f3993d111461072357600080fd5b8063d539139314610681578063d547741f146106a8578063db00fb20146106bb57600080fd5b8063a3201daa14610625578063b88d4fde14610638578063bbc19ab01461064b578063c0687f0d14610653578063c87b56dd1461065b578063ca15c8731461066e57600080fd5b806391d14854116101565780639cfe42da116101305780639cfe42da146105e45780639f83bcb2146105f7578063a217fddf1461060a578063a22cb4651461061257600080fd5b806391d14854146105a957806395d89b41146105bc57806396908f51146105c457600080fd5b8063776458391461053d5780637b092b6b146105455780638129fc1c146105665780638456cb591461056e5780638462151c146105765780639010d07c1461059657600080fd5b806336568abe1161025c5780634f6ccce7116102155780636d94f13a116101ef5780636d94f13a146104cd5780636f35f57c146104ed57806370a082311461051557806375b238fc1461052857600080fd5b80634f6ccce71461049c5780635c975abb146104af5780636352211e146104ba57600080fd5b806336568abe1461043557806339b92bbb146104485780633e0a322d1461045b5780633f4ba83a1461046e57806342842e0e1461047657806347786d371461048957600080fd5b80631249c58b116102c9578063248a9ca3116102a3578063248a9ca3146103e15780632f2ff15d146104055780632f745c5914610418578063355274ea1461042b57600080fd5b80631249c58b146103b457806318160ddd146103bc57806323b872dd146103ce57600080fd5b806301ffc9a71461031157806302b3b3681461033957806306fdde031461034e578063081812fc14610363578063095ea7b31461038e5780630b6539e7146103a1575b600080fd5b61032461031f36600461340f565b610736565b60405190151581526020015b60405180910390f35b61034c61034736600461342c565b610747565b005b61035661091c565b604051610330919061349d565b61037661037136600461342c565b6109ae565b6040516001600160a01b039091168152602001610330565b61034c61039c3660046134cc565b6109d5565b61034c6103af3660046135bb565b610aeb565b61034c610bc2565b6099545b604051908152602001610330565b61034c6103dc366004613608565b610cfe565b6103c06103ef36600461342c565b600090815261012d602052604090206001015490565b61034c610413366004613644565b610d2f565b6103c06104263660046134cc565b610d55565b6103c061022b5481565b61034c610443366004613644565b610deb565b61034c6104563660046136c7565b610e69565b61034c61046936600461342c565b610e95565b61034c610eb4565b61034c610484366004613608565b610ed7565b61034c61049736600461342c565b610ef2565b6103c06104aa36600461342c565b610f11565b60fb5460ff16610324565b6103766104c836600461342c565b610fa4565b6104e06104db36600461370f565b611004565b6040516103309190613743565b6102305461023254610231545b60408051938452602084019290925290820152606001610330565b6103c06105233660046137a5565b6110bc565b6103c060008051602061406883398151915281565b610356611142565b6103c06105533660046137a5565b6102376020526000908152604090205481565b61034c6111d1565b61034c611434565b6105896105843660046137a5565b611454565b60405161033091906137c0565b6103766105a4366004613804565b6114f5565b6103246105b7366004613644565b611515565b610356611541565b6105d76105d236600461370f565b611550565b6040516103309190613826565b61034c6105f23660046137a5565b611614565b61034c61060536600461370f565b611638565b6103c0600081565b61034c61062036600461386e565b611753565b61034c61063336600461342c565b61175e565b61034c6106463660046138a5565b6117a8565b6103c06117da565b6104fa6117f7565b61035661066936600461342c565b611825565b6103c061067c36600461342c565b611a1b565b6103c07f9f2df0fed2c77648de5860a4cc508cd0818c85b8b8a1ab4ceeef8d981c8956a681565b61034c6106b6366004613644565b611a33565b61022d5461022e5461022f546104fa565b61034c611a59565b6103246106e2366004613920565b6001600160a01b039182166000908152606a6020908152604080832093909416825291909152205460ff1690565b61034c61071e3660046137a5565b611bdb565b61034c61073136600461394a565b611bff565b600061074182611c41565b92915050565b60008051602061406883398151915261075f81611c4c565b3361076983610fa4565b6001600160a01b0316146107b05760405162461bcd60e51b81526020600482015260096024820152682737ba1037bbb732b960b91b60448201526064015b60405180910390fd5b6000828152610238602052604090205460ff16156108075760405162461bcd60e51b815260206004820152601460248201527345676720616c726561647920747265617465642160601b60448201526064016107a7565b610228546001600160a01b03166323b872dd3361022a5461022f5460405160e085901b6001600160e01b03191681526001600160a01b0393841660048201529290911660248301526044820152606401602060405180830381600087803b15801561087157600080fd5b505af1158015610885573d6000803e3d6000fd5b505050506040513d601f19601f820116820180604052508101906108a991906139a7565b50600082815261023860205260408120805460ff1916600117905561022f546102318054919290916108dc9084906139da565b909155505061023580546001019055604051829033907f2b46c803cd96db888f07882ad77808b66dada9f88a734eed1db5d86fbb97ce6d90600090a35050565b60606065805461092b906139f2565b80601f0160208091040260200160405190810160405280929190818152602001828054610957906139f2565b80156109a45780601f10610979576101008083540402835291602001916109a4565b820191906000526020600020905b81548152906001019060200180831161098757829003601f168201915b5050505050905090565b60006109b982611c56565b506000908152606960205260409020546001600160a01b031690565b60006109e082610fa4565b9050806001600160a01b0316836001600160a01b03161415610a4e5760405162461bcd60e51b815260206004820152602160248201527f4552433732313a20617070726f76616c20746f2063757272656e74206f776e656044820152603960f91b60648201526084016107a7565b336001600160a01b0382161480610a6a5750610a6a81336106e2565b610adc5760405162461bcd60e51b815260206004820152603e60248201527f4552433732313a20617070726f76652063616c6c6572206973206e6f7420746f60448201527f6b656e206f776e6572206e6f7220617070726f76656420666f7220616c6c000060648201526084016107a7565b610ae68383611cb5565b505050565b7f9f2df0fed2c77648de5860a4cc508cd0818c85b8b8a1ab4ceeef8d981c8956a6610b1581611c4c565b60005b8251811015610bbc57610b4484848381518110610b3757610b37613a2d565b6020026020010151611d23565b610b885760405162461bcd60e51b81526020600482015260156024820152742737ba1030b8383937bb32b21037b91037bbb732b960591b60448201526064016107a7565b610baa838281518110610b9d57610b9d613a2d565b6020026020010151611da2565b80610bb481613a43565b915050610b18565b50505050565b60026101f5541415610c165760405162461bcd60e51b815260206004820152601f60248201527f5265656e7472616e637947756172643a207265656e7472616e742063616c6c0060448201526064016107a7565b60026101f555610c24611e49565b610228546001600160a01b03166323b872dd3361022a5461022d5460405160e085901b6001600160e01b03191681526001600160a01b0393841660048201529290911660248301526044820152606401602060405180830381600087803b158015610c8e57600080fd5b505af1158015610ca2573d6000803e3d6000fd5b505050506040513d601f19601f82011682018060405250810190610cc691906139a7565b5061022d546102306000828254610cdd91906139da565b9091555050610233805460010190555b610cf633611e91565b60016101f555565b610d083382611d23565b610d245760405162461bcd60e51b81526004016107a790613a5e565b610ae6838383611f48565b600082815261012d6020526040902060010154610d4b81611c4c565b610ae683836120ef565b6000610d60836110bc565b8210610dc25760405162461bcd60e51b815260206004820152602b60248201527f455243373231456e756d657261626c653a206f776e657220696e646578206f7560448201526a74206f6620626f756e647360a81b60648201526084016107a7565b506001600160a01b03919091166000908152609760209081526040808320938352929052205490565b6001600160a01b0381163314610e5b5760405162461bcd60e51b815260206004820152602f60248201527f416363657373436f6e74726f6c3a2063616e206f6e6c792072656e6f756e636560448201526e103937b632b9903337b91039b2b63360891b60648201526084016107a7565b610e658282612112565b5050565b600080516020614068833981519152610e8181611c4c565b8151610ae690610236906020850190613360565b600080516020614068833981519152610ead81611c4c565b5061022c55565b600080516020614068833981519152610ecc81611c4c565b610ed4612135565b50565b610ae6838383604051806020016040528060008152506117a8565b600080516020614068833981519152610f0a81611c4c565b5061022b55565b6000610f1c60995490565b8210610f7f5760405162461bcd60e51b815260206004820152602c60248201527f455243373231456e756d657261626c653a20676c6f62616c20696e646578206f60448201526b7574206f6620626f756e647360a01b60648201526084016107a7565b60998281548110610f9257610f92613a2d565b90600052602060002001549050919050565b6000818152606760205260408120546001600160a01b0316806107415760405162461bcd60e51b8152602060048201526018602482015277115490cdcc8c4e881a5b9d985b1a59081d1bdad95b88125160421b60448201526064016107a7565b6060600082516001600160401b03811115611021576110216134f6565b60405190808252806020026020018201604052801561105457816020015b606081526020019060019003908161103f5790505b50905060005b83518110156110b55761108584828151811061107857611078613a2d565b6020026020010151611825565b82828151811061109757611097613a2d565b602002602001018190525080806110ad90613a43565b91505061105a565b5092915050565b60006001600160a01b0382166111265760405162461bcd60e51b815260206004820152602960248201527f4552433732313a2061646472657373207a65726f206973206e6f7420612076616044820152683634b21037bbb732b960b91b60648201526084016107a7565b506001600160a01b031660009081526068602052604090205490565b6102368054611150906139f2565b80601f016020809104026020016040519081016040528092919081815260200182805461117c906139f2565b80156111c95780601f1061119e576101008083540402835291602001916111c9565b820191906000526020600020905b8154815290600101906020018083116111ac57829003601f168201915b505050505081565b600054610100900460ff16158080156111f15750600054600160ff909116105b8061120b5750303b15801561120b575060005460ff166001145b61126e5760405162461bcd60e51b815260206004820152602e60248201527f496e697469616c697a61626c653a20636f6e747261637420697320616c72656160448201526d191e481a5b9a5d1a585b1a5e995960921b60648201526084016107a7565b6000805460ff191660011790558015611291576000805461ff0019166101001790555b6112e16040518060400160405280600c81526020016b045766f204567672047656e360a41b8152506040518060400160405280600a815260200169045564f45474747454e360b41b815250612187565b6112e96121b8565b6112f16121e7565b6112f9612216565b611301612245565b61130961226c565b6113146000336120ef565b61132c600080516020614068833981519152336120ef565b6113567f9f2df0fed2c77648de5860a4cc508cd0818c85b8b8a1ab4ceeef8d981c8956a6336120ef565b61022a80546001600160a01b03199081167339af60141b91f7941eb13aeda2124a61a953b7c017909155610228805482167342006ab57701251b580bdfc24778c43c9ff589a11790556102298054909116737b5501109c2605834f7a4153a75850db7521c37e179055610bea61022b556362c870a061022c556113d96102275490565b6113ec576113ec61022780546001019055565b8015610ed4576000805461ff0019169055604051600181527f7f26b83ff96e1f2b6a682f133852f6798a09c465da95921460cefb38474024989060200160405180910390a150565b60008051602061406883398151915261144c81611c4c565b610ed461229b565b60606000611461836110bc565b90506000816001600160401b0381111561147d5761147d6134f6565b6040519080825280602002602001820160405280156114a6578160200160208202803683370190505b50905060005b828110156114ed576114be8582610d55565b8282815181106114d0576114d0613a2d565b6020908102919091010152806114e581613a43565b9150506114ac565b509392505050565b600082815261015f6020526040812061150e90836122d8565b9392505050565b600091825261012d602090815260408084206001600160a01b0393909316845291905290205460ff1690565b60606066805461092b906139f2565b6060600082516001600160401b0381111561156d5761156d6134f6565b604051908082528060200260200182016040528015611596578160200160208202803683370190505b50905060005b83518110156110b55761023860008583815181106115bc576115bc613a2d565b6020026020010151815260200190815260200160002060009054906101000a900460ff168282815181106115f2576115f2613a2d565b911515602092830291909101909101528061160c81613a43565b91505061159c565b60008051602061406883398151915261162c81611c4c565b610ae66101c2836122e4565b60008051602061406883398151915261165081611c4c565b60005b8251811015610ae657610238600084838151811061167357611673613a2d565b60209081029190910181015182528101919091526040016000205460ff1661174157600161023860008584815181106116ae576116ae613a2d565b6020026020010151815260200190815260200160002060006101000a81548160ff0219169083151502179055506116ea61023580546001019055565b8281815181106116fc576116fc613a2d565b602002602001015161170b3390565b6001600160a01b03167f2b46c803cd96db888f07882ad77808b66dada9f88a734eed1db5d86fbb97ce6d60405160405180910390a35b8061174b81613a43565b915050611653565b610e653383836122f9565b60008051602061406883398151915261177681611c4c565b6117818260c8613aac565b61022d5561179182610320613aac565b61022e556117a082600a613aac565b61022f555050565b6117b23383611d23565b6117ce5760405162461bcd60e51b81526004016107a790613a5e565b610bbc848484846123c8565b600060016117e86102275490565b6117f29190613acb565b905090565b60008060006118066102335490565b92506118126102345490565b915061181e6102355490565b9050909192565b6060600061023661183f61183a600486613af8565b6123fb565b604051602001611850929190613ba6565b60408051601f198184030181529190529050600061023661187561183a600487613af8565b604051602001611886929190613bda565b604051602081830303815290604052905060006118a2856123fb565b83836040516020016118b693929190613c0f565b6040516020818303038152906040529050600060328611156118e75760405180602001604052806000815250611914565b604051806040016040528060138152602001721ec89d985b1d59488e88089cdd185999889f4b606a1b8152505b6040516020016119249190613d23565b60408051601f198184030181529181526000888152610238602052908120549192509060ff166119635760405180602001604052806000815250611997565b604051741ec89d985b1d59488e88089d1c99585d1959089f4b605a1b60208201526035016040516020818303038152906040525b9050600082826040516020016119ae929190613d3f565b6040516020818303038152906040529050600084826040516020016119d4929190613df2565b60405160208183030381529060405290506119ee816124f8565b6040516020016119fe9190613e3f565b604051602081830303815290604052975050505050505050919050565b600081815261015f602052604081206107419061264b565b600082815261012d6020526040902060010154611a4f81611c4c565b610ae68383612112565b60026101f5541415611aad5760405162461bcd60e51b815260206004820152601f60248201527f5265656e7472616e637947756172643a207265656e7472616e742063616c6c0060448201526064016107a7565b60026101f555611abb611e49565b3360009081526102376020526040902054600211611b1b5760405162461bcd60e51b815260206004820152601960248201527f4e6f206c6f636b6564206d696e74732072656d61696e696e670000000000000060448201526064016107a7565b33600090815261023760205260408120805491611b3783613a43565b9091555050610229546001600160a01b031663c06bab2b3361022e546040516001600160e01b031960e085901b1681526001600160a01b0390921660048301526024820152604401600060405180830381600087803b158015611b9957600080fd5b505af1158015611bad573d6000803e3d6000fd5b5050505061022e546102326000828254611bc791906139da565b909155505061023480546001019055610ced565b600080516020614068833981519152611bf381611c4c565b610ae66101c283612655565b60005b8151811015610bbc57611c2f8484848481518110611c2257611c22613a2d565b6020026020010151610cfe565b80611c3981613a43565b915050611c02565b60006107418261266a565b610ed4813361268f565b6000818152606760205260409020546001600160a01b0316610ed45760405162461bcd60e51b8152602060048201526018602482015277115490cdcc8c4e881a5b9d985b1a59081d1bdad95b88125160421b60448201526064016107a7565b600081815260696020526040902080546001600160a01b0319166001600160a01b0384169081179091558190611cea82610fa4565b6001600160a01b03167f8c5be1e5ebec7d5bd14f71427d1e84f3dd0314c0f7b2291e5b200ac8c7c3b92560405160405180910390a45050565b600080611d2f83610fa4565b9050806001600160a01b0316846001600160a01b03161480611d7657506001600160a01b038082166000908152606a602090815260408083209388168352929052205460ff165b80611d9a5750836001600160a01b0316611d8f846109ae565b6001600160a01b0316145b949350505050565b6000611dad82610fa4565b9050611dbb816000846126f3565b611dc6600083611cb5565b6001600160a01b0381166000908152606860205260408120805460019290611def908490613acb565b909155505060008281526067602052604080822080546001600160a01b0319169055518391906001600160a01b038416907fddf252ad1be2c89b69c2b068fc378daa952ba7f163c4a11628f55a4df523b3ef908390a45050565b60fb5460ff1615611e8f5760405162461bcd60e51b815260206004820152601060248201526f14185d5cd8589b194e881c185d5cd95960821b60448201526064016107a7565b565b6000611e9d6102275490565b90504261022c541115611ef25760405162461bcd60e51b815260206004820152601860248201527f4d696e7420686173206e6f74207374617274656420796574000000000000000060448201526064016107a7565b61022b548110611f2f5760405162461bcd60e51b815260206004820152600860248201526714dbdb19081bdd5d60c21b60448201526064016107a7565b611f3e61022780546001019055565b610e658282612805565b826001600160a01b0316611f5b82610fa4565b6001600160a01b031614611fbf5760405162461bcd60e51b815260206004820152602560248201527f4552433732313a207472616e736665722066726f6d20696e636f72726563742060448201526437bbb732b960d91b60648201526084016107a7565b6001600160a01b0382166120215760405162461bcd60e51b8152602060048201526024808201527f4552433732313a207472616e7366657220746f20746865207a65726f206164646044820152637265737360e01b60648201526084016107a7565b61202c8383836126f3565b612037600082611cb5565b6001600160a01b0383166000908152606860205260408120805460019290612060908490613acb565b90915550506001600160a01b038216600090815260686020526040812080546001929061208e9084906139da565b909155505060008181526067602052604080822080546001600160a01b0319166001600160a01b0386811691821790925591518493918716917fddf252ad1be2c89b69c2b068fc378daa952ba7f163c4a11628f55a4df523b3ef91a4505050565b6120f9828261281f565b600082815261015f60205260409020610ae690826122e4565b61211c82826128a6565b600082815261015f60205260409020610ae69082612655565b61213d61290e565b60fb805460ff191690557f5db9ee0a495bf2e6ff9c91a7834c1ba4fdd244a5e8aa4e537bd38aeae4b073aa335b6040516001600160a01b03909116815260200160405180910390a1565b600054610100900460ff166121ae5760405162461bcd60e51b81526004016107a790613e84565b610e658282612957565b600054610100900460ff166121df5760405162461bcd60e51b81526004016107a790613e84565b611e8f612245565b600054610100900460ff1661220e5760405162461bcd60e51b81526004016107a790613e84565b6121df612245565b600054610100900460ff1661223d5760405162461bcd60e51b81526004016107a790613e84565b611e8f6129a5565b600054610100900460ff16611e8f5760405162461bcd60e51b81526004016107a790613e84565b600054610100900460ff166122935760405162461bcd60e51b81526004016107a790613e84565b611e8f6129d8565b6122a3611e49565b60fb805460ff191660011790557f62e78cea01bee320cd4e420270b5ea74000d11b0c9f74754ebdbfc544b05a25861216a3390565b600061150e83836129ff565b600061150e836001600160a01b038416612a29565b816001600160a01b0316836001600160a01b0316141561235b5760405162461bcd60e51b815260206004820152601960248201527f4552433732313a20617070726f766520746f2063616c6c65720000000000000060448201526064016107a7565b6001600160a01b038381166000818152606a6020908152604080832094871680845294825291829020805460ff191686151590811790915591519182527f17307eab39ab6107e8899845ad3d59bd9653f200f220920489ca2b5937696c31910160405180910390a3505050565b6123d3848484611f48565b6123df84848484612a78565b610bbc5760405162461bcd60e51b81526004016107a790613ecf565b60608161241f5750506040805180820190915260018152600360fc1b602082015290565b8160005b8115612449578061243381613a43565b91506124429050600a83613f21565b9150612423565b6000816001600160401b03811115612463576124636134f6565b6040519080825280601f01601f19166020018201604052801561248d576020820181803683370190505b5090505b8415611d9a576124a2600183613acb565b91506124af600a86613af8565b6124ba9060306139da565b60f81b8183815181106124cf576124cf613a2d565b60200101906001600160f81b031916908160001a9053506124f1600a86613f21565b9450612491565b606081516000141561251857505060408051602081019091526000815290565b6000604051806060016040528060408152602001614028604091399050600060038451600261254791906139da565b6125519190613f21565b61255c906004613aac565b6001600160401b03811115612573576125736134f6565b6040519080825280601f01601f19166020018201604052801561259d576020820181803683370190505b509050600182016020820185865187015b80821015612609576003820191508151603f8160121c168501518453600184019350603f81600c1c168501518453600184019350603f8160061c168501518453600184019350603f81168501518453506001830192506125ae565b5050600386510660018114612625576002811461263857612640565b603d6001830353603d6002830353612640565b603d60018303535b509195945050505050565b6000610741825490565b600061150e836001600160a01b038416612b85565b60006001600160e01b03198216635a05180f60e01b1480610741575061074182612c78565b6126998282611515565b610e65576126b1816001600160a01b03166014612c9d565b6126bc836020612c9d565b6040516020016126cd929190613f35565b60408051601f198184030181529082905262461bcd60e51b82526107a79160040161349d565b6126fb611e49565b828282732f52abfca2074b99759b58345bb984419d304243603282118061272957506001600160a01b038416155b8061273b57506001600160a01b038316155b806127575750806001600160a01b0316846001600160a01b0316145b806127735750806001600160a01b0316836001600160a01b0316145b8061278c575061022a546001600160a01b038581169116145b806127a5575061022a546001600160a01b038481169116145b6127f15760405162461bcd60e51b815260206004820152601e60248201527f5465616d204567677320617265206e6f6e2d7472616e7366657261626c65000060448201526064016107a7565b6127fc878787612e38565b50505050505050565b610e65828260405180602001604052806000815250612eea565b6128298282611515565b610e6557600082815261012d602090815260408083206001600160a01b03851684529091529020805460ff191660011790556128623390565b6001600160a01b0316816001600160a01b0316837f2f8788117e7eff1d82e926ec794901d17c78024a50270940304540a733656f0d60405160405180910390a45050565b6128b08282611515565b15610e6557600082815261012d602090815260408083206001600160a01b0385168085529252808320805460ff1916905551339285917ff6391f5c32d9c69d2a47ea670b442974b53935d1edc7fd64eb21e047a839171b9190a45050565b60fb5460ff16611e8f5760405162461bcd60e51b815260206004820152601460248201527314185d5cd8589b194e881b9bdd081c185d5cd95960621b60448201526064016107a7565b600054610100900460ff1661297e5760405162461bcd60e51b81526004016107a790613e84565b8151612991906065906020850190613360565b508051610ae6906066906020840190613360565b600054610100900460ff166129cc5760405162461bcd60e51b81526004016107a790613e84565b60fb805460ff19169055565b600054610100900460ff16610cf65760405162461bcd60e51b81526004016107a790613e84565b6000826000018281548110612a1657612a16613a2d565b9060005260206000200154905092915050565b6000818152600183016020526040812054612a7057508154600181810184556000848152602080822090930184905584548482528286019093526040902091909155610741565b506000610741565b60006001600160a01b0384163b15612b7a57604051630a85bd0160e11b81526001600160a01b0385169063150b7a0290612abc903390899088908890600401613faa565b602060405180830381600087803b158015612ad657600080fd5b505af1925050508015612b06575060408051601f3d908101601f19168201909252612b0391810190613fdd565b60015b612b60573d808015612b34576040519150601f19603f3d011682016040523d82523d6000602084013e612b39565b606091505b508051612b585760405162461bcd60e51b81526004016107a790613ecf565b805181602001fd5b6001600160e01b031916630a85bd0160e11b149050611d9a565b506001949350505050565b60008181526001830160205260408120548015612c6e576000612ba9600183613acb565b8554909150600090612bbd90600190613acb565b9050818114612c22576000866000018281548110612bdd57612bdd613a2d565b9060005260206000200154905080876000018481548110612c0057612c00613a2d565b6000918252602080832090910192909255918252600188019052604090208390555b8554869080612c3357612c33613ffa565b600190038181906000526020600020016000905590558560010160008681526020019081526020016000206000905560019350505050610741565b6000915050610741565b60006001600160e01b03198216637965db0b60e01b1480610741575061074182612f1d565b60606000612cac836002613aac565b612cb79060026139da565b6001600160401b03811115612cce57612cce6134f6565b6040519080825280601f01601f191660200182016040528015612cf8576020820181803683370190505b509050600360fc1b81600081518110612d1357612d13613a2d565b60200101906001600160f81b031916908160001a905350600f60fb1b81600181518110612d4257612d42613a2d565b60200101906001600160f81b031916908160001a9053506000612d66846002613aac565b612d719060016139da565b90505b6001811115612de9576f181899199a1a9b1b9c1cb0b131b232b360811b85600f1660108110612da557612da5613a2d565b1a60f81b828281518110612dbb57612dbb613a2d565b60200101906001600160f81b031916908160001a90535060049490941c93612de281614010565b9050612d74565b50831561150e5760405162461bcd60e51b815260206004820181905260248201527f537472696e67733a20686578206c656e67746820696e73756666696369656e7460448201526064016107a7565b82612e456101c282612f28565b15612e885760405162461bcd60e51b8152602060048201526013602482015272426c61636b6c6973746564206164647265737360681b60448201526064016107a7565b82612e956101c282612f28565b15612ed85760405162461bcd60e51b8152602060048201526013602482015272426c61636b6c6973746564206164647265737360681b60448201526064016107a7565b612ee3858585612f4a565b5050505050565b612ef48383612f55565b612f016000848484612a78565b610ae65760405162461bcd60e51b81526004016107a790613ecf565b6000610741826130a3565b6001600160a01b0381166000908152600183016020526040812054151561150e565b610ae68383836130c8565b6001600160a01b038216612fab5760405162461bcd60e51b815260206004820181905260248201527f4552433732313a206d696e7420746f20746865207a65726f206164647265737360448201526064016107a7565b6000818152606760205260409020546001600160a01b0316156130105760405162461bcd60e51b815260206004820152601c60248201527f4552433732313a20746f6b656e20616c7265616479206d696e7465640000000060448201526064016107a7565b61301c600083836126f3565b6001600160a01b03821660009081526068602052604081208054600192906130459084906139da565b909155505060008181526067602052604080822080546001600160a01b0319166001600160a01b03861690811790915590518392907fddf252ad1be2c89b69c2b068fc378daa952ba7f163c4a11628f55a4df523b3ef908290a45050565b60006001600160e01b0319821663780e9d6360e01b1480610741575061074182613180565b6001600160a01b0383166131235761311e81609980546000838152609a60205260408120829055600182018355919091527f72a152ddfb8e864297c917af52ea6c1c68aead0fee1a62673fcc7e0c94979d000155565b613146565b816001600160a01b0316836001600160a01b0316146131465761314683826131d0565b6001600160a01b03821661315d57610ae68161326d565b826001600160a01b0316826001600160a01b031614610ae657610ae6828261331c565b60006001600160e01b031982166380ac58cd60e01b14806131b157506001600160e01b03198216635b5e139f60e01b145b8061074157506301ffc9a760e01b6001600160e01b0319831614610741565b600060016131dd846110bc565b6131e79190613acb565b60008381526098602052604090205490915080821461323a576001600160a01b03841660009081526097602090815260408083208584528252808320548484528184208190558352609890915290208190555b5060009182526098602090815260408084208490556001600160a01b039094168352609781528383209183525290812055565b60995460009061327f90600190613acb565b6000838152609a6020526040812054609980549394509092849081106132a7576132a7613a2d565b9060005260206000200154905080609983815481106132c8576132c8613a2d565b6000918252602080832090910192909255828152609a9091526040808220849055858252812055609980548061330057613300613ffa565b6001900381819060005260206000200160009055905550505050565b6000613327836110bc565b6001600160a01b039093166000908152609760209081526040808320868452825280832085905593825260989052919091209190915550565b82805461336c906139f2565b90600052602060002090601f01602090048101928261338e57600085556133d4565b82601f106133a757805160ff19168380011785556133d4565b828001600101855582156133d4579182015b828111156133d45782518255916020019190600101906133b9565b506133e09291506133e4565b5090565b5b808211156133e057600081556001016133e5565b6001600160e01b031981168114610ed457600080fd5b60006020828403121561342157600080fd5b813561150e816133f9565b60006020828403121561343e57600080fd5b5035919050565b60005b83811015613460578181015183820152602001613448565b83811115610bbc5750506000910152565b60008151808452613489816020860160208601613445565b601f01601f19169290920160200192915050565b60208152600061150e6020830184613471565b80356001600160a01b03811681146134c757600080fd5b919050565b600080604083850312156134df57600080fd5b6134e8836134b0565b946020939093013593505050565b634e487b7160e01b600052604160045260246000fd5b604051601f8201601f191681016001600160401b0381118282101715613534576135346134f6565b604052919050565b600082601f83011261354d57600080fd5b813560206001600160401b03821115613568576135686134f6565b8160051b61357782820161350c565b928352848101820192828101908785111561359157600080fd5b83870192505b848310156135b057823582529183019190830190613597565b979650505050505050565b600080604083850312156135ce57600080fd5b6135d7836134b0565b915060208301356001600160401b038111156135f257600080fd5b6135fe8582860161353c565b9150509250929050565b60008060006060848603121561361d57600080fd5b613626846134b0565b9250613634602085016134b0565b9150604084013590509250925092565b6000806040838503121561365757600080fd5b82359150613667602084016134b0565b90509250929050565b60006001600160401b03831115613689576136896134f6565b61369c601f8401601f191660200161350c565b90508281528383830111156136b057600080fd5b828260208301376000602084830101529392505050565b6000602082840312156136d957600080fd5b81356001600160401b038111156136ef57600080fd5b8201601f8101841361370057600080fd5b611d9a84823560208401613670565b60006020828403121561372157600080fd5b81356001600160401b0381111561373757600080fd5b611d9a8482850161353c565b6000602080830181845280855180835260408601915060408160051b870101925083870160005b8281101561379857603f19888603018452613786858351613471565b9450928501929085019060010161376a565b5092979650505050505050565b6000602082840312156137b757600080fd5b61150e826134b0565b6020808252825182820181905260009190848201906040850190845b818110156137f8578351835292840192918401916001016137dc565b50909695505050505050565b6000806040838503121561381757600080fd5b50508035926020909101359150565b6020808252825182820181905260009190848201906040850190845b818110156137f8578351151583529284019291840191600101613842565b8015158114610ed457600080fd5b6000806040838503121561388157600080fd5b61388a836134b0565b9150602083013561389a81613860565b809150509250929050565b600080600080608085870312156138bb57600080fd5b6138c4856134b0565b93506138d2602086016134b0565b92506040850135915060608501356001600160401b038111156138f457600080fd5b8501601f8101871361390557600080fd5b61391487823560208401613670565b91505092959194509250565b6000806040838503121561393357600080fd5b61393c836134b0565b9150613667602084016134b0565b60008060006060848603121561395f57600080fd5b613968846134b0565b9250613976602085016134b0565b915060408401356001600160401b0381111561399157600080fd5b61399d8682870161353c565b9150509250925092565b6000602082840312156139b957600080fd5b815161150e81613860565b634e487b7160e01b600052601160045260246000fd5b600082198211156139ed576139ed6139c4565b500190565b600181811c90821680613a0657607f821691505b60208210811415613a2757634e487b7160e01b600052602260045260246000fd5b50919050565b634e487b7160e01b600052603260045260246000fd5b6000600019821415613a5757613a576139c4565b5060010190565b6020808252602e908201527f4552433732313a2063616c6c6572206973206e6f7420746f6b656e206f776e6560408201526d1c881b9bdc88185c1c1c9bdd995960921b606082015260800190565b6000816000190483118215151615613ac657613ac66139c4565b500290565b600082821015613add57613add6139c4565b500390565b634e487b7160e01b600052601260045260246000fd5b600082613b0757613b07613ae2565b500690565b8054600090600181811c9080831680613b2657607f831692505b6020808410821415613b4857634e487b7160e01b600052602260045260246000fd5b818015613b5c5760018114613b6d57613b9a565b60ff19861689528489019650613b9a565b60008881526020902060005b86811015613b925781548b820152908501908301613b79565b505084890196505b50505050505092915050565b6000613bb28285613b0c565b8351613bc2818360208801613445565b632e706e6760e01b9101908152600401949350505050565b6000613be68285613b0c565b8351613bf6818360208801613445565b642e7765626d60d81b9101908152600501949350505050565b71226e616d65223a202245766f20456767202360701b81528351600090613c3d816012850160208901613445565b6201116160ed1b60129184019182018190527f226465736372697074696f6e223a202245766f5665727365732047656e302045601583015264033b39116160dd1b6035830152691134b6b0b3b2911d101160b11b603a8301528551613ca9816044850160208a01613445565b60449201918201819052711130b734b6b0ba34b7b72fbab936111d101160711b60478301528451613ce1816059850160208901613445565b6059920191820152613d19605c82017f22616e696d6174696f6e5f74797065223a20227765626d2f6d7034222c2000008152601e0190565b9695505050505050565b60008251613d35818460208701613445565b9190910192915050565b6e2261747472696275746573223a205b60881b81528251600090613d6a81600f850160208801613445565b835190830190613d8181600f840160208801613445565b7f7b2274726169745f74797065223a202267656e65726174696f6e222c20226469600f92909101918201527f73706c61795f74797065223a20226e756d626572222c202276616c7565223a20602f82015261307d60f01b604f820152605d60f81b6051820152605201949350505050565b607b60f81b815260008351613e0e816001850160208801613445565b835190830190613e25816001840160208801613445565b607d60f81b60019290910191820152600201949350505050565b7f646174613a6170706c69636174696f6e2f6a736f6e3b6261736536342c000000815260008251613e7781601d850160208701613445565b91909101601d0192915050565b6020808252602b908201527f496e697469616c697a61626c653a20636f6e7472616374206973206e6f74206960408201526a6e697469616c697a696e6760a81b606082015260800190565b60208082526032908201527f4552433732313a207472616e7366657220746f206e6f6e20455243373231526560408201527131b2b4bb32b91034b6b83632b6b2b73a32b960711b606082015260800190565b600082613f3057613f30613ae2565b500490565b7f416363657373436f6e74726f6c3a206163636f756e7420000000000000000000815260008351613f6d816017850160208801613445565b7001034b99036b4b9b9b4b733903937b6329607d1b6017918401918201528351613f9e816028840160208801613445565b01602801949350505050565b6001600160a01b0385811682528416602082015260408101839052608060608201819052600090613d1990830184613471565b600060208284031215613fef57600080fd5b815161150e816133f9565b634e487b7160e01b600052603160045260246000fd5b60008161401f5761401f6139c4565b50600019019056fe4142434445464748494a4b4c4d4e4f505152535455565758595a6162636465666768696a6b6c6d6e6f707172737475767778797a303132333435363738392b2fa49807205ce4d355092ef5a8a18f56e8913cf4a201fbe287825b095693c21775a2646970667358221220ccd14e852eb91ef333150535c49cbe7570b7c2ffe6b9f550cdf337eb1ea6ab0c64736f6c63430008090033",
  "linkReferences": {},
  "deployedLinkReferences": {}
}