{
  "_format": "hh-sol-artifact-1",
  "contractName": "EvoEggUpgradeable",
  "sourceName": "contracts/ERC721/EvoEggUpgradeable.sol",
  "abi": [
    {
      "inputs": [],
      "stateMutability": "nonpayable",
      "type": "constructor"
    },
    {
      "anonymous": false,
      "inputs": [
        {
          "indexed": true,
          "internalType": "address",
          "name": "owner",
          "type": "address"
        },
        {
          "indexed": true,
          "internalType": "address",
          "name": "approved",
          "type": "address"
        },
        {
          "indexed": true,
          "internalType": "uint256",
          "name": "tokenId",
          "type": "uint256"
        }
      ],
      "name": "Approval",
      "type": "event"
    },
    {
      "anonymous": false,
      "inputs": [
        {
          "indexed": true,
          "internalType": "address",
          "name": "owner",
          "type": "address"
        },
        {
          "indexed": true,
          "internalType": "address",
          "name": "operator",
          "type": "address"
        },
        {
          "indexed": false,
          "internalType": "bool",
          "name": "approved",
          "type": "bool"
        }
      ],
      "name": "ApprovalForAll",
      "type": "event"
    },
    {
      "anonymous": false,
      "inputs": [
        {
          "indexed": true,
          "internalType": "address",
          "name": "from",
          "type": "address"
        },
        {
          "indexed": true,
          "internalType": "uint256",
          "name": "tokenId",
          "type": "uint256"
        },
        {
          "indexed": false,
          "internalType": "bool",
          "name": "withLocked",
          "type": "bool"
        }
      ],
      "name": "EggMinted",
      "type": "event"
    },
    {
      "anonymous": false,
      "inputs": [
        {
          "indexed": true,
          "internalType": "address",
          "name": "from",
          "type": "address"
        },
        {
          "indexed": true,
          "internalType": "uint256",
          "name": "tokenId",
          "type": "uint256"
        }
      ],
      "name": "EggTreated",
      "type": "event"
    },
    {
      "anonymous": false,
      "inputs": [
        {
          "indexed": false,
          "internalType": "uint8",
          "name": "version",
          "type": "uint8"
        }
      ],
      "name": "Initialized",
      "type": "event"
    },
    {
      "anonymous": false,
      "inputs": [
        {
          "indexed": false,
          "internalType": "address",
          "name": "account",
          "type": "address"
        }
      ],
      "name": "Paused",
      "type": "event"
    },
    {
      "anonymous": false,
      "inputs": [
        {
          "indexed": false,
          "internalType": "uint256",
          "name": "unlocked",
          "type": "uint256"
        },
        {
          "indexed": false,
          "internalType": "uint256",
          "name": "locked",
          "type": "uint256"
        },
        {
          "indexed": false,
          "internalType": "uint256",
          "name": "treat",
          "type": "uint256"
        }
      ],
      "name": "PricesUpdated",
      "type": "event"
    },
    {
      "anonymous": false,
      "inputs": [
        {
          "indexed": true,
          "internalType": "bytes32",
          "name": "role",
          "type": "bytes32"
        },
        {
          "indexed": true,
          "internalType": "bytes32",
          "name": "previousAdminRole",
          "type": "bytes32"
        },
        {
          "indexed": true,
          "internalType": "bytes32",
          "name": "newAdminRole",
          "type": "bytes32"
        }
      ],
      "name": "RoleAdminChanged",
      "type": "event"
    },
    {
      "anonymous": false,
      "inputs": [
        {
          "indexed": true,
          "internalType": "bytes32",
          "name": "role",
          "type": "bytes32"
        },
        {
          "indexed": true,
          "internalType": "address",
          "name": "account",
          "type": "address"
        },
        {
          "indexed": true,
          "internalType": "address",
          "name": "sender",
          "type": "address"
        }
      ],
      "name": "RoleGranted",
      "type": "event"
    },
    {
      "anonymous": false,
      "inputs": [
        {
          "indexed": true,
          "internalType": "bytes32",
          "name": "role",
          "type": "bytes32"
        },
        {
          "indexed": true,
          "internalType": "address",
          "name": "account",
          "type": "address"
        },
        {
          "indexed": true,
          "internalType": "address",
          "name": "sender",
          "type": "address"
        }
      ],
      "name": "RoleRevoked",
      "type": "event"
    },
    {
      "anonymous": false,
      "inputs": [
        {
          "indexed": true,
          "internalType": "address",
          "name": "from",
          "type": "address"
        },
        {
          "indexed": true,
          "internalType": "address",
          "name": "to",
          "type": "address"
        },
        {
          "indexed": true,
          "internalType": "uint256",
          "name": "tokenId",
          "type": "uint256"
        }
      ],
      "name": "Transfer",
      "type": "event"
    },
    {
      "anonymous": false,
      "inputs": [
        {
          "indexed": false,
          "internalType": "address",
          "name": "account",
          "type": "address"
        }
      ],
      "name": "Unpaused",
      "type": "event"
    },
    {
      "inputs": [],
      "name": "ADMIN_ROLE",
      "outputs": [
        {
          "internalType": "bytes32",
          "name": "",
          "type": "bytes32"
        }
      ],
      "stateMutability": "view",
      "type": "function"
    },
    {
      "inputs": [],
      "name": "DEFAULT_ADMIN_ROLE",
      "outputs": [
        {
          "internalType": "bytes32",
          "name": "",
          "type": "bytes32"
        }
      ],
      "stateMutability": "view",
      "type": "function"
    },
    {
      "inputs": [],
      "name": "MINTER_ROLE",
      "outputs": [
        {
          "internalType": "bytes32",
          "name": "",
          "type": "bytes32"
        }
      ],
      "stateMutability": "view",
      "type": "function"
    },
    {
      "inputs": [
        {
          "internalType": "address",
          "name": "_address",
          "type": "address"
        }
      ],
      "name": "addBlacklist",
      "outputs": [],
      "stateMutability": "nonpayable",
      "type": "function"
    },
    {
      "inputs": [
        {
          "internalType": "address",
          "name": "to",
          "type": "address"
        },
        {
          "internalType": "uint256",
          "name": "tokenId",
          "type": "uint256"
        }
      ],
      "name": "approve",
      "outputs": [],
      "stateMutability": "nonpayable",
      "type": "function"
    },
    {
      "inputs": [
        {
          "internalType": "address",
          "name": "owner",
          "type": "address"
        }
      ],
      "name": "balanceOf",
      "outputs": [
        {
          "internalType": "uint256",
          "name": "",
          "type": "uint256"
        }
      ],
      "stateMutability": "view",
      "type": "function"
    },
    {
      "inputs": [
        {
          "internalType": "uint256[]",
          "name": "tokenIds",
          "type": "uint256[]"
        }
      ],
      "name": "batchTokenURI",
      "outputs": [
        {
          "internalType": "string[]",
          "name": "",
          "type": "string[]"
        }
      ],
      "stateMutability": "view",
      "type": "function"
    },
    {
      "inputs": [
        {
          "internalType": "address",
          "name": "from",
          "type": "address"
        },
        {
          "internalType": "address",
          "name": "to",
          "type": "address"
        },
        {
          "internalType": "uint256[]",
          "name": "tokenIds",
          "type": "uint256[]"
        }
      ],
      "name": "batchTransferFrom",
      "outputs": [],
      "stateMutability": "nonpayable",
      "type": "function"
    },
    {
      "inputs": [],
      "name": "cap",
      "outputs": [
        {
          "internalType": "uint256",
          "name": "",
          "type": "uint256"
        }
      ],
      "stateMutability": "view",
      "type": "function"
    },
    {
      "inputs": [
        {
          "internalType": "uint256[]",
          "name": "tokenIds",
          "type": "uint256[]"
        }
      ],
      "name": "checkTreated",
      "outputs": [
        {
          "internalType": "bool[]",
          "name": "",
          "type": "bool[]"
        }
      ],
      "stateMutability": "view",
      "type": "function"
    },
    {
      "inputs": [
        {
          "internalType": "uint256",
          "name": "tokenId",
          "type": "uint256"
        }
      ],
      "name": "getApproved",
      "outputs": [
        {
          "internalType": "address",
          "name": "",
          "type": "address"
        }
      ],
      "stateMutability": "view",
      "type": "function"
    },
    {
      "inputs": [],
      "name": "getMintCounts",
      "outputs": [
        {
          "internalType": "uint256",
          "name": "unlocked",
          "type": "uint256"
        },
        {
          "internalType": "uint256",
          "name": "locked",
          "type": "uint256"
        },
        {
          "internalType": "uint256",
          "name": "treated",
          "type": "uint256"
        }
      ],
      "stateMutability": "view",
      "type": "function"
    },
    {
      "inputs": [],
      "name": "getMintPrices",
      "outputs": [
        {
          "internalType": "uint256",
          "name": "unlocked",
          "type": "uint256"
        },
        {
          "internalType": "uint256",
          "name": "locked",
          "type": "uint256"
        },
        {
          "internalType": "uint256",
          "name": "treated",
          "type": "uint256"
        }
      ],
      "stateMutability": "view",
      "type": "function"
    },
    {
      "inputs": [],
      "name": "getMintValues",
      "outputs": [
        {
          "internalType": "uint256",
          "name": "unlocked",
          "type": "uint256"
        },
        {
          "internalType": "uint256",
          "name": "locked",
          "type": "uint256"
        },
        {
          "internalType": "uint256",
          "name": "treated",
          "type": "uint256"
        }
      ],
      "stateMutability": "view",
      "type": "function"
    },
    {
      "inputs": [
        {
          "internalType": "bytes32",
          "name": "role",
          "type": "bytes32"
        }
      ],
      "name": "getRoleAdmin",
      "outputs": [
        {
          "internalType": "bytes32",
          "name": "",
          "type": "bytes32"
        }
      ],
      "stateMutability": "view",
      "type": "function"
    },
    {
      "inputs": [
        {
          "internalType": "bytes32",
          "name": "role",
          "type": "bytes32"
        },
        {
          "internalType": "uint256",
          "name": "index",
          "type": "uint256"
        }
      ],
      "name": "getRoleMember",
      "outputs": [
        {
          "internalType": "address",
          "name": "",
          "type": "address"
        }
      ],
      "stateMutability": "view",
      "type": "function"
    },
    {
      "inputs": [
        {
          "internalType": "bytes32",
          "name": "role",
          "type": "bytes32"
        }
      ],
      "name": "getRoleMemberCount",
      "outputs": [
        {
          "internalType": "uint256",
          "name": "",
          "type": "uint256"
        }
      ],
      "stateMutability": "view",
      "type": "function"
    },
    {
      "inputs": [
        {
          "internalType": "bytes32",
          "name": "role",
          "type": "bytes32"
        },
        {
          "internalType": "address",
          "name": "account",
          "type": "address"
        }
      ],
      "name": "grantRole",
      "outputs": [],
      "stateMutability": "nonpayable",
      "type": "function"
    },
    {
      "inputs": [
        {
          "internalType": "bytes32",
          "name": "role",
          "type": "bytes32"
        },
        {
          "internalType": "address",
          "name": "account",
          "type": "address"
        }
      ],
      "name": "hasRole",
      "outputs": [
        {
          "internalType": "bool",
          "name": "",
          "type": "bool"
        }
      ],
      "stateMutability": "view",
      "type": "function"
    },
    {
      "inputs": [
        {
          "internalType": "address",
          "name": "spender",
          "type": "address"
        },
        {
          "internalType": "uint256[]",
          "name": "tokenIds",
          "type": "uint256[]"
        }
      ],
      "name": "hatch",
      "outputs": [],
      "stateMutability": "nonpayable",
      "type": "function"
    },
    {
      "inputs": [],
      "name": "imageBaseURI",
      "outputs": [
        {
          "internalType": "string",
          "name": "",
          "type": "string"
        }
      ],
      "stateMutability": "view",
      "type": "function"
    },
    {
      "inputs": [],
      "name": "initialize",
      "outputs": [],
      "stateMutability": "nonpayable",
      "type": "function"
    },
    {
      "inputs": [
        {
          "internalType": "address",
          "name": "owner",
          "type": "address"
        },
        {
          "internalType": "address",
          "name": "operator",
          "type": "address"
        }
      ],
      "name": "isApprovedForAll",
      "outputs": [
        {
          "internalType": "bool",
          "name": "",
          "type": "bool"
        }
      ],
      "stateMutability": "view",
      "type": "function"
    },
    {
      "inputs": [],
      "name": "lastMinted",
      "outputs": [
        {
          "internalType": "uint256",
          "name": "",
          "type": "uint256"
        }
      ],
      "stateMutability": "view",
      "type": "function"
    },
    {
      "inputs": [
        {
          "internalType": "address",
          "name": "",
          "type": "address"
        }
      ],
      "name": "lockedMintsRemaining",
      "outputs": [
        {
          "internalType": "uint256",
          "name": "",
          "type": "uint256"
        }
      ],
      "stateMutability": "view",
      "type": "function"
    },
    {
      "inputs": [],
      "name": "mint",
      "outputs": [],
      "stateMutability": "nonpayable",
      "type": "function"
    },
    {
      "inputs": [],
      "name": "mintLocked",
      "outputs": [],
      "stateMutability": "nonpayable",
      "type": "function"
    },
    {
      "inputs": [],
      "name": "name",
      "outputs": [
        {
          "internalType": "string",
          "name": "",
          "type": "string"
        }
      ],
      "stateMutability": "view",
      "type": "function"
    },
    {
      "inputs": [
        {
          "internalType": "uint256",
          "name": "tokenId",
          "type": "uint256"
        }
      ],
      "name": "ownerOf",
      "outputs": [
        {
          "internalType": "address",
          "name": "",
          "type": "address"
        }
      ],
      "stateMutability": "view",
      "type": "function"
    },
    {
      "inputs": [],
      "name": "pause",
      "outputs": [],
      "stateMutability": "nonpayable",
      "type": "function"
    },
    {
      "inputs": [],
      "name": "paused",
      "outputs": [
        {
          "internalType": "bool",
          "name": "",
          "type": "bool"
        }
      ],
      "stateMutability": "view",
      "type": "function"
    },
    {
      "inputs": [
        {
          "internalType": "address",
          "name": "_address",
          "type": "address"
        }
      ],
      "name": "removeBlacklist",
      "outputs": [],
      "stateMutability": "nonpayable",
      "type": "function"
    },
    {
      "inputs": [
        {
          "internalType": "bytes32",
          "name": "role",
          "type": "bytes32"
        },
        {
          "internalType": "address",
          "name": "account",
          "type": "address"
        }
      ],
      "name": "renounceRole",
      "outputs": [],
      "stateMutability": "nonpayable",
      "type": "function"
    },
    {
      "inputs": [
        {
          "internalType": "bytes32",
          "name": "role",
          "type": "bytes32"
        },
        {
          "internalType": "address",
          "name": "account",
          "type": "address"
        }
      ],
      "name": "revokeRole",
      "outputs": [],
      "stateMutability": "nonpayable",
      "type": "function"
    },
    {
      "inputs": [
        {
          "internalType": "address",
          "name": "from",
          "type": "address"
        },
        {
          "internalType": "address",
          "name": "to",
          "type": "address"
        },
        {
          "internalType": "uint256",
          "name": "tokenId",
          "type": "uint256"
        }
      ],
      "name": "safeTransferFrom",
      "outputs": [],
      "stateMutability": "nonpayable",
      "type": "function"
    },
    {
      "inputs": [
        {
          "internalType": "address",
          "name": "from",
          "type": "address"
        },
        {
          "internalType": "address",
          "name": "to",
          "type": "address"
        },
        {
          "internalType": "uint256",
          "name": "tokenId",
          "type": "uint256"
        },
        {
          "internalType": "bytes",
          "name": "data",
          "type": "bytes"
        }
      ],
      "name": "safeTransferFrom",
      "outputs": [],
      "stateMutability": "nonpayable",
      "type": "function"
    },
    {
      "inputs": [
        {
          "internalType": "address",
          "name": "operator",
          "type": "address"
        },
        {
          "internalType": "bool",
          "name": "approved",
          "type": "bool"
        }
      ],
      "name": "setApprovalForAll",
      "outputs": [],
      "stateMutability": "nonpayable",
      "type": "function"
    },
    {
      "inputs": [
        {
          "internalType": "uint256",
          "name": "_cap",
          "type": "uint256"
        }
      ],
      "name": "setCap",
      "outputs": [],
      "stateMutability": "nonpayable",
      "type": "function"
    },
    {
      "inputs": [
        {
          "internalType": "string",
          "name": "imageBaseUri",
          "type": "string"
        }
      ],
      "name": "setImageBaseUri",
      "outputs": [],
      "stateMutability": "nonpayable",
      "type": "function"
    },
    {
      "inputs": [
        {
          "internalType": "uint256",
          "name": "dollarOfEvo",
          "type": "uint256"
        }
      ],
      "name": "setPrices",
      "outputs": [],
      "stateMutability": "nonpayable",
      "type": "function"
    },
    {
      "inputs": [
        {
          "internalType": "uint256",
          "name": "time",
          "type": "uint256"
        }
      ],
      "name": "setStartTime",
      "outputs": [],
      "stateMutability": "nonpayable",
      "type": "function"
    },
    {
      "inputs": [
        {
          "internalType": "bytes4",
          "name": "interfaceId",
          "type": "bytes4"
        }
      ],
      "name": "supportsInterface",
      "outputs": [
        {
          "internalType": "bool",
          "name": "",
          "type": "bool"
        }
      ],
      "stateMutability": "view",
      "type": "function"
    },
    {
      "inputs": [],
      "name": "symbol",
      "outputs": [
        {
          "internalType": "string",
          "name": "",
          "type": "string"
        }
      ],
      "stateMutability": "view",
      "type": "function"
    },
    {
      "inputs": [
        {
          "internalType": "uint256",
          "name": "index",
          "type": "uint256"
        }
      ],
      "name": "tokenByIndex",
      "outputs": [
        {
          "internalType": "uint256",
          "name": "",
          "type": "uint256"
        }
      ],
      "stateMutability": "view",
      "type": "function"
    },
    {
      "inputs": [
        {
          "internalType": "address",
          "name": "owner",
          "type": "address"
        },
        {
          "internalType": "uint256",
          "name": "index",
          "type": "uint256"
        }
      ],
      "name": "tokenOfOwnerByIndex",
      "outputs": [
        {
          "internalType": "uint256",
          "name": "",
          "type": "uint256"
        }
      ],
      "stateMutability": "view",
      "type": "function"
    },
    {
      "inputs": [
        {
          "internalType": "uint256",
          "name": "tokenId",
          "type": "uint256"
        }
      ],
      "name": "tokenURI",
      "outputs": [
        {
          "internalType": "string",
          "name": "",
          "type": "string"
        }
      ],
      "stateMutability": "view",
      "type": "function"
    },
    {
      "inputs": [
        {
          "internalType": "address",
          "name": "owner",
          "type": "address"
        }
      ],
      "name": "tokensOfOwner",
      "outputs": [
        {
          "internalType": "uint256[]",
          "name": "",
          "type": "uint256[]"
        }
      ],
      "stateMutability": "view",
      "type": "function"
    },
    {
      "inputs": [],
      "name": "totalSupply",
      "outputs": [
        {
          "internalType": "uint256",
          "name": "",
          "type": "uint256"
        }
      ],
      "stateMutability": "view",
      "type": "function"
    },
    {
      "inputs": [
        {
          "internalType": "address",
          "name": "from",
          "type": "address"
        },
        {
          "internalType": "address",
          "name": "to",
          "type": "address"
        },
        {
          "internalType": "uint256",
          "name": "tokenId",
          "type": "uint256"
        }
      ],
      "name": "transferFrom",
      "outputs": [],
      "stateMutability": "nonpayable",
      "type": "function"
    },
    {
      "inputs": [
        {
          "internalType": "address",
          "name": "from",
          "type": "address"
        },
        {
          "internalType": "address",
          "name": "to",
          "type": "address"
        },
        {
          "internalType": "uint256",
          "name": "tokenId",
          "type": "uint256"
        }
      ],
      "name": "transferTeamEgg",
      "outputs": [],
      "stateMutability": "nonpayable",
      "type": "function"
    },
    {
      "inputs": [
        {
          "internalType": "address",
          "name": "from",
          "type": "address"
        },
        {
          "internalType": "address",
          "name": "to",
          "type": "address"
        },
        {
          "internalType": "uint256[]",
          "name": "tokenIds",
          "type": "uint256[]"
        }
      ],
      "name": "transferTeamEggs",
      "outputs": [],
      "stateMutability": "nonpayable",
      "type": "function"
    },
    {
      "inputs": [
        {
          "internalType": "uint256",
          "name": "tokenId",
          "type": "uint256"
        }
      ],
      "name": "treat",
      "outputs": [],
      "stateMutability": "nonpayable",
      "type": "function"
    },
    {
      "inputs": [],
      "name": "unpause",
      "outputs": [],
      "stateMutability": "nonpayable",
      "type": "function"
    },
    {
      "inputs": [
        {
          "internalType": "uint256[]",
          "name": "tokenIds",
          "type": "uint256[]"
        }
      ],
      "name": "updateAttribute",
      "outputs": [],
      "stateMutability": "nonpayable",
      "type": "function"
    }
  ],
  "bytecode": "0x60806040523480156200001157600080fd5b506200001c62000022565b620000e4565b600054610100900460ff16156200008f5760405162461bcd60e51b815260206004820152602760248201527f496e697469616c697a61626c653a20636f6e747261637420697320696e697469604482015266616c697a696e6760c81b606482015260840160405180910390fd5b60005460ff9081161015620000e2576000805460ff191660ff9081179091556040519081527f7f26b83ff96e1f2b6a682f133852f6798a09c465da95921460cefb38474024989060200160405180910390a15b565b6141cc80620000f46000396000f3fe608060405234801561001057600080fd5b50600436106103425760003560e01c806375b238fc116101b8578063a22cb46511610104578063d5391393116100a2578063df3c3a301161007c578063df3c3a3014610728578063e985e9c514610730578063eb91e6511461076c578063f3993d111461077f57600080fd5b8063d5391393146106dd578063d547741f14610704578063db00fb201461071757600080fd5b8063bbc19ab0116100de578063bbc19ab0146106a7578063c0687f0d146106af578063c87b56dd146106b7578063ca15c873146106ca57600080fd5b8063a22cb4651461066e578063a3201daa14610681578063b88d4fde1461069457600080fd5b80639010d07c1161017157806396908f511161014b57806396908f51146106205780639cfe42da146106405780639f83bcb214610653578063a217fddf1461066657600080fd5b80639010d07c146105f257806391d148541461060557806395d89b411461061857600080fd5b806375b238fc1461058457806377645839146105995780637b092b6b146105a15780638129fc1c146105c25780638456cb59146105ca5780638462151c146105d257600080fd5b8063356f2b53116102925780634e2ff818116102305780636352211e1161020a5780636352211e146105165780636d94f13a146105295780636f35f57c1461054957806370a082311461057157600080fd5b80634e2ff818146104e55780634f6ccce7146104f85780635c975abb1461050b57600080fd5b80633e0a322d1161026c5780633e0a322d146104a45780633f4ba83a146104b757806342842e0e146104bf57806347786d37146104d257600080fd5b8063356f2b531461046b57806336568abe1461047e57806339b92bbb1461049157600080fd5b80631249c58b116102ff578063248a9ca3116102d9578063248a9ca3146104175780632f2ff15d1461043b5780632f745c591461044e578063355274ea1461046157600080fd5b80631249c58b146103ea57806318160ddd146103f257806323b872dd1461040457600080fd5b806301ffc9a71461034757806302b3b3681461036f57806306fdde0314610384578063081812fc14610399578063095ea7b3146103c45780630b6539e7146103d7575b600080fd5b61035a61035536600461351e565b610792565b60405190151581526020015b60405180910390f35b61038261037d36600461353b565b6107a3565b005b61038c610978565b60405161036691906135ac565b6103ac6103a736600461353b565b610a0a565b6040516001600160a01b039091168152602001610366565b6103826103d23660046135db565b610a31565b6103826103e53660046136ca565b610b47565b610382610c1e565b6099545b604051908152602001610366565b610382610412366004613717565b610d5a565b6103f661042536600461353b565b600090815261012d602052604090206001015490565b610382610449366004613753565b610d8b565b6103f661045c3660046135db565b610db1565b6103f661022b5481565b610382610479366004613717565b610e47565b61038261048c366004613753565b610e78565b61038261049f3660046137d6565b610ef6565b6103826104b236600461353b565b610f22565b610382610f41565b6103826104cd366004613717565b610f64565b6103826104e036600461353b565b610f7f565b6103826104f336600461381e565b610f9e565b6103f661050636600461353b565b611026565b60fb5460ff1661035a565b6103ac61052436600461353b565b6110b9565b61053c61053736600461387b565b611119565b60405161036691906138af565b6102305461023254610231545b60408051938452602084019290925290820152606001610366565b6103f661057f366004613911565b6111d1565b6103f660008051602061417783398151915281565b61038c611257565b6103f66105af366004613911565b6102376020526000908152604090205481565b6103826112e6565b610382611549565b6105e56105e0366004613911565b611569565b604051610366919061392c565b6103ac610600366004613970565b61160a565b61035a610613366004613753565b61162a565b61038c611656565b61063361062e36600461387b565b611665565b6040516103669190613992565b61038261064e366004613911565b611729565b61038261066136600461387b565b61174d565b6103f6600081565b61038261067c3660046139da565b611868565b61038261068f36600461353b565b611873565b6103826106a2366004613a11565b6118bd565b6103f66118ef565b61055661190c565b61038c6106c536600461353b565b61193a565b6103f66106d836600461353b565b611b30565b6103f67f9f2df0fed2c77648de5860a4cc508cd0818c85b8b8a1ab4ceeef8d981c8956a681565b610382610712366004613753565b611b48565b61022d5461022e5461022f54610556565b610382611b6e565b61035a61073e366004613a8c565b6001600160a01b039182166000908152606a6020908152604080832093909416825291909152205460ff1690565b61038261077a366004613911565b611cf0565b61038261078d36600461381e565b611d14565b600061079d82611d56565b92915050565b6000805160206141778339815191526107bb81611d61565b336107c5836110b9565b6001600160a01b03161461080c5760405162461bcd60e51b81526020600482015260096024820152682737ba1037bbb732b960b91b60448201526064015b60405180910390fd5b6000828152610238602052604090205460ff16156108635760405162461bcd60e51b815260206004820152601460248201527345676720616c726561647920747265617465642160601b6044820152606401610803565b610228546001600160a01b03166323b872dd3361022a5461022f5460405160e085901b6001600160e01b03191681526001600160a01b0393841660048201529290911660248301526044820152606401602060405180830381600087803b1580156108cd57600080fd5b505af11580156108e1573d6000803e3d6000fd5b505050506040513d601f19601f820116820180604052508101906109059190613ab6565b50600082815261023860205260408120805460ff1916600117905561022f54610231805491929091610938908490613ae9565b909155505061023580546001019055604051829033907f2b46c803cd96db888f07882ad77808b66dada9f88a734eed1db5d86fbb97ce6d90600090a35050565b60606065805461098790613b01565b80601f01602080910402602001604051908101604052809291908181526020018280546109b390613b01565b8015610a005780601f106109d557610100808354040283529160200191610a00565b820191906000526020600020905b8154815290600101906020018083116109e357829003601f168201915b5050505050905090565b6000610a1582611d6b565b506000908152606960205260409020546001600160a01b031690565b6000610a3c826110b9565b9050806001600160a01b0316836001600160a01b03161415610aaa5760405162461bcd60e51b815260206004820152602160248201527f4552433732313a20617070726f76616c20746f2063757272656e74206f776e656044820152603960f91b6064820152608401610803565b336001600160a01b0382161480610ac65750610ac6813361073e565b610b385760405162461bcd60e51b815260206004820152603e60248201527f4552433732313a20617070726f76652063616c6c6572206973206e6f7420746f60448201527f6b656e206f776e6572206e6f7220617070726f76656420666f7220616c6c00006064820152608401610803565b610b428383611dca565b505050565b7f9f2df0fed2c77648de5860a4cc508cd0818c85b8b8a1ab4ceeef8d981c8956a6610b7181611d61565b60005b8251811015610c1857610ba084848381518110610b9357610b93613b3c565b6020026020010151611e38565b610be45760405162461bcd60e51b81526020600482015260156024820152742737ba1030b8383937bb32b21037b91037bbb732b960591b6044820152606401610803565b610c06838281518110610bf957610bf9613b3c565b6020026020010151611eb7565b80610c1081613b52565b915050610b74565b50505050565b60026101f5541415610c725760405162461bcd60e51b815260206004820152601f60248201527f5265656e7472616e637947756172643a207265656e7472616e742063616c6c006044820152606401610803565b60026101f555610c80611f5e565b610228546001600160a01b03166323b872dd3361022a5461022d5460405160e085901b6001600160e01b03191681526001600160a01b0393841660048201529290911660248301526044820152606401602060405180830381600087803b158015610cea57600080fd5b505af1158015610cfe573d6000803e3d6000fd5b505050506040513d601f19601f82011682018060405250810190610d229190613ab6565b5061022d546102306000828254610d399190613ae9565b9091555050610233805460010190555b610d5233611fa6565b60016101f555565b610d643382611e38565b610d805760405162461bcd60e51b815260040161080390613b6d565b610b4283838361205e565b600082815261012d6020526040902060010154610da781611d61565b610b428383612205565b6000610dbc836111d1565b8210610e1e5760405162461bcd60e51b815260206004820152602b60248201527f455243373231456e756d657261626c653a206f776e657220696e646578206f7560448201526a74206f6620626f756e647360a81b6064820152608401610803565b506001600160a01b03919091166000908152609760209081526040808320938352929052205490565b600080516020614177833981519152610e5f81611d61565b6032821115610e6d57600080fd5b610c1884848461205e565b6001600160a01b0381163314610ee85760405162461bcd60e51b815260206004820152602f60248201527f416363657373436f6e74726f6c3a2063616e206f6e6c792072656e6f756e636560448201526e103937b632b9903337b91039b2b63360891b6064820152608401610803565b610ef28282612228565b5050565b600080516020614177833981519152610f0e81611d61565b8151610b429061023690602085019061346f565b600080516020614177833981519152610f3a81611d61565b5061022c55565b600080516020614177833981519152610f5981611d61565b610f6161224b565b50565b610b42838383604051806020016040528060008152506118bd565b600080516020614177833981519152610f9781611d61565b5061022b55565b600080516020614177833981519152610fb681611d61565b60005b825181101561101f576032838281518110610fd657610fd6613b3c565b60200260200101511115610fe957600080fd5b61100d858585848151811061100057611000613b3c565b602002602001015161205e565b8061101781613b52565b915050610fb9565b5050505050565b600061103160995490565b82106110945760405162461bcd60e51b815260206004820152602c60248201527f455243373231456e756d657261626c653a20676c6f62616c20696e646578206f60448201526b7574206f6620626f756e647360a01b6064820152608401610803565b609982815481106110a7576110a7613b3c565b90600052602060002001549050919050565b6000818152606760205260408120546001600160a01b03168061079d5760405162461bcd60e51b8152602060048201526018602482015277115490cdcc8c4e881a5b9d985b1a59081d1bdad95b88125160421b6044820152606401610803565b6060600082516001600160401b0381111561113657611136613605565b60405190808252806020026020018201604052801561116957816020015b60608152602001906001900390816111545790505b50905060005b83518110156111ca5761119a84828151811061118d5761118d613b3c565b602002602001015161193a565b8282815181106111ac576111ac613b3c565b602002602001018190525080806111c290613b52565b91505061116f565b5092915050565b60006001600160a01b03821661123b5760405162461bcd60e51b815260206004820152602960248201527f4552433732313a2061646472657373207a65726f206973206e6f7420612076616044820152683634b21037bbb732b960b91b6064820152608401610803565b506001600160a01b031660009081526068602052604090205490565b610236805461126590613b01565b80601f016020809104026020016040519081016040528092919081815260200182805461129190613b01565b80156112de5780601f106112b3576101008083540402835291602001916112de565b820191906000526020600020905b8154815290600101906020018083116112c157829003601f168201915b505050505081565b600054610100900460ff16158080156113065750600054600160ff909116105b806113205750303b158015611320575060005460ff166001145b6113835760405162461bcd60e51b815260206004820152602e60248201527f496e697469616c697a61626c653a20636f6e747261637420697320616c72656160448201526d191e481a5b9a5d1a585b1a5e995960921b6064820152608401610803565b6000805460ff1916600117905580156113a6576000805461ff0019166101001790555b6113f66040518060400160405280600c81526020016b045766f204567672047656e360a41b8152506040518060400160405280600a815260200169045564f45474747454e360b41b81525061229d565b6113fe6122ce565b6114066122fd565b61140e61232c565b61141661235b565b61141e612382565b611429600033612205565b61144160008051602061417783398151915233612205565b61146b7f9f2df0fed2c77648de5860a4cc508cd0818c85b8b8a1ab4ceeef8d981c8956a633612205565b61022a80546001600160a01b03199081167339af60141b91f7941eb13aeda2124a61a953b7c017909155610228805482167342006ab57701251b580bdfc24778c43c9ff589a11790556102298054909116737b5501109c2605834f7a4153a75850db7521c37e179055610bea61022b556362c870a061022c556114ee6102275490565b6115015761150161022780546001019055565b8015610f61576000805461ff0019169055604051600181527f7f26b83ff96e1f2b6a682f133852f6798a09c465da95921460cefb38474024989060200160405180910390a150565b60008051602061417783398151915261156181611d61565b610f616123b1565b60606000611576836111d1565b90506000816001600160401b0381111561159257611592613605565b6040519080825280602002602001820160405280156115bb578160200160208202803683370190505b50905060005b82811015611602576115d38582610db1565b8282815181106115e5576115e5613b3c565b6020908102919091010152806115fa81613b52565b9150506115c1565b509392505050565b600082815261015f6020526040812061162390836123ee565b9392505050565b600091825261012d602090815260408084206001600160a01b0393909316845291905290205460ff1690565b60606066805461098790613b01565b6060600082516001600160401b0381111561168257611682613605565b6040519080825280602002602001820160405280156116ab578160200160208202803683370190505b50905060005b83518110156111ca5761023860008583815181106116d1576116d1613b3c565b6020026020010151815260200190815260200160002060009054906101000a900460ff1682828151811061170757611707613b3c565b911515602092830291909101909101528061172181613b52565b9150506116b1565b60008051602061417783398151915261174181611d61565b610b426101c2836123fa565b60008051602061417783398151915261176581611d61565b60005b8251811015610b4257610238600084838151811061178857611788613b3c565b60209081029190910181015182528101919091526040016000205460ff1661185657600161023860008584815181106117c3576117c3613b3c565b6020026020010151815260200190815260200160002060006101000a81548160ff0219169083151502179055506117ff61023580546001019055565b82818151811061181157611811613b3c565b60200260200101516118203390565b6001600160a01b03167f2b46c803cd96db888f07882ad77808b66dada9f88a734eed1db5d86fbb97ce6d60405160405180910390a35b8061186081613b52565b915050611768565b610ef233838361240f565b60008051602061417783398151915261188b81611d61565b6118968260c8613bbb565b61022d556118a682610320613bbb565b61022e556118b582600a613bbb565b61022f555050565b6118c73383611e38565b6118e35760405162461bcd60e51b815260040161080390613b6d565b610c18848484846124de565b600060016118fd6102275490565b6119079190613bda565b905090565b600080600061191b6102335490565b92506119276102345490565b91506119336102355490565b9050909192565b6060600061023661195461194f600486613c07565b612511565b604051602001611965929190613cb5565b60408051601f198184030181529190529050600061023661198a61194f600487613c07565b60405160200161199b929190613ce9565b604051602081830303815290604052905060006119b785612511565b83836040516020016119cb93929190613d1e565b6040516020818303038152906040529050600060328611156119fc5760405180602001604052806000815250611a29565b604051806040016040528060138152602001721ec89d985b1d59488e88089cdd185999889f4b606a1b8152505b604051602001611a399190613e32565b60408051601f198184030181529181526000888152610238602052908120549192509060ff16611a785760405180602001604052806000815250611aac565b604051741ec89d985b1d59488e88089d1c99585d1959089f4b605a1b60208201526035016040516020818303038152906040525b905060008282604051602001611ac3929190613e4e565b604051602081830303815290604052905060008482604051602001611ae9929190613f01565b6040516020818303038152906040529050611b038161260e565b604051602001611b139190613f4e565b604051602081830303815290604052975050505050505050919050565b600081815261015f6020526040812061079d90612761565b600082815261012d6020526040902060010154611b6481611d61565b610b428383612228565b60026101f5541415611bc25760405162461bcd60e51b815260206004820152601f60248201527f5265656e7472616e637947756172643a207265656e7472616e742063616c6c006044820152606401610803565b60026101f555611bd0611f5e565b3360009081526102376020526040902054600211611c305760405162461bcd60e51b815260206004820152601960248201527f4e6f206c6f636b6564206d696e74732072656d61696e696e67000000000000006044820152606401610803565b33600090815261023760205260408120805491611c4c83613b52565b9091555050610229546001600160a01b031663c06bab2b3361022e546040516001600160e01b031960e085901b1681526001600160a01b0390921660048301526024820152604401600060405180830381600087803b158015611cae57600080fd5b505af1158015611cc2573d6000803e3d6000fd5b5050505061022e546102326000828254611cdc9190613ae9565b909155505061023480546001019055610d49565b600080516020614177833981519152611d0881611d61565b610b426101c28361276b565b60005b8151811015610c1857611d448484848481518110611d3757611d37613b3c565b6020026020010151610d5a565b80611d4e81613b52565b915050611d17565b600061079d82612780565b610f6181336127a5565b6000818152606760205260409020546001600160a01b0316610f615760405162461bcd60e51b8152602060048201526018602482015277115490cdcc8c4e881a5b9d985b1a59081d1bdad95b88125160421b6044820152606401610803565b600081815260696020526040902080546001600160a01b0319166001600160a01b0384169081179091558190611dff826110b9565b6001600160a01b03167f8c5be1e5ebec7d5bd14f71427d1e84f3dd0314c0f7b2291e5b200ac8c7c3b92560405160405180910390a45050565b600080611e44836110b9565b9050806001600160a01b0316846001600160a01b03161480611e8b57506001600160a01b038082166000908152606a602090815260408083209388168352929052205460ff165b80611eaf5750836001600160a01b0316611ea484610a0a565b6001600160a01b0316145b949350505050565b6000611ec2826110b9565b9050611ed081600084612809565b611edb600083611dca565b6001600160a01b0381166000908152606860205260408120805460019290611f04908490613bda565b909155505060008281526067602052604080822080546001600160a01b0319169055518391906001600160a01b038416907fddf252ad1be2c89b69c2b068fc378daa952ba7f163c4a11628f55a4df523b3ef908390a45050565b60fb5460ff1615611fa45760405162461bcd60e51b815260206004820152601060248201526f14185d5cd8589b194e881c185d5cd95960821b6044820152606401610803565b565b6000611fb26102275490565b90504261022c5411156120075760405162461bcd60e51b815260206004820152601860248201527f4d696e7420686173206e6f7420737461727465642079657400000000000000006044820152606401610803565b61022b548111156120455760405162461bcd60e51b815260206004820152600860248201526714dbdb19081bdd5d60c21b6044820152606401610803565b61205461022780546001019055565b610ef2828261291b565b826001600160a01b0316612071826110b9565b6001600160a01b0316146120d55760405162461bcd60e51b815260206004820152602560248201527f4552433732313a207472616e736665722066726f6d20696e636f72726563742060448201526437bbb732b960d91b6064820152608401610803565b6001600160a01b0382166121375760405162461bcd60e51b8152602060048201526024808201527f4552433732313a207472616e7366657220746f20746865207a65726f206164646044820152637265737360e01b6064820152608401610803565b612142838383612809565b61214d600082611dca565b6001600160a01b0383166000908152606860205260408120805460019290612176908490613bda565b90915550506001600160a01b03821660009081526068602052604081208054600192906121a4908490613ae9565b909155505060008181526067602052604080822080546001600160a01b0319166001600160a01b0386811691821790925591518493918716917fddf252ad1be2c89b69c2b068fc378daa952ba7f163c4a11628f55a4df523b3ef91a4505050565b61220f8282612935565b600082815261015f60205260409020610b4290826123fa565b61223282826129bc565b600082815261015f60205260409020610b42908261276b565b612253612a24565b60fb805460ff191690557f5db9ee0a495bf2e6ff9c91a7834c1ba4fdd244a5e8aa4e537bd38aeae4b073aa335b6040516001600160a01b03909116815260200160405180910390a1565b600054610100900460ff166122c45760405162461bcd60e51b815260040161080390613f93565b610ef28282612a6d565b600054610100900460ff166122f55760405162461bcd60e51b815260040161080390613f93565b611fa461235b565b600054610100900460ff166123245760405162461bcd60e51b815260040161080390613f93565b6122f561235b565b600054610100900460ff166123535760405162461bcd60e51b815260040161080390613f93565b611fa4612abb565b600054610100900460ff16611fa45760405162461bcd60e51b815260040161080390613f93565b600054610100900460ff166123a95760405162461bcd60e51b815260040161080390613f93565b611fa4612aee565b6123b9611f5e565b60fb805460ff191660011790557f62e78cea01bee320cd4e420270b5ea74000d11b0c9f74754ebdbfc544b05a2586122803390565b60006116238383612b15565b6000611623836001600160a01b038416612b3f565b816001600160a01b0316836001600160a01b031614156124715760405162461bcd60e51b815260206004820152601960248201527f4552433732313a20617070726f766520746f2063616c6c6572000000000000006044820152606401610803565b6001600160a01b038381166000818152606a6020908152604080832094871680845294825291829020805460ff191686151590811790915591519182527f17307eab39ab6107e8899845ad3d59bd9653f200f220920489ca2b5937696c31910160405180910390a3505050565b6124e984848461205e565b6124f584848484612b8e565b610c185760405162461bcd60e51b815260040161080390613fde565b6060816125355750506040805180820190915260018152600360fc1b602082015290565b8160005b811561255f578061254981613b52565b91506125589050600a83614030565b9150612539565b6000816001600160401b0381111561257957612579613605565b6040519080825280601f01601f1916602001820160405280156125a3576020820181803683370190505b5090505b8415611eaf576125b8600183613bda565b91506125c5600a86613c07565b6125d0906030613ae9565b60f81b8183815181106125e5576125e5613b3c565b60200101906001600160f81b031916908160001a905350612607600a86614030565b94506125a7565b606081516000141561262e57505060408051602081019091526000815290565b6000604051806060016040528060408152602001614137604091399050600060038451600261265d9190613ae9565b6126679190614030565b612672906004613bbb565b6001600160401b0381111561268957612689613605565b6040519080825280601f01601f1916602001820160405280156126b3576020820181803683370190505b509050600182016020820185865187015b8082101561271f576003820191508151603f8160121c168501518453600184019350603f81600c1c168501518453600184019350603f8160061c168501518453600184019350603f81168501518453506001830192506126c4565b505060038651066001811461273b576002811461274e57612756565b603d6001830353603d6002830353612756565b603d60018303535b509195945050505050565b600061079d825490565b6000611623836001600160a01b038416612c9b565b60006001600160e01b03198216635a05180f60e01b148061079d575061079d82612d8e565b6127af828261162a565b610ef2576127c7816001600160a01b03166014612db3565b6127d2836020612db3565b6040516020016127e3929190614044565b60408051601f198184030181529082905262461bcd60e51b8252610803916004016135ac565b612811611f5e565b828282732f52abfca2074b99759b58345bb984419d304243603282118061283f57506001600160a01b038416155b8061285157506001600160a01b038316155b8061286d5750806001600160a01b0316846001600160a01b0316145b806128895750806001600160a01b0316836001600160a01b0316145b806128a2575061022a546001600160a01b038581169116145b806128bb575061022a546001600160a01b038481169116145b6129075760405162461bcd60e51b815260206004820152601e60248201527f5465616d204567677320617265206e6f6e2d7472616e7366657261626c6500006044820152606401610803565b612912878787612f4e565b50505050505050565b610ef2828260405180602001604052806000815250612ff9565b61293f828261162a565b610ef257600082815261012d602090815260408083206001600160a01b03851684529091529020805460ff191660011790556129783390565b6001600160a01b0316816001600160a01b0316837f2f8788117e7eff1d82e926ec794901d17c78024a50270940304540a733656f0d60405160405180910390a45050565b6129c6828261162a565b15610ef257600082815261012d602090815260408083206001600160a01b0385168085529252808320805460ff1916905551339285917ff6391f5c32d9c69d2a47ea670b442974b53935d1edc7fd64eb21e047a839171b9190a45050565b60fb5460ff16611fa45760405162461bcd60e51b815260206004820152601460248201527314185d5cd8589b194e881b9bdd081c185d5cd95960621b6044820152606401610803565b600054610100900460ff16612a945760405162461bcd60e51b815260040161080390613f93565b8151612aa790606590602085019061346f565b508051610b4290606690602084019061346f565b600054610100900460ff16612ae25760405162461bcd60e51b815260040161080390613f93565b60fb805460ff19169055565b600054610100900460ff16610d525760405162461bcd60e51b815260040161080390613f93565b6000826000018281548110612b2c57612b2c613b3c565b9060005260206000200154905092915050565b6000818152600183016020526040812054612b865750815460018181018455600084815260208082209093018490558454848252828601909352604090209190915561079d565b50600061079d565b60006001600160a01b0384163b15612c9057604051630a85bd0160e11b81526001600160a01b0385169063150b7a0290612bd29033908990889088906004016140b9565b602060405180830381600087803b158015612bec57600080fd5b505af1925050508015612c1c575060408051601f3d908101601f19168201909252612c19918101906140ec565b60015b612c76573d808015612c4a576040519150601f19603f3d011682016040523d82523d6000602084013e612c4f565b606091505b508051612c6e5760405162461bcd60e51b815260040161080390613fde565b805181602001fd5b6001600160e01b031916630a85bd0160e11b149050611eaf565b506001949350505050565b60008181526001830160205260408120548015612d84576000612cbf600183613bda565b8554909150600090612cd390600190613bda565b9050818114612d38576000866000018281548110612cf357612cf3613b3c565b9060005260206000200154905080876000018481548110612d1657612d16613b3c565b6000918252602080832090910192909255918252600188019052604090208390555b8554869080612d4957612d49614109565b60019003818190600052602060002001600090559055856001016000868152602001908152602001600020600090556001935050505061079d565b600091505061079d565b60006001600160e01b03198216637965db0b60e01b148061079d575061079d8261302c565b60606000612dc2836002613bbb565b612dcd906002613ae9565b6001600160401b03811115612de457612de4613605565b6040519080825280601f01601f191660200182016040528015612e0e576020820181803683370190505b509050600360fc1b81600081518110612e2957612e29613b3c565b60200101906001600160f81b031916908160001a905350600f60fb1b81600181518110612e5857612e58613b3c565b60200101906001600160f81b031916908160001a9053506000612e7c846002613bbb565b612e87906001613ae9565b90505b6001811115612eff576f181899199a1a9b1b9c1cb0b131b232b360811b85600f1660108110612ebb57612ebb613b3c565b1a60f81b828281518110612ed157612ed1613b3c565b60200101906001600160f81b031916908160001a90535060049490941c93612ef88161411f565b9050612e8a565b5083156116235760405162461bcd60e51b815260206004820181905260248201527f537472696e67733a20686578206c656e67746820696e73756666696369656e746044820152606401610803565b82612f5b6101c282613037565b15612f9e5760405162461bcd60e51b8152602060048201526013602482015272426c61636b6c6973746564206164647265737360681b6044820152606401610803565b82612fab6101c282613037565b15612fee5760405162461bcd60e51b8152602060048201526013602482015272426c61636b6c6973746564206164647265737360681b6044820152606401610803565b61101f858585613059565b6130038383613064565b6130106000848484612b8e565b610b425760405162461bcd60e51b815260040161080390613fde565b600061079d826131b2565b6001600160a01b03811660009081526001830160205260408120541515611623565b610b428383836131d7565b6001600160a01b0382166130ba5760405162461bcd60e51b815260206004820181905260248201527f4552433732313a206d696e7420746f20746865207a65726f20616464726573736044820152606401610803565b6000818152606760205260409020546001600160a01b03161561311f5760405162461bcd60e51b815260206004820152601c60248201527f4552433732313a20746f6b656e20616c7265616479206d696e746564000000006044820152606401610803565b61312b60008383612809565b6001600160a01b0382166000908152606860205260408120805460019290613154908490613ae9565b909155505060008181526067602052604080822080546001600160a01b0319166001600160a01b03861690811790915590518392907fddf252ad1be2c89b69c2b068fc378daa952ba7f163c4a11628f55a4df523b3ef908290a45050565b60006001600160e01b0319821663780e9d6360e01b148061079d575061079d8261328f565b6001600160a01b0383166132325761322d81609980546000838152609a60205260408120829055600182018355919091527f72a152ddfb8e864297c917af52ea6c1c68aead0fee1a62673fcc7e0c94979d000155565b613255565b816001600160a01b0316836001600160a01b0316146132555761325583826132df565b6001600160a01b03821661326c57610b428161337c565b826001600160a01b0316826001600160a01b031614610b4257610b42828261342b565b60006001600160e01b031982166380ac58cd60e01b14806132c057506001600160e01b03198216635b5e139f60e01b145b8061079d57506301ffc9a760e01b6001600160e01b031983161461079d565b600060016132ec846111d1565b6132f69190613bda565b600083815260986020526040902054909150808214613349576001600160a01b03841660009081526097602090815260408083208584528252808320548484528184208190558352609890915290208190555b5060009182526098602090815260408084208490556001600160a01b039094168352609781528383209183525290812055565b60995460009061338e90600190613bda565b6000838152609a6020526040812054609980549394509092849081106133b6576133b6613b3c565b9060005260206000200154905080609983815481106133d7576133d7613b3c565b6000918252602080832090910192909255828152609a9091526040808220849055858252812055609980548061340f5761340f614109565b6001900381819060005260206000200160009055905550505050565b6000613436836111d1565b6001600160a01b039093166000908152609760209081526040808320868452825280832085905593825260989052919091209190915550565b82805461347b90613b01565b90600052602060002090601f01602090048101928261349d57600085556134e3565b82601f106134b657805160ff19168380011785556134e3565b828001600101855582156134e3579182015b828111156134e35782518255916020019190600101906134c8565b506134ef9291506134f3565b5090565b5b808211156134ef57600081556001016134f4565b6001600160e01b031981168114610f6157600080fd5b60006020828403121561353057600080fd5b813561162381613508565b60006020828403121561354d57600080fd5b5035919050565b60005b8381101561356f578181015183820152602001613557565b83811115610c185750506000910152565b60008151808452613598816020860160208601613554565b601f01601f19169290920160200192915050565b6020815260006116236020830184613580565b80356001600160a01b03811681146135d657600080fd5b919050565b600080604083850312156135ee57600080fd5b6135f7836135bf565b946020939093013593505050565b634e487b7160e01b600052604160045260246000fd5b604051601f8201601f191681016001600160401b038111828210171561364357613643613605565b604052919050565b600082601f83011261365c57600080fd5b813560206001600160401b0382111561367757613677613605565b8160051b61368682820161361b565b92835284810182019282810190878511156136a057600080fd5b83870192505b848310156136bf578235825291830191908301906136a6565b979650505050505050565b600080604083850312156136dd57600080fd5b6136e6836135bf565b915060208301356001600160401b0381111561370157600080fd5b61370d8582860161364b565b9150509250929050565b60008060006060848603121561372c57600080fd5b613735846135bf565b9250613743602085016135bf565b9150604084013590509250925092565b6000806040838503121561376657600080fd5b82359150613776602084016135bf565b90509250929050565b60006001600160401b0383111561379857613798613605565b6137ab601f8401601f191660200161361b565b90508281528383830111156137bf57600080fd5b828260208301376000602084830101529392505050565b6000602082840312156137e857600080fd5b81356001600160401b038111156137fe57600080fd5b8201601f8101841361380f57600080fd5b611eaf8482356020840161377f565b60008060006060848603121561383357600080fd5b61383c846135bf565b925061384a602085016135bf565b915060408401356001600160401b0381111561386557600080fd5b6138718682870161364b565b9150509250925092565b60006020828403121561388d57600080fd5b81356001600160401b038111156138a357600080fd5b611eaf8482850161364b565b6000602080830181845280855180835260408601915060408160051b870101925083870160005b8281101561390457603f198886030184526138f2858351613580565b945092850192908501906001016138d6565b5092979650505050505050565b60006020828403121561392357600080fd5b611623826135bf565b6020808252825182820181905260009190848201906040850190845b8181101561396457835183529284019291840191600101613948565b50909695505050505050565b6000806040838503121561398357600080fd5b50508035926020909101359150565b6020808252825182820181905260009190848201906040850190845b818110156139645783511515835292840192918401916001016139ae565b8015158114610f6157600080fd5b600080604083850312156139ed57600080fd5b6139f6836135bf565b91506020830135613a06816139cc565b809150509250929050565b60008060008060808587031215613a2757600080fd5b613a30856135bf565b9350613a3e602086016135bf565b92506040850135915060608501356001600160401b03811115613a6057600080fd5b8501601f81018713613a7157600080fd5b613a808782356020840161377f565b91505092959194509250565b60008060408385031215613a9f57600080fd5b613aa8836135bf565b9150613776602084016135bf565b600060208284031215613ac857600080fd5b8151611623816139cc565b634e487b7160e01b600052601160045260246000fd5b60008219821115613afc57613afc613ad3565b500190565b600181811c90821680613b1557607f821691505b60208210811415613b3657634e487b7160e01b600052602260045260246000fd5b50919050565b634e487b7160e01b600052603260045260246000fd5b6000600019821415613b6657613b66613ad3565b5060010190565b6020808252602e908201527f4552433732313a2063616c6c6572206973206e6f7420746f6b656e206f776e6560408201526d1c881b9bdc88185c1c1c9bdd995960921b606082015260800190565b6000816000190483118215151615613bd557613bd5613ad3565b500290565b600082821015613bec57613bec613ad3565b500390565b634e487b7160e01b600052601260045260246000fd5b600082613c1657613c16613bf1565b500690565b8054600090600181811c9080831680613c3557607f831692505b6020808410821415613c5757634e487b7160e01b600052602260045260246000fd5b818015613c6b5760018114613c7c57613ca9565b60ff19861689528489019650613ca9565b60008881526020902060005b86811015613ca15781548b820152908501908301613c88565b505084890196505b50505050505092915050565b6000613cc18285613c1b565b8351613cd1818360208801613554565b632e706e6760e01b9101908152600401949350505050565b6000613cf58285613c1b565b8351613d05818360208801613554565b642e7765626d60d81b9101908152600501949350505050565b71226e616d65223a202245766f20456767202360701b81528351600090613d4c816012850160208901613554565b6201116160ed1b60129184019182018190527f226465736372697074696f6e223a202245766f5665727365732047656e302045601583015264033b39116160dd1b6035830152691134b6b0b3b2911d101160b11b603a8301528551613db8816044850160208a01613554565b60449201918201819052711130b734b6b0ba34b7b72fbab936111d101160711b60478301528451613df0816059850160208901613554565b6059920191820152613e28605c82017f22616e696d6174696f6e5f74797065223a20227765626d2f6d7034222c2000008152601e0190565b9695505050505050565b60008251613e44818460208701613554565b9190910192915050565b6e2261747472696275746573223a205b60881b81528251600090613e7981600f850160208801613554565b835190830190613e9081600f840160208801613554565b7f7b2274726169745f74797065223a202267656e65726174696f6e222c20226469600f92909101918201527f73706c61795f74797065223a20226e756d626572222c202276616c7565223a20602f82015261307d60f01b604f820152605d60f81b6051820152605201949350505050565b607b60f81b815260008351613f1d816001850160208801613554565b835190830190613f34816001840160208801613554565b607d60f81b60019290910191820152600201949350505050565b7f646174613a6170706c69636174696f6e2f6a736f6e3b6261736536342c000000815260008251613f8681601d850160208701613554565b91909101601d0192915050565b6020808252602b908201527f496e697469616c697a61626c653a20636f6e7472616374206973206e6f74206960408201526a6e697469616c697a696e6760a81b606082015260800190565b60208082526032908201527f4552433732313a207472616e7366657220746f206e6f6e20455243373231526560408201527131b2b4bb32b91034b6b83632b6b2b73a32b960711b606082015260800190565b60008261403f5761403f613bf1565b500490565b7f416363657373436f6e74726f6c3a206163636f756e742000000000000000000081526000835161407c816017850160208801613554565b7001034b99036b4b9b9b4b733903937b6329607d1b60179184019182015283516140ad816028840160208801613554565b01602801949350505050565b6001600160a01b0385811682528416602082015260408101839052608060608201819052600090613e2890830184613580565b6000602082840312156140fe57600080fd5b815161162381613508565b634e487b7160e01b600052603160045260246000fd5b60008161412e5761412e613ad3565b50600019019056fe4142434445464748494a4b4c4d4e4f505152535455565758595a6162636465666768696a6b6c6d6e6f707172737475767778797a303132333435363738392b2fa49807205ce4d355092ef5a8a18f56e8913cf4a201fbe287825b095693c21775a2646970667358221220eb3e0665cc1618db69d395d5f053a3761d0a97cde9dc46d4cb7bc40de1643bbc64736f6c63430008090033",
  "linkReferences": {},
  "deployedLinkReferences": {}
}