{
  "_format": "hh-sol-artifact-1",
  "contractName": "MigrationMikeEgressUpgradeable",
  "sourceName": "contracts/npc/MigrationMike/MigrationMikeEgressUpgradeable.sol",
  "abi": [
    {
      "inputs": [],
      "stateMutability": "nonpayable",
      "type": "constructor"
    },
    {
      "anonymous": false,
      "inputs": [
        {
          "indexed": true,
          "internalType": "address",
          "name": "from",
          "type": "address"
        },
        {
          "indexed": false,
          "internalType": "uint256",
          "name": "startTime",
          "type": "uint256"
        },
        {
          "indexed": false,
          "internalType": "uint256",
          "name": "duration",
          "type": "uint256"
        },
        {
          "indexed": false,
          "internalType": "uint256",
          "name": "amount",
          "type": "uint256"
        },
        {
          "indexed": false,
          "internalType": "uint256",
          "name": "balance",
          "type": "uint256"
        }
      ],
      "name": "BridgedDisbursement",
      "type": "event"
    },
    {
      "anonymous": false,
      "inputs": [
        {
          "indexed": true,
          "internalType": "address",
          "name": "from",
          "type": "address"
        },
        {
          "indexed": true,
          "internalType": "address",
          "name": "nft",
          "type": "address"
        },
        {
          "indexed": false,
          "internalType": "uint256",
          "name": "id",
          "type": "uint256"
        }
      ],
      "name": "BridgedNFT",
      "type": "event"
    },
    {
      "anonymous": false,
      "inputs": [
        {
          "indexed": true,
          "internalType": "address",
          "name": "from",
          "type": "address"
        },
        {
          "indexed": true,
          "internalType": "address[]",
          "name": "nfts",
          "type": "address[]"
        },
        {
          "indexed": false,
          "internalType": "uint256[]",
          "name": "ids",
          "type": "uint256[]"
        }
      ],
      "name": "BridgedNFTs",
      "type": "event"
    },
    {
      "anonymous": false,
      "inputs": [
        {
          "indexed": true,
          "internalType": "address",
          "name": "from",
          "type": "address"
        },
        {
          "indexed": true,
          "internalType": "address",
          "name": "token",
          "type": "address"
        },
        {
          "indexed": false,
          "internalType": "uint256",
          "name": "amount",
          "type": "uint256"
        }
      ],
      "name": "BridgedToken",
      "type": "event"
    },
    {
      "anonymous": false,
      "inputs": [
        {
          "indexed": true,
          "internalType": "address",
          "name": "from",
          "type": "address"
        },
        {
          "indexed": true,
          "internalType": "address[]",
          "name": "tokens",
          "type": "address[]"
        },
        {
          "indexed": false,
          "internalType": "uint256[]",
          "name": "amounts",
          "type": "uint256[]"
        }
      ],
      "name": "BridgedTokens",
      "type": "event"
    },
    {
      "anonymous": false,
      "inputs": [
        {
          "indexed": false,
          "internalType": "uint8",
          "name": "version",
          "type": "uint8"
        }
      ],
      "name": "Initialized",
      "type": "event"
    },
    {
      "anonymous": false,
      "inputs": [
        {
          "indexed": false,
          "internalType": "address",
          "name": "account",
          "type": "address"
        }
      ],
      "name": "Paused",
      "type": "event"
    },
    {
      "anonymous": false,
      "inputs": [
        {
          "indexed": true,
          "internalType": "bytes32",
          "name": "role",
          "type": "bytes32"
        },
        {
          "indexed": true,
          "internalType": "bytes32",
          "name": "previousAdminRole",
          "type": "bytes32"
        },
        {
          "indexed": true,
          "internalType": "bytes32",
          "name": "newAdminRole",
          "type": "bytes32"
        }
      ],
      "name": "RoleAdminChanged",
      "type": "event"
    },
    {
      "anonymous": false,
      "inputs": [
        {
          "indexed": true,
          "internalType": "bytes32",
          "name": "role",
          "type": "bytes32"
        },
        {
          "indexed": true,
          "internalType": "address",
          "name": "account",
          "type": "address"
        },
        {
          "indexed": true,
          "internalType": "address",
          "name": "sender",
          "type": "address"
        }
      ],
      "name": "RoleGranted",
      "type": "event"
    },
    {
      "anonymous": false,
      "inputs": [
        {
          "indexed": true,
          "internalType": "bytes32",
          "name": "role",
          "type": "bytes32"
        },
        {
          "indexed": true,
          "internalType": "address",
          "name": "account",
          "type": "address"
        },
        {
          "indexed": true,
          "internalType": "address",
          "name": "sender",
          "type": "address"
        }
      ],
      "name": "RoleRevoked",
      "type": "event"
    },
    {
      "anonymous": false,
      "inputs": [
        {
          "indexed": false,
          "internalType": "address",
          "name": "account",
          "type": "address"
        }
      ],
      "name": "Unpaused",
      "type": "event"
    },
    {
      "inputs": [],
      "name": "ADMIN_ROLE",
      "outputs": [
        {
          "internalType": "bytes32",
          "name": "",
          "type": "bytes32"
        }
      ],
      "stateMutability": "view",
      "type": "function"
    },
    {
      "inputs": [],
      "name": "DEFAULT_ADMIN_ROLE",
      "outputs": [
        {
          "internalType": "bytes32",
          "name": "",
          "type": "bytes32"
        }
      ],
      "stateMutability": "view",
      "type": "function"
    },
    {
      "inputs": [
        {
          "internalType": "address",
          "name": "_address",
          "type": "address"
        }
      ],
      "name": "addBurnable",
      "outputs": [],
      "stateMutability": "nonpayable",
      "type": "function"
    },
    {
      "inputs": [
        {
          "internalType": "address[]",
          "name": "_nfts",
          "type": "address[]"
        },
        {
          "internalType": "uint256[]",
          "name": "_ids",
          "type": "uint256[]"
        }
      ],
      "name": "batchBridgeNFT",
      "outputs": [],
      "stateMutability": "nonpayable",
      "type": "function"
    },
    {
      "inputs": [
        {
          "internalType": "address[]",
          "name": "_tokens",
          "type": "address[]"
        },
        {
          "internalType": "uint256[]",
          "name": "_amounts",
          "type": "uint256[]"
        }
      ],
      "name": "batchBridgeToken",
      "outputs": [],
      "stateMutability": "nonpayable",
      "type": "function"
    },
    {
      "inputs": [],
      "name": "bridgeCEVODisbursement",
      "outputs": [],
      "stateMutability": "nonpayable",
      "type": "function"
    },
    {
      "inputs": [
        {
          "internalType": "address",
          "name": "_nft",
          "type": "address"
        },
        {
          "internalType": "uint256",
          "name": "_id",
          "type": "uint256"
        }
      ],
      "name": "bridgeNFT",
      "outputs": [],
      "stateMutability": "nonpayable",
      "type": "function"
    },
    {
      "inputs": [
        {
          "internalType": "address",
          "name": "_token",
          "type": "address"
        },
        {
          "internalType": "uint256",
          "name": "_amount",
          "type": "uint256"
        }
      ],
      "name": "bridgeToken",
      "outputs": [],
      "stateMutability": "nonpayable",
      "type": "function"
    },
    {
      "inputs": [
        {
          "internalType": "address",
          "name": "",
          "type": "address"
        }
      ],
      "name": "bridgeable",
      "outputs": [
        {
          "internalType": "bool",
          "name": "",
          "type": "bool"
        }
      ],
      "stateMutability": "view",
      "type": "function"
    },
    {
      "inputs": [
        {
          "internalType": "address",
          "name": "_address",
          "type": "address"
        }
      ],
      "name": "disableAsset",
      "outputs": [],
      "stateMutability": "nonpayable",
      "type": "function"
    },
    {
      "inputs": [
        {
          "internalType": "address",
          "name": "_address",
          "type": "address"
        }
      ],
      "name": "enableAsset",
      "outputs": [],
      "stateMutability": "nonpayable",
      "type": "function"
    },
    {
      "inputs": [],
      "name": "finishMaintenance",
      "outputs": [],
      "stateMutability": "nonpayable",
      "type": "function"
    },
    {
      "inputs": [
        {
          "internalType": "bytes32",
          "name": "role",
          "type": "bytes32"
        }
      ],
      "name": "getRoleAdmin",
      "outputs": [
        {
          "internalType": "bytes32",
          "name": "",
          "type": "bytes32"
        }
      ],
      "stateMutability": "view",
      "type": "function"
    },
    {
      "inputs": [
        {
          "internalType": "bytes32",
          "name": "role",
          "type": "bytes32"
        },
        {
          "internalType": "address",
          "name": "account",
          "type": "address"
        }
      ],
      "name": "grantRole",
      "outputs": [],
      "stateMutability": "nonpayable",
      "type": "function"
    },
    {
      "inputs": [
        {
          "internalType": "bytes32",
          "name": "role",
          "type": "bytes32"
        },
        {
          "internalType": "address",
          "name": "account",
          "type": "address"
        }
      ],
      "name": "hasRole",
      "outputs": [
        {
          "internalType": "bool",
          "name": "",
          "type": "bool"
        }
      ],
      "stateMutability": "view",
      "type": "function"
    },
    {
      "inputs": [],
      "name": "initialize",
      "outputs": [],
      "stateMutability": "nonpayable",
      "type": "function"
    },
    {
      "inputs": [],
      "name": "pause",
      "outputs": [],
      "stateMutability": "nonpayable",
      "type": "function"
    },
    {
      "inputs": [],
      "name": "paused",
      "outputs": [
        {
          "internalType": "bool",
          "name": "",
          "type": "bool"
        }
      ],
      "stateMutability": "view",
      "type": "function"
    },
    {
      "inputs": [
        {
          "internalType": "address",
          "name": "_address",
          "type": "address"
        }
      ],
      "name": "removeBurnable",
      "outputs": [],
      "stateMutability": "nonpayable",
      "type": "function"
    },
    {
      "inputs": [
        {
          "internalType": "bytes32",
          "name": "role",
          "type": "bytes32"
        },
        {
          "internalType": "address",
          "name": "account",
          "type": "address"
        }
      ],
      "name": "renounceRole",
      "outputs": [],
      "stateMutability": "nonpayable",
      "type": "function"
    },
    {
      "inputs": [
        {
          "internalType": "bytes32",
          "name": "role",
          "type": "bytes32"
        },
        {
          "internalType": "address",
          "name": "account",
          "type": "address"
        }
      ],
      "name": "revokeRole",
      "outputs": [],
      "stateMutability": "nonpayable",
      "type": "function"
    },
    {
      "inputs": [],
      "name": "startMaintenance",
      "outputs": [],
      "stateMutability": "nonpayable",
      "type": "function"
    },
    {
      "inputs": [
        {
          "internalType": "bytes4",
          "name": "interfaceId",
          "type": "bytes4"
        }
      ],
      "name": "supportsInterface",
      "outputs": [
        {
          "internalType": "bool",
          "name": "",
          "type": "bool"
        }
      ],
      "stateMutability": "view",
      "type": "function"
    },
    {
      "inputs": [],
      "name": "unpause",
      "outputs": [],
      "stateMutability": "nonpayable",
      "type": "function"
    }
  ],
  "bytecode": "0x60806040523480156200001157600080fd5b506200001c62000022565b62000152565b6200002e60ff62000031565b50565b60008054610100900460ff1615620000ca578160ff1660011480156200006a575062000068306200014360201b620011f91760201c565b155b620000c25760405162461bcd60e51b815260206004820152602e60248201526000805160206200236d83398151915260448201526d191e481a5b9a5d1a585b1a5e995960921b60648201526084015b60405180910390fd5b506000919050565b60005460ff808416911610620001295760405162461bcd60e51b815260206004820152602e60248201526000805160206200236d83398151915260448201526d191e481a5b9a5d1a585b1a5e995960921b6064820152608401620000b9565b506000805460ff191660ff92909216919091179055600190565b6001600160a01b03163b151590565b61220b80620001626000396000f3fe608060405234801561001057600080fd5b50600436106101585760003560e01c80638129fc1c116100c3578063c46f6e1a1161007c578063c46f6e1a146102ab578063c6d57f8a146102b3578063d547741f146102c6578063e7904cee146102d9578063f5175f8b146102ec578063f5f2d9f11461030f57600080fd5b80638129fc1c1461025a5780638456cb591461026257806391d148541461026a5780639601b9861461027d57806399d2da0e14610290578063a217fddf146102a357600080fd5b8063487113961161011557806348711396146101f95780634f56b6ad1461020c57806353bfb5841461021f5780635c975abb14610227578063708075281461023257806375b238fc1461024557600080fd5b806301ffc9a71461015d578063248a9ca3146101855780632aef4024146101b65780632f2ff15d146101cb57806336568abe146101de5780633f4ba83a146101f1575b600080fd5b61017061016b366004611ba3565b610317565b60405190151581526020015b60405180910390f35b6101a8610193366004611bcd565b60009081526065602052604090206001015490565b60405190815260200161017c565b6101c96101c4366004611bfd565b61034e565b005b6101c96101d9366004611c18565b61038b565b6101c96101ec366004611c18565b6103b5565b6101c9610438565b6101c9610207366004611d1a565b61045b565b6101c961021a366004611dda565b610817565b6101c96109d0565b60c95460ff16610170565b6101c9610240366004611bfd565b6109f5565b6101a86000805160206121b683398151915281565b6101c9610a2f565b6101c9610ad6565b610170610278366004611c18565b610af6565b6101c961028b366004611bfd565b610b21565b6101c961029e366004611d1a565b610b44565b6101a8600081565b6101c9610e08565b6101c96102c1366004611bfd565b610f7d565b6101c96102d4366004611c18565b610fa0565b6101c96102e7366004611dda565b610fc5565b6101706102fa366004611bfd565b60fb6020526000908152604090205460ff1681565b6101c96111d1565b60006001600160e01b03198216637965db0b60e01b148061034857506301ffc9a760e01b6001600160e01b03198316145b92915050565b6000805160206121b683398151915261036681611208565b506001600160a01b0316600090815260fb60205260409020805460ff19166001179055565b6000828152606560205260409020600101546103a681611208565b6103b08383611212565b505050565b6001600160a01b038116331461042a5760405162461bcd60e51b815260206004820152602f60248201527f416363657373436f6e74726f6c3a2063616e206f6e6c792072656e6f756e636560448201526e103937b632b9903337b91039b2b63360891b60648201526084015b60405180910390fd5b6104348282611298565b5050565b6000805160206121b683398151915261045081611208565b6104586112ff565b50565b60c95460ff161561047e5760405162461bcd60e51b815260040161042190611e04565b600260975414156104a15760405162461bcd60e51b815260040161042190611e2e565b600260975560fc5460ff1615806104cb57506104cb6000805160206121b683398151915233610af6565b6104e75760405162461bcd60e51b815260040161042190611e65565b60008251116105295760405162461bcd60e51b815260206004820152600e60248201526d4d697373696e6720746f6b656e7360901b6044820152606401610421565b805182511461057a5760405162461bcd60e51b815260206004820152601d60248201527f546f6b656e7320616e6420616d6f756e7473206d757374206d617463680000006044820152606401610421565b60005b82518110156107b05760fb600084838151811061059c5761059c611e8f565b6020908102919091018101516001600160a01b031682528101919091526040016000205460ff166105ff5760405162461bcd60e51b815260206004820152600d60248201526c24b73b30b634b2103a37b5b2b760991b6044820152606401610421565b600082828151811061061357610613611e8f565b6020026020010151116106685760405162461bcd60e51b815260206004820181905260248201527f416d6f756e74206d7573742062652067726561746572207468616e207a65726f6044820152606401610421565b61069583828151811061067d5761067d611e8f565b602002602001015160fd61139290919063ffffffff16565b1561074b578281815181106106ac576106ac611e8f565b60200260200101516001600160a01b0316639dc29fac6106c93390565b8484815181106106db576106db611e8f565b60200260200101516040518363ffffffff1660e01b81526004016107149291906001600160a01b03929092168252602082015260400190565b600060405180830381600087803b15801561072e57600080fd5b505af1158015610742573d6000803e3d6000fd5b5050505061079e565b61079e33600184848151811061076357610763611e8f565b602002602001015186858151811061077d5761077d611e8f565b60200260200101516001600160a01b03166113b7909392919063ffffffff16565b806107a881611ebb565b91505061057d565b50816040516107bf9190611ed6565b60405180910390206107ce3390565b6001600160a01b03167f45cb6f4ad5435b8b1e4079d117d8cba1e9500e83e7bb4a5ad10f613c45c07a2e836040516108069190611f15565b60405180910390a350506001609755565b60c95460ff161561083a5760405162461bcd60e51b815260040161042190611e04565b6002609754141561085d5760405162461bcd60e51b815260040161042190611e2e565b600260975560fc5460ff16158061088757506108876000805160206121b683398151915233610af6565b6108a35760405162461bcd60e51b815260040161042190611e65565b6001600160a01b038216600090815260fb602052604090205460ff166108fb5760405162461bcd60e51b815260206004820152600d60248201526c125b9d985b1a5908185cdcd95d609a1b6044820152606401610421565b816001600160a01b0381166342842e0e336040516001600160e01b031960e084901b1681526001600160a01b0390911660048201526001602482015260448101859052606401600060405180830381600087803b15801561095b57600080fd5b505af115801561096f573d6000803e3d6000fd5b50505050826001600160a01b03166109843390565b6001600160a01b03167fdfecf361db1daf13e69770ddfb6b1c17d9e7aab41098fa39ea880c41a55dda73846040516109be91815260200190565b60405180910390a35050600160975550565b6000805160206121b68339815191526109e881611208565b5060fc805460ff19169055565b6000805160206121b6833981519152610a0d81611208565b506001600160a01b0316600090815260fb60205260409020805460ff19169055565b6000610a3b6001611417565b90508015610a53576000805461ff0019166101001790555b610a5b6114a4565b610a636114cd565b610a6b6114fc565b610a76600033611212565b610a8e6000805160206121b683398151915233611212565b8015610458576000805461ff0019169055604051600181527f7f26b83ff96e1f2b6a682f133852f6798a09c465da95921460cefb38474024989060200160405180910390a150565b6000805160206121b6833981519152610aee81611208565b61045861152b565b60009182526065602090815260408084206001600160a01b0393909316845291905290205460ff1690565b6000805160206121b6833981519152610b3981611208565b6103b060fd83611583565b60c95460ff1615610b675760405162461bcd60e51b815260040161042190611e04565b60026097541415610b8a5760405162461bcd60e51b815260040161042190611e2e565b600260975560fc5460ff161580610bb45750610bb46000805160206121b683398151915233610af6565b610bd05760405162461bcd60e51b815260040161042190611e65565b6000825111610c105760405162461bcd60e51b815260206004820152600c60248201526b4d697373696e67204e46547360a01b6044820152606401610421565b8051825114610c615760405162461bcd60e51b815260206004820152601760248201527f4e46547320616e6420696473206d757374206d617463680000000000000000006044820152606401610421565b60005b8251811015610db25760fb6000848381518110610c8357610c83611e8f565b6020908102919091018101516001600160a01b031682528101919091526040016000205460ff16610ce45760405162461bcd60e51b815260206004820152600b60248201526a125b9d985b1a590813919560aa1b6044820152606401610421565b6000838281518110610cf857610cf8611e8f565b60200260200101519050806001600160a01b03166342842e0e610d183390565b6001868681518110610d2c57610d2c611e8f565b60209081029190910101516040516001600160e01b031960e086901b1681526001600160a01b0393841660048201529290911660248301526044820152606401600060405180830381600087803b158015610d8657600080fd5b505af1158015610d9a573d6000803e3d6000fd5b50505050508080610daa90611ebb565b915050610c64565b5081604051610dc19190611ed6565b6040518091039020610dd03390565b6001600160a01b03167fb5cb3ec454032982ad0279d931b3e0b637de33daa8e66bc64d595256b2a4719f836040516108069190611f15565b73465d89df3e9b1afb6957b58be6137feebb8e9f61600080808084633aef80ff336040516001600160e01b031960e084901b1681526001600160a01b03909116600482015260240160806040518083038186803b158015610e6857600080fd5b505afa158015610e7c573d6000803e3d6000fd5b505050506040513d601f19601f82011682018060405250810190610ea09190611f59565b929650909450925090506001600160a01b03851663478b7ad5336040516001600160e01b031960e084901b1681526001600160a01b03909116600482015260006024820152604401600060405180830381600087803b158015610f0257600080fd5b505af1158015610f16573d6000803e3d6000fd5b50505050610f213390565b6040805186815260208101869052908101849052606081018390526001600160a01b0391909116907f6419691910af4a81ee833ca31a946ba87c2b2ce264f50ea3a50c19966b2defca9060800160405180910390a25050505050565b6000805160206121b6833981519152610f9581611208565b6103b060fd83611598565b600082815260656020526040902060010154610fbb81611208565b6103b08383611298565b60c95460ff1615610fe85760405162461bcd60e51b815260040161042190611e04565b6002609754141561100b5760405162461bcd60e51b815260040161042190611e2e565b600260975560fc5460ff16158061103557506110356000805160206121b683398151915233610af6565b6110515760405162461bcd60e51b815260040161042190611e65565b6001600160a01b038216600090815260fb602052604090205460ff166110a95760405162461bcd60e51b815260206004820152600d60248201526c24b73b30b634b2103a37b5b2b760991b6044820152606401610421565b600081116110f95760405162461bcd60e51b815260206004820181905260248201527f416d6f756e74206d7573742062652067726561746572207468616e207a65726f6044820152606401610421565b61110460fd83611392565b1561117e576001600160a01b038216639dc29fac336040516001600160e01b031960e084901b1681526001600160a01b03909116600482015260248101849052604401600060405180830381600087803b15801561116157600080fd5b505af1158015611175573d6000803e3d6000fd5b50505050611194565b6111946001600160a01b038316336001846113b7565b6040518181526001600160a01b0383169033907f44167815d5b685c3a51c0cd3d32b7d654092f1e49d320e03ab54193c9117ffce90602001610806565b6000805160206121b68339815191526111e981611208565b5060fc805460ff19166001179055565b6001600160a01b03163b151590565b61045881336115ad565b61121c8282610af6565b6104345760008281526065602090815260408083206001600160a01b03851684529091529020805460ff191660011790556112543390565b6001600160a01b0316816001600160a01b0316837f2f8788117e7eff1d82e926ec794901d17c78024a50270940304540a733656f0d60405160405180910390a45050565b6112a28282610af6565b156104345760008281526065602090815260408083206001600160a01b0385168085529252808320805460ff1916905551339285917ff6391f5c32d9c69d2a47ea670b442974b53935d1edc7fd64eb21e047a839171b9190a45050565b60c95460ff166113485760405162461bcd60e51b815260206004820152601460248201527314185d5cd8589b194e881b9bdd081c185d5cd95960621b6044820152606401610421565b60c9805460ff191690557f5db9ee0a495bf2e6ff9c91a7834c1ba4fdd244a5e8aa4e537bd38aeae4b073aa335b6040516001600160a01b03909116815260200160405180910390a1565b6001600160a01b038116600090815260018301602052604081205415155b9392505050565b604080516001600160a01b0385811660248301528416604482015260648082018490528251808303909101815260849091019091526020810180516001600160e01b03166323b872dd60e01b179052611411908590611611565b50505050565b60008054610100900460ff161561145e578160ff16600114801561143a5750303b155b6114565760405162461bcd60e51b815260040161042190611f8f565b506000919050565b60005460ff8084169116106114855760405162461bcd60e51b815260040161042190611f8f565b506000805460ff191660ff92909216919091179055600190565b919050565b600054610100900460ff166114cb5760405162461bcd60e51b815260040161042190611fdd565b565b600054610100900460ff166114f45760405162461bcd60e51b815260040161042190611fdd565b6114cb6116e3565b600054610100900460ff166115235760405162461bcd60e51b815260040161042190611fdd565b6114cb611711565b60c95460ff161561154e5760405162461bcd60e51b815260040161042190611e04565b60c9805460ff191660011790557f62e78cea01bee320cd4e420270b5ea74000d11b0c9f74754ebdbfc544b05a2586113753390565b60006113b0836001600160a01b038416611744565b60006113b0836001600160a01b038416611837565b6115b78282610af6565b610434576115cf816001600160a01b03166014611886565b6115da836020611886565b6040516020016115eb929190612054565b60408051601f198184030181529082905262461bcd60e51b8252610421916004016120c9565b6000611666826040518060400160405280602081526020017f5361666545524332303a206c6f772d6c6576656c2063616c6c206661696c6564815250856001600160a01b0316611a229092919063ffffffff16565b8051909150156103b0578080602001905181019061168491906120fc565b6103b05760405162461bcd60e51b815260206004820152602a60248201527f5361666545524332303a204552433230206f7065726174696f6e20646964206e6044820152691bdd081cdd58d8d9595960b21b6064820152608401610421565b600054610100900460ff1661170a5760405162461bcd60e51b815260040161042190611fdd565b6001609755565b600054610100900460ff166117385760405162461bcd60e51b815260040161042190611fdd565b60c9805460ff19169055565b6000818152600183016020526040812054801561182d57600061176860018361211e565b855490915060009061177c9060019061211e565b90508181146117e157600086600001828154811061179c5761179c611e8f565b90600052602060002001549050808760000184815481106117bf576117bf611e8f565b6000918252602080832090910192909255918252600188019052604090208390555b85548690806117f2576117f2612135565b600190038181906000526020600020016000905590558560010160008681526020019081526020016000206000905560019350505050610348565b6000915050610348565b600081815260018301602052604081205461187e57508154600181810184556000848152602080822090930184905584548482528286019093526040902091909155610348565b506000610348565b6060600061189583600261214b565b6118a090600261216a565b67ffffffffffffffff8111156118b8576118b8611c44565b6040519080825280601f01601f1916602001820160405280156118e2576020820181803683370190505b509050600360fc1b816000815181106118fd576118fd611e8f565b60200101906001600160f81b031916908160001a905350600f60fb1b8160018151811061192c5761192c611e8f565b60200101906001600160f81b031916908160001a905350600061195084600261214b565b61195b90600161216a565b90505b60018111156119d3576f181899199a1a9b1b9c1cb0b131b232b360811b85600f166010811061198f5761198f611e8f565b1a60f81b8282815181106119a5576119a5611e8f565b60200101906001600160f81b031916908160001a90535060049490941c936119cc81612182565b905061195e565b5083156113b05760405162461bcd60e51b815260206004820181905260248201527f537472696e67733a20686578206c656e67746820696e73756666696369656e746044820152606401610421565b6060611a318484600085611a39565b949350505050565b606082471015611a9a5760405162461bcd60e51b815260206004820152602660248201527f416464726573733a20696e73756666696369656e742062616c616e636520666f6044820152651c8818d85b1b60d21b6064820152608401610421565b6001600160a01b0385163b611af15760405162461bcd60e51b815260206004820152601d60248201527f416464726573733a2063616c6c20746f206e6f6e2d636f6e74726163740000006044820152606401610421565b600080866001600160a01b03168587604051611b0d9190612199565b60006040518083038185875af1925050503d8060008114611b4a576040519150601f19603f3d011682016040523d82523d6000602084013e611b4f565b606091505b5091509150611b5f828286611b6a565b979650505050505050565b60608315611b795750816113b0565b825115611b895782518084602001fd5b8160405162461bcd60e51b815260040161042191906120c9565b600060208284031215611bb557600080fd5b81356001600160e01b0319811681146113b057600080fd5b600060208284031215611bdf57600080fd5b5035919050565b80356001600160a01b038116811461149f57600080fd5b600060208284031215611c0f57600080fd5b6113b082611be6565b60008060408385031215611c2b57600080fd5b82359150611c3b60208401611be6565b90509250929050565b634e487b7160e01b600052604160045260246000fd5b604051601f8201601f1916810167ffffffffffffffff81118282101715611c8357611c83611c44565b604052919050565b600067ffffffffffffffff821115611ca557611ca5611c44565b5060051b60200190565b600082601f830112611cc057600080fd5b81356020611cd5611cd083611c8b565b611c5a565b82815260059290921b84018101918181019086841115611cf457600080fd5b8286015b84811015611d0f5780358352918301918301611cf8565b509695505050505050565b60008060408385031215611d2d57600080fd5b823567ffffffffffffffff80821115611d4557600080fd5b818501915085601f830112611d5957600080fd5b81356020611d69611cd083611c8b565b82815260059290921b84018101918181019089841115611d8857600080fd5b948201945b83861015611dad57611d9e86611be6565b82529482019490820190611d8d565b96505086013592505080821115611dc357600080fd5b50611dd085828601611caf565b9150509250929050565b60008060408385031215611ded57600080fd5b611df683611be6565b946020939093013593505050565b60208082526010908201526f14185d5cd8589b194e881c185d5cd95960821b604082015260600190565b6020808252601f908201527f5265656e7472616e637947756172643a207265656e7472616e742063616c6c00604082015260600190565b60208082526010908201526f4d61696e74656e616e6365204d6f646560801b604082015260600190565b634e487b7160e01b600052603260045260246000fd5b634e487b7160e01b600052601160045260246000fd5b6000600019821415611ecf57611ecf611ea5565b5060010190565b815160009082906020808601845b83811015611f095781516001600160a01b031685529382019390820190600101611ee4565b50929695505050505050565b6020808252825182820181905260009190848201906040850190845b81811015611f4d57835183529284019291840191600101611f31565b50909695505050505050565b60008060008060808587031215611f6f57600080fd5b505082516020840151604085015160609095015191969095509092509050565b6020808252602e908201527f496e697469616c697a61626c653a20636f6e747261637420697320616c72656160408201526d191e481a5b9a5d1a585b1a5e995960921b606082015260800190565b6020808252602b908201527f496e697469616c697a61626c653a20636f6e7472616374206973206e6f74206960408201526a6e697469616c697a696e6760a81b606082015260800190565b60005b8381101561204357818101518382015260200161202b565b838111156114115750506000910152565b7f416363657373436f6e74726f6c3a206163636f756e742000000000000000000081526000835161208c816017850160208801612028565b7001034b99036b4b9b9b4b733903937b6329607d1b60179184019182015283516120bd816028840160208801612028565b01602801949350505050565b60208152600082518060208401526120e8816040850160208701612028565b601f01601f19169190910160400192915050565b60006020828403121561210e57600080fd5b815180151581146113b057600080fd5b60008282101561213057612130611ea5565b500390565b634e487b7160e01b600052603160045260246000fd5b600081600019048311821515161561216557612165611ea5565b500290565b6000821982111561217d5761217d611ea5565b500190565b60008161219157612191611ea5565b506000190190565b600082516121ab818460208701612028565b919091019291505056fea49807205ce4d355092ef5a8a18f56e8913cf4a201fbe287825b095693c21775a2646970667358221220db472b1e253b4561dd5921676703d56e4e4112d02bbf070e5f6e781dd4c91ee064736f6c63430008090033496e697469616c697a61626c653a20636f6e747261637420697320616c726561",
  "linkReferences": {},
  "deployedLinkReferences": {}
}