{
  "_format": "hh-sol-artifact-1",
  "contractName": "MigrationMikeEgressUpgradeable",
  "sourceName": "contracts/npc/MigrationMike/MigrationMikeEgressUpgradeable.sol",
  "abi": [
    {
      "inputs": [],
      "stateMutability": "nonpayable",
      "type": "constructor"
    },
    {
      "anonymous": false,
      "inputs": [
        {
          "indexed": true,
          "internalType": "address",
          "name": "from",
          "type": "address"
        },
        {
          "indexed": false,
          "internalType": "uint256",
          "name": "startTime",
          "type": "uint256"
        },
        {
          "indexed": false,
          "internalType": "uint256",
          "name": "duration",
          "type": "uint256"
        },
        {
          "indexed": false,
          "internalType": "uint256",
          "name": "amount",
          "type": "uint256"
        },
        {
          "indexed": false,
          "internalType": "uint256",
          "name": "balance",
          "type": "uint256"
        }
      ],
      "name": "BridgedDisbursement",
      "type": "event"
    },
    {
      "anonymous": false,
      "inputs": [
        {
          "indexed": true,
          "internalType": "address",
          "name": "from",
          "type": "address"
        },
        {
          "indexed": true,
          "internalType": "address",
          "name": "nft",
          "type": "address"
        },
        {
          "indexed": false,
          "internalType": "uint256",
          "name": "id",
          "type": "uint256"
        }
      ],
      "name": "BridgedNFT",
      "type": "event"
    },
    {
      "anonymous": false,
      "inputs": [
        {
          "indexed": true,
          "internalType": "address",
          "name": "from",
          "type": "address"
        },
        {
          "indexed": true,
          "internalType": "address",
          "name": "nft",
          "type": "address"
        },
        {
          "indexed": false,
          "internalType": "uint256[]",
          "name": "ids",
          "type": "uint256[]"
        }
      ],
      "name": "BridgedNFTs",
      "type": "event"
    },
    {
      "anonymous": false,
      "inputs": [
        {
          "indexed": true,
          "internalType": "address",
          "name": "from",
          "type": "address"
        },
        {
          "indexed": true,
          "internalType": "address",
          "name": "token",
          "type": "address"
        },
        {
          "indexed": false,
          "internalType": "uint256",
          "name": "amount",
          "type": "uint256"
        }
      ],
      "name": "BridgedToken",
      "type": "event"
    },
    {
      "anonymous": false,
      "inputs": [
        {
          "indexed": true,
          "internalType": "address",
          "name": "from",
          "type": "address"
        },
        {
          "indexed": true,
          "internalType": "address",
          "name": "token",
          "type": "address"
        },
        {
          "indexed": false,
          "internalType": "uint256",
          "name": "unlocked",
          "type": "uint256"
        },
        {
          "indexed": false,
          "internalType": "uint256",
          "name": "locked",
          "type": "uint256"
        }
      ],
      "name": "BridgedTokenWithLocked",
      "type": "event"
    },
    {
      "anonymous": false,
      "inputs": [
        {
          "indexed": true,
          "internalType": "address",
          "name": "from",
          "type": "address"
        },
        {
          "indexed": true,
          "internalType": "address[]",
          "name": "tokens",
          "type": "address[]"
        },
        {
          "indexed": false,
          "internalType": "uint256[]",
          "name": "amounts",
          "type": "uint256[]"
        }
      ],
      "name": "BridgedTokens",
      "type": "event"
    },
    {
      "anonymous": false,
      "inputs": [
        {
          "indexed": false,
          "internalType": "uint8",
          "name": "version",
          "type": "uint8"
        }
      ],
      "name": "Initialized",
      "type": "event"
    },
    {
      "anonymous": false,
      "inputs": [
        {
          "indexed": false,
          "internalType": "address",
          "name": "account",
          "type": "address"
        }
      ],
      "name": "Paused",
      "type": "event"
    },
    {
      "anonymous": false,
      "inputs": [
        {
          "indexed": true,
          "internalType": "bytes32",
          "name": "role",
          "type": "bytes32"
        },
        {
          "indexed": true,
          "internalType": "bytes32",
          "name": "previousAdminRole",
          "type": "bytes32"
        },
        {
          "indexed": true,
          "internalType": "bytes32",
          "name": "newAdminRole",
          "type": "bytes32"
        }
      ],
      "name": "RoleAdminChanged",
      "type": "event"
    },
    {
      "anonymous": false,
      "inputs": [
        {
          "indexed": true,
          "internalType": "bytes32",
          "name": "role",
          "type": "bytes32"
        },
        {
          "indexed": true,
          "internalType": "address",
          "name": "account",
          "type": "address"
        },
        {
          "indexed": true,
          "internalType": "address",
          "name": "sender",
          "type": "address"
        }
      ],
      "name": "RoleGranted",
      "type": "event"
    },
    {
      "anonymous": false,
      "inputs": [
        {
          "indexed": true,
          "internalType": "bytes32",
          "name": "role",
          "type": "bytes32"
        },
        {
          "indexed": true,
          "internalType": "address",
          "name": "account",
          "type": "address"
        },
        {
          "indexed": true,
          "internalType": "address",
          "name": "sender",
          "type": "address"
        }
      ],
      "name": "RoleRevoked",
      "type": "event"
    },
    {
      "anonymous": false,
      "inputs": [
        {
          "indexed": false,
          "internalType": "address",
          "name": "account",
          "type": "address"
        }
      ],
      "name": "Unpaused",
      "type": "event"
    },
    {
      "inputs": [],
      "name": "ADMIN_ROLE",
      "outputs": [
        {
          "internalType": "bytes32",
          "name": "",
          "type": "bytes32"
        }
      ],
      "stateMutability": "view",
      "type": "function"
    },
    {
      "inputs": [],
      "name": "DEFAULT_ADMIN_ROLE",
      "outputs": [
        {
          "internalType": "bytes32",
          "name": "",
          "type": "bytes32"
        }
      ],
      "stateMutability": "view",
      "type": "function"
    },
    {
      "inputs": [
        {
          "internalType": "address",
          "name": "_address",
          "type": "address"
        }
      ],
      "name": "addBurnable",
      "outputs": [],
      "stateMutability": "nonpayable",
      "type": "function"
    },
    {
      "inputs": [
        {
          "internalType": "address",
          "name": "_nft",
          "type": "address"
        },
        {
          "internalType": "uint256[]",
          "name": "_ids",
          "type": "uint256[]"
        }
      ],
      "name": "batchBridgeNFT",
      "outputs": [],
      "stateMutability": "nonpayable",
      "type": "function"
    },
    {
      "inputs": [
        {
          "internalType": "address[]",
          "name": "_tokens",
          "type": "address[]"
        },
        {
          "internalType": "uint256[]",
          "name": "_amounts",
          "type": "uint256[]"
        }
      ],
      "name": "batchBridgeToken",
      "outputs": [],
      "stateMutability": "nonpayable",
      "type": "function"
    },
    {
      "inputs": [
        {
          "internalType": "address",
          "name": "_token",
          "type": "address"
        }
      ],
      "name": "bridgeAllTokenWithLocked",
      "outputs": [],
      "stateMutability": "nonpayable",
      "type": "function"
    },
    {
      "inputs": [],
      "name": "bridgeCEVODisbursement",
      "outputs": [],
      "stateMutability": "nonpayable",
      "type": "function"
    },
    {
      "inputs": [
        {
          "internalType": "address",
          "name": "_nft",
          "type": "address"
        },
        {
          "internalType": "uint256",
          "name": "_id",
          "type": "uint256"
        }
      ],
      "name": "bridgeNFT",
      "outputs": [],
      "stateMutability": "nonpayable",
      "type": "function"
    },
    {
      "inputs": [
        {
          "internalType": "address",
          "name": "_token",
          "type": "address"
        },
        {
          "internalType": "uint256",
          "name": "_amount",
          "type": "uint256"
        }
      ],
      "name": "bridgeToken",
      "outputs": [],
      "stateMutability": "nonpayable",
      "type": "function"
    },
    {
      "inputs": [
        {
          "internalType": "address",
          "name": "",
          "type": "address"
        }
      ],
      "name": "bridgeable",
      "outputs": [
        {
          "internalType": "bool",
          "name": "",
          "type": "bool"
        }
      ],
      "stateMutability": "view",
      "type": "function"
    },
    {
      "inputs": [
        {
          "internalType": "address",
          "name": "_address",
          "type": "address"
        }
      ],
      "name": "disableAsset",
      "outputs": [],
      "stateMutability": "nonpayable",
      "type": "function"
    },
    {
      "inputs": [
        {
          "internalType": "address",
          "name": "_address",
          "type": "address"
        }
      ],
      "name": "enableAsset",
      "outputs": [],
      "stateMutability": "nonpayable",
      "type": "function"
    },
    {
      "inputs": [],
      "name": "finishMaintenance",
      "outputs": [],
      "stateMutability": "nonpayable",
      "type": "function"
    },
    {
      "inputs": [
        {
          "internalType": "bytes32",
          "name": "role",
          "type": "bytes32"
        }
      ],
      "name": "getRoleAdmin",
      "outputs": [
        {
          "internalType": "bytes32",
          "name": "",
          "type": "bytes32"
        }
      ],
      "stateMutability": "view",
      "type": "function"
    },
    {
      "inputs": [
        {
          "internalType": "bytes32",
          "name": "role",
          "type": "bytes32"
        },
        {
          "internalType": "address",
          "name": "account",
          "type": "address"
        }
      ],
      "name": "grantRole",
      "outputs": [],
      "stateMutability": "nonpayable",
      "type": "function"
    },
    {
      "inputs": [
        {
          "internalType": "bytes32",
          "name": "role",
          "type": "bytes32"
        },
        {
          "internalType": "address",
          "name": "account",
          "type": "address"
        }
      ],
      "name": "hasRole",
      "outputs": [
        {
          "internalType": "bool",
          "name": "",
          "type": "bool"
        }
      ],
      "stateMutability": "view",
      "type": "function"
    },
    {
      "inputs": [],
      "name": "initialize",
      "outputs": [],
      "stateMutability": "nonpayable",
      "type": "function"
    },
    {
      "inputs": [
        {
          "internalType": "address",
          "name": "",
          "type": "address"
        }
      ],
      "name": "lockedEscrow",
      "outputs": [
        {
          "internalType": "contract LockedTokenEscrow",
          "name": "",
          "type": "address"
        }
      ],
      "stateMutability": "view",
      "type": "function"
    },
    {
      "inputs": [],
      "name": "pause",
      "outputs": [],
      "stateMutability": "nonpayable",
      "type": "function"
    },
    {
      "inputs": [],
      "name": "paused",
      "outputs": [
        {
          "internalType": "bool",
          "name": "",
          "type": "bool"
        }
      ],
      "stateMutability": "view",
      "type": "function"
    },
    {
      "inputs": [
        {
          "internalType": "address",
          "name": "_address",
          "type": "address"
        }
      ],
      "name": "removeBurnable",
      "outputs": [],
      "stateMutability": "nonpayable",
      "type": "function"
    },
    {
      "inputs": [
        {
          "internalType": "bytes32",
          "name": "role",
          "type": "bytes32"
        },
        {
          "internalType": "address",
          "name": "account",
          "type": "address"
        }
      ],
      "name": "renounceRole",
      "outputs": [],
      "stateMutability": "nonpayable",
      "type": "function"
    },
    {
      "inputs": [
        {
          "internalType": "bytes32",
          "name": "role",
          "type": "bytes32"
        },
        {
          "internalType": "address",
          "name": "account",
          "type": "address"
        }
      ],
      "name": "revokeRole",
      "outputs": [],
      "stateMutability": "nonpayable",
      "type": "function"
    },
    {
      "inputs": [],
      "name": "startMaintenance",
      "outputs": [],
      "stateMutability": "nonpayable",
      "type": "function"
    },
    {
      "inputs": [
        {
          "internalType": "bytes4",
          "name": "interfaceId",
          "type": "bytes4"
        }
      ],
      "name": "supportsInterface",
      "outputs": [
        {
          "internalType": "bool",
          "name": "",
          "type": "bool"
        }
      ],
      "stateMutability": "view",
      "type": "function"
    },
    {
      "inputs": [],
      "name": "unpause",
      "outputs": [],
      "stateMutability": "nonpayable",
      "type": "function"
    }
  ],
  "bytecode": "0x60806040523480156200001157600080fd5b506200001c62000022565b620000e4565b600054610100900460ff16156200008f5760405162461bcd60e51b815260206004820152602760248201527f496e697469616c697a61626c653a20636f6e747261637420697320696e697469604482015266616c697a696e6760c81b606482015260840160405180910390fd5b60005460ff9081161015620000e2576000805460ff191660ff9081179091556040519081527f7f26b83ff96e1f2b6a682f133852f6798a09c465da95921460cefb38474024989060200160405180910390a15b565b612db480620000f46000396000f3fe60806040523480156200001157600080fd5b5060043610620001af5760003560e01c806375b238fc11620000f0578063c46f6e1a11620000a3578063d547741f116200007a578063d547741f14620003b7578063e7904cee14620003ce578063f5175f8b14620003e5578063f5f2d9f1146200040b57600080fd5b8063c46f6e1a146200037f578063c6d57f8a1462000389578063d49df49b14620003a057600080fd5b806375b238fc146200031d5780638129fc1c14620003345780638456cb59146200033e57806391d1485414620003485780639601b986146200035f578063a217fddf146200037657600080fd5b80633f4ba83a116200016657806353bfb584116200013d57806353bfb58414620002ab5780635c975abb14620002b5578063661d59a614620002c157806370807528146200030657600080fd5b80633f4ba83a146200027357806348711396146200027d5780634f56b6ad146200029457600080fd5b806301ffc9a714620001b4578063248a9ca314620001e05780632aef402414620002155780632ee640e2146200022e5780632f2ff15d146200024557806336568abe146200025c575b600080fd5b620001cb620001c536600462002132565b62000415565b60405190151581526020015b60405180910390f35b62000206620001f13660046200215e565b60009081526065602052604090206001015490565b604051908152602001620001d7565b6200022c6200022636600462002195565b6200044d565b005b6200022c6200023f36600462002195565b6200048d565b6200022c62000256366004620021b3565b6200086c565b6200022c6200026d366004620021b3565b6200089a565b6200022c6200091c565b6200022c6200028e366004620022c6565b62000944565b6200022c620002a536600462002394565b62000d02565b6200022c62000eb2565b60c95460ff16620001cb565b620002ed620002d236600462002195565b60ff602052600090815260409020546001600160a01b031681565b6040516001600160a01b039091168152602001620001d7565b6200022c6200031736600462002195565b62000eda565b6200020660008051602062002d5f83398151915281565b6200022c62000f17565b6200022c6200106c565b620001cb62000359366004620021b3565b62001091565b6200022c6200037036600462002195565b620010bc565b62000206600081565b6200022c620010e4565b6200022c6200039a36600462002195565b620012e2565b6200022c620003b1366004620023c1565b6200130a565b6200022c620003c8366004620021b3565b62001524565b6200022c620003df36600462002394565b6200154d565b620001cb620003f636600462002195565b60fb6020526000908152604090205460ff1681565b6200022c62001738565b60006001600160e01b03198216637965db0b60e01b14806200044757506301ffc9a760e01b6001600160e01b03198316145b92915050565b60008051602062002d5f833981519152620004688162001763565b506001600160a01b0316600090815260fb60205260409020805460ff19166001179055565b620004976200176f565b60026097541415620004c65760405162461bcd60e51b8152600401620004bd906200240b565b60405180910390fd5b600260975560fc5460ff161580620004f45750620004f460008051602062002d5f8339815191523362001091565b620005135760405162461bcd60e51b8152600401620004bd9062002442565b6001600160a01b038116600090815260fb602052604090205460ff166200054e5760405162461bcd60e51b8152600401620004bd906200246c565b33600090815260ff60205260409020546001600160a01b0316620005e45733816040516200057c9062002124565b6001600160a01b03928316815291166020820152604001604051809103906000f080158015620005b0573d6000803e3d6000fd5b5033600090815260ff6020526040902080546001600160a01b0319166001600160a01b039290921691909117905562000864565b33600090815260ff6020526040808220548151631f0b555360e01b815291516001600160a01b0390911692631f0b5553926004808201939182900301818387803b1580156200063257600080fd5b505af115801562000647573d6000803e3d6000fd5b5050505060008060ff60006200065a3390565b6001600160a01b03166001600160a01b0316815260200190815260200160002060009054906101000a90046001600160a01b03166001600160a01b031662113e086040518163ffffffff1660e01b8152600401604080518083038186803b158015620006c557600080fd5b505afa158015620006da573d6000803e3d6000fd5b505050506040513d601f19601f8201168201806040525081019062000700919062002493565b909250905081151580620007145750600081115b6200076c5760405162461bcd60e51b815260206004820152602160248201527f4e6f206c6f636b656420746f6b656e732073656e7420746f20636f6e747261636044820152601d60fa1b6064820152608401620004bd565b33600090815260ff6020526040808220548151634bb278f360e01b815291516001600160a01b0390911692634bb278f3926004808201939182900301818387803b158015620007ba57600080fd5b505af1158015620007cf573d6000803e3d6000fd5b50505050600060ff6000620007e13390565b6001600160a01b039081168252602082019290925260400160002080546001600160a01b031916928216929092179091558316336001600160a01b03167f1ee602cc5ad405c4d487f01f04a0d385304b1ce3270b38743bf727d376aabad8848460405162000859929190918252602082015260400190565b60405180910390a350505b506001609755565b600082815260656020526040902060010154620008898162001763565b620008958383620017b9565b505050565b6001600160a01b03811633146200090c5760405162461bcd60e51b815260206004820152602f60248201527f416363657373436f6e74726f6c3a2063616e206f6e6c792072656e6f756e636560448201526e103937b632b9903337b91039b2b63360891b6064820152608401620004bd565b62000918828262001843565b5050565b60008051602062002d5f833981519152620009378162001763565b62000941620018ad565b50565b6200094e6200176f565b60026097541415620009745760405162461bcd60e51b8152600401620004bd906200240b565b600260975560fc5460ff161580620009a25750620009a260008051602062002d5f8339815191523362001091565b620009c15760405162461bcd60e51b8152600401620004bd9062002442565b600082511162000a055760405162461bcd60e51b815260206004820152600e60248201526d4d697373696e6720746f6b656e7360901b6044820152606401620004bd565b805182511462000a585760405162461bcd60e51b815260206004820152601d60248201527f546f6b656e7320616e6420616d6f756e7473206d757374206d617463680000006044820152606401620004bd565b60005b825181101562000c965760fb600084838151811062000a7e5762000a7e620024b8565b6020908102919091018101516001600160a01b031682528101919091526040016000205460ff1662000ac45760405162461bcd60e51b8152600401620004bd906200246c565b600082828151811062000adb5762000adb620024b8565b60200260200101511162000b325760405162461bcd60e51b815260206004820181905260248201527f416d6f756e74206d7573742062652067726561746572207468616e207a65726f6044820152606401620004bd565b62000b6483828151811062000b4b5762000b4b620024b8565b602002602001015160fd6200190190919063ffffffff16565b1562000c265782818151811062000b7f5762000b7f620024b8565b60200260200101516001600160a01b0316639dc29fac62000b9d3390565b84848151811062000bb25762000bb2620024b8565b60200260200101516040518363ffffffff1660e01b815260040162000bec9291906001600160a01b03929092168252602082015260400190565b600060405180830381600087803b15801562000c0757600080fd5b505af115801562000c1c573d6000803e3d6000fd5b5050505062000c81565b62000c8133600184848151811062000c425762000c42620024b8565b602002602001015186858151811062000c5f5762000c5f620024b8565b60200260200101516001600160a01b031662001926909392919063ffffffff16565b8062000c8d81620024e4565b91505062000a5b565b508160405162000ca7919062002502565b604051809103902062000cb73390565b6001600160a01b03167f45cb6f4ad5435b8b1e4079d117d8cba1e9500e83e7bb4a5ad10f613c45c07a2e8360405162000cf1919062002543565b60405180910390a350506001609755565b62000d0c6200176f565b6002609754141562000d325760405162461bcd60e51b8152600401620004bd906200240b565b600260975560fc5460ff16158062000d60575062000d6060008051602062002d5f8339815191523362001091565b62000d7f5760405162461bcd60e51b8152600401620004bd9062002442565b6001600160a01b038216600090815260fb602052604090205460ff1662000dd95760405162461bcd60e51b815260206004820152600d60248201526c125b9d985b1a5908185cdcd95d609a1b6044820152606401620004bd565b816001600160a01b0381166342842e0e336040516001600160e01b031960e084901b1681526001600160a01b0390911660048201526001602482015260448101859052606401600060405180830381600087803b15801562000e3a57600080fd5b505af115801562000e4f573d6000803e3d6000fd5b50505050826001600160a01b031662000e653390565b6001600160a01b03167fdfecf361db1daf13e69770ddfb6b1c17d9e7aab41098fa39ea880c41a55dda738460405162000ea091815260200190565b60405180910390a35050600160975550565b60008051602062002d5f83398151915262000ecd8162001763565b5060fc805460ff19169055565b60008051602062002d5f83398151915262000ef58162001763565b506001600160a01b0316600090815260fb60205260409020805460ff19169055565b600054610100900460ff161580801562000f385750600054600160ff909116105b8062000f545750303b15801562000f54575060005460ff166001145b62000fb95760405162461bcd60e51b815260206004820152602e60248201527f496e697469616c697a61626c653a20636f6e747261637420697320616c72656160448201526d191e481a5b9a5d1a585b1a5e995960921b6064820152608401620004bd565b6000805460ff19166001179055801562000fdd576000805461ff0019166101001790555b62000fe762001988565b62000ff1620019b2565b62000ffb620019e6565b62001008600033620017b9565b6200102360008051602062002d5f83398151915233620017b9565b801562000941576000805461ff0019169055604051600181527f7f26b83ff96e1f2b6a682f133852f6798a09c465da95921460cefb38474024989060200160405180910390a150565b60008051602062002d5f833981519152620010878162001763565b6200094162001a1a565b60009182526065602090815260408084206001600160a01b0393909316845291905290205460ff1690565b60008051602062002d5f833981519152620010d78162001763565b6200089560fd8362001a5a565b620010ee6200176f565b60026097541415620011145760405162461bcd60e51b8152600401620004bd906200240b565b600260975560fc5460ff1615806200114257506200114260008051602062002d5f8339815191523362001091565b620011615760405162461bcd60e51b8152600401620004bd9062002442565b73465d89df3e9b1afb6957b58be6137feebb8e9f61600080808084633aef80ff336040516001600160e01b031960e084901b1681526001600160a01b03909116600482015260240160806040518083038186803b158015620011c257600080fd5b505afa158015620011d7573d6000803e3d6000fd5b505050506040513d601f19601f82011682018060405250810190620011fd919062002589565b929650909450925090506001600160a01b03851663478b7ad5336040516001600160e01b031960e084901b1681526001600160a01b03909116600482015260006024820152604401600060405180830381600087803b1580156200126057600080fd5b505af115801562001275573d6000803e3d6000fd5b50505050620012813390565b6040805186815260208101869052908101849052606081018390526001600160a01b0391909116907f6419691910af4a81ee833ca31a946ba87c2b2ce264f50ea3a50c19966b2defca9060800160405180910390a250506001609755505050565b60008051602062002d5f833981519152620012fd8162001763565b6200089560fd8362001a71565b620013146200176f565b600260975414156200133a5760405162461bcd60e51b8152600401620004bd906200240b565b600260975560fc5460ff1615806200136857506200136860008051602062002d5f8339815191523362001091565b620013875760405162461bcd60e51b8152600401620004bd9062002442565b6001600160a01b038216600090815260fb602052604090205460ff16620013df5760405162461bcd60e51b815260206004820152600b60248201526a125b9d985b1a590813919560aa1b6044820152606401620004bd565b6000815111620014205760405162461bcd60e51b815260206004820152600b60248201526a4d697373696e672049647360a81b6044820152606401620004bd565b60005b8151811015620014de576001600160a01b0383166342842e0e336001858581518110620014545762001454620024b8565b60209081029190910101516040516001600160e01b031960e086901b1681526001600160a01b0393841660048201529290911660248301526044820152606401600060405180830381600087803b158015620014af57600080fd5b505af1158015620014c4573d6000803e3d6000fd5b505050508080620014d590620024e4565b91505062001423565b506001600160a01b038216336001600160a01b03167f459be9d88a26b9379b66c5e422a9653e69adffc6c185c427f79fab7538689cbc8360405162000cf1919062002543565b600082815260656020526040902060010154620015418162001763565b62000895838362001843565b620015576200176f565b600260975414156200157d5760405162461bcd60e51b8152600401620004bd906200240b565b600260975560fc5460ff161580620015ab5750620015ab60008051602062002d5f8339815191523362001091565b620015ca5760405162461bcd60e51b8152600401620004bd9062002442565b6001600160a01b038216600090815260fb602052604090205460ff16620016055760405162461bcd60e51b8152600401620004bd906200246c565b60008111620016575760405162461bcd60e51b815260206004820181905260248201527f416d6f756e74206d7573742062652067726561746572207468616e207a65726f6044820152606401620004bd565b6200166460fd8362001901565b15620016e2576001600160a01b038216639dc29fac336040516001600160e01b031960e084901b1681526001600160a01b03909116600482015260248101849052604401600060405180830381600087803b158015620016c357600080fd5b505af1158015620016d8573d6000803e3d6000fd5b50505050620016fa565b620016fa6001600160a01b0383163360018462001926565b6040518181526001600160a01b0383169033907f44167815d5b685c3a51c0cd3d32b7d654092f1e49d320e03ab54193c9117ffce9060200162000cf1565b60008051602062002d5f833981519152620017538162001763565b5060fc805460ff19166001179055565b62000941813362001a88565b60c95460ff1615620017b75760405162461bcd60e51b815260206004820152601060248201526f14185d5cd8589b194e881c185d5cd95960821b6044820152606401620004bd565b565b620017c5828262001091565b620009185760008281526065602090815260408083206001600160a01b03851684529091529020805460ff19166001179055620017ff3390565b6001600160a01b0316816001600160a01b0316837f2f8788117e7eff1d82e926ec794901d17c78024a50270940304540a733656f0d60405160405180910390a45050565b6200184f828262001091565b15620009185760008281526065602090815260408083206001600160a01b0385168085529252808320805460ff1916905551339285917ff6391f5c32d9c69d2a47ea670b442974b53935d1edc7fd64eb21e047a839171b9190a45050565b620018b762001af7565b60c9805460ff191690557f5db9ee0a495bf2e6ff9c91a7834c1ba4fdd244a5e8aa4e537bd38aeae4b073aa335b6040516001600160a01b03909116815260200160405180910390a1565b6001600160a01b038116600090815260018301602052604081205415155b9392505050565b604080516001600160a01b0385811660248301528416604482015260648082018490528251808303909101815260849091019091526020810180516001600160e01b03166323b872dd60e01b1790526200198290859062001b42565b50505050565b600054610100900460ff16620017b75760405162461bcd60e51b8152600401620004bd90620025c0565b600054610100900460ff16620019dc5760405162461bcd60e51b8152600401620004bd90620025c0565b620017b762001c1b565b600054610100900460ff1662001a105760405162461bcd60e51b8152600401620004bd90620025c0565b620017b762001c4c565b62001a246200176f565b60c9805460ff191660011790557f62e78cea01bee320cd4e420270b5ea74000d11b0c9f74754ebdbfc544b05a258620018e43390565b60006200191f836001600160a01b03841662001c82565b60006200191f836001600160a01b03841662001d86565b62001a94828262001091565b620009185762001aaf816001600160a01b0316601462001dd8565b62001abc83602062001dd8565b60405160200162001acf9291906200263a565b60408051601f198184030181529082905262461bcd60e51b8252620004bd91600401620026b3565b60c95460ff16620017b75760405162461bcd60e51b815260206004820152601460248201527314185d5cd8589b194e881b9bdd081c185d5cd95960621b6044820152606401620004bd565b600062001b99826040518060400160405280602081526020017f5361666545524332303a206c6f772d6c6576656c2063616c6c206661696c6564815250856001600160a01b031662001f929092919063ffffffff16565b80519091501562000895578080602001905181019062001bba9190620026e8565b620008955760405162461bcd60e51b815260206004820152602a60248201527f5361666545524332303a204552433230206f7065726174696f6e20646964206e6044820152691bdd081cdd58d8d9595960b21b6064820152608401620004bd565b600054610100900460ff1662001c455760405162461bcd60e51b8152600401620004bd90620025c0565b6001609755565b600054610100900460ff1662001c765760405162461bcd60e51b8152600401620004bd90620025c0565b60c9805460ff19169055565b6000818152600183016020526040812054801562001d7b57600062001ca96001836200270c565b855490915060009062001cbf906001906200270c565b905081811462001d2b57600086600001828154811062001ce35762001ce3620024b8565b906000526020600020015490508087600001848154811062001d095762001d09620024b8565b6000918252602080832090910192909255918252600188019052604090208390555b855486908062001d3f5762001d3f62002726565b60019003818190600052602060002001600090559055856001016000868152602001908152602001600020600090556001935050505062000447565b600091505062000447565b600081815260018301602052604081205462001dcf5750815460018181018455600084815260208082209093018490558454848252828601909352604090209190915562000447565b50600062000447565b6060600062001de98360026200273c565b62001df69060026200275e565b67ffffffffffffffff81111562001e115762001e11620021e2565b6040519080825280601f01601f19166020018201604052801562001e3c576020820181803683370190505b509050600360fc1b8160008151811062001e5a5762001e5a620024b8565b60200101906001600160f81b031916908160001a905350600f60fb1b8160018151811062001e8c5762001e8c620024b8565b60200101906001600160f81b031916908160001a905350600062001eb28460026200273c565b62001ebf9060016200275e565b90505b600181111562001f41576f181899199a1a9b1b9c1cb0b131b232b360811b85600f166010811062001ef75762001ef7620024b8565b1a60f81b82828151811062001f105762001f10620024b8565b60200101906001600160f81b031916908160001a90535060049490941c9362001f398162002779565b905062001ec2565b5083156200191f5760405162461bcd60e51b815260206004820181905260248201527f537472696e67733a20686578206c656e67746820696e73756666696369656e746044820152606401620004bd565b606062001fa3848460008562001fab565b949350505050565b6060824710156200200e5760405162461bcd60e51b815260206004820152602660248201527f416464726573733a20696e73756666696369656e742062616c616e636520666f6044820152651c8818d85b1b60d21b6064820152608401620004bd565b6001600160a01b0385163b620020675760405162461bcd60e51b815260206004820152601d60248201527f416464726573733a2063616c6c20746f206e6f6e2d636f6e74726163740000006044820152606401620004bd565b600080866001600160a01b0316858760405162002085919062002793565b60006040518083038185875af1925050503d8060008114620020c4576040519150601f19603f3d011682016040523d82523d6000602084013e620020c9565b606091505b5091509150620020db828286620020e6565b979650505050505050565b60608315620020f75750816200191f565b825115620021085782518084602001fd5b8160405162461bcd60e51b8152600401620004bd9190620026b3565b6105ad80620027b283390190565b6000602082840312156200214557600080fd5b81356001600160e01b0319811681146200191f57600080fd5b6000602082840312156200217157600080fd5b5035919050565b80356001600160a01b03811681146200219057600080fd5b919050565b600060208284031215620021a857600080fd5b6200191f8262002178565b60008060408385031215620021c757600080fd5b82359150620021d96020840162002178565b90509250929050565b634e487b7160e01b600052604160045260246000fd5b604051601f8201601f1916810167ffffffffffffffff81118282101715620022245762002224620021e2565b604052919050565b600067ffffffffffffffff821115620022495762002249620021e2565b5060051b60200190565b600082601f8301126200226557600080fd5b813560206200227e62002278836200222c565b620021f8565b82815260059290921b840181019181810190868411156200229e57600080fd5b8286015b84811015620022bb5780358352918301918301620022a2565b509695505050505050565b60008060408385031215620022da57600080fd5b823567ffffffffffffffff80821115620022f357600080fd5b818501915085601f8301126200230857600080fd5b813560206200231b62002278836200222c565b82815260059290921b840181019181810190898411156200233b57600080fd5b948201945b838610156200236457620023548662002178565b8252948201949082019062002340565b965050860135925050808211156200237b57600080fd5b506200238a8582860162002253565b9150509250929050565b60008060408385031215620023a857600080fd5b620023b38362002178565b946020939093013593505050565b60008060408385031215620023d557600080fd5b620023e08362002178565b9150602083013567ffffffffffffffff811115620023fd57600080fd5b6200238a8582860162002253565b6020808252601f908201527f5265656e7472616e637947756172643a207265656e7472616e742063616c6c00604082015260600190565b60208082526010908201526f4d61696e74656e616e6365204d6f646560801b604082015260600190565b6020808252600d908201526c24b73b30b634b2103a37b5b2b760991b604082015260600190565b60008060408385031215620024a757600080fd5b505080516020909101519092909150565b634e487b7160e01b600052603260045260246000fd5b634e487b7160e01b600052601160045260246000fd5b6000600019821415620024fb57620024fb620024ce565b5060010190565b815160009082906020808601845b83811015620025375781516001600160a01b03168552938201939082019060010162002510565b50929695505050505050565b6020808252825182820181905260009190848201906040850190845b818110156200257d578351835292840192918401916001016200255f565b50909695505050505050565b60008060008060808587031215620025a057600080fd5b505082516020840151604085015160609095015191969095509092509050565b6020808252602b908201527f496e697469616c697a61626c653a20636f6e7472616374206973206e6f74206960408201526a6e697469616c697a696e6760a81b606082015260800190565b60005b83811015620026285781810151838201526020016200260e565b83811115620019825750506000910152565b7f416363657373436f6e74726f6c3a206163636f756e7420000000000000000000815260008351620026748160178501602088016200260b565b7001034b99036b4b9b9b4b733903937b6329607d1b6017918401918201528351620026a78160288401602088016200260b565b01602801949350505050565b6020815260008251806020840152620026d48160408501602087016200260b565b601f01601f19169190910160400192915050565b600060208284031215620026fb57600080fd5b815180151581146200191f57600080fd5b600082821015620027215762002721620024ce565b500390565b634e487b7160e01b600052603160045260246000fd5b6000816000190483118215151615620027595762002759620024ce565b500290565b60008219821115620027745762002774620024ce565b500190565b6000816200278b576200278b620024ce565b506000190190565b60008251620027a78184602087016200260b565b919091019291505056fe608060405234801561001057600080fd5b506040516105ad3803806105ad83398101604081905261002f916100d5565b61003833610069565b600180546001600160a01b039384166001600160a01b03199182161790915560028054929093169116179055610108565b600080546001600160a01b038381166001600160a01b0319831681178455604051919092169283917f8be0079c531659141344cd1fd0a4f28419497f9722a3daafe3b4186f6b6457e09190a35050565b80516001600160a01b03811681146100d057600080fd5b919050565b600080604083850312156100e857600080fd5b6100f1836100b9565b91506100ff602084016100b9565b90509250929050565b610496806101176000396000f3fe608060405234801561001057600080fd5b506004361061009d5760003560e01c8063715018a611610066578063715018a6146101165780638da5cb5b1461011e578063cf3090121461012f578063f2fde38b14610138578063fc0c546a1461014b57600080fd5b8062113e08146100a25780631f0b5553146100c257806338af3eed146100cc5780634bb278f3146100f75780636a5e2650146100ff575b600080fd5b600354600454604080519283526020830191909152015b60405180910390f35b6100ca61015e565b005b6001546100df906001600160a01b031681565b6040516001600160a01b0390911681526020016100b9565b6100ca610266565b61010860035481565b6040519081526020016100b9565b6100ca6102db565b6000546001600160a01b03166100df565b61010860045481565b6100ca610146366004610417565b6102ef565b6002546100df906001600160a01b031681565b61016661036d565b6002546040516370a0823160e01b81523060048201526001600160a01b03909116906370a082319060240160206040518083038186803b1580156101a957600080fd5b505afa1580156101bd573d6000803e3d6000fd5b505050506040513d601f19601f820116820180604052508101906101e19190610447565b600355600254604051635a46d3b560e01b81523060048201526001600160a01b0390911690635a46d3b590602401602060405180830381600087803b15801561022957600080fd5b505af115801561023d573d6000803e3d6000fd5b505050506040513d601f19601f820116820180604052508101906102619190610447565b600455565b61026e61036d565b60025460405163a3a7e7f360e01b8152600160048201526001600160a01b039091169063a3a7e7f390602401600060405180830381600087803b1580156102b457600080fd5b505af11580156102c8573d6000803e3d6000fd5b50506001546001600160a01b0316915050ff5b6102e361036d565b6102ed60006103c7565b565b6102f761036d565b6001600160a01b0381166103615760405162461bcd60e51b815260206004820152602660248201527f4f776e61626c653a206e6577206f776e657220697320746865207a65726f206160448201526564647265737360d01b60648201526084015b60405180910390fd5b61036a816103c7565b50565b6000546001600160a01b031633146102ed5760405162461bcd60e51b815260206004820181905260248201527f4f776e61626c653a2063616c6c6572206973206e6f7420746865206f776e65726044820152606401610358565b600080546001600160a01b038381166001600160a01b0319831681178455604051919092169283917f8be0079c531659141344cd1fd0a4f28419497f9722a3daafe3b4186f6b6457e09190a35050565b60006020828403121561042957600080fd5b81356001600160a01b038116811461044057600080fd5b9392505050565b60006020828403121561045957600080fd5b505191905056fea264697066735822122077e4a9a866042d60efeacb58743f1712d65a73246c13ff3d480ea78db6bdc1a364736f6c63430008090033a49807205ce4d355092ef5a8a18f56e8913cf4a201fbe287825b095693c21775a2646970667358221220c37e2406e588f1da26a0ebeedf535be993ec32cf450375b42dee2267f02e938564736f6c63430008090033",
  "linkReferences": {},
  "deployedLinkReferences": {}
}