{
  "_format": "hh-sol-artifact-1",
  "contractName": "L2BillingContract",
  "sourceName": "contracts/npc/BobaBridge/NFT/L2/L2BillingContract.sol",
  "abi": [
    {
      "inputs": [],
      "stateMutability": "nonpayable",
      "type": "constructor"
    },
    {
      "anonymous": false,
      "inputs": [
        {
          "indexed": false,
          "internalType": "address",
          "name": "",
          "type": "address"
        },
        {
          "indexed": false,
          "internalType": "uint256",
          "name": "",
          "type": "uint256"
        }
      ],
      "name": "CollectFee",
      "type": "event"
    },
    {
      "anonymous": false,
      "inputs": [
        {
          "indexed": false,
          "internalType": "uint8",
          "name": "version",
          "type": "uint8"
        }
      ],
      "name": "Initialized",
      "type": "event"
    },
    {
      "anonymous": false,
      "inputs": [
        {
          "indexed": true,
          "internalType": "bytes32",
          "name": "role",
          "type": "bytes32"
        },
        {
          "indexed": true,
          "internalType": "bytes32",
          "name": "previousAdminRole",
          "type": "bytes32"
        },
        {
          "indexed": true,
          "internalType": "bytes32",
          "name": "newAdminRole",
          "type": "bytes32"
        }
      ],
      "name": "RoleAdminChanged",
      "type": "event"
    },
    {
      "anonymous": false,
      "inputs": [
        {
          "indexed": true,
          "internalType": "bytes32",
          "name": "role",
          "type": "bytes32"
        },
        {
          "indexed": true,
          "internalType": "address",
          "name": "account",
          "type": "address"
        },
        {
          "indexed": true,
          "internalType": "address",
          "name": "sender",
          "type": "address"
        }
      ],
      "name": "RoleGranted",
      "type": "event"
    },
    {
      "anonymous": false,
      "inputs": [
        {
          "indexed": true,
          "internalType": "bytes32",
          "name": "role",
          "type": "bytes32"
        },
        {
          "indexed": true,
          "internalType": "address",
          "name": "account",
          "type": "address"
        },
        {
          "indexed": true,
          "internalType": "address",
          "name": "sender",
          "type": "address"
        }
      ],
      "name": "RoleRevoked",
      "type": "event"
    },
    {
      "anonymous": false,
      "inputs": [
        {
          "indexed": false,
          "internalType": "uint256",
          "name": "",
          "type": "uint256"
        }
      ],
      "name": "UpdateExitFee",
      "type": "event"
    },
    {
      "anonymous": false,
      "inputs": [
        {
          "indexed": false,
          "internalType": "address",
          "name": "",
          "type": "address"
        }
      ],
      "name": "UpdateFeeWallet",
      "type": "event"
    },
    {
      "anonymous": false,
      "inputs": [
        {
          "indexed": false,
          "internalType": "address",
          "name": "",
          "type": "address"
        },
        {
          "indexed": false,
          "internalType": "uint256",
          "name": "",
          "type": "uint256"
        }
      ],
      "name": "Withdraw",
      "type": "event"
    },
    {
      "inputs": [],
      "name": "DEFAULT_ADMIN_ROLE",
      "outputs": [
        {
          "internalType": "bytes32",
          "name": "",
          "type": "bytes32"
        }
      ],
      "stateMutability": "view",
      "type": "function"
    },
    {
      "inputs": [],
      "name": "collectFee",
      "outputs": [],
      "stateMutability": "payable",
      "type": "function"
    },
    {
      "inputs": [],
      "name": "exitFee",
      "outputs": [
        {
          "internalType": "uint256",
          "name": "",
          "type": "uint256"
        }
      ],
      "stateMutability": "view",
      "type": "function"
    },
    {
      "inputs": [],
      "name": "feeWallet",
      "outputs": [
        {
          "internalType": "address",
          "name": "",
          "type": "address"
        }
      ],
      "stateMutability": "view",
      "type": "function"
    },
    {
      "inputs": [
        {
          "internalType": "bytes32",
          "name": "role",
          "type": "bytes32"
        }
      ],
      "name": "getRoleAdmin",
      "outputs": [
        {
          "internalType": "bytes32",
          "name": "",
          "type": "bytes32"
        }
      ],
      "stateMutability": "view",
      "type": "function"
    },
    {
      "inputs": [
        {
          "internalType": "bytes32",
          "name": "role",
          "type": "bytes32"
        },
        {
          "internalType": "uint256",
          "name": "index",
          "type": "uint256"
        }
      ],
      "name": "getRoleMember",
      "outputs": [
        {
          "internalType": "address",
          "name": "",
          "type": "address"
        }
      ],
      "stateMutability": "view",
      "type": "function"
    },
    {
      "inputs": [
        {
          "internalType": "bytes32",
          "name": "role",
          "type": "bytes32"
        }
      ],
      "name": "getRoleMemberCount",
      "outputs": [
        {
          "internalType": "uint256",
          "name": "",
          "type": "uint256"
        }
      ],
      "stateMutability": "view",
      "type": "function"
    },
    {
      "inputs": [
        {
          "internalType": "bytes32",
          "name": "role",
          "type": "bytes32"
        },
        {
          "internalType": "address",
          "name": "account",
          "type": "address"
        }
      ],
      "name": "grantRole",
      "outputs": [],
      "stateMutability": "nonpayable",
      "type": "function"
    },
    {
      "inputs": [
        {
          "internalType": "bytes32",
          "name": "role",
          "type": "bytes32"
        },
        {
          "internalType": "address",
          "name": "account",
          "type": "address"
        }
      ],
      "name": "hasRole",
      "outputs": [
        {
          "internalType": "bool",
          "name": "",
          "type": "bool"
        }
      ],
      "stateMutability": "view",
      "type": "function"
    },
    {
      "inputs": [],
      "name": "initialize",
      "outputs": [],
      "stateMutability": "nonpayable",
      "type": "function"
    },
    {
      "inputs": [
        {
          "internalType": "bytes32",
          "name": "role",
          "type": "bytes32"
        },
        {
          "internalType": "address",
          "name": "account",
          "type": "address"
        }
      ],
      "name": "renounceRole",
      "outputs": [],
      "stateMutability": "nonpayable",
      "type": "function"
    },
    {
      "inputs": [
        {
          "internalType": "bytes32",
          "name": "role",
          "type": "bytes32"
        },
        {
          "internalType": "address",
          "name": "account",
          "type": "address"
        }
      ],
      "name": "revokeRole",
      "outputs": [],
      "stateMutability": "nonpayable",
      "type": "function"
    },
    {
      "inputs": [
        {
          "internalType": "bytes4",
          "name": "interfaceId",
          "type": "bytes4"
        }
      ],
      "name": "supportsInterface",
      "outputs": [
        {
          "internalType": "bool",
          "name": "",
          "type": "bool"
        }
      ],
      "stateMutability": "view",
      "type": "function"
    },
    {
      "inputs": [
        {
          "internalType": "uint256",
          "name": "_exitFee",
          "type": "uint256"
        }
      ],
      "name": "updateExitFee",
      "outputs": [],
      "stateMutability": "nonpayable",
      "type": "function"
    },
    {
      "inputs": [
        {
          "internalType": "address",
          "name": "_feeWallet",
          "type": "address"
        }
      ],
      "name": "updateFeeWallet",
      "outputs": [],
      "stateMutability": "nonpayable",
      "type": "function"
    },
    {
      "inputs": [],
      "name": "withdraw",
      "outputs": [],
      "stateMutability": "nonpayable",
      "type": "function"
    },
    {
      "stateMutability": "payable",
      "type": "receive"
    }
  ],
  "bytecode": "0x608060405234801561001057600080fd5b5061001961001e565b6100de565b600054610100900460ff161561008a5760405162461bcd60e51b815260206004820152602760248201527f496e697469616c697a61626c653a20636f6e747261637420697320696e697469604482015266616c697a696e6760c81b606482015260840160405180910390fd5b60005460ff90811610156100dc576000805460ff191660ff9081179091556040519081527f7f26b83ff96e1f2b6a682f133852f6798a09c465da95921460cefb38474024989060200160405180910390a15b565b611286806100ed6000396000f3fe6080604052600436106100f75760003560e01c80638129fc1c1161008a578063ca15c87311610059578063ca15c873146102a5578063d4d5d32a146102c5578063d547741f146102cd578063f25f4b56146102ed57600080fd5b80638129fc1c146102235780639010d07c1461023857806391d1485414610270578063a217fddf1461029057600080fd5b806336568abe116100c657806336568abe146101b85780633ccfd60b146101d85780636284ae41146101ed578063667185241461020357600080fd5b806301ffc9a7146101035780630a32dfbf14610138578063248a9ca31461015a5780632f2ff15d1461019857600080fd5b366100fe57005b600080fd5b34801561010f57600080fd5b5061012361011e366004610fbd565b61030d565b60405190151581526020015b60405180910390f35b34801561014457600080fd5b50610158610153366004610fe7565b610338565b005b34801561016657600080fd5b5061018a610175366004610fe7565b60009081526065602052604090206001015490565b60405190815260200161012f565b3480156101a457600080fd5b506101586101b336600461101c565b61039d565b3480156101c457600080fd5b506101586101d336600461101c565b6103c7565b3480156101e457600080fd5b5061015861044a565b3480156101f957600080fd5b5061018a60f85481565b34801561020f57600080fd5b5061015861021e366004611048565b610611565b34801561022f57600080fd5b5061015861075e565b34801561024457600080fd5b50610258610253366004611063565b610880565b6040516001600160a01b03909116815260200161012f565b34801561027c57600080fd5b5061012361028b36600461101c565b61089f565b34801561029c57600080fd5b5061018a600081565b3480156102b157600080fd5b5061018a6102c0366004610fe7565b6108ca565b6101586108e1565b3480156102d957600080fd5b506101586102e836600461101c565b610971565b3480156102f957600080fd5b5060f754610258906001600160a01b031681565b60006001600160e01b03198216635a05180f60e01b1480610332575061033282610996565b92915050565b6103617fa49807205ce4d355092ef5a8a18f56e8913cf4a201fbe287825b095693c217756109cb565b60f88190556040518181527fdf63f901294f7738179b8d0f8ad5000f9086f5d580b2c386c95dce4d13824cc2906020015b60405180910390a150565b6000828152606560205260409020600101546103b8816109cb565b6103c283836109d5565b505050565b6001600160a01b038116331461043c5760405162461bcd60e51b815260206004820152602f60248201527f416363657373436f6e74726f6c3a2063616e206f6e6c792072656e6f756e636560448201526e103937b632b9903337b91039b2b63360891b60648201526084015b60405180910390fd5b61044682826109f7565b5050565b60f7546001600160a01b03166104ae5760405162461bcd60e51b815260206004820152602360248201527f42696c6c696e67436f6e74726163743a3a4665652077616c6c6574206e6f74206044820152621cd95d60ea1b6064820152608401610433565b4767d02ab486cedc00008110156105135760405162461bcd60e51b815260206004820152602360248201527f42696c6c696e67436f6e74726163743a3a42616c616e636520697320746f6f206044820152626c6f7760e81b6064820152608401610433565b60f7546040516000916001600160a01b03169083908381818185875af1925050503d8060008114610560576040519150601f19603f3d011682016040523d82523d6000602084013e610565565b606091505b50509050806105c75760405162461bcd60e51b815260206004820152602860248201527f42696c6c696e67436f6e74726163743a3a4661696c656420746f20776974686460448201526772617720424f424160c01b6064820152608401610433565b60f754604080516001600160a01b039092168252602082018490527f884edad9ce6fa2440d8a54cc123490eb96d2768479d49ff9c7366125a9424364910160405180910390a15050565b61063a7fa49807205ce4d355092ef5a8a18f56e8913cf4a201fbe287825b095693c217756109cb565b6001600160a01b0381166106a45760405162461bcd60e51b815260206004820152602b60248201527f42696c6c696e67436f6e74726163743a3a43616e6e6f742073657420746f207a60448201526a65726f206164647265737360a81b6064820152608401610433565b60f7546001600160a01b03908116908216036107105760405162461bcd60e51b815260206004820152602560248201527f42696c6c696e67436f6e74726163743a3a4665652077616c6c657420756e6368604482015264185b99d95960da1b6064820152608401610433565b60f780546001600160a01b0319166001600160a01b0383169081179091556040519081527f555f36f8d249df9d5b8f81c95d8d0210e5d76353d43a31c218d8496817be1a1b90602001610392565b600054610100900460ff161580801561077e5750600054600160ff909116105b806107985750303b158015610798575060005460ff166001145b6107fb5760405162461bcd60e51b815260206004820152602e60248201527f496e697469616c697a61626c653a20636f6e747261637420697320616c72656160448201526d191e481a5b9a5d1a585b1a5e995960921b6064820152608401610433565b6000805460ff19166001179055801561081e576000805461ff0019166101001790555b610826610a19565b60f780546001600160a01b0319169055600060f855801561087d576000805461ff0019169055604051600181527f7f26b83ff96e1f2b6a682f133852f6798a09c465da95921460cefb384740249890602001610392565b50565b60008281526097602052604081206108989083610afd565b9392505050565b60009182526065602090815260408084206001600160a01b0393909316845291905290205460ff1690565b600081815260976020526040812061033290610b09565b3460f854146109325760405162461bcd60e51b815260206004820152601760248201527f657869742066656520646f6573206e6f74206d617463680000000000000000006044820152606401610433565b60f8546040805133815260208101929092527fdfeef5879c25440d1418a79a16489f0e739d22ac040c8c76f7b998fc704edeb8910160405180910390a1565b60008281526065602052604090206001015461098c816109cb565b6103c283836109f7565b60006001600160e01b03198216637965db0b60e01b148061033257506301ffc9a760e01b6001600160e01b0319831614610332565b61087d8133610b13565b6109df8282610b77565b60008281526097602052604090206103c29082610bfd565b610a018282610c12565b60008281526097602052604090206103c29082610c79565b600054610100900460ff16610a405760405162461bcd60e51b815260040161043390611085565b610a48610c8e565b610a536000336109d5565b610a7d7fa49807205ce4d355092ef5a8a18f56e8913cf4a201fbe287825b095693c21775336109d5565b610aa77f364d3d7565c7a8300c96fd53e065d19b65848d7b23b3191adcd55621c744223c336109d5565b610ad17f9f2df0fed2c77648de5860a4cc508cd0818c85b8b8a1ab4ceeef8d981c8956a6336109d5565b610afb7ff18b77e1ef402111bacb54bd5e03494cbdba92fbd1bd3bbcc1ce77e69b42ea6c336109d5565b565b60006108988383610cb5565b6000610332825490565b610b1d828261089f565b61044657610b35816001600160a01b03166014610cdf565b610b40836020610cdf565b604051602001610b519291906110f4565b60408051601f198184030181529082905262461bcd60e51b825261043391600401611169565b610b81828261089f565b6104465760008281526065602090815260408083206001600160a01b03851684529091529020805460ff19166001179055610bb93390565b6001600160a01b0316816001600160a01b0316837f2f8788117e7eff1d82e926ec794901d17c78024a50270940304540a733656f0d60405160405180910390a45050565b6000610898836001600160a01b038416610e7b565b610c1c828261089f565b156104465760008281526065602090815260408083206001600160a01b0385168085529252808320805460ff1916905551339285917ff6391f5c32d9c69d2a47ea670b442974b53935d1edc7fd64eb21e047a839171b9190a45050565b6000610898836001600160a01b038416610eca565b600054610100900460ff16610afb5760405162461bcd60e51b815260040161043390611085565b6000826000018281548110610ccc57610ccc61119c565b9060005260206000200154905092915050565b60606000610cee8360026111c8565b610cf99060026111e7565b67ffffffffffffffff811115610d1157610d116111fa565b6040519080825280601f01601f191660200182016040528015610d3b576020820181803683370190505b509050600360fc1b81600081518110610d5657610d5661119c565b60200101906001600160f81b031916908160001a905350600f60fb1b81600181518110610d8557610d8561119c565b60200101906001600160f81b031916908160001a9053506000610da98460026111c8565b610db49060016111e7565b90505b6001811115610e2c576f181899199a1a9b1b9c1cb0b131b232b360811b85600f1660108110610de857610de861119c565b1a60f81b828281518110610dfe57610dfe61119c565b60200101906001600160f81b031916908160001a90535060049490941c93610e2581611210565b9050610db7565b5083156108985760405162461bcd60e51b815260206004820181905260248201527f537472696e67733a20686578206c656e67746820696e73756666696369656e746044820152606401610433565b6000818152600183016020526040812054610ec257508154600181810184556000848152602080822090930184905584548482528286019093526040902091909155610332565b506000610332565b60008181526001830160205260408120548015610fb3576000610eee600183611227565b8554909150600090610f0290600190611227565b9050818114610f67576000866000018281548110610f2257610f2261119c565b9060005260206000200154905080876000018481548110610f4557610f4561119c565b6000918252602080832090910192909255918252600188019052604090208390555b8554869080610f7857610f7861123a565b600190038181906000526020600020016000905590558560010160008681526020019081526020016000206000905560019350505050610332565b6000915050610332565b600060208284031215610fcf57600080fd5b81356001600160e01b03198116811461089857600080fd5b600060208284031215610ff957600080fd5b5035919050565b80356001600160a01b038116811461101757600080fd5b919050565b6000806040838503121561102f57600080fd5b8235915061103f60208401611000565b90509250929050565b60006020828403121561105a57600080fd5b61089882611000565b6000806040838503121561107657600080fd5b50508035926020909101359150565b6020808252602b908201527f496e697469616c697a61626c653a20636f6e7472616374206973206e6f74206960408201526a6e697469616c697a696e6760a81b606082015260800190565b60005b838110156110eb5781810151838201526020016110d3565b50506000910152565b7f416363657373436f6e74726f6c3a206163636f756e742000000000000000000081526000835161112c8160178501602088016110d0565b7001034b99036b4b9b9b4b733903937b6329607d1b601791840191820152835161115d8160288401602088016110d0565b01602801949350505050565b60208152600082518060208401526111888160408501602087016110d0565b601f01601f19169190910160400192915050565b634e487b7160e01b600052603260045260246000fd5b634e487b7160e01b600052601160045260246000fd5b60008160001904831182151516156111e2576111e26111b2565b500290565b80820180821115610332576103326111b2565b634e487b7160e01b600052604160045260246000fd5b60008161121f5761121f6111b2565b506000190190565b81810381811115610332576103326111b2565b634e487b7160e01b600052603160045260246000fdfea26469706673582212200362ca819a7fbed5e32cd83d7fa1eb7ec83cd4fb196de15339e7d661a5ab9e8364736f6c63430008100033",
  "linkReferences": {},
  "deployedLinkReferences": {}
}