{
  "_format": "hh-sol-artifact-1",
  "contractName": "L2BillingContract",
  "sourceName": "contracts/npc/BobaBridge/NFT/L2/L2BillingContract.sol",
  "abi": [
    {
      "inputs": [],
      "stateMutability": "nonpayable",
      "type": "constructor"
    },
    {
      "anonymous": false,
      "inputs": [
        {
          "indexed": false,
          "internalType": "address",
          "name": "",
          "type": "address"
        },
        {
          "indexed": false,
          "internalType": "uint256",
          "name": "",
          "type": "uint256"
        }
      ],
      "name": "CollectFee",
      "type": "event"
    },
    {
      "anonymous": false,
      "inputs": [
        {
          "indexed": false,
          "internalType": "uint8",
          "name": "version",
          "type": "uint8"
        }
      ],
      "name": "Initialized",
      "type": "event"
    },
    {
      "anonymous": false,
      "inputs": [
        {
          "indexed": true,
          "internalType": "bytes32",
          "name": "role",
          "type": "bytes32"
        },
        {
          "indexed": true,
          "internalType": "bytes32",
          "name": "previousAdminRole",
          "type": "bytes32"
        },
        {
          "indexed": true,
          "internalType": "bytes32",
          "name": "newAdminRole",
          "type": "bytes32"
        }
      ],
      "name": "RoleAdminChanged",
      "type": "event"
    },
    {
      "anonymous": false,
      "inputs": [
        {
          "indexed": true,
          "internalType": "bytes32",
          "name": "role",
          "type": "bytes32"
        },
        {
          "indexed": true,
          "internalType": "address",
          "name": "account",
          "type": "address"
        },
        {
          "indexed": true,
          "internalType": "address",
          "name": "sender",
          "type": "address"
        }
      ],
      "name": "RoleGranted",
      "type": "event"
    },
    {
      "anonymous": false,
      "inputs": [
        {
          "indexed": true,
          "internalType": "bytes32",
          "name": "role",
          "type": "bytes32"
        },
        {
          "indexed": true,
          "internalType": "address",
          "name": "account",
          "type": "address"
        },
        {
          "indexed": true,
          "internalType": "address",
          "name": "sender",
          "type": "address"
        }
      ],
      "name": "RoleRevoked",
      "type": "event"
    },
    {
      "anonymous": false,
      "inputs": [
        {
          "indexed": false,
          "internalType": "uint256",
          "name": "",
          "type": "uint256"
        }
      ],
      "name": "UpdateExitFee",
      "type": "event"
    },
    {
      "anonymous": false,
      "inputs": [
        {
          "indexed": false,
          "internalType": "address",
          "name": "",
          "type": "address"
        }
      ],
      "name": "UpdateFeeWallet",
      "type": "event"
    },
    {
      "anonymous": false,
      "inputs": [
        {
          "indexed": false,
          "internalType": "address",
          "name": "",
          "type": "address"
        },
        {
          "indexed": false,
          "internalType": "uint256",
          "name": "",
          "type": "uint256"
        }
      ],
      "name": "Withdraw",
      "type": "event"
    },
    {
      "inputs": [],
      "name": "DEFAULT_ADMIN_ROLE",
      "outputs": [
        {
          "internalType": "bytes32",
          "name": "",
          "type": "bytes32"
        }
      ],
      "stateMutability": "view",
      "type": "function"
    },
    {
      "inputs": [],
      "name": "collectFee",
      "outputs": [],
      "stateMutability": "payable",
      "type": "function"
    },
    {
      "inputs": [],
      "name": "exitFee",
      "outputs": [
        {
          "internalType": "uint256",
          "name": "",
          "type": "uint256"
        }
      ],
      "stateMutability": "view",
      "type": "function"
    },
    {
      "inputs": [],
      "name": "feeWallet",
      "outputs": [
        {
          "internalType": "address",
          "name": "",
          "type": "address"
        }
      ],
      "stateMutability": "view",
      "type": "function"
    },
    {
      "inputs": [
        {
          "internalType": "bytes32",
          "name": "role",
          "type": "bytes32"
        }
      ],
      "name": "getRoleAdmin",
      "outputs": [
        {
          "internalType": "bytes32",
          "name": "",
          "type": "bytes32"
        }
      ],
      "stateMutability": "view",
      "type": "function"
    },
    {
      "inputs": [
        {
          "internalType": "bytes32",
          "name": "role",
          "type": "bytes32"
        },
        {
          "internalType": "uint256",
          "name": "index",
          "type": "uint256"
        }
      ],
      "name": "getRoleMember",
      "outputs": [
        {
          "internalType": "address",
          "name": "",
          "type": "address"
        }
      ],
      "stateMutability": "view",
      "type": "function"
    },
    {
      "inputs": [
        {
          "internalType": "bytes32",
          "name": "role",
          "type": "bytes32"
        }
      ],
      "name": "getRoleMemberCount",
      "outputs": [
        {
          "internalType": "uint256",
          "name": "",
          "type": "uint256"
        }
      ],
      "stateMutability": "view",
      "type": "function"
    },
    {
      "inputs": [
        {
          "internalType": "bytes32",
          "name": "role",
          "type": "bytes32"
        },
        {
          "internalType": "address",
          "name": "account",
          "type": "address"
        }
      ],
      "name": "grantRole",
      "outputs": [],
      "stateMutability": "nonpayable",
      "type": "function"
    },
    {
      "inputs": [
        {
          "internalType": "bytes32",
          "name": "role",
          "type": "bytes32"
        },
        {
          "internalType": "address",
          "name": "account",
          "type": "address"
        }
      ],
      "name": "hasRole",
      "outputs": [
        {
          "internalType": "bool",
          "name": "",
          "type": "bool"
        }
      ],
      "stateMutability": "view",
      "type": "function"
    },
    {
      "inputs": [],
      "name": "initialize",
      "outputs": [],
      "stateMutability": "nonpayable",
      "type": "function"
    },
    {
      "inputs": [
        {
          "internalType": "bytes32",
          "name": "role",
          "type": "bytes32"
        },
        {
          "internalType": "address",
          "name": "account",
          "type": "address"
        }
      ],
      "name": "renounceRole",
      "outputs": [],
      "stateMutability": "nonpayable",
      "type": "function"
    },
    {
      "inputs": [
        {
          "internalType": "bytes32",
          "name": "role",
          "type": "bytes32"
        },
        {
          "internalType": "address",
          "name": "account",
          "type": "address"
        }
      ],
      "name": "revokeRole",
      "outputs": [],
      "stateMutability": "nonpayable",
      "type": "function"
    },
    {
      "inputs": [
        {
          "internalType": "bytes4",
          "name": "interfaceId",
          "type": "bytes4"
        }
      ],
      "name": "supportsInterface",
      "outputs": [
        {
          "internalType": "bool",
          "name": "",
          "type": "bool"
        }
      ],
      "stateMutability": "view",
      "type": "function"
    },
    {
      "inputs": [
        {
          "internalType": "uint256",
          "name": "_exitFee",
          "type": "uint256"
        }
      ],
      "name": "updateExitFee",
      "outputs": [],
      "stateMutability": "nonpayable",
      "type": "function"
    },
    {
      "inputs": [
        {
          "internalType": "address",
          "name": "_feeWallet",
          "type": "address"
        }
      ],
      "name": "updateFeeWallet",
      "outputs": [],
      "stateMutability": "nonpayable",
      "type": "function"
    },
    {
      "inputs": [],
      "name": "withdraw",
      "outputs": [],
      "stateMutability": "nonpayable",
      "type": "function"
    },
    {
      "stateMutability": "payable",
      "type": "receive"
    }
  ],
  "bytecode": "0x608060405234801561001057600080fd5b5061001961001e565b6100de565b600054610100900460ff161561008a5760405162461bcd60e51b815260206004820152602760248201527f496e697469616c697a61626c653a20636f6e747261637420697320696e697469604482015266616c697a696e6760c81b606482015260840160405180910390fd5b60005460ff90811610156100dc576000805460ff191660ff9081179091556040519081527f7f26b83ff96e1f2b6a682f133852f6798a09c465da95921460cefb38474024989060200160405180910390a15b565b6112e7806100ed6000396000f3fe6080604052600436106100f75760003560e01c80638129fc1c1161008a578063ca15c87311610059578063ca15c873146102a5578063d4d5d32a146102c5578063d547741f146102cd578063f25f4b56146102ed57600080fd5b80638129fc1c146102235780639010d07c1461023857806391d1485414610270578063a217fddf1461029057600080fd5b806336568abe116100c657806336568abe146101b85780633ccfd60b146101d85780636284ae41146101ed578063667185241461020357600080fd5b806301ffc9a7146101035780630a32dfbf14610138578063248a9ca31461015a5780632f2ff15d1461019857600080fd5b366100fe57005b600080fd5b34801561010f57600080fd5b5061012361011e36600461101e565b61030d565b60405190151581526020015b60405180910390f35b34801561014457600080fd5b50610158610153366004611048565b610338565b005b34801561016657600080fd5b5061018a610175366004611048565b60009081526065602052604090206001015490565b60405190815260200161012f565b3480156101a457600080fd5b506101586101b336600461107d565b610403565b3480156101c457600080fd5b506101586101d336600461107d565b61042d565b3480156101e457600080fd5b506101586104ab565b3480156101f957600080fd5b5061018a60f85481565b34801561020f57600080fd5b5061015861021e3660046110a9565b610672565b34801561022f57600080fd5b506101586107bf565b34801561024457600080fd5b506102586102533660046110c4565b6108e1565b6040516001600160a01b03909116815260200161012f565b34801561027c57600080fd5b5061012361028b36600461107d565b610900565b34801561029c57600080fd5b5061018a600081565b3480156102b157600080fd5b5061018a6102c0366004611048565b61092b565b610158610942565b3480156102d957600080fd5b506101586102e836600461107d565b6109d2565b3480156102f957600080fd5b5060f754610258906001600160a01b031681565b60006001600160e01b03198216635a05180f60e01b14806103325750610332826109f7565b92915050565b6103617fa49807205ce4d355092ef5a8a18f56e8913cf4a201fbe287825b095693c21775610a2c565b600081116103c75760405162461bcd60e51b815260206004820152602860248201527f42696c6c696e67436f6e74726163743a3a45786974206665652063616e6e6f74604482015267206265207a65726f60c01b60648201526084015b60405180910390fd5b60f88190556040518181527fdf63f901294f7738179b8d0f8ad5000f9086f5d580b2c386c95dce4d13824cc2906020015b60405180910390a150565b60008281526065602052604090206001015461041e81610a2c565b6104288383610a36565b505050565b6001600160a01b038116331461049d5760405162461bcd60e51b815260206004820152602f60248201527f416363657373436f6e74726f6c3a2063616e206f6e6c792072656e6f756e636560448201526e103937b632b9903337b91039b2b63360891b60648201526084016103be565b6104a78282610a58565b5050565b60f7546001600160a01b031661050f5760405162461bcd60e51b815260206004820152602360248201527f42696c6c696e67436f6e74726163743a3a4665652077616c6c6574206e6f74206044820152621cd95d60ea1b60648201526084016103be565b4767d02ab486cedc00008110156105745760405162461bcd60e51b815260206004820152602360248201527f42696c6c696e67436f6e74726163743a3a42616c616e636520697320746f6f206044820152626c6f7760e81b60648201526084016103be565b60f7546040516000916001600160a01b03169083908381818185875af1925050503d80600081146105c1576040519150601f19603f3d011682016040523d82523d6000602084013e6105c6565b606091505b50509050806106285760405162461bcd60e51b815260206004820152602860248201527f42696c6c696e67436f6e74726163743a3a4661696c656420746f20776974686460448201526772617720424f424160c01b60648201526084016103be565b60f754604080516001600160a01b039092168252602082018490527f884edad9ce6fa2440d8a54cc123490eb96d2768479d49ff9c7366125a9424364910160405180910390a15050565b61069b7fa49807205ce4d355092ef5a8a18f56e8913cf4a201fbe287825b095693c21775610a2c565b6001600160a01b0381166107055760405162461bcd60e51b815260206004820152602b60248201527f42696c6c696e67436f6e74726163743a3a43616e6e6f742073657420746f207a60448201526a65726f206164647265737360a81b60648201526084016103be565b60f7546001600160a01b03908116908216036107715760405162461bcd60e51b815260206004820152602560248201527f42696c6c696e67436f6e74726163743a3a4665652077616c6c657420756e6368604482015264185b99d95960da1b60648201526084016103be565b60f780546001600160a01b0319166001600160a01b0383169081179091556040519081527f555f36f8d249df9d5b8f81c95d8d0210e5d76353d43a31c218d8496817be1a1b906020016103f8565b600054610100900460ff16158080156107df5750600054600160ff909116105b806107f95750303b1580156107f9575060005460ff166001145b61085c5760405162461bcd60e51b815260206004820152602e60248201527f496e697469616c697a61626c653a20636f6e747261637420697320616c72656160448201526d191e481a5b9a5d1a585b1a5e995960921b60648201526084016103be565b6000805460ff19166001179055801561087f576000805461ff0019166101001790555b610887610a7a565b60f780546001600160a01b0319169055600060f85580156108de576000805461ff0019169055604051600181527f7f26b83ff96e1f2b6a682f133852f6798a09c465da95921460cefb3847402498906020016103f8565b50565b60008281526097602052604081206108f99083610b5e565b9392505050565b60009182526065602090815260408084206001600160a01b0393909316845291905290205460ff1690565b600081815260976020526040812061033290610b6a565b3460f854146109935760405162461bcd60e51b815260206004820152601760248201527f657869742066656520646f6573206e6f74206d6174636800000000000000000060448201526064016103be565b60f8546040805133815260208101929092527fdfeef5879c25440d1418a79a16489f0e739d22ac040c8c76f7b998fc704edeb8910160405180910390a1565b6000828152606560205260409020600101546109ed81610a2c565b6104288383610a58565b60006001600160e01b03198216637965db0b60e01b148061033257506301ffc9a760e01b6001600160e01b0319831614610332565b6108de8133610b74565b610a408282610bd8565b60008281526097602052604090206104289082610c5e565b610a628282610c73565b60008281526097602052604090206104289082610cda565b600054610100900460ff16610aa15760405162461bcd60e51b81526004016103be906110e6565b610aa9610cef565b610ab4600033610a36565b610ade7fa49807205ce4d355092ef5a8a18f56e8913cf4a201fbe287825b095693c2177533610a36565b610b087f364d3d7565c7a8300c96fd53e065d19b65848d7b23b3191adcd55621c744223c33610a36565b610b327f9f2df0fed2c77648de5860a4cc508cd0818c85b8b8a1ab4ceeef8d981c8956a633610a36565b610b5c7ff18b77e1ef402111bacb54bd5e03494cbdba92fbd1bd3bbcc1ce77e69b42ea6c33610a36565b565b60006108f98383610d16565b6000610332825490565b610b7e8282610900565b6104a757610b96816001600160a01b03166014610d40565b610ba1836020610d40565b604051602001610bb2929190611155565b60408051601f198184030181529082905262461bcd60e51b82526103be916004016111ca565b610be28282610900565b6104a75760008281526065602090815260408083206001600160a01b03851684529091529020805460ff19166001179055610c1a3390565b6001600160a01b0316816001600160a01b0316837f2f8788117e7eff1d82e926ec794901d17c78024a50270940304540a733656f0d60405160405180910390a45050565b60006108f9836001600160a01b038416610edc565b610c7d8282610900565b156104a75760008281526065602090815260408083206001600160a01b0385168085529252808320805460ff1916905551339285917ff6391f5c32d9c69d2a47ea670b442974b53935d1edc7fd64eb21e047a839171b9190a45050565b60006108f9836001600160a01b038416610f2b565b600054610100900460ff16610b5c5760405162461bcd60e51b81526004016103be906110e6565b6000826000018281548110610d2d57610d2d6111fd565b9060005260206000200154905092915050565b60606000610d4f836002611229565b610d5a906002611248565b67ffffffffffffffff811115610d7257610d7261125b565b6040519080825280601f01601f191660200182016040528015610d9c576020820181803683370190505b509050600360fc1b81600081518110610db757610db76111fd565b60200101906001600160f81b031916908160001a905350600f60fb1b81600181518110610de657610de66111fd565b60200101906001600160f81b031916908160001a9053506000610e0a846002611229565b610e15906001611248565b90505b6001811115610e8d576f181899199a1a9b1b9c1cb0b131b232b360811b85600f1660108110610e4957610e496111fd565b1a60f81b828281518110610e5f57610e5f6111fd565b60200101906001600160f81b031916908160001a90535060049490941c93610e8681611271565b9050610e18565b5083156108f95760405162461bcd60e51b815260206004820181905260248201527f537472696e67733a20686578206c656e67746820696e73756666696369656e7460448201526064016103be565b6000818152600183016020526040812054610f2357508154600181810184556000848152602080822090930184905584548482528286019093526040902091909155610332565b506000610332565b60008181526001830160205260408120548015611014576000610f4f600183611288565b8554909150600090610f6390600190611288565b9050818114610fc8576000866000018281548110610f8357610f836111fd565b9060005260206000200154905080876000018481548110610fa657610fa66111fd565b6000918252602080832090910192909255918252600188019052604090208390555b8554869080610fd957610fd961129b565b600190038181906000526020600020016000905590558560010160008681526020019081526020016000206000905560019350505050610332565b6000915050610332565b60006020828403121561103057600080fd5b81356001600160e01b0319811681146108f957600080fd5b60006020828403121561105a57600080fd5b5035919050565b80356001600160a01b038116811461107857600080fd5b919050565b6000806040838503121561109057600080fd5b823591506110a060208401611061565b90509250929050565b6000602082840312156110bb57600080fd5b6108f982611061565b600080604083850312156110d757600080fd5b50508035926020909101359150565b6020808252602b908201527f496e697469616c697a61626c653a20636f6e7472616374206973206e6f74206960408201526a6e697469616c697a696e6760a81b606082015260800190565b60005b8381101561114c578181015183820152602001611134565b50506000910152565b7f416363657373436f6e74726f6c3a206163636f756e742000000000000000000081526000835161118d816017850160208801611131565b7001034b99036b4b9b9b4b733903937b6329607d1b60179184019182015283516111be816028840160208801611131565b01602801949350505050565b60208152600082518060208401526111e9816040850160208701611131565b601f01601f19169190910160400192915050565b634e487b7160e01b600052603260045260246000fd5b634e487b7160e01b600052601160045260246000fd5b600081600019048311821515161561124357611243611213565b500290565b8082018082111561033257610332611213565b634e487b7160e01b600052604160045260246000fd5b60008161128057611280611213565b506000190190565b8181038181111561033257610332611213565b634e487b7160e01b600052603160045260246000fdfea264697066735822122071bd805549ccb3be55e9e57fb4b29aed156b2c7833f8ff712be76ffa5c2d555e64736f6c63430008100033",
  "linkReferences": {},
  "deployedLinkReferences": {}
}