{
  "_format": "hh-sol-artifact-1",
  "contractName": "BobaFaucet",
  "sourceName": "contracts/utils/boba/BobaFaucet.sol",
  "abi": [
    {
      "inputs": [],
      "stateMutability": "nonpayable",
      "type": "constructor"
    },
    {
      "anonymous": false,
      "inputs": [
        {
          "indexed": false,
          "internalType": "uint256",
          "name": "amount",
          "type": "uint256"
        }
      ],
      "name": "DripSizeChanged",
      "type": "event"
    },
    {
      "anonymous": false,
      "inputs": [
        {
          "indexed": true,
          "internalType": "address",
          "name": "to",
          "type": "address"
        },
        {
          "indexed": false,
          "internalType": "uint256",
          "name": "amount",
          "type": "uint256"
        }
      ],
      "name": "Dripped",
      "type": "event"
    },
    {
      "anonymous": false,
      "inputs": [
        {
          "indexed": false,
          "internalType": "address",
          "name": "from",
          "type": "address"
        },
        {
          "indexed": false,
          "internalType": "uint256",
          "name": "amount",
          "type": "uint256"
        }
      ],
      "name": "ETHReceived",
      "type": "event"
    },
    {
      "anonymous": false,
      "inputs": [
        {
          "indexed": false,
          "internalType": "uint8",
          "name": "version",
          "type": "uint8"
        }
      ],
      "name": "Initialized",
      "type": "event"
    },
    {
      "anonymous": false,
      "inputs": [
        {
          "indexed": false,
          "internalType": "address",
          "name": "account",
          "type": "address"
        }
      ],
      "name": "Paused",
      "type": "event"
    },
    {
      "anonymous": false,
      "inputs": [
        {
          "indexed": true,
          "internalType": "address[]",
          "name": "to",
          "type": "address[]"
        },
        {
          "indexed": false,
          "internalType": "uint256",
          "name": "amount",
          "type": "uint256"
        }
      ],
      "name": "Poured",
      "type": "event"
    },
    {
      "anonymous": false,
      "inputs": [
        {
          "indexed": true,
          "internalType": "bytes32",
          "name": "role",
          "type": "bytes32"
        },
        {
          "indexed": true,
          "internalType": "bytes32",
          "name": "previousAdminRole",
          "type": "bytes32"
        },
        {
          "indexed": true,
          "internalType": "bytes32",
          "name": "newAdminRole",
          "type": "bytes32"
        }
      ],
      "name": "RoleAdminChanged",
      "type": "event"
    },
    {
      "anonymous": false,
      "inputs": [
        {
          "indexed": true,
          "internalType": "bytes32",
          "name": "role",
          "type": "bytes32"
        },
        {
          "indexed": true,
          "internalType": "address",
          "name": "account",
          "type": "address"
        },
        {
          "indexed": true,
          "internalType": "address",
          "name": "sender",
          "type": "address"
        }
      ],
      "name": "RoleGranted",
      "type": "event"
    },
    {
      "anonymous": false,
      "inputs": [
        {
          "indexed": true,
          "internalType": "bytes32",
          "name": "role",
          "type": "bytes32"
        },
        {
          "indexed": true,
          "internalType": "address",
          "name": "account",
          "type": "address"
        },
        {
          "indexed": true,
          "internalType": "address",
          "name": "sender",
          "type": "address"
        }
      ],
      "name": "RoleRevoked",
      "type": "event"
    },
    {
      "anonymous": false,
      "inputs": [
        {
          "indexed": false,
          "internalType": "address",
          "name": "account",
          "type": "address"
        }
      ],
      "name": "Unpaused",
      "type": "event"
    },
    {
      "inputs": [],
      "name": "ADMIN_ROLE",
      "outputs": [
        {
          "internalType": "bytes32",
          "name": "",
          "type": "bytes32"
        }
      ],
      "stateMutability": "view",
      "type": "function"
    },
    {
      "inputs": [],
      "name": "DEFAULT_ADMIN_ROLE",
      "outputs": [
        {
          "internalType": "bytes32",
          "name": "",
          "type": "bytes32"
        }
      ],
      "stateMutability": "view",
      "type": "function"
    },
    {
      "inputs": [
        {
          "internalType": "address payable",
          "name": "to",
          "type": "address"
        }
      ],
      "name": "drip",
      "outputs": [],
      "stateMutability": "nonpayable",
      "type": "function"
    },
    {
      "inputs": [],
      "name": "dripSize",
      "outputs": [
        {
          "internalType": "uint256",
          "name": "",
          "type": "uint256"
        }
      ],
      "stateMutability": "view",
      "type": "function"
    },
    {
      "inputs": [],
      "name": "getQuenched",
      "outputs": [
        {
          "internalType": "address[]",
          "name": "",
          "type": "address[]"
        }
      ],
      "stateMutability": "view",
      "type": "function"
    },
    {
      "inputs": [],
      "name": "getReservoir",
      "outputs": [
        {
          "internalType": "uint256",
          "name": "reservoir",
          "type": "uint256"
        },
        {
          "internalType": "uint256",
          "name": "drips",
          "type": "uint256"
        }
      ],
      "stateMutability": "view",
      "type": "function"
    },
    {
      "inputs": [
        {
          "internalType": "bytes32",
          "name": "role",
          "type": "bytes32"
        }
      ],
      "name": "getRoleAdmin",
      "outputs": [
        {
          "internalType": "bytes32",
          "name": "",
          "type": "bytes32"
        }
      ],
      "stateMutability": "view",
      "type": "function"
    },
    {
      "inputs": [
        {
          "internalType": "bytes32",
          "name": "role",
          "type": "bytes32"
        },
        {
          "internalType": "uint256",
          "name": "index",
          "type": "uint256"
        }
      ],
      "name": "getRoleMember",
      "outputs": [
        {
          "internalType": "address",
          "name": "",
          "type": "address"
        }
      ],
      "stateMutability": "view",
      "type": "function"
    },
    {
      "inputs": [
        {
          "internalType": "bytes32",
          "name": "role",
          "type": "bytes32"
        }
      ],
      "name": "getRoleMemberCount",
      "outputs": [
        {
          "internalType": "uint256",
          "name": "",
          "type": "uint256"
        }
      ],
      "stateMutability": "view",
      "type": "function"
    },
    {
      "inputs": [
        {
          "internalType": "bytes32",
          "name": "role",
          "type": "bytes32"
        },
        {
          "internalType": "address",
          "name": "account",
          "type": "address"
        }
      ],
      "name": "grantRole",
      "outputs": [],
      "stateMutability": "nonpayable",
      "type": "function"
    },
    {
      "inputs": [
        {
          "internalType": "bytes32",
          "name": "role",
          "type": "bytes32"
        },
        {
          "internalType": "address",
          "name": "account",
          "type": "address"
        }
      ],
      "name": "hasRole",
      "outputs": [
        {
          "internalType": "bool",
          "name": "",
          "type": "bool"
        }
      ],
      "stateMutability": "view",
      "type": "function"
    },
    {
      "inputs": [],
      "name": "initialize",
      "outputs": [],
      "stateMutability": "nonpayable",
      "type": "function"
    },
    {
      "inputs": [
        {
          "internalType": "address",
          "name": "to",
          "type": "address"
        }
      ],
      "name": "isQuenched",
      "outputs": [
        {
          "internalType": "bool",
          "name": "",
          "type": "bool"
        }
      ],
      "stateMutability": "view",
      "type": "function"
    },
    {
      "inputs": [
        {
          "internalType": "address",
          "name": "to",
          "type": "address"
        }
      ],
      "name": "isThirsty",
      "outputs": [
        {
          "internalType": "bool",
          "name": "",
          "type": "bool"
        }
      ],
      "stateMutability": "view",
      "type": "function"
    },
    {
      "inputs": [
        {
          "internalType": "address",
          "name": "to",
          "type": "address"
        }
      ],
      "name": "markQuenched",
      "outputs": [],
      "stateMutability": "nonpayable",
      "type": "function"
    },
    {
      "inputs": [],
      "name": "paused",
      "outputs": [
        {
          "internalType": "bool",
          "name": "",
          "type": "bool"
        }
      ],
      "stateMutability": "view",
      "type": "function"
    },
    {
      "inputs": [
        {
          "internalType": "address[]",
          "name": "to",
          "type": "address[]"
        }
      ],
      "name": "pour",
      "outputs": [],
      "stateMutability": "nonpayable",
      "type": "function"
    },
    {
      "inputs": [
        {
          "internalType": "bytes32",
          "name": "role",
          "type": "bytes32"
        },
        {
          "internalType": "address",
          "name": "account",
          "type": "address"
        }
      ],
      "name": "renounceRole",
      "outputs": [],
      "stateMutability": "nonpayable",
      "type": "function"
    },
    {
      "inputs": [
        {
          "internalType": "bytes32",
          "name": "role",
          "type": "bytes32"
        },
        {
          "internalType": "address",
          "name": "account",
          "type": "address"
        }
      ],
      "name": "revokeRole",
      "outputs": [],
      "stateMutability": "nonpayable",
      "type": "function"
    },
    {
      "inputs": [
        {
          "internalType": "uint256",
          "name": "amount",
          "type": "uint256"
        }
      ],
      "name": "setDripSize",
      "outputs": [],
      "stateMutability": "nonpayable",
      "type": "function"
    },
    {
      "inputs": [
        {
          "internalType": "bytes4",
          "name": "interfaceId",
          "type": "bytes4"
        }
      ],
      "name": "supportsInterface",
      "outputs": [
        {
          "internalType": "bool",
          "name": "",
          "type": "bool"
        }
      ],
      "stateMutability": "view",
      "type": "function"
    },
    {
      "stateMutability": "payable",
      "type": "receive"
    }
  ],
  "bytecode": "0x608060405234801561001057600080fd5b5061001961001e565b6100de565b600054610100900460ff161561008a5760405162461bcd60e51b815260206004820152602760248201527f496e697469616c697a61626c653a20636f6e747261637420697320696e697469604482015266616c697a696e6760c81b606482015260840160405180910390fd5b60005460ff90811610156100dc576000805460ff191660ff9081179091556040519081527f7f26b83ff96e1f2b6a682f133852f6798a09c465da95921460cefb38474024989060200160405180910390a15b565b6115b4806100ed6000396000f3fe60806040526004361061012e5760003560e01c806375b238fc116100ab578063a217fddf1161006f578063a217fddf1461038f578063bb6cb161146103a4578063ca15c873146103c6578063d547741f146103e6578063f71c019b14610406578063fa870ab21461042657600080fd5b806375b238fc146102e05780638129fc1c146103025780639010d07c1461031757806391d148541461034f5780639c0df50f1461036f57600080fd5b80632f2ff15d116100f25780632f2ff15d1461023e57806336568abe1461025e57806344dae7581461027e5780635c975abb146102a857806367a5cd06146102c057600080fd5b806301ffc9a71461017257806304d49cf3146101a75780630a6a77e6146101c75780630a8e2076146101e9578063248a9ca31461020e57600080fd5b3661016d57604080513381523460208201527fbfe611b001dfcd411432f7bf0d79b82b4b2ee81511edac123a3403c357fb972a910160405180910390a1005b600080fd5b34801561017e57600080fd5b5061019261018d3660046110a1565b610446565b60405190151581526020015b60405180910390f35b3480156101b357600080fd5b506101926101c23660046110f0565b610471565b3480156101d357600080fd5b506101e76101e23660046110f0565b61047f565b005b3480156101f557600080fd5b506102006101605481565b60405190815260200161019e565b34801561021a57600080fd5b5061020061022936600461110d565b600090815260c9602052604090206001015490565b34801561024a57600080fd5b506101e7610259366004611126565b61049b565b34801561026a57600080fd5b506101e7610279366004611126565b6104c0565b34801561028a57600080fd5b50610293610543565b6040805192835260208301919091520161019e565b3480156102b457600080fd5b5060655460ff16610192565b3480156102cc57600080fd5b506101e76102db3660046110f0565b61055c565b3480156102ec57600080fd5b5061020060008051602061155f83398151915281565b34801561030e57600080fd5b506101e7610648565b34801561032357600080fd5b50610337610332366004611156565b6107ce565b6040516001600160a01b03909116815260200161019e565b34801561035b57600080fd5b5061019261036a366004611126565b6107ed565b34801561037b57600080fd5b506101e761038a36600461118e565b610818565b34801561039b57600080fd5b50610200600081565b3480156103b057600080fd5b506103b9610974565b60405161019e9190611253565b3480156103d257600080fd5b506102006103e136600461110d565b610986565b3480156103f257600080fd5b506101e7610401366004611126565b61099d565b34801561041257600080fd5b506101926104213660046110f0565b6109c2565b34801561043257600080fd5b506101e761044136600461110d565b6109d7565b60006001600160e01b03198216635a05180f60e01b148061046b575061046b82610a6f565b92915050565b600061046b61015e83610aa4565b600061048a81610ac6565b61049661015e83610ad0565b505050565b600082815260c960205260409020600101546104b681610ac6565b6104968383610ae5565b6001600160a01b03811633146105355760405162461bcd60e51b815260206004820152602f60248201527f416363657373436f6e74726f6c3a2063616e206f6e6c792072656e6f756e636560448201526e103937b632b9903337b91039b2b63360891b60648201526084015b60405180910390fd5b61053f8282610b07565b5050565b61016054479060009061055690836112b6565b90509091565b60008051602061155f83398151915261057481610ac6565b610160544710156105975760405162461bcd60e51b815260040161052c906112d8565b60006105a561015e84610ad0565b9050806105c45760405162461bcd60e51b815260040161052c90611324565b610160546040516001600160a01b0385169180156108fc02916000818181858888f193505050501580156105fc573d6000803e3d6000fd5b50826001600160a01b03167f0daf449977d5acafa35195e10b3eb92f97839892a6653afaba222379b58d8a9b6101605460405161063b91815260200190565b60405180910390a2505050565b600054610100900460ff16158080156106685750600054600160ff909116105b806106825750303b158015610682575060005460ff166001145b6106e55760405162461bcd60e51b815260206004820152602e60248201527f496e697469616c697a61626c653a20636f6e747261637420697320616c72656160448201526d191e481a5b9a5d1a585b1a5e995960921b606482015260840161052c565b6000805460ff191660011790558015610708576000805461ff0019166101001790555b610710610b29565b610718610b52565b610720610b29565b61072b600033610ae5565b61074360008051602061155f83398151915233610ae5565b671bc16d674ec800006101608190556040519081527fac9df62d7095382e814cbf3d18f5ee9cdf97fc109dace8cf30b400605117b6119060200160405180910390a180156107cb576000805461ff0019169055604051600181527f7f26b83ff96e1f2b6a682f133852f6798a09c465da95921460cefb38474024989060200160405180910390a15b50565b600082815260fb602052604081206107e69083610b81565b9392505050565b600091825260c9602090815260408084206001600160a01b0393909316845291905290205460ff1690565b60008051602061155f83398151915261083081610ac6565b8151610160546108409190611367565b47101561085f5760405162461bcd60e51b815260040161052c906112d8565b60005b825181101561092457600061089b84838151811061088257610882611386565b602002602001015161015e610ad090919063ffffffff16565b9050806108ba5760405162461bcd60e51b815260040161052c90611324565b8382815181106108cc576108cc611386565b60200260200101516001600160a01b03166108fc610160549081150290604051600060405180830381858888f1935050505015801561090f573d6000803e3d6000fd5b5050808061091c9061139c565b915050610862565b508160405161093391906113b5565b604051908190038120610160548252907fe527150882a45f9c400d53407b6679ab3b8c5da25a319b00bc44eb21d13ef23f9060200160405180910390a25050565b606061098161015e610b8d565b905090565b600081815260fb6020526040812061046b90610b9a565b600082815260c960205260409020600101546109b881610ac6565b6104968383610b07565b60006109d061015e83610aa4565b1592915050565b60006109e281610ac6565b60008211610a325760405162461bcd60e51b815260206004820152601a60248201527f426f62614661756365743a3a496e76616c696420616d6f756e74000000000000604482015260640161052c565b6101608290556040518281527fac9df62d7095382e814cbf3d18f5ee9cdf97fc109dace8cf30b400605117b6119060200160405180910390a15050565b60006001600160e01b03198216637965db0b60e01b148061046b57506301ffc9a760e01b6001600160e01b031983161461046b565b6001600160a01b038116600090815260018301602052604081205415156107e6565b6107cb8133610ba4565b60006107e6836001600160a01b038416610c08565b610aef8282610c57565b600082815260fb602052604090206104969082610ad0565b610b118282610cdd565b600082815260fb602052604090206104969082610d44565b600054610100900460ff16610b505760405162461bcd60e51b815260040161052c906113f4565b565b600054610100900460ff16610b795760405162461bcd60e51b815260040161052c906113f4565b610b50610d59565b60006107e68383610d8c565b606060006107e683610db6565b600061046b825490565b610bae82826107ed565b61053f57610bc6816001600160a01b03166014610e12565b610bd1836020610e12565b604051602001610be2929190611463565b60408051601f198184030181529082905262461bcd60e51b825261052c916004016114d8565b6000818152600183016020526040812054610c4f5750815460018181018455600084815260208082209093018490558454848252828601909352604090209190915561046b565b50600061046b565b610c6182826107ed565b61053f57600082815260c9602090815260408083206001600160a01b03851684529091529020805460ff19166001179055610c993390565b6001600160a01b0316816001600160a01b0316837f2f8788117e7eff1d82e926ec794901d17c78024a50270940304540a733656f0d60405160405180910390a45050565b610ce782826107ed565b1561053f57600082815260c9602090815260408083206001600160a01b0385168085529252808320805460ff1916905551339285917ff6391f5c32d9c69d2a47ea670b442974b53935d1edc7fd64eb21e047a839171b9190a45050565b60006107e6836001600160a01b038416610fae565b600054610100900460ff16610d805760405162461bcd60e51b815260040161052c906113f4565b6065805460ff19169055565b6000826000018281548110610da357610da3611386565b9060005260206000200154905092915050565b606081600001805480602002602001604051908101604052809291908181526020018280548015610e0657602002820191906000526020600020905b815481526020019060010190808311610df2575b50505050509050919050565b60606000610e21836002611367565b610e2c90600261150b565b67ffffffffffffffff811115610e4457610e44611178565b6040519080825280601f01601f191660200182016040528015610e6e576020820181803683370190505b509050600360fc1b81600081518110610e8957610e89611386565b60200101906001600160f81b031916908160001a905350600f60fb1b81600181518110610eb857610eb8611386565b60200101906001600160f81b031916908160001a9053506000610edc846002611367565b610ee790600161150b565b90505b6001811115610f5f576f181899199a1a9b1b9c1cb0b131b232b360811b85600f1660108110610f1b57610f1b611386565b1a60f81b828281518110610f3157610f31611386565b60200101906001600160f81b031916908160001a90535060049490941c93610f588161151e565b9050610eea565b5083156107e65760405162461bcd60e51b815260206004820181905260248201527f537472696e67733a20686578206c656e67746820696e73756666696369656e74604482015260640161052c565b60008181526001830160205260408120548015611097576000610fd2600183611535565b8554909150600090610fe690600190611535565b905081811461104b57600086600001828154811061100657611006611386565b906000526020600020015490508087600001848154811061102957611029611386565b6000918252602080832090910192909255918252600188019052604090208390555b855486908061105c5761105c611548565b60019003818190600052602060002001600090559055856001016000868152602001908152602001600020600090556001935050505061046b565b600091505061046b565b6000602082840312156110b357600080fd5b81356001600160e01b0319811681146107e657600080fd5b6001600160a01b03811681146107cb57600080fd5b80356110eb816110cb565b919050565b60006020828403121561110257600080fd5b81356107e6816110cb565b60006020828403121561111f57600080fd5b5035919050565b6000806040838503121561113957600080fd5b82359150602083013561114b816110cb565b809150509250929050565b6000806040838503121561116957600080fd5b50508035926020909101359150565b634e487b7160e01b600052604160045260246000fd5b600060208083850312156111a157600080fd5b823567ffffffffffffffff808211156111b957600080fd5b818501915085601f8301126111cd57600080fd5b8135818111156111df576111df611178565b8060051b604051601f19603f8301168101818110858211171561120457611204611178565b60405291825284820192508381018501918883111561122257600080fd5b938501935b8285101561124757611238856110e0565b84529385019392850192611227565b98975050505050505050565b6020808252825182820181905260009190848201906040850190845b818110156112945783516001600160a01b03168352928401929184019160010161126f565b50909695505050505050565b634e487b7160e01b600052601160045260246000fd5b6000826112d357634e487b7160e01b600052601260045260246000fd5b500490565b6020808252602c908201527f426f62614661756365743a3a496e73756666696369656e74207265736572766f60408201526b69722072656d61696e696e6760a01b606082015260800190565b60208082526023908201527f426f62614661756365743a3a4164647265737320616c726561647920647269706040820152621c195960ea1b606082015260800190565b6000816000190483118215151615611381576113816112a0565b500290565b634e487b7160e01b600052603260045260246000fd5b6000600182016113ae576113ae6112a0565b5060010190565b815160009082906020808601845b838110156113e85781516001600160a01b0316855293820193908201906001016113c3565b50929695505050505050565b6020808252602b908201527f496e697469616c697a61626c653a20636f6e7472616374206973206e6f74206960408201526a6e697469616c697a696e6760a81b606082015260800190565b60005b8381101561145a578181015183820152602001611442565b50506000910152565b7f416363657373436f6e74726f6c3a206163636f756e742000000000000000000081526000835161149b81601785016020880161143f565b7001034b99036b4b9b9b4b733903937b6329607d1b60179184019182015283516114cc81602884016020880161143f565b01602801949350505050565b60208152600082518060208401526114f781604085016020870161143f565b601f01601f19169190910160400192915050565b8082018082111561046b5761046b6112a0565b60008161152d5761152d6112a0565b506000190190565b8181038181111561046b5761046b6112a0565b634e487b7160e01b600052603160045260246000fdfea49807205ce4d355092ef5a8a18f56e8913cf4a201fbe287825b095693c21775a2646970667358221220fed22093ae008b78bf103cad81babff32b7cc93aba5300467035d314d1b6746364736f6c63430008100033",
  "linkReferences": {},
  "deployedLinkReferences": {}
}