{
  "_format": "hh-sol-artifact-1",
  "contractName": "EvoL2",
  "sourceName": "contracts/ERC721/Evo/EvoL2.sol",
  "abi": [
    {
      "inputs": [],
      "stateMutability": "nonpayable",
      "type": "constructor"
    },
    {
      "anonymous": false,
      "inputs": [
        {
          "indexed": true,
          "internalType": "address",
          "name": "owner",
          "type": "address"
        },
        {
          "indexed": true,
          "internalType": "address",
          "name": "approved",
          "type": "address"
        },
        {
          "indexed": true,
          "internalType": "uint256",
          "name": "tokenId",
          "type": "uint256"
        }
      ],
      "name": "Approval",
      "type": "event"
    },
    {
      "anonymous": false,
      "inputs": [
        {
          "indexed": true,
          "internalType": "address",
          "name": "owner",
          "type": "address"
        },
        {
          "indexed": true,
          "internalType": "address",
          "name": "operator",
          "type": "address"
        },
        {
          "indexed": false,
          "internalType": "bool",
          "name": "approved",
          "type": "bool"
        }
      ],
      "name": "ApprovalForAll",
      "type": "event"
    },
    {
      "anonymous": false,
      "inputs": [
        {
          "indexed": true,
          "internalType": "uint256",
          "name": "tokenId",
          "type": "uint256"
        },
        {
          "indexed": false,
          "internalType": "uint256",
          "name": "attributeId",
          "type": "uint256"
        },
        {
          "indexed": false,
          "internalType": "string",
          "name": "value",
          "type": "string"
        }
      ],
      "name": "EvoAttributeStringUpdated",
      "type": "event"
    },
    {
      "anonymous": false,
      "inputs": [
        {
          "indexed": true,
          "internalType": "uint256",
          "name": "tokenId",
          "type": "uint256"
        },
        {
          "indexed": false,
          "internalType": "uint256[]",
          "name": "attributeIds",
          "type": "uint256[]"
        },
        {
          "indexed": false,
          "internalType": "string[]",
          "name": "value",
          "type": "string[]"
        }
      ],
      "name": "EvoAttributeStringsUpdated",
      "type": "event"
    },
    {
      "anonymous": false,
      "inputs": [
        {
          "indexed": true,
          "internalType": "uint256",
          "name": "tokenId",
          "type": "uint256"
        },
        {
          "indexed": false,
          "internalType": "uint256",
          "name": "attributeId",
          "type": "uint256"
        },
        {
          "indexed": false,
          "internalType": "uint256",
          "name": "value",
          "type": "uint256"
        }
      ],
      "name": "EvoAttributeUpdated",
      "type": "event"
    },
    {
      "anonymous": false,
      "inputs": [
        {
          "indexed": true,
          "internalType": "uint256",
          "name": "tokenId",
          "type": "uint256"
        },
        {
          "indexed": false,
          "internalType": "uint256[]",
          "name": "attributeId",
          "type": "uint256[]"
        },
        {
          "indexed": false,
          "internalType": "uint256[]",
          "name": "value",
          "type": "uint256[]"
        }
      ],
      "name": "EvoAttributesUpdated",
      "type": "event"
    },
    {
      "anonymous": false,
      "inputs": [
        {
          "indexed": false,
          "internalType": "uint8",
          "name": "version",
          "type": "uint8"
        }
      ],
      "name": "Initialized",
      "type": "event"
    },
    {
      "anonymous": false,
      "inputs": [
        {
          "indexed": false,
          "internalType": "address",
          "name": "account",
          "type": "address"
        }
      ],
      "name": "Paused",
      "type": "event"
    },
    {
      "anonymous": false,
      "inputs": [
        {
          "indexed": true,
          "internalType": "bytes32",
          "name": "role",
          "type": "bytes32"
        },
        {
          "indexed": true,
          "internalType": "bytes32",
          "name": "previousAdminRole",
          "type": "bytes32"
        },
        {
          "indexed": true,
          "internalType": "bytes32",
          "name": "newAdminRole",
          "type": "bytes32"
        }
      ],
      "name": "RoleAdminChanged",
      "type": "event"
    },
    {
      "anonymous": false,
      "inputs": [
        {
          "indexed": true,
          "internalType": "bytes32",
          "name": "role",
          "type": "bytes32"
        },
        {
          "indexed": true,
          "internalType": "address",
          "name": "account",
          "type": "address"
        },
        {
          "indexed": true,
          "internalType": "address",
          "name": "sender",
          "type": "address"
        }
      ],
      "name": "RoleGranted",
      "type": "event"
    },
    {
      "anonymous": false,
      "inputs": [
        {
          "indexed": true,
          "internalType": "bytes32",
          "name": "role",
          "type": "bytes32"
        },
        {
          "indexed": true,
          "internalType": "address",
          "name": "account",
          "type": "address"
        },
        {
          "indexed": true,
          "internalType": "address",
          "name": "sender",
          "type": "address"
        }
      ],
      "name": "RoleRevoked",
      "type": "event"
    },
    {
      "anonymous": false,
      "inputs": [
        {
          "indexed": true,
          "internalType": "address",
          "name": "from",
          "type": "address"
        },
        {
          "indexed": true,
          "internalType": "address",
          "name": "to",
          "type": "address"
        },
        {
          "indexed": true,
          "internalType": "uint256",
          "name": "tokenId",
          "type": "uint256"
        }
      ],
      "name": "Transfer",
      "type": "event"
    },
    {
      "anonymous": false,
      "inputs": [
        {
          "indexed": false,
          "internalType": "address",
          "name": "account",
          "type": "address"
        }
      ],
      "name": "Unpaused",
      "type": "event"
    },
    {
      "inputs": [],
      "name": "ADMIN_ROLE",
      "outputs": [
        {
          "internalType": "bytes32",
          "name": "",
          "type": "bytes32"
        }
      ],
      "stateMutability": "view",
      "type": "function"
    },
    {
      "inputs": [],
      "name": "BRIDGE_ROLE",
      "outputs": [
        {
          "internalType": "bytes32",
          "name": "",
          "type": "bytes32"
        }
      ],
      "stateMutability": "view",
      "type": "function"
    },
    {
      "inputs": [],
      "name": "CONTRACT_ROLE",
      "outputs": [
        {
          "internalType": "bytes32",
          "name": "",
          "type": "bytes32"
        }
      ],
      "stateMutability": "view",
      "type": "function"
    },
    {
      "inputs": [],
      "name": "DEFAULT_ADMIN_ROLE",
      "outputs": [
        {
          "internalType": "bytes32",
          "name": "",
          "type": "bytes32"
        }
      ],
      "stateMutability": "view",
      "type": "function"
    },
    {
      "inputs": [],
      "name": "MINTER_ROLE",
      "outputs": [
        {
          "internalType": "bytes32",
          "name": "",
          "type": "bytes32"
        }
      ],
      "stateMutability": "view",
      "type": "function"
    },
    {
      "inputs": [
        {
          "internalType": "address",
          "name": "_address",
          "type": "address"
        }
      ],
      "name": "addBlacklist",
      "outputs": [],
      "stateMutability": "nonpayable",
      "type": "function"
    },
    {
      "inputs": [],
      "name": "animationBaseURI",
      "outputs": [
        {
          "internalType": "string",
          "name": "",
          "type": "string"
        }
      ],
      "stateMutability": "view",
      "type": "function"
    },
    {
      "inputs": [
        {
          "internalType": "address",
          "name": "to",
          "type": "address"
        },
        {
          "internalType": "uint256",
          "name": "tokenId",
          "type": "uint256"
        }
      ],
      "name": "approve",
      "outputs": [],
      "stateMutability": "nonpayable",
      "type": "function"
    },
    {
      "inputs": [
        {
          "internalType": "address",
          "name": "owner",
          "type": "address"
        }
      ],
      "name": "balanceOf",
      "outputs": [
        {
          "internalType": "uint256",
          "name": "",
          "type": "uint256"
        }
      ],
      "stateMutability": "view",
      "type": "function"
    },
    {
      "inputs": [
        {
          "internalType": "uint256",
          "name": "tokenId",
          "type": "uint256"
        },
        {
          "internalType": "uint256[]",
          "name": "attributeIds",
          "type": "uint256[]"
        },
        {
          "internalType": "uint256[]",
          "name": "values",
          "type": "uint256[]"
        }
      ],
      "name": "batchAddToAttribute",
      "outputs": [],
      "stateMutability": "nonpayable",
      "type": "function"
    },
    {
      "inputs": [
        {
          "internalType": "address",
          "name": "_address",
          "type": "address"
        },
        {
          "components": [
            {
              "internalType": "uint256",
              "name": "tokenId",
              "type": "uint256"
            },
            {
              "internalType": "uint256",
              "name": "species",
              "type": "uint256"
            },
            {
              "internalType": "uint256",
              "name": "generation",
              "type": "uint256"
            },
            {
              "internalType": "uint256",
              "name": "experience",
              "type": "uint256"
            },
            {
              "components": [
                {
                  "internalType": "uint256",
                  "name": "gender",
                  "type": "uint256"
                },
                {
                  "internalType": "uint256",
                  "name": "rarity",
                  "type": "uint256"
                },
                {
                  "internalType": "uint256",
                  "name": "primaryType",
                  "type": "uint256"
                },
                {
                  "internalType": "uint256",
                  "name": "secondaryType",
                  "type": "uint256"
                },
                {
                  "internalType": "uint256",
                  "name": "nature",
                  "type": "uint256"
                },
                {
                  "internalType": "uint256",
                  "name": "size",
                  "type": "uint256"
                }
              ],
              "internalType": "struct IEvoStructsUpgradeable.Stats",
              "name": "stats",
              "type": "tuple"
            },
            {
              "components": [
                {
                  "internalType": "uint256",
                  "name": "health",
                  "type": "uint256"
                },
                {
                  "internalType": "uint256",
                  "name": "attack",
                  "type": "uint256"
                },
                {
                  "internalType": "uint256",
                  "name": "defense",
                  "type": "uint256"
                },
                {
                  "internalType": "uint256",
                  "name": "special",
                  "type": "uint256"
                },
                {
                  "internalType": "uint256",
                  "name": "resistance",
                  "type": "uint256"
                },
                {
                  "internalType": "uint256",
                  "name": "speed",
                  "type": "uint256"
                }
              ],
              "internalType": "struct IEvoStructsUpgradeable.BattleStats",
              "name": "battle",
              "type": "tuple"
            },
            {
              "components": [
                {
                  "internalType": "uint256",
                  "name": "total",
                  "type": "uint256"
                },
                {
                  "internalType": "uint256",
                  "name": "remaining",
                  "type": "uint256"
                }
              ],
              "internalType": "struct IEvoStructsUpgradeable.Summons",
              "name": "summons",
              "type": "tuple"
            },
            {
              "components": [
                {
                  "internalType": "uint256",
                  "name": "move0",
                  "type": "uint256"
                },
                {
                  "internalType": "uint256",
                  "name": "move1",
                  "type": "uint256"
                },
                {
                  "internalType": "uint256",
                  "name": "move2",
                  "type": "uint256"
                },
                {
                  "internalType": "uint256",
                  "name": "move3",
                  "type": "uint256"
                }
              ],
              "internalType": "struct IEvoStructsUpgradeable.Moves",
              "name": "moves",
              "type": "tuple"
            }
          ],
          "internalType": "struct IEvoStructsUpgradeable.Evo[]",
          "name": "evos",
          "type": "tuple[]"
        }
      ],
      "name": "batchMint",
      "outputs": [],
      "stateMutability": "nonpayable",
      "type": "function"
    },
    {
      "inputs": [
        {
          "internalType": "uint256",
          "name": "tokenId",
          "type": "uint256"
        },
        {
          "internalType": "uint256[]",
          "name": "attributeIds",
          "type": "uint256[]"
        },
        {
          "internalType": "uint256[]",
          "name": "values",
          "type": "uint256[]"
        }
      ],
      "name": "batchSetAttribute",
      "outputs": [],
      "stateMutability": "nonpayable",
      "type": "function"
    },
    {
      "inputs": [
        {
          "internalType": "uint256",
          "name": "attributeId",
          "type": "uint256"
        },
        {
          "internalType": "uint256[]",
          "name": "indices",
          "type": "uint256[]"
        },
        {
          "internalType": "string[]",
          "name": "values",
          "type": "string[]"
        }
      ],
      "name": "batchSetAttributeStrings",
      "outputs": [],
      "stateMutability": "nonpayable",
      "type": "function"
    },
    {
      "inputs": [
        {
          "internalType": "uint256[]",
          "name": "tokenIds",
          "type": "uint256[]"
        }
      ],
      "name": "batchTokenURI",
      "outputs": [
        {
          "internalType": "string[]",
          "name": "",
          "type": "string[]"
        }
      ],
      "stateMutability": "view",
      "type": "function"
    },
    {
      "inputs": [
        {
          "internalType": "uint256",
          "name": "tokenId",
          "type": "uint256"
        }
      ],
      "name": "bridgeExtraData",
      "outputs": [
        {
          "internalType": "bytes",
          "name": "",
          "type": "bytes"
        }
      ],
      "stateMutability": "view",
      "type": "function"
    },
    {
      "inputs": [
        {
          "internalType": "uint256",
          "name": "tokenId",
          "type": "uint256"
        }
      ],
      "name": "burn",
      "outputs": [],
      "stateMutability": "nonpayable",
      "type": "function"
    },
    {
      "inputs": [],
      "name": "burnedIds",
      "outputs": [
        {
          "internalType": "uint256[]",
          "name": "",
          "type": "uint256[]"
        }
      ],
      "stateMutability": "view",
      "type": "function"
    },
    {
      "inputs": [
        {
          "internalType": "uint256",
          "name": "tokenId",
          "type": "uint256"
        }
      ],
      "name": "getApproved",
      "outputs": [
        {
          "internalType": "address",
          "name": "",
          "type": "address"
        }
      ],
      "stateMutability": "view",
      "type": "function"
    },
    {
      "inputs": [
        {
          "internalType": "uint256",
          "name": "tokenId",
          "type": "uint256"
        }
      ],
      "name": "getRemainingSummons",
      "outputs": [
        {
          "internalType": "uint256",
          "name": "",
          "type": "uint256"
        }
      ],
      "stateMutability": "view",
      "type": "function"
    },
    {
      "inputs": [
        {
          "internalType": "bytes32",
          "name": "role",
          "type": "bytes32"
        }
      ],
      "name": "getRoleAdmin",
      "outputs": [
        {
          "internalType": "bytes32",
          "name": "",
          "type": "bytes32"
        }
      ],
      "stateMutability": "view",
      "type": "function"
    },
    {
      "inputs": [
        {
          "internalType": "bytes32",
          "name": "role",
          "type": "bytes32"
        },
        {
          "internalType": "uint256",
          "name": "index",
          "type": "uint256"
        }
      ],
      "name": "getRoleMember",
      "outputs": [
        {
          "internalType": "address",
          "name": "",
          "type": "address"
        }
      ],
      "stateMutability": "view",
      "type": "function"
    },
    {
      "inputs": [
        {
          "internalType": "bytes32",
          "name": "role",
          "type": "bytes32"
        }
      ],
      "name": "getRoleMemberCount",
      "outputs": [
        {
          "internalType": "uint256",
          "name": "",
          "type": "uint256"
        }
      ],
      "stateMutability": "view",
      "type": "function"
    },
    {
      "inputs": [
        {
          "internalType": "bytes32",
          "name": "role",
          "type": "bytes32"
        },
        {
          "internalType": "address",
          "name": "account",
          "type": "address"
        }
      ],
      "name": "grantRole",
      "outputs": [],
      "stateMutability": "nonpayable",
      "type": "function"
    },
    {
      "inputs": [
        {
          "internalType": "bytes32",
          "name": "role",
          "type": "bytes32"
        },
        {
          "internalType": "address",
          "name": "account",
          "type": "address"
        }
      ],
      "name": "hasRole",
      "outputs": [
        {
          "internalType": "bool",
          "name": "",
          "type": "bool"
        }
      ],
      "stateMutability": "view",
      "type": "function"
    },
    {
      "inputs": [],
      "name": "imageBaseURI",
      "outputs": [
        {
          "internalType": "string",
          "name": "",
          "type": "string"
        }
      ],
      "stateMutability": "view",
      "type": "function"
    },
    {
      "inputs": [],
      "name": "initialize",
      "outputs": [],
      "stateMutability": "nonpayable",
      "type": "function"
    },
    {
      "inputs": [
        {
          "internalType": "address",
          "name": "owner",
          "type": "address"
        },
        {
          "internalType": "address",
          "name": "operator",
          "type": "address"
        }
      ],
      "name": "isApprovedForAll",
      "outputs": [
        {
          "internalType": "bool",
          "name": "",
          "type": "bool"
        }
      ],
      "stateMutability": "view",
      "type": "function"
    },
    {
      "inputs": [],
      "name": "l1Contract",
      "outputs": [
        {
          "internalType": "address",
          "name": "",
          "type": "address"
        }
      ],
      "stateMutability": "view",
      "type": "function"
    },
    {
      "inputs": [
        {
          "internalType": "address",
          "name": "_address",
          "type": "address"
        },
        {
          "components": [
            {
              "internalType": "uint256",
              "name": "tokenId",
              "type": "uint256"
            },
            {
              "internalType": "uint256",
              "name": "species",
              "type": "uint256"
            },
            {
              "internalType": "uint256",
              "name": "generation",
              "type": "uint256"
            },
            {
              "internalType": "uint256",
              "name": "experience",
              "type": "uint256"
            },
            {
              "components": [
                {
                  "internalType": "uint256",
                  "name": "gender",
                  "type": "uint256"
                },
                {
                  "internalType": "uint256",
                  "name": "rarity",
                  "type": "uint256"
                },
                {
                  "internalType": "uint256",
                  "name": "primaryType",
                  "type": "uint256"
                },
                {
                  "internalType": "uint256",
                  "name": "secondaryType",
                  "type": "uint256"
                },
                {
                  "internalType": "uint256",
                  "name": "nature",
                  "type": "uint256"
                },
                {
                  "internalType": "uint256",
                  "name": "size",
                  "type": "uint256"
                }
              ],
              "internalType": "struct IEvoStructsUpgradeable.Stats",
              "name": "stats",
              "type": "tuple"
            },
            {
              "components": [
                {
                  "internalType": "uint256",
                  "name": "health",
                  "type": "uint256"
                },
                {
                  "internalType": "uint256",
                  "name": "attack",
                  "type": "uint256"
                },
                {
                  "internalType": "uint256",
                  "name": "defense",
                  "type": "uint256"
                },
                {
                  "internalType": "uint256",
                  "name": "special",
                  "type": "uint256"
                },
                {
                  "internalType": "uint256",
                  "name": "resistance",
                  "type": "uint256"
                },
                {
                  "internalType": "uint256",
                  "name": "speed",
                  "type": "uint256"
                }
              ],
              "internalType": "struct IEvoStructsUpgradeable.BattleStats",
              "name": "battle",
              "type": "tuple"
            },
            {
              "components": [
                {
                  "internalType": "uint256",
                  "name": "total",
                  "type": "uint256"
                },
                {
                  "internalType": "uint256",
                  "name": "remaining",
                  "type": "uint256"
                }
              ],
              "internalType": "struct IEvoStructsUpgradeable.Summons",
              "name": "summons",
              "type": "tuple"
            },
            {
              "components": [
                {
                  "internalType": "uint256",
                  "name": "move0",
                  "type": "uint256"
                },
                {
                  "internalType": "uint256",
                  "name": "move1",
                  "type": "uint256"
                },
                {
                  "internalType": "uint256",
                  "name": "move2",
                  "type": "uint256"
                },
                {
                  "internalType": "uint256",
                  "name": "move3",
                  "type": "uint256"
                }
              ],
              "internalType": "struct IEvoStructsUpgradeable.Moves",
              "name": "moves",
              "type": "tuple"
            }
          ],
          "internalType": "struct IEvoStructsUpgradeable.Evo",
          "name": "evo",
          "type": "tuple"
        }
      ],
      "name": "mint",
      "outputs": [],
      "stateMutability": "nonpayable",
      "type": "function"
    },
    {
      "inputs": [
        {
          "internalType": "address",
          "name": "to",
          "type": "address"
        },
        {
          "internalType": "uint256",
          "name": "tokenId",
          "type": "uint256"
        },
        {
          "internalType": "bytes",
          "name": "_data",
          "type": "bytes"
        }
      ],
      "name": "mint",
      "outputs": [],
      "stateMutability": "nonpayable",
      "type": "function"
    },
    {
      "inputs": [],
      "name": "name",
      "outputs": [
        {
          "internalType": "string",
          "name": "",
          "type": "string"
        }
      ],
      "stateMutability": "view",
      "type": "function"
    },
    {
      "inputs": [
        {
          "internalType": "uint256",
          "name": "tokenId",
          "type": "uint256"
        }
      ],
      "name": "ownerOf",
      "outputs": [
        {
          "internalType": "address",
          "name": "",
          "type": "address"
        }
      ],
      "stateMutability": "view",
      "type": "function"
    },
    {
      "inputs": [],
      "name": "pause",
      "outputs": [],
      "stateMutability": "nonpayable",
      "type": "function"
    },
    {
      "inputs": [],
      "name": "paused",
      "outputs": [
        {
          "internalType": "bool",
          "name": "",
          "type": "bool"
        }
      ],
      "stateMutability": "view",
      "type": "function"
    },
    {
      "inputs": [
        {
          "internalType": "address",
          "name": "_address",
          "type": "address"
        }
      ],
      "name": "removeBlacklist",
      "outputs": [],
      "stateMutability": "nonpayable",
      "type": "function"
    },
    {
      "inputs": [
        {
          "internalType": "bytes32",
          "name": "role",
          "type": "bytes32"
        },
        {
          "internalType": "address",
          "name": "account",
          "type": "address"
        }
      ],
      "name": "renounceRole",
      "outputs": [],
      "stateMutability": "nonpayable",
      "type": "function"
    },
    {
      "inputs": [
        {
          "internalType": "bytes32",
          "name": "role",
          "type": "bytes32"
        },
        {
          "internalType": "address",
          "name": "account",
          "type": "address"
        }
      ],
      "name": "revokeRole",
      "outputs": [],
      "stateMutability": "nonpayable",
      "type": "function"
    },
    {
      "inputs": [
        {
          "internalType": "address",
          "name": "from",
          "type": "address"
        },
        {
          "internalType": "address",
          "name": "to",
          "type": "address"
        },
        {
          "internalType": "uint256",
          "name": "tokenId",
          "type": "uint256"
        }
      ],
      "name": "safeTransferFrom",
      "outputs": [],
      "stateMutability": "nonpayable",
      "type": "function"
    },
    {
      "inputs": [
        {
          "internalType": "address",
          "name": "from",
          "type": "address"
        },
        {
          "internalType": "address",
          "name": "to",
          "type": "address"
        },
        {
          "internalType": "uint256",
          "name": "tokenId",
          "type": "uint256"
        },
        {
          "internalType": "bytes",
          "name": "data",
          "type": "bytes"
        }
      ],
      "name": "safeTransferFrom",
      "outputs": [],
      "stateMutability": "nonpayable",
      "type": "function"
    },
    {
      "inputs": [
        {
          "internalType": "string",
          "name": "_animationBaseURI",
          "type": "string"
        }
      ],
      "name": "setAnimationBaseURI",
      "outputs": [],
      "stateMutability": "nonpayable",
      "type": "function"
    },
    {
      "inputs": [
        {
          "internalType": "address",
          "name": "operator",
          "type": "address"
        },
        {
          "internalType": "bool",
          "name": "approved",
          "type": "bool"
        }
      ],
      "name": "setApprovalForAll",
      "outputs": [],
      "stateMutability": "nonpayable",
      "type": "function"
    },
    {
      "inputs": [
        {
          "internalType": "uint256",
          "name": "tokenId",
          "type": "uint256"
        },
        {
          "internalType": "uint256",
          "name": "attributeId",
          "type": "uint256"
        },
        {
          "internalType": "uint256",
          "name": "value",
          "type": "uint256"
        }
      ],
      "name": "setAttribute",
      "outputs": [],
      "stateMutability": "nonpayable",
      "type": "function"
    },
    {
      "inputs": [
        {
          "internalType": "uint256",
          "name": "attributeId",
          "type": "uint256"
        },
        {
          "internalType": "uint256",
          "name": "index",
          "type": "uint256"
        },
        {
          "internalType": "string",
          "name": "value",
          "type": "string"
        }
      ],
      "name": "setAttributeString",
      "outputs": [],
      "stateMutability": "nonpayable",
      "type": "function"
    },
    {
      "inputs": [
        {
          "internalType": "string",
          "name": "_imageBaseURI",
          "type": "string"
        }
      ],
      "name": "setImageBaseURI",
      "outputs": [],
      "stateMutability": "nonpayable",
      "type": "function"
    },
    {
      "inputs": [
        {
          "internalType": "bytes4",
          "name": "interfaceId",
          "type": "bytes4"
        }
      ],
      "name": "supportsInterface",
      "outputs": [
        {
          "internalType": "bool",
          "name": "",
          "type": "bool"
        }
      ],
      "stateMutability": "view",
      "type": "function"
    },
    {
      "inputs": [],
      "name": "symbol",
      "outputs": [
        {
          "internalType": "string",
          "name": "",
          "type": "string"
        }
      ],
      "stateMutability": "view",
      "type": "function"
    },
    {
      "inputs": [
        {
          "internalType": "uint256",
          "name": "index",
          "type": "uint256"
        }
      ],
      "name": "tokenByIndex",
      "outputs": [
        {
          "internalType": "uint256",
          "name": "",
          "type": "uint256"
        }
      ],
      "stateMutability": "view",
      "type": "function"
    },
    {
      "inputs": [
        {
          "internalType": "address",
          "name": "owner",
          "type": "address"
        },
        {
          "internalType": "uint256",
          "name": "index",
          "type": "uint256"
        }
      ],
      "name": "tokenOfOwnerByIndex",
      "outputs": [
        {
          "internalType": "uint256",
          "name": "",
          "type": "uint256"
        }
      ],
      "stateMutability": "view",
      "type": "function"
    },
    {
      "inputs": [
        {
          "internalType": "uint256",
          "name": "tokenId",
          "type": "uint256"
        }
      ],
      "name": "tokenURI",
      "outputs": [
        {
          "internalType": "string",
          "name": "",
          "type": "string"
        }
      ],
      "stateMutability": "view",
      "type": "function"
    },
    {
      "inputs": [
        {
          "internalType": "address",
          "name": "owner",
          "type": "address"
        }
      ],
      "name": "tokensOfOwner",
      "outputs": [
        {
          "internalType": "uint256[]",
          "name": "",
          "type": "uint256[]"
        }
      ],
      "stateMutability": "view",
      "type": "function"
    },
    {
      "inputs": [],
      "name": "totalBurned",
      "outputs": [
        {
          "internalType": "uint256",
          "name": "",
          "type": "uint256"
        }
      ],
      "stateMutability": "view",
      "type": "function"
    },
    {
      "inputs": [],
      "name": "totalSupply",
      "outputs": [
        {
          "internalType": "uint256",
          "name": "",
          "type": "uint256"
        }
      ],
      "stateMutability": "view",
      "type": "function"
    },
    {
      "inputs": [
        {
          "internalType": "address",
          "name": "from",
          "type": "address"
        },
        {
          "internalType": "address",
          "name": "to",
          "type": "address"
        },
        {
          "internalType": "uint256",
          "name": "tokenId",
          "type": "uint256"
        }
      ],
      "name": "transferFrom",
      "outputs": [],
      "stateMutability": "nonpayable",
      "type": "function"
    },
    {
      "inputs": [],
      "name": "unpause",
      "outputs": [],
      "stateMutability": "nonpayable",
      "type": "function"
    }
  ],
  "bytecode": "0x60806040523480156200001157600080fd5b506200001c62000022565b620000e4565b600054610100900460ff16156200008f5760405162461bcd60e51b815260206004820152602760248201527f496e697469616c697a61626c653a20636f6e747261637420697320696e697469604482015266616c697a696e6760c81b606482015260840160405180910390fd5b60005460ff9081161015620000e2576000805460ff191660ff9081179091556040519081527f7f26b83ff96e1f2b6a682f133852f6798a09c465da95921460cefb38474024989060200160405180910390a15b565b614e3980620000f46000396000f3fe608060405234801561001057600080fd5b50600436106103425760003560e01c80637d7a6d13116101b8578063a217fddf11610104578063cfa4e54f116100a2578063d89135cd1161007c578063d89135cd14610705578063e985e9c51461070d578063eb91e65114610749578063fd5eea4e1461075c57600080fd5b8063cfa4e54f146106d5578063d5391393146106dd578063d547741f146106f257600080fd5b8063b5bfddea116100de578063b5bfddea14610687578063b88d4fde1461069c578063c87b56dd146106af578063ca15c873146106c257600080fd5b8063a217fddf14610659578063a22cb46514610661578063a2c6e8881461067457600080fd5b80639010d07c1161017157806395d89b411161014b57806395d89b41146106185780639ab89ad2146106205780639b9284f9146106335780639cfe42da1461064657600080fd5b80639010d07c146105df57806391d14854146105f257806394d008ef1461060557600080fd5b80637d7a6d13146105765780638129fc1c146105895780638456cb59146105915780638462151c14610599578063853d6071146105b957806387b39690146105cc57600080fd5b806342842e0e11610292578063663ab59d1161023057806370a082311161020a57806370a0823114610533578063737385a21461054657806375b238fc14610559578063776458391461056e57600080fd5b8063663ab59d146104ec5780636cfa24cc146105005780636d94f13a1461051357600080fd5b80635c975abb1161026c5780635c975abb146104b3578063633f43f7146104be5780636352211e146104c657806364cb59d6146104d957600080fd5b806342842e0e1461047a57806342966c681461048d5780634f6ccce7146104a057600080fd5b806323b872dd116102ff5780632f745c59116102d95780632f745c591461043957806336568abe1461044c5780633b7148951461045f5780633f4ba83a1461047257600080fd5b806323b872dd146103ef578063248a9ca3146104025780632f2ff15d1461042657600080fd5b806301ffc9a71461034757806303fe46ab1461036f57806306fdde0314610392578063081812fc146103a7578063095ea7b3146103d257806318160ddd146103e7575b600080fd5b61035a610355366004613a98565b61076f565b60405190151581526020015b60405180910390f35b610384600080516020614de483398151915281565b604051908152602001610366565b61039a610780565b6040516103669190613b0d565b6103ba6103b5366004613b20565b610812565b6040516001600160a01b039091168152602001610366565b6103e56103e0366004613b55565b610839565b005b609954610384565b6103e56103fd366004613b7f565b61087b565b610384610410366004613b20565b600090815261012d602052604090206001015490565b6103e5610434366004613bbb565b6108ac565b610384610447366004613b55565b6108d2565b6103e561045a366004613bbb565b610968565b61038461046d366004613b20565b6109e6565b6103e5610a54565b6103e5610488366004613b7f565b610a77565b6103e561049b366004613b20565b610a92565b6103846104ae366004613b20565b610aee565b60fb5460ff1661035a565b61039a610b81565b6103ba6104d4366004613b20565b610c10565b6103e56104e7366004613d4a565b610c70565b6102bc546103ba906001600160a01b031681565b6103e561050e366004613e25565b610dff565b610526610521366004613e59565b610e20565b6040516103669190613e8d565b610384610541366004613eef565b610ed8565b6103e5610554366004614066565b610f5e565b610384600080516020614dc483398151915281565b61039a610f98565b6103e5610584366004613d4a565b610fa6565b6103e5611078565b6103e56112b2565b6105ac6105a7366004613eef565b6112d2565b60405161036691906140cd565b6103e56105c73660046140e0565b611373565b6103e56105da366004614125565b6113ad565b6103ba6105ed3660046141d2565b611458565b61035a610600366004613bbb565b611478565b6103e56106133660046141f4565b6114a4565b61039a6114f0565b6103e561062e366004614234565b6114ff565b61039a610641366004613b20565b611594565b6103e5610654366004613eef565b6115cb565b610384600081565b6103e561066f366004614314565b6115ef565b6103e5610682366004613e25565b611623565b610384600080516020614d6783398151915281565b6103e56106aa366004614350565b611644565b61039a6106bd366004613b20565b611675565b6103846106d0366004613b20565b6117b3565b6105ac6117cb565b610384600080516020614d4783398151915281565b6103e5610700366004613bbb565b6117dd565b610384611803565b61035a61071b3660046143b7565b6001600160a01b039182166000908152606a6020908152604080832093909416825291909152205460ff1690565b6103e5610757366004613eef565b611810565b6103e561076a3660046143e1565b611834565b600061077a8261189f565b92915050565b60606065805461078f9061440d565b80601f01602080910402602001604051908101604052809291908181526020018280546107bb9061440d565b80156108085780601f106107dd57610100808354040283529160200191610808565b820191906000526020600020905b8154815290600101906020018083116107eb57829003601f168201915b5050505050905090565b600061081d826118e3565b506000908152606960205260409020546001600160a01b031690565b8161084661022582611942565b1561086c5760405162461bcd60e51b815260040161086390614442565b60405180910390fd5b6108768383611964565b505050565b6108853382611a75565b6108a15760405162461bcd60e51b81526004016108639061446f565b610876838383611af3565b600082815261012d60205260409020600101546108c881611c9a565b6108768383611ca4565b60006108dd83610ed8565b821061093f5760405162461bcd60e51b815260206004820152602b60248201527f455243373231456e756d657261626c653a206f776e657220696e646578206f7560448201526a74206f6620626f756e647360a81b6064820152608401610863565b506001600160a01b03919091166000908152609760209081526040808320938352929052205490565b6001600160a01b03811633146109d85760405162461bcd60e51b815260206004820152602f60248201527f416363657373436f6e74726f6c3a2063616e206f6e6c792072656e6f756e636560448201526e103937b632b9903337b91039b2b63360891b6064820152608401610863565b6109e28282611cc7565b5050565b600081815261028b602052604081208190610a02906003611cea565b905080610a1357506103e792915050565b600083815261028b60205260408120610a2d906006611cea565b905060058110610a41575060009392505050565b610a4c8160056144d3565b949350505050565b600080516020614dc4833981519152610a6c81611c9a565b610a74611cf6565b50565b61087683838360405180602001604052806000815250611644565b6000610a9f335b83611a75565b80610abd5750610abd600080516020614d6783398151915233611478565b905080610adc5760405162461bcd60e51b81526004016108639061446f565b610ae582611d48565b6109e282611d54565b6000610af960995490565b8210610b5c5760405162461bcd60e51b815260206004820152602c60248201527f455243373231456e756d657261626c653a20676c6f62616c20696e646578206f60448201526b7574206f6620626f756e647360a01b6064820152608401610863565b60998281548110610b6f57610b6f6144ea565b90600052602060002001549050919050565b6102598054610b8f9061440d565b80601f0160208091040260200160405190810160405280929190818152602001828054610bbb9061440d565b8015610c085780601f10610bdd57610100808354040283529160200191610c08565b820191906000526020600020905b815481529060010190602001808311610beb57829003601f168201915b505050505081565b6000818152606760205260408120546001600160a01b03168061077a5760405162461bcd60e51b8152602060048201526018602482015277115490cdcc8c4e881a5b9d985b1a59081d1bdad95b88125160421b6044820152606401610863565b600080516020614de4833981519152610c8881611c9a565b600082516001600160401b03811115610ca357610ca3613be7565b604051908082528060200260200182016040528015610ccc578160200160208202803683370190505b50905060005b8451811015610dbd576000610d1c868381518110610cf257610cf26144ea565b602002602001015161028b60008a8152602001908152602001600020611cea90919063ffffffff16565b90506000858381518110610d3257610d326144ea565b602002602001015182610d459190614500565b9050610d88878481518110610d5c57610d5c6144ea565b60200260200101518261028b60008c8152602001908152602001600020611dfb9092919063ffffffff16565b5080848481518110610d9c57610d9c6144ea565b60200260200101818152505050508080610db590614518565b915050610cd2565b50847f4e6a5c2dd3dc8b445af3dc955aab13f1a33fa126563cd2e35fa638c689e951438583604051610df0929190614533565b60405180910390a25050505050565b600080516020614dc4833981519152610e1781611c9a565b6109e282611e08565b6060600082516001600160401b03811115610e3d57610e3d613be7565b604051908082528060200260200182016040528015610e7057816020015b6060815260200190600190039081610e5b5790505b50905060005b8351811015610ed157610ea1848281518110610e9457610e946144ea565b6020026020010151611675565b828281518110610eb357610eb36144ea565b60200260200101819052508080610ec990614518565b915050610e76565b5092915050565b60006001600160a01b038216610f425760405162461bcd60e51b815260206004820152602960248201527f4552433732313a2061646472657373207a65726f206973206e6f7420612076616044820152683634b21037bbb732b960b91b6064820152608401610863565b506001600160a01b031660009081526068602052604090205490565b600080516020614d47833981519152610f7681611c9a565b610f7f82611e1c565b610f8d83836000015161204c565b815161087690612066565b6102588054610b8f9061440d565b600080516020614de4833981519152610fbe81611c9a565b60005b835181101561103757611024848281518110610fdf57610fdf6144ea565b6020026020010151848381518110610ff957610ff96144ea565b602002602001015161028b6000898152602001908152602001600020611dfb9092919063ffffffff16565b508061102f81614518565b915050610fc1565b50837f4e6a5c2dd3dc8b445af3dc955aab13f1a33fa126563cd2e35fa638c689e95143848460405161106a929190614533565b60405180910390a250505050565b600054610100900460ff16158080156110985750600054600160ff909116105b806110b25750303b1580156110b2575060005460ff166001145b6111155760405162461bcd60e51b815260206004820152602e60248201527f496e697469616c697a61626c653a20636f6e747261637420697320616c72656160448201526d191e481a5b9a5d1a585b1a5e995960921b6064820152608401610863565b6000805460ff191660011790558015611138576000805461ff0019166101001790555b6111786040518060400160405280600381526020016245766f60e81b8152506040518060400160405280600381526020016245766f60e81b815250612072565b6111806120a3565b6111886120d4565b611190612103565b611198612103565b6111a061212a565b6111da6040518060600160405280603d8152602001614d87603d91396040518060600160405280603d8152602001614d87603d9139612159565b6111e261218a565b6111ff73454a0e479ac78e508a95880216c06f50bf3c321c6121b9565b61120a600033611ca4565b611222600080516020614dc483398151915233611ca4565b61123a600080516020614d4783398151915233611ca4565b611252600080516020614de483398151915233611ca4565b61126a600080516020614d6783398151915233611ca4565b8015610a74576000805461ff0019169055604051600181527f7f26b83ff96e1f2b6a682f133852f6798a09c465da95921460cefb38474024989060200160405180910390a150565b600080516020614dc48339815191526112ca81611c9a565b610a74612209565b606060006112df83610ed8565b90506000816001600160401b038111156112fb576112fb613be7565b604051908082528060200260200182016040528015611324578160200160208202803683370190505b50905060005b8281101561136b5761133c85826108d2565b82828151811061134e5761134e6144ea565b60209081029190910101528061136381614518565b91505061132a565b509392505050565b600061137e81611c9a565b600084815261028c60209081526040808320868452825290912083516113a6928501906138f3565b5050505050565b600080516020614d478339815191526113c581611c9a565b60005b8251811015611452576113f38382815181106113e6576113e66144ea565b6020026020010151611e1c565b61141a84848381518110611409576114096144ea565b60200260200101516000015161204c565b61144083828151811061142f5761142f6144ea565b602002602001015160000151612066565b8061144a81614518565b9150506113c8565b50505050565b600082815261015f602052604081206114719083612246565b9392505050565b600091825261012d602090815260408084206001600160a01b0393909316845291905290205460ff1690565b600080516020614d678339815191526114bc81611c9a565b6000828060200190518101906114d2919061462d565b90506114dd81611e1c565b6114e7858561204c565b6113a684612066565b60606066805461078f9061440d565b600061150a81611c9a565b60005b83518110156113a657828181518110611528576115286144ea565b602002602001015161028c60008781526020019081526020016000206000868481518110611558576115586144ea565b6020026020010151815260200190815260200160002090805190602001906115819291906138f3565b508061158c81614518565b91505061150d565b606060006115a183612252565b9050806040516020016115b491906146bc565b604051602081830303815290604052915050919050565b600080516020614dc48339815191526115e381611c9a565b610876610225836124df565b816115fc61022582611942565b156116195760405162461bcd60e51b815260040161086390614442565b61087683836124f4565b600080516020614dc483398151915261163b81611c9a565b6109e2826124ff565b61164d33610a99565b6116695760405162461bcd60e51b81526004016108639061446f565b61145284848484612513565b60606000611684836000612546565b9050600061169360008361255f565b60408051600e8082526101e082019092529192509060009082816020015b6116de60405180608001604052806060815260200160608152602001606081526020016000151581525090565b8152602001906001900390816116b157905050905060005b8281101561177757604051806080016040528061171460008461255f565b81526040805160208181018352600082528301520161173b6117368a85612546565b61260e565b815260200160011515815250828281518110611759576117596144ea565b6020026020010181905250808061176f90614518565b9150506116f6565b506117a986846040518060400160405280600d81526020016c45766f5665727365732045766f60981b8152508461270b565b9695505050505050565b600081815261015f6020526040812061077a90612757565b60606117d8610191612761565b905090565b600082815261012d60205260409020600101546117f981611c9a565b6108768383611cc7565b60006117d8610191612757565b600080516020614dc483398151915261182881611c9a565b6108766102258361276e565b600080516020614de483398151915261184c81611c9a565b600084815261028b60205260409020611866908484611dfb565b50604080518481526020810184905285917f43efe11319dda54ad41283fd13b0cebc5595ac12d761f4f7bfc9d529fa0f9c74910161106a565b600063583e688d60e11b6001600160e01b03198316639b9284f960e01b14806118d457506001600160e01b0319838116908216145b80611471575061147183612783565b6000818152606760205260409020546001600160a01b0316610a745760405162461bcd60e51b8152602060048201526018602482015277115490cdcc8c4e881a5b9d985b1a59081d1bdad95b88125160421b6044820152606401610863565b6001600160a01b03811660009081526001830160205260408120541515611471565b600061196f82610c10565b9050806001600160a01b0316836001600160a01b031614156119dd5760405162461bcd60e51b815260206004820152602160248201527f4552433732313a20617070726f76616c20746f2063757272656e74206f776e656044820152603960f91b6064820152608401610863565b336001600160a01b03821614806119f957506119f9813361071b565b611a6b5760405162461bcd60e51b815260206004820152603e60248201527f4552433732313a20617070726f76652063616c6c6572206973206e6f7420746f60448201527f6b656e206f776e6572206e6f7220617070726f76656420666f7220616c6c00006064820152608401610863565b610876838361278e565b600080611a8183610c10565b9050806001600160a01b0316846001600160a01b03161480611ac857506001600160a01b038082166000908152606a602090815260408083209388168352929052205460ff165b80610a4c5750836001600160a01b0316611ae184610812565b6001600160a01b031614949350505050565b826001600160a01b0316611b0682610c10565b6001600160a01b031614611b6a5760405162461bcd60e51b815260206004820152602560248201527f4552433732313a207472616e736665722066726f6d20696e636f72726563742060448201526437bbb732b960d91b6064820152608401610863565b6001600160a01b038216611bcc5760405162461bcd60e51b8152602060048201526024808201527f4552433732313a207472616e7366657220746f20746865207a65726f206164646044820152637265737360e01b6064820152608401610863565b611bd78383836127fc565b611be260008261278e565b6001600160a01b0383166000908152606860205260408120805460019290611c0b9084906144d3565b90915550506001600160a01b0382166000908152606860205260408120805460019290611c39908490614500565b909155505060008181526067602052604080822080546001600160a01b0319166001600160a01b0386811691821790925591518493918716917fddf252ad1be2c89b69c2b068fc378daa952ba7f163c4a11628f55a4df523b3ef91a4505050565b610a748133612863565b611cae82826128c7565b600082815261015f6020526040902061087690826124df565b611cd1828261294e565b600082815261015f60205260409020610876908261276e565b600061147183836129b6565b611cfe612a26565b60fb805460ff191690557f5db9ee0a495bf2e6ff9c91a7834c1ba4fdd244a5e8aa4e537bd38aeae4b073aa335b6040516001600160a01b03909116815260200160405180910390a1565b6109e261019182612a6f565b6000611d5f82610c10565b9050611d6d816000846127fc565b611d7860008361278e565b6001600160a01b0381166000908152606860205260408120805460019290611da19084906144d3565b909155505060008281526067602052604080822080546001600160a01b0319169055518391906001600160a01b038416907fddf252ad1be2c89b69c2b068fc378daa952ba7f163c4a11628f55a4df523b3ef908390a45050565b6000610a4c848484612a7b565b80516109e2906102589060208401906138f3565b600080516020614d47833981519152611e3481611c9a565b6020808301518351600090815261028b90925260408220611e56929091611dfb565b5060808201516020908101518351600090815261028b9092526040909120611e8091600190611dfb565b506080820151518251600090815261028b60205260409020611ea491600290611dfb565b506040808301518351600090815261028b60205291909120611ec891600390611dfb565b5060808201516040908101518351600090815261028b60205291909120611ef191600490611dfb565b506080820151606001518251600090815261028b60205260409020611f1891600590611dfb565b5060c0820151518251600090815261028b60205260409020611f3c91600690611dfb565b5060608201518251600090815261028b60205260409020611f5f91600790611dfb565b5060808083015101518251600090815261028b60205260409020611f8591600890611dfb565b5060a08201516020908101518351600090815261028b9092526040909120611faf91600990611dfb565b5060a08201516040908101518351600090815261028b60205291909120611fd891600a90611dfb565b5060a0820151606001518251600090815261028b60205260409020611fff91600b90611dfb565b5060a0820151608001518251600090815261028b6020526040902061202691600c90611dfb565b5060a08083015101518251600090815261028b6020526040902061087691600d90611dfb565b6109e2828260405180602001604052806000815250612a98565b6109e261019182612acb565b600054610100900460ff166120995760405162461bcd60e51b8152600401610863906147bf565b6109e28282612ad7565b600054610100900460ff166120ca5760405162461bcd60e51b8152600401610863906147bf565b6120d2612103565b565b600054610100900460ff166120fb5760405162461bcd60e51b8152600401610863906147bf565b6120d2612b25565b600054610100900460ff166120d25760405162461bcd60e51b8152600401610863906147bf565b600054610100900460ff166121515760405162461bcd60e51b8152600401610863906147bf565b6120ca612103565b600054610100900460ff166121805760405162461bcd60e51b8152600401610863906147bf565b6109e28282612b58565b600054610100900460ff166121b15760405162461bcd60e51b8152600401610863906147bf565b6120d26120a3565b600054610100900460ff166121e05760405162461bcd60e51b8152600401610863906147bf565b6121e981612ba8565b6121f1612103565b610a74600080516020614d6783398151915233611ca4565b612211612bf2565b60fb805460ff191660011790557f62e78cea01bee320cd4e420270b5ea74000d11b0c9f74754ebdbfc544b05a258611d2b3390565b60006114718383612c38565b61225a613977565b600080516020614d4783398151915261227281611c9a565b604080516080810182526000808252602080830182905282840182905260608301829052835160c08101855287835261028b9091529281209192909181906122bb906002611cea565b8152600087815261028b602090815260409091209101906122dd906001611cea565b8152600087815261028b602090815260409091209101906122ff906004611cea565b8152600087815261028b60209081526040909120910190612321906005611cea565b8152600087815261028b60209081526040909120910190612343906008611cea565b8152600a6020918201526040805160c08101825260328152600089815261028b84529182209394509092909182019061237d906009611cea565b8152600088815261028b6020908152604090912091019061239f90600a611cea565b8152600088815261028b602090815260409091209101906123c190600b611cea565b8152600088815261028b602090815260409091209101906123e390600c611cea565b8152600088815261028b6020908152604090912091019061240590600d611cea565b9052604080518082018252600089815261028b60205291822092935090918190612430906006611cea565b815260200161243e896109e6565b9052604080516101008101825289815260008a815261028b60209081529281209394509290918201906124719084611cea565b815260008a815261028b60209081526040909120910190612493906003611cea565b815260008a815261028b602090815260409091209101906124b5906007611cea565b81526020810195909552604085019390935250606083015260809091019190915291505b50919050565b6000611471836001600160a01b038416612c62565b6109e2338383612cb1565b80516109e2906102599060208401906138f3565b61251e848484611af3565b61252a84848484612d80565b6114525760405162461bcd60e51b81526004016108639061480a565b600082815261028b602052604081206114719083611cea565b600082815261028c6020908152604080832084845290915290208054606091906125889061440d565b80601f01602080910402602001604051908101604052809291908181526020018280546125b49061440d565b80156126015780601f106125d657610100808354040283529160200191612601565b820191906000526020600020905b8154815290600101906020018083116125e457829003601f168201915b5050505050905092915050565b6060816126325750506040805180820190915260018152600360fc1b602082015290565b8160005b811561265c578061264681614518565b91506126559050600a83614872565b9150612636565b6000816001600160401b0381111561267657612676613be7565b6040519080825280601f01601f1916602001820160405280156126a0576020820181803683370190505b5090505b8415610a4c576126b56001836144d3565b91506126c2600a86614886565b6126cd906030614500565b60f81b8183815181106126e2576126e26144ea565b60200101906001600160f81b031916908160001a905350612704600a86614872565b94506126a4565b6060600061271a868686612e8a565b9050600061272784612f27565b9050818160405160200161273c9291906148b6565b60405160208183030381529060405292505050949350505050565b600061077a825490565b606060006114718361311b565b6000611471836001600160a01b038416613177565b600061077a8261326a565b600081815260696020526040902080546001600160a01b0319166001600160a01b03841690811790915581906127c382610c10565b6001600160a01b03167f8c5be1e5ebec7d5bd14f71427d1e84f3dd0314c0f7b2291e5b200ac8c7c3b92560405160405180910390a45050565b612804612bf2565b8261281161022582611942565b1561282e5760405162461bcd60e51b815260040161086390614442565b8261283b61022582611942565b156128585760405162461bcd60e51b815260040161086390614442565b6113a685858561328f565b61286d8282611478565b6109e257612885816001600160a01b031660146132ee565b6128908360206132ee565b6040516020016128a1929190614903565b60408051601f198184030181529082905262461bcd60e51b825261086391600401613b0d565b6128d18282611478565b6109e257600082815261012d602090815260408083206001600160a01b03851684529091529020805460ff1916600117905561290a3390565b6001600160a01b0316816001600160a01b0316837f2f8788117e7eff1d82e926ec794901d17c78024a50270940304540a733656f0d60405160405180910390a45050565b6129588282611478565b156109e257600082815261012d602090815260408083206001600160a01b0385168085529252808320805460ff1916905551339285917ff6391f5c32d9c69d2a47ea670b442974b53935d1edc7fd64eb21e047a839171b9190a45050565b6000818152600283016020526040812054801515806129da57506129da8484613489565b6114715760405162461bcd60e51b815260206004820152601e60248201527f456e756d657261626c654d61703a206e6f6e6578697374656e74206b657900006044820152606401610863565b60fb5460ff166120d25760405162461bcd60e51b815260206004820152601460248201527314185d5cd8589b194e881b9bdd081c185d5cd95960621b6044820152606401610863565b60006114718383612c62565b60008281526002840160205260408120829055610a4c8484612a6f565b612aa28383613495565b612aaf6000848484612d80565b6108765760405162461bcd60e51b81526004016108639061480a565b60006114718383613177565b600054610100900460ff16612afe5760405162461bcd60e51b8152600401610863906147bf565b8151612b119060659060208501906138f3565b5080516108769060669060208401906138f3565b600054610100900460ff16612b4c5760405162461bcd60e51b8152600401610863906147bf565b60fb805460ff19169055565b600054610100900460ff16612b7f5760405162461bcd60e51b8152600401610863906147bf565b8151612b93906102589060208501906138f3565b508051610876906102599060208401906138f3565b600054610100900460ff16612bcf5760405162461bcd60e51b8152600401610863906147bf565b6102bc80546001600160a01b0319166001600160a01b0392909216919091179055565b60fb5460ff16156120d25760405162461bcd60e51b815260206004820152601060248201526f14185d5cd8589b194e881c185d5cd95960821b6044820152606401610863565b6000826000018281548110612c4f57612c4f6144ea565b9060005260206000200154905092915050565b6000818152600183016020526040812054612ca95750815460018181018455600084815260208082209093018490558454848252828601909352604090209190915561077a565b50600061077a565b816001600160a01b0316836001600160a01b03161415612d135760405162461bcd60e51b815260206004820152601960248201527f4552433732313a20617070726f766520746f2063616c6c6572000000000000006044820152606401610863565b6001600160a01b038381166000818152606a6020908152604080832094871680845294825291829020805460ff191686151590811790915591519182527f17307eab39ab6107e8899845ad3d59bd9653f200f220920489ca2b5937696c31910160405180910390a3505050565b60006001600160a01b0384163b15612e8257604051630a85bd0160e11b81526001600160a01b0385169063150b7a0290612dc4903390899088908890600401614978565b602060405180830381600087803b158015612dde57600080fd5b505af1925050508015612e0e575060408051601f3d908101601f19168201909252612e0b918101906149ab565b60015b612e68573d808015612e3c576040519150601f19603f3d011682016040523d82523d6000602084013e612e41565b606091505b508051612e605760405162461bcd60e51b81526004016108639061480a565b805181602001fd5b6001600160e01b031916630a85bd0160e11b149050610a4c565b506001610a4c565b60606000610258612e9a8661260e565b604051602001612eab9291906149c8565b60405160208183030381529060405290506000610259612eca8761260e565b604051602001612edb9291906149c8565b604051602081830303815290604052905084612ef68761260e565b858484604051602001612f0d959493929190614a66565b604051602081830303815290604052925050509392505050565b60408051602081019091526000808252606091905b835181101561310957600060018551612f5591906144d3565b8214612f7a57604051806040016040528060018152602001600b60fa1b815250612f8b565b604051806020016040528060008152505b90506000858381518110612fa157612fa16144ea565b602002602001015160600151612fd057604051806040016040528060018152602001601160f91b815250612fe1565b604051806020016040528060008152505b9050600081878581518110612ff857612ff86144ea565b6020026020010151604001518360405160200161301793929190614b74565b6040516020818303038152906040529050600087858151811061303c5761303c6144ea565b6020026020010151602001515160001461309257878581518110613062576130626144ea565b60200260200101516020015160405160200161307e9190614bb7565b6040516020818303038152906040526130a3565b604051806020016040528060008152505b90506000868987815181106130ba576130ba6144ea565b6020026020010151600001518385886040516020016130dd959493929190614bfd565b60405160208183030381529060405290508096505050505050808061310190614518565b915050612f3c565b50806040516020016115b49190614cb8565b60608160000180548060200260200160405190810160405280929190818152602001828054801561316b57602002820191906000526020600020905b815481526020019060010190808311613157575b50505050509050919050565b6000818152600183016020526040812054801561326057600061319b6001836144d3565b85549091506000906131af906001906144d3565b90508181146132145760008660000182815481106131cf576131cf6144ea565b90600052602060002001549050808760000184815481106131f2576131f26144ea565b6000918252602080832090910192909255918252600188019052604090208390555b855486908061322557613225614cfa565b60019003818190600052602060002001600090559055856001016000868152602001908152602001600020600090556001935050505061077a565b600091505061077a565b60006001600160e01b03198216635a05180f60e01b148061077a575061077a826135e3565b8261329c61022582611942565b156132b95760405162461bcd60e51b815260040161086390614442565b826132c661022582611942565b156132e35760405162461bcd60e51b815260040161086390614442565b6113a6858585613608565b606060006132fd836002614d10565b613308906002614500565b6001600160401b0381111561331f5761331f613be7565b6040519080825280601f01601f191660200182016040528015613349576020820181803683370190505b509050600360fc1b81600081518110613364576133646144ea565b60200101906001600160f81b031916908160001a905350600f60fb1b81600181518110613393576133936144ea565b60200101906001600160f81b031916908160001a90535060006133b7846002614d10565b6133c2906001614500565b90505b600181111561343a576f181899199a1a9b1b9c1cb0b131b232b360811b85600f16601081106133f6576133f66144ea565b1a60f81b82828151811061340c5761340c6144ea565b60200101906001600160f81b031916908160001a90535060049490941c9361343381614d2f565b90506133c5565b5083156114715760405162461bcd60e51b815260206004820181905260248201527f537472696e67733a20686578206c656e67746820696e73756666696369656e746044820152606401610863565b60006114718383613613565b6001600160a01b0382166134eb5760405162461bcd60e51b815260206004820181905260248201527f4552433732313a206d696e7420746f20746865207a65726f20616464726573736044820152606401610863565b6000818152606760205260409020546001600160a01b0316156135505760405162461bcd60e51b815260206004820152601c60248201527f4552433732313a20746f6b656e20616c7265616479206d696e746564000000006044820152606401610863565b61355c600083836127fc565b6001600160a01b0382166000908152606860205260408120805460019290613585908490614500565b909155505060008181526067602052604080822080546001600160a01b0319166001600160a01b03861690811790915590518392907fddf252ad1be2c89b69c2b068fc378daa952ba7f163c4a11628f55a4df523b3ef908290a45050565b60006001600160e01b03198216637965db0b60e01b148061077a575061077a8261362b565b610876838383613636565b60008181526001830160205260408120541515611471565b600061077a826136ee565b6001600160a01b0383166136915761368c81609980546000838152609a60205260408120829055600182018355919091527f72a152ddfb8e864297c917af52ea6c1c68aead0fee1a62673fcc7e0c94979d000155565b6136b4565b816001600160a01b0316836001600160a01b0316146136b4576136b48382613713565b6001600160a01b0382166136cb57610876816137b0565b826001600160a01b0316826001600160a01b03161461087657610876828261385f565b60006001600160e01b0319821663780e9d6360e01b148061077a575061077a826138a3565b6000600161372084610ed8565b61372a91906144d3565b60008381526098602052604090205490915080821461377d576001600160a01b03841660009081526097602090815260408083208584528252808320548484528184208190558352609890915290208190555b5060009182526098602090815260408084208490556001600160a01b039094168352609781528383209183525290812055565b6099546000906137c2906001906144d3565b6000838152609a6020526040812054609980549394509092849081106137ea576137ea6144ea565b90600052602060002001549050806099838154811061380b5761380b6144ea565b6000918252602080832090910192909255828152609a9091526040808220849055858252812055609980548061384357613843614cfa565b6001900381819060005260206000200160009055905550505050565b600061386a83610ed8565b6001600160a01b039093166000908152609760209081526040808320868452825280832085905593825260989052919091209190915550565b60006001600160e01b031982166380ac58cd60e01b14806138d457506001600160e01b03198216635b5e139f60e01b145b8061077a57506301ffc9a760e01b6001600160e01b031983161461077a565b8280546138ff9061440d565b90600052602060002090601f0160209004810192826139215760008555613967565b82601f1061393a57805160ff1916838001178555613967565b82800160010185558215613967579182015b8281111561396757825182559160200191906001019061394c565b50613973929150613a6d565b5090565b604051806101000160405280600081526020016000815260200160008152602001600081526020016139d86040518060c001604052806000815260200160008152602001600081526020016000815260200160008152602001600081525090565b8152602001613a166040518060c001604052806000815260200160008152602001600081526020016000815260200160008152602001600081525090565b8152602001613a38604051806040016040528060008152602001600081525090565b8152602001613a686040518060800160405280600081526020016000815260200160008152602001600081525090565b905290565b5b808211156139735760008155600101613a6e565b6001600160e01b031981168114610a7457600080fd5b600060208284031215613aaa57600080fd5b813561147181613a82565b60005b83811015613ad0578181015183820152602001613ab8565b838111156114525750506000910152565b60008151808452613af9816020860160208601613ab5565b601f01601f19169290920160200192915050565b6020815260006114716020830184613ae1565b600060208284031215613b3257600080fd5b5035919050565b80356001600160a01b0381168114613b5057600080fd5b919050565b60008060408385031215613b6857600080fd5b613b7183613b39565b946020939093013593505050565b600080600060608486031215613b9457600080fd5b613b9d84613b39565b9250613bab60208501613b39565b9150604084013590509250925092565b60008060408385031215613bce57600080fd5b82359150613bde60208401613b39565b90509250929050565b634e487b7160e01b600052604160045260246000fd5b60405160c081016001600160401b0381118282101715613c1f57613c1f613be7565b60405290565b604080519081016001600160401b0381118282101715613c1f57613c1f613be7565b604051608081016001600160401b0381118282101715613c1f57613c1f613be7565b60405161010081016001600160401b0381118282101715613c1f57613c1f613be7565b604051601f8201601f191681016001600160401b0381118282101715613cb457613cb4613be7565b604052919050565b60006001600160401b03821115613cd557613cd5613be7565b5060051b60200190565b600082601f830112613cf057600080fd5b81356020613d05613d0083613cbc565b613c8c565b82815260059290921b84018101918181019086841115613d2457600080fd5b8286015b84811015613d3f5780358352918301918301613d28565b509695505050505050565b600080600060608486031215613d5f57600080fd5b8335925060208401356001600160401b0380821115613d7d57600080fd5b613d8987838801613cdf565b93506040860135915080821115613d9f57600080fd5b50613dac86828701613cdf565b9150509250925092565b600082601f830112613dc757600080fd5b81356001600160401b03811115613de057613de0613be7565b613df3601f8201601f1916602001613c8c565b818152846020838601011115613e0857600080fd5b816020850160208301376000918101602001919091529392505050565b600060208284031215613e3757600080fd5b81356001600160401b03811115613e4d57600080fd5b610a4c84828501613db6565b600060208284031215613e6b57600080fd5b81356001600160401b03811115613e8157600080fd5b610a4c84828501613cdf565b6000602080830181845280855180835260408601915060408160051b870101925083870160005b82811015613ee257603f19888603018452613ed0858351613ae1565b94509285019290850190600101613eb4565b5092979650505050505050565b600060208284031215613f0157600080fd5b61147182613b39565b600060c08284031215613f1c57600080fd5b613f24613bfd565b9050813581526020820135602082015260408201356040820152606082013560608201526080820135608082015260a082013560a082015292915050565b600060408284031215613f7457600080fd5b613f7c613c25565b9050813581526020820135602082015292915050565b600060808284031215613fa457600080fd5b613fac613c47565b90508135815260208201356020820152604082013560408201526060820135606082015292915050565b60006102c08284031215613fe957600080fd5b613ff1613c69565b9050813581526020820135602082015260408201356040820152606082013560608201526140228360808401613f0a565b6080820152614035836101408401613f0a565b60a0820152614048836102008401613f62565b60c082015261405b836102408401613f92565b60e082015292915050565b6000806102e0838503121561407a57600080fd5b61408383613b39565b9150613bde8460208501613fd6565b600081518084526020808501945080840160005b838110156140c2578151875295820195908201906001016140a6565b509495945050505050565b6020815260006114716020830184614092565b6000806000606084860312156140f557600080fd5b833592506020840135915060408401356001600160401b0381111561411957600080fd5b613dac86828701613db6565b6000806040838503121561413857600080fd5b61414183613b39565b91506020808401356001600160401b0381111561415d57600080fd5b8401601f8101861361416e57600080fd5b803561417c613d0082613cbc565b8181526102c0918202830184019184820191908984111561419c57600080fd5b938501935b838510156141c2576141b38a86613fd6565b835293840193918501916141a1565b5080955050505050509250929050565b600080604083850312156141e557600080fd5b50508035926020909101359150565b60008060006060848603121561420957600080fd5b61421284613b39565b92506020840135915060408401356001600160401b0381111561411957600080fd5b60008060006060848603121561424957600080fd5b833592506020808501356001600160401b038082111561426857600080fd5b61427488838901613cdf565b9450604087013591508082111561428a57600080fd5b818701915087601f83011261429e57600080fd5b81356142ac613d0082613cbc565b81815260059190911b8301840190848101908a8311156142cb57600080fd5b8585015b83811015614303578035858111156142e75760008081fd5b6142f58d89838a0101613db6565b8452509186019186016142cf565b508096505050505050509250925092565b6000806040838503121561432757600080fd5b61433083613b39565b91506020830135801515811461434557600080fd5b809150509250929050565b6000806000806080858703121561436657600080fd5b61436f85613b39565b935061437d60208601613b39565b92506040850135915060608501356001600160401b0381111561439f57600080fd5b6143ab87828801613db6565b91505092959194509250565b600080604083850312156143ca57600080fd5b6143d383613b39565b9150613bde60208401613b39565b6000806000606084860312156143f657600080fd5b505081359360208301359350604090920135919050565b600181811c9082168061442157607f821691505b602082108114156124d957634e487b7160e01b600052602260045260246000fd5b602080825260139082015272426c61636b6c6973746564206164647265737360681b604082015260600190565b6020808252602e908201527f4552433732313a2063616c6c6572206973206e6f7420746f6b656e206f776e6560408201526d1c881b9bdc88185c1c1c9bdd995960921b606082015260800190565b634e487b7160e01b600052601160045260246000fd5b6000828210156144e5576144e56144bd565b500390565b634e487b7160e01b600052603260045260246000fd5b60008219821115614513576145136144bd565b500190565b600060001982141561452c5761452c6144bd565b5060010190565b6040815260006145466040830185614092565b82810360208401526145588185614092565b95945050505050565b600060c0828403121561457357600080fd5b61457b613bfd565b9050815181526020820151602082015260408201516040820152606082015160608201526080820151608082015260a082015160a082015292915050565b6000604082840312156145cb57600080fd5b6145d3613c25565b9050815181526020820151602082015292915050565b6000608082840312156145fb57600080fd5b614603613c47565b90508151815260208201516020820152604082015160408201526060820151606082015292915050565b60006102c0828403121561464057600080fd5b614648613c69565b825181526020830151602082015260408301516040820152606083015160608201526146778460808501614561565b608082015261468a846101408501614561565b60a082015261469d8461020085016145b9565b60c08201526146b08461024085016145e9565b60e08201529392505050565b60006102c08201905082518252602083015160208301526040830151604083015260608301516060830152608083015161472e6080840182805182526020810151602083015260408101516040830152606081015160608301526080810151608083015260a081015160a08301525050565b5060a08381015180516101408501526020810151610160850152604081015161018085015260608101516101a085015260808101516101c0850152908101516101e08401525060c0830151805161020084015260209081015161022084015260e0840151805161024085015290810151610260840152604081015161028084015260608101516102a0840152610ed1565b6020808252602b908201527f496e697469616c697a61626c653a20636f6e7472616374206973206e6f74206960408201526a6e697469616c697a696e6760a81b606082015260800190565b60208082526032908201527f4552433732313a207472616e7366657220746f206e6f6e20455243373231526560408201527131b2b4bb32b91034b6b83632b6b2b73a32b960711b606082015260800190565b634e487b7160e01b600052601260045260246000fd5b6000826148815761488161485c565b500490565b6000826148955761489561485c565b500690565b600081516148ac818560208601613ab5565b9290920192915050565b607b60f81b8152600083516148d2816001850160208801613ab5565b8351908301906148e9816001840160208801613ab5565b607d60f81b60019290910191820152600201949350505050565b7f416363657373436f6e74726f6c3a206163636f756e742000000000000000000081526000835161493b816017850160208801613ab5565b7001034b99036b4b9b9b4b733903937b6329607d1b601791840191820152835161496c816028840160208801613ab5565b01602801949350505050565b6001600160a01b03858116825284166020820152604081018390526080606082018190526000906117a990830184613ae1565b6000602082840312156149bd57600080fd5b815161147181613a82565b600080845481600182811c9150808316806149e457607f831692505b6020808410821415614a0457634e487b7160e01b86526022600452602486fd5b818015614a185760018114614a2957614a56565b60ff19861689528489019650614a56565b60008b81526020902060005b86811015614a4e5781548b820152908501908301614a35565b505084890196505b505050505050614558818561489a565b67113730b6b2911d1160c11b81528551600090614a8a816008850160208b01613ab5565b61202360f01b6008918401918201528651614aac81600a840160208b01613ab5565b61088b60f21b600a929091019182018190526e113232b9b1b934b83a34b7b7111d1160891b600c8301528651614ae981601b850160208b01613ab5565b601b920191820152681134b6b0b3b2911d1160b91b601d8201528451614b16816026840160208901613ab5565b614b67614b59614b53614b3660268587010161088b60f21b815260020190565b701130b734b6b0ba34b7b72fbab936111d1160791b815260110190565b8761489a565b61088b60f21b815260020190565b9998505050505050505050565b60008451614b86818460208901613ab5565b845190830190614b9a818360208901613ab5565b8451910190614bad818360208801613ab5565b0195945050505050565b703d913234b9b83630bcafba3cb832911d1160791b81528151600090614be4816011850160208701613ab5565b61088b60f21b6011939091019283015250601301919050565b60008651614c0f818460208b01613ab5565b6e3d913a3930b4ba2fba3cb832911d1160891b9083019081528651614c3b81600f840160208b01613ab5565b61088b60f21b600f92909101918201528551614c5e816011840160208a01613ab5565b67113b30b63ab2911d60c11b601192909101918201528451614c87816019840160208901613ab5565b607d60f81b601992909101918201528351614ca981601a840160208801613ab5565b01601a01979650505050505050565b6d2261747472696275746573223a5b60901b81528151600090614ce281600e850160208701613ab5565b605d60f81b600e939091019283015250600f01919050565b634e487b7160e01b600052603160045260246000fd5b6000816000190483118215151615614d2a57614d2a6144bd565b500290565b600081614d3e57614d3e6144bd565b50600019019056fe9f2df0fed2c77648de5860a4cc508cd0818c85b8b8a1ab4ceeef8d981c8956a652ba824bfabc2bcfcdf7f0edbb486ebb05e1836c90e78047efeb949990f72e5f68747470733a2f2f6769746875622e636f6d2f45766f5665727365732f7075626c69632d6173736574732f7261772f6d61696e2f6e6674732f45766f2fa49807205ce4d355092ef5a8a18f56e8913cf4a201fbe287825b095693c21775364d3d7565c7a8300c96fd53e065d19b65848d7b23b3191adcd55621c744223ca26469706673582212201aa7c1a260b0d141dc653b396b99b999407a6e57840a94ee47c92035574f6ae764736f6c63430008090033",
  "linkReferences": {},
  "deployedLinkReferences": {}
}