{
  "_format": "hh-sol-artifact-1",
  "contractName": "EvoL2",
  "sourceName": "contracts/ERC721/Evo/EvoL2.sol",
  "abi": [
    {
      "inputs": [],
      "stateMutability": "nonpayable",
      "type": "constructor"
    },
    {
      "anonymous": false,
      "inputs": [
        {
          "indexed": true,
          "internalType": "address",
          "name": "owner",
          "type": "address"
        },
        {
          "indexed": true,
          "internalType": "address",
          "name": "approved",
          "type": "address"
        },
        {
          "indexed": true,
          "internalType": "uint256",
          "name": "tokenId",
          "type": "uint256"
        }
      ],
      "name": "Approval",
      "type": "event"
    },
    {
      "anonymous": false,
      "inputs": [
        {
          "indexed": true,
          "internalType": "address",
          "name": "owner",
          "type": "address"
        },
        {
          "indexed": true,
          "internalType": "address",
          "name": "operator",
          "type": "address"
        },
        {
          "indexed": false,
          "internalType": "bool",
          "name": "approved",
          "type": "bool"
        }
      ],
      "name": "ApprovalForAll",
      "type": "event"
    },
    {
      "anonymous": false,
      "inputs": [
        {
          "indexed": true,
          "internalType": "uint256",
          "name": "tokenId",
          "type": "uint256"
        },
        {
          "indexed": false,
          "internalType": "uint256",
          "name": "attributeId",
          "type": "uint256"
        },
        {
          "indexed": false,
          "internalType": "string",
          "name": "value",
          "type": "string"
        }
      ],
      "name": "EvoAttributeStringUpdated",
      "type": "event"
    },
    {
      "anonymous": false,
      "inputs": [
        {
          "indexed": true,
          "internalType": "uint256",
          "name": "tokenId",
          "type": "uint256"
        },
        {
          "indexed": false,
          "internalType": "uint256[]",
          "name": "attributeIds",
          "type": "uint256[]"
        },
        {
          "indexed": false,
          "internalType": "string[]",
          "name": "value",
          "type": "string[]"
        }
      ],
      "name": "EvoAttributeStringsUpdated",
      "type": "event"
    },
    {
      "anonymous": false,
      "inputs": [
        {
          "indexed": true,
          "internalType": "uint256",
          "name": "tokenId",
          "type": "uint256"
        },
        {
          "indexed": false,
          "internalType": "uint256",
          "name": "attributeId",
          "type": "uint256"
        },
        {
          "indexed": false,
          "internalType": "uint256",
          "name": "value",
          "type": "uint256"
        }
      ],
      "name": "EvoAttributeUpdated",
      "type": "event"
    },
    {
      "anonymous": false,
      "inputs": [
        {
          "indexed": true,
          "internalType": "uint256",
          "name": "tokenId",
          "type": "uint256"
        },
        {
          "indexed": false,
          "internalType": "uint256[]",
          "name": "attributeId",
          "type": "uint256[]"
        },
        {
          "indexed": false,
          "internalType": "uint256[]",
          "name": "value",
          "type": "uint256[]"
        }
      ],
      "name": "EvoAttributesUpdated",
      "type": "event"
    },
    {
      "anonymous": false,
      "inputs": [
        {
          "indexed": false,
          "internalType": "uint8",
          "name": "version",
          "type": "uint8"
        }
      ],
      "name": "Initialized",
      "type": "event"
    },
    {
      "anonymous": false,
      "inputs": [
        {
          "indexed": false,
          "internalType": "address",
          "name": "account",
          "type": "address"
        }
      ],
      "name": "Paused",
      "type": "event"
    },
    {
      "anonymous": false,
      "inputs": [
        {
          "indexed": true,
          "internalType": "bytes32",
          "name": "role",
          "type": "bytes32"
        },
        {
          "indexed": true,
          "internalType": "bytes32",
          "name": "previousAdminRole",
          "type": "bytes32"
        },
        {
          "indexed": true,
          "internalType": "bytes32",
          "name": "newAdminRole",
          "type": "bytes32"
        }
      ],
      "name": "RoleAdminChanged",
      "type": "event"
    },
    {
      "anonymous": false,
      "inputs": [
        {
          "indexed": true,
          "internalType": "bytes32",
          "name": "role",
          "type": "bytes32"
        },
        {
          "indexed": true,
          "internalType": "address",
          "name": "account",
          "type": "address"
        },
        {
          "indexed": true,
          "internalType": "address",
          "name": "sender",
          "type": "address"
        }
      ],
      "name": "RoleGranted",
      "type": "event"
    },
    {
      "anonymous": false,
      "inputs": [
        {
          "indexed": true,
          "internalType": "bytes32",
          "name": "role",
          "type": "bytes32"
        },
        {
          "indexed": true,
          "internalType": "address",
          "name": "account",
          "type": "address"
        },
        {
          "indexed": true,
          "internalType": "address",
          "name": "sender",
          "type": "address"
        }
      ],
      "name": "RoleRevoked",
      "type": "event"
    },
    {
      "anonymous": false,
      "inputs": [
        {
          "indexed": true,
          "internalType": "address",
          "name": "from",
          "type": "address"
        },
        {
          "indexed": true,
          "internalType": "address",
          "name": "to",
          "type": "address"
        },
        {
          "indexed": true,
          "internalType": "uint256",
          "name": "tokenId",
          "type": "uint256"
        }
      ],
      "name": "Transfer",
      "type": "event"
    },
    {
      "anonymous": false,
      "inputs": [
        {
          "indexed": false,
          "internalType": "address",
          "name": "account",
          "type": "address"
        }
      ],
      "name": "Unpaused",
      "type": "event"
    },
    {
      "inputs": [],
      "name": "ADMIN_ROLE",
      "outputs": [
        {
          "internalType": "bytes32",
          "name": "",
          "type": "bytes32"
        }
      ],
      "stateMutability": "view",
      "type": "function"
    },
    {
      "inputs": [],
      "name": "BRIDGE_ROLE",
      "outputs": [
        {
          "internalType": "bytes32",
          "name": "",
          "type": "bytes32"
        }
      ],
      "stateMutability": "view",
      "type": "function"
    },
    {
      "inputs": [],
      "name": "CONTRACT_ROLE",
      "outputs": [
        {
          "internalType": "bytes32",
          "name": "",
          "type": "bytes32"
        }
      ],
      "stateMutability": "view",
      "type": "function"
    },
    {
      "inputs": [],
      "name": "DEFAULT_ADMIN_ROLE",
      "outputs": [
        {
          "internalType": "bytes32",
          "name": "",
          "type": "bytes32"
        }
      ],
      "stateMutability": "view",
      "type": "function"
    },
    {
      "inputs": [],
      "name": "MINTER_ROLE",
      "outputs": [
        {
          "internalType": "bytes32",
          "name": "",
          "type": "bytes32"
        }
      ],
      "stateMutability": "view",
      "type": "function"
    },
    {
      "inputs": [
        {
          "internalType": "address",
          "name": "_address",
          "type": "address"
        }
      ],
      "name": "addBlacklist",
      "outputs": [],
      "stateMutability": "nonpayable",
      "type": "function"
    },
    {
      "inputs": [
        {
          "internalType": "uint256",
          "name": "tokenId",
          "type": "uint256"
        },
        {
          "internalType": "uint256",
          "name": "attributeId",
          "type": "uint256"
        },
        {
          "internalType": "uint256",
          "name": "value",
          "type": "uint256"
        }
      ],
      "name": "addToAttribute",
      "outputs": [],
      "stateMutability": "nonpayable",
      "type": "function"
    },
    {
      "inputs": [],
      "name": "animationBaseURI",
      "outputs": [
        {
          "internalType": "string",
          "name": "",
          "type": "string"
        }
      ],
      "stateMutability": "view",
      "type": "function"
    },
    {
      "inputs": [
        {
          "internalType": "address",
          "name": "to",
          "type": "address"
        },
        {
          "internalType": "uint256",
          "name": "tokenId",
          "type": "uint256"
        }
      ],
      "name": "approve",
      "outputs": [],
      "stateMutability": "nonpayable",
      "type": "function"
    },
    {
      "inputs": [
        {
          "internalType": "address",
          "name": "owner",
          "type": "address"
        }
      ],
      "name": "balanceOf",
      "outputs": [
        {
          "internalType": "uint256",
          "name": "",
          "type": "uint256"
        }
      ],
      "stateMutability": "view",
      "type": "function"
    },
    {
      "inputs": [
        {
          "internalType": "uint256",
          "name": "tokenId",
          "type": "uint256"
        },
        {
          "internalType": "uint256[]",
          "name": "attributeIds",
          "type": "uint256[]"
        },
        {
          "internalType": "uint256[]",
          "name": "values",
          "type": "uint256[]"
        }
      ],
      "name": "batchAddToAttribute",
      "outputs": [],
      "stateMutability": "nonpayable",
      "type": "function"
    },
    {
      "inputs": [
        {
          "internalType": "address",
          "name": "_address",
          "type": "address"
        },
        {
          "components": [
            {
              "internalType": "uint256",
              "name": "tokenId",
              "type": "uint256"
            },
            {
              "internalType": "uint256",
              "name": "species",
              "type": "uint256"
            },
            {
              "internalType": "uint256",
              "name": "generation",
              "type": "uint256"
            },
            {
              "internalType": "uint256",
              "name": "experience",
              "type": "uint256"
            },
            {
              "components": [
                {
                  "internalType": "uint256",
                  "name": "gender",
                  "type": "uint256"
                },
                {
                  "internalType": "uint256",
                  "name": "rarity",
                  "type": "uint256"
                },
                {
                  "internalType": "uint256",
                  "name": "primaryType",
                  "type": "uint256"
                },
                {
                  "internalType": "uint256",
                  "name": "secondaryType",
                  "type": "uint256"
                },
                {
                  "internalType": "uint256",
                  "name": "nature",
                  "type": "uint256"
                },
                {
                  "internalType": "uint256",
                  "name": "size",
                  "type": "uint256"
                }
              ],
              "internalType": "struct EvoStructs.Attributes",
              "name": "attributes",
              "type": "tuple"
            },
            {
              "components": [
                {
                  "internalType": "uint256",
                  "name": "health",
                  "type": "uint256"
                },
                {
                  "internalType": "uint256",
                  "name": "attack",
                  "type": "uint256"
                },
                {
                  "internalType": "uint256",
                  "name": "defense",
                  "type": "uint256"
                },
                {
                  "internalType": "uint256",
                  "name": "special",
                  "type": "uint256"
                },
                {
                  "internalType": "uint256",
                  "name": "resistance",
                  "type": "uint256"
                },
                {
                  "internalType": "uint256",
                  "name": "speed",
                  "type": "uint256"
                }
              ],
              "internalType": "struct EvoStructs.Stats",
              "name": "stats",
              "type": "tuple"
            },
            {
              "components": [
                {
                  "internalType": "uint256",
                  "name": "total",
                  "type": "uint256"
                },
                {
                  "internalType": "uint256",
                  "name": "remaining",
                  "type": "uint256"
                },
                {
                  "internalType": "uint256",
                  "name": "lastBreedTime",
                  "type": "uint256"
                }
              ],
              "internalType": "struct EvoStructs.Breeds",
              "name": "breeds",
              "type": "tuple"
            },
            {
              "components": [
                {
                  "internalType": "uint256",
                  "name": "move0",
                  "type": "uint256"
                },
                {
                  "internalType": "uint256",
                  "name": "move1",
                  "type": "uint256"
                },
                {
                  "internalType": "uint256",
                  "name": "move2",
                  "type": "uint256"
                },
                {
                  "internalType": "uint256",
                  "name": "move3",
                  "type": "uint256"
                }
              ],
              "internalType": "struct EvoStructs.Moves",
              "name": "moves",
              "type": "tuple"
            }
          ],
          "internalType": "struct EvoStructs.Evo[]",
          "name": "evos",
          "type": "tuple[]"
        }
      ],
      "name": "batchMint",
      "outputs": [],
      "stateMutability": "nonpayable",
      "type": "function"
    },
    {
      "inputs": [
        {
          "internalType": "uint256",
          "name": "tokenId",
          "type": "uint256"
        },
        {
          "internalType": "uint256[]",
          "name": "attributeIds",
          "type": "uint256[]"
        },
        {
          "internalType": "uint256[]",
          "name": "values",
          "type": "uint256[]"
        }
      ],
      "name": "batchSetAttribute",
      "outputs": [],
      "stateMutability": "nonpayable",
      "type": "function"
    },
    {
      "inputs": [
        {
          "internalType": "uint256",
          "name": "attributeId",
          "type": "uint256"
        },
        {
          "internalType": "uint256[]",
          "name": "indices",
          "type": "uint256[]"
        },
        {
          "internalType": "string[]",
          "name": "values",
          "type": "string[]"
        }
      ],
      "name": "batchSetAttributeStrings",
      "outputs": [],
      "stateMutability": "nonpayable",
      "type": "function"
    },
    {
      "inputs": [
        {
          "internalType": "uint256[]",
          "name": "tokenIds",
          "type": "uint256[]"
        }
      ],
      "name": "batchTokenURI",
      "outputs": [
        {
          "internalType": "string[]",
          "name": "",
          "type": "string[]"
        }
      ],
      "stateMutability": "view",
      "type": "function"
    },
    {
      "inputs": [
        {
          "internalType": "uint256",
          "name": "tokenId",
          "type": "uint256"
        }
      ],
      "name": "bridgeExtraData",
      "outputs": [
        {
          "internalType": "bytes",
          "name": "",
          "type": "bytes"
        }
      ],
      "stateMutability": "view",
      "type": "function"
    },
    {
      "inputs": [
        {
          "internalType": "uint256",
          "name": "tokenId",
          "type": "uint256"
        }
      ],
      "name": "burn",
      "outputs": [],
      "stateMutability": "nonpayable",
      "type": "function"
    },
    {
      "inputs": [],
      "name": "burnedIds",
      "outputs": [
        {
          "internalType": "uint256[]",
          "name": "",
          "type": "uint256[]"
        }
      ],
      "stateMutability": "view",
      "type": "function"
    },
    {
      "inputs": [],
      "name": "getAllTokenIds",
      "outputs": [
        {
          "internalType": "uint256[]",
          "name": "",
          "type": "uint256[]"
        }
      ],
      "stateMutability": "view",
      "type": "function"
    },
    {
      "inputs": [
        {
          "internalType": "uint256",
          "name": "tokenId",
          "type": "uint256"
        }
      ],
      "name": "getApproved",
      "outputs": [
        {
          "internalType": "address",
          "name": "",
          "type": "address"
        }
      ],
      "stateMutability": "view",
      "type": "function"
    },
    {
      "inputs": [
        {
          "internalType": "uint256",
          "name": "tokenId",
          "type": "uint256"
        }
      ],
      "name": "getEvo",
      "outputs": [
        {
          "components": [
            {
              "internalType": "uint256",
              "name": "tokenId",
              "type": "uint256"
            },
            {
              "internalType": "uint256",
              "name": "species",
              "type": "uint256"
            },
            {
              "internalType": "uint256",
              "name": "generation",
              "type": "uint256"
            },
            {
              "internalType": "uint256",
              "name": "experience",
              "type": "uint256"
            },
            {
              "components": [
                {
                  "internalType": "uint256",
                  "name": "gender",
                  "type": "uint256"
                },
                {
                  "internalType": "uint256",
                  "name": "rarity",
                  "type": "uint256"
                },
                {
                  "internalType": "uint256",
                  "name": "primaryType",
                  "type": "uint256"
                },
                {
                  "internalType": "uint256",
                  "name": "secondaryType",
                  "type": "uint256"
                },
                {
                  "internalType": "uint256",
                  "name": "nature",
                  "type": "uint256"
                },
                {
                  "internalType": "uint256",
                  "name": "size",
                  "type": "uint256"
                }
              ],
              "internalType": "struct EvoStructs.Attributes",
              "name": "attributes",
              "type": "tuple"
            },
            {
              "components": [
                {
                  "internalType": "uint256",
                  "name": "health",
                  "type": "uint256"
                },
                {
                  "internalType": "uint256",
                  "name": "attack",
                  "type": "uint256"
                },
                {
                  "internalType": "uint256",
                  "name": "defense",
                  "type": "uint256"
                },
                {
                  "internalType": "uint256",
                  "name": "special",
                  "type": "uint256"
                },
                {
                  "internalType": "uint256",
                  "name": "resistance",
                  "type": "uint256"
                },
                {
                  "internalType": "uint256",
                  "name": "speed",
                  "type": "uint256"
                }
              ],
              "internalType": "struct EvoStructs.Stats",
              "name": "stats",
              "type": "tuple"
            },
            {
              "components": [
                {
                  "internalType": "uint256",
                  "name": "total",
                  "type": "uint256"
                },
                {
                  "internalType": "uint256",
                  "name": "remaining",
                  "type": "uint256"
                },
                {
                  "internalType": "uint256",
                  "name": "lastBreedTime",
                  "type": "uint256"
                }
              ],
              "internalType": "struct EvoStructs.Breeds",
              "name": "breeds",
              "type": "tuple"
            },
            {
              "components": [
                {
                  "internalType": "uint256",
                  "name": "move0",
                  "type": "uint256"
                },
                {
                  "internalType": "uint256",
                  "name": "move1",
                  "type": "uint256"
                },
                {
                  "internalType": "uint256",
                  "name": "move2",
                  "type": "uint256"
                },
                {
                  "internalType": "uint256",
                  "name": "move3",
                  "type": "uint256"
                }
              ],
              "internalType": "struct EvoStructs.Moves",
              "name": "moves",
              "type": "tuple"
            }
          ],
          "internalType": "struct EvoStructs.Evo",
          "name": "",
          "type": "tuple"
        }
      ],
      "stateMutability": "view",
      "type": "function"
    },
    {
      "inputs": [
        {
          "internalType": "uint256",
          "name": "tokenId",
          "type": "uint256"
        }
      ],
      "name": "getRemainingSummons",
      "outputs": [
        {
          "internalType": "uint256",
          "name": "",
          "type": "uint256"
        }
      ],
      "stateMutability": "view",
      "type": "function"
    },
    {
      "inputs": [
        {
          "internalType": "bytes32",
          "name": "role",
          "type": "bytes32"
        }
      ],
      "name": "getRoleAdmin",
      "outputs": [
        {
          "internalType": "bytes32",
          "name": "",
          "type": "bytes32"
        }
      ],
      "stateMutability": "view",
      "type": "function"
    },
    {
      "inputs": [
        {
          "internalType": "bytes32",
          "name": "role",
          "type": "bytes32"
        },
        {
          "internalType": "uint256",
          "name": "index",
          "type": "uint256"
        }
      ],
      "name": "getRoleMember",
      "outputs": [
        {
          "internalType": "address",
          "name": "",
          "type": "address"
        }
      ],
      "stateMutability": "view",
      "type": "function"
    },
    {
      "inputs": [
        {
          "internalType": "bytes32",
          "name": "role",
          "type": "bytes32"
        }
      ],
      "name": "getRoleMemberCount",
      "outputs": [
        {
          "internalType": "uint256",
          "name": "",
          "type": "uint256"
        }
      ],
      "stateMutability": "view",
      "type": "function"
    },
    {
      "inputs": [
        {
          "internalType": "bytes32",
          "name": "role",
          "type": "bytes32"
        },
        {
          "internalType": "address",
          "name": "account",
          "type": "address"
        }
      ],
      "name": "grantRole",
      "outputs": [],
      "stateMutability": "nonpayable",
      "type": "function"
    },
    {
      "inputs": [
        {
          "internalType": "bytes32",
          "name": "role",
          "type": "bytes32"
        },
        {
          "internalType": "address",
          "name": "account",
          "type": "address"
        }
      ],
      "name": "hasRole",
      "outputs": [
        {
          "internalType": "bool",
          "name": "",
          "type": "bool"
        }
      ],
      "stateMutability": "view",
      "type": "function"
    },
    {
      "inputs": [],
      "name": "imageBaseURI",
      "outputs": [
        {
          "internalType": "string",
          "name": "",
          "type": "string"
        }
      ],
      "stateMutability": "view",
      "type": "function"
    },
    {
      "inputs": [],
      "name": "initialize",
      "outputs": [],
      "stateMutability": "nonpayable",
      "type": "function"
    },
    {
      "inputs": [
        {
          "internalType": "address",
          "name": "owner",
          "type": "address"
        },
        {
          "internalType": "address",
          "name": "operator",
          "type": "address"
        }
      ],
      "name": "isApprovedForAll",
      "outputs": [
        {
          "internalType": "bool",
          "name": "",
          "type": "bool"
        }
      ],
      "stateMutability": "view",
      "type": "function"
    },
    {
      "inputs": [],
      "name": "l1Contract",
      "outputs": [
        {
          "internalType": "address",
          "name": "",
          "type": "address"
        }
      ],
      "stateMutability": "view",
      "type": "function"
    },
    {
      "inputs": [
        {
          "internalType": "address",
          "name": "_address",
          "type": "address"
        },
        {
          "components": [
            {
              "internalType": "uint256",
              "name": "tokenId",
              "type": "uint256"
            },
            {
              "internalType": "uint256",
              "name": "species",
              "type": "uint256"
            },
            {
              "internalType": "uint256",
              "name": "generation",
              "type": "uint256"
            },
            {
              "internalType": "uint256",
              "name": "experience",
              "type": "uint256"
            },
            {
              "components": [
                {
                  "internalType": "uint256",
                  "name": "gender",
                  "type": "uint256"
                },
                {
                  "internalType": "uint256",
                  "name": "rarity",
                  "type": "uint256"
                },
                {
                  "internalType": "uint256",
                  "name": "primaryType",
                  "type": "uint256"
                },
                {
                  "internalType": "uint256",
                  "name": "secondaryType",
                  "type": "uint256"
                },
                {
                  "internalType": "uint256",
                  "name": "nature",
                  "type": "uint256"
                },
                {
                  "internalType": "uint256",
                  "name": "size",
                  "type": "uint256"
                }
              ],
              "internalType": "struct EvoStructs.Attributes",
              "name": "attributes",
              "type": "tuple"
            },
            {
              "components": [
                {
                  "internalType": "uint256",
                  "name": "health",
                  "type": "uint256"
                },
                {
                  "internalType": "uint256",
                  "name": "attack",
                  "type": "uint256"
                },
                {
                  "internalType": "uint256",
                  "name": "defense",
                  "type": "uint256"
                },
                {
                  "internalType": "uint256",
                  "name": "special",
                  "type": "uint256"
                },
                {
                  "internalType": "uint256",
                  "name": "resistance",
                  "type": "uint256"
                },
                {
                  "internalType": "uint256",
                  "name": "speed",
                  "type": "uint256"
                }
              ],
              "internalType": "struct EvoStructs.Stats",
              "name": "stats",
              "type": "tuple"
            },
            {
              "components": [
                {
                  "internalType": "uint256",
                  "name": "total",
                  "type": "uint256"
                },
                {
                  "internalType": "uint256",
                  "name": "remaining",
                  "type": "uint256"
                },
                {
                  "internalType": "uint256",
                  "name": "lastBreedTime",
                  "type": "uint256"
                }
              ],
              "internalType": "struct EvoStructs.Breeds",
              "name": "breeds",
              "type": "tuple"
            },
            {
              "components": [
                {
                  "internalType": "uint256",
                  "name": "move0",
                  "type": "uint256"
                },
                {
                  "internalType": "uint256",
                  "name": "move1",
                  "type": "uint256"
                },
                {
                  "internalType": "uint256",
                  "name": "move2",
                  "type": "uint256"
                },
                {
                  "internalType": "uint256",
                  "name": "move3",
                  "type": "uint256"
                }
              ],
              "internalType": "struct EvoStructs.Moves",
              "name": "moves",
              "type": "tuple"
            }
          ],
          "internalType": "struct EvoStructs.Evo",
          "name": "evo",
          "type": "tuple"
        }
      ],
      "name": "mint",
      "outputs": [],
      "stateMutability": "nonpayable",
      "type": "function"
    },
    {
      "inputs": [
        {
          "internalType": "address",
          "name": "to",
          "type": "address"
        },
        {
          "internalType": "uint256",
          "name": "tokenId",
          "type": "uint256"
        },
        {
          "internalType": "bytes",
          "name": "_data",
          "type": "bytes"
        }
      ],
      "name": "mint",
      "outputs": [],
      "stateMutability": "nonpayable",
      "type": "function"
    },
    {
      "inputs": [],
      "name": "name",
      "outputs": [
        {
          "internalType": "string",
          "name": "",
          "type": "string"
        }
      ],
      "stateMutability": "view",
      "type": "function"
    },
    {
      "inputs": [
        {
          "internalType": "uint256",
          "name": "tokenId",
          "type": "uint256"
        }
      ],
      "name": "ownerOf",
      "outputs": [
        {
          "internalType": "address",
          "name": "",
          "type": "address"
        }
      ],
      "stateMutability": "view",
      "type": "function"
    },
    {
      "inputs": [],
      "name": "pause",
      "outputs": [],
      "stateMutability": "nonpayable",
      "type": "function"
    },
    {
      "inputs": [],
      "name": "paused",
      "outputs": [
        {
          "internalType": "bool",
          "name": "",
          "type": "bool"
        }
      ],
      "stateMutability": "view",
      "type": "function"
    },
    {
      "inputs": [
        {
          "internalType": "address",
          "name": "_address",
          "type": "address"
        }
      ],
      "name": "removeBlacklist",
      "outputs": [],
      "stateMutability": "nonpayable",
      "type": "function"
    },
    {
      "inputs": [
        {
          "internalType": "bytes32",
          "name": "role",
          "type": "bytes32"
        },
        {
          "internalType": "address",
          "name": "account",
          "type": "address"
        }
      ],
      "name": "renounceRole",
      "outputs": [],
      "stateMutability": "nonpayable",
      "type": "function"
    },
    {
      "inputs": [
        {
          "internalType": "bytes32",
          "name": "role",
          "type": "bytes32"
        },
        {
          "internalType": "address",
          "name": "account",
          "type": "address"
        }
      ],
      "name": "revokeRole",
      "outputs": [],
      "stateMutability": "nonpayable",
      "type": "function"
    },
    {
      "inputs": [
        {
          "internalType": "address",
          "name": "from",
          "type": "address"
        },
        {
          "internalType": "address",
          "name": "to",
          "type": "address"
        },
        {
          "internalType": "uint256",
          "name": "tokenId",
          "type": "uint256"
        }
      ],
      "name": "safeTransferFrom",
      "outputs": [],
      "stateMutability": "nonpayable",
      "type": "function"
    },
    {
      "inputs": [
        {
          "internalType": "address",
          "name": "from",
          "type": "address"
        },
        {
          "internalType": "address",
          "name": "to",
          "type": "address"
        },
        {
          "internalType": "uint256",
          "name": "tokenId",
          "type": "uint256"
        },
        {
          "internalType": "bytes",
          "name": "data",
          "type": "bytes"
        }
      ],
      "name": "safeTransferFrom",
      "outputs": [],
      "stateMutability": "nonpayable",
      "type": "function"
    },
    {
      "inputs": [
        {
          "internalType": "string",
          "name": "_animationBaseURI",
          "type": "string"
        }
      ],
      "name": "setAnimationBaseURI",
      "outputs": [],
      "stateMutability": "nonpayable",
      "type": "function"
    },
    {
      "inputs": [
        {
          "internalType": "address",
          "name": "operator",
          "type": "address"
        },
        {
          "internalType": "bool",
          "name": "approved",
          "type": "bool"
        }
      ],
      "name": "setApprovalForAll",
      "outputs": [],
      "stateMutability": "nonpayable",
      "type": "function"
    },
    {
      "inputs": [
        {
          "internalType": "uint256",
          "name": "tokenId",
          "type": "uint256"
        },
        {
          "internalType": "uint256",
          "name": "attributeId",
          "type": "uint256"
        },
        {
          "internalType": "uint256",
          "name": "value",
          "type": "uint256"
        }
      ],
      "name": "setAttribute",
      "outputs": [],
      "stateMutability": "nonpayable",
      "type": "function"
    },
    {
      "inputs": [
        {
          "internalType": "uint256",
          "name": "attributeId",
          "type": "uint256"
        },
        {
          "internalType": "uint256",
          "name": "index",
          "type": "uint256"
        },
        {
          "internalType": "string",
          "name": "value",
          "type": "string"
        }
      ],
      "name": "setAttributeString",
      "outputs": [],
      "stateMutability": "nonpayable",
      "type": "function"
    },
    {
      "inputs": [
        {
          "internalType": "string",
          "name": "_imageBaseURI",
          "type": "string"
        }
      ],
      "name": "setImageBaseURI",
      "outputs": [],
      "stateMutability": "nonpayable",
      "type": "function"
    },
    {
      "inputs": [
        {
          "internalType": "bytes4",
          "name": "interfaceId",
          "type": "bytes4"
        }
      ],
      "name": "supportsInterface",
      "outputs": [
        {
          "internalType": "bool",
          "name": "",
          "type": "bool"
        }
      ],
      "stateMutability": "view",
      "type": "function"
    },
    {
      "inputs": [],
      "name": "symbol",
      "outputs": [
        {
          "internalType": "string",
          "name": "",
          "type": "string"
        }
      ],
      "stateMutability": "view",
      "type": "function"
    },
    {
      "inputs": [
        {
          "internalType": "uint256",
          "name": "index",
          "type": "uint256"
        }
      ],
      "name": "tokenByIndex",
      "outputs": [
        {
          "internalType": "uint256",
          "name": "",
          "type": "uint256"
        }
      ],
      "stateMutability": "view",
      "type": "function"
    },
    {
      "inputs": [
        {
          "internalType": "address",
          "name": "owner",
          "type": "address"
        },
        {
          "internalType": "uint256",
          "name": "index",
          "type": "uint256"
        }
      ],
      "name": "tokenOfOwnerByIndex",
      "outputs": [
        {
          "internalType": "uint256",
          "name": "",
          "type": "uint256"
        }
      ],
      "stateMutability": "view",
      "type": "function"
    },
    {
      "inputs": [
        {
          "internalType": "uint256",
          "name": "tokenId",
          "type": "uint256"
        }
      ],
      "name": "tokenURI",
      "outputs": [
        {
          "internalType": "string",
          "name": "",
          "type": "string"
        }
      ],
      "stateMutability": "view",
      "type": "function"
    },
    {
      "inputs": [
        {
          "internalType": "address",
          "name": "owner",
          "type": "address"
        }
      ],
      "name": "tokensOfOwner",
      "outputs": [
        {
          "internalType": "uint256[]",
          "name": "",
          "type": "uint256[]"
        }
      ],
      "stateMutability": "view",
      "type": "function"
    },
    {
      "inputs": [],
      "name": "totalBurned",
      "outputs": [
        {
          "internalType": "uint256",
          "name": "",
          "type": "uint256"
        }
      ],
      "stateMutability": "view",
      "type": "function"
    },
    {
      "inputs": [],
      "name": "totalSupply",
      "outputs": [
        {
          "internalType": "uint256",
          "name": "",
          "type": "uint256"
        }
      ],
      "stateMutability": "view",
      "type": "function"
    },
    {
      "inputs": [
        {
          "internalType": "address",
          "name": "from",
          "type": "address"
        },
        {
          "internalType": "address",
          "name": "to",
          "type": "address"
        },
        {
          "internalType": "uint256",
          "name": "tokenId",
          "type": "uint256"
        }
      ],
      "name": "transferFrom",
      "outputs": [],
      "stateMutability": "nonpayable",
      "type": "function"
    },
    {
      "inputs": [],
      "name": "unpause",
      "outputs": [],
      "stateMutability": "nonpayable",
      "type": "function"
    }
  ],
  "bytecode": "0x60806040523480156200001157600080fd5b506200001c62000022565b620000e4565b600054610100900460ff16156200008f5760405162461bcd60e51b815260206004820152602760248201527f496e697469616c697a61626c653a20636f6e747261637420697320696e697469604482015266616c697a696e6760c81b606482015260840160405180910390fd5b60005460ff9081161015620000e2576000805460ff191660ff9081179091556040519081527f7f26b83ff96e1f2b6a682f133852f6798a09c465da95921460cefb38474024989060200160405180910390a15b565b6151ad80620000f46000396000f3fe608060405234801561001057600080fd5b50600436106103835760003560e01c8063779c7527116101de578063a22cb4651161010f578063ca15c873116100ad578063d89135cd1161007c578063d89135cd14610781578063e985e9c514610789578063eb91e651146107c5578063fd5eea4e146107d857600080fd5b8063ca15c8731461073e578063cfa4e54f14610751578063d539139314610759578063d547741f1461076e57600080fd5b8063b791e67b116100e9578063b791e67b146106f0578063b88d4fde14610710578063bdbed72214610723578063c87b56dd1461072b57600080fd5b8063a22cb465146106b5578063a2c6e888146106c8578063b5bfddea146106db57600080fd5b806391d148541161017c5780639ab89ad2116101565780639ab89ad2146106745780639b9284f9146106875780639cfe42da1461069a578063a217fddf146106ad57600080fd5b806391d148541461064657806394d008ef1461065957806395d89b411461066c57600080fd5b80638456cb59116101b85780638456cb59146105f85780638462151c14610600578063853d6071146106205780639010d07c1461063357600080fd5b8063779c7527146105ca5780637d7a6d13146105dd5780638129fc1c146105f057600080fd5b806342842e0e116102b857806364cb59d6116102565780636d94f13a116102305780636d94f13a1461057a57806370a082311461059a57806375b238fc146105ad57806377645839146105c257600080fd5b806364cb59d614610540578063663ab59d146105535780636cfa24cc1461056757600080fd5b80634f6ccce7116102925780634f6ccce7146105075780635c975abb1461051a578063633f43f7146105255780636352211e1461052d57600080fd5b806342842e0e146104ce57806342966c68146104e15780634bb8fd64146104f457600080fd5b806323b872dd116103255780632f745c59116102ff5780632f745c591461048d57806336568abe146104a05780633b714895146104b35780633f4ba83a146104c657600080fd5b806323b872dd14610443578063248a9ca3146104565780632f2ff15d1461047a57600080fd5b8063081812fc11610361578063081812fc146103e8578063095ea7b3146104135780630f3002c11461042857806318160ddd1461043b57600080fd5b806301ffc9a71461038857806303fe46ab146103b057806306fdde03146103d3575b600080fd5b61039b610396366004613ddd565b6107eb565b60405190151581526020015b60405180910390f35b6103c560008051602061515883398151915281565b6040519081526020016103a7565b6103db6107fc565b6040516103a79190613e52565b6103fb6103f6366004613e65565b61088e565b6040516001600160a01b0390911681526020016103a7565b610426610421366004613e9a565b6108b5565b005b610426610436366004614122565b6108f7565b6099546103c5565b6104266104513660046141d4565b6109a2565b6103c5610464366004613e65565b600090815261012d602052604090206001015490565b610426610488366004614210565b6109d3565b6103c561049b366004613e9a565b6109f9565b6104266104ae366004614210565b610a8f565b6103c56104c1366004613e65565b610b0d565b610426610b7b565b6104266104dc3660046141d4565b610b9e565b6104266104ef366004613e65565b610bb9565b61042661050236600461423c565b610c15565b6103c5610515366004613e65565b610cb5565b60fb5460ff1661039b565b6103db610d48565b6103fb61053b366004613e65565b610dd7565b61042661054e3660046142ce565b610e37565b6102bc546103fb906001600160a01b031681565b6104266105753660046143a9565b610fc6565b61058d6105883660046143dd565b610fe7565b6040516103a79190614411565b6103c56105a8366004614473565b61109f565b6103c560008051602061513883398151915281565b6103db611125565b6104266105d836600461448e565b611133565b6104266105eb3660046142ce565b61116d565b61042661123f565b610426611479565b61061361060e366004614473565b611499565b6040516103a791906144f5565b61042661062e366004614508565b61153a565b6103fb61064136600461454d565b611574565b61039b610654366004614210565b611594565b61042661066736600461456f565b6115c0565b6103db61160c565b6104266106823660046145af565b61161b565b6103db610695366004613e65565b6116b0565b6104266106a8366004614473565b6116e7565b6103c5600081565b6104266106c336600461468f565b61170b565b6104266106d63660046143a9565b61173f565b6103c56000805160206150db83398151915281565b6107036106fe366004613e65565b611760565b6040516103a791906146cb565b61042661071e3660046147d5565b611771565b6106136117a2565b6103db610739366004613e65565b6118aa565b6103c561074c366004613e65565b6119e9565b610613611a01565b6103c56000805160206150bb83398151915281565b61042661077c366004614210565b611a13565b6103c5611a39565b61039b61079736600461483c565b6001600160a01b039182166000908152606a6020908152604080832093909416825291909152205460ff1690565b6104266107d3366004614473565b611a46565b6104266107e636600461423c565b611a6a565b60006107f682611ad5565b92915050565b60606065805461080b90614866565b80601f016020809104026020016040519081016040528092919081815260200182805461083790614866565b80156108845780601f1061085957610100808354040283529160200191610884565b820191906000526020600020905b81548152906001019060200180831161086757829003601f168201915b5050505050905090565b600061089982611b19565b506000908152606960205260409020546001600160a01b031690565b816108c261022582611b78565b156108e85760405162461bcd60e51b81526004016108df906148a1565b60405180910390fd5b6108f28383611b9a565b505050565b6000805160206150bb83398151915261090f81611cab565b60005b825181101561099c5761093d838281518110610930576109306148ce565b6020026020010151611cb5565b61096484848381518110610953576109536148ce565b602002602001015160000151611f1d565b61098a838281518110610979576109796148ce565b602002602001015160000151611f37565b80610994816148fa565b915050610912565b50505050565b6109ac3382611f43565b6109c85760405162461bcd60e51b81526004016108df90614915565b6108f2838383611fc1565b600082815261012d60205260409020600101546109ef81611cab565b6108f28383612168565b6000610a048361109f565b8210610a665760405162461bcd60e51b815260206004820152602b60248201527f455243373231456e756d657261626c653a206f776e657220696e646578206f7560448201526a74206f6620626f756e647360a81b60648201526084016108df565b506001600160a01b03919091166000908152609760209081526040808320938352929052205490565b6001600160a01b0381163314610aff5760405162461bcd60e51b815260206004820152602f60248201527f416363657373436f6e74726f6c3a2063616e206f6e6c792072656e6f756e636560448201526e103937b632b9903337b91039b2b63360891b60648201526084016108df565b610b09828261218b565b5050565b600081815261028b602052604081208190610b299060036121ae565b905080610b3a57506103e792915050565b600083815261028b60205260408120610b549060066121ae565b905060058110610b68575060009392505050565b610b73816005614963565b949350505050565b600080516020615138833981519152610b9381611cab565b610b9b6121ba565b50565b6108f283838360405180602001604052806000815250611771565b6000610bc6335b83611f43565b80610be45750610be46000805160206150db83398151915233611594565b905080610c035760405162461bcd60e51b81526004016108df90614915565b610c0c8261220c565b610b0982612218565b600080516020615158833981519152610c2d81611cab565b600084815261028b60205260408120610c4690856121ae565b90506000610c54848361497a565b600087815261028b60205260409020909150610c719086836122bf565b50604080518681526020810183905287917f43efe11319dda54ad41283fd13b0cebc5595ac12d761f4f7bfc9d529fa0f9c74910160405180910390a2505050505050565b6000610cc060995490565b8210610d235760405162461bcd60e51b815260206004820152602c60248201527f455243373231456e756d657261626c653a20676c6f62616c20696e646578206f60448201526b7574206f6620626f756e647360a01b60648201526084016108df565b60998281548110610d3657610d366148ce565b90600052602060002001549050919050565b6102598054610d5690614866565b80601f0160208091040260200160405190810160405280929190818152602001828054610d8290614866565b8015610dcf5780601f10610da457610100808354040283529160200191610dcf565b820191906000526020600020905b815481529060010190602001808311610db257829003601f168201915b505050505081565b6000818152606760205260408120546001600160a01b0316806107f65760405162461bcd60e51b8152602060048201526018602482015277115490cdcc8c4e881a5b9d985b1a59081d1bdad95b88125160421b60448201526064016108df565b600080516020615158833981519152610e4f81611cab565b600082516001600160401b03811115610e6a57610e6a613ec4565b604051908082528060200260200182016040528015610e93578160200160208202803683370190505b50905060005b8451811015610f84576000610ee3868381518110610eb957610eb96148ce565b602002602001015161028b60008a81526020019081526020016000206121ae90919063ffffffff16565b90506000858381518110610ef957610ef96148ce565b602002602001015182610f0c919061497a565b9050610f4f878481518110610f2357610f236148ce565b60200260200101518261028b60008c81526020019081526020016000206122bf9092919063ffffffff16565b5080848481518110610f6357610f636148ce565b60200260200101818152505050508080610f7c906148fa565b915050610e99565b50847f4e6a5c2dd3dc8b445af3dc955aab13f1a33fa126563cd2e35fa638c689e951438583604051610fb7929190614992565b60405180910390a25050505050565b600080516020615138833981519152610fde81611cab565b610b09826122cc565b6060600082516001600160401b0381111561100457611004613ec4565b60405190808252806020026020018201604052801561103757816020015b60608152602001906001900390816110225790505b50905060005b83518110156110985761106884828151811061105b5761105b6148ce565b60200260200101516118aa565b82828151811061107a5761107a6148ce565b60200260200101819052508080611090906148fa565b91505061103d565b5092915050565b60006001600160a01b0382166111095760405162461bcd60e51b815260206004820152602960248201527f4552433732313a2061646472657373207a65726f206973206e6f7420612076616044820152683634b21037bbb732b960b91b60648201526084016108df565b506001600160a01b031660009081526068602052604090205490565b6102588054610d5690614866565b6000805160206150bb83398151915261114b81611cab565b61115482611cb5565b611162838360000151611f1d565b81516108f290611f37565b60008051602061515883398151915261118581611cab565b60005b83518110156111fe576111eb8482815181106111a6576111a66148ce565b60200260200101518483815181106111c0576111c06148ce565b602002602001015161028b60008981526020019081526020016000206122bf9092919063ffffffff16565b50806111f6816148fa565b915050611188565b50837f4e6a5c2dd3dc8b445af3dc955aab13f1a33fa126563cd2e35fa638c689e951438484604051611231929190614992565b60405180910390a250505050565b600054610100900460ff161580801561125f5750600054600160ff909116105b806112795750303b158015611279575060005460ff166001145b6112dc5760405162461bcd60e51b815260206004820152602e60248201527f496e697469616c697a61626c653a20636f6e747261637420697320616c72656160448201526d191e481a5b9a5d1a585b1a5e995960921b60648201526084016108df565b6000805460ff1916600117905580156112ff576000805461ff0019166101001790555b61133f6040518060400160405280600381526020016245766f60e81b8152506040518060400160405280600381526020016245766f60e81b8152506122e0565b611347612311565b61134f612342565b611357612371565b61135f612371565b611367612398565b6113a16040518060600160405280603d81526020016150fb603d91396040518060600160405280603d81526020016150fb603d91396123c7565b6113a9612417565b6113c673454a0e479ac78e508a95880216c06f50bf3c321c612446565b6113d1600033612168565b6113e960008051602061513883398151915233612168565b6114016000805160206150bb83398151915233612168565b61141960008051602061515883398151915233612168565b6114316000805160206150db83398151915233612168565b8015610b9b576000805461ff0019169055604051600181527f7f26b83ff96e1f2b6a682f133852f6798a09c465da95921460cefb38474024989060200160405180910390a150565b60008051602061513883398151915261149181611cab565b610b9b612496565b606060006114a68361109f565b90506000816001600160401b038111156114c2576114c2613ec4565b6040519080825280602002602001820160405280156114eb578160200160208202803683370190505b50905060005b828110156115325761150385826109f9565b828281518110611515576115156148ce565b60209081029190910101528061152a816148fa565b9150506114f1565b509392505050565b600061154581611cab565b600084815261028c602090815260408083208684528252909120835161156d92850190613c31565b5050505050565b600082815261015f6020526040812061158d90836124d3565b9392505050565b600091825261012d602090815260408084206001600160a01b0393909316845291905290205460ff1690565b6000805160206150db8339815191526115d881611cab565b6000828060200190518101906115ee9190614a96565b90506115f981611cb5565b6116038585611f1d565b61156d84611f37565b60606066805461080b90614866565b600061162681611cab565b60005b835181101561156d57828181518110611644576116446148ce565b602002602001015161028c60008781526020019081526020016000206000868481518110611674576116746148ce565b60200260200101518152602001908152602001600020908051906020019061169d929190613c31565b50806116a8816148fa565b915050611629565b606060006116bd836124df565b9050806040516020016116d091906146cb565b604051602081830303815290604052915050919050565b6000805160206151388339815191526116ff81611cab565b6108f261022583612790565b8161171861022582611b78565b156117355760405162461bcd60e51b81526004016108df906148a1565b6108f283836127a5565b60008051602061513883398151915261175781611cab565b610b09826127b0565b611768613cb5565b6107f6826124df565b61177a33610bc0565b6117965760405162461bcd60e51b81526004016108df90614915565b61099c848484846127c4565b6060600060015b6127108110156117f0576000818152606760205260409020546001600160a01b0316156117de57816117da816148fa565b9250505b806117e8816148fa565b9150506117a9565b506000816001600160401b0381111561180b5761180b613ec4565b604051908082528060200260200182016040528015611834578160200160208202803683370190505b509050600060015b6127108110156118a1576000818152606760205260409020546001600160a01b03161561188f5780838381518110611876576118766148ce565b60209081029190910101528161188b816148fa565b9250505b80611899816148fa565b91505061183c565b50909392505050565b606060006118b98360006127f7565b905060006118c8600083612810565b60408051601080825261022082019092529192509060009082816020015b61191360405180608001604052806060815260200160608152602001606081526020016000151581525090565b8152602001906001900390816118e657905050905060005b828110156119ad57604051806080016040528061194a6103e784612810565b81526040805160208181018352600082528301520161197161196c8a856127f7565b6128bf565b81526020016001151581525082828151811061198f5761198f6148ce565b602002602001018190525080806119a5906148fa565b91505061192b565b506119df86846040518060400160405280600d81526020016c45766f5665727365732045766f60981b815250846129bc565b9695505050505050565b600081815261015f602052604081206107f690612a08565b6060611a0e610191612a12565b905090565b600082815261012d6020526040902060010154611a2f81611cab565b6108f2838361218b565b6000611a0e610191612a08565b600080516020615138833981519152611a5e81611cab565b6108f261022583612a1f565b600080516020615158833981519152611a8281611cab565b600084815261028b60205260409020611a9c9084846122bf565b50604080518481526020810184905285917f43efe11319dda54ad41283fd13b0cebc5595ac12d761f4f7bfc9d529fa0f9c749101611231565b600063583e688d60e11b6001600160e01b03198316639b9284f960e01b1480611b0a57506001600160e01b0319838116908216145b8061158d575061158d83612a34565b6000818152606760205260409020546001600160a01b0316610b9b5760405162461bcd60e51b8152602060048201526018602482015277115490cdcc8c4e881a5b9d985b1a59081d1bdad95b88125160421b60448201526064016108df565b6001600160a01b0381166000908152600183016020526040812054151561158d565b6000611ba582610dd7565b9050806001600160a01b0316836001600160a01b03161415611c135760405162461bcd60e51b815260206004820152602160248201527f4552433732313a20617070726f76616c20746f2063757272656e74206f776e656044820152603960f91b60648201526084016108df565b336001600160a01b0382161480611c2f5750611c2f8133610797565b611ca15760405162461bcd60e51b815260206004820152603e60248201527f4552433732313a20617070726f76652063616c6c6572206973206e6f7420746f60448201527f6b656e206f776e6572206e6f7220617070726f76656420666f7220616c6c000060648201526084016108df565b6108f28383612a3f565b610b9b8133612aad565b6020808201518251600090815261028b90925260408220611cd79290916122bf565b5060808101516020908101518251600090815261028b9092526040909120611d01916001906122bf565b506080810151518151600090815261028b60205260409020611d25916002906122bf565b506040808201518251600090815261028b60205291909120611d49916003906122bf565b5060808101516040908101518251600090815261028b60205291909120611d72916004906122bf565b506080810151606001518151600090815261028b60205260409020611d99916005906122bf565b5060c0810151518151600090815261028b60205260409020611dbd916006906122bf565b5060608101518151600090815261028b60205260409020611de0916007906122bf565b5060808082015101518151600090815261028b60205260409020611e06916008906122bf565b5060a08101516020908101518251600090815261028b9092526040909120611e30916009906122bf565b5060a08101516040908101518251600090815261028b60205291909120611e5991600a906122bf565b5060a0810151606001518151600090815261028b60205260409020611e8091600b906122bf565b5060a0810151608001518151600090815261028b60205260409020611ea791600c906122bf565b5060a08082015101518151600090815261028b60205260409020611ecd91600d906122bf565b50608081015160a001518151600090815261028b60205260409020611ef491600e906122bf565b5060c08101516040908101518251600090815261028b60205291909120610b0991600f906122bf565b610b09828260405180602001604052806000815250612b11565b610b0961019182612b44565b600080611f4f83610dd7565b9050806001600160a01b0316846001600160a01b03161480611f9657506001600160a01b038082166000908152606a602090815260408083209388168352929052205460ff165b80610b735750836001600160a01b0316611faf8461088e565b6001600160a01b031614949350505050565b826001600160a01b0316611fd482610dd7565b6001600160a01b0316146120385760405162461bcd60e51b815260206004820152602560248201527f4552433732313a207472616e736665722066726f6d20696e636f72726563742060448201526437bbb732b960d91b60648201526084016108df565b6001600160a01b03821661209a5760405162461bcd60e51b8152602060048201526024808201527f4552433732313a207472616e7366657220746f20746865207a65726f206164646044820152637265737360e01b60648201526084016108df565b6120a5838383612b50565b6120b0600082612a3f565b6001600160a01b03831660009081526068602052604081208054600192906120d9908490614963565b90915550506001600160a01b038216600090815260686020526040812080546001929061210790849061497a565b909155505060008181526067602052604080822080546001600160a01b0319166001600160a01b0386811691821790925591518493918716917fddf252ad1be2c89b69c2b068fc378daa952ba7f163c4a11628f55a4df523b3ef91a4505050565b6121728282612c86565b600082815261015f602052604090206108f29082612790565b6121958282612d0d565b600082815261015f602052604090206108f29082612a1f565b600061158d8383612d75565b6121c2612de5565b60fb805460ff191690557f5db9ee0a495bf2e6ff9c91a7834c1ba4fdd244a5e8aa4e537bd38aeae4b073aa335b6040516001600160a01b03909116815260200160405180910390a1565b610b0961019182612e2e565b600061222382610dd7565b905061223181600084612b50565b61223c600083612a3f565b6001600160a01b0381166000908152606860205260408120805460019290612265908490614963565b909155505060008281526067602052604080822080546001600160a01b0319169055518391906001600160a01b038416907fddf252ad1be2c89b69c2b068fc378daa952ba7f163c4a11628f55a4df523b3ef908390a45050565b6000610b73848484612e3a565b8051610b0990610258906020840190613c31565b600054610100900460ff166123075760405162461bcd60e51b81526004016108df90614b25565b610b098282612e57565b600054610100900460ff166123385760405162461bcd60e51b81526004016108df90614b25565b612340612371565b565b600054610100900460ff166123695760405162461bcd60e51b81526004016108df90614b25565b612340612ea5565b600054610100900460ff166123405760405162461bcd60e51b81526004016108df90614b25565b600054610100900460ff166123bf5760405162461bcd60e51b81526004016108df90614b25565b612338612371565b600054610100900460ff166123ee5760405162461bcd60e51b81526004016108df90614b25565b815161240290610258906020850190613c31565b5080516108f290610259906020840190613c31565b600054610100900460ff1661243e5760405162461bcd60e51b81526004016108df90614b25565b612340612311565b600054610100900460ff1661246d5760405162461bcd60e51b81526004016108df90614b25565b61247681612ed8565b61247e612371565b610b9b6000805160206150db83398151915233612168565b61249e612f22565b60fb805460ff191660011790557f62e78cea01bee320cd4e420270b5ea74000d11b0c9f74754ebdbfc544b05a2586121ef3390565b600061158d8383612f68565b6124e7613cb5565b604080516080810182526000808252602080830182905282840182905260608301829052835160c08101855286835261028b9091529281209192909181906125309060026121ae565b8152600086815261028b602090815260409091209101906125529060016121ae565b8152600086815261028b602090815260409091209101906125749060046121ae565b8152600086815261028b602090815260409091209101906125969060056121ae565b8152600086815261028b602090815260409091209101906125b89060086121ae565b8152600086815261028b602090815260409091209101906125da90600e6121ae565b90526040805160c08101825260328152600087815261028b602090815292812093945092909182019061260e9060096121ae565b8152600087815261028b6020908152604090912091019061263090600a6121ae565b8152600087815261028b6020908152604090912091019061265290600b6121ae565b8152600087815261028b6020908152604090912091019061267490600c6121ae565b8152600087815261028b6020908152604090912091019061269690600d6121ae565b905260408051606081018252600088815261028b602052918220929350909181906126c29060066121ae565b81526020016126d088610b0d565b8152600088815261028b602090815260409091209101906126f290600f6121ae565b90526040805161010081018252888152600089815261028b602090815292812093945092909182019061272590846121ae565b8152600089815261028b602090815260409091209101906127479060036121ae565b8152600089815261028b602090815260409091209101906127699060076121ae565b81526020810195909552604085019390935250606083015260809091019190915292915050565b600061158d836001600160a01b038416612f92565b610b09338383612fe1565b8051610b0990610259906020840190613c31565b6127cf848484611fc1565b6127db848484846130b0565b61099c5760405162461bcd60e51b81526004016108df90614b70565b600082815261028b6020526040812061158d90836121ae565b600082815261028c60209081526040808320848452909152902080546060919061283990614866565b80601f016020809104026020016040519081016040528092919081815260200182805461286590614866565b80156128b25780601f10612887576101008083540402835291602001916128b2565b820191906000526020600020905b81548152906001019060200180831161289557829003601f168201915b5050505050905092915050565b6060816128e35750506040805180820190915260018152600360fc1b602082015290565b8160005b811561290d57806128f7816148fa565b91506129069050600a83614bd8565b91506128e7565b6000816001600160401b0381111561292757612927613ec4565b6040519080825280601f01601f191660200182016040528015612951576020820181803683370190505b5090505b8415610b7357612966600183614963565b9150612973600a86614bec565b61297e90603061497a565b60f81b818381518110612993576129936148ce565b60200101906001600160f81b031916908160001a9053506129b5600a86614bd8565b9450612955565b606060006129cb8686866131ba565b905060006129d88461324f565b905081816040516020016129ed929190614c1c565b60405160208183030381529060405292505050949350505050565b60006107f6825490565b6060600061158d83613443565b600061158d836001600160a01b03841661349f565b60006107f682613592565b600081815260696020526040902080546001600160a01b0319166001600160a01b0384169081179091558190612a7482610dd7565b6001600160a01b03167f8c5be1e5ebec7d5bd14f71427d1e84f3dd0314c0f7b2291e5b200ac8c7c3b92560405160405180910390a45050565b612ab78282611594565b610b0957612acf816001600160a01b031660146135b7565b612ada8360206135b7565b604051602001612aeb929190614c69565b60408051601f198184030181529082905262461bcd60e51b82526108df91600401613e52565b612b1b8383613752565b612b2860008484846130b0565b6108f25760405162461bcd60e51b81526004016108df90614b70565b600061158d838361349f565b612b58612f22565b82612b6561022582611b78565b15612b825760405162461bcd60e51b81526004016108df906148a1565b82612b8f61022582611b78565b15612bac5760405162461bcd60e51b81526004016108df906148a1565b848484731a0245f23056132fecc7098bb011c5c303ae06256032821180612bda57506001600160a01b038416155b80612bec57506001600160a01b038316155b80612c085750806001600160a01b0316846001600160a01b0316145b80612c245750806001600160a01b0316836001600160a01b0316145b612c705760405162461bcd60e51b815260206004820152601d60248201527f5465616d2045766f20617265206e6f6e2d7472616e7366657261626c6500000060448201526064016108df565b612c7b8989896138a0565b505050505050505050565b612c908282611594565b610b0957600082815261012d602090815260408083206001600160a01b03851684529091529020805460ff19166001179055612cc93390565b6001600160a01b0316816001600160a01b0316837f2f8788117e7eff1d82e926ec794901d17c78024a50270940304540a733656f0d60405160405180910390a45050565b612d178282611594565b15610b0957600082815261012d602090815260408083206001600160a01b0385168085529252808320805460ff1916905551339285917ff6391f5c32d9c69d2a47ea670b442974b53935d1edc7fd64eb21e047a839171b9190a45050565b600081815260028301602052604081205480151580612d995750612d9984846138ff565b61158d5760405162461bcd60e51b815260206004820152601e60248201527f456e756d657261626c654d61703a206e6f6e6578697374656e74206b6579000060448201526064016108df565b60fb5460ff166123405760405162461bcd60e51b815260206004820152601460248201527314185d5cd8589b194e881b9bdd081c185d5cd95960621b60448201526064016108df565b600061158d8383612f92565b60008281526002840160205260408120829055610b738484612e2e565b600054610100900460ff16612e7e5760405162461bcd60e51b81526004016108df90614b25565b8151612e91906065906020850190613c31565b5080516108f2906066906020840190613c31565b600054610100900460ff16612ecc5760405162461bcd60e51b81526004016108df90614b25565b60fb805460ff19169055565b600054610100900460ff16612eff5760405162461bcd60e51b81526004016108df90614b25565b6102bc80546001600160a01b0319166001600160a01b0392909216919091179055565b60fb5460ff16156123405760405162461bcd60e51b815260206004820152601060248201526f14185d5cd8589b194e881c185d5cd95960821b60448201526064016108df565b6000826000018281548110612f7f57612f7f6148ce565b9060005260206000200154905092915050565b6000818152600183016020526040812054612fd9575081546001818101845560008481526020808220909301849055845484825282860190935260409020919091556107f6565b5060006107f6565b816001600160a01b0316836001600160a01b031614156130435760405162461bcd60e51b815260206004820152601960248201527f4552433732313a20617070726f766520746f2063616c6c65720000000000000060448201526064016108df565b6001600160a01b038381166000818152606a6020908152604080832094871680845294825291829020805460ff191686151590811790915591519182527f17307eab39ab6107e8899845ad3d59bd9653f200f220920489ca2b5937696c31910160405180910390a3505050565b60006001600160a01b0384163b156131b257604051630a85bd0160e11b81526001600160a01b0385169063150b7a02906130f4903390899088908890600401614cde565b602060405180830381600087803b15801561310e57600080fd5b505af192505050801561313e575060408051601f3d908101601f1916820190925261313b91810190614d11565b60015b613198573d80801561316c576040519150601f19603f3d011682016040523d82523d6000602084013e613171565b606091505b5080516131905760405162461bcd60e51b81526004016108df90614b70565b805181602001fd5b6001600160e01b031916630a85bd0160e11b149050610b73565b506001610b73565b606060006102586131ca866128bf565b6040516020016131db929190614d2e565b604051602081830303815290604052905060006132086131fa87610dd7565b6001600160a01b031661390b565b905084613214876128bf565b8584846132208b6128bf565b60405160200161323596959493929190614dcc565b604051602081830303815290604052925050509392505050565b60408051602081019091526000808252606091905b83518110156134315760006001855161327d9190614963565b82146132a257604051806040016040528060018152602001600b60fa1b8152506132b3565b604051806020016040528060008152505b905060008583815181106132c9576132c96148ce565b6020026020010151606001516132f857604051806040016040528060018152602001601160f91b815250613309565b604051806020016040528060008152505b9050600081878581518110613320576133206148ce565b6020026020010151604001518360405160200161333f93929190614ee8565b60405160208183030381529060405290506000878581518110613364576133646148ce565b602002602001015160200151516000146133ba5787858151811061338a5761338a6148ce565b6020026020010151602001516040516020016133a69190614f2b565b6040516020818303038152906040526133cb565b604051806020016040528060008152505b90506000868987815181106133e2576133e26148ce565b602002602001015160000151838588604051602001613405959493929190614f71565b604051602081830303815290604052905080965050505050508080613429906148fa565b915050613264565b50806040516020016116d0919061502c565b60608160000180548060200260200160405190810160405280929190818152602001828054801561349357602002820191906000526020600020905b81548152602001906001019080831161347f575b50505050509050919050565b600081815260018301602052604081205480156135885760006134c3600183614963565b85549091506000906134d790600190614963565b905081811461353c5760008660000182815481106134f7576134f76148ce565b906000526020600020015490508087600001848154811061351a5761351a6148ce565b6000918252602080832090910192909255918252600188019052604090208390555b855486908061354d5761354d61506e565b6001900381819060005260206000200160009055905585600101600086815260200190815260200160002060009055600193505050506107f6565b60009150506107f6565b60006001600160e01b03198216635a05180f60e01b14806107f657506107f682613921565b606060006135c6836002615084565b6135d190600261497a565b6001600160401b038111156135e8576135e8613ec4565b6040519080825280601f01601f191660200182016040528015613612576020820181803683370190505b509050600360fc1b8160008151811061362d5761362d6148ce565b60200101906001600160f81b031916908160001a905350600f60fb1b8160018151811061365c5761365c6148ce565b60200101906001600160f81b031916908160001a9053506000613680846002615084565b61368b90600161497a565b90505b6001811115613703576f181899199a1a9b1b9c1cb0b131b232b360811b85600f16601081106136bf576136bf6148ce565b1a60f81b8282815181106136d5576136d56148ce565b60200101906001600160f81b031916908160001a90535060049490941c936136fc816150a3565b905061368e565b50831561158d5760405162461bcd60e51b815260206004820181905260248201527f537472696e67733a20686578206c656e67746820696e73756666696369656e7460448201526064016108df565b6001600160a01b0382166137a85760405162461bcd60e51b815260206004820181905260248201527f4552433732313a206d696e7420746f20746865207a65726f206164647265737360448201526064016108df565b6000818152606760205260409020546001600160a01b03161561380d5760405162461bcd60e51b815260206004820152601c60248201527f4552433732313a20746f6b656e20616c7265616479206d696e7465640000000060448201526064016108df565b61381960008383612b50565b6001600160a01b038216600090815260686020526040812080546001929061384290849061497a565b909155505060008181526067602052604080822080546001600160a01b0319166001600160a01b03861690811790915590518392907fddf252ad1be2c89b69c2b068fc378daa952ba7f163c4a11628f55a4df523b3ef908290a45050565b826138ad61022582611b78565b156138ca5760405162461bcd60e51b81526004016108df906148a1565b826138d761022582611b78565b156138f45760405162461bcd60e51b81526004016108df906148a1565b61156d858585613946565b600061158d8383613951565b60606107f66001600160a01b03831660146135b7565b60006001600160e01b03198216637965db0b60e01b14806107f657506107f682613969565b6108f2838383613974565b6000818152600183016020526040812054151561158d565b60006107f682613a2c565b6001600160a01b0383166139cf576139ca81609980546000838152609a60205260408120829055600182018355919091527f72a152ddfb8e864297c917af52ea6c1c68aead0fee1a62673fcc7e0c94979d000155565b6139f2565b816001600160a01b0316836001600160a01b0316146139f2576139f28382613a51565b6001600160a01b038216613a09576108f281613aee565b826001600160a01b0316826001600160a01b0316146108f2576108f28282613b9d565b60006001600160e01b0319821663780e9d6360e01b14806107f657506107f682613be1565b60006001613a5e8461109f565b613a689190614963565b600083815260986020526040902054909150808214613abb576001600160a01b03841660009081526097602090815260408083208584528252808320548484528184208190558352609890915290208190555b5060009182526098602090815260408084208490556001600160a01b039094168352609781528383209183525290812055565b609954600090613b0090600190614963565b6000838152609a602052604081205460998054939450909284908110613b2857613b286148ce565b906000526020600020015490508060998381548110613b4957613b496148ce565b6000918252602080832090910192909255828152609a90915260408082208490558582528120556099805480613b8157613b8161506e565b6001900381819060005260206000200160009055905550505050565b6000613ba88361109f565b6001600160a01b039093166000908152609760209081526040808320868452825280832085905593825260989052919091209190915550565b60006001600160e01b031982166380ac58cd60e01b1480613c1257506001600160e01b03198216635b5e139f60e01b145b806107f657506301ffc9a760e01b6001600160e01b03198316146107f6565b828054613c3d90614866565b90600052602060002090601f016020900481019282613c5f5760008555613ca5565b82601f10613c7857805160ff1916838001178555613ca5565b82800160010185558215613ca5579182015b82811115613ca5578251825591602001919060010190613c8a565b50613cb1929150613db2565b5090565b60405180610100016040528060008152602001600081526020016000815260200160008152602001613d166040518060c001604052806000815260200160008152602001600081526020016000815260200160008152602001600081525090565b8152602001613d546040518060c001604052806000815260200160008152602001600081526020016000815260200160008152602001600081525090565b8152602001613d7d60405180606001604052806000815260200160008152602001600081525090565b8152602001613dad6040518060800160405280600081526020016000815260200160008152602001600081525090565b905290565b5b80821115613cb15760008155600101613db3565b6001600160e01b031981168114610b9b57600080fd5b600060208284031215613def57600080fd5b813561158d81613dc7565b60005b83811015613e15578181015183820152602001613dfd565b8381111561099c5750506000910152565b60008151808452613e3e816020860160208601613dfa565b601f01601f19169290920160200192915050565b60208152600061158d6020830184613e26565b600060208284031215613e7757600080fd5b5035919050565b80356001600160a01b0381168114613e9557600080fd5b919050565b60008060408385031215613ead57600080fd5b613eb683613e7e565b946020939093013593505050565b634e487b7160e01b600052604160045260246000fd5b60405160c081016001600160401b0381118282101715613efc57613efc613ec4565b60405290565b604051606081016001600160401b0381118282101715613efc57613efc613ec4565b604051608081016001600160401b0381118282101715613efc57613efc613ec4565b60405161010081016001600160401b0381118282101715613efc57613efc613ec4565b604051601f8201601f191681016001600160401b0381118282101715613f9157613f91613ec4565b604052919050565b60006001600160401b03821115613fb257613fb2613ec4565b5060051b60200190565b600060c08284031215613fce57600080fd5b613fd6613eda565b9050813581526020820135602082015260408201356040820152606082013560608201526080820135608082015260a082013560a082015292915050565b60006060828403121561402657600080fd5b61402e613f02565b905081358152602082013560208201526040820135604082015292915050565b60006080828403121561406057600080fd5b614068613f24565b90508135815260208201356020820152604082013560408201526060820135606082015292915050565b60006102e082840312156140a557600080fd5b6140ad613f46565b9050813581526020820135602082015260408201356040820152606082013560608201526140de8360808401613fbc565b60808201526140f1836101408401613fbc565b60a0820152614104836102008401614014565b60c082015261411783610260840161404e565b60e082015292915050565b6000806040838503121561413557600080fd5b61413e83613e7e565b91506020808401356001600160401b0381111561415a57600080fd5b8401601f8101861361416b57600080fd5b803561417e61417982613f99565b613f69565b8181526102e0918202830184019184820191908984111561419e57600080fd5b938501935b838510156141c4576141b58a86614092565b835293840193918501916141a3565b5080955050505050509250929050565b6000806000606084860312156141e957600080fd5b6141f284613e7e565b925061420060208501613e7e565b9150604084013590509250925092565b6000806040838503121561422357600080fd5b8235915061423360208401613e7e565b90509250929050565b60008060006060848603121561425157600080fd5b505081359360208301359350604090920135919050565b600082601f83011261427957600080fd5b8135602061428961417983613f99565b82815260059290921b840181019181810190868411156142a857600080fd5b8286015b848110156142c357803583529183019183016142ac565b509695505050505050565b6000806000606084860312156142e357600080fd5b8335925060208401356001600160401b038082111561430157600080fd5b61430d87838801614268565b9350604086013591508082111561432357600080fd5b5061433086828701614268565b9150509250925092565b600082601f83011261434b57600080fd5b81356001600160401b0381111561436457614364613ec4565b614377601f8201601f1916602001613f69565b81815284602083860101111561438c57600080fd5b816020850160208301376000918101602001919091529392505050565b6000602082840312156143bb57600080fd5b81356001600160401b038111156143d157600080fd5b610b738482850161433a565b6000602082840312156143ef57600080fd5b81356001600160401b0381111561440557600080fd5b610b7384828501614268565b6000602080830181845280855180835260408601915060408160051b870101925083870160005b8281101561446657603f19888603018452614454858351613e26565b94509285019290850190600101614438565b5092979650505050505050565b60006020828403121561448557600080fd5b61158d82613e7e565b60008061030083850312156144a257600080fd5b6144ab83613e7e565b91506142338460208501614092565b600081518084526020808501945080840160005b838110156144ea578151875295820195908201906001016144ce565b509495945050505050565b60208152600061158d60208301846144ba565b60008060006060848603121561451d57600080fd5b833592506020840135915060408401356001600160401b0381111561454157600080fd5b6143308682870161433a565b6000806040838503121561456057600080fd5b50508035926020909101359150565b60008060006060848603121561458457600080fd5b61458d84613e7e565b92506020840135915060408401356001600160401b0381111561454157600080fd5b6000806000606084860312156145c457600080fd5b833592506020808501356001600160401b03808211156145e357600080fd5b6145ef88838901614268565b9450604087013591508082111561460557600080fd5b818701915087601f83011261461957600080fd5b813561462761417982613f99565b81815260059190911b8301840190848101908a83111561464657600080fd5b8585015b8381101561467e578035858111156146625760008081fd5b6146708d89838a010161433a565b84525091860191860161464a565b508096505050505050509250925092565b600080604083850312156146a257600080fd5b6146ab83613e7e565b9150602083013580151581146146c057600080fd5b809150509250929050565b60006102e08201905082518252602083015160208301526040830151604083015260608301516060830152608083015161473d6080840182805182526020810151602083015260408101516040830152606081015160608301526080810151608083015260a081015160a08301525050565b5060a08381015180516101408501526020808201516101608601526040808301516101808701526060808401516101a088015260808401516101c088015292909301516101e086015260c086015180516102008701528082015161022087015283015161024086015260e0860151805161026087015290810151610280860152918201516102a08501528101516102c0840152611098565b600080600080608085870312156147eb57600080fd5b6147f485613e7e565b935061480260208601613e7e565b92506040850135915060608501356001600160401b0381111561482457600080fd5b6148308782880161433a565b91505092959194509250565b6000806040838503121561484f57600080fd5b61485883613e7e565b915061423360208401613e7e565b600181811c9082168061487a57607f821691505b6020821081141561489b57634e487b7160e01b600052602260045260246000fd5b50919050565b602080825260139082015272426c61636b6c6973746564206164647265737360681b604082015260600190565b634e487b7160e01b600052603260045260246000fd5b634e487b7160e01b600052601160045260246000fd5b600060001982141561490e5761490e6148e4565b5060010190565b6020808252602e908201527f4552433732313a2063616c6c6572206973206e6f7420746f6b656e206f776e6560408201526d1c881b9bdc88185c1c1c9bdd995960921b606082015260800190565b600082821015614975576149756148e4565b500390565b6000821982111561498d5761498d6148e4565b500190565b6040815260006149a560408301856144ba565b82810360208401526149b781856144ba565b95945050505050565b600060c082840312156149d257600080fd5b6149da613eda565b9050815181526020820151602082015260408201516040820152606082015160608201526080820151608082015260a082015160a082015292915050565b600060608284031215614a2a57600080fd5b614a32613f02565b905081518152602082015160208201526040820151604082015292915050565b600060808284031215614a6457600080fd5b614a6c613f24565b90508151815260208201516020820152604082015160408201526060820151606082015292915050565b60006102e08284031215614aa957600080fd5b614ab1613f46565b82518152602083015160208201526040830151604082015260608301516060820152614ae084608085016149c0565b6080820152614af38461014085016149c0565b60a0820152614b06846102008501614a18565b60c0820152614b19846102608501614a52565b60e08201529392505050565b6020808252602b908201527f496e697469616c697a61626c653a20636f6e7472616374206973206e6f74206960408201526a6e697469616c697a696e6760a81b606082015260800190565b60208082526032908201527f4552433732313a207472616e7366657220746f206e6f6e20455243373231526560408201527131b2b4bb32b91034b6b83632b6b2b73a32b960711b606082015260800190565b634e487b7160e01b600052601260045260246000fd5b600082614be757614be7614bc2565b500490565b600082614bfb57614bfb614bc2565b500690565b60008151614c12818560208601613dfa565b9290920192915050565b607b60f81b815260008351614c38816001850160208801613dfa565b835190830190614c4f816001840160208801613dfa565b607d60f81b60019290910191820152600201949350505050565b7f416363657373436f6e74726f6c3a206163636f756e7420000000000000000000815260008351614ca1816017850160208801613dfa565b7001034b99036b4b9b9b4b733903937b6329607d1b6017918401918201528351614cd2816028840160208801613dfa565b01602801949350505050565b6001600160a01b03858116825284166020820152604081018390526080606082018190526000906119df90830184613e26565b600060208284031215614d2357600080fd5b815161158d81613dc7565b600080845481600182811c915080831680614d4a57607f831692505b6020808410821415614d6a57634e487b7160e01b86526022600452602486fd5b818015614d7e5760018114614d8f57614dbc565b60ff19861689528489019650614dbc565b60008b81526020902060005b86811015614db45781548b820152908501908301614d9b565b505084890196505b5050505050506149b78185614c00565b67113730b6b2911d1160c11b81528651600090614df0816008850160208c01613dfa565b61202360f01b6008918401918201528751614e1281600a840160208c01613dfa565b61088b60f21b600a929091019182018190526e113232b9b1b934b83a34b7b7111d1160891b600c8301528751614e4f81601b850160208c01613dfa565b601b920191820152681134b6b0b3b2911d1160b91b601d820152614edb614ece614ec8614eb2614e89614eac614e9782602689018e614c00565b61088b60f21b815260020190565b681137bbb732b9111d1160b91b815260090190565b8a614c00565b69113a37b5b2b724b2111d60b11b8152600a0190565b86614c00565b600b60fa1b815260010190565b9998505050505050505050565b60008451614efa818460208901613dfa565b845190830190614f0e818360208901613dfa565b8451910190614f21818360208801613dfa565b0195945050505050565b703d913234b9b83630bcafba3cb832911d1160791b81528151600090614f58816011850160208701613dfa565b61088b60f21b6011939091019283015250601301919050565b60008651614f83818460208b01613dfa565b6e3d913a3930b4ba2fba3cb832911d1160891b9083019081528651614faf81600f840160208b01613dfa565b61088b60f21b600f92909101918201528551614fd2816011840160208a01613dfa565b67113b30b63ab2911d60c11b601192909101918201528451614ffb816019840160208901613dfa565b607d60f81b60199290910191820152835161501d81601a840160208801613dfa565b01601a01979650505050505050565b6d2261747472696275746573223a5b60901b8152815160009061505681600e850160208701613dfa565b605d60f81b600e939091019283015250600f01919050565b634e487b7160e01b600052603160045260246000fd5b600081600019048311821515161561509e5761509e6148e4565b500290565b6000816150b2576150b26148e4565b50600019019056fe9f2df0fed2c77648de5860a4cc508cd0818c85b8b8a1ab4ceeef8d981c8956a652ba824bfabc2bcfcdf7f0edbb486ebb05e1836c90e78047efeb949990f72e5f68747470733a2f2f6769746875622e636f6d2f45766f5665727365732f7075626c69632d6173736574732f7261772f6d61696e2f6e6674732f45766f2fa49807205ce4d355092ef5a8a18f56e8913cf4a201fbe287825b095693c21775364d3d7565c7a8300c96fd53e065d19b65848d7b23b3191adcd55621c744223ca2646970667358221220aabed777ae78652d7ce7c2c8bd6bf37dc09822e98a22bc08e834839ad3b610cf64736f6c63430008090033",
  "linkReferences": {},
  "deployedLinkReferences": {}
}