{
  "_format": "hh-sol-artifact-1",
  "contractName": "EvoL2",
  "sourceName": "contracts/ERC721/Evo/EvoL2.sol",
  "abi": [
    {
      "inputs": [],
      "stateMutability": "nonpayable",
      "type": "constructor"
    },
    {
      "anonymous": false,
      "inputs": [
        {
          "indexed": true,
          "internalType": "address",
          "name": "owner",
          "type": "address"
        },
        {
          "indexed": true,
          "internalType": "address",
          "name": "approved",
          "type": "address"
        },
        {
          "indexed": true,
          "internalType": "uint256",
          "name": "tokenId",
          "type": "uint256"
        }
      ],
      "name": "Approval",
      "type": "event"
    },
    {
      "anonymous": false,
      "inputs": [
        {
          "indexed": true,
          "internalType": "address",
          "name": "owner",
          "type": "address"
        },
        {
          "indexed": true,
          "internalType": "address",
          "name": "operator",
          "type": "address"
        },
        {
          "indexed": false,
          "internalType": "bool",
          "name": "approved",
          "type": "bool"
        }
      ],
      "name": "ApprovalForAll",
      "type": "event"
    },
    {
      "anonymous": false,
      "inputs": [
        {
          "indexed": true,
          "internalType": "uint256",
          "name": "tokenId",
          "type": "uint256"
        },
        {
          "indexed": false,
          "internalType": "uint256",
          "name": "attributeId",
          "type": "uint256"
        },
        {
          "indexed": false,
          "internalType": "string",
          "name": "value",
          "type": "string"
        }
      ],
      "name": "EvoAttributeStringUpdated",
      "type": "event"
    },
    {
      "anonymous": false,
      "inputs": [
        {
          "indexed": true,
          "internalType": "uint256",
          "name": "tokenId",
          "type": "uint256"
        },
        {
          "indexed": false,
          "internalType": "uint256[]",
          "name": "attributeIds",
          "type": "uint256[]"
        },
        {
          "indexed": false,
          "internalType": "string[]",
          "name": "value",
          "type": "string[]"
        }
      ],
      "name": "EvoAttributeStringsUpdated",
      "type": "event"
    },
    {
      "anonymous": false,
      "inputs": [
        {
          "indexed": true,
          "internalType": "uint256",
          "name": "tokenId",
          "type": "uint256"
        },
        {
          "indexed": false,
          "internalType": "uint256",
          "name": "attributeId",
          "type": "uint256"
        },
        {
          "indexed": false,
          "internalType": "uint256",
          "name": "value",
          "type": "uint256"
        }
      ],
      "name": "EvoAttributeUpdated",
      "type": "event"
    },
    {
      "anonymous": false,
      "inputs": [
        {
          "indexed": true,
          "internalType": "uint256",
          "name": "tokenId",
          "type": "uint256"
        },
        {
          "indexed": false,
          "internalType": "uint256[]",
          "name": "attributeId",
          "type": "uint256[]"
        },
        {
          "indexed": false,
          "internalType": "uint256[]",
          "name": "value",
          "type": "uint256[]"
        }
      ],
      "name": "EvoAttributesUpdated",
      "type": "event"
    },
    {
      "anonymous": false,
      "inputs": [
        {
          "indexed": true,
          "internalType": "address",
          "name": "from",
          "type": "address"
        },
        {
          "indexed": true,
          "internalType": "uint256",
          "name": "tokenId",
          "type": "uint256"
        },
        {
          "components": [
            {
              "internalType": "uint256",
              "name": "tokenId",
              "type": "uint256"
            },
            {
              "internalType": "uint256",
              "name": "species",
              "type": "uint256"
            },
            {
              "internalType": "uint256",
              "name": "generation",
              "type": "uint256"
            },
            {
              "internalType": "uint256",
              "name": "experience",
              "type": "uint256"
            },
            {
              "components": [
                {
                  "internalType": "uint256",
                  "name": "gender",
                  "type": "uint256"
                },
                {
                  "internalType": "uint256",
                  "name": "rarity",
                  "type": "uint256"
                },
                {
                  "internalType": "uint256",
                  "name": "primaryType",
                  "type": "uint256"
                },
                {
                  "internalType": "uint256",
                  "name": "secondaryType",
                  "type": "uint256"
                },
                {
                  "internalType": "uint256",
                  "name": "nature",
                  "type": "uint256"
                },
                {
                  "internalType": "uint256",
                  "name": "size",
                  "type": "uint256"
                }
              ],
              "internalType": "struct EvoStructs.Attributes",
              "name": "attributes",
              "type": "tuple"
            },
            {
              "components": [
                {
                  "internalType": "uint256",
                  "name": "health",
                  "type": "uint256"
                },
                {
                  "internalType": "uint256",
                  "name": "attack",
                  "type": "uint256"
                },
                {
                  "internalType": "uint256",
                  "name": "defense",
                  "type": "uint256"
                },
                {
                  "internalType": "uint256",
                  "name": "special",
                  "type": "uint256"
                },
                {
                  "internalType": "uint256",
                  "name": "resistance",
                  "type": "uint256"
                },
                {
                  "internalType": "uint256",
                  "name": "speed",
                  "type": "uint256"
                }
              ],
              "internalType": "struct EvoStructs.Stats",
              "name": "stats",
              "type": "tuple"
            },
            {
              "components": [
                {
                  "internalType": "uint256",
                  "name": "total",
                  "type": "uint256"
                },
                {
                  "internalType": "uint256",
                  "name": "remaining",
                  "type": "uint256"
                },
                {
                  "internalType": "uint256",
                  "name": "lastBreedTime",
                  "type": "uint256"
                }
              ],
              "internalType": "struct EvoStructs.Breeds",
              "name": "breeds",
              "type": "tuple"
            },
            {
              "components": [
                {
                  "internalType": "uint256",
                  "name": "move0",
                  "type": "uint256"
                },
                {
                  "internalType": "uint256",
                  "name": "move1",
                  "type": "uint256"
                },
                {
                  "internalType": "uint256",
                  "name": "move2",
                  "type": "uint256"
                },
                {
                  "internalType": "uint256",
                  "name": "move3",
                  "type": "uint256"
                }
              ],
              "internalType": "struct EvoStructs.Moves",
              "name": "moves",
              "type": "tuple"
            }
          ],
          "indexed": false,
          "internalType": "struct EvoStructs.Evo",
          "name": "evo",
          "type": "tuple"
        }
      ],
      "name": "EvoMigrated",
      "type": "event"
    },
    {
      "anonymous": false,
      "inputs": [
        {
          "indexed": false,
          "internalType": "uint8",
          "name": "version",
          "type": "uint8"
        }
      ],
      "name": "Initialized",
      "type": "event"
    },
    {
      "anonymous": false,
      "inputs": [
        {
          "indexed": false,
          "internalType": "address",
          "name": "account",
          "type": "address"
        }
      ],
      "name": "Paused",
      "type": "event"
    },
    {
      "anonymous": false,
      "inputs": [
        {
          "indexed": true,
          "internalType": "bytes32",
          "name": "role",
          "type": "bytes32"
        },
        {
          "indexed": true,
          "internalType": "bytes32",
          "name": "previousAdminRole",
          "type": "bytes32"
        },
        {
          "indexed": true,
          "internalType": "bytes32",
          "name": "newAdminRole",
          "type": "bytes32"
        }
      ],
      "name": "RoleAdminChanged",
      "type": "event"
    },
    {
      "anonymous": false,
      "inputs": [
        {
          "indexed": true,
          "internalType": "bytes32",
          "name": "role",
          "type": "bytes32"
        },
        {
          "indexed": true,
          "internalType": "address",
          "name": "account",
          "type": "address"
        },
        {
          "indexed": true,
          "internalType": "address",
          "name": "sender",
          "type": "address"
        }
      ],
      "name": "RoleGranted",
      "type": "event"
    },
    {
      "anonymous": false,
      "inputs": [
        {
          "indexed": true,
          "internalType": "bytes32",
          "name": "role",
          "type": "bytes32"
        },
        {
          "indexed": true,
          "internalType": "address",
          "name": "account",
          "type": "address"
        },
        {
          "indexed": true,
          "internalType": "address",
          "name": "sender",
          "type": "address"
        }
      ],
      "name": "RoleRevoked",
      "type": "event"
    },
    {
      "anonymous": false,
      "inputs": [
        {
          "indexed": true,
          "internalType": "address",
          "name": "from",
          "type": "address"
        },
        {
          "indexed": true,
          "internalType": "address",
          "name": "to",
          "type": "address"
        },
        {
          "indexed": true,
          "internalType": "uint256",
          "name": "tokenId",
          "type": "uint256"
        }
      ],
      "name": "Transfer",
      "type": "event"
    },
    {
      "anonymous": false,
      "inputs": [
        {
          "indexed": false,
          "internalType": "address",
          "name": "account",
          "type": "address"
        }
      ],
      "name": "Unpaused",
      "type": "event"
    },
    {
      "inputs": [],
      "name": "ADMIN_ROLE",
      "outputs": [
        {
          "internalType": "bytes32",
          "name": "",
          "type": "bytes32"
        }
      ],
      "stateMutability": "view",
      "type": "function"
    },
    {
      "inputs": [],
      "name": "BRIDGE_ROLE",
      "outputs": [
        {
          "internalType": "bytes32",
          "name": "",
          "type": "bytes32"
        }
      ],
      "stateMutability": "view",
      "type": "function"
    },
    {
      "inputs": [],
      "name": "CONTRACT_ROLE",
      "outputs": [
        {
          "internalType": "bytes32",
          "name": "",
          "type": "bytes32"
        }
      ],
      "stateMutability": "view",
      "type": "function"
    },
    {
      "inputs": [],
      "name": "DEFAULT_ADMIN_ROLE",
      "outputs": [
        {
          "internalType": "bytes32",
          "name": "",
          "type": "bytes32"
        }
      ],
      "stateMutability": "view",
      "type": "function"
    },
    {
      "inputs": [],
      "name": "MINTER_ROLE",
      "outputs": [
        {
          "internalType": "bytes32",
          "name": "",
          "type": "bytes32"
        }
      ],
      "stateMutability": "view",
      "type": "function"
    },
    {
      "inputs": [
        {
          "internalType": "address",
          "name": "_address",
          "type": "address"
        }
      ],
      "name": "addBlacklist",
      "outputs": [],
      "stateMutability": "nonpayable",
      "type": "function"
    },
    {
      "inputs": [
        {
          "internalType": "uint256",
          "name": "tokenId",
          "type": "uint256"
        },
        {
          "internalType": "uint256",
          "name": "attributeId",
          "type": "uint256"
        },
        {
          "internalType": "uint256",
          "name": "value",
          "type": "uint256"
        }
      ],
      "name": "addToAttribute",
      "outputs": [],
      "stateMutability": "nonpayable",
      "type": "function"
    },
    {
      "inputs": [
        {
          "internalType": "uint256[]",
          "name": "tokenIds",
          "type": "uint256[]"
        }
      ],
      "name": "adminMigrate",
      "outputs": [],
      "stateMutability": "nonpayable",
      "type": "function"
    },
    {
      "inputs": [],
      "name": "animationBaseURI",
      "outputs": [
        {
          "internalType": "string",
          "name": "",
          "type": "string"
        }
      ],
      "stateMutability": "view",
      "type": "function"
    },
    {
      "inputs": [
        {
          "internalType": "address",
          "name": "to",
          "type": "address"
        },
        {
          "internalType": "uint256",
          "name": "tokenId",
          "type": "uint256"
        }
      ],
      "name": "approve",
      "outputs": [],
      "stateMutability": "nonpayable",
      "type": "function"
    },
    {
      "inputs": [
        {
          "internalType": "address",
          "name": "owner",
          "type": "address"
        }
      ],
      "name": "balanceOf",
      "outputs": [
        {
          "internalType": "uint256",
          "name": "",
          "type": "uint256"
        }
      ],
      "stateMutability": "view",
      "type": "function"
    },
    {
      "inputs": [
        {
          "internalType": "uint256",
          "name": "tokenId",
          "type": "uint256"
        },
        {
          "internalType": "uint256[]",
          "name": "attributeIds",
          "type": "uint256[]"
        },
        {
          "internalType": "uint256[]",
          "name": "values",
          "type": "uint256[]"
        }
      ],
      "name": "batchAddToAttribute",
      "outputs": [],
      "stateMutability": "nonpayable",
      "type": "function"
    },
    {
      "inputs": [
        {
          "internalType": "address",
          "name": "_address",
          "type": "address"
        },
        {
          "components": [
            {
              "internalType": "uint256",
              "name": "tokenId",
              "type": "uint256"
            },
            {
              "internalType": "uint256",
              "name": "species",
              "type": "uint256"
            },
            {
              "internalType": "uint256",
              "name": "generation",
              "type": "uint256"
            },
            {
              "internalType": "uint256",
              "name": "experience",
              "type": "uint256"
            },
            {
              "components": [
                {
                  "internalType": "uint256",
                  "name": "gender",
                  "type": "uint256"
                },
                {
                  "internalType": "uint256",
                  "name": "rarity",
                  "type": "uint256"
                },
                {
                  "internalType": "uint256",
                  "name": "primaryType",
                  "type": "uint256"
                },
                {
                  "internalType": "uint256",
                  "name": "secondaryType",
                  "type": "uint256"
                },
                {
                  "internalType": "uint256",
                  "name": "nature",
                  "type": "uint256"
                },
                {
                  "internalType": "uint256",
                  "name": "size",
                  "type": "uint256"
                }
              ],
              "internalType": "struct EvoStructs.Attributes",
              "name": "attributes",
              "type": "tuple"
            },
            {
              "components": [
                {
                  "internalType": "uint256",
                  "name": "health",
                  "type": "uint256"
                },
                {
                  "internalType": "uint256",
                  "name": "attack",
                  "type": "uint256"
                },
                {
                  "internalType": "uint256",
                  "name": "defense",
                  "type": "uint256"
                },
                {
                  "internalType": "uint256",
                  "name": "special",
                  "type": "uint256"
                },
                {
                  "internalType": "uint256",
                  "name": "resistance",
                  "type": "uint256"
                },
                {
                  "internalType": "uint256",
                  "name": "speed",
                  "type": "uint256"
                }
              ],
              "internalType": "struct EvoStructs.Stats",
              "name": "stats",
              "type": "tuple"
            },
            {
              "components": [
                {
                  "internalType": "uint256",
                  "name": "total",
                  "type": "uint256"
                },
                {
                  "internalType": "uint256",
                  "name": "remaining",
                  "type": "uint256"
                },
                {
                  "internalType": "uint256",
                  "name": "lastBreedTime",
                  "type": "uint256"
                }
              ],
              "internalType": "struct EvoStructs.Breeds",
              "name": "breeds",
              "type": "tuple"
            },
            {
              "components": [
                {
                  "internalType": "uint256",
                  "name": "move0",
                  "type": "uint256"
                },
                {
                  "internalType": "uint256",
                  "name": "move1",
                  "type": "uint256"
                },
                {
                  "internalType": "uint256",
                  "name": "move2",
                  "type": "uint256"
                },
                {
                  "internalType": "uint256",
                  "name": "move3",
                  "type": "uint256"
                }
              ],
              "internalType": "struct EvoStructs.Moves",
              "name": "moves",
              "type": "tuple"
            }
          ],
          "internalType": "struct EvoStructs.Evo[]",
          "name": "evos",
          "type": "tuple[]"
        }
      ],
      "name": "batchMint",
      "outputs": [],
      "stateMutability": "nonpayable",
      "type": "function"
    },
    {
      "inputs": [
        {
          "internalType": "uint256",
          "name": "tokenId",
          "type": "uint256"
        },
        {
          "internalType": "uint256[]",
          "name": "attributeIds",
          "type": "uint256[]"
        },
        {
          "internalType": "uint256[]",
          "name": "values",
          "type": "uint256[]"
        }
      ],
      "name": "batchSetAttribute",
      "outputs": [],
      "stateMutability": "nonpayable",
      "type": "function"
    },
    {
      "inputs": [
        {
          "internalType": "uint256",
          "name": "attributeId",
          "type": "uint256"
        },
        {
          "internalType": "uint256[]",
          "name": "indices",
          "type": "uint256[]"
        },
        {
          "internalType": "string[]",
          "name": "values",
          "type": "string[]"
        }
      ],
      "name": "batchSetAttributeStrings",
      "outputs": [],
      "stateMutability": "nonpayable",
      "type": "function"
    },
    {
      "inputs": [
        {
          "internalType": "uint256[]",
          "name": "tokenIds",
          "type": "uint256[]"
        }
      ],
      "name": "batchTokenURI",
      "outputs": [
        {
          "internalType": "string[]",
          "name": "",
          "type": "string[]"
        }
      ],
      "stateMutability": "view",
      "type": "function"
    },
    {
      "inputs": [
        {
          "internalType": "uint256",
          "name": "tokenId",
          "type": "uint256"
        }
      ],
      "name": "bridgeExtraData",
      "outputs": [
        {
          "internalType": "bytes",
          "name": "",
          "type": "bytes"
        }
      ],
      "stateMutability": "view",
      "type": "function"
    },
    {
      "inputs": [
        {
          "internalType": "uint256",
          "name": "tokenId",
          "type": "uint256"
        }
      ],
      "name": "burn",
      "outputs": [],
      "stateMutability": "nonpayable",
      "type": "function"
    },
    {
      "inputs": [],
      "name": "burnedIds",
      "outputs": [
        {
          "internalType": "uint256[]",
          "name": "",
          "type": "uint256[]"
        }
      ],
      "stateMutability": "view",
      "type": "function"
    },
    {
      "inputs": [],
      "name": "getAllTokenIds",
      "outputs": [
        {
          "internalType": "uint256[]",
          "name": "",
          "type": "uint256[]"
        }
      ],
      "stateMutability": "view",
      "type": "function"
    },
    {
      "inputs": [
        {
          "internalType": "uint256",
          "name": "tokenId",
          "type": "uint256"
        }
      ],
      "name": "getApproved",
      "outputs": [
        {
          "internalType": "address",
          "name": "",
          "type": "address"
        }
      ],
      "stateMutability": "view",
      "type": "function"
    },
    {
      "inputs": [
        {
          "internalType": "uint256",
          "name": "tokenId",
          "type": "uint256"
        }
      ],
      "name": "getEvo",
      "outputs": [
        {
          "components": [
            {
              "internalType": "uint256",
              "name": "tokenId",
              "type": "uint256"
            },
            {
              "internalType": "uint256",
              "name": "species",
              "type": "uint256"
            },
            {
              "internalType": "uint256",
              "name": "generation",
              "type": "uint256"
            },
            {
              "internalType": "uint256",
              "name": "experience",
              "type": "uint256"
            },
            {
              "components": [
                {
                  "internalType": "uint256",
                  "name": "gender",
                  "type": "uint256"
                },
                {
                  "internalType": "uint256",
                  "name": "rarity",
                  "type": "uint256"
                },
                {
                  "internalType": "uint256",
                  "name": "primaryType",
                  "type": "uint256"
                },
                {
                  "internalType": "uint256",
                  "name": "secondaryType",
                  "type": "uint256"
                },
                {
                  "internalType": "uint256",
                  "name": "nature",
                  "type": "uint256"
                },
                {
                  "internalType": "uint256",
                  "name": "size",
                  "type": "uint256"
                }
              ],
              "internalType": "struct EvoStructs.Attributes",
              "name": "attributes",
              "type": "tuple"
            },
            {
              "components": [
                {
                  "internalType": "uint256",
                  "name": "health",
                  "type": "uint256"
                },
                {
                  "internalType": "uint256",
                  "name": "attack",
                  "type": "uint256"
                },
                {
                  "internalType": "uint256",
                  "name": "defense",
                  "type": "uint256"
                },
                {
                  "internalType": "uint256",
                  "name": "special",
                  "type": "uint256"
                },
                {
                  "internalType": "uint256",
                  "name": "resistance",
                  "type": "uint256"
                },
                {
                  "internalType": "uint256",
                  "name": "speed",
                  "type": "uint256"
                }
              ],
              "internalType": "struct EvoStructs.Stats",
              "name": "stats",
              "type": "tuple"
            },
            {
              "components": [
                {
                  "internalType": "uint256",
                  "name": "total",
                  "type": "uint256"
                },
                {
                  "internalType": "uint256",
                  "name": "remaining",
                  "type": "uint256"
                },
                {
                  "internalType": "uint256",
                  "name": "lastBreedTime",
                  "type": "uint256"
                }
              ],
              "internalType": "struct EvoStructs.Breeds",
              "name": "breeds",
              "type": "tuple"
            },
            {
              "components": [
                {
                  "internalType": "uint256",
                  "name": "move0",
                  "type": "uint256"
                },
                {
                  "internalType": "uint256",
                  "name": "move1",
                  "type": "uint256"
                },
                {
                  "internalType": "uint256",
                  "name": "move2",
                  "type": "uint256"
                },
                {
                  "internalType": "uint256",
                  "name": "move3",
                  "type": "uint256"
                }
              ],
              "internalType": "struct EvoStructs.Moves",
              "name": "moves",
              "type": "tuple"
            }
          ],
          "internalType": "struct EvoStructs.Evo",
          "name": "",
          "type": "tuple"
        }
      ],
      "stateMutability": "view",
      "type": "function"
    },
    {
      "inputs": [
        {
          "internalType": "uint256",
          "name": "tokenId",
          "type": "uint256"
        }
      ],
      "name": "getRemainingSummons",
      "outputs": [
        {
          "internalType": "uint256",
          "name": "",
          "type": "uint256"
        }
      ],
      "stateMutability": "view",
      "type": "function"
    },
    {
      "inputs": [
        {
          "internalType": "bytes32",
          "name": "role",
          "type": "bytes32"
        }
      ],
      "name": "getRoleAdmin",
      "outputs": [
        {
          "internalType": "bytes32",
          "name": "",
          "type": "bytes32"
        }
      ],
      "stateMutability": "view",
      "type": "function"
    },
    {
      "inputs": [
        {
          "internalType": "bytes32",
          "name": "role",
          "type": "bytes32"
        },
        {
          "internalType": "uint256",
          "name": "index",
          "type": "uint256"
        }
      ],
      "name": "getRoleMember",
      "outputs": [
        {
          "internalType": "address",
          "name": "",
          "type": "address"
        }
      ],
      "stateMutability": "view",
      "type": "function"
    },
    {
      "inputs": [
        {
          "internalType": "bytes32",
          "name": "role",
          "type": "bytes32"
        }
      ],
      "name": "getRoleMemberCount",
      "outputs": [
        {
          "internalType": "uint256",
          "name": "",
          "type": "uint256"
        }
      ],
      "stateMutability": "view",
      "type": "function"
    },
    {
      "inputs": [
        {
          "internalType": "bytes32",
          "name": "role",
          "type": "bytes32"
        },
        {
          "internalType": "address",
          "name": "account",
          "type": "address"
        }
      ],
      "name": "grantRole",
      "outputs": [],
      "stateMutability": "nonpayable",
      "type": "function"
    },
    {
      "inputs": [
        {
          "internalType": "bytes32",
          "name": "role",
          "type": "bytes32"
        },
        {
          "internalType": "address",
          "name": "account",
          "type": "address"
        }
      ],
      "name": "hasRole",
      "outputs": [
        {
          "internalType": "bool",
          "name": "",
          "type": "bool"
        }
      ],
      "stateMutability": "view",
      "type": "function"
    },
    {
      "inputs": [],
      "name": "imageBaseURI",
      "outputs": [
        {
          "internalType": "string",
          "name": "",
          "type": "string"
        }
      ],
      "stateMutability": "view",
      "type": "function"
    },
    {
      "inputs": [],
      "name": "initialize",
      "outputs": [],
      "stateMutability": "nonpayable",
      "type": "function"
    },
    {
      "inputs": [
        {
          "internalType": "address",
          "name": "owner",
          "type": "address"
        },
        {
          "internalType": "address",
          "name": "operator",
          "type": "address"
        }
      ],
      "name": "isApprovedForAll",
      "outputs": [
        {
          "internalType": "bool",
          "name": "",
          "type": "bool"
        }
      ],
      "stateMutability": "view",
      "type": "function"
    },
    {
      "inputs": [],
      "name": "l1Contract",
      "outputs": [
        {
          "internalType": "address",
          "name": "",
          "type": "address"
        }
      ],
      "stateMutability": "view",
      "type": "function"
    },
    {
      "inputs": [
        {
          "internalType": "address",
          "name": "_address",
          "type": "address"
        },
        {
          "components": [
            {
              "internalType": "uint256",
              "name": "tokenId",
              "type": "uint256"
            },
            {
              "internalType": "uint256",
              "name": "species",
              "type": "uint256"
            },
            {
              "internalType": "uint256",
              "name": "generation",
              "type": "uint256"
            },
            {
              "internalType": "uint256",
              "name": "experience",
              "type": "uint256"
            },
            {
              "components": [
                {
                  "internalType": "uint256",
                  "name": "gender",
                  "type": "uint256"
                },
                {
                  "internalType": "uint256",
                  "name": "rarity",
                  "type": "uint256"
                },
                {
                  "internalType": "uint256",
                  "name": "primaryType",
                  "type": "uint256"
                },
                {
                  "internalType": "uint256",
                  "name": "secondaryType",
                  "type": "uint256"
                },
                {
                  "internalType": "uint256",
                  "name": "nature",
                  "type": "uint256"
                },
                {
                  "internalType": "uint256",
                  "name": "size",
                  "type": "uint256"
                }
              ],
              "internalType": "struct EvoStructs.Attributes",
              "name": "attributes",
              "type": "tuple"
            },
            {
              "components": [
                {
                  "internalType": "uint256",
                  "name": "health",
                  "type": "uint256"
                },
                {
                  "internalType": "uint256",
                  "name": "attack",
                  "type": "uint256"
                },
                {
                  "internalType": "uint256",
                  "name": "defense",
                  "type": "uint256"
                },
                {
                  "internalType": "uint256",
                  "name": "special",
                  "type": "uint256"
                },
                {
                  "internalType": "uint256",
                  "name": "resistance",
                  "type": "uint256"
                },
                {
                  "internalType": "uint256",
                  "name": "speed",
                  "type": "uint256"
                }
              ],
              "internalType": "struct EvoStructs.Stats",
              "name": "stats",
              "type": "tuple"
            },
            {
              "components": [
                {
                  "internalType": "uint256",
                  "name": "total",
                  "type": "uint256"
                },
                {
                  "internalType": "uint256",
                  "name": "remaining",
                  "type": "uint256"
                },
                {
                  "internalType": "uint256",
                  "name": "lastBreedTime",
                  "type": "uint256"
                }
              ],
              "internalType": "struct EvoStructs.Breeds",
              "name": "breeds",
              "type": "tuple"
            },
            {
              "components": [
                {
                  "internalType": "uint256",
                  "name": "move0",
                  "type": "uint256"
                },
                {
                  "internalType": "uint256",
                  "name": "move1",
                  "type": "uint256"
                },
                {
                  "internalType": "uint256",
                  "name": "move2",
                  "type": "uint256"
                },
                {
                  "internalType": "uint256",
                  "name": "move3",
                  "type": "uint256"
                }
              ],
              "internalType": "struct EvoStructs.Moves",
              "name": "moves",
              "type": "tuple"
            }
          ],
          "internalType": "struct EvoStructs.Evo",
          "name": "evo",
          "type": "tuple"
        }
      ],
      "name": "mint",
      "outputs": [],
      "stateMutability": "nonpayable",
      "type": "function"
    },
    {
      "inputs": [
        {
          "internalType": "address",
          "name": "to",
          "type": "address"
        },
        {
          "internalType": "uint256",
          "name": "tokenId",
          "type": "uint256"
        },
        {
          "internalType": "bytes",
          "name": "_data",
          "type": "bytes"
        }
      ],
      "name": "mint",
      "outputs": [],
      "stateMutability": "nonpayable",
      "type": "function"
    },
    {
      "inputs": [],
      "name": "name",
      "outputs": [
        {
          "internalType": "string",
          "name": "",
          "type": "string"
        }
      ],
      "stateMutability": "view",
      "type": "function"
    },
    {
      "inputs": [
        {
          "internalType": "uint256",
          "name": "tokenId",
          "type": "uint256"
        }
      ],
      "name": "ownerOf",
      "outputs": [
        {
          "internalType": "address",
          "name": "",
          "type": "address"
        }
      ],
      "stateMutability": "view",
      "type": "function"
    },
    {
      "inputs": [],
      "name": "pause",
      "outputs": [],
      "stateMutability": "nonpayable",
      "type": "function"
    },
    {
      "inputs": [],
      "name": "paused",
      "outputs": [
        {
          "internalType": "bool",
          "name": "",
          "type": "bool"
        }
      ],
      "stateMutability": "view",
      "type": "function"
    },
    {
      "inputs": [
        {
          "internalType": "address",
          "name": "_address",
          "type": "address"
        }
      ],
      "name": "removeBlacklist",
      "outputs": [],
      "stateMutability": "nonpayable",
      "type": "function"
    },
    {
      "inputs": [
        {
          "internalType": "bytes32",
          "name": "role",
          "type": "bytes32"
        },
        {
          "internalType": "address",
          "name": "account",
          "type": "address"
        }
      ],
      "name": "renounceRole",
      "outputs": [],
      "stateMutability": "nonpayable",
      "type": "function"
    },
    {
      "inputs": [
        {
          "internalType": "bytes32",
          "name": "role",
          "type": "bytes32"
        },
        {
          "internalType": "address",
          "name": "account",
          "type": "address"
        }
      ],
      "name": "revokeRole",
      "outputs": [],
      "stateMutability": "nonpayable",
      "type": "function"
    },
    {
      "inputs": [
        {
          "internalType": "address",
          "name": "from",
          "type": "address"
        },
        {
          "internalType": "address",
          "name": "to",
          "type": "address"
        },
        {
          "internalType": "uint256",
          "name": "tokenId",
          "type": "uint256"
        }
      ],
      "name": "safeTransferFrom",
      "outputs": [],
      "stateMutability": "nonpayable",
      "type": "function"
    },
    {
      "inputs": [
        {
          "internalType": "address",
          "name": "from",
          "type": "address"
        },
        {
          "internalType": "address",
          "name": "to",
          "type": "address"
        },
        {
          "internalType": "uint256",
          "name": "tokenId",
          "type": "uint256"
        },
        {
          "internalType": "bytes",
          "name": "data",
          "type": "bytes"
        }
      ],
      "name": "safeTransferFrom",
      "outputs": [],
      "stateMutability": "nonpayable",
      "type": "function"
    },
    {
      "inputs": [
        {
          "internalType": "string",
          "name": "_animationBaseURI",
          "type": "string"
        }
      ],
      "name": "setAnimationBaseURI",
      "outputs": [],
      "stateMutability": "nonpayable",
      "type": "function"
    },
    {
      "inputs": [
        {
          "internalType": "address",
          "name": "operator",
          "type": "address"
        },
        {
          "internalType": "bool",
          "name": "approved",
          "type": "bool"
        }
      ],
      "name": "setApprovalForAll",
      "outputs": [],
      "stateMutability": "nonpayable",
      "type": "function"
    },
    {
      "inputs": [
        {
          "internalType": "uint256",
          "name": "tokenId",
          "type": "uint256"
        },
        {
          "internalType": "uint256",
          "name": "attributeId",
          "type": "uint256"
        },
        {
          "internalType": "uint256",
          "name": "value",
          "type": "uint256"
        }
      ],
      "name": "setAttribute",
      "outputs": [],
      "stateMutability": "nonpayable",
      "type": "function"
    },
    {
      "inputs": [
        {
          "internalType": "uint256",
          "name": "attributeId",
          "type": "uint256"
        },
        {
          "internalType": "uint256",
          "name": "index",
          "type": "uint256"
        },
        {
          "internalType": "string",
          "name": "value",
          "type": "string"
        }
      ],
      "name": "setAttributeString",
      "outputs": [],
      "stateMutability": "nonpayable",
      "type": "function"
    },
    {
      "inputs": [
        {
          "internalType": "string",
          "name": "_imageBaseURI",
          "type": "string"
        }
      ],
      "name": "setImageBaseURI",
      "outputs": [],
      "stateMutability": "nonpayable",
      "type": "function"
    },
    {
      "inputs": [
        {
          "internalType": "bytes4",
          "name": "interfaceId",
          "type": "bytes4"
        }
      ],
      "name": "supportsInterface",
      "outputs": [
        {
          "internalType": "bool",
          "name": "",
          "type": "bool"
        }
      ],
      "stateMutability": "view",
      "type": "function"
    },
    {
      "inputs": [],
      "name": "symbol",
      "outputs": [
        {
          "internalType": "string",
          "name": "",
          "type": "string"
        }
      ],
      "stateMutability": "view",
      "type": "function"
    },
    {
      "inputs": [
        {
          "internalType": "uint256",
          "name": "index",
          "type": "uint256"
        }
      ],
      "name": "tokenByIndex",
      "outputs": [
        {
          "internalType": "uint256",
          "name": "",
          "type": "uint256"
        }
      ],
      "stateMutability": "view",
      "type": "function"
    },
    {
      "inputs": [
        {
          "internalType": "address",
          "name": "owner",
          "type": "address"
        },
        {
          "internalType": "uint256",
          "name": "index",
          "type": "uint256"
        }
      ],
      "name": "tokenOfOwnerByIndex",
      "outputs": [
        {
          "internalType": "uint256",
          "name": "",
          "type": "uint256"
        }
      ],
      "stateMutability": "view",
      "type": "function"
    },
    {
      "inputs": [
        {
          "internalType": "uint256",
          "name": "tokenId",
          "type": "uint256"
        }
      ],
      "name": "tokenURI",
      "outputs": [
        {
          "internalType": "string",
          "name": "",
          "type": "string"
        }
      ],
      "stateMutability": "view",
      "type": "function"
    },
    {
      "inputs": [
        {
          "internalType": "address",
          "name": "owner",
          "type": "address"
        }
      ],
      "name": "tokensOfOwner",
      "outputs": [
        {
          "internalType": "uint256[]",
          "name": "",
          "type": "uint256[]"
        }
      ],
      "stateMutability": "view",
      "type": "function"
    },
    {
      "inputs": [],
      "name": "totalBurned",
      "outputs": [
        {
          "internalType": "uint256",
          "name": "",
          "type": "uint256"
        }
      ],
      "stateMutability": "view",
      "type": "function"
    },
    {
      "inputs": [],
      "name": "totalSupply",
      "outputs": [
        {
          "internalType": "uint256",
          "name": "",
          "type": "uint256"
        }
      ],
      "stateMutability": "view",
      "type": "function"
    },
    {
      "inputs": [
        {
          "internalType": "address",
          "name": "from",
          "type": "address"
        },
        {
          "internalType": "address",
          "name": "to",
          "type": "address"
        },
        {
          "internalType": "uint256",
          "name": "tokenId",
          "type": "uint256"
        }
      ],
      "name": "transferFrom",
      "outputs": [],
      "stateMutability": "nonpayable",
      "type": "function"
    },
    {
      "inputs": [],
      "name": "unpause",
      "outputs": [],
      "stateMutability": "nonpayable",
      "type": "function"
    }
  ],
  "bytecode": "0x60806040523480156200001157600080fd5b506200001c62000022565b620000e4565b600054610100900460ff16156200008f5760405162461bcd60e51b815260206004820152602760248201527f496e697469616c697a61626c653a20636f6e747261637420697320696e697469604482015266616c697a696e6760c81b606482015260840160405180910390fd5b60005460ff9081161015620000e2576000805460ff191660ff9081179091556040519081527f7f26b83ff96e1f2b6a682f133852f6798a09c465da95921460cefb38474024989060200160405180910390a15b565b61531380620000f46000396000f3fe608060405234801561001057600080fd5b506004361061038e5760003560e01c8063779c7527116101de578063a22cb4651161010f578063ca15c873116100ad578063d89135cd1161007c578063d89135cd1461079f578063e985e9c5146107a7578063eb91e651146107e3578063fd5eea4e146107f657600080fd5b8063ca15c8731461075c578063cfa4e54f1461076f578063d539139314610777578063d547741f1461078c57600080fd5b8063b791e67b116100e9578063b791e67b1461070e578063b88d4fde1461072e578063bdbed72214610741578063c87b56dd1461074957600080fd5b8063a22cb465146106d3578063a2c6e888146106e6578063b5bfddea146106f957600080fd5b806391d148541161017c5780639ab89ad2116101565780639ab89ad2146106925780639b9284f9146106a55780639cfe42da146106b8578063a217fddf146106cb57600080fd5b806391d148541461066457806394d008ef1461067757806395d89b411461068a57600080fd5b80638456cb59116101b85780638456cb59146106165780638462151c1461061e578063853d60711461063e5780639010d07c1461065157600080fd5b8063779c7527146105e85780637d7a6d13146105fb5780638129fc1c1461060e57600080fd5b80633f4ba83a116102c35780636352211e116102615780636d94f13a116102305780636d94f13a1461059857806370a08231146105b857806375b238fc146105cb57806377645839146105e057600080fd5b80636352211e1461054b57806364cb59d61461055e578063663ab59d146105715780636cfa24cc1461058557600080fd5b80634bb8fd641161029d5780634bb8fd64146105125780634f6ccce7146105255780635c975abb14610538578063633f43f71461054357600080fd5b80633f4ba83a146104e457806342842e0e146104ec57806342966c68146104ff57600080fd5b806323b872dd116103305780632f745c591161030a5780632f745c591461049857806332243bdf146104ab57806336568abe146104be5780633b714895146104d157600080fd5b806323b872dd1461044e578063248a9ca3146104615780632f2ff15d1461048557600080fd5b8063081812fc1161036c578063081812fc146103f3578063095ea7b31461041e5780630f3002c11461043357806318160ddd1461044657600080fd5b806301ffc9a71461039357806303fe46ab146103bb57806306fdde03146103de575b600080fd5b6103a66103a1366004613ecf565b610809565b60405190151581526020015b60405180910390f35b6103d06000805160206152be83398151915281565b6040519081526020016103b2565b6103e661081a565b6040516103b29190613f44565b610406610401366004613f57565b6108ac565b6040516001600160a01b0390911681526020016103b2565b61043161042c366004613f8c565b6108d3565b005b610431610441366004614214565b610915565b6099546103d0565b61043161045c3660046142c6565b6109c0565b6103d061046f366004613f57565b600090815261012d602052604090206001015490565b610431610493366004614302565b6109f1565b6103d06104a6366004613f8c565b610a17565b6104316104b936600461432e565b610aad565b6104316104cc366004614302565b610b81565b6103d06104df366004613f57565b610bff565b610431610c6d565b6104316104fa3660046142c6565b610c90565b61043161050d366004613f57565b610cab565b6104316105203660046143a2565b610d07565b6103d0610533366004613f57565b610da7565b60fb5460ff166103a6565b6103e6610e3a565b610406610559366004613f57565b610ec9565b61043161056c366004614434565b610f29565b6102bc54610406906001600160a01b031681565b61043161059336600461450f565b6110b8565b6105ab6105a6366004614543565b6110d9565b6040516103b29190614577565b6103d06105c63660046145d9565b611191565b6103d060008051602061529e83398151915281565b6103e6611217565b6104316105f63660046145f4565b611225565b610431610609366004614434565b61125f565b610431611331565b61043161156b565b61063161062c3660046145d9565b61158b565b6040516103b2919061465b565b61043161064c36600461466e565b61162c565b61040661065f3660046146b3565b611666565b6103a6610672366004614302565b611686565b6104316106853660046146d5565b6116b2565b6103e66116fe565b6104316106a0366004614715565b61170d565b6103e66106b3366004613f57565b6117a2565b6104316106c63660046145d9565b6117d9565b6103d0600081565b6104316106e13660046147f5565b6117fd565b6104316106f436600461450f565b611831565b6103d060008051602061524183398151915281565b61072161071c366004613f57565b611852565b6040516103b29190614831565b61043161073c36600461493b565b611863565b610631611894565b6103e6610757366004613f57565b61199c565b6103d061076a366004613f57565b611adb565b610631611af3565b6103d060008051602061522183398151915281565b61043161079a366004614302565b611b05565b6103d0611b2b565b6103a66107b53660046149a2565b6001600160a01b039182166000908152606a6020908152604080832093909416825291909152205460ff1690565b6104316107f13660046145d9565b611b38565b6104316108043660046143a2565b611b5c565b600061081482611bc7565b92915050565b606060658054610829906149cc565b80601f0160208091040260200160405190810160405280929190818152602001828054610855906149cc565b80156108a25780601f10610877576101008083540402835291602001916108a2565b820191906000526020600020905b81548152906001019060200180831161088557829003601f168201915b5050505050905090565b60006108b782611c0b565b506000908152606960205260409020546001600160a01b031690565b816108e061022582611c6a565b156109065760405162461bcd60e51b81526004016108fd90614a07565b60405180910390fd5b6109108383611c8c565b505050565b60008051602061522183398151915261092d81611d9d565b60005b82518110156109ba5761095b83828151811061094e5761094e614a34565b6020026020010151611da7565b6109828484838151811061097157610971614a34565b60200260200101516000015161200f565b6109a883828151811061099757610997614a34565b602002602001015160000151612029565b806109b281614a60565b915050610930565b50505050565b6109ca3382612035565b6109e65760405162461bcd60e51b81526004016108fd90614a7b565b6109108383836120b3565b600082815261012d6020526040902060010154610a0d81611d9d565b610910838361225a565b6000610a2283611191565b8210610a845760405162461bcd60e51b815260206004820152602b60248201527f455243373231456e756d657261626c653a206f776e657220696e646578206f7560448201526a74206f6620626f756e647360a81b60648201526084016108fd565b506001600160a01b03919091166000908152609760209081526040808320938352929052205490565b60008051602061529e833981519152610ac581611d9d565b60005b828110156109ba576000848483818110610ae457610ae4614a34565b9050602002013590506000610af882610ec9565b90506001600160a01b03811615610b6c576000610b148361227d565b9050610b1f8361252e565b610b288361253a565b82826001600160a01b03167f0711e55179f5d5403928ff5e45abb95af6d87c42d7f81563509794d2f5fa3db883604051610b629190614831565b60405180910390a3505b50508080610b7990614a60565b915050610ac8565b6001600160a01b0381163314610bf15760405162461bcd60e51b815260206004820152602f60248201527f416363657373436f6e74726f6c3a2063616e206f6e6c792072656e6f756e636560448201526e103937b632b9903337b91039b2b63360891b60648201526084016108fd565b610bfb82826125e1565b5050565b600081815261028b602052604081208190610c1b906003612604565b905080610c2c57506103e792915050565b600083815261028b60205260408120610c46906006612604565b905060058110610c5a575060009392505050565b610c65816005614ac9565b949350505050565b60008051602061529e833981519152610c8581611d9d565b610c8d612610565b50565b61091083838360405180602001604052806000815250611863565b6000610cb8335b83612035565b80610cd65750610cd660008051602061524183398151915233611686565b905080610cf55760405162461bcd60e51b81526004016108fd90614a7b565b610cfe8261252e565b610bfb8261253a565b6000805160206152be833981519152610d1f81611d9d565b600084815261028b60205260408120610d389085612604565b90506000610d468483614ae0565b600087815261028b60205260409020909150610d63908683612662565b50604080518681526020810183905287917f43efe11319dda54ad41283fd13b0cebc5595ac12d761f4f7bfc9d529fa0f9c74910160405180910390a2505050505050565b6000610db260995490565b8210610e155760405162461bcd60e51b815260206004820152602c60248201527f455243373231456e756d657261626c653a20676c6f62616c20696e646578206f60448201526b7574206f6620626f756e647360a01b60648201526084016108fd565b60998281548110610e2857610e28614a34565b90600052602060002001549050919050565b6102598054610e48906149cc565b80601f0160208091040260200160405190810160405280929190818152602001828054610e74906149cc565b8015610ec15780601f10610e9657610100808354040283529160200191610ec1565b820191906000526020600020905b815481529060010190602001808311610ea457829003601f168201915b505050505081565b6000818152606760205260408120546001600160a01b0316806108145760405162461bcd60e51b8152602060048201526018602482015277115490cdcc8c4e881a5b9d985b1a59081d1bdad95b88125160421b60448201526064016108fd565b6000805160206152be833981519152610f4181611d9d565b600082516001600160401b03811115610f5c57610f5c613fb6565b604051908082528060200260200182016040528015610f85578160200160208202803683370190505b50905060005b8451811015611076576000610fd5868381518110610fab57610fab614a34565b602002602001015161028b60008a815260200190815260200160002061260490919063ffffffff16565b90506000858381518110610feb57610feb614a34565b602002602001015182610ffe9190614ae0565b905061104187848151811061101557611015614a34565b60200260200101518261028b60008c81526020019081526020016000206126629092919063ffffffff16565b508084848151811061105557611055614a34565b6020026020010181815250505050808061106e90614a60565b915050610f8b565b50847f4e6a5c2dd3dc8b445af3dc955aab13f1a33fa126563cd2e35fa638c689e9514385836040516110a9929190614af8565b60405180910390a25050505050565b60008051602061529e8339815191526110d081611d9d565b610bfb8261266f565b6060600082516001600160401b038111156110f6576110f6613fb6565b60405190808252806020026020018201604052801561112957816020015b60608152602001906001900390816111145790505b50905060005b835181101561118a5761115a84828151811061114d5761114d614a34565b602002602001015161199c565b82828151811061116c5761116c614a34565b6020026020010181905250808061118290614a60565b91505061112f565b5092915050565b60006001600160a01b0382166111fb5760405162461bcd60e51b815260206004820152602960248201527f4552433732313a2061646472657373207a65726f206973206e6f7420612076616044820152683634b21037bbb732b960b91b60648201526084016108fd565b506001600160a01b031660009081526068602052604090205490565b6102588054610e48906149cc565b60008051602061522183398151915261123d81611d9d565b61124682611da7565b61125483836000015161200f565b815161091090612029565b6000805160206152be83398151915261127781611d9d565b60005b83518110156112f0576112dd84828151811061129857611298614a34565b60200260200101518483815181106112b2576112b2614a34565b602002602001015161028b60008981526020019081526020016000206126629092919063ffffffff16565b50806112e881614a60565b91505061127a565b50837f4e6a5c2dd3dc8b445af3dc955aab13f1a33fa126563cd2e35fa638c689e951438484604051611323929190614af8565b60405180910390a250505050565b600054610100900460ff16158080156113515750600054600160ff909116105b8061136b5750303b15801561136b575060005460ff166001145b6113ce5760405162461bcd60e51b815260206004820152602e60248201527f496e697469616c697a61626c653a20636f6e747261637420697320616c72656160448201526d191e481a5b9a5d1a585b1a5e995960921b60648201526084016108fd565b6000805460ff1916600117905580156113f1576000805461ff0019166101001790555b6114316040518060400160405280600381526020016245766f60e81b8152506040518060400160405280600381526020016245766f60e81b815250612683565b6114396126b4565b6114416126e5565b611449612714565b611451612714565b61145961273b565b6114936040518060600160405280603d8152602001615261603d91396040518060600160405280603d8152602001615261603d913961276a565b61149b6127ba565b6114b873454a0e479ac78e508a95880216c06f50bf3c321c6127e9565b6114c360003361225a565b6114db60008051602061529e8339815191523361225a565b6114f36000805160206152218339815191523361225a565b61150b6000805160206152be8339815191523361225a565b6115236000805160206152418339815191523361225a565b8015610c8d576000805461ff0019169055604051600181527f7f26b83ff96e1f2b6a682f133852f6798a09c465da95921460cefb38474024989060200160405180910390a150565b60008051602061529e83398151915261158381611d9d565b610c8d612839565b6060600061159883611191565b90506000816001600160401b038111156115b4576115b4613fb6565b6040519080825280602002602001820160405280156115dd578160200160208202803683370190505b50905060005b82811015611624576115f58582610a17565b82828151811061160757611607614a34565b60209081029190910101528061161c81614a60565b9150506115e3565b509392505050565b600061163781611d9d565b600084815261028c602090815260408083208684528252909120835161165f92850190613d23565b5050505050565b600082815261015f6020526040812061167f9083612876565b9392505050565b600091825261012d602090815260408084206001600160a01b0393909316845291905290205460ff1690565b6000805160206152418339815191526116ca81611d9d565b6000828060200190518101906116e09190614bfc565b90506116eb81611da7565b6116f5858561200f565b61165f84612029565b606060668054610829906149cc565b600061171881611d9d565b60005b835181101561165f5782818151811061173657611736614a34565b602002602001015161028c6000878152602001908152602001600020600086848151811061176657611766614a34565b60200260200101518152602001908152602001600020908051906020019061178f929190613d23565b508061179a81614a60565b91505061171b565b606060006117af8361227d565b9050806040516020016117c29190614831565b604051602081830303815290604052915050919050565b60008051602061529e8339815191526117f181611d9d565b61091061022583612882565b8161180a61022582611c6a565b156118275760405162461bcd60e51b81526004016108fd90614a07565b6109108383612897565b60008051602061529e83398151915261184981611d9d565b610bfb826128a2565b61185a613da7565b6108148261227d565b61186c33610cb2565b6118885760405162461bcd60e51b81526004016108fd90614a7b565b6109ba848484846128b6565b6060600060015b6127108110156118e2576000818152606760205260409020546001600160a01b0316156118d057816118cc81614a60565b9250505b806118da81614a60565b91505061189b565b506000816001600160401b038111156118fd576118fd613fb6565b604051908082528060200260200182016040528015611926578160200160208202803683370190505b509050600060015b612710811015611993576000818152606760205260409020546001600160a01b031615611981578083838151811061196857611968614a34565b60209081029190910101528161197d81614a60565b9250505b8061198b81614a60565b91505061192e565b50909392505050565b606060006119ab8360006128e9565b905060006119ba600083612902565b60408051601080825261022082019092529192509060009082816020015b611a0560405180608001604052806060815260200160608152602001606081526020016000151581525090565b8152602001906001900390816119d857905050905060005b82811015611a9f576040518060800160405280611a3c6103e784612902565b815260408051602081810183526000825283015201611a63611a5e8a856128e9565b6129b1565b815260200160011515815250828281518110611a8157611a81614a34565b60200260200101819052508080611a9790614a60565b915050611a1d565b50611ad186846040518060400160405280600d81526020016c45766f5665727365732045766f60981b81525084612aae565b9695505050505050565b600081815261015f6020526040812061081490612afa565b6060611b00610191612b04565b905090565b600082815261012d6020526040902060010154611b2181611d9d565b61091083836125e1565b6000611b00610191612afa565b60008051602061529e833981519152611b5081611d9d565b61091061022583612b11565b6000805160206152be833981519152611b7481611d9d565b600084815261028b60205260409020611b8e908484612662565b50604080518481526020810184905285917f43efe11319dda54ad41283fd13b0cebc5595ac12d761f4f7bfc9d529fa0f9c749101611323565b600063583e688d60e11b6001600160e01b03198316639b9284f960e01b1480611bfc57506001600160e01b0319838116908216145b8061167f575061167f83612b26565b6000818152606760205260409020546001600160a01b0316610c8d5760405162461bcd60e51b8152602060048201526018602482015277115490cdcc8c4e881a5b9d985b1a59081d1bdad95b88125160421b60448201526064016108fd565b6001600160a01b0381166000908152600183016020526040812054151561167f565b6000611c9782610ec9565b9050806001600160a01b0316836001600160a01b03161415611d055760405162461bcd60e51b815260206004820152602160248201527f4552433732313a20617070726f76616c20746f2063757272656e74206f776e656044820152603960f91b60648201526084016108fd565b336001600160a01b0382161480611d215750611d2181336107b5565b611d935760405162461bcd60e51b815260206004820152603e60248201527f4552433732313a20617070726f76652063616c6c6572206973206e6f7420746f60448201527f6b656e206f776e6572206e6f7220617070726f76656420666f7220616c6c000060648201526084016108fd565b6109108383612b31565b610c8d8133612b9f565b6020808201518251600090815261028b90925260408220611dc9929091612662565b5060808101516020908101518251600090815261028b9092526040909120611df391600190612662565b506080810151518151600090815261028b60205260409020611e1791600290612662565b506040808201518251600090815261028b60205291909120611e3b91600390612662565b5060808101516040908101518251600090815261028b60205291909120611e6491600490612662565b506080810151606001518151600090815261028b60205260409020611e8b91600590612662565b5060c0810151518151600090815261028b60205260409020611eaf91600690612662565b5060608101518151600090815261028b60205260409020611ed291600790612662565b5060808082015101518151600090815261028b60205260409020611ef891600890612662565b5060a08101516020908101518251600090815261028b9092526040909120611f2291600990612662565b5060a08101516040908101518251600090815261028b60205291909120611f4b91600a90612662565b5060a0810151606001518151600090815261028b60205260409020611f7291600b90612662565b5060a0810151608001518151600090815261028b60205260409020611f9991600c90612662565b5060a08082015101518151600090815261028b60205260409020611fbf91600d90612662565b50608081015160a001518151600090815261028b60205260409020611fe691600e90612662565b5060c08101516040908101518251600090815261028b60205291909120610bfb91600f90612662565b610bfb828260405180602001604052806000815250612c03565b610bfb61019182612c36565b60008061204183610ec9565b9050806001600160a01b0316846001600160a01b0316148061208857506001600160a01b038082166000908152606a602090815260408083209388168352929052205460ff165b80610c655750836001600160a01b03166120a1846108ac565b6001600160a01b031614949350505050565b826001600160a01b03166120c682610ec9565b6001600160a01b03161461212a5760405162461bcd60e51b815260206004820152602560248201527f4552433732313a207472616e736665722066726f6d20696e636f72726563742060448201526437bbb732b960d91b60648201526084016108fd565b6001600160a01b03821661218c5760405162461bcd60e51b8152602060048201526024808201527f4552433732313a207472616e7366657220746f20746865207a65726f206164646044820152637265737360e01b60648201526084016108fd565b612197838383612c42565b6121a2600082612b31565b6001600160a01b03831660009081526068602052604081208054600192906121cb908490614ac9565b90915550506001600160a01b03821660009081526068602052604081208054600192906121f9908490614ae0565b909155505060008181526067602052604080822080546001600160a01b0319166001600160a01b0386811691821790925591518493918716917fddf252ad1be2c89b69c2b068fc378daa952ba7f163c4a11628f55a4df523b3ef91a4505050565b6122648282612d78565b600082815261015f602052604090206109109082612882565b612285613da7565b604080516080810182526000808252602080830182905282840182905260608301829052835160c08101855286835261028b9091529281209192909181906122ce906002612604565b8152600086815261028b602090815260409091209101906122f0906001612604565b8152600086815261028b60209081526040909120910190612312906004612604565b8152600086815261028b60209081526040909120910190612334906005612604565b8152600086815261028b60209081526040909120910190612356906008612604565b8152600086815261028b6020908152604090912091019061237890600e612604565b90526040805160c08101825260328152600087815261028b60209081529281209394509290918201906123ac906009612604565b8152600087815261028b602090815260409091209101906123ce90600a612604565b8152600087815261028b602090815260409091209101906123f090600b612604565b8152600087815261028b6020908152604090912091019061241290600c612604565b8152600087815261028b6020908152604090912091019061243490600d612604565b905260408051606081018252600088815261028b60205291822092935090918190612460906006612604565b815260200161246e88610bff565b8152600088815261028b6020908152604090912091019061249090600f612604565b90526040805161010081018252888152600089815261028b60209081529281209394509290918201906124c39084612604565b8152600089815261028b602090815260409091209101906124e5906003612604565b8152600089815261028b60209081526040909120910190612507906007612604565b81526020810195909552604085019390935250606083015260809091019190915292915050565b610bfb61019182612dff565b600061254582610ec9565b905061255381600084612c42565b61255e600083612b31565b6001600160a01b0381166000908152606860205260408120805460019290612587908490614ac9565b909155505060008281526067602052604080822080546001600160a01b0319169055518391906001600160a01b038416907fddf252ad1be2c89b69c2b068fc378daa952ba7f163c4a11628f55a4df523b3ef908390a45050565b6125eb8282612e0b565b600082815261015f602052604090206109109082612b11565b600061167f8383612e73565b612618612ee3565b60fb805460ff191690557f5db9ee0a495bf2e6ff9c91a7834c1ba4fdd244a5e8aa4e537bd38aeae4b073aa335b6040516001600160a01b03909116815260200160405180910390a1565b6000610c65848484612f2c565b8051610bfb90610258906020840190613d23565b600054610100900460ff166126aa5760405162461bcd60e51b81526004016108fd90614c8b565b610bfb8282612f49565b600054610100900460ff166126db5760405162461bcd60e51b81526004016108fd90614c8b565b6126e3612714565b565b600054610100900460ff1661270c5760405162461bcd60e51b81526004016108fd90614c8b565b6126e3612f97565b600054610100900460ff166126e35760405162461bcd60e51b81526004016108fd90614c8b565b600054610100900460ff166127625760405162461bcd60e51b81526004016108fd90614c8b565b6126db612714565b600054610100900460ff166127915760405162461bcd60e51b81526004016108fd90614c8b565b81516127a590610258906020850190613d23565b50805161091090610259906020840190613d23565b600054610100900460ff166127e15760405162461bcd60e51b81526004016108fd90614c8b565b6126e36126b4565b600054610100900460ff166128105760405162461bcd60e51b81526004016108fd90614c8b565b61281981612fca565b612821612714565b610c8d6000805160206152418339815191523361225a565b612841613014565b60fb805460ff191660011790557f62e78cea01bee320cd4e420270b5ea74000d11b0c9f74754ebdbfc544b05a2586126453390565b600061167f838361305a565b600061167f836001600160a01b038416613084565b610bfb3383836130d3565b8051610bfb90610259906020840190613d23565b6128c18484846120b3565b6128cd848484846131a2565b6109ba5760405162461bcd60e51b81526004016108fd90614cd6565b600082815261028b6020526040812061167f9083612604565b600082815261028c60209081526040808320848452909152902080546060919061292b906149cc565b80601f0160208091040260200160405190810160405280929190818152602001828054612957906149cc565b80156129a45780601f10612979576101008083540402835291602001916129a4565b820191906000526020600020905b81548152906001019060200180831161298757829003601f168201915b5050505050905092915050565b6060816129d55750506040805180820190915260018152600360fc1b602082015290565b8160005b81156129ff57806129e981614a60565b91506129f89050600a83614d3e565b91506129d9565b6000816001600160401b03811115612a1957612a19613fb6565b6040519080825280601f01601f191660200182016040528015612a43576020820181803683370190505b5090505b8415610c6557612a58600183614ac9565b9150612a65600a86614d52565b612a70906030614ae0565b60f81b818381518110612a8557612a85614a34565b60200101906001600160f81b031916908160001a905350612aa7600a86614d3e565b9450612a47565b60606000612abd8686866132ac565b90506000612aca84613341565b90508181604051602001612adf929190614d82565b60405160208183030381529060405292505050949350505050565b6000610814825490565b6060600061167f83613535565b600061167f836001600160a01b038416613591565b600061081482613684565b600081815260696020526040902080546001600160a01b0319166001600160a01b0384169081179091558190612b6682610ec9565b6001600160a01b03167f8c5be1e5ebec7d5bd14f71427d1e84f3dd0314c0f7b2291e5b200ac8c7c3b92560405160405180910390a45050565b612ba98282611686565b610bfb57612bc1816001600160a01b031660146136a9565b612bcc8360206136a9565b604051602001612bdd929190614dcf565b60408051601f198184030181529082905262461bcd60e51b82526108fd91600401613f44565b612c0d8383613844565b612c1a60008484846131a2565b6109105760405162461bcd60e51b81526004016108fd90614cd6565b600061167f8383613591565b612c4a613014565b82612c5761022582611c6a565b15612c745760405162461bcd60e51b81526004016108fd90614a07565b82612c8161022582611c6a565b15612c9e5760405162461bcd60e51b81526004016108fd90614a07565b848484731a0245f23056132fecc7098bb011c5c303ae06256032821180612ccc57506001600160a01b038416155b80612cde57506001600160a01b038316155b80612cfa5750806001600160a01b0316846001600160a01b0316145b80612d165750806001600160a01b0316836001600160a01b0316145b612d625760405162461bcd60e51b815260206004820152601d60248201527f5465616d2045766f20617265206e6f6e2d7472616e7366657261626c6500000060448201526064016108fd565b612d6d898989613992565b505050505050505050565b612d828282611686565b610bfb57600082815261012d602090815260408083206001600160a01b03851684529091529020805460ff19166001179055612dbb3390565b6001600160a01b0316816001600160a01b0316837f2f8788117e7eff1d82e926ec794901d17c78024a50270940304540a733656f0d60405160405180910390a45050565b600061167f8383613084565b612e158282611686565b15610bfb57600082815261012d602090815260408083206001600160a01b0385168085529252808320805460ff1916905551339285917ff6391f5c32d9c69d2a47ea670b442974b53935d1edc7fd64eb21e047a839171b9190a45050565b600081815260028301602052604081205480151580612e975750612e9784846139f1565b61167f5760405162461bcd60e51b815260206004820152601e60248201527f456e756d657261626c654d61703a206e6f6e6578697374656e74206b6579000060448201526064016108fd565b60fb5460ff166126e35760405162461bcd60e51b815260206004820152601460248201527314185d5cd8589b194e881b9bdd081c185d5cd95960621b60448201526064016108fd565b60008281526002840160205260408120829055610c658484612dff565b600054610100900460ff16612f705760405162461bcd60e51b81526004016108fd90614c8b565b8151612f83906065906020850190613d23565b508051610910906066906020840190613d23565b600054610100900460ff16612fbe5760405162461bcd60e51b81526004016108fd90614c8b565b60fb805460ff19169055565b600054610100900460ff16612ff15760405162461bcd60e51b81526004016108fd90614c8b565b6102bc80546001600160a01b0319166001600160a01b0392909216919091179055565b60fb5460ff16156126e35760405162461bcd60e51b815260206004820152601060248201526f14185d5cd8589b194e881c185d5cd95960821b60448201526064016108fd565b600082600001828154811061307157613071614a34565b9060005260206000200154905092915050565b60008181526001830160205260408120546130cb57508154600181810184556000848152602080822090930184905584548482528286019093526040902091909155610814565b506000610814565b816001600160a01b0316836001600160a01b031614156131355760405162461bcd60e51b815260206004820152601960248201527f4552433732313a20617070726f766520746f2063616c6c65720000000000000060448201526064016108fd565b6001600160a01b038381166000818152606a6020908152604080832094871680845294825291829020805460ff191686151590811790915591519182527f17307eab39ab6107e8899845ad3d59bd9653f200f220920489ca2b5937696c31910160405180910390a3505050565b60006001600160a01b0384163b156132a457604051630a85bd0160e11b81526001600160a01b0385169063150b7a02906131e6903390899088908890600401614e44565b602060405180830381600087803b15801561320057600080fd5b505af1925050508015613230575060408051601f3d908101601f1916820190925261322d91810190614e77565b60015b61328a573d80801561325e576040519150601f19603f3d011682016040523d82523d6000602084013e613263565b606091505b5080516132825760405162461bcd60e51b81526004016108fd90614cd6565b805181602001fd5b6001600160e01b031916630a85bd0160e11b149050610c65565b506001610c65565b606060006102586132bc866129b1565b6040516020016132cd929190614e94565b604051602081830303815290604052905060006132fa6132ec87610ec9565b6001600160a01b03166139fd565b905084613306876129b1565b8584846133128b6129b1565b60405160200161332796959493929190614f32565b604051602081830303815290604052925050509392505050565b60408051602081019091526000808252606091905b83518110156135235760006001855161336f9190614ac9565b821461339457604051806040016040528060018152602001600b60fa1b8152506133a5565b604051806020016040528060008152505b905060008583815181106133bb576133bb614a34565b6020026020010151606001516133ea57604051806040016040528060018152602001601160f91b8152506133fb565b604051806020016040528060008152505b905060008187858151811061341257613412614a34565b602002602001015160400151836040516020016134319392919061504e565b6040516020818303038152906040529050600087858151811061345657613456614a34565b602002602001015160200151516000146134ac5787858151811061347c5761347c614a34565b6020026020010151602001516040516020016134989190615091565b6040516020818303038152906040526134bd565b604051806020016040528060008152505b90506000868987815181106134d4576134d4614a34565b6020026020010151600001518385886040516020016134f79594939291906150d7565b60405160208183030381529060405290508096505050505050808061351b90614a60565b915050613356565b50806040516020016117c29190615192565b60608160000180548060200260200160405190810160405280929190818152602001828054801561358557602002820191906000526020600020905b815481526020019060010190808311613571575b50505050509050919050565b6000818152600183016020526040812054801561367a5760006135b5600183614ac9565b85549091506000906135c990600190614ac9565b905081811461362e5760008660000182815481106135e9576135e9614a34565b906000526020600020015490508087600001848154811061360c5761360c614a34565b6000918252602080832090910192909255918252600188019052604090208390555b855486908061363f5761363f6151d4565b600190038181906000526020600020016000905590558560010160008681526020019081526020016000206000905560019350505050610814565b6000915050610814565b60006001600160e01b03198216635a05180f60e01b1480610814575061081482613a13565b606060006136b88360026151ea565b6136c3906002614ae0565b6001600160401b038111156136da576136da613fb6565b6040519080825280601f01601f191660200182016040528015613704576020820181803683370190505b509050600360fc1b8160008151811061371f5761371f614a34565b60200101906001600160f81b031916908160001a905350600f60fb1b8160018151811061374e5761374e614a34565b60200101906001600160f81b031916908160001a90535060006137728460026151ea565b61377d906001614ae0565b90505b60018111156137f5576f181899199a1a9b1b9c1cb0b131b232b360811b85600f16601081106137b1576137b1614a34565b1a60f81b8282815181106137c7576137c7614a34565b60200101906001600160f81b031916908160001a90535060049490941c936137ee81615209565b9050613780565b50831561167f5760405162461bcd60e51b815260206004820181905260248201527f537472696e67733a20686578206c656e67746820696e73756666696369656e7460448201526064016108fd565b6001600160a01b03821661389a5760405162461bcd60e51b815260206004820181905260248201527f4552433732313a206d696e7420746f20746865207a65726f206164647265737360448201526064016108fd565b6000818152606760205260409020546001600160a01b0316156138ff5760405162461bcd60e51b815260206004820152601c60248201527f4552433732313a20746f6b656e20616c7265616479206d696e7465640000000060448201526064016108fd565b61390b60008383612c42565b6001600160a01b0382166000908152606860205260408120805460019290613934908490614ae0565b909155505060008181526067602052604080822080546001600160a01b0319166001600160a01b03861690811790915590518392907fddf252ad1be2c89b69c2b068fc378daa952ba7f163c4a11628f55a4df523b3ef908290a45050565b8261399f61022582611c6a565b156139bc5760405162461bcd60e51b81526004016108fd90614a07565b826139c961022582611c6a565b156139e65760405162461bcd60e51b81526004016108fd90614a07565b61165f858585613a38565b600061167f8383613a43565b60606108146001600160a01b03831660146136a9565b60006001600160e01b03198216637965db0b60e01b1480610814575061081482613a5b565b610910838383613a66565b6000818152600183016020526040812054151561167f565b600061081482613b1e565b6001600160a01b038316613ac157613abc81609980546000838152609a60205260408120829055600182018355919091527f72a152ddfb8e864297c917af52ea6c1c68aead0fee1a62673fcc7e0c94979d000155565b613ae4565b816001600160a01b0316836001600160a01b031614613ae457613ae48382613b43565b6001600160a01b038216613afb5761091081613be0565b826001600160a01b0316826001600160a01b031614610910576109108282613c8f565b60006001600160e01b0319821663780e9d6360e01b1480610814575061081482613cd3565b60006001613b5084611191565b613b5a9190614ac9565b600083815260986020526040902054909150808214613bad576001600160a01b03841660009081526097602090815260408083208584528252808320548484528184208190558352609890915290208190555b5060009182526098602090815260408084208490556001600160a01b039094168352609781528383209183525290812055565b609954600090613bf290600190614ac9565b6000838152609a602052604081205460998054939450909284908110613c1a57613c1a614a34565b906000526020600020015490508060998381548110613c3b57613c3b614a34565b6000918252602080832090910192909255828152609a90915260408082208490558582528120556099805480613c7357613c736151d4565b6001900381819060005260206000200160009055905550505050565b6000613c9a83611191565b6001600160a01b039093166000908152609760209081526040808320868452825280832085905593825260989052919091209190915550565b60006001600160e01b031982166380ac58cd60e01b1480613d0457506001600160e01b03198216635b5e139f60e01b145b8061081457506301ffc9a760e01b6001600160e01b0319831614610814565b828054613d2f906149cc565b90600052602060002090601f016020900481019282613d515760008555613d97565b82601f10613d6a57805160ff1916838001178555613d97565b82800160010185558215613d97579182015b82811115613d97578251825591602001919060010190613d7c565b50613da3929150613ea4565b5090565b60405180610100016040528060008152602001600081526020016000815260200160008152602001613e086040518060c001604052806000815260200160008152602001600081526020016000815260200160008152602001600081525090565b8152602001613e466040518060c001604052806000815260200160008152602001600081526020016000815260200160008152602001600081525090565b8152602001613e6f60405180606001604052806000815260200160008152602001600081525090565b8152602001613e9f6040518060800160405280600081526020016000815260200160008152602001600081525090565b905290565b5b80821115613da35760008155600101613ea5565b6001600160e01b031981168114610c8d57600080fd5b600060208284031215613ee157600080fd5b813561167f81613eb9565b60005b83811015613f07578181015183820152602001613eef565b838111156109ba5750506000910152565b60008151808452613f30816020860160208601613eec565b601f01601f19169290920160200192915050565b60208152600061167f6020830184613f18565b600060208284031215613f6957600080fd5b5035919050565b80356001600160a01b0381168114613f8757600080fd5b919050565b60008060408385031215613f9f57600080fd5b613fa883613f70565b946020939093013593505050565b634e487b7160e01b600052604160045260246000fd5b60405160c081016001600160401b0381118282101715613fee57613fee613fb6565b60405290565b604051606081016001600160401b0381118282101715613fee57613fee613fb6565b604051608081016001600160401b0381118282101715613fee57613fee613fb6565b60405161010081016001600160401b0381118282101715613fee57613fee613fb6565b604051601f8201601f191681016001600160401b038111828210171561408357614083613fb6565b604052919050565b60006001600160401b038211156140a4576140a4613fb6565b5060051b60200190565b600060c082840312156140c057600080fd5b6140c8613fcc565b9050813581526020820135602082015260408201356040820152606082013560608201526080820135608082015260a082013560a082015292915050565b60006060828403121561411857600080fd5b614120613ff4565b905081358152602082013560208201526040820135604082015292915050565b60006080828403121561415257600080fd5b61415a614016565b90508135815260208201356020820152604082013560408201526060820135606082015292915050565b60006102e0828403121561419757600080fd5b61419f614038565b9050813581526020820135602082015260408201356040820152606082013560608201526141d083608084016140ae565b60808201526141e38361014084016140ae565b60a08201526141f6836102008401614106565b60c0820152614209836102608401614140565b60e082015292915050565b6000806040838503121561422757600080fd5b61423083613f70565b91506020808401356001600160401b0381111561424c57600080fd5b8401601f8101861361425d57600080fd5b803561427061426b8261408b565b61405b565b8181526102e0918202830184019184820191908984111561429057600080fd5b938501935b838510156142b6576142a78a86614184565b83529384019391850191614295565b5080955050505050509250929050565b6000806000606084860312156142db57600080fd5b6142e484613f70565b92506142f260208501613f70565b9150604084013590509250925092565b6000806040838503121561431557600080fd5b8235915061432560208401613f70565b90509250929050565b6000806020838503121561434157600080fd5b82356001600160401b038082111561435857600080fd5b818501915085601f83011261436c57600080fd5b81358181111561437b57600080fd5b8660208260051b850101111561439057600080fd5b60209290920196919550909350505050565b6000806000606084860312156143b757600080fd5b505081359360208301359350604090920135919050565b600082601f8301126143df57600080fd5b813560206143ef61426b8361408b565b82815260059290921b8401810191818101908684111561440e57600080fd5b8286015b848110156144295780358352918301918301614412565b509695505050505050565b60008060006060848603121561444957600080fd5b8335925060208401356001600160401b038082111561446757600080fd5b614473878388016143ce565b9350604086013591508082111561448957600080fd5b50614496868287016143ce565b9150509250925092565b600082601f8301126144b157600080fd5b81356001600160401b038111156144ca576144ca613fb6565b6144dd601f8201601f191660200161405b565b8181528460208386010111156144f257600080fd5b816020850160208301376000918101602001919091529392505050565b60006020828403121561452157600080fd5b81356001600160401b0381111561453757600080fd5b610c65848285016144a0565b60006020828403121561455557600080fd5b81356001600160401b0381111561456b57600080fd5b610c65848285016143ce565b6000602080830181845280855180835260408601915060408160051b870101925083870160005b828110156145cc57603f198886030184526145ba858351613f18565b9450928501929085019060010161459e565b5092979650505050505050565b6000602082840312156145eb57600080fd5b61167f82613f70565b600080610300838503121561460857600080fd5b61461183613f70565b91506143258460208501614184565b600081518084526020808501945080840160005b8381101561465057815187529582019590820190600101614634565b509495945050505050565b60208152600061167f6020830184614620565b60008060006060848603121561468357600080fd5b833592506020840135915060408401356001600160401b038111156146a757600080fd5b614496868287016144a0565b600080604083850312156146c657600080fd5b50508035926020909101359150565b6000806000606084860312156146ea57600080fd5b6146f384613f70565b92506020840135915060408401356001600160401b038111156146a757600080fd5b60008060006060848603121561472a57600080fd5b833592506020808501356001600160401b038082111561474957600080fd5b614755888389016143ce565b9450604087013591508082111561476b57600080fd5b818701915087601f83011261477f57600080fd5b813561478d61426b8261408b565b81815260059190911b8301840190848101908a8311156147ac57600080fd5b8585015b838110156147e4578035858111156147c85760008081fd5b6147d68d89838a01016144a0565b8452509186019186016147b0565b508096505050505050509250925092565b6000806040838503121561480857600080fd5b61481183613f70565b91506020830135801515811461482657600080fd5b809150509250929050565b60006102e0820190508251825260208301516020830152604083015160408301526060830151606083015260808301516148a36080840182805182526020810151602083015260408101516040830152606081015160608301526080810151608083015260a081015160a08301525050565b5060a08381015180516101408501526020808201516101608601526040808301516101808701526060808401516101a088015260808401516101c088015292909301516101e086015260c086015180516102008701528082015161022087015283015161024086015260e0860151805161026087015290810151610280860152918201516102a08501528101516102c084015261118a565b6000806000806080858703121561495157600080fd5b61495a85613f70565b935061496860208601613f70565b92506040850135915060608501356001600160401b0381111561498a57600080fd5b614996878288016144a0565b91505092959194509250565b600080604083850312156149b557600080fd5b6149be83613f70565b915061432560208401613f70565b600181811c908216806149e057607f821691505b60208210811415614a0157634e487b7160e01b600052602260045260246000fd5b50919050565b602080825260139082015272426c61636b6c6973746564206164647265737360681b604082015260600190565b634e487b7160e01b600052603260045260246000fd5b634e487b7160e01b600052601160045260246000fd5b6000600019821415614a7457614a74614a4a565b5060010190565b6020808252602e908201527f4552433732313a2063616c6c6572206973206e6f7420746f6b656e206f776e6560408201526d1c881b9bdc88185c1c1c9bdd995960921b606082015260800190565b600082821015614adb57614adb614a4a565b500390565b60008219821115614af357614af3614a4a565b500190565b604081526000614b0b6040830185614620565b8281036020840152614b1d8185614620565b95945050505050565b600060c08284031215614b3857600080fd5b614b40613fcc565b9050815181526020820151602082015260408201516040820152606082015160608201526080820151608082015260a082015160a082015292915050565b600060608284031215614b9057600080fd5b614b98613ff4565b905081518152602082015160208201526040820151604082015292915050565b600060808284031215614bca57600080fd5b614bd2614016565b90508151815260208201516020820152604082015160408201526060820151606082015292915050565b60006102e08284031215614c0f57600080fd5b614c17614038565b82518152602083015160208201526040830151604082015260608301516060820152614c468460808501614b26565b6080820152614c59846101408501614b26565b60a0820152614c6c846102008501614b7e565b60c0820152614c7f846102608501614bb8565b60e08201529392505050565b6020808252602b908201527f496e697469616c697a61626c653a20636f6e7472616374206973206e6f74206960408201526a6e697469616c697a696e6760a81b606082015260800190565b60208082526032908201527f4552433732313a207472616e7366657220746f206e6f6e20455243373231526560408201527131b2b4bb32b91034b6b83632b6b2b73a32b960711b606082015260800190565b634e487b7160e01b600052601260045260246000fd5b600082614d4d57614d4d614d28565b500490565b600082614d6157614d61614d28565b500690565b60008151614d78818560208601613eec565b9290920192915050565b607b60f81b815260008351614d9e816001850160208801613eec565b835190830190614db5816001840160208801613eec565b607d60f81b60019290910191820152600201949350505050565b7f416363657373436f6e74726f6c3a206163636f756e7420000000000000000000815260008351614e07816017850160208801613eec565b7001034b99036b4b9b9b4b733903937b6329607d1b6017918401918201528351614e38816028840160208801613eec565b01602801949350505050565b6001600160a01b0385811682528416602082015260408101839052608060608201819052600090611ad190830184613f18565b600060208284031215614e8957600080fd5b815161167f81613eb9565b600080845481600182811c915080831680614eb057607f831692505b6020808410821415614ed057634e487b7160e01b86526022600452602486fd5b818015614ee45760018114614ef557614f22565b60ff19861689528489019650614f22565b60008b81526020902060005b86811015614f1a5781548b820152908501908301614f01565b505084890196505b505050505050614b1d8185614d66565b67113730b6b2911d1160c11b81528651600090614f56816008850160208c01613eec565b61202360f01b6008918401918201528751614f7881600a840160208c01613eec565b61088b60f21b600a929091019182018190526e113232b9b1b934b83a34b7b7111d1160891b600c8301528751614fb581601b850160208c01613eec565b601b920191820152681134b6b0b3b2911d1160b91b601d82015261504161503461502e615018614fef615012614ffd82602689018e614d66565b61088b60f21b815260020190565b681137bbb732b9111d1160b91b815260090190565b8a614d66565b69113a37b5b2b724b2111d60b11b8152600a0190565b86614d66565b600b60fa1b815260010190565b9998505050505050505050565b60008451615060818460208901613eec565b845190830190615074818360208901613eec565b8451910190615087818360208801613eec565b0195945050505050565b703d913234b9b83630bcafba3cb832911d1160791b815281516000906150be816011850160208701613eec565b61088b60f21b6011939091019283015250601301919050565b600086516150e9818460208b01613eec565b6e3d913a3930b4ba2fba3cb832911d1160891b908301908152865161511581600f840160208b01613eec565b61088b60f21b600f92909101918201528551615138816011840160208a01613eec565b67113b30b63ab2911d60c11b601192909101918201528451615161816019840160208901613eec565b607d60f81b60199290910191820152835161518381601a840160208801613eec565b01601a01979650505050505050565b6d2261747472696275746573223a5b60901b815281516000906151bc81600e850160208701613eec565b605d60f81b600e939091019283015250600f01919050565b634e487b7160e01b600052603160045260246000fd5b600081600019048311821515161561520457615204614a4a565b500290565b60008161521857615218614a4a565b50600019019056fe9f2df0fed2c77648de5860a4cc508cd0818c85b8b8a1ab4ceeef8d981c8956a652ba824bfabc2bcfcdf7f0edbb486ebb05e1836c90e78047efeb949990f72e5f68747470733a2f2f6769746875622e636f6d2f45766f5665727365732f7075626c69632d6173736574732f7261772f6d61696e2f6e6674732f45766f2fa49807205ce4d355092ef5a8a18f56e8913cf4a201fbe287825b095693c21775364d3d7565c7a8300c96fd53e065d19b65848d7b23b3191adcd55621c744223ca2646970667358221220b737a00a195b66f21e6aee90d2c53287f8a73a5cf5020b964446a3ba3585d12464736f6c63430008090033",
  "linkReferences": {},
  "deployedLinkReferences": {}
}