{
  "_format": "hh-sol-artifact-1",
  "contractName": "MasterInvestorHarmony",
  "sourceName": "contracts/deprecated/MasterInvestorHarmony.sol",
  "abi": [
    {
      "inputs": [],
      "stateMutability": "nonpayable",
      "type": "constructor"
    },
    {
      "anonymous": false,
      "inputs": [
        {
          "indexed": true,
          "internalType": "address",
          "name": "user",
          "type": "address"
        },
        {
          "indexed": true,
          "internalType": "uint256",
          "name": "pid",
          "type": "uint256"
        },
        {
          "indexed": false,
          "internalType": "uint256",
          "name": "amount",
          "type": "uint256"
        }
      ],
      "name": "Deposit",
      "type": "event"
    },
    {
      "anonymous": false,
      "inputs": [
        {
          "indexed": true,
          "internalType": "address",
          "name": "user",
          "type": "address"
        },
        {
          "indexed": true,
          "internalType": "uint256",
          "name": "pid",
          "type": "uint256"
        },
        {
          "indexed": false,
          "internalType": "uint256",
          "name": "amount",
          "type": "uint256"
        }
      ],
      "name": "EmergencyWithdraw",
      "type": "event"
    },
    {
      "anonymous": false,
      "inputs": [
        {
          "indexed": false,
          "internalType": "uint8",
          "name": "version",
          "type": "uint8"
        }
      ],
      "name": "Initialized",
      "type": "event"
    },
    {
      "anonymous": false,
      "inputs": [
        {
          "indexed": true,
          "internalType": "bytes32",
          "name": "role",
          "type": "bytes32"
        },
        {
          "indexed": true,
          "internalType": "bytes32",
          "name": "previousAdminRole",
          "type": "bytes32"
        },
        {
          "indexed": true,
          "internalType": "bytes32",
          "name": "newAdminRole",
          "type": "bytes32"
        }
      ],
      "name": "RoleAdminChanged",
      "type": "event"
    },
    {
      "anonymous": false,
      "inputs": [
        {
          "indexed": true,
          "internalType": "bytes32",
          "name": "role",
          "type": "bytes32"
        },
        {
          "indexed": true,
          "internalType": "address",
          "name": "account",
          "type": "address"
        },
        {
          "indexed": true,
          "internalType": "address",
          "name": "sender",
          "type": "address"
        }
      ],
      "name": "RoleGranted",
      "type": "event"
    },
    {
      "anonymous": false,
      "inputs": [
        {
          "indexed": true,
          "internalType": "bytes32",
          "name": "role",
          "type": "bytes32"
        },
        {
          "indexed": true,
          "internalType": "address",
          "name": "account",
          "type": "address"
        },
        {
          "indexed": true,
          "internalType": "address",
          "name": "sender",
          "type": "address"
        }
      ],
      "name": "RoleRevoked",
      "type": "event"
    },
    {
      "anonymous": false,
      "inputs": [
        {
          "indexed": true,
          "internalType": "address",
          "name": "user",
          "type": "address"
        },
        {
          "indexed": true,
          "internalType": "uint256",
          "name": "pid",
          "type": "uint256"
        },
        {
          "indexed": false,
          "internalType": "uint256",
          "name": "amount",
          "type": "uint256"
        },
        {
          "indexed": false,
          "internalType": "uint256",
          "name": "lockAmount",
          "type": "uint256"
        }
      ],
      "name": "SendGovernanceTokenReward",
      "type": "event"
    },
    {
      "anonymous": false,
      "inputs": [
        {
          "indexed": true,
          "internalType": "address",
          "name": "user",
          "type": "address"
        },
        {
          "indexed": true,
          "internalType": "uint256",
          "name": "pid",
          "type": "uint256"
        },
        {
          "indexed": false,
          "internalType": "uint256",
          "name": "amount",
          "type": "uint256"
        }
      ],
      "name": "Withdraw",
      "type": "event"
    },
    {
      "inputs": [],
      "name": "ADMIN_ROLE",
      "outputs": [
        {
          "internalType": "bytes32",
          "name": "",
          "type": "bytes32"
        }
      ],
      "stateMutability": "view",
      "type": "function"
    },
    {
      "inputs": [],
      "name": "AUTHORIZED_ROLE",
      "outputs": [
        {
          "internalType": "bytes32",
          "name": "",
          "type": "bytes32"
        }
      ],
      "stateMutability": "view",
      "type": "function"
    },
    {
      "inputs": [],
      "name": "COMMUNITY_FUND_ADDRESS",
      "outputs": [
        {
          "internalType": "address",
          "name": "",
          "type": "address"
        }
      ],
      "stateMutability": "view",
      "type": "function"
    },
    {
      "inputs": [],
      "name": "DEFAULT_ADMIN_ROLE",
      "outputs": [
        {
          "internalType": "bytes32",
          "name": "",
          "type": "bytes32"
        }
      ],
      "stateMutability": "view",
      "type": "function"
    },
    {
      "inputs": [],
      "name": "DEV_ADDRESS",
      "outputs": [
        {
          "internalType": "address",
          "name": "",
          "type": "address"
        }
      ],
      "stateMutability": "view",
      "type": "function"
    },
    {
      "inputs": [],
      "name": "DEV_DEP_FEE",
      "outputs": [
        {
          "internalType": "uint256",
          "name": "",
          "type": "uint256"
        }
      ],
      "stateMutability": "view",
      "type": "function"
    },
    {
      "inputs": [
        {
          "internalType": "uint256",
          "name": "",
          "type": "uint256"
        }
      ],
      "name": "DEV_FEE_STAGES",
      "outputs": [
        {
          "internalType": "uint256",
          "name": "",
          "type": "uint256"
        }
      ],
      "stateMutability": "view",
      "type": "function"
    },
    {
      "inputs": [],
      "name": "FINISH_BONUS_AT_TIME",
      "outputs": [
        {
          "internalType": "uint256",
          "name": "",
          "type": "uint256"
        }
      ],
      "stateMutability": "view",
      "type": "function"
    },
    {
      "inputs": [],
      "name": "FOUNDER_ADDRESS",
      "outputs": [
        {
          "internalType": "address",
          "name": "",
          "type": "address"
        }
      ],
      "stateMutability": "view",
      "type": "function"
    },
    {
      "inputs": [],
      "name": "GOV_TOKEN",
      "outputs": [
        {
          "internalType": "contract EvoToken",
          "name": "",
          "type": "address"
        }
      ],
      "stateMutability": "view",
      "type": "function"
    },
    {
      "inputs": [
        {
          "internalType": "uint256",
          "name": "",
          "type": "uint256"
        }
      ],
      "name": "HALVING_AT_TIMES",
      "outputs": [
        {
          "internalType": "uint256",
          "name": "",
          "type": "uint256"
        }
      ],
      "stateMutability": "view",
      "type": "function"
    },
    {
      "inputs": [],
      "name": "LP_ADDRESS",
      "outputs": [
        {
          "internalType": "address",
          "name": "",
          "type": "address"
        }
      ],
      "stateMutability": "view",
      "type": "function"
    },
    {
      "inputs": [],
      "name": "PERCENT_FOR_COM",
      "outputs": [
        {
          "internalType": "uint256",
          "name": "",
          "type": "uint256"
        }
      ],
      "stateMutability": "view",
      "type": "function"
    },
    {
      "inputs": [],
      "name": "PERCENT_FOR_DEV",
      "outputs": [
        {
          "internalType": "uint256",
          "name": "",
          "type": "uint256"
        }
      ],
      "stateMutability": "view",
      "type": "function"
    },
    {
      "inputs": [],
      "name": "PERCENT_FOR_FOUNDERS",
      "outputs": [
        {
          "internalType": "uint256",
          "name": "",
          "type": "uint256"
        }
      ],
      "stateMutability": "view",
      "type": "function"
    },
    {
      "inputs": [],
      "name": "PERCENT_FOR_LP",
      "outputs": [
        {
          "internalType": "uint256",
          "name": "",
          "type": "uint256"
        }
      ],
      "stateMutability": "view",
      "type": "function"
    },
    {
      "inputs": [
        {
          "internalType": "uint256",
          "name": "",
          "type": "uint256"
        }
      ],
      "name": "PERCENT_LOCK_BONUS_REWARD",
      "outputs": [
        {
          "internalType": "uint256",
          "name": "",
          "type": "uint256"
        }
      ],
      "stateMutability": "view",
      "type": "function"
    },
    {
      "inputs": [
        {
          "internalType": "uint256",
          "name": "",
          "type": "uint256"
        }
      ],
      "name": "REWARD_MULTIPLIERS",
      "outputs": [
        {
          "internalType": "uint256",
          "name": "",
          "type": "uint256"
        }
      ],
      "stateMutability": "view",
      "type": "function"
    },
    {
      "inputs": [],
      "name": "REWARD_PER_SECOND",
      "outputs": [
        {
          "internalType": "uint256",
          "name": "",
          "type": "uint256"
        }
      ],
      "stateMutability": "view",
      "type": "function"
    },
    {
      "inputs": [],
      "name": "START_TIME",
      "outputs": [
        {
          "internalType": "uint256",
          "name": "",
          "type": "uint256"
        }
      ],
      "stateMutability": "view",
      "type": "function"
    },
    {
      "inputs": [],
      "name": "TOTAL_ALLOCATION_POINTS",
      "outputs": [
        {
          "internalType": "uint256",
          "name": "",
          "type": "uint256"
        }
      ],
      "stateMutability": "view",
      "type": "function"
    },
    {
      "inputs": [],
      "name": "USD_ORACLE",
      "outputs": [
        {
          "internalType": "address",
          "name": "",
          "type": "address"
        }
      ],
      "stateMutability": "view",
      "type": "function"
    },
    {
      "inputs": [],
      "name": "USER_DEP_FEE",
      "outputs": [
        {
          "internalType": "uint256",
          "name": "",
          "type": "uint256"
        }
      ],
      "stateMutability": "view",
      "type": "function"
    },
    {
      "inputs": [
        {
          "internalType": "uint256",
          "name": "",
          "type": "uint256"
        }
      ],
      "name": "USER_FEE_STAGES",
      "outputs": [
        {
          "internalType": "uint256",
          "name": "",
          "type": "uint256"
        }
      ],
      "stateMutability": "view",
      "type": "function"
    },
    {
      "inputs": [
        {
          "internalType": "uint256",
          "name": "_allocPoint",
          "type": "uint256"
        },
        {
          "internalType": "contract IERC20Upgradeable",
          "name": "_lpToken",
          "type": "address"
        },
        {
          "internalType": "bool",
          "name": "_withUpdate",
          "type": "bool"
        }
      ],
      "name": "add",
      "outputs": [],
      "stateMutability": "nonpayable",
      "type": "function"
    },
    {
      "inputs": [
        {
          "internalType": "uint256",
          "name": "_pid",
          "type": "uint256"
        }
      ],
      "name": "claimReward",
      "outputs": [],
      "stateMutability": "nonpayable",
      "type": "function"
    },
    {
      "inputs": [
        {
          "internalType": "uint256[]",
          "name": "_pids",
          "type": "uint256[]"
        }
      ],
      "name": "claimRewards",
      "outputs": [],
      "stateMutability": "nonpayable",
      "type": "function"
    },
    {
      "inputs": [
        {
          "internalType": "uint256",
          "name": "_pid",
          "type": "uint256"
        },
        {
          "internalType": "address",
          "name": "_user",
          "type": "address"
        },
        {
          "internalType": "uint256",
          "name": "_amount",
          "type": "uint256"
        }
      ],
      "name": "correctWithdrawal",
      "outputs": [],
      "stateMutability": "nonpayable",
      "type": "function"
    },
    {
      "inputs": [
        {
          "internalType": "uint256",
          "name": "_pid",
          "type": "uint256"
        },
        {
          "internalType": "uint256",
          "name": "_amount",
          "type": "uint256"
        }
      ],
      "name": "deposit",
      "outputs": [],
      "stateMutability": "nonpayable",
      "type": "function"
    },
    {
      "inputs": [
        {
          "internalType": "uint256",
          "name": "_pid",
          "type": "uint256"
        }
      ],
      "name": "emergencyWithdraw",
      "outputs": [],
      "stateMutability": "nonpayable",
      "type": "function"
    },
    {
      "inputs": [
        {
          "internalType": "uint256",
          "name": "_from",
          "type": "uint256"
        },
        {
          "internalType": "uint256",
          "name": "_to",
          "type": "uint256"
        }
      ],
      "name": "getLockPercentage",
      "outputs": [
        {
          "internalType": "uint256",
          "name": "",
          "type": "uint256"
        }
      ],
      "stateMutability": "view",
      "type": "function"
    },
    {
      "inputs": [
        {
          "internalType": "uint256",
          "name": "",
          "type": "uint256"
        },
        {
          "internalType": "uint256",
          "name": "",
          "type": "uint256"
        }
      ],
      "name": "getMultiplier",
      "outputs": [
        {
          "internalType": "uint256",
          "name": "",
          "type": "uint256"
        }
      ],
      "stateMutability": "pure",
      "type": "function"
    },
    {
      "inputs": [
        {
          "internalType": "uint256",
          "name": "",
          "type": "uint256"
        }
      ],
      "name": "getNewRewardPerSecond",
      "outputs": [
        {
          "internalType": "uint256",
          "name": "",
          "type": "uint256"
        }
      ],
      "stateMutability": "pure",
      "type": "function"
    },
    {
      "inputs": [
        {
          "internalType": "uint256",
          "name": "_from",
          "type": "uint256"
        },
        {
          "internalType": "uint256",
          "name": "_to",
          "type": "uint256"
        },
        {
          "internalType": "uint256",
          "name": "_allocPoint",
          "type": "uint256"
        }
      ],
      "name": "getPoolReward",
      "outputs": [
        {
          "internalType": "uint256",
          "name": "forDev",
          "type": "uint256"
        },
        {
          "internalType": "uint256",
          "name": "forFarmer",
          "type": "uint256"
        },
        {
          "internalType": "uint256",
          "name": "forLP",
          "type": "uint256"
        },
        {
          "internalType": "uint256",
          "name": "forCom",
          "type": "uint256"
        },
        {
          "internalType": "uint256",
          "name": "forFounders",
          "type": "uint256"
        }
      ],
      "stateMutability": "view",
      "type": "function"
    },
    {
      "inputs": [
        {
          "internalType": "bytes32",
          "name": "role",
          "type": "bytes32"
        }
      ],
      "name": "getRoleAdmin",
      "outputs": [
        {
          "internalType": "bytes32",
          "name": "",
          "type": "bytes32"
        }
      ],
      "stateMutability": "view",
      "type": "function"
    },
    {
      "inputs": [
        {
          "internalType": "bytes32",
          "name": "role",
          "type": "bytes32"
        },
        {
          "internalType": "address",
          "name": "account",
          "type": "address"
        }
      ],
      "name": "grantRole",
      "outputs": [],
      "stateMutability": "nonpayable",
      "type": "function"
    },
    {
      "inputs": [
        {
          "internalType": "bytes32",
          "name": "role",
          "type": "bytes32"
        },
        {
          "internalType": "address",
          "name": "account",
          "type": "address"
        }
      ],
      "name": "hasRole",
      "outputs": [
        {
          "internalType": "bool",
          "name": "",
          "type": "bool"
        }
      ],
      "stateMutability": "view",
      "type": "function"
    },
    {
      "inputs": [
        {
          "components": [
            {
              "internalType": "contract EvoToken",
              "name": "govToken",
              "type": "address"
            },
            {
              "internalType": "uint256",
              "name": "rewardPerSecond",
              "type": "uint256"
            },
            {
              "internalType": "uint256",
              "name": "startTime",
              "type": "uint256"
            },
            {
              "internalType": "uint256",
              "name": "halvingAfterTime",
              "type": "uint256"
            },
            {
              "internalType": "uint256",
              "name": "userDepositFee",
              "type": "uint256"
            },
            {
              "internalType": "uint256",
              "name": "devDepositFee",
              "type": "uint256"
            },
            {
              "internalType": "address",
              "name": "devAddress",
              "type": "address"
            },
            {
              "internalType": "address",
              "name": "lpAddress",
              "type": "address"
            },
            {
              "internalType": "address",
              "name": "communityFundAddress",
              "type": "address"
            },
            {
              "internalType": "address",
              "name": "founderAddress",
              "type": "address"
            },
            {
              "internalType": "uint256[]",
              "name": "rewardMultipliers",
              "type": "uint256[]"
            },
            {
              "internalType": "uint256[]",
              "name": "userFeeStages",
              "type": "uint256[]"
            },
            {
              "internalType": "uint256[]",
              "name": "devFeeStages",
              "type": "uint256[]"
            },
            {
              "internalType": "uint256[]",
              "name": "percentLockBonusReward",
              "type": "uint256[]"
            }
          ],
          "internalType": "struct MasterInvestorHarmony.ConstructorParams",
          "name": "params",
          "type": "tuple"
        }
      ],
      "name": "initialize",
      "outputs": [],
      "stateMutability": "nonpayable",
      "type": "function"
    },
    {
      "inputs": [],
      "name": "massUpdatePools",
      "outputs": [],
      "stateMutability": "nonpayable",
      "type": "function"
    },
    {
      "inputs": [
        {
          "internalType": "uint256",
          "name": "_pid",
          "type": "uint256"
        },
        {
          "internalType": "address",
          "name": "_user",
          "type": "address"
        }
      ],
      "name": "pendingReward",
      "outputs": [
        {
          "internalType": "uint256",
          "name": "",
          "type": "uint256"
        }
      ],
      "stateMutability": "view",
      "type": "function"
    },
    {
      "inputs": [
        {
          "internalType": "contract IERC20Upgradeable",
          "name": "",
          "type": "address"
        }
      ],
      "name": "poolExistence",
      "outputs": [
        {
          "internalType": "bool",
          "name": "",
          "type": "bool"
        }
      ],
      "stateMutability": "view",
      "type": "function"
    },
    {
      "inputs": [
        {
          "internalType": "address",
          "name": "",
          "type": "address"
        }
      ],
      "name": "poolId",
      "outputs": [
        {
          "internalType": "uint256",
          "name": "",
          "type": "uint256"
        }
      ],
      "stateMutability": "view",
      "type": "function"
    },
    {
      "inputs": [
        {
          "internalType": "uint256",
          "name": "",
          "type": "uint256"
        }
      ],
      "name": "poolInfo",
      "outputs": [
        {
          "internalType": "contract IERC20Upgradeable",
          "name": "lpToken",
          "type": "address"
        },
        {
          "internalType": "uint256",
          "name": "allocPoint",
          "type": "uint256"
        },
        {
          "internalType": "uint256",
          "name": "lastRewardTime",
          "type": "uint256"
        },
        {
          "internalType": "uint256",
          "name": "accGovTokenPerShare",
          "type": "uint256"
        }
      ],
      "stateMutability": "view",
      "type": "function"
    },
    {
      "inputs": [],
      "name": "poolLength",
      "outputs": [
        {
          "internalType": "uint256",
          "name": "",
          "type": "uint256"
        }
      ],
      "stateMutability": "view",
      "type": "function"
    },
    {
      "inputs": [
        {
          "internalType": "address",
          "name": "_newOwner",
          "type": "address"
        }
      ],
      "name": "reclaimTokenOwnership",
      "outputs": [],
      "stateMutability": "nonpayable",
      "type": "function"
    },
    {
      "inputs": [
        {
          "internalType": "bytes32",
          "name": "role",
          "type": "bytes32"
        },
        {
          "internalType": "address",
          "name": "account",
          "type": "address"
        }
      ],
      "name": "renounceRole",
      "outputs": [],
      "stateMutability": "nonpayable",
      "type": "function"
    },
    {
      "inputs": [
        {
          "internalType": "uint256",
          "name": "_pid",
          "type": "uint256"
        },
        {
          "internalType": "address",
          "name": "_user",
          "type": "address"
        },
        {
          "internalType": "uint256",
          "name": "_time",
          "type": "uint256"
        }
      ],
      "name": "reviseDeposit",
      "outputs": [],
      "stateMutability": "nonpayable",
      "type": "function"
    },
    {
      "inputs": [
        {
          "internalType": "uint256",
          "name": "_pid",
          "type": "uint256"
        },
        {
          "internalType": "address",
          "name": "_user",
          "type": "address"
        },
        {
          "internalType": "uint256",
          "name": "_time",
          "type": "uint256"
        }
      ],
      "name": "reviseWithdraw",
      "outputs": [],
      "stateMutability": "nonpayable",
      "type": "function"
    },
    {
      "inputs": [
        {
          "internalType": "bytes32",
          "name": "role",
          "type": "bytes32"
        },
        {
          "internalType": "address",
          "name": "account",
          "type": "address"
        }
      ],
      "name": "revokeRole",
      "outputs": [],
      "stateMutability": "nonpayable",
      "type": "function"
    },
    {
      "inputs": [
        {
          "internalType": "uint256",
          "name": "_pid",
          "type": "uint256"
        },
        {
          "internalType": "uint256",
          "name": "_allocPoint",
          "type": "uint256"
        },
        {
          "internalType": "bool",
          "name": "_withUpdate",
          "type": "bool"
        }
      ],
      "name": "set",
      "outputs": [],
      "stateMutability": "nonpayable",
      "type": "function"
    },
    {
      "inputs": [
        {
          "internalType": "bytes4",
          "name": "interfaceId",
          "type": "bytes4"
        }
      ],
      "name": "supportsInterface",
      "outputs": [
        {
          "internalType": "bool",
          "name": "",
          "type": "bool"
        }
      ],
      "stateMutability": "view",
      "type": "function"
    },
    {
      "inputs": [],
      "name": "totalAllocPoint",
      "outputs": [
        {
          "internalType": "uint256",
          "name": "",
          "type": "uint256"
        }
      ],
      "stateMutability": "view",
      "type": "function"
    },
    {
      "inputs": [
        {
          "internalType": "uint256",
          "name": "kind",
          "type": "uint256"
        },
        {
          "internalType": "address",
          "name": "_address",
          "type": "address"
        }
      ],
      "name": "updateAddress",
      "outputs": [],
      "stateMutability": "nonpayable",
      "type": "function"
    },
    {
      "inputs": [
        {
          "internalType": "uint256",
          "name": "kind",
          "type": "uint256"
        },
        {
          "internalType": "uint256",
          "name": "fee",
          "type": "uint256"
        }
      ],
      "name": "updateDepositFee",
      "outputs": [],
      "stateMutability": "nonpayable",
      "type": "function"
    },
    {
      "inputs": [
        {
          "internalType": "uint256",
          "name": "kind",
          "type": "uint256"
        },
        {
          "internalType": "uint256[]",
          "name": "feeStages",
          "type": "uint256[]"
        }
      ],
      "name": "updateFeeStages",
      "outputs": [],
      "stateMutability": "nonpayable",
      "type": "function"
    },
    {
      "inputs": [
        {
          "internalType": "uint256[]",
          "name": "times",
          "type": "uint256[]"
        }
      ],
      "name": "updateHalvingAtTimes",
      "outputs": [],
      "stateMutability": "nonpayable",
      "type": "function"
    },
    {
      "inputs": [
        {
          "internalType": "uint256",
          "name": "time",
          "type": "uint256"
        }
      ],
      "name": "updateLastRewardTime",
      "outputs": [],
      "stateMutability": "nonpayable",
      "type": "function"
    },
    {
      "inputs": [
        {
          "internalType": "uint256",
          "name": "kind",
          "type": "uint256"
        },
        {
          "internalType": "uint256",
          "name": "percent",
          "type": "uint256"
        }
      ],
      "name": "updateLockPercent",
      "outputs": [],
      "stateMutability": "nonpayable",
      "type": "function"
    },
    {
      "inputs": [
        {
          "internalType": "uint256",
          "name": "_pid",
          "type": "uint256"
        }
      ],
      "name": "updatePool",
      "outputs": [],
      "stateMutability": "nonpayable",
      "type": "function"
    },
    {
      "inputs": [
        {
          "internalType": "uint256[]",
          "name": "multipliers",
          "type": "uint256[]"
        }
      ],
      "name": "updateRewardMultipliers",
      "outputs": [],
      "stateMutability": "nonpayable",
      "type": "function"
    },
    {
      "inputs": [
        {
          "internalType": "uint256",
          "name": "reward",
          "type": "uint256"
        }
      ],
      "name": "updateRewardPerSecond",
      "outputs": [],
      "stateMutability": "nonpayable",
      "type": "function"
    },
    {
      "inputs": [
        {
          "internalType": "uint256",
          "name": "time",
          "type": "uint256"
        }
      ],
      "name": "updateStartTime",
      "outputs": [],
      "stateMutability": "nonpayable",
      "type": "function"
    },
    {
      "inputs": [
        {
          "internalType": "uint256[]",
          "name": "lockPercents",
          "type": "uint256[]"
        }
      ],
      "name": "updateUserLockPercents",
      "outputs": [],
      "stateMutability": "nonpayable",
      "type": "function"
    },
    {
      "inputs": [
        {
          "internalType": "uint256",
          "name": "_pid",
          "type": "uint256"
        }
      ],
      "name": "userDelta",
      "outputs": [
        {
          "internalType": "uint256",
          "name": "",
          "type": "uint256"
        }
      ],
      "stateMutability": "view",
      "type": "function"
    },
    {
      "inputs": [
        {
          "internalType": "uint256",
          "name": "_pid",
          "type": "uint256"
        },
        {
          "internalType": "address",
          "name": "_address",
          "type": "address"
        }
      ],
      "name": "userDeltaOf",
      "outputs": [
        {
          "internalType": "uint256",
          "name": "",
          "type": "uint256"
        }
      ],
      "stateMutability": "view",
      "type": "function"
    },
    {
      "inputs": [
        {
          "internalType": "address",
          "name": "",
          "type": "address"
        }
      ],
      "name": "userGlobalInfo",
      "outputs": [
        {
          "internalType": "uint256",
          "name": "",
          "type": "uint256"
        }
      ],
      "stateMutability": "view",
      "type": "function"
    },
    {
      "inputs": [
        {
          "internalType": "uint256",
          "name": "",
          "type": "uint256"
        },
        {
          "internalType": "address",
          "name": "",
          "type": "address"
        }
      ],
      "name": "userInfo",
      "outputs": [
        {
          "internalType": "uint256",
          "name": "amount",
          "type": "uint256"
        },
        {
          "internalType": "uint256",
          "name": "rewardDebt",
          "type": "uint256"
        },
        {
          "internalType": "uint256",
          "name": "rewardDebtAtTime",
          "type": "uint256"
        },
        {
          "internalType": "uint256",
          "name": "lastWithdrawTime",
          "type": "uint256"
        },
        {
          "internalType": "uint256",
          "name": "firstDepositTime",
          "type": "uint256"
        },
        {
          "internalType": "uint256",
          "name": "timeDelta",
          "type": "uint256"
        },
        {
          "internalType": "uint256",
          "name": "lastDepositTime",
          "type": "uint256"
        }
      ],
      "stateMutability": "view",
      "type": "function"
    },
    {
      "inputs": [
        {
          "internalType": "uint256",
          "name": "_pid",
          "type": "uint256"
        },
        {
          "internalType": "uint256",
          "name": "_amount",
          "type": "uint256"
        }
      ],
      "name": "withdraw",
      "outputs": [],
      "stateMutability": "nonpayable",
      "type": "function"
    },
    {
      "inputs": [
        {
          "internalType": "uint256",
          "name": "_pid",
          "type": "uint256"
        },
        {
          "internalType": "uint256",
          "name": "_amount",
          "type": "uint256"
        },
        {
          "internalType": "address",
          "name": "_address",
          "type": "address"
        }
      ],
      "name": "withdrawForClaim",
      "outputs": [],
      "stateMutability": "nonpayable",
      "type": "function"
    }
  ],
  "bytecode": "0x60806040523480156200001157600080fd5b50600054610100900460ff1615808015620000335750600054600160ff909116105b8062000063575062000050306200013d60201b6200295c1760201c565b15801562000063575060005460ff166001145b620000cb5760405162461bcd60e51b815260206004820152602e60248201527f496e697469616c697a61626c653a20636f6e747261637420697320616c72656160448201526d191e481a5b9a5d1a585b1a5e995960921b606482015260840160405180910390fd5b6000805460ff191660011790558015620000ef576000805461ff0019166101001790555b801562000136576000805461ff0019169055604051600181527f7f26b83ff96e1f2b6a682f133852f6798a09c465da95921460cefb38474024989060200160405180910390a15b506200014c565b6001600160a01b03163b151590565b613a3a806200015c6000396000f3fe608060405234801561001057600080fd5b50600436106104075760003560e01c806365cf377111610220578063c6929e5311610130578063e2bbb158116100b8578063f491adf711610087578063f491adf71461097d578063f646825114610990578063f92d34a9146109a5578063f930e770146109b8578063ff51a272146109cb57600080fd5b8063e2bbb1581461093b578063ed9bdeda1461094e578063eda6704814610957578063f1528cee1461096a57600080fd5b8063d547741f116100ff578063d547741f146108e3578063d56cf10f146108f6578063d79c395314610909578063d9608d8a14610912578063ddaa26ad1461093257600080fd5b8063c6929e5314610869578063c7b6e52514610872578063c8ed768014610885578063cbd258b5146108c057600080fd5b806398969e82116101b3578063a82859c511610182578063a82859c51461080a578063ae169a501461081d578063b787771614610830578063bd27e3f814610843578063c35cadbe1461085657600080fd5b806398969e82146107d25780639b963d2a146107e5578063a02306f9146107f9578063a217fddf1461080257600080fd5b8063874feed3116101ef578063874feed3146107045780638dbb1e3a1461071757806391d148541461072d57806393f1a40b1461074057600080fd5b806365cf3771146106c057806375b238fc146106d35780637c0c5788146106e857806382386d58146106f157600080fd5b806336568abe1161031b5780635312ea8e116102ae5780635eac62391161027d5780635eac62391461066c5780636066debd1461067f578063630b5ba11461069257806364482f791461069a5780636461fc8c146106ad57600080fd5b80635312ea8e1461062a5780635639e8cf1461063d57806356407a61146106505780635643759e1461065957600080fd5b8063441a3e70116102ea578063441a3e70146105e85780634abbbd28146105fb5780634b0cf2061461060457806351eb05a61461061757600080fd5b806336568abe146105a65780634004c8e7146105b957806343628fb4146105cc57806343e372c6146105d557600080fd5b80631526fe271161039e578063248a9ca31161036d578063248a9ca3146105375780632ab29df71461055a5780632f2ff15d1461056d57806332399e921461058057806335582e681461059357600080fd5b80631526fe27146104cc57806317caf6f1146105095780631b80c010146105115780631eaaa0451461052457600080fd5b8063081e3eda116103da578063081e3eda1461049557806309ae4d2c1461049d5780630a67d518146104b05780630d329fea146104b957600080fd5b806301ffc9a71461040c578063027e69991461043457806304aa0f611461045557806306bcf02f14610480575b600080fd5b61041f61041a366004613253565b6109eb565b60405190151581526020015b60405180910390f35b61044761044236600461327d565b610a22565b60405190815260200161042b565b60ce54610468906001600160a01b031681565b6040516001600160a01b03909116815260200161042b565b61049361048e36600461327d565b610a43565b005b60de54610447565b6104476104ab36600461327d565b610a61565b61044760db5481565b6104936104c7366004613366565b610aa9565b6104df6104da36600461327d565b610b51565b604080516001600160a01b039095168552602085019390935291830152606082015260800161042b565b60d854610447565b61049361051f3660046133d2565b610b95565b61049361053236600461354d565b610efa565b61044761054536600461327d565b60009081526065602052604090206001015490565b61049361056836600461358f565b61116b565b61049361057b36600461358f565b611227565b60cd54610468906001600160a01b031681565b6104936105a13660046135bf565b61124c565b6104936105b436600461358f565b6112a4565b6104936105c736600461327d565b61131e565b61044760d85481565b6104936105e33660046135e1565b61133c565b6104936105f63660046135bf565b61149f565b61044760d45481565b61044761061236600461327d565b611861565b61049361062536600461327d565b611871565b61049361063836600461327d565b611f05565b60cb54610468906001600160a01b031681565b61044760d65481565b61049361066736600461360f565b61207b565b61049361067a366004613647565b6120e1565b61049361068d36600461360f565b612121565b610493612163565b6104936106a836600461367c565b61218a565b6104936106bb36600461327d565b612222565b6104936106ce366004613647565b612240565b6104476000805160206139e583398151915281565b61044760d55481565b6104936106ff36600461360f565b61226b565b61044761071236600461327d565b6122ad565b6104476107253660046135bf565b600092915050565b61041f61073b36600461358f565b6122bd565b61079d61074e36600461358f565b60e0602052816000526040600020602052806000526040600020600091509150508060000154908060010154908060020154908060030154908060040154908060050154908060060154905087565b604080519788526020880196909652948601939093526060850191909152608084015260a083015260c082015260e00161042b565b6104476107e036600461358f565b6122e8565b6104476107f336600461327d565b50600090565b61044760dc5481565b610447600081565b61044761081836600461327d565b612446565b61049361082b36600461327d565b612456565b61049361083e366004613647565b61246b565b610493610851366004613647565b612496565b6104936108643660046135bf565b6124c1565b61044760dd5481565b61044761088036600461358f565b6124f9565b6108986108933660046136aa565b612553565b604080519586526020860194909452928401919091526060830152608082015260a00161042b565b61041f6108ce3660046136d6565b60e26020526000908152604090205460ff1681565b6104936108f136600461358f565b612740565b60cc54610468906001600160a01b031681565b61044760cf5481565b6104476109203660046136d6565b60e16020526000908152604090205481565b61044760d75481565b6104936109493660046135bf565b612765565b61044760da5481565b6104936109653660046136d6565b61281a565b60ca54610468906001600160a01b031681565b61044761098b36600461327d565b612895565b6104476000805160206139c583398151915281565b60c954610468906001600160a01b031681565b6104476109c63660046135bf565b6128a5565b6104476109d93660046136d6565b60df6020526000908152604090205481565b60006001600160e01b03198216637965db0b60e01b1480610a1c57506301ffc9a760e01b6001600160e01b03198316145b92915050565b60d18181548110610a3257600080fd5b600091825260209091200154905081565b6000805160206139c5833981519152610a5b8161296b565b5060d755565b600081815260e0602090815260408083203384529091528120600381015415610a9a576003810154610a939042613709565b9392505050565b6004810154610a939042613709565b6000805160206139c5833981519152610ac18161296b565b8260011415610ae3578151610add9060d29060208501906131f3565b50505050565b8260021415610aff578151610add9060d39060208501906131f3565b60405162461bcd60e51b815260206004820152601760248201527f496e76616c6964206b696e64206964656e74696669657200000000000000000060448201526064015b60405180910390fd5b505050565b60de8181548110610b6157600080fd5b600091825260209091206004909102018054600182015460028301546003909301546001600160a01b039092169350919084565b600054610100900460ff1615808015610bb55750600054600160ff909116105b80610bcf5750303b158015610bcf575060005460ff166001145b610c325760405162461bcd60e51b815260206004820152602e60248201527f496e697469616c697a61626c653a20636f6e747261637420697320616c72656160448201526d191e481a5b9a5d1a585b1a5e995960921b6064820152608401610b43565b6000805460ff191660011790558015610c55576000805461ff0019166101001790555b610c5d612975565b610c6561299e565b610c706000336129cd565b610c886000805160206139e5833981519152336129cd565b610ca06000805160206139c5833981519152336129cd565b6101608201518051610cba9160d2916020909101906131f3565b506101808201518051610cd59160d3916020909101906131f3565b50815160c980546001600160a01b0319166001600160a01b0390921691909117905560208083015160cf55604083015160d755608083015160d55560a083015160d6556101408301518051610d2e9260d09201906131f3565b5060c082015160cb80546001600160a01b039283166001600160a01b03199182161790915560e084015160cc805491841691831691909117905561010084015160cd805491841691831691909117905561012084015160ce80549190931691161790556101a08201518051610dab9160d9916020909101906131f3565b50600060d88190555b60d054610dc390600190613709565b811015610e47576040830151600090610ddd836001613720565b8560600151610dec9190613738565b610df69190613720565b610e01906001613720565b60d180546001810182556000919091527f695fb3134ad82c3b8022bc5464edd0bcc9424ef672b52245dcb6ab2374327ce301555080610e3f81613757565b915050610db4565b50604082015160d054610e5c90600190613709565b8360600151610e6b9190613738565b610e759190613720565b60d45560d180546001810182556000919091526000197f695fb3134ad82c3b8022bc5464edd0bcc9424ef672b52245dcb6ab2374327ce3909101558015610ef6576000805461ff0019169055604051600181527f7f26b83ff96e1f2b6a682f133852f6798a09c465da95921460cefb38474024989060200160405180910390a15b5050565b6000805160206139e5833981519152610f128161296b565b6001600160a01b038316600090815260e26020526040902054839060ff1615610f8f5760405162461bcd60e51b815260206004820152602960248201527f4d6173746572496e766573746f723a3a6e6f6e4475706c6963617465643a20646044820152681d5c1b1a58d85d195960ba1b6064820152608401610b43565b6001600160a01b038416600090815260df6020526040902054156110085760405162461bcd60e51b815260206004820152602a60248201527f4d6173746572496e766573746f723a3a6164643a206c7020697320616c726561604482015269191e481a5b881c1bdbdb60b21b6064820152608401610b43565b821561101657611016612163565b600060d75442116110295760d75461102b565b425b90508560d8600082825461103f9190613720565b909155505060de54611052906001613720565b6001600160a01b03958616600081815260df602090815260408083209490945560e281528382208054600160ff1990911681179091558451608081018652938452908301998a529282019384526060820181815260de8054948501815590915290517ffae8130c0619f84b4b44f01b84806f04e82e536d70e05f2356977fa318aecc1a600490930292830180546001600160a01b031916919098161790965595517ffae8130c0619f84b4b44f01b84806f04e82e536d70e05f2356977fa318aecc1b870155517ffae8130c0619f84b4b44f01b84806f04e82e536d70e05f2356977fa318aecc1c860155505090517ffae8130c0619f84b4b44f01b84806f04e82e536d70e05f2356977fa318aecc1d9092019190915550565b6000805160206139c58339815191526111838161296b565b82600114156111ac5760cb80546001600160a01b0319166001600160a01b038416179055505050565b82600214156111d55760cc80546001600160a01b0319166001600160a01b038416179055505050565b82600314156111fe5760cd80546001600160a01b0319166001600160a01b038416179055505050565b8260041415610aff5760ce80546001600160a01b0319166001600160a01b038416179055505050565b6000828152606560205260409020600101546112428161296b565b610b4c83836129cd565b6000805160206139c58339815191526112648161296b565b8260011415611274575060da5550565b8260021415611284575060db5550565b8260031415611294575060dc5550565b8260041415610aff575060dd5550565b6001600160a01b03811633146113145760405162461bcd60e51b815260206004820152602f60248201527f416363657373436f6e74726f6c3a2063616e206f6e6c792072656e6f756e636560448201526e103937b632b9903337b91039b2b63360891b6064820152608401610b43565b610ef68282612a53565b6000805160206139c58339815191526113368161296b565b5060cf55565b6002609754141561135f5760405162461bcd60e51b8152600401610b4390613772565b60026097556000805160206139c583398151915261137c8161296b565b600060de8581548110611391576113916137a9565b6000918252602080832088845260e0825260408085206001600160a01b038916865290925292208054600490920290920192508511156113e35760405162461bcd60e51b8152600401610b43906137bf565b6113ec86611871565b6113f68685612aba565b841561149257848160000160008282546114109190613709565b9091555050815461142b906001600160a01b03168587612d8f565b6003820154815464e8d4a510009161144291613738565b61144c9190613801565b600182015560405185815286906001600160a01b038616907ff279e6a1f5e320cca91135676d9cb6e44ca8a08c0b88342bcdb1144f6511b5689060200160405180910390a35b5050600160975550505050565b600260975414156114c25760405162461bcd60e51b8152600401610b4390613772565b6002609781905550600060de83815481106114df576114df6137a9565b6000918252602080832086845260e0909152604083206004909202019250816115053390565b6001600160a01b03166001600160a01b031681526020019081526020016000209050828160000154101561154b5760405162461bcd60e51b8152600401610b43906137bf565b61155484611871565b61155d84612de5565b821561185657828160000160008282546115779190613709565b909155505060038101541561159f5760038101546115959042613709565b60058201556115b4565b60048101546115ae9042613709565b60058201555b6006810154839060009042141561160257606460d36000815481106115db576115db6137a9565b9060005260206000200154866115f19190613738565b6115fb9190613801565b90506117bd565b600183600501541015801561161c5750610e108360050154105b1561163757606460d36001815481106115db576115db6137a9565b610e108360050154101580156116535750620151808360050154105b1561166e57606460d36002815481106115db576115db6137a9565b6201518083600501541015801561168b57506203f4808360050154105b156116a657606460d36003815481106115db576115db6137a9565b6203f4808360050154101580156116c35750620697808360050154105b156116de57606460d36004815481106115db576115db6137a9565b620697808360050154101580156116fb5750621275008360050154105b15611717576103e860d36005815481106115db576115db6137a9565b6212750083600501541015801561173457506224ea008360050154105b156117505761271060d36006815481106115db576115db6137a9565b6224ea008360050154106117755761271060d36007815481106115db576115db6137a9565b60405162461bcd60e51b815260206004820152601860248201527f536f6d657468696e6720697320766572792062726f6b656e00000000000000006044820152606401610b43565b6117d4335b85546001600160a01b03169084612d8f565b60cb5484546117f0916001600160a01b03918216911683612d8f565b6003840154835464e8d4a510009161180791613738565b6118119190613801565b6001840155604051858152869033907ff279e6a1f5e320cca91135676d9cb6e44ca8a08c0b88342bcdb1144f6511b5689060200160405180910390a350504260038201555b505060016097555050565b60d28181548110610a3257600080fd5b600060de8281548110611886576118866137a9565b90600052602060002090600402019050806002015442116118a5575050565b80546040516370a0823160e01b81523060048201526000916001600160a01b0316906370a082319060240160206040518083038186803b1580156118e857600080fd5b505afa1580156118fc573d6000803e3d6000fd5b505050506040513d601f19601f820116820180604052508101906119209190613823565b905080158061193157506001820154155b1561194157504260029091015550565b600080600080600061195c8760020154428960010154612553565b60c9546040516340c10f1960e01b8152959a50939850919650945092506001600160a01b0316906340c10f1990611999903090889060040161383c565b600060405180830381600087803b1580156119b357600080fd5b505af11580156119c7573d6000803e3d6000fd5b50505050858464e8d4a510006119dd9190613738565b6119e79190613801565b8760030160008282546119fa9190613720565b909155505042600288015573465d89df3e9b1afb6957b58be6137feebb8e9f618515611b5257600060d454421115611a33576000611a4a565b6064611a4088604b613738565b611a4a9190613801565b9050600060d454421115611a5e5787611a75565b6064611a6b896019613738565b611a759190613801565b60c95460cb546040516340c10f1960e01b81529293506001600160a01b03918216926340c10f1992611aad921690859060040161383c565b600060405180830381600087803b158015611ac757600080fd5b505af1158015611adb573d6000803e3d6000fd5b505050506000821115611b4f5760cb546040516328a1f12360e11b81526001600160a01b0385811692635143e24692611b1c9290911690869060040161383c565b600060405180830381600087803b158015611b3657600080fd5b505af1158015611b4a573d6000803e3d6000fd5b505050505b50505b8315611c8a57600060d454421115611b6b576000611b82565b6064611b7886602d613738565b611b829190613801565b9050600060d454421115611b965785611bad565b6064611ba3876037613738565b611bad9190613801565b60c95460cc546040516340c10f1960e01b81529293506001600160a01b03918216926340c10f1992611be5921690859060040161383c565b600060405180830381600087803b158015611bff57600080fd5b505af1158015611c13573d6000803e3d6000fd5b505050506000821115611c875760cc546040516328a1f12360e11b81526001600160a01b0385811692635143e24692611c549290911690869060040161383c565b600060405180830381600087803b158015611c6e57600080fd5b505af1158015611c82573d6000803e3d6000fd5b505050505b50505b8215611dc257600060d454421115611ca3576000611cba565b6064611cb0856055613738565b611cba9190613801565b9050600060d454421115611cce5784611ce5565b6064611cdb86600f613738565b611ce59190613801565b60c95460cd546040516340c10f1960e01b81529293506001600160a01b03918216926340c10f1992611d1d921690859060040161383c565b600060405180830381600087803b158015611d3757600080fd5b505af1158015611d4b573d6000803e3d6000fd5b505050506000821115611dbf5760cd546040516328a1f12360e11b81526001600160a01b0385811692635143e24692611d8c9290911690869060040161383c565b600060405180830381600087803b158015611da657600080fd5b505af1158015611dba573d6000803e3d6000fd5b505050505b50505b8115611efa57600060d454421115611ddb576000611df2565b6064611de884605f613738565b611df29190613801565b9050600060d454421115611e065783611e1d565b6064611e13856005613738565b611e1d9190613801565b60c95460ce546040516340c10f1960e01b81529293506001600160a01b03918216926340c10f1992611e55921690859060040161383c565b600060405180830381600087803b158015611e6f57600080fd5b505af1158015611e83573d6000803e3d6000fd5b505050506000821115611ef75760ce546040516328a1f12360e11b81526001600160a01b0385811692635143e24692611ec49290911690869060040161383c565b600060405180830381600087803b158015611ede57600080fd5b505af1158015611ef2573d6000803e3d6000fd5b505050505b50505b505050505050505050565b60026097541415611f285760405162461bcd60e51b8152600401610b4390613772565b6002609781905550600060de8281548110611f4557611f456137a9565b6000918252602080832085845260e090915260408320600490920201925081611f6b3390565b6001600160a01b03166001600160a01b0316815260200190815260200160002090506000606460d2600081548110611fa557611fa56137a9565b90600052602060002001548360000154611fbf9190613738565b611fc99190613801565b90506000606460d3600081548110611fe357611fe36137a9565b90600052602060002001548460000154611ffd9190613738565b6120079190613801565b60008085556001850155905061201c336117c2565b60cb548454612038916001600160a01b03918216911683612d8f565b604051828152859033907fbb757047c2b5f3974fe26b7c10f732e7bce710b0952a71082702781e62ae05959060200160405180910390a350506001609755505050565b6000805160206139c58339815191526120938161296b565b600060de85815481106120a8576120a86137a9565b6000918252602090912060049091020180549091506120d1906001600160a01b03168585612d8f565b6120da85611871565b5050505050565b60005b8151811015610ef65761210f828281518110612102576121026137a9565b6020026020010151612456565b8061211981613757565b9150506120e4565b6000805160206139c58339815191526121398161296b565b50600092835260e0602090815260408085206001600160a01b039094168552929052912060030155565b60de5460005b81811015610ef65761217a81611871565b61218381613757565b9050612169565b6000805160206139e58339815191526121a28161296b565b81156121b0576121b0612163565b8260de85815481106121c4576121c46137a9565b90600052602060002090600402016001015460d8546121e39190613709565b6121ed9190613720565b60d8819055508260de8581548110612207576122076137a9565b90600052602060002090600402016001018190555050505050565b6000805160206139c583398151915261223a8161296b565b5060d455565b6000805160206139c58339815191526122588161296b565b8151610b4c9060d99060208501906131f3565b6000805160206139c58339815191526122838161296b565b50600092835260e0602090815260408085206001600160a01b039094168552929052912060040155565b60d08181548110610a3257600080fd5b60009182526065602090815260408084206001600160a01b0393909316845291905290205460ff1690565b60008060de84815481106122fe576122fe6137a9565b6000918252602080832087845260e0825260408085206001600160a01b038981168752935280852060049485029092016003810154815492516370a0823160e01b8152309681019690965290965091949193919216906370a082319060240160206040518083038186803b15801561237557600080fd5b505afa158015612389573d6000803e3d6000fd5b505050506040513d601f19601f820116820180604052508101906123ad9190613823565b90508360020154421180156123c25750600081115b1561240e5760006123dc8560020154428760010154612553565b509193508492506123f6915083905064e8d4a51000613738565b6124009190613801565b61240a9084613720565b9250505b6001830154835464e8d4a5100090612427908590613738565b6124319190613801565b61243b9190613709565b979650505050505050565b60d98181548110610a3257600080fd5b61245f81611871565b61246881612de5565b50565b6000805160206139c58339815191526124838161296b565b8151610b4c9060d19060208501906131f3565b6000805160206139c58339815191526124ae8161296b565b8151610b4c9060d09060208501906131f3565b6000805160206139c58339815191526124d98161296b565b82600114156124e9575060d55550565b8260021415610aff575060d65550565b600082815260e0602090815260408083206001600160a01b0385168452909152812060038101541561253c5760038101546125349042613709565b915050610a1c565b600481015461254b9042613709565b949350505050565b60008080808080600060d8548860cf548461256e9190613738565b6125789190613738565b6125829190613801565b9050600060c960009054906101000a90046001600160a01b03166001600160a01b03166318160ddd6040518163ffffffff1660e01b815260040160206040518083038186803b1580156125d457600080fd5b505afa1580156125e8573d6000803e3d6000fd5b505050506040513d601f19601f8201168201806040525081019061260c9190613823565b60c960009054906101000a90046001600160a01b03166001600160a01b031663355274ea6040518163ffffffff1660e01b815260040160206040518083038186803b15801561265a57600080fd5b505afa15801561266e573d6000803e3d6000fd5b505050506040513d601f19601f820116820180604052508101906126929190613823565b61269c9190613709565b9050818110156126be5760009750809650600095506000945060009350612732565b606460da54836126ce9190613738565b6126d89190613801565b9750819650606460db54836126ed9190613738565b6126f79190613801565b9550606460dc54836127099190613738565b6127139190613801565b9450606460dd54836127259190613738565b61272f9190613801565b93505b505050939792965093509350565b60008281526065602052604090206001015461275b8161296b565b610b4c8383612a53565b600260975414156127885760405162461bcd60e51b8152600401610b4390613772565b600260975560405162461bcd60e51b815260206004820152605660248201527f4d6173746572496e766573746f723a3a4465706f736974732064697361626c6560448201527f642e20506c6561736520636865636b20646973636f72642e2068747470733a2f6064820152750bd95d9bdd995c9cd95ccb98dbdb4bd91a5cd8dbdc9960521b608482015260a401610b43565b6000805160206139c58339815191526128328161296b565b60c95460405163f2fde38b60e01b81526001600160a01b0384811660048301529091169063f2fde38b90602401600060405180830381600087803b15801561287957600080fd5b505af115801561288d573d6000803e3d6000fd5b505050505050565b60d38181548110610a3257600080fd5b60d75460009081908410156128be576064915050610a1c565b60005b60d15481101561295457600060d182815481106128e0576128e06137a9565b90600052602060002001549050600160d9805490506128ff9190613709565b8211156129125760009350505050610a1c565b8085116129415760d9828154811061292c5761292c6137a9565b90600052602060002001549350505050610a1c565b508061294c81613757565b9150506128c1565b509392505050565b6001600160a01b03163b151590565b6124688133612def565b600054610100900460ff1661299c5760405162461bcd60e51b8152600401610b4390613855565b565b600054610100900460ff166129c55760405162461bcd60e51b8152600401610b4390613855565b61299c612e53565b6129d782826122bd565b610ef65760008281526065602090815260408083206001600160a01b03851684529091529020805460ff19166001179055612a0f3390565b6001600160a01b0316816001600160a01b0316837f2f8788117e7eff1d82e926ec794901d17c78024a50270940304540a733656f0d60405160405180910390a45050565b612a5d82826122bd565b15610ef65760008281526065602090815260408083206001600160a01b0385168085529252808320805460ff1916905551339285917ff6391f5c32d9c69d2a47ea670b442974b53935d1edc7fd64eb21e047a839171b9190a45050565b600060de8381548110612acf57612acf6137a9565b6000918252602080832086845260e0825260408085206001600160a01b0388168652909252922080546004909202909201925015610add576000816001015464e8d4a5100084600301548460000154612b289190613738565b612b329190613801565b612b3c9190613709565b60c9546040516370a0823160e01b81523060048201529192506000916001600160a01b03909116906370a082319060240160206040518083038186803b158015612b8557600080fd5b505afa158015612b99573d6000803e3d6000fd5b505050506040513d601f19601f82011682018060405250810190612bbd9190613823565b905080821115612bcb578091505b8115612d6157600060d454846002015411612c12576000612bf6612bf0600142613709565b426128a5565b90506064612c048286613738565b612c0e9190613801565b9150505b60c9546001600160a01b031663a9059cbb87612c2e8487613709565b6040518363ffffffff1660e01b8152600401612c4b92919061383c565b602060405180830381600087803b158015612c6557600080fd5b505af1158015612c79573d6000803e3d6000fd5b505050506040513d601f19601f82011682018060405250810190612c9d91906138a0565b508015612d13576040516328a1f12360e11b815273465d89df3e9b1afb6957b58be6137feebb8e9f61908190635143e24690612cdf908a90869060040161383c565b600060405180830381600087803b158015612cf957600080fd5b505af1158015612d0d573d6000803e3d6000fd5b50505050505b426002850155604080518481526020810183905288916001600160a01b038916917f3887f2857beaaf367eb618dfb5e22c1ebd74425affb0602c2e9fe126e3f860eb910160405180910390a3505b6003840154835464e8d4a5100091612d7891613738565b612d829190613801565b6001840155505050505050565b610b4c8363a9059cbb60e01b8484604051602401612dae92919061383c565b60408051601f198184030181529190526020810180516001600160e01b03166001600160e01b031990931692909217909152612e81565b6124688133612aba565b612df982826122bd565b610ef657612e11816001600160a01b03166014612f53565b612e1c836020612f53565b604051602001612e2d9291906138e9565b60408051601f198184030181529082905262461bcd60e51b8252610b439160040161395e565b600054610100900460ff16612e7a5760405162461bcd60e51b8152600401610b4390613855565b6001609755565b6000612ed6826040518060400160405280602081526020017f5361666545524332303a206c6f772d6c6576656c2063616c6c206661696c6564815250856001600160a01b03166130ef9092919063ffffffff16565b805190915015610b4c5780806020019051810190612ef491906138a0565b610b4c5760405162461bcd60e51b815260206004820152602a60248201527f5361666545524332303a204552433230206f7065726174696f6e20646964206e6044820152691bdd081cdd58d8d9595960b21b6064820152608401610b43565b60606000612f62836002613738565b612f6d906002613720565b67ffffffffffffffff811115612f8557612f85613296565b6040519080825280601f01601f191660200182016040528015612faf576020820181803683370190505b509050600360fc1b81600081518110612fca57612fca6137a9565b60200101906001600160f81b031916908160001a905350600f60fb1b81600181518110612ff957612ff96137a9565b60200101906001600160f81b031916908160001a905350600061301d846002613738565b613028906001613720565b90505b60018111156130a0576f181899199a1a9b1b9c1cb0b131b232b360811b85600f166010811061305c5761305c6137a9565b1a60f81b828281518110613072576130726137a9565b60200101906001600160f81b031916908160001a90535060049490941c9361309981613991565b905061302b565b508315610a935760405162461bcd60e51b815260206004820181905260248201527f537472696e67733a20686578206c656e67746820696e73756666696369656e746044820152606401610b43565b606061254b8484600085856001600160a01b0385163b6131515760405162461bcd60e51b815260206004820152601d60248201527f416464726573733a2063616c6c20746f206e6f6e2d636f6e74726163740000006044820152606401610b43565b600080866001600160a01b0316858760405161316d91906139a8565b60006040518083038185875af1925050503d80600081146131aa576040519150601f19603f3d011682016040523d82523d6000602084013e6131af565b606091505b509150915061243b828286606083156131c9575081610a93565b8251156131d95782518084602001fd5b8160405162461bcd60e51b8152600401610b43919061395e565b82805482825590600052602060002090810192821561322e579160200282015b8281111561322e578251825591602001919060010190613213565b5061323a92915061323e565b5090565b5b8082111561323a576000815560010161323f565b60006020828403121561326557600080fd5b81356001600160e01b031981168114610a9357600080fd5b60006020828403121561328f57600080fd5b5035919050565b634e487b7160e01b600052604160045260246000fd5b6040516101c0810167ffffffffffffffff811182821017156132d0576132d0613296565b60405290565b600082601f8301126132e757600080fd5b8135602067ffffffffffffffff8083111561330457613304613296565b8260051b604051601f19603f8301168101818110848211171561332957613329613296565b60405293845285810183019383810192508785111561334757600080fd5b83870191505b8482101561243b5781358352918301919083019061334d565b6000806040838503121561337957600080fd5b82359150602083013567ffffffffffffffff81111561339757600080fd5b6133a3858286016132d6565b9150509250929050565b6001600160a01b038116811461246857600080fd5b80356133cd816133ad565b919050565b6000602082840312156133e457600080fd5b813567ffffffffffffffff808211156133fc57600080fd5b908301906101c0828603121561341157600080fd5b6134196132ac565b613422836133c2565b81526020830135602082015260408301356040820152606083013560608201526080830135608082015260a083013560a082015261346260c084016133c2565b60c082015261347360e084016133c2565b60e08201526101006134868185016133c2565b908201526101206134988482016133c2565b9082015261014083810135838111156134b057600080fd5b6134bc888287016132d6565b82840152505061016080840135838111156134d657600080fd5b6134e2888287016132d6565b82840152505061018080840135838111156134fc57600080fd5b613508888287016132d6565b8284015250506101a0808401358381111561352257600080fd5b61352e888287016132d6565b918301919091525095945050505050565b801515811461246857600080fd5b60008060006060848603121561356257600080fd5b833592506020840135613574816133ad565b915060408401356135848161353f565b809150509250925092565b600080604083850312156135a257600080fd5b8235915060208301356135b4816133ad565b809150509250929050565b600080604083850312156135d257600080fd5b50508035926020909101359150565b6000806000606084860312156135f657600080fd5b83359250602084013591506040840135613584816133ad565b60008060006060848603121561362457600080fd5b833592506020840135613636816133ad565b929592945050506040919091013590565b60006020828403121561365957600080fd5b813567ffffffffffffffff81111561367057600080fd5b61254b848285016132d6565b60008060006060848603121561369157600080fd5b833592506020840135915060408401356135848161353f565b6000806000606084860312156136bf57600080fd5b505081359360208301359350604090920135919050565b6000602082840312156136e857600080fd5b8135610a93816133ad565b634e487b7160e01b600052601160045260246000fd5b60008282101561371b5761371b6136f3565b500390565b60008219821115613733576137336136f3565b500190565b6000816000190483118215151615613752576137526136f3565b500290565b600060001982141561376b5761376b6136f3565b5060010190565b6020808252601f908201527f5265656e7472616e637947756172643a207265656e7472616e742063616c6c00604082015260600190565b634e487b7160e01b600052603260045260246000fd5b60208082526022908201527f4d6173746572496e766573746f723a3a77697468647261773a206e6f7420676f6040820152611bd960f21b606082015260800190565b60008261381e57634e487b7160e01b600052601260045260246000fd5b500490565b60006020828403121561383557600080fd5b5051919050565b6001600160a01b03929092168252602082015260400190565b6020808252602b908201527f496e697469616c697a61626c653a20636f6e7472616374206973206e6f74206960408201526a6e697469616c697a696e6760a81b606082015260800190565b6000602082840312156138b257600080fd5b8151610a938161353f565b60005b838110156138d85781810151838201526020016138c0565b83811115610add5750506000910152565b7f416363657373436f6e74726f6c3a206163636f756e74200000000000000000008152600083516139218160178501602088016138bd565b7001034b99036b4b9b9b4b733903937b6329607d1b60179184019182015283516139528160288401602088016138bd565b01602801949350505050565b602081526000825180602084015261397d8160408501602087016138bd565b601f01601f19169190910160400192915050565b6000816139a0576139a06136f3565b506000190190565b600082516139ba8184602087016138bd565b919091019291505056fe0393b4c1b6519e8b53ae0efa1ab522060a3b9f8d86d09c8a22ca6d6eea735cf7a49807205ce4d355092ef5a8a18f56e8913cf4a201fbe287825b095693c21775a26469706673582212208bb30ffba6588ee54443b3be251b391ba67de528b1bcb88d4ddff8d4e3f6853c64736f6c63430008090033",
  "linkReferences": {},
  "deployedLinkReferences": {}
}