{
  "_format": "hh-sol-artifact-1",
  "contractName": "MigrationMikeIngressUpgradeable",
  "sourceName": "contracts/npc/MigrationMike/MigrationMikeIngressUpgradeable.sol",
  "abi": [
    {
      "inputs": [],
      "stateMutability": "nonpayable",
      "type": "constructor"
    },
    {
      "anonymous": false,
      "inputs": [
        {
          "indexed": true,
          "internalType": "address",
          "name": "from",
          "type": "address"
        },
        {
          "indexed": false,
          "internalType": "uint256",
          "name": "startTime",
          "type": "uint256"
        },
        {
          "indexed": false,
          "internalType": "uint256",
          "name": "duration",
          "type": "uint256"
        },
        {
          "indexed": false,
          "internalType": "uint256",
          "name": "amount",
          "type": "uint256"
        },
        {
          "indexed": false,
          "internalType": "uint256",
          "name": "balance",
          "type": "uint256"
        }
      ],
      "name": "BridgedDisbursement",
      "type": "event"
    },
    {
      "anonymous": false,
      "inputs": [
        {
          "indexed": true,
          "internalType": "address",
          "name": "from",
          "type": "address"
        },
        {
          "indexed": true,
          "internalType": "address",
          "name": "nft",
          "type": "address"
        },
        {
          "indexed": false,
          "internalType": "uint256",
          "name": "id",
          "type": "uint256"
        }
      ],
      "name": "BridgedNFT",
      "type": "event"
    },
    {
      "anonymous": false,
      "inputs": [
        {
          "indexed": true,
          "internalType": "address",
          "name": "from",
          "type": "address"
        },
        {
          "indexed": true,
          "internalType": "address",
          "name": "nft",
          "type": "address"
        },
        {
          "indexed": false,
          "internalType": "uint256[]",
          "name": "ids",
          "type": "uint256[]"
        }
      ],
      "name": "BridgedNFTs",
      "type": "event"
    },
    {
      "anonymous": false,
      "inputs": [
        {
          "indexed": true,
          "internalType": "address",
          "name": "from",
          "type": "address"
        },
        {
          "indexed": true,
          "internalType": "address",
          "name": "token",
          "type": "address"
        },
        {
          "indexed": false,
          "internalType": "uint256",
          "name": "amount",
          "type": "uint256"
        }
      ],
      "name": "BridgedToken",
      "type": "event"
    },
    {
      "anonymous": false,
      "inputs": [
        {
          "indexed": true,
          "internalType": "address",
          "name": "from",
          "type": "address"
        },
        {
          "indexed": true,
          "internalType": "address",
          "name": "token",
          "type": "address"
        },
        {
          "indexed": false,
          "internalType": "uint256",
          "name": "unlocked",
          "type": "uint256"
        },
        {
          "indexed": false,
          "internalType": "uint256",
          "name": "locked",
          "type": "uint256"
        }
      ],
      "name": "BridgedTokenWithLocked",
      "type": "event"
    },
    {
      "anonymous": false,
      "inputs": [
        {
          "indexed": true,
          "internalType": "address",
          "name": "from",
          "type": "address"
        },
        {
          "indexed": true,
          "internalType": "address[]",
          "name": "tokens",
          "type": "address[]"
        },
        {
          "indexed": false,
          "internalType": "uint256[]",
          "name": "amounts",
          "type": "uint256[]"
        }
      ],
      "name": "BridgedTokens",
      "type": "event"
    },
    {
      "anonymous": false,
      "inputs": [
        {
          "indexed": false,
          "internalType": "uint8",
          "name": "version",
          "type": "uint8"
        }
      ],
      "name": "Initialized",
      "type": "event"
    },
    {
      "anonymous": false,
      "inputs": [
        {
          "indexed": false,
          "internalType": "address",
          "name": "account",
          "type": "address"
        }
      ],
      "name": "Paused",
      "type": "event"
    },
    {
      "anonymous": false,
      "inputs": [
        {
          "indexed": true,
          "internalType": "bytes32",
          "name": "role",
          "type": "bytes32"
        },
        {
          "indexed": true,
          "internalType": "bytes32",
          "name": "previousAdminRole",
          "type": "bytes32"
        },
        {
          "indexed": true,
          "internalType": "bytes32",
          "name": "newAdminRole",
          "type": "bytes32"
        }
      ],
      "name": "RoleAdminChanged",
      "type": "event"
    },
    {
      "anonymous": false,
      "inputs": [
        {
          "indexed": true,
          "internalType": "bytes32",
          "name": "role",
          "type": "bytes32"
        },
        {
          "indexed": true,
          "internalType": "address",
          "name": "account",
          "type": "address"
        },
        {
          "indexed": true,
          "internalType": "address",
          "name": "sender",
          "type": "address"
        }
      ],
      "name": "RoleGranted",
      "type": "event"
    },
    {
      "anonymous": false,
      "inputs": [
        {
          "indexed": true,
          "internalType": "bytes32",
          "name": "role",
          "type": "bytes32"
        },
        {
          "indexed": true,
          "internalType": "address",
          "name": "account",
          "type": "address"
        },
        {
          "indexed": true,
          "internalType": "address",
          "name": "sender",
          "type": "address"
        }
      ],
      "name": "RoleRevoked",
      "type": "event"
    },
    {
      "anonymous": false,
      "inputs": [
        {
          "indexed": false,
          "internalType": "address",
          "name": "account",
          "type": "address"
        }
      ],
      "name": "Unpaused",
      "type": "event"
    },
    {
      "inputs": [],
      "name": "ADMIN_ROLE",
      "outputs": [
        {
          "internalType": "bytes32",
          "name": "",
          "type": "bytes32"
        }
      ],
      "stateMutability": "view",
      "type": "function"
    },
    {
      "inputs": [],
      "name": "DEFAULT_ADMIN_ROLE",
      "outputs": [
        {
          "internalType": "bytes32",
          "name": "",
          "type": "bytes32"
        }
      ],
      "stateMutability": "view",
      "type": "function"
    },
    {
      "inputs": [],
      "name": "RELAYER_ROLE",
      "outputs": [
        {
          "internalType": "bytes32",
          "name": "",
          "type": "bytes32"
        }
      ],
      "stateMutability": "view",
      "type": "function"
    },
    {
      "inputs": [
        {
          "internalType": "address",
          "name": "to",
          "type": "address"
        },
        {
          "internalType": "address",
          "name": "_nft",
          "type": "address"
        },
        {
          "internalType": "uint256[]",
          "name": "_ids",
          "type": "uint256[]"
        }
      ],
      "name": "batchBridgeNFT",
      "outputs": [],
      "stateMutability": "nonpayable",
      "type": "function"
    },
    {
      "inputs": [
        {
          "internalType": "address",
          "name": "to",
          "type": "address"
        },
        {
          "internalType": "address[]",
          "name": "_tokens",
          "type": "address[]"
        },
        {
          "internalType": "uint256[]",
          "name": "_amounts",
          "type": "uint256[]"
        }
      ],
      "name": "batchBridgeToken",
      "outputs": [],
      "stateMutability": "nonpayable",
      "type": "function"
    },
    {
      "inputs": [
        {
          "internalType": "address",
          "name": "to",
          "type": "address"
        },
        {
          "internalType": "uint256",
          "name": "startTime",
          "type": "uint256"
        },
        {
          "internalType": "uint256",
          "name": "duration",
          "type": "uint256"
        },
        {
          "internalType": "uint256",
          "name": "amount",
          "type": "uint256"
        },
        {
          "internalType": "uint256",
          "name": "balance",
          "type": "uint256"
        }
      ],
      "name": "bridgeCEVODisbursement",
      "outputs": [],
      "stateMutability": "nonpayable",
      "type": "function"
    },
    {
      "inputs": [
        {
          "internalType": "address",
          "name": "to",
          "type": "address"
        },
        {
          "internalType": "address",
          "name": "_nft",
          "type": "address"
        },
        {
          "internalType": "uint256",
          "name": "_id",
          "type": "uint256"
        }
      ],
      "name": "bridgeNFT",
      "outputs": [],
      "stateMutability": "nonpayable",
      "type": "function"
    },
    {
      "inputs": [
        {
          "internalType": "address",
          "name": "to",
          "type": "address"
        },
        {
          "internalType": "address",
          "name": "_token",
          "type": "address"
        },
        {
          "internalType": "uint256",
          "name": "_amount",
          "type": "uint256"
        }
      ],
      "name": "bridgeToken",
      "outputs": [],
      "stateMutability": "nonpayable",
      "type": "function"
    },
    {
      "inputs": [
        {
          "internalType": "address",
          "name": "",
          "type": "address"
        }
      ],
      "name": "bridgeable",
      "outputs": [
        {
          "internalType": "bool",
          "name": "",
          "type": "bool"
        }
      ],
      "stateMutability": "view",
      "type": "function"
    },
    {
      "inputs": [
        {
          "internalType": "address",
          "name": "_address",
          "type": "address"
        }
      ],
      "name": "disableAsset",
      "outputs": [],
      "stateMutability": "nonpayable",
      "type": "function"
    },
    {
      "inputs": [
        {
          "internalType": "address",
          "name": "_address",
          "type": "address"
        }
      ],
      "name": "enableAsset",
      "outputs": [],
      "stateMutability": "nonpayable",
      "type": "function"
    },
    {
      "inputs": [
        {
          "internalType": "address",
          "name": "_address",
          "type": "address"
        }
      ],
      "name": "enabled",
      "outputs": [
        {
          "internalType": "bool",
          "name": "",
          "type": "bool"
        }
      ],
      "stateMutability": "view",
      "type": "function"
    },
    {
      "inputs": [
        {
          "internalType": "bytes32",
          "name": "role",
          "type": "bytes32"
        }
      ],
      "name": "getRoleAdmin",
      "outputs": [
        {
          "internalType": "bytes32",
          "name": "",
          "type": "bytes32"
        }
      ],
      "stateMutability": "view",
      "type": "function"
    },
    {
      "inputs": [
        {
          "internalType": "bytes32",
          "name": "role",
          "type": "bytes32"
        },
        {
          "internalType": "address",
          "name": "account",
          "type": "address"
        }
      ],
      "name": "grantRole",
      "outputs": [],
      "stateMutability": "nonpayable",
      "type": "function"
    },
    {
      "inputs": [
        {
          "internalType": "bytes32",
          "name": "role",
          "type": "bytes32"
        },
        {
          "internalType": "address",
          "name": "account",
          "type": "address"
        }
      ],
      "name": "hasRole",
      "outputs": [
        {
          "internalType": "bool",
          "name": "",
          "type": "bool"
        }
      ],
      "stateMutability": "view",
      "type": "function"
    },
    {
      "inputs": [],
      "name": "initialize",
      "outputs": [],
      "stateMutability": "nonpayable",
      "type": "function"
    },
    {
      "inputs": [],
      "name": "pause",
      "outputs": [],
      "stateMutability": "nonpayable",
      "type": "function"
    },
    {
      "inputs": [],
      "name": "paused",
      "outputs": [
        {
          "internalType": "bool",
          "name": "",
          "type": "bool"
        }
      ],
      "stateMutability": "view",
      "type": "function"
    },
    {
      "inputs": [
        {
          "internalType": "bytes32",
          "name": "role",
          "type": "bytes32"
        },
        {
          "internalType": "address",
          "name": "account",
          "type": "address"
        }
      ],
      "name": "renounceRole",
      "outputs": [],
      "stateMutability": "nonpayable",
      "type": "function"
    },
    {
      "inputs": [
        {
          "internalType": "bytes32",
          "name": "role",
          "type": "bytes32"
        },
        {
          "internalType": "address",
          "name": "account",
          "type": "address"
        }
      ],
      "name": "revokeRole",
      "outputs": [],
      "stateMutability": "nonpayable",
      "type": "function"
    },
    {
      "inputs": [
        {
          "internalType": "bytes4",
          "name": "interfaceId",
          "type": "bytes4"
        }
      ],
      "name": "supportsInterface",
      "outputs": [
        {
          "internalType": "bool",
          "name": "",
          "type": "bool"
        }
      ],
      "stateMutability": "view",
      "type": "function"
    },
    {
      "inputs": [],
      "name": "unpause",
      "outputs": [],
      "stateMutability": "nonpayable",
      "type": "function"
    }
  ],
  "bytecode": "0x608060405234801561001057600080fd5b5061001961001e565b6100de565b600054610100900460ff161561008a5760405162461bcd60e51b815260206004820152602760248201527f496e697469616c697a61626c653a20636f6e747261637420697320696e697469604482015266616c697a696e6760c81b606482015260840160405180910390fd5b60005460ff90811610156100dc576000805460ff191660ff9081179091556040519081527f7f26b83ff96e1f2b6a682f133852f6798a09c465da95921460cefb38474024989060200160405180910390a15b565b6117eb806100ed6000396000f3fe608060405234801561001057600080fd5b50600436106101425760003560e01c806370807528116100b8578063926d7d7f1161007c578063926d7d7f1461028557806398afdfe31461029a578063a217fddf146102c6578063a59d5537146102ce578063d547741f146102e1578063f5175f8b146102f457600080fd5b8063708075281461023a57806375b238fc1461024d5780638129fc1c146102625780638456cb591461026a57806391d148541461027257600080fd5b806336568abe1161010a57806336568abe146101db5780633f4ba83a146101ee57806343184c4c146101f65780634340375914610209578063566c56411461021c5780635c975abb1461022f57600080fd5b806301ffc9a7146101475780630bc0ab571461016f578063248a9ca3146101845780632aef4024146101b55780632f2ff15d146101c8575b600080fd5b61015a6101553660046111e4565b610317565b60405190151581526020015b60405180910390f35b61018261017d36600461122a565b61034e565b005b6101a761019236600461126c565b60009081526065602052604090206001015490565b604051908152602001610166565b6101826101c3366004611285565b610455565b6101826101d63660046112a0565b610492565b6101826101e93660046112a0565b6104bc565b61018261053f565b6101826102043660046112cc565b610562565b6101826102173660046113de565b61068f565b61018261022a3660046114b0565b6108d0565b60975460ff1661015a565b610182610248366004611285565b6109e9565b6101a760008051602061179683398151915281565b610182610a23565b610182610b5e565b61015a6102803660046112a0565b610b7e565b6101a760008051602061177683398151915281565b61015a6102a8366004611285565b6001600160a01b0316600090815260c9602052604090205460ff1690565b6101a7600081565b6101826102dc3660046112cc565b610ba9565b6101826102ef3660046112a0565b610d18565b61015a610302366004611285565b60c96020526000908152604090205460ff1681565b60006001600160e01b03198216637965db0b60e01b148061034857506301ffc9a760e01b6001600160e01b03198316145b92915050565b610356610d3d565b60008051602061177683398151915261036e81610d85565b6040516353695d2960e11b81526001600160a01b038716600482015260248101869052604481018590526064810184905260848101839052737b5501109c2605834f7a4153a75850db7521c37e90819063a6d2ba529060a401600060405180830381600087803b1580156103e157600080fd5b505af11580156103f5573d6000803e3d6000fd5b50506040805189815260208101899052908101879052606081018690526001600160a01b038a1692507f6419691910af4a81ee833ca31a946ba87c2b2ce264f50ea3a50c19966b2defca915060800160405180910390a250505050505050565b60008051602061179683398151915261046d81610d85565b506001600160a01b0316600090815260c960205260409020805460ff19166001179055565b6000828152606560205260409020600101546104ad81610d85565b6104b78383610d8f565b505050565b6001600160a01b03811633146105315760405162461bcd60e51b815260206004820152602f60248201527f416363657373436f6e74726f6c3a2063616e206f6e6c792072656e6f756e636560448201526e103937b632b9903337b91039b2b63360891b60648201526084015b60405180910390fd5b61053b8282610e15565b5050565b60008051602061179683398151915261055781610d85565b61055f610e7c565b50565b61056a610d3d565b60008051602061177683398151915261058281610d85565b6001600160a01b038316600090815260c9602052604090205460ff166105da5760405162461bcd60e51b815260206004820152600d60248201526c125b9d985b1a5908185cdcd95d609a1b6044820152606401610528565b6040516340c10f1960e01b81526001600160a01b038581166004830152602482018490528416906340c10f1990604401600060405180830381600087803b15801561062457600080fd5b505af1158015610638573d6000803e3d6000fd5b50505050826001600160a01b0316846001600160a01b03167fdfecf361db1daf13e69770ddfb6b1c17d9e7aab41098fa39ea880c41a55dda738460405161068191815260200190565b60405180910390a350505050565b610697610d3d565b6000805160206117768339815191526106af81610d85565b60008351116106f15760405162461bcd60e51b815260206004820152600e60248201526d4d697373696e6720746f6b656e7360901b6044820152606401610528565b81518351146107425760405162461bcd60e51b815260206004820152601d60248201527f546f6b656e7320616e6420616d6f756e7473206d757374206d617463680000006044820152606401610528565b60005b83518110156108805760c9600085838151811061076457610764611504565b6020908102919091018101516001600160a01b031682528101919091526040016000205460ff166107c75760405162461bcd60e51b815260206004820152600d60248201526c24b73b30b634b2103a37b5b2b760991b6044820152606401610528565b8381815181106107d9576107d9611504565b60200260200101516001600160a01b03166340c10f198685848151811061080257610802611504565b60200260200101516040518363ffffffff1660e01b815260040161083b9291906001600160a01b03929092168252602082015260400190565b600060405180830381600087803b15801561085557600080fd5b505af1158015610869573d6000803e3d6000fd5b50505050808061087890611530565b915050610745565b508260405161088f919061154b565b6040518091039020846001600160a01b03167f45cb6f4ad5435b8b1e4079d117d8cba1e9500e83e7bb4a5ad10f613c45c07a2e8460405161068191906115c5565b6108d8610d3d565b6000805160206117768339815191526108f081610d85565b6001600160a01b038316600090815260c9602052604090205460ff166109465760405162461bcd60e51b815260206004820152600b60248201526a125b9d985b1a590813919560aa1b6044820152606401610528565b604051634684d7e960e01b81526001600160a01b03841690634684d7e99061097490879086906004016115d8565b600060405180830381600087803b15801561098e57600080fd5b505af11580156109a2573d6000803e3d6000fd5b50505050826001600160a01b0316846001600160a01b03167f459be9d88a26b9379b66c5e422a9653e69adffc6c185c427f79fab7538689cbc8460405161068191906115c5565b600080516020611796833981519152610a0181610d85565b506001600160a01b0316600090815260c960205260409020805460ff19169055565b600054610100900460ff1615808015610a435750600054600160ff909116105b80610a5d5750303b158015610a5d575060005460ff166001145b610ac05760405162461bcd60e51b815260206004820152602e60248201527f496e697469616c697a61626c653a20636f6e747261637420697320616c72656160448201526d191e481a5b9a5d1a585b1a5e995960921b6064820152608401610528565b6000805460ff191660011790558015610ae3576000805461ff0019166101001790555b610aeb610ece565b610af3610ef5565b610afe600033610d8f565b610b1660008051602061179683398151915233610d8f565b801561055f576000805461ff0019169055604051600181527f7f26b83ff96e1f2b6a682f133852f6798a09c465da95921460cefb38474024989060200160405180910390a150565b600080516020611796833981519152610b7681610d85565b61055f610f24565b60009182526065602090815260408084206001600160a01b0393909316845291905290205460ff1690565b610bb1610d3d565b600080516020611776833981519152610bc981610d85565b6001600160a01b038316600090815260c9602052604090205460ff16610c215760405162461bcd60e51b815260206004820152600d60248201526c24b73b30b634b2103a37b5b2b760991b6044820152606401610528565b60008211610c715760405162461bcd60e51b815260206004820181905260248201527f416d6f756e74206d7573742062652067726561746572207468616e207a65726f6044820152606401610528565b6040516340c10f1960e01b81526001600160a01b038581166004830152602482018490528416906340c10f1990604401600060405180830381600087803b158015610cbb57600080fd5b505af1158015610ccf573d6000803e3d6000fd5b50505050826001600160a01b0316846001600160a01b03167f44167815d5b685c3a51c0cd3d32b7d654092f1e49d320e03ab54193c9117ffce8460405161068191815260200190565b600082815260656020526040902060010154610d3381610d85565b6104b78383610e15565b60975460ff1615610d835760405162461bcd60e51b815260206004820152601060248201526f14185d5cd8589b194e881c185d5cd95960821b6044820152606401610528565b565b61055f8133610f61565b610d998282610b7e565b61053b5760008281526065602090815260408083206001600160a01b03851684529091529020805460ff19166001179055610dd13390565b6001600160a01b0316816001600160a01b0316837f2f8788117e7eff1d82e926ec794901d17c78024a50270940304540a733656f0d60405160405180910390a45050565b610e1f8282610b7e565b1561053b5760008281526065602090815260408083206001600160a01b0385168085529252808320805460ff1916905551339285917ff6391f5c32d9c69d2a47ea670b442974b53935d1edc7fd64eb21e047a839171b9190a45050565b610e84610fc5565b6097805460ff191690557f5db9ee0a495bf2e6ff9c91a7834c1ba4fdd244a5e8aa4e537bd38aeae4b073aa335b6040516001600160a01b03909116815260200160405180910390a1565b600054610100900460ff16610d835760405162461bcd60e51b815260040161052890611604565b600054610100900460ff16610f1c5760405162461bcd60e51b815260040161052890611604565b610d8361100e565b610f2c610d3d565b6097805460ff191660011790557f62e78cea01bee320cd4e420270b5ea74000d11b0c9f74754ebdbfc544b05a258610eb13390565b610f6b8282610b7e565b61053b57610f83816001600160a01b03166014611041565b610f8e836020611041565b604051602001610f9f92919061167f565b60408051601f198184030181529082905262461bcd60e51b8252610528916004016116f4565b60975460ff16610d835760405162461bcd60e51b815260206004820152601460248201527314185d5cd8589b194e881b9bdd081c185d5cd95960621b6044820152606401610528565b600054610100900460ff166110355760405162461bcd60e51b815260040161052890611604565b6097805460ff19169055565b60606000611050836002611727565b61105b906002611746565b67ffffffffffffffff81111561107357611073611308565b6040519080825280601f01601f19166020018201604052801561109d576020820181803683370190505b509050600360fc1b816000815181106110b8576110b8611504565b60200101906001600160f81b031916908160001a905350600f60fb1b816001815181106110e7576110e7611504565b60200101906001600160f81b031916908160001a905350600061110b846002611727565b611116906001611746565b90505b600181111561118e576f181899199a1a9b1b9c1cb0b131b232b360811b85600f166010811061114a5761114a611504565b1a60f81b82828151811061116057611160611504565b60200101906001600160f81b031916908160001a90535060049490941c936111878161175e565b9050611119565b5083156111dd5760405162461bcd60e51b815260206004820181905260248201527f537472696e67733a20686578206c656e67746820696e73756666696369656e746044820152606401610528565b9392505050565b6000602082840312156111f657600080fd5b81356001600160e01b0319811681146111dd57600080fd5b80356001600160a01b038116811461122557600080fd5b919050565b600080600080600060a0868803121561124257600080fd5b61124b8661120e565b97602087013597506040870135966060810135965060800135945092505050565b60006020828403121561127e57600080fd5b5035919050565b60006020828403121561129757600080fd5b6111dd8261120e565b600080604083850312156112b357600080fd5b823591506112c36020840161120e565b90509250929050565b6000806000606084860312156112e157600080fd5b6112ea8461120e565b92506112f86020850161120e565b9150604084013590509250925092565b634e487b7160e01b600052604160045260246000fd5b604051601f8201601f1916810167ffffffffffffffff8111828210171561134757611347611308565b604052919050565b600067ffffffffffffffff82111561136957611369611308565b5060051b60200190565b600082601f83011261138457600080fd5b813560206113996113948361134f565b61131e565b82815260059290921b840181019181810190868411156113b857600080fd5b8286015b848110156113d357803583529183019183016113bc565b509695505050505050565b6000806000606084860312156113f357600080fd5b6113fc8461120e565b925060208085013567ffffffffffffffff8082111561141a57600080fd5b818701915087601f83011261142e57600080fd5b813561143c6113948261134f565b81815260059190911b8301840190848101908a83111561145b57600080fd5b938501935b82851015611480576114718561120e565b82529385019390850190611460565b96505050604087013592508083111561149857600080fd5b50506114a686828701611373565b9150509250925092565b6000806000606084860312156114c557600080fd5b6114ce8461120e565b92506114dc6020850161120e565b9150604084013567ffffffffffffffff8111156114f857600080fd5b6114a686828701611373565b634e487b7160e01b600052603260045260246000fd5b634e487b7160e01b600052601160045260246000fd5b60006000198214156115445761154461151a565b5060010190565b815160009082906020808601845b8381101561157e5781516001600160a01b031685529382019390820190600101611559565b50929695505050505050565b600081518084526020808501945080840160005b838110156115ba5781518752958201959082019060010161159e565b509495945050505050565b6020815260006111dd602083018461158a565b6001600160a01b03831681526040602082018190526000906115fc9083018461158a565b949350505050565b6020808252602b908201527f496e697469616c697a61626c653a20636f6e7472616374206973206e6f74206960408201526a6e697469616c697a696e6760a81b606082015260800190565b60005b8381101561166a578181015183820152602001611652565b83811115611679576000848401525b50505050565b7f416363657373436f6e74726f6c3a206163636f756e74200000000000000000008152600083516116b781601785016020880161164f565b7001034b99036b4b9b9b4b733903937b6329607d1b60179184019182015283516116e881602884016020880161164f565b01602801949350505050565b602081526000825180602084015261171381604085016020870161164f565b601f01601f19169190910160400192915050565b60008160001904831182151516156117415761174161151a565b500290565b600082198211156117595761175961151a565b500190565b60008161176d5761176d61151a565b50600019019056fee2b7fb3b832174769106daebcfd6d1970523240dda11281102db9363b83b0dc4a49807205ce4d355092ef5a8a18f56e8913cf4a201fbe287825b095693c21775a26469706673582212206bb81d09e28552b4c18a0d47f68939fc5ae9e39162693f0a51acd04686c43cf364736f6c63430008090033",
  "linkReferences": {},
  "deployedLinkReferences": {}
}