{
  "_format": "hh-sol-artifact-1",
  "contractName": "MigrationMikeIngressUpgradeable",
  "sourceName": "contracts/npc/MigrationMike/MigrationMikeIngressUpgradeable.sol",
  "abi": [
    {
      "inputs": [],
      "stateMutability": "nonpayable",
      "type": "constructor"
    },
    {
      "anonymous": false,
      "inputs": [
        {
          "indexed": true,
          "internalType": "address",
          "name": "from",
          "type": "address"
        },
        {
          "indexed": false,
          "internalType": "uint256",
          "name": "startTime",
          "type": "uint256"
        },
        {
          "indexed": false,
          "internalType": "uint256",
          "name": "duration",
          "type": "uint256"
        },
        {
          "indexed": false,
          "internalType": "uint256",
          "name": "amount",
          "type": "uint256"
        },
        {
          "indexed": false,
          "internalType": "uint256",
          "name": "balance",
          "type": "uint256"
        }
      ],
      "name": "BridgedDisbursement",
      "type": "event"
    },
    {
      "anonymous": false,
      "inputs": [
        {
          "indexed": true,
          "internalType": "address",
          "name": "from",
          "type": "address"
        },
        {
          "indexed": true,
          "internalType": "address",
          "name": "nft",
          "type": "address"
        },
        {
          "indexed": false,
          "internalType": "uint256",
          "name": "id",
          "type": "uint256"
        }
      ],
      "name": "BridgedNFT",
      "type": "event"
    },
    {
      "anonymous": false,
      "inputs": [
        {
          "indexed": true,
          "internalType": "address",
          "name": "from",
          "type": "address"
        },
        {
          "indexed": true,
          "internalType": "address[]",
          "name": "nfts",
          "type": "address[]"
        },
        {
          "indexed": false,
          "internalType": "uint256[]",
          "name": "ids",
          "type": "uint256[]"
        }
      ],
      "name": "BridgedNFTs",
      "type": "event"
    },
    {
      "anonymous": false,
      "inputs": [
        {
          "indexed": true,
          "internalType": "address",
          "name": "from",
          "type": "address"
        },
        {
          "indexed": true,
          "internalType": "address",
          "name": "token",
          "type": "address"
        },
        {
          "indexed": false,
          "internalType": "uint256",
          "name": "amount",
          "type": "uint256"
        }
      ],
      "name": "BridgedToken",
      "type": "event"
    },
    {
      "anonymous": false,
      "inputs": [
        {
          "indexed": true,
          "internalType": "address",
          "name": "from",
          "type": "address"
        },
        {
          "indexed": true,
          "internalType": "address[]",
          "name": "tokens",
          "type": "address[]"
        },
        {
          "indexed": false,
          "internalType": "uint256[]",
          "name": "amounts",
          "type": "uint256[]"
        }
      ],
      "name": "BridgedTokens",
      "type": "event"
    },
    {
      "anonymous": false,
      "inputs": [
        {
          "indexed": false,
          "internalType": "uint8",
          "name": "version",
          "type": "uint8"
        }
      ],
      "name": "Initialized",
      "type": "event"
    },
    {
      "anonymous": false,
      "inputs": [
        {
          "indexed": false,
          "internalType": "address",
          "name": "account",
          "type": "address"
        }
      ],
      "name": "Paused",
      "type": "event"
    },
    {
      "anonymous": false,
      "inputs": [
        {
          "indexed": true,
          "internalType": "bytes32",
          "name": "role",
          "type": "bytes32"
        },
        {
          "indexed": true,
          "internalType": "bytes32",
          "name": "previousAdminRole",
          "type": "bytes32"
        },
        {
          "indexed": true,
          "internalType": "bytes32",
          "name": "newAdminRole",
          "type": "bytes32"
        }
      ],
      "name": "RoleAdminChanged",
      "type": "event"
    },
    {
      "anonymous": false,
      "inputs": [
        {
          "indexed": true,
          "internalType": "bytes32",
          "name": "role",
          "type": "bytes32"
        },
        {
          "indexed": true,
          "internalType": "address",
          "name": "account",
          "type": "address"
        },
        {
          "indexed": true,
          "internalType": "address",
          "name": "sender",
          "type": "address"
        }
      ],
      "name": "RoleGranted",
      "type": "event"
    },
    {
      "anonymous": false,
      "inputs": [
        {
          "indexed": true,
          "internalType": "bytes32",
          "name": "role",
          "type": "bytes32"
        },
        {
          "indexed": true,
          "internalType": "address",
          "name": "account",
          "type": "address"
        },
        {
          "indexed": true,
          "internalType": "address",
          "name": "sender",
          "type": "address"
        }
      ],
      "name": "RoleRevoked",
      "type": "event"
    },
    {
      "anonymous": false,
      "inputs": [
        {
          "indexed": false,
          "internalType": "address",
          "name": "account",
          "type": "address"
        }
      ],
      "name": "Unpaused",
      "type": "event"
    },
    {
      "inputs": [],
      "name": "ADMIN_ROLE",
      "outputs": [
        {
          "internalType": "bytes32",
          "name": "",
          "type": "bytes32"
        }
      ],
      "stateMutability": "view",
      "type": "function"
    },
    {
      "inputs": [],
      "name": "DEFAULT_ADMIN_ROLE",
      "outputs": [
        {
          "internalType": "bytes32",
          "name": "",
          "type": "bytes32"
        }
      ],
      "stateMutability": "view",
      "type": "function"
    },
    {
      "inputs": [],
      "name": "RELAYER_ROLE",
      "outputs": [
        {
          "internalType": "bytes32",
          "name": "",
          "type": "bytes32"
        }
      ],
      "stateMutability": "view",
      "type": "function"
    },
    {
      "inputs": [
        {
          "internalType": "address",
          "name": "to",
          "type": "address"
        },
        {
          "internalType": "address[]",
          "name": "_nfts",
          "type": "address[]"
        },
        {
          "internalType": "uint256[]",
          "name": "_ids",
          "type": "uint256[]"
        }
      ],
      "name": "batchBridgeNFT",
      "outputs": [],
      "stateMutability": "nonpayable",
      "type": "function"
    },
    {
      "inputs": [
        {
          "internalType": "address",
          "name": "to",
          "type": "address"
        },
        {
          "internalType": "address[]",
          "name": "_tokens",
          "type": "address[]"
        },
        {
          "internalType": "uint256[]",
          "name": "_amounts",
          "type": "uint256[]"
        }
      ],
      "name": "batchBridgeToken",
      "outputs": [],
      "stateMutability": "nonpayable",
      "type": "function"
    },
    {
      "inputs": [
        {
          "internalType": "address",
          "name": "to",
          "type": "address"
        },
        {
          "internalType": "uint256",
          "name": "startTime",
          "type": "uint256"
        },
        {
          "internalType": "uint256",
          "name": "duration",
          "type": "uint256"
        },
        {
          "internalType": "uint256",
          "name": "amount",
          "type": "uint256"
        },
        {
          "internalType": "uint256",
          "name": "balance",
          "type": "uint256"
        }
      ],
      "name": "bridgeCEVODisbursement",
      "outputs": [],
      "stateMutability": "nonpayable",
      "type": "function"
    },
    {
      "inputs": [
        {
          "internalType": "address",
          "name": "to",
          "type": "address"
        },
        {
          "internalType": "address",
          "name": "_nft",
          "type": "address"
        },
        {
          "internalType": "uint256",
          "name": "_id",
          "type": "uint256"
        }
      ],
      "name": "bridgeNFT",
      "outputs": [],
      "stateMutability": "nonpayable",
      "type": "function"
    },
    {
      "inputs": [
        {
          "internalType": "address",
          "name": "to",
          "type": "address"
        },
        {
          "internalType": "address",
          "name": "_token",
          "type": "address"
        },
        {
          "internalType": "uint256",
          "name": "_amount",
          "type": "uint256"
        }
      ],
      "name": "bridgeToken",
      "outputs": [],
      "stateMutability": "nonpayable",
      "type": "function"
    },
    {
      "inputs": [
        {
          "internalType": "address",
          "name": "",
          "type": "address"
        }
      ],
      "name": "bridgeable",
      "outputs": [
        {
          "internalType": "bool",
          "name": "",
          "type": "bool"
        }
      ],
      "stateMutability": "view",
      "type": "function"
    },
    {
      "inputs": [
        {
          "internalType": "address",
          "name": "_address",
          "type": "address"
        }
      ],
      "name": "disableAsset",
      "outputs": [],
      "stateMutability": "nonpayable",
      "type": "function"
    },
    {
      "inputs": [
        {
          "internalType": "address",
          "name": "_address",
          "type": "address"
        }
      ],
      "name": "enableAsset",
      "outputs": [],
      "stateMutability": "nonpayable",
      "type": "function"
    },
    {
      "inputs": [
        {
          "internalType": "address",
          "name": "_address",
          "type": "address"
        }
      ],
      "name": "enabled",
      "outputs": [
        {
          "internalType": "bool",
          "name": "",
          "type": "bool"
        }
      ],
      "stateMutability": "view",
      "type": "function"
    },
    {
      "inputs": [
        {
          "internalType": "bytes32",
          "name": "role",
          "type": "bytes32"
        }
      ],
      "name": "getRoleAdmin",
      "outputs": [
        {
          "internalType": "bytes32",
          "name": "",
          "type": "bytes32"
        }
      ],
      "stateMutability": "view",
      "type": "function"
    },
    {
      "inputs": [
        {
          "internalType": "bytes32",
          "name": "role",
          "type": "bytes32"
        },
        {
          "internalType": "address",
          "name": "account",
          "type": "address"
        }
      ],
      "name": "grantRole",
      "outputs": [],
      "stateMutability": "nonpayable",
      "type": "function"
    },
    {
      "inputs": [
        {
          "internalType": "bytes32",
          "name": "role",
          "type": "bytes32"
        },
        {
          "internalType": "address",
          "name": "account",
          "type": "address"
        }
      ],
      "name": "hasRole",
      "outputs": [
        {
          "internalType": "bool",
          "name": "",
          "type": "bool"
        }
      ],
      "stateMutability": "view",
      "type": "function"
    },
    {
      "inputs": [],
      "name": "initialize",
      "outputs": [],
      "stateMutability": "nonpayable",
      "type": "function"
    },
    {
      "inputs": [],
      "name": "pause",
      "outputs": [],
      "stateMutability": "nonpayable",
      "type": "function"
    },
    {
      "inputs": [],
      "name": "paused",
      "outputs": [
        {
          "internalType": "bool",
          "name": "",
          "type": "bool"
        }
      ],
      "stateMutability": "view",
      "type": "function"
    },
    {
      "inputs": [
        {
          "internalType": "bytes32",
          "name": "role",
          "type": "bytes32"
        },
        {
          "internalType": "address",
          "name": "account",
          "type": "address"
        }
      ],
      "name": "renounceRole",
      "outputs": [],
      "stateMutability": "nonpayable",
      "type": "function"
    },
    {
      "inputs": [
        {
          "internalType": "bytes32",
          "name": "role",
          "type": "bytes32"
        },
        {
          "internalType": "address",
          "name": "account",
          "type": "address"
        }
      ],
      "name": "revokeRole",
      "outputs": [],
      "stateMutability": "nonpayable",
      "type": "function"
    },
    {
      "inputs": [
        {
          "internalType": "bytes4",
          "name": "interfaceId",
          "type": "bytes4"
        }
      ],
      "name": "supportsInterface",
      "outputs": [
        {
          "internalType": "bool",
          "name": "",
          "type": "bool"
        }
      ],
      "stateMutability": "view",
      "type": "function"
    },
    {
      "inputs": [],
      "name": "unpause",
      "outputs": [],
      "stateMutability": "nonpayable",
      "type": "function"
    }
  ],
  "bytecode": "0x60806040523480156200001157600080fd5b506200001c62000022565b62000152565b6200002e60ff62000031565b50565b60008054610100900460ff1615620000ca578160ff1660011480156200006a575062000068306200014360201b62000e501760201c565b155b620000c25760405162461bcd60e51b815260206004820152602e602482015260008051602062001ab283398151915260448201526d191e481a5b9a5d1a585b1a5e995960921b60648201526084015b60405180910390fd5b506000919050565b60005460ff808416911610620001295760405162461bcd60e51b815260206004820152602e602482015260008051602062001ab283398151915260448201526d191e481a5b9a5d1a585b1a5e995960921b6064820152608401620000b9565b506000805460ff191660ff92909216919091179055600190565b6001600160a01b03163b151590565b61195080620001626000396000f3fe608060405234801561001057600080fd5b50600436106101425760003560e01c806375b238fc116100b857806398afdfe31161007c57806398afdfe314610287578063a217fddf146102b3578063a59d5537146102bb578063d547741f146102ce578063efdf0c45146102e1578063f5175f8b146102f457600080fd5b806375b238fc1461023a5780638129fc1c1461024f5780638456cb591461025757806391d148541461025f578063926d7d7f1461027257600080fd5b806336568abe1161010a57806336568abe146101db5780633f4ba83a146101ee57806343184c4c146101f657806343403759146102095780635c975abb1461021c578063708075281461022757600080fd5b806301ffc9a7146101475780630bc0ab571461016f578063248a9ca3146101845780632aef4024146101b55780632f2ff15d146101c8575b600080fd5b61015a610155366004611360565b610317565b60405190151581526020015b60405180910390f35b61018261017d3660046113a1565b61034e565b005b6101a76101923660046113e3565b60009081526065602052604090206001015490565b604051908152602001610166565b6101826101c33660046113fc565b610479565b6101826101d6366004611417565b6104b6565b6101826101e9366004611417565b6104e0565b61018261055e565b610182610204366004611443565b610581565b610182610217366004611555565b6106c9565b60975460ff1661015a565b6101826102353660046113fc565b610925565b6101a76000805160206118fb83398151915281565b61018261095f565b6101826109fe565b61015a61026d366004611417565b610a1e565b6101a76000805160206118db83398151915281565b61015a6102953660046113fc565b6001600160a01b0316600090815260c9602052604090205460ff1690565b6101a7600081565b6101826102c9366004611443565b610a49565b6101826102dc366004611417565b610bd3565b6101826102ef366004611555565b610bf8565b61015a6103023660046113fc565b60c96020526000908152604090205460ff1681565b60006001600160e01b03198216637965db0b60e01b148061034857506301ffc9a760e01b6001600160e01b03198316145b92915050565b60975460ff161561037a5760405162461bcd60e51b815260040161037190611627565b60405180910390fd5b6000805160206118db83398151915261039281610e5f565b6040516353695d2960e11b81526001600160a01b038716600482015260248101869052604481018590526064810184905260848101839052737b5501109c2605834f7a4153a75850db7521c37e90819063a6d2ba529060a401600060405180830381600087803b15801561040557600080fd5b505af1158015610419573d6000803e3d6000fd5b50506040805189815260208101899052908101879052606081018690526001600160a01b038a1692507f6419691910af4a81ee833ca31a946ba87c2b2ce264f50ea3a50c19966b2defca915060800160405180910390a250505050505050565b6000805160206118fb83398151915261049181610e5f565b506001600160a01b0316600090815260c960205260409020805460ff19166001179055565b6000828152606560205260409020600101546104d181610e5f565b6104db8383610e69565b505050565b6001600160a01b03811633146105505760405162461bcd60e51b815260206004820152602f60248201527f416363657373436f6e74726f6c3a2063616e206f6e6c792072656e6f756e636560448201526e103937b632b9903337b91039b2b63360891b6064820152608401610371565b61055a8282610eef565b5050565b6000805160206118fb83398151915261057681610e5f565b61057e610f56565b50565b60975460ff16156105a45760405162461bcd60e51b815260040161037190611627565b6000805160206118db8339815191526105bc81610e5f565b6001600160a01b038316600090815260c9602052604090205460ff166106145760405162461bcd60e51b815260206004820152600d60248201526c125b9d985b1a5908185cdcd95d609a1b6044820152606401610371565b6040516346154c9f60e11b81526001600160a01b03858116600483015260248201849052841690638c2a993e90604401600060405180830381600087803b15801561065e57600080fd5b505af1158015610672573d6000803e3d6000fd5b50505050826001600160a01b0316846001600160a01b03167fdfecf361db1daf13e69770ddfb6b1c17d9e7aab41098fa39ea880c41a55dda73846040516106bb91815260200190565b60405180910390a350505050565b60975460ff16156106ec5760405162461bcd60e51b815260040161037190611627565b6000805160206118db83398151915261070481610e5f565b60008351116107465760405162461bcd60e51b815260206004820152600e60248201526d4d697373696e6720746f6b656e7360901b6044820152606401610371565b81518351146107975760405162461bcd60e51b815260206004820152601d60248201527f546f6b656e7320616e6420616d6f756e7473206d757374206d617463680000006044820152606401610371565b60005b83518110156108d55760c960008583815181106107b9576107b9611651565b6020908102919091018101516001600160a01b031682528101919091526040016000205460ff1661081c5760405162461bcd60e51b815260206004820152600d60248201526c24b73b30b634b2103a37b5b2b760991b6044820152606401610371565b83818151811061082e5761082e611651565b60200260200101516001600160a01b03166340c10f198685848151811061085757610857611651565b60200260200101516040518363ffffffff1660e01b81526004016108909291906001600160a01b03929092168252602082015260400190565b600060405180830381600087803b1580156108aa57600080fd5b505af11580156108be573d6000803e3d6000fd5b5050505080806108cd9061167d565b91505061079a565b50826040516108e49190611698565b6040518091039020846001600160a01b03167f45cb6f4ad5435b8b1e4079d117d8cba1e9500e83e7bb4a5ad10f613c45c07a2e846040516106bb91906116d7565b6000805160206118fb83398151915261093d81610e5f565b506001600160a01b0316600090815260c960205260409020805460ff19169055565b600061096b6001610fe9565b90508015610983576000805461ff0019166101001790555b61098b611076565b61099361109f565b61099e600033610e69565b6109b66000805160206118fb83398151915233610e69565b801561057e576000805461ff0019169055604051600181527f7f26b83ff96e1f2b6a682f133852f6798a09c465da95921460cefb38474024989060200160405180910390a150565b6000805160206118fb833981519152610a1681610e5f565b61057e6110ce565b60009182526065602090815260408084206001600160a01b0393909316845291905290205460ff1690565b60975460ff1615610a6c5760405162461bcd60e51b815260040161037190611627565b6000805160206118db833981519152610a8481610e5f565b6001600160a01b038316600090815260c9602052604090205460ff16610adc5760405162461bcd60e51b815260206004820152600d60248201526c24b73b30b634b2103a37b5b2b760991b6044820152606401610371565b60008211610b2c5760405162461bcd60e51b815260206004820181905260248201527f416d6f756e74206d7573742062652067726561746572207468616e207a65726f6044820152606401610371565b6040516340c10f1960e01b81526001600160a01b038581166004830152602482018490528416906340c10f1990604401600060405180830381600087803b158015610b7657600080fd5b505af1158015610b8a573d6000803e3d6000fd5b50505050826001600160a01b0316846001600160a01b03167f44167815d5b685c3a51c0cd3d32b7d654092f1e49d320e03ab54193c9117ffce846040516106bb91815260200190565b600082815260656020526040902060010154610bee81610e5f565b6104db8383610eef565b60975460ff1615610c1b5760405162461bcd60e51b815260040161037190611627565b6000805160206118db833981519152610c3381610e5f565b6000835111610c735760405162461bcd60e51b815260206004820152600c60248201526b4d697373696e67204e46547360a01b6044820152606401610371565b8151835114610cc45760405162461bcd60e51b815260206004820152601760248201527f4e46547320616e6420696473206d757374206d617463680000000000000000006044820152606401610371565b60005b8351811015610e005760c96000858381518110610ce657610ce6611651565b6020908102919091018101516001600160a01b031682528101919091526040016000205460ff16610d475760405162461bcd60e51b815260206004820152600b60248201526a125b9d985b1a590813919560aa1b6044820152606401610371565b838181518110610d5957610d59611651565b60200260200101516001600160a01b0316638c2a993e86858481518110610d8257610d82611651565b60200260200101516040518363ffffffff1660e01b8152600401610dbb9291906001600160a01b03929092168252602082015260400190565b600060405180830381600087803b158015610dd557600080fd5b505af1158015610de9573d6000803e3d6000fd5b505050508080610df89061167d565b915050610cc7565b5082604051610e0f9190611698565b6040518091039020846001600160a01b03167fb5cb3ec454032982ad0279d931b3e0b637de33daa8e66bc64d595256b2a4719f846040516106bb91906116d7565b6001600160a01b03163b151590565b61057e8133611126565b610e738282610a1e565b61055a5760008281526065602090815260408083206001600160a01b03851684529091529020805460ff19166001179055610eab3390565b6001600160a01b0316816001600160a01b0316837f2f8788117e7eff1d82e926ec794901d17c78024a50270940304540a733656f0d60405160405180910390a45050565b610ef98282610a1e565b1561055a5760008281526065602090815260408083206001600160a01b0385168085529252808320805460ff1916905551339285917ff6391f5c32d9c69d2a47ea670b442974b53935d1edc7fd64eb21e047a839171b9190a45050565b60975460ff16610f9f5760405162461bcd60e51b815260206004820152601460248201527314185d5cd8589b194e881b9bdd081c185d5cd95960621b6044820152606401610371565b6097805460ff191690557f5db9ee0a495bf2e6ff9c91a7834c1ba4fdd244a5e8aa4e537bd38aeae4b073aa335b6040516001600160a01b03909116815260200160405180910390a1565b60008054610100900460ff1615611030578160ff16600114801561100c5750303b155b6110285760405162461bcd60e51b81526004016103719061171b565b506000919050565b60005460ff8084169116106110575760405162461bcd60e51b81526004016103719061171b565b506000805460ff191660ff92909216919091179055600190565b919050565b600054610100900460ff1661109d5760405162461bcd60e51b815260040161037190611769565b565b600054610100900460ff166110c65760405162461bcd60e51b815260040161037190611769565b61109d61118a565b60975460ff16156110f15760405162461bcd60e51b815260040161037190611627565b6097805460ff191660011790557f62e78cea01bee320cd4e420270b5ea74000d11b0c9f74754ebdbfc544b05a258610fcc3390565b6111308282610a1e565b61055a57611148816001600160a01b031660146111bd565b6111538360206111bd565b6040516020016111649291906117e4565b60408051601f198184030181529082905262461bcd60e51b825261037191600401611859565b600054610100900460ff166111b15760405162461bcd60e51b815260040161037190611769565b6097805460ff19169055565b606060006111cc83600261188c565b6111d79060026118ab565b67ffffffffffffffff8111156111ef576111ef61147f565b6040519080825280601f01601f191660200182016040528015611219576020820181803683370190505b509050600360fc1b8160008151811061123457611234611651565b60200101906001600160f81b031916908160001a905350600f60fb1b8160018151811061126357611263611651565b60200101906001600160f81b031916908160001a905350600061128784600261188c565b6112929060016118ab565b90505b600181111561130a576f181899199a1a9b1b9c1cb0b131b232b360811b85600f16601081106112c6576112c6611651565b1a60f81b8282815181106112dc576112dc611651565b60200101906001600160f81b031916908160001a90535060049490941c93611303816118c3565b9050611295565b5083156113595760405162461bcd60e51b815260206004820181905260248201527f537472696e67733a20686578206c656e67746820696e73756666696369656e746044820152606401610371565b9392505050565b60006020828403121561137257600080fd5b81356001600160e01b03198116811461135957600080fd5b80356001600160a01b038116811461107157600080fd5b600080600080600060a086880312156113b957600080fd5b6113c28661138a565b97602087013597506040870135966060810135965060800135945092505050565b6000602082840312156113f557600080fd5b5035919050565b60006020828403121561140e57600080fd5b6113598261138a565b6000806040838503121561142a57600080fd5b8235915061143a6020840161138a565b90509250929050565b60008060006060848603121561145857600080fd5b6114618461138a565b925061146f6020850161138a565b9150604084013590509250925092565b634e487b7160e01b600052604160045260246000fd5b604051601f8201601f1916810167ffffffffffffffff811182821017156114be576114be61147f565b604052919050565b600067ffffffffffffffff8211156114e0576114e061147f565b5060051b60200190565b600082601f8301126114fb57600080fd5b8135602061151061150b836114c6565b611495565b82815260059290921b8401810191818101908684111561152f57600080fd5b8286015b8481101561154a5780358352918301918301611533565b509695505050505050565b60008060006060848603121561156a57600080fd5b6115738461138a565b925060208085013567ffffffffffffffff8082111561159157600080fd5b818701915087601f8301126115a557600080fd5b81356115b361150b826114c6565b81815260059190911b8301840190848101908a8311156115d257600080fd5b938501935b828510156115f7576115e88561138a565b825293850193908501906115d7565b96505050604087013592508083111561160f57600080fd5b505061161d868287016114ea565b9150509250925092565b60208082526010908201526f14185d5cd8589b194e881c185d5cd95960821b604082015260600190565b634e487b7160e01b600052603260045260246000fd5b634e487b7160e01b600052601160045260246000fd5b600060001982141561169157611691611667565b5060010190565b815160009082906020808601845b838110156116cb5781516001600160a01b0316855293820193908201906001016116a6565b50929695505050505050565b6020808252825182820181905260009190848201906040850190845b8181101561170f578351835292840192918401916001016116f3565b50909695505050505050565b6020808252602e908201527f496e697469616c697a61626c653a20636f6e747261637420697320616c72656160408201526d191e481a5b9a5d1a585b1a5e995960921b606082015260800190565b6020808252602b908201527f496e697469616c697a61626c653a20636f6e7472616374206973206e6f74206960408201526a6e697469616c697a696e6760a81b606082015260800190565b60005b838110156117cf5781810151838201526020016117b7565b838111156117de576000848401525b50505050565b7f416363657373436f6e74726f6c3a206163636f756e742000000000000000000081526000835161181c8160178501602088016117b4565b7001034b99036b4b9b9b4b733903937b6329607d1b601791840191820152835161184d8160288401602088016117b4565b01602801949350505050565b60208152600082518060208401526118788160408501602087016117b4565b601f01601f19169190910160400192915050565b60008160001904831182151516156118a6576118a6611667565b500290565b600082198211156118be576118be611667565b500190565b6000816118d2576118d2611667565b50600019019056fee2b7fb3b832174769106daebcfd6d1970523240dda11281102db9363b83b0dc4a49807205ce4d355092ef5a8a18f56e8913cf4a201fbe287825b095693c21775a2646970667358221220df3ddf81890b8ca89dda6565b6edfedf3f675ac749f51afe073c265145fd5a3b64736f6c63430008090033496e697469616c697a61626c653a20636f6e747261637420697320616c726561",
  "linkReferences": {},
  "deployedLinkReferences": {}
}