{
  "_format": "hh-sol-artifact-1",
  "contractName": "LockedTokenEscrow",
  "sourceName": "contracts/npc/MigrationMike/LockedTokenEscrow.sol",
  "abi": [
    {
      "inputs": [
        {
          "internalType": "address",
          "name": "_beneficiary",
          "type": "address"
        },
        {
          "internalType": "address",
          "name": "_token",
          "type": "address"
        }
      ],
      "stateMutability": "nonpayable",
      "type": "constructor"
    },
    {
      "anonymous": false,
      "inputs": [
        {
          "indexed": true,
          "internalType": "address",
          "name": "previousOwner",
          "type": "address"
        },
        {
          "indexed": true,
          "internalType": "address",
          "name": "newOwner",
          "type": "address"
        }
      ],
      "name": "OwnershipTransferred",
      "type": "event"
    },
    {
      "inputs": [],
      "name": "beneficiary",
      "outputs": [
        {
          "internalType": "address",
          "name": "",
          "type": "address"
        }
      ],
      "stateMutability": "view",
      "type": "function"
    },
    {
      "inputs": [],
      "name": "finalize",
      "outputs": [],
      "stateMutability": "nonpayable",
      "type": "function"
    },
    {
      "inputs": [],
      "name": "getBalances",
      "outputs": [
        {
          "internalType": "uint256",
          "name": "_unlocked",
          "type": "uint256"
        },
        {
          "internalType": "uint256",
          "name": "_locked",
          "type": "uint256"
        }
      ],
      "stateMutability": "view",
      "type": "function"
    },
    {
      "inputs": [],
      "name": "locked",
      "outputs": [
        {
          "internalType": "uint256",
          "name": "",
          "type": "uint256"
        }
      ],
      "stateMutability": "view",
      "type": "function"
    },
    {
      "inputs": [],
      "name": "owner",
      "outputs": [
        {
          "internalType": "address",
          "name": "",
          "type": "address"
        }
      ],
      "stateMutability": "view",
      "type": "function"
    },
    {
      "inputs": [],
      "name": "renounceOwnership",
      "outputs": [],
      "stateMutability": "nonpayable",
      "type": "function"
    },
    {
      "inputs": [],
      "name": "setBalances",
      "outputs": [],
      "stateMutability": "nonpayable",
      "type": "function"
    },
    {
      "inputs": [],
      "name": "token",
      "outputs": [
        {
          "internalType": "contract IERC20",
          "name": "",
          "type": "address"
        }
      ],
      "stateMutability": "view",
      "type": "function"
    },
    {
      "inputs": [
        {
          "internalType": "address",
          "name": "newOwner",
          "type": "address"
        }
      ],
      "name": "transferOwnership",
      "outputs": [],
      "stateMutability": "nonpayable",
      "type": "function"
    },
    {
      "inputs": [],
      "name": "unlocked",
      "outputs": [
        {
          "internalType": "uint256",
          "name": "",
          "type": "uint256"
        }
      ],
      "stateMutability": "view",
      "type": "function"
    }
  ],
  "bytecode": "0x608060405234801561001057600080fd5b5060405161061438038061061483398101604081905261002f916100d5565b61003833610069565b600180546001600160a01b039384166001600160a01b03199182161790915560028054929093169116179055610108565b600080546001600160a01b038381166001600160a01b0319831681178455604051919092169283917f8be0079c531659141344cd1fd0a4f28419497f9722a3daafe3b4186f6b6457e09190a35050565b80516001600160a01b03811681146100d057600080fd5b919050565b600080604083850312156100e857600080fd5b6100f1836100b9565b91506100ff602084016100b9565b90509250929050565b6104fd806101176000396000f3fe608060405234801561001057600080fd5b506004361061009d5760003560e01c8063715018a611610066578063715018a6146101165780638da5cb5b1461011e578063cf3090121461012f578063f2fde38b14610138578063fc0c546a1461014b57600080fd5b8062113e08146100a25780631f0b5553146100c257806338af3eed146100cc5780634bb278f3146100f75780636a5e2650146100ff575b600080fd5b600354600454604080519283526020830191909152015b60405180910390f35b6100ca61015e565b005b6001546100df906001600160a01b031681565b6040516001600160a01b0390911681526020016100b9565b6100ca610291565b61010860035481565b6040519081526020016100b9565b6100ca610328565b6000546001600160a01b03166100df565b61010860045481565b6100ca610146366004610449565b61035e565b6002546100df906001600160a01b031681565b6000546001600160a01b031633146101915760405162461bcd60e51b815260040161018890610479565b60405180910390fd5b6002546040516370a0823160e01b81523060048201526001600160a01b03909116906370a082319060240160206040518083038186803b1580156101d457600080fd5b505afa1580156101e8573d6000803e3d6000fd5b505050506040513d601f19601f8201168201806040525081019061020c91906104ae565b600355600254604051635a46d3b560e01b81523060048201526001600160a01b0390911690635a46d3b590602401602060405180830381600087803b15801561025457600080fd5b505af1158015610268573d6000803e3d6000fd5b505050506040513d601f19601f8201168201806040525081019061028c91906104ae565b600455565b6000546001600160a01b031633146102bb5760405162461bcd60e51b815260040161018890610479565b60025460405163a3a7e7f360e01b8152600160048201526001600160a01b039091169063a3a7e7f390602401600060405180830381600087803b15801561030157600080fd5b505af1158015610315573d6000803e3d6000fd5b50506001546001600160a01b0316915050ff5b6000546001600160a01b031633146103525760405162461bcd60e51b815260040161018890610479565b61035c60006103f9565b565b6000546001600160a01b031633146103885760405162461bcd60e51b815260040161018890610479565b6001600160a01b0381166103ed5760405162461bcd60e51b815260206004820152602660248201527f4f776e61626c653a206e6577206f776e657220697320746865207a65726f206160448201526564647265737360d01b6064820152608401610188565b6103f6816103f9565b50565b600080546001600160a01b038381166001600160a01b0319831681178455604051919092169283917f8be0079c531659141344cd1fd0a4f28419497f9722a3daafe3b4186f6b6457e09190a35050565b60006020828403121561045b57600080fd5b81356001600160a01b038116811461047257600080fd5b9392505050565b6020808252818101527f4f776e61626c653a2063616c6c6572206973206e6f7420746865206f776e6572604082015260600190565b6000602082840312156104c057600080fd5b505191905056fea26469706673582212207a2f5e34e8e227a0060e41bf78bb78fac587349391126ddd42438b4d00d913a364736f6c63430008090033",
  "linkReferences": {},
  "deployedLinkReferences": {}
}