{
  "_format": "hh-sol-artifact-1",
  "contractName": "EvoUpgradeable",
  "sourceName": "contracts/ERC721/EvoUpgradeable.sol",
  "abi": [
    {
      "inputs": [],
      "stateMutability": "nonpayable",
      "type": "constructor"
    },
    {
      "inputs": [
        {
          "internalType": "address",
          "name": "have",
          "type": "address"
        },
        {
          "internalType": "address",
          "name": "want",
          "type": "address"
        }
      ],
      "name": "OnlyCoordinatorCanFulfill",
      "type": "error"
    },
    {
      "anonymous": false,
      "inputs": [
        {
          "indexed": true,
          "internalType": "address",
          "name": "owner",
          "type": "address"
        },
        {
          "indexed": true,
          "internalType": "address",
          "name": "approved",
          "type": "address"
        },
        {
          "indexed": true,
          "internalType": "uint256",
          "name": "tokenId",
          "type": "uint256"
        }
      ],
      "name": "Approval",
      "type": "event"
    },
    {
      "anonymous": false,
      "inputs": [
        {
          "indexed": true,
          "internalType": "address",
          "name": "owner",
          "type": "address"
        },
        {
          "indexed": true,
          "internalType": "address",
          "name": "operator",
          "type": "address"
        },
        {
          "indexed": false,
          "internalType": "bool",
          "name": "approved",
          "type": "bool"
        }
      ],
      "name": "ApprovalForAll",
      "type": "event"
    },
    {
      "anonymous": false,
      "inputs": [
        {
          "indexed": false,
          "internalType": "uint8",
          "name": "version",
          "type": "uint8"
        }
      ],
      "name": "Initialized",
      "type": "event"
    },
    {
      "anonymous": false,
      "inputs": [
        {
          "indexed": false,
          "internalType": "address",
          "name": "account",
          "type": "address"
        }
      ],
      "name": "Paused",
      "type": "event"
    },
    {
      "anonymous": false,
      "inputs": [
        {
          "indexed": true,
          "internalType": "bytes32",
          "name": "role",
          "type": "bytes32"
        },
        {
          "indexed": true,
          "internalType": "bytes32",
          "name": "previousAdminRole",
          "type": "bytes32"
        },
        {
          "indexed": true,
          "internalType": "bytes32",
          "name": "newAdminRole",
          "type": "bytes32"
        }
      ],
      "name": "RoleAdminChanged",
      "type": "event"
    },
    {
      "anonymous": false,
      "inputs": [
        {
          "indexed": true,
          "internalType": "bytes32",
          "name": "role",
          "type": "bytes32"
        },
        {
          "indexed": true,
          "internalType": "address",
          "name": "account",
          "type": "address"
        },
        {
          "indexed": true,
          "internalType": "address",
          "name": "sender",
          "type": "address"
        }
      ],
      "name": "RoleGranted",
      "type": "event"
    },
    {
      "anonymous": false,
      "inputs": [
        {
          "indexed": true,
          "internalType": "bytes32",
          "name": "role",
          "type": "bytes32"
        },
        {
          "indexed": true,
          "internalType": "address",
          "name": "account",
          "type": "address"
        },
        {
          "indexed": true,
          "internalType": "address",
          "name": "sender",
          "type": "address"
        }
      ],
      "name": "RoleRevoked",
      "type": "event"
    },
    {
      "anonymous": false,
      "inputs": [
        {
          "indexed": true,
          "internalType": "address",
          "name": "from",
          "type": "address"
        },
        {
          "indexed": true,
          "internalType": "address",
          "name": "to",
          "type": "address"
        },
        {
          "indexed": true,
          "internalType": "uint256",
          "name": "tokenId",
          "type": "uint256"
        }
      ],
      "name": "Transfer",
      "type": "event"
    },
    {
      "anonymous": false,
      "inputs": [
        {
          "indexed": false,
          "internalType": "address",
          "name": "account",
          "type": "address"
        }
      ],
      "name": "Unpaused",
      "type": "event"
    },
    {
      "inputs": [],
      "name": "ADMIN_ROLE",
      "outputs": [
        {
          "internalType": "bytes32",
          "name": "",
          "type": "bytes32"
        }
      ],
      "stateMutability": "view",
      "type": "function"
    },
    {
      "inputs": [],
      "name": "DEFAULT_ADMIN_ROLE",
      "outputs": [
        {
          "internalType": "bytes32",
          "name": "",
          "type": "bytes32"
        }
      ],
      "stateMutability": "view",
      "type": "function"
    },
    {
      "inputs": [],
      "name": "MINTER_ROLE",
      "outputs": [
        {
          "internalType": "bytes32",
          "name": "",
          "type": "bytes32"
        }
      ],
      "stateMutability": "view",
      "type": "function"
    },
    {
      "inputs": [
        {
          "internalType": "address",
          "name": "_address",
          "type": "address"
        }
      ],
      "name": "addBlacklist",
      "outputs": [],
      "stateMutability": "nonpayable",
      "type": "function"
    },
    {
      "inputs": [],
      "name": "animationBaseURI",
      "outputs": [
        {
          "internalType": "string",
          "name": "",
          "type": "string"
        }
      ],
      "stateMutability": "view",
      "type": "function"
    },
    {
      "inputs": [
        {
          "internalType": "address",
          "name": "to",
          "type": "address"
        },
        {
          "internalType": "uint256",
          "name": "tokenId",
          "type": "uint256"
        }
      ],
      "name": "approve",
      "outputs": [],
      "stateMutability": "nonpayable",
      "type": "function"
    },
    {
      "inputs": [
        {
          "internalType": "address",
          "name": "owner",
          "type": "address"
        }
      ],
      "name": "balanceOf",
      "outputs": [
        {
          "internalType": "uint256",
          "name": "",
          "type": "uint256"
        }
      ],
      "stateMutability": "view",
      "type": "function"
    },
    {
      "inputs": [
        {
          "internalType": "uint256",
          "name": "tokenId",
          "type": "uint256"
        },
        {
          "internalType": "uint256[]",
          "name": "attributeIds",
          "type": "uint256[]"
        },
        {
          "internalType": "uint256[]",
          "name": "values",
          "type": "uint256[]"
        }
      ],
      "name": "batchAddToAttribute",
      "outputs": [],
      "stateMutability": "nonpayable",
      "type": "function"
    },
    {
      "inputs": [
        {
          "internalType": "address",
          "name": "_address",
          "type": "address"
        },
        {
          "components": [
            {
              "internalType": "uint256",
              "name": "tokenId",
              "type": "uint256"
            },
            {
              "internalType": "uint256",
              "name": "species",
              "type": "uint256"
            },
            {
              "internalType": "uint256",
              "name": "generation",
              "type": "uint256"
            },
            {
              "internalType": "uint256",
              "name": "experience",
              "type": "uint256"
            },
            {
              "components": [
                {
                  "internalType": "uint256",
                  "name": "gender",
                  "type": "uint256"
                },
                {
                  "internalType": "uint256",
                  "name": "rarity",
                  "type": "uint256"
                },
                {
                  "internalType": "uint256",
                  "name": "primaryType",
                  "type": "uint256"
                },
                {
                  "internalType": "uint256",
                  "name": "secondaryType",
                  "type": "uint256"
                },
                {
                  "internalType": "uint256",
                  "name": "nature",
                  "type": "uint256"
                }
              ],
              "internalType": "struct IEvoStructsUpgradeable.Stats",
              "name": "stats",
              "type": "tuple"
            },
            {
              "components": [
                {
                  "internalType": "uint256",
                  "name": "health",
                  "type": "uint256"
                },
                {
                  "internalType": "uint256",
                  "name": "attack",
                  "type": "uint256"
                },
                {
                  "internalType": "uint256",
                  "name": "defense",
                  "type": "uint256"
                },
                {
                  "internalType": "uint256",
                  "name": "special",
                  "type": "uint256"
                },
                {
                  "internalType": "uint256",
                  "name": "resistance",
                  "type": "uint256"
                },
                {
                  "internalType": "uint256",
                  "name": "speed",
                  "type": "uint256"
                }
              ],
              "internalType": "struct IEvoStructsUpgradeable.BattleStats",
              "name": "battle",
              "type": "tuple"
            },
            {
              "components": [
                {
                  "internalType": "uint256",
                  "name": "total",
                  "type": "uint256"
                },
                {
                  "internalType": "uint256",
                  "name": "remaining",
                  "type": "uint256"
                }
              ],
              "internalType": "struct IEvoStructsUpgradeable.Summons",
              "name": "summons",
              "type": "tuple"
            }
          ],
          "internalType": "struct IEvoStructsUpgradeable.Evo[]",
          "name": "evos",
          "type": "tuple[]"
        }
      ],
      "name": "batchMint",
      "outputs": [],
      "stateMutability": "nonpayable",
      "type": "function"
    },
    {
      "inputs": [
        {
          "internalType": "uint256",
          "name": "tokenId",
          "type": "uint256"
        },
        {
          "internalType": "uint256[]",
          "name": "attributeIds",
          "type": "uint256[]"
        },
        {
          "internalType": "uint256[]",
          "name": "values",
          "type": "uint256[]"
        }
      ],
      "name": "batchSetAttribute",
      "outputs": [],
      "stateMutability": "nonpayable",
      "type": "function"
    },
    {
      "inputs": [
        {
          "internalType": "uint256[]",
          "name": "tokenIds",
          "type": "uint256[]"
        }
      ],
      "name": "batchTokenURI",
      "outputs": [
        {
          "internalType": "string[]",
          "name": "",
          "type": "string[]"
        }
      ],
      "stateMutability": "view",
      "type": "function"
    },
    {
      "inputs": [
        {
          "internalType": "uint256",
          "name": "tokenId",
          "type": "uint256"
        }
      ],
      "name": "burn",
      "outputs": [],
      "stateMutability": "nonpayable",
      "type": "function"
    },
    {
      "inputs": [],
      "name": "burnedIds",
      "outputs": [
        {
          "internalType": "uint256[]",
          "name": "",
          "type": "uint256[]"
        }
      ],
      "stateMutability": "view",
      "type": "function"
    },
    {
      "inputs": [
        {
          "internalType": "address",
          "name": "_address",
          "type": "address"
        }
      ],
      "name": "clearPendingHatch",
      "outputs": [],
      "stateMutability": "nonpayable",
      "type": "function"
    },
    {
      "inputs": [
        {
          "internalType": "uint256",
          "name": "tokenId",
          "type": "uint256"
        }
      ],
      "name": "getApproved",
      "outputs": [
        {
          "internalType": "address",
          "name": "",
          "type": "address"
        }
      ],
      "stateMutability": "view",
      "type": "function"
    },
    {
      "inputs": [
        {
          "internalType": "address",
          "name": "_address",
          "type": "address"
        }
      ],
      "name": "getPendingHatchFor",
      "outputs": [
        {
          "components": [
            {
              "internalType": "uint256[]",
              "name": "ids",
              "type": "uint256[]"
            },
            {
              "internalType": "uint256",
              "name": "requestId",
              "type": "uint256"
            },
            {
              "internalType": "uint256[]",
              "name": "words",
              "type": "uint256[]"
            }
          ],
          "internalType": "struct IEvoStructsUpgradeable.PendingHatch",
          "name": "",
          "type": "tuple"
        }
      ],
      "stateMutability": "view",
      "type": "function"
    },
    {
      "inputs": [],
      "name": "getPendingHatchWallets",
      "outputs": [
        {
          "internalType": "address[]",
          "name": "",
          "type": "address[]"
        }
      ],
      "stateMutability": "view",
      "type": "function"
    },
    {
      "inputs": [
        {
          "internalType": "bytes32",
          "name": "role",
          "type": "bytes32"
        }
      ],
      "name": "getRoleAdmin",
      "outputs": [
        {
          "internalType": "bytes32",
          "name": "",
          "type": "bytes32"
        }
      ],
      "stateMutability": "view",
      "type": "function"
    },
    {
      "inputs": [
        {
          "internalType": "bytes32",
          "name": "role",
          "type": "bytes32"
        },
        {
          "internalType": "uint256",
          "name": "index",
          "type": "uint256"
        }
      ],
      "name": "getRoleMember",
      "outputs": [
        {
          "internalType": "address",
          "name": "",
          "type": "address"
        }
      ],
      "stateMutability": "view",
      "type": "function"
    },
    {
      "inputs": [
        {
          "internalType": "bytes32",
          "name": "role",
          "type": "bytes32"
        }
      ],
      "name": "getRoleMemberCount",
      "outputs": [
        {
          "internalType": "uint256",
          "name": "",
          "type": "uint256"
        }
      ],
      "stateMutability": "view",
      "type": "function"
    },
    {
      "inputs": [
        {
          "internalType": "bytes32",
          "name": "role",
          "type": "bytes32"
        },
        {
          "internalType": "address",
          "name": "account",
          "type": "address"
        }
      ],
      "name": "grantRole",
      "outputs": [],
      "stateMutability": "nonpayable",
      "type": "function"
    },
    {
      "inputs": [
        {
          "internalType": "bytes32",
          "name": "role",
          "type": "bytes32"
        },
        {
          "internalType": "address",
          "name": "account",
          "type": "address"
        }
      ],
      "name": "hasRole",
      "outputs": [
        {
          "internalType": "bool",
          "name": "",
          "type": "bool"
        }
      ],
      "stateMutability": "view",
      "type": "function"
    },
    {
      "inputs": [],
      "name": "imageBaseURI",
      "outputs": [
        {
          "internalType": "string",
          "name": "",
          "type": "string"
        }
      ],
      "stateMutability": "view",
      "type": "function"
    },
    {
      "inputs": [],
      "name": "initialize",
      "outputs": [],
      "stateMutability": "nonpayable",
      "type": "function"
    },
    {
      "inputs": [
        {
          "internalType": "address",
          "name": "owner",
          "type": "address"
        },
        {
          "internalType": "address",
          "name": "operator",
          "type": "address"
        }
      ],
      "name": "isApprovedForAll",
      "outputs": [
        {
          "internalType": "bool",
          "name": "",
          "type": "bool"
        }
      ],
      "stateMutability": "view",
      "type": "function"
    },
    {
      "inputs": [
        {
          "internalType": "address",
          "name": "_address",
          "type": "address"
        },
        {
          "components": [
            {
              "internalType": "uint256",
              "name": "tokenId",
              "type": "uint256"
            },
            {
              "internalType": "uint256",
              "name": "species",
              "type": "uint256"
            },
            {
              "internalType": "uint256",
              "name": "generation",
              "type": "uint256"
            },
            {
              "internalType": "uint256",
              "name": "experience",
              "type": "uint256"
            },
            {
              "components": [
                {
                  "internalType": "uint256",
                  "name": "gender",
                  "type": "uint256"
                },
                {
                  "internalType": "uint256",
                  "name": "rarity",
                  "type": "uint256"
                },
                {
                  "internalType": "uint256",
                  "name": "primaryType",
                  "type": "uint256"
                },
                {
                  "internalType": "uint256",
                  "name": "secondaryType",
                  "type": "uint256"
                },
                {
                  "internalType": "uint256",
                  "name": "nature",
                  "type": "uint256"
                }
              ],
              "internalType": "struct IEvoStructsUpgradeable.Stats",
              "name": "stats",
              "type": "tuple"
            },
            {
              "components": [
                {
                  "internalType": "uint256",
                  "name": "health",
                  "type": "uint256"
                },
                {
                  "internalType": "uint256",
                  "name": "attack",
                  "type": "uint256"
                },
                {
                  "internalType": "uint256",
                  "name": "defense",
                  "type": "uint256"
                },
                {
                  "internalType": "uint256",
                  "name": "special",
                  "type": "uint256"
                },
                {
                  "internalType": "uint256",
                  "name": "resistance",
                  "type": "uint256"
                },
                {
                  "internalType": "uint256",
                  "name": "speed",
                  "type": "uint256"
                }
              ],
              "internalType": "struct IEvoStructsUpgradeable.BattleStats",
              "name": "battle",
              "type": "tuple"
            },
            {
              "components": [
                {
                  "internalType": "uint256",
                  "name": "total",
                  "type": "uint256"
                },
                {
                  "internalType": "uint256",
                  "name": "remaining",
                  "type": "uint256"
                }
              ],
              "internalType": "struct IEvoStructsUpgradeable.Summons",
              "name": "summons",
              "type": "tuple"
            }
          ],
          "internalType": "struct IEvoStructsUpgradeable.Evo",
          "name": "evo",
          "type": "tuple"
        }
      ],
      "name": "mint",
      "outputs": [],
      "stateMutability": "nonpayable",
      "type": "function"
    },
    {
      "inputs": [],
      "name": "name",
      "outputs": [
        {
          "internalType": "string",
          "name": "",
          "type": "string"
        }
      ],
      "stateMutability": "view",
      "type": "function"
    },
    {
      "inputs": [
        {
          "internalType": "uint256",
          "name": "tokenId",
          "type": "uint256"
        }
      ],
      "name": "ownerOf",
      "outputs": [
        {
          "internalType": "address",
          "name": "",
          "type": "address"
        }
      ],
      "stateMutability": "view",
      "type": "function"
    },
    {
      "inputs": [],
      "name": "pause",
      "outputs": [],
      "stateMutability": "nonpayable",
      "type": "function"
    },
    {
      "inputs": [],
      "name": "paused",
      "outputs": [
        {
          "internalType": "bool",
          "name": "",
          "type": "bool"
        }
      ],
      "stateMutability": "view",
      "type": "function"
    },
    {
      "inputs": [
        {
          "internalType": "uint256",
          "name": "requestId",
          "type": "uint256"
        },
        {
          "internalType": "uint256[]",
          "name": "randomWords",
          "type": "uint256[]"
        }
      ],
      "name": "rawFulfillRandomWords",
      "outputs": [],
      "stateMutability": "nonpayable",
      "type": "function"
    },
    {
      "inputs": [
        {
          "internalType": "address",
          "name": "_address",
          "type": "address"
        }
      ],
      "name": "removeBlacklist",
      "outputs": [],
      "stateMutability": "nonpayable",
      "type": "function"
    },
    {
      "inputs": [
        {
          "internalType": "bytes32",
          "name": "role",
          "type": "bytes32"
        },
        {
          "internalType": "address",
          "name": "account",
          "type": "address"
        }
      ],
      "name": "renounceRole",
      "outputs": [],
      "stateMutability": "nonpayable",
      "type": "function"
    },
    {
      "inputs": [
        {
          "internalType": "bytes32",
          "name": "role",
          "type": "bytes32"
        },
        {
          "internalType": "address",
          "name": "account",
          "type": "address"
        }
      ],
      "name": "revokeRole",
      "outputs": [],
      "stateMutability": "nonpayable",
      "type": "function"
    },
    {
      "inputs": [
        {
          "internalType": "address",
          "name": "from",
          "type": "address"
        },
        {
          "internalType": "address",
          "name": "to",
          "type": "address"
        },
        {
          "internalType": "uint256",
          "name": "tokenId",
          "type": "uint256"
        }
      ],
      "name": "safeTransferFrom",
      "outputs": [],
      "stateMutability": "nonpayable",
      "type": "function"
    },
    {
      "inputs": [
        {
          "internalType": "address",
          "name": "from",
          "type": "address"
        },
        {
          "internalType": "address",
          "name": "to",
          "type": "address"
        },
        {
          "internalType": "uint256",
          "name": "tokenId",
          "type": "uint256"
        },
        {
          "internalType": "bytes",
          "name": "data",
          "type": "bytes"
        }
      ],
      "name": "safeTransferFrom",
      "outputs": [],
      "stateMutability": "nonpayable",
      "type": "function"
    },
    {
      "inputs": [
        {
          "internalType": "string",
          "name": "_animationBaseURI",
          "type": "string"
        }
      ],
      "name": "setAnimationBaseURI",
      "outputs": [],
      "stateMutability": "nonpayable",
      "type": "function"
    },
    {
      "inputs": [
        {
          "internalType": "address",
          "name": "operator",
          "type": "address"
        },
        {
          "internalType": "bool",
          "name": "approved",
          "type": "bool"
        }
      ],
      "name": "setApprovalForAll",
      "outputs": [],
      "stateMutability": "nonpayable",
      "type": "function"
    },
    {
      "inputs": [
        {
          "internalType": "uint256",
          "name": "tokenId",
          "type": "uint256"
        },
        {
          "internalType": "uint256",
          "name": "attributeId",
          "type": "uint256"
        },
        {
          "internalType": "uint256",
          "name": "value",
          "type": "uint256"
        }
      ],
      "name": "setAttribute",
      "outputs": [],
      "stateMutability": "nonpayable",
      "type": "function"
    },
    {
      "inputs": [
        {
          "internalType": "uint256",
          "name": "attributeId",
          "type": "uint256"
        },
        {
          "internalType": "uint256[]",
          "name": "indexes",
          "type": "uint256[]"
        },
        {
          "internalType": "string[]",
          "name": "strings",
          "type": "string[]"
        }
      ],
      "name": "setBaseAttributeStrings",
      "outputs": [],
      "stateMutability": "nonpayable",
      "type": "function"
    },
    {
      "inputs": [
        {
          "internalType": "string",
          "name": "_imageBaseURI",
          "type": "string"
        }
      ],
      "name": "setImageBaseURI",
      "outputs": [],
      "stateMutability": "nonpayable",
      "type": "function"
    },
    {
      "inputs": [
        {
          "internalType": "bytes4",
          "name": "interfaceId",
          "type": "bytes4"
        }
      ],
      "name": "supportsInterface",
      "outputs": [
        {
          "internalType": "bool",
          "name": "",
          "type": "bool"
        }
      ],
      "stateMutability": "view",
      "type": "function"
    },
    {
      "inputs": [],
      "name": "symbol",
      "outputs": [
        {
          "internalType": "string",
          "name": "",
          "type": "string"
        }
      ],
      "stateMutability": "view",
      "type": "function"
    },
    {
      "inputs": [
        {
          "internalType": "uint256",
          "name": "index",
          "type": "uint256"
        }
      ],
      "name": "tokenByIndex",
      "outputs": [
        {
          "internalType": "uint256",
          "name": "",
          "type": "uint256"
        }
      ],
      "stateMutability": "view",
      "type": "function"
    },
    {
      "inputs": [
        {
          "internalType": "address",
          "name": "owner",
          "type": "address"
        },
        {
          "internalType": "uint256",
          "name": "index",
          "type": "uint256"
        }
      ],
      "name": "tokenOfOwnerByIndex",
      "outputs": [
        {
          "internalType": "uint256",
          "name": "",
          "type": "uint256"
        }
      ],
      "stateMutability": "view",
      "type": "function"
    },
    {
      "inputs": [
        {
          "internalType": "uint256",
          "name": "tokenId",
          "type": "uint256"
        }
      ],
      "name": "tokenURI",
      "outputs": [
        {
          "internalType": "string",
          "name": "",
          "type": "string"
        }
      ],
      "stateMutability": "view",
      "type": "function"
    },
    {
      "inputs": [
        {
          "internalType": "address",
          "name": "owner",
          "type": "address"
        }
      ],
      "name": "tokensOfOwner",
      "outputs": [
        {
          "internalType": "uint256[]",
          "name": "",
          "type": "uint256[]"
        }
      ],
      "stateMutability": "view",
      "type": "function"
    },
    {
      "inputs": [],
      "name": "totalBurned",
      "outputs": [
        {
          "internalType": "uint256",
          "name": "",
          "type": "uint256"
        }
      ],
      "stateMutability": "view",
      "type": "function"
    },
    {
      "inputs": [],
      "name": "totalSupply",
      "outputs": [
        {
          "internalType": "uint256",
          "name": "",
          "type": "uint256"
        }
      ],
      "stateMutability": "view",
      "type": "function"
    },
    {
      "inputs": [
        {
          "internalType": "address",
          "name": "from",
          "type": "address"
        },
        {
          "internalType": "address",
          "name": "to",
          "type": "address"
        },
        {
          "internalType": "uint256",
          "name": "tokenId",
          "type": "uint256"
        }
      ],
      "name": "transferFrom",
      "outputs": [],
      "stateMutability": "nonpayable",
      "type": "function"
    },
    {
      "inputs": [],
      "name": "unpause",
      "outputs": [],
      "stateMutability": "nonpayable",
      "type": "function"
    }
  ],
  "bytecode": "0x60806040523480156200001157600080fd5b506200001c62000022565b620000e4565b600054610100900460ff16156200008f5760405162461bcd60e51b815260206004820152602760248201527f496e697469616c697a61626c653a20636f6e747261637420697320696e697469604482015266616c697a696e6760c81b606482015260840160405180910390fd5b60005460ff9081161015620000e2576000805460ff191660ff9081179091556040519081527f7f26b83ff96e1f2b6a682f133852f6798a09c465da95921460cefb38474024989060200160405180910390a15b565b61520a80620000f46000396000f3fe608060405234801561001057600080fd5b50600436106102f15760003560e01c806370a082311161019d578063a22cb465116100e9578063cfa4e54f116100a2578063d89135cd1161007c578063d89135cd14610682578063e985e9c51461068a578063eb91e651146106c6578063fd5eea4e146106d957600080fd5b8063cfa4e54f14610652578063d53913931461065a578063d547741f1461066f57600080fd5b8063a22cb465146105d3578063a2c6e888146105e6578063a5435ec1146105f9578063b88d4fde14610619578063c87b56dd1461062c578063ca15c8731461063f57600080fd5b80638462151c1161015657806395d89b411161013057806395d89b411461059d5780639bf66fa7146105a55780639cfe42da146105b8578063a217fddf146105cb57600080fd5b80638462151c146105575780639010d07c1461057757806391d148541461058a57600080fd5b806370a082311461050457806375b238fc14610517578063776458391461052c5780637d7a6d13146105345780638129fc1c146105475780638456cb591461054f57600080fd5b806336568abe1161025c5780635c975abb1161021557806364cb59d6116101ef57806364cb59d6146104ab5780636980f79b146104be5780636cfa24cc146104d15780636d94f13a146104e457600080fd5b80635c975abb14610484578063633f43f7146104905780636352211e1461049857600080fd5b806336568abe1461041b5780633f4ba83a1461042e57806342842e0e1461043657806342966c68146104495780634c35ec441461045c5780634f6ccce71461047157600080fd5b806318160ddd116102ae57806318160ddd146103995780631fe543e3146103ab57806323b872dd146103be578063248a9ca3146103d15780632f2ff15d146103f55780632f745c591461040857600080fd5b806301ffc9a7146102f6578063068149261461031e57806306fdde0314610333578063081812fc14610348578063095ea7b3146103735780630c9ac09214610386575b600080fd5b610309610304366004613c4a565b6106ec565b60405190151581526020015b60405180910390f35b61033161032c366004613eb7565b6106fd565b005b61033b61075c565b6040516103159190613fc1565b61035b610356366004613fd4565b6107ee565b6040516001600160a01b039091168152602001610315565b610331610381366004613fed565b610815565b610331610394366004614017565b610857565b60ca545b604051908152602001610315565b6103316103b9366004614098565b6108dd565b6103316103cc3660046140de565b610936565b61039d6103df366004613fd4565b600090815261015e602052604090206001015490565b61033161040336600461411a565b610968565b61039d610416366004613fed565b61098e565b61033161042936600461411a565b610a24565b610331610a9e565b6103316104443660046140de565b610ac1565b610331610457366004613fd4565b610adc565b610464610b17565b6040516103159190614146565b61039d61047f366004613fd4565b610b43565b61012c5460ff16610309565b61033b610bd6565b61035b6104a6366004613fd4565b610c65565b6103316104b9366004614193565b610cc5565b6103316104cc3660046141ff565b610da0565b6103316104df3660046142a2565b610fdf565b6104f76104f23660046142d6565b61100b565b604051610315919061430a565b61039d610512366004614017565b6110c3565b61039d6000805160206151b583398151915281565b61033b611149565b610331610542366004614193565b611157565b6103316111e8565b610331611434565b61056a610565366004614017565b611454565b60405161031591906143a7565b61035b6105853660046143ba565b6114f5565b61030961059836600461411a565b611515565b61033b611541565b6103316105b33660046143dc565b611550565b6103316105c6366004614017565b6115f2565b61039d600081565b6103316105e13660046144bc565b611616565b6103316105f43660046142a2565b61164a565b61060c610607366004614017565b611676565b60405161031591906144f8565b610331610627366004614544565b611791565b61033b61063a366004613fd4565b6117c3565b61039d61064d366004613fd4565b611998565b61056a6119b0565b61039d60008051602061515883398151915281565b61033161067d36600461411a565b6119c2565b61039d6119e8565b6103096106983660046145bf565b6001600160a01b039182166000908152609b6020908152604080832093909416825291909152205460ff1690565b6103316106d4366004614017565b6119f5565b6103316106e73660046145e9565b611a19565b60006106f782611a4b565b92915050565b60008051602061515883398151915261071581611a56565b60005b8251811015610756576107448484838151811061073757610737614615565b6020026020010151610da0565b8061074e81614641565b915050610718565b50505050565b60606096805461076b9061465c565b80601f01602080910402602001604051908101604052809291908181526020018280546107979061465c565b80156107e45780601f106107b9576101008083540402835291602001916107e4565b820191906000526020600020905b8154815290600101906020018083116107c757829003601f168201915b5050505050905090565b60006107f982611a60565b506000908152609a60205260409020546001600160a01b031690565b8161082261022582611ab0565b156108485760405162461bcd60e51b815260040161083f90614691565b60405180910390fd5b6108528383611ad2565b505050565b60008051602061515883398151915261086f81611a56565b6001600160a01b038216600081815261028a602081815260408084206001810154855261028d835290842080546001600160a01b0319169055938352526108b68282613b47565b60018201600090556002820160006108ce9190613b47565b50610852905061028b83611be3565b6000546201000090046001600160a01b031633146109285760005460405163073e64fd60e21b8152336004820152620100009091046001600160a01b0316602482015260440161083f565b6109328282611bf8565b5050565b610941335b82611c32565b61095d5760405162461bcd60e51b815260040161083f906146be565b610852838383611cb1565b600082815261015e602052604090206001015461098481611a56565b6108528383611e58565b6000610999836110c3565b82106109fb5760405162461bcd60e51b815260206004820152602b60248201527f455243373231456e756d657261626c653a206f776e657220696e646578206f7560448201526a74206f6620626f756e647360a81b606482015260840161083f565b506001600160a01b0391909116600090815260c860209081526040808320938352929052205490565b6001600160a01b0381163314610a945760405162461bcd60e51b815260206004820152602f60248201527f416363657373436f6e74726f6c3a2063616e206f6e6c792072656e6f756e636560448201526e103937b632b9903337b91039b2b63360891b606482015260840161083f565b6109328282611e7b565b6000805160206151b5833981519152610ab681611a56565b610abe611e9e565b50565b61085283838360405180602001604052806000815250611791565b610ae53361093b565b610b015760405162461bcd60e51b815260040161083f906146be565b610b0d6101c282611ef1565b50610abe81611efd565b60606000805160206151b5833981519152610b3181611a56565b610b3c61028b611fa4565b91505b5090565b6000610b4e60ca5490565b8210610bb15760405162461bcd60e51b815260206004820152602c60248201527f455243373231456e756d657261626c653a20676c6f62616c20696e646578206f60448201526b7574206f6620626f756e647360a01b606482015260840161083f565b60ca8281548110610bc457610bc4614615565b90600052602060002001549050919050565b6102948054610be49061465c565b80601f0160208091040260200160405190810160405280929190818152602001828054610c109061465c565b8015610c5d5780601f10610c3257610100808354040283529160200191610c5d565b820191906000526020600020905b815481529060010190602001808311610c4057829003601f168201915b505050505081565b6000818152609860205260408120546001600160a01b0316806106f75760405162461bcd60e51b8152602060048201526018602482015277115490cdcc8c4e881a5b9d985b1a59081d1bdad95b88125160421b604482015260640161083f565b600080516020615158833981519152610cdd81611a56565b60005b8351811015610d99576000610d2a858381518110610d0057610d00614615565b60200260200101516102916000898152602001908152602001600020611fb190919063ffffffff16565b9050610d84858381518110610d4157610d41614615565b6020026020010151858481518110610d5b57610d5b614615565b602002602001015183610d6e919061470c565b6000898152610291602052604090209190611fbd565b50508080610d9190614641565b915050610ce0565b5050505050565b600080516020615158833981519152610db881611a56565b6020808301518351600090815261029190925260408220610dda929091611fbd565b506080820151602090810151835160009081526102919092526040909120610e0491600190611fbd565b506080820151518251600090815261029160205260409020610e2891600290611fbd565b506040808301518351600090815261029160205291909120610e4c91600390611fbd565b5060808201516040908101518351600090815261029160205291909120610e7591600490611fbd565b506080820151606001518251600090815261029160205260409020610e9c91600590611fbd565b5060c0820151518251600090815261029160205260409020610ec091600690611fbd565b5060608201518251600090815261029160205260409020610ee391600790611fbd565b5060808083015101518251600090815261029160205260409020610f0991600890611fbd565b5060a0820151602090810151835160009081526102919092526040909120610f3391600990611fbd565b5060a08201516040908101518351600090815261029160205291909120610f5c91600a90611fbd565b5060a0820151606001518251600090815261029160205260409020610f8391600b90611fbd565b5060a0820151608001518251600090815261029160205260409020610faa91600c90611fbd565b5060a08083015101518251600090815261029160205260409020610fd091600d90611fbd565b50610852838360000151611fca565b6000805160206151b5833981519152610ff781611a56565b815161085290610293906020850190613b65565b6060600082516001600160401b0381111561102857611028613c83565b60405190808252806020026020018201604052801561105b57816020015b60608152602001906001900390816110465790505b50905060005b83518110156110bc5761108c84828151811061107f5761107f614615565b60200260200101516117c3565b82828151811061109e5761109e614615565b602002602001018190525080806110b490614641565b915050611061565b5092915050565b60006001600160a01b03821661112d5760405162461bcd60e51b815260206004820152602960248201527f4552433732313a2061646472657373207a65726f206973206e6f7420612076616044820152683634b21037bbb732b960b91b606482015260840161083f565b506001600160a01b031660009081526099602052604090205490565b6102938054610be49061465c565b60008051602061515883398151915261116f81611a56565b60005b8351811015610d99576111d584828151811061119057611190614615565b60200260200101518483815181106111aa576111aa614615565b60200260200101516102916000898152602001908152602001600020611fbd9092919063ffffffff16565b50806111e081614641565b915050611172565b600054610100900460ff16158080156112085750600054600160ff909116105b806112225750303b158015611222575060005460ff166001145b6112855760405162461bcd60e51b815260206004820152602e60248201527f496e697469616c697a61626c653a20636f6e747261637420697320616c72656160448201526d191e481a5b9a5d1a585b1a5e995960921b606482015260840161083f565b6000805460ff1916600117905580156112a8576000805461ff0019166101001790555b6112e86040518060400160405280600381526020016245766f60e81b8152506040518060400160405280600381526020016245766f60e81b815250611fe4565b6112f0612015565b6112f8612046565b611300612075565b611308612075565b61131061209c565b73d5d517abe5cf79b7e95ec98db0f0277788aff6347f83250c5584ffa93feb6ee082981c5ebe484c865196750b39835ad4f13780435d601d6003611356848484846120cb565b611361600033611e58565b6113796000805160206151b583398151915233611e58565b61139160008051602061515883398151915233611e58565b6040518060600160405280603d8152602001615178603d913980516113bf9161029391602090910190613b65565b505061028980546001600160a01b0319167375ddd2b19e6f7bed3bfe9d2d21dd226c38c0cbc4179055505081159050610abe576000805461ff0019169055604051600181527f7f26b83ff96e1f2b6a682f133852f6798a09c465da95921460cefb38474024989060200160405180910390a150565b6000805160206151b583398151915261144c81611a56565b610abe61210f565b60606000611461836110c3565b90506000816001600160401b0381111561147d5761147d613c83565b6040519080825280602002602001820160405280156114a6578160200160208202803683370190505b50905060005b828110156114ed576114be858261098e565b8282815181106114d0576114d0614615565b6020908102919091010152806114e581614641565b9150506114ac565b509392505050565b60008281526101906020526040812061150e908361214d565b9392505050565b600091825261015e602090815260408084206001600160a01b0393909316845291905290205460ff1690565b60606097805461076b9061465c565b6000805160206151b583398151915261156881611a56565b60005b8351811015610d995782818151811061158657611586614615565b6020026020010151610292600087815260200190815260200160002060008684815181106115b6576115b6614615565b6020026020010151815260200190815260200160002090805190602001906115df929190613b65565b50806115ea81614641565b91505061156b565b6000805160206151b583398151915261160a81611a56565b61085261022583612159565b8161162361022582611ab0565b156116405760405162461bcd60e51b815260040161083f90614691565b610852838361216e565b6000805160206151b583398151915261166281611a56565b815161085290610294906020850190613b65565b61169a60405180606001604052806060815260200160008152602001606081525090565b6000805160206151588339815191526116b281611a56565b6001600160a01b038316600090815261028a60209081526040918290208251815460809381028201840190945260608101848152909391928492849184018282801561171d57602002820191906000526020600020905b815481526020019060010190808311611709575b50505050508152602001600182015481526020016002820180548060200260200160405190810160405280929190818152602001828054801561177f57602002820191906000526020600020905b81548152602001906001019080831161176b575b50505050508152505091505b50919050565b61179b3383611c32565b6117b75760405162461bcd60e51b815260040161083f906146be565b61075684848484612179565b600081815261029160205260408120606091906117e09082611fb1565b60008181527f64b0ea277fa228112a0515bbec12ee5ad8763a1bd8c09dfcbf922eaedf8fb8a3602052604081208054929350909161181d9061465c565b80601f01602080910402602001604051908101604052809291908181526020018280546118499061465c565b80156118965780601f1061186b57610100808354040283529160200191611896565b820191906000526020600020905b81548152906001019060200180831161187957829003601f168201915b5050505050905060006102936118ab846121ac565b6040516020016118bc929190614740565b604051602081830303815290604052905060006102946118db876121ac565b6040516020016118ec929190614740565b6040516020818303038152906040529050600083611909886121ac565b848460405160200161191e94939291906147de565b6040516020818303038152906040529050600061193a886122a9565b9050600082826040516020016119519291906148d9565b604051602081830303815290604052905061196b8161234a565b60405160200161197b9190614926565b604051602081830303815290604052975050505050505050919050565b6000818152610190602052604081206106f79061249d565b60606119bd6101c2611fa4565b905090565b600082815261015e60205260409020600101546119de81611a56565b6108528383611e7b565b60006119bd6101c261249d565b6000805160206151b5833981519152611a0d81611a56565b61085261022583611be3565b600080516020615158833981519152611a3181611a56565b600084815261029160205260409020610d99908484611fbd565b60006106f7826124a7565b610abe81336124cc565b611a6981612530565b610abe5760405162461bcd60e51b8152602060048201526018602482015277115490cdcc8c4e881a5b9d985b1a59081d1bdad95b88125160421b604482015260640161083f565b6001600160a01b0381166000908152600183016020526040812054151561150e565b6000611add82610c65565b9050806001600160a01b0316836001600160a01b03161415611b4b5760405162461bcd60e51b815260206004820152602160248201527f4552433732313a20617070726f76616c20746f2063757272656e74206f776e656044820152603960f91b606482015260840161083f565b336001600160a01b0382161480611b675750611b678133610698565b611bd95760405162461bcd60e51b815260206004820152603e60248201527f4552433732313a20617070726f76652063616c6c6572206973206e6f7420746f60448201527f6b656e206f776e6572206e6f7220617070726f76656420666f7220616c6c0000606482015260840161083f565b610852838361254f565b600061150e836001600160a01b0384166125bd565b600082815261028d60209081526040808320546001600160a01b0316835261028a8252909120825161085292600290920191840190613be5565b600080611c3e83610c65565b9050806001600160a01b0316846001600160a01b03161480611c8557506001600160a01b038082166000908152609b602090815260408083209388168352929052205460ff165b80611ca95750836001600160a01b0316611c9e846107ee565b6001600160a01b0316145b949350505050565b826001600160a01b0316611cc482610c65565b6001600160a01b031614611d285760405162461bcd60e51b815260206004820152602560248201527f4552433732313a207472616e736665722066726f6d20696e636f72726563742060448201526437bbb732b960d91b606482015260840161083f565b6001600160a01b038216611d8a5760405162461bcd60e51b8152602060048201526024808201527f4552433732313a207472616e7366657220746f20746865207a65726f206164646044820152637265737360e01b606482015260840161083f565b611d958383836126b0565b611da060008261254f565b6001600160a01b0383166000908152609960205260408120805460019290611dc990849061496b565b90915550506001600160a01b0382166000908152609960205260408120805460019290611df790849061470c565b909155505060008181526098602052604080822080546001600160a01b0319166001600160a01b0386811691821790925591518493918716917fddf252ad1be2c89b69c2b068fc378daa952ba7f163c4a11628f55a4df523b3ef91a4505050565b611e6282826127de565b6000828152610190602052604090206108529082612159565b611e858282612865565b6000828152610190602052604090206108529082611be3565b611ea66128cd565b61012c805460ff191690557f5db9ee0a495bf2e6ff9c91a7834c1ba4fdd244a5e8aa4e537bd38aeae4b073aa335b6040516001600160a01b03909116815260200160405180910390a1565b600061150e8383612917565b6000611f0882610c65565b9050611f16816000846126b0565b611f2160008361254f565b6001600160a01b0381166000908152609960205260408120805460019290611f4a90849061496b565b909155505060008281526098602052604080822080546001600160a01b0319169055518391906001600160a01b038416907fddf252ad1be2c89b69c2b068fc378daa952ba7f163c4a11628f55a4df523b3ef908390a45050565b6060600061150e83612966565b600061150e83836129c2565b6000611ca9848484612a32565b610932828260405180602001604052806000815250612a4f565b600054610100900460ff1661200b5760405162461bcd60e51b815260040161083f90614982565b6109328282612a82565b600054610100900460ff1661203c5760405162461bcd60e51b815260040161083f90614982565b612044612075565b565b600054610100900460ff1661206d5760405162461bcd60e51b815260040161083f90614982565b612044612ad0565b600054610100900460ff166120445760405162461bcd60e51b815260040161083f90614982565b600054610100900460ff166120c35760405162461bcd60e51b815260040161083f90614982565b61203c612075565b600054610100900460ff166120f25760405162461bcd60e51b815260040161083f90614982565b6120fa612075565b61210384612b04565b61075684848484612b34565b612117612bbb565b61012c805460ff191660011790557f62e78cea01bee320cd4e420270b5ea74000d11b0c9f74754ebdbfc544b05a258611ed43390565b600061150e8383612c02565b600061150e836001600160a01b038416612917565b610932338383612c2c565b612184848484611cb1565b61219084848484612cfb565b6107565760405162461bcd60e51b815260040161083f906149cd565b6060816121d05750506040805180820190915260018152600360fc1b602082015290565b8160005b81156121fa57806121e481614641565b91506121f39050600a83614a35565b91506121d4565b6000816001600160401b0381111561221457612214613c83565b6040519080825280601f01601f19166020018201604052801561223e576020820181803683370190505b5090505b8415611ca95761225360018361496b565b9150612260600a86614a49565b61226b90603061470c565b60f81b81838151811061228057612280614615565b60200101906001600160f81b031916908160001a9053506122a2600a86614a35565b9450612242565b606060006122b683612e08565b905060006122c384613078565b905060006122d085613286565b90506000836040516020016122e59190614a5d565b60405160208183030381529060405290506000838360405160200161230b929190614a95565b6040516020818303038152906040529050818160405160200161232f929190614ad0565b60405160208183030381529060405295505050505050919050565b606081516000141561236a57505060408051602081019091526000815290565b60006040518060600160405280604081526020016151186040913990506000600384516002612399919061470c565b6123a39190614a35565b6123ae906004614aff565b6001600160401b038111156123c5576123c5613c83565b6040519080825280601f01601f1916602001820160405280156123ef576020820181803683370190505b509050600182016020820185865187015b8082101561245b576003820191508151603f8160121c168501518453600184019350603f81600c1c168501518453600184019350603f8160061c168501518453600184019350603f8116850151845350600183019250612400565b5050600386510660018114612477576002811461248a57612492565b603d6001830353603d6002830353612492565b603d60018303535b509195945050505050565b60006106f7825490565b60006001600160e01b03198216635a05180f60e01b14806106f757506106f7826134a1565b6124d68282611515565b610932576124ee816001600160a01b031660146134c6565b6124f98360206134c6565b60405160200161250a929190614b1e565b60408051601f198184030181529082905262461bcd60e51b825261083f91600401613fc1565b6000818152609860205260408120546001600160a01b031615156106f7565b6000818152609a6020526040902080546001600160a01b0319166001600160a01b038416908117909155819061258482610c65565b6001600160a01b03167f8c5be1e5ebec7d5bd14f71427d1e84f3dd0314c0f7b2291e5b200ac8c7c3b92560405160405180910390a45050565b600081815260018301602052604081205480156126a65760006125e160018361496b565b85549091506000906125f59060019061496b565b905081811461265a57600086600001828154811061261557612615614615565b906000526020600020015490508087600001848154811061263857612638614615565b6000918252602080832090910192909255918252600188019052604090208390555b855486908061266b5761266b614b93565b6001900381819060005260206000200160009055905585600101600086815260200190815260200160002060009055600193505050506106f7565b60009150506106f7565b6126b8612bbb565b828282732f52abfca2074b99759b58345bb984419d3042437339af60141b91f7941eb13aeda2124a61a953b7c060328311806126fb57506001600160a01b038516155b8061270d57506001600160a01b038416155b806127295750816001600160a01b0316856001600160a01b0316145b806127455750816001600160a01b0316846001600160a01b0316145b806127615750806001600160a01b0316856001600160a01b0316145b8061277d5750806001600160a01b0316846001600160a01b0316145b6127c95760405162461bcd60e51b815260206004820152601d60248201527f5465616d2045766f20617265206e6f6e2d7472616e7366657261626c65000000604482015260640161083f565b6127d4888888613661565b5050505050505050565b6127e88282611515565b61093257600082815261015e602090815260408083206001600160a01b03851684529091529020805460ff191660011790556128213390565b6001600160a01b0316816001600160a01b0316837f2f8788117e7eff1d82e926ec794901d17c78024a50270940304540a733656f0d60405160405180910390a45050565b61286f8282611515565b1561093257600082815261015e602090815260408083206001600160a01b0385168085529252808320805460ff1916905551339285917ff6391f5c32d9c69d2a47ea670b442974b53935d1edc7fd64eb21e047a839171b9190a45050565b61012c5460ff166120445760405162461bcd60e51b815260206004820152601460248201527314185d5cd8589b194e881b9bdd081c185d5cd95960621b604482015260640161083f565b600081815260018301602052604081205461295e575081546001818101845560008481526020808220909301849055845484825282860190935260409020919091556106f7565b5060006106f7565b6060816000018054806020026020016040519081016040528092919081815260200182805480156129b657602002820191906000526020600020905b8154815260200190600101908083116129a2575b50505050509050919050565b6000818152600283016020526040812054801515806129e657506129e684846136c0565b61150e5760405162461bcd60e51b815260206004820152601e60248201527f456e756d657261626c654d61703a206e6f6e6578697374656e74206b65790000604482015260640161083f565b60008281526002840160205260408120829055611ca98484611ef1565b612a5983836136cc565b612a666000848484612cfb565b6108525760405162461bcd60e51b815260040161083f906149cd565b600054610100900460ff16612aa95760405162461bcd60e51b815260040161083f90614982565b8151612abc906096906020850190613b65565b508051610852906097906020840190613b65565b600054610100900460ff16612af75760405162461bcd60e51b815260040161083f90614982565b61012c805460ff19169055565b600054610100900460ff16612b2b5760405162461bcd60e51b815260040161083f90614982565b610abe8161380b565b600054610100900460ff16612b5b5760405162461bcd60e51b815260040161083f90614982565b61025880546001600160a01b039095166001600160a01b03199095169490941790935561025a80546102599390935561ffff909316680100000000000000000269ffffffffffffffffffff199092166001600160401b0390911617179055565b61012c5460ff16156120445760405162461bcd60e51b815260206004820152601060248201526f14185d5cd8589b194e881c185d5cd95960821b604482015260640161083f565b6000826000018281548110612c1957612c19614615565b9060005260206000200154905092915050565b816001600160a01b0316836001600160a01b03161415612c8e5760405162461bcd60e51b815260206004820152601960248201527f4552433732313a20617070726f766520746f2063616c6c657200000000000000604482015260640161083f565b6001600160a01b038381166000818152609b6020908152604080832094871680845294825291829020805460ff191686151590811790915591519182527f17307eab39ab6107e8899845ad3d59bd9653f200f220920489ca2b5937696c31910160405180910390a3505050565b60006001600160a01b0384163b15612dfd57604051630a85bd0160e11b81526001600160a01b0385169063150b7a0290612d3f903390899088908890600401614ba9565b602060405180830381600087803b158015612d5957600080fd5b505af1925050508015612d89575060408051601f3d908101601f19168201909252612d8691810190614be6565b60015b612de3573d808015612db7576040519150601f19603f3d011682016040523d82523d6000602084013e612dbc565b606091505b508051612ddb5760405162461bcd60e51b815260040161083f906149cd565b805181602001fd5b6001600160e01b031916630a85bd0160e11b149050611ca9565b506001949350505050565b600081815261029160205260408120606091907f64b0ea277fa228112a0515bbec12ee5ad8763a1bd8c09dfcbf922eaedf8fb8a3908290612e499082611fb1565b81526020019081526020016000208054612e629061465c565b80601f0160208091040260200160405190810160405280929190818152602001828054612e8e9061465c565b8015612edb5780601f10612eb057610100808354040283529160200191612edb565b820191906000526020600020905b815481529060010190602001808311612ebe57829003601f168201915b505050600086815261029160205260408120939450927fdd65ea48f42c32853e504599a5705633f5988eee4bc61d4ec3f69b9a5eece2119250839150612f22906001611fb1565b81526020019081526020016000208054612f3b9061465c565b80601f0160208091040260200160405190810160405280929190818152602001828054612f679061465c565b8015612fb45780601f10612f8957610100808354040283529160200191612fb4565b820191906000526020600020905b815481529060010190602001808311612f9757829003601f168201915b50505060008781526102916020526040812093945092612fd8925090506002611fb1565b15613001576040518060400160405280600681526020016546656d616c6560d01b81525061301f565b604051806040016040528060048152602001634d616c6560e01b8152505b6000868152610291602052604081209192509061303d906003611fb1565b905083838361304b846121ac565b60405160200161305e9493929190614c03565b604051602081830303815290604052945050505050919050565b600081815261029160205260408120606091907fda3736b6211b14d372b9ecb2464211a5db2c6794abdf366575bf09e94acae9c69082906130ba906004611fb1565b815260200190815260200160002080546130d39061465c565b80601f01602080910402602001604051908101604052809291908181526020018280546130ff9061465c565b801561314c5780601f106131215761010080835404028352916020019161314c565b820191906000526020600020905b81548152906001019060200180831161312f57829003601f168201915b505050600086815261029160205260408120939450927fda3736b6211b14d372b9ecb2464211a5db2c6794abdf366575bf09e94acae9c69250839150613193906005611fb1565b815260200190815260200160002080546131ac9061465c565b80601f01602080910402602001604051908101604052809291908181526020018280546131d89061465c565b80156132255780601f106131fa57610100808354040283529160200191613225565b820191906000526020600020905b81548152906001019060200180831161320857829003601f168201915b50505060008781526102916020526040812093945092613249925090506006611fb1565b60008681526102916020526040812091925090613267906007611fb1565b90508383613274836121ac565b60405160200161305e93929190614d63565b600081815261029160205260408120606091907f6278f01af0addd8c6e4df064e22ea61de8f79a3d04d6ca1865112dfd8f6ccf859082906132c8906008611fb1565b815260200190815260200160002080546132e19061465c565b80601f016020809104026020016040519081016040528092919081815260200182805461330d9061465c565b801561335a5780601f1061332f5761010080835404028352916020019161335a565b820191906000526020600020905b81548152906001019060200180831161333d57829003601f168201915b5050506000868152610291602052604081209394509261337e925090506009611fb1565b6000858152610291602052604081209192509061339c90600a611fb1565b600086815261029160205260408120919250906133ba90600b611fb1565b600087815261029160205260408120919250906133d890600c611fb1565b600088815261029160205260408120919250906133f690600d611fb1565b9050600086613404876121ac565b61340d876121ac565b60405160200161341f93929190614ef9565b6040516020818303038152906040529050600061343b856121ac565b613444856121ac565b61344d856121ac565b60405160200161345f93929190614ffd565b60405160208183030381529060405290508181604051602001613483929190614ad0565b60405160208183030381529060405298505050505050505050919050565b60006001600160e01b03198216637965db0b60e01b14806106f757506106f78261385c565b606060006134d5836002614aff565b6134e090600261470c565b6001600160401b038111156134f7576134f7613c83565b6040519080825280601f01601f191660200182016040528015613521576020820181803683370190505b509050600360fc1b8160008151811061353c5761353c614615565b60200101906001600160f81b031916908160001a905350600f60fb1b8160018151811061356b5761356b614615565b60200101906001600160f81b031916908160001a905350600061358f846002614aff565b61359a90600161470c565b90505b6001811115613612576f181899199a1a9b1b9c1cb0b131b232b360811b85600f16601081106135ce576135ce614615565b1a60f81b8282815181106135e4576135e4614615565b60200101906001600160f81b031916908160001a90535060049490941c9361360b81615100565b905061359d565b50831561150e5760405162461bcd60e51b815260206004820181905260248201527f537472696e67733a20686578206c656e67746820696e73756666696369656e74604482015260640161083f565b8261366e61022582611ab0565b1561368b5760405162461bcd60e51b815260040161083f90614691565b8261369861022582611ab0565b156136b55760405162461bcd60e51b815260040161083f90614691565b610d99858585613867565b600061150e8383613872565b6001600160a01b0382166137225760405162461bcd60e51b815260206004820181905260248201527f4552433732313a206d696e7420746f20746865207a65726f2061646472657373604482015260640161083f565b61372b81612530565b156137785760405162461bcd60e51b815260206004820152601c60248201527f4552433732313a20746f6b656e20616c7265616479206d696e74656400000000604482015260640161083f565b613784600083836126b0565b6001600160a01b03821660009081526099602052604081208054600192906137ad90849061470c565b909155505060008181526098602052604080822080546001600160a01b0319166001600160a01b03861690811790915590518392907fddf252ad1be2c89b69c2b068fc378daa952ba7f163c4a11628f55a4df523b3ef908290a45050565b600054610100900460ff166138325760405162461bcd60e51b815260040161083f90614982565b600080546001600160a01b03909216620100000262010000600160b01b0319909216919091179055565b60006106f78261388a565b6108528383836138af565b6000818152600183016020526040812054151561150e565b60006001600160e01b0319821663780e9d6360e01b14806106f757506106f782613967565b6001600160a01b03831661390a576139058160ca8054600083815260cb60205260408120829055600182018355919091527f42d72674974f694b5f5159593243114d38a5c39c89d6b62fee061ff523240ee10155565b61392d565b816001600160a01b0316836001600160a01b03161461392d5761392d83826139b7565b6001600160a01b0382166139445761085281613a54565b826001600160a01b0316826001600160a01b031614610852576108528282613b03565b60006001600160e01b031982166380ac58cd60e01b148061399857506001600160e01b03198216635b5e139f60e01b145b806106f757506301ffc9a760e01b6001600160e01b03198316146106f7565b600060016139c4846110c3565b6139ce919061496b565b600083815260c96020526040902054909150808214613a21576001600160a01b038416600090815260c860209081526040808320858452825280832054848452818420819055835260c990915290208190555b50600091825260c9602090815260408084208490556001600160a01b03909416835260c881528383209183525290812055565b60ca54600090613a669060019061496b565b600083815260cb602052604081205460ca8054939450909284908110613a8e57613a8e614615565b906000526020600020015490508060ca8381548110613aaf57613aaf614615565b600091825260208083209091019290925582815260cb909152604080822084905585825281205560ca805480613ae757613ae7614b93565b6001900381819060005260206000200160009055905550505050565b6000613b0e836110c3565b6001600160a01b03909316600090815260c860209081526040808320868452825280832085905593825260c99052919091209190915550565b5080546000825590600052602060002090810190610abe9190613c1f565b828054613b719061465c565b90600052602060002090601f016020900481019282613b935760008555613bd9565b82601f10613bac57805160ff1916838001178555613bd9565b82800160010185558215613bd9579182015b82811115613bd9578251825591602001919060010190613bbe565b50610b3f929150613c1f565b828054828255906000526020600020908101928215613bd95791602002820182811115613bd9578251825591602001919060010190613bbe565b5b80821115610b3f5760008155600101613c20565b6001600160e01b031981168114610abe57600080fd5b600060208284031215613c5c57600080fd5b813561150e81613c34565b80356001600160a01b0381168114613c7e57600080fd5b919050565b634e487b7160e01b600052604160045260246000fd5b60405160e081016001600160401b0381118282101715613cbb57613cbb613c83565b60405290565b60405160a081016001600160401b0381118282101715613cbb57613cbb613c83565b604051601f8201601f191681016001600160401b0381118282101715613d0b57613d0b613c83565b604052919050565b60006001600160401b03821115613d2c57613d2c613c83565b5060051b60200190565b600060c08284031215613d4857600080fd5b60405160c081018181106001600160401b0382111715613d6a57613d6a613c83565b8060405250809150823581526020830135602082015260408301356040820152606083013560608201526080830135608082015260a083013560a08201525092915050565b600060408284031215613dc157600080fd5b604051604081018181106001600160401b0382111715613de357613de3613c83565b604052823581526020928301359281019290925250919050565b6000818303610220811215613e1157600080fd5b613e19613c99565b91508235825260208301356020830152604083013560408301526060830135606083015260a0607f1982011215613e4f57600080fd5b50613e58613cc1565b608083810135825260a0840135602083015260c0840135604083015260e0840135606083015261010084013582820152820152613e99836101208401613d36565b60a0820152613eac836101e08401613daf565b60c082015292915050565b60008060408385031215613eca57600080fd5b613ed383613c67565b91506020808401356001600160401b03811115613eef57600080fd5b8401601f81018613613f0057600080fd5b8035613f13613f0e82613d13565b613ce3565b8181526102209182028301840191848201919089841115613f3357600080fd5b938501935b83851015613f5957613f4a8a86613dfd565b83529384019391850191613f38565b5080955050505050509250929050565b60005b83811015613f84578181015183820152602001613f6c565b838111156107565750506000910152565b60008151808452613fad816020860160208601613f69565b601f01601f19169290920160200192915050565b60208152600061150e6020830184613f95565b600060208284031215613fe657600080fd5b5035919050565b6000806040838503121561400057600080fd5b61400983613c67565b946020939093013593505050565b60006020828403121561402957600080fd5b61150e82613c67565b600082601f83011261404357600080fd5b81356020614053613f0e83613d13565b82815260059290921b8401810191818101908684111561407257600080fd5b8286015b8481101561408d5780358352918301918301614076565b509695505050505050565b600080604083850312156140ab57600080fd5b8235915060208301356001600160401b038111156140c857600080fd5b6140d485828601614032565b9150509250929050565b6000806000606084860312156140f357600080fd5b6140fc84613c67565b925061410a60208501613c67565b9150604084013590509250925092565b6000806040838503121561412d57600080fd5b8235915061413d60208401613c67565b90509250929050565b6020808252825182820181905260009190848201906040850190845b818110156141875783516001600160a01b031683529284019291840191600101614162565b50909695505050505050565b6000806000606084860312156141a857600080fd5b8335925060208401356001600160401b03808211156141c657600080fd5b6141d287838801614032565b935060408601359150808211156141e857600080fd5b506141f586828701614032565b9150509250925092565b600080610240838503121561421357600080fd5b61421c83613c67565b915061413d8460208501613dfd565b60006001600160401b0383111561424457614244613c83565b614257601f8401601f1916602001613ce3565b905082815283838301111561426b57600080fd5b828260208301376000602084830101529392505050565b600082601f83011261429357600080fd5b61150e8383356020850161422b565b6000602082840312156142b457600080fd5b81356001600160401b038111156142ca57600080fd5b611ca984828501614282565b6000602082840312156142e857600080fd5b81356001600160401b038111156142fe57600080fd5b611ca984828501614032565b6000602080830181845280855180835260408601915060408160051b870101925083870160005b8281101561435f57603f1988860301845261434d858351613f95565b94509285019290850190600101614331565b5092979650505050505050565b600081518084526020808501945080840160005b8381101561439c57815187529582019590820190600101614380565b509495945050505050565b60208152600061150e602083018461436c565b600080604083850312156143cd57600080fd5b50508035926020909101359150565b6000806000606084860312156143f157600080fd5b833592506020808501356001600160401b038082111561441057600080fd5b61441c88838901614032565b9450604087013591508082111561443257600080fd5b818701915087601f83011261444657600080fd5b8135614454613f0e82613d13565b81815260059190911b8301840190848101908a83111561447357600080fd5b8585015b838110156144ab5780358581111561448f5760008081fd5b61449d8d89838a0101614282565b845250918601918601614477565b508096505050505050509250925092565b600080604083850312156144cf57600080fd5b6144d883613c67565b9150602083013580151581146144ed57600080fd5b809150509250929050565b602081526000825160606020840152614514608084018261436c565b9050602084015160408401526040840151601f1984830301606085015261453b828261436c565b95945050505050565b6000806000806080858703121561455a57600080fd5b61456385613c67565b935061457160208601613c67565b92506040850135915060608501356001600160401b0381111561459357600080fd5b8501601f810187136145a457600080fd5b6145b38782356020840161422b565b91505092959194509250565b600080604083850312156145d257600080fd5b6145db83613c67565b915061413d60208401613c67565b6000806000606084860312156145fe57600080fd5b505081359360208301359350604090920135919050565b634e487b7160e01b600052603260045260246000fd5b634e487b7160e01b600052601160045260246000fd5b60006000198214156146555761465561462b565b5060010190565b600181811c9082168061467057607f821691505b6020821081141561178b57634e487b7160e01b600052602260045260246000fd5b602080825260139082015272426c61636b6c6973746564206164647265737360681b604082015260600190565b6020808252602e908201527f4552433732313a2063616c6c6572206973206e6f7420746f6b656e206f776e6560408201526d1c881b9bdc88185c1c1c9bdd995960921b606082015260800190565b6000821982111561471f5761471f61462b565b500190565b60008151614736818560208601613f69565b9290920192915050565b600080845481600182811c91508083168061475c57607f831692505b602080841082141561477c57634e487b7160e01b86526022600452602486fd5b81801561479057600181146147a1576147ce565b60ff198616895284890196506147ce565b60008b81526020902060005b868110156147c65781548b8201529085019083016147ad565b505084890196505b50505050505061453b8185614724565b68113730b6b2911d101160b91b81528451600090614803816009850160208a01613f69565b61202360f01b600991840191820152855161482581600b840160208a01613f69565b61088b60f21b600b92909101918201527f226465736372697074696f6e223a202245766f5665727365732045766f222c00600d820152691134b6b0b3b2911d101160b11b602c8201528451614881816036840160208901613f69565b650b9c1b99c88b60d21b60369290910191820152711130b734b6b0ba34b7b72fbab936111d101160711b603c8201526148ce6148c0604e830186614724565b61088b60f21b815260020190565b979650505050505050565b607b60f81b8152600083516148f5816001850160208801613f69565b83519083019061490c816001840160208801613f69565b607d60f81b60019290910191820152600201949350505050565b7f646174613a6170706c69636174696f6e2f6a736f6e3b6261736536342c00000081526000825161495e81601d850160208701613f69565b91909101601d0192915050565b60008282101561497d5761497d61462b565b500390565b6020808252602b908201527f496e697469616c697a61626c653a20636f6e7472616374206973206e6f74206960408201526a6e697469616c697a696e6760a81b606082015260800190565b60208082526032908201527f4552433732313a207472616e7366657220746f206e6f6e20455243373231526560408201527131b2b4bb32b91034b6b83632b6b2b73a32b960711b606082015260800190565b634e487b7160e01b600052601260045260246000fd5b600082614a4457614a44614a1f565b500490565b600082614a5857614a58614a1f565b500690565b6e2261747472696275746573223a205b60881b81528151600090614a8881600f850160208701613f69565b91909101600f0192915050565b60008351614aa7818460208801613f69565b835190830190614abb818360208801613f69565b605d60f81b9101908152600101949350505050565b60008351614ae2818460208801613f69565b835190830190614af6818360208801613f69565b01949350505050565b6000816000190483118215151615614b1957614b1961462b565b500290565b7f416363657373436f6e74726f6c3a206163636f756e7420000000000000000000815260008351614b56816017850160208801613f69565b7001034b99036b4b9b9b4b733903937b6329607d1b6017918401918201528351614b87816028840160208801613f69565b01602801949350505050565b634e487b7160e01b600052603160045260246000fd5b6001600160a01b0385811682528416602082015260408101839052608060608201819052600090614bdc90830184613f95565b9695505050505050565b600060208284031215614bf857600080fd5b815161150e81613c34565b7f7b2274726169745f74797065223a202253706563696573222c202276616c7565815263111d101160e11b602082015260008551614c48816024850160208a01613f69565b62089f4b60ea1b60249184019182018190527f7b2274726169745f74797065223a2022526172697479222c202276616c7565226027830152621d101160e91b604783018190528751614ca181604a860160208c01613f69565b604a9301928301919091527f7b2274726169745f74797065223a202247656e646572222c202276616c756522604d830152606d8201528451614cea816070840160208901613f69565b614d57614d49614d43614d0b60708587010162089f4b60ea1b815260030190565b7f7b2274726169745f74797065223a202247656e65726174696f6e222c202276618152650363ab2911d160d51b602082015260260190565b87614724565b611f4b60f21b815260020190565b98975050505050505050565b7f7b2274726169745f74797065223a20225072696d6172792054797065222c20228152683b30b63ab2911d101160b91b602082015260008451614dad816029850160208901613f69565b62089f4b60ea1b60299184019182018190527f7b2274726169745f74797065223a20225365636f6e646172792054797065222c602c8301526a10113b30b63ab2911d101160a91b604c8301528551614e0c816057850160208a01613f69565b60579201918201527f7b2274726169745f74797065223a2022427265656420436f756e74222c202276605a82015266030b63ab2911d160cd1b607a820152614bdc614d49614ef3614ebb82614ead614e6f8260818901600360fc1b815260010190565b7f7b2274726169745f74797065223a2022417661696c61626c652042726565647381526b0111610113b30b63ab2911d160a51b6020820152602c0190565b612d3160f01b815260020190565b7f7b2274726169745f74797065223a2022457870657269656e6365222c202276618152650363ab2911d160d51b602082015260260190565b86614724565b7f7b2274726169745f74797065223a20224e6174757265222c202276616c7565228152621d101160e91b602082015260008451614f3d816023850160208901613f69565b62089f4b60ea1b6023918401918201527f7b2274726169745f74797065223a202241747461636b222c202276616c75652260268201526101d160f51b60468201528451614f91816048840160208901613f69565b611f4b60f21b604892909101918201527f7b2274726169745f74797065223a2022446566656e7365222c202276616c7565604a820152620111d160ed1b606a8201528351614fe681606d840160208801613f69565b6148ce606d82840101611f4b60f21b815260020190565b7f7b2274726169745f74797065223a20225370656369616c222c202276616c75658152620111d160ed1b602082015260008451615041816023850160208901613f69565b611f4b60f21b60239184019182018190527f7b2274726169745f74797065223a20225370656369616c20446566656e73652260258301526a01610113b30b63ab2911d160ad1b6045830152855161509f816050850160208a01613f69565b60509201918201527f7b2274726169745f74797065223a20225370656564222c202276616c7565223a6052820152600160fd1b607282015283516150ea816073840160208801613f69565b6148ce607382840101607d60f81b815260010190565b60008161510f5761510f61462b565b50600019019056fe4142434445464748494a4b4c4d4e4f505152535455565758595a6162636465666768696a6b6c6d6e6f707172737475767778797a303132333435363738392b2f9f2df0fed2c77648de5860a4cc508cd0818c85b8b8a1ab4ceeef8d981c8956a668747470733a2f2f6769746875622e636f6d2f45766f5665727365732f7075626c69632d6173736574732f7261772f6d61696e2f6e6674732f45766f2fa49807205ce4d355092ef5a8a18f56e8913cf4a201fbe287825b095693c21775a26469706673582212205c6ee724774600ed5b7819344bc8c6dca67e2d6c0b9a91d2eabbc673be1535aa64736f6c63430008090033",
  "linkReferences": {},
  "deployedLinkReferences": {}
}