{
  "_format": "hh-sol-artifact-1",
  "contractName": "EvoUpgradeable",
  "sourceName": "contracts/ERC721/EvoUpgradeable.sol",
  "abi": [
    {
      "inputs": [],
      "stateMutability": "nonpayable",
      "type": "constructor"
    },
    {
      "inputs": [
        {
          "internalType": "address",
          "name": "have",
          "type": "address"
        },
        {
          "internalType": "address",
          "name": "want",
          "type": "address"
        }
      ],
      "name": "OnlyCoordinatorCanFulfill",
      "type": "error"
    },
    {
      "anonymous": false,
      "inputs": [
        {
          "indexed": true,
          "internalType": "address",
          "name": "owner",
          "type": "address"
        },
        {
          "indexed": true,
          "internalType": "address",
          "name": "approved",
          "type": "address"
        },
        {
          "indexed": true,
          "internalType": "uint256",
          "name": "tokenId",
          "type": "uint256"
        }
      ],
      "name": "Approval",
      "type": "event"
    },
    {
      "anonymous": false,
      "inputs": [
        {
          "indexed": true,
          "internalType": "address",
          "name": "owner",
          "type": "address"
        },
        {
          "indexed": true,
          "internalType": "address",
          "name": "operator",
          "type": "address"
        },
        {
          "indexed": false,
          "internalType": "bool",
          "name": "approved",
          "type": "bool"
        }
      ],
      "name": "ApprovalForAll",
      "type": "event"
    },
    {
      "anonymous": false,
      "inputs": [
        {
          "indexed": false,
          "internalType": "uint8",
          "name": "version",
          "type": "uint8"
        }
      ],
      "name": "Initialized",
      "type": "event"
    },
    {
      "anonymous": false,
      "inputs": [
        {
          "indexed": false,
          "internalType": "address",
          "name": "account",
          "type": "address"
        }
      ],
      "name": "Paused",
      "type": "event"
    },
    {
      "anonymous": false,
      "inputs": [
        {
          "indexed": true,
          "internalType": "bytes32",
          "name": "role",
          "type": "bytes32"
        },
        {
          "indexed": true,
          "internalType": "bytes32",
          "name": "previousAdminRole",
          "type": "bytes32"
        },
        {
          "indexed": true,
          "internalType": "bytes32",
          "name": "newAdminRole",
          "type": "bytes32"
        }
      ],
      "name": "RoleAdminChanged",
      "type": "event"
    },
    {
      "anonymous": false,
      "inputs": [
        {
          "indexed": true,
          "internalType": "bytes32",
          "name": "role",
          "type": "bytes32"
        },
        {
          "indexed": true,
          "internalType": "address",
          "name": "account",
          "type": "address"
        },
        {
          "indexed": true,
          "internalType": "address",
          "name": "sender",
          "type": "address"
        }
      ],
      "name": "RoleGranted",
      "type": "event"
    },
    {
      "anonymous": false,
      "inputs": [
        {
          "indexed": true,
          "internalType": "bytes32",
          "name": "role",
          "type": "bytes32"
        },
        {
          "indexed": true,
          "internalType": "address",
          "name": "account",
          "type": "address"
        },
        {
          "indexed": true,
          "internalType": "address",
          "name": "sender",
          "type": "address"
        }
      ],
      "name": "RoleRevoked",
      "type": "event"
    },
    {
      "anonymous": false,
      "inputs": [
        {
          "indexed": true,
          "internalType": "address",
          "name": "from",
          "type": "address"
        },
        {
          "indexed": true,
          "internalType": "address",
          "name": "to",
          "type": "address"
        },
        {
          "indexed": true,
          "internalType": "uint256",
          "name": "tokenId",
          "type": "uint256"
        }
      ],
      "name": "Transfer",
      "type": "event"
    },
    {
      "anonymous": false,
      "inputs": [
        {
          "indexed": false,
          "internalType": "address",
          "name": "account",
          "type": "address"
        }
      ],
      "name": "Unpaused",
      "type": "event"
    },
    {
      "inputs": [],
      "name": "ADMIN_ROLE",
      "outputs": [
        {
          "internalType": "bytes32",
          "name": "",
          "type": "bytes32"
        }
      ],
      "stateMutability": "view",
      "type": "function"
    },
    {
      "inputs": [],
      "name": "DEFAULT_ADMIN_ROLE",
      "outputs": [
        {
          "internalType": "bytes32",
          "name": "",
          "type": "bytes32"
        }
      ],
      "stateMutability": "view",
      "type": "function"
    },
    {
      "inputs": [],
      "name": "MINTER_ROLE",
      "outputs": [
        {
          "internalType": "bytes32",
          "name": "",
          "type": "bytes32"
        }
      ],
      "stateMutability": "view",
      "type": "function"
    },
    {
      "inputs": [
        {
          "internalType": "address",
          "name": "_address",
          "type": "address"
        }
      ],
      "name": "addBlacklist",
      "outputs": [],
      "stateMutability": "nonpayable",
      "type": "function"
    },
    {
      "inputs": [],
      "name": "animationBaseURI",
      "outputs": [
        {
          "internalType": "string",
          "name": "",
          "type": "string"
        }
      ],
      "stateMutability": "view",
      "type": "function"
    },
    {
      "inputs": [
        {
          "internalType": "address",
          "name": "to",
          "type": "address"
        },
        {
          "internalType": "uint256",
          "name": "tokenId",
          "type": "uint256"
        }
      ],
      "name": "approve",
      "outputs": [],
      "stateMutability": "nonpayable",
      "type": "function"
    },
    {
      "inputs": [
        {
          "internalType": "address",
          "name": "owner",
          "type": "address"
        }
      ],
      "name": "balanceOf",
      "outputs": [
        {
          "internalType": "uint256",
          "name": "",
          "type": "uint256"
        }
      ],
      "stateMutability": "view",
      "type": "function"
    },
    {
      "inputs": [
        {
          "internalType": "address",
          "name": "_address",
          "type": "address"
        },
        {
          "components": [
            {
              "internalType": "uint256",
              "name": "tokenId",
              "type": "uint256"
            },
            {
              "internalType": "uint256",
              "name": "species",
              "type": "uint256"
            },
            {
              "internalType": "uint256",
              "name": "generation",
              "type": "uint256"
            },
            {
              "internalType": "uint256",
              "name": "experience",
              "type": "uint256"
            },
            {
              "components": [
                {
                  "internalType": "uint256",
                  "name": "gender",
                  "type": "uint256"
                },
                {
                  "internalType": "uint256",
                  "name": "rarity",
                  "type": "uint256"
                },
                {
                  "internalType": "uint256",
                  "name": "primaryType",
                  "type": "uint256"
                },
                {
                  "internalType": "uint256",
                  "name": "secondaryType",
                  "type": "uint256"
                },
                {
                  "internalType": "uint256",
                  "name": "nature",
                  "type": "uint256"
                }
              ],
              "internalType": "struct IEvoStructsUpgradeable.Stats",
              "name": "stats",
              "type": "tuple"
            },
            {
              "components": [
                {
                  "internalType": "uint256",
                  "name": "health",
                  "type": "uint256"
                },
                {
                  "internalType": "uint256",
                  "name": "attack",
                  "type": "uint256"
                },
                {
                  "internalType": "uint256",
                  "name": "defense",
                  "type": "uint256"
                },
                {
                  "internalType": "uint256",
                  "name": "special",
                  "type": "uint256"
                },
                {
                  "internalType": "uint256",
                  "name": "resistance",
                  "type": "uint256"
                },
                {
                  "internalType": "uint256",
                  "name": "speed",
                  "type": "uint256"
                }
              ],
              "internalType": "struct IEvoStructsUpgradeable.BattleStats",
              "name": "battle",
              "type": "tuple"
            },
            {
              "components": [
                {
                  "internalType": "uint256",
                  "name": "total",
                  "type": "uint256"
                },
                {
                  "internalType": "uint256",
                  "name": "remaining",
                  "type": "uint256"
                }
              ],
              "internalType": "struct IEvoStructsUpgradeable.Summons",
              "name": "summons",
              "type": "tuple"
            }
          ],
          "internalType": "struct IEvoStructsUpgradeable.Evo[]",
          "name": "evos",
          "type": "tuple[]"
        }
      ],
      "name": "batchMint",
      "outputs": [],
      "stateMutability": "nonpayable",
      "type": "function"
    },
    {
      "inputs": [
        {
          "internalType": "uint256",
          "name": "tokenId",
          "type": "uint256"
        },
        {
          "internalType": "uint256[]",
          "name": "attributeIds",
          "type": "uint256[]"
        },
        {
          "internalType": "uint256[]",
          "name": "values",
          "type": "uint256[]"
        }
      ],
      "name": "batchSetAttribute",
      "outputs": [],
      "stateMutability": "nonpayable",
      "type": "function"
    },
    {
      "inputs": [
        {
          "internalType": "uint256[]",
          "name": "tokenIds",
          "type": "uint256[]"
        }
      ],
      "name": "batchTokenURI",
      "outputs": [
        {
          "internalType": "string[]",
          "name": "",
          "type": "string[]"
        }
      ],
      "stateMutability": "view",
      "type": "function"
    },
    {
      "inputs": [
        {
          "internalType": "uint256",
          "name": "tokenId",
          "type": "uint256"
        }
      ],
      "name": "burn",
      "outputs": [],
      "stateMutability": "nonpayable",
      "type": "function"
    },
    {
      "inputs": [],
      "name": "burnedIds",
      "outputs": [
        {
          "internalType": "uint256[]",
          "name": "",
          "type": "uint256[]"
        }
      ],
      "stateMutability": "view",
      "type": "function"
    },
    {
      "inputs": [
        {
          "internalType": "address",
          "name": "_address",
          "type": "address"
        }
      ],
      "name": "clearPendingHatch",
      "outputs": [],
      "stateMutability": "nonpayable",
      "type": "function"
    },
    {
      "inputs": [
        {
          "internalType": "uint256",
          "name": "tokenId",
          "type": "uint256"
        }
      ],
      "name": "getApproved",
      "outputs": [
        {
          "internalType": "address",
          "name": "",
          "type": "address"
        }
      ],
      "stateMutability": "view",
      "type": "function"
    },
    {
      "inputs": [
        {
          "internalType": "address",
          "name": "_address",
          "type": "address"
        }
      ],
      "name": "getPendingHatchFor",
      "outputs": [
        {
          "components": [
            {
              "internalType": "uint256[]",
              "name": "ids",
              "type": "uint256[]"
            },
            {
              "internalType": "uint256",
              "name": "requestId",
              "type": "uint256"
            },
            {
              "internalType": "uint256[]",
              "name": "words",
              "type": "uint256[]"
            }
          ],
          "internalType": "struct IEvoStructsUpgradeable.PendingHatch",
          "name": "",
          "type": "tuple"
        }
      ],
      "stateMutability": "view",
      "type": "function"
    },
    {
      "inputs": [],
      "name": "getPendingHatchWallets",
      "outputs": [
        {
          "internalType": "address[]",
          "name": "",
          "type": "address[]"
        }
      ],
      "stateMutability": "view",
      "type": "function"
    },
    {
      "inputs": [
        {
          "internalType": "bytes32",
          "name": "role",
          "type": "bytes32"
        }
      ],
      "name": "getRoleAdmin",
      "outputs": [
        {
          "internalType": "bytes32",
          "name": "",
          "type": "bytes32"
        }
      ],
      "stateMutability": "view",
      "type": "function"
    },
    {
      "inputs": [
        {
          "internalType": "bytes32",
          "name": "role",
          "type": "bytes32"
        },
        {
          "internalType": "uint256",
          "name": "index",
          "type": "uint256"
        }
      ],
      "name": "getRoleMember",
      "outputs": [
        {
          "internalType": "address",
          "name": "",
          "type": "address"
        }
      ],
      "stateMutability": "view",
      "type": "function"
    },
    {
      "inputs": [
        {
          "internalType": "bytes32",
          "name": "role",
          "type": "bytes32"
        }
      ],
      "name": "getRoleMemberCount",
      "outputs": [
        {
          "internalType": "uint256",
          "name": "",
          "type": "uint256"
        }
      ],
      "stateMutability": "view",
      "type": "function"
    },
    {
      "inputs": [
        {
          "internalType": "bytes32",
          "name": "role",
          "type": "bytes32"
        },
        {
          "internalType": "address",
          "name": "account",
          "type": "address"
        }
      ],
      "name": "grantRole",
      "outputs": [],
      "stateMutability": "nonpayable",
      "type": "function"
    },
    {
      "inputs": [
        {
          "internalType": "bytes32",
          "name": "role",
          "type": "bytes32"
        },
        {
          "internalType": "address",
          "name": "account",
          "type": "address"
        }
      ],
      "name": "hasRole",
      "outputs": [
        {
          "internalType": "bool",
          "name": "",
          "type": "bool"
        }
      ],
      "stateMutability": "view",
      "type": "function"
    },
    {
      "inputs": [],
      "name": "imageBaseURI",
      "outputs": [
        {
          "internalType": "string",
          "name": "",
          "type": "string"
        }
      ],
      "stateMutability": "view",
      "type": "function"
    },
    {
      "inputs": [],
      "name": "initialize",
      "outputs": [],
      "stateMutability": "nonpayable",
      "type": "function"
    },
    {
      "inputs": [
        {
          "internalType": "address",
          "name": "owner",
          "type": "address"
        },
        {
          "internalType": "address",
          "name": "operator",
          "type": "address"
        }
      ],
      "name": "isApprovedForAll",
      "outputs": [
        {
          "internalType": "bool",
          "name": "",
          "type": "bool"
        }
      ],
      "stateMutability": "view",
      "type": "function"
    },
    {
      "inputs": [
        {
          "internalType": "address",
          "name": "_address",
          "type": "address"
        },
        {
          "components": [
            {
              "internalType": "uint256",
              "name": "tokenId",
              "type": "uint256"
            },
            {
              "internalType": "uint256",
              "name": "species",
              "type": "uint256"
            },
            {
              "internalType": "uint256",
              "name": "generation",
              "type": "uint256"
            },
            {
              "internalType": "uint256",
              "name": "experience",
              "type": "uint256"
            },
            {
              "components": [
                {
                  "internalType": "uint256",
                  "name": "gender",
                  "type": "uint256"
                },
                {
                  "internalType": "uint256",
                  "name": "rarity",
                  "type": "uint256"
                },
                {
                  "internalType": "uint256",
                  "name": "primaryType",
                  "type": "uint256"
                },
                {
                  "internalType": "uint256",
                  "name": "secondaryType",
                  "type": "uint256"
                },
                {
                  "internalType": "uint256",
                  "name": "nature",
                  "type": "uint256"
                }
              ],
              "internalType": "struct IEvoStructsUpgradeable.Stats",
              "name": "stats",
              "type": "tuple"
            },
            {
              "components": [
                {
                  "internalType": "uint256",
                  "name": "health",
                  "type": "uint256"
                },
                {
                  "internalType": "uint256",
                  "name": "attack",
                  "type": "uint256"
                },
                {
                  "internalType": "uint256",
                  "name": "defense",
                  "type": "uint256"
                },
                {
                  "internalType": "uint256",
                  "name": "special",
                  "type": "uint256"
                },
                {
                  "internalType": "uint256",
                  "name": "resistance",
                  "type": "uint256"
                },
                {
                  "internalType": "uint256",
                  "name": "speed",
                  "type": "uint256"
                }
              ],
              "internalType": "struct IEvoStructsUpgradeable.BattleStats",
              "name": "battle",
              "type": "tuple"
            },
            {
              "components": [
                {
                  "internalType": "uint256",
                  "name": "total",
                  "type": "uint256"
                },
                {
                  "internalType": "uint256",
                  "name": "remaining",
                  "type": "uint256"
                }
              ],
              "internalType": "struct IEvoStructsUpgradeable.Summons",
              "name": "summons",
              "type": "tuple"
            }
          ],
          "internalType": "struct IEvoStructsUpgradeable.Evo",
          "name": "evo",
          "type": "tuple"
        }
      ],
      "name": "mint",
      "outputs": [],
      "stateMutability": "nonpayable",
      "type": "function"
    },
    {
      "inputs": [],
      "name": "name",
      "outputs": [
        {
          "internalType": "string",
          "name": "",
          "type": "string"
        }
      ],
      "stateMutability": "view",
      "type": "function"
    },
    {
      "inputs": [
        {
          "internalType": "uint256",
          "name": "tokenId",
          "type": "uint256"
        }
      ],
      "name": "ownerOf",
      "outputs": [
        {
          "internalType": "address",
          "name": "",
          "type": "address"
        }
      ],
      "stateMutability": "view",
      "type": "function"
    },
    {
      "inputs": [],
      "name": "pause",
      "outputs": [],
      "stateMutability": "nonpayable",
      "type": "function"
    },
    {
      "inputs": [],
      "name": "paused",
      "outputs": [
        {
          "internalType": "bool",
          "name": "",
          "type": "bool"
        }
      ],
      "stateMutability": "view",
      "type": "function"
    },
    {
      "inputs": [
        {
          "internalType": "uint256",
          "name": "requestId",
          "type": "uint256"
        },
        {
          "internalType": "uint256[]",
          "name": "randomWords",
          "type": "uint256[]"
        }
      ],
      "name": "rawFulfillRandomWords",
      "outputs": [],
      "stateMutability": "nonpayable",
      "type": "function"
    },
    {
      "inputs": [
        {
          "internalType": "address",
          "name": "_address",
          "type": "address"
        }
      ],
      "name": "removeBlacklist",
      "outputs": [],
      "stateMutability": "nonpayable",
      "type": "function"
    },
    {
      "inputs": [
        {
          "internalType": "bytes32",
          "name": "role",
          "type": "bytes32"
        },
        {
          "internalType": "address",
          "name": "account",
          "type": "address"
        }
      ],
      "name": "renounceRole",
      "outputs": [],
      "stateMutability": "nonpayable",
      "type": "function"
    },
    {
      "inputs": [
        {
          "internalType": "bytes32",
          "name": "role",
          "type": "bytes32"
        },
        {
          "internalType": "address",
          "name": "account",
          "type": "address"
        }
      ],
      "name": "revokeRole",
      "outputs": [],
      "stateMutability": "nonpayable",
      "type": "function"
    },
    {
      "inputs": [
        {
          "internalType": "address",
          "name": "from",
          "type": "address"
        },
        {
          "internalType": "address",
          "name": "to",
          "type": "address"
        },
        {
          "internalType": "uint256",
          "name": "tokenId",
          "type": "uint256"
        }
      ],
      "name": "safeTransferFrom",
      "outputs": [],
      "stateMutability": "nonpayable",
      "type": "function"
    },
    {
      "inputs": [
        {
          "internalType": "address",
          "name": "from",
          "type": "address"
        },
        {
          "internalType": "address",
          "name": "to",
          "type": "address"
        },
        {
          "internalType": "uint256",
          "name": "tokenId",
          "type": "uint256"
        },
        {
          "internalType": "bytes",
          "name": "data",
          "type": "bytes"
        }
      ],
      "name": "safeTransferFrom",
      "outputs": [],
      "stateMutability": "nonpayable",
      "type": "function"
    },
    {
      "inputs": [
        {
          "internalType": "string",
          "name": "_animationBaseURI",
          "type": "string"
        }
      ],
      "name": "setAnimationBaseURI",
      "outputs": [],
      "stateMutability": "nonpayable",
      "type": "function"
    },
    {
      "inputs": [
        {
          "internalType": "address",
          "name": "operator",
          "type": "address"
        },
        {
          "internalType": "bool",
          "name": "approved",
          "type": "bool"
        }
      ],
      "name": "setApprovalForAll",
      "outputs": [],
      "stateMutability": "nonpayable",
      "type": "function"
    },
    {
      "inputs": [
        {
          "internalType": "uint256",
          "name": "tokenId",
          "type": "uint256"
        },
        {
          "internalType": "uint256",
          "name": "attributeId",
          "type": "uint256"
        },
        {
          "internalType": "uint256",
          "name": "value",
          "type": "uint256"
        }
      ],
      "name": "setAttribute",
      "outputs": [],
      "stateMutability": "nonpayable",
      "type": "function"
    },
    {
      "inputs": [
        {
          "internalType": "uint256",
          "name": "attributeId",
          "type": "uint256"
        },
        {
          "internalType": "uint256[]",
          "name": "indexes",
          "type": "uint256[]"
        },
        {
          "internalType": "string[]",
          "name": "strings",
          "type": "string[]"
        }
      ],
      "name": "setBaseAttributeStrings",
      "outputs": [],
      "stateMutability": "nonpayable",
      "type": "function"
    },
    {
      "inputs": [
        {
          "internalType": "string",
          "name": "_imageBaseURI",
          "type": "string"
        }
      ],
      "name": "setImageBaseURI",
      "outputs": [],
      "stateMutability": "nonpayable",
      "type": "function"
    },
    {
      "inputs": [
        {
          "internalType": "bytes4",
          "name": "interfaceId",
          "type": "bytes4"
        }
      ],
      "name": "supportsInterface",
      "outputs": [
        {
          "internalType": "bool",
          "name": "",
          "type": "bool"
        }
      ],
      "stateMutability": "view",
      "type": "function"
    },
    {
      "inputs": [],
      "name": "symbol",
      "outputs": [
        {
          "internalType": "string",
          "name": "",
          "type": "string"
        }
      ],
      "stateMutability": "view",
      "type": "function"
    },
    {
      "inputs": [
        {
          "internalType": "uint256",
          "name": "index",
          "type": "uint256"
        }
      ],
      "name": "tokenByIndex",
      "outputs": [
        {
          "internalType": "uint256",
          "name": "",
          "type": "uint256"
        }
      ],
      "stateMutability": "view",
      "type": "function"
    },
    {
      "inputs": [
        {
          "internalType": "address",
          "name": "owner",
          "type": "address"
        },
        {
          "internalType": "uint256",
          "name": "index",
          "type": "uint256"
        }
      ],
      "name": "tokenOfOwnerByIndex",
      "outputs": [
        {
          "internalType": "uint256",
          "name": "",
          "type": "uint256"
        }
      ],
      "stateMutability": "view",
      "type": "function"
    },
    {
      "inputs": [
        {
          "internalType": "uint256",
          "name": "tokenId",
          "type": "uint256"
        }
      ],
      "name": "tokenURI",
      "outputs": [
        {
          "internalType": "string",
          "name": "",
          "type": "string"
        }
      ],
      "stateMutability": "view",
      "type": "function"
    },
    {
      "inputs": [
        {
          "internalType": "address",
          "name": "owner",
          "type": "address"
        }
      ],
      "name": "tokensOfOwner",
      "outputs": [
        {
          "internalType": "uint256[]",
          "name": "",
          "type": "uint256[]"
        }
      ],
      "stateMutability": "view",
      "type": "function"
    },
    {
      "inputs": [],
      "name": "totalBurned",
      "outputs": [
        {
          "internalType": "uint256",
          "name": "",
          "type": "uint256"
        }
      ],
      "stateMutability": "view",
      "type": "function"
    },
    {
      "inputs": [],
      "name": "totalSupply",
      "outputs": [
        {
          "internalType": "uint256",
          "name": "",
          "type": "uint256"
        }
      ],
      "stateMutability": "view",
      "type": "function"
    },
    {
      "inputs": [
        {
          "internalType": "address",
          "name": "from",
          "type": "address"
        },
        {
          "internalType": "address",
          "name": "to",
          "type": "address"
        },
        {
          "internalType": "uint256",
          "name": "tokenId",
          "type": "uint256"
        }
      ],
      "name": "transferFrom",
      "outputs": [],
      "stateMutability": "nonpayable",
      "type": "function"
    },
    {
      "inputs": [],
      "name": "unpause",
      "outputs": [],
      "stateMutability": "nonpayable",
      "type": "function"
    }
  ],
  "bytecode": "0x60806040523480156200001157600080fd5b506200001c62000022565b620000e4565b600054610100900460ff16156200008f5760405162461bcd60e51b815260206004820152602760248201527f496e697469616c697a61626c653a20636f6e747261637420697320696e697469604482015266616c697a696e6760c81b606482015260840160405180910390fd5b60005460ff9081161015620000e2576000805460ff191660ff9081179091556040519081527f7f26b83ff96e1f2b6a682f133852f6798a09c465da95921460cefb38474024989060200160405180910390a15b565b61510880620000f46000396000f3fe608060405234801561001057600080fd5b50600436106102d65760003560e01c806375b238fc11610182578063a22cb465116100e9578063cfa4e54f116100a2578063d89135cd1161007c578063d89135cd14610654578063e985e9c51461065c578063eb91e65114610698578063fd5eea4e146106ab57600080fd5b8063cfa4e54f14610624578063d53913931461062c578063d547741f1461064157600080fd5b8063a22cb465146105a5578063a2c6e888146105b8578063a5435ec1146105cb578063b88d4fde146105eb578063c87b56dd146105fe578063ca15c8731461061157600080fd5b80639010d07c1161013b5780639010d07c1461054957806391d148541461055c57806395d89b411461056f5780639bf66fa7146105775780639cfe42da1461058a578063a217fddf1461059d57600080fd5b806375b238fc146104e957806377645839146104fe5780637d7a6d13146105065780638129fc1c146105195780638456cb59146105215780638462151c1461052957600080fd5b806336568abe116102415780635c975abb116101fa5780636980f79b116101d45780636980f79b146104905780636cfa24cc146104a35780636d94f13a146104b657806370a08231146104d657600080fd5b80635c975abb14610469578063633f43f7146104755780636352211e1461047d57600080fd5b806336568abe146104005780633f4ba83a1461041357806342842e0e1461041b57806342966c681461042e5780634c35ec44146104415780634f6ccce71461045657600080fd5b806318160ddd1161029357806318160ddd1461037e5780631fe543e31461039057806323b872dd146103a3578063248a9ca3146103b65780632f2ff15d146103da5780632f745c59146103ed57600080fd5b806301ffc9a7146102db578063068149261461030357806306fdde0314610318578063081812fc1461032d578063095ea7b3146103585780630c9ac0921461036b575b600080fd5b6102ee6102e9366004613b48565b6106be565b60405190151581526020015b60405180910390f35b610316610311366004613db5565b6106cf565b005b61032061072e565b6040516102fa9190613ebf565b61034061033b366004613ed2565b6107c0565b6040516001600160a01b0390911681526020016102fa565b610316610366366004613eeb565b6107e7565b610316610379366004613f15565b610829565b60ca545b6040519081526020016102fa565b61031661039e366004613f96565b6108af565b6103166103b1366004613fdc565b610908565b6103826103c4366004613ed2565b600090815261015e602052604090206001015490565b6103166103e8366004614018565b61093a565b6103826103fb366004613eeb565b610960565b61031661040e366004614018565b6109f6565b610316610a70565b610316610429366004613fdc565b610a93565b61031661043c366004613ed2565b610aae565b610449610ae9565b6040516102fa9190614044565b610382610464366004613ed2565b610b15565b61012c5460ff166102ee565b610320610ba8565b61034061048b366004613ed2565b610c37565b61031661049e366004614091565b610c97565b6103166104b1366004614134565b610ed6565b6104c96104c4366004614168565b610f02565b6040516102fa919061419c565b6103826104e4366004613f15565b610fba565b6103826000805160206150b383398151915281565b610320611040565b6103166105143660046141fe565b61104e565b6103166110e6565b610316611332565b61053c610537366004613f15565b611352565b6040516102fa91906142a5565b6103406105573660046142b8565b6113f3565b6102ee61056a366004614018565b611413565b61032061143f565b6103166105853660046142da565b61144e565b610316610598366004613f15565b6114f0565b610382600081565b6103166105b33660046143ba565b611514565b6103166105c6366004614134565b611548565b6105de6105d9366004613f15565b611574565b6040516102fa91906143f6565b6103166105f9366004614442565b61168f565b61032061060c366004613ed2565b6116c1565b61038261061f366004613ed2565b611896565b61053c6118ae565b61038260008051602061505683398151915281565b61031661064f366004614018565b6118c0565b6103826118e6565b6102ee61066a3660046144bd565b6001600160a01b039182166000908152609b6020908152604080832093909416825291909152205460ff1690565b6103166106a6366004613f15565b6118f3565b6103166106b93660046144e7565b611917565b60006106c982611949565b92915050565b6000805160206150568339815191526106e781611954565b60005b8251811015610728576107168484838151811061070957610709614513565b6020026020010151610c97565b806107208161453f565b9150506106ea565b50505050565b60606096805461073d9061455a565b80601f01602080910402602001604051908101604052809291908181526020018280546107699061455a565b80156107b65780601f1061078b576101008083540402835291602001916107b6565b820191906000526020600020905b81548152906001019060200180831161079957829003601f168201915b5050505050905090565b60006107cb8261195e565b506000908152609a60205260409020546001600160a01b031690565b816107f4610225826119ae565b1561081a5760405162461bcd60e51b81526004016108119061458f565b60405180910390fd5b61082483836119d0565b505050565b60008051602061505683398151915261084181611954565b6001600160a01b038216600081815261028a602081815260408084206001810154855261028d835290842080546001600160a01b0319169055938352526108888282613a45565b60018201600090556002820160006108a09190613a45565b50610824905061028b83611ae1565b6000546201000090046001600160a01b031633146108fa5760005460405163073e64fd60e21b8152336004820152620100009091046001600160a01b03166024820152604401610811565b6109048282611af6565b5050565b610913335b82611b30565b61092f5760405162461bcd60e51b8152600401610811906145bc565b610824838383611baf565b600082815261015e602052604090206001015461095681611954565b6108248383611d56565b600061096b83610fba565b82106109cd5760405162461bcd60e51b815260206004820152602b60248201527f455243373231456e756d657261626c653a206f776e657220696e646578206f7560448201526a74206f6620626f756e647360a81b6064820152608401610811565b506001600160a01b0391909116600090815260c860209081526040808320938352929052205490565b6001600160a01b0381163314610a665760405162461bcd60e51b815260206004820152602f60248201527f416363657373436f6e74726f6c3a2063616e206f6e6c792072656e6f756e636560448201526e103937b632b9903337b91039b2b63360891b6064820152608401610811565b6109048282611d79565b6000805160206150b3833981519152610a8881611954565b610a90611d9c565b50565b6108248383836040518060200160405280600081525061168f565b610ab73361090d565b610ad35760405162461bcd60e51b8152600401610811906145bc565b610adf6101c282611def565b50610a9081611dfb565b60606000805160206150b3833981519152610b0381611954565b610b0e61028b611ea2565b91505b5090565b6000610b2060ca5490565b8210610b835760405162461bcd60e51b815260206004820152602c60248201527f455243373231456e756d657261626c653a20676c6f62616c20696e646578206f60448201526b7574206f6620626f756e647360a01b6064820152608401610811565b60ca8281548110610b9657610b96614513565b90600052602060002001549050919050565b6102948054610bb69061455a565b80601f0160208091040260200160405190810160405280929190818152602001828054610be29061455a565b8015610c2f5780601f10610c0457610100808354040283529160200191610c2f565b820191906000526020600020905b815481529060010190602001808311610c1257829003601f168201915b505050505081565b6000818152609860205260408120546001600160a01b0316806106c95760405162461bcd60e51b8152602060048201526018602482015277115490cdcc8c4e881a5b9d985b1a59081d1bdad95b88125160421b6044820152606401610811565b600080516020615056833981519152610caf81611954565b6020808301518351600090815261029190925260408220610cd1929091611eaf565b506080820151602090810151835160009081526102919092526040909120610cfb91600190611eaf565b506080820151518251600090815261029160205260409020610d1f91600290611eaf565b506040808301518351600090815261029160205291909120610d4391600390611eaf565b5060808201516040908101518351600090815261029160205291909120610d6c91600490611eaf565b506080820151606001518251600090815261029160205260409020610d9391600590611eaf565b5060c0820151518251600090815261029160205260409020610db791600690611eaf565b5060608201518251600090815261029160205260409020610dda91600790611eaf565b5060808083015101518251600090815261029160205260409020610e0091600890611eaf565b5060a0820151602090810151835160009081526102919092526040909120610e2a91600990611eaf565b5060a08201516040908101518351600090815261029160205291909120610e5391600a90611eaf565b5060a0820151606001518251600090815261029160205260409020610e7a91600b90611eaf565b5060a0820151608001518251600090815261029160205260409020610ea191600c90611eaf565b5060a08083015101518251600090815261029160205260409020610ec791600d90611eaf565b50610824838360000151611ebc565b6000805160206150b3833981519152610eee81611954565b815161082490610293906020850190613a63565b6060600082516001600160401b03811115610f1f57610f1f613b81565b604051908082528060200260200182016040528015610f5257816020015b6060815260200190600190039081610f3d5790505b50905060005b8351811015610fb357610f83848281518110610f7657610f76614513565b60200260200101516116c1565b828281518110610f9557610f95614513565b60200260200101819052508080610fab9061453f565b915050610f58565b5092915050565b60006001600160a01b0382166110245760405162461bcd60e51b815260206004820152602960248201527f4552433732313a2061646472657373207a65726f206973206e6f7420612076616044820152683634b21037bbb732b960b91b6064820152608401610811565b506001600160a01b031660009081526099602052604090205490565b6102938054610bb69061455a565b60008051602061505683398151915261106681611954565b60005b83518110156110df576110cc84828151811061108757611087614513565b60200260200101518483815181106110a1576110a1614513565b60200260200101516102916000898152602001908152602001600020611eaf9092919063ffffffff16565b50806110d78161453f565b915050611069565b5050505050565b600054610100900460ff16158080156111065750600054600160ff909116105b806111205750303b158015611120575060005460ff166001145b6111835760405162461bcd60e51b815260206004820152602e60248201527f496e697469616c697a61626c653a20636f6e747261637420697320616c72656160448201526d191e481a5b9a5d1a585b1a5e995960921b6064820152608401610811565b6000805460ff1916600117905580156111a6576000805461ff0019166101001790555b6111e66040518060400160405280600381526020016245766f60e81b8152506040518060400160405280600381526020016245766f60e81b815250611ed6565b6111ee611f07565b6111f6611f38565b6111fe611f67565b611206611f67565b61120e611f8e565b73d5d517abe5cf79b7e95ec98db0f0277788aff6347f83250c5584ffa93feb6ee082981c5ebe484c865196750b39835ad4f13780435d601d600361125484848484611fbd565b61125f600033611d56565b6112776000805160206150b383398151915233611d56565b61128f60008051602061505683398151915233611d56565b6040518060600160405280603d8152602001615076603d913980516112bd9161029391602090910190613a63565b505061028980546001600160a01b0319167375ddd2b19e6f7bed3bfe9d2d21dd226c38c0cbc4179055505081159050610a90576000805461ff0019169055604051600181527f7f26b83ff96e1f2b6a682f133852f6798a09c465da95921460cefb38474024989060200160405180910390a150565b6000805160206150b383398151915261134a81611954565b610a90612001565b6060600061135f83610fba565b90506000816001600160401b0381111561137b5761137b613b81565b6040519080825280602002602001820160405280156113a4578160200160208202803683370190505b50905060005b828110156113eb576113bc8582610960565b8282815181106113ce576113ce614513565b6020908102919091010152806113e38161453f565b9150506113aa565b509392505050565b60008281526101906020526040812061140c908361203f565b9392505050565b600091825261015e602090815260408084206001600160a01b0393909316845291905290205460ff1690565b60606097805461073d9061455a565b6000805160206150b383398151915261146681611954565b60005b83518110156110df5782818151811061148457611484614513565b6020026020010151610292600087815260200190815260200160002060008684815181106114b4576114b4614513565b6020026020010151815260200190815260200160002090805190602001906114dd929190613a63565b50806114e88161453f565b915050611469565b6000805160206150b383398151915261150881611954565b6108246102258361204b565b81611521610225826119ae565b1561153e5760405162461bcd60e51b81526004016108119061458f565b6108248383612060565b6000805160206150b383398151915261156081611954565b815161082490610294906020850190613a63565b61159860405180606001604052806060815260200160008152602001606081525090565b6000805160206150568339815191526115b081611954565b6001600160a01b038316600090815261028a60209081526040918290208251815460809381028201840190945260608101848152909391928492849184018282801561161b57602002820191906000526020600020905b815481526020019060010190808311611607575b50505050508152602001600182015481526020016002820180548060200260200160405190810160405280929190818152602001828054801561167d57602002820191906000526020600020905b815481526020019060010190808311611669575b50505050508152505091505b50919050565b6116993383611b30565b6116b55760405162461bcd60e51b8152600401610811906145bc565b6107288484848461206b565b600081815261029160205260408120606091906116de908261209e565b60008181527f64b0ea277fa228112a0515bbec12ee5ad8763a1bd8c09dfcbf922eaedf8fb8a3602052604081208054929350909161171b9061455a565b80601f01602080910402602001604051908101604052809291908181526020018280546117479061455a565b80156117945780601f1061176957610100808354040283529160200191611794565b820191906000526020600020905b81548152906001019060200180831161177757829003601f168201915b5050505050905060006102936117a9846120aa565b6040516020016117ba929190614626565b604051602081830303815290604052905060006102946117d9876120aa565b6040516020016117ea929190614626565b6040516020818303038152906040529050600083611807886120aa565b848460405160200161181c94939291906146c4565b60405160208183030381529060405290506000611838886121a7565b90506000828260405160200161184f9291906147bf565b604051602081830303815290604052905061186981612248565b604051602001611879919061480c565b604051602081830303815290604052975050505050505050919050565b6000818152610190602052604081206106c99061239b565b60606118bb6101c2611ea2565b905090565b600082815261015e60205260409020600101546118dc81611954565b6108248383611d79565b60006118bb6101c261239b565b6000805160206150b383398151915261190b81611954565b61082461022583611ae1565b60008051602061505683398151915261192f81611954565b6000848152610291602052604090206110df908484611eaf565b60006106c9826123a5565b610a9081336123ca565b6119678161242e565b610a905760405162461bcd60e51b8152602060048201526018602482015277115490cdcc8c4e881a5b9d985b1a59081d1bdad95b88125160421b6044820152606401610811565b6001600160a01b0381166000908152600183016020526040812054151561140c565b60006119db82610c37565b9050806001600160a01b0316836001600160a01b03161415611a495760405162461bcd60e51b815260206004820152602160248201527f4552433732313a20617070726f76616c20746f2063757272656e74206f776e656044820152603960f91b6064820152608401610811565b336001600160a01b0382161480611a655750611a65813361066a565b611ad75760405162461bcd60e51b815260206004820152603e60248201527f4552433732313a20617070726f76652063616c6c6572206973206e6f7420746f60448201527f6b656e206f776e6572206e6f7220617070726f76656420666f7220616c6c00006064820152608401610811565b610824838361244d565b600061140c836001600160a01b0384166124bb565b600082815261028d60209081526040808320546001600160a01b0316835261028a8252909120825161082492600290920191840190613ae3565b600080611b3c83610c37565b9050806001600160a01b0316846001600160a01b03161480611b8357506001600160a01b038082166000908152609b602090815260408083209388168352929052205460ff165b80611ba75750836001600160a01b0316611b9c846107c0565b6001600160a01b0316145b949350505050565b826001600160a01b0316611bc282610c37565b6001600160a01b031614611c265760405162461bcd60e51b815260206004820152602560248201527f4552433732313a207472616e736665722066726f6d20696e636f72726563742060448201526437bbb732b960d91b6064820152608401610811565b6001600160a01b038216611c885760405162461bcd60e51b8152602060048201526024808201527f4552433732313a207472616e7366657220746f20746865207a65726f206164646044820152637265737360e01b6064820152608401610811565b611c938383836125ae565b611c9e60008261244d565b6001600160a01b0383166000908152609960205260408120805460019290611cc7908490614851565b90915550506001600160a01b0382166000908152609960205260408120805460019290611cf5908490614868565b909155505060008181526098602052604080822080546001600160a01b0319166001600160a01b0386811691821790925591518493918716917fddf252ad1be2c89b69c2b068fc378daa952ba7f163c4a11628f55a4df523b3ef91a4505050565b611d6082826126dc565b600082815261019060205260409020610824908261204b565b611d838282612763565b6000828152610190602052604090206108249082611ae1565b611da46127cb565b61012c805460ff191690557f5db9ee0a495bf2e6ff9c91a7834c1ba4fdd244a5e8aa4e537bd38aeae4b073aa335b6040516001600160a01b03909116815260200160405180910390a1565b600061140c8383612815565b6000611e0682610c37565b9050611e14816000846125ae565b611e1f60008361244d565b6001600160a01b0381166000908152609960205260408120805460019290611e48908490614851565b909155505060008281526098602052604080822080546001600160a01b0319169055518391906001600160a01b038416907fddf252ad1be2c89b69c2b068fc378daa952ba7f163c4a11628f55a4df523b3ef908390a45050565b6060600061140c83612864565b6000611ba78484846128c0565b6109048282604051806020016040528060008152506128dd565b600054610100900460ff16611efd5760405162461bcd60e51b815260040161081190614880565b6109048282612910565b600054610100900460ff16611f2e5760405162461bcd60e51b815260040161081190614880565b611f36611f67565b565b600054610100900460ff16611f5f5760405162461bcd60e51b815260040161081190614880565b611f3661295e565b600054610100900460ff16611f365760405162461bcd60e51b815260040161081190614880565b600054610100900460ff16611fb55760405162461bcd60e51b815260040161081190614880565b611f2e611f67565b600054610100900460ff16611fe45760405162461bcd60e51b815260040161081190614880565b611fec611f67565b611ff584612992565b610728848484846129c2565b612009612a49565b61012c805460ff191660011790557f62e78cea01bee320cd4e420270b5ea74000d11b0c9f74754ebdbfc544b05a258611dd23390565b600061140c8383612a90565b600061140c836001600160a01b038416612815565b610904338383612aba565b612076848484611baf565b61208284848484612b89565b6107285760405162461bcd60e51b8152600401610811906148cb565b600061140c8383612c96565b6060816120ce5750506040805180820190915260018152600360fc1b602082015290565b8160005b81156120f857806120e28161453f565b91506120f19050600a83614933565b91506120d2565b6000816001600160401b0381111561211257612112613b81565b6040519080825280601f01601f19166020018201604052801561213c576020820181803683370190505b5090505b8415611ba757612151600183614851565b915061215e600a86614947565b612169906030614868565b60f81b81838151811061217e5761217e614513565b60200101906001600160f81b031916908160001a9053506121a0600a86614933565b9450612140565b606060006121b483612d06565b905060006121c184612f76565b905060006121ce85613184565b90506000836040516020016121e3919061495b565b604051602081830303815290604052905060008383604051602001612209929190614993565b6040516020818303038152906040529050818160405160200161222d9291906149ce565b60405160208183030381529060405295505050505050919050565b606081516000141561226857505060408051602081019091526000815290565b600060405180606001604052806040815260200161501660409139905060006003845160026122979190614868565b6122a19190614933565b6122ac9060046149fd565b6001600160401b038111156122c3576122c3613b81565b6040519080825280601f01601f1916602001820160405280156122ed576020820181803683370190505b509050600182016020820185865187015b80821015612359576003820191508151603f8160121c168501518453600184019350603f81600c1c168501518453600184019350603f8160061c168501518453600184019350603f81168501518453506001830192506122fe565b5050600386510660018114612375576002811461238857612390565b603d6001830353603d6002830353612390565b603d60018303535b509195945050505050565b60006106c9825490565b60006001600160e01b03198216635a05180f60e01b14806106c957506106c98261339f565b6123d48282611413565b610904576123ec816001600160a01b031660146133c4565b6123f78360206133c4565b604051602001612408929190614a1c565b60408051601f198184030181529082905262461bcd60e51b825261081191600401613ebf565b6000818152609860205260408120546001600160a01b031615156106c9565b6000818152609a6020526040902080546001600160a01b0319166001600160a01b038416908117909155819061248282610c37565b6001600160a01b03167f8c5be1e5ebec7d5bd14f71427d1e84f3dd0314c0f7b2291e5b200ac8c7c3b92560405160405180910390a45050565b600081815260018301602052604081205480156125a45760006124df600183614851565b85549091506000906124f390600190614851565b905081811461255857600086600001828154811061251357612513614513565b906000526020600020015490508087600001848154811061253657612536614513565b6000918252602080832090910192909255918252600188019052604090208390555b855486908061256957612569614a91565b6001900381819060005260206000200160009055905585600101600086815260200190815260200160002060009055600193505050506106c9565b60009150506106c9565b6125b6612a49565b828282732f52abfca2074b99759b58345bb984419d3042437339af60141b91f7941eb13aeda2124a61a953b7c060328311806125f957506001600160a01b038516155b8061260b57506001600160a01b038416155b806126275750816001600160a01b0316856001600160a01b0316145b806126435750816001600160a01b0316846001600160a01b0316145b8061265f5750806001600160a01b0316856001600160a01b0316145b8061267b5750806001600160a01b0316846001600160a01b0316145b6126c75760405162461bcd60e51b815260206004820152601d60248201527f5465616d2045766f20617265206e6f6e2d7472616e7366657261626c650000006044820152606401610811565b6126d288888861355f565b5050505050505050565b6126e68282611413565b61090457600082815261015e602090815260408083206001600160a01b03851684529091529020805460ff1916600117905561271f3390565b6001600160a01b0316816001600160a01b0316837f2f8788117e7eff1d82e926ec794901d17c78024a50270940304540a733656f0d60405160405180910390a45050565b61276d8282611413565b1561090457600082815261015e602090815260408083206001600160a01b0385168085529252808320805460ff1916905551339285917ff6391f5c32d9c69d2a47ea670b442974b53935d1edc7fd64eb21e047a839171b9190a45050565b61012c5460ff16611f365760405162461bcd60e51b815260206004820152601460248201527314185d5cd8589b194e881b9bdd081c185d5cd95960621b6044820152606401610811565b600081815260018301602052604081205461285c575081546001818101845560008481526020808220909301849055845484825282860190935260409020919091556106c9565b5060006106c9565b6060816000018054806020026020016040519081016040528092919081815260200182805480156128b457602002820191906000526020600020905b8154815260200190600101908083116128a0575b50505050509050919050565b60008281526002840160205260408120829055611ba78484611def565b6128e783836135be565b6128f46000848484612b89565b6108245760405162461bcd60e51b8152600401610811906148cb565b600054610100900460ff166129375760405162461bcd60e51b815260040161081190614880565b815161294a906096906020850190613a63565b508051610824906097906020840190613a63565b600054610100900460ff166129855760405162461bcd60e51b815260040161081190614880565b61012c805460ff19169055565b600054610100900460ff166129b95760405162461bcd60e51b815260040161081190614880565b610a90816136fd565b600054610100900460ff166129e95760405162461bcd60e51b815260040161081190614880565b61025880546001600160a01b039095166001600160a01b03199095169490941790935561025a80546102599390935561ffff909316680100000000000000000269ffffffffffffffffffff199092166001600160401b0390911617179055565b61012c5460ff1615611f365760405162461bcd60e51b815260206004820152601060248201526f14185d5cd8589b194e881c185d5cd95960821b6044820152606401610811565b6000826000018281548110612aa757612aa7614513565b9060005260206000200154905092915050565b816001600160a01b0316836001600160a01b03161415612b1c5760405162461bcd60e51b815260206004820152601960248201527f4552433732313a20617070726f766520746f2063616c6c6572000000000000006044820152606401610811565b6001600160a01b038381166000818152609b6020908152604080832094871680845294825291829020805460ff191686151590811790915591519182527f17307eab39ab6107e8899845ad3d59bd9653f200f220920489ca2b5937696c31910160405180910390a3505050565b60006001600160a01b0384163b15612c8b57604051630a85bd0160e11b81526001600160a01b0385169063150b7a0290612bcd903390899088908890600401614aa7565b602060405180830381600087803b158015612be757600080fd5b505af1925050508015612c17575060408051601f3d908101601f19168201909252612c1491810190614ae4565b60015b612c71573d808015612c45576040519150601f19603f3d011682016040523d82523d6000602084013e612c4a565b606091505b508051612c695760405162461bcd60e51b8152600401610811906148cb565b805181602001fd5b6001600160e01b031916630a85bd0160e11b149050611ba7565b506001949350505050565b600081815260028301602052604081205480151580612cba5750612cba848461374e565b61140c5760405162461bcd60e51b815260206004820152601e60248201527f456e756d657261626c654d61703a206e6f6e6578697374656e74206b657900006044820152606401610811565b600081815261029160205260408120606091907f64b0ea277fa228112a0515bbec12ee5ad8763a1bd8c09dfcbf922eaedf8fb8a3908290612d47908261209e565b81526020019081526020016000208054612d609061455a565b80601f0160208091040260200160405190810160405280929190818152602001828054612d8c9061455a565b8015612dd95780601f10612dae57610100808354040283529160200191612dd9565b820191906000526020600020905b815481529060010190602001808311612dbc57829003601f168201915b505050600086815261029160205260408120939450927fdd65ea48f42c32853e504599a5705633f5988eee4bc61d4ec3f69b9a5eece2119250839150612e2090600161209e565b81526020019081526020016000208054612e399061455a565b80601f0160208091040260200160405190810160405280929190818152602001828054612e659061455a565b8015612eb25780601f10612e8757610100808354040283529160200191612eb2565b820191906000526020600020905b815481529060010190602001808311612e9557829003601f168201915b50505060008781526102916020526040812093945092612ed692509050600261209e565b15612eff576040518060400160405280600681526020016546656d616c6560d01b815250612f1d565b604051806040016040528060048152602001634d616c6560e01b8152505b60008681526102916020526040812091925090612f3b90600361209e565b9050838383612f49846120aa565b604051602001612f5c9493929190614b01565b604051602081830303815290604052945050505050919050565b600081815261029160205260408120606091907fda3736b6211b14d372b9ecb2464211a5db2c6794abdf366575bf09e94acae9c6908290612fb890600461209e565b81526020019081526020016000208054612fd19061455a565b80601f0160208091040260200160405190810160405280929190818152602001828054612ffd9061455a565b801561304a5780601f1061301f5761010080835404028352916020019161304a565b820191906000526020600020905b81548152906001019060200180831161302d57829003601f168201915b505050600086815261029160205260408120939450927fda3736b6211b14d372b9ecb2464211a5db2c6794abdf366575bf09e94acae9c6925083915061309190600561209e565b815260200190815260200160002080546130aa9061455a565b80601f01602080910402602001604051908101604052809291908181526020018280546130d69061455a565b80156131235780601f106130f857610100808354040283529160200191613123565b820191906000526020600020905b81548152906001019060200180831161310657829003601f168201915b5050506000878152610291602052604081209394509261314792509050600661209e565b6000868152610291602052604081209192509061316590600761209e565b90508383613172836120aa565b604051602001612f5c93929190614c61565b600081815261029160205260408120606091907f6278f01af0addd8c6e4df064e22ea61de8f79a3d04d6ca1865112dfd8f6ccf859082906131c690600861209e565b815260200190815260200160002080546131df9061455a565b80601f016020809104026020016040519081016040528092919081815260200182805461320b9061455a565b80156132585780601f1061322d57610100808354040283529160200191613258565b820191906000526020600020905b81548152906001019060200180831161323b57829003601f168201915b5050506000868152610291602052604081209394509261327c92509050600961209e565b6000858152610291602052604081209192509061329a90600a61209e565b600086815261029160205260408120919250906132b890600b61209e565b600087815261029160205260408120919250906132d690600c61209e565b600088815261029160205260408120919250906132f490600d61209e565b9050600086613302876120aa565b61330b876120aa565b60405160200161331d93929190614df7565b60405160208183030381529060405290506000613339856120aa565b613342856120aa565b61334b856120aa565b60405160200161335d93929190614efb565b604051602081830303815290604052905081816040516020016133819291906149ce565b60405160208183030381529060405298505050505050505050919050565b60006001600160e01b03198216637965db0b60e01b14806106c957506106c98261375a565b606060006133d38360026149fd565b6133de906002614868565b6001600160401b038111156133f5576133f5613b81565b6040519080825280601f01601f19166020018201604052801561341f576020820181803683370190505b509050600360fc1b8160008151811061343a5761343a614513565b60200101906001600160f81b031916908160001a905350600f60fb1b8160018151811061346957613469614513565b60200101906001600160f81b031916908160001a905350600061348d8460026149fd565b613498906001614868565b90505b6001811115613510576f181899199a1a9b1b9c1cb0b131b232b360811b85600f16601081106134cc576134cc614513565b1a60f81b8282815181106134e2576134e2614513565b60200101906001600160f81b031916908160001a90535060049490941c9361350981614ffe565b905061349b565b50831561140c5760405162461bcd60e51b815260206004820181905260248201527f537472696e67733a20686578206c656e67746820696e73756666696369656e746044820152606401610811565b8261356c610225826119ae565b156135895760405162461bcd60e51b81526004016108119061458f565b82613596610225826119ae565b156135b35760405162461bcd60e51b81526004016108119061458f565b6110df858585613765565b6001600160a01b0382166136145760405162461bcd60e51b815260206004820181905260248201527f4552433732313a206d696e7420746f20746865207a65726f20616464726573736044820152606401610811565b61361d8161242e565b1561366a5760405162461bcd60e51b815260206004820152601c60248201527f4552433732313a20746f6b656e20616c7265616479206d696e746564000000006044820152606401610811565b613676600083836125ae565b6001600160a01b038216600090815260996020526040812080546001929061369f908490614868565b909155505060008181526098602052604080822080546001600160a01b0319166001600160a01b03861690811790915590518392907fddf252ad1be2c89b69c2b068fc378daa952ba7f163c4a11628f55a4df523b3ef908290a45050565b600054610100900460ff166137245760405162461bcd60e51b815260040161081190614880565b600080546001600160a01b03909216620100000262010000600160b01b0319909216919091179055565b600061140c8383613770565b60006106c982613788565b6108248383836137ad565b6000818152600183016020526040812054151561140c565b60006001600160e01b0319821663780e9d6360e01b14806106c957506106c982613865565b6001600160a01b038316613808576138038160ca8054600083815260cb60205260408120829055600182018355919091527f42d72674974f694b5f5159593243114d38a5c39c89d6b62fee061ff523240ee10155565b61382b565b816001600160a01b0316836001600160a01b03161461382b5761382b83826138b5565b6001600160a01b0382166138425761082481613952565b826001600160a01b0316826001600160a01b031614610824576108248282613a01565b60006001600160e01b031982166380ac58cd60e01b148061389657506001600160e01b03198216635b5e139f60e01b145b806106c957506301ffc9a760e01b6001600160e01b03198316146106c9565b600060016138c284610fba565b6138cc9190614851565b600083815260c9602052604090205490915080821461391f576001600160a01b038416600090815260c860209081526040808320858452825280832054848452818420819055835260c990915290208190555b50600091825260c9602090815260408084208490556001600160a01b03909416835260c881528383209183525290812055565b60ca5460009061396490600190614851565b600083815260cb602052604081205460ca805493945090928490811061398c5761398c614513565b906000526020600020015490508060ca83815481106139ad576139ad614513565b600091825260208083209091019290925582815260cb909152604080822084905585825281205560ca8054806139e5576139e5614a91565b6001900381819060005260206000200160009055905550505050565b6000613a0c83610fba565b6001600160a01b03909316600090815260c860209081526040808320868452825280832085905593825260c99052919091209190915550565b5080546000825590600052602060002090810190610a909190613b1d565b828054613a6f9061455a565b90600052602060002090601f016020900481019282613a915760008555613ad7565b82601f10613aaa57805160ff1916838001178555613ad7565b82800160010185558215613ad7579182015b82811115613ad7578251825591602001919060010190613abc565b50610b11929150613b1d565b828054828255906000526020600020908101928215613ad75791602002820182811115613ad7578251825591602001919060010190613abc565b5b80821115610b115760008155600101613b1e565b6001600160e01b031981168114610a9057600080fd5b600060208284031215613b5a57600080fd5b813561140c81613b32565b80356001600160a01b0381168114613b7c57600080fd5b919050565b634e487b7160e01b600052604160045260246000fd5b60405160e081016001600160401b0381118282101715613bb957613bb9613b81565b60405290565b60405160a081016001600160401b0381118282101715613bb957613bb9613b81565b604051601f8201601f191681016001600160401b0381118282101715613c0957613c09613b81565b604052919050565b60006001600160401b03821115613c2a57613c2a613b81565b5060051b60200190565b600060c08284031215613c4657600080fd5b60405160c081018181106001600160401b0382111715613c6857613c68613b81565b8060405250809150823581526020830135602082015260408301356040820152606083013560608201526080830135608082015260a083013560a08201525092915050565b600060408284031215613cbf57600080fd5b604051604081018181106001600160401b0382111715613ce157613ce1613b81565b604052823581526020928301359281019290925250919050565b6000818303610220811215613d0f57600080fd5b613d17613b97565b91508235825260208301356020830152604083013560408301526060830135606083015260a0607f1982011215613d4d57600080fd5b50613d56613bbf565b608083810135825260a0840135602083015260c0840135604083015260e0840135606083015261010084013582820152820152613d97836101208401613c34565b60a0820152613daa836101e08401613cad565b60c082015292915050565b60008060408385031215613dc857600080fd5b613dd183613b65565b91506020808401356001600160401b03811115613ded57600080fd5b8401601f81018613613dfe57600080fd5b8035613e11613e0c82613c11565b613be1565b8181526102209182028301840191848201919089841115613e3157600080fd5b938501935b83851015613e5757613e488a86613cfb565b83529384019391850191613e36565b5080955050505050509250929050565b60005b83811015613e82578181015183820152602001613e6a565b838111156107285750506000910152565b60008151808452613eab816020860160208601613e67565b601f01601f19169290920160200192915050565b60208152600061140c6020830184613e93565b600060208284031215613ee457600080fd5b5035919050565b60008060408385031215613efe57600080fd5b613f0783613b65565b946020939093013593505050565b600060208284031215613f2757600080fd5b61140c82613b65565b600082601f830112613f4157600080fd5b81356020613f51613e0c83613c11565b82815260059290921b84018101918181019086841115613f7057600080fd5b8286015b84811015613f8b5780358352918301918301613f74565b509695505050505050565b60008060408385031215613fa957600080fd5b8235915060208301356001600160401b03811115613fc657600080fd5b613fd285828601613f30565b9150509250929050565b600080600060608486031215613ff157600080fd5b613ffa84613b65565b925061400860208501613b65565b9150604084013590509250925092565b6000806040838503121561402b57600080fd5b8235915061403b60208401613b65565b90509250929050565b6020808252825182820181905260009190848201906040850190845b818110156140855783516001600160a01b031683529284019291840191600101614060565b50909695505050505050565b60008061024083850312156140a557600080fd5b6140ae83613b65565b915061403b8460208501613cfb565b60006001600160401b038311156140d6576140d6613b81565b6140e9601f8401601f1916602001613be1565b90508281528383830111156140fd57600080fd5b828260208301376000602084830101529392505050565b600082601f83011261412557600080fd5b61140c838335602085016140bd565b60006020828403121561414657600080fd5b81356001600160401b0381111561415c57600080fd5b611ba784828501614114565b60006020828403121561417a57600080fd5b81356001600160401b0381111561419057600080fd5b611ba784828501613f30565b6000602080830181845280855180835260408601915060408160051b870101925083870160005b828110156141f157603f198886030184526141df858351613e93565b945092850192908501906001016141c3565b5092979650505050505050565b60008060006060848603121561421357600080fd5b8335925060208401356001600160401b038082111561423157600080fd5b61423d87838801613f30565b9350604086013591508082111561425357600080fd5b5061426086828701613f30565b9150509250925092565b600081518084526020808501945080840160005b8381101561429a5781518752958201959082019060010161427e565b509495945050505050565b60208152600061140c602083018461426a565b600080604083850312156142cb57600080fd5b50508035926020909101359150565b6000806000606084860312156142ef57600080fd5b833592506020808501356001600160401b038082111561430e57600080fd5b61431a88838901613f30565b9450604087013591508082111561433057600080fd5b818701915087601f83011261434457600080fd5b8135614352613e0c82613c11565b81815260059190911b8301840190848101908a83111561437157600080fd5b8585015b838110156143a95780358581111561438d5760008081fd5b61439b8d89838a0101614114565b845250918601918601614375565b508096505050505050509250925092565b600080604083850312156143cd57600080fd5b6143d683613b65565b9150602083013580151581146143eb57600080fd5b809150509250929050565b602081526000825160606020840152614412608084018261426a565b9050602084015160408401526040840151601f19848303016060850152614439828261426a565b95945050505050565b6000806000806080858703121561445857600080fd5b61446185613b65565b935061446f60208601613b65565b92506040850135915060608501356001600160401b0381111561449157600080fd5b8501601f810187136144a257600080fd5b6144b1878235602084016140bd565b91505092959194509250565b600080604083850312156144d057600080fd5b6144d983613b65565b915061403b60208401613b65565b6000806000606084860312156144fc57600080fd5b505081359360208301359350604090920135919050565b634e487b7160e01b600052603260045260246000fd5b634e487b7160e01b600052601160045260246000fd5b600060001982141561455357614553614529565b5060010190565b600181811c9082168061456e57607f821691505b6020821081141561168957634e487b7160e01b600052602260045260246000fd5b602080825260139082015272426c61636b6c6973746564206164647265737360681b604082015260600190565b6020808252602e908201527f4552433732313a2063616c6c6572206973206e6f7420746f6b656e206f776e6560408201526d1c881b9bdc88185c1c1c9bdd995960921b606082015260800190565b6000815161461c818560208601613e67565b9290920192915050565b600080845481600182811c91508083168061464257607f831692505b602080841082141561466257634e487b7160e01b86526022600452602486fd5b8180156146765760018114614687576146b4565b60ff198616895284890196506146b4565b60008b81526020902060005b868110156146ac5781548b820152908501908301614693565b505084890196505b505050505050614439818561460a565b68113730b6b2911d101160b91b815284516000906146e9816009850160208a01613e67565b61202360f01b600991840191820152855161470b81600b840160208a01613e67565b61088b60f21b600b92909101918201527f226465736372697074696f6e223a202245766f5665727365732045766f222c00600d820152691134b6b0b3b2911d101160b11b602c8201528451614767816036840160208901613e67565b650b9c1b99c88b60d21b60369290910191820152711130b734b6b0ba34b7b72fbab936111d101160711b603c8201526147b46147a6604e83018661460a565b61088b60f21b815260020190565b979650505050505050565b607b60f81b8152600083516147db816001850160208801613e67565b8351908301906147f2816001840160208801613e67565b607d60f81b60019290910191820152600201949350505050565b7f646174613a6170706c69636174696f6e2f6a736f6e3b6261736536342c00000081526000825161484481601d850160208701613e67565b91909101601d0192915050565b60008282101561486357614863614529565b500390565b6000821982111561487b5761487b614529565b500190565b6020808252602b908201527f496e697469616c697a61626c653a20636f6e7472616374206973206e6f74206960408201526a6e697469616c697a696e6760a81b606082015260800190565b60208082526032908201527f4552433732313a207472616e7366657220746f206e6f6e20455243373231526560408201527131b2b4bb32b91034b6b83632b6b2b73a32b960711b606082015260800190565b634e487b7160e01b600052601260045260246000fd5b6000826149425761494261491d565b500490565b6000826149565761495661491d565b500690565b6e2261747472696275746573223a205b60881b8152815160009061498681600f850160208701613e67565b91909101600f0192915050565b600083516149a5818460208801613e67565b8351908301906149b9818360208801613e67565b605d60f81b9101908152600101949350505050565b600083516149e0818460208801613e67565b8351908301906149f4818360208801613e67565b01949350505050565b6000816000190483118215151615614a1757614a17614529565b500290565b7f416363657373436f6e74726f6c3a206163636f756e7420000000000000000000815260008351614a54816017850160208801613e67565b7001034b99036b4b9b9b4b733903937b6329607d1b6017918401918201528351614a85816028840160208801613e67565b01602801949350505050565b634e487b7160e01b600052603160045260246000fd5b6001600160a01b0385811682528416602082015260408101839052608060608201819052600090614ada90830184613e93565b9695505050505050565b600060208284031215614af657600080fd5b815161140c81613b32565b7f7b2274726169745f74797065223a202253706563696573222c202276616c7565815263111d101160e11b602082015260008551614b46816024850160208a01613e67565b62089f4b60ea1b60249184019182018190527f7b2274726169745f74797065223a2022526172697479222c202276616c7565226027830152621d101160e91b604783018190528751614b9f81604a860160208c01613e67565b604a9301928301919091527f7b2274726169745f74797065223a202247656e646572222c202276616c756522604d830152606d8201528451614be8816070840160208901613e67565b614c55614c47614c41614c0960708587010162089f4b60ea1b815260030190565b7f7b2274726169745f74797065223a202247656e65726174696f6e222c202276618152650363ab2911d160d51b602082015260260190565b8761460a565b611f4b60f21b815260020190565b98975050505050505050565b7f7b2274726169745f74797065223a20225072696d6172792054797065222c20228152683b30b63ab2911d101160b91b602082015260008451614cab816029850160208901613e67565b62089f4b60ea1b60299184019182018190527f7b2274726169745f74797065223a20225365636f6e646172792054797065222c602c8301526a10113b30b63ab2911d101160a91b604c8301528551614d0a816057850160208a01613e67565b60579201918201527f7b2274726169745f74797065223a2022427265656420436f756e74222c202276605a82015266030b63ab2911d160cd1b607a820152614ada614c47614df1614db982614dab614d6d8260818901600360fc1b815260010190565b7f7b2274726169745f74797065223a2022417661696c61626c652042726565647381526b0111610113b30b63ab2911d160a51b6020820152602c0190565b612d3160f01b815260020190565b7f7b2274726169745f74797065223a2022457870657269656e6365222c202276618152650363ab2911d160d51b602082015260260190565b8661460a565b7f7b2274726169745f74797065223a20224e6174757265222c202276616c7565228152621d101160e91b602082015260008451614e3b816023850160208901613e67565b62089f4b60ea1b6023918401918201527f7b2274726169745f74797065223a202241747461636b222c202276616c75652260268201526101d160f51b60468201528451614e8f816048840160208901613e67565b611f4b60f21b604892909101918201527f7b2274726169745f74797065223a2022446566656e7365222c202276616c7565604a820152620111d160ed1b606a8201528351614ee481606d840160208801613e67565b6147b4606d82840101611f4b60f21b815260020190565b7f7b2274726169745f74797065223a20225370656369616c222c202276616c75658152620111d160ed1b602082015260008451614f3f816023850160208901613e67565b611f4b60f21b60239184019182018190527f7b2274726169745f74797065223a20225370656369616c20446566656e73652260258301526a01610113b30b63ab2911d160ad1b60458301528551614f9d816050850160208a01613e67565b60509201918201527f7b2274726169745f74797065223a20225370656564222c202276616c7565223a6052820152600160fd1b60728201528351614fe8816073840160208801613e67565b6147b4607382840101607d60f81b815260010190565b60008161500d5761500d614529565b50600019019056fe4142434445464748494a4b4c4d4e4f505152535455565758595a6162636465666768696a6b6c6d6e6f707172737475767778797a303132333435363738392b2f9f2df0fed2c77648de5860a4cc508cd0818c85b8b8a1ab4ceeef8d981c8956a668747470733a2f2f6769746875622e636f6d2f45766f5665727365732f7075626c69632d6173736574732f7261772f6d61696e2f6e6674732f45766f2fa49807205ce4d355092ef5a8a18f56e8913cf4a201fbe287825b095693c21775a264697066735822122080ecc3e5948acb9c68da5857c59984ba4dbd920745388f6689ab54a3186653cc64736f6c63430008090033",
  "linkReferences": {},
  "deployedLinkReferences": {}
}