{
  "_format": "hh-sol-artifact-1",
  "contractName": "EvoUpgradeable",
  "sourceName": "contracts/ERC721/EvoUpgradeable.sol",
  "abi": [
    {
      "inputs": [],
      "stateMutability": "nonpayable",
      "type": "constructor"
    },
    {
      "inputs": [
        {
          "internalType": "address",
          "name": "have",
          "type": "address"
        },
        {
          "internalType": "address",
          "name": "want",
          "type": "address"
        }
      ],
      "name": "OnlyCoordinatorCanFulfill",
      "type": "error"
    },
    {
      "anonymous": false,
      "inputs": [
        {
          "indexed": true,
          "internalType": "address",
          "name": "owner",
          "type": "address"
        },
        {
          "indexed": true,
          "internalType": "address",
          "name": "approved",
          "type": "address"
        },
        {
          "indexed": true,
          "internalType": "uint256",
          "name": "tokenId",
          "type": "uint256"
        }
      ],
      "name": "Approval",
      "type": "event"
    },
    {
      "anonymous": false,
      "inputs": [
        {
          "indexed": true,
          "internalType": "address",
          "name": "owner",
          "type": "address"
        },
        {
          "indexed": true,
          "internalType": "address",
          "name": "operator",
          "type": "address"
        },
        {
          "indexed": false,
          "internalType": "bool",
          "name": "approved",
          "type": "bool"
        }
      ],
      "name": "ApprovalForAll",
      "type": "event"
    },
    {
      "anonymous": false,
      "inputs": [
        {
          "indexed": false,
          "internalType": "uint8",
          "name": "version",
          "type": "uint8"
        }
      ],
      "name": "Initialized",
      "type": "event"
    },
    {
      "anonymous": false,
      "inputs": [
        {
          "indexed": false,
          "internalType": "address",
          "name": "account",
          "type": "address"
        }
      ],
      "name": "Paused",
      "type": "event"
    },
    {
      "anonymous": false,
      "inputs": [
        {
          "indexed": true,
          "internalType": "bytes32",
          "name": "role",
          "type": "bytes32"
        },
        {
          "indexed": true,
          "internalType": "bytes32",
          "name": "previousAdminRole",
          "type": "bytes32"
        },
        {
          "indexed": true,
          "internalType": "bytes32",
          "name": "newAdminRole",
          "type": "bytes32"
        }
      ],
      "name": "RoleAdminChanged",
      "type": "event"
    },
    {
      "anonymous": false,
      "inputs": [
        {
          "indexed": true,
          "internalType": "bytes32",
          "name": "role",
          "type": "bytes32"
        },
        {
          "indexed": true,
          "internalType": "address",
          "name": "account",
          "type": "address"
        },
        {
          "indexed": true,
          "internalType": "address",
          "name": "sender",
          "type": "address"
        }
      ],
      "name": "RoleGranted",
      "type": "event"
    },
    {
      "anonymous": false,
      "inputs": [
        {
          "indexed": true,
          "internalType": "bytes32",
          "name": "role",
          "type": "bytes32"
        },
        {
          "indexed": true,
          "internalType": "address",
          "name": "account",
          "type": "address"
        },
        {
          "indexed": true,
          "internalType": "address",
          "name": "sender",
          "type": "address"
        }
      ],
      "name": "RoleRevoked",
      "type": "event"
    },
    {
      "anonymous": false,
      "inputs": [
        {
          "indexed": true,
          "internalType": "address",
          "name": "from",
          "type": "address"
        },
        {
          "indexed": true,
          "internalType": "address",
          "name": "to",
          "type": "address"
        },
        {
          "indexed": true,
          "internalType": "uint256",
          "name": "tokenId",
          "type": "uint256"
        }
      ],
      "name": "Transfer",
      "type": "event"
    },
    {
      "anonymous": false,
      "inputs": [
        {
          "indexed": false,
          "internalType": "address",
          "name": "account",
          "type": "address"
        }
      ],
      "name": "Unpaused",
      "type": "event"
    },
    {
      "inputs": [],
      "name": "ADMIN_ROLE",
      "outputs": [
        {
          "internalType": "bytes32",
          "name": "",
          "type": "bytes32"
        }
      ],
      "stateMutability": "view",
      "type": "function"
    },
    {
      "inputs": [],
      "name": "DEFAULT_ADMIN_ROLE",
      "outputs": [
        {
          "internalType": "bytes32",
          "name": "",
          "type": "bytes32"
        }
      ],
      "stateMutability": "view",
      "type": "function"
    },
    {
      "inputs": [],
      "name": "MINTER_ROLE",
      "outputs": [
        {
          "internalType": "bytes32",
          "name": "",
          "type": "bytes32"
        }
      ],
      "stateMutability": "view",
      "type": "function"
    },
    {
      "inputs": [
        {
          "internalType": "address",
          "name": "_address",
          "type": "address"
        }
      ],
      "name": "addBlacklist",
      "outputs": [],
      "stateMutability": "nonpayable",
      "type": "function"
    },
    {
      "inputs": [],
      "name": "animationBaseURI",
      "outputs": [
        {
          "internalType": "string",
          "name": "",
          "type": "string"
        }
      ],
      "stateMutability": "view",
      "type": "function"
    },
    {
      "inputs": [
        {
          "internalType": "address",
          "name": "to",
          "type": "address"
        },
        {
          "internalType": "uint256",
          "name": "tokenId",
          "type": "uint256"
        }
      ],
      "name": "approve",
      "outputs": [],
      "stateMutability": "nonpayable",
      "type": "function"
    },
    {
      "inputs": [
        {
          "internalType": "address",
          "name": "owner",
          "type": "address"
        }
      ],
      "name": "balanceOf",
      "outputs": [
        {
          "internalType": "uint256",
          "name": "",
          "type": "uint256"
        }
      ],
      "stateMutability": "view",
      "type": "function"
    },
    {
      "inputs": [
        {
          "internalType": "uint256",
          "name": "tokenId",
          "type": "uint256"
        },
        {
          "internalType": "uint256[]",
          "name": "attributeIds",
          "type": "uint256[]"
        },
        {
          "internalType": "uint256[]",
          "name": "values",
          "type": "uint256[]"
        }
      ],
      "name": "batchAddToAttribute",
      "outputs": [],
      "stateMutability": "nonpayable",
      "type": "function"
    },
    {
      "inputs": [
        {
          "internalType": "address",
          "name": "_address",
          "type": "address"
        },
        {
          "components": [
            {
              "internalType": "uint256",
              "name": "tokenId",
              "type": "uint256"
            },
            {
              "internalType": "uint256",
              "name": "species",
              "type": "uint256"
            },
            {
              "internalType": "uint256",
              "name": "generation",
              "type": "uint256"
            },
            {
              "internalType": "uint256",
              "name": "experience",
              "type": "uint256"
            },
            {
              "components": [
                {
                  "internalType": "uint256",
                  "name": "gender",
                  "type": "uint256"
                },
                {
                  "internalType": "uint256",
                  "name": "rarity",
                  "type": "uint256"
                },
                {
                  "internalType": "uint256",
                  "name": "primaryType",
                  "type": "uint256"
                },
                {
                  "internalType": "uint256",
                  "name": "secondaryType",
                  "type": "uint256"
                },
                {
                  "internalType": "uint256",
                  "name": "nature",
                  "type": "uint256"
                }
              ],
              "internalType": "struct IEvoStructsUpgradeable.Stats",
              "name": "stats",
              "type": "tuple"
            },
            {
              "components": [
                {
                  "internalType": "uint256",
                  "name": "health",
                  "type": "uint256"
                },
                {
                  "internalType": "uint256",
                  "name": "attack",
                  "type": "uint256"
                },
                {
                  "internalType": "uint256",
                  "name": "defense",
                  "type": "uint256"
                },
                {
                  "internalType": "uint256",
                  "name": "special",
                  "type": "uint256"
                },
                {
                  "internalType": "uint256",
                  "name": "resistance",
                  "type": "uint256"
                },
                {
                  "internalType": "uint256",
                  "name": "speed",
                  "type": "uint256"
                }
              ],
              "internalType": "struct IEvoStructsUpgradeable.BattleStats",
              "name": "battle",
              "type": "tuple"
            },
            {
              "components": [
                {
                  "internalType": "uint256",
                  "name": "total",
                  "type": "uint256"
                },
                {
                  "internalType": "uint256",
                  "name": "remaining",
                  "type": "uint256"
                }
              ],
              "internalType": "struct IEvoStructsUpgradeable.Summons",
              "name": "summons",
              "type": "tuple"
            }
          ],
          "internalType": "struct IEvoStructsUpgradeable.Evo[]",
          "name": "evos",
          "type": "tuple[]"
        }
      ],
      "name": "batchMint",
      "outputs": [],
      "stateMutability": "nonpayable",
      "type": "function"
    },
    {
      "inputs": [
        {
          "internalType": "uint256",
          "name": "tokenId",
          "type": "uint256"
        },
        {
          "internalType": "uint256[]",
          "name": "attributeIds",
          "type": "uint256[]"
        },
        {
          "internalType": "uint256[]",
          "name": "values",
          "type": "uint256[]"
        }
      ],
      "name": "batchSetAttribute",
      "outputs": [],
      "stateMutability": "nonpayable",
      "type": "function"
    },
    {
      "inputs": [
        {
          "internalType": "uint256[]",
          "name": "tokenIds",
          "type": "uint256[]"
        }
      ],
      "name": "batchTokenURI",
      "outputs": [
        {
          "internalType": "string[]",
          "name": "",
          "type": "string[]"
        }
      ],
      "stateMutability": "view",
      "type": "function"
    },
    {
      "inputs": [
        {
          "internalType": "uint256[]",
          "name": "tokenIds",
          "type": "uint256[]"
        }
      ],
      "name": "batchTokenUriJson",
      "outputs": [
        {
          "internalType": "string[]",
          "name": "",
          "type": "string[]"
        }
      ],
      "stateMutability": "view",
      "type": "function"
    },
    {
      "inputs": [
        {
          "internalType": "uint256",
          "name": "tokenId",
          "type": "uint256"
        }
      ],
      "name": "burn",
      "outputs": [],
      "stateMutability": "nonpayable",
      "type": "function"
    },
    {
      "inputs": [],
      "name": "burnedIds",
      "outputs": [
        {
          "internalType": "uint256[]",
          "name": "",
          "type": "uint256[]"
        }
      ],
      "stateMutability": "view",
      "type": "function"
    },
    {
      "inputs": [
        {
          "internalType": "address",
          "name": "_address",
          "type": "address"
        }
      ],
      "name": "clearPendingHatch",
      "outputs": [],
      "stateMutability": "nonpayable",
      "type": "function"
    },
    {
      "inputs": [
        {
          "internalType": "uint256",
          "name": "tokenId",
          "type": "uint256"
        }
      ],
      "name": "getApproved",
      "outputs": [
        {
          "internalType": "address",
          "name": "",
          "type": "address"
        }
      ],
      "stateMutability": "view",
      "type": "function"
    },
    {
      "inputs": [
        {
          "internalType": "address",
          "name": "_address",
          "type": "address"
        }
      ],
      "name": "getPendingHatchFor",
      "outputs": [
        {
          "components": [
            {
              "internalType": "uint256[]",
              "name": "ids",
              "type": "uint256[]"
            },
            {
              "internalType": "uint256",
              "name": "requestId",
              "type": "uint256"
            },
            {
              "internalType": "uint256[]",
              "name": "words",
              "type": "uint256[]"
            }
          ],
          "internalType": "struct IEvoStructsUpgradeable.PendingHatch",
          "name": "",
          "type": "tuple"
        }
      ],
      "stateMutability": "view",
      "type": "function"
    },
    {
      "inputs": [],
      "name": "getPendingHatchWallets",
      "outputs": [
        {
          "internalType": "address[]",
          "name": "",
          "type": "address[]"
        }
      ],
      "stateMutability": "view",
      "type": "function"
    },
    {
      "inputs": [
        {
          "internalType": "bytes32",
          "name": "role",
          "type": "bytes32"
        }
      ],
      "name": "getRoleAdmin",
      "outputs": [
        {
          "internalType": "bytes32",
          "name": "",
          "type": "bytes32"
        }
      ],
      "stateMutability": "view",
      "type": "function"
    },
    {
      "inputs": [
        {
          "internalType": "bytes32",
          "name": "role",
          "type": "bytes32"
        },
        {
          "internalType": "uint256",
          "name": "index",
          "type": "uint256"
        }
      ],
      "name": "getRoleMember",
      "outputs": [
        {
          "internalType": "address",
          "name": "",
          "type": "address"
        }
      ],
      "stateMutability": "view",
      "type": "function"
    },
    {
      "inputs": [
        {
          "internalType": "bytes32",
          "name": "role",
          "type": "bytes32"
        }
      ],
      "name": "getRoleMemberCount",
      "outputs": [
        {
          "internalType": "uint256",
          "name": "",
          "type": "uint256"
        }
      ],
      "stateMutability": "view",
      "type": "function"
    },
    {
      "inputs": [
        {
          "internalType": "bytes32",
          "name": "role",
          "type": "bytes32"
        },
        {
          "internalType": "address",
          "name": "account",
          "type": "address"
        }
      ],
      "name": "grantRole",
      "outputs": [],
      "stateMutability": "nonpayable",
      "type": "function"
    },
    {
      "inputs": [
        {
          "internalType": "bytes32",
          "name": "role",
          "type": "bytes32"
        },
        {
          "internalType": "address",
          "name": "account",
          "type": "address"
        }
      ],
      "name": "hasRole",
      "outputs": [
        {
          "internalType": "bool",
          "name": "",
          "type": "bool"
        }
      ],
      "stateMutability": "view",
      "type": "function"
    },
    {
      "inputs": [],
      "name": "imageBaseURI",
      "outputs": [
        {
          "internalType": "string",
          "name": "",
          "type": "string"
        }
      ],
      "stateMutability": "view",
      "type": "function"
    },
    {
      "inputs": [],
      "name": "initialize",
      "outputs": [],
      "stateMutability": "nonpayable",
      "type": "function"
    },
    {
      "inputs": [
        {
          "internalType": "address",
          "name": "owner",
          "type": "address"
        },
        {
          "internalType": "address",
          "name": "operator",
          "type": "address"
        }
      ],
      "name": "isApprovedForAll",
      "outputs": [
        {
          "internalType": "bool",
          "name": "",
          "type": "bool"
        }
      ],
      "stateMutability": "view",
      "type": "function"
    },
    {
      "inputs": [
        {
          "internalType": "address",
          "name": "_address",
          "type": "address"
        },
        {
          "components": [
            {
              "internalType": "uint256",
              "name": "tokenId",
              "type": "uint256"
            },
            {
              "internalType": "uint256",
              "name": "species",
              "type": "uint256"
            },
            {
              "internalType": "uint256",
              "name": "generation",
              "type": "uint256"
            },
            {
              "internalType": "uint256",
              "name": "experience",
              "type": "uint256"
            },
            {
              "components": [
                {
                  "internalType": "uint256",
                  "name": "gender",
                  "type": "uint256"
                },
                {
                  "internalType": "uint256",
                  "name": "rarity",
                  "type": "uint256"
                },
                {
                  "internalType": "uint256",
                  "name": "primaryType",
                  "type": "uint256"
                },
                {
                  "internalType": "uint256",
                  "name": "secondaryType",
                  "type": "uint256"
                },
                {
                  "internalType": "uint256",
                  "name": "nature",
                  "type": "uint256"
                }
              ],
              "internalType": "struct IEvoStructsUpgradeable.Stats",
              "name": "stats",
              "type": "tuple"
            },
            {
              "components": [
                {
                  "internalType": "uint256",
                  "name": "health",
                  "type": "uint256"
                },
                {
                  "internalType": "uint256",
                  "name": "attack",
                  "type": "uint256"
                },
                {
                  "internalType": "uint256",
                  "name": "defense",
                  "type": "uint256"
                },
                {
                  "internalType": "uint256",
                  "name": "special",
                  "type": "uint256"
                },
                {
                  "internalType": "uint256",
                  "name": "resistance",
                  "type": "uint256"
                },
                {
                  "internalType": "uint256",
                  "name": "speed",
                  "type": "uint256"
                }
              ],
              "internalType": "struct IEvoStructsUpgradeable.BattleStats",
              "name": "battle",
              "type": "tuple"
            },
            {
              "components": [
                {
                  "internalType": "uint256",
                  "name": "total",
                  "type": "uint256"
                },
                {
                  "internalType": "uint256",
                  "name": "remaining",
                  "type": "uint256"
                }
              ],
              "internalType": "struct IEvoStructsUpgradeable.Summons",
              "name": "summons",
              "type": "tuple"
            }
          ],
          "internalType": "struct IEvoStructsUpgradeable.Evo",
          "name": "evo",
          "type": "tuple"
        }
      ],
      "name": "mint",
      "outputs": [],
      "stateMutability": "nonpayable",
      "type": "function"
    },
    {
      "inputs": [],
      "name": "name",
      "outputs": [
        {
          "internalType": "string",
          "name": "",
          "type": "string"
        }
      ],
      "stateMutability": "view",
      "type": "function"
    },
    {
      "inputs": [
        {
          "internalType": "uint256",
          "name": "tokenId",
          "type": "uint256"
        }
      ],
      "name": "ownerOf",
      "outputs": [
        {
          "internalType": "address",
          "name": "",
          "type": "address"
        }
      ],
      "stateMutability": "view",
      "type": "function"
    },
    {
      "inputs": [],
      "name": "pause",
      "outputs": [],
      "stateMutability": "nonpayable",
      "type": "function"
    },
    {
      "inputs": [],
      "name": "paused",
      "outputs": [
        {
          "internalType": "bool",
          "name": "",
          "type": "bool"
        }
      ],
      "stateMutability": "view",
      "type": "function"
    },
    {
      "inputs": [
        {
          "internalType": "uint256",
          "name": "requestId",
          "type": "uint256"
        },
        {
          "internalType": "uint256[]",
          "name": "randomWords",
          "type": "uint256[]"
        }
      ],
      "name": "rawFulfillRandomWords",
      "outputs": [],
      "stateMutability": "nonpayable",
      "type": "function"
    },
    {
      "inputs": [
        {
          "internalType": "address",
          "name": "_address",
          "type": "address"
        }
      ],
      "name": "removeBlacklist",
      "outputs": [],
      "stateMutability": "nonpayable",
      "type": "function"
    },
    {
      "inputs": [
        {
          "internalType": "bytes32",
          "name": "role",
          "type": "bytes32"
        },
        {
          "internalType": "address",
          "name": "account",
          "type": "address"
        }
      ],
      "name": "renounceRole",
      "outputs": [],
      "stateMutability": "nonpayable",
      "type": "function"
    },
    {
      "inputs": [
        {
          "internalType": "bytes32",
          "name": "role",
          "type": "bytes32"
        },
        {
          "internalType": "address",
          "name": "account",
          "type": "address"
        }
      ],
      "name": "revokeRole",
      "outputs": [],
      "stateMutability": "nonpayable",
      "type": "function"
    },
    {
      "inputs": [
        {
          "internalType": "address",
          "name": "from",
          "type": "address"
        },
        {
          "internalType": "address",
          "name": "to",
          "type": "address"
        },
        {
          "internalType": "uint256",
          "name": "tokenId",
          "type": "uint256"
        }
      ],
      "name": "safeTransferFrom",
      "outputs": [],
      "stateMutability": "nonpayable",
      "type": "function"
    },
    {
      "inputs": [
        {
          "internalType": "address",
          "name": "from",
          "type": "address"
        },
        {
          "internalType": "address",
          "name": "to",
          "type": "address"
        },
        {
          "internalType": "uint256",
          "name": "tokenId",
          "type": "uint256"
        },
        {
          "internalType": "bytes",
          "name": "data",
          "type": "bytes"
        }
      ],
      "name": "safeTransferFrom",
      "outputs": [],
      "stateMutability": "nonpayable",
      "type": "function"
    },
    {
      "inputs": [
        {
          "internalType": "string",
          "name": "_animationBaseURI",
          "type": "string"
        }
      ],
      "name": "setAnimationBaseURI",
      "outputs": [],
      "stateMutability": "nonpayable",
      "type": "function"
    },
    {
      "inputs": [
        {
          "internalType": "address",
          "name": "operator",
          "type": "address"
        },
        {
          "internalType": "bool",
          "name": "approved",
          "type": "bool"
        }
      ],
      "name": "setApprovalForAll",
      "outputs": [],
      "stateMutability": "nonpayable",
      "type": "function"
    },
    {
      "inputs": [
        {
          "internalType": "uint256",
          "name": "tokenId",
          "type": "uint256"
        },
        {
          "internalType": "uint256",
          "name": "attributeId",
          "type": "uint256"
        },
        {
          "internalType": "uint256",
          "name": "value",
          "type": "uint256"
        }
      ],
      "name": "setAttribute",
      "outputs": [],
      "stateMutability": "nonpayable",
      "type": "function"
    },
    {
      "inputs": [
        {
          "internalType": "uint256",
          "name": "attributeId",
          "type": "uint256"
        },
        {
          "internalType": "uint256[]",
          "name": "indexes",
          "type": "uint256[]"
        },
        {
          "internalType": "string[]",
          "name": "strings",
          "type": "string[]"
        }
      ],
      "name": "setBaseAttributeStrings",
      "outputs": [],
      "stateMutability": "nonpayable",
      "type": "function"
    },
    {
      "inputs": [
        {
          "internalType": "string",
          "name": "_imageBaseURI",
          "type": "string"
        }
      ],
      "name": "setImageBaseURI",
      "outputs": [],
      "stateMutability": "nonpayable",
      "type": "function"
    },
    {
      "inputs": [
        {
          "internalType": "bytes4",
          "name": "interfaceId",
          "type": "bytes4"
        }
      ],
      "name": "supportsInterface",
      "outputs": [
        {
          "internalType": "bool",
          "name": "",
          "type": "bool"
        }
      ],
      "stateMutability": "view",
      "type": "function"
    },
    {
      "inputs": [],
      "name": "symbol",
      "outputs": [
        {
          "internalType": "string",
          "name": "",
          "type": "string"
        }
      ],
      "stateMutability": "view",
      "type": "function"
    },
    {
      "inputs": [
        {
          "internalType": "uint256",
          "name": "index",
          "type": "uint256"
        }
      ],
      "name": "tokenByIndex",
      "outputs": [
        {
          "internalType": "uint256",
          "name": "",
          "type": "uint256"
        }
      ],
      "stateMutability": "view",
      "type": "function"
    },
    {
      "inputs": [
        {
          "internalType": "address",
          "name": "owner",
          "type": "address"
        },
        {
          "internalType": "uint256",
          "name": "index",
          "type": "uint256"
        }
      ],
      "name": "tokenOfOwnerByIndex",
      "outputs": [
        {
          "internalType": "uint256",
          "name": "",
          "type": "uint256"
        }
      ],
      "stateMutability": "view",
      "type": "function"
    },
    {
      "inputs": [
        {
          "internalType": "uint256",
          "name": "tokenId",
          "type": "uint256"
        }
      ],
      "name": "tokenURI",
      "outputs": [
        {
          "internalType": "string",
          "name": "",
          "type": "string"
        }
      ],
      "stateMutability": "view",
      "type": "function"
    },
    {
      "inputs": [
        {
          "internalType": "address",
          "name": "owner",
          "type": "address"
        }
      ],
      "name": "tokensOfOwner",
      "outputs": [
        {
          "internalType": "uint256[]",
          "name": "",
          "type": "uint256[]"
        }
      ],
      "stateMutability": "view",
      "type": "function"
    },
    {
      "inputs": [],
      "name": "totalBurned",
      "outputs": [
        {
          "internalType": "uint256",
          "name": "",
          "type": "uint256"
        }
      ],
      "stateMutability": "view",
      "type": "function"
    },
    {
      "inputs": [],
      "name": "totalSupply",
      "outputs": [
        {
          "internalType": "uint256",
          "name": "",
          "type": "uint256"
        }
      ],
      "stateMutability": "view",
      "type": "function"
    },
    {
      "inputs": [
        {
          "internalType": "address",
          "name": "from",
          "type": "address"
        },
        {
          "internalType": "address",
          "name": "to",
          "type": "address"
        },
        {
          "internalType": "uint256",
          "name": "tokenId",
          "type": "uint256"
        }
      ],
      "name": "transferFrom",
      "outputs": [],
      "stateMutability": "nonpayable",
      "type": "function"
    },
    {
      "inputs": [],
      "name": "unpause",
      "outputs": [],
      "stateMutability": "nonpayable",
      "type": "function"
    }
  ],
  "bytecode": "0x60806040523480156200001157600080fd5b506200001c62000022565b620000e4565b600054610100900460ff16156200008f5760405162461bcd60e51b815260206004820152602760248201527f496e697469616c697a61626c653a20636f6e747261637420697320696e697469604482015266616c697a696e6760c81b606482015260840160405180910390fd5b60005460ff9081161015620000e2576000805460ff191660ff9081179091556040519081527f7f26b83ff96e1f2b6a682f133852f6798a09c465da95921460cefb38474024989060200160405180910390a15b565b61541b80620000f46000396000f3fe608060405234801561001057600080fd5b506004361061030c5760003560e01c806375b238fc1161019d578063a2c6e888116100e9578063cfa4e54f116100a2578063d89135cd1161007c578063d89135cd146106b0578063e985e9c5146106b8578063eb91e651146106f4578063fd5eea4e1461070757600080fd5b8063cfa4e54f14610680578063d539139314610688578063d547741f1461069d57600080fd5b8063a2c6e88814610601578063a5435ec114610614578063ac81d36114610634578063b88d4fde14610647578063c87b56dd1461065a578063ca15c8731461066d57600080fd5b80639010d07c116101565780639bf66fa7116101305780639bf66fa7146105c05780639cfe42da146105d3578063a217fddf146105e6578063a22cb465146105ee57600080fd5b80639010d07c1461059257806391d14854146105a557806395d89b41146105b857600080fd5b806375b238fc1461053257806377645839146105475780637d7a6d131461054f5780638129fc1c146105625780638456cb591461056a5780638462151c1461057257600080fd5b80633f4ba83a1161025c578063633f43f7116102155780636980f79b116101ef5780636980f79b146104d95780636cfa24cc146104ec5780636d94f13a146104ff57806370a082311461051f57600080fd5b8063633f43f7146104ab5780636352211e146104b357806364cb59d6146104c657600080fd5b80633f4ba83a1461044957806342842e0e1461045157806342966c68146104645780634c35ec44146104775780634f6ccce71461048c5780635c975abb1461049f57600080fd5b806318160ddd116102c9578063248a9ca3116102a3578063248a9ca3146103ec5780632f2ff15d146104105780632f745c591461042357806336568abe1461043657600080fd5b806318160ddd146103b45780631fe543e3146103c657806323b872dd146103d957600080fd5b806301ffc9a714610311578063068149261461033957806306fdde031461034e578063081812fc14610363578063095ea7b31461038e5780630c9ac092146103a1575b600080fd5b61032461031f366004613edc565b61071a565b60405190151581526020015b60405180910390f35b61034c610347366004614149565b61072b565b005b61035661078a565b6040516103309190614253565b610376610371366004614266565b61081c565b6040516001600160a01b039091168152602001610330565b61034c61039c36600461427f565b610843565b61034c6103af3660046142a9565b610885565b60ca545b604051908152602001610330565b61034c6103d436600461432a565b61090b565b61034c6103e7366004614370565b610964565b6103b86103fa366004614266565b600090815261015e602052604090206001015490565b61034c61041e3660046143ac565b610996565b6103b861043136600461427f565b6109bc565b61034c6104443660046143ac565b610a52565b61034c610acc565b61034c61045f366004614370565b610aef565b61034c610472366004614266565b610b0a565b61047f610b45565b60405161033091906143d8565b6103b861049a366004614266565b610b71565b61012c5460ff16610324565b610356610c04565b6103766104c1366004614266565b610c93565b61034c6104d4366004614425565b610cf3565b61034c6104e7366004614491565b610dce565b61034c6104fa366004614534565b61100d565b61051261050d366004614568565b611039565b604051610330919061459c565b6103b861052d3660046142a9565b6110f1565b6103b86000805160206153c683398151915281565b610356611177565b61034c61055d366004614425565b611185565b61034c611216565b61034c611462565b6105856105803660046142a9565b611482565b6040516103309190614639565b6103766105a036600461464c565b61148d565b6103246105b33660046143ac565b6114ad565b6103566114d9565b61034c6105ce36600461466e565b6114e8565b61034c6105e13660046142a9565b61158a565b6103b8600081565b61034c6105fc36600461474e565b6115ae565b61034c61060f366004614534565b6115e2565b6106276106223660046142a9565b61160e565b604051610330919061478a565b610512610642366004614568565b611729565b61034c6106553660046147d6565b6117da565b610356610668366004614266565b61180c565b6103b861067b366004614266565b6119e1565b6105856119f9565b6103b860008051602061536983398151915281565b61034c6106ab3660046143ac565b611a0b565b6103b8611a31565b6103246106c6366004614851565b6001600160a01b039182166000908152609b6020908152604080832093909416825291909152205460ff1690565b61034c6107023660046142a9565b611a3e565b61034c61071536600461487b565b611a62565b600061072582611a94565b92915050565b60008051602061536983398151915261074381611a9f565b60005b82518110156107845761077284848381518110610765576107656148a7565b6020026020010151610dce565b8061077c816148d3565b915050610746565b50505050565b606060968054610799906148ee565b80601f01602080910402602001604051908101604052809291908181526020018280546107c5906148ee565b80156108125780601f106107e757610100808354040283529160200191610812565b820191906000526020600020905b8154815290600101906020018083116107f557829003601f168201915b5050505050905090565b600061082782611aa9565b506000908152609a60205260409020546001600160a01b031690565b8161085061022582611af9565b156108765760405162461bcd60e51b815260040161086d90614923565b60405180910390fd5b6108808383611b1b565b505050565b60008051602061536983398151915261089d81611a9f565b6001600160a01b038216600081815261028a602081815260408084206001810154855261028d835290842080546001600160a01b0319169055938352526108e48282613dd9565b60018201600090556002820160006108fc9190613dd9565b50610880905061028b83611c2c565b6000546201000090046001600160a01b031633146109565760005460405163073e64fd60e21b8152336004820152620100009091046001600160a01b0316602482015260440161086d565b6109608282611c41565b5050565b61096f335b82611c7b565b61098b5760405162461bcd60e51b815260040161086d90614950565b610880838383611cfa565b600082815261015e60205260409020600101546109b281611a9f565b6108808383611ea1565b60006109c7836110f1565b8210610a295760405162461bcd60e51b815260206004820152602b60248201527f455243373231456e756d657261626c653a206f776e657220696e646578206f7560448201526a74206f6620626f756e647360a81b606482015260840161086d565b506001600160a01b0391909116600090815260c860209081526040808320938352929052205490565b6001600160a01b0381163314610ac25760405162461bcd60e51b815260206004820152602f60248201527f416363657373436f6e74726f6c3a2063616e206f6e6c792072656e6f756e636560448201526e103937b632b9903337b91039b2b63360891b606482015260840161086d565b6109608282611ec4565b6000805160206153c6833981519152610ae481611a9f565b610aec611ee7565b50565b610880838383604051806020016040528060008152506117da565b610b1333610969565b610b2f5760405162461bcd60e51b815260040161086d90614950565b610b3b6101c282611f3a565b50610aec81611f46565b60606000805160206153c6833981519152610b5f81611a9f565b610b6a61028b611fed565b91505b5090565b6000610b7c60ca5490565b8210610bdf5760405162461bcd60e51b815260206004820152602c60248201527f455243373231456e756d657261626c653a20676c6f62616c20696e646578206f60448201526b7574206f6620626f756e647360a01b606482015260840161086d565b60ca8281548110610bf257610bf26148a7565b90600052602060002001549050919050565b6102948054610c12906148ee565b80601f0160208091040260200160405190810160405280929190818152602001828054610c3e906148ee565b8015610c8b5780601f10610c6057610100808354040283529160200191610c8b565b820191906000526020600020905b815481529060010190602001808311610c6e57829003601f168201915b505050505081565b6000818152609860205260408120546001600160a01b0316806107255760405162461bcd60e51b8152602060048201526018602482015277115490cdcc8c4e881a5b9d985b1a59081d1bdad95b88125160421b604482015260640161086d565b600080516020615369833981519152610d0b81611a9f565b60005b8351811015610dc7576000610d58858381518110610d2e57610d2e6148a7565b60200260200101516102916000898152602001908152602001600020611ffa90919063ffffffff16565b9050610db2858381518110610d6f57610d6f6148a7565b6020026020010151858481518110610d8957610d896148a7565b602002602001015183610d9c919061499e565b6000898152610291602052604090209190612006565b50508080610dbf906148d3565b915050610d0e565b5050505050565b600080516020615369833981519152610de681611a9f565b6020808301518351600090815261029190925260408220610e08929091612006565b506080820151602090810151835160009081526102919092526040909120610e3291600190612006565b506080820151518251600090815261029160205260409020610e5691600290612006565b506040808301518351600090815261029160205291909120610e7a91600390612006565b5060808201516040908101518351600090815261029160205291909120610ea391600490612006565b506080820151606001518251600090815261029160205260409020610eca91600590612006565b5060c0820151518251600090815261029160205260409020610eee91600690612006565b5060608201518251600090815261029160205260409020610f1191600790612006565b5060808083015101518251600090815261029160205260409020610f3791600890612006565b5060a0820151602090810151835160009081526102919092526040909120610f6191600990612006565b5060a08201516040908101518351600090815261029160205291909120610f8a91600a90612006565b5060a0820151606001518251600090815261029160205260409020610fb191600b90612006565b5060a0820151608001518251600090815261029160205260409020610fd891600c90612006565b5060a08083015101518251600090815261029160205260409020610ffe91600d90612006565b50610880838360000151612013565b6000805160206153c683398151915261102581611a9f565b815161088090610293906020850190613df7565b6060600082516001600160401b0381111561105657611056613f15565b60405190808252806020026020018201604052801561108957816020015b60608152602001906001900390816110745790505b50905060005b83518110156110ea576110ba8482815181106110ad576110ad6148a7565b602002602001015161180c565b8282815181106110cc576110cc6148a7565b602002602001018190525080806110e2906148d3565b91505061108f565b5092915050565b60006001600160a01b03821661115b5760405162461bcd60e51b815260206004820152602960248201527f4552433732313a2061646472657373207a65726f206973206e6f7420612076616044820152683634b21037bbb732b960b91b606482015260840161086d565b506001600160a01b031660009081526099602052604090205490565b6102938054610c12906148ee565b60008051602061536983398151915261119d81611a9f565b60005b8351811015610dc7576112038482815181106111be576111be6148a7565b60200260200101518483815181106111d8576111d86148a7565b602002602001015161029160008981526020019081526020016000206120069092919063ffffffff16565b508061120e816148d3565b9150506111a0565b600054610100900460ff16158080156112365750600054600160ff909116105b806112505750303b158015611250575060005460ff166001145b6112b35760405162461bcd60e51b815260206004820152602e60248201527f496e697469616c697a61626c653a20636f6e747261637420697320616c72656160448201526d191e481a5b9a5d1a585b1a5e995960921b606482015260840161086d565b6000805460ff1916600117905580156112d6576000805461ff0019166101001790555b6113166040518060400160405280600381526020016245766f60e81b8152506040518060400160405280600381526020016245766f60e81b81525061202d565b61131e61205e565b61132661208f565b61132e6120be565b6113366120be565b61133e6120e5565b73d5d517abe5cf79b7e95ec98db0f0277788aff6347f83250c5584ffa93feb6ee082981c5ebe484c865196750b39835ad4f13780435d601d600361138484848484612114565b61138f600033611ea1565b6113a76000805160206153c683398151915233611ea1565b6113bf60008051602061536983398151915233611ea1565b6040518060600160405280603d8152602001615389603d913980516113ed9161029391602090910190613df7565b505061028980546001600160a01b0319167375ddd2b19e6f7bed3bfe9d2d21dd226c38c0cbc4179055505081159050610aec576000805461ff0019169055604051600181527f7f26b83ff96e1f2b6a682f133852f6798a09c465da95921460cefb38474024989060200160405180910390a150565b6000805160206153c683398151915261147a81611a9f565b610aec612158565b606061072582612196565b6000828152610190602052604081206114a69083612237565b9392505050565b600091825261015e602090815260408084206001600160a01b0393909316845291905290205460ff1690565b606060978054610799906148ee565b6000805160206153c683398151915261150081611a9f565b60005b8351811015610dc75782818151811061151e5761151e6148a7565b60200260200101516102926000878152602001908152602001600020600086848151811061154e5761154e6148a7565b602002602001015181526020019081526020016000209080519060200190611577929190613df7565b5080611582816148d3565b915050611503565b6000805160206153c68339815191526115a281611a9f565b61088061022583612243565b816115bb61022582611af9565b156115d85760405162461bcd60e51b815260040161086d90614923565b6108808383612258565b6000805160206153c68339815191526115fa81611a9f565b815161088090610294906020850190613df7565b61163260405180606001604052806060815260200160008152602001606081525090565b60008051602061536983398151915261164a81611a9f565b6001600160a01b038316600090815261028a6020908152604091829020825181546080938102820184019094526060810184815290939192849284918401828280156116b557602002820191906000526020600020905b8154815260200190600101908083116116a1575b50505050508152602001600182015481526020016002820180548060200260200160405190810160405280929190818152602001828054801561171757602002820191906000526020600020905b815481526020019060010190808311611703575b50505050508152505091505b50919050565b6060600082516001600160401b0381111561174657611746613f15565b60405190808252806020026020018201604052801561177957816020015b60608152602001906001900390816117645790505b50905060005b83518110156110ea576117aa84828151811061179d5761179d6148a7565b6020026020010151612263565b8282815181106117bc576117bc6148a7565b602002602001018190525080806117d2906148d3565b91505061177f565b6117e43383611c7b565b6118005760405162461bcd60e51b815260040161086d90614950565b6107848484848461240b565b600081815261029160205260408120606091906118299082611ffa565b60008181527f64b0ea277fa228112a0515bbec12ee5ad8763a1bd8c09dfcbf922eaedf8fb8a36020526040812080549293509091611866906148ee565b80601f0160208091040260200160405190810160405280929190818152602001828054611892906148ee565b80156118df5780601f106118b4576101008083540402835291602001916118df565b820191906000526020600020905b8154815290600101906020018083116118c257829003601f168201915b5050505050905060006102936118f48461243e565b6040516020016119059291906149d2565b604051602081830303815290604052905060006102946119248761243e565b6040516020016119359291906149d2565b60405160208183030381529060405290506000836119528861243e565b84846040516020016119679493929190614a70565b604051602081830303815290604052905060006119838861253b565b90506000828260405160200161199a929190614b68565b60405160208183030381529060405290506119b4816125dc565b6040516020016119c49190614bb5565b604051602081830303815290604052975050505050505050919050565b6000818152610190602052604081206107259061272f565b6060611a066101c2611fed565b905090565b600082815261015e6020526040902060010154611a2781611a9f565b6108808383611ec4565b6000611a066101c261272f565b6000805160206153c6833981519152611a5681611a9f565b61088061022583611c2c565b600080516020615369833981519152611a7a81611a9f565b600084815261029160205260409020610dc7908484612006565b600061072582612739565b610aec813361275e565b611ab2816127c2565b610aec5760405162461bcd60e51b8152602060048201526018602482015277115490cdcc8c4e881a5b9d985b1a59081d1bdad95b88125160421b604482015260640161086d565b6001600160a01b038116600090815260018301602052604081205415156114a6565b6000611b2682610c93565b9050806001600160a01b0316836001600160a01b03161415611b945760405162461bcd60e51b815260206004820152602160248201527f4552433732313a20617070726f76616c20746f2063757272656e74206f776e656044820152603960f91b606482015260840161086d565b336001600160a01b0382161480611bb05750611bb081336106c6565b611c225760405162461bcd60e51b815260206004820152603e60248201527f4552433732313a20617070726f76652063616c6c6572206973206e6f7420746f60448201527f6b656e206f776e6572206e6f7220617070726f76656420666f7220616c6c0000606482015260840161086d565b61088083836127e1565b60006114a6836001600160a01b03841661284f565b600082815261028d60209081526040808320546001600160a01b0316835261028a8252909120825161088092600290920191840190613e77565b600080611c8783610c93565b9050806001600160a01b0316846001600160a01b03161480611cce57506001600160a01b038082166000908152609b602090815260408083209388168352929052205460ff165b80611cf25750836001600160a01b0316611ce78461081c565b6001600160a01b0316145b949350505050565b826001600160a01b0316611d0d82610c93565b6001600160a01b031614611d715760405162461bcd60e51b815260206004820152602560248201527f4552433732313a207472616e736665722066726f6d20696e636f72726563742060448201526437bbb732b960d91b606482015260840161086d565b6001600160a01b038216611dd35760405162461bcd60e51b8152602060048201526024808201527f4552433732313a207472616e7366657220746f20746865207a65726f206164646044820152637265737360e01b606482015260840161086d565b611dde838383612942565b611de96000826127e1565b6001600160a01b0383166000908152609960205260408120805460019290611e12908490614bfa565b90915550506001600160a01b0382166000908152609960205260408120805460019290611e4090849061499e565b909155505060008181526098602052604080822080546001600160a01b0319166001600160a01b0386811691821790925591518493918716917fddf252ad1be2c89b69c2b068fc378daa952ba7f163c4a11628f55a4df523b3ef91a4505050565b611eab8282612a70565b6000828152610190602052604090206108809082612243565b611ece8282612af7565b6000828152610190602052604090206108809082611c2c565b611eef612b5f565b61012c805460ff191690557f5db9ee0a495bf2e6ff9c91a7834c1ba4fdd244a5e8aa4e537bd38aeae4b073aa335b6040516001600160a01b03909116815260200160405180910390a1565b60006114a68383612ba9565b6000611f5182610c93565b9050611f5f81600084612942565b611f6a6000836127e1565b6001600160a01b0381166000908152609960205260408120805460019290611f93908490614bfa565b909155505060008281526098602052604080822080546001600160a01b0319169055518391906001600160a01b038416907fddf252ad1be2c89b69c2b068fc378daa952ba7f163c4a11628f55a4df523b3ef908390a45050565b606060006114a683612bf8565b60006114a68383612c54565b6000611cf2848484612cc4565b610960828260405180602001604052806000815250612ce1565b600054610100900460ff166120545760405162461bcd60e51b815260040161086d90614c11565b6109608282612d14565b600054610100900460ff166120855760405162461bcd60e51b815260040161086d90614c11565b61208d6120be565b565b600054610100900460ff166120b65760405162461bcd60e51b815260040161086d90614c11565b61208d612d62565b600054610100900460ff1661208d5760405162461bcd60e51b815260040161086d90614c11565b600054610100900460ff1661210c5760405162461bcd60e51b815260040161086d90614c11565b6120856120be565b600054610100900460ff1661213b5760405162461bcd60e51b815260040161086d90614c11565b6121436120be565b61214c84612d96565b61078484848484612dc6565b612160612e4d565b61012c805460ff191660011790557f62e78cea01bee320cd4e420270b5ea74000d11b0c9f74754ebdbfc544b05a258611f1d3390565b606060006121a3836110f1565b90506000816001600160401b038111156121bf576121bf613f15565b6040519080825280602002602001820160405280156121e8578160200160208202803683370190505b50905060005b8281101561222f5761220085826109bc565b828281518110612212576122126148a7565b602090810291909101015280612227816148d3565b9150506121ee565b509392505050565b60006114a68383612e94565b60006114a6836001600160a01b038416612ba9565b610960338383612ebe565b600081815261029160205260408120606091906122809082611ffa565b60008181527f64b0ea277fa228112a0515bbec12ee5ad8763a1bd8c09dfcbf922eaedf8fb8a360205260408120805492935090916122bd906148ee565b80601f01602080910402602001604051908101604052809291908181526020018280546122e9906148ee565b80156123365780601f1061230b57610100808354040283529160200191612336565b820191906000526020600020905b81548152906001019060200180831161231957829003601f168201915b50505050509050600061029361234b8461243e565b60405160200161235c9291906149d2565b6040516020818303038152906040529050600061029461237b8761243e565b60405160200161238c9291906149d2565b60405160208183030381529060405290506000836123a98861243e565b84846040516020016123be9493929190614a70565b604051602081830303815290604052905060006123da8861253b565b905081816040516020016123ef929190614b68565b6040516020818303038152906040529650505050505050919050565b612416848484611cfa565b61242284848484612f8d565b6107845760405162461bcd60e51b815260040161086d90614c5c565b6060816124625750506040805180820190915260018152600360fc1b602082015290565b8160005b811561248c5780612476816148d3565b91506124859050600a83614cc4565b9150612466565b6000816001600160401b038111156124a6576124a6613f15565b6040519080825280601f01601f1916602001820160405280156124d0576020820181803683370190505b5090505b8415611cf2576124e5600183614bfa565b91506124f2600a86614cd8565b6124fd90603061499e565b60f81b818381518110612512576125126148a7565b60200101906001600160f81b031916908160001a905350612534600a86614cc4565b94506124d4565b606060006125488361309a565b905060006125558461330a565b9050600061256285613518565b90506000836040516020016125779190614cec565b60405160208183030381529060405290506000838360405160200161259d929190614d24565b604051602081830303815290604052905081816040516020016125c1929190614d5f565b60405160208183030381529060405295505050505050919050565b60608151600014156125fc57505060408051602081019091526000815290565b6000604051806060016040528060408152602001615329604091399050600060038451600261262b919061499e565b6126359190614cc4565b612640906004614d8e565b6001600160401b0381111561265757612657613f15565b6040519080825280601f01601f191660200182016040528015612681576020820181803683370190505b509050600182016020820185865187015b808210156126ed576003820191508151603f8160121c168501518453600184019350603f81600c1c168501518453600184019350603f8160061c168501518453600184019350603f8116850151845350600183019250612692565b5050600386510660018114612709576002811461271c57612724565b603d6001830353603d6002830353612724565b603d60018303535b509195945050505050565b6000610725825490565b60006001600160e01b03198216635a05180f60e01b1480610725575061072582613733565b61276882826114ad565b61096057612780816001600160a01b03166014613758565b61278b836020613758565b60405160200161279c929190614dad565b60408051601f198184030181529082905262461bcd60e51b825261086d91600401614253565b6000818152609860205260408120546001600160a01b03161515610725565b6000818152609a6020526040902080546001600160a01b0319166001600160a01b038416908117909155819061281682610c93565b6001600160a01b03167f8c5be1e5ebec7d5bd14f71427d1e84f3dd0314c0f7b2291e5b200ac8c7c3b92560405160405180910390a45050565b60008181526001830160205260408120548015612938576000612873600183614bfa565b855490915060009061288790600190614bfa565b90508181146128ec5760008660000182815481106128a7576128a76148a7565b90600052602060002001549050808760000184815481106128ca576128ca6148a7565b6000918252602080832090910192909255918252600188019052604090208390555b85548690806128fd576128fd614e22565b600190038181906000526020600020016000905590558560010160008681526020019081526020016000206000905560019350505050610725565b6000915050610725565b61294a612e4d565b828282732f52abfca2074b99759b58345bb984419d3042437339af60141b91f7941eb13aeda2124a61a953b7c0603283118061298d57506001600160a01b038516155b8061299f57506001600160a01b038416155b806129bb5750816001600160a01b0316856001600160a01b0316145b806129d75750816001600160a01b0316846001600160a01b0316145b806129f35750806001600160a01b0316856001600160a01b0316145b80612a0f5750806001600160a01b0316846001600160a01b0316145b612a5b5760405162461bcd60e51b815260206004820152601d60248201527f5465616d2045766f20617265206e6f6e2d7472616e7366657261626c65000000604482015260640161086d565b612a668888886138f3565b5050505050505050565b612a7a82826114ad565b61096057600082815261015e602090815260408083206001600160a01b03851684529091529020805460ff19166001179055612ab33390565b6001600160a01b0316816001600160a01b0316837f2f8788117e7eff1d82e926ec794901d17c78024a50270940304540a733656f0d60405160405180910390a45050565b612b0182826114ad565b1561096057600082815261015e602090815260408083206001600160a01b0385168085529252808320805460ff1916905551339285917ff6391f5c32d9c69d2a47ea670b442974b53935d1edc7fd64eb21e047a839171b9190a45050565b61012c5460ff1661208d5760405162461bcd60e51b815260206004820152601460248201527314185d5cd8589b194e881b9bdd081c185d5cd95960621b604482015260640161086d565b6000818152600183016020526040812054612bf057508154600181810184556000848152602080822090930184905584548482528286019093526040902091909155610725565b506000610725565b606081600001805480602002602001604051908101604052809291908181526020018280548015612c4857602002820191906000526020600020905b815481526020019060010190808311612c34575b50505050509050919050565b600081815260028301602052604081205480151580612c785750612c788484613952565b6114a65760405162461bcd60e51b815260206004820152601e60248201527f456e756d657261626c654d61703a206e6f6e6578697374656e74206b65790000604482015260640161086d565b60008281526002840160205260408120829055611cf28484611f3a565b612ceb838361395e565b612cf86000848484612f8d565b6108805760405162461bcd60e51b815260040161086d90614c5c565b600054610100900460ff16612d3b5760405162461bcd60e51b815260040161086d90614c11565b8151612d4e906096906020850190613df7565b508051610880906097906020840190613df7565b600054610100900460ff16612d895760405162461bcd60e51b815260040161086d90614c11565b61012c805460ff19169055565b600054610100900460ff16612dbd5760405162461bcd60e51b815260040161086d90614c11565b610aec81613a9d565b600054610100900460ff16612ded5760405162461bcd60e51b815260040161086d90614c11565b61025880546001600160a01b039095166001600160a01b03199095169490941790935561025a80546102599390935561ffff909316680100000000000000000269ffffffffffffffffffff199092166001600160401b0390911617179055565b61012c5460ff161561208d5760405162461bcd60e51b815260206004820152601060248201526f14185d5cd8589b194e881c185d5cd95960821b604482015260640161086d565b6000826000018281548110612eab57612eab6148a7565b9060005260206000200154905092915050565b816001600160a01b0316836001600160a01b03161415612f205760405162461bcd60e51b815260206004820152601960248201527f4552433732313a20617070726f766520746f2063616c6c657200000000000000604482015260640161086d565b6001600160a01b038381166000818152609b6020908152604080832094871680845294825291829020805460ff191686151590811790915591519182527f17307eab39ab6107e8899845ad3d59bd9653f200f220920489ca2b5937696c31910160405180910390a3505050565b60006001600160a01b0384163b1561308f57604051630a85bd0160e11b81526001600160a01b0385169063150b7a0290612fd1903390899088908890600401614e38565b602060405180830381600087803b158015612feb57600080fd5b505af192505050801561301b575060408051601f3d908101601f1916820190925261301891810190614e75565b60015b613075573d808015613049576040519150601f19603f3d011682016040523d82523d6000602084013e61304e565b606091505b50805161306d5760405162461bcd60e51b815260040161086d90614c5c565b805181602001fd5b6001600160e01b031916630a85bd0160e11b149050611cf2565b506001949350505050565b600081815261029160205260408120606091907f64b0ea277fa228112a0515bbec12ee5ad8763a1bd8c09dfcbf922eaedf8fb8a39082906130db9082611ffa565b815260200190815260200160002080546130f4906148ee565b80601f0160208091040260200160405190810160405280929190818152602001828054613120906148ee565b801561316d5780601f106131425761010080835404028352916020019161316d565b820191906000526020600020905b81548152906001019060200180831161315057829003601f168201915b505050600086815261029160205260408120939450927fdd65ea48f42c32853e504599a5705633f5988eee4bc61d4ec3f69b9a5eece21192508391506131b4906001611ffa565b815260200190815260200160002080546131cd906148ee565b80601f01602080910402602001604051908101604052809291908181526020018280546131f9906148ee565b80156132465780601f1061321b57610100808354040283529160200191613246565b820191906000526020600020905b81548152906001019060200180831161322957829003601f168201915b5050506000878152610291602052604081209394509261326a925090506002611ffa565b15613293576040518060400160405280600681526020016546656d616c6560d01b8152506132b1565b604051806040016040528060048152602001634d616c6560e01b8152505b600086815261029160205260408120919250906132cf906003611ffa565b90508383836132dd8461243e565b6040516020016132f09493929190614e92565b604051602081830303815290604052945050505050919050565b600081815261029160205260408120606091907fda3736b6211b14d372b9ecb2464211a5db2c6794abdf366575bf09e94acae9c690829061334c906004611ffa565b81526020019081526020016000208054613365906148ee565b80601f0160208091040260200160405190810160405280929190818152602001828054613391906148ee565b80156133de5780601f106133b3576101008083540402835291602001916133de565b820191906000526020600020905b8154815290600101906020018083116133c157829003601f168201915b505050600086815261029160205260408120939450927fda3736b6211b14d372b9ecb2464211a5db2c6794abdf366575bf09e94acae9c69250839150613425906005611ffa565b8152602001908152602001600020805461343e906148ee565b80601f016020809104026020016040519081016040528092919081815260200182805461346a906148ee565b80156134b75780601f1061348c576101008083540402835291602001916134b7565b820191906000526020600020905b81548152906001019060200180831161349a57829003601f168201915b505050600087815261029160205260408120939450926134db925090506006611ffa565b600086815261029160205260408120919250906134f9906007611ffa565b905083836135068361243e565b6040516020016132f093929190614fba565b600081815261029160205260408120606091907f6278f01af0addd8c6e4df064e22ea61de8f79a3d04d6ca1865112dfd8f6ccf8590829061355a906008611ffa565b81526020019081526020016000208054613573906148ee565b80601f016020809104026020016040519081016040528092919081815260200182805461359f906148ee565b80156135ec5780601f106135c1576101008083540402835291602001916135ec565b820191906000526020600020905b8154815290600101906020018083116135cf57829003601f168201915b50505060008681526102916020526040812093945092613610925090506009611ffa565b6000858152610291602052604081209192509061362e90600a611ffa565b6000868152610291602052604081209192509061364c90600b611ffa565b6000878152610291602052604081209192509061366a90600c611ffa565b6000888152610291602052604081209192509061368890600d611ffa565b90506000866136968761243e565b61369f8761243e565b6040516020016136b193929190615141565b604051602081830303815290604052905060006136cd8561243e565b6136d68561243e565b6136df8561243e565b6040516020016136f193929190615222565b60405160208183030381529060405290508181604051602001613715929190614d5f565b60405160208183030381529060405298505050505050505050919050565b60006001600160e01b03198216637965db0b60e01b1480610725575061072582613aee565b60606000613767836002614d8e565b61377290600261499e565b6001600160401b0381111561378957613789613f15565b6040519080825280601f01601f1916602001820160405280156137b3576020820181803683370190505b509050600360fc1b816000815181106137ce576137ce6148a7565b60200101906001600160f81b031916908160001a905350600f60fb1b816001815181106137fd576137fd6148a7565b60200101906001600160f81b031916908160001a9053506000613821846002614d8e565b61382c90600161499e565b90505b60018111156138a4576f181899199a1a9b1b9c1cb0b131b232b360811b85600f1660108110613860576138606148a7565b1a60f81b828281518110613876576138766148a7565b60200101906001600160f81b031916908160001a90535060049490941c9361389d81615311565b905061382f565b5083156114a65760405162461bcd60e51b815260206004820181905260248201527f537472696e67733a20686578206c656e67746820696e73756666696369656e74604482015260640161086d565b8261390061022582611af9565b1561391d5760405162461bcd60e51b815260040161086d90614923565b8261392a61022582611af9565b156139475760405162461bcd60e51b815260040161086d90614923565b610dc7858585613af9565b60006114a68383613b04565b6001600160a01b0382166139b45760405162461bcd60e51b815260206004820181905260248201527f4552433732313a206d696e7420746f20746865207a65726f2061646472657373604482015260640161086d565b6139bd816127c2565b15613a0a5760405162461bcd60e51b815260206004820152601c60248201527f4552433732313a20746f6b656e20616c7265616479206d696e74656400000000604482015260640161086d565b613a1660008383612942565b6001600160a01b0382166000908152609960205260408120805460019290613a3f90849061499e565b909155505060008181526098602052604080822080546001600160a01b0319166001600160a01b03861690811790915590518392907fddf252ad1be2c89b69c2b068fc378daa952ba7f163c4a11628f55a4df523b3ef908290a45050565b600054610100900460ff16613ac45760405162461bcd60e51b815260040161086d90614c11565b600080546001600160a01b03909216620100000262010000600160b01b0319909216919091179055565b600061072582613b1c565b610880838383613b41565b600081815260018301602052604081205415156114a6565b60006001600160e01b0319821663780e9d6360e01b1480610725575061072582613bf9565b6001600160a01b038316613b9c57613b978160ca8054600083815260cb60205260408120829055600182018355919091527f42d72674974f694b5f5159593243114d38a5c39c89d6b62fee061ff523240ee10155565b613bbf565b816001600160a01b0316836001600160a01b031614613bbf57613bbf8382613c49565b6001600160a01b038216613bd65761088081613ce6565b826001600160a01b0316826001600160a01b031614610880576108808282613d95565b60006001600160e01b031982166380ac58cd60e01b1480613c2a57506001600160e01b03198216635b5e139f60e01b145b8061072557506301ffc9a760e01b6001600160e01b0319831614610725565b60006001613c56846110f1565b613c609190614bfa565b600083815260c96020526040902054909150808214613cb3576001600160a01b038416600090815260c860209081526040808320858452825280832054848452818420819055835260c990915290208190555b50600091825260c9602090815260408084208490556001600160a01b03909416835260c881528383209183525290812055565b60ca54600090613cf890600190614bfa565b600083815260cb602052604081205460ca8054939450909284908110613d2057613d206148a7565b906000526020600020015490508060ca8381548110613d4157613d416148a7565b600091825260208083209091019290925582815260cb909152604080822084905585825281205560ca805480613d7957613d79614e22565b6001900381819060005260206000200160009055905550505050565b6000613da0836110f1565b6001600160a01b03909316600090815260c860209081526040808320868452825280832085905593825260c99052919091209190915550565b5080546000825590600052602060002090810190610aec9190613eb1565b828054613e03906148ee565b90600052602060002090601f016020900481019282613e255760008555613e6b565b82601f10613e3e57805160ff1916838001178555613e6b565b82800160010185558215613e6b579182015b82811115613e6b578251825591602001919060010190613e50565b50610b6d929150613eb1565b828054828255906000526020600020908101928215613e6b5791602002820182811115613e6b578251825591602001919060010190613e50565b5b80821115610b6d5760008155600101613eb2565b6001600160e01b031981168114610aec57600080fd5b600060208284031215613eee57600080fd5b81356114a681613ec6565b80356001600160a01b0381168114613f1057600080fd5b919050565b634e487b7160e01b600052604160045260246000fd5b60405160e081016001600160401b0381118282101715613f4d57613f4d613f15565b60405290565b60405160a081016001600160401b0381118282101715613f4d57613f4d613f15565b604051601f8201601f191681016001600160401b0381118282101715613f9d57613f9d613f15565b604052919050565b60006001600160401b03821115613fbe57613fbe613f15565b5060051b60200190565b600060c08284031215613fda57600080fd5b60405160c081018181106001600160401b0382111715613ffc57613ffc613f15565b8060405250809150823581526020830135602082015260408301356040820152606083013560608201526080830135608082015260a083013560a08201525092915050565b60006040828403121561405357600080fd5b604051604081018181106001600160401b038211171561407557614075613f15565b604052823581526020928301359281019290925250919050565b60008183036102208112156140a357600080fd5b6140ab613f2b565b91508235825260208301356020830152604083013560408301526060830135606083015260a0607f19820112156140e157600080fd5b506140ea613f53565b608083810135825260a0840135602083015260c0840135604083015260e084013560608301526101008401358282015282015261412b836101208401613fc8565b60a082015261413e836101e08401614041565b60c082015292915050565b6000806040838503121561415c57600080fd5b61416583613ef9565b91506020808401356001600160401b0381111561418157600080fd5b8401601f8101861361419257600080fd5b80356141a56141a082613fa5565b613f75565b81815261022091820283018401918482019190898411156141c557600080fd5b938501935b838510156141eb576141dc8a8661408f565b835293840193918501916141ca565b5080955050505050509250929050565b60005b838110156142165781810151838201526020016141fe565b838111156107845750506000910152565b6000815180845261423f8160208601602086016141fb565b601f01601f19169290920160200192915050565b6020815260006114a66020830184614227565b60006020828403121561427857600080fd5b5035919050565b6000806040838503121561429257600080fd5b61429b83613ef9565b946020939093013593505050565b6000602082840312156142bb57600080fd5b6114a682613ef9565b600082601f8301126142d557600080fd5b813560206142e56141a083613fa5565b82815260059290921b8401810191818101908684111561430457600080fd5b8286015b8481101561431f5780358352918301918301614308565b509695505050505050565b6000806040838503121561433d57600080fd5b8235915060208301356001600160401b0381111561435a57600080fd5b614366858286016142c4565b9150509250929050565b60008060006060848603121561438557600080fd5b61438e84613ef9565b925061439c60208501613ef9565b9150604084013590509250925092565b600080604083850312156143bf57600080fd5b823591506143cf60208401613ef9565b90509250929050565b6020808252825182820181905260009190848201906040850190845b818110156144195783516001600160a01b0316835292840192918401916001016143f4565b50909695505050505050565b60008060006060848603121561443a57600080fd5b8335925060208401356001600160401b038082111561445857600080fd5b614464878388016142c4565b9350604086013591508082111561447a57600080fd5b50614487868287016142c4565b9150509250925092565b60008061024083850312156144a557600080fd5b6144ae83613ef9565b91506143cf846020850161408f565b60006001600160401b038311156144d6576144d6613f15565b6144e9601f8401601f1916602001613f75565b90508281528383830111156144fd57600080fd5b828260208301376000602084830101529392505050565b600082601f83011261452557600080fd5b6114a6838335602085016144bd565b60006020828403121561454657600080fd5b81356001600160401b0381111561455c57600080fd5b611cf284828501614514565b60006020828403121561457a57600080fd5b81356001600160401b0381111561459057600080fd5b611cf2848285016142c4565b6000602080830181845280855180835260408601915060408160051b870101925083870160005b828110156145f157603f198886030184526145df858351614227565b945092850192908501906001016145c3565b5092979650505050505050565b600081518084526020808501945080840160005b8381101561462e57815187529582019590820190600101614612565b509495945050505050565b6020815260006114a660208301846145fe565b6000806040838503121561465f57600080fd5b50508035926020909101359150565b60008060006060848603121561468357600080fd5b833592506020808501356001600160401b03808211156146a257600080fd5b6146ae888389016142c4565b945060408701359150808211156146c457600080fd5b818701915087601f8301126146d857600080fd5b81356146e66141a082613fa5565b81815260059190911b8301840190848101908a83111561470557600080fd5b8585015b8381101561473d578035858111156147215760008081fd5b61472f8d89838a0101614514565b845250918601918601614709565b508096505050505050509250925092565b6000806040838503121561476157600080fd5b61476a83613ef9565b91506020830135801515811461477f57600080fd5b809150509250929050565b6020815260008251606060208401526147a660808401826145fe565b9050602084015160408401526040840151601f198483030160608501526147cd82826145fe565b95945050505050565b600080600080608085870312156147ec57600080fd5b6147f585613ef9565b935061480360208601613ef9565b92506040850135915060608501356001600160401b0381111561482557600080fd5b8501601f8101871361483657600080fd5b614845878235602084016144bd565b91505092959194509250565b6000806040838503121561486457600080fd5b61486d83613ef9565b91506143cf60208401613ef9565b60008060006060848603121561489057600080fd5b505081359360208301359350604090920135919050565b634e487b7160e01b600052603260045260246000fd5b634e487b7160e01b600052601160045260246000fd5b60006000198214156148e7576148e76148bd565b5060010190565b600181811c9082168061490257607f821691505b6020821081141561172357634e487b7160e01b600052602260045260246000fd5b602080825260139082015272426c61636b6c6973746564206164647265737360681b604082015260600190565b6020808252602e908201527f4552433732313a2063616c6c6572206973206e6f7420746f6b656e206f776e6560408201526d1c881b9bdc88185c1c1c9bdd995960921b606082015260800190565b600082198211156149b1576149b16148bd565b500190565b600081516149c88185602086016141fb565b9290920192915050565b600080845481600182811c9150808316806149ee57607f831692505b6020808410821415614a0e57634e487b7160e01b86526022600452602486fd5b818015614a225760018114614a3357614a60565b60ff19861689528489019650614a60565b60008b81526020902060005b86811015614a585781548b820152908501908301614a3f565b505084890196505b5050505050506147cd81856149b6565b67113730b6b2911d1160c11b81528451600090614a94816008850160208a016141fb565b61202360f01b6008918401918201528551614ab681600a840160208a016141fb565b61088b60f21b600a92909101918201527f226465736372697074696f6e223a2245766f5665727365732045766f222c0000600c820152681134b6b0b3b2911d1160b91b602a8201528451614b118160338401602089016141fb565b650b9c1b99c88b60d21b60339290910191820152701130b734b6b0ba34b7b72fbab936111d1160791b6039820152614b5d614b4f604a8301866149b6565b61088b60f21b815260020190565b979650505050505050565b607b60f81b815260008351614b848160018501602088016141fb565b835190830190614b9b8160018401602088016141fb565b607d60f81b60019290910191820152600201949350505050565b7f646174613a6170706c69636174696f6e2f6a736f6e3b6261736536342c000000815260008251614bed81601d8501602087016141fb565b91909101601d0192915050565b600082821015614c0c57614c0c6148bd565b500390565b6020808252602b908201527f496e697469616c697a61626c653a20636f6e7472616374206973206e6f74206960408201526a6e697469616c697a696e6760a81b606082015260800190565b60208082526032908201527f4552433732313a207472616e7366657220746f206e6f6e20455243373231526560408201527131b2b4bb32b91034b6b83632b6b2b73a32b960711b606082015260800190565b634e487b7160e01b600052601260045260246000fd5b600082614cd357614cd3614cae565b500490565b600082614ce757614ce7614cae565b500690565b6e2261747472696275746573223a205b60881b81528151600090614d1781600f8501602087016141fb565b91909101600f0192915050565b60008351614d368184602088016141fb565b835190830190614d4a8183602088016141fb565b605d60f81b9101908152600101949350505050565b60008351614d718184602088016141fb565b835190830190614d858183602088016141fb565b01949350505050565b6000816000190483118215151615614da857614da86148bd565b500290565b7f416363657373436f6e74726f6c3a206163636f756e7420000000000000000000815260008351614de58160178501602088016141fb565b7001034b99036b4b9b9b4b733903937b6329607d1b6017918401918201528351614e168160288401602088016141fb565b01602801949350505050565b634e487b7160e01b600052603160045260246000fd5b6001600160a01b0385811682528416602082015260408101839052608060608201819052600090614e6b90830184614227565b9695505050505050565b600060208284031215614e8757600080fd5b81516114a681613ec6565b7f7b2274726169745f74797065223a2253706563696573222c2276616c7565223a8152601160f91b602082015260008551614ed4816021850160208a016141fb565b62089f4b60ea1b60219184019182018190527f7b2274726169745f74797065223a22526172697479222c2276616c7565223a2260248301528651614f1f816044850160208b016141fb565b604492019182018190527f7b2274726169745f74797065223a2247656e646572222c2276616c7565223a2260478301528551614f62816067850160208a016141fb565b60679201918201527f7b2274726169745f74797065223a2247656e65726174696f6e222c2276616c75606a8201526232911d60e91b608a820152614b5d614fac608d8301866149b6565b611f4b60f21b815260020190565b7f7b2274726169745f74797065223a225072696d6172792054797065222c227661815265363ab2911d1160d11b6020820152600084516150018160268501602089016141fb565b62089f4b60ea1b60269184019182018190527f7b2274726169745f74797065223a225365636f6e646172792054797065222c226029830152673b30b63ab2911d1160c11b6049830152855161505d816051850160208a016141fb565b60519201918201527f7b2274726169745f74797065223a22427265656420436f756e74222c2276616c6054820152633ab2911d60e11b6074820152614e6b614fac61513b615106826150f86150bd8260788901600360fc1b815260010190565b7f7b2274726169745f74797065223a22417661696c61626c65204272656564732281526816113b30b63ab2911d60b91b602082015260290190565b612d3160f01b815260020190565b7f7b2274726169745f74797065223a22457870657269656e6365222c2276616c7581526232911d60e91b602082015260230190565b866149b6565b7f7b2274726169745f74797065223a224e6174757265222c2276616c7565223a228152600084516151798160208501602089016141fb565b808301905062089f4b60ea1b60208201527f7b2274726169745f74797065223a2241747461636b222c2276616c7565223a00602382015284516151c38160428401602089016141fb565b808201915050611f4b60f21b8060428301527f7b2274726169745f74797065223a22446566656e7365222c2276616c7565223a6044830152845161520e8160648501602089016141fb565b606492019182015260660195945050505050565b7f7b2274726169745f74797065223a225370656369616c222c2276616c7565223a81526000845161525a8160208501602089016141fb565b8083019050611f4b60f21b8060208301527f7b2274726169745f74797065223a225370656369616c20446566656e7365222c602283015267113b30b63ab2911d60c11b604283015285516152b581604a850160208a016141fb565b604a9201918201527f7b2274726169745f74797065223a225370656564222c2276616c7565223a0000604c82015283516152f681606a8401602088016141fb565b607d60f81b606a9290910191820152606b0195945050505050565b600081615320576153206148bd565b50600019019056fe4142434445464748494a4b4c4d4e4f505152535455565758595a6162636465666768696a6b6c6d6e6f707172737475767778797a303132333435363738392b2f9f2df0fed2c77648de5860a4cc508cd0818c85b8b8a1ab4ceeef8d981c8956a668747470733a2f2f6769746875622e636f6d2f45766f5665727365732f7075626c69632d6173736574732f7261772f6d61696e2f6e6674732f45766f2fa49807205ce4d355092ef5a8a18f56e8913cf4a201fbe287825b095693c21775a2646970667358221220d1a3770b79fd7721f16085cf6a0ca490b8f641272783cc140d2c1200c9bf543764736f6c63430008090033",
  "linkReferences": {},
  "deployedLinkReferences": {}
}