{
  "_format": "hh-sol-artifact-1",
  "contractName": "vEVOVestingUpgradeable",
  "sourceName": "contracts/utility/vEVOVestingUpgradeable.sol",
  "abi": [
    {
      "inputs": [],
      "stateMutability": "nonpayable",
      "type": "constructor"
    },
    {
      "anonymous": false,
      "inputs": [
        {
          "indexed": false,
          "internalType": "address",
          "name": "account",
          "type": "address"
        }
      ],
      "name": "Paused",
      "type": "event"
    },
    {
      "anonymous": false,
      "inputs": [
        {
          "indexed": true,
          "internalType": "bytes32",
          "name": "role",
          "type": "bytes32"
        },
        {
          "indexed": true,
          "internalType": "bytes32",
          "name": "previousAdminRole",
          "type": "bytes32"
        },
        {
          "indexed": true,
          "internalType": "bytes32",
          "name": "newAdminRole",
          "type": "bytes32"
        }
      ],
      "name": "RoleAdminChanged",
      "type": "event"
    },
    {
      "anonymous": false,
      "inputs": [
        {
          "indexed": true,
          "internalType": "bytes32",
          "name": "role",
          "type": "bytes32"
        },
        {
          "indexed": true,
          "internalType": "address",
          "name": "account",
          "type": "address"
        },
        {
          "indexed": true,
          "internalType": "address",
          "name": "sender",
          "type": "address"
        }
      ],
      "name": "RoleGranted",
      "type": "event"
    },
    {
      "anonymous": false,
      "inputs": [
        {
          "indexed": true,
          "internalType": "bytes32",
          "name": "role",
          "type": "bytes32"
        },
        {
          "indexed": true,
          "internalType": "address",
          "name": "account",
          "type": "address"
        },
        {
          "indexed": true,
          "internalType": "address",
          "name": "sender",
          "type": "address"
        }
      ],
      "name": "RoleRevoked",
      "type": "event"
    },
    {
      "anonymous": false,
      "inputs": [
        {
          "indexed": false,
          "internalType": "address",
          "name": "account",
          "type": "address"
        }
      ],
      "name": "Unpaused",
      "type": "event"
    },
    {
      "inputs": [],
      "name": "ADMIN_ROLE",
      "outputs": [
        {
          "internalType": "bytes32",
          "name": "",
          "type": "bytes32"
        }
      ],
      "stateMutability": "view",
      "type": "function"
    },
    {
      "inputs": [],
      "name": "DEFAULT_ADMIN_ROLE",
      "outputs": [
        {
          "internalType": "bytes32",
          "name": "",
          "type": "bytes32"
        }
      ],
      "stateMutability": "view",
      "type": "function"
    },
    {
      "inputs": [],
      "name": "EVO",
      "outputs": [
        {
          "internalType": "contract IEvoToken",
          "name": "",
          "type": "address"
        }
      ],
      "stateMutability": "view",
      "type": "function"
    },
    {
      "inputs": [],
      "name": "GENESIS_TIMESTAMP",
      "outputs": [
        {
          "internalType": "uint256",
          "name": "",
          "type": "uint256"
        }
      ],
      "stateMutability": "view",
      "type": "function"
    },
    {
      "inputs": [],
      "name": "OMEGA_TIMESTAMP",
      "outputs": [
        {
          "internalType": "uint256",
          "name": "",
          "type": "uint256"
        }
      ],
      "stateMutability": "view",
      "type": "function"
    },
    {
      "inputs": [],
      "name": "VESTING_PERIOD_SECONDS",
      "outputs": [
        {
          "internalType": "uint256",
          "name": "",
          "type": "uint256"
        }
      ],
      "stateMutability": "view",
      "type": "function"
    },
    {
      "inputs": [
        {
          "internalType": "address",
          "name": "_address",
          "type": "address"
        },
        {
          "internalType": "uint256",
          "name": "amount",
          "type": "uint256"
        }
      ],
      "name": "addWallet",
      "outputs": [],
      "stateMutability": "nonpayable",
      "type": "function"
    },
    {
      "inputs": [
        {
          "internalType": "address[]",
          "name": "addresses",
          "type": "address[]"
        },
        {
          "internalType": "uint256[]",
          "name": "amounts",
          "type": "uint256[]"
        }
      ],
      "name": "bulkAddWallets",
      "outputs": [],
      "stateMutability": "nonpayable",
      "type": "function"
    },
    {
      "inputs": [],
      "name": "claimVested",
      "outputs": [],
      "stateMutability": "nonpayable",
      "type": "function"
    },
    {
      "inputs": [
        {
          "internalType": "bytes32",
          "name": "role",
          "type": "bytes32"
        }
      ],
      "name": "getRoleAdmin",
      "outputs": [
        {
          "internalType": "bytes32",
          "name": "",
          "type": "bytes32"
        }
      ],
      "stateMutability": "view",
      "type": "function"
    },
    {
      "inputs": [
        {
          "internalType": "address",
          "name": "_address",
          "type": "address"
        }
      ],
      "name": "getWalletData",
      "outputs": [
        {
          "internalType": "uint256",
          "name": "total",
          "type": "uint256"
        },
        {
          "internalType": "uint256",
          "name": "claimed",
          "type": "uint256"
        },
        {
          "internalType": "uint256",
          "name": "pending",
          "type": "uint256"
        }
      ],
      "stateMutability": "view",
      "type": "function"
    },
    {
      "inputs": [
        {
          "internalType": "bytes32",
          "name": "role",
          "type": "bytes32"
        },
        {
          "internalType": "address",
          "name": "account",
          "type": "address"
        }
      ],
      "name": "grantRole",
      "outputs": [],
      "stateMutability": "nonpayable",
      "type": "function"
    },
    {
      "inputs": [
        {
          "internalType": "bytes32",
          "name": "role",
          "type": "bytes32"
        },
        {
          "internalType": "address",
          "name": "account",
          "type": "address"
        }
      ],
      "name": "hasRole",
      "outputs": [
        {
          "internalType": "bool",
          "name": "",
          "type": "bool"
        }
      ],
      "stateMutability": "view",
      "type": "function"
    },
    {
      "inputs": [],
      "name": "initialize",
      "outputs": [],
      "stateMutability": "nonpayable",
      "type": "function"
    },
    {
      "inputs": [
        {
          "internalType": "address",
          "name": "_address",
          "type": "address"
        },
        {
          "internalType": "uint256",
          "name": "amount",
          "type": "uint256"
        }
      ],
      "name": "modifyWallet",
      "outputs": [],
      "stateMutability": "nonpayable",
      "type": "function"
    },
    {
      "inputs": [],
      "name": "paused",
      "outputs": [
        {
          "internalType": "bool",
          "name": "",
          "type": "bool"
        }
      ],
      "stateMutability": "view",
      "type": "function"
    },
    {
      "inputs": [
        {
          "internalType": "address",
          "name": "_address",
          "type": "address"
        }
      ],
      "name": "removeWallet",
      "outputs": [],
      "stateMutability": "nonpayable",
      "type": "function"
    },
    {
      "inputs": [
        {
          "internalType": "bytes32",
          "name": "role",
          "type": "bytes32"
        },
        {
          "internalType": "address",
          "name": "account",
          "type": "address"
        }
      ],
      "name": "renounceRole",
      "outputs": [],
      "stateMutability": "nonpayable",
      "type": "function"
    },
    {
      "inputs": [
        {
          "internalType": "bytes32",
          "name": "role",
          "type": "bytes32"
        },
        {
          "internalType": "address",
          "name": "account",
          "type": "address"
        }
      ],
      "name": "revokeRole",
      "outputs": [],
      "stateMutability": "nonpayable",
      "type": "function"
    },
    {
      "inputs": [
        {
          "internalType": "bytes4",
          "name": "interfaceId",
          "type": "bytes4"
        }
      ],
      "name": "supportsInterface",
      "outputs": [
        {
          "internalType": "bool",
          "name": "",
          "type": "bool"
        }
      ],
      "stateMutability": "view",
      "type": "function"
    },
    {
      "inputs": [],
      "name": "totalPending",
      "outputs": [
        {
          "internalType": "uint256",
          "name": "",
          "type": "uint256"
        }
      ],
      "stateMutability": "view",
      "type": "function"
    },
    {
      "inputs": [],
      "name": "vEVO",
      "outputs": [
        {
          "internalType": "contract IEvoToken",
          "name": "",
          "type": "address"
        }
      ],
      "stateMutability": "view",
      "type": "function"
    }
  ],
  "bytecode": "0x60806040523480156200001157600080fd5b50600054610100900460ff166200002f5760005460ff161562000039565b62000039620000de565b620000a15760405162461bcd60e51b815260206004820152602e60248201527f496e697469616c697a61626c653a20636f6e747261637420697320616c72656160448201526d191e481a5b9a5d1a585b1a5e995960921b606482015260840160405180910390fd5b600054610100900460ff16158015620000c4576000805461ffff19166101011790555b8015620000d7576000805461ff00191690555b506200010b565b6000620000f630620000fc60201b62000c7b1760201c565b15905090565b6001600160a01b03163b151590565b6117c4806200011b6000396000f3fe608060405234801561001057600080fd5b50600436106101425760003560e01c806367390e90116100b8578063a217fddf1161007c578063a217fddf146102b8578063a75fe8e1146102c0578063ca3136ad146102d3578063d01c44cd146102de578063d547741f146102e6578063e4866132146102f957600080fd5b806367390e901461025257806375b238fc1461025a5780638129fc1c1461026f578063857923c41461027757806391d14854146102a557600080fd5b806336568abe1161010a57806336568abe146101d35780633ece94c6146101e65780633f90916a146101f9578063406b18e31461020157806349e8b863146102145780635c975abb1461024757600080fd5b806301ffc9a7146101475780630a2a9a011461016f5780630c204d4414610184578063248a9ca31461019d5780632f2ff15d146101c0575b600080fd5b61015a61015536600461129b565b610314565b60405190151581526020015b60405180910390f35b61018261017d3660046112e1565b61034b565b005b61018f63624ca6c881565b604051908152602001610166565b61018f6101ab36600461130b565b60009081526065602052604090206001015490565b6101826101ce366004611324565b610401565b6101826101e1366004611324565b61042c565b6101826101f4366004611426565b6104aa565b61018f610584565b61018261020f3660046112e1565b610600565b61022f73d6e76742962379e234e9fd4e73768cef779f38b581565b6040516001600160a01b039091168152602001610166565b60c95460ff1661015a565b61018f61065d565b61018f60008051602061176f83398151915281565b610182610672565b61028a6102853660046114e6565b610770565b60408051938452602084019290925290820152606001610166565b61015a6102b3366004611324565b6107d1565b61018f600081565b6101826102ce3660046114e6565b6107fc565b61018f630118cf8081565b610182610866565b6101826102f4366004611324565b610c55565b61022f73eb76ef5d121f31c2cb59e50a4fa5475042c84e3481565b60006001600160e01b03198216637965db0b60e01b148061034557506301ffc9a760e01b6001600160e01b03198316145b92915050565b60008051602061176f8339815191526103648133610c8a565b61036f60fe84610cee565b156103ba5760405162461bcd60e51b815260206004820152601660248201527515d85b1b195d08185b1c9958591e48195b9d195c995960521b60448201526064015b60405180910390fd5b6001600160a01b038316600090815260fd60205260408120838155600101556103e460fe84610d13565b508160fc60008282546103f79190611517565b9091555050505050565b60008281526065602052604090206001015461041d8133610c8a565b6104278383610d28565b505050565b6001600160a01b038116331461049c5760405162461bcd60e51b815260206004820152602f60248201527f416363657373436f6e74726f6c3a2063616e206f6e6c792072656e6f756e636560448201526e103937b632b9903337b91039b2b63360891b60648201526084016103b1565b6104a68282610dae565b5050565b60008051602061176f8339815191526104c38133610c8a565b81518351146105245760405162461bcd60e51b815260206004820152602760248201527f41646472657373206c69737420646f6573206e6f74206d6174636820616d6f756044820152661b9d081b1a5cdd60ca1b60648201526084016103b1565b60005b835181101561057e5761056c8482815181106105455761054561152f565b602002602001015184838151811061055f5761055f61152f565b602002602001015161034b565b8061057681611545565b915050610527565b50505050565b600080630118cf8060fc546105999190611560565b905042806105af630118cf8063624ca6c8611517565b116105c9576105c6630118cf8063624ca6c8611517565b90505b60006105d963624ca6c883611582565b905060006105e78285611599565b905060fb54816105f79190611582565b94505050505090565b60008051602061176f8339815191526106198133610c8a565b61062460fe84610cee565b6106405760405162461bcd60e51b81526004016103b1906115b8565b506001600160a01b03909116600090815260fd6020526040902055565b61066f630118cf8063624ca6c8611517565b81565b600054610100900460ff1661068d5760005460ff1615610691565b303b155b6106f45760405162461bcd60e51b815260206004820152602e60248201527f496e697469616c697a61626c653a20636f6e747261637420697320616c72656160448201526d191e481a5b9a5d1a585b1a5e995960921b60648201526084016103b1565b600054610100900460ff16158015610716576000805461ffff19166101011790555b61071e610e15565b610726610e3e565b61072e610e6d565b610739600033610d28565b61075160008051602061176f83398151915233610d28565b600060fb81905560fc55801561076d576000805461ff00191690555b50565b6000808061077f60fe85610cee565b61079b5760405162461bcd60e51b81526004016103b1906115b8565b6001600160a01b038416600090815260fd60205260409020805460019091015490935091506107c984610e9c565b929491935050565b60009182526065602090815260408084206001600160a01b0393909316845291905290205460ff1690565b60008051602061176f8339815191526108158133610c8a565b61082060fe83610cee565b61083c5760405162461bcd60e51b81526004016103b1906115b8565b6001600160a01b038216600090815260fd602052604081208181556001015561042760fe83610f47565b60c95460ff16156108ac5760405162461bcd60e51b815260206004820152601060248201526f14185d5cd8589b194e881c185d5cd95960821b60448201526064016103b1565b6108b760fe33610cee565b6108d35760405162461bcd60e51b81526004016103b1906115b8565b60006108de33610e9c565b9050426108f3630118cf8063624ca6c8611517565b1161091b5733600090815260fd60205260409020600181015490546109189190611582565b90505b8073eb76ef5d121f31c2cb59e50a4fa5475042c84e346370a08231336040516001600160e01b031960e084901b1681526001600160a01b03909116600482015260240160206040518083038186803b15801561097657600080fd5b505afa15801561098a573d6000803e3d6000fd5b505050506040513d601f19601f820116820180604052508101906109ae91906115e7565b10156109fc5760405162461bcd60e51b815260206004820152601960248201527f496e73756666696369656e74207645564f2062616c616e63650000000000000060448201526064016103b1565b8073eb76ef5d121f31c2cb59e50a4fa5475042c84e3463dd62ed3e336040516001600160e01b031960e084901b1681526001600160a01b03909116600482015230602482015260440160206040518083038186803b158015610a5d57600080fd5b505afa158015610a71573d6000803e3d6000fd5b505050506040513d601f19601f82011682018060405250810190610a9591906115e7565b1015610af35760405162461bcd60e51b815260206004820152602760248201527f50656e64696e672062616c616e6365206578636565647320617070726f76656460448201526608185b5bdd5b9d60ca1b60648201526084016103b1565b33600090815260fd602052604081206001018054839290610b15908490611517565b925050819055508060fb6000828254610b2e9190611517565b9091555073eb76ef5d121f31c2cb59e50a4fa5475042c84e3490506323b872dd336040516001600160e01b031960e084901b1681526001600160a01b0390911660048201526001602482015260448101849052606401602060405180830381600087803b158015610b9e57600080fd5b505af1158015610bb2573d6000803e3d6000fd5b505050506040513d601f19601f82011682018060405250810190610bd69190611600565b5073d6e76742962379e234e9fd4e73768cef779f38b56340c10f19336040516001600160e01b031960e084901b1681526001600160a01b03909116600482015260248101849052604401600060405180830381600087803b158015610c3a57600080fd5b505af1158015610c4e573d6000803e3d6000fd5b5050505050565b600082815260656020526040902060010154610c718133610c8a565b6104278383610dae565b6001600160a01b03163b151590565b610c9482826107d1565b6104a657610cac816001600160a01b03166014610f5c565b610cb7836020610f5c565b604051602001610cc892919061164e565b60408051601f198184030181529082905262461bcd60e51b82526103b1916004016116c3565b6001600160a01b038116600090815260018301602052604081205415155b9392505050565b6000610d0c836001600160a01b0384166110f8565b610d3282826107d1565b6104a65760008281526065602090815260408083206001600160a01b03851684529091529020805460ff19166001179055610d6a3390565b6001600160a01b0316816001600160a01b0316837f2f8788117e7eff1d82e926ec794901d17c78024a50270940304540a733656f0d60405160405180910390a45050565b610db882826107d1565b156104a65760008281526065602090815260408083206001600160a01b0385168085529252808320805460ff1916905551339285917ff6391f5c32d9c69d2a47ea670b442974b53935d1edc7fd64eb21e047a839171b9190a45050565b600054610100900460ff16610e3c5760405162461bcd60e51b81526004016103b1906116f6565b565b600054610100900460ff16610e655760405162461bcd60e51b81526004016103b1906116f6565b610e3c611147565b600054610100900460ff16610e945760405162461bcd60e51b81526004016103b1906116f6565b610e3c611175565b6001600160a01b038116600090815260fd60205260408120548190610ec690630118cf8090611560565b90504280610edc630118cf8063624ca6c8611517565b11610ef657610ef3630118cf8063624ca6c8611517565b90505b6000610f0663624ca6c883611582565b90506000610f148285611599565b6001600160a01b038716600090815260fd6020526040902060010154909150610f3d9082611582565b9695505050505050565b6000610d0c836001600160a01b0384166111a8565b60606000610f6b836002611599565b610f76906002611517565b67ffffffffffffffff811115610f8e57610f8e611350565b6040519080825280601f01601f191660200182016040528015610fb8576020820181803683370190505b509050600360fc1b81600081518110610fd357610fd361152f565b60200101906001600160f81b031916908160001a905350600f60fb1b816001815181106110025761100261152f565b60200101906001600160f81b031916908160001a9053506000611026846002611599565b611031906001611517565b90505b60018111156110a9576f181899199a1a9b1b9c1cb0b131b232b360811b85600f16601081106110655761106561152f565b1a60f81b82828151811061107b5761107b61152f565b60200101906001600160f81b031916908160001a90535060049490941c936110a281611741565b9050611034565b508315610d0c5760405162461bcd60e51b815260206004820181905260248201527f537472696e67733a20686578206c656e67746820696e73756666696369656e7460448201526064016103b1565b600081815260018301602052604081205461113f57508154600181810184556000848152602080822090930184905584548482528286019093526040902091909155610345565b506000610345565b600054610100900460ff1661116e5760405162461bcd60e51b81526004016103b1906116f6565b6001609755565b600054610100900460ff1661119c5760405162461bcd60e51b81526004016103b1906116f6565b60c9805460ff19169055565b600081815260018301602052604081205480156112915760006111cc600183611582565b85549091506000906111e090600190611582565b90508181146112455760008660000182815481106112005761120061152f565b90600052602060002001549050808760000184815481106112235761122361152f565b6000918252602080832090910192909255918252600188019052604090208390555b855486908061125657611256611758565b600190038181906000526020600020016000905590558560010160008681526020019081526020016000206000905560019350505050610345565b6000915050610345565b6000602082840312156112ad57600080fd5b81356001600160e01b031981168114610d0c57600080fd5b80356001600160a01b03811681146112dc57600080fd5b919050565b600080604083850312156112f457600080fd5b6112fd836112c5565b946020939093013593505050565b60006020828403121561131d57600080fd5b5035919050565b6000806040838503121561133757600080fd5b82359150611347602084016112c5565b90509250929050565b634e487b7160e01b600052604160045260246000fd5b604051601f8201601f1916810167ffffffffffffffff8111828210171561138f5761138f611350565b604052919050565b600067ffffffffffffffff8211156113b1576113b1611350565b5060051b60200190565b600082601f8301126113cc57600080fd5b813560206113e16113dc83611397565b611366565b82815260059290921b8401810191818101908684111561140057600080fd5b8286015b8481101561141b5780358352918301918301611404565b509695505050505050565b6000806040838503121561143957600080fd5b823567ffffffffffffffff8082111561145157600080fd5b818501915085601f83011261146557600080fd5b813560206114756113dc83611397565b82815260059290921b8401810191818101908984111561149457600080fd5b948201945b838610156114b9576114aa866112c5565b82529482019490820190611499565b965050860135925050808211156114cf57600080fd5b506114dc858286016113bb565b9150509250929050565b6000602082840312156114f857600080fd5b610d0c826112c5565b634e487b7160e01b600052601160045260246000fd5b6000821982111561152a5761152a611501565b500190565b634e487b7160e01b600052603260045260246000fd5b600060001982141561155957611559611501565b5060010190565b60008261157d57634e487b7160e01b600052601260045260246000fd5b500490565b60008282101561159457611594611501565b500390565b60008160001904831182151516156115b3576115b3611501565b500290565b60208082526015908201527415d85b1b195d08191bd95cc81b9bdd08195e1a5cdd605a1b604082015260600190565b6000602082840312156115f957600080fd5b5051919050565b60006020828403121561161257600080fd5b81518015158114610d0c57600080fd5b60005b8381101561163d578181015183820152602001611625565b8381111561057e5750506000910152565b7f416363657373436f6e74726f6c3a206163636f756e7420000000000000000000815260008351611686816017850160208801611622565b7001034b99036b4b9b9b4b733903937b6329607d1b60179184019182015283516116b7816028840160208801611622565b01602801949350505050565b60208152600082518060208401526116e2816040850160208701611622565b601f01601f19169190910160400192915050565b6020808252602b908201527f496e697469616c697a61626c653a20636f6e7472616374206973206e6f74206960408201526a6e697469616c697a696e6760a81b606082015260800190565b60008161175057611750611501565b506000190190565b634e487b7160e01b600052603160045260246000fdfea49807205ce4d355092ef5a8a18f56e8913cf4a201fbe287825b095693c21775a264697066735822122019394c23063314655a9b573429b09a506f4aabf0bee3f440fd25be81901f4a9b64736f6c63430008090033",
  "linkReferences": {},
  "deployedLinkReferences": {}
}