{
  "_format": "hh-sol-artifact-1",
  "contractName": "vEVOUpgradeable",
  "sourceName": "contracts/ERC20/vEVOUpgradeable.sol",
  "abi": [
    {
      "inputs": [],
      "stateMutability": "nonpayable",
      "type": "constructor"
    },
    {
      "anonymous": false,
      "inputs": [
        {
          "indexed": true,
          "internalType": "address",
          "name": "owner",
          "type": "address"
        },
        {
          "indexed": true,
          "internalType": "address",
          "name": "spender",
          "type": "address"
        },
        {
          "indexed": false,
          "internalType": "uint256",
          "name": "value",
          "type": "uint256"
        }
      ],
      "name": "Approval",
      "type": "event"
    },
    {
      "anonymous": false,
      "inputs": [
        {
          "indexed": true,
          "internalType": "address",
          "name": "from",
          "type": "address"
        },
        {
          "indexed": false,
          "internalType": "uint256",
          "name": "amount",
          "type": "uint256"
        }
      ],
      "name": "Claimed",
      "type": "event"
    },
    {
      "anonymous": false,
      "inputs": [
        {
          "indexed": false,
          "internalType": "uint8",
          "name": "version",
          "type": "uint8"
        }
      ],
      "name": "Initialized",
      "type": "event"
    },
    {
      "anonymous": false,
      "inputs": [
        {
          "indexed": false,
          "internalType": "address",
          "name": "account",
          "type": "address"
        }
      ],
      "name": "Paused",
      "type": "event"
    },
    {
      "anonymous": false,
      "inputs": [
        {
          "indexed": true,
          "internalType": "bytes32",
          "name": "role",
          "type": "bytes32"
        },
        {
          "indexed": true,
          "internalType": "bytes32",
          "name": "previousAdminRole",
          "type": "bytes32"
        },
        {
          "indexed": true,
          "internalType": "bytes32",
          "name": "newAdminRole",
          "type": "bytes32"
        }
      ],
      "name": "RoleAdminChanged",
      "type": "event"
    },
    {
      "anonymous": false,
      "inputs": [
        {
          "indexed": true,
          "internalType": "bytes32",
          "name": "role",
          "type": "bytes32"
        },
        {
          "indexed": true,
          "internalType": "address",
          "name": "account",
          "type": "address"
        },
        {
          "indexed": true,
          "internalType": "address",
          "name": "sender",
          "type": "address"
        }
      ],
      "name": "RoleGranted",
      "type": "event"
    },
    {
      "anonymous": false,
      "inputs": [
        {
          "indexed": true,
          "internalType": "bytes32",
          "name": "role",
          "type": "bytes32"
        },
        {
          "indexed": true,
          "internalType": "address",
          "name": "account",
          "type": "address"
        },
        {
          "indexed": true,
          "internalType": "address",
          "name": "sender",
          "type": "address"
        }
      ],
      "name": "RoleRevoked",
      "type": "event"
    },
    {
      "anonymous": false,
      "inputs": [
        {
          "indexed": true,
          "internalType": "address",
          "name": "from",
          "type": "address"
        },
        {
          "indexed": true,
          "internalType": "address",
          "name": "to",
          "type": "address"
        },
        {
          "indexed": false,
          "internalType": "uint256",
          "name": "value",
          "type": "uint256"
        }
      ],
      "name": "Transfer",
      "type": "event"
    },
    {
      "anonymous": false,
      "inputs": [
        {
          "indexed": false,
          "internalType": "address",
          "name": "account",
          "type": "address"
        }
      ],
      "name": "Unpaused",
      "type": "event"
    },
    {
      "inputs": [],
      "name": "ADMIN_ROLE",
      "outputs": [
        {
          "internalType": "bytes32",
          "name": "",
          "type": "bytes32"
        }
      ],
      "stateMutability": "view",
      "type": "function"
    },
    {
      "inputs": [],
      "name": "DEFAULT_ADMIN_ROLE",
      "outputs": [
        {
          "internalType": "bytes32",
          "name": "",
          "type": "bytes32"
        }
      ],
      "stateMutability": "view",
      "type": "function"
    },
    {
      "inputs": [],
      "name": "DOMAIN_SEPARATOR",
      "outputs": [
        {
          "internalType": "bytes32",
          "name": "",
          "type": "bytes32"
        }
      ],
      "stateMutability": "view",
      "type": "function"
    },
    {
      "inputs": [],
      "name": "GENESIS_TIMESTAMP",
      "outputs": [
        {
          "internalType": "uint256",
          "name": "",
          "type": "uint256"
        }
      ],
      "stateMutability": "view",
      "type": "function"
    },
    {
      "inputs": [],
      "name": "MINTER_ROLE",
      "outputs": [
        {
          "internalType": "bytes32",
          "name": "",
          "type": "bytes32"
        }
      ],
      "stateMutability": "view",
      "type": "function"
    },
    {
      "inputs": [],
      "name": "OMEGA_TIMESTAMP",
      "outputs": [
        {
          "internalType": "uint256",
          "name": "",
          "type": "uint256"
        }
      ],
      "stateMutability": "view",
      "type": "function"
    },
    {
      "inputs": [],
      "name": "VESTING_PERIOD_SECONDS",
      "outputs": [
        {
          "internalType": "uint256",
          "name": "",
          "type": "uint256"
        }
      ],
      "stateMutability": "view",
      "type": "function"
    },
    {
      "inputs": [
        {
          "internalType": "address",
          "name": "to",
          "type": "address"
        }
      ],
      "name": "addGlobalWhitelist",
      "outputs": [],
      "stateMutability": "nonpayable",
      "type": "function"
    },
    {
      "inputs": [
        {
          "internalType": "address",
          "name": "_address",
          "type": "address"
        },
        {
          "internalType": "uint256",
          "name": "amount",
          "type": "uint256"
        }
      ],
      "name": "addInitialBalance",
      "outputs": [],
      "stateMutability": "nonpayable",
      "type": "function"
    },
    {
      "inputs": [
        {
          "internalType": "address",
          "name": "from",
          "type": "address"
        },
        {
          "internalType": "address",
          "name": "to",
          "type": "address"
        }
      ],
      "name": "addWhitelist",
      "outputs": [],
      "stateMutability": "nonpayable",
      "type": "function"
    },
    {
      "inputs": [
        {
          "internalType": "address",
          "name": "wallet",
          "type": "address"
        }
      ],
      "name": "adminVestWallet",
      "outputs": [],
      "stateMutability": "nonpayable",
      "type": "function"
    },
    {
      "inputs": [
        {
          "internalType": "address",
          "name": "owner",
          "type": "address"
        },
        {
          "internalType": "address",
          "name": "spender",
          "type": "address"
        }
      ],
      "name": "allowance",
      "outputs": [
        {
          "internalType": "uint256",
          "name": "",
          "type": "uint256"
        }
      ],
      "stateMutability": "view",
      "type": "function"
    },
    {
      "inputs": [
        {
          "internalType": "address",
          "name": "spender",
          "type": "address"
        },
        {
          "internalType": "uint256",
          "name": "amount",
          "type": "uint256"
        }
      ],
      "name": "approve",
      "outputs": [
        {
          "internalType": "bool",
          "name": "",
          "type": "bool"
        }
      ],
      "stateMutability": "nonpayable",
      "type": "function"
    },
    {
      "inputs": [
        {
          "internalType": "address",
          "name": "account",
          "type": "address"
        }
      ],
      "name": "balanceOf",
      "outputs": [
        {
          "internalType": "uint256",
          "name": "",
          "type": "uint256"
        }
      ],
      "stateMutability": "view",
      "type": "function"
    },
    {
      "inputs": [
        {
          "internalType": "address[]",
          "name": "addresses",
          "type": "address[]"
        },
        {
          "internalType": "uint256[]",
          "name": "amounts",
          "type": "uint256[]"
        }
      ],
      "name": "batchAddInitialBalance",
      "outputs": [],
      "stateMutability": "nonpayable",
      "type": "function"
    },
    {
      "inputs": [
        {
          "internalType": "uint256",
          "name": "amount",
          "type": "uint256"
        }
      ],
      "name": "burn",
      "outputs": [],
      "stateMutability": "nonpayable",
      "type": "function"
    },
    {
      "inputs": [
        {
          "internalType": "address",
          "name": "account",
          "type": "address"
        },
        {
          "internalType": "uint256",
          "name": "amount",
          "type": "uint256"
        }
      ],
      "name": "burnFrom",
      "outputs": [],
      "stateMutability": "nonpayable",
      "type": "function"
    },
    {
      "inputs": [],
      "name": "claimPending",
      "outputs": [],
      "stateMutability": "nonpayable",
      "type": "function"
    },
    {
      "inputs": [],
      "name": "claimPendingFromInvestor",
      "outputs": [],
      "stateMutability": "nonpayable",
      "type": "function"
    },
    {
      "inputs": [],
      "name": "decimals",
      "outputs": [
        {
          "internalType": "uint8",
          "name": "",
          "type": "uint8"
        }
      ],
      "stateMutability": "view",
      "type": "function"
    },
    {
      "inputs": [
        {
          "internalType": "address",
          "name": "spender",
          "type": "address"
        },
        {
          "internalType": "uint256",
          "name": "subtractedValue",
          "type": "uint256"
        }
      ],
      "name": "decreaseAllowance",
      "outputs": [
        {
          "internalType": "bool",
          "name": "",
          "type": "bool"
        }
      ],
      "stateMutability": "nonpayable",
      "type": "function"
    },
    {
      "inputs": [
        {
          "internalType": "bytes32",
          "name": "role",
          "type": "bytes32"
        }
      ],
      "name": "getRoleAdmin",
      "outputs": [
        {
          "internalType": "bytes32",
          "name": "",
          "type": "bytes32"
        }
      ],
      "stateMutability": "view",
      "type": "function"
    },
    {
      "inputs": [
        {
          "internalType": "address",
          "name": "_address",
          "type": "address"
        }
      ],
      "name": "getWalletData",
      "outputs": [
        {
          "internalType": "uint256",
          "name": "total",
          "type": "uint256"
        },
        {
          "internalType": "uint256",
          "name": "claimed",
          "type": "uint256"
        },
        {
          "internalType": "uint256",
          "name": "pending",
          "type": "uint256"
        }
      ],
      "stateMutability": "view",
      "type": "function"
    },
    {
      "inputs": [
        {
          "internalType": "bytes32",
          "name": "role",
          "type": "bytes32"
        },
        {
          "internalType": "address",
          "name": "account",
          "type": "address"
        }
      ],
      "name": "grantRole",
      "outputs": [],
      "stateMutability": "nonpayable",
      "type": "function"
    },
    {
      "inputs": [
        {
          "internalType": "bytes32",
          "name": "role",
          "type": "bytes32"
        },
        {
          "internalType": "address",
          "name": "account",
          "type": "address"
        }
      ],
      "name": "hasRole",
      "outputs": [
        {
          "internalType": "bool",
          "name": "",
          "type": "bool"
        }
      ],
      "stateMutability": "view",
      "type": "function"
    },
    {
      "inputs": [
        {
          "internalType": "address",
          "name": "spender",
          "type": "address"
        },
        {
          "internalType": "uint256",
          "name": "addedValue",
          "type": "uint256"
        }
      ],
      "name": "increaseAllowance",
      "outputs": [
        {
          "internalType": "bool",
          "name": "",
          "type": "bool"
        }
      ],
      "stateMutability": "nonpayable",
      "type": "function"
    },
    {
      "inputs": [],
      "name": "initialize",
      "outputs": [],
      "stateMutability": "nonpayable",
      "type": "function"
    },
    {
      "inputs": [
        {
          "internalType": "address",
          "name": "account",
          "type": "address"
        },
        {
          "internalType": "uint256",
          "name": "amount",
          "type": "uint256"
        }
      ],
      "name": "mint",
      "outputs": [],
      "stateMutability": "nonpayable",
      "type": "function"
    },
    {
      "inputs": [],
      "name": "name",
      "outputs": [
        {
          "internalType": "string",
          "name": "",
          "type": "string"
        }
      ],
      "stateMutability": "view",
      "type": "function"
    },
    {
      "inputs": [
        {
          "internalType": "address",
          "name": "owner",
          "type": "address"
        }
      ],
      "name": "nonces",
      "outputs": [
        {
          "internalType": "uint256",
          "name": "",
          "type": "uint256"
        }
      ],
      "stateMutability": "view",
      "type": "function"
    },
    {
      "inputs": [],
      "name": "paused",
      "outputs": [
        {
          "internalType": "bool",
          "name": "",
          "type": "bool"
        }
      ],
      "stateMutability": "view",
      "type": "function"
    },
    {
      "inputs": [
        {
          "internalType": "address",
          "name": "owner",
          "type": "address"
        },
        {
          "internalType": "address",
          "name": "spender",
          "type": "address"
        },
        {
          "internalType": "uint256",
          "name": "value",
          "type": "uint256"
        },
        {
          "internalType": "uint256",
          "name": "deadline",
          "type": "uint256"
        },
        {
          "internalType": "uint8",
          "name": "v",
          "type": "uint8"
        },
        {
          "internalType": "bytes32",
          "name": "r",
          "type": "bytes32"
        },
        {
          "internalType": "bytes32",
          "name": "s",
          "type": "bytes32"
        }
      ],
      "name": "permit",
      "outputs": [],
      "stateMutability": "nonpayable",
      "type": "function"
    },
    {
      "inputs": [
        {
          "internalType": "bytes32",
          "name": "role",
          "type": "bytes32"
        },
        {
          "internalType": "address",
          "name": "account",
          "type": "address"
        }
      ],
      "name": "renounceRole",
      "outputs": [],
      "stateMutability": "nonpayable",
      "type": "function"
    },
    {
      "inputs": [
        {
          "internalType": "bytes32",
          "name": "role",
          "type": "bytes32"
        },
        {
          "internalType": "address",
          "name": "account",
          "type": "address"
        }
      ],
      "name": "revokeRole",
      "outputs": [],
      "stateMutability": "nonpayable",
      "type": "function"
    },
    {
      "inputs": [
        {
          "internalType": "address",
          "name": "_address",
          "type": "address"
        }
      ],
      "name": "setEvo",
      "outputs": [],
      "stateMutability": "nonpayable",
      "type": "function"
    },
    {
      "inputs": [
        {
          "internalType": "address",
          "name": "_address",
          "type": "address"
        }
      ],
      "name": "setFarm",
      "outputs": [],
      "stateMutability": "nonpayable",
      "type": "function"
    },
    {
      "inputs": [
        {
          "internalType": "uint256",
          "name": "_days",
          "type": "uint256"
        }
      ],
      "name": "setVestingPeriod",
      "outputs": [],
      "stateMutability": "nonpayable",
      "type": "function"
    },
    {
      "inputs": [
        {
          "internalType": "bytes4",
          "name": "interfaceId",
          "type": "bytes4"
        }
      ],
      "name": "supportsInterface",
      "outputs": [
        {
          "internalType": "bool",
          "name": "",
          "type": "bool"
        }
      ],
      "stateMutability": "view",
      "type": "function"
    },
    {
      "inputs": [],
      "name": "symbol",
      "outputs": [
        {
          "internalType": "string",
          "name": "",
          "type": "string"
        }
      ],
      "stateMutability": "view",
      "type": "function"
    },
    {
      "inputs": [],
      "name": "totalBurned",
      "outputs": [
        {
          "internalType": "uint256",
          "name": "",
          "type": "uint256"
        }
      ],
      "stateMutability": "view",
      "type": "function"
    },
    {
      "inputs": [],
      "name": "totalSupply",
      "outputs": [
        {
          "internalType": "uint256",
          "name": "",
          "type": "uint256"
        }
      ],
      "stateMutability": "view",
      "type": "function"
    },
    {
      "inputs": [
        {
          "internalType": "address",
          "name": "to",
          "type": "address"
        },
        {
          "internalType": "uint256",
          "name": "amount",
          "type": "uint256"
        }
      ],
      "name": "transfer",
      "outputs": [
        {
          "internalType": "bool",
          "name": "",
          "type": "bool"
        }
      ],
      "stateMutability": "nonpayable",
      "type": "function"
    },
    {
      "inputs": [
        {
          "internalType": "address",
          "name": "from",
          "type": "address"
        },
        {
          "internalType": "address",
          "name": "to",
          "type": "address"
        },
        {
          "internalType": "uint256",
          "name": "amount",
          "type": "uint256"
        }
      ],
      "name": "transferFrom",
      "outputs": [
        {
          "internalType": "bool",
          "name": "",
          "type": "bool"
        }
      ],
      "stateMutability": "nonpayable",
      "type": "function"
    }
  ],
  "bytecode": "0x60806040523480156200001157600080fd5b506200001c62000022565b620000e4565b600054610100900460ff16156200008f5760405162461bcd60e51b815260206004820152602760248201527f496e697469616c697a61626c653a20636f6e747261637420697320696e697469604482015266616c697a696e6760c81b606482015260840160405180910390fd5b60005460ff9081161015620000e2576000805460ff191660ff9081179091556040519081527f7f26b83ff96e1f2b6a682f133852f6798a09c465da95921460cefb38474024989060200160405180910390a15b565b612db080620000f46000396000f3fe608060405234801561001057600080fd5b50600436106102695760003560e01c806367390e9011610151578063a457c2d7116100c3578063d4f26c5111610087578063d4f26c5114610524578063d505accf14610537578063d53913931461054a578063d547741f14610571578063d89135cd14610584578063dd62ed3e1461058d57600080fd5b8063a457c2d7146104ce578063a73d633c146104e1578063a9059cbb146104f4578063b45cc84514610507578063ca3136ad1461051a57600080fd5b80638129fc1c116101155780638129fc1c14610462578063857923c41461046a57806391d148541461049857806395d89b41146104ab578063a217fddf146104b3578063a3fc7963146104bb57600080fd5b806367390e90146103f457806370a08231146103fe57806375b238fc1461042757806379cc67901461043c5780637ecebe001461044f57600080fd5b8063313ce567116101ea57806340c10f19116101ae57806340c10f191461039557806342966c68146103a85780635c975abb146103bb5780635c9ffe4a146103c65780635d7d9350146103d957806365022a34146103ec57600080fd5b8063313ce567146103455780633644e5151461035457806336568abe1461035c578063395093511461036f57806340bee0ed1461038257600080fd5b80630e8ccd8a116102315780630e8ccd8a146102e057806318160ddd146102f357806323b872dd146102fb578063248a9ca31461030e5780632f2ff15d1461033257600080fd5b806301ffc9a71461026e57806303a9f06e1461029657806306fdde03146102a0578063095ea7b3146102b55780630c204d44146102c8575b600080fd5b61028161027c36600461273d565b6105a0565b60405190151581526020015b60405180910390f35b61029e6105d7565b005b6102a861073a565b60405161028d9190612793565b6102816102c33660046127e2565b6107cc565b6102d26101c55481565b60405190815260200161028d565b61029e6102ee3660046128e2565b6107e4565b6035546102d2565b6102816103093660046129a2565b6108bd565b6102d261031c3660046129de565b6000908152610130602052604090206001015490565b61029e6103403660046129f7565b6108e1565b6040516012815260200161028d565b6102d261090c565b61029e61036a3660046129f7565b61091b565b61028161037d3660046127e2565b610999565b61029e6103903660046129de565b6109bb565b61029e6103a33660046127e2565b6109fc565b61029e6103b63660046129de565b610ae8565b60655460ff16610281565b61029e6103d43660046127e2565b610b59565b61029e6103e7366004612a23565b610b8f565b61029e610bcb565b6102d26101c75481565b6102d261040c366004612a23565b6001600160a01b031660009081526033602052604090205490565b6102d2600080516020612d5b83398151915281565b61029e61044a3660046127e2565b610d74565b6102d261045d366004612a23565b610de7565b61029e610e05565b61047d610478366004612a23565b611024565b6040805193845260208401929092529082015260600161028d565b6102816104a63660046129f7565b61105d565b6102a8611089565b6102d2600081565b61029e6104c9366004612a23565b611098565b6102816104dc3660046127e2565b611326565b61029e6104ef366004612a3e565b6113a1565b6102816105023660046127e2565b6113cf565b61029e610515366004612a23565b6113dd565b6102d26101c65481565b61029e610532366004612a23565b6113f4565b61029e610545366004612a68565b611430565b6102d27f9f2df0fed2c77648de5860a4cc508cd0818c85b8b8a1ab4ceeef8d981c8956a681565b61029e61057f3660046129f7565b611594565b610162546102d2565b6102d261059b366004612a3e565b6115ba565b60006001600160e01b03198216637965db0b60e01b14806105d157506301ffc9a760e01b6001600160e01b03198316145b92915050565b6105df6115e5565b60006105ea3361162d565b9050426101c75411610621573360009081526101cb60209081526040808320546101ca9092529091205461061e9190612af1565b90505b3360009081526033602052604090205461063f565b60405180910390fd5b8181101561064b578091505b3360009081526101cb60205260408120805484929061066b908490612b08565b9091555061067b905033836116ed565b6101c85460405163a9059cbb60e01b8152336004820152602481018490526001600160a01b039091169063a9059cbb90604401602060405180830381600087803b1580156106c857600080fd5b505af11580156106dc573d6000803e3d6000fd5b505050506040513d601f19601f820116820180604052508101906107009190612b20565b5060405182815233907fd8138f8a3f377c5259ca548e70e4c2de94f129f5a11036a15b69513cba2b426a9060200160405180910390a25050565b60606036805461074990612b42565b80601f016020809104026020016040519081016040528092919081815260200182805461077590612b42565b80156107c25780601f10610797576101008083540402835291602001916107c2565b820191906000526020600020905b8154815290600101906020018083116107a557829003601f168201915b5050505050905090565b6000336107da818585611847565b5060019392505050565b600080516020612d5b8339815191526107fc8161196b565b815183511461085d5760405162461bcd60e51b815260206004820152602760248201527f41646472657373206c69737420646f6573206e6f74206d6174636820616d6f756044820152661b9d081b1a5cdd60ca1b6064820152608401610636565b60005b83518110156108b7576108a584828151811061087e5761087e612b77565b602002602001015184838151811061089857610898612b77565b6020026020010151610b59565b806108af81612b8d565b915050610860565b50505050565b6000336108cb858285611975565b6108d68585856119e9565b506001949350505050565b600082815261013060205260409020600101546108fd8161196b565b6109078383611bc2565b505050565b6000610916611c49565b905090565b6001600160a01b038116331461098b5760405162461bcd60e51b815260206004820152602f60248201527f416363657373436f6e74726f6c3a2063616e206f6e6c792072656e6f756e636560448201526e103937b632b9903337b91039b2b63360891b6064820152608401610636565b6109958282611cc4565b5050565b6000336107da8185856109ac83836115ba565b6109b69190612b08565b611847565b600080516020612d5b8339815191526109d38161196b565b6109e08262015180612ba8565b6101c68190556101c5546109f49190612b08565b6101c7555050565b7f9f2df0fed2c77648de5860a4cc508cd0818c85b8b8a1ab4ceeef8d981c8956a6610a268161196b565b6001600160a01b03831660009081526101ca6020526040902054610a4b908390612af1565b6001600160a01b03841660009081526101cb602052604081208054909190610a74908490612b08565b90915550506101c8546040516340c10f1960e01b8152306004820152602481018490526001600160a01b03909116906340c10f1990604401600060405180830381600087803b158015610ac657600080fd5b505af1158015610ada573d6000803e3d6000fd5b505050506109078383611d2c565b610af181611e17565b6101c854604051632770a7eb60e21b8152306004820152602481018390526001600160a01b0390911690639dc29fac90604401600060405180830381600087803b158015610b3e57600080fd5b505af1158015610b52573d6000803e3d6000fd5b5050505050565b600080516020612d5b833981519152610b718161196b565b506001600160a01b0390911660009081526101ca6020526040902055565b600080516020612d5b833981519152610ba78161196b565b506101c880546001600160a01b0319166001600160a01b0392909216919091179055565b610bd36115e5565b6000610bde3361162d565b9050426101c75411610c15573360009081526101cb60209081526040808320546101ca90925290912054610c129190612af1565b90505b604051630ad58d2f60e01b8152600160048201526024810182905233604482015273d782cf9f04e24cae4953679ebf45ba34509f105c90630ad58d2f90606401600060405180830381600087803b158015610c6f57600080fd5b505af1158015610c83573d6000803e3d6000fd5b50505050610c9133826116ed565b3360009081526101cb602052604081208054839290610cb1908490612b08565b90915550506101c85460405163a9059cbb60e01b8152336004820152602481018390526001600160a01b039091169063a9059cbb90604401602060405180830381600087803b158015610d0357600080fd5b505af1158015610d17573d6000803e3d6000fd5b505050506040513d601f19601f82011682018060405250810190610d3b9190612b20565b5060405181815233907fd8138f8a3f377c5259ca548e70e4c2de94f129f5a11036a15b69513cba2b426a9060200160405180910390a250565b610d7e8282611e3a565b6101c854604051632770a7eb60e21b8152306004820152602481018390526001600160a01b0390911690639dc29fac90604401600060405180830381600087803b158015610dcb57600080fd5b505af1158015610ddf573d6000803e3d6000fd5b505050505050565b6001600160a01b038116600090815260cb60205260408120546105d1565b600054610100900460ff1615808015610e255750600054600160ff909116105b80610e3f5750303b158015610e3f575060005460ff166001145b610ea25760405162461bcd60e51b815260206004820152602e60248201527f496e697469616c697a61626c653a20636f6e747261637420697320616c72656160448201526d191e481a5b9a5d1a585b1a5e995960921b6064820152608401610636565b6000805460ff191660011790558015610ec5576000805461ff0019166101001790555b610f07604051806040016040528060048152602001637645564f60e01b815250604051806040016040528060048152602001637645564f60e01b815250611e78565b610f0f611ea9565b610f17611ed8565b610f3c604051806040016040528060048152602001637645564f60e01b815250611eff565b610f44611ed8565b610f4f600033611bc2565b610f67600080516020612d5b83398151915233611bc2565b610f917f9f2df0fed2c77648de5860a4cc508cd0818c85b8b8a1ab4ceeef8d981c8956a633611bc2565b63624ca6c86101c58190556301693b006101c6819055610fb091612b08565b6101c7556101c880546001600160a01b0319167342006ab57701251b580bdfc24778c43c9ff589a11790558015611021576000805461ff0019169055604051600181527f7f26b83ff96e1f2b6a682f133852f6798a09c465da95921460cefb38474024989060200160405180910390a15b50565b6001600160a01b03811660009081526101ca60209081526040808320546101cb90925282205490916110558461162d565b929491935050565b6000918252610130602090815260408084206001600160a01b0393909316845291905290205460ff1690565b60606037805461074990612b42565b6110a06115e5565b600080516020612d5b8339815191526110b88161196b565b6040516393f1a40b60e01b8152600160048201526001600160a01b038316602482015273d782cf9f04e24cae4953679ebf45ba34509f105c9060009082906393f1a40b9060440160e06040518083038186803b15801561111757600080fd5b505afa15801561112b573d6000803e3d6000fd5b505050506040513d601f19601f8201168201806040525081019061114f9190612bc7565b51905080156111c257604051630ad58d2f60e01b815260016004820152602481018290526001600160a01b038581166044830152831690630ad58d2f90606401600060405180830381600087803b1580156111a957600080fd5b505af11580156111bd573d6000803e3d6000fd5b505050505b6001600160a01b0384166000908152603360205260409020548061121c5760405162461bcd60e51b8152602060048201526011602482015270139bc81d915593c81a5b881dd85b1b195d607a1b6044820152606401610636565b61122685826116ed565b6001600160a01b03851660009081526101cb60205260408120805483929061124f908490612b08565b90915550506101c85460405163a9059cbb60e01b81526001600160a01b038781166004830152602482018490529091169063a9059cbb90604401602060405180830381600087803b1580156112a357600080fd5b505af11580156112b7573d6000803e3d6000fd5b505050506040513d601f19601f820116820180604052508101906112db9190612b20565b50846001600160a01b03167fd8138f8a3f377c5259ca548e70e4c2de94f129f5a11036a15b69513cba2b426a8260405161131791815260200190565b60405180910390a25050505050565b6000338161133482866115ba565b9050838110156113945760405162461bcd60e51b815260206004820152602560248201527f45524332303a2064656372656173656420616c6c6f77616e63652062656c6f77604482015264207a65726f60d81b6064820152608401610636565b6108d68286868403611847565b60006113ac8161196b565b6001600160a01b03831660009081526101cc602052604090206108b79083611f49565b6000336107da8185856119e9565b60006113e88161196b565b6109076101cd83611f49565b600080516020612d5b83398151915261140c8161196b565b506101c980546001600160a01b0319166001600160a01b0392909216919091179055565b834211156114805760405162461bcd60e51b815260206004820152601d60248201527f45524332305065726d69743a206578706972656420646561646c696e650000006044820152606401610636565b60007f6e71edae12b1b97f4d1f60370fef10105fa2faae0126114a169c64845d6126c98888886114af8c611f65565b6040805160208101969096526001600160a01b0394851690860152929091166060840152608083015260a082015260c0810186905260e001604051602081830303815290604052805190602001209050600061150a82611f8d565b9050600061151a82878787611fdb565b9050896001600160a01b0316816001600160a01b03161461157d5760405162461bcd60e51b815260206004820152601e60248201527f45524332305065726d69743a20696e76616c6964207369676e617475726500006044820152606401610636565b6115888a8a8a611847565b50505050505050505050565b600082815261013060205260409020600101546115b08161196b565b6109078383611cc4565b6001600160a01b03918216600090815260346020908152604080832093909416825291909152205490565b60655460ff161561162b5760405162461bcd60e51b815260206004820152601060248201526f14185d5cd8589b194e881c185d5cd95960821b6044820152606401610636565b565b6101c6546001600160a01b03821660009081526101ca6020526040812054909182916116599190612c4b565b90506000429050426101c7541161167057506101c7545b60006101c554826116819190612af1565b9050600061168f8285612ba8565b6001600160a01b03871660009081526101cb60205260409020549091508110156116bf5750600095945050505050565b6001600160a01b03861660009081526101cb60205260409020546116e39082612af1565b9695505050505050565b6001600160a01b03821661174d5760405162461bcd60e51b815260206004820152602160248201527f45524332303a206275726e2066726f6d20746865207a65726f206164647265736044820152607360f81b6064820152608401610636565b61175982600083612003565b6001600160a01b038216600090815260336020526040902054818110156117cd5760405162461bcd60e51b815260206004820152602260248201527f45524332303a206275726e20616d6f756e7420657863656564732062616c616e604482015261636560f01b6064820152608401610636565b6001600160a01b03831660009081526033602052604081208383039055603580548492906117fc908490612af1565b90915550506040518281526000906001600160a01b038516907fddf252ad1be2c89b69c2b068fc378daa952ba7f163c4a11628f55a4df523b3ef9060200160405180910390a3505050565b6001600160a01b0383166118a95760405162461bcd60e51b8152602060048201526024808201527f45524332303a20617070726f76652066726f6d20746865207a65726f206164646044820152637265737360e01b6064820152608401610636565b6001600160a01b03821661190a5760405162461bcd60e51b815260206004820152602260248201527f45524332303a20617070726f766520746f20746865207a65726f206164647265604482015261737360f01b6064820152608401610636565b6001600160a01b0383811660008181526034602090815260408083209487168084529482529182902085905590518481527f8c5be1e5ebec7d5bd14f71427d1e84f3dd0314c0f7b2291e5b200ac8c7c3b925910160405180910390a3505050565b61102181336120c9565b600061198184846115ba565b905060001981146108b757818110156119dc5760405162461bcd60e51b815260206004820152601d60248201527f45524332303a20696e73756666696369656e7420616c6c6f77616e63650000006044820152606401610636565b6108b78484848403611847565b6001600160a01b038316611a4d5760405162461bcd60e51b815260206004820152602560248201527f45524332303a207472616e736665722066726f6d20746865207a65726f206164604482015264647265737360d81b6064820152608401610636565b6001600160a01b038216611aaf5760405162461bcd60e51b815260206004820152602360248201527f45524332303a207472616e7366657220746f20746865207a65726f206164647260448201526265737360e81b6064820152608401610636565b611aba838383612003565b6001600160a01b03831660009081526033602052604090205481811015611b325760405162461bcd60e51b815260206004820152602660248201527f45524332303a207472616e7366657220616d6f756e7420657863656564732062604482015265616c616e636560d01b6064820152608401610636565b6001600160a01b03808516600090815260336020526040808220858503905591851681529081208054849290611b69908490612b08565b92505081905550826001600160a01b0316846001600160a01b03167fddf252ad1be2c89b69c2b068fc378daa952ba7f163c4a11628f55a4df523b3ef84604051611bb591815260200190565b60405180910390a36108b7565b611bcc828261105d565b610995576000828152610130602090815260408083206001600160a01b03851684529091529020805460ff19166001179055611c053390565b6001600160a01b0316816001600160a01b0316837f2f8788117e7eff1d82e926ec794901d17c78024a50270940304540a733656f0d60405160405180910390a45050565b60006109167f8b73c3c69bb8fe3d512ecc4cf759cc79239f7b179b0ffacaa9a75d522b39400f611c7860975490565b6098546040805160208101859052908101839052606081018290524660808201523060a082015260009060c0016040516020818303038152906040528051906020012090509392505050565b611cce828261105d565b15610995576000828152610130602090815260408083206001600160a01b0385168085529252808320805460ff1916905551339285917ff6391f5c32d9c69d2a47ea670b442974b53935d1edc7fd64eb21e047a839171b9190a45050565b6001600160a01b038216611d825760405162461bcd60e51b815260206004820152601f60248201527f45524332303a206d696e7420746f20746865207a65726f2061646472657373006044820152606401610636565b611d8e60008383612003565b8060356000828254611da09190612b08565b90915550506001600160a01b03821660009081526033602052604081208054839290611dcd908490612b08565b90915550506040518181526001600160a01b038316906000907fddf252ad1be2c89b69c2b068fc378daa952ba7f163c4a11628f55a4df523b3ef9060200160405180910390a35050565b806101626000828254611e2a9190612b08565b90915550611021905033826116ed565b6001600160a01b0382163314611e5557611e55823383611975565b806101626000828254611e689190612b08565b90915550610995905082826116ed565b600054610100900460ff16611e9f5760405162461bcd60e51b815260040161063690612c6d565b610995828261212d565b600054610100900460ff16611ed05760405162461bcd60e51b815260040161063690612c6d565b61162b61217b565b600054610100900460ff1661162b5760405162461bcd60e51b815260040161063690612c6d565b600054610100900460ff16611f265760405162461bcd60e51b815260040161063690612c6d565b61102181604051806040016040528060018152602001603160f81b8152506121ae565b6000611f5e836001600160a01b0384166121ef565b9392505050565b6001600160a01b038116600090815260cb602052604090208054600181018255905b50919050565b60006105d1611f9a611c49565b8360405161190160f01b6020820152602281018390526042810182905260009060620160405160208183030381529060405280519060200120905092915050565b6000806000611fec8787878761223e565b91509150611ff98161232b565b5095945050505050565b61200b6115e5565b82826120196101cd826124e6565b8061202b575061202b6101cd836124e6565b8061205457506001600160a01b03821660009081526101cc6020526040902061205490826124e6565b8061206657506001600160a01b038216155b8061207857506001600160a01b038116155b6120c45760405162461bcd60e51b815260206004820152601860248201527f7645564f206973206e6f6e2d7472616e7366657261626c6500000000000000006044820152606401610636565b610b52565b6120d3828261105d565b610995576120eb816001600160a01b03166014612508565b6120f6836020612508565b604051602001612107929190612cb8565b60408051601f198184030181529082905262461bcd60e51b825261063691600401612793565b600054610100900460ff166121545760405162461bcd60e51b815260040161063690612c6d565b81516121679060369060208501906126a4565b5080516109079060379060208401906126a4565b600054610100900460ff166121a25760405162461bcd60e51b815260040161063690612c6d565b6065805460ff19169055565b600054610100900460ff166121d55760405162461bcd60e51b815260040161063690612c6d565b815160209283012081519190920120609791909155609855565b6000818152600183016020526040812054612236575081546001818101845560008481526020808220909301849055845484825282860190935260409020919091556105d1565b5060006105d1565b6000807f7fffffffffffffffffffffffffffffff5d576e7357a4501ddfe92f46681b20a08311156122755750600090506003612322565b8460ff16601b1415801561228d57508460ff16601c14155b1561229e5750600090506004612322565b6040805160008082526020820180845289905260ff881692820192909252606081018690526080810185905260019060a0016020604051602081039080840390855afa1580156122f2573d6000803e3d6000fd5b5050604051601f1901519150506001600160a01b03811661231b57600060019250925050612322565b9150600090505b94509492505050565b600081600481111561233f5761233f612d2d565b14156123485750565b600181600481111561235c5761235c612d2d565b14156123aa5760405162461bcd60e51b815260206004820152601860248201527f45434453413a20696e76616c6964207369676e617475726500000000000000006044820152606401610636565b60028160048111156123be576123be612d2d565b141561240c5760405162461bcd60e51b815260206004820152601f60248201527f45434453413a20696e76616c6964207369676e6174757265206c656e677468006044820152606401610636565b600381600481111561242057612420612d2d565b14156124795760405162461bcd60e51b815260206004820152602260248201527f45434453413a20696e76616c6964207369676e6174757265202773272076616c604482015261756560f01b6064820152608401610636565b600481600481111561248d5761248d612d2d565b14156110215760405162461bcd60e51b815260206004820152602260248201527f45434453413a20696e76616c6964207369676e6174757265202776272076616c604482015261756560f01b6064820152608401610636565b6001600160a01b03811660009081526001830160205260408120541515611f5e565b60606000612517836002612ba8565b612522906002612b08565b67ffffffffffffffff81111561253a5761253a61280c565b6040519080825280601f01601f191660200182016040528015612564576020820181803683370190505b509050600360fc1b8160008151811061257f5761257f612b77565b60200101906001600160f81b031916908160001a905350600f60fb1b816001815181106125ae576125ae612b77565b60200101906001600160f81b031916908160001a90535060006125d2846002612ba8565b6125dd906001612b08565b90505b6001811115612655576f181899199a1a9b1b9c1cb0b131b232b360811b85600f166010811061261157612611612b77565b1a60f81b82828151811061262757612627612b77565b60200101906001600160f81b031916908160001a90535060049490941c9361264e81612d43565b90506125e0565b508315611f5e5760405162461bcd60e51b815260206004820181905260248201527f537472696e67733a20686578206c656e67746820696e73756666696369656e746044820152606401610636565b8280546126b090612b42565b90600052602060002090601f0160209004810192826126d25760008555612718565b82601f106126eb57805160ff1916838001178555612718565b82800160010185558215612718579182015b828111156127185782518255916020019190600101906126fd565b50612724929150612728565b5090565b5b808211156127245760008155600101612729565b60006020828403121561274f57600080fd5b81356001600160e01b031981168114611f5e57600080fd5b60005b8381101561278257818101518382015260200161276a565b838111156108b75750506000910152565b60208152600082518060208401526127b2816040850160208701612767565b601f01601f19169190910160400192915050565b80356001600160a01b03811681146127dd57600080fd5b919050565b600080604083850312156127f557600080fd5b6127fe836127c6565b946020939093013593505050565b634e487b7160e01b600052604160045260246000fd5b604051601f8201601f1916810167ffffffffffffffff8111828210171561284b5761284b61280c565b604052919050565b600067ffffffffffffffff82111561286d5761286d61280c565b5060051b60200190565b600082601f83011261288857600080fd5b8135602061289d61289883612853565b612822565b82815260059290921b840181019181810190868411156128bc57600080fd5b8286015b848110156128d757803583529183019183016128c0565b509695505050505050565b600080604083850312156128f557600080fd5b823567ffffffffffffffff8082111561290d57600080fd5b818501915085601f83011261292157600080fd5b8135602061293161289883612853565b82815260059290921b8401810191818101908984111561295057600080fd5b948201945b8386101561297557612966866127c6565b82529482019490820190612955565b9650508601359250508082111561298b57600080fd5b5061299885828601612877565b9150509250929050565b6000806000606084860312156129b757600080fd5b6129c0846127c6565b92506129ce602085016127c6565b9150604084013590509250925092565b6000602082840312156129f057600080fd5b5035919050565b60008060408385031215612a0a57600080fd5b82359150612a1a602084016127c6565b90509250929050565b600060208284031215612a3557600080fd5b611f5e826127c6565b60008060408385031215612a5157600080fd5b612a5a836127c6565b9150612a1a602084016127c6565b600080600080600080600060e0888a031215612a8357600080fd5b612a8c886127c6565b9650612a9a602089016127c6565b95506040880135945060608801359350608088013560ff81168114612abe57600080fd5b9699959850939692959460a0840135945060c09093013592915050565b634e487b7160e01b600052601160045260246000fd5b600082821015612b0357612b03612adb565b500390565b60008219821115612b1b57612b1b612adb565b500190565b600060208284031215612b3257600080fd5b81518015158114611f5e57600080fd5b600181811c90821680612b5657607f821691505b60208210811415611f8757634e487b7160e01b600052602260045260246000fd5b634e487b7160e01b600052603260045260246000fd5b6000600019821415612ba157612ba1612adb565b5060010190565b6000816000190483118215151615612bc257612bc2612adb565b500290565b600060e08284031215612bd957600080fd5b60405160e0810181811067ffffffffffffffff82111715612bfc57612bfc61280c565b8060405250825181526020830151602082015260408301516040820152606083015160608201526080830151608082015260a083015160a082015260c083015160c08201528091505092915050565b600082612c6857634e487b7160e01b600052601260045260246000fd5b500490565b6020808252602b908201527f496e697469616c697a61626c653a20636f6e7472616374206973206e6f74206960408201526a6e697469616c697a696e6760a81b606082015260800190565b7f416363657373436f6e74726f6c3a206163636f756e7420000000000000000000815260008351612cf0816017850160208801612767565b7001034b99036b4b9b9b4b733903937b6329607d1b6017918401918201528351612d21816028840160208801612767565b01602801949350505050565b634e487b7160e01b600052602160045260246000fd5b600081612d5257612d52612adb565b50600019019056fea49807205ce4d355092ef5a8a18f56e8913cf4a201fbe287825b095693c21775a2646970667358221220067f7f817273e6585a88e2d9aeec07097130b4b946144a00942edce5f38944ba64736f6c63430008090033",
  "linkReferences": {},
  "deployedLinkReferences": {}
}