{
  "_format": "hh-sol-artifact-1",
  "contractName": "vEVOUpgradeable",
  "sourceName": "contracts/ERC20/vEVOUpgradeable.sol",
  "abi": [
    {
      "inputs": [],
      "stateMutability": "nonpayable",
      "type": "constructor"
    },
    {
      "anonymous": false,
      "inputs": [
        {
          "indexed": true,
          "internalType": "address",
          "name": "owner",
          "type": "address"
        },
        {
          "indexed": true,
          "internalType": "address",
          "name": "spender",
          "type": "address"
        },
        {
          "indexed": false,
          "internalType": "uint256",
          "name": "value",
          "type": "uint256"
        }
      ],
      "name": "Approval",
      "type": "event"
    },
    {
      "anonymous": false,
      "inputs": [
        {
          "indexed": true,
          "internalType": "address",
          "name": "from",
          "type": "address"
        },
        {
          "indexed": false,
          "internalType": "uint256",
          "name": "amount",
          "type": "uint256"
        }
      ],
      "name": "Claimed",
      "type": "event"
    },
    {
      "anonymous": false,
      "inputs": [
        {
          "indexed": false,
          "internalType": "uint8",
          "name": "version",
          "type": "uint8"
        }
      ],
      "name": "Initialized",
      "type": "event"
    },
    {
      "anonymous": false,
      "inputs": [
        {
          "indexed": false,
          "internalType": "address",
          "name": "account",
          "type": "address"
        }
      ],
      "name": "Paused",
      "type": "event"
    },
    {
      "anonymous": false,
      "inputs": [
        {
          "indexed": true,
          "internalType": "bytes32",
          "name": "role",
          "type": "bytes32"
        },
        {
          "indexed": true,
          "internalType": "bytes32",
          "name": "previousAdminRole",
          "type": "bytes32"
        },
        {
          "indexed": true,
          "internalType": "bytes32",
          "name": "newAdminRole",
          "type": "bytes32"
        }
      ],
      "name": "RoleAdminChanged",
      "type": "event"
    },
    {
      "anonymous": false,
      "inputs": [
        {
          "indexed": true,
          "internalType": "bytes32",
          "name": "role",
          "type": "bytes32"
        },
        {
          "indexed": true,
          "internalType": "address",
          "name": "account",
          "type": "address"
        },
        {
          "indexed": true,
          "internalType": "address",
          "name": "sender",
          "type": "address"
        }
      ],
      "name": "RoleGranted",
      "type": "event"
    },
    {
      "anonymous": false,
      "inputs": [
        {
          "indexed": true,
          "internalType": "bytes32",
          "name": "role",
          "type": "bytes32"
        },
        {
          "indexed": true,
          "internalType": "address",
          "name": "account",
          "type": "address"
        },
        {
          "indexed": true,
          "internalType": "address",
          "name": "sender",
          "type": "address"
        }
      ],
      "name": "RoleRevoked",
      "type": "event"
    },
    {
      "anonymous": false,
      "inputs": [
        {
          "indexed": true,
          "internalType": "address",
          "name": "from",
          "type": "address"
        },
        {
          "indexed": true,
          "internalType": "address",
          "name": "to",
          "type": "address"
        },
        {
          "indexed": false,
          "internalType": "uint256",
          "name": "value",
          "type": "uint256"
        }
      ],
      "name": "Transfer",
      "type": "event"
    },
    {
      "anonymous": false,
      "inputs": [
        {
          "indexed": false,
          "internalType": "address",
          "name": "account",
          "type": "address"
        }
      ],
      "name": "Unpaused",
      "type": "event"
    },
    {
      "inputs": [],
      "name": "ADMIN_ROLE",
      "outputs": [
        {
          "internalType": "bytes32",
          "name": "",
          "type": "bytes32"
        }
      ],
      "stateMutability": "view",
      "type": "function"
    },
    {
      "inputs": [],
      "name": "DEFAULT_ADMIN_ROLE",
      "outputs": [
        {
          "internalType": "bytes32",
          "name": "",
          "type": "bytes32"
        }
      ],
      "stateMutability": "view",
      "type": "function"
    },
    {
      "inputs": [],
      "name": "DOMAIN_SEPARATOR",
      "outputs": [
        {
          "internalType": "bytes32",
          "name": "",
          "type": "bytes32"
        }
      ],
      "stateMutability": "view",
      "type": "function"
    },
    {
      "inputs": [],
      "name": "GENESIS_TIMESTAMP",
      "outputs": [
        {
          "internalType": "uint256",
          "name": "",
          "type": "uint256"
        }
      ],
      "stateMutability": "view",
      "type": "function"
    },
    {
      "inputs": [],
      "name": "MINTER_ROLE",
      "outputs": [
        {
          "internalType": "bytes32",
          "name": "",
          "type": "bytes32"
        }
      ],
      "stateMutability": "view",
      "type": "function"
    },
    {
      "inputs": [],
      "name": "OMEGA_TIMESTAMP",
      "outputs": [
        {
          "internalType": "uint256",
          "name": "",
          "type": "uint256"
        }
      ],
      "stateMutability": "view",
      "type": "function"
    },
    {
      "inputs": [],
      "name": "VESTING_PERIOD_SECONDS",
      "outputs": [
        {
          "internalType": "uint256",
          "name": "",
          "type": "uint256"
        }
      ],
      "stateMutability": "view",
      "type": "function"
    },
    {
      "inputs": [
        {
          "internalType": "address",
          "name": "to",
          "type": "address"
        }
      ],
      "name": "addGlobalWhitelist",
      "outputs": [],
      "stateMutability": "nonpayable",
      "type": "function"
    },
    {
      "inputs": [
        {
          "internalType": "address",
          "name": "_address",
          "type": "address"
        },
        {
          "internalType": "uint256",
          "name": "amount",
          "type": "uint256"
        }
      ],
      "name": "addInitialBalance",
      "outputs": [],
      "stateMutability": "nonpayable",
      "type": "function"
    },
    {
      "inputs": [
        {
          "internalType": "address",
          "name": "from",
          "type": "address"
        },
        {
          "internalType": "address",
          "name": "to",
          "type": "address"
        }
      ],
      "name": "addWhitelist",
      "outputs": [],
      "stateMutability": "nonpayable",
      "type": "function"
    },
    {
      "inputs": [
        {
          "internalType": "address",
          "name": "owner",
          "type": "address"
        },
        {
          "internalType": "address",
          "name": "spender",
          "type": "address"
        }
      ],
      "name": "allowance",
      "outputs": [
        {
          "internalType": "uint256",
          "name": "",
          "type": "uint256"
        }
      ],
      "stateMutability": "view",
      "type": "function"
    },
    {
      "inputs": [
        {
          "internalType": "address",
          "name": "spender",
          "type": "address"
        },
        {
          "internalType": "uint256",
          "name": "amount",
          "type": "uint256"
        }
      ],
      "name": "approve",
      "outputs": [
        {
          "internalType": "bool",
          "name": "",
          "type": "bool"
        }
      ],
      "stateMutability": "nonpayable",
      "type": "function"
    },
    {
      "inputs": [
        {
          "internalType": "address",
          "name": "account",
          "type": "address"
        }
      ],
      "name": "balanceOf",
      "outputs": [
        {
          "internalType": "uint256",
          "name": "",
          "type": "uint256"
        }
      ],
      "stateMutability": "view",
      "type": "function"
    },
    {
      "inputs": [
        {
          "internalType": "address[]",
          "name": "addresses",
          "type": "address[]"
        },
        {
          "internalType": "uint256[]",
          "name": "amounts",
          "type": "uint256[]"
        }
      ],
      "name": "batchAddInitialBalance",
      "outputs": [],
      "stateMutability": "nonpayable",
      "type": "function"
    },
    {
      "inputs": [
        {
          "internalType": "uint256",
          "name": "amount",
          "type": "uint256"
        }
      ],
      "name": "burn",
      "outputs": [],
      "stateMutability": "nonpayable",
      "type": "function"
    },
    {
      "inputs": [
        {
          "internalType": "address",
          "name": "account",
          "type": "address"
        },
        {
          "internalType": "uint256",
          "name": "amount",
          "type": "uint256"
        }
      ],
      "name": "burnFrom",
      "outputs": [],
      "stateMutability": "nonpayable",
      "type": "function"
    },
    {
      "inputs": [],
      "name": "claimPending",
      "outputs": [],
      "stateMutability": "nonpayable",
      "type": "function"
    },
    {
      "inputs": [],
      "name": "claimPendingFromInvestor",
      "outputs": [],
      "stateMutability": "nonpayable",
      "type": "function"
    },
    {
      "inputs": [],
      "name": "decimals",
      "outputs": [
        {
          "internalType": "uint8",
          "name": "",
          "type": "uint8"
        }
      ],
      "stateMutability": "view",
      "type": "function"
    },
    {
      "inputs": [
        {
          "internalType": "address",
          "name": "spender",
          "type": "address"
        },
        {
          "internalType": "uint256",
          "name": "subtractedValue",
          "type": "uint256"
        }
      ],
      "name": "decreaseAllowance",
      "outputs": [
        {
          "internalType": "bool",
          "name": "",
          "type": "bool"
        }
      ],
      "stateMutability": "nonpayable",
      "type": "function"
    },
    {
      "inputs": [
        {
          "internalType": "bytes32",
          "name": "role",
          "type": "bytes32"
        }
      ],
      "name": "getRoleAdmin",
      "outputs": [
        {
          "internalType": "bytes32",
          "name": "",
          "type": "bytes32"
        }
      ],
      "stateMutability": "view",
      "type": "function"
    },
    {
      "inputs": [
        {
          "internalType": "address",
          "name": "_address",
          "type": "address"
        }
      ],
      "name": "getWalletData",
      "outputs": [
        {
          "internalType": "uint256",
          "name": "total",
          "type": "uint256"
        },
        {
          "internalType": "uint256",
          "name": "claimed",
          "type": "uint256"
        },
        {
          "internalType": "uint256",
          "name": "pending",
          "type": "uint256"
        }
      ],
      "stateMutability": "view",
      "type": "function"
    },
    {
      "inputs": [
        {
          "internalType": "bytes32",
          "name": "role",
          "type": "bytes32"
        },
        {
          "internalType": "address",
          "name": "account",
          "type": "address"
        }
      ],
      "name": "grantRole",
      "outputs": [],
      "stateMutability": "nonpayable",
      "type": "function"
    },
    {
      "inputs": [
        {
          "internalType": "bytes32",
          "name": "role",
          "type": "bytes32"
        },
        {
          "internalType": "address",
          "name": "account",
          "type": "address"
        }
      ],
      "name": "hasRole",
      "outputs": [
        {
          "internalType": "bool",
          "name": "",
          "type": "bool"
        }
      ],
      "stateMutability": "view",
      "type": "function"
    },
    {
      "inputs": [
        {
          "internalType": "address",
          "name": "spender",
          "type": "address"
        },
        {
          "internalType": "uint256",
          "name": "addedValue",
          "type": "uint256"
        }
      ],
      "name": "increaseAllowance",
      "outputs": [
        {
          "internalType": "bool",
          "name": "",
          "type": "bool"
        }
      ],
      "stateMutability": "nonpayable",
      "type": "function"
    },
    {
      "inputs": [],
      "name": "initialize",
      "outputs": [],
      "stateMutability": "nonpayable",
      "type": "function"
    },
    {
      "inputs": [
        {
          "internalType": "address",
          "name": "account",
          "type": "address"
        },
        {
          "internalType": "uint256",
          "name": "amount",
          "type": "uint256"
        }
      ],
      "name": "mint",
      "outputs": [],
      "stateMutability": "nonpayable",
      "type": "function"
    },
    {
      "inputs": [],
      "name": "name",
      "outputs": [
        {
          "internalType": "string",
          "name": "",
          "type": "string"
        }
      ],
      "stateMutability": "view",
      "type": "function"
    },
    {
      "inputs": [
        {
          "internalType": "address",
          "name": "owner",
          "type": "address"
        }
      ],
      "name": "nonces",
      "outputs": [
        {
          "internalType": "uint256",
          "name": "",
          "type": "uint256"
        }
      ],
      "stateMutability": "view",
      "type": "function"
    },
    {
      "inputs": [],
      "name": "paused",
      "outputs": [
        {
          "internalType": "bool",
          "name": "",
          "type": "bool"
        }
      ],
      "stateMutability": "view",
      "type": "function"
    },
    {
      "inputs": [
        {
          "internalType": "address",
          "name": "owner",
          "type": "address"
        },
        {
          "internalType": "address",
          "name": "spender",
          "type": "address"
        },
        {
          "internalType": "uint256",
          "name": "value",
          "type": "uint256"
        },
        {
          "internalType": "uint256",
          "name": "deadline",
          "type": "uint256"
        },
        {
          "internalType": "uint8",
          "name": "v",
          "type": "uint8"
        },
        {
          "internalType": "bytes32",
          "name": "r",
          "type": "bytes32"
        },
        {
          "internalType": "bytes32",
          "name": "s",
          "type": "bytes32"
        }
      ],
      "name": "permit",
      "outputs": [],
      "stateMutability": "nonpayable",
      "type": "function"
    },
    {
      "inputs": [
        {
          "internalType": "bytes32",
          "name": "role",
          "type": "bytes32"
        },
        {
          "internalType": "address",
          "name": "account",
          "type": "address"
        }
      ],
      "name": "renounceRole",
      "outputs": [],
      "stateMutability": "nonpayable",
      "type": "function"
    },
    {
      "inputs": [
        {
          "internalType": "bytes32",
          "name": "role",
          "type": "bytes32"
        },
        {
          "internalType": "address",
          "name": "account",
          "type": "address"
        }
      ],
      "name": "revokeRole",
      "outputs": [],
      "stateMutability": "nonpayable",
      "type": "function"
    },
    {
      "inputs": [
        {
          "internalType": "address",
          "name": "_address",
          "type": "address"
        }
      ],
      "name": "setEvo",
      "outputs": [],
      "stateMutability": "nonpayable",
      "type": "function"
    },
    {
      "inputs": [
        {
          "internalType": "address",
          "name": "_address",
          "type": "address"
        }
      ],
      "name": "setFarm",
      "outputs": [],
      "stateMutability": "nonpayable",
      "type": "function"
    },
    {
      "inputs": [
        {
          "internalType": "uint256",
          "name": "_days",
          "type": "uint256"
        }
      ],
      "name": "setVestingPeriod",
      "outputs": [],
      "stateMutability": "nonpayable",
      "type": "function"
    },
    {
      "inputs": [
        {
          "internalType": "bytes4",
          "name": "interfaceId",
          "type": "bytes4"
        }
      ],
      "name": "supportsInterface",
      "outputs": [
        {
          "internalType": "bool",
          "name": "",
          "type": "bool"
        }
      ],
      "stateMutability": "view",
      "type": "function"
    },
    {
      "inputs": [],
      "name": "symbol",
      "outputs": [
        {
          "internalType": "string",
          "name": "",
          "type": "string"
        }
      ],
      "stateMutability": "view",
      "type": "function"
    },
    {
      "inputs": [],
      "name": "totalBurned",
      "outputs": [
        {
          "internalType": "uint256",
          "name": "",
          "type": "uint256"
        }
      ],
      "stateMutability": "view",
      "type": "function"
    },
    {
      "inputs": [],
      "name": "totalSupply",
      "outputs": [
        {
          "internalType": "uint256",
          "name": "",
          "type": "uint256"
        }
      ],
      "stateMutability": "view",
      "type": "function"
    },
    {
      "inputs": [
        {
          "internalType": "address",
          "name": "to",
          "type": "address"
        },
        {
          "internalType": "uint256",
          "name": "amount",
          "type": "uint256"
        }
      ],
      "name": "transfer",
      "outputs": [
        {
          "internalType": "bool",
          "name": "",
          "type": "bool"
        }
      ],
      "stateMutability": "nonpayable",
      "type": "function"
    },
    {
      "inputs": [
        {
          "internalType": "address",
          "name": "from",
          "type": "address"
        },
        {
          "internalType": "address",
          "name": "to",
          "type": "address"
        },
        {
          "internalType": "uint256",
          "name": "amount",
          "type": "uint256"
        }
      ],
      "name": "transferFrom",
      "outputs": [
        {
          "internalType": "bool",
          "name": "",
          "type": "bool"
        }
      ],
      "stateMutability": "nonpayable",
      "type": "function"
    }
  ],
  "bytecode": "0x60806040523480156200001157600080fd5b506200001c62000022565b620000e4565b600054610100900460ff16156200008f5760405162461bcd60e51b815260206004820152602760248201527f496e697469616c697a61626c653a20636f6e747261637420697320696e697469604482015266616c697a696e6760c81b606482015260840160405180910390fd5b60005460ff9081161015620000e2576000805460ff191660ff9081179091556040519081527f7f26b83ff96e1f2b6a682f133852f6798a09c465da95921460cefb38474024989060200160405180910390a15b565b612a7780620000f46000396000f3fe608060405234801561001057600080fd5b506004361061025e5760003560e01c806367390e9011610146578063a457c2d7116100c3578063d4f26c5111610087578063d4f26c5114610506578063d505accf14610519578063d53913931461052c578063d547741f14610553578063d89135cd14610566578063dd62ed3e1461056f57600080fd5b8063a457c2d7146104b0578063a73d633c146104c3578063a9059cbb146104d6578063b45cc845146104e9578063ca3136ad146104fc57600080fd5b80638129fc1c1161010a5780638129fc1c14610457578063857923c41461045f57806391d148541461048d57806395d89b41146104a0578063a217fddf146104a857600080fd5b806367390e90146103e957806370a08231146103f357806375b238fc1461041c57806379cc6790146104315780637ecebe001461044457600080fd5b8063313ce567116101df57806340c10f19116101a357806340c10f191461038a57806342966c681461039d5780635c975abb146103b05780635c9ffe4a146103bb5780635d7d9350146103ce57806365022a34146103e157600080fd5b8063313ce5671461033a5780633644e5151461034957806336568abe14610351578063395093511461036457806340bee0ed1461037757600080fd5b80630e8ccd8a116102265780630e8ccd8a146102d557806318160ddd146102e857806323b872dd146102f0578063248a9ca3146103035780632f2ff15d1461032757600080fd5b806301ffc9a71461026357806303a9f06e1461028b57806306fdde0314610295578063095ea7b3146102aa5780630c204d44146102bd575b600080fd5b610276610271366004612488565b610582565b60405190151581526020015b60405180910390f35b6102936105b9565b005b61029d610727565b60405161028291906124de565b6102766102b836600461252d565b6107b9565b6102c76101c55481565b604051908152602001610282565b6102936102e336600461262d565b6107d1565b6035546102c7565b6102766102fe3660046126ed565b6108aa565b6102c7610311366004612729565b6000908152610130602052604090206001015490565b610293610335366004612742565b6108ce565b60405160128152602001610282565b6102c76108f9565b61029361035f366004612742565b610908565b61027661037236600461252d565b610986565b610293610385366004612729565b6109a8565b61029361039836600461252d565b6109e9565b6102936103ab366004612729565b610ad5565b60655460ff16610276565b6102936103c936600461252d565b610b46565b6102936103dc36600461276e565b610b7c565b610293610bb8565b6102c76101c75481565b6102c761040136600461276e565b6001600160a01b031660009081526033602052604090205490565b6102c7600080516020612a2283398151915281565b61029361043f36600461252d565b610d7b565b6102c761045236600461276e565b610dee565b610293610e0c565b61047261046d36600461276e565b61102b565b60408051938452602084019290925290820152606001610282565b61027661049b366004612742565b611064565b61029d611090565b6102c7600081565b6102766104be36600461252d565b61109f565b6102936104d1366004612789565b61111a565b6102766104e436600461252d565b611148565b6102936104f736600461276e565b611156565b6102c76101c65481565b61029361051436600461276e565b61116d565b6102936105273660046127b3565b6111a9565b6102c77f9f2df0fed2c77648de5860a4cc508cd0818c85b8b8a1ab4ceeef8d981c8956a681565b610293610561366004612742565b61130d565b610162546102c7565b6102c761057d366004612789565b611333565b60006001600160e01b03198216637965db0b60e01b14806105b357506301ffc9a760e01b6001600160e01b03198316145b92915050565b6105c161135e565b60006105cc336113a6565b9050426101c75411610603573360009081526101cb60209081526040808320546101ca90925290912054610600919061283c565b90505b600061060e33610401565b905061061e565b60405180910390fd5b8181101561062a578091505b3360009081526101cb60205260408120805484929061064a908490612853565b9091555061065a90503383611439565b6101c8546001600160a01b031663a9059cbb336040516001600160e01b031960e084901b1681526001600160a01b03909116600482015260248101859052604401602060405180830381600087803b1580156106b557600080fd5b505af11580156106c9573d6000803e3d6000fd5b505050506040513d601f19601f820116820180604052508101906106ed919061286b565b5060405182815233907fd8138f8a3f377c5259ca548e70e4c2de94f129f5a11036a15b69513cba2b426a9060200160405180910390a25050565b6060603680546107369061288d565b80601f01602080910402602001604051908101604052809291908181526020018280546107629061288d565b80156107af5780601f10610784576101008083540402835291602001916107af565b820191906000526020600020905b81548152906001019060200180831161079257829003601f168201915b5050505050905090565b6000336107c7818585611593565b5060019392505050565b600080516020612a228339815191526107e9816116b7565b815183511461084a5760405162461bcd60e51b815260206004820152602760248201527f41646472657373206c69737420646f6573206e6f74206d6174636820616d6f756044820152661b9d081b1a5cdd60ca1b6064820152608401610615565b60005b83518110156108a45761089284828151811061086b5761086b6128c2565b6020026020010151848381518110610885576108856128c2565b6020026020010151610b46565b8061089c816128d8565b91505061084d565b50505050565b6000336108b88582856116c1565b6108c3858585611735565b506001949350505050565b600082815261013060205260409020600101546108ea816116b7565b6108f4838361190e565b505050565b6000610903611995565b905090565b6001600160a01b03811633146109785760405162461bcd60e51b815260206004820152602f60248201527f416363657373436f6e74726f6c3a2063616e206f6e6c792072656e6f756e636560448201526e103937b632b9903337b91039b2b63360891b6064820152608401610615565b6109828282611a10565b5050565b6000336107c78185856109998383611333565b6109a39190612853565b611593565b600080516020612a228339815191526109c0816116b7565b6109cd82620151806128f3565b6101c68190556101c5546109e19190612853565b6101c7555050565b7f9f2df0fed2c77648de5860a4cc508cd0818c85b8b8a1ab4ceeef8d981c8956a6610a13816116b7565b6001600160a01b03831660009081526101ca6020526040902054610a3890839061283c565b6001600160a01b03841660009081526101cb602052604081208054909190610a61908490612853565b90915550506101c8546040516340c10f1960e01b8152306004820152602481018490526001600160a01b03909116906340c10f1990604401600060405180830381600087803b158015610ab357600080fd5b505af1158015610ac7573d6000803e3d6000fd5b505050506108f48383611a78565b610ade81611b63565b6101c854604051632770a7eb60e21b8152306004820152602481018390526001600160a01b0390911690639dc29fac90604401600060405180830381600087803b158015610b2b57600080fd5b505af1158015610b3f573d6000803e3d6000fd5b5050505050565b600080516020612a22833981519152610b5e816116b7565b506001600160a01b0390911660009081526101ca6020526040902055565b600080516020612a22833981519152610b94816116b7565b506101c880546001600160a01b0319166001600160a01b0392909216919091179055565b610bc061135e565b6000610bcb336113a6565b9050426101c75411610c02573360009081526101cb60209081526040808320546101ca90925290912054610bff919061283c565b90505b60408051630ad58d2f60e01b81526001600482015260248101839052336044820152905173d782cf9f04e24cae4953679ebf45ba34509f105c91630ad58d2f91606480830192600092919082900301818387803b158015610c6257600080fd5b505af1158015610c76573d6000803e3d6000fd5b50505050610c8a610c843390565b82611439565b3360009081526101cb602052604081208054839290610caa908490612853565b90915550506101c8546001600160a01b031663a9059cbb336040516001600160e01b031960e084901b1681526001600160a01b03909116600482015260248101849052604401602060405180830381600087803b158015610d0a57600080fd5b505af1158015610d1e573d6000803e3d6000fd5b505050506040513d601f19601f82011682018060405250810190610d42919061286b565b5060405181815233907fd8138f8a3f377c5259ca548e70e4c2de94f129f5a11036a15b69513cba2b426a9060200160405180910390a250565b610d858282611b85565b6101c854604051632770a7eb60e21b8152306004820152602481018390526001600160a01b0390911690639dc29fac90604401600060405180830381600087803b158015610dd257600080fd5b505af1158015610de6573d6000803e3d6000fd5b505050505050565b6001600160a01b038116600090815260cb60205260408120546105b3565b600054610100900460ff1615808015610e2c5750600054600160ff909116105b80610e465750303b158015610e46575060005460ff166001145b610ea95760405162461bcd60e51b815260206004820152602e60248201527f496e697469616c697a61626c653a20636f6e747261637420697320616c72656160448201526d191e481a5b9a5d1a585b1a5e995960921b6064820152608401610615565b6000805460ff191660011790558015610ecc576000805461ff0019166101001790555b610f0e604051806040016040528060048152602001637645564f60e01b815250604051806040016040528060048152602001637645564f60e01b815250611bc3565b610f16611bf4565b610f1e611c23565b610f43604051806040016040528060048152602001637645564f60e01b815250611c4a565b610f4b611c23565b610f5660003361190e565b610f6e600080516020612a228339815191523361190e565b610f987f9f2df0fed2c77648de5860a4cc508cd0818c85b8b8a1ab4ceeef8d981c8956a63361190e565b63624ca6c86101c58190556301693b006101c6819055610fb791612853565b6101c7556101c880546001600160a01b0319167342006ab57701251b580bdfc24778c43c9ff589a11790558015611028576000805461ff0019169055604051600181527f7f26b83ff96e1f2b6a682f133852f6798a09c465da95921460cefb38474024989060200160405180910390a15b50565b6001600160a01b03811660009081526101ca60209081526040808320546101cb909252822054909161105c846113a6565b929491935050565b6000918252610130602090815260408084206001600160a01b0393909316845291905290205460ff1690565b6060603780546107369061288d565b600033816110ad8286611333565b90508381101561110d5760405162461bcd60e51b815260206004820152602560248201527f45524332303a2064656372656173656420616c6c6f77616e63652062656c6f77604482015264207a65726f60d81b6064820152608401610615565b6108c38286868403611593565b6000611125816116b7565b6001600160a01b03831660009081526101cc602052604090206108a49083611c94565b6000336107c7818585611735565b6000611161816116b7565b6108f46101cd83611c94565b600080516020612a22833981519152611185816116b7565b506101c980546001600160a01b0319166001600160a01b0392909216919091179055565b834211156111f95760405162461bcd60e51b815260206004820152601d60248201527f45524332305065726d69743a206578706972656420646561646c696e650000006044820152606401610615565b60007f6e71edae12b1b97f4d1f60370fef10105fa2faae0126114a169c64845d6126c98888886112288c611cb0565b6040805160208101969096526001600160a01b0394851690860152929091166060840152608083015260a082015260c0810186905260e001604051602081830303815290604052805190602001209050600061128382611cd8565b9050600061129382878787611d26565b9050896001600160a01b0316816001600160a01b0316146112f65760405162461bcd60e51b815260206004820152601e60248201527f45524332305065726d69743a20696e76616c6964207369676e617475726500006044820152606401610615565b6113018a8a8a611593565b50505050505050505050565b60008281526101306020526040902060010154611329816116b7565b6108f48383611a10565b6001600160a01b03918216600090815260346020908152604080832093909416825291909152205490565b60655460ff16156113a45760405162461bcd60e51b815260206004820152601060248201526f14185d5cd8589b194e881c185d5cd95960821b6044820152606401610615565b565b6101c6546001600160a01b03821660009081526101ca6020526040812054909182916113d29190612912565b90506000429050426101c754116113e957506101c7545b60006101c554826113fa919061283c565b9050600061140882856128f3565b6001600160a01b03871660009081526101cb602052604090205490915061142f908261283c565b9695505050505050565b6001600160a01b0382166114995760405162461bcd60e51b815260206004820152602160248201527f45524332303a206275726e2066726f6d20746865207a65726f206164647265736044820152607360f81b6064820152608401610615565b6114a582600083611d4e565b6001600160a01b038216600090815260336020526040902054818110156115195760405162461bcd60e51b815260206004820152602260248201527f45524332303a206275726e20616d6f756e7420657863656564732062616c616e604482015261636560f01b6064820152608401610615565b6001600160a01b038316600090815260336020526040812083830390556035805484929061154890849061283c565b90915550506040518281526000906001600160a01b038516907fddf252ad1be2c89b69c2b068fc378daa952ba7f163c4a11628f55a4df523b3ef9060200160405180910390a3505050565b6001600160a01b0383166115f55760405162461bcd60e51b8152602060048201526024808201527f45524332303a20617070726f76652066726f6d20746865207a65726f206164646044820152637265737360e01b6064820152608401610615565b6001600160a01b0382166116565760405162461bcd60e51b815260206004820152602260248201527f45524332303a20617070726f766520746f20746865207a65726f206164647265604482015261737360f01b6064820152608401610615565b6001600160a01b0383811660008181526034602090815260408083209487168084529482529182902085905590518481527f8c5be1e5ebec7d5bd14f71427d1e84f3dd0314c0f7b2291e5b200ac8c7c3b925910160405180910390a3505050565b6110288133611e14565b60006116cd8484611333565b905060001981146108a457818110156117285760405162461bcd60e51b815260206004820152601d60248201527f45524332303a20696e73756666696369656e7420616c6c6f77616e63650000006044820152606401610615565b6108a48484848403611593565b6001600160a01b0383166117995760405162461bcd60e51b815260206004820152602560248201527f45524332303a207472616e736665722066726f6d20746865207a65726f206164604482015264647265737360d81b6064820152608401610615565b6001600160a01b0382166117fb5760405162461bcd60e51b815260206004820152602360248201527f45524332303a207472616e7366657220746f20746865207a65726f206164647260448201526265737360e81b6064820152608401610615565b611806838383611d4e565b6001600160a01b0383166000908152603360205260409020548181101561187e5760405162461bcd60e51b815260206004820152602660248201527f45524332303a207472616e7366657220616d6f756e7420657863656564732062604482015265616c616e636560d01b6064820152608401610615565b6001600160a01b038085166000908152603360205260408082208585039055918516815290812080548492906118b5908490612853565b92505081905550826001600160a01b0316846001600160a01b03167fddf252ad1be2c89b69c2b068fc378daa952ba7f163c4a11628f55a4df523b3ef8460405161190191815260200190565b60405180910390a36108a4565b6119188282611064565b610982576000828152610130602090815260408083206001600160a01b03851684529091529020805460ff191660011790556119513390565b6001600160a01b0316816001600160a01b0316837f2f8788117e7eff1d82e926ec794901d17c78024a50270940304540a733656f0d60405160405180910390a45050565b60006109037f8b73c3c69bb8fe3d512ecc4cf759cc79239f7b179b0ffacaa9a75d522b39400f6119c460975490565b6098546040805160208101859052908101839052606081018290524660808201523060a082015260009060c0016040516020818303038152906040528051906020012090509392505050565b611a1a8282611064565b15610982576000828152610130602090815260408083206001600160a01b0385168085529252808320805460ff1916905551339285917ff6391f5c32d9c69d2a47ea670b442974b53935d1edc7fd64eb21e047a839171b9190a45050565b6001600160a01b038216611ace5760405162461bcd60e51b815260206004820152601f60248201527f45524332303a206d696e7420746f20746865207a65726f2061646472657373006044820152606401610615565b611ada60008383611d4e565b8060356000828254611aec9190612853565b90915550506001600160a01b03821660009081526033602052604081208054839290611b19908490612853565b90915550506040518181526001600160a01b038316906000907fddf252ad1be2c89b69c2b068fc378daa952ba7f163c4a11628f55a4df523b3ef9060200160405180910390a35050565b806101626000828254611b769190612853565b90915550611028905033610c84565b6001600160a01b0382163314611ba057611ba08233836116c1565b806101626000828254611bb39190612853565b9091555061098290508282611439565b600054610100900460ff16611bea5760405162461bcd60e51b815260040161061590612934565b6109828282611e78565b600054610100900460ff16611c1b5760405162461bcd60e51b815260040161061590612934565b6113a4611ec6565b600054610100900460ff166113a45760405162461bcd60e51b815260040161061590612934565b600054610100900460ff16611c715760405162461bcd60e51b815260040161061590612934565b61102881604051806040016040528060018152602001603160f81b815250611ef9565b6000611ca9836001600160a01b038416611f3a565b9392505050565b6001600160a01b038116600090815260cb602052604090208054600181018255905b50919050565b60006105b3611ce5611995565b8360405161190160f01b6020820152602281018390526042810182905260009060620160405160208183030381529060405280519060200120905092915050565b6000806000611d3787878787611f89565b91509150611d4481612076565b5095945050505050565b611d5661135e565b8282611d646101cd82612231565b80611d765750611d766101cd83612231565b80611d9f57506001600160a01b03821660009081526101cc60205260409020611d9f9082612231565b80611db157506001600160a01b038216155b80611dc357506001600160a01b038116155b611e0f5760405162461bcd60e51b815260206004820152601860248201527f7645564f206973206e6f6e2d7472616e7366657261626c6500000000000000006044820152606401610615565b610b3f565b611e1e8282611064565b61098257611e36816001600160a01b03166014612253565b611e41836020612253565b604051602001611e5292919061297f565b60408051601f198184030181529082905262461bcd60e51b8252610615916004016124de565b600054610100900460ff16611e9f5760405162461bcd60e51b815260040161061590612934565b8151611eb29060369060208501906123ef565b5080516108f49060379060208401906123ef565b600054610100900460ff16611eed5760405162461bcd60e51b815260040161061590612934565b6065805460ff19169055565b600054610100900460ff16611f205760405162461bcd60e51b815260040161061590612934565b815160209283012081519190920120609791909155609855565b6000818152600183016020526040812054611f81575081546001818101845560008481526020808220909301849055845484825282860190935260409020919091556105b3565b5060006105b3565b6000807f7fffffffffffffffffffffffffffffff5d576e7357a4501ddfe92f46681b20a0831115611fc0575060009050600361206d565b8460ff16601b14158015611fd857508460ff16601c14155b15611fe9575060009050600461206d565b6040805160008082526020820180845289905260ff881692820192909252606081018690526080810185905260019060a0016020604051602081039080840390855afa15801561203d573d6000803e3d6000fd5b5050604051601f1901519150506001600160a01b0381166120665760006001925092505061206d565b9150600090505b94509492505050565b600081600481111561208a5761208a6129f4565b14156120935750565b60018160048111156120a7576120a76129f4565b14156120f55760405162461bcd60e51b815260206004820152601860248201527f45434453413a20696e76616c6964207369676e617475726500000000000000006044820152606401610615565b6002816004811115612109576121096129f4565b14156121575760405162461bcd60e51b815260206004820152601f60248201527f45434453413a20696e76616c6964207369676e6174757265206c656e677468006044820152606401610615565b600381600481111561216b5761216b6129f4565b14156121c45760405162461bcd60e51b815260206004820152602260248201527f45434453413a20696e76616c6964207369676e6174757265202773272076616c604482015261756560f01b6064820152608401610615565b60048160048111156121d8576121d86129f4565b14156110285760405162461bcd60e51b815260206004820152602260248201527f45434453413a20696e76616c6964207369676e6174757265202776272076616c604482015261756560f01b6064820152608401610615565b6001600160a01b03811660009081526001830160205260408120541515611ca9565b606060006122628360026128f3565b61226d906002612853565b67ffffffffffffffff81111561228557612285612557565b6040519080825280601f01601f1916602001820160405280156122af576020820181803683370190505b509050600360fc1b816000815181106122ca576122ca6128c2565b60200101906001600160f81b031916908160001a905350600f60fb1b816001815181106122f9576122f96128c2565b60200101906001600160f81b031916908160001a905350600061231d8460026128f3565b612328906001612853565b90505b60018111156123a0576f181899199a1a9b1b9c1cb0b131b232b360811b85600f166010811061235c5761235c6128c2565b1a60f81b828281518110612372576123726128c2565b60200101906001600160f81b031916908160001a90535060049490941c9361239981612a0a565b905061232b565b508315611ca95760405162461bcd60e51b815260206004820181905260248201527f537472696e67733a20686578206c656e67746820696e73756666696369656e746044820152606401610615565b8280546123fb9061288d565b90600052602060002090601f01602090048101928261241d5760008555612463565b82601f1061243657805160ff1916838001178555612463565b82800160010185558215612463579182015b82811115612463578251825591602001919060010190612448565b5061246f929150612473565b5090565b5b8082111561246f5760008155600101612474565b60006020828403121561249a57600080fd5b81356001600160e01b031981168114611ca957600080fd5b60005b838110156124cd5781810151838201526020016124b5565b838111156108a45750506000910152565b60208152600082518060208401526124fd8160408501602087016124b2565b601f01601f19169190910160400192915050565b80356001600160a01b038116811461252857600080fd5b919050565b6000806040838503121561254057600080fd5b61254983612511565b946020939093013593505050565b634e487b7160e01b600052604160045260246000fd5b604051601f8201601f1916810167ffffffffffffffff8111828210171561259657612596612557565b604052919050565b600067ffffffffffffffff8211156125b8576125b8612557565b5060051b60200190565b600082601f8301126125d357600080fd5b813560206125e86125e38361259e565b61256d565b82815260059290921b8401810191818101908684111561260757600080fd5b8286015b84811015612622578035835291830191830161260b565b509695505050505050565b6000806040838503121561264057600080fd5b823567ffffffffffffffff8082111561265857600080fd5b818501915085601f83011261266c57600080fd5b8135602061267c6125e38361259e565b82815260059290921b8401810191818101908984111561269b57600080fd5b948201945b838610156126c0576126b186612511565b825294820194908201906126a0565b965050860135925050808211156126d657600080fd5b506126e3858286016125c2565b9150509250929050565b60008060006060848603121561270257600080fd5b61270b84612511565b925061271960208501612511565b9150604084013590509250925092565b60006020828403121561273b57600080fd5b5035919050565b6000806040838503121561275557600080fd5b8235915061276560208401612511565b90509250929050565b60006020828403121561278057600080fd5b611ca982612511565b6000806040838503121561279c57600080fd5b6127a583612511565b915061276560208401612511565b600080600080600080600060e0888a0312156127ce57600080fd5b6127d788612511565b96506127e560208901612511565b95506040880135945060608801359350608088013560ff8116811461280957600080fd5b9699959850939692959460a0840135945060c09093013592915050565b634e487b7160e01b600052601160045260246000fd5b60008282101561284e5761284e612826565b500390565b6000821982111561286657612866612826565b500190565b60006020828403121561287d57600080fd5b81518015158114611ca957600080fd5b600181811c908216806128a157607f821691505b60208210811415611cd257634e487b7160e01b600052602260045260246000fd5b634e487b7160e01b600052603260045260246000fd5b60006000198214156128ec576128ec612826565b5060010190565b600081600019048311821515161561290d5761290d612826565b500290565b60008261292f57634e487b7160e01b600052601260045260246000fd5b500490565b6020808252602b908201527f496e697469616c697a61626c653a20636f6e7472616374206973206e6f74206960408201526a6e697469616c697a696e6760a81b606082015260800190565b7f416363657373436f6e74726f6c3a206163636f756e74200000000000000000008152600083516129b78160178501602088016124b2565b7001034b99036b4b9b9b4b733903937b6329607d1b60179184019182015283516129e88160288401602088016124b2565b01602801949350505050565b634e487b7160e01b600052602160045260246000fd5b600081612a1957612a19612826565b50600019019056fea49807205ce4d355092ef5a8a18f56e8913cf4a201fbe287825b095693c21775a264697066735822122034763b04558a2eeb2a188ee0418e7e6ee791739a0d8ea5c7d7668e2ed994af5064736f6c63430008090033",
  "linkReferences": {},
  "deployedLinkReferences": {}
}