{
  "_format": "hh-sol-artifact-1",
  "contractName": "vEVOUpgradeable",
  "sourceName": "contracts/ERC20/vEVOUpgradeable.sol",
  "abi": [
    {
      "inputs": [],
      "stateMutability": "nonpayable",
      "type": "constructor"
    },
    {
      "anonymous": false,
      "inputs": [
        {
          "indexed": true,
          "internalType": "address",
          "name": "owner",
          "type": "address"
        },
        {
          "indexed": true,
          "internalType": "address",
          "name": "spender",
          "type": "address"
        },
        {
          "indexed": false,
          "internalType": "uint256",
          "name": "value",
          "type": "uint256"
        }
      ],
      "name": "Approval",
      "type": "event"
    },
    {
      "anonymous": false,
      "inputs": [
        {
          "indexed": true,
          "internalType": "address",
          "name": "from",
          "type": "address"
        },
        {
          "indexed": false,
          "internalType": "uint256",
          "name": "amount",
          "type": "uint256"
        }
      ],
      "name": "Claimed",
      "type": "event"
    },
    {
      "anonymous": false,
      "inputs": [
        {
          "indexed": false,
          "internalType": "uint8",
          "name": "version",
          "type": "uint8"
        }
      ],
      "name": "Initialized",
      "type": "event"
    },
    {
      "anonymous": false,
      "inputs": [
        {
          "indexed": false,
          "internalType": "address",
          "name": "account",
          "type": "address"
        }
      ],
      "name": "Paused",
      "type": "event"
    },
    {
      "anonymous": false,
      "inputs": [
        {
          "indexed": true,
          "internalType": "bytes32",
          "name": "role",
          "type": "bytes32"
        },
        {
          "indexed": true,
          "internalType": "bytes32",
          "name": "previousAdminRole",
          "type": "bytes32"
        },
        {
          "indexed": true,
          "internalType": "bytes32",
          "name": "newAdminRole",
          "type": "bytes32"
        }
      ],
      "name": "RoleAdminChanged",
      "type": "event"
    },
    {
      "anonymous": false,
      "inputs": [
        {
          "indexed": true,
          "internalType": "bytes32",
          "name": "role",
          "type": "bytes32"
        },
        {
          "indexed": true,
          "internalType": "address",
          "name": "account",
          "type": "address"
        },
        {
          "indexed": true,
          "internalType": "address",
          "name": "sender",
          "type": "address"
        }
      ],
      "name": "RoleGranted",
      "type": "event"
    },
    {
      "anonymous": false,
      "inputs": [
        {
          "indexed": true,
          "internalType": "bytes32",
          "name": "role",
          "type": "bytes32"
        },
        {
          "indexed": true,
          "internalType": "address",
          "name": "account",
          "type": "address"
        },
        {
          "indexed": true,
          "internalType": "address",
          "name": "sender",
          "type": "address"
        }
      ],
      "name": "RoleRevoked",
      "type": "event"
    },
    {
      "anonymous": false,
      "inputs": [
        {
          "indexed": true,
          "internalType": "address",
          "name": "from",
          "type": "address"
        },
        {
          "indexed": true,
          "internalType": "address",
          "name": "to",
          "type": "address"
        },
        {
          "indexed": false,
          "internalType": "uint256",
          "name": "value",
          "type": "uint256"
        }
      ],
      "name": "Transfer",
      "type": "event"
    },
    {
      "anonymous": false,
      "inputs": [
        {
          "indexed": false,
          "internalType": "address",
          "name": "account",
          "type": "address"
        }
      ],
      "name": "Unpaused",
      "type": "event"
    },
    {
      "inputs": [],
      "name": "ADMIN_ROLE",
      "outputs": [
        {
          "internalType": "bytes32",
          "name": "",
          "type": "bytes32"
        }
      ],
      "stateMutability": "view",
      "type": "function"
    },
    {
      "inputs": [],
      "name": "DEFAULT_ADMIN_ROLE",
      "outputs": [
        {
          "internalType": "bytes32",
          "name": "",
          "type": "bytes32"
        }
      ],
      "stateMutability": "view",
      "type": "function"
    },
    {
      "inputs": [],
      "name": "DOMAIN_SEPARATOR",
      "outputs": [
        {
          "internalType": "bytes32",
          "name": "",
          "type": "bytes32"
        }
      ],
      "stateMutability": "view",
      "type": "function"
    },
    {
      "inputs": [],
      "name": "GENESIS_TIMESTAMP",
      "outputs": [
        {
          "internalType": "uint256",
          "name": "",
          "type": "uint256"
        }
      ],
      "stateMutability": "view",
      "type": "function"
    },
    {
      "inputs": [],
      "name": "MINTER_ROLE",
      "outputs": [
        {
          "internalType": "bytes32",
          "name": "",
          "type": "bytes32"
        }
      ],
      "stateMutability": "view",
      "type": "function"
    },
    {
      "inputs": [],
      "name": "OMEGA_TIMESTAMP",
      "outputs": [
        {
          "internalType": "uint256",
          "name": "",
          "type": "uint256"
        }
      ],
      "stateMutability": "view",
      "type": "function"
    },
    {
      "inputs": [],
      "name": "VESTING_PERIOD_SECONDS",
      "outputs": [
        {
          "internalType": "uint256",
          "name": "",
          "type": "uint256"
        }
      ],
      "stateMutability": "view",
      "type": "function"
    },
    {
      "inputs": [
        {
          "internalType": "address",
          "name": "to",
          "type": "address"
        }
      ],
      "name": "addGlobalWhitelist",
      "outputs": [],
      "stateMutability": "nonpayable",
      "type": "function"
    },
    {
      "inputs": [
        {
          "internalType": "address",
          "name": "_address",
          "type": "address"
        },
        {
          "internalType": "uint256",
          "name": "amount",
          "type": "uint256"
        }
      ],
      "name": "addInitialBalance",
      "outputs": [],
      "stateMutability": "nonpayable",
      "type": "function"
    },
    {
      "inputs": [
        {
          "internalType": "address",
          "name": "from",
          "type": "address"
        },
        {
          "internalType": "address",
          "name": "to",
          "type": "address"
        }
      ],
      "name": "addWhitelist",
      "outputs": [],
      "stateMutability": "nonpayable",
      "type": "function"
    },
    {
      "inputs": [
        {
          "internalType": "address",
          "name": "owner",
          "type": "address"
        },
        {
          "internalType": "address",
          "name": "spender",
          "type": "address"
        }
      ],
      "name": "allowance",
      "outputs": [
        {
          "internalType": "uint256",
          "name": "",
          "type": "uint256"
        }
      ],
      "stateMutability": "view",
      "type": "function"
    },
    {
      "inputs": [
        {
          "internalType": "address",
          "name": "spender",
          "type": "address"
        },
        {
          "internalType": "uint256",
          "name": "amount",
          "type": "uint256"
        }
      ],
      "name": "approve",
      "outputs": [
        {
          "internalType": "bool",
          "name": "",
          "type": "bool"
        }
      ],
      "stateMutability": "nonpayable",
      "type": "function"
    },
    {
      "inputs": [
        {
          "internalType": "address",
          "name": "account",
          "type": "address"
        }
      ],
      "name": "balanceOf",
      "outputs": [
        {
          "internalType": "uint256",
          "name": "",
          "type": "uint256"
        }
      ],
      "stateMutability": "view",
      "type": "function"
    },
    {
      "inputs": [
        {
          "internalType": "address[]",
          "name": "addresses",
          "type": "address[]"
        },
        {
          "internalType": "uint256[]",
          "name": "amounts",
          "type": "uint256[]"
        }
      ],
      "name": "batchAddInitialBalance",
      "outputs": [],
      "stateMutability": "nonpayable",
      "type": "function"
    },
    {
      "inputs": [
        {
          "internalType": "uint256",
          "name": "amount",
          "type": "uint256"
        }
      ],
      "name": "burn",
      "outputs": [],
      "stateMutability": "nonpayable",
      "type": "function"
    },
    {
      "inputs": [
        {
          "internalType": "address",
          "name": "account",
          "type": "address"
        },
        {
          "internalType": "uint256",
          "name": "amount",
          "type": "uint256"
        }
      ],
      "name": "burnFrom",
      "outputs": [],
      "stateMutability": "nonpayable",
      "type": "function"
    },
    {
      "inputs": [],
      "name": "claimPending",
      "outputs": [],
      "stateMutability": "nonpayable",
      "type": "function"
    },
    {
      "inputs": [],
      "name": "claimPendingFromInvestor",
      "outputs": [],
      "stateMutability": "nonpayable",
      "type": "function"
    },
    {
      "inputs": [],
      "name": "decimals",
      "outputs": [
        {
          "internalType": "uint8",
          "name": "",
          "type": "uint8"
        }
      ],
      "stateMutability": "view",
      "type": "function"
    },
    {
      "inputs": [
        {
          "internalType": "address",
          "name": "spender",
          "type": "address"
        },
        {
          "internalType": "uint256",
          "name": "subtractedValue",
          "type": "uint256"
        }
      ],
      "name": "decreaseAllowance",
      "outputs": [
        {
          "internalType": "bool",
          "name": "",
          "type": "bool"
        }
      ],
      "stateMutability": "nonpayable",
      "type": "function"
    },
    {
      "inputs": [
        {
          "internalType": "address",
          "name": "wallet",
          "type": "address"
        },
        {
          "internalType": "uint256",
          "name": "first",
          "type": "uint256"
        },
        {
          "internalType": "uint256",
          "name": "second",
          "type": "uint256"
        }
      ],
      "name": "fixDoubleBridge",
      "outputs": [],
      "stateMutability": "nonpayable",
      "type": "function"
    },
    {
      "inputs": [
        {
          "internalType": "bytes32",
          "name": "role",
          "type": "bytes32"
        }
      ],
      "name": "getRoleAdmin",
      "outputs": [
        {
          "internalType": "bytes32",
          "name": "",
          "type": "bytes32"
        }
      ],
      "stateMutability": "view",
      "type": "function"
    },
    {
      "inputs": [
        {
          "internalType": "address",
          "name": "_address",
          "type": "address"
        }
      ],
      "name": "getWalletData",
      "outputs": [
        {
          "internalType": "uint256",
          "name": "total",
          "type": "uint256"
        },
        {
          "internalType": "uint256",
          "name": "claimed",
          "type": "uint256"
        },
        {
          "internalType": "uint256",
          "name": "pending",
          "type": "uint256"
        }
      ],
      "stateMutability": "view",
      "type": "function"
    },
    {
      "inputs": [
        {
          "internalType": "bytes32",
          "name": "role",
          "type": "bytes32"
        },
        {
          "internalType": "address",
          "name": "account",
          "type": "address"
        }
      ],
      "name": "grantRole",
      "outputs": [],
      "stateMutability": "nonpayable",
      "type": "function"
    },
    {
      "inputs": [
        {
          "internalType": "bytes32",
          "name": "role",
          "type": "bytes32"
        },
        {
          "internalType": "address",
          "name": "account",
          "type": "address"
        }
      ],
      "name": "hasRole",
      "outputs": [
        {
          "internalType": "bool",
          "name": "",
          "type": "bool"
        }
      ],
      "stateMutability": "view",
      "type": "function"
    },
    {
      "inputs": [
        {
          "internalType": "address",
          "name": "spender",
          "type": "address"
        },
        {
          "internalType": "uint256",
          "name": "addedValue",
          "type": "uint256"
        }
      ],
      "name": "increaseAllowance",
      "outputs": [
        {
          "internalType": "bool",
          "name": "",
          "type": "bool"
        }
      ],
      "stateMutability": "nonpayable",
      "type": "function"
    },
    {
      "inputs": [],
      "name": "initialize",
      "outputs": [],
      "stateMutability": "nonpayable",
      "type": "function"
    },
    {
      "inputs": [
        {
          "internalType": "address",
          "name": "account",
          "type": "address"
        },
        {
          "internalType": "uint256",
          "name": "amount",
          "type": "uint256"
        }
      ],
      "name": "mint",
      "outputs": [],
      "stateMutability": "nonpayable",
      "type": "function"
    },
    {
      "inputs": [],
      "name": "name",
      "outputs": [
        {
          "internalType": "string",
          "name": "",
          "type": "string"
        }
      ],
      "stateMutability": "view",
      "type": "function"
    },
    {
      "inputs": [
        {
          "internalType": "address",
          "name": "owner",
          "type": "address"
        }
      ],
      "name": "nonces",
      "outputs": [
        {
          "internalType": "uint256",
          "name": "",
          "type": "uint256"
        }
      ],
      "stateMutability": "view",
      "type": "function"
    },
    {
      "inputs": [],
      "name": "paused",
      "outputs": [
        {
          "internalType": "bool",
          "name": "",
          "type": "bool"
        }
      ],
      "stateMutability": "view",
      "type": "function"
    },
    {
      "inputs": [
        {
          "internalType": "address",
          "name": "owner",
          "type": "address"
        },
        {
          "internalType": "address",
          "name": "spender",
          "type": "address"
        },
        {
          "internalType": "uint256",
          "name": "value",
          "type": "uint256"
        },
        {
          "internalType": "uint256",
          "name": "deadline",
          "type": "uint256"
        },
        {
          "internalType": "uint8",
          "name": "v",
          "type": "uint8"
        },
        {
          "internalType": "bytes32",
          "name": "r",
          "type": "bytes32"
        },
        {
          "internalType": "bytes32",
          "name": "s",
          "type": "bytes32"
        }
      ],
      "name": "permit",
      "outputs": [],
      "stateMutability": "nonpayable",
      "type": "function"
    },
    {
      "inputs": [
        {
          "internalType": "bytes32",
          "name": "role",
          "type": "bytes32"
        },
        {
          "internalType": "address",
          "name": "account",
          "type": "address"
        }
      ],
      "name": "renounceRole",
      "outputs": [],
      "stateMutability": "nonpayable",
      "type": "function"
    },
    {
      "inputs": [
        {
          "internalType": "bytes32",
          "name": "role",
          "type": "bytes32"
        },
        {
          "internalType": "address",
          "name": "account",
          "type": "address"
        }
      ],
      "name": "revokeRole",
      "outputs": [],
      "stateMutability": "nonpayable",
      "type": "function"
    },
    {
      "inputs": [
        {
          "internalType": "address",
          "name": "_address",
          "type": "address"
        }
      ],
      "name": "setEvo",
      "outputs": [],
      "stateMutability": "nonpayable",
      "type": "function"
    },
    {
      "inputs": [
        {
          "internalType": "address",
          "name": "_address",
          "type": "address"
        }
      ],
      "name": "setFarm",
      "outputs": [],
      "stateMutability": "nonpayable",
      "type": "function"
    },
    {
      "inputs": [
        {
          "internalType": "uint256",
          "name": "_days",
          "type": "uint256"
        }
      ],
      "name": "setVestingPeriod",
      "outputs": [],
      "stateMutability": "nonpayable",
      "type": "function"
    },
    {
      "inputs": [
        {
          "internalType": "bytes4",
          "name": "interfaceId",
          "type": "bytes4"
        }
      ],
      "name": "supportsInterface",
      "outputs": [
        {
          "internalType": "bool",
          "name": "",
          "type": "bool"
        }
      ],
      "stateMutability": "view",
      "type": "function"
    },
    {
      "inputs": [],
      "name": "symbol",
      "outputs": [
        {
          "internalType": "string",
          "name": "",
          "type": "string"
        }
      ],
      "stateMutability": "view",
      "type": "function"
    },
    {
      "inputs": [],
      "name": "totalBurned",
      "outputs": [
        {
          "internalType": "uint256",
          "name": "",
          "type": "uint256"
        }
      ],
      "stateMutability": "view",
      "type": "function"
    },
    {
      "inputs": [],
      "name": "totalSupply",
      "outputs": [
        {
          "internalType": "uint256",
          "name": "",
          "type": "uint256"
        }
      ],
      "stateMutability": "view",
      "type": "function"
    },
    {
      "inputs": [
        {
          "internalType": "address",
          "name": "to",
          "type": "address"
        },
        {
          "internalType": "uint256",
          "name": "amount",
          "type": "uint256"
        }
      ],
      "name": "transfer",
      "outputs": [
        {
          "internalType": "bool",
          "name": "",
          "type": "bool"
        }
      ],
      "stateMutability": "nonpayable",
      "type": "function"
    },
    {
      "inputs": [
        {
          "internalType": "address",
          "name": "from",
          "type": "address"
        },
        {
          "internalType": "address",
          "name": "to",
          "type": "address"
        },
        {
          "internalType": "uint256",
          "name": "amount",
          "type": "uint256"
        }
      ],
      "name": "transferFrom",
      "outputs": [
        {
          "internalType": "bool",
          "name": "",
          "type": "bool"
        }
      ],
      "stateMutability": "nonpayable",
      "type": "function"
    }
  ],
  "bytecode": "0x60806040523480156200001157600080fd5b506200001c62000022565b620000e4565b600054610100900460ff16156200008f5760405162461bcd60e51b815260206004820152602760248201527f496e697469616c697a61626c653a20636f6e747261637420697320696e697469604482015266616c697a696e6760c81b606482015260840160405180910390fd5b60005460ff9081161015620000e2576000805460ff191660ff9081179091556040519081527f7f26b83ff96e1f2b6a682f133852f6798a09c465da95921460cefb38474024989060200160405180910390a15b565b612bc380620000f46000396000f3fe608060405234801561001057600080fd5b50600436106102695760003560e01c806367390e9011610151578063a457c2d7116100c3578063d4f26c5111610087578063d4f26c5114610524578063d505accf14610537578063d53913931461054a578063d547741f14610571578063d89135cd14610584578063dd62ed3e1461058d57600080fd5b8063a457c2d7146104ce578063a73d633c146104e1578063a9059cbb146104f4578063b45cc84514610507578063ca3136ad1461051a57600080fd5b80638129fc1c116101155780638129fc1c14610462578063857923c41461046a57806391d148541461049857806395d89b41146104ab578063a1a4fb36146104b3578063a217fddf146104c657600080fd5b806367390e90146103f457806370a08231146103fe57806375b238fc1461042757806379cc67901461043c5780637ecebe001461044f57600080fd5b8063313ce567116101ea57806340c10f19116101ae57806340c10f191461039557806342966c68146103a85780635c975abb146103bb5780635c9ffe4a146103c65780635d7d9350146103d957806365022a34146103ec57600080fd5b8063313ce567146103455780633644e5151461035457806336568abe1461035c578063395093511461036f57806340bee0ed1461038257600080fd5b80630e8ccd8a116102315780630e8ccd8a146102e057806318160ddd146102f357806323b872dd146102fb578063248a9ca31461030e5780632f2ff15d1461033257600080fd5b806301ffc9a71461026e57806303a9f06e1461029657806306fdde03146102a0578063095ea7b3146102b55780630c204d44146102c8575b600080fd5b61028161027c3660046125a1565b6105a0565b60405190151581526020015b60405180910390f35b61029e6105d7565b005b6102a8610745565b60405161028d91906125f7565b6102816102c3366004612646565b6107d7565b6102d26101c55481565b60405190815260200161028d565b61029e6102ee366004612746565b6107ef565b6035546102d2565b610281610309366004612806565b6108c8565b6102d261031c366004612842565b6000908152610130602052604090206001015490565b61029e61034036600461285b565b6108ec565b6040516012815260200161028d565b6102d2610917565b61029e61036a36600461285b565b610926565b61028161037d366004612646565b6109a4565b61029e610390366004612842565b6109c6565b61029e6103a3366004612646565b610a07565b61029e6103b6366004612842565b610af3565b60655460ff16610281565b61029e6103d4366004612646565b610b64565b61029e6103e7366004612887565b610b9a565b61029e610bd6565b6102d26101c75481565b6102d261040c366004612887565b6001600160a01b031660009081526033602052604090205490565b6102d2600080516020612b6e83398151915281565b61029e61044a366004612646565b610d99565b6102d261045d366004612887565b610e0c565b61029e610e2a565b61047d610478366004612887565b611049565b6040805193845260208401929092529082015260600161028d565b6102816104a636600461285b565b611082565b6102a86110ae565b61029e6104c13660046128a2565b6110bd565b6102d2600081565b6102816104dc366004612646565b61118b565b61029e6104ef3660046128d5565b611206565b610281610502366004612646565b611234565b61029e610515366004612887565b611242565b6102d26101c65481565b61029e610532366004612887565b611259565b61029e6105453660046128ff565b611295565b6102d27f9f2df0fed2c77648de5860a4cc508cd0818c85b8b8a1ab4ceeef8d981c8956a681565b61029e61057f36600461285b565b6113f9565b610162546102d2565b6102d261059b3660046128d5565b61141f565b60006001600160e01b03198216637965db0b60e01b14806105d157506301ffc9a760e01b6001600160e01b03198316145b92915050565b6105df61144a565b60006105ea33611492565b9050426101c75411610621573360009081526101cb60209081526040808320546101ca9092529091205461061e9190612988565b90505b600061062c3361040c565b905061063c565b60405180910390fd5b81811015610648578091505b3360009081526101cb60205260408120805484929061066890849061299f565b9091555061067890503383611552565b6101c8546001600160a01b031663a9059cbb336040516001600160e01b031960e084901b1681526001600160a01b03909116600482015260248101859052604401602060405180830381600087803b1580156106d357600080fd5b505af11580156106e7573d6000803e3d6000fd5b505050506040513d601f19601f8201168201806040525081019061070b91906129b7565b5060405182815233907fd8138f8a3f377c5259ca548e70e4c2de94f129f5a11036a15b69513cba2b426a9060200160405180910390a25050565b606060368054610754906129d9565b80601f0160208091040260200160405190810160405280929190818152602001828054610780906129d9565b80156107cd5780601f106107a2576101008083540402835291602001916107cd565b820191906000526020600020905b8154815290600101906020018083116107b057829003601f168201915b5050505050905090565b6000336107e58185856116ac565b5060019392505050565b600080516020612b6e833981519152610807816117d0565b81518351146108685760405162461bcd60e51b815260206004820152602760248201527f41646472657373206c69737420646f6573206e6f74206d6174636820616d6f756044820152661b9d081b1a5cdd60ca1b6064820152608401610633565b60005b83518110156108c2576108b084828151811061088957610889612a0e565b60200260200101518483815181106108a3576108a3612a0e565b6020026020010151610b64565b806108ba81612a24565b91505061086b565b50505050565b6000336108d68582856117da565b6108e185858561184e565b506001949350505050565b60008281526101306020526040902060010154610908816117d0565b6109128383611a27565b505050565b6000610921611aae565b905090565b6001600160a01b03811633146109965760405162461bcd60e51b815260206004820152602f60248201527f416363657373436f6e74726f6c3a2063616e206f6e6c792072656e6f756e636560448201526e103937b632b9903337b91039b2b63360891b6064820152608401610633565b6109a08282611b29565b5050565b6000336107e58185856109b7838361141f565b6109c1919061299f565b6116ac565b600080516020612b6e8339815191526109de816117d0565b6109eb8262015180612a3f565b6101c68190556101c5546109ff919061299f565b6101c7555050565b7f9f2df0fed2c77648de5860a4cc508cd0818c85b8b8a1ab4ceeef8d981c8956a6610a31816117d0565b6001600160a01b03831660009081526101ca6020526040902054610a56908390612988565b6001600160a01b03841660009081526101cb602052604081208054909190610a7f90849061299f565b90915550506101c8546040516340c10f1960e01b8152306004820152602481018490526001600160a01b03909116906340c10f1990604401600060405180830381600087803b158015610ad157600080fd5b505af1158015610ae5573d6000803e3d6000fd5b505050506109128383611b91565b610afc81611c7c565b6101c854604051632770a7eb60e21b8152306004820152602481018390526001600160a01b0390911690639dc29fac90604401600060405180830381600087803b158015610b4957600080fd5b505af1158015610b5d573d6000803e3d6000fd5b5050505050565b600080516020612b6e833981519152610b7c816117d0565b506001600160a01b0390911660009081526101ca6020526040902055565b600080516020612b6e833981519152610bb2816117d0565b506101c880546001600160a01b0319166001600160a01b0392909216919091179055565b610bde61144a565b6000610be933611492565b9050426101c75411610c20573360009081526101cb60209081526040808320546101ca90925290912054610c1d9190612988565b90505b60408051630ad58d2f60e01b81526001600482015260248101839052336044820152905173d782cf9f04e24cae4953679ebf45ba34509f105c91630ad58d2f91606480830192600092919082900301818387803b158015610c8057600080fd5b505af1158015610c94573d6000803e3d6000fd5b50505050610ca8610ca23390565b82611552565b3360009081526101cb602052604081208054839290610cc890849061299f565b90915550506101c8546001600160a01b031663a9059cbb336040516001600160e01b031960e084901b1681526001600160a01b03909116600482015260248101849052604401602060405180830381600087803b158015610d2857600080fd5b505af1158015610d3c573d6000803e3d6000fd5b505050506040513d601f19601f82011682018060405250810190610d6091906129b7565b5060405181815233907fd8138f8a3f377c5259ca548e70e4c2de94f129f5a11036a15b69513cba2b426a9060200160405180910390a250565b610da38282611c9e565b6101c854604051632770a7eb60e21b8152306004820152602481018390526001600160a01b0390911690639dc29fac90604401600060405180830381600087803b158015610df057600080fd5b505af1158015610e04573d6000803e3d6000fd5b505050505050565b6001600160a01b038116600090815260cb60205260408120546105d1565b600054610100900460ff1615808015610e4a5750600054600160ff909116105b80610e645750303b158015610e64575060005460ff166001145b610ec75760405162461bcd60e51b815260206004820152602e60248201527f496e697469616c697a61626c653a20636f6e747261637420697320616c72656160448201526d191e481a5b9a5d1a585b1a5e995960921b6064820152608401610633565b6000805460ff191660011790558015610eea576000805461ff0019166101001790555b610f2c604051806040016040528060048152602001637645564f60e01b815250604051806040016040528060048152602001637645564f60e01b815250611cdc565b610f34611d0d565b610f3c611d3c565b610f61604051806040016040528060048152602001637645564f60e01b815250611d63565b610f69611d3c565b610f74600033611a27565b610f8c600080516020612b6e83398151915233611a27565b610fb67f9f2df0fed2c77648de5860a4cc508cd0818c85b8b8a1ab4ceeef8d981c8956a633611a27565b63624ca6c86101c58190556301693b006101c6819055610fd59161299f565b6101c7556101c880546001600160a01b0319167342006ab57701251b580bdfc24778c43c9ff589a11790558015611046576000805461ff0019169055604051600181527f7f26b83ff96e1f2b6a682f133852f6798a09c465da95921460cefb38474024989060200160405180910390a15b50565b6001600160a01b03811660009081526101ca60209081526040808320546101cb909252822054909161107a84611492565b929491935050565b6000918252610130602090815260408084206001600160a01b0393909316845291905290205460ff1690565b606060378054610754906129d9565b60006110c8816117d0565b60006110d4838561299f565b6001600160a01b03861660009081526101ca60205260409020549091508181101561115c5760405162461bcd60e51b815260206004820152603260248201527f4572726f723a204272696467652062616c616e63652067726561746572207468604482015271616e20696e697469616c2062616c616e636560701b6064820152608401610633565b6111668282612988565b6001600160a01b0390961660009081526101cb60205260409020959095555050505050565b60003381611199828661141f565b9050838110156111f95760405162461bcd60e51b815260206004820152602560248201527f45524332303a2064656372656173656420616c6c6f77616e63652062656c6f77604482015264207a65726f60d81b6064820152608401610633565b6108e182868684036116ac565b6000611211816117d0565b6001600160a01b03831660009081526101cc602052604090206108c29083611dad565b6000336107e581858561184e565b600061124d816117d0565b6109126101cd83611dad565b600080516020612b6e833981519152611271816117d0565b506101c980546001600160a01b0319166001600160a01b0392909216919091179055565b834211156112e55760405162461bcd60e51b815260206004820152601d60248201527f45524332305065726d69743a206578706972656420646561646c696e650000006044820152606401610633565b60007f6e71edae12b1b97f4d1f60370fef10105fa2faae0126114a169c64845d6126c98888886113148c611dc9565b6040805160208101969096526001600160a01b0394851690860152929091166060840152608083015260a082015260c0810186905260e001604051602081830303815290604052805190602001209050600061136f82611df1565b9050600061137f82878787611e3f565b9050896001600160a01b0316816001600160a01b0316146113e25760405162461bcd60e51b815260206004820152601e60248201527f45524332305065726d69743a20696e76616c6964207369676e617475726500006044820152606401610633565b6113ed8a8a8a6116ac565b50505050505050505050565b60008281526101306020526040902060010154611415816117d0565b6109128383611b29565b6001600160a01b03918216600090815260346020908152604080832093909416825291909152205490565b60655460ff16156114905760405162461bcd60e51b815260206004820152601060248201526f14185d5cd8589b194e881c185d5cd95960821b6044820152606401610633565b565b6101c6546001600160a01b03821660009081526101ca6020526040812054909182916114be9190612a5e565b90506000429050426101c754116114d557506101c7545b60006101c554826114e69190612988565b905060006114f48285612a3f565b6001600160a01b03871660009081526101cb60205260409020549091508110156115245750600095945050505050565b6001600160a01b03861660009081526101cb60205260409020546115489082612988565b9695505050505050565b6001600160a01b0382166115b25760405162461bcd60e51b815260206004820152602160248201527f45524332303a206275726e2066726f6d20746865207a65726f206164647265736044820152607360f81b6064820152608401610633565b6115be82600083611e67565b6001600160a01b038216600090815260336020526040902054818110156116325760405162461bcd60e51b815260206004820152602260248201527f45524332303a206275726e20616d6f756e7420657863656564732062616c616e604482015261636560f01b6064820152608401610633565b6001600160a01b0383166000908152603360205260408120838303905560358054849290611661908490612988565b90915550506040518281526000906001600160a01b038516907fddf252ad1be2c89b69c2b068fc378daa952ba7f163c4a11628f55a4df523b3ef9060200160405180910390a3505050565b6001600160a01b03831661170e5760405162461bcd60e51b8152602060048201526024808201527f45524332303a20617070726f76652066726f6d20746865207a65726f206164646044820152637265737360e01b6064820152608401610633565b6001600160a01b03821661176f5760405162461bcd60e51b815260206004820152602260248201527f45524332303a20617070726f766520746f20746865207a65726f206164647265604482015261737360f01b6064820152608401610633565b6001600160a01b0383811660008181526034602090815260408083209487168084529482529182902085905590518481527f8c5be1e5ebec7d5bd14f71427d1e84f3dd0314c0f7b2291e5b200ac8c7c3b925910160405180910390a3505050565b6110468133611f2d565b60006117e6848461141f565b905060001981146108c257818110156118415760405162461bcd60e51b815260206004820152601d60248201527f45524332303a20696e73756666696369656e7420616c6c6f77616e63650000006044820152606401610633565b6108c284848484036116ac565b6001600160a01b0383166118b25760405162461bcd60e51b815260206004820152602560248201527f45524332303a207472616e736665722066726f6d20746865207a65726f206164604482015264647265737360d81b6064820152608401610633565b6001600160a01b0382166119145760405162461bcd60e51b815260206004820152602360248201527f45524332303a207472616e7366657220746f20746865207a65726f206164647260448201526265737360e81b6064820152608401610633565b61191f838383611e67565b6001600160a01b038316600090815260336020526040902054818110156119975760405162461bcd60e51b815260206004820152602660248201527f45524332303a207472616e7366657220616d6f756e7420657863656564732062604482015265616c616e636560d01b6064820152608401610633565b6001600160a01b038085166000908152603360205260408082208585039055918516815290812080548492906119ce90849061299f565b92505081905550826001600160a01b0316846001600160a01b03167fddf252ad1be2c89b69c2b068fc378daa952ba7f163c4a11628f55a4df523b3ef84604051611a1a91815260200190565b60405180910390a36108c2565b611a318282611082565b6109a0576000828152610130602090815260408083206001600160a01b03851684529091529020805460ff19166001179055611a6a3390565b6001600160a01b0316816001600160a01b0316837f2f8788117e7eff1d82e926ec794901d17c78024a50270940304540a733656f0d60405160405180910390a45050565b60006109217f8b73c3c69bb8fe3d512ecc4cf759cc79239f7b179b0ffacaa9a75d522b39400f611add60975490565b6098546040805160208101859052908101839052606081018290524660808201523060a082015260009060c0016040516020818303038152906040528051906020012090509392505050565b611b338282611082565b156109a0576000828152610130602090815260408083206001600160a01b0385168085529252808320805460ff1916905551339285917ff6391f5c32d9c69d2a47ea670b442974b53935d1edc7fd64eb21e047a839171b9190a45050565b6001600160a01b038216611be75760405162461bcd60e51b815260206004820152601f60248201527f45524332303a206d696e7420746f20746865207a65726f2061646472657373006044820152606401610633565b611bf360008383611e67565b8060356000828254611c05919061299f565b90915550506001600160a01b03821660009081526033602052604081208054839290611c3290849061299f565b90915550506040518181526001600160a01b038316906000907fddf252ad1be2c89b69c2b068fc378daa952ba7f163c4a11628f55a4df523b3ef9060200160405180910390a35050565b806101626000828254611c8f919061299f565b90915550611046905033610ca2565b6001600160a01b0382163314611cb957611cb98233836117da565b806101626000828254611ccc919061299f565b909155506109a090508282611552565b600054610100900460ff16611d035760405162461bcd60e51b815260040161063390612a80565b6109a08282611f91565b600054610100900460ff16611d345760405162461bcd60e51b815260040161063390612a80565b611490611fdf565b600054610100900460ff166114905760405162461bcd60e51b815260040161063390612a80565b600054610100900460ff16611d8a5760405162461bcd60e51b815260040161063390612a80565b61104681604051806040016040528060018152602001603160f81b815250612012565b6000611dc2836001600160a01b038416612053565b9392505050565b6001600160a01b038116600090815260cb602052604090208054600181018255905b50919050565b60006105d1611dfe611aae565b8360405161190160f01b6020820152602281018390526042810182905260009060620160405160208183030381529060405280519060200120905092915050565b6000806000611e50878787876120a2565b91509150611e5d8161218f565b5095945050505050565b611e6f61144a565b8282611e7d6101cd8261234a565b80611e8f5750611e8f6101cd8361234a565b80611eb857506001600160a01b03821660009081526101cc60205260409020611eb8908261234a565b80611eca57506001600160a01b038216155b80611edc57506001600160a01b038116155b611f285760405162461bcd60e51b815260206004820152601860248201527f7645564f206973206e6f6e2d7472616e7366657261626c6500000000000000006044820152606401610633565b610b5d565b611f378282611082565b6109a057611f4f816001600160a01b0316601461236c565b611f5a83602061236c565b604051602001611f6b929190612acb565b60408051601f198184030181529082905262461bcd60e51b8252610633916004016125f7565b600054610100900460ff16611fb85760405162461bcd60e51b815260040161063390612a80565b8151611fcb906036906020850190612508565b508051610912906037906020840190612508565b600054610100900460ff166120065760405162461bcd60e51b815260040161063390612a80565b6065805460ff19169055565b600054610100900460ff166120395760405162461bcd60e51b815260040161063390612a80565b815160209283012081519190920120609791909155609855565b600081815260018301602052604081205461209a575081546001818101845560008481526020808220909301849055845484825282860190935260409020919091556105d1565b5060006105d1565b6000807f7fffffffffffffffffffffffffffffff5d576e7357a4501ddfe92f46681b20a08311156120d95750600090506003612186565b8460ff16601b141580156120f157508460ff16601c14155b156121025750600090506004612186565b6040805160008082526020820180845289905260ff881692820192909252606081018690526080810185905260019060a0016020604051602081039080840390855afa158015612156573d6000803e3d6000fd5b5050604051601f1901519150506001600160a01b03811661217f57600060019250925050612186565b9150600090505b94509492505050565b60008160048111156121a3576121a3612b40565b14156121ac5750565b60018160048111156121c0576121c0612b40565b141561220e5760405162461bcd60e51b815260206004820152601860248201527f45434453413a20696e76616c6964207369676e617475726500000000000000006044820152606401610633565b600281600481111561222257612222612b40565b14156122705760405162461bcd60e51b815260206004820152601f60248201527f45434453413a20696e76616c6964207369676e6174757265206c656e677468006044820152606401610633565b600381600481111561228457612284612b40565b14156122dd5760405162461bcd60e51b815260206004820152602260248201527f45434453413a20696e76616c6964207369676e6174757265202773272076616c604482015261756560f01b6064820152608401610633565b60048160048111156122f1576122f1612b40565b14156110465760405162461bcd60e51b815260206004820152602260248201527f45434453413a20696e76616c6964207369676e6174757265202776272076616c604482015261756560f01b6064820152608401610633565b6001600160a01b03811660009081526001830160205260408120541515611dc2565b6060600061237b836002612a3f565b61238690600261299f565b67ffffffffffffffff81111561239e5761239e612670565b6040519080825280601f01601f1916602001820160405280156123c8576020820181803683370190505b509050600360fc1b816000815181106123e3576123e3612a0e565b60200101906001600160f81b031916908160001a905350600f60fb1b8160018151811061241257612412612a0e565b60200101906001600160f81b031916908160001a9053506000612436846002612a3f565b61244190600161299f565b90505b60018111156124b9576f181899199a1a9b1b9c1cb0b131b232b360811b85600f166010811061247557612475612a0e565b1a60f81b82828151811061248b5761248b612a0e565b60200101906001600160f81b031916908160001a90535060049490941c936124b281612b56565b9050612444565b508315611dc25760405162461bcd60e51b815260206004820181905260248201527f537472696e67733a20686578206c656e67746820696e73756666696369656e746044820152606401610633565b828054612514906129d9565b90600052602060002090601f016020900481019282612536576000855561257c565b82601f1061254f57805160ff191683800117855561257c565b8280016001018555821561257c579182015b8281111561257c578251825591602001919060010190612561565b5061258892915061258c565b5090565b5b80821115612588576000815560010161258d565b6000602082840312156125b357600080fd5b81356001600160e01b031981168114611dc257600080fd5b60005b838110156125e65781810151838201526020016125ce565b838111156108c25750506000910152565b60208152600082518060208401526126168160408501602087016125cb565b601f01601f19169190910160400192915050565b80356001600160a01b038116811461264157600080fd5b919050565b6000806040838503121561265957600080fd5b6126628361262a565b946020939093013593505050565b634e487b7160e01b600052604160045260246000fd5b604051601f8201601f1916810167ffffffffffffffff811182821017156126af576126af612670565b604052919050565b600067ffffffffffffffff8211156126d1576126d1612670565b5060051b60200190565b600082601f8301126126ec57600080fd5b813560206127016126fc836126b7565b612686565b82815260059290921b8401810191818101908684111561272057600080fd5b8286015b8481101561273b5780358352918301918301612724565b509695505050505050565b6000806040838503121561275957600080fd5b823567ffffffffffffffff8082111561277157600080fd5b818501915085601f83011261278557600080fd5b813560206127956126fc836126b7565b82815260059290921b840181019181810190898411156127b457600080fd5b948201945b838610156127d9576127ca8661262a565b825294820194908201906127b9565b965050860135925050808211156127ef57600080fd5b506127fc858286016126db565b9150509250929050565b60008060006060848603121561281b57600080fd5b6128248461262a565b92506128326020850161262a565b9150604084013590509250925092565b60006020828403121561285457600080fd5b5035919050565b6000806040838503121561286e57600080fd5b8235915061287e6020840161262a565b90509250929050565b60006020828403121561289957600080fd5b611dc28261262a565b6000806000606084860312156128b757600080fd5b6128c08461262a565b95602085013595506040909401359392505050565b600080604083850312156128e857600080fd5b6128f18361262a565b915061287e6020840161262a565b600080600080600080600060e0888a03121561291a57600080fd5b6129238861262a565b96506129316020890161262a565b95506040880135945060608801359350608088013560ff8116811461295557600080fd5b9699959850939692959460a0840135945060c09093013592915050565b634e487b7160e01b600052601160045260246000fd5b60008282101561299a5761299a612972565b500390565b600082198211156129b2576129b2612972565b500190565b6000602082840312156129c957600080fd5b81518015158114611dc257600080fd5b600181811c908216806129ed57607f821691505b60208210811415611deb57634e487b7160e01b600052602260045260246000fd5b634e487b7160e01b600052603260045260246000fd5b6000600019821415612a3857612a38612972565b5060010190565b6000816000190483118215151615612a5957612a59612972565b500290565b600082612a7b57634e487b7160e01b600052601260045260246000fd5b500490565b6020808252602b908201527f496e697469616c697a61626c653a20636f6e7472616374206973206e6f74206960408201526a6e697469616c697a696e6760a81b606082015260800190565b7f416363657373436f6e74726f6c3a206163636f756e7420000000000000000000815260008351612b038160178501602088016125cb565b7001034b99036b4b9b9b4b733903937b6329607d1b6017918401918201528351612b348160288401602088016125cb565b01602801949350505050565b634e487b7160e01b600052602160045260246000fd5b600081612b6557612b65612972565b50600019019056fea49807205ce4d355092ef5a8a18f56e8913cf4a201fbe287825b095693c21775a264697066735822122053dfabd820ed60dcca87d8eb51f36a763f329a48c37e7cb1ef57ae7f85ae9e8564736f6c63430008090033",
  "linkReferences": {},
  "deployedLinkReferences": {}
}