{
  "_format": "hh-sol-artifact-1",
  "contractName": "TuringHelper",
  "sourceName": "contracts/utils/boba/TuringHelper.sol",
  "abi": [
    {
      "inputs": [],
      "stateMutability": "nonpayable",
      "type": "constructor"
    },
    {
      "anonymous": false,
      "inputs": [
        {
          "indexed": false,
          "internalType": "uint8",
          "name": "version",
          "type": "uint8"
        }
      ],
      "name": "Initialized",
      "type": "event"
    },
    {
      "anonymous": false,
      "inputs": [
        {
          "indexed": false,
          "internalType": "uint256",
          "name": "version",
          "type": "uint256"
        },
        {
          "indexed": false,
          "internalType": "bytes",
          "name": "responseData",
          "type": "bytes"
        }
      ],
      "name": "OffchainResponse",
      "type": "event"
    },
    {
      "anonymous": false,
      "inputs": [
        {
          "indexed": false,
          "internalType": "uint256",
          "name": "version",
          "type": "uint256"
        },
        {
          "indexed": false,
          "internalType": "uint256",
          "name": "random",
          "type": "uint256"
        }
      ],
      "name": "OnChainRandom",
      "type": "event"
    },
    {
      "anonymous": false,
      "inputs": [
        {
          "indexed": false,
          "internalType": "address",
          "name": "account",
          "type": "address"
        }
      ],
      "name": "Paused",
      "type": "event"
    },
    {
      "anonymous": false,
      "inputs": [
        {
          "indexed": true,
          "internalType": "bytes32",
          "name": "role",
          "type": "bytes32"
        },
        {
          "indexed": true,
          "internalType": "bytes32",
          "name": "previousAdminRole",
          "type": "bytes32"
        },
        {
          "indexed": true,
          "internalType": "bytes32",
          "name": "newAdminRole",
          "type": "bytes32"
        }
      ],
      "name": "RoleAdminChanged",
      "type": "event"
    },
    {
      "anonymous": false,
      "inputs": [
        {
          "indexed": true,
          "internalType": "bytes32",
          "name": "role",
          "type": "bytes32"
        },
        {
          "indexed": true,
          "internalType": "address",
          "name": "account",
          "type": "address"
        },
        {
          "indexed": true,
          "internalType": "address",
          "name": "sender",
          "type": "address"
        }
      ],
      "name": "RoleGranted",
      "type": "event"
    },
    {
      "anonymous": false,
      "inputs": [
        {
          "indexed": true,
          "internalType": "bytes32",
          "name": "role",
          "type": "bytes32"
        },
        {
          "indexed": true,
          "internalType": "address",
          "name": "account",
          "type": "address"
        },
        {
          "indexed": true,
          "internalType": "address",
          "name": "sender",
          "type": "address"
        }
      ],
      "name": "RoleRevoked",
      "type": "event"
    },
    {
      "anonymous": false,
      "inputs": [
        {
          "indexed": false,
          "internalType": "address",
          "name": "account",
          "type": "address"
        }
      ],
      "name": "Unpaused",
      "type": "event"
    },
    {
      "inputs": [
        {
          "internalType": "string",
          "name": "_url",
          "type": "string"
        },
        {
          "internalType": "bytes",
          "name": "_payload",
          "type": "bytes"
        }
      ],
      "name": "APICall",
      "outputs": [
        {
          "internalType": "bytes",
          "name": "",
          "type": "bytes"
        }
      ],
      "stateMutability": "nonpayable",
      "type": "function"
    },
    {
      "inputs": [],
      "name": "CONTRACT_ROLE",
      "outputs": [
        {
          "internalType": "bytes32",
          "name": "",
          "type": "bytes32"
        }
      ],
      "stateMutability": "view",
      "type": "function"
    },
    {
      "inputs": [],
      "name": "DEFAULT_ADMIN_ROLE",
      "outputs": [
        {
          "internalType": "bytes32",
          "name": "",
          "type": "bytes32"
        }
      ],
      "stateMutability": "view",
      "type": "function"
    },
    {
      "inputs": [
        {
          "internalType": "uint32",
          "name": "rType",
          "type": "uint32"
        },
        {
          "internalType": "uint256",
          "name": "_random",
          "type": "uint256"
        }
      ],
      "name": "GetRandom",
      "outputs": [
        {
          "internalType": "uint256",
          "name": "",
          "type": "uint256"
        }
      ],
      "stateMutability": "nonpayable",
      "type": "function"
    },
    {
      "inputs": [
        {
          "internalType": "uint32",
          "name": "rType",
          "type": "uint32"
        },
        {
          "internalType": "string",
          "name": "_url",
          "type": "string"
        },
        {
          "internalType": "bytes",
          "name": "_payload",
          "type": "bytes"
        }
      ],
      "name": "GetResponse",
      "outputs": [
        {
          "internalType": "bytes",
          "name": "",
          "type": "bytes"
        }
      ],
      "stateMutability": "nonpayable",
      "type": "function"
    },
    {
      "inputs": [],
      "name": "Random",
      "outputs": [
        {
          "internalType": "uint256",
          "name": "",
          "type": "uint256"
        }
      ],
      "stateMutability": "nonpayable",
      "type": "function"
    },
    {
      "inputs": [
        {
          "internalType": "string",
          "name": "_url",
          "type": "string"
        },
        {
          "internalType": "bytes",
          "name": "_payload",
          "type": "bytes"
        }
      ],
      "name": "TuringTx",
      "outputs": [
        {
          "internalType": "bytes",
          "name": "",
          "type": "bytes"
        }
      ],
      "stateMutability": "nonpayable",
      "type": "function"
    },
    {
      "inputs": [
        {
          "internalType": "bytes32",
          "name": "role",
          "type": "bytes32"
        }
      ],
      "name": "getRoleAdmin",
      "outputs": [
        {
          "internalType": "bytes32",
          "name": "",
          "type": "bytes32"
        }
      ],
      "stateMutability": "view",
      "type": "function"
    },
    {
      "inputs": [
        {
          "internalType": "bytes32",
          "name": "role",
          "type": "bytes32"
        },
        {
          "internalType": "uint256",
          "name": "index",
          "type": "uint256"
        }
      ],
      "name": "getRoleMember",
      "outputs": [
        {
          "internalType": "address",
          "name": "",
          "type": "address"
        }
      ],
      "stateMutability": "view",
      "type": "function"
    },
    {
      "inputs": [
        {
          "internalType": "bytes32",
          "name": "role",
          "type": "bytes32"
        }
      ],
      "name": "getRoleMemberCount",
      "outputs": [
        {
          "internalType": "uint256",
          "name": "",
          "type": "uint256"
        }
      ],
      "stateMutability": "view",
      "type": "function"
    },
    {
      "inputs": [
        {
          "internalType": "bytes32",
          "name": "role",
          "type": "bytes32"
        },
        {
          "internalType": "address",
          "name": "account",
          "type": "address"
        }
      ],
      "name": "grantRole",
      "outputs": [],
      "stateMutability": "nonpayable",
      "type": "function"
    },
    {
      "inputs": [
        {
          "internalType": "bytes32",
          "name": "role",
          "type": "bytes32"
        },
        {
          "internalType": "address",
          "name": "account",
          "type": "address"
        }
      ],
      "name": "hasRole",
      "outputs": [
        {
          "internalType": "bool",
          "name": "",
          "type": "bool"
        }
      ],
      "stateMutability": "view",
      "type": "function"
    },
    {
      "inputs": [],
      "name": "initialize",
      "outputs": [],
      "stateMutability": "nonpayable",
      "type": "function"
    },
    {
      "inputs": [],
      "name": "pause",
      "outputs": [],
      "stateMutability": "nonpayable",
      "type": "function"
    },
    {
      "inputs": [],
      "name": "paused",
      "outputs": [
        {
          "internalType": "bool",
          "name": "",
          "type": "bool"
        }
      ],
      "stateMutability": "view",
      "type": "function"
    },
    {
      "inputs": [
        {
          "internalType": "bytes32",
          "name": "role",
          "type": "bytes32"
        },
        {
          "internalType": "address",
          "name": "account",
          "type": "address"
        }
      ],
      "name": "renounceRole",
      "outputs": [],
      "stateMutability": "nonpayable",
      "type": "function"
    },
    {
      "inputs": [
        {
          "internalType": "bytes32",
          "name": "role",
          "type": "bytes32"
        },
        {
          "internalType": "address",
          "name": "account",
          "type": "address"
        }
      ],
      "name": "revokeRole",
      "outputs": [],
      "stateMutability": "nonpayable",
      "type": "function"
    },
    {
      "inputs": [
        {
          "internalType": "bytes4",
          "name": "interfaceId",
          "type": "bytes4"
        }
      ],
      "name": "supportsInterface",
      "outputs": [
        {
          "internalType": "bool",
          "name": "",
          "type": "bool"
        }
      ],
      "stateMutability": "view",
      "type": "function"
    },
    {
      "inputs": [],
      "name": "unpause",
      "outputs": [],
      "stateMutability": "nonpayable",
      "type": "function"
    }
  ],
  "bytecode": "0x608060405234801561001057600080fd5b5061001961001e565b6100de565b600054610100900460ff161561008a5760405162461bcd60e51b815260206004820152602760248201527f496e697469616c697a61626c653a20636f6e747261637420697320696e697469604482015266616c697a696e6760c81b606482015260840160405180910390fd5b60005460ff90811610156100dc576000805460ff191660ff9081179091556040519081527f7f26b83ff96e1f2b6a682f133852f6798a09c465da95921460cefb38474024989060200160405180910390a15b565b611a67806100ed6000396000f3fe608060405234801561001057600080fd5b50600436106101215760003560e01c80635c975abb116100ad5780639010d07c116100715780639010d07c1461024057806391d148541461026b578063a217fddf1461027e578063ca15c87314610286578063d547741f1461029957600080fd5b80635c975abb1461020a578063604a6fa9146102155780637d93616c1461021d5780638129fc1c146102305780638456cb591461023857600080fd5b80632f2ff15d116100f45780632f2ff15d146101b45780632f7adf43146101c957806336568abe146101dc5780633f4ba83a146101ef578063493d57d6146101f757600080fd5b806301ffc9a71461012657806303fe46ab1461014e57806313fcd32b14610171578063248a9ca314610191575b600080fd5b61013961013436600461144a565b6102ac565b60405190151581526020015b60405180910390f35b6101636000805160206119ef83398151915281565b604051908152602001610145565b61018461017f366004611539565b6102d7565b60405161014591906115ed565b61016361019f366004611600565b60009081526097602052604090206001015490565b6101c76101c2366004611619565b610410565b005b6101846101d7366004611539565b61043a565b6101c76101ea366004611619565b61056c565b6101c76105ea565b61016361020536600461166e565b610600565b60335460ff16610139565b61016361068e565b61018461022b366004611698565b61076a565b6101c761084a565b6101c76109ac565b61025361024e36600461170c565b6109bf565b6040516001600160a01b039091168152602001610145565b610139610279366004611619565b6109de565b610163600081565b610163610294366004611600565b610a09565b6101c76102a7366004611619565b610a20565b60006001600160e01b03198216632f7adf4360e01b14806102d157506102d182610a45565b92915050565b60606102e1610a6a565b6000805160206119ef8339815191526102f981610ab2565b600083511161034f5760405162461bcd60e51b815260206004820152601960248201527f547572696e673a41504943616c6c3a6e6f207061796c6f61640000000000000060448201526064015b60405180910390fd5b60fb54604051631f64d85b60e21b81526000916001600160a01b031690637d93616c90610385906001908990899060040161172e565b6000604051808303816000875af11580156103a4573d6000803e3d6000fd5b505050506040513d6000823e601f3d908101601f191682016040526103cc9190810190611769565b90507ffde6d9b9b674fe8a495a825379378eb214e03439d12f342ac5e8af9768c1d85c6001826040516104009291906117e0565b60405180910390a1949350505050565b60008281526097602052604090206001015461042b81610ab2565b6104358383610abc565b505050565b606033301461045b5760405162461bcd60e51b815260040161034690611801565b60008251116104ac5760405162461bcd60e51b815260206004820152601b60248201527f547572696e673a547572696e6754783a206e6f207061796c6f616400000000006044820152606401610346565b60fb54604051631f64d85b60e21b81526000916001600160a01b031690637d93616c906104e2906001908890889060040161172e565b6000604051808303816000875af1158015610501573d6000803e3d6000fd5b505050506040513d6000823e601f3d908101601f191682016040526105299190810190611769565b90507ffde6d9b9b674fe8a495a825379378eb214e03439d12f342ac5e8af9768c1d85c60018260405161055d9291906117e0565b60405180910390a19392505050565b6001600160a01b03811633146105dc5760405162461bcd60e51b815260206004820152602f60248201527f416363657373436f6e74726f6c3a2063616e206f6e6c792072656e6f756e636560448201526e103937b632b9903337b91039b2b63360891b6064820152608401610346565b6105e68282610ade565b5050565b60006105f581610ab2565b6105fd610b00565b50565b60003330146106215760405162461bcd60e51b815260040161034690611801565b828063ffffffff1660021461063582610b52565b906106535760405162461bcd60e51b815260040161034691906115ed565b508363ffffffff1660021461066785610b52565b906106855760405162461bcd60e51b815260040161034691906115ed565b50919392505050565b6000610698610a6a565b6000805160206119ef8339815191526106b081610ab2565b60fb5460405163249eabeb60e11b815260016004820152600060248201819052916001600160a01b03169063493d57d6906044016020604051808303816000875af1158015610703573d6000803e3d6000fd5b505050506040513d601f19601f82011682018060405250810190610727919061184f565b6040805160018152602081018390529192507f15f90c57c26684c9157add8e8154f318427a0082f188d36a0239194f5c55ec02910160405180910390a191505090565b606033301461078b5760405162461bcd60e51b815260040161034690611801565b838063ffffffff1660021461079f82610b52565b906107bd5760405162461bcd60e51b815260040161034691906115ed565b50600083511161080f5760405162461bcd60e51b815260206004820152601d60248201527f547572696e673a476574526573706f6e73653a6e6f207061796c6f61640000006044820152606401610346565b8463ffffffff1660021461082286610b52565b906108405760405162461bcd60e51b815260040161034691906115ed565b5091949350505050565b600054610100900460ff161580801561086a5750600054600160ff909116105b806108845750303b158015610884575060005460ff166001145b6108e75760405162461bcd60e51b815260206004820152602e60248201527f496e697469616c697a61626c653a20636f6e747261637420697320616c72656160448201526d191e481a5b9a5d1a585b1a5e995960921b6064820152608401610346565b6000805460ff19166001179055801561090a576000805461ff0019166101001790555b610912610e6d565b61091a610e9c565b610925600033610abc565b61093d6000805160206119ef83398151915233610abc565b60fb80546001600160a01b0319908116301790915560fc80549091166020602160991b0117905580156105fd576000805461ff0019169055604051600181527f7f26b83ff96e1f2b6a682f133852f6798a09c465da95921460cefb38474024989060200160405180910390a150565b60006109b781610ab2565b6105fd610ec3565b600082815260c9602052604081206109d79083610f00565b9392505050565b60009182526097602090815260408084206001600160a01b0393909316845291905290205460ff1690565b600081815260c9602052604081206102d190610f0c565b600082815260976020526040902060010154610a3b81610ab2565b6104358383610ade565b60006001600160e01b03198216635a05180f60e01b14806102d157506102d182610f16565b60335460ff1615610ab05760405162461bcd60e51b815260206004820152601060248201526f14185d5cd8589b194e881c185d5cd95960821b6044820152606401610346565b565b6105fd8133610f4b565b610ac68282610faf565b600082815260c9602052604090206104359082611035565b610ae8828261104a565b600082815260c96020526040902061043590826110b1565b610b086110c6565b6033805460ff191690557f5db9ee0a495bf2e6ff9c91a7834c1ba4fdd244a5e8aa4e537bd38aeae4b073aa335b6040516001600160a01b03909116815260200160405180910390a1565b60608163ffffffff16600103610b9b57505060408051808201909152601e81527f545552494e473a204765746820696e74657263657074206661696c7572650000602082015290565b8163ffffffff16600a03610be257505060408051808201909152601d81527f545552494e473a20496e636f727265637420696e707574207374617465000000602082015290565b8163ffffffff16600b03610c2957505060408051808201909152601a81527f545552494e473a2043616c6c6461746120746f6f2073686f7274000000000000602082015290565b8163ffffffff16600c03610c68575050604080518082019091526015815274545552494e473a2055524c203e363420627974657360581b602082015290565b8163ffffffff16600d03610ca65750506040805180820190915260148152732a2aa924a7239d1029b2b93b32b91032b93937b960611b602082015290565b8163ffffffff16600e03610cd3576040518060600160405280602881526020016119c76028913992915050565b8163ffffffff16600f03610d0057604051806060016040528060238152602001611a0f6023913992915050565b8163ffffffff16601003610d3d575050604080518082019091526013815272545552494e473a20524e47206661696c75726560681b602082015290565b8163ffffffff16601103610d8457505060408051808201909152601f81527f545552494e473a2041504920526573706f6e7365203e33323220636861727300602082015290565b8163ffffffff16601203610dcb57505060408051808201909152601f81527f545552494e473a2041504920526573706f6e7365203e31363020627974657300602082015290565b8163ffffffff16601303610e1257505060408051808201909152601b81527f545552494e473a20496e73756666696369656e74206372656469740000000000602082015290565b8163ffffffff16601403610e5957505060408051808201909152601b81527f545552494e473a204d697373696e6720636163686520656e7472790000000000602082015290565b505060408051602081019091526000815290565b600054610100900460ff16610e945760405162461bcd60e51b815260040161034690611868565b610ab061110f565b600054610100900460ff16610ab05760405162461bcd60e51b815260040161034690611868565b610ecb610a6a565b6033805460ff191660011790557f62e78cea01bee320cd4e420270b5ea74000d11b0c9f74754ebdbfc544b05a258610b353390565b60006109d78383611142565b60006102d1825490565b60006001600160e01b03198216637965db0b60e01b14806102d157506301ffc9a760e01b6001600160e01b03198316146102d1565b610f5582826109de565b6105e657610f6d816001600160a01b0316601461116c565b610f7883602061116c565b604051602001610f899291906118b3565b60408051601f198184030181529082905262461bcd60e51b8252610346916004016115ed565b610fb982826109de565b6105e65760008281526097602090815260408083206001600160a01b03851684529091529020805460ff19166001179055610ff13390565b6001600160a01b0316816001600160a01b0316837f2f8788117e7eff1d82e926ec794901d17c78024a50270940304540a733656f0d60405160405180910390a45050565b60006109d7836001600160a01b038416611308565b61105482826109de565b156105e65760008281526097602090815260408083206001600160a01b0385168085529252808320805460ff1916905551339285917ff6391f5c32d9c69d2a47ea670b442974b53935d1edc7fd64eb21e047a839171b9190a45050565b60006109d7836001600160a01b038416611357565b60335460ff16610ab05760405162461bcd60e51b815260206004820152601460248201527314185d5cd8589b194e881b9bdd081c185d5cd95960621b6044820152606401610346565b600054610100900460ff166111365760405162461bcd60e51b815260040161034690611868565b6033805460ff19169055565b600082600001828154811061115957611159611928565b9060005260206000200154905092915050565b6060600061117b836002611954565b611186906002611973565b67ffffffffffffffff81111561119e5761119e611474565b6040519080825280601f01601f1916602001820160405280156111c8576020820181803683370190505b509050600360fc1b816000815181106111e3576111e3611928565b60200101906001600160f81b031916908160001a905350600f60fb1b8160018151811061121257611212611928565b60200101906001600160f81b031916908160001a9053506000611236846002611954565b611241906001611973565b90505b60018111156112b9576f181899199a1a9b1b9c1cb0b131b232b360811b85600f166010811061127557611275611928565b1a60f81b82828151811061128b5761128b611928565b60200101906001600160f81b031916908160001a90535060049490941c936112b281611986565b9050611244565b5083156109d75760405162461bcd60e51b815260206004820181905260248201527f537472696e67733a20686578206c656e67746820696e73756666696369656e746044820152606401610346565b600081815260018301602052604081205461134f575081546001818101845560008481526020808220909301849055845484825282860190935260409020919091556102d1565b5060006102d1565b6000818152600183016020526040812054801561144057600061137b60018361199d565b855490915060009061138f9060019061199d565b90508181146113f45760008660000182815481106113af576113af611928565b90600052602060002001549050808760000184815481106113d2576113d2611928565b6000918252602080832090910192909255918252600188019052604090208390555b8554869080611405576114056119b0565b6001900381819060005260206000200160009055905585600101600086815260200190815260200160002060009055600193505050506102d1565b60009150506102d1565b60006020828403121561145c57600080fd5b81356001600160e01b0319811681146109d757600080fd5b634e487b7160e01b600052604160045260246000fd5b604051601f8201601f1916810167ffffffffffffffff811182821017156114b3576114b3611474565b604052919050565b600067ffffffffffffffff8211156114d5576114d5611474565b50601f01601f191660200190565b600082601f8301126114f457600080fd5b8135611507611502826114bb565b61148a565b81815284602083860101111561151c57600080fd5b816020850160208301376000918101602001919091529392505050565b6000806040838503121561154c57600080fd5b823567ffffffffffffffff8082111561156457600080fd5b611570868387016114e3565b9350602085013591508082111561158657600080fd5b50611593858286016114e3565b9150509250929050565b60005b838110156115b85781810151838201526020016115a0565b50506000910152565b600081518084526115d981602086016020860161159d565b601f01601f19169290920160200192915050565b6020815260006109d760208301846115c1565b60006020828403121561161257600080fd5b5035919050565b6000806040838503121561162c57600080fd5b8235915060208301356001600160a01b038116811461164a57600080fd5b809150509250929050565b803563ffffffff8116811461166957600080fd5b919050565b6000806040838503121561168157600080fd5b61168a83611655565b946020939093013593505050565b6000806000606084860312156116ad57600080fd5b6116b684611655565b9250602084013567ffffffffffffffff808211156116d357600080fd5b6116df878388016114e3565b935060408601359150808211156116f557600080fd5b50611702868287016114e3565b9150509250925092565b6000806040838503121561171f57600080fd5b50508035926020909101359150565b63ffffffff8416815260606020820152600061174d60608301856115c1565b828103604084015261175f81856115c1565b9695505050505050565b60006020828403121561177b57600080fd5b815167ffffffffffffffff81111561179257600080fd5b8201601f810184136117a357600080fd5b80516117b1611502826114bb565b8181528560208385010111156117c657600080fd5b6117d782602083016020860161159d565b95945050505050565b8281526040602082015260006117f960408301846115c1565b949350505050565b6020808252602e908201527f547572696e673a476574526573706f6e73653a6d73672e73656e64657220213d60408201526d206164647265737328746869732960901b606082015260800190565b60006020828403121561186157600080fd5b5051919050565b6020808252602b908201527f496e697469616c697a61626c653a20636f6e7472616374206973206e6f74206960408201526a6e697469616c697a696e6760a81b606082015260800190565b7f416363657373436f6e74726f6c3a206163636f756e74200000000000000000008152600083516118eb81601785016020880161159d565b7001034b99036b4b9b9b4b733903937b6329607d1b601791840191820152835161191c81602884016020880161159d565b01602801949350505050565b634e487b7160e01b600052603260045260246000fd5b634e487b7160e01b600052601160045260246000fd5b600081600019048311821515161561196e5761196e61193e565b500290565b808201808211156102d1576102d161193e565b6000816119955761199561193e565b506000190190565b818103818111156102d1576102d161193e565b634e487b7160e01b600052603160045260246000fdfe545552494e473a20436f756c64206e6f74206465636f64652073657276657220726573706f6e7365364d3d7565c7a8300c96fd53e065d19b65848d7b23b3191adcd55621c744223c545552494e473a20436f756c64206e6f74206372656174652072706320636c69656e74a26469706673582212203ec66826dddedb5c3595cef061030310a6aacd903c30fc7168385e9f2b2297bf64736f6c63430008100033",
  "linkReferences": {},
  "deployedLinkReferences": {}
}