{
  "_format": "hh-sol-artifact-1",
  "contractName": "vEVOVestingUpgradeable",
  "sourceName": "contracts/npc/vEVOVestingUpgradeable.sol",
  "abi": [
    {
      "inputs": [],
      "stateMutability": "nonpayable",
      "type": "constructor"
    },
    {
      "anonymous": false,
      "inputs": [
        {
          "indexed": true,
          "internalType": "address",
          "name": "from",
          "type": "address"
        },
        {
          "indexed": false,
          "internalType": "uint256",
          "name": "amount",
          "type": "uint256"
        }
      ],
      "name": "Claimed",
      "type": "event"
    },
    {
      "anonymous": false,
      "inputs": [
        {
          "indexed": false,
          "internalType": "address",
          "name": "account",
          "type": "address"
        }
      ],
      "name": "Paused",
      "type": "event"
    },
    {
      "anonymous": false,
      "inputs": [
        {
          "indexed": true,
          "internalType": "bytes32",
          "name": "role",
          "type": "bytes32"
        },
        {
          "indexed": true,
          "internalType": "bytes32",
          "name": "previousAdminRole",
          "type": "bytes32"
        },
        {
          "indexed": true,
          "internalType": "bytes32",
          "name": "newAdminRole",
          "type": "bytes32"
        }
      ],
      "name": "RoleAdminChanged",
      "type": "event"
    },
    {
      "anonymous": false,
      "inputs": [
        {
          "indexed": true,
          "internalType": "bytes32",
          "name": "role",
          "type": "bytes32"
        },
        {
          "indexed": true,
          "internalType": "address",
          "name": "account",
          "type": "address"
        },
        {
          "indexed": true,
          "internalType": "address",
          "name": "sender",
          "type": "address"
        }
      ],
      "name": "RoleGranted",
      "type": "event"
    },
    {
      "anonymous": false,
      "inputs": [
        {
          "indexed": true,
          "internalType": "bytes32",
          "name": "role",
          "type": "bytes32"
        },
        {
          "indexed": true,
          "internalType": "address",
          "name": "account",
          "type": "address"
        },
        {
          "indexed": true,
          "internalType": "address",
          "name": "sender",
          "type": "address"
        }
      ],
      "name": "RoleRevoked",
      "type": "event"
    },
    {
      "anonymous": false,
      "inputs": [
        {
          "indexed": false,
          "internalType": "address",
          "name": "account",
          "type": "address"
        }
      ],
      "name": "Unpaused",
      "type": "event"
    },
    {
      "inputs": [],
      "name": "ADMIN_ROLE",
      "outputs": [
        {
          "internalType": "bytes32",
          "name": "",
          "type": "bytes32"
        }
      ],
      "stateMutability": "view",
      "type": "function"
    },
    {
      "inputs": [],
      "name": "DEFAULT_ADMIN_ROLE",
      "outputs": [
        {
          "internalType": "bytes32",
          "name": "",
          "type": "bytes32"
        }
      ],
      "stateMutability": "view",
      "type": "function"
    },
    {
      "inputs": [],
      "name": "EVO",
      "outputs": [
        {
          "internalType": "contract IEvoToken",
          "name": "",
          "type": "address"
        }
      ],
      "stateMutability": "view",
      "type": "function"
    },
    {
      "inputs": [],
      "name": "GENESIS_TIMESTAMP",
      "outputs": [
        {
          "internalType": "uint256",
          "name": "",
          "type": "uint256"
        }
      ],
      "stateMutability": "view",
      "type": "function"
    },
    {
      "inputs": [],
      "name": "OMEGA_TIMESTAMP",
      "outputs": [
        {
          "internalType": "uint256",
          "name": "",
          "type": "uint256"
        }
      ],
      "stateMutability": "view",
      "type": "function"
    },
    {
      "inputs": [],
      "name": "VESTING_PERIOD_SECONDS",
      "outputs": [
        {
          "internalType": "uint256",
          "name": "",
          "type": "uint256"
        }
      ],
      "stateMutability": "view",
      "type": "function"
    },
    {
      "inputs": [
        {
          "internalType": "address",
          "name": "_address",
          "type": "address"
        },
        {
          "internalType": "uint256",
          "name": "amount",
          "type": "uint256"
        }
      ],
      "name": "addWallet",
      "outputs": [],
      "stateMutability": "nonpayable",
      "type": "function"
    },
    {
      "inputs": [
        {
          "internalType": "address[]",
          "name": "addresses",
          "type": "address[]"
        },
        {
          "internalType": "uint256[]",
          "name": "amounts",
          "type": "uint256[]"
        }
      ],
      "name": "bulkAddWallets",
      "outputs": [],
      "stateMutability": "nonpayable",
      "type": "function"
    },
    {
      "inputs": [],
      "name": "claimVested",
      "outputs": [],
      "stateMutability": "nonpayable",
      "type": "function"
    },
    {
      "inputs": [
        {
          "internalType": "bytes32",
          "name": "role",
          "type": "bytes32"
        }
      ],
      "name": "getRoleAdmin",
      "outputs": [
        {
          "internalType": "bytes32",
          "name": "",
          "type": "bytes32"
        }
      ],
      "stateMutability": "view",
      "type": "function"
    },
    {
      "inputs": [
        {
          "internalType": "address",
          "name": "_address",
          "type": "address"
        }
      ],
      "name": "getWalletData",
      "outputs": [
        {
          "internalType": "uint256",
          "name": "total",
          "type": "uint256"
        },
        {
          "internalType": "uint256",
          "name": "claimed",
          "type": "uint256"
        },
        {
          "internalType": "uint256",
          "name": "pending",
          "type": "uint256"
        }
      ],
      "stateMutability": "view",
      "type": "function"
    },
    {
      "inputs": [
        {
          "internalType": "bytes32",
          "name": "role",
          "type": "bytes32"
        },
        {
          "internalType": "address",
          "name": "account",
          "type": "address"
        }
      ],
      "name": "grantRole",
      "outputs": [],
      "stateMutability": "nonpayable",
      "type": "function"
    },
    {
      "inputs": [
        {
          "internalType": "bytes32",
          "name": "role",
          "type": "bytes32"
        },
        {
          "internalType": "address",
          "name": "account",
          "type": "address"
        }
      ],
      "name": "hasRole",
      "outputs": [
        {
          "internalType": "bool",
          "name": "",
          "type": "bool"
        }
      ],
      "stateMutability": "view",
      "type": "function"
    },
    {
      "inputs": [],
      "name": "initialize",
      "outputs": [],
      "stateMutability": "nonpayable",
      "type": "function"
    },
    {
      "inputs": [
        {
          "internalType": "address",
          "name": "_address",
          "type": "address"
        },
        {
          "internalType": "uint256",
          "name": "amount",
          "type": "uint256"
        }
      ],
      "name": "modifyWallet",
      "outputs": [],
      "stateMutability": "nonpayable",
      "type": "function"
    },
    {
      "inputs": [],
      "name": "paused",
      "outputs": [
        {
          "internalType": "bool",
          "name": "",
          "type": "bool"
        }
      ],
      "stateMutability": "view",
      "type": "function"
    },
    {
      "inputs": [
        {
          "internalType": "address",
          "name": "_address",
          "type": "address"
        }
      ],
      "name": "removeWallet",
      "outputs": [],
      "stateMutability": "nonpayable",
      "type": "function"
    },
    {
      "inputs": [
        {
          "internalType": "bytes32",
          "name": "role",
          "type": "bytes32"
        },
        {
          "internalType": "address",
          "name": "account",
          "type": "address"
        }
      ],
      "name": "renounceRole",
      "outputs": [],
      "stateMutability": "nonpayable",
      "type": "function"
    },
    {
      "inputs": [
        {
          "internalType": "bytes32",
          "name": "role",
          "type": "bytes32"
        },
        {
          "internalType": "address",
          "name": "account",
          "type": "address"
        }
      ],
      "name": "revokeRole",
      "outputs": [],
      "stateMutability": "nonpayable",
      "type": "function"
    },
    {
      "inputs": [],
      "name": "setEvo",
      "outputs": [],
      "stateMutability": "nonpayable",
      "type": "function"
    },
    {
      "inputs": [
        {
          "internalType": "uint256",
          "name": "_days",
          "type": "uint256"
        }
      ],
      "name": "setVestingPeriod",
      "outputs": [],
      "stateMutability": "nonpayable",
      "type": "function"
    },
    {
      "inputs": [
        {
          "internalType": "bytes4",
          "name": "interfaceId",
          "type": "bytes4"
        }
      ],
      "name": "supportsInterface",
      "outputs": [
        {
          "internalType": "bool",
          "name": "",
          "type": "bool"
        }
      ],
      "stateMutability": "view",
      "type": "function"
    },
    {
      "inputs": [],
      "name": "totalPending",
      "outputs": [
        {
          "internalType": "uint256",
          "name": "",
          "type": "uint256"
        }
      ],
      "stateMutability": "view",
      "type": "function"
    },
    {
      "inputs": [],
      "name": "vEVO",
      "outputs": [
        {
          "internalType": "contract IEvoToken",
          "name": "",
          "type": "address"
        }
      ],
      "stateMutability": "view",
      "type": "function"
    }
  ],
  "bytecode": "0x60806040523480156200001157600080fd5b50600054610100900460ff166200002f5760005460ff161562000039565b62000039620000de565b620000a15760405162461bcd60e51b815260206004820152602e60248201527f496e697469616c697a61626c653a20636f6e747261637420697320616c72656160448201526d191e481a5b9a5d1a585b1a5e995960921b606482015260840160405180910390fd5b600054610100900460ff16158015620000c4576000805461ffff19166101011790555b8015620000d7576000805461ff00191690555b506200010b565b6000620000f630620000fc60201b62000d461760201c565b15905090565b6001600160a01b03163b151590565b611877806200011b6000396000f3fe608060405234801561001057600080fd5b50600436106101585760003560e01c806367390e90116100c3578063a75fe8e11161007c578063a75fe8e1146102e4578063ca3136ad146102f7578063d01c44cd14610301578063d547741f14610309578063e48661321461031c578063f23d23471461033757600080fd5b806367390e901461027457806375b238fc1461027e5780638129fc1c14610293578063857923c41461029b57806391d14854146102c9578063a217fddf146102dc57600080fd5b80633ece94c6116101155780633ece94c6146101fc5780633f90916a1461020f578063406b18e31461021757806340bee0ed1461022a57806349e8b8631461023d5780635c975abb1461026957600080fd5b806301ffc9a71461015d5780630a2a9a01146101855780630c204d441461019a578063248a9ca3146101b35780632f2ff15d146101d657806336568abe146101e9575b600080fd5b61017061016b36600461134e565b61033f565b60405190151581526020015b60405180910390f35b610198610193366004611394565b610376565b005b6101a563624ca6c881565b60405190815260200161017c565b6101a56101c13660046113be565b60009081526065602052604090206001015490565b6101986101e43660046113d7565b61042c565b6101986101f73660046113d7565b610457565b61019861020a3660046114d9565b6104d5565b6101a56105af565b610198610225366004611394565b610611565b6101986102383660046113be565b61066e565b61010254610251906001600160a01b031681565b6040516001600160a01b03909116815260200161017c565b60c95460ff16610170565b6101a56101015481565b6101a560008051602061182283398151915281565b6101986106b0565b6102ae6102a9366004611599565b6107ae565b6040805193845260208401929092529082015260600161017c565b6101706102d73660046113d7565b610807565b6101a5600081565b6101986102f2366004611599565b610832565b6101a56101005481565b61019861089c565b6101986103173660046113d7565b610cdd565b61025173eb76ef5d121f31c2cb59e50a4fa5475042c84e3481565b610198610d03565b60006001600160e01b03198216637965db0b60e01b148061037057506301ffc9a760e01b6001600160e01b03198316145b92915050565b60008051602061182283398151915261038f8133610d55565b61039a60fe84610db9565b156103e55760405162461bcd60e51b815260206004820152601660248201527515d85b1b195d08185b1c9958591e48195b9d195c995960521b60448201526064015b60405180910390fd5b6001600160a01b038316600090815260fd602052604081208381556001015561040f60fe84610dde565b508160fc600082825461042291906115ca565b9091555050505050565b6000828152606560205260409020600101546104488133610d55565b6104528383610df3565b505050565b6001600160a01b03811633146104c75760405162461bcd60e51b815260206004820152602f60248201527f416363657373436f6e74726f6c3a2063616e206f6e6c792072656e6f756e636560448201526e103937b632b9903337b91039b2b63360891b60648201526084016103dc565b6104d18282610e79565b5050565b6000805160206118228339815191526104ee8133610d55565b815183511461054f5760405162461bcd60e51b815260206004820152602760248201527f41646472657373206c69737420646f6573206e6f74206d6174636820616d6f756044820152661b9d081b1a5cdd60ca1b60648201526084016103dc565b60005b83518110156105a957610597848281518110610570576105706115e2565b602002602001015184838151811061058a5761058a6115e2565b6020026020010151610376565b806105a1816115f8565b915050610552565b50505050565b6000806101005460fc546105c39190611613565b905060004290504261010154116105da5750610101545b60006105ea63624ca6c883611635565b905060006105f8828561164c565b905060fb54816106089190611635565b94505050505090565b60008051602061182283398151915261062a8133610d55565b61063560fe84610db9565b6106515760405162461bcd60e51b81526004016103dc9061166b565b506001600160a01b03909116600090815260fd6020526040902055565b6000805160206118228339815191526106878133610d55565b610694826201518061164c565b6101008190556106a89063624ca6c86115ca565b610101555050565b600054610100900460ff166106cb5760005460ff16156106cf565b303b155b6107325760405162461bcd60e51b815260206004820152602e60248201527f496e697469616c697a61626c653a20636f6e747261637420697320616c72656160448201526d191e481a5b9a5d1a585b1a5e995960921b60648201526084016103dc565b600054610100900460ff16158015610754576000805461ffff19166101011790555b61075c610ee0565b610764610f09565b61076c610f38565b610777600033610df3565b61078f60008051602061182283398151915233610df3565b600060fb81905560fc5580156107ab576000805461ff00191690555b50565b600080806107bd60fe85610db9565b6107cf57506000915081905080610800565b6001600160a01b038416600090815260fd60205260409020805460019091015490935091506107fd84610f67565b90505b9193909250565b60009182526065602090815260408084206001600160a01b0393909316845291905290205460ff1690565b60008051602061182283398151915261084b8133610d55565b61085660fe83610db9565b6108725760405162461bcd60e51b81526004016103dc9061166b565b6001600160a01b038216600090815260fd602052604081208181556001015561045260fe83610ffa565b60c95460ff16156108e25760405162461bcd60e51b815260206004820152601060248201526f14185d5cd8589b194e881c185d5cd95960821b60448201526064016103dc565b600260975414156109355760405162461bcd60e51b815260206004820152601f60248201527f5265656e7472616e637947756172643a207265656e7472616e742063616c6c0060448201526064016103dc565b600260975561094560fe33610db9565b6109615760405162461bcd60e51b81526004016103dc9061166b565b600061096c33610f67565b905042610101541161099b5733600090815260fd60205260409020600181015490546109989190611635565b90505b600073eb76ef5d121f31c2cb59e50a4fa5475042c84e346370a08231336040516001600160e01b031960e084901b1681526001600160a01b03909116600482015260240160206040518083038186803b1580156109f757600080fd5b505afa158015610a0b573d6000803e3d6000fd5b505050506040513d601f19601f82011682018060405250810190610a2f919061169a565b905081811015610a3d578091505b8173eb76ef5d121f31c2cb59e50a4fa5475042c84e3463dd62ed3e336040516001600160e01b031960e084901b1681526001600160a01b03909116600482015230602482015260440160206040518083038186803b158015610a9e57600080fd5b505afa158015610ab2573d6000803e3d6000fd5b505050506040513d601f19601f82011682018060405250810190610ad6919061169a565b1015610b345760405162461bcd60e51b815260206004820152602760248201527f50656e64696e672062616c616e6365206578636565647320617070726f76656460448201526608185b5bdd5b9d60ca1b60648201526084016103dc565b33600090815260fd602052604081206001018054849290610b569084906115ca565b925050819055508160fb6000828254610b6f91906115ca565b9091555073eb76ef5d121f31c2cb59e50a4fa5475042c84e3490506323b872dd336040516001600160e01b031960e084901b1681526001600160a01b0390911660048201526001602482015260448101859052606401602060405180830381600087803b158015610bdf57600080fd5b505af1158015610bf3573d6000803e3d6000fd5b505050506040513d601f19601f82011682018060405250810190610c1791906116b3565b50610102546001600160a01b03166340c10f19336040516001600160e01b031960e084901b1681526001600160a01b03909116600482015260248101859052604401600060405180830381600087803b158015610c7357600080fd5b505af1158015610c87573d6000803e3d6000fd5b50505050610c923390565b6001600160a01b03167fd8138f8a3f377c5259ca548e70e4c2de94f129f5a11036a15b69513cba2b426a83604051610ccc91815260200190565b60405180910390a250506001609755565b600082815260656020526040902060010154610cf98133610d55565b6104528383610e79565b600080516020611822833981519152610d1c8133610d55565b5061010280546001600160a01b031916735b747e23a9e4c509dd06fbd2c0e3cb8b846e398f179055565b6001600160a01b03163b151590565b610d5f8282610807565b6104d157610d77816001600160a01b0316601461100f565b610d8283602061100f565b604051602001610d93929190611701565b60408051601f198184030181529082905262461bcd60e51b82526103dc91600401611776565b6001600160a01b038116600090815260018301602052604081205415155b9392505050565b6000610dd7836001600160a01b0384166111ab565b610dfd8282610807565b6104d15760008281526065602090815260408083206001600160a01b03851684529091529020805460ff19166001179055610e353390565b6001600160a01b0316816001600160a01b0316837f2f8788117e7eff1d82e926ec794901d17c78024a50270940304540a733656f0d60405160405180910390a45050565b610e838282610807565b156104d15760008281526065602090815260408083206001600160a01b0385168085529252808320805460ff1916905551339285917ff6391f5c32d9c69d2a47ea670b442974b53935d1edc7fd64eb21e047a839171b9190a45050565b600054610100900460ff16610f075760405162461bcd60e51b81526004016103dc906117a9565b565b600054610100900460ff16610f305760405162461bcd60e51b81526004016103dc906117a9565b610f076111fa565b600054610100900460ff16610f5f5760405162461bcd60e51b81526004016103dc906117a9565b610f07611228565b610100546001600160a01b038216600090815260fd602052604081205490918291610f929190611613565b90506000429050426101015411610fa95750610101545b6000610fb963624ca6c883611635565b90506000610fc7828561164c565b6001600160a01b038716600090815260fd6020526040902060010154909150610ff09082611635565b9695505050505050565b6000610dd7836001600160a01b03841661125b565b6060600061101e83600261164c565b6110299060026115ca565b67ffffffffffffffff81111561104157611041611403565b6040519080825280601f01601f19166020018201604052801561106b576020820181803683370190505b509050600360fc1b81600081518110611086576110866115e2565b60200101906001600160f81b031916908160001a905350600f60fb1b816001815181106110b5576110b56115e2565b60200101906001600160f81b031916908160001a90535060006110d984600261164c565b6110e49060016115ca565b90505b600181111561115c576f181899199a1a9b1b9c1cb0b131b232b360811b85600f1660108110611118576111186115e2565b1a60f81b82828151811061112e5761112e6115e2565b60200101906001600160f81b031916908160001a90535060049490941c93611155816117f4565b90506110e7565b508315610dd75760405162461bcd60e51b815260206004820181905260248201527f537472696e67733a20686578206c656e67746820696e73756666696369656e7460448201526064016103dc565b60008181526001830160205260408120546111f257508154600181810184556000848152602080822090930184905584548482528286019093526040902091909155610370565b506000610370565b600054610100900460ff166112215760405162461bcd60e51b81526004016103dc906117a9565b6001609755565b600054610100900460ff1661124f5760405162461bcd60e51b81526004016103dc906117a9565b60c9805460ff19169055565b6000818152600183016020526040812054801561134457600061127f600183611635565b855490915060009061129390600190611635565b90508181146112f85760008660000182815481106112b3576112b36115e2565b90600052602060002001549050808760000184815481106112d6576112d66115e2565b6000918252602080832090910192909255918252600188019052604090208390555b85548690806113095761130961180b565b600190038181906000526020600020016000905590558560010160008681526020019081526020016000206000905560019350505050610370565b6000915050610370565b60006020828403121561136057600080fd5b81356001600160e01b031981168114610dd757600080fd5b80356001600160a01b038116811461138f57600080fd5b919050565b600080604083850312156113a757600080fd5b6113b083611378565b946020939093013593505050565b6000602082840312156113d057600080fd5b5035919050565b600080604083850312156113ea57600080fd5b823591506113fa60208401611378565b90509250929050565b634e487b7160e01b600052604160045260246000fd5b604051601f8201601f1916810167ffffffffffffffff8111828210171561144257611442611403565b604052919050565b600067ffffffffffffffff82111561146457611464611403565b5060051b60200190565b600082601f83011261147f57600080fd5b8135602061149461148f8361144a565b611419565b82815260059290921b840181019181810190868411156114b357600080fd5b8286015b848110156114ce57803583529183019183016114b7565b509695505050505050565b600080604083850312156114ec57600080fd5b823567ffffffffffffffff8082111561150457600080fd5b818501915085601f83011261151857600080fd5b8135602061152861148f8361144a565b82815260059290921b8401810191818101908984111561154757600080fd5b948201945b8386101561156c5761155d86611378565b8252948201949082019061154c565b9650508601359250508082111561158257600080fd5b5061158f8582860161146e565b9150509250929050565b6000602082840312156115ab57600080fd5b610dd782611378565b634e487b7160e01b600052601160045260246000fd5b600082198211156115dd576115dd6115b4565b500190565b634e487b7160e01b600052603260045260246000fd5b600060001982141561160c5761160c6115b4565b5060010190565b60008261163057634e487b7160e01b600052601260045260246000fd5b500490565b600082821015611647576116476115b4565b500390565b6000816000190483118215151615611666576116666115b4565b500290565b60208082526015908201527415d85b1b195d08191bd95cc81b9bdd08195e1a5cdd605a1b604082015260600190565b6000602082840312156116ac57600080fd5b5051919050565b6000602082840312156116c557600080fd5b81518015158114610dd757600080fd5b60005b838110156116f05781810151838201526020016116d8565b838111156105a95750506000910152565b7f416363657373436f6e74726f6c3a206163636f756e74200000000000000000008152600083516117398160178501602088016116d5565b7001034b99036b4b9b9b4b733903937b6329607d1b601791840191820152835161176a8160288401602088016116d5565b01602801949350505050565b60208152600082518060208401526117958160408501602087016116d5565b601f01601f19169190910160400192915050565b6020808252602b908201527f496e697469616c697a61626c653a20636f6e7472616374206973206e6f74206960408201526a6e697469616c697a696e6760a81b606082015260800190565b600081611803576118036115b4565b506000190190565b634e487b7160e01b600052603160045260246000fdfea49807205ce4d355092ef5a8a18f56e8913cf4a201fbe287825b095693c21775a2646970667358221220c09e4a870ffb48ba012d8db82bc7bca059afff04cd5230d151d05f2f2df3c62664736f6c63430008090033",
  "linkReferences": {},
  "deployedLinkReferences": {}
}