{
  "_format": "hh-sol-artifact-1",
  "contractName": "vEVOVestingUpgradeable",
  "sourceName": "contracts/npc/vEVOVestingUpgradeable.sol",
  "abi": [
    {
      "inputs": [],
      "stateMutability": "nonpayable",
      "type": "constructor"
    },
    {
      "anonymous": false,
      "inputs": [
        {
          "indexed": true,
          "internalType": "address",
          "name": "from",
          "type": "address"
        },
        {
          "indexed": false,
          "internalType": "uint256",
          "name": "amount",
          "type": "uint256"
        }
      ],
      "name": "Claimed",
      "type": "event"
    },
    {
      "anonymous": false,
      "inputs": [
        {
          "indexed": false,
          "internalType": "uint8",
          "name": "version",
          "type": "uint8"
        }
      ],
      "name": "Initialized",
      "type": "event"
    },
    {
      "anonymous": false,
      "inputs": [
        {
          "indexed": false,
          "internalType": "address",
          "name": "account",
          "type": "address"
        }
      ],
      "name": "Paused",
      "type": "event"
    },
    {
      "anonymous": false,
      "inputs": [
        {
          "indexed": true,
          "internalType": "bytes32",
          "name": "role",
          "type": "bytes32"
        },
        {
          "indexed": true,
          "internalType": "bytes32",
          "name": "previousAdminRole",
          "type": "bytes32"
        },
        {
          "indexed": true,
          "internalType": "bytes32",
          "name": "newAdminRole",
          "type": "bytes32"
        }
      ],
      "name": "RoleAdminChanged",
      "type": "event"
    },
    {
      "anonymous": false,
      "inputs": [
        {
          "indexed": true,
          "internalType": "bytes32",
          "name": "role",
          "type": "bytes32"
        },
        {
          "indexed": true,
          "internalType": "address",
          "name": "account",
          "type": "address"
        },
        {
          "indexed": true,
          "internalType": "address",
          "name": "sender",
          "type": "address"
        }
      ],
      "name": "RoleGranted",
      "type": "event"
    },
    {
      "anonymous": false,
      "inputs": [
        {
          "indexed": true,
          "internalType": "bytes32",
          "name": "role",
          "type": "bytes32"
        },
        {
          "indexed": true,
          "internalType": "address",
          "name": "account",
          "type": "address"
        },
        {
          "indexed": true,
          "internalType": "address",
          "name": "sender",
          "type": "address"
        }
      ],
      "name": "RoleRevoked",
      "type": "event"
    },
    {
      "anonymous": false,
      "inputs": [
        {
          "indexed": false,
          "internalType": "address",
          "name": "account",
          "type": "address"
        }
      ],
      "name": "Unpaused",
      "type": "event"
    },
    {
      "inputs": [],
      "name": "ADMIN_ROLE",
      "outputs": [
        {
          "internalType": "bytes32",
          "name": "",
          "type": "bytes32"
        }
      ],
      "stateMutability": "view",
      "type": "function"
    },
    {
      "inputs": [],
      "name": "DEFAULT_ADMIN_ROLE",
      "outputs": [
        {
          "internalType": "bytes32",
          "name": "",
          "type": "bytes32"
        }
      ],
      "stateMutability": "view",
      "type": "function"
    },
    {
      "inputs": [],
      "name": "EVO",
      "outputs": [
        {
          "internalType": "contract IEvoToken",
          "name": "",
          "type": "address"
        }
      ],
      "stateMutability": "view",
      "type": "function"
    },
    {
      "inputs": [],
      "name": "GENESIS_TIMESTAMP",
      "outputs": [
        {
          "internalType": "uint256",
          "name": "",
          "type": "uint256"
        }
      ],
      "stateMutability": "view",
      "type": "function"
    },
    {
      "inputs": [],
      "name": "MasterInvestor",
      "outputs": [
        {
          "internalType": "address",
          "name": "",
          "type": "address"
        }
      ],
      "stateMutability": "view",
      "type": "function"
    },
    {
      "inputs": [],
      "name": "OMEGA_TIMESTAMP",
      "outputs": [
        {
          "internalType": "uint256",
          "name": "",
          "type": "uint256"
        }
      ],
      "stateMutability": "view",
      "type": "function"
    },
    {
      "inputs": [],
      "name": "VESTING_PERIOD_SECONDS",
      "outputs": [
        {
          "internalType": "uint256",
          "name": "",
          "type": "uint256"
        }
      ],
      "stateMutability": "view",
      "type": "function"
    },
    {
      "inputs": [
        {
          "internalType": "address",
          "name": "_address",
          "type": "address"
        },
        {
          "internalType": "uint256",
          "name": "amount",
          "type": "uint256"
        }
      ],
      "name": "addWallet",
      "outputs": [],
      "stateMutability": "nonpayable",
      "type": "function"
    },
    {
      "inputs": [
        {
          "internalType": "address[]",
          "name": "addresses",
          "type": "address[]"
        },
        {
          "internalType": "uint256[]",
          "name": "amounts",
          "type": "uint256[]"
        }
      ],
      "name": "bulkAddWallets",
      "outputs": [],
      "stateMutability": "nonpayable",
      "type": "function"
    },
    {
      "inputs": [],
      "name": "claimVested",
      "outputs": [],
      "stateMutability": "nonpayable",
      "type": "function"
    },
    {
      "inputs": [],
      "name": "claimVestedFromInvestor",
      "outputs": [],
      "stateMutability": "nonpayable",
      "type": "function"
    },
    {
      "inputs": [
        {
          "internalType": "bytes32",
          "name": "role",
          "type": "bytes32"
        }
      ],
      "name": "getRoleAdmin",
      "outputs": [
        {
          "internalType": "bytes32",
          "name": "",
          "type": "bytes32"
        }
      ],
      "stateMutability": "view",
      "type": "function"
    },
    {
      "inputs": [
        {
          "internalType": "address",
          "name": "_address",
          "type": "address"
        }
      ],
      "name": "getWalletData",
      "outputs": [
        {
          "internalType": "uint256",
          "name": "total",
          "type": "uint256"
        },
        {
          "internalType": "uint256",
          "name": "claimed",
          "type": "uint256"
        },
        {
          "internalType": "uint256",
          "name": "pending",
          "type": "uint256"
        }
      ],
      "stateMutability": "view",
      "type": "function"
    },
    {
      "inputs": [
        {
          "internalType": "bytes32",
          "name": "role",
          "type": "bytes32"
        },
        {
          "internalType": "address",
          "name": "account",
          "type": "address"
        }
      ],
      "name": "grantRole",
      "outputs": [],
      "stateMutability": "nonpayable",
      "type": "function"
    },
    {
      "inputs": [
        {
          "internalType": "bytes32",
          "name": "role",
          "type": "bytes32"
        },
        {
          "internalType": "address",
          "name": "account",
          "type": "address"
        }
      ],
      "name": "hasRole",
      "outputs": [
        {
          "internalType": "bool",
          "name": "",
          "type": "bool"
        }
      ],
      "stateMutability": "view",
      "type": "function"
    },
    {
      "inputs": [],
      "name": "initialize",
      "outputs": [],
      "stateMutability": "nonpayable",
      "type": "function"
    },
    {
      "inputs": [
        {
          "internalType": "address",
          "name": "_address",
          "type": "address"
        },
        {
          "internalType": "uint256",
          "name": "amount",
          "type": "uint256"
        }
      ],
      "name": "modifyWallet",
      "outputs": [],
      "stateMutability": "nonpayable",
      "type": "function"
    },
    {
      "inputs": [],
      "name": "paused",
      "outputs": [
        {
          "internalType": "bool",
          "name": "",
          "type": "bool"
        }
      ],
      "stateMutability": "view",
      "type": "function"
    },
    {
      "inputs": [
        {
          "internalType": "address",
          "name": "_address",
          "type": "address"
        }
      ],
      "name": "removeWallet",
      "outputs": [],
      "stateMutability": "nonpayable",
      "type": "function"
    },
    {
      "inputs": [
        {
          "internalType": "bytes32",
          "name": "role",
          "type": "bytes32"
        },
        {
          "internalType": "address",
          "name": "account",
          "type": "address"
        }
      ],
      "name": "renounceRole",
      "outputs": [],
      "stateMutability": "nonpayable",
      "type": "function"
    },
    {
      "inputs": [
        {
          "internalType": "bytes32",
          "name": "role",
          "type": "bytes32"
        },
        {
          "internalType": "address",
          "name": "account",
          "type": "address"
        }
      ],
      "name": "revokeRole",
      "outputs": [],
      "stateMutability": "nonpayable",
      "type": "function"
    },
    {
      "inputs": [],
      "name": "setEvo",
      "outputs": [],
      "stateMutability": "nonpayable",
      "type": "function"
    },
    {
      "inputs": [
        {
          "internalType": "address",
          "name": "_address",
          "type": "address"
        }
      ],
      "name": "setMasterInvestor",
      "outputs": [],
      "stateMutability": "nonpayable",
      "type": "function"
    },
    {
      "inputs": [
        {
          "internalType": "uint256",
          "name": "_days",
          "type": "uint256"
        }
      ],
      "name": "setVestingPeriod",
      "outputs": [],
      "stateMutability": "nonpayable",
      "type": "function"
    },
    {
      "inputs": [
        {
          "internalType": "bytes4",
          "name": "interfaceId",
          "type": "bytes4"
        }
      ],
      "name": "supportsInterface",
      "outputs": [
        {
          "internalType": "bool",
          "name": "",
          "type": "bool"
        }
      ],
      "stateMutability": "view",
      "type": "function"
    },
    {
      "inputs": [],
      "name": "totalPending",
      "outputs": [
        {
          "internalType": "uint256",
          "name": "",
          "type": "uint256"
        }
      ],
      "stateMutability": "view",
      "type": "function"
    },
    {
      "inputs": [],
      "name": "vEVO",
      "outputs": [
        {
          "internalType": "contract IEvoToken",
          "name": "",
          "type": "address"
        }
      ],
      "stateMutability": "view",
      "type": "function"
    }
  ],
  "bytecode": "0x60806040523480156200001157600080fd5b50600062000020600162000087565b9050801562000039576000805461ff0019166101001790555b801562000080576000805461ff0019169055604051600181527f7f26b83ff96e1f2b6a682f133852f6798a09c465da95921460cefb38474024989060200160405180910390a15b50620001a8565b60008054610100900460ff161562000120578160ff166001148015620000c05750620000be306200019960201b62000fc91760201c565b155b620001185760405162461bcd60e51b815260206004820152602e602482015260008051602062001dd983398151915260448201526d191e481a5b9a5d1a585b1a5e995960921b60648201526084015b60405180910390fd5b506000919050565b60005460ff8084169116106200017f5760405162461bcd60e51b815260206004820152602e602482015260008051602062001dd983398151915260448201526d191e481a5b9a5d1a585b1a5e995960921b60648201526084016200010f565b506000805460ff191660ff92909216919091179055600190565b6001600160a01b03163b151590565b611c2180620001b86000396000f3fe608060405234801561001057600080fd5b50600436106101a95760003560e01c80635c975abb116100f9578063a75fe8e111610097578063d547741f11610071578063d547741f14610375578063deb0d7c014610388578063e48661321461039c578063f23d2347146103b757600080fd5b8063a75fe8e114610350578063ca3136ad14610363578063d01c44cd1461036d57600080fd5b80638129fc1c116100d35780638129fc1c146102ff578063857923c41461030757806391d1485414610335578063a217fddf1461034857600080fd5b80635c975abb146102d557806367390e90146102e057806375b238fc146102ea57600080fd5b806336568abe11610166578063406b18e311610140578063406b18e31461027b57806340bee0ed1461028e57806349e8b863146102a157806353edd166146102cd57600080fd5b806336568abe1461024d5780633ece94c6146102605780633f90916a1461027357600080fd5b806301ffc9a7146101ae5780630a2a9a01146101d65780630c204d44146101eb578063248a9ca3146102045780632f2ff15d146102275780633527640b1461023a575b600080fd5b6101c16101bc366004611668565b6103bf565b60405190151581526020015b60405180910390f35b6101e96101e43660046116a9565b6103f6565b005b6101f663624ca6c881565b6040519081526020016101cd565b6101f66102123660046116d3565b60009081526065602052604090206001015490565b6101e96102353660046116ec565b6104ab565b6101e9610248366004611718565b6104d5565b6101e961025b3660046116ec565b610511565b6101e961026e366004611809565b61058f565b6101f6610668565b6101e96102893660046116a9565b6106ca565b6101e961029c3660046116d3565b610726565b610102546102b5906001600160a01b031681565b6040516001600160a01b0390911681526020016101cd565b6101e9610767565b60c95460ff166101c1565b6101f66101015481565b6101f6600080516020611bcc83398151915281565b6101e9610b62565b61031a610315366004611718565b610c14565b604080519384526020840192909252908201526060016101cd565b6101c16103433660046116ec565b610c6d565b6101f6600081565b6101e961035e366004611718565b610c98565b6101f66101005481565b6101e9610d01565b6101e96103833660046116ec565b610f62565b610103546102b5906001600160a01b031681565b6102b573eb76ef5d121f31c2cb59e50a4fa5475042c84e3481565b6101e9610f87565b60006001600160e01b03198216637965db0b60e01b14806103f057506301ffc9a760e01b6001600160e01b03198316145b92915050565b600080516020611bcc83398151915261040e81610fd8565b61041960fe84610fe2565b156104645760405162461bcd60e51b815260206004820152601660248201527515d85b1b195d08185b1c9958591e48195b9d195c995960521b60448201526064015b60405180910390fd5b6001600160a01b038316600090815260fd602052604081208381556001015561048e60fe84611007565b508160fc60008282546104a191906118df565b9091555050505050565b6000828152606560205260409020600101546104c681610fd8565b6104d0838361101c565b505050565b600080516020611bcc8339815191526104ed81610fd8565b5061010380546001600160a01b0319166001600160a01b0392909216919091179055565b6001600160a01b03811633146105815760405162461bcd60e51b815260206004820152602f60248201527f416363657373436f6e74726f6c3a2063616e206f6e6c792072656e6f756e636560448201526e103937b632b9903337b91039b2b63360891b606482015260840161045b565b61058b82826110a2565b5050565b600080516020611bcc8339815191526105a781610fd8565b81518351146106085760405162461bcd60e51b815260206004820152602760248201527f41646472657373206c69737420646f6573206e6f74206d6174636820616d6f756044820152661b9d081b1a5cdd60ca1b606482015260840161045b565b60005b835181101561066257610650848281518110610629576106296118f7565b6020026020010151848381518110610643576106436118f7565b60200260200101516103f6565b8061065a8161190d565b91505061060b565b50505050565b6000806101005460fc5461067c9190611928565b905060004290504261010154116106935750610101545b60006106a363624ca6c88361194a565b905060006106b18285611961565b905060fb54816106c1919061194a565b94505050505090565b600080516020611bcc8339815191526106e281610fd8565b6106ed60fe84610fe2565b6107095760405162461bcd60e51b815260040161045b90611980565b506001600160a01b03909116600090815260fd6020526040902055565b600080516020611bcc83398151915261073e81610fd8565b61074b8262015180611961565b61010081905561075f9063624ca6c86118df565b610101555050565b60c95460ff16156107ad5760405162461bcd60e51b815260206004820152601060248201526f14185d5cd8589b194e881c185d5cd95960821b604482015260640161045b565b600260975414156108005760405162461bcd60e51b815260206004820152601f60248201527f5265656e7472616e637947756172643a207265656e7472616e742063616c6c00604482015260640161045b565b6002609755610812335b60fe90610fe2565b61082e5760405162461bcd60e51b815260040161045b90611980565b600061083933611109565b90504261010154116108685733600090815260fd6020526040902060018101549054610865919061194a565b90505b8073eb76ef5d121f31c2cb59e50a4fa5475042c84e3463dd62ed3e336040516001600160e01b031960e084901b1681526001600160a01b03909116600482015230602482015260440160206040518083038186803b1580156108c957600080fd5b505afa1580156108dd573d6000803e3d6000fd5b505050506040513d601f19601f8201168201806040525081019061090191906119af565b101561091f5760405162461bcd60e51b815260040161045b906119c8565b610103546001600160a01b0316806343e372c6600184336040516001600160e01b031960e086901b168152600481019390935260248301919091526001600160a01b03166044820152606401600060405180830381600087803b15801561098557600080fd5b505af1158015610999573d6000803e3d6000fd5b505050508160fd60006109a93390565b6001600160a01b03166001600160a01b0316815260200190815260200160002060010160008282546109db91906118df565b925050819055508160fb60008282546109f491906118df565b9091555073eb76ef5d121f31c2cb59e50a4fa5475042c84e3490506323b872dd336040516001600160e01b031960e084901b1681526001600160a01b0390911660048201526001602482015260448101859052606401602060405180830381600087803b158015610a6457600080fd5b505af1158015610a78573d6000803e3d6000fd5b505050506040513d601f19601f82011682018060405250810190610a9c9190611a0f565b50610102546001600160a01b03166340c10f19336040516001600160e01b031960e084901b1681526001600160a01b03909116600482015260248101859052604401600060405180830381600087803b158015610af857600080fd5b505af1158015610b0c573d6000803e3d6000fd5b50505050610b173390565b6001600160a01b03167fd8138f8a3f377c5259ca548e70e4c2de94f129f5a11036a15b69513cba2b426a83604051610b5191815260200190565b60405180910390a250506001609755565b6000610b6e600161119c565b90508015610b86576000805461ff0019166101001790555b610b8e611229565b610b96611252565b610b9e611281565b610ba960003361101c565b610bc1600080516020611bcc8339815191523361101c565b600060fb81905560fc558015610c11576000805461ff0019169055604051600181527f7f26b83ff96e1f2b6a682f133852f6798a09c465da95921460cefb38474024989060200160405180910390a15b50565b60008080610c2360fe85610fe2565b610c3557506000915081905080610c66565b6001600160a01b038416600090815260fd6020526040902080546001909101549093509150610c6384611109565b90505b9193909250565b60009182526065602090815260408084206001600160a01b0393909316845291905290205460ff1690565b600080516020611bcc833981519152610cb081610fd8565b610cbb60fe83610fe2565b610cd75760405162461bcd60e51b815260040161045b90611980565b6001600160a01b038216600090815260fd60205260408120818155600101556104d060fe836112b0565b60c95460ff1615610d475760405162461bcd60e51b815260206004820152601060248201526f14185d5cd8589b194e881c185d5cd95960821b604482015260640161045b565b60026097541415610d9a5760405162461bcd60e51b815260206004820152601f60248201527f5265656e7472616e637947756172643a207265656e7472616e742063616c6c00604482015260640161045b565b6002609755610da83361080a565b610dc45760405162461bcd60e51b815260040161045b90611980565b6000610dcf33611109565b9050426101015411610dfe5733600090815260fd6020526040902060018101549054610dfb919061194a565b90505b600073eb76ef5d121f31c2cb59e50a4fa5475042c84e346370a08231336040516001600160e01b031960e084901b1681526001600160a01b03909116600482015260240160206040518083038186803b158015610e5a57600080fd5b505afa158015610e6e573d6000803e3d6000fd5b505050506040513d601f19601f82011682018060405250810190610e9291906119af565b905081811015610ea0578091505b8173eb76ef5d121f31c2cb59e50a4fa5475042c84e3463dd62ed3e336040516001600160e01b031960e084901b1681526001600160a01b03909116600482015230602482015260440160206040518083038186803b158015610f0157600080fd5b505afa158015610f15573d6000803e3d6000fd5b505050506040513d601f19601f82011682018060405250810190610f3991906119af565b1015610f575760405162461bcd60e51b815260040161045b906119c8565b8160fd6000336109a9565b600082815260656020526040902060010154610f7d81610fd8565b6104d083836110a2565b600080516020611bcc833981519152610f9f81610fd8565b5061010280546001600160a01b031916735b747e23a9e4c509dd06fbd2c0e3cb8b846e398f179055565b6001600160a01b03163b151590565b610c1181336112c5565b6001600160a01b038116600090815260018301602052604081205415155b9392505050565b6000611000836001600160a01b038416611329565b6110268282610c6d565b61058b5760008281526065602090815260408083206001600160a01b03851684529091529020805460ff1916600117905561105e3390565b6001600160a01b0316816001600160a01b0316837f2f8788117e7eff1d82e926ec794901d17c78024a50270940304540a733656f0d60405160405180910390a45050565b6110ac8282610c6d565b1561058b5760008281526065602090815260408083206001600160a01b0385168085529252808320805460ff1916905551339285917ff6391f5c32d9c69d2a47ea670b442974b53935d1edc7fd64eb21e047a839171b9190a45050565b610100546001600160a01b038216600090815260fd6020526040812054909182916111349190611928565b9050600042905042610101541161114b5750610101545b600061115b63624ca6c88361194a565b905060006111698285611961565b6001600160a01b038716600090815260fd6020526040902060010154909150611192908261194a565b9695505050505050565b60008054610100900460ff16156111e3578160ff1660011480156111bf5750303b155b6111db5760405162461bcd60e51b815260040161045b90611a31565b506000919050565b60005460ff80841691161061120a5760405162461bcd60e51b815260040161045b90611a31565b506000805460ff191660ff92909216919091179055600190565b919050565b600054610100900460ff166112505760405162461bcd60e51b815260040161045b90611a7f565b565b600054610100900460ff166112795760405162461bcd60e51b815260040161045b90611a7f565b611250611378565b600054610100900460ff166112a85760405162461bcd60e51b815260040161045b90611a7f565b6112506113a6565b6000611000836001600160a01b0384166113d9565b6112cf8282610c6d565b61058b576112e7816001600160a01b031660146114cc565b6112f28360206114cc565b604051602001611303929190611af6565b60408051601f198184030181529082905262461bcd60e51b825261045b91600401611b6b565b6000818152600183016020526040812054611370575081546001818101845560008481526020808220909301849055845484825282860190935260409020919091556103f0565b5060006103f0565b600054610100900460ff1661139f5760405162461bcd60e51b815260040161045b90611a7f565b6001609755565b600054610100900460ff166113cd5760405162461bcd60e51b815260040161045b90611a7f565b60c9805460ff19169055565b600081815260018301602052604081205480156114c25760006113fd60018361194a565b85549091506000906114119060019061194a565b9050818114611476576000866000018281548110611431576114316118f7565b9060005260206000200154905080876000018481548110611454576114546118f7565b6000918252602080832090910192909255918252600188019052604090208390555b855486908061148757611487611b9e565b6001900381819060005260206000200160009055905585600101600086815260200190815260200160002060009055600193505050506103f0565b60009150506103f0565b606060006114db836002611961565b6114e69060026118df565b67ffffffffffffffff8111156114fe576114fe611733565b6040519080825280601f01601f191660200182016040528015611528576020820181803683370190505b509050600360fc1b81600081518110611543576115436118f7565b60200101906001600160f81b031916908160001a905350600f60fb1b81600181518110611572576115726118f7565b60200101906001600160f81b031916908160001a9053506000611596846002611961565b6115a19060016118df565b90505b6001811115611619576f181899199a1a9b1b9c1cb0b131b232b360811b85600f16601081106115d5576115d56118f7565b1a60f81b8282815181106115eb576115eb6118f7565b60200101906001600160f81b031916908160001a90535060049490941c9361161281611bb4565b90506115a4565b5083156110005760405162461bcd60e51b815260206004820181905260248201527f537472696e67733a20686578206c656e67746820696e73756666696369656e74604482015260640161045b565b60006020828403121561167a57600080fd5b81356001600160e01b03198116811461100057600080fd5b80356001600160a01b038116811461122457600080fd5b600080604083850312156116bc57600080fd5b6116c583611692565b946020939093013593505050565b6000602082840312156116e557600080fd5b5035919050565b600080604083850312156116ff57600080fd5b8235915061170f60208401611692565b90509250929050565b60006020828403121561172a57600080fd5b61100082611692565b634e487b7160e01b600052604160045260246000fd5b604051601f8201601f1916810167ffffffffffffffff8111828210171561177257611772611733565b604052919050565b600067ffffffffffffffff82111561179457611794611733565b5060051b60200190565b600082601f8301126117af57600080fd5b813560206117c46117bf8361177a565b611749565b82815260059290921b840181019181810190868411156117e357600080fd5b8286015b848110156117fe57803583529183019183016117e7565b509695505050505050565b6000806040838503121561181c57600080fd5b823567ffffffffffffffff8082111561183457600080fd5b818501915085601f83011261184857600080fd5b813560206118586117bf8361177a565b82815260059290921b8401810191818101908984111561187757600080fd5b948201945b8386101561189c5761188d86611692565b8252948201949082019061187c565b965050860135925050808211156118b257600080fd5b506118bf8582860161179e565b9150509250929050565b634e487b7160e01b600052601160045260246000fd5b600082198211156118f2576118f26118c9565b500190565b634e487b7160e01b600052603260045260246000fd5b6000600019821415611921576119216118c9565b5060010190565b60008261194557634e487b7160e01b600052601260045260246000fd5b500490565b60008282101561195c5761195c6118c9565b500390565b600081600019048311821515161561197b5761197b6118c9565b500290565b60208082526015908201527415d85b1b195d08191bd95cc81b9bdd08195e1a5cdd605a1b604082015260600190565b6000602082840312156119c157600080fd5b5051919050565b60208082526027908201527f50656e64696e672062616c616e6365206578636565647320617070726f76656460408201526608185b5bdd5b9d60ca1b606082015260800190565b600060208284031215611a2157600080fd5b8151801515811461100057600080fd5b6020808252602e908201527f496e697469616c697a61626c653a20636f6e747261637420697320616c72656160408201526d191e481a5b9a5d1a585b1a5e995960921b606082015260800190565b6020808252602b908201527f496e697469616c697a61626c653a20636f6e7472616374206973206e6f74206960408201526a6e697469616c697a696e6760a81b606082015260800190565b60005b83811015611ae5578181015183820152602001611acd565b838111156106625750506000910152565b7f416363657373436f6e74726f6c3a206163636f756e7420000000000000000000815260008351611b2e816017850160208801611aca565b7001034b99036b4b9b9b4b733903937b6329607d1b6017918401918201528351611b5f816028840160208801611aca565b01602801949350505050565b6020815260008251806020840152611b8a816040850160208701611aca565b601f01601f19169190910160400192915050565b634e487b7160e01b600052603160045260246000fd5b600081611bc357611bc36118c9565b50600019019056fea49807205ce4d355092ef5a8a18f56e8913cf4a201fbe287825b095693c21775a26469706673582212202979d58a7cf4251e747cfde908a561957f0d10e9093ea3a1ad64f61a4ef4e66f64736f6c63430008090033496e697469616c697a61626c653a20636f6e747261637420697320616c726561",
  "linkReferences": {},
  "deployedLinkReferences": {}
}