{
  "_format": "hh-sol-artifact-1",
  "contractName": "vEVOVestingUpgradeable",
  "sourceName": "contracts/npc/vEVOVestingUpgradeable.sol",
  "abi": [
    {
      "inputs": [],
      "stateMutability": "nonpayable",
      "type": "constructor"
    },
    {
      "anonymous": false,
      "inputs": [
        {
          "indexed": false,
          "internalType": "address",
          "name": "account",
          "type": "address"
        }
      ],
      "name": "Paused",
      "type": "event"
    },
    {
      "anonymous": false,
      "inputs": [
        {
          "indexed": true,
          "internalType": "bytes32",
          "name": "role",
          "type": "bytes32"
        },
        {
          "indexed": true,
          "internalType": "bytes32",
          "name": "previousAdminRole",
          "type": "bytes32"
        },
        {
          "indexed": true,
          "internalType": "bytes32",
          "name": "newAdminRole",
          "type": "bytes32"
        }
      ],
      "name": "RoleAdminChanged",
      "type": "event"
    },
    {
      "anonymous": false,
      "inputs": [
        {
          "indexed": true,
          "internalType": "bytes32",
          "name": "role",
          "type": "bytes32"
        },
        {
          "indexed": true,
          "internalType": "address",
          "name": "account",
          "type": "address"
        },
        {
          "indexed": true,
          "internalType": "address",
          "name": "sender",
          "type": "address"
        }
      ],
      "name": "RoleGranted",
      "type": "event"
    },
    {
      "anonymous": false,
      "inputs": [
        {
          "indexed": true,
          "internalType": "bytes32",
          "name": "role",
          "type": "bytes32"
        },
        {
          "indexed": true,
          "internalType": "address",
          "name": "account",
          "type": "address"
        },
        {
          "indexed": true,
          "internalType": "address",
          "name": "sender",
          "type": "address"
        }
      ],
      "name": "RoleRevoked",
      "type": "event"
    },
    {
      "anonymous": false,
      "inputs": [
        {
          "indexed": false,
          "internalType": "address",
          "name": "account",
          "type": "address"
        }
      ],
      "name": "Unpaused",
      "type": "event"
    },
    {
      "inputs": [],
      "name": "ADMIN_ROLE",
      "outputs": [
        {
          "internalType": "bytes32",
          "name": "",
          "type": "bytes32"
        }
      ],
      "stateMutability": "view",
      "type": "function"
    },
    {
      "inputs": [],
      "name": "DEFAULT_ADMIN_ROLE",
      "outputs": [
        {
          "internalType": "bytes32",
          "name": "",
          "type": "bytes32"
        }
      ],
      "stateMutability": "view",
      "type": "function"
    },
    {
      "inputs": [],
      "name": "EVO",
      "outputs": [
        {
          "internalType": "contract IEvoToken",
          "name": "",
          "type": "address"
        }
      ],
      "stateMutability": "view",
      "type": "function"
    },
    {
      "inputs": [],
      "name": "GENESIS_TIMESTAMP",
      "outputs": [
        {
          "internalType": "uint256",
          "name": "",
          "type": "uint256"
        }
      ],
      "stateMutability": "view",
      "type": "function"
    },
    {
      "inputs": [],
      "name": "OMEGA_TIMESTAMP",
      "outputs": [
        {
          "internalType": "uint256",
          "name": "",
          "type": "uint256"
        }
      ],
      "stateMutability": "view",
      "type": "function"
    },
    {
      "inputs": [],
      "name": "VESTING_PERIOD_SECONDS",
      "outputs": [
        {
          "internalType": "uint256",
          "name": "",
          "type": "uint256"
        }
      ],
      "stateMutability": "view",
      "type": "function"
    },
    {
      "inputs": [
        {
          "internalType": "address",
          "name": "_address",
          "type": "address"
        },
        {
          "internalType": "uint256",
          "name": "amount",
          "type": "uint256"
        }
      ],
      "name": "addWallet",
      "outputs": [],
      "stateMutability": "nonpayable",
      "type": "function"
    },
    {
      "inputs": [
        {
          "internalType": "address[]",
          "name": "addresses",
          "type": "address[]"
        },
        {
          "internalType": "uint256[]",
          "name": "amounts",
          "type": "uint256[]"
        }
      ],
      "name": "bulkAddWallets",
      "outputs": [],
      "stateMutability": "nonpayable",
      "type": "function"
    },
    {
      "inputs": [],
      "name": "claimVested",
      "outputs": [],
      "stateMutability": "nonpayable",
      "type": "function"
    },
    {
      "inputs": [
        {
          "internalType": "bytes32",
          "name": "role",
          "type": "bytes32"
        }
      ],
      "name": "getRoleAdmin",
      "outputs": [
        {
          "internalType": "bytes32",
          "name": "",
          "type": "bytes32"
        }
      ],
      "stateMutability": "view",
      "type": "function"
    },
    {
      "inputs": [
        {
          "internalType": "address",
          "name": "_address",
          "type": "address"
        }
      ],
      "name": "getWalletData",
      "outputs": [
        {
          "internalType": "uint256",
          "name": "total",
          "type": "uint256"
        },
        {
          "internalType": "uint256",
          "name": "claimed",
          "type": "uint256"
        },
        {
          "internalType": "uint256",
          "name": "pending",
          "type": "uint256"
        }
      ],
      "stateMutability": "view",
      "type": "function"
    },
    {
      "inputs": [
        {
          "internalType": "bytes32",
          "name": "role",
          "type": "bytes32"
        },
        {
          "internalType": "address",
          "name": "account",
          "type": "address"
        }
      ],
      "name": "grantRole",
      "outputs": [],
      "stateMutability": "nonpayable",
      "type": "function"
    },
    {
      "inputs": [
        {
          "internalType": "bytes32",
          "name": "role",
          "type": "bytes32"
        },
        {
          "internalType": "address",
          "name": "account",
          "type": "address"
        }
      ],
      "name": "hasRole",
      "outputs": [
        {
          "internalType": "bool",
          "name": "",
          "type": "bool"
        }
      ],
      "stateMutability": "view",
      "type": "function"
    },
    {
      "inputs": [],
      "name": "initialize",
      "outputs": [],
      "stateMutability": "nonpayable",
      "type": "function"
    },
    {
      "inputs": [
        {
          "internalType": "address",
          "name": "_address",
          "type": "address"
        },
        {
          "internalType": "uint256",
          "name": "amount",
          "type": "uint256"
        }
      ],
      "name": "modifyWallet",
      "outputs": [],
      "stateMutability": "nonpayable",
      "type": "function"
    },
    {
      "inputs": [],
      "name": "paused",
      "outputs": [
        {
          "internalType": "bool",
          "name": "",
          "type": "bool"
        }
      ],
      "stateMutability": "view",
      "type": "function"
    },
    {
      "inputs": [
        {
          "internalType": "address",
          "name": "_address",
          "type": "address"
        }
      ],
      "name": "removeWallet",
      "outputs": [],
      "stateMutability": "nonpayable",
      "type": "function"
    },
    {
      "inputs": [
        {
          "internalType": "bytes32",
          "name": "role",
          "type": "bytes32"
        },
        {
          "internalType": "address",
          "name": "account",
          "type": "address"
        }
      ],
      "name": "renounceRole",
      "outputs": [],
      "stateMutability": "nonpayable",
      "type": "function"
    },
    {
      "inputs": [
        {
          "internalType": "bytes32",
          "name": "role",
          "type": "bytes32"
        },
        {
          "internalType": "address",
          "name": "account",
          "type": "address"
        }
      ],
      "name": "revokeRole",
      "outputs": [],
      "stateMutability": "nonpayable",
      "type": "function"
    },
    {
      "inputs": [
        {
          "internalType": "bytes4",
          "name": "interfaceId",
          "type": "bytes4"
        }
      ],
      "name": "supportsInterface",
      "outputs": [
        {
          "internalType": "bool",
          "name": "",
          "type": "bool"
        }
      ],
      "stateMutability": "view",
      "type": "function"
    },
    {
      "inputs": [],
      "name": "totalPending",
      "outputs": [
        {
          "internalType": "uint256",
          "name": "",
          "type": "uint256"
        }
      ],
      "stateMutability": "view",
      "type": "function"
    },
    {
      "inputs": [],
      "name": "vEVO",
      "outputs": [
        {
          "internalType": "contract IEvoToken",
          "name": "",
          "type": "address"
        }
      ],
      "stateMutability": "view",
      "type": "function"
    }
  ],
  "bytecode": "0x60806040523480156200001157600080fd5b50600054610100900460ff166200002f5760005460ff161562000039565b62000039620000de565b620000a15760405162461bcd60e51b815260206004820152602e60248201527f496e697469616c697a61626c653a20636f6e747261637420697320616c72656160448201526d191e481a5b9a5d1a585b1a5e995960921b606482015260840160405180910390fd5b600054610100900460ff16158015620000c4576000805461ffff19166101011790555b8015620000d7576000805461ff00191690555b506200010b565b6000620000f630620000fc60201b62000cd81760201c565b15905090565b6001600160a01b03163b151590565b611821806200011b6000396000f3fe608060405234801561001057600080fd5b50600436106101425760003560e01c806367390e90116100b8578063a217fddf1161007c578063a217fddf146102b8578063a75fe8e1146102c0578063ca3136ad146102d3578063d01c44cd146102de578063d547741f146102e6578063e4866132146102f957600080fd5b806367390e901461025257806375b238fc1461025a5780638129fc1c1461026f578063857923c41461027757806391d14854146102a557600080fd5b806336568abe1161010a57806336568abe146101d35780633ece94c6146101e65780633f90916a146101f9578063406b18e31461020157806349e8b863146102145780635c975abb1461024757600080fd5b806301ffc9a7146101475780630a2a9a011461016f5780630c204d4414610184578063248a9ca31461019d5780632f2ff15d146101c0575b600080fd5b61015a6101553660046112f8565b610314565b60405190151581526020015b60405180910390f35b61018261017d36600461133e565b61034b565b005b61018f63624ca6c881565b604051908152602001610166565b61018f6101ab366004611368565b60009081526065602052604090206001015490565b6101826101ce366004611381565b610401565b6101826101e1366004611381565b61042c565b6101826101f4366004611483565b6104aa565b61018f610584565b61018261020f36600461133e565b610600565b61022f73d6e76742962379e234e9fd4e73768cef779f38b581565b6040516001600160a01b039091168152602001610166565b60c95460ff1661015a565b61018f61065d565b61018f6000805160206117cc83398151915281565b610182610672565b61028a610285366004611543565b610770565b60408051938452602084019290925290820152606001610166565b61015a6102b3366004611381565b6107d1565b61018f600081565b6101826102ce366004611543565b6107fc565b61018f630118cf8081565b610182610866565b6101826102f4366004611381565b610cb2565b61022f73eb76ef5d121f31c2cb59e50a4fa5475042c84e3481565b60006001600160e01b03198216637965db0b60e01b148061034557506301ffc9a760e01b6001600160e01b03198316145b92915050565b6000805160206117cc8339815191526103648133610ce7565b61036f60fe84610d4b565b156103ba5760405162461bcd60e51b815260206004820152601660248201527515d85b1b195d08185b1c9958591e48195b9d195c995960521b60448201526064015b60405180910390fd5b6001600160a01b038316600090815260fd60205260408120838155600101556103e460fe84610d70565b508160fc60008282546103f79190611574565b9091555050505050565b60008281526065602052604090206001015461041d8133610ce7565b6104278383610d85565b505050565b6001600160a01b038116331461049c5760405162461bcd60e51b815260206004820152602f60248201527f416363657373436f6e74726f6c3a2063616e206f6e6c792072656e6f756e636560448201526e103937b632b9903337b91039b2b63360891b60648201526084016103b1565b6104a68282610e0b565b5050565b6000805160206117cc8339815191526104c38133610ce7565b81518351146105245760405162461bcd60e51b815260206004820152602760248201527f41646472657373206c69737420646f6573206e6f74206d6174636820616d6f756044820152661b9d081b1a5cdd60ca1b60648201526084016103b1565b60005b835181101561057e5761056c8482815181106105455761054561158c565b602002602001015184838151811061055f5761055f61158c565b602002602001015161034b565b80610576816115a2565b915050610527565b50505050565b600080630118cf8060fc5461059991906115bd565b905042806105af630118cf8063624ca6c8611574565b116105c9576105c6630118cf8063624ca6c8611574565b90505b60006105d963624ca6c8836115df565b905060006105e782856115f6565b905060fb54816105f791906115df565b94505050505090565b6000805160206117cc8339815191526106198133610ce7565b61062460fe84610d4b565b6106405760405162461bcd60e51b81526004016103b190611615565b506001600160a01b03909116600090815260fd6020526040902055565b61066f630118cf8063624ca6c8611574565b81565b600054610100900460ff1661068d5760005460ff1615610691565b303b155b6106f45760405162461bcd60e51b815260206004820152602e60248201527f496e697469616c697a61626c653a20636f6e747261637420697320616c72656160448201526d191e481a5b9a5d1a585b1a5e995960921b60648201526084016103b1565b600054610100900460ff16158015610716576000805461ffff19166101011790555b61071e610e72565b610726610e9b565b61072e610eca565b610739600033610d85565b6107516000805160206117cc83398151915233610d85565b600060fb81905560fc55801561076d576000805461ff00191690555b50565b6000808061077f60fe85610d4b565b61079b5760405162461bcd60e51b81526004016103b190611615565b6001600160a01b038416600090815260fd60205260409020805460019091015490935091506107c984610ef9565b929491935050565b60009182526065602090815260408084206001600160a01b0393909316845291905290205460ff1690565b6000805160206117cc8339815191526108158133610ce7565b61082060fe83610d4b565b61083c5760405162461bcd60e51b81526004016103b190611615565b6001600160a01b038216600090815260fd602052604081208181556001015561042760fe83610fa4565b60c95460ff16156108ac5760405162461bcd60e51b815260206004820152601060248201526f14185d5cd8589b194e881c185d5cd95960821b60448201526064016103b1565b600260975414156108ff5760405162461bcd60e51b815260206004820152601f60248201527f5265656e7472616e637947756172643a207265656e7472616e742063616c6c0060448201526064016103b1565b600260975561090f60fe33610d4b565b61092b5760405162461bcd60e51b81526004016103b190611615565b600061093633610ef9565b90504261094b630118cf8063624ca6c8611574565b116109735733600090815260fd602052604090206001810154905461097091906115df565b90505b8073eb76ef5d121f31c2cb59e50a4fa5475042c84e346370a08231336040516001600160e01b031960e084901b1681526001600160a01b03909116600482015260240160206040518083038186803b1580156109ce57600080fd5b505afa1580156109e2573d6000803e3d6000fd5b505050506040513d601f19601f82011682018060405250810190610a069190611644565b1015610a545760405162461bcd60e51b815260206004820152601960248201527f496e73756666696369656e74207645564f2062616c616e63650000000000000060448201526064016103b1565b8073eb76ef5d121f31c2cb59e50a4fa5475042c84e3463dd62ed3e336040516001600160e01b031960e084901b1681526001600160a01b03909116600482015230602482015260440160206040518083038186803b158015610ab557600080fd5b505afa158015610ac9573d6000803e3d6000fd5b505050506040513d601f19601f82011682018060405250810190610aed9190611644565b1015610b4b5760405162461bcd60e51b815260206004820152602760248201527f50656e64696e672062616c616e6365206578636565647320617070726f76656460448201526608185b5bdd5b9d60ca1b60648201526084016103b1565b33600090815260fd602052604081206001018054839290610b6d908490611574565b925050819055508060fb6000828254610b869190611574565b9091555073eb76ef5d121f31c2cb59e50a4fa5475042c84e3490506323b872dd336040516001600160e01b031960e084901b1681526001600160a01b0390911660048201526001602482015260448101849052606401602060405180830381600087803b158015610bf657600080fd5b505af1158015610c0a573d6000803e3d6000fd5b505050506040513d601f19601f82011682018060405250810190610c2e919061165d565b5073d6e76742962379e234e9fd4e73768cef779f38b56340c10f19336040516001600160e01b031960e084901b1681526001600160a01b03909116600482015260248101849052604401600060405180830381600087803b158015610c9257600080fd5b505af1158015610ca6573d6000803e3d6000fd5b50506001609755505050565b600082815260656020526040902060010154610cce8133610ce7565b6104278383610e0b565b6001600160a01b03163b151590565b610cf182826107d1565b6104a657610d09816001600160a01b03166014610fb9565b610d14836020610fb9565b604051602001610d259291906116ab565b60408051601f198184030181529082905262461bcd60e51b82526103b191600401611720565b6001600160a01b038116600090815260018301602052604081205415155b9392505050565b6000610d69836001600160a01b038416611155565b610d8f82826107d1565b6104a65760008281526065602090815260408083206001600160a01b03851684529091529020805460ff19166001179055610dc73390565b6001600160a01b0316816001600160a01b0316837f2f8788117e7eff1d82e926ec794901d17c78024a50270940304540a733656f0d60405160405180910390a45050565b610e1582826107d1565b156104a65760008281526065602090815260408083206001600160a01b0385168085529252808320805460ff1916905551339285917ff6391f5c32d9c69d2a47ea670b442974b53935d1edc7fd64eb21e047a839171b9190a45050565b600054610100900460ff16610e995760405162461bcd60e51b81526004016103b190611753565b565b600054610100900460ff16610ec25760405162461bcd60e51b81526004016103b190611753565b610e996111a4565b600054610100900460ff16610ef15760405162461bcd60e51b81526004016103b190611753565b610e996111d2565b6001600160a01b038116600090815260fd60205260408120548190610f2390630118cf80906115bd565b90504280610f39630118cf8063624ca6c8611574565b11610f5357610f50630118cf8063624ca6c8611574565b90505b6000610f6363624ca6c8836115df565b90506000610f7182856115f6565b6001600160a01b038716600090815260fd6020526040902060010154909150610f9a90826115df565b9695505050505050565b6000610d69836001600160a01b038416611205565b60606000610fc88360026115f6565b610fd3906002611574565b67ffffffffffffffff811115610feb57610feb6113ad565b6040519080825280601f01601f191660200182016040528015611015576020820181803683370190505b509050600360fc1b816000815181106110305761103061158c565b60200101906001600160f81b031916908160001a905350600f60fb1b8160018151811061105f5761105f61158c565b60200101906001600160f81b031916908160001a90535060006110838460026115f6565b61108e906001611574565b90505b6001811115611106576f181899199a1a9b1b9c1cb0b131b232b360811b85600f16601081106110c2576110c261158c565b1a60f81b8282815181106110d8576110d861158c565b60200101906001600160f81b031916908160001a90535060049490941c936110ff8161179e565b9050611091565b508315610d695760405162461bcd60e51b815260206004820181905260248201527f537472696e67733a20686578206c656e67746820696e73756666696369656e7460448201526064016103b1565b600081815260018301602052604081205461119c57508154600181810184556000848152602080822090930184905584548482528286019093526040902091909155610345565b506000610345565b600054610100900460ff166111cb5760405162461bcd60e51b81526004016103b190611753565b6001609755565b600054610100900460ff166111f95760405162461bcd60e51b81526004016103b190611753565b60c9805460ff19169055565b600081815260018301602052604081205480156112ee5760006112296001836115df565b855490915060009061123d906001906115df565b90508181146112a257600086600001828154811061125d5761125d61158c565b90600052602060002001549050808760000184815481106112805761128061158c565b6000918252602080832090910192909255918252600188019052604090208390555b85548690806112b3576112b36117b5565b600190038181906000526020600020016000905590558560010160008681526020019081526020016000206000905560019350505050610345565b6000915050610345565b60006020828403121561130a57600080fd5b81356001600160e01b031981168114610d6957600080fd5b80356001600160a01b038116811461133957600080fd5b919050565b6000806040838503121561135157600080fd5b61135a83611322565b946020939093013593505050565b60006020828403121561137a57600080fd5b5035919050565b6000806040838503121561139457600080fd5b823591506113a460208401611322565b90509250929050565b634e487b7160e01b600052604160045260246000fd5b604051601f8201601f1916810167ffffffffffffffff811182821017156113ec576113ec6113ad565b604052919050565b600067ffffffffffffffff82111561140e5761140e6113ad565b5060051b60200190565b600082601f83011261142957600080fd5b8135602061143e611439836113f4565b6113c3565b82815260059290921b8401810191818101908684111561145d57600080fd5b8286015b848110156114785780358352918301918301611461565b509695505050505050565b6000806040838503121561149657600080fd5b823567ffffffffffffffff808211156114ae57600080fd5b818501915085601f8301126114c257600080fd5b813560206114d2611439836113f4565b82815260059290921b840181019181810190898411156114f157600080fd5b948201945b838610156115165761150786611322565b825294820194908201906114f6565b9650508601359250508082111561152c57600080fd5b5061153985828601611418565b9150509250929050565b60006020828403121561155557600080fd5b610d6982611322565b634e487b7160e01b600052601160045260246000fd5b600082198211156115875761158761155e565b500190565b634e487b7160e01b600052603260045260246000fd5b60006000198214156115b6576115b661155e565b5060010190565b6000826115da57634e487b7160e01b600052601260045260246000fd5b500490565b6000828210156115f1576115f161155e565b500390565b60008160001904831182151516156116105761161061155e565b500290565b60208082526015908201527415d85b1b195d08191bd95cc81b9bdd08195e1a5cdd605a1b604082015260600190565b60006020828403121561165657600080fd5b5051919050565b60006020828403121561166f57600080fd5b81518015158114610d6957600080fd5b60005b8381101561169a578181015183820152602001611682565b8381111561057e5750506000910152565b7f416363657373436f6e74726f6c3a206163636f756e74200000000000000000008152600083516116e381601785016020880161167f565b7001034b99036b4b9b9b4b733903937b6329607d1b601791840191820152835161171481602884016020880161167f565b01602801949350505050565b602081526000825180602084015261173f81604085016020870161167f565b601f01601f19169190910160400192915050565b6020808252602b908201527f496e697469616c697a61626c653a20636f6e7472616374206973206e6f74206960408201526a6e697469616c697a696e6760a81b606082015260800190565b6000816117ad576117ad61155e565b506000190190565b634e487b7160e01b600052603160045260246000fdfea49807205ce4d355092ef5a8a18f56e8913cf4a201fbe287825b095693c21775a264697066735822122077e22d45f2750f9b219d21ce9402c412386937871ab087d62a63372c7ffb383864736f6c63430008090033",
  "linkReferences": {},
  "deployedLinkReferences": {}
}