{
  "_format": "hh-sol-artifact-1",
  "contractName": "vEVOVestingUpgradeable",
  "sourceName": "contracts/npc/vEVOVestingUpgradeable.sol",
  "abi": [
    {
      "inputs": [],
      "stateMutability": "nonpayable",
      "type": "constructor"
    },
    {
      "anonymous": false,
      "inputs": [
        {
          "indexed": true,
          "internalType": "address",
          "name": "from",
          "type": "address"
        },
        {
          "indexed": false,
          "internalType": "uint256",
          "name": "amount",
          "type": "uint256"
        }
      ],
      "name": "Claimed",
      "type": "event"
    },
    {
      "anonymous": false,
      "inputs": [
        {
          "indexed": false,
          "internalType": "uint8",
          "name": "version",
          "type": "uint8"
        }
      ],
      "name": "Initialized",
      "type": "event"
    },
    {
      "anonymous": false,
      "inputs": [
        {
          "indexed": false,
          "internalType": "address",
          "name": "account",
          "type": "address"
        }
      ],
      "name": "Paused",
      "type": "event"
    },
    {
      "anonymous": false,
      "inputs": [
        {
          "indexed": true,
          "internalType": "bytes32",
          "name": "role",
          "type": "bytes32"
        },
        {
          "indexed": true,
          "internalType": "bytes32",
          "name": "previousAdminRole",
          "type": "bytes32"
        },
        {
          "indexed": true,
          "internalType": "bytes32",
          "name": "newAdminRole",
          "type": "bytes32"
        }
      ],
      "name": "RoleAdminChanged",
      "type": "event"
    },
    {
      "anonymous": false,
      "inputs": [
        {
          "indexed": true,
          "internalType": "bytes32",
          "name": "role",
          "type": "bytes32"
        },
        {
          "indexed": true,
          "internalType": "address",
          "name": "account",
          "type": "address"
        },
        {
          "indexed": true,
          "internalType": "address",
          "name": "sender",
          "type": "address"
        }
      ],
      "name": "RoleGranted",
      "type": "event"
    },
    {
      "anonymous": false,
      "inputs": [
        {
          "indexed": true,
          "internalType": "bytes32",
          "name": "role",
          "type": "bytes32"
        },
        {
          "indexed": true,
          "internalType": "address",
          "name": "account",
          "type": "address"
        },
        {
          "indexed": true,
          "internalType": "address",
          "name": "sender",
          "type": "address"
        }
      ],
      "name": "RoleRevoked",
      "type": "event"
    },
    {
      "anonymous": false,
      "inputs": [
        {
          "indexed": false,
          "internalType": "address",
          "name": "account",
          "type": "address"
        }
      ],
      "name": "Unpaused",
      "type": "event"
    },
    {
      "inputs": [],
      "name": "ADMIN_ROLE",
      "outputs": [
        {
          "internalType": "bytes32",
          "name": "",
          "type": "bytes32"
        }
      ],
      "stateMutability": "view",
      "type": "function"
    },
    {
      "inputs": [],
      "name": "DEFAULT_ADMIN_ROLE",
      "outputs": [
        {
          "internalType": "bytes32",
          "name": "",
          "type": "bytes32"
        }
      ],
      "stateMutability": "view",
      "type": "function"
    },
    {
      "inputs": [],
      "name": "EVO",
      "outputs": [
        {
          "internalType": "contract IEvoToken",
          "name": "",
          "type": "address"
        }
      ],
      "stateMutability": "view",
      "type": "function"
    },
    {
      "inputs": [],
      "name": "GENESIS_TIMESTAMP",
      "outputs": [
        {
          "internalType": "uint256",
          "name": "",
          "type": "uint256"
        }
      ],
      "stateMutability": "view",
      "type": "function"
    },
    {
      "inputs": [],
      "name": "MasterInvestor",
      "outputs": [
        {
          "internalType": "address",
          "name": "",
          "type": "address"
        }
      ],
      "stateMutability": "view",
      "type": "function"
    },
    {
      "inputs": [],
      "name": "OMEGA_TIMESTAMP",
      "outputs": [
        {
          "internalType": "uint256",
          "name": "",
          "type": "uint256"
        }
      ],
      "stateMutability": "view",
      "type": "function"
    },
    {
      "inputs": [],
      "name": "VESTING_PERIOD_SECONDS",
      "outputs": [
        {
          "internalType": "uint256",
          "name": "",
          "type": "uint256"
        }
      ],
      "stateMutability": "view",
      "type": "function"
    },
    {
      "inputs": [
        {
          "internalType": "address",
          "name": "_address",
          "type": "address"
        },
        {
          "internalType": "uint256",
          "name": "amount",
          "type": "uint256"
        }
      ],
      "name": "addWallet",
      "outputs": [],
      "stateMutability": "nonpayable",
      "type": "function"
    },
    {
      "inputs": [
        {
          "internalType": "address[]",
          "name": "addresses",
          "type": "address[]"
        },
        {
          "internalType": "uint256[]",
          "name": "amounts",
          "type": "uint256[]"
        }
      ],
      "name": "bulkAddWallets",
      "outputs": [],
      "stateMutability": "nonpayable",
      "type": "function"
    },
    {
      "inputs": [],
      "name": "claimVested",
      "outputs": [],
      "stateMutability": "nonpayable",
      "type": "function"
    },
    {
      "inputs": [],
      "name": "claimVestedFromInvestor",
      "outputs": [],
      "stateMutability": "nonpayable",
      "type": "function"
    },
    {
      "inputs": [
        {
          "internalType": "bytes32",
          "name": "role",
          "type": "bytes32"
        }
      ],
      "name": "getRoleAdmin",
      "outputs": [
        {
          "internalType": "bytes32",
          "name": "",
          "type": "bytes32"
        }
      ],
      "stateMutability": "view",
      "type": "function"
    },
    {
      "inputs": [
        {
          "internalType": "address",
          "name": "_address",
          "type": "address"
        }
      ],
      "name": "getWalletData",
      "outputs": [
        {
          "internalType": "uint256",
          "name": "total",
          "type": "uint256"
        },
        {
          "internalType": "uint256",
          "name": "claimed",
          "type": "uint256"
        },
        {
          "internalType": "uint256",
          "name": "pending",
          "type": "uint256"
        }
      ],
      "stateMutability": "view",
      "type": "function"
    },
    {
      "inputs": [
        {
          "internalType": "bytes32",
          "name": "role",
          "type": "bytes32"
        },
        {
          "internalType": "address",
          "name": "account",
          "type": "address"
        }
      ],
      "name": "grantRole",
      "outputs": [],
      "stateMutability": "nonpayable",
      "type": "function"
    },
    {
      "inputs": [
        {
          "internalType": "bytes32",
          "name": "role",
          "type": "bytes32"
        },
        {
          "internalType": "address",
          "name": "account",
          "type": "address"
        }
      ],
      "name": "hasRole",
      "outputs": [
        {
          "internalType": "bool",
          "name": "",
          "type": "bool"
        }
      ],
      "stateMutability": "view",
      "type": "function"
    },
    {
      "inputs": [],
      "name": "initialize",
      "outputs": [],
      "stateMutability": "nonpayable",
      "type": "function"
    },
    {
      "inputs": [
        {
          "internalType": "address",
          "name": "_address",
          "type": "address"
        },
        {
          "internalType": "uint256",
          "name": "amount",
          "type": "uint256"
        }
      ],
      "name": "modifyWallet",
      "outputs": [],
      "stateMutability": "nonpayable",
      "type": "function"
    },
    {
      "inputs": [],
      "name": "paused",
      "outputs": [
        {
          "internalType": "bool",
          "name": "",
          "type": "bool"
        }
      ],
      "stateMutability": "view",
      "type": "function"
    },
    {
      "inputs": [
        {
          "internalType": "address",
          "name": "_address",
          "type": "address"
        }
      ],
      "name": "removeWallet",
      "outputs": [],
      "stateMutability": "nonpayable",
      "type": "function"
    },
    {
      "inputs": [
        {
          "internalType": "bytes32",
          "name": "role",
          "type": "bytes32"
        },
        {
          "internalType": "address",
          "name": "account",
          "type": "address"
        }
      ],
      "name": "renounceRole",
      "outputs": [],
      "stateMutability": "nonpayable",
      "type": "function"
    },
    {
      "inputs": [
        {
          "internalType": "bytes32",
          "name": "role",
          "type": "bytes32"
        },
        {
          "internalType": "address",
          "name": "account",
          "type": "address"
        }
      ],
      "name": "revokeRole",
      "outputs": [],
      "stateMutability": "nonpayable",
      "type": "function"
    },
    {
      "inputs": [],
      "name": "setEvo",
      "outputs": [],
      "stateMutability": "nonpayable",
      "type": "function"
    },
    {
      "inputs": [
        {
          "internalType": "address",
          "name": "_address",
          "type": "address"
        }
      ],
      "name": "setMasterInvestor",
      "outputs": [],
      "stateMutability": "nonpayable",
      "type": "function"
    },
    {
      "inputs": [
        {
          "internalType": "uint256",
          "name": "_days",
          "type": "uint256"
        }
      ],
      "name": "setVestingPeriod",
      "outputs": [],
      "stateMutability": "nonpayable",
      "type": "function"
    },
    {
      "inputs": [
        {
          "internalType": "bytes4",
          "name": "interfaceId",
          "type": "bytes4"
        }
      ],
      "name": "supportsInterface",
      "outputs": [
        {
          "internalType": "bool",
          "name": "",
          "type": "bool"
        }
      ],
      "stateMutability": "view",
      "type": "function"
    },
    {
      "inputs": [],
      "name": "totalPending",
      "outputs": [
        {
          "internalType": "uint256",
          "name": "",
          "type": "uint256"
        }
      ],
      "stateMutability": "view",
      "type": "function"
    },
    {
      "inputs": [],
      "name": "vEVO",
      "outputs": [
        {
          "internalType": "contract IEvoToken",
          "name": "",
          "type": "address"
        }
      ],
      "stateMutability": "view",
      "type": "function"
    }
  ],
  "bytecode": "0x60806040523480156200001157600080fd5b50600054610100900460ff1615808015620000335750600054600160ff909116105b8062000063575062000050306200013d60201b62000fab1760201c565b15801562000063575060005460ff166001145b620000cb5760405162461bcd60e51b815260206004820152602e60248201527f496e697469616c697a61626c653a20636f6e747261637420697320616c72656160448201526d191e481a5b9a5d1a585b1a5e995960921b606482015260840160405180910390fd5b6000805460ff191660011790558015620000ef576000805461ff0019166101001790555b801562000136576000805461ff0019169055604051600181527f7f26b83ff96e1f2b6a682f133852f6798a09c465da95921460cefb38474024989060200160405180910390a15b506200014c565b6001600160a01b03163b151590565b611b60806200015c6000396000f3fe608060405234801561001057600080fd5b50600436106101a95760003560e01c80635c975abb116100f9578063a75fe8e111610097578063d547741f11610071578063d547741f14610375578063deb0d7c014610388578063e48661321461039c578063f23d2347146103b757600080fd5b8063a75fe8e114610350578063ca3136ad14610363578063d01c44cd1461036d57600080fd5b80638129fc1c116100d35780638129fc1c146102ff578063857923c41461030757806391d1485414610335578063a217fddf1461034857600080fd5b80635c975abb146102d557806367390e90146102e057806375b238fc146102ea57600080fd5b806336568abe11610166578063406b18e311610140578063406b18e31461027b57806340bee0ed1461028e57806349e8b863146102a157806353edd166146102cd57600080fd5b806336568abe1461024d5780633ece94c6146102605780633f90916a1461027357600080fd5b806301ffc9a7146101ae5780630a2a9a01146101d65780630c204d44146101eb578063248a9ca3146102045780632f2ff15d146102275780633527640b1461023a575b600080fd5b6101c16101bc366004611603565b6103bf565b60405190151581526020015b60405180910390f35b6101e96101e4366004611649565b6103f6565b005b6101f663624ca6c881565b6040519081526020016101cd565b6101f6610212366004611673565b60009081526065602052604090206001015490565b6101e961023536600461168c565b6104ab565b6101e96102483660046116b8565b6104d5565b6101e961025b36600461168c565b610511565b6101e961026e3660046117a9565b61058f565b6101f6610668565b6101e9610289366004611649565b6106ca565b6101e961029c366004611673565b610726565b610102546102b5906001600160a01b031681565b6040516001600160a01b0390911681526020016101cd565b6101e9610767565b60c95460ff166101c1565b6101f66101015481565b6101f6600080516020611b0b83398151915281565b6101e9610b05565b61031a6103153660046116b8565b610c53565b604080519384526020840192909252908201526060016101cd565b6101c161034336600461168c565b610cac565b6101f6600081565b6101e961035e3660046116b8565b610cd7565b6101f66101005481565b6101e9610d40565b6101e961038336600461168c565b610f44565b610103546102b5906001600160a01b031681565b6102b573eb76ef5d121f31c2cb59e50a4fa5475042c84e3481565b6101e9610f69565b60006001600160e01b03198216637965db0b60e01b14806103f057506301ffc9a760e01b6001600160e01b03198316145b92915050565b600080516020611b0b83398151915261040e81610fba565b61041960fe84610fc4565b156104645760405162461bcd60e51b815260206004820152601660248201527515d85b1b195d08185b1c9958591e48195b9d195c995960521b60448201526064015b60405180910390fd5b6001600160a01b038316600090815260fd602052604081208381556001015561048e60fe84610fe9565b508160fc60008282546104a1919061187f565b9091555050505050565b6000828152606560205260409020600101546104c681610fba565b6104d08383610ffe565b505050565b600080516020611b0b8339815191526104ed81610fba565b5061010380546001600160a01b0319166001600160a01b0392909216919091179055565b6001600160a01b03811633146105815760405162461bcd60e51b815260206004820152602f60248201527f416363657373436f6e74726f6c3a2063616e206f6e6c792072656e6f756e636560448201526e103937b632b9903337b91039b2b63360891b606482015260840161045b565b61058b8282611084565b5050565b600080516020611b0b8339815191526105a781610fba565b81518351146106085760405162461bcd60e51b815260206004820152602760248201527f41646472657373206c69737420646f6573206e6f74206d6174636820616d6f756044820152661b9d081b1a5cdd60ca1b606482015260840161045b565b60005b83518110156106625761065084828151811061062957610629611892565b602002602001015184838151811061064357610643611892565b60200260200101516103f6565b8061065a816118a8565b91505061060b565b50505050565b6000806101005460fc5461067c91906118c1565b905060004290504261010154116106935750610101545b60006106a363624ca6c8836118e3565b905060006106b182856118f6565b905060fb54816106c191906118e3565b94505050505090565b600080516020611b0b8339815191526106e281610fba565b6106ed60fe84610fc4565b6107095760405162461bcd60e51b815260040161045b90611915565b506001600160a01b03909116600090815260fd6020526040902055565b600080516020611b0b83398151915261073e81610fba565b61074b82620151806118f6565b61010081905561075f9063624ca6c861187f565b610101555050565b61076f6110eb565b6002609754036107c15760405162461bcd60e51b815260206004820152601f60248201527f5265656e7472616e637947756172643a207265656e7472616e742063616c6c00604482015260640161045b565b60026097556107d3335b60fe90610fc4565b6107ef5760405162461bcd60e51b815260040161045b90611915565b60006107fa33611133565b90504261010154116108295733600090815260fd602052604090206001810154905461082691906118e3565b90505b8073eb76ef5d121f31c2cb59e50a4fa5475042c84e3463dd62ed3e336040516001600160e01b031960e084901b1681526001600160a01b039091166004820152306024820152604401602060405180830381865afa15801561088f573d6000803e3d6000fd5b505050506040513d601f19601f820116820180604052508101906108b39190611944565b10156108d15760405162461bcd60e51b815260040161045b9061195d565b610103546001600160a01b0316806343e372c6600184336040516001600160e01b031960e086901b168152600481019390935260248301919091526001600160a01b03166044820152606401600060405180830381600087803b15801561093757600080fd5b505af115801561094b573d6000803e3d6000fd5b505050508160fd600061095b3390565b6001600160a01b03166001600160a01b03168152602001908152602001600020600101600082825461098d919061187f565b925050819055508160fb60008282546109a6919061187f565b9091555073eb76ef5d121f31c2cb59e50a4fa5475042c84e3490506323b872dd336040516001600160e01b031960e084901b1681526001600160a01b03909116600482015260016024820152604481018590526064016020604051808303816000875af1158015610a1b573d6000803e3d6000fd5b505050506040513d601f19601f82011682018060405250810190610a3f91906119a4565b50610102546001600160a01b03166340c10f19336040516001600160e01b031960e084901b1681526001600160a01b03909116600482015260248101859052604401600060405180830381600087803b158015610a9b57600080fd5b505af1158015610aaf573d6000803e3d6000fd5b50505050610aba3390565b6001600160a01b03167fd8138f8a3f377c5259ca548e70e4c2de94f129f5a11036a15b69513cba2b426a83604051610af491815260200190565b60405180910390a250506001609755565b600054610100900460ff1615808015610b255750600054600160ff909116105b80610b3f5750303b158015610b3f575060005460ff166001145b610ba25760405162461bcd60e51b815260206004820152602e60248201527f496e697469616c697a61626c653a20636f6e747261637420697320616c72656160448201526d191e481a5b9a5d1a585b1a5e995960921b606482015260840161045b565b6000805460ff191660011790558015610bc5576000805461ff0019166101001790555b610bcd6111c6565b610bd56111ed565b610bdd61121c565b610be8600033610ffe565b610c00600080516020611b0b83398151915233610ffe565b600060fb81905560fc558015610c50576000805461ff0019169055604051600181527f7f26b83ff96e1f2b6a682f133852f6798a09c465da95921460cefb38474024989060200160405180910390a15b50565b60008080610c6260fe85610fc4565b610c7457506000915081905080610ca5565b6001600160a01b038416600090815260fd6020526040902080546001909101549093509150610ca284611133565b90505b9193909250565b60009182526065602090815260408084206001600160a01b0393909316845291905290205460ff1690565b600080516020611b0b833981519152610cef81610fba565b610cfa60fe83610fc4565b610d165760405162461bcd60e51b815260040161045b90611915565b6001600160a01b038216600090815260fd60205260408120818155600101556104d060fe8361124b565b610d486110eb565b600260975403610d9a5760405162461bcd60e51b815260206004820152601f60248201527f5265656e7472616e637947756172643a207265656e7472616e742063616c6c00604482015260640161045b565b6002609755610da8336107cb565b610dc45760405162461bcd60e51b815260040161045b90611915565b6000610dcf33611133565b9050426101015411610dfe5733600090815260fd6020526040902060018101549054610dfb91906118e3565b90505b600073eb76ef5d121f31c2cb59e50a4fa5475042c84e346370a08231336040516001600160e01b031960e084901b1681526001600160a01b039091166004820152602401602060405180830381865afa158015610e5f573d6000803e3d6000fd5b505050506040513d601f19601f82011682018060405250810190610e839190611944565b905081811015610e91578091505b8173eb76ef5d121f31c2cb59e50a4fa5475042c84e3463dd62ed3e336040516001600160e01b031960e084901b1681526001600160a01b039091166004820152306024820152604401602060405180830381865afa158015610ef7573d6000803e3d6000fd5b505050506040513d601f19601f82011682018060405250810190610f1b9190611944565b1015610f395760405162461bcd60e51b815260040161045b9061195d565b8160fd60003361095b565b600082815260656020526040902060010154610f5f81610fba565b6104d08383611084565b600080516020611b0b833981519152610f8181610fba565b5061010280546001600160a01b031916735b747e23a9e4c509dd06fbd2c0e3cb8b846e398f179055565b6001600160a01b03163b151590565b610c508133611260565b6001600160a01b038116600090815260018301602052604081205415155b9392505050565b6000610fe2836001600160a01b0384166112c4565b6110088282610cac565b61058b5760008281526065602090815260408083206001600160a01b03851684529091529020805460ff191660011790556110403390565b6001600160a01b0316816001600160a01b0316837f2f8788117e7eff1d82e926ec794901d17c78024a50270940304540a733656f0d60405160405180910390a45050565b61108e8282610cac565b1561058b5760008281526065602090815260408083206001600160a01b0385168085529252808320805460ff1916905551339285917ff6391f5c32d9c69d2a47ea670b442974b53935d1edc7fd64eb21e047a839171b9190a45050565b60c95460ff16156111315760405162461bcd60e51b815260206004820152601060248201526f14185d5cd8589b194e881c185d5cd95960821b604482015260640161045b565b565b610100546001600160a01b038216600090815260fd60205260408120549091829161115e91906118c1565b905060004290504261010154116111755750610101545b600061118563624ca6c8836118e3565b9050600061119382856118f6565b6001600160a01b038716600090815260fd60205260409020600101549091506111bc90826118e3565b9695505050505050565b600054610100900460ff166111315760405162461bcd60e51b815260040161045b906119c6565b600054610100900460ff166112145760405162461bcd60e51b815260040161045b906119c6565b611131611313565b600054610100900460ff166112435760405162461bcd60e51b815260040161045b906119c6565b611131611341565b6000610fe2836001600160a01b038416611374565b61126a8282610cac565b61058b57611282816001600160a01b03166014611467565b61128d836020611467565b60405160200161129e929190611a35565b60408051601f198184030181529082905262461bcd60e51b825261045b91600401611aaa565b600081815260018301602052604081205461130b575081546001818101845560008481526020808220909301849055845484825282860190935260409020919091556103f0565b5060006103f0565b600054610100900460ff1661133a5760405162461bcd60e51b815260040161045b906119c6565b6001609755565b600054610100900460ff166113685760405162461bcd60e51b815260040161045b906119c6565b60c9805460ff19169055565b6000818152600183016020526040812054801561145d5760006113986001836118e3565b85549091506000906113ac906001906118e3565b90508181146114115760008660000182815481106113cc576113cc611892565b90600052602060002001549050808760000184815481106113ef576113ef611892565b6000918252602080832090910192909255918252600188019052604090208390555b855486908061142257611422611add565b6001900381819060005260206000200160009055905585600101600086815260200190815260200160002060009055600193505050506103f0565b60009150506103f0565b606060006114768360026118f6565b61148190600261187f565b67ffffffffffffffff811115611499576114996116d3565b6040519080825280601f01601f1916602001820160405280156114c3576020820181803683370190505b509050600360fc1b816000815181106114de576114de611892565b60200101906001600160f81b031916908160001a905350600f60fb1b8160018151811061150d5761150d611892565b60200101906001600160f81b031916908160001a90535060006115318460026118f6565b61153c90600161187f565b90505b60018111156115b4576f181899199a1a9b1b9c1cb0b131b232b360811b85600f166010811061157057611570611892565b1a60f81b82828151811061158657611586611892565b60200101906001600160f81b031916908160001a90535060049490941c936115ad81611af3565b905061153f565b508315610fe25760405162461bcd60e51b815260206004820181905260248201527f537472696e67733a20686578206c656e67746820696e73756666696369656e74604482015260640161045b565b60006020828403121561161557600080fd5b81356001600160e01b031981168114610fe257600080fd5b80356001600160a01b038116811461164457600080fd5b919050565b6000806040838503121561165c57600080fd5b6116658361162d565b946020939093013593505050565b60006020828403121561168557600080fd5b5035919050565b6000806040838503121561169f57600080fd5b823591506116af6020840161162d565b90509250929050565b6000602082840312156116ca57600080fd5b610fe28261162d565b634e487b7160e01b600052604160045260246000fd5b604051601f8201601f1916810167ffffffffffffffff81118282101715611712576117126116d3565b604052919050565b600067ffffffffffffffff821115611734576117346116d3565b5060051b60200190565b600082601f83011261174f57600080fd5b8135602061176461175f8361171a565b6116e9565b82815260059290921b8401810191818101908684111561178357600080fd5b8286015b8481101561179e5780358352918301918301611787565b509695505050505050565b600080604083850312156117bc57600080fd5b823567ffffffffffffffff808211156117d457600080fd5b818501915085601f8301126117e857600080fd5b813560206117f861175f8361171a565b82815260059290921b8401810191818101908984111561181757600080fd5b948201945b8386101561183c5761182d8661162d565b8252948201949082019061181c565b9650508601359250508082111561185257600080fd5b5061185f8582860161173e565b9150509250929050565b634e487b7160e01b600052601160045260246000fd5b808201808211156103f0576103f0611869565b634e487b7160e01b600052603260045260246000fd5b6000600182016118ba576118ba611869565b5060010190565b6000826118de57634e487b7160e01b600052601260045260246000fd5b500490565b818103818111156103f0576103f0611869565b600081600019048311821515161561191057611910611869565b500290565b60208082526015908201527415d85b1b195d08191bd95cc81b9bdd08195e1a5cdd605a1b604082015260600190565b60006020828403121561195657600080fd5b5051919050565b60208082526027908201527f50656e64696e672062616c616e6365206578636565647320617070726f76656460408201526608185b5bdd5b9d60ca1b606082015260800190565b6000602082840312156119b657600080fd5b81518015158114610fe257600080fd5b6020808252602b908201527f496e697469616c697a61626c653a20636f6e7472616374206973206e6f74206960408201526a6e697469616c697a696e6760a81b606082015260800190565b60005b83811015611a2c578181015183820152602001611a14565b50506000910152565b7f416363657373436f6e74726f6c3a206163636f756e7420000000000000000000815260008351611a6d816017850160208801611a11565b7001034b99036b4b9b9b4b733903937b6329607d1b6017918401918201528351611a9e816028840160208801611a11565b01602801949350505050565b6020815260008251806020840152611ac9816040850160208701611a11565b601f01601f19169190910160400192915050565b634e487b7160e01b600052603160045260246000fd5b600081611b0257611b02611869565b50600019019056fea49807205ce4d355092ef5a8a18f56e8913cf4a201fbe287825b095693c21775a2646970667358221220338b866d40d30fb760f7ea5d05be1d7b3857e2f268ba45ddd7e81c9c1770d35d64736f6c63430008100033",
  "linkReferences": {},
  "deployedLinkReferences": {}
}