{
  "_format": "hh-sol-artifact-1",
  "contractName": "vEVOVestingUpgradeable",
  "sourceName": "contracts/npc/vEVOVestingUpgradeable.sol",
  "abi": [
    {
      "inputs": [],
      "stateMutability": "nonpayable",
      "type": "constructor"
    },
    {
      "anonymous": false,
      "inputs": [
        {
          "indexed": true,
          "internalType": "address",
          "name": "from",
          "type": "address"
        },
        {
          "indexed": false,
          "internalType": "uint256",
          "name": "amount",
          "type": "uint256"
        }
      ],
      "name": "Claimed",
      "type": "event"
    },
    {
      "anonymous": false,
      "inputs": [
        {
          "indexed": false,
          "internalType": "address",
          "name": "account",
          "type": "address"
        }
      ],
      "name": "Paused",
      "type": "event"
    },
    {
      "anonymous": false,
      "inputs": [
        {
          "indexed": true,
          "internalType": "bytes32",
          "name": "role",
          "type": "bytes32"
        },
        {
          "indexed": true,
          "internalType": "bytes32",
          "name": "previousAdminRole",
          "type": "bytes32"
        },
        {
          "indexed": true,
          "internalType": "bytes32",
          "name": "newAdminRole",
          "type": "bytes32"
        }
      ],
      "name": "RoleAdminChanged",
      "type": "event"
    },
    {
      "anonymous": false,
      "inputs": [
        {
          "indexed": true,
          "internalType": "bytes32",
          "name": "role",
          "type": "bytes32"
        },
        {
          "indexed": true,
          "internalType": "address",
          "name": "account",
          "type": "address"
        },
        {
          "indexed": true,
          "internalType": "address",
          "name": "sender",
          "type": "address"
        }
      ],
      "name": "RoleGranted",
      "type": "event"
    },
    {
      "anonymous": false,
      "inputs": [
        {
          "indexed": true,
          "internalType": "bytes32",
          "name": "role",
          "type": "bytes32"
        },
        {
          "indexed": true,
          "internalType": "address",
          "name": "account",
          "type": "address"
        },
        {
          "indexed": true,
          "internalType": "address",
          "name": "sender",
          "type": "address"
        }
      ],
      "name": "RoleRevoked",
      "type": "event"
    },
    {
      "anonymous": false,
      "inputs": [
        {
          "indexed": false,
          "internalType": "address",
          "name": "account",
          "type": "address"
        }
      ],
      "name": "Unpaused",
      "type": "event"
    },
    {
      "inputs": [],
      "name": "ADMIN_ROLE",
      "outputs": [
        {
          "internalType": "bytes32",
          "name": "",
          "type": "bytes32"
        }
      ],
      "stateMutability": "view",
      "type": "function"
    },
    {
      "inputs": [],
      "name": "DEFAULT_ADMIN_ROLE",
      "outputs": [
        {
          "internalType": "bytes32",
          "name": "",
          "type": "bytes32"
        }
      ],
      "stateMutability": "view",
      "type": "function"
    },
    {
      "inputs": [],
      "name": "EVO",
      "outputs": [
        {
          "internalType": "contract IEvoToken",
          "name": "",
          "type": "address"
        }
      ],
      "stateMutability": "view",
      "type": "function"
    },
    {
      "inputs": [],
      "name": "GENESIS_TIMESTAMP",
      "outputs": [
        {
          "internalType": "uint256",
          "name": "",
          "type": "uint256"
        }
      ],
      "stateMutability": "view",
      "type": "function"
    },
    {
      "inputs": [],
      "name": "OMEGA_TIMESTAMP",
      "outputs": [
        {
          "internalType": "uint256",
          "name": "",
          "type": "uint256"
        }
      ],
      "stateMutability": "view",
      "type": "function"
    },
    {
      "inputs": [],
      "name": "VESTING_PERIOD_SECONDS",
      "outputs": [
        {
          "internalType": "uint256",
          "name": "",
          "type": "uint256"
        }
      ],
      "stateMutability": "view",
      "type": "function"
    },
    {
      "inputs": [
        {
          "internalType": "address",
          "name": "_address",
          "type": "address"
        },
        {
          "internalType": "uint256",
          "name": "amount",
          "type": "uint256"
        }
      ],
      "name": "addWallet",
      "outputs": [],
      "stateMutability": "nonpayable",
      "type": "function"
    },
    {
      "inputs": [
        {
          "internalType": "address[]",
          "name": "addresses",
          "type": "address[]"
        },
        {
          "internalType": "uint256[]",
          "name": "amounts",
          "type": "uint256[]"
        }
      ],
      "name": "bulkAddWallets",
      "outputs": [],
      "stateMutability": "nonpayable",
      "type": "function"
    },
    {
      "inputs": [],
      "name": "claimVested",
      "outputs": [],
      "stateMutability": "nonpayable",
      "type": "function"
    },
    {
      "inputs": [
        {
          "internalType": "bytes32",
          "name": "role",
          "type": "bytes32"
        }
      ],
      "name": "getRoleAdmin",
      "outputs": [
        {
          "internalType": "bytes32",
          "name": "",
          "type": "bytes32"
        }
      ],
      "stateMutability": "view",
      "type": "function"
    },
    {
      "inputs": [
        {
          "internalType": "address",
          "name": "_address",
          "type": "address"
        }
      ],
      "name": "getWalletData",
      "outputs": [
        {
          "internalType": "uint256",
          "name": "total",
          "type": "uint256"
        },
        {
          "internalType": "uint256",
          "name": "claimed",
          "type": "uint256"
        },
        {
          "internalType": "uint256",
          "name": "pending",
          "type": "uint256"
        }
      ],
      "stateMutability": "view",
      "type": "function"
    },
    {
      "inputs": [
        {
          "internalType": "bytes32",
          "name": "role",
          "type": "bytes32"
        },
        {
          "internalType": "address",
          "name": "account",
          "type": "address"
        }
      ],
      "name": "grantRole",
      "outputs": [],
      "stateMutability": "nonpayable",
      "type": "function"
    },
    {
      "inputs": [
        {
          "internalType": "bytes32",
          "name": "role",
          "type": "bytes32"
        },
        {
          "internalType": "address",
          "name": "account",
          "type": "address"
        }
      ],
      "name": "hasRole",
      "outputs": [
        {
          "internalType": "bool",
          "name": "",
          "type": "bool"
        }
      ],
      "stateMutability": "view",
      "type": "function"
    },
    {
      "inputs": [],
      "name": "initialize",
      "outputs": [],
      "stateMutability": "nonpayable",
      "type": "function"
    },
    {
      "inputs": [
        {
          "internalType": "address",
          "name": "_address",
          "type": "address"
        },
        {
          "internalType": "uint256",
          "name": "amount",
          "type": "uint256"
        }
      ],
      "name": "modifyWallet",
      "outputs": [],
      "stateMutability": "nonpayable",
      "type": "function"
    },
    {
      "inputs": [],
      "name": "paused",
      "outputs": [
        {
          "internalType": "bool",
          "name": "",
          "type": "bool"
        }
      ],
      "stateMutability": "view",
      "type": "function"
    },
    {
      "inputs": [
        {
          "internalType": "address",
          "name": "_address",
          "type": "address"
        }
      ],
      "name": "removeWallet",
      "outputs": [],
      "stateMutability": "nonpayable",
      "type": "function"
    },
    {
      "inputs": [
        {
          "internalType": "bytes32",
          "name": "role",
          "type": "bytes32"
        },
        {
          "internalType": "address",
          "name": "account",
          "type": "address"
        }
      ],
      "name": "renounceRole",
      "outputs": [],
      "stateMutability": "nonpayable",
      "type": "function"
    },
    {
      "inputs": [
        {
          "internalType": "bytes32",
          "name": "role",
          "type": "bytes32"
        },
        {
          "internalType": "address",
          "name": "account",
          "type": "address"
        }
      ],
      "name": "revokeRole",
      "outputs": [],
      "stateMutability": "nonpayable",
      "type": "function"
    },
    {
      "inputs": [],
      "name": "setEvo",
      "outputs": [],
      "stateMutability": "nonpayable",
      "type": "function"
    },
    {
      "inputs": [
        {
          "internalType": "uint256",
          "name": "_days",
          "type": "uint256"
        }
      ],
      "name": "setVestingPeriod",
      "outputs": [],
      "stateMutability": "nonpayable",
      "type": "function"
    },
    {
      "inputs": [
        {
          "internalType": "bytes4",
          "name": "interfaceId",
          "type": "bytes4"
        }
      ],
      "name": "supportsInterface",
      "outputs": [
        {
          "internalType": "bool",
          "name": "",
          "type": "bool"
        }
      ],
      "stateMutability": "view",
      "type": "function"
    },
    {
      "inputs": [],
      "name": "totalPending",
      "outputs": [
        {
          "internalType": "uint256",
          "name": "",
          "type": "uint256"
        }
      ],
      "stateMutability": "view",
      "type": "function"
    },
    {
      "inputs": [],
      "name": "vEVO",
      "outputs": [
        {
          "internalType": "contract IEvoToken",
          "name": "",
          "type": "address"
        }
      ],
      "stateMutability": "view",
      "type": "function"
    }
  ],
  "bytecode": "0x60806040523480156200001157600080fd5b50600054610100900460ff166200002f5760005460ff161562000039565b62000039620000de565b620000a15760405162461bcd60e51b815260206004820152602e60248201527f496e697469616c697a61626c653a20636f6e747261637420697320616c72656160448201526d191e481a5b9a5d1a585b1a5e995960921b606482015260840160405180910390fd5b600054610100900460ff16158015620000c4576000805461ffff19166101011790555b8015620000d7576000805461ff00191690555b506200010b565b6000620000f630620000fc60201b62000d841760201c565b15905090565b6001600160a01b03163b151590565b6118b5806200011b6000396000f3fe608060405234801561001057600080fd5b50600436106101585760003560e01c806367390e90116100c3578063a75fe8e11161007c578063a75fe8e1146102e4578063ca3136ad146102f7578063d01c44cd14610301578063d547741f14610309578063e48661321461031c578063f23d23471461033757600080fd5b806367390e901461027457806375b238fc1461027e5780638129fc1c14610293578063857923c41461029b57806391d14854146102c9578063a217fddf146102dc57600080fd5b80633ece94c6116101155780633ece94c6146101fc5780633f90916a1461020f578063406b18e31461021757806340bee0ed1461022a57806349e8b8631461023d5780635c975abb1461026957600080fd5b806301ffc9a71461015d5780630a2a9a01146101855780630c204d441461019a578063248a9ca3146101b35780632f2ff15d146101d657806336568abe146101e9575b600080fd5b61017061016b36600461138c565b61033f565b60405190151581526020015b60405180910390f35b6101986101933660046113d2565b610376565b005b6101a563624ca6c881565b60405190815260200161017c565b6101a56101c13660046113fc565b60009081526065602052604090206001015490565b6101986101e4366004611415565b61042c565b6101986101f7366004611415565b610457565b61019861020a366004611517565b6104d5565b6101a56105af565b6101986102253660046113d2565b610611565b6101986102383660046113fc565b61066e565b61010254610251906001600160a01b031681565b6040516001600160a01b03909116815260200161017c565b60c95460ff16610170565b6101a56101015481565b6101a560008051602061186083398151915281565b6101986106b0565b6102ae6102a93660046115d7565b6107ae565b6040805193845260208401929092529082015260600161017c565b6101706102d7366004611415565b610807565b6101a5600081565b6101986102f23660046115d7565b610832565b6101a56101005481565b61019861089c565b610198610317366004611415565b610d1b565b61025173eb76ef5d121f31c2cb59e50a4fa5475042c84e3481565b610198610d41565b60006001600160e01b03198216637965db0b60e01b148061037057506301ffc9a760e01b6001600160e01b03198316145b92915050565b60008051602061186083398151915261038f8133610d93565b61039a60fe84610df7565b156103e55760405162461bcd60e51b815260206004820152601660248201527515d85b1b195d08185b1c9958591e48195b9d195c995960521b60448201526064015b60405180910390fd5b6001600160a01b038316600090815260fd602052604081208381556001015561040f60fe84610e1c565b508160fc60008282546104229190611608565b9091555050505050565b6000828152606560205260409020600101546104488133610d93565b6104528383610e31565b505050565b6001600160a01b03811633146104c75760405162461bcd60e51b815260206004820152602f60248201527f416363657373436f6e74726f6c3a2063616e206f6e6c792072656e6f756e636560448201526e103937b632b9903337b91039b2b63360891b60648201526084016103dc565b6104d18282610eb7565b5050565b6000805160206118608339815191526104ee8133610d93565b815183511461054f5760405162461bcd60e51b815260206004820152602760248201527f41646472657373206c69737420646f6573206e6f74206d6174636820616d6f756044820152661b9d081b1a5cdd60ca1b60648201526084016103dc565b60005b83518110156105a95761059784828151811061057057610570611620565b602002602001015184838151811061058a5761058a611620565b6020026020010151610376565b806105a181611636565b915050610552565b50505050565b6000806101005460fc546105c39190611651565b905060004290504261010154116105da5750610101545b60006105ea63624ca6c883611673565b905060006105f8828561168a565b905060fb54816106089190611673565b94505050505090565b60008051602061186083398151915261062a8133610d93565b61063560fe84610df7565b6106515760405162461bcd60e51b81526004016103dc906116a9565b506001600160a01b03909116600090815260fd6020526040902055565b6000805160206118608339815191526106878133610d93565b610694826201518061168a565b6101008190556106a89063624ca6c8611608565b610101555050565b600054610100900460ff166106cb5760005460ff16156106cf565b303b155b6107325760405162461bcd60e51b815260206004820152602e60248201527f496e697469616c697a61626c653a20636f6e747261637420697320616c72656160448201526d191e481a5b9a5d1a585b1a5e995960921b60648201526084016103dc565b600054610100900460ff16158015610754576000805461ffff19166101011790555b61075c610f1e565b610764610f47565b61076c610f76565b610777600033610e31565b61078f60008051602061186083398151915233610e31565b600060fb81905560fc5580156107ab576000805461ff00191690555b50565b600080806107bd60fe85610df7565b6107cf57506000915081905080610800565b6001600160a01b038416600090815260fd60205260409020805460019091015490935091506107fd84610fa5565b90505b9193909250565b60009182526065602090815260408084206001600160a01b0393909316845291905290205460ff1690565b60008051602061186083398151915261084b8133610d93565b61085660fe83610df7565b6108725760405162461bcd60e51b81526004016103dc906116a9565b6001600160a01b038216600090815260fd602052604081208181556001015561045260fe83611038565b60c95460ff16156108e25760405162461bcd60e51b815260206004820152601060248201526f14185d5cd8589b194e881c185d5cd95960821b60448201526064016103dc565b600260975414156109355760405162461bcd60e51b815260206004820152601f60248201527f5265656e7472616e637947756172643a207265656e7472616e742063616c6c0060448201526064016103dc565b600260975561094560fe33610df7565b6109615760405162461bcd60e51b81526004016103dc906116a9565b600061096c33610fa5565b905042610101541161099b5733600090815260fd60205260409020600181015490546109989190611673565b90505b8073eb76ef5d121f31c2cb59e50a4fa5475042c84e346370a08231336040516001600160e01b031960e084901b1681526001600160a01b03909116600482015260240160206040518083038186803b1580156109f657600080fd5b505afa158015610a0a573d6000803e3d6000fd5b505050506040513d601f19601f82011682018060405250810190610a2e91906116d8565b1015610a7c5760405162461bcd60e51b815260206004820152601960248201527f496e73756666696369656e74207645564f2062616c616e63650000000000000060448201526064016103dc565b8073eb76ef5d121f31c2cb59e50a4fa5475042c84e3463dd62ed3e336040516001600160e01b031960e084901b1681526001600160a01b03909116600482015230602482015260440160206040518083038186803b158015610add57600080fd5b505afa158015610af1573d6000803e3d6000fd5b505050506040513d601f19601f82011682018060405250810190610b1591906116d8565b1015610b735760405162461bcd60e51b815260206004820152602760248201527f50656e64696e672062616c616e6365206578636565647320617070726f76656460448201526608185b5bdd5b9d60ca1b60648201526084016103dc565b33600090815260fd602052604081206001018054839290610b95908490611608565b925050819055508060fb6000828254610bae9190611608565b9091555073eb76ef5d121f31c2cb59e50a4fa5475042c84e3490506323b872dd336040516001600160e01b031960e084901b1681526001600160a01b0390911660048201526001602482015260448101849052606401602060405180830381600087803b158015610c1e57600080fd5b505af1158015610c32573d6000803e3d6000fd5b505050506040513d601f19601f82011682018060405250810190610c5691906116f1565b50610102546001600160a01b03166340c10f19336040516001600160e01b031960e084901b1681526001600160a01b03909116600482015260248101849052604401600060405180830381600087803b158015610cb257600080fd5b505af1158015610cc6573d6000803e3d6000fd5b50505050610cd13390565b6001600160a01b03167fd8138f8a3f377c5259ca548e70e4c2de94f129f5a11036a15b69513cba2b426a82604051610d0b91815260200190565b60405180910390a2506001609755565b600082815260656020526040902060010154610d378133610d93565b6104528383610eb7565b600080516020611860833981519152610d5a8133610d93565b5061010280546001600160a01b031916735b747e23a9e4c509dd06fbd2c0e3cb8b846e398f179055565b6001600160a01b03163b151590565b610d9d8282610807565b6104d157610db5816001600160a01b0316601461104d565b610dc083602061104d565b604051602001610dd192919061173f565b60408051601f198184030181529082905262461bcd60e51b82526103dc916004016117b4565b6001600160a01b038116600090815260018301602052604081205415155b9392505050565b6000610e15836001600160a01b0384166111e9565b610e3b8282610807565b6104d15760008281526065602090815260408083206001600160a01b03851684529091529020805460ff19166001179055610e733390565b6001600160a01b0316816001600160a01b0316837f2f8788117e7eff1d82e926ec794901d17c78024a50270940304540a733656f0d60405160405180910390a45050565b610ec18282610807565b156104d15760008281526065602090815260408083206001600160a01b0385168085529252808320805460ff1916905551339285917ff6391f5c32d9c69d2a47ea670b442974b53935d1edc7fd64eb21e047a839171b9190a45050565b600054610100900460ff16610f455760405162461bcd60e51b81526004016103dc906117e7565b565b600054610100900460ff16610f6e5760405162461bcd60e51b81526004016103dc906117e7565b610f45611238565b600054610100900460ff16610f9d5760405162461bcd60e51b81526004016103dc906117e7565b610f45611266565b610100546001600160a01b038216600090815260fd602052604081205490918291610fd09190611651565b90506000429050426101015411610fe75750610101545b6000610ff763624ca6c883611673565b90506000611005828561168a565b6001600160a01b038716600090815260fd602052604090206001015490915061102e9082611673565b9695505050505050565b6000610e15836001600160a01b038416611299565b6060600061105c83600261168a565b611067906002611608565b67ffffffffffffffff81111561107f5761107f611441565b6040519080825280601f01601f1916602001820160405280156110a9576020820181803683370190505b509050600360fc1b816000815181106110c4576110c4611620565b60200101906001600160f81b031916908160001a905350600f60fb1b816001815181106110f3576110f3611620565b60200101906001600160f81b031916908160001a905350600061111784600261168a565b611122906001611608565b90505b600181111561119a576f181899199a1a9b1b9c1cb0b131b232b360811b85600f166010811061115657611156611620565b1a60f81b82828151811061116c5761116c611620565b60200101906001600160f81b031916908160001a90535060049490941c9361119381611832565b9050611125565b508315610e155760405162461bcd60e51b815260206004820181905260248201527f537472696e67733a20686578206c656e67746820696e73756666696369656e7460448201526064016103dc565b600081815260018301602052604081205461123057508154600181810184556000848152602080822090930184905584548482528286019093526040902091909155610370565b506000610370565b600054610100900460ff1661125f5760405162461bcd60e51b81526004016103dc906117e7565b6001609755565b600054610100900460ff1661128d5760405162461bcd60e51b81526004016103dc906117e7565b60c9805460ff19169055565b600081815260018301602052604081205480156113825760006112bd600183611673565b85549091506000906112d190600190611673565b90508181146113365760008660000182815481106112f1576112f1611620565b906000526020600020015490508087600001848154811061131457611314611620565b6000918252602080832090910192909255918252600188019052604090208390555b855486908061134757611347611849565b600190038181906000526020600020016000905590558560010160008681526020019081526020016000206000905560019350505050610370565b6000915050610370565b60006020828403121561139e57600080fd5b81356001600160e01b031981168114610e1557600080fd5b80356001600160a01b03811681146113cd57600080fd5b919050565b600080604083850312156113e557600080fd5b6113ee836113b6565b946020939093013593505050565b60006020828403121561140e57600080fd5b5035919050565b6000806040838503121561142857600080fd5b82359150611438602084016113b6565b90509250929050565b634e487b7160e01b600052604160045260246000fd5b604051601f8201601f1916810167ffffffffffffffff8111828210171561148057611480611441565b604052919050565b600067ffffffffffffffff8211156114a2576114a2611441565b5060051b60200190565b600082601f8301126114bd57600080fd5b813560206114d26114cd83611488565b611457565b82815260059290921b840181019181810190868411156114f157600080fd5b8286015b8481101561150c57803583529183019183016114f5565b509695505050505050565b6000806040838503121561152a57600080fd5b823567ffffffffffffffff8082111561154257600080fd5b818501915085601f83011261155657600080fd5b813560206115666114cd83611488565b82815260059290921b8401810191818101908984111561158557600080fd5b948201945b838610156115aa5761159b866113b6565b8252948201949082019061158a565b965050860135925050808211156115c057600080fd5b506115cd858286016114ac565b9150509250929050565b6000602082840312156115e957600080fd5b610e15826113b6565b634e487b7160e01b600052601160045260246000fd5b6000821982111561161b5761161b6115f2565b500190565b634e487b7160e01b600052603260045260246000fd5b600060001982141561164a5761164a6115f2565b5060010190565b60008261166e57634e487b7160e01b600052601260045260246000fd5b500490565b600082821015611685576116856115f2565b500390565b60008160001904831182151516156116a4576116a46115f2565b500290565b60208082526015908201527415d85b1b195d08191bd95cc81b9bdd08195e1a5cdd605a1b604082015260600190565b6000602082840312156116ea57600080fd5b5051919050565b60006020828403121561170357600080fd5b81518015158114610e1557600080fd5b60005b8381101561172e578181015183820152602001611716565b838111156105a95750506000910152565b7f416363657373436f6e74726f6c3a206163636f756e7420000000000000000000815260008351611777816017850160208801611713565b7001034b99036b4b9b9b4b733903937b6329607d1b60179184019182015283516117a8816028840160208801611713565b01602801949350505050565b60208152600082518060208401526117d3816040850160208701611713565b601f01601f19169190910160400192915050565b6020808252602b908201527f496e697469616c697a61626c653a20636f6e7472616374206973206e6f74206960408201526a6e697469616c697a696e6760a81b606082015260800190565b600081611841576118416115f2565b506000190190565b634e487b7160e01b600052603160045260246000fdfea49807205ce4d355092ef5a8a18f56e8913cf4a201fbe287825b095693c21775a2646970667358221220e547536dfe94e07387d8fd1bad49f01bfd3aadc5bb9885cfb0d546fcbba8cfb464736f6c63430008090033",
  "linkReferences": {},
  "deployedLinkReferences": {}
}