{
  "_format": "hh-sol-artifact-1",
  "contractName": "EmergencyWithdrawalReimbursementUpgradeable",
  "sourceName": "contracts/npc/EmergencyWithdrawalReimbursementUpgradeable.sol",
  "abi": [
    {
      "inputs": [],
      "stateMutability": "nonpayable",
      "type": "constructor"
    },
    {
      "anonymous": false,
      "inputs": [
        {
          "indexed": false,
          "internalType": "uint8",
          "name": "version",
          "type": "uint8"
        }
      ],
      "name": "Initialized",
      "type": "event"
    },
    {
      "anonymous": false,
      "inputs": [
        {
          "indexed": false,
          "internalType": "address",
          "name": "account",
          "type": "address"
        }
      ],
      "name": "Paused",
      "type": "event"
    },
    {
      "anonymous": false,
      "inputs": [
        {
          "indexed": true,
          "internalType": "bytes32",
          "name": "role",
          "type": "bytes32"
        },
        {
          "indexed": true,
          "internalType": "bytes32",
          "name": "previousAdminRole",
          "type": "bytes32"
        },
        {
          "indexed": true,
          "internalType": "bytes32",
          "name": "newAdminRole",
          "type": "bytes32"
        }
      ],
      "name": "RoleAdminChanged",
      "type": "event"
    },
    {
      "anonymous": false,
      "inputs": [
        {
          "indexed": true,
          "internalType": "bytes32",
          "name": "role",
          "type": "bytes32"
        },
        {
          "indexed": true,
          "internalType": "address",
          "name": "account",
          "type": "address"
        },
        {
          "indexed": true,
          "internalType": "address",
          "name": "sender",
          "type": "address"
        }
      ],
      "name": "RoleGranted",
      "type": "event"
    },
    {
      "anonymous": false,
      "inputs": [
        {
          "indexed": true,
          "internalType": "bytes32",
          "name": "role",
          "type": "bytes32"
        },
        {
          "indexed": true,
          "internalType": "address",
          "name": "account",
          "type": "address"
        },
        {
          "indexed": true,
          "internalType": "address",
          "name": "sender",
          "type": "address"
        }
      ],
      "name": "RoleRevoked",
      "type": "event"
    },
    {
      "anonymous": false,
      "inputs": [
        {
          "indexed": false,
          "internalType": "address",
          "name": "account",
          "type": "address"
        }
      ],
      "name": "Unpaused",
      "type": "event"
    },
    {
      "inputs": [],
      "name": "ADMIN_ROLE",
      "outputs": [
        {
          "internalType": "bytes32",
          "name": "",
          "type": "bytes32"
        }
      ],
      "stateMutability": "view",
      "type": "function"
    },
    {
      "inputs": [],
      "name": "DEFAULT_ADMIN_ROLE",
      "outputs": [
        {
          "internalType": "bytes32",
          "name": "",
          "type": "bytes32"
        }
      ],
      "stateMutability": "view",
      "type": "function"
    },
    {
      "inputs": [],
      "name": "GENESIS_REFUND_FROM_BLOCK",
      "outputs": [
        {
          "internalType": "uint256",
          "name": "",
          "type": "uint256"
        }
      ],
      "stateMutability": "view",
      "type": "function"
    },
    {
      "inputs": [],
      "name": "LAST_SNAPSHOT_BLOCK",
      "outputs": [
        {
          "internalType": "uint256",
          "name": "",
          "type": "uint256"
        }
      ],
      "stateMutability": "view",
      "type": "function"
    },
    {
      "inputs": [],
      "name": "REFUND_TOKEN",
      "outputs": [
        {
          "internalType": "contract IERC20Upgradeable",
          "name": "",
          "type": "address"
        }
      ],
      "stateMutability": "view",
      "type": "function"
    },
    {
      "inputs": [],
      "name": "SCRIBE_ROLE",
      "outputs": [
        {
          "internalType": "bytes32",
          "name": "",
          "type": "bytes32"
        }
      ],
      "stateMutability": "view",
      "type": "function"
    },
    {
      "inputs": [],
      "name": "TOTAL_FEES",
      "outputs": [
        {
          "internalType": "uint256",
          "name": "",
          "type": "uint256"
        }
      ],
      "stateMutability": "view",
      "type": "function"
    },
    {
      "inputs": [],
      "name": "TOTAL_REFUNDED",
      "outputs": [
        {
          "internalType": "uint256",
          "name": "",
          "type": "uint256"
        }
      ],
      "stateMutability": "view",
      "type": "function"
    },
    {
      "inputs": [],
      "name": "TOTAL_TO_REFUND",
      "outputs": [
        {
          "internalType": "uint256",
          "name": "",
          "type": "uint256"
        }
      ],
      "stateMutability": "view",
      "type": "function"
    },
    {
      "inputs": [
        {
          "components": [
            {
              "internalType": "address",
              "name": "_address",
              "type": "address"
            },
            {
              "internalType": "uint256",
              "name": "withdrawn",
              "type": "uint256"
            },
            {
              "internalType": "string",
              "name": "txHash",
              "type": "string"
            },
            {
              "internalType": "uint256",
              "name": "block",
              "type": "uint256"
            },
            {
              "internalType": "uint256",
              "name": "time",
              "type": "uint256"
            },
            {
              "internalType": "uint256",
              "name": "fee",
              "type": "uint256"
            },
            {
              "internalType": "bool",
              "name": "paid",
              "type": "bool"
            }
          ],
          "internalType": "struct EmergencyWithdrawalReimbursementUpgradeable.Refund",
          "name": "_refund",
          "type": "tuple"
        },
        {
          "internalType": "uint256",
          "name": "poolId",
          "type": "uint256"
        }
      ],
      "name": "addRefund",
      "outputs": [],
      "stateMutability": "nonpayable",
      "type": "function"
    },
    {
      "inputs": [],
      "name": "allAffectedAddresses",
      "outputs": [
        {
          "internalType": "address[]",
          "name": "",
          "type": "address[]"
        }
      ],
      "stateMutability": "view",
      "type": "function"
    },
    {
      "inputs": [],
      "name": "allRefunds",
      "outputs": [
        {
          "components": [
            {
              "internalType": "address",
              "name": "_address",
              "type": "address"
            },
            {
              "internalType": "uint256",
              "name": "withdrawn",
              "type": "uint256"
            },
            {
              "internalType": "string",
              "name": "txHash",
              "type": "string"
            },
            {
              "internalType": "uint256",
              "name": "block",
              "type": "uint256"
            },
            {
              "internalType": "uint256",
              "name": "time",
              "type": "uint256"
            },
            {
              "internalType": "uint256",
              "name": "fee",
              "type": "uint256"
            },
            {
              "internalType": "bool",
              "name": "paid",
              "type": "bool"
            }
          ],
          "internalType": "struct EmergencyWithdrawalReimbursementUpgradeable.Refund[][]",
          "name": "",
          "type": "tuple[][]"
        }
      ],
      "stateMutability": "view",
      "type": "function"
    },
    {
      "inputs": [
        {
          "components": [
            {
              "internalType": "address",
              "name": "_address",
              "type": "address"
            },
            {
              "internalType": "uint256",
              "name": "withdrawn",
              "type": "uint256"
            },
            {
              "internalType": "string",
              "name": "txHash",
              "type": "string"
            },
            {
              "internalType": "uint256",
              "name": "block",
              "type": "uint256"
            },
            {
              "internalType": "uint256",
              "name": "time",
              "type": "uint256"
            },
            {
              "internalType": "uint256",
              "name": "fee",
              "type": "uint256"
            },
            {
              "internalType": "bool",
              "name": "paid",
              "type": "bool"
            }
          ],
          "internalType": "struct EmergencyWithdrawalReimbursementUpgradeable.Refund[]",
          "name": "_refunds",
          "type": "tuple[]"
        },
        {
          "internalType": "uint256[]",
          "name": "poolIds",
          "type": "uint256[]"
        }
      ],
      "name": "batchAddRefunds",
      "outputs": [],
      "stateMutability": "nonpayable",
      "type": "function"
    },
    {
      "inputs": [
        {
          "internalType": "address",
          "name": "_address",
          "type": "address"
        },
        {
          "internalType": "uint256",
          "name": "index",
          "type": "uint256"
        }
      ],
      "name": "claimForAddressByIndex",
      "outputs": [],
      "stateMutability": "nonpayable",
      "type": "function"
    },
    {
      "inputs": [],
      "name": "claimRefund",
      "outputs": [],
      "stateMutability": "nonpayable",
      "type": "function"
    },
    {
      "inputs": [
        {
          "internalType": "uint256",
          "name": "index",
          "type": "uint256"
        }
      ],
      "name": "claimRefundByIndex",
      "outputs": [],
      "stateMutability": "nonpayable",
      "type": "function"
    },
    {
      "inputs": [
        {
          "internalType": "uint256",
          "name": "poolId",
          "type": "uint256"
        }
      ],
      "name": "getExtendedRefund",
      "outputs": [
        {
          "components": [
            {
              "internalType": "contract IERC20Upgradeable",
              "name": "refundToken",
              "type": "address"
            },
            {
              "internalType": "uint256",
              "name": "totalFees",
              "type": "uint256"
            },
            {
              "internalType": "uint256",
              "name": "totalRefunded",
              "type": "uint256"
            },
            {
              "internalType": "uint256",
              "name": "totalToRefund",
              "type": "uint256"
            }
          ],
          "internalType": "struct EmergencyWithdrawalReimbursementUpgradeable.ExtendedRefund",
          "name": "",
          "type": "tuple"
        }
      ],
      "stateMutability": "view",
      "type": "function"
    },
    {
      "inputs": [
        {
          "internalType": "string",
          "name": "txHash",
          "type": "string"
        }
      ],
      "name": "getExtendedRefundByTxHash",
      "outputs": [
        {
          "components": [
            {
              "internalType": "contract IERC20Upgradeable",
              "name": "refundToken",
              "type": "address"
            },
            {
              "internalType": "uint256",
              "name": "totalFees",
              "type": "uint256"
            },
            {
              "internalType": "uint256",
              "name": "totalRefunded",
              "type": "uint256"
            },
            {
              "internalType": "uint256",
              "name": "totalToRefund",
              "type": "uint256"
            }
          ],
          "internalType": "struct EmergencyWithdrawalReimbursementUpgradeable.ExtendedRefund",
          "name": "",
          "type": "tuple"
        }
      ],
      "stateMutability": "view",
      "type": "function"
    },
    {
      "inputs": [
        {
          "internalType": "string",
          "name": "txHash",
          "type": "string"
        }
      ],
      "name": "getPoolIdByTxHash",
      "outputs": [
        {
          "internalType": "uint256",
          "name": "",
          "type": "uint256"
        }
      ],
      "stateMutability": "view",
      "type": "function"
    },
    {
      "inputs": [
        {
          "internalType": "bytes32",
          "name": "role",
          "type": "bytes32"
        }
      ],
      "name": "getRoleAdmin",
      "outputs": [
        {
          "internalType": "bytes32",
          "name": "",
          "type": "bytes32"
        }
      ],
      "stateMutability": "view",
      "type": "function"
    },
    {
      "inputs": [
        {
          "internalType": "bytes32",
          "name": "role",
          "type": "bytes32"
        },
        {
          "internalType": "address",
          "name": "account",
          "type": "address"
        }
      ],
      "name": "grantRole",
      "outputs": [],
      "stateMutability": "nonpayable",
      "type": "function"
    },
    {
      "inputs": [
        {
          "internalType": "bytes32",
          "name": "role",
          "type": "bytes32"
        },
        {
          "internalType": "address",
          "name": "account",
          "type": "address"
        }
      ],
      "name": "hasRole",
      "outputs": [
        {
          "internalType": "bool",
          "name": "",
          "type": "bool"
        }
      ],
      "stateMutability": "view",
      "type": "function"
    },
    {
      "inputs": [],
      "name": "initialize",
      "outputs": [],
      "stateMutability": "nonpayable",
      "type": "function"
    },
    {
      "inputs": [],
      "name": "pause",
      "outputs": [],
      "stateMutability": "nonpayable",
      "type": "function"
    },
    {
      "inputs": [],
      "name": "paused",
      "outputs": [
        {
          "internalType": "bool",
          "name": "",
          "type": "bool"
        }
      ],
      "stateMutability": "view",
      "type": "function"
    },
    {
      "inputs": [
        {
          "internalType": "address",
          "name": "_address",
          "type": "address"
        }
      ],
      "name": "pendingRefundsByAddress",
      "outputs": [
        {
          "components": [
            {
              "internalType": "address",
              "name": "_address",
              "type": "address"
            },
            {
              "internalType": "uint256",
              "name": "withdrawn",
              "type": "uint256"
            },
            {
              "internalType": "string",
              "name": "txHash",
              "type": "string"
            },
            {
              "internalType": "uint256",
              "name": "block",
              "type": "uint256"
            },
            {
              "internalType": "uint256",
              "name": "time",
              "type": "uint256"
            },
            {
              "internalType": "uint256",
              "name": "fee",
              "type": "uint256"
            },
            {
              "internalType": "bool",
              "name": "paid",
              "type": "bool"
            }
          ],
          "internalType": "struct EmergencyWithdrawalReimbursementUpgradeable.Refund[]",
          "name": "",
          "type": "tuple[]"
        }
      ],
      "stateMutability": "view",
      "type": "function"
    },
    {
      "inputs": [
        {
          "internalType": "address",
          "name": "_address",
          "type": "address"
        }
      ],
      "name": "refundsByAddress",
      "outputs": [
        {
          "components": [
            {
              "internalType": "address",
              "name": "_address",
              "type": "address"
            },
            {
              "internalType": "uint256",
              "name": "withdrawn",
              "type": "uint256"
            },
            {
              "internalType": "string",
              "name": "txHash",
              "type": "string"
            },
            {
              "internalType": "uint256",
              "name": "block",
              "type": "uint256"
            },
            {
              "internalType": "uint256",
              "name": "time",
              "type": "uint256"
            },
            {
              "internalType": "uint256",
              "name": "fee",
              "type": "uint256"
            },
            {
              "internalType": "bool",
              "name": "paid",
              "type": "bool"
            }
          ],
          "internalType": "struct EmergencyWithdrawalReimbursementUpgradeable.Refund[]",
          "name": "",
          "type": "tuple[]"
        }
      ],
      "stateMutability": "view",
      "type": "function"
    },
    {
      "inputs": [
        {
          "internalType": "bytes32",
          "name": "role",
          "type": "bytes32"
        },
        {
          "internalType": "address",
          "name": "account",
          "type": "address"
        }
      ],
      "name": "renounceRole",
      "outputs": [],
      "stateMutability": "nonpayable",
      "type": "function"
    },
    {
      "inputs": [],
      "name": "returnToTreasury",
      "outputs": [],
      "stateMutability": "nonpayable",
      "type": "function"
    },
    {
      "inputs": [
        {
          "internalType": "address",
          "name": "_address",
          "type": "address"
        },
        {
          "internalType": "uint256",
          "name": "index",
          "type": "uint256"
        },
        {
          "internalType": "bool",
          "name": "paid",
          "type": "bool"
        }
      ],
      "name": "reviseRefund",
      "outputs": [],
      "stateMutability": "nonpayable",
      "type": "function"
    },
    {
      "inputs": [
        {
          "internalType": "bytes32",
          "name": "role",
          "type": "bytes32"
        },
        {
          "internalType": "address",
          "name": "account",
          "type": "address"
        }
      ],
      "name": "revokeRole",
      "outputs": [],
      "stateMutability": "nonpayable",
      "type": "function"
    },
    {
      "inputs": [
        {
          "internalType": "uint256",
          "name": "poolId",
          "type": "uint256"
        },
        {
          "components": [
            {
              "internalType": "contract IERC20Upgradeable",
              "name": "refundToken",
              "type": "address"
            },
            {
              "internalType": "uint256",
              "name": "totalFees",
              "type": "uint256"
            },
            {
              "internalType": "uint256",
              "name": "totalRefunded",
              "type": "uint256"
            },
            {
              "internalType": "uint256",
              "name": "totalToRefund",
              "type": "uint256"
            }
          ],
          "internalType": "struct EmergencyWithdrawalReimbursementUpgradeable.ExtendedRefund",
          "name": "eRefund",
          "type": "tuple"
        }
      ],
      "name": "setExtendedRefund",
      "outputs": [],
      "stateMutability": "nonpayable",
      "type": "function"
    },
    {
      "inputs": [
        {
          "internalType": "bytes4",
          "name": "interfaceId",
          "type": "bytes4"
        }
      ],
      "name": "supportsInterface",
      "outputs": [
        {
          "internalType": "bool",
          "name": "",
          "type": "bool"
        }
      ],
      "stateMutability": "view",
      "type": "function"
    },
    {
      "inputs": [],
      "name": "unpause",
      "outputs": [],
      "stateMutability": "nonpayable",
      "type": "function"
    },
    {
      "inputs": [
        {
          "internalType": "uint256",
          "name": "genesisBlock",
          "type": "uint256"
        }
      ],
      "name": "updateGenesisBlock",
      "outputs": [],
      "stateMutability": "nonpayable",
      "type": "function"
    },
    {
      "inputs": [
        {
          "internalType": "string[]",
          "name": "txHashes",
          "type": "string[]"
        },
        {
          "internalType": "uint256[]",
          "name": "poolIds",
          "type": "uint256[]"
        }
      ],
      "name": "upgradeExistingRefunds",
      "outputs": [],
      "stateMutability": "nonpayable",
      "type": "function"
    },
    {
      "inputs": [
        {
          "internalType": "address",
          "name": "_address",
          "type": "address"
        }
      ],
      "name": "upgradeRefundValuesByAddress",
      "outputs": [],
      "stateMutability": "nonpayable",
      "type": "function"
    }
  ],
  "bytecode": "0x60806040523480156200001157600080fd5b50600062000020600162000087565b9050801562000039576000805461ff0019166101001790555b801562000080576000805461ff0019169055604051600181527f7f26b83ff96e1f2b6a682f133852f6798a09c465da95921460cefb38474024989060200160405180910390a15b50620001a8565b60008054610100900460ff161562000120578160ff166001148015620000c05750620000be306200019960201b620020c71760201c565b155b620001185760405162461bcd60e51b815260206004820152602e60248201526000805160206200380083398151915260448201526d191e481a5b9a5d1a585b1a5e995960921b60648201526084015b60405180910390fd5b506000919050565b60005460ff8084169116106200017f5760405162461bcd60e51b815260206004820152602e60248201526000805160206200380083398151915260448201526d191e481a5b9a5d1a585b1a5e995960921b60648201526084016200010f565b506000805460ff191660ff92909216919091179055600190565b6001600160a01b03163b151590565b61364880620001b86000396000f3fe608060405234801561001057600080fd5b50600436106102275760003560e01c80638456cb5911610130578063a2fa08d6116100b8578063ea39e7af1161007c578063ea39e7af146104b7578063ed5b3d04146104ca578063f0767142146104df578063fd39b34b146104f2578063ff7f26271461050557600080fd5b8063a2fa08d61461046c578063ada8f5ae1461047f578063b5545a3c14610487578063d46fbab71461048f578063d547741f146104a457600080fd5b806390f4e4bc116100ff57806390f4e4bc1461042257806391d148541461043557806392ca1e8d14610448578063a0b0244914610451578063a217fddf1461046457600080fd5b80638456cb59146103df5780638d547728146103e75780638eb0c7cb146103fc5780638ff046bb1461040f57600080fd5b806336568abe116101b35780635ae6b75a116101825780635ae6b75a1461039b5780635c975abb146103ae5780636e783023146103b957806375b238fc146103c25780638129fc1c146103d757600080fd5b806336568abe14610341578063382a8c39146103545780633f4ba83a1461036757806359285c3a1461036f57600080fd5b806321937d03116101fa57806321937d0314610293578063248a9ca3146102b35780632dcd4ada146102d65780632e794008146103255780632f2ff15d1461032e57600080fd5b806301ffc9a71461022c5780630a5b907d1461025457806311856c69146102695780631aa3494514610280575b600080fd5b61023f61023a366004612aa0565b61050e565b60405190151581526020015b60405180910390f35b610267610262366004612c75565b610545565b005b61027260fb5481565b60405190815260200161024b565b61026761028e366004612cba565b610829565b6102a66102a1366004612d46565b610891565b60405161024b9190612e67565b6102726102c1366004612e7a565b60009081526065602052604090206001015490565b6102e96102e4366004612e93565b6109df565b60405161024b919081516001600160a01b0316815260208083015190820152604080830151908201526060918201519181019190915260800190565b61027260ff5481565b61026761033c366004612ec8565b610a88565b61026761034f366004612ec8565b610ab2565b610267610362366004612ef8565b610b35565b610267610bf3565b61010054610383906001600160a01b031681565b6040516001600160a01b03909116815260200161024b565b6102676103a9366004612f3a565b610c16565b60c95460ff1661023f565b61027260fc5481565b6102726000805160206135f383398151915281565b610267610f68565b61026761106a565b6103ef61108a565b60405161024b9190612f66565b61026761040a366004612e7a565b6112d0565b6102e961041d366004612e7a565b6112ee565b610267610430366004613057565b611371565b61023f610443366004612ec8565b6114a3565b61027260fd5481565b61026761045f36600461312b565b6114ce565b610272600081565b61027261047a366004612e93565b6115df565b610267611608565b610267611775565b6102726000805160206135d383398151915281565b6102676104b2366004612ec8565b611a91565b6102676104c5366004612d46565b611ab6565b6104d2611bf3565b60405161024b91906131d1565b6102a66104ed366004612d46565b611c1e565b610267610500366004612e7a565b611d79565b61027260fe5481565b60006001600160e01b03198216637965db0b60e01b148061053f57506301ffc9a760e01b6001600160e01b03198316145b92915050565b6000805160206135d383398151915261055d816120d6565b82516001600160a01b031660009081526101016020526040812090805b82548110156106705761065083600001828154811061059b5761059b61321e565b906000526020600020906007020160020180546105b790613234565b80601f01602080910402602001604051908101604052809291908181526020018280546105e390613234565b80156106305780601f1061060557610100808354040283529160200191610630565b820191906000526020600020905b81548152906001019060200180831161061357829003601f168201915b505050505087604001518051602091820120825192909101919091201490565b1561065e5760019150610670565b8061066881613285565b91505061057a565b50806108225761067e6129c8565b85516001600160a01b0390811682526020808801518184019081526040808a01519085019081526060808b0151908601526080808b01519086015260a0808b01519086015260c0808b01511515908601528654600180820189556000898152859020875160079093020180546001600160a01b0319169290961691909117855591519184019190915551805184939261071e926002850192910190612a10565b50606082015160038201556080820151600482015560a0820151600582015560c0909101516006909101805460ff1916911515919091179055805161076690610102906120e0565b50855161077690610106906120fc565b61078a57855161078590611ab6565b6107e3565b60a086015160008681526101056020526040812060010180549091906107b19084906132a0565b909155505060a086015160008681526101056020526040812060030180549091906107dd9084906132a0565b90915550505b8461010487604001516040516107f991906132b8565b90815260405190819003602001902055606081015160fc54101561082057606081015160fc555b505b5050505050565b6000805160206135f3833981519152610841816120d6565b5080516000928352610105602090815260409384902080546001600160a01b0319166001600160a01b03909316929092178255820151600182015591810151600283015560600151600390910155565b6060600061089e83611c1e565b90506000805b82518110156108f2578281815181106108bf576108bf61321e565b602090810291909101015160c001516108e057816108dc81613285565b9250505b806108ea81613285565b9150506108a4565b5060008167ffffffffffffffff81111561090e5761090e612aca565b60405190808252806020026020018201604052801561094757816020015b6109346129c8565b81526020019060019003908161092c5790505b5090506000805b84518110156109d4578481815181106109695761096961321e565b602090810291909101015160c001516109c25784818151811061098e5761098e61321e565b60200260200101518383815181106109a8576109a861321e565b602002602001018190525081806109be90613285565b9250505b806109cc81613285565b91505061094e565b509095945050505050565b610a13604051806080016040528060006001600160a01b031681526020016000815260200160008152602001600081525090565b610105600061010484604051610a2991906132b8565b908152604080516020928190038301902054835282820193909352908201600020825160808101845281546001600160a01b03168152600182015492810192909252600281015492820192909252600390910154606082015292915050565b600082815260656020526040902060010154610aa3816120d6565b610aad838361211e565b505050565b6001600160a01b0381163314610b275760405162461bcd60e51b815260206004820152602f60248201527f416363657373436f6e74726f6c3a2063616e206f6e6c792072656e6f756e636560448201526e103937b632b9903337b91039b2b63360891b60648201526084015b60405180910390fd5b610b3182826121a4565b5050565b60026097541415610b585760405162461bcd60e51b8152600401610b1e906132d4565b600260975560c95460ff1615610b805760405162461bcd60e51b8152600401610b1e9061330b565b6000805160206135f3833981519152610b98816120d6565b6001600160a01b038416600090815261010160205260409020805483919085908110610bc657610bc661321e565b60009182526020909120600790910201600601805460ff1916911515919091179055505060016097555050565b6000805160206135f3833981519152610c0b816120d6565b610c1361220b565b50565b60026097541415610c395760405162461bcd60e51b8152600401610b1e906132d4565b600260975560c95460ff1615610c615760405162461bcd60e51b8152600401610b1e9061330b565b6000805160206135f3833981519152610c79816120d6565b6000610c8484610891565b5111610cd25760405162461bcd60e51b815260206004820152601b60248201527f4e6f2070656e64696e6720726566756e647320666f72207573657200000000006044820152606401610b1e565b6001600160a01b0383166000908152610101602052604090208054819084908110610cff57610cff61321e565b600091825260209091206006600790920201015460ff16610f5d576000610104826000018581548110610d3457610d3461321e565b9060005260206000209060070201600201604051610d529190613335565b908152604080516020928190038301812054600081815261010590945291832080546370a0823160e01b835230600484015292945092916001600160a01b0316906370a082319060240160206040518083038186803b158015610db457600080fd5b505afa158015610dc8573d6000803e3d6000fd5b505050506040513d601f19601f82011682018060405250810190610dec91906133d1565b9050836000018681548110610e0357610e0361321e565b9060005260206000209060070201600501548111610e335760405162461bcd60e51b8152600401610b1e906133ea565b6001846000018781548110610e4a57610e4a61321e565b60009182526020909120600790910201600601805460ff19169115159190911790558354849087908110610e8057610e8061321e565b906000526020600020906007020160050154826002016000828254610ea591906132a0565b90915550508354849087908110610ebe57610ebe61321e565b906000526020600020906007020160050154826003015410610f1a57836000018681548110610eef57610eef61321e565b906000526020600020906007020160050154826003016000828254610f149190613447565b90915550505b610f5987856000018881548110610f3357610f3361321e565b600091825260209091206005600790920201015484546001600160a01b0316919061229e565b5050505b505060016097555050565b6000610f7460016122f0565b90508015610f8c576000805461ff0019166101001790555b610f9461237d565b610f9c6123a6565b610fa46123d5565b610faf60003361211e565b610fc76000805160206135f38339815191523361211e565b610fdf6000805160206135d38339815191523361211e565b630184cf5160fb81905560fc5561010080546001600160a01b03191673d6e76742962379e234e9fd4e73768cef779f38b5179055600060fd81905560fe81905560ff558015610c13576000805461ff0019169055604051600181527f7f26b83ff96e1f2b6a682f133852f6798a09c465da95921460cefb38474024989060200160405180910390a150565b6000805160206135f3833981519152611082816120d6565b610c13612404565b60606000805160206135f38339815191526110a4816120d6565b606060006110b0611bf3565b905060005b81518110156112c65760005b61010160008484815181106110d8576110d861321e565b6020908102919091018101516001600160a01b03168252810191909152604001600020548110156112b357610101600084848151811061111a5761111a61321e565b60200260200101516001600160a01b03166001600160a01b0316815260200190815260200160002060000181815481106111565761115661321e565b90600052602060002090600702016040518060e00160405290816000820160009054906101000a90046001600160a01b03166001600160a01b03166001600160a01b03168152602001600182015481526020016002820180546111b890613234565b80601f01602080910402602001604051908101604052809291908181526020018280546111e490613234565b80156112315780601f1061120657610100808354040283529160200191611231565b820191906000526020600020905b81548152906001019060200180831161121457829003601f168201915b505050918352505060038201546020820152600482015460408201526005820154606082015260069091015460ff161515608090910152845185908490811061127c5761127c61321e565b602002602001015182815181106112955761129561321e565b602002602001018190525080806112ab90613285565b9150506110c1565b50806112be81613285565b9150506110b5565b50909250505b5090565b6000805160206135f38339815191526112e8816120d6565b5060fb55565b611322604051806080016040528060006001600160a01b031681526020016000815260200160008152602001600081525090565b5060009081526101056020908152604091829020825160808101845281546001600160a01b03168152600182015492810192909252600281015492820192909252600390910154606082015290565b6000805160206135f3833981519152611389816120d6565b81518351146113ec5760405162461bcd60e51b815260206004820152602960248201527f7478486173686573206c656e677468206d757374206d6174636820706f6f6c496044820152680c8e640d8cadccee8d60bb1b6064820152608401610b1e565b600083511161142b5760405162461bcd60e51b815260206004820152600b60248201526a115b5c1d1e481a5b9c1d5d60aa1b6044820152606401610b1e565b60005b835181101561149d578281815181106114495761144961321e565b60200260200101516101048583815181106114665761146661321e565b602002602001015160405161147b91906132b8565b908152604051908190036020019020558061149581613285565b91505061142e565b50505050565b60009182526065602090815260408084206001600160a01b0393909316845291905290205460ff1690565b6000805160206135d38339815191526114e6816120d6565b81518351146115465760405162461bcd60e51b815260206004820152602660248201527f526566756e64206c656e677468206d757374206d6174636820706f6f6c4964206044820152650d8cadccee8d60d31b6064820152608401610b1e565b60008351116115855760405162461bcd60e51b815260206004820152600b60248201526a115b5c1d1e481a5b9c1d5d60aa1b6044820152606401610b1e565b60005b835181101561149d576115cd8482815181106115a6576115a661321e565b60200260200101518483815181106115c0576115c061321e565b6020026020010151610545565b806115d781613285565b915050611588565b6000610104826040516115f291906132b8565b9081526020016040518091039020549050919050565b6000805160206135f3833981519152611620816120d6565b6040516370a0823160e01b815230600482015273e8d94e683338ba3fa3b36c4ff2401bc5772db67f9073eb76ef5d121f31c2cb59e50a4fa5475042c84e349073d6e76742962379e234e9fd4e73768cef779f38b5906116e790849084906370a082319060240160206040518083038186803b15801561169e57600080fd5b505afa1580156116b2573d6000803e3d6000fd5b505050506040513d601f19601f820116820180604052508101906116d691906133d1565b6001600160a01b038516919061229e565b6040516370a0823160e01b815230600482015261149d9084906001600160a01b038416906370a082319060240160206040518083038186803b15801561172c57600080fd5b505afa158015611740573d6000803e3d6000fd5b505050506040513d601f19601f8201168201806040525081019061176491906133d1565b6001600160a01b038416919061229e565b600260975414156117985760405162461bcd60e51b8152600401610b1e906132d4565b600260975560c95460ff16156117c05760405162461bcd60e51b8152600401610b1e9061330b565b60006117cb33610891565b511161180e5760405162461bcd60e51b81526020600482015260126024820152714e6f2070656e64696e6720726566756e647360701b6044820152606401610b1e565b33600090815261010160205260408120905b8154811015611a885781600001818154811061183e5761183e61321e565b600091825260209091206006600790920201015460ff16611a765760006101048360000183815481106118735761187361321e565b90600052602060002090600702016002016040516118919190613335565b908152604080516020928190038301812054600081815261010590945291832080546370a0823160e01b835230600484015292945092916001600160a01b0316906370a082319060240160206040518083038186803b1580156118f357600080fd5b505afa158015611907573d6000803e3d6000fd5b505050506040513d601f19601f8201168201806040525081019061192b91906133d1565b90508460000184815481106119425761194261321e565b90600052602060002090600702016005015481116119725760405162461bcd60e51b8152600401610b1e906133ea565b60018560000185815481106119895761198961321e565b60009182526020909120600790910201600601805460ff191691151591909117905584548590859081106119bf576119bf61321e565b9060005260206000209060070201600501548260020160008282546119e491906132a0565b909155505084548590859081106119fd576119fd61321e565b906000526020600020906007020160050154826003015410611a5957846000018481548110611a2e57611a2e61321e565b906000526020600020906007020160050154826003016000828254611a539190613447565b90915550505b611a7233866000018681548110610f3357610f3361321e565b5050505b80611a8081613285565b915050611820565b50506001609755565b600082815260656020526040902060010154611aac816120d6565b610aad83836121a4565b6000805160206135f3833981519152611ace816120d6565b611ada610106836120fc565b15611ae3575050565b6000611aee83611c1e565b905060005b8151811015611be6576000610104838381518110611b1357611b1361321e565b602002602001015160400151604051611b2c91906132b8565b9081526020016040518091039020549050828281518110611b4f57611b4f61321e565b602002602001015160a0015161010560008381526020019081526020016000206001016000828254611b8191906132a0565b92505081905550828281518110611b9a57611b9a61321e565b602002602001015160a0015161010560008381526020019081526020016000206003016000828254611bcc91906132a0565b90915550829150611bde905081613285565b915050611af3565b5061149d610106846120e0565b60606000805160206135f3833981519152611c0d816120d6565b611c1861010261245c565b91505090565b6001600160a01b038116600090815261010160209081526040808320805482518185028101850190935280835260609492939192909184015b82821015611d6e5760008481526020908190206040805160e0810182526007860290920180546001600160a01b0316835260018101549383019390935260028301805492939291840191611caa90613234565b80601f0160208091040260200160405190810160405280929190818152602001828054611cd690613234565b8015611d235780601f10611cf857610100808354040283529160200191611d23565b820191906000526020600020905b815481529060010190602001808311611d0657829003601f168201915b50505091835250506003820154602080830191909152600483015460408301526005830154606083015260069092015460ff1615156080909101529082526001929092019101611c57565b505050509050919050565b60026097541415611d9c5760405162461bcd60e51b8152600401610b1e906132d4565b600260975560c95460ff1615611dc45760405162461bcd60e51b8152600401610b1e9061330b565b336000908152610101602052604081208054909190829084908110611deb57611deb61321e565b90600052602060002090600702016004015411611e3a5760405162461bcd60e51b815260206004820152600d60248201526c092dcecc2d8d2c840d2dcc8caf609b1b6044820152606401610b1e565b806000018281548110611e4f57611e4f61321e565b600091825260209091206006600790920201015460ff1615611ea25760405162461bcd60e51b815260206004820152600c60248201526b105b1c9958591e481c185a5960a21b6044820152606401610b1e565b6000610104826000018481548110611ebc57611ebc61321e565b9060005260206000209060070201600201604051611eda9190613335565b908152604080516020928190038301812054600081815261010590945291832080546370a0823160e01b835230600484015292945092916001600160a01b0316906370a082319060240160206040518083038186803b158015611f3c57600080fd5b505afa158015611f50573d6000803e3d6000fd5b505050506040513d601f19601f82011682018060405250810190611f7491906133d1565b9050836000018581548110611f8b57611f8b61321e565b9060005260206000209060070201600501548111611fbb5760405162461bcd60e51b8152600401610b1e906133ea565b6001846000018681548110611fd257611fd261321e565b60009182526020909120600790910201600601805460ff191691151591909117905583548490869081106120085761200861321e565b90600052602060002090600702016005015482600201600082825461202d91906132a0565b909155505083548490869081106120465761204661321e565b9060005260206000209060070201600501548260030154106120a2578360000185815481106120775761207761321e565b90600052602060002090600702016005015482600301600082825461209c9190613447565b90915550505b6120bb33856000018781548110610f3357610f3361321e565b50506001609755505050565b6001600160a01b03163b151590565b610c138133612469565b60006120f5836001600160a01b0384166124cd565b9392505050565b6001600160a01b038116600090815260018301602052604081205415156120f5565b61212882826114a3565b610b315760008281526065602090815260408083206001600160a01b03851684529091529020805460ff191660011790556121603390565b6001600160a01b0316816001600160a01b0316837f2f8788117e7eff1d82e926ec794901d17c78024a50270940304540a733656f0d60405160405180910390a45050565b6121ae82826114a3565b15610b315760008281526065602090815260408083206001600160a01b0385168085529252808320805460ff1916905551339285917ff6391f5c32d9c69d2a47ea670b442974b53935d1edc7fd64eb21e047a839171b9190a45050565b60c95460ff166122545760405162461bcd60e51b815260206004820152601460248201527314185d5cd8589b194e881b9bdd081c185d5cd95960621b6044820152606401610b1e565b60c9805460ff191690557f5db9ee0a495bf2e6ff9c91a7834c1ba4fdd244a5e8aa4e537bd38aeae4b073aa335b6040516001600160a01b03909116815260200160405180910390a1565b604080516001600160a01b038416602482015260448082018490528251808303909101815260649091019091526020810180516001600160e01b031663a9059cbb60e01b179052610aad90849061251c565b60008054610100900460ff1615612337578160ff1660011480156123135750303b155b61232f5760405162461bcd60e51b8152600401610b1e9061345e565b506000919050565b60005460ff80841691161061235e5760405162461bcd60e51b8152600401610b1e9061345e565b506000805460ff191660ff92909216919091179055600190565b919050565b600054610100900460ff166123a45760405162461bcd60e51b8152600401610b1e906134ac565b565b600054610100900460ff166123cd5760405162461bcd60e51b8152600401610b1e906134ac565b6123a46125ee565b600054610100900460ff166123fc5760405162461bcd60e51b8152600401610b1e906134ac565b6123a461261c565b60c95460ff16156124275760405162461bcd60e51b8152600401610b1e9061330b565b60c9805460ff191660011790557f62e78cea01bee320cd4e420270b5ea74000d11b0c9f74754ebdbfc544b05a2586122813390565b606060006120f58361264f565b61247382826114a3565b610b315761248b816001600160a01b031660146126ab565b6124968360206126ab565b6040516020016124a79291906134f7565b60408051601f198184030181529082905262461bcd60e51b8252610b1e9160040161356c565b60008181526001830160205260408120546125145750815460018181018455600084815260208082209093018490558454848252828601909352604090209190915561053f565b50600061053f565b6000612571826040518060400160405280602081526020017f5361666545524332303a206c6f772d6c6576656c2063616c6c206661696c6564815250856001600160a01b03166128479092919063ffffffff16565b805190915015610aad578080602001905181019061258f919061357f565b610aad5760405162461bcd60e51b815260206004820152602a60248201527f5361666545524332303a204552433230206f7065726174696f6e20646964206e6044820152691bdd081cdd58d8d9595960b21b6064820152608401610b1e565b600054610100900460ff166126155760405162461bcd60e51b8152600401610b1e906134ac565b6001609755565b600054610100900460ff166126435760405162461bcd60e51b8152600401610b1e906134ac565b60c9805460ff19169055565b60608160000180548060200260200160405190810160405280929190818152602001828054801561269f57602002820191906000526020600020905b81548152602001906001019080831161268b575b50505050509050919050565b606060006126ba83600261359c565b6126c59060026132a0565b67ffffffffffffffff8111156126dd576126dd612aca565b6040519080825280601f01601f191660200182016040528015612707576020820181803683370190505b509050600360fc1b816000815181106127225761272261321e565b60200101906001600160f81b031916908160001a905350600f60fb1b816001815181106127515761275161321e565b60200101906001600160f81b031916908160001a905350600061277584600261359c565b6127809060016132a0565b90505b60018111156127f8576f181899199a1a9b1b9c1cb0b131b232b360811b85600f16601081106127b4576127b461321e565b1a60f81b8282815181106127ca576127ca61321e565b60200101906001600160f81b031916908160001a90535060049490941c936127f1816135bb565b9050612783565b5083156120f55760405162461bcd60e51b815260206004820181905260248201527f537472696e67733a20686578206c656e67746820696e73756666696369656e746044820152606401610b1e565b6060612856848460008561285e565b949350505050565b6060824710156128bf5760405162461bcd60e51b815260206004820152602660248201527f416464726573733a20696e73756666696369656e742062616c616e636520666f6044820152651c8818d85b1b60d21b6064820152608401610b1e565b6001600160a01b0385163b6129165760405162461bcd60e51b815260206004820152601d60248201527f416464726573733a2063616c6c20746f206e6f6e2d636f6e74726163740000006044820152606401610b1e565b600080866001600160a01b0316858760405161293291906132b8565b60006040518083038185875af1925050503d806000811461296f576040519150601f19603f3d011682016040523d82523d6000602084013e612974565b606091505b509150915061298482828661298f565b979650505050505050565b6060831561299e5750816120f5565b8251156129ae5782518084602001fd5b8160405162461bcd60e51b8152600401610b1e919061356c565b6040518060e0016040528060006001600160a01b0316815260200160008152602001606081526020016000815260200160008152602001600081526020016000151581525090565b828054612a1c90613234565b90600052602060002090601f016020900481019282612a3e5760008555612a84565b82601f10612a5757805160ff1916838001178555612a84565b82800160010185558215612a84579182015b82811115612a84578251825591602001919060010190612a69565b506112cc9291505b808211156112cc5760008155600101612a8c565b600060208284031215612ab257600080fd5b81356001600160e01b0319811681146120f557600080fd5b634e487b7160e01b600052604160045260246000fd5b60405160e0810167ffffffffffffffff81118282101715612b0357612b03612aca565b60405290565b604051601f8201601f1916810167ffffffffffffffff81118282101715612b3257612b32612aca565b604052919050565b6001600160a01b0381168114610c1357600080fd5b803561237881612b3a565b600082601f830112612b6b57600080fd5b813567ffffffffffffffff811115612b8557612b85612aca565b612b98601f8201601f1916602001612b09565b818152846020838601011115612bad57600080fd5b816020850160208301376000918101602001919091529392505050565b8015158114610c1357600080fd5b803561237881612bca565b600060e08284031215612bf557600080fd5b612bfd612ae0565b9050612c0882612b4f565b815260208201356020820152604082013567ffffffffffffffff811115612c2e57600080fd5b612c3a84828501612b5a565b604083015250606082013560608201526080820135608082015260a082013560a0820152612c6a60c08301612bd8565b60c082015292915050565b60008060408385031215612c8857600080fd5b823567ffffffffffffffff811115612c9f57600080fd5b612cab85828601612be3565b95602094909401359450505050565b60008082840360a0811215612cce57600080fd5b833592506080601f1982011215612ce457600080fd5b506040516080810181811067ffffffffffffffff82111715612d0857612d08612aca565b6040526020840135612d1981612b3a565b80825250604084013560208201526060840135604082015260808401356060820152809150509250929050565b600060208284031215612d5857600080fd5b81356120f581612b3a565b60005b83811015612d7e578181015183820152602001612d66565b8381111561149d5750506000910152565b60008151808452612da7816020860160208601612d63565b601f01601f19169290920160200192915050565b600081518084526020808501808196508360051b8101915082860160005b85811015612e5a578284038952815180516001600160a01b03168552858101518686015260408082015160e08288018190529190612e1983890182612d8f565b606085810151908a0152608080860151908a015260a080860151908a015260c094850151151594909801939093525050509784019790840190600101612dd9565b5091979650505050505050565b6020815260006120f56020830184612dbb565b600060208284031215612e8c57600080fd5b5035919050565b600060208284031215612ea557600080fd5b813567ffffffffffffffff811115612ebc57600080fd5b61285684828501612b5a565b60008060408385031215612edb57600080fd5b823591506020830135612eed81612b3a565b809150509250929050565b600080600060608486031215612f0d57600080fd5b8335612f1881612b3a565b9250602084013591506040840135612f2f81612bca565b809150509250925092565b60008060408385031215612f4d57600080fd5b8235612f5881612b3a565b946020939093013593505050565b6000602080830181845280855180835260408601915060408160051b870101925083870160005b82811015612fbb57603f19888603018452612fa9858351612dbb565b94509285019290850190600101612f8d565b5092979650505050505050565b600067ffffffffffffffff821115612fe257612fe2612aca565b5060051b60200190565b600082601f830112612ffd57600080fd5b8135602061301261300d83612fc8565b612b09565b82815260059290921b8401810191818101908684111561303157600080fd5b8286015b8481101561304c5780358352918301918301613035565b509695505050505050565b6000806040838503121561306a57600080fd5b823567ffffffffffffffff8082111561308257600080fd5b818501915085601f83011261309657600080fd5b813560206130a661300d83612fc8565b82815260059290921b840181019181810190898411156130c557600080fd5b8286015b848110156130fd578035868111156130e15760008081fd5b6130ef8c86838b0101612b5a565b8452509183019183016130c9565b509650508601359250508082111561311457600080fd5b5061312185828601612fec565b9150509250929050565b6000806040838503121561313e57600080fd5b823567ffffffffffffffff8082111561315657600080fd5b818501915085601f83011261316a57600080fd5b8135602061317a61300d83612fc8565b82815260059290921b8401810191818101908984111561319957600080fd5b8286015b848110156130fd578035868111156131b55760008081fd5b6131c38c86838b0101612be3565b84525091830191830161319d565b6020808252825182820181905260009190848201906040850190845b818110156132125783516001600160a01b0316835292840192918401916001016131ed565b50909695505050505050565b634e487b7160e01b600052603260045260246000fd5b600181811c9082168061324857607f821691505b6020821081141561326957634e487b7160e01b600052602260045260246000fd5b50919050565b634e487b7160e01b600052601160045260246000fd5b60006000198214156132995761329961326f565b5060010190565b600082198211156132b3576132b361326f565b500190565b600082516132ca818460208701612d63565b9190910192915050565b6020808252601f908201527f5265656e7472616e637947756172643a207265656e7472616e742063616c6c00604082015260600190565b60208082526010908201526f14185d5cd8589b194e881c185d5cd95960821b604082015260600190565b600080835481600182811c91508083168061335157607f831692505b602080841082141561337157634e487b7160e01b86526022600452602486fd5b8180156133855760018114613396576133c3565b60ff198616895284890196506133c3565b60008a81526020902060005b868110156133bb5781548b8201529085019083016133a2565b505084890196505b509498975050505050505050565b6000602082840312156133e357600080fd5b5051919050565b6020808252603a908201527f496e73756666696369656e7420636f6e74726163742062616c616e636520746f60408201527f20726566756e642e204e6f7469667920696e20646973636f7264000000000000606082015260800190565b6000828210156134595761345961326f565b500390565b6020808252602e908201527f496e697469616c697a61626c653a20636f6e747261637420697320616c72656160408201526d191e481a5b9a5d1a585b1a5e995960921b606082015260800190565b6020808252602b908201527f496e697469616c697a61626c653a20636f6e7472616374206973206e6f74206960408201526a6e697469616c697a696e6760a81b606082015260800190565b7f416363657373436f6e74726f6c3a206163636f756e742000000000000000000081526000835161352f816017850160208801612d63565b7001034b99036b4b9b9b4b733903937b6329607d1b6017918401918201528351613560816028840160208801612d63565b01602801949350505050565b6020815260006120f56020830184612d8f565b60006020828403121561359157600080fd5b81516120f581612bca565b60008160001904831182151516156135b6576135b661326f565b500290565b6000816135ca576135ca61326f565b50600019019056fefa1e1e55aab7c0e3c46cc6e18746f0998e83fcd9df45896dbb1db42e5637efa8a49807205ce4d355092ef5a8a18f56e8913cf4a201fbe287825b095693c21775a2646970667358221220edcaf013ae3660507416d93b0ee7a3c88917d977fc6833f2a42b359bb23673c064736f6c63430008090033496e697469616c697a61626c653a20636f6e747261637420697320616c726561",
  "linkReferences": {},
  "deployedLinkReferences": {}
}