{
  "_format": "hh-sol-artifact-1",
  "contractName": "EmergencyWithdrawalReimbursementUpgradeable",
  "sourceName": "contracts/npc/EmergencyWithdrawalReimbursementUpgradeable.sol",
  "abi": [
    {
      "inputs": [],
      "stateMutability": "nonpayable",
      "type": "constructor"
    },
    {
      "anonymous": false,
      "inputs": [
        {
          "indexed": false,
          "internalType": "uint8",
          "name": "version",
          "type": "uint8"
        }
      ],
      "name": "Initialized",
      "type": "event"
    },
    {
      "anonymous": false,
      "inputs": [
        {
          "indexed": false,
          "internalType": "address",
          "name": "account",
          "type": "address"
        }
      ],
      "name": "Paused",
      "type": "event"
    },
    {
      "anonymous": false,
      "inputs": [
        {
          "indexed": true,
          "internalType": "bytes32",
          "name": "role",
          "type": "bytes32"
        },
        {
          "indexed": true,
          "internalType": "bytes32",
          "name": "previousAdminRole",
          "type": "bytes32"
        },
        {
          "indexed": true,
          "internalType": "bytes32",
          "name": "newAdminRole",
          "type": "bytes32"
        }
      ],
      "name": "RoleAdminChanged",
      "type": "event"
    },
    {
      "anonymous": false,
      "inputs": [
        {
          "indexed": true,
          "internalType": "bytes32",
          "name": "role",
          "type": "bytes32"
        },
        {
          "indexed": true,
          "internalType": "address",
          "name": "account",
          "type": "address"
        },
        {
          "indexed": true,
          "internalType": "address",
          "name": "sender",
          "type": "address"
        }
      ],
      "name": "RoleGranted",
      "type": "event"
    },
    {
      "anonymous": false,
      "inputs": [
        {
          "indexed": true,
          "internalType": "bytes32",
          "name": "role",
          "type": "bytes32"
        },
        {
          "indexed": true,
          "internalType": "address",
          "name": "account",
          "type": "address"
        },
        {
          "indexed": true,
          "internalType": "address",
          "name": "sender",
          "type": "address"
        }
      ],
      "name": "RoleRevoked",
      "type": "event"
    },
    {
      "anonymous": false,
      "inputs": [
        {
          "indexed": false,
          "internalType": "address",
          "name": "account",
          "type": "address"
        }
      ],
      "name": "Unpaused",
      "type": "event"
    },
    {
      "inputs": [],
      "name": "ADMIN_ROLE",
      "outputs": [
        {
          "internalType": "bytes32",
          "name": "",
          "type": "bytes32"
        }
      ],
      "stateMutability": "view",
      "type": "function"
    },
    {
      "inputs": [],
      "name": "DEFAULT_ADMIN_ROLE",
      "outputs": [
        {
          "internalType": "bytes32",
          "name": "",
          "type": "bytes32"
        }
      ],
      "stateMutability": "view",
      "type": "function"
    },
    {
      "inputs": [],
      "name": "GENESIS_REFUND_FROM_BLOCK",
      "outputs": [
        {
          "internalType": "uint256",
          "name": "",
          "type": "uint256"
        }
      ],
      "stateMutability": "view",
      "type": "function"
    },
    {
      "inputs": [],
      "name": "LAST_SNAPSHOT_BLOCK",
      "outputs": [
        {
          "internalType": "uint256",
          "name": "",
          "type": "uint256"
        }
      ],
      "stateMutability": "view",
      "type": "function"
    },
    {
      "inputs": [],
      "name": "REFUND_TOKEN",
      "outputs": [
        {
          "internalType": "contract IERC20Upgradeable",
          "name": "",
          "type": "address"
        }
      ],
      "stateMutability": "view",
      "type": "function"
    },
    {
      "inputs": [],
      "name": "SCRIBE_ROLE",
      "outputs": [
        {
          "internalType": "bytes32",
          "name": "",
          "type": "bytes32"
        }
      ],
      "stateMutability": "view",
      "type": "function"
    },
    {
      "inputs": [],
      "name": "TOTAL_FEES",
      "outputs": [
        {
          "internalType": "uint256",
          "name": "",
          "type": "uint256"
        }
      ],
      "stateMutability": "view",
      "type": "function"
    },
    {
      "inputs": [],
      "name": "TOTAL_REFUNDED",
      "outputs": [
        {
          "internalType": "uint256",
          "name": "",
          "type": "uint256"
        }
      ],
      "stateMutability": "view",
      "type": "function"
    },
    {
      "inputs": [],
      "name": "TOTAL_TO_REFUND",
      "outputs": [
        {
          "internalType": "uint256",
          "name": "",
          "type": "uint256"
        }
      ],
      "stateMutability": "view",
      "type": "function"
    },
    {
      "inputs": [
        {
          "components": [
            {
              "internalType": "address",
              "name": "_address",
              "type": "address"
            },
            {
              "internalType": "uint256",
              "name": "withdrawn",
              "type": "uint256"
            },
            {
              "internalType": "string",
              "name": "txHash",
              "type": "string"
            },
            {
              "internalType": "uint256",
              "name": "block",
              "type": "uint256"
            },
            {
              "internalType": "uint256",
              "name": "time",
              "type": "uint256"
            },
            {
              "internalType": "uint256",
              "name": "fee",
              "type": "uint256"
            },
            {
              "internalType": "bool",
              "name": "paid",
              "type": "bool"
            }
          ],
          "internalType": "struct EmergencyWithdrawalReimbursementUpgradeable.Refund",
          "name": "_refund",
          "type": "tuple"
        },
        {
          "internalType": "uint256",
          "name": "poolId",
          "type": "uint256"
        }
      ],
      "name": "addRefund",
      "outputs": [],
      "stateMutability": "nonpayable",
      "type": "function"
    },
    {
      "inputs": [],
      "name": "allAffectedAddresses",
      "outputs": [
        {
          "internalType": "address[]",
          "name": "",
          "type": "address[]"
        }
      ],
      "stateMutability": "view",
      "type": "function"
    },
    {
      "inputs": [],
      "name": "allRefunds",
      "outputs": [
        {
          "components": [
            {
              "internalType": "address",
              "name": "_address",
              "type": "address"
            },
            {
              "internalType": "uint256",
              "name": "withdrawn",
              "type": "uint256"
            },
            {
              "internalType": "string",
              "name": "txHash",
              "type": "string"
            },
            {
              "internalType": "uint256",
              "name": "block",
              "type": "uint256"
            },
            {
              "internalType": "uint256",
              "name": "time",
              "type": "uint256"
            },
            {
              "internalType": "uint256",
              "name": "fee",
              "type": "uint256"
            },
            {
              "internalType": "bool",
              "name": "paid",
              "type": "bool"
            }
          ],
          "internalType": "struct EmergencyWithdrawalReimbursementUpgradeable.Refund[][]",
          "name": "",
          "type": "tuple[][]"
        }
      ],
      "stateMutability": "view",
      "type": "function"
    },
    {
      "inputs": [
        {
          "components": [
            {
              "internalType": "address",
              "name": "_address",
              "type": "address"
            },
            {
              "internalType": "uint256",
              "name": "withdrawn",
              "type": "uint256"
            },
            {
              "internalType": "string",
              "name": "txHash",
              "type": "string"
            },
            {
              "internalType": "uint256",
              "name": "block",
              "type": "uint256"
            },
            {
              "internalType": "uint256",
              "name": "time",
              "type": "uint256"
            },
            {
              "internalType": "uint256",
              "name": "fee",
              "type": "uint256"
            },
            {
              "internalType": "bool",
              "name": "paid",
              "type": "bool"
            }
          ],
          "internalType": "struct EmergencyWithdrawalReimbursementUpgradeable.Refund[]",
          "name": "_refunds",
          "type": "tuple[]"
        },
        {
          "internalType": "uint256[]",
          "name": "poolIds",
          "type": "uint256[]"
        }
      ],
      "name": "batchAddRefunds",
      "outputs": [],
      "stateMutability": "nonpayable",
      "type": "function"
    },
    {
      "inputs": [
        {
          "internalType": "address",
          "name": "_address",
          "type": "address"
        },
        {
          "internalType": "uint256",
          "name": "index",
          "type": "uint256"
        }
      ],
      "name": "claimForAddressByIndex",
      "outputs": [],
      "stateMutability": "nonpayable",
      "type": "function"
    },
    {
      "inputs": [],
      "name": "claimRefund",
      "outputs": [],
      "stateMutability": "nonpayable",
      "type": "function"
    },
    {
      "inputs": [
        {
          "internalType": "uint256",
          "name": "index",
          "type": "uint256"
        }
      ],
      "name": "claimRefundByIndex",
      "outputs": [],
      "stateMutability": "nonpayable",
      "type": "function"
    },
    {
      "inputs": [
        {
          "internalType": "uint256",
          "name": "poolId",
          "type": "uint256"
        }
      ],
      "name": "getExtendedRefund",
      "outputs": [
        {
          "components": [
            {
              "internalType": "contract IERC20Upgradeable",
              "name": "refundToken",
              "type": "address"
            },
            {
              "internalType": "uint256",
              "name": "totalFees",
              "type": "uint256"
            },
            {
              "internalType": "uint256",
              "name": "totalRefunded",
              "type": "uint256"
            },
            {
              "internalType": "uint256",
              "name": "totalToRefund",
              "type": "uint256"
            }
          ],
          "internalType": "struct EmergencyWithdrawalReimbursementUpgradeable.ExtendedRefund",
          "name": "",
          "type": "tuple"
        }
      ],
      "stateMutability": "view",
      "type": "function"
    },
    {
      "inputs": [
        {
          "internalType": "string",
          "name": "txHash",
          "type": "string"
        }
      ],
      "name": "getExtendedRefundByTxHash",
      "outputs": [
        {
          "components": [
            {
              "internalType": "contract IERC20Upgradeable",
              "name": "refundToken",
              "type": "address"
            },
            {
              "internalType": "uint256",
              "name": "totalFees",
              "type": "uint256"
            },
            {
              "internalType": "uint256",
              "name": "totalRefunded",
              "type": "uint256"
            },
            {
              "internalType": "uint256",
              "name": "totalToRefund",
              "type": "uint256"
            }
          ],
          "internalType": "struct EmergencyWithdrawalReimbursementUpgradeable.ExtendedRefund",
          "name": "",
          "type": "tuple"
        }
      ],
      "stateMutability": "view",
      "type": "function"
    },
    {
      "inputs": [
        {
          "internalType": "string",
          "name": "txHash",
          "type": "string"
        }
      ],
      "name": "getPoolIdByTxHash",
      "outputs": [
        {
          "internalType": "uint256",
          "name": "",
          "type": "uint256"
        }
      ],
      "stateMutability": "view",
      "type": "function"
    },
    {
      "inputs": [
        {
          "internalType": "bytes32",
          "name": "role",
          "type": "bytes32"
        }
      ],
      "name": "getRoleAdmin",
      "outputs": [
        {
          "internalType": "bytes32",
          "name": "",
          "type": "bytes32"
        }
      ],
      "stateMutability": "view",
      "type": "function"
    },
    {
      "inputs": [
        {
          "internalType": "bytes32",
          "name": "role",
          "type": "bytes32"
        },
        {
          "internalType": "address",
          "name": "account",
          "type": "address"
        }
      ],
      "name": "grantRole",
      "outputs": [],
      "stateMutability": "nonpayable",
      "type": "function"
    },
    {
      "inputs": [
        {
          "internalType": "bytes32",
          "name": "role",
          "type": "bytes32"
        },
        {
          "internalType": "address",
          "name": "account",
          "type": "address"
        }
      ],
      "name": "hasRole",
      "outputs": [
        {
          "internalType": "bool",
          "name": "",
          "type": "bool"
        }
      ],
      "stateMutability": "view",
      "type": "function"
    },
    {
      "inputs": [],
      "name": "initialize",
      "outputs": [],
      "stateMutability": "nonpayable",
      "type": "function"
    },
    {
      "inputs": [],
      "name": "pause",
      "outputs": [],
      "stateMutability": "nonpayable",
      "type": "function"
    },
    {
      "inputs": [],
      "name": "paused",
      "outputs": [
        {
          "internalType": "bool",
          "name": "",
          "type": "bool"
        }
      ],
      "stateMutability": "view",
      "type": "function"
    },
    {
      "inputs": [
        {
          "internalType": "address",
          "name": "_address",
          "type": "address"
        }
      ],
      "name": "pendingRefundsByAddress",
      "outputs": [
        {
          "components": [
            {
              "internalType": "address",
              "name": "_address",
              "type": "address"
            },
            {
              "internalType": "uint256",
              "name": "withdrawn",
              "type": "uint256"
            },
            {
              "internalType": "string",
              "name": "txHash",
              "type": "string"
            },
            {
              "internalType": "uint256",
              "name": "block",
              "type": "uint256"
            },
            {
              "internalType": "uint256",
              "name": "time",
              "type": "uint256"
            },
            {
              "internalType": "uint256",
              "name": "fee",
              "type": "uint256"
            },
            {
              "internalType": "bool",
              "name": "paid",
              "type": "bool"
            }
          ],
          "internalType": "struct EmergencyWithdrawalReimbursementUpgradeable.Refund[]",
          "name": "",
          "type": "tuple[]"
        }
      ],
      "stateMutability": "view",
      "type": "function"
    },
    {
      "inputs": [
        {
          "internalType": "address",
          "name": "_address",
          "type": "address"
        }
      ],
      "name": "refundsByAddress",
      "outputs": [
        {
          "components": [
            {
              "internalType": "address",
              "name": "_address",
              "type": "address"
            },
            {
              "internalType": "uint256",
              "name": "withdrawn",
              "type": "uint256"
            },
            {
              "internalType": "string",
              "name": "txHash",
              "type": "string"
            },
            {
              "internalType": "uint256",
              "name": "block",
              "type": "uint256"
            },
            {
              "internalType": "uint256",
              "name": "time",
              "type": "uint256"
            },
            {
              "internalType": "uint256",
              "name": "fee",
              "type": "uint256"
            },
            {
              "internalType": "bool",
              "name": "paid",
              "type": "bool"
            }
          ],
          "internalType": "struct EmergencyWithdrawalReimbursementUpgradeable.Refund[]",
          "name": "",
          "type": "tuple[]"
        }
      ],
      "stateMutability": "view",
      "type": "function"
    },
    {
      "inputs": [
        {
          "internalType": "bytes32",
          "name": "role",
          "type": "bytes32"
        },
        {
          "internalType": "address",
          "name": "account",
          "type": "address"
        }
      ],
      "name": "renounceRole",
      "outputs": [],
      "stateMutability": "nonpayable",
      "type": "function"
    },
    {
      "inputs": [],
      "name": "returnToTreasury",
      "outputs": [],
      "stateMutability": "nonpayable",
      "type": "function"
    },
    {
      "inputs": [
        {
          "internalType": "address",
          "name": "_address",
          "type": "address"
        },
        {
          "internalType": "uint256",
          "name": "index",
          "type": "uint256"
        },
        {
          "internalType": "bool",
          "name": "paid",
          "type": "bool"
        }
      ],
      "name": "reviseRefund",
      "outputs": [],
      "stateMutability": "nonpayable",
      "type": "function"
    },
    {
      "inputs": [
        {
          "internalType": "bytes32",
          "name": "role",
          "type": "bytes32"
        },
        {
          "internalType": "address",
          "name": "account",
          "type": "address"
        }
      ],
      "name": "revokeRole",
      "outputs": [],
      "stateMutability": "nonpayable",
      "type": "function"
    },
    {
      "inputs": [
        {
          "internalType": "uint256",
          "name": "poolId",
          "type": "uint256"
        },
        {
          "components": [
            {
              "internalType": "contract IERC20Upgradeable",
              "name": "refundToken",
              "type": "address"
            },
            {
              "internalType": "uint256",
              "name": "totalFees",
              "type": "uint256"
            },
            {
              "internalType": "uint256",
              "name": "totalRefunded",
              "type": "uint256"
            },
            {
              "internalType": "uint256",
              "name": "totalToRefund",
              "type": "uint256"
            }
          ],
          "internalType": "struct EmergencyWithdrawalReimbursementUpgradeable.ExtendedRefund",
          "name": "eRefund",
          "type": "tuple"
        }
      ],
      "name": "setExtendedRefund",
      "outputs": [],
      "stateMutability": "nonpayable",
      "type": "function"
    },
    {
      "inputs": [
        {
          "internalType": "bytes4",
          "name": "interfaceId",
          "type": "bytes4"
        }
      ],
      "name": "supportsInterface",
      "outputs": [
        {
          "internalType": "bool",
          "name": "",
          "type": "bool"
        }
      ],
      "stateMutability": "view",
      "type": "function"
    },
    {
      "inputs": [],
      "name": "unpause",
      "outputs": [],
      "stateMutability": "nonpayable",
      "type": "function"
    },
    {
      "inputs": [
        {
          "internalType": "uint256",
          "name": "genesisBlock",
          "type": "uint256"
        }
      ],
      "name": "updateGenesisBlock",
      "outputs": [],
      "stateMutability": "nonpayable",
      "type": "function"
    },
    {
      "inputs": [
        {
          "internalType": "string[]",
          "name": "txHashes",
          "type": "string[]"
        },
        {
          "internalType": "uint256[]",
          "name": "poolIds",
          "type": "uint256[]"
        }
      ],
      "name": "upgradeExistingRefunds",
      "outputs": [],
      "stateMutability": "nonpayable",
      "type": "function"
    },
    {
      "inputs": [
        {
          "internalType": "address",
          "name": "_address",
          "type": "address"
        }
      ],
      "name": "upgradeRefundValuesByAddress",
      "outputs": [],
      "stateMutability": "nonpayable",
      "type": "function"
    }
  ],
  "bytecode": "0x60806040523480156200001157600080fd5b50600054610100900460ff1615808015620000335750600054600160ff909116105b8062000063575062000050306200013d60201b620020a31760201c565b15801562000063575060005460ff166001145b620000cb5760405162461bcd60e51b815260206004820152602e60248201527f496e697469616c697a61626c653a20636f6e747261637420697320616c72656160448201526d191e481a5b9a5d1a585b1a5e995960921b606482015260840160405180910390fd5b6000805460ff191660011790558015620000ef576000805461ff0019166101001790555b801562000136576000805461ff0019169055604051600181527f7f26b83ff96e1f2b6a682f133852f6798a09c465da95921460cefb38474024989060200160405180910390a15b506200014c565b6001600160a01b03163b151590565b613587806200015c6000396000f3fe608060405234801561001057600080fd5b50600436106102275760003560e01c80638456cb5911610130578063a2fa08d6116100b8578063ea39e7af1161007c578063ea39e7af146104b7578063ed5b3d04146104ca578063f0767142146104df578063fd39b34b146104f2578063ff7f26271461050557600080fd5b8063a2fa08d61461046c578063ada8f5ae1461047f578063b5545a3c14610487578063d46fbab71461048f578063d547741f146104a457600080fd5b806390f4e4bc116100ff57806390f4e4bc1461042257806391d148541461043557806392ca1e8d14610448578063a0b0244914610451578063a217fddf1461046457600080fd5b80638456cb59146103df5780638d547728146103e75780638eb0c7cb146103fc5780638ff046bb1461040f57600080fd5b806336568abe116101b35780635ae6b75a116101825780635ae6b75a1461039b5780635c975abb146103ae5780636e783023146103b957806375b238fc146103c25780638129fc1c146103d757600080fd5b806336568abe14610341578063382a8c39146103545780633f4ba83a1461036757806359285c3a1461036f57600080fd5b806321937d03116101fa57806321937d0314610293578063248a9ca3146102b35780632dcd4ada146102d65780632e794008146103255780632f2ff15d1461032e57600080fd5b806301ffc9a71461022c5780630a5b907d1461025457806311856c69146102695780631aa3494514610280575b600080fd5b61023f61023a366004612991565b61050e565b60405190151581526020015b60405180910390f35b610267610262366004612b67565b610545565b005b61027260fb5481565b60405190815260200161024b565b61026761028e366004612bab565b610823565b6102a66102a1366004612c36565b61088b565b60405161024b9190612d4f565b6102726102c1366004612d62565b60009081526065602052604090206001015490565b6102e96102e4366004612d7b565b6109e0565b60405161024b919081516001600160a01b0316815260208083015190820152604080830151908201526060918201519181019190915260800190565b61027260ff5481565b61026761033c366004612daf565b610a89565b61026761034f366004612daf565b610ab3565b610267610362366004612ddf565b610b36565b610267610bd8565b61010054610383906001600160a01b031681565b6040516001600160a01b03909116815260200161024b565b6102676103a9366004612e21565b610bfb565b60c95460ff1661023f565b61027260fc5481565b61027260008051602061353283398151915281565b610267610f22565b6102676110c0565b6103ef6110e0565b60405161024b9190612e4d565b61026761040a366004612d62565b611325565b6102e961041d366004612d62565b611343565b610267610430366004612f3d565b6113c6565b61023f610443366004612daf565b6114f8565b61027260fd5481565b61026761045f366004613010565b611523565b610272600081565b61027261047a366004612d7b565b611634565b61026761165d565b6102676117ac565b61027260008051602061351283398151915281565b6102676104b2366004612daf565b611a9d565b6102676104c5366004612c36565b611ac2565b6104d2611bfa565b60405161024b91906130b5565b6102a66104ed366004612c36565b611c25565b610267610500366004612d62565b611d80565b61027260fe5481565b60006001600160e01b03198216637965db0b60e01b148061053f57506301ffc9a760e01b6001600160e01b03198316145b92915050565b60008051602061351283398151915261055d816120b2565b82516001600160a01b031660009081526101016020526040812090805b82548110156106705761065083600001828154811061059b5761059b613102565b906000526020600020906007020160020180546105b790613118565b80601f01602080910402602001604051908101604052809291908181526020018280546105e390613118565b80156106305780601f1061060557610100808354040283529160200191610630565b820191906000526020600020905b81548152906001019060200180831161061357829003601f168201915b505050505087604001518051602091820120825192909101919091201490565b1561065e5760019150610670565b8061066881613168565b91505061057a565b508061081c5761067e612949565b85516001600160a01b0390811682526020808801518184019081526040808a01519085019081526060808b0151908601526080808b01519086015260a0808b01519086015260c0808b0151151590860152865460018082018955600089815294909420865160079092020180546001600160a01b0319169190951617845590519183019190915551829190600282019061071890826131c7565b50606082015160038201556080820151600482015560a0820151600582015560c0909101516006909101805460ff1916911515919091179055805161076090610102906120bc565b50855161077090610106906120d8565b61078457855161077f90611ac2565b6107dd565b60a086015160008681526101056020526040812060010180549091906107ab908490613286565b909155505060a086015160008681526101056020526040812060030180549091906107d7908490613286565b90915550505b8461010487604001516040516107f39190613299565b90815260405190819003602001902055606081015160fc54101561081a57606081015160fc555b505b5050505050565b60008051602061353283398151915261083b816120b2565b5080516000928352610105602090815260409384902080546001600160a01b0319166001600160a01b03909316929092178255820151600182015591810151600283015560600151600390910155565b6060600061089883611c25565b90506000805b82518110156108f0578281815181106108b9576108b9613102565b602002602001015160c00151151560001515036108de57816108da81613168565b9250505b806108e881613168565b91505061089e565b506000816001600160401b0381111561090b5761090b6129bb565b60405190808252806020026020018201604052801561094457816020015b610931612949565b8152602001906001900390816109295790505b5090506000805b84518110156109d55784818151811061096657610966613102565b602002602001015160c00151151560001515036109c35784818151811061098f5761098f613102565b60200260200101518383815181106109a9576109a9613102565b602002602001018190525081806109bf90613168565b9250505b806109cd81613168565b91505061094b565b509095945050505050565b610a14604051806080016040528060006001600160a01b031681526020016000815260200160008152602001600081525090565b610105600061010484604051610a2a9190613299565b908152604080516020928190038301902054835282820193909352908201600020825160808101845281546001600160a01b03168152600182015492810192909252600281015492820192909252600390910154606082015292915050565b600082815260656020526040902060010154610aa4816120b2565b610aae83836120fa565b505050565b6001600160a01b0381163314610b285760405162461bcd60e51b815260206004820152602f60248201527f416363657373436f6e74726f6c3a2063616e206f6e6c792072656e6f756e636560448201526e103937b632b9903337b91039b2b63360891b60648201526084015b60405180910390fd5b610b328282612180565b5050565b600260975403610b585760405162461bcd60e51b8152600401610b1f906132b5565b6002609755610b656121e7565b600080516020613532833981519152610b7d816120b2565b6001600160a01b038416600090815261010160205260409020805483919085908110610bab57610bab613102565b60009182526020909120600790910201600601805460ff1916911515919091179055505060016097555050565b600080516020613532833981519152610bf0816120b2565b610bf861222f565b50565b600260975403610c1d5760405162461bcd60e51b8152600401610b1f906132b5565b6002609755610c2a6121e7565b600080516020613532833981519152610c42816120b2565b6000610c4d8461088b565b5111610c9b5760405162461bcd60e51b815260206004820152601b60248201527f4e6f2070656e64696e6720726566756e647320666f72207573657200000000006044820152606401610b1f565b6001600160a01b0383166000908152610101602052604090208054819084908110610cc857610cc8613102565b600091825260209091206006600790920201015460ff16610f17576000610104826000018581548110610cfd57610cfd613102565b9060005260206000209060070201600201604051610d1b91906132ec565b908152604080516020928190038301812054600081815261010590945291832080546370a0823160e01b835230600484015292945092916001600160a01b0316906370a0823190602401602060405180830381865afa158015610d82573d6000803e3d6000fd5b505050506040513d601f19601f82011682018060405250810190610da69190613362565b9050836000018681548110610dbd57610dbd613102565b9060005260206000209060070201600501548111610ded5760405162461bcd60e51b8152600401610b1f9061337b565b6001846000018781548110610e0457610e04613102565b60009182526020909120600790910201600601805460ff19169115159190911790558354849087908110610e3a57610e3a613102565b906000526020600020906007020160050154826002016000828254610e5f9190613286565b90915550508354849087908110610e7857610e78613102565b906000526020600020906007020160050154826003015410610ed457836000018681548110610ea957610ea9613102565b906000526020600020906007020160050154826003016000828254610ece91906133d8565b90915550505b610f1387856000018881548110610eed57610eed613102565b600091825260209091206005600790920201015484546001600160a01b03169190612281565b5050505b505060016097555050565b600054610100900460ff1615808015610f425750600054600160ff909116105b80610f5c5750303b158015610f5c575060005460ff166001145b610fbf5760405162461bcd60e51b815260206004820152602e60248201527f496e697469616c697a61626c653a20636f6e747261637420697320616c72656160448201526d191e481a5b9a5d1a585b1a5e995960921b6064820152608401610b1f565b6000805460ff191660011790558015610fe2576000805461ff0019166101001790555b610fea6122d3565b610ff26122fa565b610ffa612329565b6110056000336120fa565b61101d600080516020613532833981519152336120fa565b611035600080516020613512833981519152336120fa565b630184cf5160fb81905560fc5561010080546001600160a01b03191673d6e76742962379e234e9fd4e73768cef779f38b5179055600060fd81905560fe81905560ff558015610bf8576000805461ff0019169055604051600181527f7f26b83ff96e1f2b6a682f133852f6798a09c465da95921460cefb38474024989060200160405180910390a150565b6000805160206135328339815191526110d8816120b2565b610bf8612358565b60606000805160206135328339815191526110fa816120b2565b60606000611106611bfa565b905060005b815181101561131c5760005b610101600084848151811061112e5761112e613102565b6020908102919091018101516001600160a01b031682528101919091526040016000205481101561130957610101600084848151811061117057611170613102565b60200260200101516001600160a01b03166001600160a01b0316815260200190815260200160002060000181815481106111ac576111ac613102565b90600052602060002090600702016040518060e00160405290816000820160009054906101000a90046001600160a01b03166001600160a01b03166001600160a01b031681526020016001820154815260200160028201805461120e90613118565b80601f016020809104026020016040519081016040528092919081815260200182805461123a90613118565b80156112875780601f1061125c57610100808354040283529160200191611287565b820191906000526020600020905b81548152906001019060200180831161126a57829003601f168201915b505050918352505060038201546020820152600482015460408201526005820154606082015260069091015460ff16151560809091015284518590849081106112d2576112d2613102565b602002602001015182815181106112eb576112eb613102565b6020026020010181905250808061130190613168565b915050611117565b508061131481613168565b91505061110b565b50909250505090565b60008051602061353283398151915261133d816120b2565b5060fb55565b611377604051806080016040528060006001600160a01b031681526020016000815260200160008152602001600081525090565b5060009081526101056020908152604091829020825160808101845281546001600160a01b03168152600182015492810192909252600281015492820192909252600390910154606082015290565b6000805160206135328339815191526113de816120b2565b81518351146114415760405162461bcd60e51b815260206004820152602960248201527f7478486173686573206c656e677468206d757374206d6174636820706f6f6c496044820152680c8e640d8cadccee8d60bb1b6064820152608401610b1f565b60008351116114805760405162461bcd60e51b815260206004820152600b60248201526a115b5c1d1e481a5b9c1d5d60aa1b6044820152606401610b1f565b60005b83518110156114f25782818151811061149e5761149e613102565b60200260200101516101048583815181106114bb576114bb613102565b60200260200101516040516114d09190613299565b90815260405190819003602001902055806114ea81613168565b915050611483565b50505050565b60009182526065602090815260408084206001600160a01b0393909316845291905290205460ff1690565b60008051602061351283398151915261153b816120b2565b815183511461159b5760405162461bcd60e51b815260206004820152602660248201527f526566756e64206c656e677468206d757374206d6174636820706f6f6c4964206044820152650d8cadccee8d60d31b6064820152608401610b1f565b60008351116115da5760405162461bcd60e51b815260206004820152600b60248201526a115b5c1d1e481a5b9c1d5d60aa1b6044820152606401610b1f565b60005b83518110156114f2576116228482815181106115fb576115fb613102565b602002602001015184838151811061161557611615613102565b6020026020010151610545565b8061162c81613168565b9150506115dd565b6000610104826040516116479190613299565b9081526020016040518091039020549050919050565b600080516020613532833981519152611675816120b2565b6040516370a0823160e01b815230600482015273e8d94e683338ba3fa3b36c4ff2401bc5772db67f9073eb76ef5d121f31c2cb59e50a4fa5475042c84e349073d6e76742962379e234e9fd4e73768cef779f38b59061172d90849084906370a0823190602401602060405180830381865afa1580156116f8573d6000803e3d6000fd5b505050506040513d601f19601f8201168201806040525081019061171c9190613362565b6001600160a01b0385169190612281565b6040516370a0823160e01b81523060048201526114f29084906001600160a01b038416906370a0823190602401602060405180830381865afa158015611777573d6000803e3d6000fd5b505050506040513d601f19601f8201168201806040525081019061179b9190613362565b6001600160a01b0384169190612281565b6002609754036117ce5760405162461bcd60e51b8152600401610b1f906132b5565b60026097556117db6121e7565b60006117e63361088b565b51116118295760405162461bcd60e51b81526020600482015260126024820152714e6f2070656e64696e6720726566756e647360701b6044820152606401610b1f565b33600090815261010160205260408120905b8154811015611a945781600001818154811061185957611859613102565b600091825260209091206006600790920201015460ff16611a8257600061010483600001838154811061188e5761188e613102565b90600052602060002090600702016002016040516118ac91906132ec565b908152604080516020928190038301812054600081815261010590945291832080546370a0823160e01b835230600484015292945092916001600160a01b0316906370a0823190602401602060405180830381865afa158015611913573d6000803e3d6000fd5b505050506040513d601f19601f820116820180604052508101906119379190613362565b905084600001848154811061194e5761194e613102565b906000526020600020906007020160050154811161197e5760405162461bcd60e51b8152600401610b1f9061337b565b600185600001858154811061199557611995613102565b60009182526020909120600790910201600601805460ff191691151591909117905584548590859081106119cb576119cb613102565b9060005260206000209060070201600501548260020160008282546119f09190613286565b90915550508454859085908110611a0957611a09613102565b906000526020600020906007020160050154826003015410611a6557846000018481548110611a3a57611a3a613102565b906000526020600020906007020160050154826003016000828254611a5f91906133d8565b90915550505b611a7e33866000018681548110610eed57610eed613102565b5050505b80611a8c81613168565b91505061183b565b50506001609755565b600082815260656020526040902060010154611ab8816120b2565b610aae8383612180565b600080516020613532833981519152611ada816120b2565b611ae6610106836120d8565b610b32576000611af583611c25565b905060005b8151811015611bed576000610104838381518110611b1a57611b1a613102565b602002602001015160400151604051611b339190613299565b9081526020016040518091039020549050828281518110611b5657611b56613102565b602002602001015160a0015161010560008381526020019081526020016000206001016000828254611b889190613286565b92505081905550828281518110611ba157611ba1613102565b602002602001015160a0015161010560008381526020019081526020016000206003016000828254611bd39190613286565b90915550829150611be5905081613168565b915050611afa565b506114f2610106846120bc565b6060600080516020613532833981519152611c14816120b2565b611c1f610102612395565b91505090565b6001600160a01b038116600090815261010160209081526040808320805482518185028101850190935280835260609492939192909184015b82821015611d755760008481526020908190206040805160e0810182526007860290920180546001600160a01b0316835260018101549383019390935260028301805492939291840191611cb190613118565b80601f0160208091040260200160405190810160405280929190818152602001828054611cdd90613118565b8015611d2a5780601f10611cff57610100808354040283529160200191611d2a565b820191906000526020600020905b815481529060010190602001808311611d0d57829003601f168201915b50505091835250506003820154602080830191909152600483015460408301526005830154606083015260069092015460ff1615156080909101529082526001929092019101611c5e565b505050509050919050565b600260975403611da25760405162461bcd60e51b8152600401610b1f906132b5565b6002609755611daf6121e7565b336000908152610101602052604081208054909190829084908110611dd657611dd6613102565b90600052602060002090600702016004015411611e255760405162461bcd60e51b815260206004820152600d60248201526c092dcecc2d8d2c840d2dcc8caf609b1b6044820152606401610b1f565b806000018281548110611e3a57611e3a613102565b600091825260209091206006600790920201015460ff1615611e8d5760405162461bcd60e51b815260206004820152600c60248201526b105b1c9958591e481c185a5960a21b6044820152606401610b1f565b6000610104826000018481548110611ea757611ea7613102565b9060005260206000209060070201600201604051611ec591906132ec565b908152604080516020928190038301812054600081815261010590945291832080546370a0823160e01b835230600484015292945092916001600160a01b0316906370a0823190602401602060405180830381865afa158015611f2c573d6000803e3d6000fd5b505050506040513d601f19601f82011682018060405250810190611f509190613362565b9050836000018581548110611f6757611f67613102565b9060005260206000209060070201600501548111611f975760405162461bcd60e51b8152600401610b1f9061337b565b6001846000018681548110611fae57611fae613102565b60009182526020909120600790910201600601805460ff19169115159190911790558354849086908110611fe457611fe4613102565b9060005260206000209060070201600501548260020160008282546120099190613286565b9091555050835484908690811061202257612022613102565b90600052602060002090600702016005015482600301541061207e5783600001858154811061205357612053613102565b90600052602060002090600702016005015482600301600082825461207891906133d8565b90915550505b61209733856000018781548110610eed57610eed613102565b50506001609755505050565b6001600160a01b03163b151590565b610bf881336123a2565b60006120d1836001600160a01b038416612406565b9392505050565b6001600160a01b038116600090815260018301602052604081205415156120d1565b61210482826114f8565b610b325760008281526065602090815260408083206001600160a01b03851684529091529020805460ff1916600117905561213c3390565b6001600160a01b0316816001600160a01b0316837f2f8788117e7eff1d82e926ec794901d17c78024a50270940304540a733656f0d60405160405180910390a45050565b61218a82826114f8565b15610b325760008281526065602090815260408083206001600160a01b0385168085529252808320805460ff1916905551339285917ff6391f5c32d9c69d2a47ea670b442974b53935d1edc7fd64eb21e047a839171b9190a45050565b60c95460ff161561222d5760405162461bcd60e51b815260206004820152601060248201526f14185d5cd8589b194e881c185d5cd95960821b6044820152606401610b1f565b565b612237612455565b60c9805460ff191690557f5db9ee0a495bf2e6ff9c91a7834c1ba4fdd244a5e8aa4e537bd38aeae4b073aa335b6040516001600160a01b03909116815260200160405180910390a1565b604080516001600160a01b038416602482015260448082018490528251808303909101815260649091019091526020810180516001600160e01b031663a9059cbb60e01b179052610aae90849061249e565b600054610100900460ff1661222d5760405162461bcd60e51b8152600401610b1f906133eb565b600054610100900460ff166123215760405162461bcd60e51b8152600401610b1f906133eb565b61222d612570565b600054610100900460ff166123505760405162461bcd60e51b8152600401610b1f906133eb565b61222d61259e565b6123606121e7565b60c9805460ff191660011790557f62e78cea01bee320cd4e420270b5ea74000d11b0c9f74754ebdbfc544b05a2586122643390565b606060006120d1836125d1565b6123ac82826114f8565b610b32576123c4816001600160a01b0316601461262d565b6123cf83602061262d565b6040516020016123e0929190613436565b60408051601f198184030181529082905262461bcd60e51b8252610b1f916004016134ab565b600081815260018301602052604081205461244d5750815460018181018455600084815260208082209093018490558454848252828601909352604090209190915561053f565b50600061053f565b60c95460ff1661222d5760405162461bcd60e51b815260206004820152601460248201527314185d5cd8589b194e881b9bdd081c185d5cd95960621b6044820152606401610b1f565b60006124f3826040518060400160405280602081526020017f5361666545524332303a206c6f772d6c6576656c2063616c6c206661696c6564815250856001600160a01b03166127c89092919063ffffffff16565b805190915015610aae578080602001905181019061251191906134be565b610aae5760405162461bcd60e51b815260206004820152602a60248201527f5361666545524332303a204552433230206f7065726174696f6e20646964206e6044820152691bdd081cdd58d8d9595960b21b6064820152608401610b1f565b600054610100900460ff166125975760405162461bcd60e51b8152600401610b1f906133eb565b6001609755565b600054610100900460ff166125c55760405162461bcd60e51b8152600401610b1f906133eb565b60c9805460ff19169055565b60608160000180548060200260200160405190810160405280929190818152602001828054801561262157602002820191906000526020600020905b81548152602001906001019080831161260d575b50505050509050919050565b6060600061263c8360026134db565b612647906002613286565b6001600160401b0381111561265e5761265e6129bb565b6040519080825280601f01601f191660200182016040528015612688576020820181803683370190505b509050600360fc1b816000815181106126a3576126a3613102565b60200101906001600160f81b031916908160001a905350600f60fb1b816001815181106126d2576126d2613102565b60200101906001600160f81b031916908160001a90535060006126f68460026134db565b612701906001613286565b90505b6001811115612779576f181899199a1a9b1b9c1cb0b131b232b360811b85600f166010811061273557612735613102565b1a60f81b82828151811061274b5761274b613102565b60200101906001600160f81b031916908160001a90535060049490941c93612772816134fa565b9050612704565b5083156120d15760405162461bcd60e51b815260206004820181905260248201527f537472696e67733a20686578206c656e67746820696e73756666696369656e746044820152606401610b1f565b60606127d784846000856127df565b949350505050565b6060824710156128405760405162461bcd60e51b815260206004820152602660248201527f416464726573733a20696e73756666696369656e742062616c616e636520666f6044820152651c8818d85b1b60d21b6064820152608401610b1f565b6001600160a01b0385163b6128975760405162461bcd60e51b815260206004820152601d60248201527f416464726573733a2063616c6c20746f206e6f6e2d636f6e74726163740000006044820152606401610b1f565b600080866001600160a01b031685876040516128b39190613299565b60006040518083038185875af1925050503d80600081146128f0576040519150601f19603f3d011682016040523d82523d6000602084013e6128f5565b606091505b5091509150612905828286612910565b979650505050505050565b6060831561291f5750816120d1565b82511561292f5782518084602001fd5b8160405162461bcd60e51b8152600401610b1f91906134ab565b6040518060e0016040528060006001600160a01b0316815260200160008152602001606081526020016000815260200160008152602001600081526020016000151581525090565b6000602082840312156129a357600080fd5b81356001600160e01b0319811681146120d157600080fd5b634e487b7160e01b600052604160045260246000fd5b60405160e081016001600160401b03811182821017156129f3576129f36129bb565b60405290565b604051601f8201601f191681016001600160401b0381118282101715612a2157612a216129bb565b604052919050565b6001600160a01b0381168114610bf857600080fd5b8035612a4981612a29565b919050565b600082601f830112612a5f57600080fd5b81356001600160401b03811115612a7857612a786129bb565b612a8b601f8201601f19166020016129f9565b818152846020838601011115612aa057600080fd5b816020850160208301376000918101602001919091529392505050565b8015158114610bf857600080fd5b8035612a4981612abd565b600060e08284031215612ae857600080fd5b612af06129d1565b9050612afb82612a3e565b81526020820135602082015260408201356001600160401b03811115612b2057600080fd5b612b2c84828501612a4e565b604083015250606082013560608201526080820135608082015260a082013560a0820152612b5c60c08301612acb565b60c082015292915050565b60008060408385031215612b7a57600080fd5b82356001600160401b03811115612b9057600080fd5b612b9c85828601612ad6565b95602094909401359450505050565b60008082840360a0811215612bbf57600080fd5b833592506080601f1982011215612bd557600080fd5b50604051608081018181106001600160401b0382111715612bf857612bf86129bb565b6040526020840135612c0981612a29565b80825250604084013560208201526060840135604082015260808401356060820152809150509250929050565b600060208284031215612c4857600080fd5b81356120d181612a29565b60005b83811015612c6e578181015183820152602001612c56565b50506000910152565b60008151808452612c8f816020860160208601612c53565b601f01601f19169290920160200192915050565b600081518084526020808501808196508360051b8101915082860160005b85811015612d42578284038952815180516001600160a01b03168552858101518686015260408082015160e08288018190529190612d0183890182612c77565b606085810151908a0152608080860151908a015260a080860151908a015260c094850151151594909801939093525050509784019790840190600101612cc1565b5091979650505050505050565b6020815260006120d16020830184612ca3565b600060208284031215612d7457600080fd5b5035919050565b600060208284031215612d8d57600080fd5b81356001600160401b03811115612da357600080fd5b6127d784828501612a4e565b60008060408385031215612dc257600080fd5b823591506020830135612dd481612a29565b809150509250929050565b600080600060608486031215612df457600080fd5b8335612dff81612a29565b9250602084013591506040840135612e1681612abd565b809150509250925092565b60008060408385031215612e3457600080fd5b8235612e3f81612a29565b946020939093013593505050565b6000602080830181845280855180835260408601915060408160051b870101925083870160005b82811015612ea257603f19888603018452612e90858351612ca3565b94509285019290850190600101612e74565b5092979650505050505050565b60006001600160401b03821115612ec857612ec86129bb565b5060051b60200190565b600082601f830112612ee357600080fd5b81356020612ef8612ef383612eaf565b6129f9565b82815260059290921b84018101918181019086841115612f1757600080fd5b8286015b84811015612f325780358352918301918301612f1b565b509695505050505050565b60008060408385031215612f5057600080fd5b82356001600160401b0380821115612f6757600080fd5b818501915085601f830112612f7b57600080fd5b81356020612f8b612ef383612eaf565b82815260059290921b84018101918181019089841115612faa57600080fd5b8286015b84811015612fe257803586811115612fc65760008081fd5b612fd48c86838b0101612a4e565b845250918301918301612fae565b5096505086013592505080821115612ff957600080fd5b5061300685828601612ed2565b9150509250929050565b6000806040838503121561302357600080fd5b82356001600160401b038082111561303a57600080fd5b818501915085601f83011261304e57600080fd5b8135602061305e612ef383612eaf565b82815260059290921b8401810191818101908984111561307d57600080fd5b8286015b84811015612fe2578035868111156130995760008081fd5b6130a78c86838b0101612ad6565b845250918301918301613081565b6020808252825182820181905260009190848201906040850190845b818110156130f65783516001600160a01b0316835292840192918401916001016130d1565b50909695505050505050565b634e487b7160e01b600052603260045260246000fd5b600181811c9082168061312c57607f821691505b60208210810361314c57634e487b7160e01b600052602260045260246000fd5b50919050565b634e487b7160e01b600052601160045260246000fd5b60006001820161317a5761317a613152565b5060010190565b601f821115610aae57600081815260208120601f850160051c810160208610156131a85750805b601f850160051c820191505b8181101561081a578281556001016131b4565b81516001600160401b038111156131e0576131e06129bb565b6131f4816131ee8454613118565b84613181565b602080601f83116001811461322957600084156132115750858301515b600019600386901b1c1916600185901b17855561081a565b600085815260208120601f198616915b8281101561325857888601518255948401946001909101908401613239565b50858210156132765787850151600019600388901b60f8161c191681555b5050505050600190811b01905550565b8082018082111561053f5761053f613152565b600082516132ab818460208701612c53565b9190910192915050565b6020808252601f908201527f5265656e7472616e637947756172643a207265656e7472616e742063616c6c00604082015260600190565b60008083546132fa81613118565b60018281168015613312576001811461332757613356565b60ff1984168752821515830287019450613356565b8760005260208060002060005b8581101561334d5781548a820152908401908201613334565b50505082870194505b50929695505050505050565b60006020828403121561337457600080fd5b5051919050565b6020808252603a908201527f496e73756666696369656e7420636f6e74726163742062616c616e636520746f60408201527f20726566756e642e204e6f7469667920696e20646973636f7264000000000000606082015260800190565b8181038181111561053f5761053f613152565b6020808252602b908201527f496e697469616c697a61626c653a20636f6e7472616374206973206e6f74206960408201526a6e697469616c697a696e6760a81b606082015260800190565b7f416363657373436f6e74726f6c3a206163636f756e742000000000000000000081526000835161346e816017850160208801612c53565b7001034b99036b4b9b9b4b733903937b6329607d1b601791840191820152835161349f816028840160208801612c53565b01602801949350505050565b6020815260006120d16020830184612c77565b6000602082840312156134d057600080fd5b81516120d181612abd565b60008160001904831182151516156134f5576134f5613152565b500290565b60008161350957613509613152565b50600019019056fefa1e1e55aab7c0e3c46cc6e18746f0998e83fcd9df45896dbb1db42e5637efa8a49807205ce4d355092ef5a8a18f56e8913cf4a201fbe287825b095693c21775a2646970667358221220509a1235665782bdfffdc24ceb30847d741d74591bf43a0bcd82e2b05850180d64736f6c63430008100033",
  "linkReferences": {},
  "deployedLinkReferences": {}
}