{
  "_format": "hh-sol-artifact-1",
  "contractName": "EmergencyWithdrawalReimbursementUpgradeable",
  "sourceName": "contracts/npc/EmergencyWithdrawalReimbursementUpgradeable.sol",
  "abi": [
    {
      "inputs": [],
      "stateMutability": "nonpayable",
      "type": "constructor"
    },
    {
      "anonymous": false,
      "inputs": [
        {
          "indexed": false,
          "internalType": "uint8",
          "name": "version",
          "type": "uint8"
        }
      ],
      "name": "Initialized",
      "type": "event"
    },
    {
      "anonymous": false,
      "inputs": [
        {
          "indexed": false,
          "internalType": "address",
          "name": "account",
          "type": "address"
        }
      ],
      "name": "Paused",
      "type": "event"
    },
    {
      "anonymous": false,
      "inputs": [
        {
          "indexed": true,
          "internalType": "bytes32",
          "name": "role",
          "type": "bytes32"
        },
        {
          "indexed": true,
          "internalType": "bytes32",
          "name": "previousAdminRole",
          "type": "bytes32"
        },
        {
          "indexed": true,
          "internalType": "bytes32",
          "name": "newAdminRole",
          "type": "bytes32"
        }
      ],
      "name": "RoleAdminChanged",
      "type": "event"
    },
    {
      "anonymous": false,
      "inputs": [
        {
          "indexed": true,
          "internalType": "bytes32",
          "name": "role",
          "type": "bytes32"
        },
        {
          "indexed": true,
          "internalType": "address",
          "name": "account",
          "type": "address"
        },
        {
          "indexed": true,
          "internalType": "address",
          "name": "sender",
          "type": "address"
        }
      ],
      "name": "RoleGranted",
      "type": "event"
    },
    {
      "anonymous": false,
      "inputs": [
        {
          "indexed": true,
          "internalType": "bytes32",
          "name": "role",
          "type": "bytes32"
        },
        {
          "indexed": true,
          "internalType": "address",
          "name": "account",
          "type": "address"
        },
        {
          "indexed": true,
          "internalType": "address",
          "name": "sender",
          "type": "address"
        }
      ],
      "name": "RoleRevoked",
      "type": "event"
    },
    {
      "anonymous": false,
      "inputs": [
        {
          "indexed": false,
          "internalType": "address",
          "name": "account",
          "type": "address"
        }
      ],
      "name": "Unpaused",
      "type": "event"
    },
    {
      "inputs": [],
      "name": "ADMIN_ROLE",
      "outputs": [
        {
          "internalType": "bytes32",
          "name": "",
          "type": "bytes32"
        }
      ],
      "stateMutability": "view",
      "type": "function"
    },
    {
      "inputs": [],
      "name": "DEFAULT_ADMIN_ROLE",
      "outputs": [
        {
          "internalType": "bytes32",
          "name": "",
          "type": "bytes32"
        }
      ],
      "stateMutability": "view",
      "type": "function"
    },
    {
      "inputs": [],
      "name": "GENESIS_REFUND_FROM_BLOCK",
      "outputs": [
        {
          "internalType": "uint256",
          "name": "",
          "type": "uint256"
        }
      ],
      "stateMutability": "view",
      "type": "function"
    },
    {
      "inputs": [],
      "name": "LAST_SNAPSHOT_BLOCK",
      "outputs": [
        {
          "internalType": "uint256",
          "name": "",
          "type": "uint256"
        }
      ],
      "stateMutability": "view",
      "type": "function"
    },
    {
      "inputs": [],
      "name": "REFUND_TOKEN",
      "outputs": [
        {
          "internalType": "contract IERC20Upgradeable",
          "name": "",
          "type": "address"
        }
      ],
      "stateMutability": "view",
      "type": "function"
    },
    {
      "inputs": [],
      "name": "SCRIBE_ROLE",
      "outputs": [
        {
          "internalType": "bytes32",
          "name": "",
          "type": "bytes32"
        }
      ],
      "stateMutability": "view",
      "type": "function"
    },
    {
      "inputs": [],
      "name": "TOTAL_FEES",
      "outputs": [
        {
          "internalType": "uint256",
          "name": "",
          "type": "uint256"
        }
      ],
      "stateMutability": "view",
      "type": "function"
    },
    {
      "inputs": [],
      "name": "TOTAL_REFUNDED",
      "outputs": [
        {
          "internalType": "uint256",
          "name": "",
          "type": "uint256"
        }
      ],
      "stateMutability": "view",
      "type": "function"
    },
    {
      "inputs": [],
      "name": "TOTAL_TO_REFUND",
      "outputs": [
        {
          "internalType": "uint256",
          "name": "",
          "type": "uint256"
        }
      ],
      "stateMutability": "view",
      "type": "function"
    },
    {
      "inputs": [
        {
          "components": [
            {
              "internalType": "address",
              "name": "_address",
              "type": "address"
            },
            {
              "internalType": "uint256",
              "name": "withdrawn",
              "type": "uint256"
            },
            {
              "internalType": "string",
              "name": "txHash",
              "type": "string"
            },
            {
              "internalType": "uint256",
              "name": "block",
              "type": "uint256"
            },
            {
              "internalType": "uint256",
              "name": "time",
              "type": "uint256"
            },
            {
              "internalType": "uint256",
              "name": "fee",
              "type": "uint256"
            },
            {
              "internalType": "bool",
              "name": "paid",
              "type": "bool"
            }
          ],
          "internalType": "struct EmergencyWithdrawalReimbursementUpgradeable.Refund",
          "name": "_refund",
          "type": "tuple"
        },
        {
          "internalType": "uint256",
          "name": "poolId",
          "type": "uint256"
        }
      ],
      "name": "addRefund",
      "outputs": [],
      "stateMutability": "nonpayable",
      "type": "function"
    },
    {
      "inputs": [],
      "name": "allAffectedAddresses",
      "outputs": [
        {
          "internalType": "address[]",
          "name": "",
          "type": "address[]"
        }
      ],
      "stateMutability": "view",
      "type": "function"
    },
    {
      "inputs": [],
      "name": "allRefunds",
      "outputs": [
        {
          "components": [
            {
              "internalType": "address",
              "name": "_address",
              "type": "address"
            },
            {
              "internalType": "uint256",
              "name": "withdrawn",
              "type": "uint256"
            },
            {
              "internalType": "string",
              "name": "txHash",
              "type": "string"
            },
            {
              "internalType": "uint256",
              "name": "block",
              "type": "uint256"
            },
            {
              "internalType": "uint256",
              "name": "time",
              "type": "uint256"
            },
            {
              "internalType": "uint256",
              "name": "fee",
              "type": "uint256"
            },
            {
              "internalType": "bool",
              "name": "paid",
              "type": "bool"
            }
          ],
          "internalType": "struct EmergencyWithdrawalReimbursementUpgradeable.Refund[][]",
          "name": "",
          "type": "tuple[][]"
        }
      ],
      "stateMutability": "view",
      "type": "function"
    },
    {
      "inputs": [
        {
          "components": [
            {
              "internalType": "address",
              "name": "_address",
              "type": "address"
            },
            {
              "internalType": "uint256",
              "name": "withdrawn",
              "type": "uint256"
            },
            {
              "internalType": "string",
              "name": "txHash",
              "type": "string"
            },
            {
              "internalType": "uint256",
              "name": "block",
              "type": "uint256"
            },
            {
              "internalType": "uint256",
              "name": "time",
              "type": "uint256"
            },
            {
              "internalType": "uint256",
              "name": "fee",
              "type": "uint256"
            },
            {
              "internalType": "bool",
              "name": "paid",
              "type": "bool"
            }
          ],
          "internalType": "struct EmergencyWithdrawalReimbursementUpgradeable.Refund[]",
          "name": "_refunds",
          "type": "tuple[]"
        },
        {
          "internalType": "uint256[]",
          "name": "poolIds",
          "type": "uint256[]"
        }
      ],
      "name": "batchAddRefunds",
      "outputs": [],
      "stateMutability": "nonpayable",
      "type": "function"
    },
    {
      "inputs": [
        {
          "internalType": "address",
          "name": "_address",
          "type": "address"
        },
        {
          "internalType": "uint256",
          "name": "index",
          "type": "uint256"
        }
      ],
      "name": "claimForAddressByIndex",
      "outputs": [],
      "stateMutability": "nonpayable",
      "type": "function"
    },
    {
      "inputs": [],
      "name": "claimRefund",
      "outputs": [],
      "stateMutability": "nonpayable",
      "type": "function"
    },
    {
      "inputs": [
        {
          "internalType": "uint256",
          "name": "index",
          "type": "uint256"
        }
      ],
      "name": "claimRefundByIndex",
      "outputs": [],
      "stateMutability": "nonpayable",
      "type": "function"
    },
    {
      "inputs": [
        {
          "internalType": "uint256",
          "name": "poolId",
          "type": "uint256"
        }
      ],
      "name": "getExtendedRefund",
      "outputs": [
        {
          "components": [
            {
              "internalType": "contract IERC20Upgradeable",
              "name": "refundToken",
              "type": "address"
            },
            {
              "internalType": "uint256",
              "name": "totalFees",
              "type": "uint256"
            },
            {
              "internalType": "uint256",
              "name": "totalRefunded",
              "type": "uint256"
            },
            {
              "internalType": "uint256",
              "name": "totalToRefund",
              "type": "uint256"
            }
          ],
          "internalType": "struct EmergencyWithdrawalReimbursementUpgradeable.ExtendedRefund",
          "name": "",
          "type": "tuple"
        }
      ],
      "stateMutability": "view",
      "type": "function"
    },
    {
      "inputs": [
        {
          "internalType": "string",
          "name": "txHash",
          "type": "string"
        }
      ],
      "name": "getExtendedRefundByTxHash",
      "outputs": [
        {
          "components": [
            {
              "internalType": "contract IERC20Upgradeable",
              "name": "refundToken",
              "type": "address"
            },
            {
              "internalType": "uint256",
              "name": "totalFees",
              "type": "uint256"
            },
            {
              "internalType": "uint256",
              "name": "totalRefunded",
              "type": "uint256"
            },
            {
              "internalType": "uint256",
              "name": "totalToRefund",
              "type": "uint256"
            }
          ],
          "internalType": "struct EmergencyWithdrawalReimbursementUpgradeable.ExtendedRefund",
          "name": "",
          "type": "tuple"
        }
      ],
      "stateMutability": "view",
      "type": "function"
    },
    {
      "inputs": [
        {
          "internalType": "string",
          "name": "txHash",
          "type": "string"
        }
      ],
      "name": "getPoolIdByTxHash",
      "outputs": [
        {
          "internalType": "uint256",
          "name": "",
          "type": "uint256"
        }
      ],
      "stateMutability": "view",
      "type": "function"
    },
    {
      "inputs": [
        {
          "internalType": "bytes32",
          "name": "role",
          "type": "bytes32"
        }
      ],
      "name": "getRoleAdmin",
      "outputs": [
        {
          "internalType": "bytes32",
          "name": "",
          "type": "bytes32"
        }
      ],
      "stateMutability": "view",
      "type": "function"
    },
    {
      "inputs": [
        {
          "internalType": "bytes32",
          "name": "role",
          "type": "bytes32"
        },
        {
          "internalType": "address",
          "name": "account",
          "type": "address"
        }
      ],
      "name": "grantRole",
      "outputs": [],
      "stateMutability": "nonpayable",
      "type": "function"
    },
    {
      "inputs": [
        {
          "internalType": "bytes32",
          "name": "role",
          "type": "bytes32"
        },
        {
          "internalType": "address",
          "name": "account",
          "type": "address"
        }
      ],
      "name": "hasRole",
      "outputs": [
        {
          "internalType": "bool",
          "name": "",
          "type": "bool"
        }
      ],
      "stateMutability": "view",
      "type": "function"
    },
    {
      "inputs": [],
      "name": "initialize",
      "outputs": [],
      "stateMutability": "nonpayable",
      "type": "function"
    },
    {
      "inputs": [],
      "name": "pause",
      "outputs": [],
      "stateMutability": "nonpayable",
      "type": "function"
    },
    {
      "inputs": [],
      "name": "paused",
      "outputs": [
        {
          "internalType": "bool",
          "name": "",
          "type": "bool"
        }
      ],
      "stateMutability": "view",
      "type": "function"
    },
    {
      "inputs": [
        {
          "internalType": "address",
          "name": "_address",
          "type": "address"
        }
      ],
      "name": "pendingRefundsByAddress",
      "outputs": [
        {
          "components": [
            {
              "internalType": "address",
              "name": "_address",
              "type": "address"
            },
            {
              "internalType": "uint256",
              "name": "withdrawn",
              "type": "uint256"
            },
            {
              "internalType": "string",
              "name": "txHash",
              "type": "string"
            },
            {
              "internalType": "uint256",
              "name": "block",
              "type": "uint256"
            },
            {
              "internalType": "uint256",
              "name": "time",
              "type": "uint256"
            },
            {
              "internalType": "uint256",
              "name": "fee",
              "type": "uint256"
            },
            {
              "internalType": "bool",
              "name": "paid",
              "type": "bool"
            }
          ],
          "internalType": "struct EmergencyWithdrawalReimbursementUpgradeable.Refund[]",
          "name": "",
          "type": "tuple[]"
        }
      ],
      "stateMutability": "view",
      "type": "function"
    },
    {
      "inputs": [
        {
          "internalType": "address",
          "name": "_address",
          "type": "address"
        }
      ],
      "name": "refundsByAddress",
      "outputs": [
        {
          "components": [
            {
              "internalType": "address",
              "name": "_address",
              "type": "address"
            },
            {
              "internalType": "uint256",
              "name": "withdrawn",
              "type": "uint256"
            },
            {
              "internalType": "string",
              "name": "txHash",
              "type": "string"
            },
            {
              "internalType": "uint256",
              "name": "block",
              "type": "uint256"
            },
            {
              "internalType": "uint256",
              "name": "time",
              "type": "uint256"
            },
            {
              "internalType": "uint256",
              "name": "fee",
              "type": "uint256"
            },
            {
              "internalType": "bool",
              "name": "paid",
              "type": "bool"
            }
          ],
          "internalType": "struct EmergencyWithdrawalReimbursementUpgradeable.Refund[]",
          "name": "",
          "type": "tuple[]"
        }
      ],
      "stateMutability": "view",
      "type": "function"
    },
    {
      "inputs": [
        {
          "internalType": "bytes32",
          "name": "role",
          "type": "bytes32"
        },
        {
          "internalType": "address",
          "name": "account",
          "type": "address"
        }
      ],
      "name": "renounceRole",
      "outputs": [],
      "stateMutability": "nonpayable",
      "type": "function"
    },
    {
      "inputs": [
        {
          "internalType": "address",
          "name": "_address",
          "type": "address"
        },
        {
          "internalType": "uint256",
          "name": "index",
          "type": "uint256"
        },
        {
          "internalType": "bool",
          "name": "paid",
          "type": "bool"
        }
      ],
      "name": "reviseRefund",
      "outputs": [],
      "stateMutability": "nonpayable",
      "type": "function"
    },
    {
      "inputs": [
        {
          "internalType": "bytes32",
          "name": "role",
          "type": "bytes32"
        },
        {
          "internalType": "address",
          "name": "account",
          "type": "address"
        }
      ],
      "name": "revokeRole",
      "outputs": [],
      "stateMutability": "nonpayable",
      "type": "function"
    },
    {
      "inputs": [
        {
          "internalType": "uint256",
          "name": "poolId",
          "type": "uint256"
        },
        {
          "components": [
            {
              "internalType": "contract IERC20Upgradeable",
              "name": "refundToken",
              "type": "address"
            },
            {
              "internalType": "uint256",
              "name": "totalFees",
              "type": "uint256"
            },
            {
              "internalType": "uint256",
              "name": "totalRefunded",
              "type": "uint256"
            },
            {
              "internalType": "uint256",
              "name": "totalToRefund",
              "type": "uint256"
            }
          ],
          "internalType": "struct EmergencyWithdrawalReimbursementUpgradeable.ExtendedRefund",
          "name": "eRefund",
          "type": "tuple"
        }
      ],
      "name": "setExtendedRefund",
      "outputs": [],
      "stateMutability": "nonpayable",
      "type": "function"
    },
    {
      "inputs": [
        {
          "internalType": "bytes4",
          "name": "interfaceId",
          "type": "bytes4"
        }
      ],
      "name": "supportsInterface",
      "outputs": [
        {
          "internalType": "bool",
          "name": "",
          "type": "bool"
        }
      ],
      "stateMutability": "view",
      "type": "function"
    },
    {
      "inputs": [],
      "name": "unpause",
      "outputs": [],
      "stateMutability": "nonpayable",
      "type": "function"
    },
    {
      "inputs": [
        {
          "internalType": "uint256",
          "name": "genesisBlock",
          "type": "uint256"
        }
      ],
      "name": "updateGenesisBlock",
      "outputs": [],
      "stateMutability": "nonpayable",
      "type": "function"
    },
    {
      "inputs": [
        {
          "internalType": "string[]",
          "name": "txHashes",
          "type": "string[]"
        },
        {
          "internalType": "uint256[]",
          "name": "poolIds",
          "type": "uint256[]"
        }
      ],
      "name": "upgradeExistingRefunds",
      "outputs": [],
      "stateMutability": "nonpayable",
      "type": "function"
    },
    {
      "inputs": [
        {
          "internalType": "address",
          "name": "_address",
          "type": "address"
        }
      ],
      "name": "upgradeRefundValuesByAddress",
      "outputs": [],
      "stateMutability": "nonpayable",
      "type": "function"
    }
  ],
  "bytecode": "0x60806040523480156200001157600080fd5b50600062000020600162000087565b9050801562000039576000805461ff0019166101001790555b801562000080576000805461ff0019169055604051600181527f7f26b83ff96e1f2b6a682f133852f6798a09c465da95921460cefb38474024989060200160405180910390a15b50620001a8565b60008054610100900460ff161562000120578160ff166001148015620000c05750620000be306200019960201b62001f471760201c565b155b620001185760405162461bcd60e51b815260206004820152602e60248201526000805160206200368083398151915260448201526d191e481a5b9a5d1a585b1a5e995960921b60648201526084015b60405180910390fd5b506000919050565b60005460ff8084169116106200017f5760405162461bcd60e51b815260206004820152602e60248201526000805160206200368083398151915260448201526d191e481a5b9a5d1a585b1a5e995960921b60648201526084016200010f565b506000805460ff191660ff92909216919091179055600190565b6001600160a01b03163b151590565b6134c880620001b86000396000f3fe608060405234801561001057600080fd5b506004361061021c5760003560e01c80638456cb5911610125578063a2fa08d6116100ad578063ea39e7af1161007c578063ea39e7af146104a4578063ed5b3d04146104b7578063f0767142146104cc578063fd39b34b146104df578063ff7f2627146104f257600080fd5b8063a2fa08d614610461578063b5545a3c14610474578063d46fbab71461047c578063d547741f1461049157600080fd5b806390f4e4bc116100f457806390f4e4bc1461041757806391d148541461042a57806392ca1e8d1461043d578063a0b0244914610446578063a217fddf1461045957600080fd5b80638456cb59146103d45780638d547728146103dc5780638eb0c7cb146103f15780638ff046bb1461040457600080fd5b806336568abe116101a85780635ae6b75a116101775780635ae6b75a146103905780635c975abb146103a35780636e783023146103ae57806375b238fc146103b75780638129fc1c146103cc57600080fd5b806336568abe14610336578063382a8c39146103495780633f4ba83a1461035c57806359285c3a1461036457600080fd5b806321937d03116101ef57806321937d0314610288578063248a9ca3146102a85780632dcd4ada146102cb5780632e7940081461031a5780632f2ff15d1461032357600080fd5b806301ffc9a7146102215780630a5b907d1461024957806311856c691461025e5780631aa3494514610275575b600080fd5b61023461022f366004612920565b6104fb565b60405190151581526020015b60405180910390f35b61025c610257366004612af5565b610532565b005b61026760fb5481565b604051908152602001610240565b61025c610283366004612b3a565b610816565b61029b610296366004612bc6565b61087e565b6040516102409190612ce7565b6102676102b6366004612cfa565b60009081526065602052604090206001015490565b6102de6102d9366004612d13565b6109cc565b604051610240919081516001600160a01b0316815260208083015190820152604080830151908201526060918201519181019190915260800190565b61026760ff5481565b61025c610331366004612d48565b610a75565b61025c610344366004612d48565b610a9f565b61025c610357366004612d78565b610b22565b61025c610be0565b61010054610378906001600160a01b031681565b6040516001600160a01b039091168152602001610240565b61025c61039e366004612dba565b610c03565b60c95460ff16610234565b61026760fc5481565b61026760008051602061347383398151915281565b61025c610f55565b61025c611057565b6103e4611077565b6040516102409190612de6565b61025c6103ff366004612cfa565b6112bd565b6102de610412366004612cfa565b6112db565b61025c610425366004612ed7565b61135e565b610234610438366004612d48565b611490565b61026760fd5481565b61025c610454366004612fab565b6114bb565b610267600081565b61026761046f366004612d13565b6115cc565b61025c6115f5565b61026760008051602061345383398151915281565b61025c61049f366004612d48565b611911565b61025c6104b2366004612bc6565b611936565b6104bf611a73565b6040516102409190613051565b61029b6104da366004612bc6565b611a9e565b61025c6104ed366004612cfa565b611bf9565b61026760fe5481565b60006001600160e01b03198216637965db0b60e01b148061052c57506301ffc9a760e01b6001600160e01b03198316145b92915050565b60008051602061345383398151915261054a81611f56565b82516001600160a01b031660009081526101016020526040812090805b825481101561065d5761063d8360000182815481106105885761058861309e565b906000526020600020906007020160020180546105a4906130b4565b80601f01602080910402602001604051908101604052809291908181526020018280546105d0906130b4565b801561061d5780601f106105f25761010080835404028352916020019161061d565b820191906000526020600020905b81548152906001019060200180831161060057829003601f168201915b505050505087604001518051602091820120825192909101919091201490565b1561064b576001915061065d565b8061065581613105565b915050610567565b508061080f5761066b612848565b85516001600160a01b0390811682526020808801518184019081526040808a01519085019081526060808b0151908601526080808b01519086015260a0808b01519086015260c0808b01511515908601528654600180820189556000898152859020875160079093020180546001600160a01b0319169290961691909117855591519184019190915551805184939261070b926002850192910190612890565b50606082015160038201556080820151600482015560a0820151600582015560c0909101516006909101805460ff191691151591909117905580516107539061010290611f60565b5085516107639061010690611f7c565b61077757855161077290611936565b6107d0565b60a0860151600086815261010560205260408120600101805490919061079e908490613120565b909155505060a086015160008681526101056020526040812060030180549091906107ca908490613120565b90915550505b8461010487604001516040516107e69190613138565b90815260405190819003602001902055606081015160fc54101561080d57606081015160fc555b505b5050505050565b60008051602061347383398151915261082e81611f56565b5080516000928352610105602090815260409384902080546001600160a01b0319166001600160a01b03909316929092178255820151600182015591810151600283015560600151600390910155565b6060600061088b83611a9e565b90506000805b82518110156108df578281815181106108ac576108ac61309e565b602090810291909101015160c001516108cd57816108c981613105565b9250505b806108d781613105565b915050610891565b5060008167ffffffffffffffff8111156108fb576108fb61294a565b60405190808252806020026020018201604052801561093457816020015b610921612848565b8152602001906001900390816109195790505b5090506000805b84518110156109c1578481815181106109565761095661309e565b602090810291909101015160c001516109af5784818151811061097b5761097b61309e565b60200260200101518383815181106109955761099561309e565b602002602001018190525081806109ab90613105565b9250505b806109b981613105565b91505061093b565b509095945050505050565b610a00604051806080016040528060006001600160a01b031681526020016000815260200160008152602001600081525090565b610105600061010484604051610a169190613138565b908152604080516020928190038301902054835282820193909352908201600020825160808101845281546001600160a01b03168152600182015492810192909252600281015492820192909252600390910154606082015292915050565b600082815260656020526040902060010154610a9081611f56565b610a9a8383611f9e565b505050565b6001600160a01b0381163314610b145760405162461bcd60e51b815260206004820152602f60248201527f416363657373436f6e74726f6c3a2063616e206f6e6c792072656e6f756e636560448201526e103937b632b9903337b91039b2b63360891b60648201526084015b60405180910390fd5b610b1e8282612024565b5050565b60026097541415610b455760405162461bcd60e51b8152600401610b0b90613154565b600260975560c95460ff1615610b6d5760405162461bcd60e51b8152600401610b0b9061318b565b600080516020613473833981519152610b8581611f56565b6001600160a01b038416600090815261010160205260409020805483919085908110610bb357610bb361309e565b60009182526020909120600790910201600601805460ff1916911515919091179055505060016097555050565b600080516020613473833981519152610bf881611f56565b610c0061208b565b50565b60026097541415610c265760405162461bcd60e51b8152600401610b0b90613154565b600260975560c95460ff1615610c4e5760405162461bcd60e51b8152600401610b0b9061318b565b600080516020613473833981519152610c6681611f56565b6000610c718461087e565b5111610cbf5760405162461bcd60e51b815260206004820152601b60248201527f4e6f2070656e64696e6720726566756e647320666f72207573657200000000006044820152606401610b0b565b6001600160a01b0383166000908152610101602052604090208054819084908110610cec57610cec61309e565b600091825260209091206006600790920201015460ff16610f4a576000610104826000018581548110610d2157610d2161309e565b9060005260206000209060070201600201604051610d3f91906131b5565b908152604080516020928190038301812054600081815261010590945291832080546370a0823160e01b835230600484015292945092916001600160a01b0316906370a082319060240160206040518083038186803b158015610da157600080fd5b505afa158015610db5573d6000803e3d6000fd5b505050506040513d601f19601f82011682018060405250810190610dd99190613251565b9050836000018681548110610df057610df061309e565b9060005260206000209060070201600501548111610e205760405162461bcd60e51b8152600401610b0b9061326a565b6001846000018781548110610e3757610e3761309e565b60009182526020909120600790910201600601805460ff19169115159190911790558354849087908110610e6d57610e6d61309e565b906000526020600020906007020160050154826002016000828254610e929190613120565b90915550508354849087908110610eab57610eab61309e565b906000526020600020906007020160050154826003015410610f0757836000018681548110610edc57610edc61309e565b906000526020600020906007020160050154826003016000828254610f0191906132c7565b90915550505b610f4687856000018881548110610f2057610f2061309e565b600091825260209091206005600790920201015484546001600160a01b0316919061211e565b5050505b505060016097555050565b6000610f616001612170565b90508015610f79576000805461ff0019166101001790555b610f816121fd565b610f89612226565b610f91612255565b610f9c600033611f9e565b610fb460008051602061347383398151915233611f9e565b610fcc60008051602061345383398151915233611f9e565b630184cf5160fb81905560fc5561010080546001600160a01b03191673d6e76742962379e234e9fd4e73768cef779f38b5179055600060fd81905560fe81905560ff558015610c00576000805461ff0019169055604051600181527f7f26b83ff96e1f2b6a682f133852f6798a09c465da95921460cefb38474024989060200160405180910390a150565b60008051602061347383398151915261106f81611f56565b610c00612284565b606060008051602061347383398151915261109181611f56565b6060600061109d611a73565b905060005b81518110156112b35760005b61010160008484815181106110c5576110c561309e565b6020908102919091018101516001600160a01b03168252810191909152604001600020548110156112a05761010160008484815181106111075761110761309e565b60200260200101516001600160a01b03166001600160a01b0316815260200190815260200160002060000181815481106111435761114361309e565b90600052602060002090600702016040518060e00160405290816000820160009054906101000a90046001600160a01b03166001600160a01b03166001600160a01b03168152602001600182015481526020016002820180546111a5906130b4565b80601f01602080910402602001604051908101604052809291908181526020018280546111d1906130b4565b801561121e5780601f106111f35761010080835404028352916020019161121e565b820191906000526020600020905b81548152906001019060200180831161120157829003601f168201915b505050918352505060038201546020820152600482015460408201526005820154606082015260069091015460ff16151560809091015284518590849081106112695761126961309e565b602002602001015182815181106112825761128261309e565b6020026020010181905250808061129890613105565b9150506110ae565b50806112ab81613105565b9150506110a2565b50909250505b5090565b6000805160206134738339815191526112d581611f56565b5060fb55565b61130f604051806080016040528060006001600160a01b031681526020016000815260200160008152602001600081525090565b5060009081526101056020908152604091829020825160808101845281546001600160a01b03168152600182015492810192909252600281015492820192909252600390910154606082015290565b60008051602061347383398151915261137681611f56565b81518351146113d95760405162461bcd60e51b815260206004820152602960248201527f7478486173686573206c656e677468206d757374206d6174636820706f6f6c496044820152680c8e640d8cadccee8d60bb1b6064820152608401610b0b565b60008351116114185760405162461bcd60e51b815260206004820152600b60248201526a115b5c1d1e481a5b9c1d5d60aa1b6044820152606401610b0b565b60005b835181101561148a578281815181106114365761143661309e565b60200260200101516101048583815181106114535761145361309e565b60200260200101516040516114689190613138565b908152604051908190036020019020558061148281613105565b91505061141b565b50505050565b60009182526065602090815260408084206001600160a01b0393909316845291905290205460ff1690565b6000805160206134538339815191526114d381611f56565b81518351146115335760405162461bcd60e51b815260206004820152602660248201527f526566756e64206c656e677468206d757374206d6174636820706f6f6c4964206044820152650d8cadccee8d60d31b6064820152608401610b0b565b60008351116115725760405162461bcd60e51b815260206004820152600b60248201526a115b5c1d1e481a5b9c1d5d60aa1b6044820152606401610b0b565b60005b835181101561148a576115ba8482815181106115935761159361309e565b60200260200101518483815181106115ad576115ad61309e565b6020026020010151610532565b806115c481613105565b915050611575565b6000610104826040516115df9190613138565b9081526020016040518091039020549050919050565b600260975414156116185760405162461bcd60e51b8152600401610b0b90613154565b600260975560c95460ff16156116405760405162461bcd60e51b8152600401610b0b9061318b565b600061164b3361087e565b511161168e5760405162461bcd60e51b81526020600482015260126024820152714e6f2070656e64696e6720726566756e647360701b6044820152606401610b0b565b33600090815261010160205260408120905b8154811015611908578160000181815481106116be576116be61309e565b600091825260209091206006600790920201015460ff166118f65760006101048360000183815481106116f3576116f361309e565b906000526020600020906007020160020160405161171191906131b5565b908152604080516020928190038301812054600081815261010590945291832080546370a0823160e01b835230600484015292945092916001600160a01b0316906370a082319060240160206040518083038186803b15801561177357600080fd5b505afa158015611787573d6000803e3d6000fd5b505050506040513d601f19601f820116820180604052508101906117ab9190613251565b90508460000184815481106117c2576117c261309e565b90600052602060002090600702016005015481116117f25760405162461bcd60e51b8152600401610b0b9061326a565b60018560000185815481106118095761180961309e565b60009182526020909120600790910201600601805460ff1916911515919091179055845485908590811061183f5761183f61309e565b9060005260206000209060070201600501548260020160008282546118649190613120565b9091555050845485908590811061187d5761187d61309e565b9060005260206000209060070201600501548260030154106118d9578460000184815481106118ae576118ae61309e565b9060005260206000209060070201600501548260030160008282546118d391906132c7565b90915550505b6118f233866000018681548110610f2057610f2061309e565b5050505b8061190081613105565b9150506116a0565b50506001609755565b60008281526065602052604090206001015461192c81611f56565b610a9a8383612024565b60008051602061347383398151915261194e81611f56565b61195a61010683611f7c565b15611963575050565b600061196e83611a9e565b905060005b8151811015611a665760006101048383815181106119935761199361309e565b6020026020010151604001516040516119ac9190613138565b90815260200160405180910390205490508282815181106119cf576119cf61309e565b602002602001015160a0015161010560008381526020019081526020016000206001016000828254611a019190613120565b92505081905550828281518110611a1a57611a1a61309e565b602002602001015160a0015161010560008381526020019081526020016000206003016000828254611a4c9190613120565b90915550829150611a5e905081613105565b915050611973565b5061148a61010684611f60565b6060600080516020613473833981519152611a8d81611f56565b611a986101026122dc565b91505090565b6001600160a01b038116600090815261010160209081526040808320805482518185028101850190935280835260609492939192909184015b82821015611bee5760008481526020908190206040805160e0810182526007860290920180546001600160a01b0316835260018101549383019390935260028301805492939291840191611b2a906130b4565b80601f0160208091040260200160405190810160405280929190818152602001828054611b56906130b4565b8015611ba35780601f10611b7857610100808354040283529160200191611ba3565b820191906000526020600020905b815481529060010190602001808311611b8657829003601f168201915b50505091835250506003820154602080830191909152600483015460408301526005830154606083015260069092015460ff1615156080909101529082526001929092019101611ad7565b505050509050919050565b60026097541415611c1c5760405162461bcd60e51b8152600401610b0b90613154565b600260975560c95460ff1615611c445760405162461bcd60e51b8152600401610b0b9061318b565b336000908152610101602052604081208054909190829084908110611c6b57611c6b61309e565b90600052602060002090600702016004015411611cba5760405162461bcd60e51b815260206004820152600d60248201526c092dcecc2d8d2c840d2dcc8caf609b1b6044820152606401610b0b565b806000018281548110611ccf57611ccf61309e565b600091825260209091206006600790920201015460ff1615611d225760405162461bcd60e51b815260206004820152600c60248201526b105b1c9958591e481c185a5960a21b6044820152606401610b0b565b6000610104826000018481548110611d3c57611d3c61309e565b9060005260206000209060070201600201604051611d5a91906131b5565b908152604080516020928190038301812054600081815261010590945291832080546370a0823160e01b835230600484015292945092916001600160a01b0316906370a082319060240160206040518083038186803b158015611dbc57600080fd5b505afa158015611dd0573d6000803e3d6000fd5b505050506040513d601f19601f82011682018060405250810190611df49190613251565b9050836000018581548110611e0b57611e0b61309e565b9060005260206000209060070201600501548111611e3b5760405162461bcd60e51b8152600401610b0b9061326a565b6001846000018681548110611e5257611e5261309e565b60009182526020909120600790910201600601805460ff19169115159190911790558354849086908110611e8857611e8861309e565b906000526020600020906007020160050154826002016000828254611ead9190613120565b90915550508354849086908110611ec657611ec661309e565b906000526020600020906007020160050154826003015410611f2257836000018581548110611ef757611ef761309e565b906000526020600020906007020160050154826003016000828254611f1c91906132c7565b90915550505b611f3b33856000018781548110610f2057610f2061309e565b50506001609755505050565b6001600160a01b03163b151590565b610c0081336122e9565b6000611f75836001600160a01b03841661234d565b9392505050565b6001600160a01b03811660009081526001830160205260408120541515611f75565b611fa88282611490565b610b1e5760008281526065602090815260408083206001600160a01b03851684529091529020805460ff19166001179055611fe03390565b6001600160a01b0316816001600160a01b0316837f2f8788117e7eff1d82e926ec794901d17c78024a50270940304540a733656f0d60405160405180910390a45050565b61202e8282611490565b15610b1e5760008281526065602090815260408083206001600160a01b0385168085529252808320805460ff1916905551339285917ff6391f5c32d9c69d2a47ea670b442974b53935d1edc7fd64eb21e047a839171b9190a45050565b60c95460ff166120d45760405162461bcd60e51b815260206004820152601460248201527314185d5cd8589b194e881b9bdd081c185d5cd95960621b6044820152606401610b0b565b60c9805460ff191690557f5db9ee0a495bf2e6ff9c91a7834c1ba4fdd244a5e8aa4e537bd38aeae4b073aa335b6040516001600160a01b03909116815260200160405180910390a1565b604080516001600160a01b038416602482015260448082018490528251808303909101815260649091019091526020810180516001600160e01b031663a9059cbb60e01b179052610a9a90849061239c565b60008054610100900460ff16156121b7578160ff1660011480156121935750303b155b6121af5760405162461bcd60e51b8152600401610b0b906132de565b506000919050565b60005460ff8084169116106121de5760405162461bcd60e51b8152600401610b0b906132de565b506000805460ff191660ff92909216919091179055600190565b919050565b600054610100900460ff166122245760405162461bcd60e51b8152600401610b0b9061332c565b565b600054610100900460ff1661224d5760405162461bcd60e51b8152600401610b0b9061332c565b61222461246e565b600054610100900460ff1661227c5760405162461bcd60e51b8152600401610b0b9061332c565b61222461249c565b60c95460ff16156122a75760405162461bcd60e51b8152600401610b0b9061318b565b60c9805460ff191660011790557f62e78cea01bee320cd4e420270b5ea74000d11b0c9f74754ebdbfc544b05a2586121013390565b60606000611f75836124cf565b6122f38282611490565b610b1e5761230b816001600160a01b0316601461252b565b61231683602061252b565b604051602001612327929190613377565b60408051601f198184030181529082905262461bcd60e51b8252610b0b916004016133ec565b60008181526001830160205260408120546123945750815460018181018455600084815260208082209093018490558454848252828601909352604090209190915561052c565b50600061052c565b60006123f1826040518060400160405280602081526020017f5361666545524332303a206c6f772d6c6576656c2063616c6c206661696c6564815250856001600160a01b03166126c79092919063ffffffff16565b805190915015610a9a578080602001905181019061240f91906133ff565b610a9a5760405162461bcd60e51b815260206004820152602a60248201527f5361666545524332303a204552433230206f7065726174696f6e20646964206e6044820152691bdd081cdd58d8d9595960b21b6064820152608401610b0b565b600054610100900460ff166124955760405162461bcd60e51b8152600401610b0b9061332c565b6001609755565b600054610100900460ff166124c35760405162461bcd60e51b8152600401610b0b9061332c565b60c9805460ff19169055565b60608160000180548060200260200160405190810160405280929190818152602001828054801561251f57602002820191906000526020600020905b81548152602001906001019080831161250b575b50505050509050919050565b6060600061253a83600261341c565b612545906002613120565b67ffffffffffffffff81111561255d5761255d61294a565b6040519080825280601f01601f191660200182016040528015612587576020820181803683370190505b509050600360fc1b816000815181106125a2576125a261309e565b60200101906001600160f81b031916908160001a905350600f60fb1b816001815181106125d1576125d161309e565b60200101906001600160f81b031916908160001a90535060006125f584600261341c565b612600906001613120565b90505b6001811115612678576f181899199a1a9b1b9c1cb0b131b232b360811b85600f16601081106126345761263461309e565b1a60f81b82828151811061264a5761264a61309e565b60200101906001600160f81b031916908160001a90535060049490941c936126718161343b565b9050612603565b508315611f755760405162461bcd60e51b815260206004820181905260248201527f537472696e67733a20686578206c656e67746820696e73756666696369656e746044820152606401610b0b565b60606126d684846000856126de565b949350505050565b60608247101561273f5760405162461bcd60e51b815260206004820152602660248201527f416464726573733a20696e73756666696369656e742062616c616e636520666f6044820152651c8818d85b1b60d21b6064820152608401610b0b565b6001600160a01b0385163b6127965760405162461bcd60e51b815260206004820152601d60248201527f416464726573733a2063616c6c20746f206e6f6e2d636f6e74726163740000006044820152606401610b0b565b600080866001600160a01b031685876040516127b29190613138565b60006040518083038185875af1925050503d80600081146127ef576040519150601f19603f3d011682016040523d82523d6000602084013e6127f4565b606091505b509150915061280482828661280f565b979650505050505050565b6060831561281e575081611f75565b82511561282e5782518084602001fd5b8160405162461bcd60e51b8152600401610b0b91906133ec565b6040518060e0016040528060006001600160a01b0316815260200160008152602001606081526020016000815260200160008152602001600081526020016000151581525090565b82805461289c906130b4565b90600052602060002090601f0160209004810192826128be5760008555612904565b82601f106128d757805160ff1916838001178555612904565b82800160010185558215612904579182015b828111156129045782518255916020019190600101906128e9565b506112b99291505b808211156112b9576000815560010161290c565b60006020828403121561293257600080fd5b81356001600160e01b031981168114611f7557600080fd5b634e487b7160e01b600052604160045260246000fd5b60405160e0810167ffffffffffffffff811182821017156129835761298361294a565b60405290565b604051601f8201601f1916810167ffffffffffffffff811182821017156129b2576129b261294a565b604052919050565b6001600160a01b0381168114610c0057600080fd5b80356121f8816129ba565b600082601f8301126129eb57600080fd5b813567ffffffffffffffff811115612a0557612a0561294a565b612a18601f8201601f1916602001612989565b818152846020838601011115612a2d57600080fd5b816020850160208301376000918101602001919091529392505050565b8015158114610c0057600080fd5b80356121f881612a4a565b600060e08284031215612a7557600080fd5b612a7d612960565b9050612a88826129cf565b815260208201356020820152604082013567ffffffffffffffff811115612aae57600080fd5b612aba848285016129da565b604083015250606082013560608201526080820135608082015260a082013560a0820152612aea60c08301612a58565b60c082015292915050565b60008060408385031215612b0857600080fd5b823567ffffffffffffffff811115612b1f57600080fd5b612b2b85828601612a63565b95602094909401359450505050565b60008082840360a0811215612b4e57600080fd5b833592506080601f1982011215612b6457600080fd5b506040516080810181811067ffffffffffffffff82111715612b8857612b8861294a565b6040526020840135612b99816129ba565b80825250604084013560208201526060840135604082015260808401356060820152809150509250929050565b600060208284031215612bd857600080fd5b8135611f75816129ba565b60005b83811015612bfe578181015183820152602001612be6565b8381111561148a5750506000910152565b60008151808452612c27816020860160208601612be3565b601f01601f19169290920160200192915050565b600081518084526020808501808196508360051b8101915082860160005b85811015612cda578284038952815180516001600160a01b03168552858101518686015260408082015160e08288018190529190612c9983890182612c0f565b606085810151908a0152608080860151908a015260a080860151908a015260c094850151151594909801939093525050509784019790840190600101612c59565b5091979650505050505050565b602081526000611f756020830184612c3b565b600060208284031215612d0c57600080fd5b5035919050565b600060208284031215612d2557600080fd5b813567ffffffffffffffff811115612d3c57600080fd5b6126d6848285016129da565b60008060408385031215612d5b57600080fd5b823591506020830135612d6d816129ba565b809150509250929050565b600080600060608486031215612d8d57600080fd5b8335612d98816129ba565b9250602084013591506040840135612daf81612a4a565b809150509250925092565b60008060408385031215612dcd57600080fd5b8235612dd8816129ba565b946020939093013593505050565b6000602080830181845280855180835260408601915060408160051b870101925083870160005b82811015612e3b57603f19888603018452612e29858351612c3b565b94509285019290850190600101612e0d565b5092979650505050505050565b600067ffffffffffffffff821115612e6257612e6261294a565b5060051b60200190565b600082601f830112612e7d57600080fd5b81356020612e92612e8d83612e48565b612989565b82815260059290921b84018101918181019086841115612eb157600080fd5b8286015b84811015612ecc5780358352918301918301612eb5565b509695505050505050565b60008060408385031215612eea57600080fd5b823567ffffffffffffffff80821115612f0257600080fd5b818501915085601f830112612f1657600080fd5b81356020612f26612e8d83612e48565b82815260059290921b84018101918181019089841115612f4557600080fd5b8286015b84811015612f7d57803586811115612f615760008081fd5b612f6f8c86838b01016129da565b845250918301918301612f49565b5096505086013592505080821115612f9457600080fd5b50612fa185828601612e6c565b9150509250929050565b60008060408385031215612fbe57600080fd5b823567ffffffffffffffff80821115612fd657600080fd5b818501915085601f830112612fea57600080fd5b81356020612ffa612e8d83612e48565b82815260059290921b8401810191818101908984111561301957600080fd5b8286015b84811015612f7d578035868111156130355760008081fd5b6130438c86838b0101612a63565b84525091830191830161301d565b6020808252825182820181905260009190848201906040850190845b818110156130925783516001600160a01b03168352928401929184019160010161306d565b50909695505050505050565b634e487b7160e01b600052603260045260246000fd5b600181811c908216806130c857607f821691505b602082108114156130e957634e487b7160e01b600052602260045260246000fd5b50919050565b634e487b7160e01b600052601160045260246000fd5b6000600019821415613119576131196130ef565b5060010190565b60008219821115613133576131336130ef565b500190565b6000825161314a818460208701612be3565b9190910192915050565b6020808252601f908201527f5265656e7472616e637947756172643a207265656e7472616e742063616c6c00604082015260600190565b60208082526010908201526f14185d5cd8589b194e881c185d5cd95960821b604082015260600190565b600080835481600182811c9150808316806131d157607f831692505b60208084108214156131f157634e487b7160e01b86526022600452602486fd5b818015613205576001811461321657613243565b60ff19861689528489019650613243565b60008a81526020902060005b8681101561323b5781548b820152908501908301613222565b505084890196505b509498975050505050505050565b60006020828403121561326357600080fd5b5051919050565b6020808252603a908201527f496e73756666696369656e7420636f6e74726163742062616c616e636520746f60408201527f20726566756e642e204e6f7469667920696e20646973636f7264000000000000606082015260800190565b6000828210156132d9576132d96130ef565b500390565b6020808252602e908201527f496e697469616c697a61626c653a20636f6e747261637420697320616c72656160408201526d191e481a5b9a5d1a585b1a5e995960921b606082015260800190565b6020808252602b908201527f496e697469616c697a61626c653a20636f6e7472616374206973206e6f74206960408201526a6e697469616c697a696e6760a81b606082015260800190565b7f416363657373436f6e74726f6c3a206163636f756e74200000000000000000008152600083516133af816017850160208801612be3565b7001034b99036b4b9b9b4b733903937b6329607d1b60179184019182015283516133e0816028840160208801612be3565b01602801949350505050565b602081526000611f756020830184612c0f565b60006020828403121561341157600080fd5b8151611f7581612a4a565b6000816000190483118215151615613436576134366130ef565b500290565b60008161344a5761344a6130ef565b50600019019056fefa1e1e55aab7c0e3c46cc6e18746f0998e83fcd9df45896dbb1db42e5637efa8a49807205ce4d355092ef5a8a18f56e8913cf4a201fbe287825b095693c21775a264697066735822122041ba9838c2a632f382d32dcda08f1de16768768fd49ff88d22a34b297c1e15f264736f6c63430008090033496e697469616c697a61626c653a20636f6e747261637420697320616c726561",
  "linkReferences": {},
  "deployedLinkReferences": {}
}