{
  "_format": "hh-sol-artifact-1",
  "contractName": "HatcherHarryUpgradeable",
  "sourceName": "contracts/npc/BreederBetty.sol",
  "abi": [
    {
      "inputs": [],
      "stateMutability": "nonpayable",
      "type": "constructor"
    },
    {
      "inputs": [
        {
          "internalType": "address",
          "name": "have",
          "type": "address"
        },
        {
          "internalType": "address",
          "name": "want",
          "type": "address"
        }
      ],
      "name": "OnlyCoordinatorCanFulfill",
      "type": "error"
    },
    {
      "anonymous": false,
      "inputs": [
        {
          "indexed": false,
          "internalType": "uint8",
          "name": "version",
          "type": "uint8"
        }
      ],
      "name": "Initialized",
      "type": "event"
    },
    {
      "anonymous": false,
      "inputs": [
        {
          "indexed": false,
          "internalType": "address",
          "name": "account",
          "type": "address"
        }
      ],
      "name": "Paused",
      "type": "event"
    },
    {
      "anonymous": false,
      "inputs": [
        {
          "indexed": true,
          "internalType": "bytes32",
          "name": "role",
          "type": "bytes32"
        },
        {
          "indexed": true,
          "internalType": "bytes32",
          "name": "previousAdminRole",
          "type": "bytes32"
        },
        {
          "indexed": true,
          "internalType": "bytes32",
          "name": "newAdminRole",
          "type": "bytes32"
        }
      ],
      "name": "RoleAdminChanged",
      "type": "event"
    },
    {
      "anonymous": false,
      "inputs": [
        {
          "indexed": true,
          "internalType": "bytes32",
          "name": "role",
          "type": "bytes32"
        },
        {
          "indexed": true,
          "internalType": "address",
          "name": "account",
          "type": "address"
        },
        {
          "indexed": true,
          "internalType": "address",
          "name": "sender",
          "type": "address"
        }
      ],
      "name": "RoleGranted",
      "type": "event"
    },
    {
      "anonymous": false,
      "inputs": [
        {
          "indexed": true,
          "internalType": "bytes32",
          "name": "role",
          "type": "bytes32"
        },
        {
          "indexed": true,
          "internalType": "address",
          "name": "account",
          "type": "address"
        },
        {
          "indexed": true,
          "internalType": "address",
          "name": "sender",
          "type": "address"
        }
      ],
      "name": "RoleRevoked",
      "type": "event"
    },
    {
      "anonymous": false,
      "inputs": [
        {
          "indexed": false,
          "internalType": "address",
          "name": "account",
          "type": "address"
        }
      ],
      "name": "Unpaused",
      "type": "event"
    },
    {
      "inputs": [],
      "name": "ADMIN_ROLE",
      "outputs": [
        {
          "internalType": "bytes32",
          "name": "",
          "type": "bytes32"
        }
      ],
      "stateMutability": "view",
      "type": "function"
    },
    {
      "inputs": [],
      "name": "CONTRACT_ROLE",
      "outputs": [
        {
          "internalType": "bytes32",
          "name": "",
          "type": "bytes32"
        }
      ],
      "stateMutability": "view",
      "type": "function"
    },
    {
      "inputs": [],
      "name": "DEFAULT_ADMIN_ROLE",
      "outputs": [
        {
          "internalType": "bytes32",
          "name": "",
          "type": "bytes32"
        }
      ],
      "stateMutability": "view",
      "type": "function"
    },
    {
      "inputs": [
        {
          "internalType": "address",
          "name": "_address",
          "type": "address"
        },
        {
          "internalType": "uint256[]",
          "name": "tokenIds",
          "type": "uint256[]"
        }
      ],
      "name": "adminReIncubate",
      "outputs": [],
      "stateMutability": "nonpayable",
      "type": "function"
    },
    {
      "inputs": [
        {
          "internalType": "address",
          "name": "_address",
          "type": "address"
        }
      ],
      "name": "getPendingHatch",
      "outputs": [
        {
          "components": [
            {
              "internalType": "uint256[]",
              "name": "ids",
              "type": "uint256[]"
            },
            {
              "internalType": "uint256",
              "name": "requestId",
              "type": "uint256"
            },
            {
              "internalType": "uint256[]",
              "name": "words",
              "type": "uint256[]"
            }
          ],
          "internalType": "struct IEvoStructsUpgradeable.PendingHatch",
          "name": "ph",
          "type": "tuple"
        },
        {
          "internalType": "bool",
          "name": "migrated",
          "type": "bool"
        }
      ],
      "stateMutability": "view",
      "type": "function"
    },
    {
      "inputs": [
        {
          "internalType": "bytes32",
          "name": "role",
          "type": "bytes32"
        }
      ],
      "name": "getRoleAdmin",
      "outputs": [
        {
          "internalType": "bytes32",
          "name": "",
          "type": "bytes32"
        }
      ],
      "stateMutability": "view",
      "type": "function"
    },
    {
      "inputs": [
        {
          "internalType": "bytes32",
          "name": "role",
          "type": "bytes32"
        },
        {
          "internalType": "uint256",
          "name": "index",
          "type": "uint256"
        }
      ],
      "name": "getRoleMember",
      "outputs": [
        {
          "internalType": "address",
          "name": "",
          "type": "address"
        }
      ],
      "stateMutability": "view",
      "type": "function"
    },
    {
      "inputs": [
        {
          "internalType": "bytes32",
          "name": "role",
          "type": "bytes32"
        }
      ],
      "name": "getRoleMemberCount",
      "outputs": [
        {
          "internalType": "uint256",
          "name": "",
          "type": "uint256"
        }
      ],
      "stateMutability": "view",
      "type": "function"
    },
    {
      "inputs": [
        {
          "internalType": "bytes32",
          "name": "role",
          "type": "bytes32"
        },
        {
          "internalType": "address",
          "name": "account",
          "type": "address"
        }
      ],
      "name": "grantRole",
      "outputs": [],
      "stateMutability": "nonpayable",
      "type": "function"
    },
    {
      "inputs": [
        {
          "internalType": "bytes32",
          "name": "role",
          "type": "bytes32"
        },
        {
          "internalType": "address",
          "name": "account",
          "type": "address"
        }
      ],
      "name": "hasRole",
      "outputs": [
        {
          "internalType": "bool",
          "name": "",
          "type": "bool"
        }
      ],
      "stateMutability": "view",
      "type": "function"
    },
    {
      "inputs": [],
      "name": "hatch",
      "outputs": [],
      "stateMutability": "nonpayable",
      "type": "function"
    },
    {
      "inputs": [
        {
          "internalType": "uint256[]",
          "name": "tokenIds",
          "type": "uint256[]"
        }
      ],
      "name": "incubate",
      "outputs": [],
      "stateMutability": "nonpayable",
      "type": "function"
    },
    {
      "inputs": [],
      "name": "initialize",
      "outputs": [],
      "stateMutability": "nonpayable",
      "type": "function"
    },
    {
      "inputs": [],
      "name": "pause",
      "outputs": [],
      "stateMutability": "nonpayable",
      "type": "function"
    },
    {
      "inputs": [],
      "name": "paused",
      "outputs": [
        {
          "internalType": "bool",
          "name": "",
          "type": "bool"
        }
      ],
      "stateMutability": "view",
      "type": "function"
    },
    {
      "inputs": [],
      "name": "pendingHatch",
      "outputs": [
        {
          "internalType": "bool",
          "name": "exists",
          "type": "bool"
        },
        {
          "internalType": "bool",
          "name": "ready",
          "type": "bool"
        },
        {
          "internalType": "uint256[]",
          "name": "ids",
          "type": "uint256[]"
        }
      ],
      "stateMutability": "view",
      "type": "function"
    },
    {
      "inputs": [
        {
          "internalType": "address",
          "name": "_address",
          "type": "address"
        }
      ],
      "name": "pendingHatchOf",
      "outputs": [
        {
          "internalType": "bool",
          "name": "exists",
          "type": "bool"
        },
        {
          "internalType": "bool",
          "name": "ready",
          "type": "bool"
        },
        {
          "internalType": "uint256[]",
          "name": "ids",
          "type": "uint256[]"
        }
      ],
      "stateMutability": "view",
      "type": "function"
    },
    {
      "inputs": [],
      "name": "rarityConfig",
      "outputs": [
        {
          "internalType": "uint256[]",
          "name": "",
          "type": "uint256[]"
        },
        {
          "internalType": "uint256[]",
          "name": "",
          "type": "uint256[]"
        },
        {
          "internalType": "uint256",
          "name": "",
          "type": "uint256"
        }
      ],
      "stateMutability": "view",
      "type": "function"
    },
    {
      "inputs": [
        {
          "internalType": "uint256",
          "name": "requestId",
          "type": "uint256"
        },
        {
          "internalType": "uint256[]",
          "name": "randomWords",
          "type": "uint256[]"
        }
      ],
      "name": "rawFulfillRandomWords",
      "outputs": [],
      "stateMutability": "nonpayable",
      "type": "function"
    },
    {
      "inputs": [
        {
          "internalType": "bytes32",
          "name": "role",
          "type": "bytes32"
        },
        {
          "internalType": "address",
          "name": "account",
          "type": "address"
        }
      ],
      "name": "renounceRole",
      "outputs": [],
      "stateMutability": "nonpayable",
      "type": "function"
    },
    {
      "inputs": [
        {
          "internalType": "bytes32",
          "name": "role",
          "type": "bytes32"
        },
        {
          "internalType": "address",
          "name": "account",
          "type": "address"
        }
      ],
      "name": "revokeRole",
      "outputs": [],
      "stateMutability": "nonpayable",
      "type": "function"
    },
    {
      "inputs": [
        {
          "internalType": "uint256[]",
          "name": "speciesIds",
          "type": "uint256[]"
        },
        {
          "internalType": "uint256[][]",
          "name": "_baseAttributes",
          "type": "uint256[][]"
        }
      ],
      "name": "setBaseAttributes",
      "outputs": [],
      "stateMutability": "nonpayable",
      "type": "function"
    },
    {
      "inputs": [
        {
          "internalType": "address",
          "name": "_address",
          "type": "address"
        }
      ],
      "name": "simulateHatch",
      "outputs": [
        {
          "components": [
            {
              "internalType": "uint256",
              "name": "tokenId",
              "type": "uint256"
            },
            {
              "internalType": "uint256",
              "name": "species",
              "type": "uint256"
            },
            {
              "internalType": "uint256",
              "name": "generation",
              "type": "uint256"
            },
            {
              "internalType": "uint256",
              "name": "experience",
              "type": "uint256"
            },
            {
              "components": [
                {
                  "internalType": "uint256",
                  "name": "gender",
                  "type": "uint256"
                },
                {
                  "internalType": "uint256",
                  "name": "rarity",
                  "type": "uint256"
                },
                {
                  "internalType": "uint256",
                  "name": "primaryType",
                  "type": "uint256"
                },
                {
                  "internalType": "uint256",
                  "name": "secondaryType",
                  "type": "uint256"
                },
                {
                  "internalType": "uint256",
                  "name": "nature",
                  "type": "uint256"
                },
                {
                  "internalType": "uint256",
                  "name": "size",
                  "type": "uint256"
                }
              ],
              "internalType": "struct IEvoStructsUpgradeable.Stats",
              "name": "stats",
              "type": "tuple"
            },
            {
              "components": [
                {
                  "internalType": "uint256",
                  "name": "health",
                  "type": "uint256"
                },
                {
                  "internalType": "uint256",
                  "name": "attack",
                  "type": "uint256"
                },
                {
                  "internalType": "uint256",
                  "name": "defense",
                  "type": "uint256"
                },
                {
                  "internalType": "uint256",
                  "name": "special",
                  "type": "uint256"
                },
                {
                  "internalType": "uint256",
                  "name": "resistance",
                  "type": "uint256"
                },
                {
                  "internalType": "uint256",
                  "name": "speed",
                  "type": "uint256"
                }
              ],
              "internalType": "struct IEvoStructsUpgradeable.BattleStats",
              "name": "battle",
              "type": "tuple"
            },
            {
              "components": [
                {
                  "internalType": "uint256",
                  "name": "total",
                  "type": "uint256"
                },
                {
                  "internalType": "uint256",
                  "name": "remaining",
                  "type": "uint256"
                }
              ],
              "internalType": "struct IEvoStructsUpgradeable.Summons",
              "name": "summons",
              "type": "tuple"
            },
            {
              "components": [
                {
                  "internalType": "uint256",
                  "name": "move0",
                  "type": "uint256"
                },
                {
                  "internalType": "uint256",
                  "name": "move1",
                  "type": "uint256"
                },
                {
                  "internalType": "uint256",
                  "name": "move2",
                  "type": "uint256"
                },
                {
                  "internalType": "uint256",
                  "name": "move3",
                  "type": "uint256"
                }
              ],
              "internalType": "struct IEvoStructsUpgradeable.Moves",
              "name": "moves",
              "type": "tuple"
            }
          ],
          "internalType": "struct IEvoStructsUpgradeable.Evo[]",
          "name": "",
          "type": "tuple[]"
        }
      ],
      "stateMutability": "view",
      "type": "function"
    },
    {
      "inputs": [
        {
          "internalType": "bytes4",
          "name": "interfaceId",
          "type": "bytes4"
        }
      ],
      "name": "supportsInterface",
      "outputs": [
        {
          "internalType": "bool",
          "name": "",
          "type": "bool"
        }
      ],
      "stateMutability": "view",
      "type": "function"
    },
    {
      "inputs": [],
      "name": "unpause",
      "outputs": [],
      "stateMutability": "nonpayable",
      "type": "function"
    }
  ],
  "bytecode": "0x60806040523480156200001157600080fd5b506200001c62000022565b620000e4565b600054610100900460ff16156200008f5760405162461bcd60e51b815260206004820152602760248201527f496e697469616c697a61626c653a20636f6e747261637420697320696e697469604482015266616c697a696e6760c81b606482015260840160405180910390fd5b60005460ff9081161015620000e2576000805460ff191660ff9081179091556040519081527f7f26b83ff96e1f2b6a682f133852f6798a09c465da95921460cefb38474024989060200160405180910390a15b565b612f1380620000f46000396000f3fe608060405234801561001057600080fd5b50600436106101735760003560e01c806375b238fc116100de57806391d1485411610097578063bb6c6b4311610071578063bb6c6b431461035d578063ca15c87314610370578063d0db508314610383578063d547741f1461038b57600080fd5b806391d148541461032f578063a217fddf14610342578063a40e1a661461034a57600080fd5b806375b238fc146102ac57806379c77449146102c15780638129fc1c146102e15780638456cb59146102e95780638936480c146102f15780639010d07c1461030457600080fd5b806336568abe1161013057806336568abe146102465780633f4ba83a1461025957806345835719146102615780635ba7aa07146102695780635c975abb1461028a5780635e29cedb1461029557600080fd5b8063017153931461017857806301ffc9a7146101a357806303fe46ab146101c65780631fe543e3146101fb578063248a9ca3146102105780632f2ff15d14610233575b600080fd5b61018b6101863660046124fd565b61039e565b60405161019a93929190612553565b60405180910390f35b6101b66101b136600461257f565b610529565b604051901515815260200161019a565b6101ed7f364d3d7565c7a8300c96fd53e065d19b65848d7b23b3191adcd55621c744223c81565b60405190815260200161019a565b61020e61020936600461267d565b610554565b005b6101ed61021e3660046126c3565b60009081526097602052604090206001015490565b61020e6102413660046126dc565b6105a7565b61020e6102543660046126dc565b6105d1565b61020e61064b565b61018b61066e565b61027c6102773660046124fd565b610687565b60405161019a929190612708565b60335460ff166101b6565b61029d610822565b60405161019a9392919061275e565b6101ed600080516020612ebe83398151915281565b6102d46102cf3660046124fd565b610939565b60405161019a91906128b8565b61020e610994565b61020e610b8d565b61020e6102ff3660046128cb565b610bad565b6103176103123660046128ff565b610d4b565b6040516001600160a01b03909116815260200161019a565b6101b661033d3660046126dc565b610d6a565b6101ed600081565b61020e610358366004612921565b610d95565b61020e61036b3660046129f5565b610ea6565b6101ed61037e3660046126c3565b610fed565b61020e611004565b61020e6103993660046126dc565b611229565b6001600160a01b03811660009081526101c26020908152604080832081518154608094810282018501909352606081810184815286959194869492849291849184018282801561040d57602002820191906000526020600020905b8154815260200190600101908083116103f9575b50505050508152602001600182015481526020016002820180548060200260200160405190810160405280929190818152602001828054801561046f57602002820191906000526020600020905b81548152602001906001019080831161045b575b505050505081525050905080602001516000141561050c576101c15460405163a5435ec160e01b81526001600160a01b0387811660048301529091169063a5435ec19060240160006040518083038186803b1580156104cd57600080fd5b505afa1580156104e1573d6000803e3d6000fd5b505050506040513d6000823e601f3d908101601f191682016040526105099190810190612a87565b90505b602081015160408201515191519015159691151595509350915050565b60006001600160e01b03198216635a05180f60e01b148061054e575061054e8261124e565b92915050565b60fb546001600160a01b031633146105995760fb5460405163073e64fd60e21b81523360048201526001600160a01b0390911660248201526044015b60405180910390fd5b6105a38282611283565b5050565b6000828152609760205260409020600101546105c2816112bd565b6105cc83836112c7565b505050565b6001600160a01b03811633146106415760405162461bcd60e51b815260206004820152602f60248201527f416363657373436f6e74726f6c3a2063616e206f6e6c792072656e6f756e636560448201526e103937b632b9903337b91039b2b63360891b6064820152608401610590565b6105a382826112e9565b600080516020612ebe833981519152610663816112bd565b61066b61130b565b50565b600080606061067c3361039e565b925092509250909192565b6106ab60405180606001604052806060815260200160008152602001606081525090565b6001600160a01b03821660009081526101c260209081526040808320815181546080948102820185019093526060810183815290939192849284919084018282801561071657602002820191906000526020600020905b815481526020019060010190808311610702575b50505050508152602001600182015481526020016002820180548060200260200160405190810160405280929190818152602001828054801561077857602002820191906000526020600020905b815481526020019060010190808311610764575b50505050508152505091506000905081602001516000141561081d576101c15460405163a5435ec160e01b81526001600160a01b0385811660048301529091169063a5435ec19060240160006040518083038186803b1580156107da57600080fd5b505afa1580156107ee573d6000803e3d6000fd5b505050506040513d6000823e601f3d908101601f191682016040526108169190810190612a87565b9150600190505b915091565b6060806000806108336101c761135d565b9050600081516001600160401b03811115610850576108506125a9565b604051908082528060200260200182016040528015610879578160200160208202803683370190505b5090506000805b835181101561092c576108c960006101c660008785815181106108a5576108a5612b37565b6020026020010151815260200190815260200160002061136a90919063ffffffff16565b6108d25761091a565b818382815181106108e5576108e5612b37565b60200260200101818152505061090d60016101c660008785815181106108a5576108a5612b37565b6109179083612b63565b91505b8061092481612b7b565b915050610880565b5091959094509092509050565b6060600080516020612ebe833981519152610953816112bd565b61097760405180606001604052806060815260200160008152602001606081525090565b61098084610687565b50905061098c81611376565b949350505050565b600054610100900460ff16158080156109b45750600054600160ff909116105b806109ce5750303b1580156109ce575060005460ff166001145b610a315760405162461bcd60e51b815260206004820152602e60248201527f496e697469616c697a61626c653a20636f6e747261637420697320616c72656160448201526d191e481a5b9a5d1a585b1a5e995960921b6064820152608401610590565b6000805460ff191660011790558015610a54576000805461ff0019166101001790555b610a5c611558565b610a64611589565b73d5d517abe5cf79b7e95ec98db0f0277788aff6347f83250c5584ffa93feb6ee082981c5ebe484c865196750b39835ad4f13780435d601d6003610aaa848484846115b0565b610ab56000336112c7565b610acd600080516020612ebe833981519152336112c7565b610af77f364d3d7565c7a8300c96fd53e065d19b65848d7b23b3191adcd55621c744223c336112c7565b50506101c080546001600160a01b03199081167375ddd2b19e6f7bed3bfe9d2d21dd226c38c0cbc4179091556101c1805490911673454a0e479ac78e508a95880216c06f50bf3c321c1790555050801561066b576000805461ff0019169055604051600181527f7f26b83ff96e1f2b6a682f133852f6798a09c465da95921460cefb38474024989060200160405180910390a150565b600080516020612ebe833981519152610ba5816112bd565b61066b6115ec565b600581511115610bf55760405162461bcd60e51b815260206004820152601360248201527209ac2f0d2daeada406a40e0cae440d0c2e8c6d606b1b6044820152606401610590565b610c1960405180606001604052806060815260200160008152602001606081525090565b610c2233610687565b50602081015190915015610c785760405162461bcd60e51b815260206004820152601a60248201527f4578697374696e6720686174636820696e2070726f67726573730000000000006044820152606401610590565b3360008181526101c26020526040908190206101c0549151630b6539e760e01b815290926001600160a01b0390921691630b6539e791610cbd91908790600401612b96565b600060405180830381600087803b158015610cd757600080fd5b505af1158015610ceb573d6000803e3d6000fd5b50505050610cf98351611629565b60018201558251610d10908290602086019061236d565b50600181015460009081526101c56020526040902080546001600160a01b03191633908117909155610d45906101c390611701565b50505050565b600082815260c960205260408120610d639083611716565b9392505050565b60009182526097602090815260408084206001600160a01b0393909316845291905290205460ff1690565b600080516020612ebe833981519152610dad816112bd565b60005b8351811015610d4557610de7848281518110610dce57610dce612b37565b60200260200101516101c761172290919063ffffffff16565b5060005b838281518110610dfd57610dfd612b37565b602002602001015151811015610e9357610e8081858481518110610e2357610e23612b37565b60200260200101518381518110610e3c57610e3c612b37565b60200260200101516101c66000898781518110610e5b57610e5b612b37565b6020026020010151815260200190815260200160002061172e9092919063ffffffff16565b5080610e8b81612b7b565b915050610deb565b5080610e9e81612b7b565b915050610db0565b600581511115610eee5760405162461bcd60e51b815260206004820152601360248201527209ac2f0d2daeada406a40e0cae440d0c2e8c6d606b1b6044820152606401610590565b610f1260405180606001604052806060815260200160008152602001606081525090565b610f1b83610687565b50602081015190915015610f715760405162461bcd60e51b815260206004820152601a60248201527f4578697374696e6720686174636820696e2070726f67726573730000000000006044820152606401610590565b6001600160a01b03831660009081526101c2602052604090208251610f9590611629565b60018201558251610fac908290602086019061236d565b50600181015460009081526101c56020526040902080546001600160a01b0319166001600160a01b038616179055610fe66101c385611701565b5050505050565b600081815260c96020526040812061054e9061173b565b61102860405180606001604052806060815260200160008152602001606081525090565b600061103333610687565b602082015191935091506110895760405162461bcd60e51b815260206004820152601c60248201527f4e6f2070656e64696e6720686174636820696e2070726f6772657373000000006044820152606401610590565b6000826040015151116110d65760405162461bcd60e51b8152602060048201526015602482015274526573756c7473207374696c6c2070656e64696e6760581b6044820152606401610590565b60006110e183611376565b6101c15460405163087b396960e41b81529192506001600160a01b0316906387b39690906111159033908590600401612bba565b600060405180830381600087803b15801561112f57600080fd5b505af1158015611143573d6000803e3d6000fd5b5050505081156111be576101c1546001600160a01b0316630c9ac092336040516001600160e01b031960e084901b1681526001600160a01b039091166004820152602401600060405180830381600087803b1580156111a157600080fd5b505af11580156111b5573d6000803e3d6000fd5b50505050505050565b3360008181526101c260208181526040808420600181015485526101c5835290842080546001600160a01b0319169055938352526111fc82826123b8565b600182016000905560028201600061121491906123b8565b5050610d456112203390565b6101c390611745565b600082815260976020526040902060010154611244816112bd565b6105cc83836112e9565b60006001600160e01b03198216637965db0b60e01b148061054e57506301ffc9a760e01b6001600160e01b031983161461054e565b60008281526101c560209081526040808320546001600160a01b031683526101c2825290912082516105cc9260029092019184019061236d565b61066b813361175a565b6112d182826117be565b600082815260c9602052604090206105cc9082611701565b6112f38282611844565b600082815260c9602052604090206105cc9082611745565b6113136118ab565b6033805460ff191690557f5db9ee0a495bf2e6ff9c91a7834c1ba4fdd244a5e8aa4e537bd38aeae4b073aa335b6040516001600160a01b03909116815260200160405180910390a1565b60606000610d63836118f4565b6000610d638383611950565b6101c05481516040516396908f5160e01b81526060926000926001600160a01b03909116916396908f51916113ad91600401612bde565b60006040518083038186803b1580156113c557600080fd5b505afa1580156113d9573d6000803e3d6000fd5b505050506040513d6000823e601f3d908101601f191682016040526114019190810190612bf1565b90506060806000611410610822565b88515192955090935091506001600160401b03811115611432576114326125a9565b60405190808252806020026020018201604052801561146b57816020015b6114586123d6565b8152602001906001900390816114505790505b50945060005b86515181101561154e5760008760000151828151811061149357611493612b37565b6020026020010151905060006114ca896040015184815181106114b8576114b8612b37565b6020026020010151612710600e6119c0565b905060006114f4826000815181106114e4576114e4612b37565b6020026020010151878988611a6a565b905061151b8389868151811061150c5761150c612b37565b60200260200101518385611b14565b89858151811061152d5761152d612b37565b6020026020010181905250505050808061154690612b7b565b915050611471565b5050505050919050565b600054610100900460ff1661157f5760405162461bcd60e51b815260040161059090612c90565b611587611eb1565b565b600054610100900460ff166115875760405162461bcd60e51b815260040161059090612c90565b600054610100900460ff166115d75760405162461bcd60e51b815260040161059090612c90565b6115e084611ee4565b610d4584848484611f14565b6115f4611f96565b6033805460ff191660011790557f62e78cea01bee320cd4e420270b5ea74000d11b0c9f74754ebdbfc544b05a2586113403390565b60008061163883614e20612cdb565b61164590620186a0612d07565b61012d5461012e5461012f546040516305d3b1d360e41b815260048101929092526001600160401b0381166024830152600160401b900461ffff16604482015263ffffffff8084166064830152861660848201529192506001600160a01b031690635d3b1d309060a401602060405180830381600087803b1580156116c957600080fd5b505af11580156116dd573d6000803e3d6000fd5b505050506040513d601f19601f82011682018060405250810190610d639190612d2f565b6000610d63836001600160a01b038416611fdc565b6000610d63838361202b565b6000610d638383611fdc565b600061098c848484612055565b600061054e825490565b6000610d63836001600160a01b038416612072565b6117648282610d6a565b6105a35761177c816001600160a01b03166014612165565b611787836020612165565b604051602001611798929190612d74565b60408051601f198184030181529082905262461bcd60e51b825261059091600401612de9565b6117c88282610d6a565b6105a35760008281526097602090815260408083206001600160a01b03851684529091529020805460ff191660011790556118003390565b6001600160a01b0316816001600160a01b0316837f2f8788117e7eff1d82e926ec794901d17c78024a50270940304540a733656f0d60405160405180910390a45050565b61184e8282610d6a565b156105a35760008281526097602090815260408083206001600160a01b0385168085529252808320805460ff1916905551339285917ff6391f5c32d9c69d2a47ea670b442974b53935d1edc7fd64eb21e047a839171b9190a45050565b60335460ff166115875760405162461bcd60e51b815260206004820152601460248201527314185d5cd8589b194e881b9bdd081c185d5cd95960621b6044820152606401610590565b60608160000180548060200260200160405190810160405280929190818152602001828054801561194457602002820191906000526020600020905b815481526020019060010190808311611930575b50505050509050919050565b60008181526002830160205260408120548015158061197457506119748484612300565b610d635760405162461bcd60e51b815260206004820152601e60248201527f456e756d657261626c654d61703a206e6f6e6578697374656e74206b657900006044820152606401610590565b60606000826001600160401b038111156119dc576119dc6125a9565b604051908082528060200260200182016040528015611a05578160200160208202803683370190505b5090508460005b84811015611a5f576000611a208784612e32565b9050611a2c8784612e46565b925080848381518110611a4157611a41612b37565b60209081029190910101525080611a5781612b7b565b915050611a0c565b509095945050505050565b60008260018451611a7b9190612e5a565b81518110611a8b57611a8b612b37565b6020026020010151905060008286611aa39190612e32565b905060005b8551811015611b0a57858181518110611ac357611ac3612b37565b6020026020010151821115611ad757611af8565b848181518110611ae957611ae9612b37565b60200260200101519250611b0a565b80611b0281612b7b565b915050611aa8565b5050949350505050565b611b1c6123d6565b600084611b2a576001611b2d565b60095b60ff1685611b3d57611388611b41565b610bb85b61ffff1684600181518110611b5857611b58612b37565b6020026020010151611b6a9190612e32565b109050600085611b7b576001611b7e565b602d5b60ff1686611b8e576103e8611b92565b610bb85b61ffff1685600181518110611ba957611ba9612b37565b6020026020010151611bbb9190612e32565b109050600082611bd85781611bd1576000611bdb565b6001611bdb565b60025b60008781526101c66020526040812060ff92909216925090611bfe90600261136a565b606487600281518110611c1357611c13612b37565b6020026020010151611c259190612e32565b10611c31576000611c34565b60015b60008881526101c66020526040812060ff92909216925090611c5790600361136a565b60008981526101c66020526040812091925090611c7590600461136a565b90506000601589600381518110611c8e57611c8e612b37565b6020026020010151611ca09190612e32565b60408051600580825260c08201909252919250600091906020820160a08036833701905050905060005b8151811015611d4a5760008b611ce1836004612b63565b81518110611cf157611cf1612b37565b602002602001015190506000600482611d0a9190612e32565b9050611d17603383612e32565b848481518110611d2957611d29612b37565b60200260200101818152505050508080611d4290612b7b565b915050611cca565b506040518061010001604052808e81526020018c815260200160008152602001600081526020016040518060c00160405280888152602001898152602001878152602001868152602001858152602001600a81525081526020016040518060c001604052806032815260200184600081518110611dc957611dc9612b37565b6020026020010151815260200184600181518110611de957611de9612b37565b6020026020010151815260200184600281518110611e0957611e09612b37565b6020026020010151815260200184600381518110611e2957611e29612b37565b6020026020010151815260200184600481518110611e4957611e49612b37565b6020026020010151815250815260200160405180604001604052806103e781526020016103e781525081526020016040518060800160405280600081526020016000815260200160008152602001600081525081525098505050505050505050949350505050565b600054610100900460ff16611ed85760405162461bcd60e51b815260040161059090612c90565b6033805460ff19169055565b600054610100900460ff16611f0b5760405162461bcd60e51b815260040161059090612c90565b61066b8161230c565b600054610100900460ff16611f3b5760405162461bcd60e51b815260040161059090612c90565b61012d80546001600160a01b039095166001600160a01b03199095169490941790935561012f805461012e9390935561ffff909316600160401b0269ffffffffffffffffffff199092166001600160401b0390911617179055565b60335460ff16156115875760405162461bcd60e51b815260206004820152601060248201526f14185d5cd8589b194e881c185d5cd95960821b6044820152606401610590565b60008181526001830160205260408120546120235750815460018181018455600084815260208082209093018490558454848252828601909352604090209190915561054e565b50600061054e565b600082600001828154811061204257612042612b37565b9060005260206000200154905092915050565b6000828152600284016020526040812082905561098c8484611722565b6000818152600183016020526040812054801561215b576000612096600183612e5a565b85549091506000906120aa90600190612e5a565b905081811461210f5760008660000182815481106120ca576120ca612b37565b90600052602060002001549050808760000184815481106120ed576120ed612b37565b6000918252602080832090910192909255918252600188019052604090208390555b855486908061212057612120612e71565b60019003818190600052602060002001600090559055856001016000868152602001908152602001600020600090556001935050505061054e565b600091505061054e565b60606000612174836002612e87565b61217f906002612b63565b6001600160401b03811115612196576121966125a9565b6040519080825280601f01601f1916602001820160405280156121c0576020820181803683370190505b509050600360fc1b816000815181106121db576121db612b37565b60200101906001600160f81b031916908160001a905350600f60fb1b8160018151811061220a5761220a612b37565b60200101906001600160f81b031916908160001a905350600061222e846002612e87565b612239906001612b63565b90505b60018111156122b1576f181899199a1a9b1b9c1cb0b131b232b360811b85600f166010811061226d5761226d612b37565b1a60f81b82828151811061228357612283612b37565b60200101906001600160f81b031916908160001a90535060049490941c936122aa81612ea6565b905061223c565b508315610d635760405162461bcd60e51b815260206004820181905260248201527f537472696e67733a20686578206c656e67746820696e73756666696369656e746044820152606401610590565b6000610d638383612355565b600054610100900460ff166123335760405162461bcd60e51b815260040161059090612c90565b60fb80546001600160a01b0319166001600160a01b0392909216919091179055565b60008181526001830160205260408120541515610d63565b8280548282559060005260206000209081019282156123a8579160200282015b828111156123a857825182559160200191906001019061238d565b506123b49291506124cc565b5090565b508054600082559060005260206000209081019061066b91906124cc565b604051806101000160405280600081526020016000815260200160008152602001600081526020016124376040518060c001604052806000815260200160008152602001600081526020016000815260200160008152602001600081525090565b81526020016124756040518060c001604052806000815260200160008152602001600081526020016000815260200160008152602001600081525090565b8152602001612497604051806040016040528060008152602001600081525090565b81526020016124c76040518060800160405280600081526020016000815260200160008152602001600081525090565b905290565b5b808211156123b457600081556001016124cd565b80356001600160a01b03811681146124f857600080fd5b919050565b60006020828403121561250f57600080fd5b610d63826124e1565b600081518084526020808501945080840160005b838110156125485781518752958201959082019060010161252c565b509495945050505050565b831515815282151560208201526060604082015260006125766060830184612518565b95945050505050565b60006020828403121561259157600080fd5b81356001600160e01b031981168114610d6357600080fd5b634e487b7160e01b600052604160045260246000fd5b604051601f8201601f191681016001600160401b03811182821017156125e7576125e76125a9565b604052919050565b60006001600160401b03821115612608576126086125a9565b5060051b60200190565b600082601f83011261262357600080fd5b81356020612638612633836125ef565b6125bf565b82815260059290921b8401810191818101908684111561265757600080fd5b8286015b84811015612672578035835291830191830161265b565b509695505050505050565b6000806040838503121561269057600080fd5b8235915060208301356001600160401b038111156126ad57600080fd5b6126b985828601612612565b9150509250929050565b6000602082840312156126d557600080fd5b5035919050565b600080604083850312156126ef57600080fd5b823591506126ff602084016124e1565b90509250929050565b60408152600083516060604084015261272460a0840182612518565b9050602085015160608401526040850151603f1984830301608085015261274b8282612518565b9250505082151560208301529392505050565b6060815260006127716060830186612518565b82810360208401526127838186612518565b915050826040830152949350505050565b600081518084526020808501945080840160005b838110156125485781518051885283810151848901526040808201519089015260608082015190890152608080820151612819828b0182805182526020810151602083015260408101516040830152606081015160608301526080810151608083015260a081015160a08301525050565b505060a08181015180516101408b015260208101516101608b015260408101516101808b015260608101516101a08b015260808101516101c08b0152908101516101e08a01525060c081015180516102008a015284015161022089015260e0015180516102408901526020810151610260890152604081015161028089015260608101516102a0890152506102c09690960195908201906001016127a8565b602081526000610d636020830184612794565b6000602082840312156128dd57600080fd5b81356001600160401b038111156128f357600080fd5b61098c84828501612612565b6000806040838503121561291257600080fd5b50508035926020909101359150565b6000806040838503121561293457600080fd5b82356001600160401b038082111561294b57600080fd5b61295786838701612612565b935060209150818501358181111561296e57600080fd5b8501601f8101871361297f57600080fd5b803561298d612633826125ef565b81815260059190911b820184019084810190898311156129ac57600080fd5b8584015b838110156129e4578035868111156129c85760008081fd5b6129d68c8983890101612612565b8452509186019186016129b0565b508096505050505050509250929050565b60008060408385031215612a0857600080fd5b612a11836124e1565b915060208301356001600160401b038111156126ad57600080fd5b600082601f830112612a3d57600080fd5b81516020612a4d612633836125ef565b82815260059290921b84018101918181019086841115612a6c57600080fd5b8286015b848110156126725780518352918301918301612a70565b600060208284031215612a9957600080fd5b81516001600160401b0380821115612ab057600080fd5b9083019060608286031215612ac457600080fd5b604051606081018181108382111715612adf57612adf6125a9565b604052825182811115612af157600080fd5b612afd87828601612a2c565b82525060208301516020820152604083015182811115612b1c57600080fd5b612b2887828601612a2c565b60408301525095945050505050565b634e487b7160e01b600052603260045260246000fd5b634e487b7160e01b600052601160045260246000fd5b60008219821115612b7657612b76612b4d565b500190565b6000600019821415612b8f57612b8f612b4d565b5060010190565b6001600160a01b038316815260406020820181905260009061098c90830184612518565b6001600160a01b038316815260406020820181905260009061098c90830184612794565b602081526000610d636020830184612518565b60006020808385031215612c0457600080fd5b82516001600160401b03811115612c1a57600080fd5b8301601f81018513612c2b57600080fd5b8051612c39612633826125ef565b81815260059190911b82018301908381019087831115612c5857600080fd5b928401925b82841015612c855783518015158114612c765760008081fd5b82529284019290840190612c5d565b979650505050505050565b6020808252602b908201527f496e697469616c697a61626c653a20636f6e7472616374206973206e6f74206960408201526a6e697469616c697a696e6760a81b606082015260800190565b600063ffffffff80831681851681830481118215151615612cfe57612cfe612b4d565b02949350505050565b600063ffffffff808316818516808303821115612d2657612d26612b4d565b01949350505050565b600060208284031215612d4157600080fd5b5051919050565b60005b83811015612d63578181015183820152602001612d4b565b83811115610d455750506000910152565b7f416363657373436f6e74726f6c3a206163636f756e7420000000000000000000815260008351612dac816017850160208801612d48565b7001034b99036b4b9b9b4b733903937b6329607d1b6017918401918201528351612ddd816028840160208801612d48565b01602801949350505050565b6020815260008251806020840152612e08816040850160208701612d48565b601f01601f19169190910160400192915050565b634e487b7160e01b600052601260045260246000fd5b600082612e4157612e41612e1c565b500690565b600082612e5557612e55612e1c565b500490565b600082821015612e6c57612e6c612b4d565b500390565b634e487b7160e01b600052603160045260246000fd5b6000816000190483118215151615612ea157612ea1612b4d565b500290565b600081612eb557612eb5612b4d565b50600019019056fea49807205ce4d355092ef5a8a18f56e8913cf4a201fbe287825b095693c21775a2646970667358221220ed0ca4513245b2b12f69018ec673b6fb432aa176dd770734e6c612abfe10093964736f6c63430008090033",
  "linkReferences": {},
  "deployedLinkReferences": {}
}