{
  "_format": "hh-sol-artifact-1",
  "contractName": "HealerHayleyAvalanche",
  "sourceName": "contracts/npc/HealerHayley/HealerHayleyAvalanche.sol",
  "abi": [
    {
      "inputs": [],
      "stateMutability": "nonpayable",
      "type": "constructor"
    },
    {
      "inputs": [
        {
          "internalType": "address",
          "name": "have",
          "type": "address"
        },
        {
          "internalType": "address",
          "name": "want",
          "type": "address"
        }
      ],
      "name": "OnlyCoordinatorCanFulfill",
      "type": "error"
    },
    {
      "anonymous": false,
      "inputs": [
        {
          "indexed": true,
          "internalType": "uint256",
          "name": "requestId",
          "type": "uint256"
        },
        {
          "indexed": false,
          "internalType": "uint256[]",
          "name": "randomWords",
          "type": "uint256[]"
        }
      ],
      "name": "HealRequestFulfilled",
      "type": "event"
    },
    {
      "anonymous": false,
      "inputs": [
        {
          "indexed": true,
          "internalType": "address",
          "name": "from",
          "type": "address"
        },
        {
          "indexed": true,
          "internalType": "uint256",
          "name": "requestId",
          "type": "uint256"
        },
        {
          "indexed": false,
          "internalType": "uint256[]",
          "name": "tokenIds",
          "type": "uint256[]"
        }
      ],
      "name": "HealRequested",
      "type": "event"
    },
    {
      "anonymous": false,
      "inputs": [
        {
          "indexed": true,
          "internalType": "address",
          "name": "from",
          "type": "address"
        },
        {
          "indexed": true,
          "internalType": "uint256",
          "name": "requestId",
          "type": "uint256"
        },
        {
          "indexed": false,
          "internalType": "uint256",
          "name": "tokenId",
          "type": "uint256"
        },
        {
          "indexed": false,
          "internalType": "uint256[]",
          "name": "values",
          "type": "uint256[]"
        }
      ],
      "name": "Healed",
      "type": "event"
    },
    {
      "anonymous": false,
      "inputs": [
        {
          "indexed": false,
          "internalType": "uint8",
          "name": "version",
          "type": "uint8"
        }
      ],
      "name": "Initialized",
      "type": "event"
    },
    {
      "anonymous": false,
      "inputs": [
        {
          "indexed": false,
          "internalType": "address",
          "name": "account",
          "type": "address"
        }
      ],
      "name": "Paused",
      "type": "event"
    },
    {
      "anonymous": false,
      "inputs": [
        {
          "indexed": true,
          "internalType": "bytes32",
          "name": "role",
          "type": "bytes32"
        },
        {
          "indexed": true,
          "internalType": "bytes32",
          "name": "previousAdminRole",
          "type": "bytes32"
        },
        {
          "indexed": true,
          "internalType": "bytes32",
          "name": "newAdminRole",
          "type": "bytes32"
        }
      ],
      "name": "RoleAdminChanged",
      "type": "event"
    },
    {
      "anonymous": false,
      "inputs": [
        {
          "indexed": true,
          "internalType": "bytes32",
          "name": "role",
          "type": "bytes32"
        },
        {
          "indexed": true,
          "internalType": "address",
          "name": "account",
          "type": "address"
        },
        {
          "indexed": true,
          "internalType": "address",
          "name": "sender",
          "type": "address"
        }
      ],
      "name": "RoleGranted",
      "type": "event"
    },
    {
      "anonymous": false,
      "inputs": [
        {
          "indexed": true,
          "internalType": "bytes32",
          "name": "role",
          "type": "bytes32"
        },
        {
          "indexed": true,
          "internalType": "address",
          "name": "account",
          "type": "address"
        },
        {
          "indexed": true,
          "internalType": "address",
          "name": "sender",
          "type": "address"
        }
      ],
      "name": "RoleRevoked",
      "type": "event"
    },
    {
      "anonymous": false,
      "inputs": [
        {
          "indexed": false,
          "internalType": "address",
          "name": "account",
          "type": "address"
        }
      ],
      "name": "Unpaused",
      "type": "event"
    },
    {
      "inputs": [],
      "name": "ADMIN_ROLE",
      "outputs": [
        {
          "internalType": "bytes32",
          "name": "",
          "type": "bytes32"
        }
      ],
      "stateMutability": "view",
      "type": "function"
    },
    {
      "inputs": [],
      "name": "CONTRACT_ROLE",
      "outputs": [
        {
          "internalType": "bytes32",
          "name": "",
          "type": "bytes32"
        }
      ],
      "stateMutability": "view",
      "type": "function"
    },
    {
      "inputs": [],
      "name": "DEFAULT_ADMIN_ROLE",
      "outputs": [
        {
          "internalType": "bytes32",
          "name": "",
          "type": "bytes32"
        }
      ],
      "stateMutability": "view",
      "type": "function"
    },
    {
      "inputs": [
        {
          "internalType": "uint256[]",
          "name": "affected",
          "type": "uint256[]"
        }
      ],
      "name": "checkAffected",
      "outputs": [
        {
          "internalType": "bool[]",
          "name": "",
          "type": "bool[]"
        }
      ],
      "stateMutability": "view",
      "type": "function"
    },
    {
      "inputs": [
        {
          "internalType": "address",
          "name": "_address",
          "type": "address"
        }
      ],
      "name": "clearHealRequestOf",
      "outputs": [],
      "stateMutability": "nonpayable",
      "type": "function"
    },
    {
      "inputs": [
        {
          "internalType": "bytes32",
          "name": "role",
          "type": "bytes32"
        }
      ],
      "name": "getRoleAdmin",
      "outputs": [
        {
          "internalType": "bytes32",
          "name": "",
          "type": "bytes32"
        }
      ],
      "stateMutability": "view",
      "type": "function"
    },
    {
      "inputs": [
        {
          "internalType": "bytes32",
          "name": "role",
          "type": "bytes32"
        },
        {
          "internalType": "uint256",
          "name": "index",
          "type": "uint256"
        }
      ],
      "name": "getRoleMember",
      "outputs": [
        {
          "internalType": "address",
          "name": "",
          "type": "address"
        }
      ],
      "stateMutability": "view",
      "type": "function"
    },
    {
      "inputs": [
        {
          "internalType": "bytes32",
          "name": "role",
          "type": "bytes32"
        }
      ],
      "name": "getRoleMemberCount",
      "outputs": [
        {
          "internalType": "uint256",
          "name": "",
          "type": "uint256"
        }
      ],
      "stateMutability": "view",
      "type": "function"
    },
    {
      "inputs": [
        {
          "internalType": "bytes32",
          "name": "role",
          "type": "bytes32"
        },
        {
          "internalType": "address",
          "name": "account",
          "type": "address"
        }
      ],
      "name": "grantRole",
      "outputs": [],
      "stateMutability": "nonpayable",
      "type": "function"
    },
    {
      "inputs": [
        {
          "internalType": "bytes32",
          "name": "role",
          "type": "bytes32"
        },
        {
          "internalType": "address",
          "name": "account",
          "type": "address"
        }
      ],
      "name": "hasRole",
      "outputs": [
        {
          "internalType": "bool",
          "name": "",
          "type": "bool"
        }
      ],
      "stateMutability": "view",
      "type": "function"
    },
    {
      "inputs": [],
      "name": "heal",
      "outputs": [],
      "stateMutability": "nonpayable",
      "type": "function"
    },
    {
      "inputs": [],
      "name": "initialize",
      "outputs": [],
      "stateMutability": "nonpayable",
      "type": "function"
    },
    {
      "inputs": [],
      "name": "pause",
      "outputs": [],
      "stateMutability": "nonpayable",
      "type": "function"
    },
    {
      "inputs": [],
      "name": "paused",
      "outputs": [
        {
          "internalType": "bool",
          "name": "",
          "type": "bool"
        }
      ],
      "stateMutability": "view",
      "type": "function"
    },
    {
      "inputs": [
        {
          "internalType": "address",
          "name": "_address",
          "type": "address"
        }
      ],
      "name": "pendingHealOf",
      "outputs": [
        {
          "internalType": "bool",
          "name": "exists",
          "type": "bool"
        },
        {
          "internalType": "bool",
          "name": "ready",
          "type": "bool"
        },
        {
          "internalType": "uint256[]",
          "name": "ids",
          "type": "uint256[]"
        }
      ],
      "stateMutability": "view",
      "type": "function"
    },
    {
      "inputs": [
        {
          "internalType": "uint256",
          "name": "requestId",
          "type": "uint256"
        },
        {
          "internalType": "uint256[]",
          "name": "randomWords",
          "type": "uint256[]"
        }
      ],
      "name": "rawFulfillRandomWords",
      "outputs": [],
      "stateMutability": "nonpayable",
      "type": "function"
    },
    {
      "inputs": [],
      "name": "remainingAffected",
      "outputs": [
        {
          "internalType": "uint256[]",
          "name": "",
          "type": "uint256[]"
        },
        {
          "internalType": "uint256[]",
          "name": "",
          "type": "uint256[]"
        }
      ],
      "stateMutability": "view",
      "type": "function"
    },
    {
      "inputs": [
        {
          "internalType": "bytes32",
          "name": "role",
          "type": "bytes32"
        },
        {
          "internalType": "address",
          "name": "account",
          "type": "address"
        }
      ],
      "name": "renounceRole",
      "outputs": [],
      "stateMutability": "nonpayable",
      "type": "function"
    },
    {
      "inputs": [
        {
          "internalType": "uint256[]",
          "name": "tokenIds",
          "type": "uint256[]"
        }
      ],
      "name": "requestHeal",
      "outputs": [],
      "stateMutability": "nonpayable",
      "type": "function"
    },
    {
      "inputs": [
        {
          "internalType": "bytes32",
          "name": "role",
          "type": "bytes32"
        },
        {
          "internalType": "address",
          "name": "account",
          "type": "address"
        }
      ],
      "name": "revokeRole",
      "outputs": [],
      "stateMutability": "nonpayable",
      "type": "function"
    },
    {
      "inputs": [
        {
          "internalType": "uint256[]",
          "name": "affected",
          "type": "uint256[]"
        }
      ],
      "name": "setAffected",
      "outputs": [],
      "stateMutability": "nonpayable",
      "type": "function"
    },
    {
      "inputs": [
        {
          "internalType": "bytes4",
          "name": "interfaceId",
          "type": "bytes4"
        }
      ],
      "name": "supportsInterface",
      "outputs": [
        {
          "internalType": "bool",
          "name": "",
          "type": "bool"
        }
      ],
      "stateMutability": "view",
      "type": "function"
    },
    {
      "inputs": [],
      "name": "unpause",
      "outputs": [],
      "stateMutability": "nonpayable",
      "type": "function"
    }
  ],
  "bytecode": "0x608060405234801561001057600080fd5b5061001961001e565b6100de565b600054610100900460ff161561008a5760405162461bcd60e51b815260206004820152602760248201527f496e697469616c697a61626c653a20636f6e747261637420697320696e697469604482015266616c697a696e6760c81b606482015260840160405180910390fd5b60005460ff90811610156100dc576000805460ff191660ff9081179091556040519081527f7f26b83ff96e1f2b6a682f133852f6798a09c465da95921460cefb38474024989060200160405180910390a15b565b6121a980620000ee6000396000f3fe608060405234801561001057600080fd5b506004361061014d5760003560e01c80638129fc1c116100c3578063a217fddf1161007c578063a217fddf146102d1578063c3524d4d146102d9578063ca15c873146102ef578063d547741f14610302578063dad97a4014610315578063edd6cb471461032857600080fd5b80638129fc1c1461025057806383a413d2146102585780638456cb591461026b578063890d152e146102735780639010d07c1461029357806391d14854146102be57600080fd5b80632f2ff15d116101155780632f2ff15d146101ef57806336568abe146102025780633f4ba83a1461021557806341fa92cd1461021d5780635c975abb1461023057806375b238fc1461023b57600080fd5b806301ffc9a71461015257806303fe46ab1461017a5780630434fe0b146101af5780631fe543e3146101b9578063248a9ca3146101cc575b600080fd5b610165610160366004611b5c565b61034a565b60405190151581526020015b60405180910390f35b6101a17f364d3d7565c7a8300c96fd53e065d19b65848d7b23b3191adcd55621c744223c81565b604051908152602001610171565b6101b7610375565b005b6101b76101c7366004611c37565b61049c565b6101a16101da366004611c7e565b60009081526097602052604090206001015490565b6101b76101fd366004611cb3565b6104e6565b6101b7610210366004611cb3565b610510565b6101b761058a565b6101b761022b366004611cdf565b6105ad565b60335460ff16610165565b6101a160008051602061215483398151915281565b6101b7610645565b6101b7610266366004611d1c565b61081b565b6101b761097c565b610286610281366004611cdf565b61099c565b6040516101719190611d37565b6102a66102a1366004611d7d565b610a5b565b6040516001600160a01b039091168152602001610171565b6101656102cc366004611cb3565b610a7a565b6101a1600081565b6102e1610aa5565b604051610171929190611dda565b6101a16102fd366004611c7e565b610ac6565b6101b7610310366004611cb3565b610add565b6101b7610323366004611cdf565b610b02565b61033b610336366004611d1c565b610cfc565b60405161017193929190611e08565b60006001600160e01b03198216635a05180f60e01b148061036f575061036f82610d8b565b92915050565b3360009081526101c16020526040902060018101546103db5760405162461bcd60e51b815260206004820152601c60248201527f4e6f2070656e64696e6720686174636820696e2070726f67726573730000000060448201526064015b60405180910390fd5b60028101546104245760405162461bcd60e51b8152602060048201526015602482015274526573756c7473207374696c6c2070656e64696e6760581b60448201526064016103d2565b61042d33610dc0565b3360008181526101c160208181526040808420600181015485526101c4835290842080546001600160a01b03191690559383525261046b8282611ade565b60018201600090556002820160006104839190611ade565b505061049861048f3390565b6101c290610ffa565b5050565b60fb546001600160a01b031633146104dc5760fb5460405163073e64fd60e21b81523360048201526001600160a01b0390911660248201526044016103d2565b610498828261100f565b60008281526097602052604090206001015461050181611086565b61050b8383611090565b505050565b6001600160a01b03811633146105805760405162461bcd60e51b815260206004820152602f60248201527f416363657373436f6e74726f6c3a2063616e206f6e6c792072656e6f756e636560448201526e103937b632b9903337b91039b2b63360891b60648201526084016103d2565b61049882826110b2565b6000805160206121548339815191526105a281611086565b6105aa6110d4565b50565b6000805160206121548339815191526105c581611086565b60005b825181101561050b576105ff8382815181106105e6576105e6611e2b565b60200260200101516101c761112690919063ffffffff16565b6106335761063183828151811061061857610618611e2b565b60200260200101516101c561113e90919063ffffffff16565b505b8061063d81611e57565b9150506105c8565b600054610100900460ff16158080156106655750600054600160ff909116105b8061067f5750303b15801561067f575060005460ff166001145b6106e25760405162461bcd60e51b815260206004820152602e60248201527f496e697469616c697a61626c653a20636f6e747261637420697320616c72656160448201526d191e481a5b9a5d1a585b1a5e995960921b60648201526084016103d2565b6000805460ff191660011790558015610705576000805461ff0019166101001790555b61070d61114a565b61071561117b565b73d5d517abe5cf79b7e95ec98db0f0277788aff6347f83250c5584ffa93feb6ee082981c5ebe484c865196750b39835ad4f13780435d601d600361075b848484846111a2565b610766600033611090565b61077e60008051602061215483398151915233611090565b6107a87f364d3d7565c7a8300c96fd53e065d19b65848d7b23b3191adcd55621c744223c33611090565b50506101c080546001600160a01b03191673454a0e479ac78e508a95880216c06f50bf3c321c179055505080156105aa576000805461ff0019169055604051600181527f7f26b83ff96e1f2b6a682f133852f6798a09c465da95921460cefb38474024989060200160405180910390a150565b60008051602061215483398151915261083381611086565b6001600160a01b03821660009081526101c160209081526040808320815181546080948102820185019093526060810183815290939192849284919084018282801561089e57602002820191906000526020600020905b81548152602001906001019080831161088a575b50505050508152602001600182015481526020016002820180548060200260200160405190810160405280929190818152602001828054801561090057602002820191906000526020600020905b8154815260200190600101908083116108ec575b5050509190925250505060208082015160009081526101c48252604080822080546001600160a01b03191690556001600160a01b03871682526101c190925290812091925061094f8282611ade565b60018201600090556002820160006109679190611ade565b5061097690506101c284610ffa565b50505050565b60008051602061215483398151915261099481611086565b6105aa6111de565b60606000825167ffffffffffffffff8111156109ba576109ba611b86565b6040519080825280602002602001820160405280156109e3578160200160208202803683370190505b50905060005b8351811015610a5457610a20848281518110610a0757610a07611e2b565b60200260200101516101c561112690919063ffffffff16565b828281518110610a3257610a32611e2b565b9115156020928302919091019091015280610a4c81611e57565b9150506109e9565b5092915050565b600082815260c960205260408120610a73908361121b565b9392505050565b60009182526097602090815260408084206001600160a01b0393909316845291905290205460ff1690565b606080610ab36101c5611227565b610abe6101c7611227565b915091509091565b600081815260c96020526040812061036f90611234565b600082815260976020526040902060010154610af881611086565b61050b83836110b2565b600a81511115610b4a5760405162461bcd60e51b815260206004820152601360248201527213585e1a5b5d5b480c4c081c195c881a19585b606a1b60448201526064016103d2565b6000815111610b8e5760405162461bcd60e51b815260206004820152601060248201526f139bc81d1bdad95b92591cc81cd95b9d60821b60448201526064016103d2565b60005b8151811015610bff57610baf828281518110610a0757610a07611e2b565b610bed5760405162461bcd60e51b815260206004820152600f60248201526e125b9d985b1a59081d1bdad95b9259608a1b60448201526064016103d2565b80610bf781611e57565b915050610b91565b503360009081526101c160205260409020600181015415610c625760405162461bcd60e51b815260206004820152601960248201527f4578697374696e67206865616c20696e2070726f67726573730000000000000060448201526064016103d2565b610c6c825161123e565b60018201558151610c839082906020850190611afc565b50600181015460009081526101c46020526040902080546001600160a01b03191633908117909155610cb8906101c290611317565b50600181015460405133907fca6084e96cd341333e309e3454804c777740cc7a7e3be864e4b4d216fc5fd5a390610cf0908590611e72565b60405180910390a35050565b6001600160a01b03811660009081526101c1602090815260408083206001810154600282015482548451818702810187019095528085528695606095931515939215159285929091839190830182828015610d7657602002820191906000526020600020905b815481526020019060010190808311610d62575b50505050509050935093509350509193909250565b60006001600160e01b03198216637965db0b60e01b148061036f57506301ffc9a760e01b6001600160e01b031983161461036f565b6001600160a01b03811660009081526101c160205260408082208151600580825260c0820190935290929181602001602082028036833701905050905060095b600e811015610e43578082610e16600983611ead565b81518110610e2657610e26611e2b565b602090810291909101015280610e3b81611e57565b915050610e00565b5060005b8254811015610976576000610e7f846002018381548110610e6a57610e6a611e2b565b9060005260206000200154612710600561132c565b9050610eb5846000018381548110610e9957610e99611e2b565b90600052602060002001546101c56113d790919063ffffffff16565b50610eea846000018381548110610ece57610ece611e2b565b90600052602060002001546101c761113e90919063ffffffff16565b506000610ef6826113e3565b6101c05486549192506001600160a01b0316906364cb59d690879086908110610f2157610f21611e2b565b906000526020600020015486846040518463ffffffff1660e01b8152600401610f4c93929190611ec4565b600060405180830381600087803b158015610f6657600080fd5b505af1158015610f7a573d6000803e3d6000fd5b505050508460010154866001600160a01b03167f46cbc1e1e88873d617e82d8c844be959dbe88a4e2ee98b5474343ae807d602ee876000018681548110610fc357610fc3611e2b565b906000526020600020015484604051610fdd929190611ef9565b60405180910390a350508080610ff290611e57565b915050610e47565b6000610a73836001600160a01b03841661146b565b60008281526101c460209081526040808320546001600160a01b031683526101c18252909120825161104992600290920191840190611afc565b50817f99e36fc74b992673404259ff258de58428f0b40739a724062b8537a9c4ea3b2c8260405161107a9190611f12565b60405180910390a25050565b6105aa813361155e565b61109a82826115c2565b600082815260c96020526040902061050b9082611317565b6110bc8282611648565b600082815260c96020526040902061050b9082610ffa565b6110dc6116af565b6033805460ff191690557f5db9ee0a495bf2e6ff9c91a7834c1ba4fdd244a5e8aa4e537bd38aeae4b073aa335b6040516001600160a01b03909116815260200160405180910390a1565b60008181526001830160205260408120541515610a73565b6000610a7383836116f8565b600054610100900460ff166111715760405162461bcd60e51b81526004016103d290611f25565b611179611747565b565b600054610100900460ff166111795760405162461bcd60e51b81526004016103d290611f25565b600054610100900460ff166111c95760405162461bcd60e51b81526004016103d290611f25565b6111d28461177a565b610976848484846117aa565b6111e661182d565b6033805460ff191660011790557f62e78cea01bee320cd4e420270b5ea74000d11b0c9f74754ebdbfc544b05a2586111093390565b6000610a738383611873565b60606000610a738361189d565b600061036f825490565b60008061124d83614e20611f70565b61125a90620186a0611f9c565b61012d5461012e5461012f546040516305d3b1d360e41b8152600481019290925267ffffffffffffffff81166024830152600160401b900461ffff16604482015263ffffffff8084166064830152861660848201529192506001600160a01b031690635d3b1d309060a401602060405180830381600087803b1580156112df57600080fd5b505af11580156112f3573d6000803e3d6000fd5b505050506040513d601f19601f82011682018060405250810190610a739190611fc4565b6000610a73836001600160a01b0384166116f8565b606060008267ffffffffffffffff81111561134957611349611b86565b604051908082528060200260200182016040528015611372578160200160208202803683370190505b5090508460005b848110156113cc57600061138d8784611ff3565b90506113998784612007565b9250808483815181106113ae576113ae611e2b565b602090810291909101015250806113c481611e57565b915050611379565b509095945050505050565b6000610a73838361146b565b60408051600580825260c08201909252606091600091906020820160a08036833701905050905060005b8151811015610a5457600284828151811061142a5761142a611e2b565b602002602001015161143c9190611ff3565b82828151811061144e5761144e611e2b565b60209081029190910101528061146381611e57565b91505061140d565b6000818152600183016020526040812054801561155457600061148f600183611ead565b85549091506000906114a390600190611ead565b90508181146115085760008660000182815481106114c3576114c3611e2b565b90600052602060002001549050808760000184815481106114e6576114e6611e2b565b6000918252602080832090910192909255918252600188019052604090208390555b85548690806115195761151961201b565b60019003818190600052602060002001600090559055856001016000868152602001908152602001600020600090556001935050505061036f565b600091505061036f565b6115688282610a7a565b61049857611580816001600160a01b031660146118f9565b61158b8360206118f9565b60405160200161159c92919061205d565b60408051601f198184030181529082905262461bcd60e51b82526103d2916004016120d2565b6115cc8282610a7a565b6104985760008281526097602090815260408083206001600160a01b03851684529091529020805460ff191660011790556116043390565b6001600160a01b0316816001600160a01b0316837f2f8788117e7eff1d82e926ec794901d17c78024a50270940304540a733656f0d60405160405180910390a45050565b6116528282610a7a565b156104985760008281526097602090815260408083206001600160a01b0385168085529252808320805460ff1916905551339285917ff6391f5c32d9c69d2a47ea670b442974b53935d1edc7fd64eb21e047a839171b9190a45050565b60335460ff166111795760405162461bcd60e51b815260206004820152601460248201527314185d5cd8589b194e881b9bdd081c185d5cd95960621b60448201526064016103d2565b600081815260018301602052604081205461173f5750815460018181018455600084815260208082209093018490558454848252828601909352604090209190915561036f565b50600061036f565b600054610100900460ff1661176e5760405162461bcd60e51b81526004016103d290611f25565b6033805460ff19169055565b600054610100900460ff166117a15760405162461bcd60e51b81526004016103d290611f25565b6105aa81611a95565b600054610100900460ff166117d15760405162461bcd60e51b81526004016103d290611f25565b61012d80546001600160a01b039095166001600160a01b03199095169490941790935561012f805461012e9390935561ffff909316600160401b0269ffffffffffffffffffff1990921667ffffffffffffffff90911617179055565b60335460ff16156111795760405162461bcd60e51b815260206004820152601060248201526f14185d5cd8589b194e881c185d5cd95960821b60448201526064016103d2565b600082600001828154811061188a5761188a611e2b565b9060005260206000200154905092915050565b6060816000018054806020026020016040519081016040528092919081815260200182805480156118ed57602002820191906000526020600020905b8154815260200190600101908083116118d9575b50505050509050919050565b60606000611908836002612105565b611913906002612124565b67ffffffffffffffff81111561192b5761192b611b86565b6040519080825280601f01601f191660200182016040528015611955576020820181803683370190505b509050600360fc1b8160008151811061197057611970611e2b565b60200101906001600160f81b031916908160001a905350600f60fb1b8160018151811061199f5761199f611e2b565b60200101906001600160f81b031916908160001a90535060006119c3846002612105565b6119ce906001612124565b90505b6001811115611a46576f181899199a1a9b1b9c1cb0b131b232b360811b85600f1660108110611a0257611a02611e2b565b1a60f81b828281518110611a1857611a18611e2b565b60200101906001600160f81b031916908160001a90535060049490941c93611a3f8161213c565b90506119d1565b508315610a735760405162461bcd60e51b815260206004820181905260248201527f537472696e67733a20686578206c656e67746820696e73756666696369656e7460448201526064016103d2565b600054610100900460ff16611abc5760405162461bcd60e51b81526004016103d290611f25565b60fb80546001600160a01b0319166001600160a01b0392909216919091179055565b50805460008255906000526020600020908101906105aa9190611b47565b828054828255906000526020600020908101928215611b37579160200282015b82811115611b37578251825591602001919060010190611b1c565b50611b43929150611b47565b5090565b5b80821115611b435760008155600101611b48565b600060208284031215611b6e57600080fd5b81356001600160e01b031981168114610a7357600080fd5b634e487b7160e01b600052604160045260246000fd5b600082601f830112611bad57600080fd5b8135602067ffffffffffffffff80831115611bca57611bca611b86565b8260051b604051601f19603f83011681018181108482111715611bef57611bef611b86565b604052938452858101830193838101925087851115611c0d57600080fd5b83870191505b84821015611c2c57813583529183019190830190611c13565b979650505050505050565b60008060408385031215611c4a57600080fd5b82359150602083013567ffffffffffffffff811115611c6857600080fd5b611c7485828601611b9c565b9150509250929050565b600060208284031215611c9057600080fd5b5035919050565b80356001600160a01b0381168114611cae57600080fd5b919050565b60008060408385031215611cc657600080fd5b82359150611cd660208401611c97565b90509250929050565b600060208284031215611cf157600080fd5b813567ffffffffffffffff811115611d0857600080fd5b611d1484828501611b9c565b949350505050565b600060208284031215611d2e57600080fd5b610a7382611c97565b6020808252825182820181905260009190848201906040850190845b81811015611d71578351151583529284019291840191600101611d53565b50909695505050505050565b60008060408385031215611d9057600080fd5b50508035926020909101359150565b600081518084526020808501945080840160005b83811015611dcf57815187529582019590820190600101611db3565b509495945050505050565b604081526000611ded6040830185611d9f565b8281036020840152611dff8185611d9f565b95945050505050565b83151581528215156020820152606060408201526000611dff6060830184611d9f565b634e487b7160e01b600052603260045260246000fd5b634e487b7160e01b600052601160045260246000fd5b6000600019821415611e6b57611e6b611e41565b5060010190565b6020808252825482820181905260008481528281209092916040850190845b81811015611d7157835483526001938401939285019201611e91565b600082821015611ebf57611ebf611e41565b500390565b838152606060208201526000611edd6060830185611d9f565b8281036040840152611eef8185611d9f565b9695505050505050565b828152604060208201526000611d146040830184611d9f565b602081526000610a736020830184611d9f565b6020808252602b908201527f496e697469616c697a61626c653a20636f6e7472616374206973206e6f74206960408201526a6e697469616c697a696e6760a81b606082015260800190565b600063ffffffff80831681851681830481118215151615611f9357611f93611e41565b02949350505050565b600063ffffffff808316818516808303821115611fbb57611fbb611e41565b01949350505050565b600060208284031215611fd657600080fd5b5051919050565b634e487b7160e01b600052601260045260246000fd5b60008261200257612002611fdd565b500690565b60008261201657612016611fdd565b500490565b634e487b7160e01b600052603160045260246000fd5b60005b8381101561204c578181015183820152602001612034565b838111156109765750506000910152565b7f416363657373436f6e74726f6c3a206163636f756e7420000000000000000000815260008351612095816017850160208801612031565b7001034b99036b4b9b9b4b733903937b6329607d1b60179184019182015283516120c6816028840160208801612031565b01602801949350505050565b60208152600082518060208401526120f1816040850160208701612031565b601f01601f19169190910160400192915050565b600081600019048311821515161561211f5761211f611e41565b500290565b6000821982111561213757612137611e41565b500190565b60008161214b5761214b611e41565b50600019019056fea49807205ce4d355092ef5a8a18f56e8913cf4a201fbe287825b095693c21775a2646970667358221220189a34d02bc708ab02621e611db0d28616c254658191a6f6fee55d06776b013064736f6c63430008090033",
  "linkReferences": {},
  "deployedLinkReferences": {}
}