{
  "_format": "hh-sol-artifact-1",
  "contractName": "xEVO",
  "sourceName": "contracts/ERC20/xEVO/xEVO.sol",
  "abi": [
    {
      "inputs": [],
      "stateMutability": "nonpayable",
      "type": "constructor"
    },
    {
      "anonymous": false,
      "inputs": [
        {
          "indexed": true,
          "internalType": "address",
          "name": "owner",
          "type": "address"
        },
        {
          "indexed": true,
          "internalType": "address",
          "name": "spender",
          "type": "address"
        },
        {
          "indexed": false,
          "internalType": "uint256",
          "name": "value",
          "type": "uint256"
        }
      ],
      "name": "Approval",
      "type": "event"
    },
    {
      "anonymous": false,
      "inputs": [
        {
          "indexed": false,
          "internalType": "uint8",
          "name": "version",
          "type": "uint8"
        }
      ],
      "name": "Initialized",
      "type": "event"
    },
    {
      "anonymous": false,
      "inputs": [
        {
          "indexed": false,
          "internalType": "address",
          "name": "account",
          "type": "address"
        }
      ],
      "name": "Paused",
      "type": "event"
    },
    {
      "anonymous": false,
      "inputs": [
        {
          "indexed": true,
          "internalType": "bytes32",
          "name": "role",
          "type": "bytes32"
        },
        {
          "indexed": true,
          "internalType": "bytes32",
          "name": "previousAdminRole",
          "type": "bytes32"
        },
        {
          "indexed": true,
          "internalType": "bytes32",
          "name": "newAdminRole",
          "type": "bytes32"
        }
      ],
      "name": "RoleAdminChanged",
      "type": "event"
    },
    {
      "anonymous": false,
      "inputs": [
        {
          "indexed": true,
          "internalType": "bytes32",
          "name": "role",
          "type": "bytes32"
        },
        {
          "indexed": true,
          "internalType": "address",
          "name": "account",
          "type": "address"
        },
        {
          "indexed": true,
          "internalType": "address",
          "name": "sender",
          "type": "address"
        }
      ],
      "name": "RoleGranted",
      "type": "event"
    },
    {
      "anonymous": false,
      "inputs": [
        {
          "indexed": true,
          "internalType": "bytes32",
          "name": "role",
          "type": "bytes32"
        },
        {
          "indexed": true,
          "internalType": "address",
          "name": "account",
          "type": "address"
        },
        {
          "indexed": true,
          "internalType": "address",
          "name": "sender",
          "type": "address"
        }
      ],
      "name": "RoleRevoked",
      "type": "event"
    },
    {
      "anonymous": false,
      "inputs": [
        {
          "indexed": true,
          "internalType": "address",
          "name": "from",
          "type": "address"
        },
        {
          "indexed": true,
          "internalType": "address",
          "name": "to",
          "type": "address"
        },
        {
          "indexed": false,
          "internalType": "uint256",
          "name": "value",
          "type": "uint256"
        }
      ],
      "name": "Transfer",
      "type": "event"
    },
    {
      "anonymous": false,
      "inputs": [
        {
          "indexed": false,
          "internalType": "address",
          "name": "account",
          "type": "address"
        }
      ],
      "name": "Unpaused",
      "type": "event"
    },
    {
      "inputs": [],
      "name": "ADMIN_ROLE",
      "outputs": [
        {
          "internalType": "bytes32",
          "name": "",
          "type": "bytes32"
        }
      ],
      "stateMutability": "view",
      "type": "function"
    },
    {
      "inputs": [],
      "name": "DEFAULT_ADMIN_ROLE",
      "outputs": [
        {
          "internalType": "bytes32",
          "name": "",
          "type": "bytes32"
        }
      ],
      "stateMutability": "view",
      "type": "function"
    },
    {
      "inputs": [],
      "name": "MINTER_ROLE",
      "outputs": [
        {
          "internalType": "bytes32",
          "name": "",
          "type": "bytes32"
        }
      ],
      "stateMutability": "view",
      "type": "function"
    },
    {
      "inputs": [
        {
          "internalType": "address",
          "name": "owner",
          "type": "address"
        },
        {
          "internalType": "address",
          "name": "spender",
          "type": "address"
        }
      ],
      "name": "allowance",
      "outputs": [
        {
          "internalType": "uint256",
          "name": "",
          "type": "uint256"
        }
      ],
      "stateMutability": "view",
      "type": "function"
    },
    {
      "inputs": [
        {
          "internalType": "address",
          "name": "spender",
          "type": "address"
        },
        {
          "internalType": "uint256",
          "name": "amount",
          "type": "uint256"
        }
      ],
      "name": "approve",
      "outputs": [
        {
          "internalType": "bool",
          "name": "",
          "type": "bool"
        }
      ],
      "stateMutability": "nonpayable",
      "type": "function"
    },
    {
      "inputs": [
        {
          "internalType": "address",
          "name": "account",
          "type": "address"
        }
      ],
      "name": "balanceOf",
      "outputs": [
        {
          "internalType": "uint256",
          "name": "",
          "type": "uint256"
        }
      ],
      "stateMutability": "view",
      "type": "function"
    },
    {
      "inputs": [
        {
          "internalType": "address[]",
          "name": "to",
          "type": "address[]"
        },
        {
          "internalType": "uint256[]",
          "name": "amount",
          "type": "uint256[]"
        }
      ],
      "name": "batchBurn",
      "outputs": [],
      "stateMutability": "nonpayable",
      "type": "function"
    },
    {
      "inputs": [
        {
          "internalType": "address[]",
          "name": "to",
          "type": "address[]"
        },
        {
          "internalType": "uint256[]",
          "name": "amount",
          "type": "uint256[]"
        }
      ],
      "name": "batchMint",
      "outputs": [],
      "stateMutability": "nonpayable",
      "type": "function"
    },
    {
      "inputs": [],
      "name": "decimals",
      "outputs": [
        {
          "internalType": "uint8",
          "name": "",
          "type": "uint8"
        }
      ],
      "stateMutability": "view",
      "type": "function"
    },
    {
      "inputs": [
        {
          "internalType": "address",
          "name": "spender",
          "type": "address"
        },
        {
          "internalType": "uint256",
          "name": "subtractedValue",
          "type": "uint256"
        }
      ],
      "name": "decreaseAllowance",
      "outputs": [
        {
          "internalType": "bool",
          "name": "",
          "type": "bool"
        }
      ],
      "stateMutability": "nonpayable",
      "type": "function"
    },
    {
      "inputs": [
        {
          "internalType": "uint256",
          "name": "amount",
          "type": "uint256"
        }
      ],
      "name": "deposit",
      "outputs": [],
      "stateMutability": "nonpayable",
      "type": "function"
    },
    {
      "inputs": [
        {
          "internalType": "bytes32",
          "name": "role",
          "type": "bytes32"
        }
      ],
      "name": "getRoleAdmin",
      "outputs": [
        {
          "internalType": "bytes32",
          "name": "",
          "type": "bytes32"
        }
      ],
      "stateMutability": "view",
      "type": "function"
    },
    {
      "inputs": [
        {
          "internalType": "bytes32",
          "name": "role",
          "type": "bytes32"
        },
        {
          "internalType": "uint256",
          "name": "index",
          "type": "uint256"
        }
      ],
      "name": "getRoleMember",
      "outputs": [
        {
          "internalType": "address",
          "name": "",
          "type": "address"
        }
      ],
      "stateMutability": "view",
      "type": "function"
    },
    {
      "inputs": [
        {
          "internalType": "bytes32",
          "name": "role",
          "type": "bytes32"
        }
      ],
      "name": "getRoleMemberCount",
      "outputs": [
        {
          "internalType": "uint256",
          "name": "",
          "type": "uint256"
        }
      ],
      "stateMutability": "view",
      "type": "function"
    },
    {
      "inputs": [
        {
          "internalType": "bytes32",
          "name": "role",
          "type": "bytes32"
        },
        {
          "internalType": "address",
          "name": "account",
          "type": "address"
        }
      ],
      "name": "grantRole",
      "outputs": [],
      "stateMutability": "nonpayable",
      "type": "function"
    },
    {
      "inputs": [
        {
          "internalType": "bytes32",
          "name": "role",
          "type": "bytes32"
        },
        {
          "internalType": "address",
          "name": "account",
          "type": "address"
        }
      ],
      "name": "hasRole",
      "outputs": [
        {
          "internalType": "bool",
          "name": "",
          "type": "bool"
        }
      ],
      "stateMutability": "view",
      "type": "function"
    },
    {
      "inputs": [
        {
          "internalType": "address",
          "name": "spender",
          "type": "address"
        },
        {
          "internalType": "uint256",
          "name": "addedValue",
          "type": "uint256"
        }
      ],
      "name": "increaseAllowance",
      "outputs": [
        {
          "internalType": "bool",
          "name": "",
          "type": "bool"
        }
      ],
      "stateMutability": "nonpayable",
      "type": "function"
    },
    {
      "inputs": [],
      "name": "initialize",
      "outputs": [],
      "stateMutability": "nonpayable",
      "type": "function"
    },
    {
      "inputs": [],
      "name": "name",
      "outputs": [
        {
          "internalType": "string",
          "name": "",
          "type": "string"
        }
      ],
      "stateMutability": "view",
      "type": "function"
    },
    {
      "inputs": [],
      "name": "pause",
      "outputs": [],
      "stateMutability": "nonpayable",
      "type": "function"
    },
    {
      "inputs": [],
      "name": "paused",
      "outputs": [
        {
          "internalType": "bool",
          "name": "",
          "type": "bool"
        }
      ],
      "stateMutability": "view",
      "type": "function"
    },
    {
      "inputs": [
        {
          "internalType": "bytes32",
          "name": "role",
          "type": "bytes32"
        },
        {
          "internalType": "address",
          "name": "account",
          "type": "address"
        }
      ],
      "name": "renounceRole",
      "outputs": [],
      "stateMutability": "nonpayable",
      "type": "function"
    },
    {
      "inputs": [
        {
          "internalType": "bytes32",
          "name": "role",
          "type": "bytes32"
        },
        {
          "internalType": "address",
          "name": "account",
          "type": "address"
        }
      ],
      "name": "revokeRole",
      "outputs": [],
      "stateMutability": "nonpayable",
      "type": "function"
    },
    {
      "inputs": [
        {
          "internalType": "bytes4",
          "name": "interfaceId",
          "type": "bytes4"
        }
      ],
      "name": "supportsInterface",
      "outputs": [
        {
          "internalType": "bool",
          "name": "",
          "type": "bool"
        }
      ],
      "stateMutability": "view",
      "type": "function"
    },
    {
      "inputs": [],
      "name": "symbol",
      "outputs": [
        {
          "internalType": "string",
          "name": "",
          "type": "string"
        }
      ],
      "stateMutability": "view",
      "type": "function"
    },
    {
      "inputs": [],
      "name": "totalSupply",
      "outputs": [
        {
          "internalType": "uint256",
          "name": "",
          "type": "uint256"
        }
      ],
      "stateMutability": "view",
      "type": "function"
    },
    {
      "inputs": [
        {
          "internalType": "address",
          "name": "to",
          "type": "address"
        },
        {
          "internalType": "uint256",
          "name": "amount",
          "type": "uint256"
        }
      ],
      "name": "transfer",
      "outputs": [
        {
          "internalType": "bool",
          "name": "",
          "type": "bool"
        }
      ],
      "stateMutability": "nonpayable",
      "type": "function"
    },
    {
      "inputs": [
        {
          "internalType": "address",
          "name": "from",
          "type": "address"
        },
        {
          "internalType": "address",
          "name": "to",
          "type": "address"
        },
        {
          "internalType": "uint256",
          "name": "amount",
          "type": "uint256"
        }
      ],
      "name": "transferFrom",
      "outputs": [
        {
          "internalType": "bool",
          "name": "",
          "type": "bool"
        }
      ],
      "stateMutability": "nonpayable",
      "type": "function"
    },
    {
      "inputs": [],
      "name": "unpause",
      "outputs": [],
      "stateMutability": "nonpayable",
      "type": "function"
    },
    {
      "inputs": [
        {
          "internalType": "uint256",
          "name": "amount",
          "type": "uint256"
        }
      ],
      "name": "withdraw",
      "outputs": [],
      "stateMutability": "nonpayable",
      "type": "function"
    }
  ],
  "bytecode": "0x608060405234801561001057600080fd5b5061001961001e565b6100de565b600054610100900460ff161561008a5760405162461bcd60e51b815260206004820152602760248201527f496e697469616c697a61626c653a20636f6e747261637420697320696e697469604482015266616c697a696e6760c81b606482015260840160405180910390fd5b60005460ff90811610156100dc576000805460ff191660ff9081179091556040519081527f7f26b83ff96e1f2b6a682f133852f6798a09c465da95921460cefb38474024989060200160405180910390a15b565b611fe7806100ed6000396000f3fe608060405234801561001057600080fd5b50600436106101da5760003560e01c806370a0823111610104578063a217fddf116100a2578063ca15c87311610071578063ca15c873146103e2578063d5391393146103f5578063d547741f1461041c578063dd62ed3e1461042f57600080fd5b8063a217fddf146103a1578063a457c2d7146103a9578063a9059cbb146103bc578063b6b55f25146103cf57600080fd5b80638456cb59116100de5780638456cb59146103535780639010d07c1461035b57806391d148541461038657806395d89b411461039957600080fd5b806370a082311461030d57806375b238fc146103365780638129fc1c1461034b57600080fd5b80632f2ff15d1161017c5780633f4ba83a1161014b5780633f4ba83a146102d45780634a6cc677146102dc5780635c975abb146102ef57806368573107146102fa57600080fd5b80632f2ff15d1461028c578063313ce5671461029f57806336568abe146102ae57806339509351146102c157600080fd5b806318160ddd116101b857806318160ddd1461022f57806323b872dd14610241578063248a9ca3146102545780632e1a7d4d1461027757600080fd5b806301ffc9a7146101df57806306fdde0314610207578063095ea7b31461021c575b600080fd5b6101f26101ed366004611930565b610442565b60405190151581526020015b60405180910390f35b61020f61046d565b6040516101fe919061197e565b6101f261022a3660046119cd565b6104ff565b6035545b6040519081526020016101fe565b6101f261024f3660046119f7565b610517565b610233610262366004611a33565b600090815260c9602052604090206001015490565b61028a610285366004611a33565b61053b565b005b61028a61029a366004611a4c565b61066c565b604051601281526020016101fe565b61028a6102bc366004611a4c565b610696565b6101f26102cf3660046119cd565b610719565b61028a61073b565b61028a6102ea366004611b4e565b61075e565b60655460ff166101f2565b61028a610308366004611b4e565b6107d0565b61023361031b366004611c0e565b6001600160a01b031660009081526033602052604090205490565b610233600080516020611f9283398151915281565b61028a610842565b61028a6109e9565b61036e610369366004611c29565b610a09565b6040516001600160a01b0390911681526020016101fe565b6101f2610394366004611a4c565b610a28565b61020f610a53565b610233600081565b6101f26103b73660046119cd565b610a62565b6101f26103ca3660046119cd565b610add565b61028a6103dd366004611a33565b610aeb565b6102336103f0366004611a33565b610c00565b6102337f9f2df0fed2c77648de5860a4cc508cd0818c85b8b8a1ab4ceeef8d981c8956a681565b61028a61042a366004611a4c565b610c17565b61023361043d366004611c4b565b610c3c565b60006001600160e01b03198216635a05180f60e01b1480610467575061046782610c67565b92915050565b60606036805461047c90611c75565b80601f01602080910402602001604051908101604052809291908181526020018280546104a890611c75565b80156104f55780601f106104ca576101008083540402835291602001916104f5565b820191906000526020600020905b8154815290600101906020018083116104d857829003601f168201915b5050505050905090565b60003361050d818585610c9c565b5060019392505050565b600033610525858285610dc0565b610530858585610e34565b506001949350505050565b610543611002565b600061054e60355490565b6040516370a0823160e01b8152306004820152909150600090829073c8849f32138de93f6097199c5721a9efd91cee01906370a0823190602401602060405180830381865afa1580156105a5573d6000803e3d6000fd5b505050506040513d601f19601f820116820180604052508101906105c99190611caf565b6105d39085611cde565b6105dd9190611cfd565b90506105e9338461104a565b60405163a9059cbb60e01b81523360048201526024810182905273c8849f32138de93f6097199c5721a9efd91cee019063a9059cbb906044015b6020604051808303816000875af1158015610642573d6000803e3d6000fd5b505050506040513d601f19601f820116820180604052508101906106669190611d1f565b50505050565b600082815260c9602052604090206001015461068781611198565b61069183836111a2565b505050565b6001600160a01b038116331461070b5760405162461bcd60e51b815260206004820152602f60248201527f416363657373436f6e74726f6c3a2063616e206f6e6c792072656e6f756e636560448201526e103937b632b9903337b91039b2b63360891b60648201526084015b60405180910390fd5b61071582826111c4565b5050565b60003361050d81858561072c8383610c3c565b6107369190611d41565b610c9c565b600080516020611f9283398151915261075381611198565b61075b6111e6565b50565b600080516020611f9283398151915261077681611198565b60005b8351811015610666576107be84828151811061079757610797611d54565b60200260200101518483815181106107b1576107b1611d54565b602002602001015161104a565b806107c881611d6a565b915050610779565b600080516020611f928339815191526107e881611198565b60005b83518110156106665761083084828151811061080957610809611d54565b602002602001015184838151811061082357610823611d54565b6020026020010151611238565b8061083a81611d6a565b9150506107eb565b600054610100900460ff16158080156108625750600054600160ff909116105b8061087c5750303b15801561087c575060005460ff166001145b6108df5760405162461bcd60e51b815260206004820152602e60248201527f496e697469616c697a61626c653a20636f6e747261637420697320616c72656160448201526d191e481a5b9a5d1a585b1a5e995960921b6064820152608401610702565b6000805460ff191660011790558015610902576000805461ff0019166101001790555b610944604051806040016040528060048152602001637845564f60e01b815250604051806040016040528060048152602001637845564f60e01b815250611317565b61094c611348565b610954611377565b61095f6000336111a2565b610977600080516020611f92833981519152336111a2565b6109a17f9f2df0fed2c77648de5860a4cc508cd0818c85b8b8a1ab4ceeef8d981c8956a6336111a2565b801561075b576000805461ff0019169055604051600181527f7f26b83ff96e1f2b6a682f133852f6798a09c465da95921460cefb38474024989060200160405180910390a150565b600080516020611f92833981519152610a0181611198565b61075b61139e565b600082815260fb60205260408120610a2190836113db565b9392505050565b600091825260c9602090815260408084206001600160a01b0393909316845291905290205460ff1690565b60606037805461047c90611c75565b60003381610a708286610c3c565b905083811015610ad05760405162461bcd60e51b815260206004820152602560248201527f45524332303a2064656372656173656420616c6c6f77616e63652062656c6f77604482015264207a65726f60d81b6064820152608401610702565b6105308286868403610c9c565b60003361050d818585610e34565b610af3611002565b6040516370a0823160e01b815230600482015260009073c8849f32138de93f6097199c5721a9efd91cee01906370a0823190602401602060405180830381865afa158015610b45573d6000803e3d6000fd5b505050506040513d601f19601f82011682018060405250810190610b699190611caf565b90506000610b7660355490565b9050801580610b83575081155b15610b9757610b923384611238565b610bbc565b600082610ba48386611cde565b610bae9190611cfd565b9050610bba3382611238565b505b6040516323b872dd60e01b81523360048201523060248201526044810184905273c8849f32138de93f6097199c5721a9efd91cee01906323b872dd90606401610623565b600081815260fb60205260408120610467906113e7565b600082815260c96020526040902060010154610c3281611198565b61069183836111c4565b6001600160a01b03918216600090815260346020908152604080832093909416825291909152205490565b60006001600160e01b03198216637965db0b60e01b148061046757506301ffc9a760e01b6001600160e01b0319831614610467565b6001600160a01b038316610cfe5760405162461bcd60e51b8152602060048201526024808201527f45524332303a20617070726f76652066726f6d20746865207a65726f206164646044820152637265737360e01b6064820152608401610702565b6001600160a01b038216610d5f5760405162461bcd60e51b815260206004820152602260248201527f45524332303a20617070726f766520746f20746865207a65726f206164647265604482015261737360f01b6064820152608401610702565b6001600160a01b0383811660008181526034602090815260408083209487168084529482529182902085905590518481527f8c5be1e5ebec7d5bd14f71427d1e84f3dd0314c0f7b2291e5b200ac8c7c3b925910160405180910390a3505050565b6000610dcc8484610c3c565b905060001981146106665781811015610e275760405162461bcd60e51b815260206004820152601d60248201527f45524332303a20696e73756666696369656e7420616c6c6f77616e63650000006044820152606401610702565b6106668484848403610c9c565b6001600160a01b038316610e985760405162461bcd60e51b815260206004820152602560248201527f45524332303a207472616e736665722066726f6d20746865207a65726f206164604482015264647265737360d81b6064820152608401610702565b6001600160a01b038216610efa5760405162461bcd60e51b815260206004820152602360248201527f45524332303a207472616e7366657220746f20746865207a65726f206164647260448201526265737360e81b6064820152608401610702565b6001600160a01b03831660009081526033602052604090205481811015610f725760405162461bcd60e51b815260206004820152602660248201527f45524332303a207472616e7366657220616d6f756e7420657863656564732062604482015265616c616e636560d01b6064820152608401610702565b6001600160a01b03808516600090815260336020526040808220858503905591851681529081208054849290610fa9908490611d41565b92505081905550826001600160a01b0316846001600160a01b03167fddf252ad1be2c89b69c2b068fc378daa952ba7f163c4a11628f55a4df523b3ef84604051610ff591815260200190565b60405180910390a3610666565b60655460ff16156110485760405162461bcd60e51b815260206004820152601060248201526f14185d5cd8589b194e881c185d5cd95960821b6044820152606401610702565b565b6001600160a01b0382166110aa5760405162461bcd60e51b815260206004820152602160248201527f45524332303a206275726e2066726f6d20746865207a65726f206164647265736044820152607360f81b6064820152608401610702565b6001600160a01b0382166000908152603360205260409020548181101561111e5760405162461bcd60e51b815260206004820152602260248201527f45524332303a206275726e20616d6f756e7420657863656564732062616c616e604482015261636560f01b6064820152608401610702565b6001600160a01b038316600090815260336020526040812083830390556035805484929061114d908490611d83565b90915550506040518281526000906001600160a01b038516907fddf252ad1be2c89b69c2b068fc378daa952ba7f163c4a11628f55a4df523b3ef9060200160405180910390a3505050565b61075b81336113f1565b6111ac8282611455565b600082815260fb6020526040902061069190826114db565b6111ce82826114f0565b600082815260fb602052604090206106919082611557565b6111ee61156c565b6065805460ff191690557f5db9ee0a495bf2e6ff9c91a7834c1ba4fdd244a5e8aa4e537bd38aeae4b073aa335b6040516001600160a01b03909116815260200160405180910390a1565b6001600160a01b03821661128e5760405162461bcd60e51b815260206004820152601f60248201527f45524332303a206d696e7420746f20746865207a65726f2061646472657373006044820152606401610702565b80603560008282546112a09190611d41565b90915550506001600160a01b038216600090815260336020526040812080548392906112cd908490611d41565b90915550506040518181526001600160a01b038316906000907fddf252ad1be2c89b69c2b068fc378daa952ba7f163c4a11628f55a4df523b3ef9060200160405180910390a35050565b600054610100900460ff1661133e5760405162461bcd60e51b815260040161070290611d96565b61071582826115b5565b600054610100900460ff1661136f5760405162461bcd60e51b815260040161070290611d96565b6110486115f5565b600054610100900460ff166110485760405162461bcd60e51b815260040161070290611d96565b6113a6611002565b6065805460ff191660011790557f62e78cea01bee320cd4e420270b5ea74000d11b0c9f74754ebdbfc544b05a25861121b3390565b6000610a218383611628565b6000610467825490565b6113fb8282610a28565b61071557611413816001600160a01b03166014611652565b61141e836020611652565b60405160200161142f929190611de1565b60408051601f198184030181529082905262461bcd60e51b82526107029160040161197e565b61145f8282610a28565b61071557600082815260c9602090815260408083206001600160a01b03851684529091529020805460ff191660011790556114973390565b6001600160a01b0316816001600160a01b0316837f2f8788117e7eff1d82e926ec794901d17c78024a50270940304540a733656f0d60405160405180910390a45050565b6000610a21836001600160a01b0384166117ee565b6114fa8282610a28565b1561071557600082815260c9602090815260408083206001600160a01b0385168085529252808320805460ff1916905551339285917ff6391f5c32d9c69d2a47ea670b442974b53935d1edc7fd64eb21e047a839171b9190a45050565b6000610a21836001600160a01b03841661183d565b60655460ff166110485760405162461bcd60e51b815260206004820152601460248201527314185d5cd8589b194e881b9bdd081c185d5cd95960621b6044820152606401610702565b600054610100900460ff166115dc5760405162461bcd60e51b815260040161070290611d96565b60366115e88382611ea4565b5060376106918282611ea4565b600054610100900460ff1661161c5760405162461bcd60e51b815260040161070290611d96565b6065805460ff19169055565b600082600001828154811061163f5761163f611d54565b9060005260206000200154905092915050565b60606000611661836002611cde565b61166c906002611d41565b67ffffffffffffffff81111561168457611684611a78565b6040519080825280601f01601f1916602001820160405280156116ae576020820181803683370190505b509050600360fc1b816000815181106116c9576116c9611d54565b60200101906001600160f81b031916908160001a905350600f60fb1b816001815181106116f8576116f8611d54565b60200101906001600160f81b031916908160001a905350600061171c846002611cde565b611727906001611d41565b90505b600181111561179f576f181899199a1a9b1b9c1cb0b131b232b360811b85600f166010811061175b5761175b611d54565b1a60f81b82828151811061177157611771611d54565b60200101906001600160f81b031916908160001a90535060049490941c9361179881611f64565b905061172a565b508315610a215760405162461bcd60e51b815260206004820181905260248201527f537472696e67733a20686578206c656e67746820696e73756666696369656e746044820152606401610702565b600081815260018301602052604081205461183557508154600181810184556000848152602080822090930184905584548482528286019093526040902091909155610467565b506000610467565b60008181526001830160205260408120548015611926576000611861600183611d83565b855490915060009061187590600190611d83565b90508181146118da57600086600001828154811061189557611895611d54565b90600052602060002001549050808760000184815481106118b8576118b8611d54565b6000918252602080832090910192909255918252600188019052604090208390555b85548690806118eb576118eb611f7b565b600190038181906000526020600020016000905590558560010160008681526020019081526020016000206000905560019350505050610467565b6000915050610467565b60006020828403121561194257600080fd5b81356001600160e01b031981168114610a2157600080fd5b60005b8381101561197557818101518382015260200161195d565b50506000910152565b602081526000825180602084015261199d81604085016020870161195a565b601f01601f19169190910160400192915050565b80356001600160a01b03811681146119c857600080fd5b919050565b600080604083850312156119e057600080fd5b6119e9836119b1565b946020939093013593505050565b600080600060608486031215611a0c57600080fd5b611a15846119b1565b9250611a23602085016119b1565b9150604084013590509250925092565b600060208284031215611a4557600080fd5b5035919050565b60008060408385031215611a5f57600080fd5b82359150611a6f602084016119b1565b90509250929050565b634e487b7160e01b600052604160045260246000fd5b604051601f8201601f1916810167ffffffffffffffff81118282101715611ab757611ab7611a78565b604052919050565b600067ffffffffffffffff821115611ad957611ad9611a78565b5060051b60200190565b600082601f830112611af457600080fd5b81356020611b09611b0483611abf565b611a8e565b82815260059290921b84018101918181019086841115611b2857600080fd5b8286015b84811015611b435780358352918301918301611b2c565b509695505050505050565b60008060408385031215611b6157600080fd5b823567ffffffffffffffff80821115611b7957600080fd5b818501915085601f830112611b8d57600080fd5b81356020611b9d611b0483611abf565b82815260059290921b84018101918181019089841115611bbc57600080fd5b948201945b83861015611be157611bd2866119b1565b82529482019490820190611bc1565b96505086013592505080821115611bf757600080fd5b50611c0485828601611ae3565b9150509250929050565b600060208284031215611c2057600080fd5b610a21826119b1565b60008060408385031215611c3c57600080fd5b50508035926020909101359150565b60008060408385031215611c5e57600080fd5b611c67836119b1565b9150611a6f602084016119b1565b600181811c90821680611c8957607f821691505b602082108103611ca957634e487b7160e01b600052602260045260246000fd5b50919050565b600060208284031215611cc157600080fd5b5051919050565b634e487b7160e01b600052601160045260246000fd5b6000816000190483118215151615611cf857611cf8611cc8565b500290565b600082611d1a57634e487b7160e01b600052601260045260246000fd5b500490565b600060208284031215611d3157600080fd5b81518015158114610a2157600080fd5b8082018082111561046757610467611cc8565b634e487b7160e01b600052603260045260246000fd5b600060018201611d7c57611d7c611cc8565b5060010190565b8181038181111561046757610467611cc8565b6020808252602b908201527f496e697469616c697a61626c653a20636f6e7472616374206973206e6f74206960408201526a6e697469616c697a696e6760a81b606082015260800190565b7f416363657373436f6e74726f6c3a206163636f756e7420000000000000000000815260008351611e1981601785016020880161195a565b7001034b99036b4b9b9b4b733903937b6329607d1b6017918401918201528351611e4a81602884016020880161195a565b01602801949350505050565b601f82111561069157600081815260208120601f850160051c81016020861015611e7d5750805b601f850160051c820191505b81811015611e9c57828155600101611e89565b505050505050565b815167ffffffffffffffff811115611ebe57611ebe611a78565b611ed281611ecc8454611c75565b84611e56565b602080601f831160018114611f075760008415611eef5750858301515b600019600386901b1c1916600185901b178555611e9c565b600085815260208120601f198616915b82811015611f3657888601518255948401946001909101908401611f17565b5085821015611f545787850151600019600388901b60f8161c191681555b5050505050600190811b01905550565b600081611f7357611f73611cc8565b506000190190565b634e487b7160e01b600052603160045260246000fdfea49807205ce4d355092ef5a8a18f56e8913cf4a201fbe287825b095693c21775a2646970667358221220449d2aa162df293611b254f9d1ecbef5470a46ce9f72c096fc3b8c5363e0929364736f6c63430008100033",
  "linkReferences": {},
  "deployedLinkReferences": {}
}