{
  "_format": "hh-sol-artifact-1",
  "contractName": "xEVOUpgradeable",
  "sourceName": "contracts/ERC20/xEVOUpgradeable.sol",
  "abi": [
    {
      "inputs": [],
      "stateMutability": "nonpayable",
      "type": "constructor"
    },
    {
      "anonymous": false,
      "inputs": [
        {
          "indexed": true,
          "internalType": "address",
          "name": "owner",
          "type": "address"
        },
        {
          "indexed": true,
          "internalType": "address",
          "name": "spender",
          "type": "address"
        },
        {
          "indexed": false,
          "internalType": "uint256",
          "name": "value",
          "type": "uint256"
        }
      ],
      "name": "Approval",
      "type": "event"
    },
    {
      "anonymous": false,
      "inputs": [
        {
          "indexed": false,
          "internalType": "uint8",
          "name": "version",
          "type": "uint8"
        }
      ],
      "name": "Initialized",
      "type": "event"
    },
    {
      "anonymous": false,
      "inputs": [
        {
          "indexed": false,
          "internalType": "address",
          "name": "account",
          "type": "address"
        }
      ],
      "name": "Paused",
      "type": "event"
    },
    {
      "anonymous": false,
      "inputs": [
        {
          "indexed": true,
          "internalType": "bytes32",
          "name": "role",
          "type": "bytes32"
        },
        {
          "indexed": true,
          "internalType": "bytes32",
          "name": "previousAdminRole",
          "type": "bytes32"
        },
        {
          "indexed": true,
          "internalType": "bytes32",
          "name": "newAdminRole",
          "type": "bytes32"
        }
      ],
      "name": "RoleAdminChanged",
      "type": "event"
    },
    {
      "anonymous": false,
      "inputs": [
        {
          "indexed": true,
          "internalType": "bytes32",
          "name": "role",
          "type": "bytes32"
        },
        {
          "indexed": true,
          "internalType": "address",
          "name": "account",
          "type": "address"
        },
        {
          "indexed": true,
          "internalType": "address",
          "name": "sender",
          "type": "address"
        }
      ],
      "name": "RoleGranted",
      "type": "event"
    },
    {
      "anonymous": false,
      "inputs": [
        {
          "indexed": true,
          "internalType": "bytes32",
          "name": "role",
          "type": "bytes32"
        },
        {
          "indexed": true,
          "internalType": "address",
          "name": "account",
          "type": "address"
        },
        {
          "indexed": true,
          "internalType": "address",
          "name": "sender",
          "type": "address"
        }
      ],
      "name": "RoleRevoked",
      "type": "event"
    },
    {
      "anonymous": false,
      "inputs": [
        {
          "indexed": true,
          "internalType": "address",
          "name": "from",
          "type": "address"
        },
        {
          "indexed": true,
          "internalType": "address",
          "name": "to",
          "type": "address"
        },
        {
          "indexed": false,
          "internalType": "uint256",
          "name": "value",
          "type": "uint256"
        }
      ],
      "name": "Transfer",
      "type": "event"
    },
    {
      "anonymous": false,
      "inputs": [
        {
          "indexed": false,
          "internalType": "address",
          "name": "account",
          "type": "address"
        }
      ],
      "name": "Unpaused",
      "type": "event"
    },
    {
      "inputs": [],
      "name": "CONTRACT_ROLE",
      "outputs": [
        {
          "internalType": "bytes32",
          "name": "",
          "type": "bytes32"
        }
      ],
      "stateMutability": "view",
      "type": "function"
    },
    {
      "inputs": [],
      "name": "DEFAULT_ADMIN_ROLE",
      "outputs": [
        {
          "internalType": "bytes32",
          "name": "",
          "type": "bytes32"
        }
      ],
      "stateMutability": "view",
      "type": "function"
    },
    {
      "inputs": [],
      "name": "PAUSER_ROLE",
      "outputs": [
        {
          "internalType": "bytes32",
          "name": "",
          "type": "bytes32"
        }
      ],
      "stateMutability": "view",
      "type": "function"
    },
    {
      "inputs": [
        {
          "internalType": "address",
          "name": "owner",
          "type": "address"
        },
        {
          "internalType": "address",
          "name": "spender",
          "type": "address"
        }
      ],
      "name": "allowance",
      "outputs": [
        {
          "internalType": "uint256",
          "name": "",
          "type": "uint256"
        }
      ],
      "stateMutability": "view",
      "type": "function"
    },
    {
      "inputs": [
        {
          "internalType": "address",
          "name": "spender",
          "type": "address"
        },
        {
          "internalType": "uint256",
          "name": "amount",
          "type": "uint256"
        }
      ],
      "name": "approve",
      "outputs": [
        {
          "internalType": "bool",
          "name": "",
          "type": "bool"
        }
      ],
      "stateMutability": "nonpayable",
      "type": "function"
    },
    {
      "inputs": [
        {
          "internalType": "address",
          "name": "account",
          "type": "address"
        }
      ],
      "name": "balanceOf",
      "outputs": [
        {
          "internalType": "uint256",
          "name": "",
          "type": "uint256"
        }
      ],
      "stateMutability": "view",
      "type": "function"
    },
    {
      "inputs": [],
      "name": "decimals",
      "outputs": [
        {
          "internalType": "uint8",
          "name": "",
          "type": "uint8"
        }
      ],
      "stateMutability": "view",
      "type": "function"
    },
    {
      "inputs": [
        {
          "internalType": "address",
          "name": "spender",
          "type": "address"
        },
        {
          "internalType": "uint256",
          "name": "subtractedValue",
          "type": "uint256"
        }
      ],
      "name": "decreaseAllowance",
      "outputs": [
        {
          "internalType": "bool",
          "name": "",
          "type": "bool"
        }
      ],
      "stateMutability": "nonpayable",
      "type": "function"
    },
    {
      "inputs": [
        {
          "internalType": "uint256",
          "name": "amount",
          "type": "uint256"
        }
      ],
      "name": "deposit",
      "outputs": [],
      "stateMutability": "nonpayable",
      "type": "function"
    },
    {
      "inputs": [
        {
          "internalType": "bytes32",
          "name": "role",
          "type": "bytes32"
        }
      ],
      "name": "getRoleAdmin",
      "outputs": [
        {
          "internalType": "bytes32",
          "name": "",
          "type": "bytes32"
        }
      ],
      "stateMutability": "view",
      "type": "function"
    },
    {
      "inputs": [
        {
          "internalType": "bytes32",
          "name": "role",
          "type": "bytes32"
        },
        {
          "internalType": "address",
          "name": "account",
          "type": "address"
        }
      ],
      "name": "grantRole",
      "outputs": [],
      "stateMutability": "nonpayable",
      "type": "function"
    },
    {
      "inputs": [
        {
          "internalType": "bytes32",
          "name": "role",
          "type": "bytes32"
        },
        {
          "internalType": "address",
          "name": "account",
          "type": "address"
        }
      ],
      "name": "hasRole",
      "outputs": [
        {
          "internalType": "bool",
          "name": "",
          "type": "bool"
        }
      ],
      "stateMutability": "view",
      "type": "function"
    },
    {
      "inputs": [
        {
          "internalType": "address",
          "name": "spender",
          "type": "address"
        },
        {
          "internalType": "uint256",
          "name": "addedValue",
          "type": "uint256"
        }
      ],
      "name": "increaseAllowance",
      "outputs": [
        {
          "internalType": "bool",
          "name": "",
          "type": "bool"
        }
      ],
      "stateMutability": "nonpayable",
      "type": "function"
    },
    {
      "inputs": [],
      "name": "initialize",
      "outputs": [],
      "stateMutability": "nonpayable",
      "type": "function"
    },
    {
      "inputs": [],
      "name": "name",
      "outputs": [
        {
          "internalType": "string",
          "name": "",
          "type": "string"
        }
      ],
      "stateMutability": "view",
      "type": "function"
    },
    {
      "inputs": [],
      "name": "pause",
      "outputs": [],
      "stateMutability": "nonpayable",
      "type": "function"
    },
    {
      "inputs": [],
      "name": "paused",
      "outputs": [
        {
          "internalType": "bool",
          "name": "",
          "type": "bool"
        }
      ],
      "stateMutability": "view",
      "type": "function"
    },
    {
      "inputs": [
        {
          "internalType": "bytes32",
          "name": "role",
          "type": "bytes32"
        },
        {
          "internalType": "address",
          "name": "account",
          "type": "address"
        }
      ],
      "name": "renounceRole",
      "outputs": [],
      "stateMutability": "nonpayable",
      "type": "function"
    },
    {
      "inputs": [
        {
          "internalType": "bytes32",
          "name": "role",
          "type": "bytes32"
        },
        {
          "internalType": "address",
          "name": "account",
          "type": "address"
        }
      ],
      "name": "revokeRole",
      "outputs": [],
      "stateMutability": "nonpayable",
      "type": "function"
    },
    {
      "inputs": [
        {
          "internalType": "address",
          "name": "_address",
          "type": "address"
        }
      ],
      "name": "setBaseToken",
      "outputs": [],
      "stateMutability": "nonpayable",
      "type": "function"
    },
    {
      "inputs": [
        {
          "internalType": "bytes4",
          "name": "interfaceId",
          "type": "bytes4"
        }
      ],
      "name": "supportsInterface",
      "outputs": [
        {
          "internalType": "bool",
          "name": "",
          "type": "bool"
        }
      ],
      "stateMutability": "view",
      "type": "function"
    },
    {
      "inputs": [],
      "name": "symbol",
      "outputs": [
        {
          "internalType": "string",
          "name": "",
          "type": "string"
        }
      ],
      "stateMutability": "view",
      "type": "function"
    },
    {
      "inputs": [],
      "name": "totalSupply",
      "outputs": [
        {
          "internalType": "uint256",
          "name": "",
          "type": "uint256"
        }
      ],
      "stateMutability": "view",
      "type": "function"
    },
    {
      "inputs": [
        {
          "internalType": "address",
          "name": "to",
          "type": "address"
        },
        {
          "internalType": "uint256",
          "name": "amount",
          "type": "uint256"
        }
      ],
      "name": "transfer",
      "outputs": [
        {
          "internalType": "bool",
          "name": "",
          "type": "bool"
        }
      ],
      "stateMutability": "nonpayable",
      "type": "function"
    },
    {
      "inputs": [
        {
          "internalType": "address",
          "name": "from",
          "type": "address"
        },
        {
          "internalType": "address",
          "name": "to",
          "type": "address"
        },
        {
          "internalType": "uint256",
          "name": "amount",
          "type": "uint256"
        }
      ],
      "name": "transferFrom",
      "outputs": [
        {
          "internalType": "bool",
          "name": "",
          "type": "bool"
        }
      ],
      "stateMutability": "nonpayable",
      "type": "function"
    },
    {
      "inputs": [],
      "name": "unpause",
      "outputs": [],
      "stateMutability": "nonpayable",
      "type": "function"
    },
    {
      "inputs": [
        {
          "internalType": "uint256",
          "name": "amount",
          "type": "uint256"
        }
      ],
      "name": "withdraw",
      "outputs": [],
      "stateMutability": "nonpayable",
      "type": "function"
    }
  ],
  "bytecode": "0x60806040523480156200001157600080fd5b50600054610100900460ff1615808015620000335750600054600160ff909116105b8062000063575062000050306200013d60201b62000b3c1760201c565b15801562000063575060005460ff166001145b620000cb5760405162461bcd60e51b815260206004820152602e60248201527f496e697469616c697a61626c653a20636f6e747261637420697320616c72656160448201526d191e481a5b9a5d1a585b1a5e995960921b606482015260840160405180910390fd5b6000805460ff191660011790558015620000ef576000805461ff0019166101001790555b801562000136576000805461ff0019169055604051600181527f7f26b83ff96e1f2b6a682f133852f6798a09c465da95921460cefb38474024989060200160405180910390a15b506200014c565b6001600160a01b03163b151590565b611a87806200015c6000396000f3fe608060405234801561001057600080fd5b50600436106101a95760003560e01c80633f4ba83a116100f9578063a217fddf11610097578063b6b55f2511610071578063b6b55f2514610376578063d547741f14610389578063dd62ed3e1461039c578063e63ab1e9146103af57600080fd5b8063a217fddf14610348578063a457c2d714610350578063a9059cbb1461036357600080fd5b80638129fc1c116100d35780638129fc1c1461031d5780638456cb591461032557806391d148541461032d57806395d89b411461034057600080fd5b80633f4ba83a146102e15780635c975abb146102e957806370a08231146102f457600080fd5b806323b872dd116101665780632f2ff15d116101405780632f2ff15d14610299578063313ce567146102ac57806336568abe146102bb57806339509351146102ce57600080fd5b806323b872dd14610250578063248a9ca3146102635780632e1a7d4d1461028657600080fd5b806301ffc9a7146101ae57806303fe46ab146101d657806306fdde031461020b578063095ea7b31461022057806316bb6c131461023357806318160ddd14610248575b600080fd5b6101c16101bc36600461169d565b6103c4565b60405190151581526020015b60405180910390f35b6101fd7f364d3d7565c7a8300c96fd53e065d19b65848d7b23b3191adcd55621c744223c81565b6040519081526020016101cd565b6102136103fb565b6040516101cd91906116f3565b6101c161022e366004611742565b61048d565b61024661024136600461176c565b6104a5565b005b60cb546101fd565b6101c161025e366004611787565b6104d3565b6101fd6102713660046117c3565b60009081526097602052604090206001015490565b6102466102943660046117c3565b6104f7565b6102466102a73660046117dc565b610636565b604051601281526020016101cd565b6102466102c93660046117dc565b610660565b6101c16102dc366004611742565b6106e3565b610246610705565b60335460ff166101c1565b6101fd61030236600461176c565b6001600160a01b0316600090815260c9602052604090205490565b610246610728565b6102466108f5565b6101c161033b3660046117dc565b610915565b610213610940565b6101fd600081565b6101c161035e366004611742565b61094f565b6101c1610371366004611742565b6109ca565b6102466103843660046117c3565b6109d8565b6102466103973660046117dc565b610aec565b6101fd6103aa366004611808565b610b11565b6101fd600080516020611a3283398151915281565b60006001600160e01b03198216637965db0b60e01b14806103f557506301ffc9a760e01b6001600160e01b03198316145b92915050565b606060cc805461040a90611832565b80601f016020809104026020016040519081016040528092919081815260200182805461043690611832565b80156104835780601f1061045857610100808354040283529160200191610483565b820191906000526020600020905b81548152906001019060200180831161046657829003601f168201915b5050505050905090565b60003361049b818585610b4b565b5060019392505050565b60006104b081610c6f565b5060fb80546001600160a01b0319166001600160a01b0392909216919091179055565b6000336104e1858285610c79565b6104ec858585610ced565b506001949350505050565b6104ff610ebb565b600061050a60cb5490565b60fb546040516370a0823160e01b815230600482015291925060009183916001600160a01b0316906370a082319060240160206040518083038186803b15801561055357600080fd5b505afa158015610567573d6000803e3d6000fd5b505050506040513d601f19601f8201168201806040525081019061058b919061186d565b610595908561189c565b61059f91906118bb565b90506105ab3384610f03565b60fb5460405163a9059cbb60e01b8152336004820152602481018390526001600160a01b039091169063a9059cbb906044015b602060405180830381600087803b1580156105f857600080fd5b505af115801561060c573d6000803e3d6000fd5b505050506040513d601f19601f8201168201806040525081019061063091906118dd565b50505050565b60008281526097602052604090206001015461065181610c6f565b61065b8383611051565b505050565b6001600160a01b03811633146106d55760405162461bcd60e51b815260206004820152602f60248201527f416363657373436f6e74726f6c3a2063616e206f6e6c792072656e6f756e636560448201526e103937b632b9903337b91039b2b63360891b60648201526084015b60405180910390fd5b6106df82826110d7565b5050565b60003361049b8185856106f68383610b11565b61070091906118ff565b610b4b565b600080516020611a3283398151915261071d81610c6f565b61072561113e565b50565b600054610100900460ff16158080156107485750600054600160ff909116105b806107625750303b158015610762575060005460ff166001145b6107c55760405162461bcd60e51b815260206004820152602e60248201527f496e697469616c697a61626c653a20636f6e747261637420697320616c72656160448201526d191e481a5b9a5d1a585b1a5e995960921b60648201526084016106cc565b6000805460ff1916600117905580156107e8576000805461ff0019166101001790555b61082a604051806040016040528060048152602001637845564f60e01b815250604051806040016040528060048152602001637845564f60e01b815250611190565b6108326111c1565b61083a6111f0565b610845600033611051565b61085d600080516020611a3283398151915233611051565b6108877f364d3d7565c7a8300c96fd53e065d19b65848d7b23b3191adcd55621c744223c33611051565b60fb80546001600160a01b0319167342006ab57701251b580bdfc24778c43c9ff589a11790558015610725576000805461ff0019169055604051600181527f7f26b83ff96e1f2b6a682f133852f6798a09c465da95921460cefb38474024989060200160405180910390a150565b600080516020611a3283398151915261090d81610c6f565b610725611217565b60009182526097602090815260408084206001600160a01b0393909316845291905290205460ff1690565b606060cd805461040a90611832565b6000338161095d8286610b11565b9050838110156109bd5760405162461bcd60e51b815260206004820152602560248201527f45524332303a2064656372656173656420616c6c6f77616e63652062656c6f77604482015264207a65726f60d81b60648201526084016106cc565b6104ec8286868403610b4b565b60003361049b818585610ced565b6109e0610ebb565b60fb546040516370a0823160e01b81523060048201526000916001600160a01b0316906370a082319060240160206040518083038186803b158015610a2457600080fd5b505afa158015610a38573d6000803e3d6000fd5b505050506040513d601f19601f82011682018060405250810190610a5c919061186d565b90506000610a6960cb5490565b9050801580610a76575081155b15610a8a57610a853384611254565b610aaf565b600082610a97838661189c565b610aa191906118bb565b9050610aad3382611254565b505b60fb546040516323b872dd60e01b8152336004820152306024820152604481018590526001600160a01b03909116906323b872dd906064016105de565b600082815260976020526040902060010154610b0781610c6f565b61065b83836110d7565b6001600160a01b03918216600090815260ca6020908152604080832093909416825291909152205490565b6001600160a01b03163b151590565b6001600160a01b038316610bad5760405162461bcd60e51b8152602060048201526024808201527f45524332303a20617070726f76652066726f6d20746865207a65726f206164646044820152637265737360e01b60648201526084016106cc565b6001600160a01b038216610c0e5760405162461bcd60e51b815260206004820152602260248201527f45524332303a20617070726f766520746f20746865207a65726f206164647265604482015261737360f01b60648201526084016106cc565b6001600160a01b03838116600081815260ca602090815260408083209487168084529482529182902085905590518481527f8c5be1e5ebec7d5bd14f71427d1e84f3dd0314c0f7b2291e5b200ac8c7c3b925910160405180910390a3505050565b6107258133611333565b6000610c858484610b11565b905060001981146106305781811015610ce05760405162461bcd60e51b815260206004820152601d60248201527f45524332303a20696e73756666696369656e7420616c6c6f77616e636500000060448201526064016106cc565b6106308484848403610b4b565b6001600160a01b038316610d515760405162461bcd60e51b815260206004820152602560248201527f45524332303a207472616e736665722066726f6d20746865207a65726f206164604482015264647265737360d81b60648201526084016106cc565b6001600160a01b038216610db35760405162461bcd60e51b815260206004820152602360248201527f45524332303a207472616e7366657220746f20746865207a65726f206164647260448201526265737360e81b60648201526084016106cc565b6001600160a01b038316600090815260c9602052604090205481811015610e2b5760405162461bcd60e51b815260206004820152602660248201527f45524332303a207472616e7366657220616d6f756e7420657863656564732062604482015265616c616e636560d01b60648201526084016106cc565b6001600160a01b03808516600090815260c96020526040808220858503905591851681529081208054849290610e629084906118ff565b92505081905550826001600160a01b0316846001600160a01b03167fddf252ad1be2c89b69c2b068fc378daa952ba7f163c4a11628f55a4df523b3ef84604051610eae91815260200190565b60405180910390a3610630565b60335460ff1615610f015760405162461bcd60e51b815260206004820152601060248201526f14185d5cd8589b194e881c185d5cd95960821b60448201526064016106cc565b565b6001600160a01b038216610f635760405162461bcd60e51b815260206004820152602160248201527f45524332303a206275726e2066726f6d20746865207a65726f206164647265736044820152607360f81b60648201526084016106cc565b6001600160a01b038216600090815260c9602052604090205481811015610fd75760405162461bcd60e51b815260206004820152602260248201527f45524332303a206275726e20616d6f756e7420657863656564732062616c616e604482015261636560f01b60648201526084016106cc565b6001600160a01b038316600090815260c960205260408120838303905560cb8054849290611006908490611917565b90915550506040518281526000906001600160a01b038516907fddf252ad1be2c89b69c2b068fc378daa952ba7f163c4a11628f55a4df523b3ef9060200160405180910390a3505050565b61105b8282610915565b6106df5760008281526097602090815260408083206001600160a01b03851684529091529020805460ff191660011790556110933390565b6001600160a01b0316816001600160a01b0316837f2f8788117e7eff1d82e926ec794901d17c78024a50270940304540a733656f0d60405160405180910390a45050565b6110e18282610915565b156106df5760008281526097602090815260408083206001600160a01b0385168085529252808320805460ff1916905551339285917ff6391f5c32d9c69d2a47ea670b442974b53935d1edc7fd64eb21e047a839171b9190a45050565b611146611397565b6033805460ff191690557f5db9ee0a495bf2e6ff9c91a7834c1ba4fdd244a5e8aa4e537bd38aeae4b073aa335b6040516001600160a01b03909116815260200160405180910390a1565b600054610100900460ff166111b75760405162461bcd60e51b81526004016106cc9061192e565b6106df82826113e0565b600054610100900460ff166111e85760405162461bcd60e51b81526004016106cc9061192e565b610f0161142e565b600054610100900460ff16610f015760405162461bcd60e51b81526004016106cc9061192e565b61121f610ebb565b6033805460ff191660011790557f62e78cea01bee320cd4e420270b5ea74000d11b0c9f74754ebdbfc544b05a2586111733390565b6001600160a01b0382166112aa5760405162461bcd60e51b815260206004820152601f60248201527f45524332303a206d696e7420746f20746865207a65726f20616464726573730060448201526064016106cc565b8060cb60008282546112bc91906118ff565b90915550506001600160a01b038216600090815260c96020526040812080548392906112e99084906118ff565b90915550506040518181526001600160a01b038316906000907fddf252ad1be2c89b69c2b068fc378daa952ba7f163c4a11628f55a4df523b3ef9060200160405180910390a35050565b61133d8282610915565b6106df57611355816001600160a01b03166014611461565b611360836020611461565b604051602001611371929190611979565b60408051601f198184030181529082905262461bcd60e51b82526106cc916004016116f3565b60335460ff16610f015760405162461bcd60e51b815260206004820152601460248201527314185d5cd8589b194e881b9bdd081c185d5cd95960621b60448201526064016106cc565b600054610100900460ff166114075760405162461bcd60e51b81526004016106cc9061192e565b815161141a9060cc906020850190611604565b50805161065b9060cd906020840190611604565b600054610100900460ff166114555760405162461bcd60e51b81526004016106cc9061192e565b6033805460ff19169055565b6060600061147083600261189c565b61147b9060026118ff565b67ffffffffffffffff811115611493576114936119ee565b6040519080825280601f01601f1916602001820160405280156114bd576020820181803683370190505b509050600360fc1b816000815181106114d8576114d8611a04565b60200101906001600160f81b031916908160001a905350600f60fb1b8160018151811061150757611507611a04565b60200101906001600160f81b031916908160001a905350600061152b84600261189c565b6115369060016118ff565b90505b60018111156115ae576f181899199a1a9b1b9c1cb0b131b232b360811b85600f166010811061156a5761156a611a04565b1a60f81b82828151811061158057611580611a04565b60200101906001600160f81b031916908160001a90535060049490941c936115a781611a1a565b9050611539565b5083156115fd5760405162461bcd60e51b815260206004820181905260248201527f537472696e67733a20686578206c656e67746820696e73756666696369656e7460448201526064016106cc565b9392505050565b82805461161090611832565b90600052602060002090601f0160209004810192826116325760008555611678565b82601f1061164b57805160ff1916838001178555611678565b82800160010185558215611678579182015b8281111561167857825182559160200191906001019061165d565b50611684929150611688565b5090565b5b808211156116845760008155600101611689565b6000602082840312156116af57600080fd5b81356001600160e01b0319811681146115fd57600080fd5b60005b838110156116e25781810151838201526020016116ca565b838111156106305750506000910152565b60208152600082518060208401526117128160408501602087016116c7565b601f01601f19169190910160400192915050565b80356001600160a01b038116811461173d57600080fd5b919050565b6000806040838503121561175557600080fd5b61175e83611726565b946020939093013593505050565b60006020828403121561177e57600080fd5b6115fd82611726565b60008060006060848603121561179c57600080fd5b6117a584611726565b92506117b360208501611726565b9150604084013590509250925092565b6000602082840312156117d557600080fd5b5035919050565b600080604083850312156117ef57600080fd5b823591506117ff60208401611726565b90509250929050565b6000806040838503121561181b57600080fd5b61182483611726565b91506117ff60208401611726565b600181811c9082168061184657607f821691505b6020821081141561186757634e487b7160e01b600052602260045260246000fd5b50919050565b60006020828403121561187f57600080fd5b5051919050565b634e487b7160e01b600052601160045260246000fd5b60008160001904831182151516156118b6576118b6611886565b500290565b6000826118d857634e487b7160e01b600052601260045260246000fd5b500490565b6000602082840312156118ef57600080fd5b815180151581146115fd57600080fd5b6000821982111561191257611912611886565b500190565b60008282101561192957611929611886565b500390565b6020808252602b908201527f496e697469616c697a61626c653a20636f6e7472616374206973206e6f74206960408201526a6e697469616c697a696e6760a81b606082015260800190565b7f416363657373436f6e74726f6c3a206163636f756e74200000000000000000008152600083516119b18160178501602088016116c7565b7001034b99036b4b9b9b4b733903937b6329607d1b60179184019182015283516119e28160288401602088016116c7565b01602801949350505050565b634e487b7160e01b600052604160045260246000fd5b634e487b7160e01b600052603260045260246000fd5b600081611a2957611a29611886565b50600019019056fe65d7a28e3265b37a6474929f336521b332c1681b933f6cb9f3376673440d862aa2646970667358221220a442021b69efaf338ce8598b967962f58ff000588ee705ba13cec232a5eca5b164736f6c63430008090033",
  "linkReferences": {},
  "deployedLinkReferences": {}
}