{
  "_format": "hh-sol-artifact-1",
  "contractName": "xEVOUpgradeable",
  "sourceName": "contracts/ERC20/xEVOUpgradeable.sol",
  "abi": [
    {
      "inputs": [],
      "stateMutability": "nonpayable",
      "type": "constructor"
    },
    {
      "anonymous": false,
      "inputs": [
        {
          "indexed": true,
          "internalType": "address",
          "name": "owner",
          "type": "address"
        },
        {
          "indexed": true,
          "internalType": "address",
          "name": "spender",
          "type": "address"
        },
        {
          "indexed": false,
          "internalType": "uint256",
          "name": "value",
          "type": "uint256"
        }
      ],
      "name": "Approval",
      "type": "event"
    },
    {
      "anonymous": false,
      "inputs": [
        {
          "indexed": false,
          "internalType": "address",
          "name": "account",
          "type": "address"
        }
      ],
      "name": "Paused",
      "type": "event"
    },
    {
      "anonymous": false,
      "inputs": [
        {
          "indexed": true,
          "internalType": "bytes32",
          "name": "role",
          "type": "bytes32"
        },
        {
          "indexed": true,
          "internalType": "bytes32",
          "name": "previousAdminRole",
          "type": "bytes32"
        },
        {
          "indexed": true,
          "internalType": "bytes32",
          "name": "newAdminRole",
          "type": "bytes32"
        }
      ],
      "name": "RoleAdminChanged",
      "type": "event"
    },
    {
      "anonymous": false,
      "inputs": [
        {
          "indexed": true,
          "internalType": "bytes32",
          "name": "role",
          "type": "bytes32"
        },
        {
          "indexed": true,
          "internalType": "address",
          "name": "account",
          "type": "address"
        },
        {
          "indexed": true,
          "internalType": "address",
          "name": "sender",
          "type": "address"
        }
      ],
      "name": "RoleGranted",
      "type": "event"
    },
    {
      "anonymous": false,
      "inputs": [
        {
          "indexed": true,
          "internalType": "bytes32",
          "name": "role",
          "type": "bytes32"
        },
        {
          "indexed": true,
          "internalType": "address",
          "name": "account",
          "type": "address"
        },
        {
          "indexed": true,
          "internalType": "address",
          "name": "sender",
          "type": "address"
        }
      ],
      "name": "RoleRevoked",
      "type": "event"
    },
    {
      "anonymous": false,
      "inputs": [
        {
          "indexed": true,
          "internalType": "address",
          "name": "from",
          "type": "address"
        },
        {
          "indexed": true,
          "internalType": "address",
          "name": "to",
          "type": "address"
        },
        {
          "indexed": false,
          "internalType": "uint256",
          "name": "value",
          "type": "uint256"
        }
      ],
      "name": "Transfer",
      "type": "event"
    },
    {
      "anonymous": false,
      "inputs": [
        {
          "indexed": false,
          "internalType": "address",
          "name": "account",
          "type": "address"
        }
      ],
      "name": "Unpaused",
      "type": "event"
    },
    {
      "inputs": [],
      "name": "CONTRACT_ROLE",
      "outputs": [
        {
          "internalType": "bytes32",
          "name": "",
          "type": "bytes32"
        }
      ],
      "stateMutability": "view",
      "type": "function"
    },
    {
      "inputs": [],
      "name": "DEFAULT_ADMIN_ROLE",
      "outputs": [
        {
          "internalType": "bytes32",
          "name": "",
          "type": "bytes32"
        }
      ],
      "stateMutability": "view",
      "type": "function"
    },
    {
      "inputs": [],
      "name": "PAUSER_ROLE",
      "outputs": [
        {
          "internalType": "bytes32",
          "name": "",
          "type": "bytes32"
        }
      ],
      "stateMutability": "view",
      "type": "function"
    },
    {
      "inputs": [
        {
          "internalType": "address",
          "name": "owner",
          "type": "address"
        },
        {
          "internalType": "address",
          "name": "spender",
          "type": "address"
        }
      ],
      "name": "allowance",
      "outputs": [
        {
          "internalType": "uint256",
          "name": "",
          "type": "uint256"
        }
      ],
      "stateMutability": "view",
      "type": "function"
    },
    {
      "inputs": [
        {
          "internalType": "address",
          "name": "spender",
          "type": "address"
        },
        {
          "internalType": "uint256",
          "name": "amount",
          "type": "uint256"
        }
      ],
      "name": "approve",
      "outputs": [
        {
          "internalType": "bool",
          "name": "",
          "type": "bool"
        }
      ],
      "stateMutability": "nonpayable",
      "type": "function"
    },
    {
      "inputs": [
        {
          "internalType": "address",
          "name": "account",
          "type": "address"
        }
      ],
      "name": "balanceOf",
      "outputs": [
        {
          "internalType": "uint256",
          "name": "",
          "type": "uint256"
        }
      ],
      "stateMutability": "view",
      "type": "function"
    },
    {
      "inputs": [],
      "name": "decimals",
      "outputs": [
        {
          "internalType": "uint8",
          "name": "",
          "type": "uint8"
        }
      ],
      "stateMutability": "view",
      "type": "function"
    },
    {
      "inputs": [
        {
          "internalType": "address",
          "name": "spender",
          "type": "address"
        },
        {
          "internalType": "uint256",
          "name": "subtractedValue",
          "type": "uint256"
        }
      ],
      "name": "decreaseAllowance",
      "outputs": [
        {
          "internalType": "bool",
          "name": "",
          "type": "bool"
        }
      ],
      "stateMutability": "nonpayable",
      "type": "function"
    },
    {
      "inputs": [
        {
          "internalType": "uint256",
          "name": "amount",
          "type": "uint256"
        }
      ],
      "name": "deposit",
      "outputs": [],
      "stateMutability": "nonpayable",
      "type": "function"
    },
    {
      "inputs": [
        {
          "internalType": "bytes32",
          "name": "role",
          "type": "bytes32"
        }
      ],
      "name": "getRoleAdmin",
      "outputs": [
        {
          "internalType": "bytes32",
          "name": "",
          "type": "bytes32"
        }
      ],
      "stateMutability": "view",
      "type": "function"
    },
    {
      "inputs": [
        {
          "internalType": "bytes32",
          "name": "role",
          "type": "bytes32"
        },
        {
          "internalType": "address",
          "name": "account",
          "type": "address"
        }
      ],
      "name": "grantRole",
      "outputs": [],
      "stateMutability": "nonpayable",
      "type": "function"
    },
    {
      "inputs": [
        {
          "internalType": "bytes32",
          "name": "role",
          "type": "bytes32"
        },
        {
          "internalType": "address",
          "name": "account",
          "type": "address"
        }
      ],
      "name": "hasRole",
      "outputs": [
        {
          "internalType": "bool",
          "name": "",
          "type": "bool"
        }
      ],
      "stateMutability": "view",
      "type": "function"
    },
    {
      "inputs": [
        {
          "internalType": "address",
          "name": "spender",
          "type": "address"
        },
        {
          "internalType": "uint256",
          "name": "addedValue",
          "type": "uint256"
        }
      ],
      "name": "increaseAllowance",
      "outputs": [
        {
          "internalType": "bool",
          "name": "",
          "type": "bool"
        }
      ],
      "stateMutability": "nonpayable",
      "type": "function"
    },
    {
      "inputs": [],
      "name": "initialize",
      "outputs": [],
      "stateMutability": "nonpayable",
      "type": "function"
    },
    {
      "inputs": [],
      "name": "name",
      "outputs": [
        {
          "internalType": "string",
          "name": "",
          "type": "string"
        }
      ],
      "stateMutability": "view",
      "type": "function"
    },
    {
      "inputs": [],
      "name": "pause",
      "outputs": [],
      "stateMutability": "nonpayable",
      "type": "function"
    },
    {
      "inputs": [],
      "name": "paused",
      "outputs": [
        {
          "internalType": "bool",
          "name": "",
          "type": "bool"
        }
      ],
      "stateMutability": "view",
      "type": "function"
    },
    {
      "inputs": [
        {
          "internalType": "bytes32",
          "name": "role",
          "type": "bytes32"
        },
        {
          "internalType": "address",
          "name": "account",
          "type": "address"
        }
      ],
      "name": "renounceRole",
      "outputs": [],
      "stateMutability": "nonpayable",
      "type": "function"
    },
    {
      "inputs": [
        {
          "internalType": "bytes32",
          "name": "role",
          "type": "bytes32"
        },
        {
          "internalType": "address",
          "name": "account",
          "type": "address"
        }
      ],
      "name": "revokeRole",
      "outputs": [],
      "stateMutability": "nonpayable",
      "type": "function"
    },
    {
      "inputs": [
        {
          "internalType": "bytes4",
          "name": "interfaceId",
          "type": "bytes4"
        }
      ],
      "name": "supportsInterface",
      "outputs": [
        {
          "internalType": "bool",
          "name": "",
          "type": "bool"
        }
      ],
      "stateMutability": "view",
      "type": "function"
    },
    {
      "inputs": [],
      "name": "symbol",
      "outputs": [
        {
          "internalType": "string",
          "name": "",
          "type": "string"
        }
      ],
      "stateMutability": "view",
      "type": "function"
    },
    {
      "inputs": [],
      "name": "totalSupply",
      "outputs": [
        {
          "internalType": "uint256",
          "name": "",
          "type": "uint256"
        }
      ],
      "stateMutability": "view",
      "type": "function"
    },
    {
      "inputs": [
        {
          "internalType": "address",
          "name": "to",
          "type": "address"
        },
        {
          "internalType": "uint256",
          "name": "amount",
          "type": "uint256"
        }
      ],
      "name": "transfer",
      "outputs": [
        {
          "internalType": "bool",
          "name": "",
          "type": "bool"
        }
      ],
      "stateMutability": "nonpayable",
      "type": "function"
    },
    {
      "inputs": [
        {
          "internalType": "address",
          "name": "from",
          "type": "address"
        },
        {
          "internalType": "address",
          "name": "to",
          "type": "address"
        },
        {
          "internalType": "uint256",
          "name": "amount",
          "type": "uint256"
        }
      ],
      "name": "transferFrom",
      "outputs": [
        {
          "internalType": "bool",
          "name": "",
          "type": "bool"
        }
      ],
      "stateMutability": "nonpayable",
      "type": "function"
    },
    {
      "inputs": [],
      "name": "unpause",
      "outputs": [],
      "stateMutability": "nonpayable",
      "type": "function"
    },
    {
      "inputs": [
        {
          "internalType": "uint256",
          "name": "amount",
          "type": "uint256"
        }
      ],
      "name": "withdraw",
      "outputs": [],
      "stateMutability": "nonpayable",
      "type": "function"
    }
  ],
  "bytecode": "0x60806040523480156200001157600080fd5b50600054610100900460ff166200002f5760005460ff161562000039565b62000039620000de565b620000a15760405162461bcd60e51b815260206004820152602e60248201527f496e697469616c697a61626c653a20636f6e747261637420697320616c72656160448201526d191e481a5b9a5d1a585b1a5e995960921b606482015260840160405180910390fd5b600054610100900460ff16158015620000c4576000805461ffff19166101011790555b8015620000d7576000805461ff00191690555b506200010b565b6000620000f630620000fc60201b62000b611760201c565b15905090565b6001600160a01b03163b151590565b611aaa806200011b6000396000f3fe608060405234801561001057600080fd5b506004361061018e5760003560e01c80635c975abb116100de578063a217fddf11610097578063b6b55f2511610071578063b6b55f2514610348578063d547741f1461035b578063dd62ed3e1461036e578063e63ab1e9146103a757600080fd5b8063a217fddf1461031a578063a457c2d714610322578063a9059cbb1461033557600080fd5b80635c975abb146102bb57806370a08231146102c65780638129fc1c146102ef5780638456cb59146102f757806391d14854146102ff57806395d89b411461031257600080fd5b8063248a9ca31161014b578063313ce56711610125578063313ce5671461027e57806336568abe1461028d57806339509351146102a05780633f4ba83a146102b357600080fd5b8063248a9ca3146102335780632e1a7d4d146102565780632f2ff15d1461026b57600080fd5b806301ffc9a71461019357806303fe46ab146101bb57806306fdde03146101f0578063095ea7b31461020557806318160ddd1461021857806323b872dd14610220575b600080fd5b6101a66101a13660046116c0565b6103bc565b60405190151581526020015b60405180910390f35b6101e27f364d3d7565c7a8300c96fd53e065d19b65848d7b23b3191adcd55621c744223c81565b6040519081526020016101b2565b6101f86103f3565b6040516101b29190611716565b6101a6610213366004611765565b610485565b60cb546101e2565b6101a661022e36600461178f565b61049d565b6101e26102413660046117cb565b60009081526097602052604090206001015490565b6102696102643660046117cb565b6104c1565b005b6102696102793660046117e4565b610608565b604051601281526020016101b2565b61026961029b3660046117e4565b610633565b6101a66102ae366004611765565b6106b6565b6102696106f5565b60335460ff166101a6565b6101e26102d4366004611810565b6001600160a01b0316600090815260c9602052604090205490565b610269610719565b610269610896565b6101a661030d3660046117e4565b6108b7565b6101f86108e2565b6101e2600081565b6101a6610330366004611765565b6108f1565b6101a6610343366004611765565b610983565b6102696103563660046117cb565b610991565b6102696103693660046117e4565b610b3b565b6101e261037c36600461182b565b6001600160a01b03918216600090815260ca6020908152604080832093909416825291909152205490565b6101e2600080516020611a5583398151915281565b60006001600160e01b03198216637965db0b60e01b14806103ed57506301ffc9a760e01b6001600160e01b03198316145b92915050565b606060cc805461040290611855565b80601f016020809104026020016040519081016040528092919081815260200182805461042e90611855565b801561047b5780601f106104505761010080835404028352916020019161047b565b820191906000526020600020905b81548152906001019060200180831161045e57829003601f168201915b5050505050905090565b600033610493818585610b70565b5060019392505050565b6000336104ab858285610c94565b6104b6858585610d20565b506001949350505050565b60fb546040516370a0823160e01b81523060048201526000916001600160a01b0316906370a082319060240160206040518083038186803b15801561050557600080fd5b505afa158015610519573d6000803e3d6000fd5b505050506040513d601f19601f8201168201806040525081019061053d9190611890565b9050600061054a60cb5490565b905060008161055984866118bf565b61056391906118de565b905061056f3382610eee565b60fb546001600160a01b031663a9059cbb336040516001600160e01b031960e084901b1681526001600160a01b03909116600482015260248101849052604401602060405180830381600087803b1580156105c957600080fd5b505af11580156105dd573d6000803e3d6000fd5b505050506040513d601f19601f820116820180604052508101906106019190611900565b5050505050565b600082815260976020526040902060010154610624813361103c565b61062e83836110a0565b505050565b6001600160a01b03811633146106a85760405162461bcd60e51b815260206004820152602f60248201527f416363657373436f6e74726f6c3a2063616e206f6e6c792072656e6f756e636560448201526e103937b632b9903337b91039b2b63360891b60648201526084015b60405180910390fd5b6106b28282611126565b5050565b33600081815260ca602090815260408083206001600160a01b038716845290915281205490919061049390829086906106f0908790611922565b610b70565b600080516020611a5583398151915261070e813361103c565b61071661118d565b50565b600054610100900460ff166107345760005460ff1615610738565b303b155b61079b5760405162461bcd60e51b815260206004820152602e60248201527f496e697469616c697a61626c653a20636f6e747261637420697320616c72656160448201526d191e481a5b9a5d1a585b1a5e995960921b606482015260840161069f565b600054610100900460ff161580156107bd576000805461ffff19166101011790555b6107ff604051806040016040528060048152602001637845564f60e01b815250604051806040016040528060048152602001637845564f60e01b815250611220565b610807611251565b61080f611282565b61081a6000336110a0565b610832600080516020611a55833981519152336110a0565b61085c7f364d3d7565c7a8300c96fd53e065d19b65848d7b23b3191adcd55621c744223c336110a0565b60fb80546001600160a01b031916735b747e23a9e4c509dd06fbd2c0e3cb8b846e398f1790558015610716576000805461ff001916905550565b600080516020611a558339815191526108af813361103c565b6107166112a9565b60009182526097602090815260408084206001600160a01b0393909316845291905290205460ff1690565b606060cd805461040290611855565b33600081815260ca602090815260408083206001600160a01b0387168452909152812054909190838110156109765760405162461bcd60e51b815260206004820152602560248201527f45524332303a2064656372656173656420616c6c6f77616e63652062656c6f77604482015264207a65726f60d81b606482015260840161069f565b6104b68286868403610b70565b600033610493818585610d20565b60335460ff16156109d75760405162461bcd60e51b815260206004820152601060248201526f14185d5cd8589b194e881c185d5cd95960821b604482015260640161069f565b60fb546040516370a0823160e01b81523060048201526000916001600160a01b0316906370a082319060240160206040518083038186803b158015610a1b57600080fd5b505afa158015610a2f573d6000803e3d6000fd5b505050506040513d601f19601f82011682018060405250810190610a539190611890565b90506000610a6060cb5490565b60fb549091506001600160a01b03166323b872dd336040516001600160e01b031960e084901b1681526001600160a01b03909116600482015230602482015260448101869052606401602060405180830381600087803b158015610ac357600080fd5b505af1158015610ad7573d6000803e3d6000fd5b505050506040513d601f19601f82011682018060405250810190610afb9190611900565b506000811580610b09575082155b610b275782610b1883866118bf565b610b2291906118de565b610b29565b835b9050610b353382611324565b50505050565b600082815260976020526040902060010154610b57813361103c565b61062e8383611126565b6001600160a01b03163b151590565b6001600160a01b038316610bd25760405162461bcd60e51b8152602060048201526024808201527f45524332303a20617070726f76652066726f6d20746865207a65726f206164646044820152637265737360e01b606482015260840161069f565b6001600160a01b038216610c335760405162461bcd60e51b815260206004820152602260248201527f45524332303a20617070726f766520746f20746865207a65726f206164647265604482015261737360f01b606482015260840161069f565b6001600160a01b03838116600081815260ca602090815260408083209487168084529482529182902085905590518481527f8c5be1e5ebec7d5bd14f71427d1e84f3dd0314c0f7b2291e5b200ac8c7c3b925910160405180910390a3505050565b6001600160a01b03838116600090815260ca60209081526040808320938616835292905220546000198114610b355781811015610d135760405162461bcd60e51b815260206004820152601d60248201527f45524332303a20696e73756666696369656e7420616c6c6f77616e6365000000604482015260640161069f565b610b358484848403610b70565b6001600160a01b038316610d845760405162461bcd60e51b815260206004820152602560248201527f45524332303a207472616e736665722066726f6d20746865207a65726f206164604482015264647265737360d81b606482015260840161069f565b6001600160a01b038216610de65760405162461bcd60e51b815260206004820152602360248201527f45524332303a207472616e7366657220746f20746865207a65726f206164647260448201526265737360e81b606482015260840161069f565b6001600160a01b038316600090815260c9602052604090205481811015610e5e5760405162461bcd60e51b815260206004820152602660248201527f45524332303a207472616e7366657220616d6f756e7420657863656564732062604482015265616c616e636560d01b606482015260840161069f565b6001600160a01b03808516600090815260c96020526040808220858503905591851681529081208054849290610e95908490611922565b92505081905550826001600160a01b0316846001600160a01b03167fddf252ad1be2c89b69c2b068fc378daa952ba7f163c4a11628f55a4df523b3ef84604051610ee191815260200190565b60405180910390a3610b35565b6001600160a01b038216610f4e5760405162461bcd60e51b815260206004820152602160248201527f45524332303a206275726e2066726f6d20746865207a65726f206164647265736044820152607360f81b606482015260840161069f565b6001600160a01b038216600090815260c9602052604090205481811015610fc25760405162461bcd60e51b815260206004820152602260248201527f45524332303a206275726e20616d6f756e7420657863656564732062616c616e604482015261636560f01b606482015260840161069f565b6001600160a01b038316600090815260c960205260408120838303905560cb8054849290610ff190849061193a565b90915550506040518281526000906001600160a01b038516907fddf252ad1be2c89b69c2b068fc378daa952ba7f163c4a11628f55a4df523b3ef9060200160405180910390a3505050565b61104682826108b7565b6106b25761105e816001600160a01b03166014611403565b611069836020611403565b60405160200161107a929190611951565b60408051601f198184030181529082905262461bcd60e51b825261069f91600401611716565b6110aa82826108b7565b6106b25760008281526097602090815260408083206001600160a01b03851684529091529020805460ff191660011790556110e23390565b6001600160a01b0316816001600160a01b0316837f2f8788117e7eff1d82e926ec794901d17c78024a50270940304540a733656f0d60405160405180910390a45050565b61113082826108b7565b156106b25760008281526097602090815260408083206001600160a01b0385168085529252808320805460ff1916905551339285917ff6391f5c32d9c69d2a47ea670b442974b53935d1edc7fd64eb21e047a839171b9190a45050565b60335460ff166111d65760405162461bcd60e51b815260206004820152601460248201527314185d5cd8589b194e881b9bdd081c185d5cd95960621b604482015260640161069f565b6033805460ff191690557f5db9ee0a495bf2e6ff9c91a7834c1ba4fdd244a5e8aa4e537bd38aeae4b073aa335b6040516001600160a01b03909116815260200160405180910390a1565b600054610100900460ff166112475760405162461bcd60e51b815260040161069f906119c6565b6106b282826115a6565b600054610100900460ff166112785760405162461bcd60e51b815260040161069f906119c6565b6112806115f4565b565b600054610100900460ff166112805760405162461bcd60e51b815260040161069f906119c6565b60335460ff16156112ef5760405162461bcd60e51b815260206004820152601060248201526f14185d5cd8589b194e881c185d5cd95960821b604482015260640161069f565b6033805460ff191660011790557f62e78cea01bee320cd4e420270b5ea74000d11b0c9f74754ebdbfc544b05a2586112033390565b6001600160a01b03821661137a5760405162461bcd60e51b815260206004820152601f60248201527f45524332303a206d696e7420746f20746865207a65726f206164647265737300604482015260640161069f565b8060cb600082825461138c9190611922565b90915550506001600160a01b038216600090815260c96020526040812080548392906113b9908490611922565b90915550506040518181526001600160a01b038316906000907fddf252ad1be2c89b69c2b068fc378daa952ba7f163c4a11628f55a4df523b3ef9060200160405180910390a35050565b606060006114128360026118bf565b61141d906002611922565b67ffffffffffffffff81111561143557611435611a11565b6040519080825280601f01601f19166020018201604052801561145f576020820181803683370190505b509050600360fc1b8160008151811061147a5761147a611a27565b60200101906001600160f81b031916908160001a905350600f60fb1b816001815181106114a9576114a9611a27565b60200101906001600160f81b031916908160001a90535060006114cd8460026118bf565b6114d8906001611922565b90505b6001811115611550576f181899199a1a9b1b9c1cb0b131b232b360811b85600f166010811061150c5761150c611a27565b1a60f81b82828151811061152257611522611a27565b60200101906001600160f81b031916908160001a90535060049490941c9361154981611a3d565b90506114db565b50831561159f5760405162461bcd60e51b815260206004820181905260248201527f537472696e67733a20686578206c656e67746820696e73756666696369656e74604482015260640161069f565b9392505050565b600054610100900460ff166115cd5760405162461bcd60e51b815260040161069f906119c6565b81516115e09060cc906020850190611627565b50805161062e9060cd906020840190611627565b600054610100900460ff1661161b5760405162461bcd60e51b815260040161069f906119c6565b6033805460ff19169055565b82805461163390611855565b90600052602060002090601f016020900481019282611655576000855561169b565b82601f1061166e57805160ff191683800117855561169b565b8280016001018555821561169b579182015b8281111561169b578251825591602001919060010190611680565b506116a79291506116ab565b5090565b5b808211156116a757600081556001016116ac565b6000602082840312156116d257600080fd5b81356001600160e01b03198116811461159f57600080fd5b60005b838110156117055781810151838201526020016116ed565b83811115610b355750506000910152565b60208152600082518060208401526117358160408501602087016116ea565b601f01601f19169190910160400192915050565b80356001600160a01b038116811461176057600080fd5b919050565b6000806040838503121561177857600080fd5b61178183611749565b946020939093013593505050565b6000806000606084860312156117a457600080fd5b6117ad84611749565b92506117bb60208501611749565b9150604084013590509250925092565b6000602082840312156117dd57600080fd5b5035919050565b600080604083850312156117f757600080fd5b8235915061180760208401611749565b90509250929050565b60006020828403121561182257600080fd5b61159f82611749565b6000806040838503121561183e57600080fd5b61184783611749565b915061180760208401611749565b600181811c9082168061186957607f821691505b6020821081141561188a57634e487b7160e01b600052602260045260246000fd5b50919050565b6000602082840312156118a257600080fd5b5051919050565b634e487b7160e01b600052601160045260246000fd5b60008160001904831182151516156118d9576118d96118a9565b500290565b6000826118fb57634e487b7160e01b600052601260045260246000fd5b500490565b60006020828403121561191257600080fd5b8151801515811461159f57600080fd5b60008219821115611935576119356118a9565b500190565b60008282101561194c5761194c6118a9565b500390565b7f416363657373436f6e74726f6c3a206163636f756e74200000000000000000008152600083516119898160178501602088016116ea565b7001034b99036b4b9b9b4b733903937b6329607d1b60179184019182015283516119ba8160288401602088016116ea565b01602801949350505050565b6020808252602b908201527f496e697469616c697a61626c653a20636f6e7472616374206973206e6f74206960408201526a6e697469616c697a696e6760a81b606082015260800190565b634e487b7160e01b600052604160045260246000fd5b634e487b7160e01b600052603260045260246000fd5b600081611a4c57611a4c6118a9565b50600019019056fe65d7a28e3265b37a6474929f336521b332c1681b933f6cb9f3376673440d862aa26469706673582212203ba363e0f774f0a5dc4e6c5260fb8f9b361b3db9b2439a5d399d5dcf307325e664736f6c63430008090033",
  "linkReferences": {},
  "deployedLinkReferences": {}
}