{
  "_format": "hh-sol-artifact-1",
  "contractName": "xEVOUpgradeable",
  "sourceName": "contracts/ERC20/xEVOUpgradeable.sol",
  "abi": [
    {
      "inputs": [],
      "stateMutability": "nonpayable",
      "type": "constructor"
    },
    {
      "anonymous": false,
      "inputs": [
        {
          "indexed": true,
          "internalType": "address",
          "name": "owner",
          "type": "address"
        },
        {
          "indexed": true,
          "internalType": "address",
          "name": "spender",
          "type": "address"
        },
        {
          "indexed": false,
          "internalType": "uint256",
          "name": "value",
          "type": "uint256"
        }
      ],
      "name": "Approval",
      "type": "event"
    },
    {
      "anonymous": false,
      "inputs": [
        {
          "indexed": false,
          "internalType": "uint8",
          "name": "version",
          "type": "uint8"
        }
      ],
      "name": "Initialized",
      "type": "event"
    },
    {
      "anonymous": false,
      "inputs": [
        {
          "indexed": false,
          "internalType": "address",
          "name": "account",
          "type": "address"
        }
      ],
      "name": "Paused",
      "type": "event"
    },
    {
      "anonymous": false,
      "inputs": [
        {
          "indexed": true,
          "internalType": "bytes32",
          "name": "role",
          "type": "bytes32"
        },
        {
          "indexed": true,
          "internalType": "bytes32",
          "name": "previousAdminRole",
          "type": "bytes32"
        },
        {
          "indexed": true,
          "internalType": "bytes32",
          "name": "newAdminRole",
          "type": "bytes32"
        }
      ],
      "name": "RoleAdminChanged",
      "type": "event"
    },
    {
      "anonymous": false,
      "inputs": [
        {
          "indexed": true,
          "internalType": "bytes32",
          "name": "role",
          "type": "bytes32"
        },
        {
          "indexed": true,
          "internalType": "address",
          "name": "account",
          "type": "address"
        },
        {
          "indexed": true,
          "internalType": "address",
          "name": "sender",
          "type": "address"
        }
      ],
      "name": "RoleGranted",
      "type": "event"
    },
    {
      "anonymous": false,
      "inputs": [
        {
          "indexed": true,
          "internalType": "bytes32",
          "name": "role",
          "type": "bytes32"
        },
        {
          "indexed": true,
          "internalType": "address",
          "name": "account",
          "type": "address"
        },
        {
          "indexed": true,
          "internalType": "address",
          "name": "sender",
          "type": "address"
        }
      ],
      "name": "RoleRevoked",
      "type": "event"
    },
    {
      "anonymous": false,
      "inputs": [
        {
          "indexed": true,
          "internalType": "address",
          "name": "from",
          "type": "address"
        },
        {
          "indexed": true,
          "internalType": "address",
          "name": "to",
          "type": "address"
        },
        {
          "indexed": false,
          "internalType": "uint256",
          "name": "value",
          "type": "uint256"
        }
      ],
      "name": "Transfer",
      "type": "event"
    },
    {
      "anonymous": false,
      "inputs": [
        {
          "indexed": false,
          "internalType": "address",
          "name": "account",
          "type": "address"
        }
      ],
      "name": "Unpaused",
      "type": "event"
    },
    {
      "inputs": [],
      "name": "CONTRACT_ROLE",
      "outputs": [
        {
          "internalType": "bytes32",
          "name": "",
          "type": "bytes32"
        }
      ],
      "stateMutability": "view",
      "type": "function"
    },
    {
      "inputs": [],
      "name": "DEFAULT_ADMIN_ROLE",
      "outputs": [
        {
          "internalType": "bytes32",
          "name": "",
          "type": "bytes32"
        }
      ],
      "stateMutability": "view",
      "type": "function"
    },
    {
      "inputs": [],
      "name": "PAUSER_ROLE",
      "outputs": [
        {
          "internalType": "bytes32",
          "name": "",
          "type": "bytes32"
        }
      ],
      "stateMutability": "view",
      "type": "function"
    },
    {
      "inputs": [
        {
          "internalType": "address",
          "name": "owner",
          "type": "address"
        },
        {
          "internalType": "address",
          "name": "spender",
          "type": "address"
        }
      ],
      "name": "allowance",
      "outputs": [
        {
          "internalType": "uint256",
          "name": "",
          "type": "uint256"
        }
      ],
      "stateMutability": "view",
      "type": "function"
    },
    {
      "inputs": [
        {
          "internalType": "address",
          "name": "spender",
          "type": "address"
        },
        {
          "internalType": "uint256",
          "name": "amount",
          "type": "uint256"
        }
      ],
      "name": "approve",
      "outputs": [
        {
          "internalType": "bool",
          "name": "",
          "type": "bool"
        }
      ],
      "stateMutability": "nonpayable",
      "type": "function"
    },
    {
      "inputs": [
        {
          "internalType": "address",
          "name": "account",
          "type": "address"
        }
      ],
      "name": "balanceOf",
      "outputs": [
        {
          "internalType": "uint256",
          "name": "",
          "type": "uint256"
        }
      ],
      "stateMutability": "view",
      "type": "function"
    },
    {
      "inputs": [],
      "name": "decimals",
      "outputs": [
        {
          "internalType": "uint8",
          "name": "",
          "type": "uint8"
        }
      ],
      "stateMutability": "view",
      "type": "function"
    },
    {
      "inputs": [
        {
          "internalType": "address",
          "name": "spender",
          "type": "address"
        },
        {
          "internalType": "uint256",
          "name": "subtractedValue",
          "type": "uint256"
        }
      ],
      "name": "decreaseAllowance",
      "outputs": [
        {
          "internalType": "bool",
          "name": "",
          "type": "bool"
        }
      ],
      "stateMutability": "nonpayable",
      "type": "function"
    },
    {
      "inputs": [
        {
          "internalType": "uint256",
          "name": "amount",
          "type": "uint256"
        }
      ],
      "name": "deposit",
      "outputs": [],
      "stateMutability": "nonpayable",
      "type": "function"
    },
    {
      "inputs": [
        {
          "internalType": "bytes32",
          "name": "role",
          "type": "bytes32"
        }
      ],
      "name": "getRoleAdmin",
      "outputs": [
        {
          "internalType": "bytes32",
          "name": "",
          "type": "bytes32"
        }
      ],
      "stateMutability": "view",
      "type": "function"
    },
    {
      "inputs": [
        {
          "internalType": "bytes32",
          "name": "role",
          "type": "bytes32"
        },
        {
          "internalType": "address",
          "name": "account",
          "type": "address"
        }
      ],
      "name": "grantRole",
      "outputs": [],
      "stateMutability": "nonpayable",
      "type": "function"
    },
    {
      "inputs": [
        {
          "internalType": "bytes32",
          "name": "role",
          "type": "bytes32"
        },
        {
          "internalType": "address",
          "name": "account",
          "type": "address"
        }
      ],
      "name": "hasRole",
      "outputs": [
        {
          "internalType": "bool",
          "name": "",
          "type": "bool"
        }
      ],
      "stateMutability": "view",
      "type": "function"
    },
    {
      "inputs": [
        {
          "internalType": "address",
          "name": "spender",
          "type": "address"
        },
        {
          "internalType": "uint256",
          "name": "addedValue",
          "type": "uint256"
        }
      ],
      "name": "increaseAllowance",
      "outputs": [
        {
          "internalType": "bool",
          "name": "",
          "type": "bool"
        }
      ],
      "stateMutability": "nonpayable",
      "type": "function"
    },
    {
      "inputs": [],
      "name": "initialize",
      "outputs": [],
      "stateMutability": "nonpayable",
      "type": "function"
    },
    {
      "inputs": [],
      "name": "name",
      "outputs": [
        {
          "internalType": "string",
          "name": "",
          "type": "string"
        }
      ],
      "stateMutability": "view",
      "type": "function"
    },
    {
      "inputs": [],
      "name": "pause",
      "outputs": [],
      "stateMutability": "nonpayable",
      "type": "function"
    },
    {
      "inputs": [],
      "name": "paused",
      "outputs": [
        {
          "internalType": "bool",
          "name": "",
          "type": "bool"
        }
      ],
      "stateMutability": "view",
      "type": "function"
    },
    {
      "inputs": [
        {
          "internalType": "bytes32",
          "name": "role",
          "type": "bytes32"
        },
        {
          "internalType": "address",
          "name": "account",
          "type": "address"
        }
      ],
      "name": "renounceRole",
      "outputs": [],
      "stateMutability": "nonpayable",
      "type": "function"
    },
    {
      "inputs": [
        {
          "internalType": "bytes32",
          "name": "role",
          "type": "bytes32"
        },
        {
          "internalType": "address",
          "name": "account",
          "type": "address"
        }
      ],
      "name": "revokeRole",
      "outputs": [],
      "stateMutability": "nonpayable",
      "type": "function"
    },
    {
      "inputs": [
        {
          "internalType": "bytes4",
          "name": "interfaceId",
          "type": "bytes4"
        }
      ],
      "name": "supportsInterface",
      "outputs": [
        {
          "internalType": "bool",
          "name": "",
          "type": "bool"
        }
      ],
      "stateMutability": "view",
      "type": "function"
    },
    {
      "inputs": [],
      "name": "symbol",
      "outputs": [
        {
          "internalType": "string",
          "name": "",
          "type": "string"
        }
      ],
      "stateMutability": "view",
      "type": "function"
    },
    {
      "inputs": [],
      "name": "totalSupply",
      "outputs": [
        {
          "internalType": "uint256",
          "name": "",
          "type": "uint256"
        }
      ],
      "stateMutability": "view",
      "type": "function"
    },
    {
      "inputs": [
        {
          "internalType": "address",
          "name": "to",
          "type": "address"
        },
        {
          "internalType": "uint256",
          "name": "amount",
          "type": "uint256"
        }
      ],
      "name": "transfer",
      "outputs": [
        {
          "internalType": "bool",
          "name": "",
          "type": "bool"
        }
      ],
      "stateMutability": "nonpayable",
      "type": "function"
    },
    {
      "inputs": [
        {
          "internalType": "address",
          "name": "from",
          "type": "address"
        },
        {
          "internalType": "address",
          "name": "to",
          "type": "address"
        },
        {
          "internalType": "uint256",
          "name": "amount",
          "type": "uint256"
        }
      ],
      "name": "transferFrom",
      "outputs": [
        {
          "internalType": "bool",
          "name": "",
          "type": "bool"
        }
      ],
      "stateMutability": "nonpayable",
      "type": "function"
    },
    {
      "inputs": [],
      "name": "unpause",
      "outputs": [],
      "stateMutability": "nonpayable",
      "type": "function"
    },
    {
      "inputs": [
        {
          "internalType": "uint256",
          "name": "amount",
          "type": "uint256"
        }
      ],
      "name": "withdraw",
      "outputs": [],
      "stateMutability": "nonpayable",
      "type": "function"
    }
  ],
  "bytecode": "0x60806040523480156200001157600080fd5b50600062000020600162000087565b9050801562000039576000805461ff0019166101001790555b801562000080576000805461ff0019169055604051600181527f7f26b83ff96e1f2b6a682f133852f6798a09c465da95921460cefb38474024989060200160405180910390a15b50620001a8565b60008054610100900460ff161562000120578160ff166001148015620000c05750620000be306200019960201b62000ae21760201c565b155b620001185760405162461bcd60e51b815260206004820152602e602482015260008051602062001cab83398151915260448201526d191e481a5b9a5d1a585b1a5e995960921b60648201526084015b60405180910390fd5b506000919050565b60005460ff8084169116106200017f5760405162461bcd60e51b815260206004820152602e602482015260008051602062001cab83398151915260448201526d191e481a5b9a5d1a585b1a5e995960921b60648201526084016200010f565b506000805460ff191660ff92909216919091179055600190565b6001600160a01b03163b151590565b611af380620001b86000396000f3fe608060405234801561001057600080fd5b506004361061018e5760003560e01c80635c975abb116100de578063a217fddf11610097578063b6b55f2511610071578063b6b55f2514610348578063d547741f1461035b578063dd62ed3e1461036e578063e63ab1e91461038157600080fd5b8063a217fddf1461031a578063a457c2d714610322578063a9059cbb1461033557600080fd5b80635c975abb146102bb57806370a08231146102c65780638129fc1c146102ef5780638456cb59146102f757806391d14854146102ff57806395d89b411461031257600080fd5b8063248a9ca31161014b578063313ce56711610125578063313ce5671461027e57806336568abe1461028d57806339509351146102a05780633f4ba83a146102b357600080fd5b8063248a9ca3146102335780632e1a7d4d146102565780632f2ff15d1461026b57600080fd5b806301ffc9a71461019357806303fe46ab146101bb57806306fdde03146101f0578063095ea7b31461020557806318160ddd1461021857806323b872dd14610220575b600080fd5b6101a66101a13660046116c0565b610396565b60405190151581526020015b60405180910390f35b6101e27f364d3d7565c7a8300c96fd53e065d19b65848d7b23b3191adcd55621c744223c81565b6040519081526020016101b2565b6101f86103cd565b6040516101b29190611716565b6101a6610213366004611760565b61045f565b60cb546101e2565b6101a661022e36600461178a565b610477565b6101e26102413660046117c6565b60009081526097602052604090206001015490565b6102696102643660046117c6565b61049b565b005b6102696102793660046117df565b6105e2565b604051601281526020016101b2565b61026961029b3660046117df565b61060c565b6101a66102ae366004611760565b61068f565b6102696106b1565b60335460ff166101a6565b6101e26102d436600461180b565b6001600160a01b0316600090815260c9602052604090205490565b6102696106d4565b610269610805565b6101a661030d3660046117df565b610825565b6101f8610850565b6101e2600081565b6101a6610330366004611760565b61085f565b6101a6610343366004611760565b6108da565b6102696103563660046117c6565b6108e8565b6102696103693660046117df565b610a92565b6101e261037c366004611826565b610ab7565b6101e2600080516020611a9e83398151915281565b60006001600160e01b03198216637965db0b60e01b14806103c757506301ffc9a760e01b6001600160e01b03198316145b92915050565b606060cc80546103dc90611850565b80601f016020809104026020016040519081016040528092919081815260200182805461040890611850565b80156104555780601f1061042a57610100808354040283529160200191610455565b820191906000526020600020905b81548152906001019060200180831161043857829003601f168201915b5050505050905090565b60003361046d818585610af1565b5060019392505050565b600033610485858285610c15565b610490858585610c89565b506001949350505050565b60fb546040516370a0823160e01b81523060048201526000916001600160a01b0316906370a082319060240160206040518083038186803b1580156104df57600080fd5b505afa1580156104f3573d6000803e3d6000fd5b505050506040513d601f19601f82011682018060405250810190610517919061188b565b9050600061052460cb5490565b905060008161053384866118ba565b61053d91906118d9565b90506105493382610e57565b60fb546001600160a01b031663a9059cbb336040516001600160e01b031960e084901b1681526001600160a01b03909116600482015260248101849052604401602060405180830381600087803b1580156105a357600080fd5b505af11580156105b7573d6000803e3d6000fd5b505050506040513d601f19601f820116820180604052508101906105db91906118fb565b5050505050565b6000828152609760205260409020600101546105fd81610fa5565b6106078383610faf565b505050565b6001600160a01b03811633146106815760405162461bcd60e51b815260206004820152602f60248201527f416363657373436f6e74726f6c3a2063616e206f6e6c792072656e6f756e636560448201526e103937b632b9903337b91039b2b63360891b60648201526084015b60405180910390fd5b61068b8282611035565b5050565b60003361046d8185856106a28383610ab7565b6106ac919061191d565b610af1565b600080516020611a9e8339815191526106c981610fa5565b6106d161109c565b50565b60006106e0600161112f565b905080156106f8576000805461ff0019166101001790555b61073a604051806040016040528060048152602001637845564f60e01b815250604051806040016040528060048152602001637845564f60e01b8152506111bc565b6107426111ed565b61074a61121e565b610755600033610faf565b61076d600080516020611a9e83398151915233610faf565b6107977f364d3d7565c7a8300c96fd53e065d19b65848d7b23b3191adcd55621c744223c33610faf565b60fb80546001600160a01b031916735b747e23a9e4c509dd06fbd2c0e3cb8b846e398f17905580156106d1576000805461ff0019169055604051600181527f7f26b83ff96e1f2b6a682f133852f6798a09c465da95921460cefb38474024989060200160405180910390a150565b600080516020611a9e83398151915261081d81610fa5565b6106d1611245565b60009182526097602090815260408084206001600160a01b0393909316845291905290205460ff1690565b606060cd80546103dc90611850565b6000338161086d8286610ab7565b9050838110156108cd5760405162461bcd60e51b815260206004820152602560248201527f45524332303a2064656372656173656420616c6c6f77616e63652062656c6f77604482015264207a65726f60d81b6064820152608401610678565b6104908286868403610af1565b60003361046d818585610c89565b60335460ff161561092e5760405162461bcd60e51b815260206004820152601060248201526f14185d5cd8589b194e881c185d5cd95960821b6044820152606401610678565b60fb546040516370a0823160e01b81523060048201526000916001600160a01b0316906370a082319060240160206040518083038186803b15801561097257600080fd5b505afa158015610986573d6000803e3d6000fd5b505050506040513d601f19601f820116820180604052508101906109aa919061188b565b905060006109b760cb5490565b60fb549091506001600160a01b03166323b872dd336040516001600160e01b031960e084901b1681526001600160a01b03909116600482015230602482015260448101869052606401602060405180830381600087803b158015610a1a57600080fd5b505af1158015610a2e573d6000803e3d6000fd5b505050506040513d601f19601f82011682018060405250810190610a5291906118fb565b506000811580610a60575082155b610a7e5782610a6f83866118ba565b610a7991906118d9565b610a80565b835b9050610a8c33826112c0565b50505050565b600082815260976020526040902060010154610aad81610fa5565b6106078383611035565b6001600160a01b03918216600090815260ca6020908152604080832093909416825291909152205490565b6001600160a01b03163b151590565b6001600160a01b038316610b535760405162461bcd60e51b8152602060048201526024808201527f45524332303a20617070726f76652066726f6d20746865207a65726f206164646044820152637265737360e01b6064820152608401610678565b6001600160a01b038216610bb45760405162461bcd60e51b815260206004820152602260248201527f45524332303a20617070726f766520746f20746865207a65726f206164647265604482015261737360f01b6064820152608401610678565b6001600160a01b03838116600081815260ca602090815260408083209487168084529482529182902085905590518481527f8c5be1e5ebec7d5bd14f71427d1e84f3dd0314c0f7b2291e5b200ac8c7c3b925910160405180910390a3505050565b6000610c218484610ab7565b90506000198114610a8c5781811015610c7c5760405162461bcd60e51b815260206004820152601d60248201527f45524332303a20696e73756666696369656e7420616c6c6f77616e63650000006044820152606401610678565b610a8c8484848403610af1565b6001600160a01b038316610ced5760405162461bcd60e51b815260206004820152602560248201527f45524332303a207472616e736665722066726f6d20746865207a65726f206164604482015264647265737360d81b6064820152608401610678565b6001600160a01b038216610d4f5760405162461bcd60e51b815260206004820152602360248201527f45524332303a207472616e7366657220746f20746865207a65726f206164647260448201526265737360e81b6064820152608401610678565b6001600160a01b038316600090815260c9602052604090205481811015610dc75760405162461bcd60e51b815260206004820152602660248201527f45524332303a207472616e7366657220616d6f756e7420657863656564732062604482015265616c616e636560d01b6064820152608401610678565b6001600160a01b03808516600090815260c96020526040808220858503905591851681529081208054849290610dfe90849061191d565b92505081905550826001600160a01b0316846001600160a01b03167fddf252ad1be2c89b69c2b068fc378daa952ba7f163c4a11628f55a4df523b3ef84604051610e4a91815260200190565b60405180910390a3610a8c565b6001600160a01b038216610eb75760405162461bcd60e51b815260206004820152602160248201527f45524332303a206275726e2066726f6d20746865207a65726f206164647265736044820152607360f81b6064820152608401610678565b6001600160a01b038216600090815260c9602052604090205481811015610f2b5760405162461bcd60e51b815260206004820152602260248201527f45524332303a206275726e20616d6f756e7420657863656564732062616c616e604482015261636560f01b6064820152608401610678565b6001600160a01b038316600090815260c960205260408120838303905560cb8054849290610f5a908490611935565b90915550506040518281526000906001600160a01b038516907fddf252ad1be2c89b69c2b068fc378daa952ba7f163c4a11628f55a4df523b3ef9060200160405180910390a3505050565b6106d1813361139f565b610fb98282610825565b61068b5760008281526097602090815260408083206001600160a01b03851684529091529020805460ff19166001179055610ff13390565b6001600160a01b0316816001600160a01b0316837f2f8788117e7eff1d82e926ec794901d17c78024a50270940304540a733656f0d60405160405180910390a45050565b61103f8282610825565b1561068b5760008281526097602090815260408083206001600160a01b0385168085529252808320805460ff1916905551339285917ff6391f5c32d9c69d2a47ea670b442974b53935d1edc7fd64eb21e047a839171b9190a45050565b60335460ff166110e55760405162461bcd60e51b815260206004820152601460248201527314185d5cd8589b194e881b9bdd081c185d5cd95960621b6044820152606401610678565b6033805460ff191690557f5db9ee0a495bf2e6ff9c91a7834c1ba4fdd244a5e8aa4e537bd38aeae4b073aa335b6040516001600160a01b03909116815260200160405180910390a1565b60008054610100900460ff1615611176578160ff1660011480156111525750303b155b61116e5760405162461bcd60e51b81526004016106789061194c565b506000919050565b60005460ff80841691161061119d5760405162461bcd60e51b81526004016106789061194c565b506000805460ff191660ff92909216919091179055600190565b919050565b600054610100900460ff166111e35760405162461bcd60e51b81526004016106789061199a565b61068b8282611403565b600054610100900460ff166112145760405162461bcd60e51b81526004016106789061199a565b61121c611451565b565b600054610100900460ff1661121c5760405162461bcd60e51b81526004016106789061199a565b60335460ff161561128b5760405162461bcd60e51b815260206004820152601060248201526f14185d5cd8589b194e881c185d5cd95960821b6044820152606401610678565b6033805460ff191660011790557f62e78cea01bee320cd4e420270b5ea74000d11b0c9f74754ebdbfc544b05a2586111123390565b6001600160a01b0382166113165760405162461bcd60e51b815260206004820152601f60248201527f45524332303a206d696e7420746f20746865207a65726f2061646472657373006044820152606401610678565b8060cb6000828254611328919061191d565b90915550506001600160a01b038216600090815260c960205260408120805483929061135590849061191d565b90915550506040518181526001600160a01b038316906000907fddf252ad1be2c89b69c2b068fc378daa952ba7f163c4a11628f55a4df523b3ef9060200160405180910390a35050565b6113a98282610825565b61068b576113c1816001600160a01b03166014611484565b6113cc836020611484565b6040516020016113dd9291906119e5565b60408051601f198184030181529082905262461bcd60e51b825261067891600401611716565b600054610100900460ff1661142a5760405162461bcd60e51b81526004016106789061199a565b815161143d9060cc906020850190611627565b5080516106079060cd906020840190611627565b600054610100900460ff166114785760405162461bcd60e51b81526004016106789061199a565b6033805460ff19169055565b606060006114938360026118ba565b61149e90600261191d565b67ffffffffffffffff8111156114b6576114b6611a5a565b6040519080825280601f01601f1916602001820160405280156114e0576020820181803683370190505b509050600360fc1b816000815181106114fb576114fb611a70565b60200101906001600160f81b031916908160001a905350600f60fb1b8160018151811061152a5761152a611a70565b60200101906001600160f81b031916908160001a905350600061154e8460026118ba565b61155990600161191d565b90505b60018111156115d1576f181899199a1a9b1b9c1cb0b131b232b360811b85600f166010811061158d5761158d611a70565b1a60f81b8282815181106115a3576115a3611a70565b60200101906001600160f81b031916908160001a90535060049490941c936115ca81611a86565b905061155c565b5083156116205760405162461bcd60e51b815260206004820181905260248201527f537472696e67733a20686578206c656e67746820696e73756666696369656e746044820152606401610678565b9392505050565b82805461163390611850565b90600052602060002090601f016020900481019282611655576000855561169b565b82601f1061166e57805160ff191683800117855561169b565b8280016001018555821561169b579182015b8281111561169b578251825591602001919060010190611680565b506116a79291506116ab565b5090565b5b808211156116a757600081556001016116ac565b6000602082840312156116d257600080fd5b81356001600160e01b03198116811461162057600080fd5b60005b838110156117055781810151838201526020016116ed565b83811115610a8c5750506000910152565b60208152600082518060208401526117358160408501602087016116ea565b601f01601f19169190910160400192915050565b80356001600160a01b03811681146111b757600080fd5b6000806040838503121561177357600080fd5b61177c83611749565b946020939093013593505050565b60008060006060848603121561179f57600080fd5b6117a884611749565b92506117b660208501611749565b9150604084013590509250925092565b6000602082840312156117d857600080fd5b5035919050565b600080604083850312156117f257600080fd5b8235915061180260208401611749565b90509250929050565b60006020828403121561181d57600080fd5b61162082611749565b6000806040838503121561183957600080fd5b61184283611749565b915061180260208401611749565b600181811c9082168061186457607f821691505b6020821081141561188557634e487b7160e01b600052602260045260246000fd5b50919050565b60006020828403121561189d57600080fd5b5051919050565b634e487b7160e01b600052601160045260246000fd5b60008160001904831182151516156118d4576118d46118a4565b500290565b6000826118f657634e487b7160e01b600052601260045260246000fd5b500490565b60006020828403121561190d57600080fd5b8151801515811461162057600080fd5b60008219821115611930576119306118a4565b500190565b600082821015611947576119476118a4565b500390565b6020808252602e908201527f496e697469616c697a61626c653a20636f6e747261637420697320616c72656160408201526d191e481a5b9a5d1a585b1a5e995960921b606082015260800190565b6020808252602b908201527f496e697469616c697a61626c653a20636f6e7472616374206973206e6f74206960408201526a6e697469616c697a696e6760a81b606082015260800190565b7f416363657373436f6e74726f6c3a206163636f756e7420000000000000000000815260008351611a1d8160178501602088016116ea565b7001034b99036b4b9b9b4b733903937b6329607d1b6017918401918201528351611a4e8160288401602088016116ea565b01602801949350505050565b634e487b7160e01b600052604160045260246000fd5b634e487b7160e01b600052603260045260246000fd5b600081611a9557611a956118a4565b50600019019056fe65d7a28e3265b37a6474929f336521b332c1681b933f6cb9f3376673440d862aa264697066735822122042bf734a532070712679030e206bc949b9764d5a56d4125e445d9a076c9243b764736f6c63430008090033496e697469616c697a61626c653a20636f6e747261637420697320616c726561",
  "linkReferences": {},
  "deployedLinkReferences": {}
}