{
  "_format": "hh-sol-artifact-1",
  "contractName": "MasterInvestor",
  "sourceName": "contracts/MasterInvestor.sol",
  "abi": [
    {
      "inputs": [],
      "stateMutability": "nonpayable",
      "type": "constructor"
    },
    {
      "anonymous": false,
      "inputs": [
        {
          "indexed": true,
          "internalType": "address",
          "name": "user",
          "type": "address"
        },
        {
          "indexed": true,
          "internalType": "uint256",
          "name": "pid",
          "type": "uint256"
        },
        {
          "indexed": false,
          "internalType": "uint256",
          "name": "amount",
          "type": "uint256"
        }
      ],
      "name": "Deposit",
      "type": "event"
    },
    {
      "anonymous": false,
      "inputs": [
        {
          "indexed": true,
          "internalType": "address",
          "name": "user",
          "type": "address"
        },
        {
          "indexed": true,
          "internalType": "uint256",
          "name": "pid",
          "type": "uint256"
        },
        {
          "indexed": false,
          "internalType": "uint256",
          "name": "amount",
          "type": "uint256"
        }
      ],
      "name": "EmergencyWithdraw",
      "type": "event"
    },
    {
      "anonymous": false,
      "inputs": [
        {
          "indexed": true,
          "internalType": "bytes32",
          "name": "role",
          "type": "bytes32"
        },
        {
          "indexed": true,
          "internalType": "bytes32",
          "name": "previousAdminRole",
          "type": "bytes32"
        },
        {
          "indexed": true,
          "internalType": "bytes32",
          "name": "newAdminRole",
          "type": "bytes32"
        }
      ],
      "name": "RoleAdminChanged",
      "type": "event"
    },
    {
      "anonymous": false,
      "inputs": [
        {
          "indexed": true,
          "internalType": "bytes32",
          "name": "role",
          "type": "bytes32"
        },
        {
          "indexed": true,
          "internalType": "address",
          "name": "account",
          "type": "address"
        },
        {
          "indexed": true,
          "internalType": "address",
          "name": "sender",
          "type": "address"
        }
      ],
      "name": "RoleGranted",
      "type": "event"
    },
    {
      "anonymous": false,
      "inputs": [
        {
          "indexed": true,
          "internalType": "bytes32",
          "name": "role",
          "type": "bytes32"
        },
        {
          "indexed": true,
          "internalType": "address",
          "name": "account",
          "type": "address"
        },
        {
          "indexed": true,
          "internalType": "address",
          "name": "sender",
          "type": "address"
        }
      ],
      "name": "RoleRevoked",
      "type": "event"
    },
    {
      "anonymous": false,
      "inputs": [
        {
          "indexed": true,
          "internalType": "address",
          "name": "user",
          "type": "address"
        },
        {
          "indexed": true,
          "internalType": "uint256",
          "name": "pid",
          "type": "uint256"
        },
        {
          "indexed": false,
          "internalType": "uint256",
          "name": "amount",
          "type": "uint256"
        },
        {
          "indexed": false,
          "internalType": "uint256",
          "name": "lockAmount",
          "type": "uint256"
        }
      ],
      "name": "SendGovernanceTokenReward",
      "type": "event"
    },
    {
      "anonymous": false,
      "inputs": [
        {
          "indexed": true,
          "internalType": "address",
          "name": "user",
          "type": "address"
        },
        {
          "indexed": true,
          "internalType": "uint256",
          "name": "pid",
          "type": "uint256"
        },
        {
          "indexed": false,
          "internalType": "uint256",
          "name": "amount",
          "type": "uint256"
        }
      ],
      "name": "Withdraw",
      "type": "event"
    },
    {
      "inputs": [],
      "name": "ADMIN_ROLE",
      "outputs": [
        {
          "internalType": "bytes32",
          "name": "",
          "type": "bytes32"
        }
      ],
      "stateMutability": "view",
      "type": "function"
    },
    {
      "inputs": [],
      "name": "AUTHORIZED_ROLE",
      "outputs": [
        {
          "internalType": "bytes32",
          "name": "",
          "type": "bytes32"
        }
      ],
      "stateMutability": "view",
      "type": "function"
    },
    {
      "inputs": [],
      "name": "COMMUNITY_FUND_ADDRESS",
      "outputs": [
        {
          "internalType": "address",
          "name": "",
          "type": "address"
        }
      ],
      "stateMutability": "view",
      "type": "function"
    },
    {
      "inputs": [],
      "name": "DEFAULT_ADMIN_ROLE",
      "outputs": [
        {
          "internalType": "bytes32",
          "name": "",
          "type": "bytes32"
        }
      ],
      "stateMutability": "view",
      "type": "function"
    },
    {
      "inputs": [],
      "name": "DEV_ADDRESS",
      "outputs": [
        {
          "internalType": "address",
          "name": "",
          "type": "address"
        }
      ],
      "stateMutability": "view",
      "type": "function"
    },
    {
      "inputs": [],
      "name": "DEV_DEP_FEE",
      "outputs": [
        {
          "internalType": "uint256",
          "name": "",
          "type": "uint256"
        }
      ],
      "stateMutability": "view",
      "type": "function"
    },
    {
      "inputs": [
        {
          "internalType": "uint256",
          "name": "",
          "type": "uint256"
        }
      ],
      "name": "DEV_FEE_STAGES",
      "outputs": [
        {
          "internalType": "uint256",
          "name": "",
          "type": "uint256"
        }
      ],
      "stateMutability": "view",
      "type": "function"
    },
    {
      "inputs": [],
      "name": "FINISH_BONUS_AT_TIME",
      "outputs": [
        {
          "internalType": "uint256",
          "name": "",
          "type": "uint256"
        }
      ],
      "stateMutability": "view",
      "type": "function"
    },
    {
      "inputs": [],
      "name": "FOUNDER_ADDRESS",
      "outputs": [
        {
          "internalType": "address",
          "name": "",
          "type": "address"
        }
      ],
      "stateMutability": "view",
      "type": "function"
    },
    {
      "inputs": [],
      "name": "GOV_TOKEN",
      "outputs": [
        {
          "internalType": "contract EvoToken",
          "name": "",
          "type": "address"
        }
      ],
      "stateMutability": "view",
      "type": "function"
    },
    {
      "inputs": [
        {
          "internalType": "uint256",
          "name": "",
          "type": "uint256"
        }
      ],
      "name": "HALVING_AT_TIMES",
      "outputs": [
        {
          "internalType": "uint256",
          "name": "",
          "type": "uint256"
        }
      ],
      "stateMutability": "view",
      "type": "function"
    },
    {
      "inputs": [],
      "name": "LP_ADDRESS",
      "outputs": [
        {
          "internalType": "address",
          "name": "",
          "type": "address"
        }
      ],
      "stateMutability": "view",
      "type": "function"
    },
    {
      "inputs": [],
      "name": "PERCENT_FOR_COM",
      "outputs": [
        {
          "internalType": "uint256",
          "name": "",
          "type": "uint256"
        }
      ],
      "stateMutability": "view",
      "type": "function"
    },
    {
      "inputs": [],
      "name": "PERCENT_FOR_DEV",
      "outputs": [
        {
          "internalType": "uint256",
          "name": "",
          "type": "uint256"
        }
      ],
      "stateMutability": "view",
      "type": "function"
    },
    {
      "inputs": [],
      "name": "PERCENT_FOR_FOUNDERS",
      "outputs": [
        {
          "internalType": "uint256",
          "name": "",
          "type": "uint256"
        }
      ],
      "stateMutability": "view",
      "type": "function"
    },
    {
      "inputs": [],
      "name": "PERCENT_FOR_LP",
      "outputs": [
        {
          "internalType": "uint256",
          "name": "",
          "type": "uint256"
        }
      ],
      "stateMutability": "view",
      "type": "function"
    },
    {
      "inputs": [
        {
          "internalType": "uint256",
          "name": "",
          "type": "uint256"
        }
      ],
      "name": "PERCENT_LOCK_BONUS_REWARD",
      "outputs": [
        {
          "internalType": "uint256",
          "name": "",
          "type": "uint256"
        }
      ],
      "stateMutability": "view",
      "type": "function"
    },
    {
      "inputs": [
        {
          "internalType": "uint256",
          "name": "",
          "type": "uint256"
        }
      ],
      "name": "REWARD_MULTIPLIERS",
      "outputs": [
        {
          "internalType": "uint256",
          "name": "",
          "type": "uint256"
        }
      ],
      "stateMutability": "view",
      "type": "function"
    },
    {
      "inputs": [],
      "name": "REWARD_PER_SECOND",
      "outputs": [
        {
          "internalType": "uint256",
          "name": "",
          "type": "uint256"
        }
      ],
      "stateMutability": "view",
      "type": "function"
    },
    {
      "inputs": [],
      "name": "START_TIME",
      "outputs": [
        {
          "internalType": "uint256",
          "name": "",
          "type": "uint256"
        }
      ],
      "stateMutability": "view",
      "type": "function"
    },
    {
      "inputs": [],
      "name": "TOTAL_ALLOCATION_POINTS",
      "outputs": [
        {
          "internalType": "uint256",
          "name": "",
          "type": "uint256"
        }
      ],
      "stateMutability": "view",
      "type": "function"
    },
    {
      "inputs": [],
      "name": "USD_ORACLE",
      "outputs": [
        {
          "internalType": "address",
          "name": "",
          "type": "address"
        }
      ],
      "stateMutability": "view",
      "type": "function"
    },
    {
      "inputs": [],
      "name": "USER_DEP_FEE",
      "outputs": [
        {
          "internalType": "uint256",
          "name": "",
          "type": "uint256"
        }
      ],
      "stateMutability": "view",
      "type": "function"
    },
    {
      "inputs": [
        {
          "internalType": "uint256",
          "name": "",
          "type": "uint256"
        }
      ],
      "name": "USER_FEE_STAGES",
      "outputs": [
        {
          "internalType": "uint256",
          "name": "",
          "type": "uint256"
        }
      ],
      "stateMutability": "view",
      "type": "function"
    },
    {
      "inputs": [
        {
          "internalType": "uint256",
          "name": "_allocPoint",
          "type": "uint256"
        },
        {
          "internalType": "contract IERC20Upgradeable",
          "name": "_lpToken",
          "type": "address"
        },
        {
          "internalType": "bool",
          "name": "_withUpdate",
          "type": "bool"
        }
      ],
      "name": "add",
      "outputs": [],
      "stateMutability": "nonpayable",
      "type": "function"
    },
    {
      "inputs": [
        {
          "internalType": "uint256",
          "name": "_pid",
          "type": "uint256"
        }
      ],
      "name": "claimReward",
      "outputs": [],
      "stateMutability": "nonpayable",
      "type": "function"
    },
    {
      "inputs": [
        {
          "internalType": "uint256[]",
          "name": "_pids",
          "type": "uint256[]"
        }
      ],
      "name": "claimRewards",
      "outputs": [],
      "stateMutability": "nonpayable",
      "type": "function"
    },
    {
      "inputs": [
        {
          "internalType": "uint256",
          "name": "_pid",
          "type": "uint256"
        },
        {
          "internalType": "uint256",
          "name": "_amount",
          "type": "uint256"
        }
      ],
      "name": "deposit",
      "outputs": [],
      "stateMutability": "nonpayable",
      "type": "function"
    },
    {
      "inputs": [
        {
          "internalType": "uint256",
          "name": "_pid",
          "type": "uint256"
        }
      ],
      "name": "emergencyWithdraw",
      "outputs": [],
      "stateMutability": "nonpayable",
      "type": "function"
    },
    {
      "inputs": [
        {
          "internalType": "uint256",
          "name": "_from",
          "type": "uint256"
        },
        {
          "internalType": "uint256",
          "name": "_to",
          "type": "uint256"
        }
      ],
      "name": "getLockPercentage",
      "outputs": [
        {
          "internalType": "uint256",
          "name": "",
          "type": "uint256"
        }
      ],
      "stateMutability": "view",
      "type": "function"
    },
    {
      "inputs": [
        {
          "internalType": "uint256",
          "name": "_from",
          "type": "uint256"
        },
        {
          "internalType": "uint256",
          "name": "_to",
          "type": "uint256"
        }
      ],
      "name": "getMultiplier",
      "outputs": [
        {
          "internalType": "uint256",
          "name": "",
          "type": "uint256"
        }
      ],
      "stateMutability": "view",
      "type": "function"
    },
    {
      "inputs": [
        {
          "internalType": "uint256",
          "name": "pid1",
          "type": "uint256"
        }
      ],
      "name": "getNewRewardPerSecond",
      "outputs": [
        {
          "internalType": "uint256",
          "name": "",
          "type": "uint256"
        }
      ],
      "stateMutability": "view",
      "type": "function"
    },
    {
      "inputs": [
        {
          "internalType": "uint256",
          "name": "_from",
          "type": "uint256"
        },
        {
          "internalType": "uint256",
          "name": "_to",
          "type": "uint256"
        },
        {
          "internalType": "uint256",
          "name": "_allocPoint",
          "type": "uint256"
        }
      ],
      "name": "getPoolReward",
      "outputs": [
        {
          "internalType": "uint256",
          "name": "forDev",
          "type": "uint256"
        },
        {
          "internalType": "uint256",
          "name": "forFarmer",
          "type": "uint256"
        },
        {
          "internalType": "uint256",
          "name": "forLP",
          "type": "uint256"
        },
        {
          "internalType": "uint256",
          "name": "forCom",
          "type": "uint256"
        },
        {
          "internalType": "uint256",
          "name": "forFounders",
          "type": "uint256"
        }
      ],
      "stateMutability": "view",
      "type": "function"
    },
    {
      "inputs": [
        {
          "internalType": "bytes32",
          "name": "role",
          "type": "bytes32"
        }
      ],
      "name": "getRoleAdmin",
      "outputs": [
        {
          "internalType": "bytes32",
          "name": "",
          "type": "bytes32"
        }
      ],
      "stateMutability": "view",
      "type": "function"
    },
    {
      "inputs": [
        {
          "internalType": "bytes32",
          "name": "role",
          "type": "bytes32"
        },
        {
          "internalType": "address",
          "name": "account",
          "type": "address"
        }
      ],
      "name": "grantRole",
      "outputs": [],
      "stateMutability": "nonpayable",
      "type": "function"
    },
    {
      "inputs": [
        {
          "internalType": "bytes32",
          "name": "role",
          "type": "bytes32"
        },
        {
          "internalType": "address",
          "name": "account",
          "type": "address"
        }
      ],
      "name": "hasRole",
      "outputs": [
        {
          "internalType": "bool",
          "name": "",
          "type": "bool"
        }
      ],
      "stateMutability": "view",
      "type": "function"
    },
    {
      "inputs": [
        {
          "components": [
            {
              "internalType": "contract EvoToken",
              "name": "govToken",
              "type": "address"
            },
            {
              "internalType": "uint256",
              "name": "rewardPerSecond",
              "type": "uint256"
            },
            {
              "internalType": "uint256",
              "name": "startTime",
              "type": "uint256"
            },
            {
              "internalType": "uint256",
              "name": "halvingAfterTime",
              "type": "uint256"
            },
            {
              "internalType": "uint256",
              "name": "userDepositFee",
              "type": "uint256"
            },
            {
              "internalType": "uint256",
              "name": "devDepositFee",
              "type": "uint256"
            },
            {
              "internalType": "address",
              "name": "devAddress",
              "type": "address"
            },
            {
              "internalType": "address",
              "name": "lpAddress",
              "type": "address"
            },
            {
              "internalType": "address",
              "name": "communityFundAddress",
              "type": "address"
            },
            {
              "internalType": "address",
              "name": "founderAddress",
              "type": "address"
            },
            {
              "internalType": "uint256[]",
              "name": "rewardMultipliers",
              "type": "uint256[]"
            },
            {
              "internalType": "uint256[]",
              "name": "userFeeStages",
              "type": "uint256[]"
            },
            {
              "internalType": "uint256[]",
              "name": "devFeeStages",
              "type": "uint256[]"
            },
            {
              "internalType": "uint256[]",
              "name": "percentLockBonusReward",
              "type": "uint256[]"
            }
          ],
          "internalType": "struct MasterInvestor.ConstructorParams",
          "name": "params",
          "type": "tuple"
        }
      ],
      "name": "initialize",
      "outputs": [],
      "stateMutability": "nonpayable",
      "type": "function"
    },
    {
      "inputs": [],
      "name": "massUpdatePools",
      "outputs": [],
      "stateMutability": "nonpayable",
      "type": "function"
    },
    {
      "inputs": [
        {
          "internalType": "uint256",
          "name": "_pid",
          "type": "uint256"
        },
        {
          "internalType": "address",
          "name": "_user",
          "type": "address"
        }
      ],
      "name": "pendingReward",
      "outputs": [
        {
          "internalType": "uint256",
          "name": "",
          "type": "uint256"
        }
      ],
      "stateMutability": "view",
      "type": "function"
    },
    {
      "inputs": [
        {
          "internalType": "contract IERC20Upgradeable",
          "name": "",
          "type": "address"
        }
      ],
      "name": "poolExistence",
      "outputs": [
        {
          "internalType": "bool",
          "name": "",
          "type": "bool"
        }
      ],
      "stateMutability": "view",
      "type": "function"
    },
    {
      "inputs": [
        {
          "internalType": "address",
          "name": "",
          "type": "address"
        }
      ],
      "name": "poolId",
      "outputs": [
        {
          "internalType": "uint256",
          "name": "",
          "type": "uint256"
        }
      ],
      "stateMutability": "view",
      "type": "function"
    },
    {
      "inputs": [
        {
          "internalType": "uint256",
          "name": "",
          "type": "uint256"
        }
      ],
      "name": "poolInfo",
      "outputs": [
        {
          "internalType": "contract IERC20Upgradeable",
          "name": "lpToken",
          "type": "address"
        },
        {
          "internalType": "uint256",
          "name": "allocPoint",
          "type": "uint256"
        },
        {
          "internalType": "uint256",
          "name": "lastRewardTime",
          "type": "uint256"
        },
        {
          "internalType": "uint256",
          "name": "accGovTokenPerShare",
          "type": "uint256"
        }
      ],
      "stateMutability": "view",
      "type": "function"
    },
    {
      "inputs": [],
      "name": "poolLength",
      "outputs": [
        {
          "internalType": "uint256",
          "name": "",
          "type": "uint256"
        }
      ],
      "stateMutability": "view",
      "type": "function"
    },
    {
      "inputs": [
        {
          "internalType": "address",
          "name": "_newOwner",
          "type": "address"
        }
      ],
      "name": "reclaimTokenOwnership",
      "outputs": [],
      "stateMutability": "nonpayable",
      "type": "function"
    },
    {
      "inputs": [
        {
          "internalType": "bytes32",
          "name": "role",
          "type": "bytes32"
        },
        {
          "internalType": "address",
          "name": "account",
          "type": "address"
        }
      ],
      "name": "renounceRole",
      "outputs": [],
      "stateMutability": "nonpayable",
      "type": "function"
    },
    {
      "inputs": [
        {
          "internalType": "uint256",
          "name": "_pid",
          "type": "uint256"
        },
        {
          "internalType": "address",
          "name": "_user",
          "type": "address"
        },
        {
          "internalType": "uint256",
          "name": "_time",
          "type": "uint256"
        }
      ],
      "name": "reviseDeposit",
      "outputs": [],
      "stateMutability": "nonpayable",
      "type": "function"
    },
    {
      "inputs": [
        {
          "internalType": "uint256",
          "name": "_pid",
          "type": "uint256"
        },
        {
          "internalType": "address",
          "name": "_user",
          "type": "address"
        },
        {
          "internalType": "uint256",
          "name": "_time",
          "type": "uint256"
        }
      ],
      "name": "reviseWithdraw",
      "outputs": [],
      "stateMutability": "nonpayable",
      "type": "function"
    },
    {
      "inputs": [
        {
          "internalType": "bytes32",
          "name": "role",
          "type": "bytes32"
        },
        {
          "internalType": "address",
          "name": "account",
          "type": "address"
        }
      ],
      "name": "revokeRole",
      "outputs": [],
      "stateMutability": "nonpayable",
      "type": "function"
    },
    {
      "inputs": [
        {
          "internalType": "uint256",
          "name": "_pid",
          "type": "uint256"
        },
        {
          "internalType": "uint256",
          "name": "_allocPoint",
          "type": "uint256"
        },
        {
          "internalType": "bool",
          "name": "_withUpdate",
          "type": "bool"
        }
      ],
      "name": "set",
      "outputs": [],
      "stateMutability": "nonpayable",
      "type": "function"
    },
    {
      "inputs": [
        {
          "internalType": "bytes4",
          "name": "interfaceId",
          "type": "bytes4"
        }
      ],
      "name": "supportsInterface",
      "outputs": [
        {
          "internalType": "bool",
          "name": "",
          "type": "bool"
        }
      ],
      "stateMutability": "view",
      "type": "function"
    },
    {
      "inputs": [
        {
          "internalType": "uint256",
          "name": "kind",
          "type": "uint256"
        },
        {
          "internalType": "address",
          "name": "_address",
          "type": "address"
        }
      ],
      "name": "updateAddress",
      "outputs": [],
      "stateMutability": "nonpayable",
      "type": "function"
    },
    {
      "inputs": [
        {
          "internalType": "uint256",
          "name": "kind",
          "type": "uint256"
        },
        {
          "internalType": "uint256",
          "name": "fee",
          "type": "uint256"
        }
      ],
      "name": "updateDepositFee",
      "outputs": [],
      "stateMutability": "nonpayable",
      "type": "function"
    },
    {
      "inputs": [
        {
          "internalType": "uint256",
          "name": "kind",
          "type": "uint256"
        },
        {
          "internalType": "uint256[]",
          "name": "feeStages",
          "type": "uint256[]"
        }
      ],
      "name": "updateFeeStages",
      "outputs": [],
      "stateMutability": "nonpayable",
      "type": "function"
    },
    {
      "inputs": [
        {
          "internalType": "uint256[]",
          "name": "times",
          "type": "uint256[]"
        }
      ],
      "name": "updateHalvingAtTimes",
      "outputs": [],
      "stateMutability": "nonpayable",
      "type": "function"
    },
    {
      "inputs": [
        {
          "internalType": "uint256",
          "name": "time",
          "type": "uint256"
        }
      ],
      "name": "updateLastRewardTime",
      "outputs": [],
      "stateMutability": "nonpayable",
      "type": "function"
    },
    {
      "inputs": [
        {
          "internalType": "uint256",
          "name": "kind",
          "type": "uint256"
        },
        {
          "internalType": "uint256",
          "name": "percent",
          "type": "uint256"
        }
      ],
      "name": "updateLockPercent",
      "outputs": [],
      "stateMutability": "nonpayable",
      "type": "function"
    },
    {
      "inputs": [
        {
          "internalType": "uint256",
          "name": "_pid",
          "type": "uint256"
        }
      ],
      "name": "updatePool",
      "outputs": [],
      "stateMutability": "nonpayable",
      "type": "function"
    },
    {
      "inputs": [
        {
          "internalType": "uint256[]",
          "name": "multipliers",
          "type": "uint256[]"
        }
      ],
      "name": "updateRewardMultipliers",
      "outputs": [],
      "stateMutability": "nonpayable",
      "type": "function"
    },
    {
      "inputs": [
        {
          "internalType": "uint256",
          "name": "reward",
          "type": "uint256"
        }
      ],
      "name": "updateRewardPerSecond",
      "outputs": [],
      "stateMutability": "nonpayable",
      "type": "function"
    },
    {
      "inputs": [
        {
          "internalType": "uint256",
          "name": "time",
          "type": "uint256"
        }
      ],
      "name": "updateStartTime",
      "outputs": [],
      "stateMutability": "nonpayable",
      "type": "function"
    },
    {
      "inputs": [
        {
          "internalType": "uint256[]",
          "name": "lockPercents",
          "type": "uint256[]"
        }
      ],
      "name": "updateUserLockPercents",
      "outputs": [],
      "stateMutability": "nonpayable",
      "type": "function"
    },
    {
      "inputs": [
        {
          "internalType": "uint256",
          "name": "_pid",
          "type": "uint256"
        }
      ],
      "name": "userDelta",
      "outputs": [
        {
          "internalType": "uint256",
          "name": "",
          "type": "uint256"
        }
      ],
      "stateMutability": "view",
      "type": "function"
    },
    {
      "inputs": [
        {
          "internalType": "address",
          "name": "",
          "type": "address"
        }
      ],
      "name": "userGlobalInfo",
      "outputs": [
        {
          "internalType": "uint256",
          "name": "",
          "type": "uint256"
        }
      ],
      "stateMutability": "view",
      "type": "function"
    },
    {
      "inputs": [
        {
          "internalType": "uint256",
          "name": "",
          "type": "uint256"
        },
        {
          "internalType": "address",
          "name": "",
          "type": "address"
        }
      ],
      "name": "userInfo",
      "outputs": [
        {
          "internalType": "uint256",
          "name": "amount",
          "type": "uint256"
        },
        {
          "internalType": "uint256",
          "name": "rewardDebt",
          "type": "uint256"
        },
        {
          "internalType": "uint256",
          "name": "rewardDebtAtTime",
          "type": "uint256"
        },
        {
          "internalType": "uint256",
          "name": "lastWithdrawTime",
          "type": "uint256"
        },
        {
          "internalType": "uint256",
          "name": "firstDepositTime",
          "type": "uint256"
        },
        {
          "internalType": "uint256",
          "name": "timeDelta",
          "type": "uint256"
        },
        {
          "internalType": "uint256",
          "name": "lastDepositTime",
          "type": "uint256"
        }
      ],
      "stateMutability": "view",
      "type": "function"
    },
    {
      "inputs": [
        {
          "internalType": "uint256",
          "name": "_pid",
          "type": "uint256"
        },
        {
          "internalType": "uint256",
          "name": "_amount",
          "type": "uint256"
        }
      ],
      "name": "withdraw",
      "outputs": [],
      "stateMutability": "nonpayable",
      "type": "function"
    }
  ],
  "bytecode": "0x60806040523480156200001157600080fd5b50600054610100900460ff166200002f5760005460ff161562000039565b62000039620000de565b620000a15760405162461bcd60e51b815260206004820152602e60248201527f496e697469616c697a61626c653a20636f6e747261637420697320616c72656160448201526d191e481a5b9a5d1a585b1a5e995960921b606482015260840160405180910390fd5b600054610100900460ff16158015620000c4576000805461ffff19166101011790555b8015620000d7576000805461ff00191690555b506200010b565b6000620000f630620000fc60201b62002b0f1760201c565b15905090565b6001600160a01b03163b151590565b613bfa806200011b6000396000f3fe608060405234801561001057600080fd5b50600436106103db5760003560e01c806375b238fc1161020a578063c6929e5311610125578063e2bbb158116100b8578063f491adf711610087578063f491adf71461090c578063f64682511461091f578063f92d34a914610934578063f930e77014610947578063ff51a2721461095a57600080fd5b8063e2bbb158146108ca578063ed9bdeda146108dd578063eda67048146108e6578063f1528cee146108f957600080fd5b8063d56cf10f116100f4578063d56cf10f14610885578063d79c395314610898578063d9608d8a146108a1578063ddaa26ad146108c157600080fd5b8063c6929e531461080b578063c8ed768014610814578063cbd258b51461084f578063d547741f1461087257600080fd5b80639b963d2a1161019d578063ae169a501161016c578063ae169a50146107bf578063b7877716146107d2578063bd27e3f8146107e5578063c35cadbe146107f857600080fd5b80639b963d2a14610788578063a02306f91461079b578063a217fddf146107a4578063a82859c5146107ac57600080fd5b80638dbb1e3a116101d95780638dbb1e3a146106bd57806391d14854146106d057806393f1a40b146106e357806398969e821461077557600080fd5b806375b238fc146106795780637c0c57881461068e57806382386d5814610697578063874feed3146106aa57600080fd5b806336568abe116102fa5780635639e8cf1161028d578063630b5ba11161025c578063630b5ba11461063857806364482f79146106405780636461fc8c1461065357806365cf37711461066657600080fd5b80635639e8cf146105f657806356407a61146106095780635eac6239146106125780636066debd1461062557600080fd5b80634abbbd28116102c95780634abbbd28146105b45780634b0cf206146105bd57806351eb05a6146105d05780635312ea8e146105e357600080fd5b806336568abe146105725780634004c8e71461058557806343628fb414610598578063441a3e70146105a157600080fd5b80631526fe27116103725780632ab29df7116103415780632ab29df7146105265780632f2ff15d1461053957806332399e921461054c57806335582e681461055f57600080fd5b80631526fe27146104a05780631b80c010146104dd5780631eaaa045146104f0578063248a9ca31461050357600080fd5b8063081e3eda116103ae578063081e3eda1461046957806309ae4d2c146104715780630a67d518146104845780630d329fea1461048d57600080fd5b806301ffc9a7146103e0578063027e69991461040857806304aa0f611461042957806306bcf02f14610454575b600080fd5b6103f36103ee366004613483565b61097a565b60405190151581526020015b60405180910390f35b61041b6104163660046134ad565b6109b1565b6040519081526020016103ff565b60ce5461043c906001600160a01b031681565b6040516001600160a01b0390911681526020016103ff565b6104676104623660046134ad565b6109d2565b005b60de5461041b565b61041b61047f3660046134ad565b6109f1565b61041b60db5481565b61046761049b366004613596565b610a39565b6104b36104ae3660046134ad565b610ae2565b604080516001600160a01b03909516855260208501939093529183015260608201526080016103ff565b6104676104eb366004613602565b610b26565b6104676104fe36600461377d565b610e3b565b61041b6105113660046134ad565b60009081526065602052604090206001015490565b6104676105343660046137bf565b6110ad565b6104676105473660046137bf565b61116a565b60cd5461043c906001600160a01b031681565b61046761056d3660046137ef565b611190565b6104676105803660046137bf565b6111e9565b6104676105933660046134ad565b611263565b61041b60d85481565b6104676105af3660046137ef565b611282565b61041b60d45481565b61041b6105cb3660046134ad565b611840565b6104676105de3660046134ad565b611850565b6104676105f13660046134ad565b611dca565b60cb5461043c906001600160a01b031681565b61041b60d65481565b610467610620366004613811565b611f40565b610467610633366004613846565b611f80565b610467611fc3565b61046761064e36600461387e565b611fea565b6104676106613660046134ad565b612083565b610467610674366004613811565b6120a2565b61041b600080516020613ba583398151915281565b61041b60d55481565b6104676106a5366004613846565b6120ce565b61041b6106b83660046134ad565b612111565b61041b6106cb3660046137ef565b612121565b6103f36106de3660046137bf565b612250565b6107406106f13660046137bf565b60e0602052816000526040600020602052806000526040600020600091509150508060000154908060010154908060020154908060030154908060040154908060050154908060060154905087565b604080519788526020880196909652948601939093526060850191909152608084015260a083015260c082015260e0016103ff565b61041b6107833660046137bf565b61227b565b61041b6107963660046134ad565b6123d9565b61041b60dc5481565b61041b600081565b61041b6107ba3660046134ad565b612458565b6104676107cd3660046134ad565b612468565b6104676107e0366004613811565b61247d565b6104676107f3366004613811565b6124a9565b6104676108063660046137ef565b6124d5565b61041b60dd5481565b6108276108223660046138ac565b61250e565b604080519586526020860194909452928401919091526060830152608082015260a0016103ff565b6103f361085d3660046138d8565b60e26020526000908152604090205460ff1681565b6104676108803660046137bf565b612709565b60cc5461043c906001600160a01b031681565b61041b60cf5481565b61041b6108af3660046138d8565b60e16020526000908152604090205481565b61041b60d75481565b6104676108d83660046137ef565b61272f565b61041b60da5481565b6104676108f43660046138d8565b6129d4565b60ca5461043c906001600160a01b031681565b61041b61091a3660046134ad565b612a50565b61041b600080516020613b8583398151915281565b60c95461043c906001600160a01b031681565b61041b6109553660046137ef565b612a60565b61041b6109683660046138d8565b60df6020526000908152604090205481565b60006001600160e01b03198216637965db0b60e01b14806109ab57506301ffc9a760e01b6001600160e01b03198316145b92915050565b60d181815481106109c157600080fd5b600091825260209091200154905081565b600080516020613b858339815191526109eb8133612b1e565b5060d755565b600081815260e0602090815260408083203384529091528120600381015415610a2a576003810154610a23904261390b565b9392505050565b6004810154610a23904261390b565b600080516020613b85833981519152610a528133612b1e565b8260011415610a74578151610a6e9060d2906020850190613423565b50505050565b8260021415610a90578151610a6e9060d3906020850190613423565b60405162461bcd60e51b815260206004820152601760248201527f496e76616c6964206b696e64206964656e74696669657200000000000000000060448201526064015b60405180910390fd5b505050565b60de8181548110610af257600080fd5b600091825260209091206004909102018054600182015460028301546003909301546001600160a01b039092169350919084565b600054610100900460ff16610b415760005460ff1615610b45565b303b155b610ba85760405162461bcd60e51b815260206004820152602e60248201527f496e697469616c697a61626c653a20636f6e747261637420697320616c72656160448201526d191e481a5b9a5d1a585b1a5e995960921b6064820152608401610ad4565b600054610100900460ff16158015610bca576000805461ffff19166101011790555b610bd2612b82565b610bda612bab565b610be5600033612bda565b610bfd600080516020613ba583398151915233612bda565b610c15600080516020613b8583398151915233612bda565b6101608201518051610c2f9160d291602090910190613423565b506101808201518051610c4a9160d391602090910190613423565b50815160c980546001600160a01b0319166001600160a01b0390921691909117905560208083015160cf55604083015160d755608083015160d55560a083015160d6556101408301518051610ca39260d0920190613423565b5060c082015160cb80546001600160a01b039283166001600160a01b03199182161790915560e084015160cc805491841691831691909117905561010084015160cd805491841691831691909117905561012084015160ce80549190931691161790556101a08201518051610d209160d991602090910190613423565b50600060d88190555b60d054610d389060019061390b565b811015610dbc576040830151600090610d52836001613922565b8560600151610d61919061393a565b610d6b9190613922565b610d76906001613922565b60d180546001810182556000919091527f695fb3134ad82c3b8022bc5464edd0bcc9424ef672b52245dcb6ab2374327ce301555080610db481613959565b915050610d29565b50604082015160d054610dd19060019061390b565b8360600151610de0919061393a565b610dea9190613922565b60d45560d180546001810182556000919091526000197f695fb3134ad82c3b8022bc5464edd0bcc9424ef672b52245dcb6ab2374327ce3909101558015610e37576000805461ff00191690555b5050565b600080516020613ba5833981519152610e548133612b1e565b6001600160a01b038316600090815260e26020526040902054839060ff1615610ed15760405162461bcd60e51b815260206004820152602960248201527f4d6173746572496e766573746f723a3a6e6f6e4475706c6963617465643a20646044820152681d5c1b1a58d85d195960ba1b6064820152608401610ad4565b6001600160a01b038416600090815260df602052604090205415610f4a5760405162461bcd60e51b815260206004820152602a60248201527f4d6173746572496e766573746f723a3a6164643a206c7020697320616c726561604482015269191e481a5b881c1bdbdb60b21b6064820152608401610ad4565b8215610f5857610f58611fc3565b600060d7544211610f6b5760d754610f6d565b425b90508560d86000828254610f819190613922565b909155505060de54610f94906001613922565b6001600160a01b03958616600081815260df602090815260408083209490945560e281528382208054600160ff1990911681179091558451608081018652938452908301998a529282019384526060820181815260de8054948501815590915290517ffae8130c0619f84b4b44f01b84806f04e82e536d70e05f2356977fa318aecc1a600490930292830180546001600160a01b031916919098161790965595517ffae8130c0619f84b4b44f01b84806f04e82e536d70e05f2356977fa318aecc1b870155517ffae8130c0619f84b4b44f01b84806f04e82e536d70e05f2356977fa318aecc1c860155505090517ffae8130c0619f84b4b44f01b84806f04e82e536d70e05f2356977fa318aecc1d9092019190915550565b600080516020613b858339815191526110c68133612b1e565b82600114156110ef5760cb80546001600160a01b0319166001600160a01b038416179055505050565b82600214156111185760cc80546001600160a01b0319166001600160a01b038416179055505050565b82600314156111415760cd80546001600160a01b0319166001600160a01b038416179055505050565b8260041415610a905760ce80546001600160a01b0319166001600160a01b038416179055505050565b6000828152606560205260409020600101546111868133612b1e565b610add8383612bda565b600080516020613b858339815191526111a98133612b1e565b82600114156111b9575060da5550565b82600214156111c9575060db5550565b82600314156111d9575060dc5550565b8260041415610a90575060dd5550565b6001600160a01b03811633146112595760405162461bcd60e51b815260206004820152602f60248201527f416363657373436f6e74726f6c3a2063616e206f6e6c792072656e6f756e636560448201526e103937b632b9903337b91039b2b63360891b6064820152608401610ad4565b610e378282612c60565b600080516020613b8583398151915261127c8133612b1e565b5060cf55565b600260975414156112a55760405162461bcd60e51b8152600401610ad490613974565b6002609781905550600060de83815481106112c2576112c26139ab565b6000918252602080832086845260e0909152604083206004909202019250816112e83390565b6001600160a01b03166001600160a01b03168152602001908152602001600020905082816000015410156113695760405162461bcd60e51b815260206004820152602260248201527f4d6173746572496e766573746f723a3a77697468647261773a206e6f7420676f6044820152611bd960f21b6064820152608401610ad4565b61137284611850565b61137b84612cc7565b82156118355782816000016000828254611395919061390b565b90915550506003810154156113bd5760038101546113b3904261390b565b60058201556113d2565b60048101546113cc904261390b565b60058201555b600080826006015442141561145657606460d26000815481106113f7576113f76139ab565b90600052602060002001548661140d919061393a565b61141791906139c1565b9150606460d360008154811061142f5761142f6139ab565b906000526020600020015486611445919061393a565b61144f91906139c1565b905061179c565b60018360050154101580156114705750610e108360050154105b156114c357606460d260018154811061148b5761148b6139ab565b9060005260206000200154866114a1919061393a565b6114ab91906139c1565b9150606460d360018154811061142f5761142f6139ab565b610e108360050154101580156114df5750620151808360050154105b1561153257606460d26002815481106114fa576114fa6139ab565b906000526020600020015486611510919061393a565b61151a91906139c1565b9150606460d360028154811061142f5761142f6139ab565b6201518083600501541015801561154f57506203f4808360050154105b156115a257606460d260038154811061156a5761156a6139ab565b906000526020600020015486611580919061393a565b61158a91906139c1565b9150606460d360038154811061142f5761142f6139ab565b6203f4808360050154101580156115bf5750620697808360050154105b1561161257606460d26004815481106115da576115da6139ab565b9060005260206000200154866115f0919061393a565b6115fa91906139c1565b9150606460d360048154811061142f5761142f6139ab565b6206978083600501541015801561162f5750621275008360050154105b15611684576103e860d260058154811061164b5761164b6139ab565b906000526020600020015486611661919061393a565b61166b91906139c1565b91506103e860d360058154811061142f5761142f6139ab565b621275008360050154101580156116a157506224ea008360050154105b156116f65761271060d26006815481106116bd576116bd6139ab565b9060005260206000200154866116d3919061393a565b6116dd91906139c1565b915061271060d360068154811061142f5761142f6139ab565b6224ea008360050154106117545761271060d260078154811061171b5761171b6139ab565b906000526020600020015486611731919061393a565b61173b91906139c1565b915061271060d360078154811061142f5761142f6139ab565b60405162461bcd60e51b815260206004820152601860248201527f536f6d657468696e6720697320766572792062726f6b656e00000000000000006044820152606401610ad4565b6117b3335b85546001600160a01b03169084612f88565b60cb5484546117cf916001600160a01b03918216911683612f88565b6003840154835464e8d4a51000916117e69161393a565b6117f091906139c1565b6001840155604051858152869033907ff279e6a1f5e320cca91135676d9cb6e44ca8a08c0b88342bcdb1144f6511b5689060200160405180910390a350504260038201555b505060016097555050565b60d281815481106109c157600080fd5b600060de8281548110611865576118656139ab565b9060005260206000209060040201905080600201544211611884575050565b80546040516370a0823160e01b81523060048201526000916001600160a01b0316906370a082319060240160206040518083038186803b1580156118c757600080fd5b505afa1580156118db573d6000803e3d6000fd5b505050506040513d601f19601f820116820180604052508101906118ff91906139e3565b905080158061191057506001820154155b1561192057504260029091015550565b600080600080600061193b876002015442896001015461250e565b60c9546040516340c10f1960e01b8152959a50939850919650945092506001600160a01b0316906340c10f199061197890309088906004016139fc565b600060405180830381600087803b15801561199257600080fd5b505af11580156119a6573d6000803e3d6000fd5b50505050858464e8d4a510006119bc919061393a565b6119c691906139c1565b8760030160008282546119d99190613922565b90915550504260028801558415611adb5760c95460cb546040516340c10f1960e01b81526001600160a01b03928316926340c10f1992611a209291169089906004016139fc565b600060405180830381600087803b158015611a3a57600080fd5b505af1158015611a4e573d6000803e3d6000fd5b5050505060d4544211611adb5760c95460cb546001600160a01b039182169163282d3fdf91166064611a8189604b61393a565b611a8b91906139c1565b6040518363ffffffff1660e01b8152600401611aa89291906139fc565b600060405180830381600087803b158015611ac257600080fd5b505af1158015611ad6573d6000803e3d6000fd5b505050505b8215611bd25760c95460cc546040516340c10f1960e01b81526001600160a01b03928316926340c10f1992611b179291169087906004016139fc565b600060405180830381600087803b158015611b3157600080fd5b505af1158015611b45573d6000803e3d6000fd5b5050505060d4544211611bd25760c95460cc546001600160a01b039182169163282d3fdf91166064611b7887602d61393a565b611b8291906139c1565b6040518363ffffffff1660e01b8152600401611b9f9291906139fc565b600060405180830381600087803b158015611bb957600080fd5b505af1158015611bcd573d6000803e3d6000fd5b505050505b8115611cc95760c95460cd546040516340c10f1960e01b81526001600160a01b03928316926340c10f1992611c0e9291169086906004016139fc565b600060405180830381600087803b158015611c2857600080fd5b505af1158015611c3c573d6000803e3d6000fd5b5050505060d4544211611cc95760c95460cd546001600160a01b039182169163282d3fdf91166064611c6f86605561393a565b611c7991906139c1565b6040518363ffffffff1660e01b8152600401611c969291906139fc565b600060405180830381600087803b158015611cb057600080fd5b505af1158015611cc4573d6000803e3d6000fd5b505050505b8015611dc05760c95460ce546040516340c10f1960e01b81526001600160a01b03928316926340c10f1992611d059291169085906004016139fc565b600060405180830381600087803b158015611d1f57600080fd5b505af1158015611d33573d6000803e3d6000fd5b5050505060d4544211611dc05760c95460ce546001600160a01b039182169163282d3fdf91166064611d6685605f61393a565b611d7091906139c1565b6040518363ffffffff1660e01b8152600401611d8d9291906139fc565b600060405180830381600087803b158015611da757600080fd5b505af1158015611dbb573d6000803e3d6000fd5b505050505b5050505050505050565b60026097541415611ded5760405162461bcd60e51b8152600401610ad490613974565b6002609781905550600060de8281548110611e0a57611e0a6139ab565b6000918252602080832085845260e090915260408320600490920201925081611e303390565b6001600160a01b03166001600160a01b0316815260200190815260200160002090506000606460d2600081548110611e6a57611e6a6139ab565b90600052602060002001548360000154611e84919061393a565b611e8e91906139c1565b90506000606460d3600081548110611ea857611ea86139ab565b90600052602060002001548460000154611ec2919061393a565b611ecc91906139c1565b600080855560018501559050611ee1336117a1565b60cb548454611efd916001600160a01b03918216911683612f88565b604051828152859033907fbb757047c2b5f3974fe26b7c10f732e7bce710b0952a71082702781e62ae05959060200160405180910390a350506001609755505050565b60005b8151811015610e3757611f6e828281518110611f6157611f616139ab565b6020026020010151612468565b80611f7881613959565b915050611f43565b600080516020613b85833981519152611f998133612b1e565b50600092835260e0602090815260408085206001600160a01b039094168552929052912060030155565b60de5460005b81811015610e3757611fda81611850565b611fe381613959565b9050611fc9565b600080516020613ba58339815191526120038133612b1e565b811561201157612011611fc3565b8260de8581548110612025576120256139ab565b90600052602060002090600402016001015460d854612044919061390b565b61204e9190613922565b60d8819055508260de8581548110612068576120686139ab565b90600052602060002090600402016001018190555050505050565b600080516020613b8583398151915261209c8133612b1e565b5060d455565b600080516020613b858339815191526120bb8133612b1e565b8151610add9060d9906020850190613423565b600080516020613b858339815191526120e78133612b1e565b50600092835260e0602090815260408085206001600160a01b039094168552929052912060040155565b60d081815481106109c157600080fd5b60d754600090819084101561213a5760009150506109ab565b60005b60d15481101561224857600060d1828154811061215c5761215c6139ab565b90600052602060002001549050600160d08054905061217b919061390b565b82111561218e57600093505050506109ab565b8085116121e257600060d083815481106121aa576121aa6139ab565b906000526020600020015487876121c1919061390b565b6121cb919061393a565b90506121d78185613922565b9450505050506109ab565b8086101561223557600060d083815481106121ff576121ff6139ab565b90600052602060002001548783612216919061390b565b612220919061393a565b905081965080846122319190613922565b9350505b508061224081613959565b91505061213d565b509392505050565b60009182526065602090815260408084206001600160a01b0393909316845291905290205460ff1690565b60008060de8481548110612291576122916139ab565b6000918252602080832087845260e0825260408085206001600160a01b038981168752935280852060049485029092016003810154815492516370a0823160e01b8152309681019690965290965091949193919216906370a082319060240160206040518083038186803b15801561230857600080fd5b505afa15801561231c573d6000803e3d6000fd5b505050506040513d601f19601f8201168201806040525081019061234091906139e3565b90508360020154421180156123555750600081115b156123a157600061236f856002015442876001015461250e565b50919350849250612389915083905064e8d4a5100061393a565b61239391906139c1565b61239d9084613922565b9250505b6001830154835464e8d4a51000906123ba90859061393a565b6123c491906139c1565b6123ce919061390b565b979650505050505050565b6000806123f06123ea60014261390b565b42612121565b9050826124045760cf54610a23908261393a565b60d85460de61241460018661390b565b81548110612424576124246139ab565b90600052602060002090600402016001015460cf5483612444919061393a565b61244e919061393a565b610a2391906139c1565b60d981815481106109c157600080fd5b61247181611850565b61247a81612cc7565b50565b600080516020613b858339815191526124968133612b1e565b8151610add9060d1906020850190613423565b600080516020613b858339815191526124c28133612b1e565b8151610add9060d0906020850190613423565b600080516020613b858339815191526124ee8133612b1e565b82600114156124fe575060d55550565b8260021415610a90575060d65550565b6000806000806000806125218989612121565b9050600060d8548860cf5484612537919061393a565b612541919061393a565b61254b91906139c1565b9050600060c960009054906101000a90046001600160a01b03166001600160a01b03166318160ddd6040518163ffffffff1660e01b815260040160206040518083038186803b15801561259d57600080fd5b505afa1580156125b1573d6000803e3d6000fd5b505050506040513d601f19601f820116820180604052508101906125d591906139e3565b60c960009054906101000a90046001600160a01b03166001600160a01b031663355274ea6040518163ffffffff1660e01b815260040160206040518083038186803b15801561262357600080fd5b505afa158015612637573d6000803e3d6000fd5b505050506040513d601f19601f8201168201806040525081019061265b91906139e3565b612665919061390b565b90508181101561268757600097508096506000955060009450600093506126fb565b606460da5483612697919061393a565b6126a191906139c1565b9750819650606460db54836126b6919061393a565b6126c091906139c1565b9550606460dc54836126d2919061393a565b6126dc91906139c1565b9450606460dd54836126ee919061393a565b6126f891906139c1565b93505b505050939792965093509350565b6000828152606560205260409020600101546127258133612b1e565b610add8383612c60565b600260975414156127525760405162461bcd60e51b8152600401610ad490613974565b6002609755806127c35760405162461bcd60e51b815260206004820152603660248201527f4d6173746572496e766573746f723a3a6465706f7369743a20616d6f756e742060448201527506d7573742062652067726561746572207468616e20360541b6064820152608401610ad4565b600060de83815481106127d8576127d86139ab565b6000918252602080832086845260e0909152604083206004909202019250816127fe3390565b6001600160a01b0390811682526020808301939093526040918201600090812088825260e0855283822060cb54909316825291909352912060d5549192509060649061284a908661393a565b61285491906139c1565b33600090815260e1602052604081208054909190612873908490613922565b90915550612882905085611850565b61288b85612cc7565b6128a23384546001600160a01b0316903087612fde565b81546128af574260028301555b61271060d554856128c0919061393a565b6128ca91906139c1565b6128d4908561390b565b8260000160008282546128e79190613922565b90915550506003830154825464e8d4a51000916129039161393a565b61290d91906139c1565b600183015560d65461271090612923908661393a565b61292d91906139c1565b612937908561390b565b81600001600082825461294a9190613922565b90915550506003830154815464e8d4a51000916129669161393a565b61297091906139c1565b6001820155604051848152859033907f90890809c654f11d6e72a28fa60149770a0d11ec6c92319d6ceb2bb0a4ea1a159060200160405180910390a36004820154156129bb576129c2565b4260048301555b50426006909101555050600160975550565b600080516020613b858339815191526129ed8133612b1e565b60c95460405163f2fde38b60e01b81526001600160a01b0384811660048301529091169063f2fde38b90602401600060405180830381600087803b158015612a3457600080fd5b505af1158015612a48573d6000803e3d6000fd5b505050505050565b60d381815481106109c157600080fd5b60d7546000908190841015612a795760649150506109ab565b60005b60d15481101561224857600060d18281548110612a9b57612a9b6139ab565b90600052602060002001549050600160d980549050612aba919061390b565b821115612acd57600093505050506109ab565b808511612afc5760d98281548110612ae757612ae76139ab565b906000526020600020015493505050506109ab565b5080612b0781613959565b915050612a7c565b6001600160a01b03163b151590565b612b288282612250565b610e3757612b40816001600160a01b03166014613016565b612b4b836020613016565b604051602001612b5c929190613a41565b60408051601f198184030181529082905262461bcd60e51b8252610ad491600401613ab6565b600054610100900460ff16612ba95760405162461bcd60e51b8152600401610ad490613ae9565b565b600054610100900460ff16612bd25760405162461bcd60e51b8152600401610ad490613ae9565b612ba96131b2565b612be48282612250565b610e375760008281526065602090815260408083206001600160a01b03851684529091529020805460ff19166001179055612c1c3390565b6001600160a01b0316816001600160a01b0316837f2f8788117e7eff1d82e926ec794901d17c78024a50270940304540a733656f0d60405160405180910390a45050565b612c6a8282612250565b15610e375760008281526065602090815260408083206001600160a01b0385168085529252808320805460ff1916905551339285917ff6391f5c32d9c69d2a47ea670b442974b53935d1edc7fd64eb21e047a839171b9190a45050565b600060de8281548110612cdc57612cdc6139ab565b6000918252602080832085845260e090915260408320600490920201925081612d023390565b6001600160a01b031681526020810191909152604001600020805490915015610add576000816001015464e8d4a5100084600301548460000154612d46919061393a565b612d5091906139c1565b612d5a919061390b565b60c9546040516370a0823160e01b81523060048201529192506000916001600160a01b03909116906370a082319060240160206040518083038186803b158015612da357600080fd5b505afa158015612db7573d6000803e3d6000fd5b505050506040513d601f19601f82011682018060405250810190612ddb91906139e3565b905080821115612de9578091505b8115612f5b5760c9546001600160a01b031663a9059cbb33846040518363ffffffff1660e01b8152600401612e1f9291906139fc565b602060405180830381600087803b158015612e3957600080fd5b505af1158015612e4d573d6000803e3d6000fd5b505050506040513d601f19601f82011682018060405250810190612e719190613b34565b50600060d454846002015411612f16576000612e97612e9160014261390b565b42612a60565b90506064612ea5828661393a565b612eaf91906139c1565b60c95460405163282d3fdf60e01b81529193506001600160a01b03169063282d3fdf90612ee290339086906004016139fc565b600060405180830381600087803b158015612efc57600080fd5b505af1158015612f10573d6000803e3d6000fd5b50505050505b4260028501556040805184815260208101839052879133917f3887f2857beaaf367eb618dfb5e22c1ebd74425affb0602c2e9fe126e3f860eb910160405180910390a3505b6003840154835464e8d4a5100091612f729161393a565b612f7c91906139c1565b60018401555050505050565b610add8363a9059cbb60e01b8484604051602401612fa79291906139fc565b60408051601f198184030181529190526020810180516001600160e01b03166001600160e01b0319909316929092179091526131e0565b6040516001600160a01b0380851660248301528316604482015260648101829052610a6e9085906323b872dd60e01b90608401612fa7565b6060600061302583600261393a565b613030906002613922565b67ffffffffffffffff811115613048576130486134c6565b6040519080825280601f01601f191660200182016040528015613072576020820181803683370190505b509050600360fc1b8160008151811061308d5761308d6139ab565b60200101906001600160f81b031916908160001a905350600f60fb1b816001815181106130bc576130bc6139ab565b60200101906001600160f81b031916908160001a90535060006130e084600261393a565b6130eb906001613922565b90505b6001811115613163576f181899199a1a9b1b9c1cb0b131b232b360811b85600f166010811061311f5761311f6139ab565b1a60f81b828281518110613135576131356139ab565b60200101906001600160f81b031916908160001a90535060049490941c9361315c81613b51565b90506130ee565b508315610a235760405162461bcd60e51b815260206004820181905260248201527f537472696e67733a20686578206c656e67746820696e73756666696369656e746044820152606401610ad4565b600054610100900460ff166131d95760405162461bcd60e51b8152600401610ad490613ae9565b6001609755565b6000613235826040518060400160405280602081526020017f5361666545524332303a206c6f772d6c6576656c2063616c6c206661696c6564815250856001600160a01b03166132b29092919063ffffffff16565b805190915015610add57808060200190518101906132539190613b34565b610add5760405162461bcd60e51b815260206004820152602a60248201527f5361666545524332303a204552433230206f7065726174696f6e20646964206e6044820152691bdd081cdd58d8d9595960b21b6064820152608401610ad4565b60606132c184846000856132c9565b949350505050565b60608247101561332a5760405162461bcd60e51b815260206004820152602660248201527f416464726573733a20696e73756666696369656e742062616c616e636520666f6044820152651c8818d85b1b60d21b6064820152608401610ad4565b6001600160a01b0385163b6133815760405162461bcd60e51b815260206004820152601d60248201527f416464726573733a2063616c6c20746f206e6f6e2d636f6e74726163740000006044820152606401610ad4565b600080866001600160a01b0316858760405161339d9190613b68565b60006040518083038185875af1925050503d80600081146133da576040519150601f19603f3d011682016040523d82523d6000602084013e6133df565b606091505b50915091506123ce828286606083156133f9575081610a23565b8251156134095782518084602001fd5b8160405162461bcd60e51b8152600401610ad49190613ab6565b82805482825590600052602060002090810192821561345e579160200282015b8281111561345e578251825591602001919060010190613443565b5061346a92915061346e565b5090565b5b8082111561346a576000815560010161346f565b60006020828403121561349557600080fd5b81356001600160e01b031981168114610a2357600080fd5b6000602082840312156134bf57600080fd5b5035919050565b634e487b7160e01b600052604160045260246000fd5b6040516101c0810167ffffffffffffffff81118282101715613500576135006134c6565b60405290565b600082601f83011261351757600080fd5b8135602067ffffffffffffffff80831115613534576135346134c6565b8260051b604051601f19603f83011681018181108482111715613559576135596134c6565b60405293845285810183019383810192508785111561357757600080fd5b83870191505b848210156123ce5781358352918301919083019061357d565b600080604083850312156135a957600080fd5b82359150602083013567ffffffffffffffff8111156135c757600080fd5b6135d385828601613506565b9150509250929050565b6001600160a01b038116811461247a57600080fd5b80356135fd816135dd565b919050565b60006020828403121561361457600080fd5b813567ffffffffffffffff8082111561362c57600080fd5b908301906101c0828603121561364157600080fd5b6136496134dc565b613652836135f2565b81526020830135602082015260408301356040820152606083013560608201526080830135608082015260a083013560a082015261369260c084016135f2565b60c08201526136a360e084016135f2565b60e08201526101006136b68185016135f2565b908201526101206136c88482016135f2565b9082015261014083810135838111156136e057600080fd5b6136ec88828701613506565b828401525050610160808401358381111561370657600080fd5b61371288828701613506565b828401525050610180808401358381111561372c57600080fd5b61373888828701613506565b8284015250506101a0808401358381111561375257600080fd5b61375e88828701613506565b918301919091525095945050505050565b801515811461247a57600080fd5b60008060006060848603121561379257600080fd5b8335925060208401356137a4816135dd565b915060408401356137b48161376f565b809150509250925092565b600080604083850312156137d257600080fd5b8235915060208301356137e4816135dd565b809150509250929050565b6000806040838503121561380257600080fd5b50508035926020909101359150565b60006020828403121561382357600080fd5b813567ffffffffffffffff81111561383a57600080fd5b6132c184828501613506565b60008060006060848603121561385b57600080fd5b83359250602084013561386d816135dd565b929592945050506040919091013590565b60008060006060848603121561389357600080fd5b833592506020840135915060408401356137b48161376f565b6000806000606084860312156138c157600080fd5b505081359360208301359350604090920135919050565b6000602082840312156138ea57600080fd5b8135610a23816135dd565b634e487b7160e01b600052601160045260246000fd5b60008282101561391d5761391d6138f5565b500390565b60008219821115613935576139356138f5565b500190565b6000816000190483118215151615613954576139546138f5565b500290565b600060001982141561396d5761396d6138f5565b5060010190565b6020808252601f908201527f5265656e7472616e637947756172643a207265656e7472616e742063616c6c00604082015260600190565b634e487b7160e01b600052603260045260246000fd5b6000826139de57634e487b7160e01b600052601260045260246000fd5b500490565b6000602082840312156139f557600080fd5b5051919050565b6001600160a01b03929092168252602082015260400190565b60005b83811015613a30578181015183820152602001613a18565b83811115610a6e5750506000910152565b7f416363657373436f6e74726f6c3a206163636f756e7420000000000000000000815260008351613a79816017850160208801613a15565b7001034b99036b4b9b9b4b733903937b6329607d1b6017918401918201528351613aaa816028840160208801613a15565b01602801949350505050565b6020815260008251806020840152613ad5816040850160208701613a15565b601f01601f19169190910160400192915050565b6020808252602b908201527f496e697469616c697a61626c653a20636f6e7472616374206973206e6f74206960408201526a6e697469616c697a696e6760a81b606082015260800190565b600060208284031215613b4657600080fd5b8151610a238161376f565b600081613b6057613b606138f5565b506000190190565b60008251613b7a818460208701613a15565b919091019291505056fe0393b4c1b6519e8b53ae0efa1ab522060a3b9f8d86d09c8a22ca6d6eea735cf7a49807205ce4d355092ef5a8a18f56e8913cf4a201fbe287825b095693c21775a2646970667358221220b4a5f9b73cbc0bcc2a6636989d4b7eb4c50d2f2fc362c8358e11e9e048dffc0a64736f6c63430008090033",
  "linkReferences": {},
  "deployedLinkReferences": {}
}