{
  "_format": "hh-sol-artifact-1",
  "contractName": "EVOUpgradeable",
  "sourceName": "contracts/ERC20/EVOUpgradeable.sol",
  "abi": [
    {
      "inputs": [],
      "stateMutability": "nonpayable",
      "type": "constructor"
    },
    {
      "anonymous": false,
      "inputs": [
        {
          "indexed": true,
          "internalType": "address",
          "name": "owner",
          "type": "address"
        },
        {
          "indexed": true,
          "internalType": "address",
          "name": "spender",
          "type": "address"
        },
        {
          "indexed": false,
          "internalType": "uint256",
          "name": "value",
          "type": "uint256"
        }
      ],
      "name": "Approval",
      "type": "event"
    },
    {
      "anonymous": false,
      "inputs": [
        {
          "indexed": false,
          "internalType": "uint8",
          "name": "version",
          "type": "uint8"
        }
      ],
      "name": "Initialized",
      "type": "event"
    },
    {
      "anonymous": false,
      "inputs": [
        {
          "indexed": false,
          "internalType": "address",
          "name": "account",
          "type": "address"
        }
      ],
      "name": "Paused",
      "type": "event"
    },
    {
      "anonymous": false,
      "inputs": [
        {
          "indexed": true,
          "internalType": "bytes32",
          "name": "role",
          "type": "bytes32"
        },
        {
          "indexed": true,
          "internalType": "bytes32",
          "name": "previousAdminRole",
          "type": "bytes32"
        },
        {
          "indexed": true,
          "internalType": "bytes32",
          "name": "newAdminRole",
          "type": "bytes32"
        }
      ],
      "name": "RoleAdminChanged",
      "type": "event"
    },
    {
      "anonymous": false,
      "inputs": [
        {
          "indexed": true,
          "internalType": "bytes32",
          "name": "role",
          "type": "bytes32"
        },
        {
          "indexed": true,
          "internalType": "address",
          "name": "account",
          "type": "address"
        },
        {
          "indexed": true,
          "internalType": "address",
          "name": "sender",
          "type": "address"
        }
      ],
      "name": "RoleGranted",
      "type": "event"
    },
    {
      "anonymous": false,
      "inputs": [
        {
          "indexed": true,
          "internalType": "bytes32",
          "name": "role",
          "type": "bytes32"
        },
        {
          "indexed": true,
          "internalType": "address",
          "name": "account",
          "type": "address"
        },
        {
          "indexed": true,
          "internalType": "address",
          "name": "sender",
          "type": "address"
        }
      ],
      "name": "RoleRevoked",
      "type": "event"
    },
    {
      "anonymous": false,
      "inputs": [
        {
          "indexed": true,
          "internalType": "address",
          "name": "from",
          "type": "address"
        },
        {
          "indexed": true,
          "internalType": "address",
          "name": "to",
          "type": "address"
        },
        {
          "indexed": false,
          "internalType": "uint256",
          "name": "value",
          "type": "uint256"
        }
      ],
      "name": "Transfer",
      "type": "event"
    },
    {
      "anonymous": false,
      "inputs": [
        {
          "indexed": false,
          "internalType": "address",
          "name": "account",
          "type": "address"
        }
      ],
      "name": "Unpaused",
      "type": "event"
    },
    {
      "inputs": [],
      "name": "ADMIN_ROLE",
      "outputs": [
        {
          "internalType": "bytes32",
          "name": "",
          "type": "bytes32"
        }
      ],
      "stateMutability": "view",
      "type": "function"
    },
    {
      "inputs": [],
      "name": "DEFAULT_ADMIN_ROLE",
      "outputs": [
        {
          "internalType": "bytes32",
          "name": "",
          "type": "bytes32"
        }
      ],
      "stateMutability": "view",
      "type": "function"
    },
    {
      "inputs": [],
      "name": "DOMAIN_SEPARATOR",
      "outputs": [
        {
          "internalType": "bytes32",
          "name": "",
          "type": "bytes32"
        }
      ],
      "stateMutability": "view",
      "type": "function"
    },
    {
      "inputs": [],
      "name": "MINTER_ROLE",
      "outputs": [
        {
          "internalType": "bytes32",
          "name": "",
          "type": "bytes32"
        }
      ],
      "stateMutability": "view",
      "type": "function"
    },
    {
      "inputs": [
        {
          "internalType": "address",
          "name": "owner",
          "type": "address"
        },
        {
          "internalType": "address",
          "name": "spender",
          "type": "address"
        }
      ],
      "name": "allowance",
      "outputs": [
        {
          "internalType": "uint256",
          "name": "",
          "type": "uint256"
        }
      ],
      "stateMutability": "view",
      "type": "function"
    },
    {
      "inputs": [
        {
          "internalType": "address",
          "name": "spender",
          "type": "address"
        },
        {
          "internalType": "uint256",
          "name": "amount",
          "type": "uint256"
        }
      ],
      "name": "approve",
      "outputs": [
        {
          "internalType": "bool",
          "name": "",
          "type": "bool"
        }
      ],
      "stateMutability": "nonpayable",
      "type": "function"
    },
    {
      "inputs": [
        {
          "internalType": "address",
          "name": "account",
          "type": "address"
        }
      ],
      "name": "balanceOf",
      "outputs": [
        {
          "internalType": "uint256",
          "name": "",
          "type": "uint256"
        }
      ],
      "stateMutability": "view",
      "type": "function"
    },
    {
      "inputs": [
        {
          "internalType": "uint256",
          "name": "amount",
          "type": "uint256"
        }
      ],
      "name": "burn",
      "outputs": [],
      "stateMutability": "nonpayable",
      "type": "function"
    },
    {
      "inputs": [
        {
          "internalType": "address",
          "name": "account",
          "type": "address"
        },
        {
          "internalType": "uint256",
          "name": "amount",
          "type": "uint256"
        }
      ],
      "name": "burnFrom",
      "outputs": [],
      "stateMutability": "nonpayable",
      "type": "function"
    },
    {
      "inputs": [],
      "name": "cap",
      "outputs": [
        {
          "internalType": "uint256",
          "name": "",
          "type": "uint256"
        }
      ],
      "stateMutability": "view",
      "type": "function"
    },
    {
      "inputs": [],
      "name": "decimals",
      "outputs": [
        {
          "internalType": "uint8",
          "name": "",
          "type": "uint8"
        }
      ],
      "stateMutability": "view",
      "type": "function"
    },
    {
      "inputs": [
        {
          "internalType": "address",
          "name": "spender",
          "type": "address"
        },
        {
          "internalType": "uint256",
          "name": "subtractedValue",
          "type": "uint256"
        }
      ],
      "name": "decreaseAllowance",
      "outputs": [
        {
          "internalType": "bool",
          "name": "",
          "type": "bool"
        }
      ],
      "stateMutability": "nonpayable",
      "type": "function"
    },
    {
      "inputs": [
        {
          "internalType": "bytes32",
          "name": "role",
          "type": "bytes32"
        }
      ],
      "name": "getRoleAdmin",
      "outputs": [
        {
          "internalType": "bytes32",
          "name": "",
          "type": "bytes32"
        }
      ],
      "stateMutability": "view",
      "type": "function"
    },
    {
      "inputs": [
        {
          "internalType": "bytes32",
          "name": "role",
          "type": "bytes32"
        },
        {
          "internalType": "address",
          "name": "account",
          "type": "address"
        }
      ],
      "name": "grantRole",
      "outputs": [],
      "stateMutability": "nonpayable",
      "type": "function"
    },
    {
      "inputs": [
        {
          "internalType": "bytes32",
          "name": "role",
          "type": "bytes32"
        },
        {
          "internalType": "address",
          "name": "account",
          "type": "address"
        }
      ],
      "name": "hasRole",
      "outputs": [
        {
          "internalType": "bool",
          "name": "",
          "type": "bool"
        }
      ],
      "stateMutability": "view",
      "type": "function"
    },
    {
      "inputs": [
        {
          "internalType": "address",
          "name": "spender",
          "type": "address"
        },
        {
          "internalType": "uint256",
          "name": "addedValue",
          "type": "uint256"
        }
      ],
      "name": "increaseAllowance",
      "outputs": [
        {
          "internalType": "bool",
          "name": "",
          "type": "bool"
        }
      ],
      "stateMutability": "nonpayable",
      "type": "function"
    },
    {
      "inputs": [],
      "name": "initialize",
      "outputs": [],
      "stateMutability": "nonpayable",
      "type": "function"
    },
    {
      "inputs": [
        {
          "internalType": "address",
          "name": "to",
          "type": "address"
        },
        {
          "internalType": "uint256",
          "name": "amount",
          "type": "uint256"
        }
      ],
      "name": "mint",
      "outputs": [],
      "stateMutability": "nonpayable",
      "type": "function"
    },
    {
      "inputs": [],
      "name": "name",
      "outputs": [
        {
          "internalType": "string",
          "name": "",
          "type": "string"
        }
      ],
      "stateMutability": "view",
      "type": "function"
    },
    {
      "inputs": [
        {
          "internalType": "address",
          "name": "owner",
          "type": "address"
        }
      ],
      "name": "nonces",
      "outputs": [
        {
          "internalType": "uint256",
          "name": "",
          "type": "uint256"
        }
      ],
      "stateMutability": "view",
      "type": "function"
    },
    {
      "inputs": [],
      "name": "pause",
      "outputs": [],
      "stateMutability": "nonpayable",
      "type": "function"
    },
    {
      "inputs": [],
      "name": "paused",
      "outputs": [
        {
          "internalType": "bool",
          "name": "",
          "type": "bool"
        }
      ],
      "stateMutability": "view",
      "type": "function"
    },
    {
      "inputs": [
        {
          "internalType": "address",
          "name": "owner",
          "type": "address"
        },
        {
          "internalType": "address",
          "name": "spender",
          "type": "address"
        },
        {
          "internalType": "uint256",
          "name": "value",
          "type": "uint256"
        },
        {
          "internalType": "uint256",
          "name": "deadline",
          "type": "uint256"
        },
        {
          "internalType": "uint8",
          "name": "v",
          "type": "uint8"
        },
        {
          "internalType": "bytes32",
          "name": "r",
          "type": "bytes32"
        },
        {
          "internalType": "bytes32",
          "name": "s",
          "type": "bytes32"
        }
      ],
      "name": "permit",
      "outputs": [],
      "stateMutability": "nonpayable",
      "type": "function"
    },
    {
      "inputs": [
        {
          "internalType": "bytes32",
          "name": "role",
          "type": "bytes32"
        },
        {
          "internalType": "address",
          "name": "account",
          "type": "address"
        }
      ],
      "name": "renounceRole",
      "outputs": [],
      "stateMutability": "nonpayable",
      "type": "function"
    },
    {
      "inputs": [
        {
          "internalType": "bytes32",
          "name": "role",
          "type": "bytes32"
        },
        {
          "internalType": "address",
          "name": "account",
          "type": "address"
        }
      ],
      "name": "revokeRole",
      "outputs": [],
      "stateMutability": "nonpayable",
      "type": "function"
    },
    {
      "inputs": [
        {
          "internalType": "bytes4",
          "name": "interfaceId",
          "type": "bytes4"
        }
      ],
      "name": "supportsInterface",
      "outputs": [
        {
          "internalType": "bool",
          "name": "",
          "type": "bool"
        }
      ],
      "stateMutability": "view",
      "type": "function"
    },
    {
      "inputs": [],
      "name": "symbol",
      "outputs": [
        {
          "internalType": "string",
          "name": "",
          "type": "string"
        }
      ],
      "stateMutability": "view",
      "type": "function"
    },
    {
      "inputs": [],
      "name": "totalBurned",
      "outputs": [
        {
          "internalType": "uint256",
          "name": "",
          "type": "uint256"
        }
      ],
      "stateMutability": "view",
      "type": "function"
    },
    {
      "inputs": [],
      "name": "totalSupply",
      "outputs": [
        {
          "internalType": "uint256",
          "name": "",
          "type": "uint256"
        }
      ],
      "stateMutability": "view",
      "type": "function"
    },
    {
      "inputs": [
        {
          "internalType": "address",
          "name": "to",
          "type": "address"
        },
        {
          "internalType": "uint256",
          "name": "amount",
          "type": "uint256"
        }
      ],
      "name": "transfer",
      "outputs": [
        {
          "internalType": "bool",
          "name": "",
          "type": "bool"
        }
      ],
      "stateMutability": "nonpayable",
      "type": "function"
    },
    {
      "inputs": [
        {
          "internalType": "address",
          "name": "from",
          "type": "address"
        },
        {
          "internalType": "address",
          "name": "to",
          "type": "address"
        },
        {
          "internalType": "uint256",
          "name": "amount",
          "type": "uint256"
        }
      ],
      "name": "transferFrom",
      "outputs": [
        {
          "internalType": "bool",
          "name": "",
          "type": "bool"
        }
      ],
      "stateMutability": "nonpayable",
      "type": "function"
    },
    {
      "inputs": [],
      "name": "unpause",
      "outputs": [],
      "stateMutability": "nonpayable",
      "type": "function"
    }
  ],
  "bytecode": "0x608060405234801561001057600080fd5b5061001961001e565b6100de565b600054610100900460ff161561008a5760405162461bcd60e51b815260206004820152602760248201527f496e697469616c697a61626c653a20636f6e747261637420697320696e697469604482015266616c697a696e6760c81b606482015260840160405180910390fd5b60005460ff90811610156100dc576000805460ff191660ff9081179091556040519081527f7f26b83ff96e1f2b6a682f133852f6798a09c465da95921460cefb38474024989060200160405180910390a15b565b6120ef80620000ee6000396000f3fe608060405234801561001057600080fd5b50600436106101f05760003560e01c806370a082311161010f578063a217fddf116100a2578063d539139311610071578063d5391393146103f1578063d547741f14610418578063d89135cd1461042b578063dd62ed3e1461043457600080fd5b8063a217fddf146103b0578063a457c2d7146103b8578063a9059cbb146103cb578063d505accf146103de57600080fd5b80638129fc1c116100de5780638129fc1c146103855780638456cb591461038d57806391d148541461039557806395d89b41146103a857600080fd5b806370a082311461032157806375b238fc1461034a57806379cc67901461035f5780637ecebe001461037257600080fd5b8063355274ea116101875780633f4ba83a116101565780633f4ba83a146102e857806340c10f19146102f057806342966c68146103035780635c975abb1461031657600080fd5b8063355274ea146102b25780633644e515146102ba57806336568abe146102c257806339509351146102d557600080fd5b806323b872dd116101c357806323b872dd14610257578063248a9ca31461026a5780632f2ff15d1461028e578063313ce567146102a357600080fd5b806301ffc9a7146101f557806306fdde031461021d578063095ea7b31461023257806318160ddd14610245575b600080fd5b610208610203366004611cdf565b610447565b60405190151581526020015b60405180910390f35b61022561047e565b6040516102149190611d35565b610208610240366004611d84565b610510565b6035545b604051908152602001610214565b610208610265366004611dae565b610528565b610249610278366004611dea565b600090815261012e602052604090206001015490565b6102a161029c366004611e03565b61054c565b005b60405160128152602001610214565b609754610249565b610249610577565b6102a16102d0366004611e03565b610586565b6102086102e3366004611d84565b610609565b6102a161062b565b6102a16102fe366004611d84565b61064e565b6102a1610311366004611dea565b610682565b60ca5460ff16610208565b61024961032f366004611e2f565b6001600160a01b031660009081526033602052604090205490565b61024960008051602061209a83398151915281565b6102a161036d366004611d84565b6106a5565b610249610380366004611e2f565b6106e3565b6102a1610702565b6102a16108e8565b6102086103a3366004611e03565b610908565b610225610934565b610249600081565b6102086103c6366004611d84565b610943565b6102086103d9366004611d84565b6109be565b6102a16103ec366004611e4a565b6109cc565b6102497f9f2df0fed2c77648de5860a4cc508cd0818c85b8b8a1ab4ceeef8d981c8956a681565b6102a1610426366004611e03565b610b30565b6101c754610249565b610249610442366004611ebd565b610b56565b60006001600160e01b03198216637965db0b60e01b148061047857506301ffc9a760e01b6001600160e01b03198316145b92915050565b60606036805461048d90611ee7565b80601f01602080910402602001604051908101604052809291908181526020018280546104b990611ee7565b80156105065780601f106104db57610100808354040283529160200191610506565b820191906000526020600020905b8154815290600101906020018083116104e957829003601f168201915b5050505050905090565b60003361051e818585610b81565b5060019392505050565b600033610536858285610ca5565b610541858585610d1f565b506001949350505050565b600082815261012e602052604090206001015461056881610ef8565b6105728383610f02565b505050565b6000610581610f89565b905090565b6001600160a01b03811633146105fb5760405162461bcd60e51b815260206004820152602f60248201527f416363657373436f6e74726f6c3a2063616e206f6e6c792072656e6f756e636560448201526e103937b632b9903337b91039b2b63360891b60648201526084015b60405180910390fd5b6106058282611006565b5050565b60003361051e81858561061c8383610b56565b6106269190611f32565b610b81565b60008051602061209a83398151915261064381610ef8565b61064b61106e565b50565b7f9f2df0fed2c77648de5860a4cc508cd0818c85b8b8a1ab4ceeef8d981c8956a661067881610ef8565b61057283836110c0565b806101c760008282546106959190611f32565b9091555061064b90503382611139565b6001600160a01b03821633146106c0576106c0823383610ca5565b806101c760008282546106d39190611f32565b9091555061060590508282611139565b6001600160a01b03811660009081526101946020526040812054610478565b600054610100900460ff16158080156107225750600054600160ff909116105b8061073c5750303b15801561073c575060005460ff166001145b61079f5760405162461bcd60e51b815260206004820152602e60248201527f496e697469616c697a61626c653a20636f6e747261637420697320616c72656160448201526d191e481a5b9a5d1a585b1a5e995960921b60648201526084016105f2565b6000805460ff1916600117905580156107c2576000805461ff0019166101001790555b6108026040518060400160405280600381526020016245564f60e81b8152506040518060400160405280600381526020016245564f60e81b815250611293565b61080a6112c4565b61081f6b01f04ef12cb04cf1580000006112ed565b61082761131d565b61082f6112c4565b6108536040518060400160405280600381526020016245564f60e81b81525061134c565b61085e600033610f02565b61087660008051602061209a83398151915233610f02565b6108a07f9f2df0fed2c77648de5860a4cc508cd0818c85b8b8a1ab4ceeef8d981c8956a633610f02565b801561064b576000805461ff0019169055604051600181527f7f26b83ff96e1f2b6a682f133852f6798a09c465da95921460cefb38474024989060200160405180910390a150565b60008051602061209a83398151915261090081610ef8565b61064b611396565b600091825261012e602090815260408084206001600160a01b0393909316845291905290205460ff1690565b60606037805461048d90611ee7565b600033816109518286610b56565b9050838110156109b15760405162461bcd60e51b815260206004820152602560248201527f45524332303a2064656372656173656420616c6c6f77616e63652062656c6f77604482015264207a65726f60d81b60648201526084016105f2565b6105418286868403610b81565b60003361051e818585610d1f565b83421115610a1c5760405162461bcd60e51b815260206004820152601d60248201527f45524332305065726d69743a206578706972656420646561646c696e6500000060448201526064016105f2565b60007f6e71edae12b1b97f4d1f60370fef10105fa2faae0126114a169c64845d6126c9888888610a4b8c6113d3565b6040805160208101969096526001600160a01b0394851690860152929091166060840152608083015260a082015260c0810186905260e0016040516020818303038152906040528051906020012090506000610aa6826113fc565b90506000610ab68287878761144a565b9050896001600160a01b0316816001600160a01b031614610b195760405162461bcd60e51b815260206004820152601e60248201527f45524332305065726d69743a20696e76616c6964207369676e6174757265000060448201526064016105f2565b610b248a8a8a610b81565b50505050505050505050565b600082815261012e6020526040902060010154610b4c81610ef8565b6105728383611006565b6001600160a01b03918216600090815260346020908152604080832093909416825291909152205490565b6001600160a01b038316610be35760405162461bcd60e51b8152602060048201526024808201527f45524332303a20617070726f76652066726f6d20746865207a65726f206164646044820152637265737360e01b60648201526084016105f2565b6001600160a01b038216610c445760405162461bcd60e51b815260206004820152602260248201527f45524332303a20617070726f766520746f20746865207a65726f206164647265604482015261737360f01b60648201526084016105f2565b6001600160a01b0383811660008181526034602090815260408083209487168084529482529182902085905590518481527f8c5be1e5ebec7d5bd14f71427d1e84f3dd0314c0f7b2291e5b200ac8c7c3b925910160405180910390a3505050565b6000610cb18484610b56565b90506000198114610d195781811015610d0c5760405162461bcd60e51b815260206004820152601d60248201527f45524332303a20696e73756666696369656e7420616c6c6f77616e636500000060448201526064016105f2565b610d198484848403610b81565b50505050565b6001600160a01b038316610d835760405162461bcd60e51b815260206004820152602560248201527f45524332303a207472616e736665722066726f6d20746865207a65726f206164604482015264647265737360d81b60648201526084016105f2565b6001600160a01b038216610de55760405162461bcd60e51b815260206004820152602360248201527f45524332303a207472616e7366657220746f20746865207a65726f206164647260448201526265737360e81b60648201526084016105f2565b610df0838383611472565b6001600160a01b03831660009081526033602052604090205481811015610e685760405162461bcd60e51b815260206004820152602660248201527f45524332303a207472616e7366657220616d6f756e7420657863656564732062604482015265616c616e636560d01b60648201526084016105f2565b6001600160a01b03808516600090815260336020526040808220858503905591851681529081208054849290610e9f908490611f32565b92505081905550826001600160a01b0316846001600160a01b03167fddf252ad1be2c89b69c2b068fc378daa952ba7f163c4a11628f55a4df523b3ef84604051610eeb91815260200190565b60405180910390a3610d19565b61064b813361147a565b610f0c8282610908565b61060557600082815261012e602090815260408083206001600160a01b03851684529091529020805460ff19166001179055610f453390565b6001600160a01b0316816001600160a01b0316837f2f8788117e7eff1d82e926ec794901d17c78024a50270940304540a733656f0d60405160405180910390a45050565b60006105817f8b73c3c69bb8fe3d512ecc4cf759cc79239f7b179b0ffacaa9a75d522b39400f610fb96101605490565b610161546040805160208101859052908101839052606081018290524660808201523060a082015260009060c0016040516020818303038152906040528051906020012090509392505050565b6110108282610908565b1561060557600082815261012e602090815260408083206001600160a01b0385168085529252808320805460ff1916905551339285917ff6391f5c32d9c69d2a47ea670b442974b53935d1edc7fd64eb21e047a839171b9190a45050565b6110766114de565b60ca805460ff191690557f5db9ee0a495bf2e6ff9c91a7834c1ba4fdd244a5e8aa4e537bd38aeae4b073aa335b6040516001600160a01b03909116815260200160405180910390a1565b609754816110ce6101c75490565b6035546110db9190611f32565b6110e59190611f32565b111561112f5760405162461bcd60e51b8152602060048201526019602482015278115490cc8c10d85c1c19590e8818d85c08195e18d959591959603a1b60448201526064016105f2565b6106058282611527565b6001600160a01b0382166111995760405162461bcd60e51b815260206004820152602160248201527f45524332303a206275726e2066726f6d20746865207a65726f206164647265736044820152607360f81b60648201526084016105f2565b6111a582600083611472565b6001600160a01b038216600090815260336020526040902054818110156112195760405162461bcd60e51b815260206004820152602260248201527f45524332303a206275726e20616d6f756e7420657863656564732062616c616e604482015261636560f01b60648201526084016105f2565b6001600160a01b0383166000908152603360205260408120838303905560358054849290611248908490611f4a565b90915550506040518281526000906001600160a01b038516907fddf252ad1be2c89b69c2b068fc378daa952ba7f163c4a11628f55a4df523b3ef9060200160405180910390a3505050565b600054610100900460ff166112ba5760405162461bcd60e51b81526004016105f290611f61565b6106058282611592565b600054610100900460ff166112eb5760405162461bcd60e51b81526004016105f290611f61565b565b600054610100900460ff166113145760405162461bcd60e51b81526004016105f290611f61565b61064b816115e0565b600054610100900460ff166113445760405162461bcd60e51b81526004016105f290611f61565b6112eb611654565b600054610100900460ff166113735760405162461bcd60e51b81526004016105f290611f61565b61064b81604051806040016040528060018152602001603160f81b815250611687565b61139e6116ca565b60ca805460ff191660011790557f62e78cea01bee320cd4e420270b5ea74000d11b0c9f74754ebdbfc544b05a2586110a33390565b6001600160a01b0381166000908152610194602052604090208054600181018255905b50919050565b6000610478611409610f89565b8360405161190160f01b6020820152602281018390526042810182905260009060620160405160208183030381529060405280519060200120905092915050565b600080600061145b87878787611710565b91509150611468816117fd565b5095945050505050565b6105726116ca565b6114848282610908565b6106055761149c816001600160a01b031660146119b8565b6114a78360206119b8565b6040516020016114b8929190611fac565b60408051601f198184030181529082905262461bcd60e51b82526105f291600401611d35565b60ca5460ff166112eb5760405162461bcd60e51b815260206004820152601460248201527314185d5cd8589b194e881b9bdd081c185d5cd95960621b60448201526064016105f2565b6097548161153460355490565b61153e9190611f32565b11156115885760405162461bcd60e51b8152602060048201526019602482015278115490cc8c10d85c1c19590e8818d85c08195e18d959591959603a1b60448201526064016105f2565b6106058282611b5b565b600054610100900460ff166115b95760405162461bcd60e51b81526004016105f290611f61565b81516115cc906036906020850190611c46565b508051610572906037906020840190611c46565b600054610100900460ff166116075760405162461bcd60e51b81526004016105f290611f61565b6000811161164f5760405162461bcd60e51b8152602060048201526015602482015274045524332304361707065643a20636170206973203605c1b60448201526064016105f2565b609755565b600054610100900460ff1661167b5760405162461bcd60e51b81526004016105f290611f61565b60ca805460ff19169055565b600054610100900460ff166116ae5760405162461bcd60e51b81526004016105f290611f61565b8151602092830120815191909201206101609190915561016155565b60ca5460ff16156112eb5760405162461bcd60e51b815260206004820152601060248201526f14185d5cd8589b194e881c185d5cd95960821b60448201526064016105f2565b6000807f7fffffffffffffffffffffffffffffff5d576e7357a4501ddfe92f46681b20a083111561174757506000905060036117f4565b8460ff16601b1415801561175f57508460ff16601c14155b1561177057506000905060046117f4565b6040805160008082526020820180845289905260ff881692820192909252606081018690526080810185905260019060a0016020604051602081039080840390855afa1580156117c4573d6000803e3d6000fd5b5050604051601f1901519150506001600160a01b0381166117ed576000600192509250506117f4565b9150600090505b94509492505050565b600081600481111561181157611811612021565b141561181a5750565b600181600481111561182e5761182e612021565b141561187c5760405162461bcd60e51b815260206004820152601860248201527f45434453413a20696e76616c6964207369676e6174757265000000000000000060448201526064016105f2565b600281600481111561189057611890612021565b14156118de5760405162461bcd60e51b815260206004820152601f60248201527f45434453413a20696e76616c6964207369676e6174757265206c656e6774680060448201526064016105f2565b60038160048111156118f2576118f2612021565b141561194b5760405162461bcd60e51b815260206004820152602260248201527f45434453413a20696e76616c6964207369676e6174757265202773272076616c604482015261756560f01b60648201526084016105f2565b600481600481111561195f5761195f612021565b141561064b5760405162461bcd60e51b815260206004820152602260248201527f45434453413a20696e76616c6964207369676e6174757265202776272076616c604482015261756560f01b60648201526084016105f2565b606060006119c7836002612037565b6119d2906002611f32565b67ffffffffffffffff8111156119ea576119ea612056565b6040519080825280601f01601f191660200182016040528015611a14576020820181803683370190505b509050600360fc1b81600081518110611a2f57611a2f61206c565b60200101906001600160f81b031916908160001a905350600f60fb1b81600181518110611a5e57611a5e61206c565b60200101906001600160f81b031916908160001a9053506000611a82846002612037565b611a8d906001611f32565b90505b6001811115611b05576f181899199a1a9b1b9c1cb0b131b232b360811b85600f1660108110611ac157611ac161206c565b1a60f81b828281518110611ad757611ad761206c565b60200101906001600160f81b031916908160001a90535060049490941c93611afe81612082565b9050611a90565b508315611b545760405162461bcd60e51b815260206004820181905260248201527f537472696e67733a20686578206c656e67746820696e73756666696369656e7460448201526064016105f2565b9392505050565b6001600160a01b038216611bb15760405162461bcd60e51b815260206004820152601f60248201527f45524332303a206d696e7420746f20746865207a65726f20616464726573730060448201526064016105f2565b611bbd60008383611472565b8060356000828254611bcf9190611f32565b90915550506001600160a01b03821660009081526033602052604081208054839290611bfc908490611f32565b90915550506040518181526001600160a01b038316906000907fddf252ad1be2c89b69c2b068fc378daa952ba7f163c4a11628f55a4df523b3ef9060200160405180910390a35050565b828054611c5290611ee7565b90600052602060002090601f016020900481019282611c745760008555611cba565b82601f10611c8d57805160ff1916838001178555611cba565b82800160010185558215611cba579182015b82811115611cba578251825591602001919060010190611c9f565b50611cc6929150611cca565b5090565b5b80821115611cc65760008155600101611ccb565b600060208284031215611cf157600080fd5b81356001600160e01b031981168114611b5457600080fd5b60005b83811015611d24578181015183820152602001611d0c565b83811115610d195750506000910152565b6020815260008251806020840152611d54816040850160208701611d09565b601f01601f19169190910160400192915050565b80356001600160a01b0381168114611d7f57600080fd5b919050565b60008060408385031215611d9757600080fd5b611da083611d68565b946020939093013593505050565b600080600060608486031215611dc357600080fd5b611dcc84611d68565b9250611dda60208501611d68565b9150604084013590509250925092565b600060208284031215611dfc57600080fd5b5035919050565b60008060408385031215611e1657600080fd5b82359150611e2660208401611d68565b90509250929050565b600060208284031215611e4157600080fd5b611b5482611d68565b600080600080600080600060e0888a031215611e6557600080fd5b611e6e88611d68565b9650611e7c60208901611d68565b95506040880135945060608801359350608088013560ff81168114611ea057600080fd5b9699959850939692959460a0840135945060c09093013592915050565b60008060408385031215611ed057600080fd5b611ed983611d68565b9150611e2660208401611d68565b600181811c90821680611efb57607f821691505b602082108114156113f657634e487b7160e01b600052602260045260246000fd5b634e487b7160e01b600052601160045260246000fd5b60008219821115611f4557611f45611f1c565b500190565b600082821015611f5c57611f5c611f1c565b500390565b6020808252602b908201527f496e697469616c697a61626c653a20636f6e7472616374206973206e6f74206960408201526a6e697469616c697a696e6760a81b606082015260800190565b7f416363657373436f6e74726f6c3a206163636f756e7420000000000000000000815260008351611fe4816017850160208801611d09565b7001034b99036b4b9b9b4b733903937b6329607d1b6017918401918201528351612015816028840160208801611d09565b01602801949350505050565b634e487b7160e01b600052602160045260246000fd5b600081600019048311821515161561205157612051611f1c565b500290565b634e487b7160e01b600052604160045260246000fd5b634e487b7160e01b600052603260045260246000fd5b60008161209157612091611f1c565b50600019019056fea49807205ce4d355092ef5a8a18f56e8913cf4a201fbe287825b095693c21775a264697066735822122010f9d8caf90278e580949671117b014fe1e1fbb173d1c711d1e34c43ce3f750b64736f6c63430008090033",
  "linkReferences": {},
  "deployedLinkReferences": {}
}