{
  "_format": "hh-sol-artifact-1",
  "contractName": "EVOUpgradeable",
  "sourceName": "contracts/ERC20/EVOUpgradeable.sol",
  "abi": [
    {
      "inputs": [],
      "stateMutability": "nonpayable",
      "type": "constructor"
    },
    {
      "anonymous": false,
      "inputs": [
        {
          "indexed": true,
          "internalType": "address",
          "name": "owner",
          "type": "address"
        },
        {
          "indexed": true,
          "internalType": "address",
          "name": "spender",
          "type": "address"
        },
        {
          "indexed": false,
          "internalType": "uint256",
          "name": "value",
          "type": "uint256"
        }
      ],
      "name": "Approval",
      "type": "event"
    },
    {
      "anonymous": false,
      "inputs": [
        {
          "indexed": false,
          "internalType": "uint8",
          "name": "version",
          "type": "uint8"
        }
      ],
      "name": "Initialized",
      "type": "event"
    },
    {
      "anonymous": false,
      "inputs": [
        {
          "indexed": false,
          "internalType": "address",
          "name": "account",
          "type": "address"
        }
      ],
      "name": "Paused",
      "type": "event"
    },
    {
      "anonymous": false,
      "inputs": [
        {
          "indexed": true,
          "internalType": "bytes32",
          "name": "role",
          "type": "bytes32"
        },
        {
          "indexed": true,
          "internalType": "bytes32",
          "name": "previousAdminRole",
          "type": "bytes32"
        },
        {
          "indexed": true,
          "internalType": "bytes32",
          "name": "newAdminRole",
          "type": "bytes32"
        }
      ],
      "name": "RoleAdminChanged",
      "type": "event"
    },
    {
      "anonymous": false,
      "inputs": [
        {
          "indexed": true,
          "internalType": "bytes32",
          "name": "role",
          "type": "bytes32"
        },
        {
          "indexed": true,
          "internalType": "address",
          "name": "account",
          "type": "address"
        },
        {
          "indexed": true,
          "internalType": "address",
          "name": "sender",
          "type": "address"
        }
      ],
      "name": "RoleGranted",
      "type": "event"
    },
    {
      "anonymous": false,
      "inputs": [
        {
          "indexed": true,
          "internalType": "bytes32",
          "name": "role",
          "type": "bytes32"
        },
        {
          "indexed": true,
          "internalType": "address",
          "name": "account",
          "type": "address"
        },
        {
          "indexed": true,
          "internalType": "address",
          "name": "sender",
          "type": "address"
        }
      ],
      "name": "RoleRevoked",
      "type": "event"
    },
    {
      "anonymous": false,
      "inputs": [
        {
          "indexed": true,
          "internalType": "address",
          "name": "from",
          "type": "address"
        },
        {
          "indexed": true,
          "internalType": "address",
          "name": "to",
          "type": "address"
        },
        {
          "indexed": false,
          "internalType": "uint256",
          "name": "value",
          "type": "uint256"
        }
      ],
      "name": "Transfer",
      "type": "event"
    },
    {
      "anonymous": false,
      "inputs": [
        {
          "indexed": false,
          "internalType": "address",
          "name": "account",
          "type": "address"
        }
      ],
      "name": "Unpaused",
      "type": "event"
    },
    {
      "inputs": [],
      "name": "ADMIN_ROLE",
      "outputs": [
        {
          "internalType": "bytes32",
          "name": "",
          "type": "bytes32"
        }
      ],
      "stateMutability": "view",
      "type": "function"
    },
    {
      "inputs": [],
      "name": "DEFAULT_ADMIN_ROLE",
      "outputs": [
        {
          "internalType": "bytes32",
          "name": "",
          "type": "bytes32"
        }
      ],
      "stateMutability": "view",
      "type": "function"
    },
    {
      "inputs": [],
      "name": "DOMAIN_SEPARATOR",
      "outputs": [
        {
          "internalType": "bytes32",
          "name": "",
          "type": "bytes32"
        }
      ],
      "stateMutability": "view",
      "type": "function"
    },
    {
      "inputs": [],
      "name": "MINTER_ROLE",
      "outputs": [
        {
          "internalType": "bytes32",
          "name": "",
          "type": "bytes32"
        }
      ],
      "stateMutability": "view",
      "type": "function"
    },
    {
      "inputs": [
        {
          "internalType": "address",
          "name": "owner",
          "type": "address"
        },
        {
          "internalType": "address",
          "name": "spender",
          "type": "address"
        }
      ],
      "name": "allowance",
      "outputs": [
        {
          "internalType": "uint256",
          "name": "",
          "type": "uint256"
        }
      ],
      "stateMutability": "view",
      "type": "function"
    },
    {
      "inputs": [
        {
          "internalType": "address",
          "name": "spender",
          "type": "address"
        },
        {
          "internalType": "uint256",
          "name": "amount",
          "type": "uint256"
        }
      ],
      "name": "approve",
      "outputs": [
        {
          "internalType": "bool",
          "name": "",
          "type": "bool"
        }
      ],
      "stateMutability": "nonpayable",
      "type": "function"
    },
    {
      "inputs": [
        {
          "internalType": "address",
          "name": "account",
          "type": "address"
        }
      ],
      "name": "balanceOf",
      "outputs": [
        {
          "internalType": "uint256",
          "name": "",
          "type": "uint256"
        }
      ],
      "stateMutability": "view",
      "type": "function"
    },
    {
      "inputs": [
        {
          "internalType": "uint256",
          "name": "amount",
          "type": "uint256"
        }
      ],
      "name": "burn",
      "outputs": [],
      "stateMutability": "nonpayable",
      "type": "function"
    },
    {
      "inputs": [
        {
          "internalType": "address",
          "name": "account",
          "type": "address"
        },
        {
          "internalType": "uint256",
          "name": "amount",
          "type": "uint256"
        }
      ],
      "name": "burnFrom",
      "outputs": [],
      "stateMutability": "nonpayable",
      "type": "function"
    },
    {
      "inputs": [],
      "name": "cap",
      "outputs": [
        {
          "internalType": "uint256",
          "name": "",
          "type": "uint256"
        }
      ],
      "stateMutability": "view",
      "type": "function"
    },
    {
      "inputs": [],
      "name": "decimals",
      "outputs": [
        {
          "internalType": "uint8",
          "name": "",
          "type": "uint8"
        }
      ],
      "stateMutability": "view",
      "type": "function"
    },
    {
      "inputs": [
        {
          "internalType": "address",
          "name": "spender",
          "type": "address"
        },
        {
          "internalType": "uint256",
          "name": "subtractedValue",
          "type": "uint256"
        }
      ],
      "name": "decreaseAllowance",
      "outputs": [
        {
          "internalType": "bool",
          "name": "",
          "type": "bool"
        }
      ],
      "stateMutability": "nonpayable",
      "type": "function"
    },
    {
      "inputs": [
        {
          "internalType": "bytes32",
          "name": "role",
          "type": "bytes32"
        }
      ],
      "name": "getRoleAdmin",
      "outputs": [
        {
          "internalType": "bytes32",
          "name": "",
          "type": "bytes32"
        }
      ],
      "stateMutability": "view",
      "type": "function"
    },
    {
      "inputs": [
        {
          "internalType": "bytes32",
          "name": "role",
          "type": "bytes32"
        },
        {
          "internalType": "address",
          "name": "account",
          "type": "address"
        }
      ],
      "name": "grantRole",
      "outputs": [],
      "stateMutability": "nonpayable",
      "type": "function"
    },
    {
      "inputs": [
        {
          "internalType": "bytes32",
          "name": "role",
          "type": "bytes32"
        },
        {
          "internalType": "address",
          "name": "account",
          "type": "address"
        }
      ],
      "name": "hasRole",
      "outputs": [
        {
          "internalType": "bool",
          "name": "",
          "type": "bool"
        }
      ],
      "stateMutability": "view",
      "type": "function"
    },
    {
      "inputs": [
        {
          "internalType": "address",
          "name": "spender",
          "type": "address"
        },
        {
          "internalType": "uint256",
          "name": "addedValue",
          "type": "uint256"
        }
      ],
      "name": "increaseAllowance",
      "outputs": [
        {
          "internalType": "bool",
          "name": "",
          "type": "bool"
        }
      ],
      "stateMutability": "nonpayable",
      "type": "function"
    },
    {
      "inputs": [],
      "name": "initialize",
      "outputs": [],
      "stateMutability": "nonpayable",
      "type": "function"
    },
    {
      "inputs": [
        {
          "internalType": "address",
          "name": "to",
          "type": "address"
        },
        {
          "internalType": "uint256",
          "name": "amount",
          "type": "uint256"
        }
      ],
      "name": "mint",
      "outputs": [],
      "stateMutability": "nonpayable",
      "type": "function"
    },
    {
      "inputs": [],
      "name": "name",
      "outputs": [
        {
          "internalType": "string",
          "name": "",
          "type": "string"
        }
      ],
      "stateMutability": "view",
      "type": "function"
    },
    {
      "inputs": [
        {
          "internalType": "address",
          "name": "owner",
          "type": "address"
        }
      ],
      "name": "nonces",
      "outputs": [
        {
          "internalType": "uint256",
          "name": "",
          "type": "uint256"
        }
      ],
      "stateMutability": "view",
      "type": "function"
    },
    {
      "inputs": [],
      "name": "pause",
      "outputs": [],
      "stateMutability": "nonpayable",
      "type": "function"
    },
    {
      "inputs": [],
      "name": "paused",
      "outputs": [
        {
          "internalType": "bool",
          "name": "",
          "type": "bool"
        }
      ],
      "stateMutability": "view",
      "type": "function"
    },
    {
      "inputs": [
        {
          "internalType": "address",
          "name": "owner",
          "type": "address"
        },
        {
          "internalType": "address",
          "name": "spender",
          "type": "address"
        },
        {
          "internalType": "uint256",
          "name": "value",
          "type": "uint256"
        },
        {
          "internalType": "uint256",
          "name": "deadline",
          "type": "uint256"
        },
        {
          "internalType": "uint8",
          "name": "v",
          "type": "uint8"
        },
        {
          "internalType": "bytes32",
          "name": "r",
          "type": "bytes32"
        },
        {
          "internalType": "bytes32",
          "name": "s",
          "type": "bytes32"
        }
      ],
      "name": "permit",
      "outputs": [],
      "stateMutability": "nonpayable",
      "type": "function"
    },
    {
      "inputs": [
        {
          "internalType": "bytes32",
          "name": "role",
          "type": "bytes32"
        },
        {
          "internalType": "address",
          "name": "account",
          "type": "address"
        }
      ],
      "name": "renounceRole",
      "outputs": [],
      "stateMutability": "nonpayable",
      "type": "function"
    },
    {
      "inputs": [
        {
          "internalType": "bytes32",
          "name": "role",
          "type": "bytes32"
        },
        {
          "internalType": "address",
          "name": "account",
          "type": "address"
        }
      ],
      "name": "revokeRole",
      "outputs": [],
      "stateMutability": "nonpayable",
      "type": "function"
    },
    {
      "inputs": [
        {
          "internalType": "bytes4",
          "name": "interfaceId",
          "type": "bytes4"
        }
      ],
      "name": "supportsInterface",
      "outputs": [
        {
          "internalType": "bool",
          "name": "",
          "type": "bool"
        }
      ],
      "stateMutability": "view",
      "type": "function"
    },
    {
      "inputs": [],
      "name": "symbol",
      "outputs": [
        {
          "internalType": "string",
          "name": "",
          "type": "string"
        }
      ],
      "stateMutability": "view",
      "type": "function"
    },
    {
      "inputs": [],
      "name": "totalBurned",
      "outputs": [
        {
          "internalType": "uint256",
          "name": "",
          "type": "uint256"
        }
      ],
      "stateMutability": "view",
      "type": "function"
    },
    {
      "inputs": [],
      "name": "totalSupply",
      "outputs": [
        {
          "internalType": "uint256",
          "name": "",
          "type": "uint256"
        }
      ],
      "stateMutability": "view",
      "type": "function"
    },
    {
      "inputs": [
        {
          "internalType": "address",
          "name": "to",
          "type": "address"
        },
        {
          "internalType": "uint256",
          "name": "amount",
          "type": "uint256"
        }
      ],
      "name": "transfer",
      "outputs": [
        {
          "internalType": "bool",
          "name": "",
          "type": "bool"
        }
      ],
      "stateMutability": "nonpayable",
      "type": "function"
    },
    {
      "inputs": [
        {
          "internalType": "address",
          "name": "from",
          "type": "address"
        },
        {
          "internalType": "address",
          "name": "to",
          "type": "address"
        },
        {
          "internalType": "uint256",
          "name": "amount",
          "type": "uint256"
        }
      ],
      "name": "transferFrom",
      "outputs": [
        {
          "internalType": "bool",
          "name": "",
          "type": "bool"
        }
      ],
      "stateMutability": "nonpayable",
      "type": "function"
    },
    {
      "inputs": [],
      "name": "unpause",
      "outputs": [],
      "stateMutability": "nonpayable",
      "type": "function"
    }
  ],
  "bytecode": "0x60806040523480156200001157600080fd5b506200001c62000022565b62000152565b6200002e60ff62000031565b50565b60008054610100900460ff1615620000ca578160ff1660011480156200006a575062000068306200014360201b62000ad51760201c565b155b620000c25760405162461bcd60e51b815260206004820152602e6024820152600080516020620022b883398151915260448201526d191e481a5b9a5d1a585b1a5e995960921b60648201526084015b60405180910390fd5b506000919050565b60005460ff808416911610620001295760405162461bcd60e51b815260206004820152602e6024820152600080516020620022b883398151915260448201526d191e481a5b9a5d1a585b1a5e995960921b6064820152608401620000b9565b506000805460ff191660ff92909216919091179055600190565b6001600160a01b03163b151590565b61215680620001626000396000f3fe608060405234801561001057600080fd5b50600436106101f05760003560e01c806370a082311161010f578063a217fddf116100a2578063d539139311610071578063d5391393146103f1578063d547741f14610418578063d89135cd1461042b578063dd62ed3e1461043457600080fd5b8063a217fddf146103b0578063a457c2d7146103b8578063a9059cbb146103cb578063d505accf146103de57600080fd5b80638129fc1c116100de5780638129fc1c146103855780638456cb591461038d57806391d148541461039557806395d89b41146103a857600080fd5b806370a082311461032157806375b238fc1461034a57806379cc67901461035f5780637ecebe001461037257600080fd5b8063355274ea116101875780633f4ba83a116101565780633f4ba83a146102e857806340c10f19146102f057806342966c68146103035780635c975abb1461031657600080fd5b8063355274ea146102b25780633644e515146102ba57806336568abe146102c257806339509351146102d557600080fd5b806323b872dd116101c357806323b872dd14610257578063248a9ca31461026a5780632f2ff15d1461028e578063313ce567146102a357600080fd5b806301ffc9a7146101f557806306fdde031461021d578063095ea7b31461023257806318160ddd14610245575b600080fd5b610208610203366004611cfd565b610447565b60405190151581526020015b60405180910390f35b61022561047e565b6040516102149190611d53565b610208610240366004611d9d565b610510565b6035545b604051908152602001610214565b610208610265366004611dc7565b610528565b610249610278366004611e03565b600090815261012e602052604090206001015490565b6102a161029c366004611e1c565b61054c565b005b60405160128152602001610214565b609754610249565b610249610577565b6102a16102d0366004611e1c565b610586565b6102086102e3366004611d9d565b610609565b6102a161062b565b6102a16102fe366004611d9d565b61064e565b6102a1610311366004611e03565b610682565b60ca5460ff16610208565b61024961032f366004611e48565b6001600160a01b031660009081526033602052604090205490565b61024960008051602061210183398151915281565b6102a161036d366004611d9d565b6106a5565b610249610380366004611e48565b6106d3565b6102a16106f2565b6102a161083c565b6102086103a3366004611e1c565b61085c565b610225610888565b610249600081565b6102086103c6366004611d9d565b610897565b6102086103d9366004611d9d565b610912565b6102a16103ec366004611e63565b610920565b6102497f9f2df0fed2c77648de5860a4cc508cd0818c85b8b8a1ab4ceeef8d981c8956a681565b6102a1610426366004611e1c565b610a84565b6101c754610249565b610249610442366004611ed6565b610aaa565b60006001600160e01b03198216637965db0b60e01b148061047857506301ffc9a760e01b6001600160e01b03198316145b92915050565b60606036805461048d90611f00565b80601f01602080910402602001604051908101604052809291908181526020018280546104b990611f00565b80156105065780601f106104db57610100808354040283529160200191610506565b820191906000526020600020905b8154815290600101906020018083116104e957829003601f168201915b5050505050905090565b60003361051e818585610ae4565b5060019392505050565b600033610536858285610c08565b610541858585610c82565b506001949350505050565b600082815261012e602052604090206001015461056881610e5b565b6105728383610e65565b505050565b6000610581610eec565b905090565b6001600160a01b03811633146105fb5760405162461bcd60e51b815260206004820152602f60248201527f416363657373436f6e74726f6c3a2063616e206f6e6c792072656e6f756e636560448201526e103937b632b9903337b91039b2b63360891b60648201526084015b60405180910390fd5b6106058282610f69565b5050565b60003361051e81858561061c8383610aaa565b6106269190611f4b565b610ae4565b60008051602061210183398151915261064381610e5b565b61064b610fd1565b50565b7f9f2df0fed2c77648de5860a4cc508cd0818c85b8b8a1ab4ceeef8d981c8956a661067881610e5b565b6105728383611064565b806101c760008282546106959190611f4b565b9091555061064b905033826110dd565b6106b0823383610c08565b806101c760008282546106c39190611f4b565b90915550610605905082826110dd565b6001600160a01b03811660009081526101946020526040812054610478565b60006106fe6001611237565b90508015610716576000805461ff0019166101001790555b6107566040518060400160405280600381526020016245564f60e81b8152506040518060400160405280600381526020016245564f60e81b8152506112c4565b61075e6112f5565b6107736b01f04ef12cb04cf15800000061131e565b61077b61134e565b6107836112f5565b6107a76040518060400160405280600381526020016245564f60e81b81525061137d565b6107b2600033610e65565b6107ca60008051602061210183398151915233610e65565b6107f47f9f2df0fed2c77648de5860a4cc508cd0818c85b8b8a1ab4ceeef8d981c8956a633610e65565b801561064b576000805461ff0019169055604051600181527f7f26b83ff96e1f2b6a682f133852f6798a09c465da95921460cefb38474024989060200160405180910390a150565b60008051602061210183398151915261085481610e5b565b61064b6113c7565b600091825261012e602090815260408084206001600160a01b0393909316845291905290205460ff1690565b60606037805461048d90611f00565b600033816108a58286610aaa565b9050838110156109055760405162461bcd60e51b815260206004820152602560248201527f45524332303a2064656372656173656420616c6c6f77616e63652062656c6f77604482015264207a65726f60d81b60648201526084016105f2565b6105418286868403610ae4565b60003361051e818585610c82565b834211156109705760405162461bcd60e51b815260206004820152601d60248201527f45524332305065726d69743a206578706972656420646561646c696e6500000060448201526064016105f2565b60007f6e71edae12b1b97f4d1f60370fef10105fa2faae0126114a169c64845d6126c988888861099f8c611442565b6040805160208101969096526001600160a01b0394851690860152929091166060840152608083015260a082015260c0810186905260e00160405160208183030381529060405280519060200120905060006109fa8261146b565b90506000610a0a828787876114b9565b9050896001600160a01b0316816001600160a01b031614610a6d5760405162461bcd60e51b815260206004820152601e60248201527f45524332305065726d69743a20696e76616c6964207369676e6174757265000060448201526064016105f2565b610a788a8a8a610ae4565b50505050505050505050565b600082815261012e6020526040902060010154610aa081610e5b565b6105728383610f69565b6001600160a01b03918216600090815260346020908152604080832093909416825291909152205490565b6001600160a01b03163b151590565b6001600160a01b038316610b465760405162461bcd60e51b8152602060048201526024808201527f45524332303a20617070726f76652066726f6d20746865207a65726f206164646044820152637265737360e01b60648201526084016105f2565b6001600160a01b038216610ba75760405162461bcd60e51b815260206004820152602260248201527f45524332303a20617070726f766520746f20746865207a65726f206164647265604482015261737360f01b60648201526084016105f2565b6001600160a01b0383811660008181526034602090815260408083209487168084529482529182902085905590518481527f8c5be1e5ebec7d5bd14f71427d1e84f3dd0314c0f7b2291e5b200ac8c7c3b925910160405180910390a3505050565b6000610c148484610aaa565b90506000198114610c7c5781811015610c6f5760405162461bcd60e51b815260206004820152601d60248201527f45524332303a20696e73756666696369656e7420616c6c6f77616e636500000060448201526064016105f2565b610c7c8484848403610ae4565b50505050565b6001600160a01b038316610ce65760405162461bcd60e51b815260206004820152602560248201527f45524332303a207472616e736665722066726f6d20746865207a65726f206164604482015264647265737360d81b60648201526084016105f2565b6001600160a01b038216610d485760405162461bcd60e51b815260206004820152602360248201527f45524332303a207472616e7366657220746f20746865207a65726f206164647260448201526265737360e81b60648201526084016105f2565b610d538383836114e1565b6001600160a01b03831660009081526033602052604090205481811015610dcb5760405162461bcd60e51b815260206004820152602660248201527f45524332303a207472616e7366657220616d6f756e7420657863656564732062604482015265616c616e636560d01b60648201526084016105f2565b6001600160a01b03808516600090815260336020526040808220858503905591851681529081208054849290610e02908490611f4b565b92505081905550826001600160a01b0316846001600160a01b03167fddf252ad1be2c89b69c2b068fc378daa952ba7f163c4a11628f55a4df523b3ef84604051610e4e91815260200190565b60405180910390a3610c7c565b61064b8133611527565b610e6f828261085c565b61060557600082815261012e602090815260408083206001600160a01b03851684529091529020805460ff19166001179055610ea83390565b6001600160a01b0316816001600160a01b0316837f2f8788117e7eff1d82e926ec794901d17c78024a50270940304540a733656f0d60405160405180910390a45050565b60006105817f8b73c3c69bb8fe3d512ecc4cf759cc79239f7b179b0ffacaa9a75d522b39400f610f1c6101605490565b610161546040805160208101859052908101839052606081018290524660808201523060a082015260009060c0016040516020818303038152906040528051906020012090509392505050565b610f73828261085c565b1561060557600082815261012e602090815260408083206001600160a01b0385168085529252808320805460ff1916905551339285917ff6391f5c32d9c69d2a47ea670b442974b53935d1edc7fd64eb21e047a839171b9190a45050565b60ca5460ff1661101a5760405162461bcd60e51b815260206004820152601460248201527314185d5cd8589b194e881b9bdd081c185d5cd95960621b60448201526064016105f2565b60ca805460ff191690557f5db9ee0a495bf2e6ff9c91a7834c1ba4fdd244a5e8aa4e537bd38aeae4b073aa335b6040516001600160a01b03909116815260200160405180910390a1565b609754816110726101c75490565b60355461107f9190611f4b565b6110899190611f4b565b11156110d35760405162461bcd60e51b8152602060048201526019602482015278115490cc8c10d85c1c19590e8818d85c08195e18d959591959603a1b60448201526064016105f2565b610605828261158b565b6001600160a01b03821661113d5760405162461bcd60e51b815260206004820152602160248201527f45524332303a206275726e2066726f6d20746865207a65726f206164647265736044820152607360f81b60648201526084016105f2565b611149826000836114e1565b6001600160a01b038216600090815260336020526040902054818110156111bd5760405162461bcd60e51b815260206004820152602260248201527f45524332303a206275726e20616d6f756e7420657863656564732062616c616e604482015261636560f01b60648201526084016105f2565b6001600160a01b03831660009081526033602052604081208383039055603580548492906111ec908490611f63565b90915550506040518281526000906001600160a01b038516907fddf252ad1be2c89b69c2b068fc378daa952ba7f163c4a11628f55a4df523b3ef9060200160405180910390a3505050565b60008054610100900460ff161561127e578160ff16600114801561125a5750303b155b6112765760405162461bcd60e51b81526004016105f290611f7a565b506000919050565b60005460ff8084169116106112a55760405162461bcd60e51b81526004016105f290611f7a565b506000805460ff191660ff92909216919091179055600190565b919050565b600054610100900460ff166112eb5760405162461bcd60e51b81526004016105f290611fc8565b61060582826115f6565b600054610100900460ff1661131c5760405162461bcd60e51b81526004016105f290611fc8565b565b600054610100900460ff166113455760405162461bcd60e51b81526004016105f290611fc8565b61064b81611644565b600054610100900460ff166113755760405162461bcd60e51b81526004016105f290611fc8565b61131c6116b8565b600054610100900460ff166113a45760405162461bcd60e51b81526004016105f290611fc8565b61064b81604051806040016040528060018152602001603160f81b8152506116eb565b60ca5460ff161561140d5760405162461bcd60e51b815260206004820152601060248201526f14185d5cd8589b194e881c185d5cd95960821b60448201526064016105f2565b60ca805460ff191660011790557f62e78cea01bee320cd4e420270b5ea74000d11b0c9f74754ebdbfc544b05a2586110473390565b6001600160a01b0381166000908152610194602052604090208054600181018255905b50919050565b6000610478611478610eec565b8360405161190160f01b6020820152602281018390526042810182905260009060620160405160208183030381529060405280519060200120905092915050565b60008060006114ca8787878761172e565b915091506114d78161181b565b5095945050505050565b60ca5460ff16156105725760405162461bcd60e51b815260206004820152601060248201526f14185d5cd8589b194e881c185d5cd95960821b60448201526064016105f2565b611531828261085c565b61060557611549816001600160a01b031660146119d6565b6115548360206119d6565b604051602001611565929190612013565b60408051601f198184030181529082905262461bcd60e51b82526105f291600401611d53565b6097548161159860355490565b6115a29190611f4b565b11156115ec5760405162461bcd60e51b8152602060048201526019602482015278115490cc8c10d85c1c19590e8818d85c08195e18d959591959603a1b60448201526064016105f2565b6106058282611b79565b600054610100900460ff1661161d5760405162461bcd60e51b81526004016105f290611fc8565b8151611630906036906020850190611c64565b508051610572906037906020840190611c64565b600054610100900460ff1661166b5760405162461bcd60e51b81526004016105f290611fc8565b600081116116b35760405162461bcd60e51b8152602060048201526015602482015274045524332304361707065643a20636170206973203605c1b60448201526064016105f2565b609755565b600054610100900460ff166116df5760405162461bcd60e51b81526004016105f290611fc8565b60ca805460ff19169055565b600054610100900460ff166117125760405162461bcd60e51b81526004016105f290611fc8565b8151602092830120815191909201206101609190915561016155565b6000807f7fffffffffffffffffffffffffffffff5d576e7357a4501ddfe92f46681b20a08311156117655750600090506003611812565b8460ff16601b1415801561177d57508460ff16601c14155b1561178e5750600090506004611812565b6040805160008082526020820180845289905260ff881692820192909252606081018690526080810185905260019060a0016020604051602081039080840390855afa1580156117e2573d6000803e3d6000fd5b5050604051601f1901519150506001600160a01b03811661180b57600060019250925050611812565b9150600090505b94509492505050565b600081600481111561182f5761182f612088565b14156118385750565b600181600481111561184c5761184c612088565b141561189a5760405162461bcd60e51b815260206004820152601860248201527f45434453413a20696e76616c6964207369676e6174757265000000000000000060448201526064016105f2565b60028160048111156118ae576118ae612088565b14156118fc5760405162461bcd60e51b815260206004820152601f60248201527f45434453413a20696e76616c6964207369676e6174757265206c656e6774680060448201526064016105f2565b600381600481111561191057611910612088565b14156119695760405162461bcd60e51b815260206004820152602260248201527f45434453413a20696e76616c6964207369676e6174757265202773272076616c604482015261756560f01b60648201526084016105f2565b600481600481111561197d5761197d612088565b141561064b5760405162461bcd60e51b815260206004820152602260248201527f45434453413a20696e76616c6964207369676e6174757265202776272076616c604482015261756560f01b60648201526084016105f2565b606060006119e583600261209e565b6119f0906002611f4b565b67ffffffffffffffff811115611a0857611a086120bd565b6040519080825280601f01601f191660200182016040528015611a32576020820181803683370190505b509050600360fc1b81600081518110611a4d57611a4d6120d3565b60200101906001600160f81b031916908160001a905350600f60fb1b81600181518110611a7c57611a7c6120d3565b60200101906001600160f81b031916908160001a9053506000611aa084600261209e565b611aab906001611f4b565b90505b6001811115611b23576f181899199a1a9b1b9c1cb0b131b232b360811b85600f1660108110611adf57611adf6120d3565b1a60f81b828281518110611af557611af56120d3565b60200101906001600160f81b031916908160001a90535060049490941c93611b1c816120e9565b9050611aae565b508315611b725760405162461bcd60e51b815260206004820181905260248201527f537472696e67733a20686578206c656e67746820696e73756666696369656e7460448201526064016105f2565b9392505050565b6001600160a01b038216611bcf5760405162461bcd60e51b815260206004820152601f60248201527f45524332303a206d696e7420746f20746865207a65726f20616464726573730060448201526064016105f2565b611bdb600083836114e1565b8060356000828254611bed9190611f4b565b90915550506001600160a01b03821660009081526033602052604081208054839290611c1a908490611f4b565b90915550506040518181526001600160a01b038316906000907fddf252ad1be2c89b69c2b068fc378daa952ba7f163c4a11628f55a4df523b3ef9060200160405180910390a35050565b828054611c7090611f00565b90600052602060002090601f016020900481019282611c925760008555611cd8565b82601f10611cab57805160ff1916838001178555611cd8565b82800160010185558215611cd8579182015b82811115611cd8578251825591602001919060010190611cbd565b50611ce4929150611ce8565b5090565b5b80821115611ce45760008155600101611ce9565b600060208284031215611d0f57600080fd5b81356001600160e01b031981168114611b7257600080fd5b60005b83811015611d42578181015183820152602001611d2a565b83811115610c7c5750506000910152565b6020815260008251806020840152611d72816040850160208701611d27565b601f01601f19169190910160400192915050565b80356001600160a01b03811681146112bf57600080fd5b60008060408385031215611db057600080fd5b611db983611d86565b946020939093013593505050565b600080600060608486031215611ddc57600080fd5b611de584611d86565b9250611df360208501611d86565b9150604084013590509250925092565b600060208284031215611e1557600080fd5b5035919050565b60008060408385031215611e2f57600080fd5b82359150611e3f60208401611d86565b90509250929050565b600060208284031215611e5a57600080fd5b611b7282611d86565b600080600080600080600060e0888a031215611e7e57600080fd5b611e8788611d86565b9650611e9560208901611d86565b95506040880135945060608801359350608088013560ff81168114611eb957600080fd5b9699959850939692959460a0840135945060c09093013592915050565b60008060408385031215611ee957600080fd5b611ef283611d86565b9150611e3f60208401611d86565b600181811c90821680611f1457607f821691505b6020821081141561146557634e487b7160e01b600052602260045260246000fd5b634e487b7160e01b600052601160045260246000fd5b60008219821115611f5e57611f5e611f35565b500190565b600082821015611f7557611f75611f35565b500390565b6020808252602e908201527f496e697469616c697a61626c653a20636f6e747261637420697320616c72656160408201526d191e481a5b9a5d1a585b1a5e995960921b606082015260800190565b6020808252602b908201527f496e697469616c697a61626c653a20636f6e7472616374206973206e6f74206960408201526a6e697469616c697a696e6760a81b606082015260800190565b7f416363657373436f6e74726f6c3a206163636f756e742000000000000000000081526000835161204b816017850160208801611d27565b7001034b99036b4b9b9b4b733903937b6329607d1b601791840191820152835161207c816028840160208801611d27565b01602801949350505050565b634e487b7160e01b600052602160045260246000fd5b60008160001904831182151516156120b8576120b8611f35565b500290565b634e487b7160e01b600052604160045260246000fd5b634e487b7160e01b600052603260045260246000fd5b6000816120f8576120f8611f35565b50600019019056fea49807205ce4d355092ef5a8a18f56e8913cf4a201fbe287825b095693c21775a2646970667358221220dce1a0177380e0a58c5d05f74bc19f03d6b567a5c0ce3d3c398fb660cc7c893764736f6c63430008090033496e697469616c697a61626c653a20636f6e747261637420697320616c726561",
  "linkReferences": {},
  "deployedLinkReferences": {}
}