{
  "_format": "hh-sol-artifact-1",
  "contractName": "EVOUpgradeable",
  "sourceName": "contracts/ERC20/EVOUpgradeable.sol",
  "abi": [
    {
      "inputs": [],
      "stateMutability": "nonpayable",
      "type": "constructor"
    },
    {
      "anonymous": false,
      "inputs": [
        {
          "indexed": true,
          "internalType": "address",
          "name": "owner",
          "type": "address"
        },
        {
          "indexed": true,
          "internalType": "address",
          "name": "spender",
          "type": "address"
        },
        {
          "indexed": false,
          "internalType": "uint256",
          "name": "value",
          "type": "uint256"
        }
      ],
      "name": "Approval",
      "type": "event"
    },
    {
      "anonymous": false,
      "inputs": [
        {
          "indexed": false,
          "internalType": "uint8",
          "name": "version",
          "type": "uint8"
        }
      ],
      "name": "Initialized",
      "type": "event"
    },
    {
      "anonymous": false,
      "inputs": [
        {
          "indexed": false,
          "internalType": "address",
          "name": "account",
          "type": "address"
        }
      ],
      "name": "Paused",
      "type": "event"
    },
    {
      "anonymous": false,
      "inputs": [
        {
          "indexed": true,
          "internalType": "bytes32",
          "name": "role",
          "type": "bytes32"
        },
        {
          "indexed": true,
          "internalType": "bytes32",
          "name": "previousAdminRole",
          "type": "bytes32"
        },
        {
          "indexed": true,
          "internalType": "bytes32",
          "name": "newAdminRole",
          "type": "bytes32"
        }
      ],
      "name": "RoleAdminChanged",
      "type": "event"
    },
    {
      "anonymous": false,
      "inputs": [
        {
          "indexed": true,
          "internalType": "bytes32",
          "name": "role",
          "type": "bytes32"
        },
        {
          "indexed": true,
          "internalType": "address",
          "name": "account",
          "type": "address"
        },
        {
          "indexed": true,
          "internalType": "address",
          "name": "sender",
          "type": "address"
        }
      ],
      "name": "RoleGranted",
      "type": "event"
    },
    {
      "anonymous": false,
      "inputs": [
        {
          "indexed": true,
          "internalType": "bytes32",
          "name": "role",
          "type": "bytes32"
        },
        {
          "indexed": true,
          "internalType": "address",
          "name": "account",
          "type": "address"
        },
        {
          "indexed": true,
          "internalType": "address",
          "name": "sender",
          "type": "address"
        }
      ],
      "name": "RoleRevoked",
      "type": "event"
    },
    {
      "anonymous": false,
      "inputs": [
        {
          "indexed": true,
          "internalType": "address",
          "name": "from",
          "type": "address"
        },
        {
          "indexed": true,
          "internalType": "address",
          "name": "to",
          "type": "address"
        },
        {
          "indexed": false,
          "internalType": "uint256",
          "name": "value",
          "type": "uint256"
        }
      ],
      "name": "Transfer",
      "type": "event"
    },
    {
      "anonymous": false,
      "inputs": [
        {
          "indexed": false,
          "internalType": "address",
          "name": "account",
          "type": "address"
        }
      ],
      "name": "Unpaused",
      "type": "event"
    },
    {
      "inputs": [],
      "name": "ADMIN_ROLE",
      "outputs": [
        {
          "internalType": "bytes32",
          "name": "",
          "type": "bytes32"
        }
      ],
      "stateMutability": "view",
      "type": "function"
    },
    {
      "inputs": [],
      "name": "DEFAULT_ADMIN_ROLE",
      "outputs": [
        {
          "internalType": "bytes32",
          "name": "",
          "type": "bytes32"
        }
      ],
      "stateMutability": "view",
      "type": "function"
    },
    {
      "inputs": [],
      "name": "DOMAIN_SEPARATOR",
      "outputs": [
        {
          "internalType": "bytes32",
          "name": "",
          "type": "bytes32"
        }
      ],
      "stateMutability": "view",
      "type": "function"
    },
    {
      "inputs": [],
      "name": "MINTER_ROLE",
      "outputs": [
        {
          "internalType": "bytes32",
          "name": "",
          "type": "bytes32"
        }
      ],
      "stateMutability": "view",
      "type": "function"
    },
    {
      "inputs": [
        {
          "internalType": "address",
          "name": "owner",
          "type": "address"
        },
        {
          "internalType": "address",
          "name": "spender",
          "type": "address"
        }
      ],
      "name": "allowance",
      "outputs": [
        {
          "internalType": "uint256",
          "name": "",
          "type": "uint256"
        }
      ],
      "stateMutability": "view",
      "type": "function"
    },
    {
      "inputs": [
        {
          "internalType": "address",
          "name": "spender",
          "type": "address"
        },
        {
          "internalType": "uint256",
          "name": "amount",
          "type": "uint256"
        }
      ],
      "name": "approve",
      "outputs": [
        {
          "internalType": "bool",
          "name": "",
          "type": "bool"
        }
      ],
      "stateMutability": "nonpayable",
      "type": "function"
    },
    {
      "inputs": [
        {
          "internalType": "address",
          "name": "account",
          "type": "address"
        }
      ],
      "name": "balanceOf",
      "outputs": [
        {
          "internalType": "uint256",
          "name": "",
          "type": "uint256"
        }
      ],
      "stateMutability": "view",
      "type": "function"
    },
    {
      "inputs": [
        {
          "internalType": "uint256",
          "name": "amount",
          "type": "uint256"
        }
      ],
      "name": "burn",
      "outputs": [],
      "stateMutability": "nonpayable",
      "type": "function"
    },
    {
      "inputs": [
        {
          "internalType": "address",
          "name": "account",
          "type": "address"
        },
        {
          "internalType": "uint256",
          "name": "amount",
          "type": "uint256"
        }
      ],
      "name": "burnFrom",
      "outputs": [],
      "stateMutability": "nonpayable",
      "type": "function"
    },
    {
      "inputs": [],
      "name": "cap",
      "outputs": [
        {
          "internalType": "uint256",
          "name": "",
          "type": "uint256"
        }
      ],
      "stateMutability": "view",
      "type": "function"
    },
    {
      "inputs": [],
      "name": "decimals",
      "outputs": [
        {
          "internalType": "uint8",
          "name": "",
          "type": "uint8"
        }
      ],
      "stateMutability": "view",
      "type": "function"
    },
    {
      "inputs": [
        {
          "internalType": "address",
          "name": "spender",
          "type": "address"
        },
        {
          "internalType": "uint256",
          "name": "subtractedValue",
          "type": "uint256"
        }
      ],
      "name": "decreaseAllowance",
      "outputs": [
        {
          "internalType": "bool",
          "name": "",
          "type": "bool"
        }
      ],
      "stateMutability": "nonpayable",
      "type": "function"
    },
    {
      "inputs": [
        {
          "internalType": "bytes32",
          "name": "role",
          "type": "bytes32"
        }
      ],
      "name": "getRoleAdmin",
      "outputs": [
        {
          "internalType": "bytes32",
          "name": "",
          "type": "bytes32"
        }
      ],
      "stateMutability": "view",
      "type": "function"
    },
    {
      "inputs": [
        {
          "internalType": "bytes32",
          "name": "role",
          "type": "bytes32"
        },
        {
          "internalType": "address",
          "name": "account",
          "type": "address"
        }
      ],
      "name": "grantRole",
      "outputs": [],
      "stateMutability": "nonpayable",
      "type": "function"
    },
    {
      "inputs": [
        {
          "internalType": "bytes32",
          "name": "role",
          "type": "bytes32"
        },
        {
          "internalType": "address",
          "name": "account",
          "type": "address"
        }
      ],
      "name": "hasRole",
      "outputs": [
        {
          "internalType": "bool",
          "name": "",
          "type": "bool"
        }
      ],
      "stateMutability": "view",
      "type": "function"
    },
    {
      "inputs": [
        {
          "internalType": "address",
          "name": "spender",
          "type": "address"
        },
        {
          "internalType": "uint256",
          "name": "addedValue",
          "type": "uint256"
        }
      ],
      "name": "increaseAllowance",
      "outputs": [
        {
          "internalType": "bool",
          "name": "",
          "type": "bool"
        }
      ],
      "stateMutability": "nonpayable",
      "type": "function"
    },
    {
      "inputs": [],
      "name": "initialize",
      "outputs": [],
      "stateMutability": "nonpayable",
      "type": "function"
    },
    {
      "inputs": [
        {
          "internalType": "address",
          "name": "to",
          "type": "address"
        },
        {
          "internalType": "uint256",
          "name": "amount",
          "type": "uint256"
        }
      ],
      "name": "mint",
      "outputs": [],
      "stateMutability": "nonpayable",
      "type": "function"
    },
    {
      "inputs": [],
      "name": "name",
      "outputs": [
        {
          "internalType": "string",
          "name": "",
          "type": "string"
        }
      ],
      "stateMutability": "view",
      "type": "function"
    },
    {
      "inputs": [
        {
          "internalType": "address",
          "name": "owner",
          "type": "address"
        }
      ],
      "name": "nonces",
      "outputs": [
        {
          "internalType": "uint256",
          "name": "",
          "type": "uint256"
        }
      ],
      "stateMutability": "view",
      "type": "function"
    },
    {
      "inputs": [],
      "name": "pause",
      "outputs": [],
      "stateMutability": "nonpayable",
      "type": "function"
    },
    {
      "inputs": [],
      "name": "paused",
      "outputs": [
        {
          "internalType": "bool",
          "name": "",
          "type": "bool"
        }
      ],
      "stateMutability": "view",
      "type": "function"
    },
    {
      "inputs": [
        {
          "internalType": "address",
          "name": "owner",
          "type": "address"
        },
        {
          "internalType": "address",
          "name": "spender",
          "type": "address"
        },
        {
          "internalType": "uint256",
          "name": "value",
          "type": "uint256"
        },
        {
          "internalType": "uint256",
          "name": "deadline",
          "type": "uint256"
        },
        {
          "internalType": "uint8",
          "name": "v",
          "type": "uint8"
        },
        {
          "internalType": "bytes32",
          "name": "r",
          "type": "bytes32"
        },
        {
          "internalType": "bytes32",
          "name": "s",
          "type": "bytes32"
        }
      ],
      "name": "permit",
      "outputs": [],
      "stateMutability": "nonpayable",
      "type": "function"
    },
    {
      "inputs": [
        {
          "internalType": "bytes32",
          "name": "role",
          "type": "bytes32"
        },
        {
          "internalType": "address",
          "name": "account",
          "type": "address"
        }
      ],
      "name": "renounceRole",
      "outputs": [],
      "stateMutability": "nonpayable",
      "type": "function"
    },
    {
      "inputs": [
        {
          "internalType": "bytes32",
          "name": "role",
          "type": "bytes32"
        },
        {
          "internalType": "address",
          "name": "account",
          "type": "address"
        }
      ],
      "name": "revokeRole",
      "outputs": [],
      "stateMutability": "nonpayable",
      "type": "function"
    },
    {
      "inputs": [
        {
          "internalType": "bytes4",
          "name": "interfaceId",
          "type": "bytes4"
        }
      ],
      "name": "supportsInterface",
      "outputs": [
        {
          "internalType": "bool",
          "name": "",
          "type": "bool"
        }
      ],
      "stateMutability": "view",
      "type": "function"
    },
    {
      "inputs": [],
      "name": "symbol",
      "outputs": [
        {
          "internalType": "string",
          "name": "",
          "type": "string"
        }
      ],
      "stateMutability": "view",
      "type": "function"
    },
    {
      "inputs": [],
      "name": "totalSupply",
      "outputs": [
        {
          "internalType": "uint256",
          "name": "",
          "type": "uint256"
        }
      ],
      "stateMutability": "view",
      "type": "function"
    },
    {
      "inputs": [
        {
          "internalType": "address",
          "name": "to",
          "type": "address"
        },
        {
          "internalType": "uint256",
          "name": "amount",
          "type": "uint256"
        }
      ],
      "name": "transfer",
      "outputs": [
        {
          "internalType": "bool",
          "name": "",
          "type": "bool"
        }
      ],
      "stateMutability": "nonpayable",
      "type": "function"
    },
    {
      "inputs": [
        {
          "internalType": "address",
          "name": "from",
          "type": "address"
        },
        {
          "internalType": "address",
          "name": "to",
          "type": "address"
        },
        {
          "internalType": "uint256",
          "name": "amount",
          "type": "uint256"
        }
      ],
      "name": "transferFrom",
      "outputs": [
        {
          "internalType": "bool",
          "name": "",
          "type": "bool"
        }
      ],
      "stateMutability": "nonpayable",
      "type": "function"
    },
    {
      "inputs": [],
      "name": "unpause",
      "outputs": [],
      "stateMutability": "nonpayable",
      "type": "function"
    }
  ],
  "bytecode": "0x60806040523480156200001157600080fd5b506200001c62000022565b62000152565b6200002e60ff62000031565b50565b60008054610100900460ff1615620000ca578160ff1660011480156200006a575062000068306200014360201b62000a8f1760201c565b155b620000c25760405162461bcd60e51b815260206004820152602e60248201526000805160206200220783398151915260448201526d191e481a5b9a5d1a585b1a5e995960921b60648201526084015b60405180910390fd5b506000919050565b60005460ff808416911610620001295760405162461bcd60e51b815260206004820152602e60248201526000805160206200220783398151915260448201526d191e481a5b9a5d1a585b1a5e995960921b6064820152608401620000b9565b506000805460ff191660ff92909216919091179055600190565b6001600160a01b03163b151590565b6120a580620001626000396000f3fe608060405234801561001057600080fd5b50600436106101e55760003560e01c80635c975abb1161010f57806395d89b41116100a2578063d505accf11610071578063d505accf146103d3578063d5391393146103e6578063d547741f1461040d578063dd62ed3e1461042057600080fd5b806395d89b411461039d578063a217fddf146103a5578063a457c2d7146103ad578063a9059cbb146103c057600080fd5b80637ecebe00116100de5780637ecebe00146103675780638129fc1c1461037a5780638456cb591461038257806391d148541461038a57600080fd5b80635c975abb1461030b57806370a082311461031657806375b238fc1461033f57806379cc67901461035457600080fd5b8063313ce56711610187578063395093511161015657806339509351146102ca5780633f4ba83a146102dd57806340c10f19146102e557806342966c68146102f857600080fd5b8063313ce56714610298578063355274ea146102a75780633644e515146102af57806336568abe146102b757600080fd5b806318160ddd116101c357806318160ddd1461023a57806323b872dd1461024c578063248a9ca31461025f5780632f2ff15d1461028357600080fd5b806301ffc9a7146101ea57806306fdde0314610212578063095ea7b314610227575b600080fd5b6101fd6101f8366004611c4c565b610433565b60405190151581526020015b60405180910390f35b61021a61046a565b6040516102099190611ca2565b6101fd610235366004611cec565b6104fc565b6035545b604051908152602001610209565b6101fd61025a366004611d16565b610514565b61023e61026d366004611d52565b600090815261012e602052604090206001015490565b610296610291366004611d6b565b610538565b005b60405160128152602001610209565b60975461023e565b61023e610563565b6102966102c5366004611d6b565b610572565b6101fd6102d8366004611cec565b6105f5565b610296610617565b6102966102f3366004611cec565b61063a565b610296610306366004611d52565b61066e565b60ca5460ff166101fd565b61023e610324366004611d97565b6001600160a01b031660009081526033602052604090205490565b61023e60008051602061205083398151915281565b610296610362366004611cec565b610678565b61023e610375366004611d97565b61068d565b6102966106ac565b6102966107f6565b6101fd610398366004611d6b565b610816565b61021a610842565b61023e600081565b6101fd6103bb366004611cec565b610851565b6101fd6103ce366004611cec565b6108cc565b6102966103e1366004611db2565b6108da565b61023e7f9f2df0fed2c77648de5860a4cc508cd0818c85b8b8a1ab4ceeef8d981c8956a681565b61029661041b366004611d6b565b610a3e565b61023e61042e366004611e25565b610a64565b60006001600160e01b03198216637965db0b60e01b148061046457506301ffc9a760e01b6001600160e01b03198316145b92915050565b60606036805461047990611e4f565b80601f01602080910402602001604051908101604052809291908181526020018280546104a590611e4f565b80156104f25780601f106104c7576101008083540402835291602001916104f2565b820191906000526020600020905b8154815290600101906020018083116104d557829003601f168201915b5050505050905090565b60003361050a818585610a9e565b5060019392505050565b600033610522858285610bc2565b61052d858585610c3c565b506001949350505050565b600082815261012e602052604090206001015461055481610e15565b61055e8383610e1f565b505050565b600061056d610ea6565b905090565b6001600160a01b03811633146105e75760405162461bcd60e51b815260206004820152602f60248201527f416363657373436f6e74726f6c3a2063616e206f6e6c792072656e6f756e636560448201526e103937b632b9903337b91039b2b63360891b60648201526084015b60405180910390fd5b6105f18282610f23565b5050565b60003361050a8185856106088383610a64565b6106129190611e9a565b610a9e565b60008051602061205083398151915261062f81610e15565b610637610f8b565b50565b7f9f2df0fed2c77648de5860a4cc508cd0818c85b8b8a1ab4ceeef8d981c8956a661066481610e15565b61055e838361101e565b6106373382611028565b610683823383610bc2565b6105f18282611028565b6001600160a01b03811660009081526101946020526040812054610464565b60006106b86001611182565b905080156106d0576000805461ff0019166101001790555b6107106040518060400160405280600381526020016245564f60e81b8152506040518060400160405280600381526020016245564f60e81b81525061120f565b610718611240565b61072d6b01f04ef12cb04cf158000000611269565b610735611299565b61073d611240565b6107616040518060400160405280600381526020016245564f60e81b8152506112c8565b61076c600033610e1f565b61078460008051602061205083398151915233610e1f565b6107ae7f9f2df0fed2c77648de5860a4cc508cd0818c85b8b8a1ab4ceeef8d981c8956a633610e1f565b8015610637576000805461ff0019169055604051600181527f7f26b83ff96e1f2b6a682f133852f6798a09c465da95921460cefb38474024989060200160405180910390a150565b60008051602061205083398151915261080e81610e15565b610637611312565b600091825261012e602090815260408084206001600160a01b0393909316845291905290205460ff1690565b60606037805461047990611e4f565b6000338161085f8286610a64565b9050838110156108bf5760405162461bcd60e51b815260206004820152602560248201527f45524332303a2064656372656173656420616c6c6f77616e63652062656c6f77604482015264207a65726f60d81b60648201526084016105de565b61052d8286868403610a9e565b60003361050a818585610c3c565b8342111561092a5760405162461bcd60e51b815260206004820152601d60248201527f45524332305065726d69743a206578706972656420646561646c696e6500000060448201526064016105de565b60007f6e71edae12b1b97f4d1f60370fef10105fa2faae0126114a169c64845d6126c98888886109598c61138d565b6040805160208101969096526001600160a01b0394851690860152929091166060840152608083015260a082015260c0810186905260e00160405160208183030381529060405280519060200120905060006109b4826113b6565b905060006109c482878787611404565b9050896001600160a01b0316816001600160a01b031614610a275760405162461bcd60e51b815260206004820152601e60248201527f45524332305065726d69743a20696e76616c6964207369676e6174757265000060448201526064016105de565b610a328a8a8a610a9e565b50505050505050505050565b600082815261012e6020526040902060010154610a5a81610e15565b61055e8383610f23565b6001600160a01b03918216600090815260346020908152604080832093909416825291909152205490565b6001600160a01b03163b151590565b6001600160a01b038316610b005760405162461bcd60e51b8152602060048201526024808201527f45524332303a20617070726f76652066726f6d20746865207a65726f206164646044820152637265737360e01b60648201526084016105de565b6001600160a01b038216610b615760405162461bcd60e51b815260206004820152602260248201527f45524332303a20617070726f766520746f20746865207a65726f206164647265604482015261737360f01b60648201526084016105de565b6001600160a01b0383811660008181526034602090815260408083209487168084529482529182902085905590518481527f8c5be1e5ebec7d5bd14f71427d1e84f3dd0314c0f7b2291e5b200ac8c7c3b925910160405180910390a3505050565b6000610bce8484610a64565b90506000198114610c365781811015610c295760405162461bcd60e51b815260206004820152601d60248201527f45524332303a20696e73756666696369656e7420616c6c6f77616e636500000060448201526064016105de565b610c368484848403610a9e565b50505050565b6001600160a01b038316610ca05760405162461bcd60e51b815260206004820152602560248201527f45524332303a207472616e736665722066726f6d20746865207a65726f206164604482015264647265737360d81b60648201526084016105de565b6001600160a01b038216610d025760405162461bcd60e51b815260206004820152602360248201527f45524332303a207472616e7366657220746f20746865207a65726f206164647260448201526265737360e81b60648201526084016105de565b610d0d83838361142c565b6001600160a01b03831660009081526033602052604090205481811015610d855760405162461bcd60e51b815260206004820152602660248201527f45524332303a207472616e7366657220616d6f756e7420657863656564732062604482015265616c616e636560d01b60648201526084016105de565b6001600160a01b03808516600090815260336020526040808220858503905591851681529081208054849290610dbc908490611e9a565b92505081905550826001600160a01b0316846001600160a01b03167fddf252ad1be2c89b69c2b068fc378daa952ba7f163c4a11628f55a4df523b3ef84604051610e0891815260200190565b60405180910390a3610c36565b6106378133611472565b610e298282610816565b6105f157600082815261012e602090815260408083206001600160a01b03851684529091529020805460ff19166001179055610e623390565b6001600160a01b0316816001600160a01b0316837f2f8788117e7eff1d82e926ec794901d17c78024a50270940304540a733656f0d60405160405180910390a45050565b600061056d7f8b73c3c69bb8fe3d512ecc4cf759cc79239f7b179b0ffacaa9a75d522b39400f610ed66101605490565b610161546040805160208101859052908101839052606081018290524660808201523060a082015260009060c0016040516020818303038152906040528051906020012090509392505050565b610f2d8282610816565b156105f157600082815261012e602090815260408083206001600160a01b0385168085529252808320805460ff1916905551339285917ff6391f5c32d9c69d2a47ea670b442974b53935d1edc7fd64eb21e047a839171b9190a45050565b60ca5460ff16610fd45760405162461bcd60e51b815260206004820152601460248201527314185d5cd8589b194e881b9bdd081c185d5cd95960621b60448201526064016105de565b60ca805460ff191690557f5db9ee0a495bf2e6ff9c91a7834c1ba4fdd244a5e8aa4e537bd38aeae4b073aa335b6040516001600160a01b03909116815260200160405180910390a1565b6105f182826114d6565b6001600160a01b0382166110885760405162461bcd60e51b815260206004820152602160248201527f45524332303a206275726e2066726f6d20746865207a65726f206164647265736044820152607360f81b60648201526084016105de565b6110948260008361142c565b6001600160a01b038216600090815260336020526040902054818110156111085760405162461bcd60e51b815260206004820152602260248201527f45524332303a206275726e20616d6f756e7420657863656564732062616c616e604482015261636560f01b60648201526084016105de565b6001600160a01b0383166000908152603360205260408120838303905560358054849290611137908490611eb2565b90915550506040518281526000906001600160a01b038516907fddf252ad1be2c89b69c2b068fc378daa952ba7f163c4a11628f55a4df523b3ef9060200160405180910390a3505050565b60008054610100900460ff16156111c9578160ff1660011480156111a55750303b155b6111c15760405162461bcd60e51b81526004016105de90611ec9565b506000919050565b60005460ff8084169116106111f05760405162461bcd60e51b81526004016105de90611ec9565b506000805460ff191660ff92909216919091179055600190565b919050565b600054610100900460ff166112365760405162461bcd60e51b81526004016105de90611f17565b6105f18282611545565b600054610100900460ff166112675760405162461bcd60e51b81526004016105de90611f17565b565b600054610100900460ff166112905760405162461bcd60e51b81526004016105de90611f17565b61063781611593565b600054610100900460ff166112c05760405162461bcd60e51b81526004016105de90611f17565b611267611607565b600054610100900460ff166112ef5760405162461bcd60e51b81526004016105de90611f17565b61063781604051806040016040528060018152602001603160f81b81525061163a565b60ca5460ff16156113585760405162461bcd60e51b815260206004820152601060248201526f14185d5cd8589b194e881c185d5cd95960821b60448201526064016105de565b60ca805460ff191660011790557f62e78cea01bee320cd4e420270b5ea74000d11b0c9f74754ebdbfc544b05a2586110013390565b6001600160a01b0381166000908152610194602052604090208054600181018255905b50919050565b60006104646113c3610ea6565b8360405161190160f01b6020820152602281018390526042810182905260009060620160405160208183030381529060405280519060200120905092915050565b60008060006114158787878761167d565b915091506114228161176a565b5095945050505050565b60ca5460ff161561055e5760405162461bcd60e51b815260206004820152601060248201526f14185d5cd8589b194e881c185d5cd95960821b60448201526064016105de565b61147c8282610816565b6105f157611494816001600160a01b03166014611925565b61149f836020611925565b6040516020016114b0929190611f62565b60408051601f198184030181529082905262461bcd60e51b82526105de91600401611ca2565b609754816114e360355490565b6114ed9190611e9a565b111561153b5760405162461bcd60e51b815260206004820152601960248201527f45524332304361707065643a206361702065786365656465640000000000000060448201526064016105de565b6105f18282611ac8565b600054610100900460ff1661156c5760405162461bcd60e51b81526004016105de90611f17565b815161157f906036906020850190611bb3565b50805161055e906037906020840190611bb3565b600054610100900460ff166115ba5760405162461bcd60e51b81526004016105de90611f17565b600081116116025760405162461bcd60e51b8152602060048201526015602482015274045524332304361707065643a20636170206973203605c1b60448201526064016105de565b609755565b600054610100900460ff1661162e5760405162461bcd60e51b81526004016105de90611f17565b60ca805460ff19169055565b600054610100900460ff166116615760405162461bcd60e51b81526004016105de90611f17565b8151602092830120815191909201206101609190915561016155565b6000807f7fffffffffffffffffffffffffffffff5d576e7357a4501ddfe92f46681b20a08311156116b45750600090506003611761565b8460ff16601b141580156116cc57508460ff16601c14155b156116dd5750600090506004611761565b6040805160008082526020820180845289905260ff881692820192909252606081018690526080810185905260019060a0016020604051602081039080840390855afa158015611731573d6000803e3d6000fd5b5050604051601f1901519150506001600160a01b03811661175a57600060019250925050611761565b9150600090505b94509492505050565b600081600481111561177e5761177e611fd7565b14156117875750565b600181600481111561179b5761179b611fd7565b14156117e95760405162461bcd60e51b815260206004820152601860248201527f45434453413a20696e76616c6964207369676e6174757265000000000000000060448201526064016105de565b60028160048111156117fd576117fd611fd7565b141561184b5760405162461bcd60e51b815260206004820152601f60248201527f45434453413a20696e76616c6964207369676e6174757265206c656e6774680060448201526064016105de565b600381600481111561185f5761185f611fd7565b14156118b85760405162461bcd60e51b815260206004820152602260248201527f45434453413a20696e76616c6964207369676e6174757265202773272076616c604482015261756560f01b60648201526084016105de565b60048160048111156118cc576118cc611fd7565b14156106375760405162461bcd60e51b815260206004820152602260248201527f45434453413a20696e76616c6964207369676e6174757265202776272076616c604482015261756560f01b60648201526084016105de565b60606000611934836002611fed565b61193f906002611e9a565b67ffffffffffffffff8111156119575761195761200c565b6040519080825280601f01601f191660200182016040528015611981576020820181803683370190505b509050600360fc1b8160008151811061199c5761199c612022565b60200101906001600160f81b031916908160001a905350600f60fb1b816001815181106119cb576119cb612022565b60200101906001600160f81b031916908160001a90535060006119ef846002611fed565b6119fa906001611e9a565b90505b6001811115611a72576f181899199a1a9b1b9c1cb0b131b232b360811b85600f1660108110611a2e57611a2e612022565b1a60f81b828281518110611a4457611a44612022565b60200101906001600160f81b031916908160001a90535060049490941c93611a6b81612038565b90506119fd565b508315611ac15760405162461bcd60e51b815260206004820181905260248201527f537472696e67733a20686578206c656e67746820696e73756666696369656e7460448201526064016105de565b9392505050565b6001600160a01b038216611b1e5760405162461bcd60e51b815260206004820152601f60248201527f45524332303a206d696e7420746f20746865207a65726f20616464726573730060448201526064016105de565b611b2a6000838361142c565b8060356000828254611b3c9190611e9a565b90915550506001600160a01b03821660009081526033602052604081208054839290611b69908490611e9a565b90915550506040518181526001600160a01b038316906000907fddf252ad1be2c89b69c2b068fc378daa952ba7f163c4a11628f55a4df523b3ef9060200160405180910390a35050565b828054611bbf90611e4f565b90600052602060002090601f016020900481019282611be15760008555611c27565b82601f10611bfa57805160ff1916838001178555611c27565b82800160010185558215611c27579182015b82811115611c27578251825591602001919060010190611c0c565b50611c33929150611c37565b5090565b5b80821115611c335760008155600101611c38565b600060208284031215611c5e57600080fd5b81356001600160e01b031981168114611ac157600080fd5b60005b83811015611c91578181015183820152602001611c79565b83811115610c365750506000910152565b6020815260008251806020840152611cc1816040850160208701611c76565b601f01601f19169190910160400192915050565b80356001600160a01b038116811461120a57600080fd5b60008060408385031215611cff57600080fd5b611d0883611cd5565b946020939093013593505050565b600080600060608486031215611d2b57600080fd5b611d3484611cd5565b9250611d4260208501611cd5565b9150604084013590509250925092565b600060208284031215611d6457600080fd5b5035919050565b60008060408385031215611d7e57600080fd5b82359150611d8e60208401611cd5565b90509250929050565b600060208284031215611da957600080fd5b611ac182611cd5565b600080600080600080600060e0888a031215611dcd57600080fd5b611dd688611cd5565b9650611de460208901611cd5565b95506040880135945060608801359350608088013560ff81168114611e0857600080fd5b9699959850939692959460a0840135945060c09093013592915050565b60008060408385031215611e3857600080fd5b611e4183611cd5565b9150611d8e60208401611cd5565b600181811c90821680611e6357607f821691505b602082108114156113b057634e487b7160e01b600052602260045260246000fd5b634e487b7160e01b600052601160045260246000fd5b60008219821115611ead57611ead611e84565b500190565b600082821015611ec457611ec4611e84565b500390565b6020808252602e908201527f496e697469616c697a61626c653a20636f6e747261637420697320616c72656160408201526d191e481a5b9a5d1a585b1a5e995960921b606082015260800190565b6020808252602b908201527f496e697469616c697a61626c653a20636f6e7472616374206973206e6f74206960408201526a6e697469616c697a696e6760a81b606082015260800190565b7f416363657373436f6e74726f6c3a206163636f756e7420000000000000000000815260008351611f9a816017850160208801611c76565b7001034b99036b4b9b9b4b733903937b6329607d1b6017918401918201528351611fcb816028840160208801611c76565b01602801949350505050565b634e487b7160e01b600052602160045260246000fd5b600081600019048311821515161561200757612007611e84565b500290565b634e487b7160e01b600052604160045260246000fd5b634e487b7160e01b600052603260045260246000fd5b60008161204757612047611e84565b50600019019056fea49807205ce4d355092ef5a8a18f56e8913cf4a201fbe287825b095693c21775a26469706673582212208d5c9f27683852783bfaefeb910f22f0416456c57077b9820d3c520a7398a17b64736f6c63430008090033496e697469616c697a61626c653a20636f6e747261637420697320616c726561",
  "linkReferences": {},
  "deployedLinkReferences": {}
}