{
  "_format": "hh-sol-artifact-1",
  "contractName": "EVOUpgradeable",
  "sourceName": "contracts/ERC20/EVOUpgradeable.sol",
  "abi": [
    {
      "inputs": [],
      "stateMutability": "nonpayable",
      "type": "constructor"
    },
    {
      "anonymous": false,
      "inputs": [
        {
          "indexed": true,
          "internalType": "address",
          "name": "owner",
          "type": "address"
        },
        {
          "indexed": true,
          "internalType": "address",
          "name": "spender",
          "type": "address"
        },
        {
          "indexed": false,
          "internalType": "uint256",
          "name": "value",
          "type": "uint256"
        }
      ],
      "name": "Approval",
      "type": "event"
    },
    {
      "anonymous": false,
      "inputs": [
        {
          "indexed": false,
          "internalType": "uint8",
          "name": "version",
          "type": "uint8"
        }
      ],
      "name": "Initialized",
      "type": "event"
    },
    {
      "anonymous": false,
      "inputs": [
        {
          "indexed": false,
          "internalType": "address",
          "name": "account",
          "type": "address"
        }
      ],
      "name": "Paused",
      "type": "event"
    },
    {
      "anonymous": false,
      "inputs": [
        {
          "indexed": true,
          "internalType": "bytes32",
          "name": "role",
          "type": "bytes32"
        },
        {
          "indexed": true,
          "internalType": "bytes32",
          "name": "previousAdminRole",
          "type": "bytes32"
        },
        {
          "indexed": true,
          "internalType": "bytes32",
          "name": "newAdminRole",
          "type": "bytes32"
        }
      ],
      "name": "RoleAdminChanged",
      "type": "event"
    },
    {
      "anonymous": false,
      "inputs": [
        {
          "indexed": true,
          "internalType": "bytes32",
          "name": "role",
          "type": "bytes32"
        },
        {
          "indexed": true,
          "internalType": "address",
          "name": "account",
          "type": "address"
        },
        {
          "indexed": true,
          "internalType": "address",
          "name": "sender",
          "type": "address"
        }
      ],
      "name": "RoleGranted",
      "type": "event"
    },
    {
      "anonymous": false,
      "inputs": [
        {
          "indexed": true,
          "internalType": "bytes32",
          "name": "role",
          "type": "bytes32"
        },
        {
          "indexed": true,
          "internalType": "address",
          "name": "account",
          "type": "address"
        },
        {
          "indexed": true,
          "internalType": "address",
          "name": "sender",
          "type": "address"
        }
      ],
      "name": "RoleRevoked",
      "type": "event"
    },
    {
      "anonymous": false,
      "inputs": [
        {
          "indexed": true,
          "internalType": "address",
          "name": "from",
          "type": "address"
        },
        {
          "indexed": true,
          "internalType": "address",
          "name": "to",
          "type": "address"
        },
        {
          "indexed": false,
          "internalType": "uint256",
          "name": "value",
          "type": "uint256"
        }
      ],
      "name": "Transfer",
      "type": "event"
    },
    {
      "anonymous": false,
      "inputs": [
        {
          "indexed": false,
          "internalType": "address",
          "name": "account",
          "type": "address"
        }
      ],
      "name": "Unpaused",
      "type": "event"
    },
    {
      "inputs": [],
      "name": "ADMIN_ROLE",
      "outputs": [
        {
          "internalType": "bytes32",
          "name": "",
          "type": "bytes32"
        }
      ],
      "stateMutability": "view",
      "type": "function"
    },
    {
      "inputs": [],
      "name": "DEFAULT_ADMIN_ROLE",
      "outputs": [
        {
          "internalType": "bytes32",
          "name": "",
          "type": "bytes32"
        }
      ],
      "stateMutability": "view",
      "type": "function"
    },
    {
      "inputs": [],
      "name": "DOMAIN_SEPARATOR",
      "outputs": [
        {
          "internalType": "bytes32",
          "name": "",
          "type": "bytes32"
        }
      ],
      "stateMutability": "view",
      "type": "function"
    },
    {
      "inputs": [],
      "name": "MINTER_ROLE",
      "outputs": [
        {
          "internalType": "bytes32",
          "name": "",
          "type": "bytes32"
        }
      ],
      "stateMutability": "view",
      "type": "function"
    },
    {
      "inputs": [
        {
          "internalType": "address",
          "name": "owner",
          "type": "address"
        },
        {
          "internalType": "address",
          "name": "spender",
          "type": "address"
        }
      ],
      "name": "allowance",
      "outputs": [
        {
          "internalType": "uint256",
          "name": "",
          "type": "uint256"
        }
      ],
      "stateMutability": "view",
      "type": "function"
    },
    {
      "inputs": [
        {
          "internalType": "address",
          "name": "spender",
          "type": "address"
        },
        {
          "internalType": "uint256",
          "name": "amount",
          "type": "uint256"
        }
      ],
      "name": "approve",
      "outputs": [
        {
          "internalType": "bool",
          "name": "",
          "type": "bool"
        }
      ],
      "stateMutability": "nonpayable",
      "type": "function"
    },
    {
      "inputs": [
        {
          "internalType": "address",
          "name": "account",
          "type": "address"
        }
      ],
      "name": "balanceOf",
      "outputs": [
        {
          "internalType": "uint256",
          "name": "",
          "type": "uint256"
        }
      ],
      "stateMutability": "view",
      "type": "function"
    },
    {
      "inputs": [
        {
          "internalType": "uint256",
          "name": "amount",
          "type": "uint256"
        }
      ],
      "name": "burn",
      "outputs": [],
      "stateMutability": "nonpayable",
      "type": "function"
    },
    {
      "inputs": [
        {
          "internalType": "address",
          "name": "from",
          "type": "address"
        },
        {
          "internalType": "uint256",
          "name": "amount",
          "type": "uint256"
        }
      ],
      "name": "burn",
      "outputs": [],
      "stateMutability": "nonpayable",
      "type": "function"
    },
    {
      "inputs": [
        {
          "internalType": "address",
          "name": "account",
          "type": "address"
        },
        {
          "internalType": "uint256",
          "name": "amount",
          "type": "uint256"
        }
      ],
      "name": "burnFrom",
      "outputs": [],
      "stateMutability": "nonpayable",
      "type": "function"
    },
    {
      "inputs": [],
      "name": "cap",
      "outputs": [
        {
          "internalType": "uint256",
          "name": "",
          "type": "uint256"
        }
      ],
      "stateMutability": "view",
      "type": "function"
    },
    {
      "inputs": [],
      "name": "decimals",
      "outputs": [
        {
          "internalType": "uint8",
          "name": "",
          "type": "uint8"
        }
      ],
      "stateMutability": "view",
      "type": "function"
    },
    {
      "inputs": [
        {
          "internalType": "address",
          "name": "spender",
          "type": "address"
        },
        {
          "internalType": "uint256",
          "name": "subtractedValue",
          "type": "uint256"
        }
      ],
      "name": "decreaseAllowance",
      "outputs": [
        {
          "internalType": "bool",
          "name": "",
          "type": "bool"
        }
      ],
      "stateMutability": "nonpayable",
      "type": "function"
    },
    {
      "inputs": [
        {
          "internalType": "bytes32",
          "name": "role",
          "type": "bytes32"
        }
      ],
      "name": "getRoleAdmin",
      "outputs": [
        {
          "internalType": "bytes32",
          "name": "",
          "type": "bytes32"
        }
      ],
      "stateMutability": "view",
      "type": "function"
    },
    {
      "inputs": [
        {
          "internalType": "bytes32",
          "name": "role",
          "type": "bytes32"
        },
        {
          "internalType": "address",
          "name": "account",
          "type": "address"
        }
      ],
      "name": "grantRole",
      "outputs": [],
      "stateMutability": "nonpayable",
      "type": "function"
    },
    {
      "inputs": [
        {
          "internalType": "bytes32",
          "name": "role",
          "type": "bytes32"
        },
        {
          "internalType": "address",
          "name": "account",
          "type": "address"
        }
      ],
      "name": "hasRole",
      "outputs": [
        {
          "internalType": "bool",
          "name": "",
          "type": "bool"
        }
      ],
      "stateMutability": "view",
      "type": "function"
    },
    {
      "inputs": [
        {
          "internalType": "address",
          "name": "spender",
          "type": "address"
        },
        {
          "internalType": "uint256",
          "name": "addedValue",
          "type": "uint256"
        }
      ],
      "name": "increaseAllowance",
      "outputs": [
        {
          "internalType": "bool",
          "name": "",
          "type": "bool"
        }
      ],
      "stateMutability": "nonpayable",
      "type": "function"
    },
    {
      "inputs": [],
      "name": "initialize",
      "outputs": [],
      "stateMutability": "nonpayable",
      "type": "function"
    },
    {
      "inputs": [
        {
          "internalType": "address",
          "name": "to",
          "type": "address"
        },
        {
          "internalType": "uint256",
          "name": "amount",
          "type": "uint256"
        }
      ],
      "name": "mint",
      "outputs": [],
      "stateMutability": "nonpayable",
      "type": "function"
    },
    {
      "inputs": [],
      "name": "name",
      "outputs": [
        {
          "internalType": "string",
          "name": "",
          "type": "string"
        }
      ],
      "stateMutability": "view",
      "type": "function"
    },
    {
      "inputs": [
        {
          "internalType": "address",
          "name": "owner",
          "type": "address"
        }
      ],
      "name": "nonces",
      "outputs": [
        {
          "internalType": "uint256",
          "name": "",
          "type": "uint256"
        }
      ],
      "stateMutability": "view",
      "type": "function"
    },
    {
      "inputs": [],
      "name": "pause",
      "outputs": [],
      "stateMutability": "nonpayable",
      "type": "function"
    },
    {
      "inputs": [],
      "name": "paused",
      "outputs": [
        {
          "internalType": "bool",
          "name": "",
          "type": "bool"
        }
      ],
      "stateMutability": "view",
      "type": "function"
    },
    {
      "inputs": [
        {
          "internalType": "address",
          "name": "owner",
          "type": "address"
        },
        {
          "internalType": "address",
          "name": "spender",
          "type": "address"
        },
        {
          "internalType": "uint256",
          "name": "value",
          "type": "uint256"
        },
        {
          "internalType": "uint256",
          "name": "deadline",
          "type": "uint256"
        },
        {
          "internalType": "uint8",
          "name": "v",
          "type": "uint8"
        },
        {
          "internalType": "bytes32",
          "name": "r",
          "type": "bytes32"
        },
        {
          "internalType": "bytes32",
          "name": "s",
          "type": "bytes32"
        }
      ],
      "name": "permit",
      "outputs": [],
      "stateMutability": "nonpayable",
      "type": "function"
    },
    {
      "inputs": [
        {
          "internalType": "bytes32",
          "name": "role",
          "type": "bytes32"
        },
        {
          "internalType": "address",
          "name": "account",
          "type": "address"
        }
      ],
      "name": "renounceRole",
      "outputs": [],
      "stateMutability": "nonpayable",
      "type": "function"
    },
    {
      "inputs": [
        {
          "internalType": "bytes32",
          "name": "role",
          "type": "bytes32"
        },
        {
          "internalType": "address",
          "name": "account",
          "type": "address"
        }
      ],
      "name": "revokeRole",
      "outputs": [],
      "stateMutability": "nonpayable",
      "type": "function"
    },
    {
      "inputs": [
        {
          "internalType": "bytes4",
          "name": "interfaceId",
          "type": "bytes4"
        }
      ],
      "name": "supportsInterface",
      "outputs": [
        {
          "internalType": "bool",
          "name": "",
          "type": "bool"
        }
      ],
      "stateMutability": "view",
      "type": "function"
    },
    {
      "inputs": [],
      "name": "symbol",
      "outputs": [
        {
          "internalType": "string",
          "name": "",
          "type": "string"
        }
      ],
      "stateMutability": "view",
      "type": "function"
    },
    {
      "inputs": [],
      "name": "totalSupply",
      "outputs": [
        {
          "internalType": "uint256",
          "name": "",
          "type": "uint256"
        }
      ],
      "stateMutability": "view",
      "type": "function"
    },
    {
      "inputs": [
        {
          "internalType": "address",
          "name": "to",
          "type": "address"
        },
        {
          "internalType": "uint256",
          "name": "amount",
          "type": "uint256"
        }
      ],
      "name": "transfer",
      "outputs": [
        {
          "internalType": "bool",
          "name": "",
          "type": "bool"
        }
      ],
      "stateMutability": "nonpayable",
      "type": "function"
    },
    {
      "inputs": [
        {
          "internalType": "address",
          "name": "from",
          "type": "address"
        },
        {
          "internalType": "address",
          "name": "to",
          "type": "address"
        },
        {
          "internalType": "uint256",
          "name": "amount",
          "type": "uint256"
        }
      ],
      "name": "transferFrom",
      "outputs": [
        {
          "internalType": "bool",
          "name": "",
          "type": "bool"
        }
      ],
      "stateMutability": "nonpayable",
      "type": "function"
    },
    {
      "inputs": [],
      "name": "unpause",
      "outputs": [],
      "stateMutability": "nonpayable",
      "type": "function"
    }
  ],
  "bytecode": "0x60806040523480156200001157600080fd5b506200001c62000022565b62000152565b6200002e60ff62000031565b50565b60008054610100900460ff1615620000ca578160ff1660011480156200006a575062000068306200014360201b62000a991760201c565b155b620000c25760405162461bcd60e51b815260206004820152602e60248201526000805160206200223183398151915260448201526d191e481a5b9a5d1a585b1a5e995960921b60648201526084015b60405180910390fd5b506000919050565b60005460ff808416911610620001295760405162461bcd60e51b815260206004820152602e60248201526000805160206200223183398151915260448201526d191e481a5b9a5d1a585b1a5e995960921b6064820152608401620000b9565b506000805460ff191660ff92909216919091179055600190565b6001600160a01b03163b151590565b6120cf80620001626000396000f3fe608060405234801561001057600080fd5b50600436106101f05760003560e01c806370a082311161010f5780639dc29fac116100a2578063d505accf11610071578063d505accf146103f1578063d539139314610404578063d547741f14610419578063dd62ed3e1461042c57600080fd5b80639dc29fac146103b0578063a217fddf146103c3578063a457c2d7146103cb578063a9059cbb146103de57600080fd5b80638129fc1c116100de5780638129fc1c146103855780638456cb591461038d57806391d148541461039557806395d89b41146103a857600080fd5b806370a082311461032157806375b238fc1461034a57806379cc67901461035f5780637ecebe001461037257600080fd5b8063355274ea116101875780633f4ba83a116101565780633f4ba83a146102e857806340c10f19146102f057806342966c68146103035780635c975abb1461031657600080fd5b8063355274ea146102b25780633644e515146102ba57806336568abe146102c257806339509351146102d557600080fd5b806323b872dd116101c357806323b872dd14610257578063248a9ca31461026a5780632f2ff15d1461028e578063313ce567146102a357600080fd5b806301ffc9a7146101f557806306fdde031461021d578063095ea7b31461023257806318160ddd14610245575b600080fd5b610208610203366004611c56565b61043f565b60405190151581526020015b60405180910390f35b610225610476565b6040516102149190611cac565b610208610240366004611cf6565b610508565b6035545b604051908152602001610214565b610208610265366004611d20565b610520565b610249610278366004611d5c565b600090815261012e602052604090206001015490565b6102a161029c366004611d75565b610544565b005b60405160128152602001610214565b609754610249565b61024961056f565b6102a16102d0366004611d75565b61057e565b6102086102e3366004611cf6565b610601565b6102a1610623565b6102a16102fe366004611cf6565b610646565b6102a1610311366004611d5c565b610668565b60ca5460ff16610208565b61024961032f366004611da1565b6001600160a01b031660009081526033602052604090205490565b61024960008051602061207a83398151915281565b6102a161036d366004611cf6565b610672565b610249610380366004611da1565b610687565b6102a16106a6565b6102a16107de565b6102086103a3366004611d75565b6107fe565b61022561082a565b6102a16103be366004611cf6565b610839565b610249600081565b6102086103d9366004611cf6565b61085b565b6102086103ec366004611cf6565b6108d6565b6102a16103ff366004611dbc565b6108e4565b61024960008051602061205a83398151915281565b6102a1610427366004611d75565b610a48565b61024961043a366004611e2f565b610a6e565b60006001600160e01b03198216637965db0b60e01b148061047057506301ffc9a760e01b6001600160e01b03198316145b92915050565b60606036805461048590611e59565b80601f01602080910402602001604051908101604052809291908181526020018280546104b190611e59565b80156104fe5780601f106104d3576101008083540402835291602001916104fe565b820191906000526020600020905b8154815290600101906020018083116104e157829003601f168201915b5050505050905090565b600033610516818585610aa8565b5060019392505050565b60003361052e858285610bcc565b610539858585610c46565b506001949350505050565b600082815261012e602052604090206001015461056081610e1f565b61056a8383610e29565b505050565b6000610579610eb0565b905090565b6001600160a01b03811633146105f35760405162461bcd60e51b815260206004820152602f60248201527f416363657373436f6e74726f6c3a2063616e206f6e6c792072656e6f756e636560448201526e103937b632b9903337b91039b2b63360891b60648201526084015b60405180910390fd5b6105fd8282610f2d565b5050565b6000336105168185856106148383610a6e565b61061e9190611ea4565b610aa8565b60008051602061207a83398151915261063b81610e1f565b610643610f95565b50565b60008051602061205a83398151915261065e81610e1f565b61056a8383611028565b6106433382611032565b61067d823383610bcc565b6105fd8282611032565b6001600160a01b03811660009081526101946020526040812054610470565b60006106b2600161118c565b905080156106ca576000805461ff0019166101001790555b61070a6040518060400160405280600381526020016245564f60e81b8152506040518060400160405280600381526020016245564f60e81b815250611219565b61071261124a565b6107276b01f04ef12cb04cf158000000611273565b61072f6112a3565b61073761124a565b61075b6040518060400160405280600381526020016245564f60e81b8152506112d2565b610766600033610e29565b61077e60008051602061207a83398151915233610e29565b61079660008051602061205a83398151915233610e29565b8015610643576000805461ff0019169055604051600181527f7f26b83ff96e1f2b6a682f133852f6798a09c465da95921460cefb38474024989060200160405180910390a150565b60008051602061207a8339815191526107f681610e1f565b61064361131c565b600091825261012e602090815260408084206001600160a01b0393909316845291905290205460ff1690565b60606037805461048590611e59565b60008051602061205a83398151915261085181610e1f565b61056a8383611032565b600033816108698286610a6e565b9050838110156108c95760405162461bcd60e51b815260206004820152602560248201527f45524332303a2064656372656173656420616c6c6f77616e63652062656c6f77604482015264207a65726f60d81b60648201526084016105ea565b6105398286868403610aa8565b600033610516818585610c46565b834211156109345760405162461bcd60e51b815260206004820152601d60248201527f45524332305065726d69743a206578706972656420646561646c696e6500000060448201526064016105ea565b60007f6e71edae12b1b97f4d1f60370fef10105fa2faae0126114a169c64845d6126c98888886109638c611397565b6040805160208101969096526001600160a01b0394851690860152929091166060840152608083015260a082015260c0810186905260e00160405160208183030381529060405280519060200120905060006109be826113c0565b905060006109ce8287878761140e565b9050896001600160a01b0316816001600160a01b031614610a315760405162461bcd60e51b815260206004820152601e60248201527f45524332305065726d69743a20696e76616c6964207369676e6174757265000060448201526064016105ea565b610a3c8a8a8a610aa8565b50505050505050505050565b600082815261012e6020526040902060010154610a6481610e1f565b61056a8383610f2d565b6001600160a01b03918216600090815260346020908152604080832093909416825291909152205490565b6001600160a01b03163b151590565b6001600160a01b038316610b0a5760405162461bcd60e51b8152602060048201526024808201527f45524332303a20617070726f76652066726f6d20746865207a65726f206164646044820152637265737360e01b60648201526084016105ea565b6001600160a01b038216610b6b5760405162461bcd60e51b815260206004820152602260248201527f45524332303a20617070726f766520746f20746865207a65726f206164647265604482015261737360f01b60648201526084016105ea565b6001600160a01b0383811660008181526034602090815260408083209487168084529482529182902085905590518481527f8c5be1e5ebec7d5bd14f71427d1e84f3dd0314c0f7b2291e5b200ac8c7c3b925910160405180910390a3505050565b6000610bd88484610a6e565b90506000198114610c405781811015610c335760405162461bcd60e51b815260206004820152601d60248201527f45524332303a20696e73756666696369656e7420616c6c6f77616e636500000060448201526064016105ea565b610c408484848403610aa8565b50505050565b6001600160a01b038316610caa5760405162461bcd60e51b815260206004820152602560248201527f45524332303a207472616e736665722066726f6d20746865207a65726f206164604482015264647265737360d81b60648201526084016105ea565b6001600160a01b038216610d0c5760405162461bcd60e51b815260206004820152602360248201527f45524332303a207472616e7366657220746f20746865207a65726f206164647260448201526265737360e81b60648201526084016105ea565b610d17838383611436565b6001600160a01b03831660009081526033602052604090205481811015610d8f5760405162461bcd60e51b815260206004820152602660248201527f45524332303a207472616e7366657220616d6f756e7420657863656564732062604482015265616c616e636560d01b60648201526084016105ea565b6001600160a01b03808516600090815260336020526040808220858503905591851681529081208054849290610dc6908490611ea4565b92505081905550826001600160a01b0316846001600160a01b03167fddf252ad1be2c89b69c2b068fc378daa952ba7f163c4a11628f55a4df523b3ef84604051610e1291815260200190565b60405180910390a3610c40565b610643813361147c565b610e3382826107fe565b6105fd57600082815261012e602090815260408083206001600160a01b03851684529091529020805460ff19166001179055610e6c3390565b6001600160a01b0316816001600160a01b0316837f2f8788117e7eff1d82e926ec794901d17c78024a50270940304540a733656f0d60405160405180910390a45050565b60006105797f8b73c3c69bb8fe3d512ecc4cf759cc79239f7b179b0ffacaa9a75d522b39400f610ee06101605490565b610161546040805160208101859052908101839052606081018290524660808201523060a082015260009060c0016040516020818303038152906040528051906020012090509392505050565b610f3782826107fe565b156105fd57600082815261012e602090815260408083206001600160a01b0385168085529252808320805460ff1916905551339285917ff6391f5c32d9c69d2a47ea670b442974b53935d1edc7fd64eb21e047a839171b9190a45050565b60ca5460ff16610fde5760405162461bcd60e51b815260206004820152601460248201527314185d5cd8589b194e881b9bdd081c185d5cd95960621b60448201526064016105ea565b60ca805460ff191690557f5db9ee0a495bf2e6ff9c91a7834c1ba4fdd244a5e8aa4e537bd38aeae4b073aa335b6040516001600160a01b03909116815260200160405180910390a1565b6105fd82826114e0565b6001600160a01b0382166110925760405162461bcd60e51b815260206004820152602160248201527f45524332303a206275726e2066726f6d20746865207a65726f206164647265736044820152607360f81b60648201526084016105ea565b61109e82600083611436565b6001600160a01b038216600090815260336020526040902054818110156111125760405162461bcd60e51b815260206004820152602260248201527f45524332303a206275726e20616d6f756e7420657863656564732062616c616e604482015261636560f01b60648201526084016105ea565b6001600160a01b0383166000908152603360205260408120838303905560358054849290611141908490611ebc565b90915550506040518281526000906001600160a01b038516907fddf252ad1be2c89b69c2b068fc378daa952ba7f163c4a11628f55a4df523b3ef9060200160405180910390a3505050565b60008054610100900460ff16156111d3578160ff1660011480156111af5750303b155b6111cb5760405162461bcd60e51b81526004016105ea90611ed3565b506000919050565b60005460ff8084169116106111fa5760405162461bcd60e51b81526004016105ea90611ed3565b506000805460ff191660ff92909216919091179055600190565b919050565b600054610100900460ff166112405760405162461bcd60e51b81526004016105ea90611f21565b6105fd828261154f565b600054610100900460ff166112715760405162461bcd60e51b81526004016105ea90611f21565b565b600054610100900460ff1661129a5760405162461bcd60e51b81526004016105ea90611f21565b6106438161159d565b600054610100900460ff166112ca5760405162461bcd60e51b81526004016105ea90611f21565b611271611611565b600054610100900460ff166112f95760405162461bcd60e51b81526004016105ea90611f21565b61064381604051806040016040528060018152602001603160f81b815250611644565b60ca5460ff16156113625760405162461bcd60e51b815260206004820152601060248201526f14185d5cd8589b194e881c185d5cd95960821b60448201526064016105ea565b60ca805460ff191660011790557f62e78cea01bee320cd4e420270b5ea74000d11b0c9f74754ebdbfc544b05a25861100b3390565b6001600160a01b0381166000908152610194602052604090208054600181018255905b50919050565b60006104706113cd610eb0565b8360405161190160f01b6020820152602281018390526042810182905260009060620160405160208183030381529060405280519060200120905092915050565b600080600061141f87878787611687565b9150915061142c81611774565b5095945050505050565b60ca5460ff161561056a5760405162461bcd60e51b815260206004820152601060248201526f14185d5cd8589b194e881c185d5cd95960821b60448201526064016105ea565b61148682826107fe565b6105fd5761149e816001600160a01b0316601461192f565b6114a983602061192f565b6040516020016114ba929190611f6c565b60408051601f198184030181529082905262461bcd60e51b82526105ea91600401611cac565b609754816114ed60355490565b6114f79190611ea4565b11156115455760405162461bcd60e51b815260206004820152601960248201527f45524332304361707065643a206361702065786365656465640000000000000060448201526064016105ea565b6105fd8282611ad2565b600054610100900460ff166115765760405162461bcd60e51b81526004016105ea90611f21565b8151611589906036906020850190611bbd565b50805161056a906037906020840190611bbd565b600054610100900460ff166115c45760405162461bcd60e51b81526004016105ea90611f21565b6000811161160c5760405162461bcd60e51b8152602060048201526015602482015274045524332304361707065643a20636170206973203605c1b60448201526064016105ea565b609755565b600054610100900460ff166116385760405162461bcd60e51b81526004016105ea90611f21565b60ca805460ff19169055565b600054610100900460ff1661166b5760405162461bcd60e51b81526004016105ea90611f21565b8151602092830120815191909201206101609190915561016155565b6000807f7fffffffffffffffffffffffffffffff5d576e7357a4501ddfe92f46681b20a08311156116be575060009050600361176b565b8460ff16601b141580156116d657508460ff16601c14155b156116e7575060009050600461176b565b6040805160008082526020820180845289905260ff881692820192909252606081018690526080810185905260019060a0016020604051602081039080840390855afa15801561173b573d6000803e3d6000fd5b5050604051601f1901519150506001600160a01b0381166117645760006001925092505061176b565b9150600090505b94509492505050565b600081600481111561178857611788611fe1565b14156117915750565b60018160048111156117a5576117a5611fe1565b14156117f35760405162461bcd60e51b815260206004820152601860248201527f45434453413a20696e76616c6964207369676e6174757265000000000000000060448201526064016105ea565b600281600481111561180757611807611fe1565b14156118555760405162461bcd60e51b815260206004820152601f60248201527f45434453413a20696e76616c6964207369676e6174757265206c656e6774680060448201526064016105ea565b600381600481111561186957611869611fe1565b14156118c25760405162461bcd60e51b815260206004820152602260248201527f45434453413a20696e76616c6964207369676e6174757265202773272076616c604482015261756560f01b60648201526084016105ea565b60048160048111156118d6576118d6611fe1565b14156106435760405162461bcd60e51b815260206004820152602260248201527f45434453413a20696e76616c6964207369676e6174757265202776272076616c604482015261756560f01b60648201526084016105ea565b6060600061193e836002611ff7565b611949906002611ea4565b67ffffffffffffffff81111561196157611961612016565b6040519080825280601f01601f19166020018201604052801561198b576020820181803683370190505b509050600360fc1b816000815181106119a6576119a661202c565b60200101906001600160f81b031916908160001a905350600f60fb1b816001815181106119d5576119d561202c565b60200101906001600160f81b031916908160001a90535060006119f9846002611ff7565b611a04906001611ea4565b90505b6001811115611a7c576f181899199a1a9b1b9c1cb0b131b232b360811b85600f1660108110611a3857611a3861202c565b1a60f81b828281518110611a4e57611a4e61202c565b60200101906001600160f81b031916908160001a90535060049490941c93611a7581612042565b9050611a07565b508315611acb5760405162461bcd60e51b815260206004820181905260248201527f537472696e67733a20686578206c656e67746820696e73756666696369656e7460448201526064016105ea565b9392505050565b6001600160a01b038216611b285760405162461bcd60e51b815260206004820152601f60248201527f45524332303a206d696e7420746f20746865207a65726f20616464726573730060448201526064016105ea565b611b3460008383611436565b8060356000828254611b469190611ea4565b90915550506001600160a01b03821660009081526033602052604081208054839290611b73908490611ea4565b90915550506040518181526001600160a01b038316906000907fddf252ad1be2c89b69c2b068fc378daa952ba7f163c4a11628f55a4df523b3ef9060200160405180910390a35050565b828054611bc990611e59565b90600052602060002090601f016020900481019282611beb5760008555611c31565b82601f10611c0457805160ff1916838001178555611c31565b82800160010185558215611c31579182015b82811115611c31578251825591602001919060010190611c16565b50611c3d929150611c41565b5090565b5b80821115611c3d5760008155600101611c42565b600060208284031215611c6857600080fd5b81356001600160e01b031981168114611acb57600080fd5b60005b83811015611c9b578181015183820152602001611c83565b83811115610c405750506000910152565b6020815260008251806020840152611ccb816040850160208701611c80565b601f01601f19169190910160400192915050565b80356001600160a01b038116811461121457600080fd5b60008060408385031215611d0957600080fd5b611d1283611cdf565b946020939093013593505050565b600080600060608486031215611d3557600080fd5b611d3e84611cdf565b9250611d4c60208501611cdf565b9150604084013590509250925092565b600060208284031215611d6e57600080fd5b5035919050565b60008060408385031215611d8857600080fd5b82359150611d9860208401611cdf565b90509250929050565b600060208284031215611db357600080fd5b611acb82611cdf565b600080600080600080600060e0888a031215611dd757600080fd5b611de088611cdf565b9650611dee60208901611cdf565b95506040880135945060608801359350608088013560ff81168114611e1257600080fd5b9699959850939692959460a0840135945060c09093013592915050565b60008060408385031215611e4257600080fd5b611e4b83611cdf565b9150611d9860208401611cdf565b600181811c90821680611e6d57607f821691505b602082108114156113ba57634e487b7160e01b600052602260045260246000fd5b634e487b7160e01b600052601160045260246000fd5b60008219821115611eb757611eb7611e8e565b500190565b600082821015611ece57611ece611e8e565b500390565b6020808252602e908201527f496e697469616c697a61626c653a20636f6e747261637420697320616c72656160408201526d191e481a5b9a5d1a585b1a5e995960921b606082015260800190565b6020808252602b908201527f496e697469616c697a61626c653a20636f6e7472616374206973206e6f74206960408201526a6e697469616c697a696e6760a81b606082015260800190565b7f416363657373436f6e74726f6c3a206163636f756e7420000000000000000000815260008351611fa4816017850160208801611c80565b7001034b99036b4b9b9b4b733903937b6329607d1b6017918401918201528351611fd5816028840160208801611c80565b01602801949350505050565b634e487b7160e01b600052602160045260246000fd5b600081600019048311821515161561201157612011611e8e565b500290565b634e487b7160e01b600052604160045260246000fd5b634e487b7160e01b600052603260045260246000fd5b60008161205157612051611e8e565b50600019019056fe9f2df0fed2c77648de5860a4cc508cd0818c85b8b8a1ab4ceeef8d981c8956a6a49807205ce4d355092ef5a8a18f56e8913cf4a201fbe287825b095693c21775a2646970667358221220ea52b48b9a82887a6db875b61a620989be76317bbb991a830ecaa5c2dcac949064736f6c63430008090033496e697469616c697a61626c653a20636f6e747261637420697320616c726561",
  "linkReferences": {},
  "deployedLinkReferences": {}
}