{
  "_format": "hh-sol-artifact-1",
  "contractName": "vEvoToken",
  "sourceName": "contracts/deprecated/vEvoToken.sol",
  "abi": [
    {
      "inputs": [],
      "stateMutability": "nonpayable",
      "type": "constructor"
    },
    {
      "anonymous": false,
      "inputs": [
        {
          "indexed": true,
          "internalType": "address",
          "name": "addr",
          "type": "address"
        },
        {
          "indexed": false,
          "internalType": "bool",
          "name": "value",
          "type": "bool"
        }
      ],
      "name": "AllowedTransfersListUpdated",
      "type": "event"
    },
    {
      "anonymous": false,
      "inputs": [
        {
          "indexed": true,
          "internalType": "address",
          "name": "owner",
          "type": "address"
        },
        {
          "indexed": true,
          "internalType": "address",
          "name": "spender",
          "type": "address"
        },
        {
          "indexed": false,
          "internalType": "uint256",
          "name": "value",
          "type": "uint256"
        }
      ],
      "name": "Approval",
      "type": "event"
    },
    {
      "anonymous": false,
      "inputs": [],
      "name": "DisabledMinting",
      "type": "event"
    },
    {
      "anonymous": false,
      "inputs": [],
      "name": "EnabledMinting",
      "type": "event"
    },
    {
      "anonymous": false,
      "inputs": [
        {
          "indexed": true,
          "internalType": "address",
          "name": "previousOwner",
          "type": "address"
        },
        {
          "indexed": true,
          "internalType": "address",
          "name": "newOwner",
          "type": "address"
        }
      ],
      "name": "OwnershipTransferred",
      "type": "event"
    },
    {
      "anonymous": false,
      "inputs": [
        {
          "indexed": true,
          "internalType": "address",
          "name": "receiver",
          "type": "address"
        },
        {
          "indexed": false,
          "internalType": "uint256",
          "name": "amount",
          "type": "uint256"
        }
      ],
      "name": "TokenMinted",
      "type": "event"
    },
    {
      "anonymous": false,
      "inputs": [
        {
          "indexed": true,
          "internalType": "address",
          "name": "from",
          "type": "address"
        },
        {
          "indexed": true,
          "internalType": "address",
          "name": "to",
          "type": "address"
        },
        {
          "indexed": false,
          "internalType": "uint256",
          "name": "value",
          "type": "uint256"
        }
      ],
      "name": "Transfer",
      "type": "event"
    },
    {
      "inputs": [
        {
          "internalType": "address",
          "name": "_toAdd",
          "type": "address"
        }
      ],
      "name": "addAuthorized",
      "outputs": [],
      "stateMutability": "nonpayable",
      "type": "function"
    },
    {
      "inputs": [
        {
          "internalType": "address",
          "name": "addr",
          "type": "address"
        }
      ],
      "name": "addToAllowedTransfers",
      "outputs": [],
      "stateMutability": "nonpayable",
      "type": "function"
    },
    {
      "inputs": [
        {
          "internalType": "address",
          "name": "owner",
          "type": "address"
        },
        {
          "internalType": "address",
          "name": "spender",
          "type": "address"
        }
      ],
      "name": "allowance",
      "outputs": [
        {
          "internalType": "uint256",
          "name": "",
          "type": "uint256"
        }
      ],
      "stateMutability": "view",
      "type": "function"
    },
    {
      "inputs": [
        {
          "internalType": "address",
          "name": "spender",
          "type": "address"
        },
        {
          "internalType": "uint256",
          "name": "amount",
          "type": "uint256"
        }
      ],
      "name": "approve",
      "outputs": [
        {
          "internalType": "bool",
          "name": "",
          "type": "bool"
        }
      ],
      "stateMutability": "nonpayable",
      "type": "function"
    },
    {
      "inputs": [
        {
          "internalType": "address",
          "name": "",
          "type": "address"
        }
      ],
      "name": "authorized",
      "outputs": [
        {
          "internalType": "bool",
          "name": "",
          "type": "bool"
        }
      ],
      "stateMutability": "view",
      "type": "function"
    },
    {
      "inputs": [
        {
          "internalType": "address",
          "name": "account",
          "type": "address"
        }
      ],
      "name": "balanceOf",
      "outputs": [
        {
          "internalType": "uint256",
          "name": "",
          "type": "uint256"
        }
      ],
      "stateMutability": "view",
      "type": "function"
    },
    {
      "inputs": [],
      "name": "decimals",
      "outputs": [
        {
          "internalType": "uint8",
          "name": "",
          "type": "uint8"
        }
      ],
      "stateMutability": "view",
      "type": "function"
    },
    {
      "inputs": [
        {
          "internalType": "address",
          "name": "spender",
          "type": "address"
        },
        {
          "internalType": "uint256",
          "name": "subtractedValue",
          "type": "uint256"
        }
      ],
      "name": "decreaseAllowance",
      "outputs": [
        {
          "internalType": "bool",
          "name": "",
          "type": "bool"
        }
      ],
      "stateMutability": "nonpayable",
      "type": "function"
    },
    {
      "inputs": [],
      "name": "disableMinting",
      "outputs": [],
      "stateMutability": "nonpayable",
      "type": "function"
    },
    {
      "inputs": [],
      "name": "enableMinting",
      "outputs": [],
      "stateMutability": "nonpayable",
      "type": "function"
    },
    {
      "inputs": [
        {
          "internalType": "address",
          "name": "spender",
          "type": "address"
        },
        {
          "internalType": "uint256",
          "name": "addedValue",
          "type": "uint256"
        }
      ],
      "name": "increaseAllowance",
      "outputs": [
        {
          "internalType": "bool",
          "name": "",
          "type": "bool"
        }
      ],
      "stateMutability": "nonpayable",
      "type": "function"
    },
    {
      "inputs": [
        {
          "internalType": "address",
          "name": "addrToTransferTo",
          "type": "address"
        }
      ],
      "name": "isAllowedToTransferTo",
      "outputs": [
        {
          "internalType": "bool",
          "name": "",
          "type": "bool"
        }
      ],
      "stateMutability": "view",
      "type": "function"
    },
    {
      "inputs": [
        {
          "internalType": "address",
          "name": "addr",
          "type": "address"
        },
        {
          "internalType": "uint256",
          "name": "amount",
          "type": "uint256"
        }
      ],
      "name": "mintTokenFor",
      "outputs": [],
      "stateMutability": "nonpayable",
      "type": "function"
    },
    {
      "inputs": [],
      "name": "mintingEnabled",
      "outputs": [
        {
          "internalType": "bool",
          "name": "",
          "type": "bool"
        }
      ],
      "stateMutability": "view",
      "type": "function"
    },
    {
      "inputs": [],
      "name": "name",
      "outputs": [
        {
          "internalType": "string",
          "name": "",
          "type": "string"
        }
      ],
      "stateMutability": "view",
      "type": "function"
    },
    {
      "inputs": [],
      "name": "owner",
      "outputs": [
        {
          "internalType": "address",
          "name": "",
          "type": "address"
        }
      ],
      "stateMutability": "view",
      "type": "function"
    },
    {
      "inputs": [
        {
          "internalType": "address",
          "name": "_toRemove",
          "type": "address"
        }
      ],
      "name": "removeAuthorized",
      "outputs": [],
      "stateMutability": "nonpayable",
      "type": "function"
    },
    {
      "inputs": [
        {
          "internalType": "address",
          "name": "addr",
          "type": "address"
        }
      ],
      "name": "removeFromAllowedTransfers",
      "outputs": [],
      "stateMutability": "nonpayable",
      "type": "function"
    },
    {
      "inputs": [],
      "name": "renounceOwnership",
      "outputs": [],
      "stateMutability": "nonpayable",
      "type": "function"
    },
    {
      "inputs": [],
      "name": "symbol",
      "outputs": [
        {
          "internalType": "string",
          "name": "",
          "type": "string"
        }
      ],
      "stateMutability": "view",
      "type": "function"
    },
    {
      "inputs": [],
      "name": "totalSupply",
      "outputs": [
        {
          "internalType": "uint256",
          "name": "",
          "type": "uint256"
        }
      ],
      "stateMutability": "view",
      "type": "function"
    },
    {
      "inputs": [
        {
          "internalType": "address",
          "name": "to",
          "type": "address"
        },
        {
          "internalType": "uint256",
          "name": "amount",
          "type": "uint256"
        }
      ],
      "name": "transfer",
      "outputs": [
        {
          "internalType": "bool",
          "name": "",
          "type": "bool"
        }
      ],
      "stateMutability": "nonpayable",
      "type": "function"
    },
    {
      "inputs": [
        {
          "internalType": "address",
          "name": "from",
          "type": "address"
        },
        {
          "internalType": "address",
          "name": "to",
          "type": "address"
        },
        {
          "internalType": "uint256",
          "name": "amount",
          "type": "uint256"
        }
      ],
      "name": "transferFrom",
      "outputs": [
        {
          "internalType": "bool",
          "name": "",
          "type": "bool"
        }
      ],
      "stateMutability": "nonpayable",
      "type": "function"
    },
    {
      "inputs": [
        {
          "internalType": "address",
          "name": "newOwner",
          "type": "address"
        }
      ],
      "name": "transferOwnership",
      "outputs": [],
      "stateMutability": "nonpayable",
      "type": "function"
    }
  ],
  "bytecode": "0x60806040523480156200001157600080fd5b506040805180820182526004808252637645564f60e01b60208084018281528551808701909652928552840152815191929162000051916003916200011d565b508051620000679060049060208401906200011d565b505050620000846200007e620000c760201b60201c565b620000cb565b600160078190556009805460ff191690911790556040517fe85ce7fde36808f4259c16359ff6f7001ef8adf7bc3839e1a24c9c0fbb3179d390600090a162000200565b3390565b600580546001600160a01b038381166001600160a01b0319831681179093556040519116919082907f8be0079c531659141344cd1fd0a4f28419497f9722a3daafe3b4186f6b6457e090600090a35050565b8280546200012b90620001c3565b90600052602060002090601f0160209004810192826200014f57600085556200019a565b82601f106200016a57805160ff19168380011785556200019a565b828001600101855582156200019a579182015b828111156200019a5782518255916020019190600101906200017d565b50620001a8929150620001ac565b5090565b5b80821115620001a85760008155600101620001ad565b600181811c90821680620001d857607f821691505b60208210811415620001fa57634e487b7160e01b600052602260045260246000fd5b50919050565b61127e80620002106000396000f3fe608060405234801561001057600080fd5b50600436106101585760003560e01c80638da5cb5b116100c3578063b91816111161007c578063b9181611146102c2578063cf1c316a146102e5578063d8f4e540146102f8578063dd62ed3e14610324578063e797ec1b14610337578063f2fde38b1461033f57600080fd5b80638da5cb5b1461025957806395d89b41146102745780639fd6db121461027c578063a457c2d714610289578063a9059cbb1461029c578063b51c64b2146102af57600080fd5b806331c39c521161011557806331c39c52146101e757806339509351146101fa578063485d7d941461020d57806370a0823114610220578063715018a6146102495780637e5cd5c11461025157600080fd5b806306fdde031461015d578063095ea7b31461017b57806317f975b21461019e57806318160ddd146101b357806323b872dd146101c5578063313ce567146101d8575b600080fd5b610165610352565b604051610172919061104f565b60405180910390f35b61018e6101893660046110c0565b6103e4565b6040519015158152602001610172565b6101b16101ac3660046110c0565b6103fc565b005b6002545b604051908152602001610172565b61018e6101d33660046110ea565b61056f565b60405160128152602001610172565b6101b16101f5366004611126565b610593565b61018e6102083660046110c0565b61063c565b6101b161021b366004611126565b61065e565b6101b761022e366004611126565b6001600160a01b031660009081526020819052604090205490565b6101b16106bf565b6101b16106f5565b6005546040516001600160a01b039091168152602001610172565b6101656107d4565b60095461018e9060ff1681565b61018e6102973660046110c0565b6107e3565b61018e6102aa3660046110c0565b61085e565b6101b16102bd366004611126565b61086c565b61018e6102d0366004611126565b60066020526000908152604090205460ff1681565b6101b16102f3366004611126565b610916565b61018e610306366004611126565b6001600160a01b031660009081526008602052604090205460ff1690565b6101b7610332366004611148565b610964565b6101b161098f565b6101b161034d366004611126565b610a6d565b6060600380546103619061117b565b80601f016020809104026020016040519081016040528092919081815260200182805461038d9061117b565b80156103da5780601f106103af576101008083540402835291602001916103da565b820191906000526020600020905b8154815290600101906020018083116103bd57829003601f168201915b5050505050905090565b6000336103f2818585610b08565b5060019392505050565b3360009081526006602052604090205460ff16806104335750336104286005546001600160a01b031690565b6001600160a01b0316145b6104585760405162461bcd60e51b815260040161044f906111b6565b60405180910390fd5b600260075414156104ab5760405162461bcd60e51b815260206004820152601f60248201527f5265656e7472616e637947756172643a207265656e7472616e742063616c6c00604482015260640161044f565b600260075560095460ff1615156001146105075760405162461bcd60e51b815260206004820152601760248201527f4d696e74696e67206973206e6f7420656e61626c656421000000000000000000604482015260640161044f565b6105108261086c565b61051a8282610c2c565b61052382610593565b816001600160a01b03167fb9144c96c86541f6fa89c9f2f02495cccf4b08cd6643e26d34ee00aa586558a88260405161055e91815260200190565b60405180910390a250506001600755565b60003361057d858285610d17565b610588858585610d91565b506001949350505050565b3360009081526006602052604090205460ff16806105ca5750336105bf6005546001600160a01b031690565b6001600160a01b0316145b6105e65760405162461bcd60e51b815260040161044f906111b6565b6001600160a01b0381166000818152600860209081526040808320805460ff19169055519182527fd490db2598a34eee8b1fe03c8cc9b1cd6a6349b0b86ea5310afce40a059290df91015b60405180910390a250565b6000336103f281858561064f8383610964565b61065991906111ed565b610b08565b6005546001600160a01b031633146106885760405162461bcd60e51b815260040161044f90611213565b6001600160a01b03811633141561069e57600080fd5b6001600160a01b03166000908152600660205260409020805460ff19169055565b6005546001600160a01b031633146106e95760405162461bcd60e51b815260040161044f90611213565b6106f36000610f6a565b565b3360009081526006602052604090205460ff168061072c5750336107216005546001600160a01b031690565b6001600160a01b0316145b6107485760405162461bcd60e51b815260040161044f906111b6565b60095460ff16151560011461079f5760405162461bcd60e51b815260206004820152601c60248201527f4d696e74696e6720697320616c72656164792064697361626c65642100000000604482015260640161044f565b6009805460ff191690556040517f25b2f61d02a979113154f291a13559471c5c2e10a1bce72535026fa81999f41690600090a1565b6060600480546103619061117b565b600033816107f18286610964565b9050838110156108515760405162461bcd60e51b815260206004820152602560248201527f45524332303a2064656372656173656420616c6c6f77616e63652062656c6f77604482015264207a65726f60d81b606482015260840161044f565b6105888286868403610b08565b6000336103f2818585610d91565b3360009081526006602052604090205460ff16806108a35750336108986005546001600160a01b031690565b6001600160a01b0316145b6108bf5760405162461bcd60e51b815260040161044f906111b6565b6001600160a01b038116600081815260086020908152604091829020805460ff1916600190811790915591519182527fd490db2598a34eee8b1fe03c8cc9b1cd6a6349b0b86ea5310afce40a059290df9101610631565b6005546001600160a01b031633146109405760405162461bcd60e51b815260040161044f90611213565b6001600160a01b03166000908152600660205260409020805460ff19166001179055565b6001600160a01b03918216600090815260016020908152604080832093909416825291909152205490565b3360009081526006602052604090205460ff16806109c65750336109bb6005546001600160a01b031690565b6001600160a01b0316145b6109e25760405162461bcd60e51b815260040161044f906111b6565b60095460ff1615610a355760405162461bcd60e51b815260206004820152601b60248201527f4d696e74696e6720697320616c726561647920656e61626c6564210000000000604482015260640161044f565b6009805460ff191660011790556040517fe85ce7fde36808f4259c16359ff6f7001ef8adf7bc3839e1a24c9c0fbb3179d390600090a1565b6005546001600160a01b03163314610a975760405162461bcd60e51b815260040161044f90611213565b6001600160a01b038116610afc5760405162461bcd60e51b815260206004820152602660248201527f4f776e61626c653a206e6577206f776e657220697320746865207a65726f206160448201526564647265737360d01b606482015260840161044f565b610b0581610f6a565b50565b6001600160a01b038316610b6a5760405162461bcd60e51b8152602060048201526024808201527f45524332303a20617070726f76652066726f6d20746865207a65726f206164646044820152637265737360e01b606482015260840161044f565b6001600160a01b038216610bcb5760405162461bcd60e51b815260206004820152602260248201527f45524332303a20617070726f766520746f20746865207a65726f206164647265604482015261737360f01b606482015260840161044f565b6001600160a01b0383811660008181526001602090815260408083209487168084529482529182902085905590518481527f8c5be1e5ebec7d5bd14f71427d1e84f3dd0314c0f7b2291e5b200ac8c7c3b925910160405180910390a3505050565b6001600160a01b038216610c825760405162461bcd60e51b815260206004820152601f60248201527f45524332303a206d696e7420746f20746865207a65726f206164647265737300604482015260640161044f565b610c8e60008383610fbc565b8060026000828254610ca091906111ed565b90915550506001600160a01b03821660009081526020819052604081208054839290610ccd9084906111ed565b90915550506040518181526001600160a01b038316906000907fddf252ad1be2c89b69c2b068fc378daa952ba7f163c4a11628f55a4df523b3ef9060200160405180910390a35050565b6000610d238484610964565b90506000198114610d8b5781811015610d7e5760405162461bcd60e51b815260206004820152601d60248201527f45524332303a20696e73756666696369656e7420616c6c6f77616e6365000000604482015260640161044f565b610d8b8484848403610b08565b50505050565b6001600160a01b038316610df55760405162461bcd60e51b815260206004820152602560248201527f45524332303a207472616e736665722066726f6d20746865207a65726f206164604482015264647265737360d81b606482015260840161044f565b6001600160a01b038216610e575760405162461bcd60e51b815260206004820152602360248201527f45524332303a207472616e7366657220746f20746865207a65726f206164647260448201526265737360e81b606482015260840161044f565b610e62838383610fbc565b6001600160a01b03831660009081526020819052604090205481811015610eda5760405162461bcd60e51b815260206004820152602660248201527f45524332303a207472616e7366657220616d6f756e7420657863656564732062604482015265616c616e636560d01b606482015260840161044f565b6001600160a01b03808516600090815260208190526040808220858503905591851681529081208054849290610f119084906111ed565b92505081905550826001600160a01b0316846001600160a01b03167fddf252ad1be2c89b69c2b068fc378daa952ba7f163c4a11628f55a4df523b3ef84604051610f5d91815260200190565b60405180910390a3610d8b565b600580546001600160a01b038381166001600160a01b0319831681179093556040519116919082907f8be0079c531659141344cd1fd0a4f28419497f9722a3daafe3b4186f6b6457e090600090a35050565b6001600160a01b03821660009081526008602052604090205460ff1661104a5760405162461bcd60e51b815260206004820152603860248201527f546f6b656e207472616e7366657220726566757365642e20526563656976657260448201527f206973206e6f7420696e207468652077686974656c6973740000000000000000606482015260840161044f565b505050565b600060208083528351808285015260005b8181101561107c57858101830151858201604001528201611060565b8181111561108e576000604083870101525b50601f01601f1916929092016040019392505050565b80356001600160a01b03811681146110bb57600080fd5b919050565b600080604083850312156110d357600080fd5b6110dc836110a4565b946020939093013593505050565b6000806000606084860312156110ff57600080fd5b611108846110a4565b9250611116602085016110a4565b9150604084013590509250925092565b60006020828403121561113857600080fd5b611141826110a4565b9392505050565b6000806040838503121561115b57600080fd5b611164836110a4565b9150611172602084016110a4565b90509250929050565b600181811c9082168061118f57607f821691505b602082108114156111b057634e487b7160e01b600052602260045260246000fd5b50919050565b60208082526018908201527f63616c6c6572206973206e6f7420617574686f72697a65640000000000000000604082015260600190565b6000821982111561120e57634e487b7160e01b600052601160045260246000fd5b500190565b6020808252818101527f4f776e61626c653a2063616c6c6572206973206e6f7420746865206f776e657260408201526060019056fea264697066735822122001884df2cb752cc146efc05677bc03357686657e22b64c26f758bf03cfb5bfb164736f6c63430008090033",
  "linkReferences": {},
  "deployedLinkReferences": {}
}