{
  "_format": "hh-sol-artifact-1",
  "contractName": "MasterInvestor",
  "sourceName": "contracts/npc/MasterInvestor.sol",
  "abi": [
    {
      "inputs": [],
      "stateMutability": "nonpayable",
      "type": "constructor"
    },
    {
      "anonymous": false,
      "inputs": [
        {
          "indexed": true,
          "internalType": "address",
          "name": "user",
          "type": "address"
        },
        {
          "indexed": true,
          "internalType": "uint256",
          "name": "pid",
          "type": "uint256"
        },
        {
          "indexed": false,
          "internalType": "uint256",
          "name": "amount",
          "type": "uint256"
        }
      ],
      "name": "Deposit",
      "type": "event"
    },
    {
      "anonymous": false,
      "inputs": [
        {
          "indexed": true,
          "internalType": "address",
          "name": "user",
          "type": "address"
        },
        {
          "indexed": true,
          "internalType": "uint256",
          "name": "pid",
          "type": "uint256"
        },
        {
          "indexed": false,
          "internalType": "uint256",
          "name": "amount",
          "type": "uint256"
        }
      ],
      "name": "EmergencyWithdraw",
      "type": "event"
    },
    {
      "anonymous": false,
      "inputs": [
        {
          "indexed": true,
          "internalType": "bytes32",
          "name": "role",
          "type": "bytes32"
        },
        {
          "indexed": true,
          "internalType": "bytes32",
          "name": "previousAdminRole",
          "type": "bytes32"
        },
        {
          "indexed": true,
          "internalType": "bytes32",
          "name": "newAdminRole",
          "type": "bytes32"
        }
      ],
      "name": "RoleAdminChanged",
      "type": "event"
    },
    {
      "anonymous": false,
      "inputs": [
        {
          "indexed": true,
          "internalType": "bytes32",
          "name": "role",
          "type": "bytes32"
        },
        {
          "indexed": true,
          "internalType": "address",
          "name": "account",
          "type": "address"
        },
        {
          "indexed": true,
          "internalType": "address",
          "name": "sender",
          "type": "address"
        }
      ],
      "name": "RoleGranted",
      "type": "event"
    },
    {
      "anonymous": false,
      "inputs": [
        {
          "indexed": true,
          "internalType": "bytes32",
          "name": "role",
          "type": "bytes32"
        },
        {
          "indexed": true,
          "internalType": "address",
          "name": "account",
          "type": "address"
        },
        {
          "indexed": true,
          "internalType": "address",
          "name": "sender",
          "type": "address"
        }
      ],
      "name": "RoleRevoked",
      "type": "event"
    },
    {
      "anonymous": false,
      "inputs": [
        {
          "indexed": true,
          "internalType": "address",
          "name": "user",
          "type": "address"
        },
        {
          "indexed": true,
          "internalType": "uint256",
          "name": "pid",
          "type": "uint256"
        },
        {
          "indexed": false,
          "internalType": "uint256",
          "name": "amount",
          "type": "uint256"
        },
        {
          "indexed": false,
          "internalType": "uint256",
          "name": "lockAmount",
          "type": "uint256"
        }
      ],
      "name": "SendGovernanceTokenReward",
      "type": "event"
    },
    {
      "anonymous": false,
      "inputs": [
        {
          "indexed": true,
          "internalType": "address",
          "name": "user",
          "type": "address"
        },
        {
          "indexed": true,
          "internalType": "uint256",
          "name": "pid",
          "type": "uint256"
        },
        {
          "indexed": false,
          "internalType": "uint256",
          "name": "amount",
          "type": "uint256"
        }
      ],
      "name": "Withdraw",
      "type": "event"
    },
    {
      "inputs": [],
      "name": "ADMIN_ROLE",
      "outputs": [
        {
          "internalType": "bytes32",
          "name": "",
          "type": "bytes32"
        }
      ],
      "stateMutability": "view",
      "type": "function"
    },
    {
      "inputs": [],
      "name": "AUTHORIZED_ROLE",
      "outputs": [
        {
          "internalType": "bytes32",
          "name": "",
          "type": "bytes32"
        }
      ],
      "stateMutability": "view",
      "type": "function"
    },
    {
      "inputs": [],
      "name": "COMMUNITY_FUND_ADDRESS",
      "outputs": [
        {
          "internalType": "address",
          "name": "",
          "type": "address"
        }
      ],
      "stateMutability": "view",
      "type": "function"
    },
    {
      "inputs": [],
      "name": "DEFAULT_ADMIN_ROLE",
      "outputs": [
        {
          "internalType": "bytes32",
          "name": "",
          "type": "bytes32"
        }
      ],
      "stateMutability": "view",
      "type": "function"
    },
    {
      "inputs": [],
      "name": "DEV_ADDRESS",
      "outputs": [
        {
          "internalType": "address",
          "name": "",
          "type": "address"
        }
      ],
      "stateMutability": "view",
      "type": "function"
    },
    {
      "inputs": [],
      "name": "DEV_DEP_FEE",
      "outputs": [
        {
          "internalType": "uint256",
          "name": "",
          "type": "uint256"
        }
      ],
      "stateMutability": "view",
      "type": "function"
    },
    {
      "inputs": [
        {
          "internalType": "uint256",
          "name": "",
          "type": "uint256"
        }
      ],
      "name": "DEV_FEE_STAGES",
      "outputs": [
        {
          "internalType": "uint256",
          "name": "",
          "type": "uint256"
        }
      ],
      "stateMutability": "view",
      "type": "function"
    },
    {
      "inputs": [],
      "name": "FINISH_BONUS_AT_TIME",
      "outputs": [
        {
          "internalType": "uint256",
          "name": "",
          "type": "uint256"
        }
      ],
      "stateMutability": "view",
      "type": "function"
    },
    {
      "inputs": [],
      "name": "FOUNDER_ADDRESS",
      "outputs": [
        {
          "internalType": "address",
          "name": "",
          "type": "address"
        }
      ],
      "stateMutability": "view",
      "type": "function"
    },
    {
      "inputs": [],
      "name": "GOV_TOKEN",
      "outputs": [
        {
          "internalType": "contract EvoToken",
          "name": "",
          "type": "address"
        }
      ],
      "stateMutability": "view",
      "type": "function"
    },
    {
      "inputs": [
        {
          "internalType": "uint256",
          "name": "",
          "type": "uint256"
        }
      ],
      "name": "HALVING_AT_TIMES",
      "outputs": [
        {
          "internalType": "uint256",
          "name": "",
          "type": "uint256"
        }
      ],
      "stateMutability": "view",
      "type": "function"
    },
    {
      "inputs": [],
      "name": "LP_ADDRESS",
      "outputs": [
        {
          "internalType": "address",
          "name": "",
          "type": "address"
        }
      ],
      "stateMutability": "view",
      "type": "function"
    },
    {
      "inputs": [],
      "name": "PERCENT_FOR_COM",
      "outputs": [
        {
          "internalType": "uint256",
          "name": "",
          "type": "uint256"
        }
      ],
      "stateMutability": "view",
      "type": "function"
    },
    {
      "inputs": [],
      "name": "PERCENT_FOR_DEV",
      "outputs": [
        {
          "internalType": "uint256",
          "name": "",
          "type": "uint256"
        }
      ],
      "stateMutability": "view",
      "type": "function"
    },
    {
      "inputs": [],
      "name": "PERCENT_FOR_FOUNDERS",
      "outputs": [
        {
          "internalType": "uint256",
          "name": "",
          "type": "uint256"
        }
      ],
      "stateMutability": "view",
      "type": "function"
    },
    {
      "inputs": [],
      "name": "PERCENT_FOR_LP",
      "outputs": [
        {
          "internalType": "uint256",
          "name": "",
          "type": "uint256"
        }
      ],
      "stateMutability": "view",
      "type": "function"
    },
    {
      "inputs": [
        {
          "internalType": "uint256",
          "name": "",
          "type": "uint256"
        }
      ],
      "name": "PERCENT_LOCK_BONUS_REWARD",
      "outputs": [
        {
          "internalType": "uint256",
          "name": "",
          "type": "uint256"
        }
      ],
      "stateMutability": "view",
      "type": "function"
    },
    {
      "inputs": [
        {
          "internalType": "uint256",
          "name": "",
          "type": "uint256"
        }
      ],
      "name": "REWARD_MULTIPLIERS",
      "outputs": [
        {
          "internalType": "uint256",
          "name": "",
          "type": "uint256"
        }
      ],
      "stateMutability": "view",
      "type": "function"
    },
    {
      "inputs": [],
      "name": "REWARD_PER_SECOND",
      "outputs": [
        {
          "internalType": "uint256",
          "name": "",
          "type": "uint256"
        }
      ],
      "stateMutability": "view",
      "type": "function"
    },
    {
      "inputs": [],
      "name": "START_TIME",
      "outputs": [
        {
          "internalType": "uint256",
          "name": "",
          "type": "uint256"
        }
      ],
      "stateMutability": "view",
      "type": "function"
    },
    {
      "inputs": [],
      "name": "TOTAL_ALLOCATION_POINTS",
      "outputs": [
        {
          "internalType": "uint256",
          "name": "",
          "type": "uint256"
        }
      ],
      "stateMutability": "view",
      "type": "function"
    },
    {
      "inputs": [],
      "name": "USD_ORACLE",
      "outputs": [
        {
          "internalType": "address",
          "name": "",
          "type": "address"
        }
      ],
      "stateMutability": "view",
      "type": "function"
    },
    {
      "inputs": [],
      "name": "USER_DEP_FEE",
      "outputs": [
        {
          "internalType": "uint256",
          "name": "",
          "type": "uint256"
        }
      ],
      "stateMutability": "view",
      "type": "function"
    },
    {
      "inputs": [
        {
          "internalType": "uint256",
          "name": "",
          "type": "uint256"
        }
      ],
      "name": "USER_FEE_STAGES",
      "outputs": [
        {
          "internalType": "uint256",
          "name": "",
          "type": "uint256"
        }
      ],
      "stateMutability": "view",
      "type": "function"
    },
    {
      "inputs": [
        {
          "internalType": "uint256",
          "name": "_allocPoint",
          "type": "uint256"
        },
        {
          "internalType": "contract IERC20Upgradeable",
          "name": "_lpToken",
          "type": "address"
        },
        {
          "internalType": "bool",
          "name": "_withUpdate",
          "type": "bool"
        }
      ],
      "name": "add",
      "outputs": [],
      "stateMutability": "nonpayable",
      "type": "function"
    },
    {
      "inputs": [
        {
          "internalType": "uint256",
          "name": "_pid",
          "type": "uint256"
        }
      ],
      "name": "claimReward",
      "outputs": [],
      "stateMutability": "nonpayable",
      "type": "function"
    },
    {
      "inputs": [
        {
          "internalType": "uint256[]",
          "name": "_pids",
          "type": "uint256[]"
        }
      ],
      "name": "claimRewards",
      "outputs": [],
      "stateMutability": "nonpayable",
      "type": "function"
    },
    {
      "inputs": [
        {
          "internalType": "uint256",
          "name": "_pid",
          "type": "uint256"
        },
        {
          "internalType": "uint256",
          "name": "_amount",
          "type": "uint256"
        }
      ],
      "name": "deposit",
      "outputs": [],
      "stateMutability": "nonpayable",
      "type": "function"
    },
    {
      "inputs": [
        {
          "internalType": "uint256",
          "name": "_pid",
          "type": "uint256"
        }
      ],
      "name": "emergencyWithdraw",
      "outputs": [],
      "stateMutability": "nonpayable",
      "type": "function"
    },
    {
      "inputs": [
        {
          "internalType": "uint256",
          "name": "_from",
          "type": "uint256"
        },
        {
          "internalType": "uint256",
          "name": "_to",
          "type": "uint256"
        }
      ],
      "name": "getLockPercentage",
      "outputs": [
        {
          "internalType": "uint256",
          "name": "",
          "type": "uint256"
        }
      ],
      "stateMutability": "view",
      "type": "function"
    },
    {
      "inputs": [
        {
          "internalType": "uint256",
          "name": "_from",
          "type": "uint256"
        },
        {
          "internalType": "uint256",
          "name": "_to",
          "type": "uint256"
        }
      ],
      "name": "getMultiplier",
      "outputs": [
        {
          "internalType": "uint256",
          "name": "",
          "type": "uint256"
        }
      ],
      "stateMutability": "view",
      "type": "function"
    },
    {
      "inputs": [
        {
          "internalType": "uint256",
          "name": "pid1",
          "type": "uint256"
        }
      ],
      "name": "getNewRewardPerSecond",
      "outputs": [
        {
          "internalType": "uint256",
          "name": "",
          "type": "uint256"
        }
      ],
      "stateMutability": "view",
      "type": "function"
    },
    {
      "inputs": [
        {
          "internalType": "uint256",
          "name": "_from",
          "type": "uint256"
        },
        {
          "internalType": "uint256",
          "name": "_to",
          "type": "uint256"
        },
        {
          "internalType": "uint256",
          "name": "_allocPoint",
          "type": "uint256"
        }
      ],
      "name": "getPoolReward",
      "outputs": [
        {
          "internalType": "uint256",
          "name": "forDev",
          "type": "uint256"
        },
        {
          "internalType": "uint256",
          "name": "forFarmer",
          "type": "uint256"
        },
        {
          "internalType": "uint256",
          "name": "forLP",
          "type": "uint256"
        },
        {
          "internalType": "uint256",
          "name": "forCom",
          "type": "uint256"
        },
        {
          "internalType": "uint256",
          "name": "forFounders",
          "type": "uint256"
        }
      ],
      "stateMutability": "view",
      "type": "function"
    },
    {
      "inputs": [
        {
          "internalType": "bytes32",
          "name": "role",
          "type": "bytes32"
        }
      ],
      "name": "getRoleAdmin",
      "outputs": [
        {
          "internalType": "bytes32",
          "name": "",
          "type": "bytes32"
        }
      ],
      "stateMutability": "view",
      "type": "function"
    },
    {
      "inputs": [
        {
          "internalType": "bytes32",
          "name": "role",
          "type": "bytes32"
        },
        {
          "internalType": "address",
          "name": "account",
          "type": "address"
        }
      ],
      "name": "grantRole",
      "outputs": [],
      "stateMutability": "nonpayable",
      "type": "function"
    },
    {
      "inputs": [
        {
          "internalType": "bytes32",
          "name": "role",
          "type": "bytes32"
        },
        {
          "internalType": "address",
          "name": "account",
          "type": "address"
        }
      ],
      "name": "hasRole",
      "outputs": [
        {
          "internalType": "bool",
          "name": "",
          "type": "bool"
        }
      ],
      "stateMutability": "view",
      "type": "function"
    },
    {
      "inputs": [
        {
          "components": [
            {
              "internalType": "contract EvoToken",
              "name": "govToken",
              "type": "address"
            },
            {
              "internalType": "uint256",
              "name": "rewardPerSecond",
              "type": "uint256"
            },
            {
              "internalType": "uint256",
              "name": "startTime",
              "type": "uint256"
            },
            {
              "internalType": "uint256",
              "name": "halvingAfterTime",
              "type": "uint256"
            },
            {
              "internalType": "uint256",
              "name": "userDepositFee",
              "type": "uint256"
            },
            {
              "internalType": "uint256",
              "name": "devDepositFee",
              "type": "uint256"
            },
            {
              "internalType": "address",
              "name": "devAddress",
              "type": "address"
            },
            {
              "internalType": "address",
              "name": "lpAddress",
              "type": "address"
            },
            {
              "internalType": "address",
              "name": "communityFundAddress",
              "type": "address"
            },
            {
              "internalType": "address",
              "name": "founderAddress",
              "type": "address"
            },
            {
              "internalType": "uint256[]",
              "name": "rewardMultipliers",
              "type": "uint256[]"
            },
            {
              "internalType": "uint256[]",
              "name": "userFeeStages",
              "type": "uint256[]"
            },
            {
              "internalType": "uint256[]",
              "name": "devFeeStages",
              "type": "uint256[]"
            },
            {
              "internalType": "uint256[]",
              "name": "percentLockBonusReward",
              "type": "uint256[]"
            }
          ],
          "internalType": "struct MasterInvestor.ConstructorParams",
          "name": "params",
          "type": "tuple"
        }
      ],
      "name": "initialize",
      "outputs": [],
      "stateMutability": "nonpayable",
      "type": "function"
    },
    {
      "inputs": [],
      "name": "massUpdatePools",
      "outputs": [],
      "stateMutability": "nonpayable",
      "type": "function"
    },
    {
      "inputs": [
        {
          "internalType": "uint256",
          "name": "_pid",
          "type": "uint256"
        },
        {
          "internalType": "address",
          "name": "_user",
          "type": "address"
        }
      ],
      "name": "pendingReward",
      "outputs": [
        {
          "internalType": "uint256",
          "name": "",
          "type": "uint256"
        }
      ],
      "stateMutability": "view",
      "type": "function"
    },
    {
      "inputs": [
        {
          "internalType": "contract IERC20Upgradeable",
          "name": "",
          "type": "address"
        }
      ],
      "name": "poolExistence",
      "outputs": [
        {
          "internalType": "bool",
          "name": "",
          "type": "bool"
        }
      ],
      "stateMutability": "view",
      "type": "function"
    },
    {
      "inputs": [
        {
          "internalType": "address",
          "name": "",
          "type": "address"
        }
      ],
      "name": "poolId",
      "outputs": [
        {
          "internalType": "uint256",
          "name": "",
          "type": "uint256"
        }
      ],
      "stateMutability": "view",
      "type": "function"
    },
    {
      "inputs": [
        {
          "internalType": "uint256",
          "name": "",
          "type": "uint256"
        }
      ],
      "name": "poolInfo",
      "outputs": [
        {
          "internalType": "contract IERC20Upgradeable",
          "name": "lpToken",
          "type": "address"
        },
        {
          "internalType": "uint256",
          "name": "allocPoint",
          "type": "uint256"
        },
        {
          "internalType": "uint256",
          "name": "lastRewardTime",
          "type": "uint256"
        },
        {
          "internalType": "uint256",
          "name": "accGovTokenPerShare",
          "type": "uint256"
        }
      ],
      "stateMutability": "view",
      "type": "function"
    },
    {
      "inputs": [],
      "name": "poolLength",
      "outputs": [
        {
          "internalType": "uint256",
          "name": "",
          "type": "uint256"
        }
      ],
      "stateMutability": "view",
      "type": "function"
    },
    {
      "inputs": [
        {
          "internalType": "address",
          "name": "_newOwner",
          "type": "address"
        }
      ],
      "name": "reclaimTokenOwnership",
      "outputs": [],
      "stateMutability": "nonpayable",
      "type": "function"
    },
    {
      "inputs": [
        {
          "internalType": "bytes32",
          "name": "role",
          "type": "bytes32"
        },
        {
          "internalType": "address",
          "name": "account",
          "type": "address"
        }
      ],
      "name": "renounceRole",
      "outputs": [],
      "stateMutability": "nonpayable",
      "type": "function"
    },
    {
      "inputs": [
        {
          "internalType": "uint256",
          "name": "_pid",
          "type": "uint256"
        },
        {
          "internalType": "address",
          "name": "_user",
          "type": "address"
        },
        {
          "internalType": "uint256",
          "name": "_time",
          "type": "uint256"
        }
      ],
      "name": "reviseDeposit",
      "outputs": [],
      "stateMutability": "nonpayable",
      "type": "function"
    },
    {
      "inputs": [
        {
          "internalType": "uint256",
          "name": "_pid",
          "type": "uint256"
        },
        {
          "internalType": "address",
          "name": "_user",
          "type": "address"
        },
        {
          "internalType": "uint256",
          "name": "_time",
          "type": "uint256"
        }
      ],
      "name": "reviseWithdraw",
      "outputs": [],
      "stateMutability": "nonpayable",
      "type": "function"
    },
    {
      "inputs": [
        {
          "internalType": "bytes32",
          "name": "role",
          "type": "bytes32"
        },
        {
          "internalType": "address",
          "name": "account",
          "type": "address"
        }
      ],
      "name": "revokeRole",
      "outputs": [],
      "stateMutability": "nonpayable",
      "type": "function"
    },
    {
      "inputs": [
        {
          "internalType": "uint256",
          "name": "_pid",
          "type": "uint256"
        },
        {
          "internalType": "uint256",
          "name": "_allocPoint",
          "type": "uint256"
        },
        {
          "internalType": "bool",
          "name": "_withUpdate",
          "type": "bool"
        }
      ],
      "name": "set",
      "outputs": [],
      "stateMutability": "nonpayable",
      "type": "function"
    },
    {
      "inputs": [
        {
          "internalType": "bytes4",
          "name": "interfaceId",
          "type": "bytes4"
        }
      ],
      "name": "supportsInterface",
      "outputs": [
        {
          "internalType": "bool",
          "name": "",
          "type": "bool"
        }
      ],
      "stateMutability": "view",
      "type": "function"
    },
    {
      "inputs": [],
      "name": "totalAllocPoint",
      "outputs": [
        {
          "internalType": "uint256",
          "name": "",
          "type": "uint256"
        }
      ],
      "stateMutability": "view",
      "type": "function"
    },
    {
      "inputs": [
        {
          "internalType": "uint256",
          "name": "kind",
          "type": "uint256"
        },
        {
          "internalType": "address",
          "name": "_address",
          "type": "address"
        }
      ],
      "name": "updateAddress",
      "outputs": [],
      "stateMutability": "nonpayable",
      "type": "function"
    },
    {
      "inputs": [
        {
          "internalType": "uint256",
          "name": "kind",
          "type": "uint256"
        },
        {
          "internalType": "uint256",
          "name": "fee",
          "type": "uint256"
        }
      ],
      "name": "updateDepositFee",
      "outputs": [],
      "stateMutability": "nonpayable",
      "type": "function"
    },
    {
      "inputs": [
        {
          "internalType": "uint256",
          "name": "kind",
          "type": "uint256"
        },
        {
          "internalType": "uint256[]",
          "name": "feeStages",
          "type": "uint256[]"
        }
      ],
      "name": "updateFeeStages",
      "outputs": [],
      "stateMutability": "nonpayable",
      "type": "function"
    },
    {
      "inputs": [
        {
          "internalType": "uint256[]",
          "name": "times",
          "type": "uint256[]"
        }
      ],
      "name": "updateHalvingAtTimes",
      "outputs": [],
      "stateMutability": "nonpayable",
      "type": "function"
    },
    {
      "inputs": [
        {
          "internalType": "uint256",
          "name": "time",
          "type": "uint256"
        }
      ],
      "name": "updateLastRewardTime",
      "outputs": [],
      "stateMutability": "nonpayable",
      "type": "function"
    },
    {
      "inputs": [
        {
          "internalType": "uint256",
          "name": "kind",
          "type": "uint256"
        },
        {
          "internalType": "uint256",
          "name": "percent",
          "type": "uint256"
        }
      ],
      "name": "updateLockPercent",
      "outputs": [],
      "stateMutability": "nonpayable",
      "type": "function"
    },
    {
      "inputs": [
        {
          "internalType": "uint256",
          "name": "_pid",
          "type": "uint256"
        }
      ],
      "name": "updatePool",
      "outputs": [],
      "stateMutability": "nonpayable",
      "type": "function"
    },
    {
      "inputs": [
        {
          "internalType": "uint256[]",
          "name": "multipliers",
          "type": "uint256[]"
        }
      ],
      "name": "updateRewardMultipliers",
      "outputs": [],
      "stateMutability": "nonpayable",
      "type": "function"
    },
    {
      "inputs": [
        {
          "internalType": "uint256",
          "name": "reward",
          "type": "uint256"
        }
      ],
      "name": "updateRewardPerSecond",
      "outputs": [],
      "stateMutability": "nonpayable",
      "type": "function"
    },
    {
      "inputs": [
        {
          "internalType": "uint256",
          "name": "time",
          "type": "uint256"
        }
      ],
      "name": "updateStartTime",
      "outputs": [],
      "stateMutability": "nonpayable",
      "type": "function"
    },
    {
      "inputs": [
        {
          "internalType": "uint256[]",
          "name": "lockPercents",
          "type": "uint256[]"
        }
      ],
      "name": "updateUserLockPercents",
      "outputs": [],
      "stateMutability": "nonpayable",
      "type": "function"
    },
    {
      "inputs": [
        {
          "internalType": "uint256",
          "name": "_pid",
          "type": "uint256"
        }
      ],
      "name": "userDelta",
      "outputs": [
        {
          "internalType": "uint256",
          "name": "",
          "type": "uint256"
        }
      ],
      "stateMutability": "view",
      "type": "function"
    },
    {
      "inputs": [
        {
          "internalType": "uint256",
          "name": "_pid",
          "type": "uint256"
        },
        {
          "internalType": "address",
          "name": "_address",
          "type": "address"
        }
      ],
      "name": "userDeltaOf",
      "outputs": [
        {
          "internalType": "uint256",
          "name": "",
          "type": "uint256"
        }
      ],
      "stateMutability": "view",
      "type": "function"
    },
    {
      "inputs": [
        {
          "internalType": "address",
          "name": "",
          "type": "address"
        }
      ],
      "name": "userGlobalInfo",
      "outputs": [
        {
          "internalType": "uint256",
          "name": "",
          "type": "uint256"
        }
      ],
      "stateMutability": "view",
      "type": "function"
    },
    {
      "inputs": [
        {
          "internalType": "uint256",
          "name": "",
          "type": "uint256"
        },
        {
          "internalType": "address",
          "name": "",
          "type": "address"
        }
      ],
      "name": "userInfo",
      "outputs": [
        {
          "internalType": "uint256",
          "name": "amount",
          "type": "uint256"
        },
        {
          "internalType": "uint256",
          "name": "rewardDebt",
          "type": "uint256"
        },
        {
          "internalType": "uint256",
          "name": "rewardDebtAtTime",
          "type": "uint256"
        },
        {
          "internalType": "uint256",
          "name": "lastWithdrawTime",
          "type": "uint256"
        },
        {
          "internalType": "uint256",
          "name": "firstDepositTime",
          "type": "uint256"
        },
        {
          "internalType": "uint256",
          "name": "timeDelta",
          "type": "uint256"
        },
        {
          "internalType": "uint256",
          "name": "lastDepositTime",
          "type": "uint256"
        }
      ],
      "stateMutability": "view",
      "type": "function"
    },
    {
      "inputs": [
        {
          "internalType": "uint256",
          "name": "_pid",
          "type": "uint256"
        },
        {
          "internalType": "uint256",
          "name": "_amount",
          "type": "uint256"
        }
      ],
      "name": "withdraw",
      "outputs": [],
      "stateMutability": "nonpayable",
      "type": "function"
    },
    {
      "inputs": [
        {
          "internalType": "uint256",
          "name": "_pid",
          "type": "uint256"
        },
        {
          "internalType": "uint256",
          "name": "_amount",
          "type": "uint256"
        },
        {
          "internalType": "address",
          "name": "_address",
          "type": "address"
        }
      ],
      "name": "withdrawForClaim",
      "outputs": [],
      "stateMutability": "nonpayable",
      "type": "function"
    }
  ],
  "bytecode": "0x60806040523480156200001157600080fd5b50600054610100900460ff166200002f5760005460ff161562000039565b62000039620000de565b620000a15760405162461bcd60e51b815260206004820152602e60248201527f496e697469616c697a61626c653a20636f6e747261637420697320616c72656160448201526d191e481a5b9a5d1a585b1a5e995960921b606482015260840160405180910390fd5b600054610100900460ff16158015620000c4576000805461ffff19166101011790555b8015620000d7576000805461ff00191690555b506200010b565b6000620000f630620000fc60201b62002d9f1760201c565b15905090565b6001600160a01b03163b151590565b613eab806200011b6000396000f3fe608060405234801561001057600080fd5b50600436106103fc5760003560e01c806375b238fc11610215578063c7b6e52511610125578063e2bbb158116100b8578063f491adf711610087578063f491adf71461095b578063f64682511461096e578063f92d34a914610983578063f930e77014610996578063ff51a272146109a957600080fd5b8063e2bbb15814610919578063ed9bdeda1461092c578063eda6704814610935578063f1528cee1461094857600080fd5b8063d56cf10f116100f4578063d56cf10f146108d4578063d79c3953146108e7578063d9608d8a146108f0578063ddaa26ad1461091057600080fd5b8063c7b6e52514610850578063c8ed768014610863578063cbd258b51461089e578063d547741f146108c157600080fd5b80639b963d2a116101a8578063ae169a5011610177578063ae169a50146107fb578063b78777161461080e578063bd27e3f814610821578063c35cadbe14610834578063c6929e531461084757600080fd5b80639b963d2a146107c4578063a02306f9146107d7578063a217fddf146107e0578063a82859c5146107e857600080fd5b80638dbb1e3a116101e45780638dbb1e3a146106f957806391d148541461070c57806393f1a40b1461071f57806398969e82146107b157600080fd5b806375b238fc146106b55780637c0c5788146106ca57806382386d58146106d3578063874feed3146106e657600080fd5b806336568abe116103105780635312ea8e116102a35780636066debd116102725780636066debd14610661578063630b5ba11461067457806364482f791461067c5780636461fc8c1461068f57806365cf3771146106a257600080fd5b80635312ea8e1461061f5780635639e8cf1461063257806356407a61146106455780635eac62391461064e57600080fd5b8063441a3e70116102df578063441a3e70146105dd5780634abbbd28146105f05780634b0cf206146105f957806351eb05a61461060c57600080fd5b806336568abe1461059b5780634004c8e7146105ae57806343628fb4146105c157806343e372c6146105ca57600080fd5b80631526fe2711610393578063248a9ca311610362578063248a9ca31461052c5780632ab29df71461054f5780632f2ff15d1461056257806332399e921461057557806335582e681461058857600080fd5b80631526fe27146104c157806317caf6f1146104fe5780631b80c010146105065780631eaaa0451461051957600080fd5b8063081e3eda116103cf578063081e3eda1461048a57806309ae4d2c146104925780630a67d518146104a55780630d329fea146104ae57600080fd5b806301ffc9a714610401578063027e69991461042957806304aa0f611461044a57806306bcf02f14610475575b600080fd5b61041461040f3660046136c4565b6109c9565b60405190151581526020015b60405180910390f35b61043c6104373660046136ee565b610a00565b604051908152602001610420565b60ce5461045d906001600160a01b031681565b6040516001600160a01b039091168152602001610420565b6104886104833660046136ee565b610a21565b005b60de5461043c565b61043c6104a03660046136ee565b610a40565b61043c60db5481565b6104886104bc3660046137d7565b610a88565b6104d46104cf3660046136ee565b610b31565b604080516001600160a01b0390951685526020850193909352918301526060820152608001610420565b60d85461043c565b610488610514366004613843565b610b75565b6104886105273660046139be565b610e8a565b61043c61053a3660046136ee565b60009081526065602052604090206001015490565b61048861055d366004613a00565b6110fc565b610488610570366004613a00565b6111b9565b60cd5461045d906001600160a01b031681565b610488610596366004613a30565b6111df565b6104886105a9366004613a00565b611238565b6104886105bc3660046136ee565b6112b2565b61043c60d85481565b6104886105d8366004613a52565b6112d1565b6104886105eb366004613a30565b611435565b61043c60d45481565b61043c6106073660046136ee565b6119b8565b61048861061a3660046136ee565b6119c8565b61048861062d3660046136ee565b61205c565b60cb5461045d906001600160a01b031681565b61043c60d65481565b61048861065c366004613a80565b6121d2565b61048861066f366004613ab5565b612212565b610488612255565b61048861068a366004613aed565b61227c565b61048861069d3660046136ee565b612315565b6104886106b0366004613a80565b612334565b61043c600080516020613e5683398151915281565b61043c60d55481565b6104886106e1366004613ab5565b612360565b61043c6106f43660046136ee565b6123a3565b61043c610707366004613a30565b6123b3565b61041461071a366004613a00565b6124e2565b61077c61072d366004613a00565b60e0602052816000526040600020602052806000526040600020600091509150508060000154908060010154908060020154908060030154908060040154908060050154908060060154905087565b604080519788526020880196909652948601939093526060850191909152608084015260a083015260c082015260e001610420565b61043c6107bf366004613a00565b61250d565b61043c6107d23660046136ee565b61266b565b61043c60dc5481565b61043c600081565b61043c6107f63660046136ee565b6126ce565b6104886108093660046136ee565b6126de565b61048861081c366004613a80565b6126f3565b61048861082f366004613a80565b61271f565b610488610842366004613a30565b61274b565b61043c60dd5481565b61043c61085e366004613a00565b612784565b610876610871366004613b1b565b6127de565b604080519586526020860194909452928401919091526060830152608082015260a001610420565b6104146108ac366004613b47565b60e26020526000908152604090205460ff1681565b6104886108cf366004613a00565b6129d9565b60cc5461045d906001600160a01b031681565b61043c60cf5481565b61043c6108fe366004613b47565b60e16020526000908152604090205481565b61043c60d75481565b610488610927366004613a30565b6129ff565b61043c60da5481565b610488610943366004613b47565b612c64565b60ca5461045d906001600160a01b031681565b61043c6109693660046136ee565b612ce0565b61043c600080516020613e3683398151915281565b60c95461045d906001600160a01b031681565b61043c6109a4366004613a30565b612cf0565b61043c6109b7366004613b47565b60df6020526000908152604090205481565b60006001600160e01b03198216637965db0b60e01b14806109fa57506301ffc9a760e01b6001600160e01b03198316145b92915050565b60d18181548110610a1057600080fd5b600091825260209091200154905081565b600080516020613e36833981519152610a3a8133612dae565b5060d755565b600081815260e0602090815260408083203384529091528120600381015415610a79576003810154610a729042613b7a565b9392505050565b6004810154610a729042613b7a565b600080516020613e36833981519152610aa18133612dae565b8260011415610ac3578151610abd9060d2906020850190613664565b50505050565b8260021415610adf578151610abd9060d3906020850190613664565b60405162461bcd60e51b815260206004820152601760248201527f496e76616c6964206b696e64206964656e74696669657200000000000000000060448201526064015b60405180910390fd5b505050565b60de8181548110610b4157600080fd5b600091825260209091206004909102018054600182015460028301546003909301546001600160a01b039092169350919084565b600054610100900460ff16610b905760005460ff1615610b94565b303b155b610bf75760405162461bcd60e51b815260206004820152602e60248201527f496e697469616c697a61626c653a20636f6e747261637420697320616c72656160448201526d191e481a5b9a5d1a585b1a5e995960921b6064820152608401610b23565b600054610100900460ff16158015610c19576000805461ffff19166101011790555b610c21612e12565b610c29612e3b565b610c34600033612e6a565b610c4c600080516020613e5683398151915233612e6a565b610c64600080516020613e3683398151915233612e6a565b6101608201518051610c7e9160d291602090910190613664565b506101808201518051610c999160d391602090910190613664565b50815160c980546001600160a01b0319166001600160a01b0390921691909117905560208083015160cf55604083015160d755608083015160d55560a083015160d6556101408301518051610cf29260d0920190613664565b5060c082015160cb80546001600160a01b039283166001600160a01b03199182161790915560e084015160cc805491841691831691909117905561010084015160cd805491841691831691909117905561012084015160ce80549190931691161790556101a08201518051610d6f9160d991602090910190613664565b50600060d88190555b60d054610d8790600190613b7a565b811015610e0b576040830151600090610da1836001613b91565b8560600151610db09190613ba9565b610dba9190613b91565b610dc5906001613b91565b60d180546001810182556000919091527f695fb3134ad82c3b8022bc5464edd0bcc9424ef672b52245dcb6ab2374327ce301555080610e0381613bc8565b915050610d78565b50604082015160d054610e2090600190613b7a565b8360600151610e2f9190613ba9565b610e399190613b91565b60d45560d180546001810182556000919091526000197f695fb3134ad82c3b8022bc5464edd0bcc9424ef672b52245dcb6ab2374327ce3909101558015610e86576000805461ff00191690555b5050565b600080516020613e56833981519152610ea38133612dae565b6001600160a01b038316600090815260e26020526040902054839060ff1615610f205760405162461bcd60e51b815260206004820152602960248201527f4d6173746572496e766573746f723a3a6e6f6e4475706c6963617465643a20646044820152681d5c1b1a58d85d195960ba1b6064820152608401610b23565b6001600160a01b038416600090815260df602052604090205415610f995760405162461bcd60e51b815260206004820152602a60248201527f4d6173746572496e766573746f723a3a6164643a206c7020697320616c726561604482015269191e481a5b881c1bdbdb60b21b6064820152608401610b23565b8215610fa757610fa7612255565b600060d7544211610fba5760d754610fbc565b425b90508560d86000828254610fd09190613b91565b909155505060de54610fe3906001613b91565b6001600160a01b03958616600081815260df602090815260408083209490945560e281528382208054600160ff1990911681179091558451608081018652938452908301998a529282019384526060820181815260de8054948501815590915290517ffae8130c0619f84b4b44f01b84806f04e82e536d70e05f2356977fa318aecc1a600490930292830180546001600160a01b031916919098161790965595517ffae8130c0619f84b4b44f01b84806f04e82e536d70e05f2356977fa318aecc1b870155517ffae8130c0619f84b4b44f01b84806f04e82e536d70e05f2356977fa318aecc1c860155505090517ffae8130c0619f84b4b44f01b84806f04e82e536d70e05f2356977fa318aecc1d9092019190915550565b600080516020613e368339815191526111158133612dae565b826001141561113e5760cb80546001600160a01b0319166001600160a01b038416179055505050565b82600214156111675760cc80546001600160a01b0319166001600160a01b038416179055505050565b82600314156111905760cd80546001600160a01b0319166001600160a01b038416179055505050565b8260041415610adf5760ce80546001600160a01b0319166001600160a01b038416179055505050565b6000828152606560205260409020600101546111d58133612dae565b610b2c8383612e6a565b600080516020613e368339815191526111f88133612dae565b8260011415611208575060da5550565b8260021415611218575060db5550565b8260031415611228575060dc5550565b8260041415610adf575060dd5550565b6001600160a01b03811633146112a85760405162461bcd60e51b815260206004820152602f60248201527f416363657373436f6e74726f6c3a2063616e206f6e6c792072656e6f756e636560448201526e103937b632b9903337b91039b2b63360891b6064820152608401610b23565b610e868282612ef0565b600080516020613e368339815191526112cb8133612dae565b5060cf55565b600260975414156112f45760405162461bcd60e51b8152600401610b2390613be3565b6002609755600080516020613e368339815191526113128133612dae565b600060de858154811061132757611327613c1a565b6000918252602080832088845260e0825260408085206001600160a01b038916865290925292208054600490920290920192508511156113795760405162461bcd60e51b8152600401610b2390613c30565b611382866119c8565b61138c8685612f57565b841561142857848160000160008282546113a69190613b7a565b909155505081546113c1906001600160a01b0316858761322c565b6003820154815464e8d4a51000916113d891613ba9565b6113e29190613c72565b600182015560405185815286906001600160a01b038616907ff279e6a1f5e320cca91135676d9cb6e44ca8a08c0b88342bcdb1144f6511b5689060200160405180910390a35b5050600160975550505050565b600260975414156114585760405162461bcd60e51b8152600401610b2390613be3565b6002609781905550600060de838154811061147557611475613c1a565b6000918252602080832086845260e09091526040832060049092020192508161149b3390565b6001600160a01b03166001600160a01b03168152602001908152602001600020905082816000015410156114e15760405162461bcd60e51b8152600401610b2390613c30565b6114ea846119c8565b6114f384613282565b82156119ad578281600001600082825461150d9190613b7a565b909155505060038101541561153557600381015461152b9042613b7a565b600582015561154a565b60048101546115449042613b7a565b60058201555b60008082600601544214156115ce57606460d260008154811061156f5761156f613c1a565b9060005260206000200154866115859190613ba9565b61158f9190613c72565b9150606460d36000815481106115a7576115a7613c1a565b9060005260206000200154866115bd9190613ba9565b6115c79190613c72565b9050611914565b60018360050154101580156115e85750610e108360050154105b1561163b57606460d260018154811061160357611603613c1a565b9060005260206000200154866116199190613ba9565b6116239190613c72565b9150606460d36001815481106115a7576115a7613c1a565b610e108360050154101580156116575750620151808360050154105b156116aa57606460d260028154811061167257611672613c1a565b9060005260206000200154866116889190613ba9565b6116929190613c72565b9150606460d36002815481106115a7576115a7613c1a565b620151808360050154101580156116c757506203f4808360050154105b1561171a57606460d26003815481106116e2576116e2613c1a565b9060005260206000200154866116f89190613ba9565b6117029190613c72565b9150606460d36003815481106115a7576115a7613c1a565b6203f4808360050154101580156117375750620697808360050154105b1561178a57606460d260048154811061175257611752613c1a565b9060005260206000200154866117689190613ba9565b6117729190613c72565b9150606460d36004815481106115a7576115a7613c1a565b620697808360050154101580156117a75750621275008360050154105b156117fc576103e860d26005815481106117c3576117c3613c1a565b9060005260206000200154866117d99190613ba9565b6117e39190613c72565b91506103e860d36005815481106115a7576115a7613c1a565b6212750083600501541015801561181957506224ea008360050154105b1561186e5761271060d260068154811061183557611835613c1a565b90600052602060002001548661184b9190613ba9565b6118559190613c72565b915061271060d36006815481106115a7576115a7613c1a565b6224ea008360050154106118cc5761271060d260078154811061189357611893613c1a565b9060005260206000200154866118a99190613ba9565b6118b39190613c72565b915061271060d36007815481106115a7576115a7613c1a565b60405162461bcd60e51b815260206004820152601860248201527f536f6d657468696e6720697320766572792062726f6b656e00000000000000006044820152606401610b23565b61192b335b85546001600160a01b0316908461322c565b60cb548454611947916001600160a01b0391821691168361322c565b6003840154835464e8d4a510009161195e91613ba9565b6119689190613c72565b6001840155604051858152869033907ff279e6a1f5e320cca91135676d9cb6e44ca8a08c0b88342bcdb1144f6511b5689060200160405180910390a350504260038201555b505060016097555050565b60d28181548110610a1057600080fd5b600060de82815481106119dd576119dd613c1a565b90600052602060002090600402019050806002015442116119fc575050565b80546040516370a0823160e01b81523060048201526000916001600160a01b0316906370a082319060240160206040518083038186803b158015611a3f57600080fd5b505afa158015611a53573d6000803e3d6000fd5b505050506040513d601f19601f82011682018060405250810190611a779190613c94565b9050801580611a8857506001820154155b15611a9857504260029091015550565b6000806000806000611ab387600201544289600101546127de565b60c9546040516340c10f1960e01b8152959a50939850919650945092506001600160a01b0316906340c10f1990611af09030908890600401613cad565b600060405180830381600087803b158015611b0a57600080fd5b505af1158015611b1e573d6000803e3d6000fd5b50505050858464e8d4a51000611b349190613ba9565b611b3e9190613c72565b876003016000828254611b519190613b91565b909155505042600288015573465d89df3e9b1afb6957b58be6137feebb8e9f618515611ca957600060d454421115611b8a576000611ba1565b6064611b9788604b613ba9565b611ba19190613c72565b9050600060d454421115611bb55787611bcc565b6064611bc2896019613ba9565b611bcc9190613c72565b60c95460cb546040516340c10f1960e01b81529293506001600160a01b03918216926340c10f1992611c049216908590600401613cad565b600060405180830381600087803b158015611c1e57600080fd5b505af1158015611c32573d6000803e3d6000fd5b505050506000821115611ca65760cb546040516328a1f12360e11b81526001600160a01b0385811692635143e24692611c7392909116908690600401613cad565b600060405180830381600087803b158015611c8d57600080fd5b505af1158015611ca1573d6000803e3d6000fd5b505050505b50505b8315611de157600060d454421115611cc2576000611cd9565b6064611ccf86602d613ba9565b611cd99190613c72565b9050600060d454421115611ced5785611d04565b6064611cfa876037613ba9565b611d049190613c72565b60c95460cc546040516340c10f1960e01b81529293506001600160a01b03918216926340c10f1992611d3c9216908590600401613cad565b600060405180830381600087803b158015611d5657600080fd5b505af1158015611d6a573d6000803e3d6000fd5b505050506000821115611dde5760cc546040516328a1f12360e11b81526001600160a01b0385811692635143e24692611dab92909116908690600401613cad565b600060405180830381600087803b158015611dc557600080fd5b505af1158015611dd9573d6000803e3d6000fd5b505050505b50505b8215611f1957600060d454421115611dfa576000611e11565b6064611e07856055613ba9565b611e119190613c72565b9050600060d454421115611e255784611e3c565b6064611e3286600f613ba9565b611e3c9190613c72565b60c95460cd546040516340c10f1960e01b81529293506001600160a01b03918216926340c10f1992611e749216908590600401613cad565b600060405180830381600087803b158015611e8e57600080fd5b505af1158015611ea2573d6000803e3d6000fd5b505050506000821115611f165760cd546040516328a1f12360e11b81526001600160a01b0385811692635143e24692611ee392909116908690600401613cad565b600060405180830381600087803b158015611efd57600080fd5b505af1158015611f11573d6000803e3d6000fd5b505050505b50505b811561205157600060d454421115611f32576000611f49565b6064611f3f84605f613ba9565b611f499190613c72565b9050600060d454421115611f5d5783611f74565b6064611f6a856005613ba9565b611f749190613c72565b60c95460ce546040516340c10f1960e01b81529293506001600160a01b03918216926340c10f1992611fac9216908590600401613cad565b600060405180830381600087803b158015611fc657600080fd5b505af1158015611fda573d6000803e3d6000fd5b50505050600082111561204e5760ce546040516328a1f12360e11b81526001600160a01b0385811692635143e2469261201b92909116908690600401613cad565b600060405180830381600087803b15801561203557600080fd5b505af1158015612049573d6000803e3d6000fd5b505050505b50505b505050505050505050565b6002609754141561207f5760405162461bcd60e51b8152600401610b2390613be3565b6002609781905550600060de828154811061209c5761209c613c1a565b6000918252602080832085845260e0909152604083206004909202019250816120c23390565b6001600160a01b03166001600160a01b0316815260200190815260200160002090506000606460d26000815481106120fc576120fc613c1a565b906000526020600020015483600001546121169190613ba9565b6121209190613c72565b90506000606460d360008154811061213a5761213a613c1a565b906000526020600020015484600001546121549190613ba9565b61215e9190613c72565b60008085556001850155905061217333611919565b60cb54845461218f916001600160a01b0391821691168361322c565b604051828152859033907fbb757047c2b5f3974fe26b7c10f732e7bce710b0952a71082702781e62ae05959060200160405180910390a350506001609755505050565b60005b8151811015610e86576122008282815181106121f3576121f3613c1a565b60200260200101516126de565b8061220a81613bc8565b9150506121d5565b600080516020613e3683398151915261222b8133612dae565b50600092835260e0602090815260408085206001600160a01b039094168552929052912060030155565b60de5460005b81811015610e865761226c816119c8565b61227581613bc8565b905061225b565b600080516020613e568339815191526122958133612dae565b81156122a3576122a3612255565b8260de85815481106122b7576122b7613c1a565b90600052602060002090600402016001015460d8546122d69190613b7a565b6122e09190613b91565b60d8819055508260de85815481106122fa576122fa613c1a565b90600052602060002090600402016001018190555050505050565b600080516020613e3683398151915261232e8133612dae565b5060d455565b600080516020613e3683398151915261234d8133612dae565b8151610b2c9060d9906020850190613664565b600080516020613e368339815191526123798133612dae565b50600092835260e0602090815260408085206001600160a01b039094168552929052912060040155565b60d08181548110610a1057600080fd5b60d75460009081908410156123cc5760009150506109fa565b60005b60d1548110156124da57600060d182815481106123ee576123ee613c1a565b90600052602060002001549050600160d08054905061240d9190613b7a565b82111561242057600093505050506109fa565b80851161247457600060d0838154811061243c5761243c613c1a565b906000526020600020015487876124539190613b7a565b61245d9190613ba9565b90506124698185613b91565b9450505050506109fa565b808610156124c757600060d0838154811061249157612491613c1a565b906000526020600020015487836124a89190613b7a565b6124b29190613ba9565b905081965080846124c39190613b91565b9350505b50806124d281613bc8565b9150506123cf565b509392505050565b60009182526065602090815260408084206001600160a01b0393909316845291905290205460ff1690565b60008060de848154811061252357612523613c1a565b6000918252602080832087845260e0825260408085206001600160a01b038981168752935280852060049485029092016003810154815492516370a0823160e01b8152309681019690965290965091949193919216906370a082319060240160206040518083038186803b15801561259a57600080fd5b505afa1580156125ae573d6000803e3d6000fd5b505050506040513d601f19601f820116820180604052508101906125d29190613c94565b90508360020154421180156125e75750600081115b1561263357600061260185600201544287600101546127de565b5091935084925061261b915083905064e8d4a51000613ba9565b6126259190613c72565b61262f9084613b91565b9250505b6001830154835464e8d4a510009061264c908590613ba9565b6126569190613c72565b6126609190613b7a565b979650505050505050565b60008061268261267c600142613b7a565b426123b3565b905060d85460de848154811061269a5761269a613c1a565b90600052602060002090600402016001015460cf54836126ba9190613ba9565b6126c49190613ba9565b610a729190613c72565b60d98181548110610a1057600080fd5b6126e7816119c8565b6126f081613282565b50565b600080516020613e3683398151915261270c8133612dae565b8151610b2c9060d1906020850190613664565b600080516020613e368339815191526127388133612dae565b8151610b2c9060d0906020850190613664565b600080516020613e368339815191526127648133612dae565b8260011415612774575060d55550565b8260021415610adf575060d65550565b600082815260e0602090815260408083206001600160a01b038516845290915281206003810154156127c75760038101546127bf9042613b7a565b9150506109fa565b60048101546127d69042613b7a565b949350505050565b6000806000806000806127f189896123b3565b9050600060d8548860cf54846128079190613ba9565b6128119190613ba9565b61281b9190613c72565b9050600060c960009054906101000a90046001600160a01b03166001600160a01b03166318160ddd6040518163ffffffff1660e01b815260040160206040518083038186803b15801561286d57600080fd5b505afa158015612881573d6000803e3d6000fd5b505050506040513d601f19601f820116820180604052508101906128a59190613c94565b60c960009054906101000a90046001600160a01b03166001600160a01b031663355274ea6040518163ffffffff1660e01b815260040160206040518083038186803b1580156128f357600080fd5b505afa158015612907573d6000803e3d6000fd5b505050506040513d601f19601f8201168201806040525081019061292b9190613c94565b6129359190613b7a565b90508181101561295757600097508096506000955060009450600093506129cb565b606460da54836129679190613ba9565b6129719190613c72565b9750819650606460db54836129869190613ba9565b6129909190613c72565b9550606460dc54836129a29190613ba9565b6129ac9190613c72565b9450606460dd54836129be9190613ba9565b6129c89190613c72565b93505b505050939792965093509350565b6000828152606560205260409020600101546129f58133612dae565b610b2c8383612ef0565b60026097541415612a225760405162461bcd60e51b8152600401610b2390613be3565b600260975580612a935760405162461bcd60e51b815260206004820152603660248201527f4d6173746572496e766573746f723a3a6465706f7369743a20616d6f756e742060448201527506d7573742062652067726561746572207468616e20360541b6064820152608401610b23565b600060de8381548110612aa857612aa8613c1a565b6000918252602080832086845260e090915260408320600490920201925081612ace3390565b6001600160a01b0390811682526020808301939093526040918201600090812088825260e0855283822060cb549093168252919093529120909150612b12856119c8565b612b1b85613282565b612b323384546001600160a01b031690308761328c565b8154612b3f574260028301555b61271060d55485612b509190613ba9565b612b5a9190613c72565b612b649085613b7a565b826000016000828254612b779190613b91565b90915550506003830154825464e8d4a5100091612b9391613ba9565b612b9d9190613c72565b600183015560d65461271090612bb39086613ba9565b612bbd9190613c72565b612bc79085613b7a565b816000016000828254612bda9190613b91565b90915550506003830154815464e8d4a5100091612bf691613ba9565b612c009190613c72565b6001820155604051848152859033907f90890809c654f11d6e72a28fa60149770a0d11ec6c92319d6ceb2bb0a4ea1a159060200160405180910390a3600482015415612c4b57612c52565b4260048301555b50426006909101555050600160975550565b600080516020613e36833981519152612c7d8133612dae565b60c95460405163f2fde38b60e01b81526001600160a01b0384811660048301529091169063f2fde38b90602401600060405180830381600087803b158015612cc457600080fd5b505af1158015612cd8573d6000803e3d6000fd5b505050505050565b60d38181548110610a1057600080fd5b60d7546000908190841015612d095760649150506109fa565b60005b60d1548110156124da57600060d18281548110612d2b57612d2b613c1a565b90600052602060002001549050600160d980549050612d4a9190613b7a565b821115612d5d57600093505050506109fa565b808511612d8c5760d98281548110612d7757612d77613c1a565b906000526020600020015493505050506109fa565b5080612d9781613bc8565b915050612d0c565b6001600160a01b03163b151590565b612db882826124e2565b610e8657612dd0816001600160a01b031660146132c4565b612ddb8360206132c4565b604051602001612dec929190613cf2565b60408051601f198184030181529082905262461bcd60e51b8252610b2391600401613d67565b600054610100900460ff16612e395760405162461bcd60e51b8152600401610b2390613d9a565b565b600054610100900460ff16612e625760405162461bcd60e51b8152600401610b2390613d9a565b612e39613460565b612e7482826124e2565b610e865760008281526065602090815260408083206001600160a01b03851684529091529020805460ff19166001179055612eac3390565b6001600160a01b0316816001600160a01b0316837f2f8788117e7eff1d82e926ec794901d17c78024a50270940304540a733656f0d60405160405180910390a45050565b612efa82826124e2565b15610e865760008281526065602090815260408083206001600160a01b0385168085529252808320805460ff1916905551339285917ff6391f5c32d9c69d2a47ea670b442974b53935d1edc7fd64eb21e047a839171b9190a45050565b600060de8381548110612f6c57612f6c613c1a565b6000918252602080832086845260e0825260408085206001600160a01b0388168652909252922080546004909202909201925015610abd576000816001015464e8d4a5100084600301548460000154612fc59190613ba9565b612fcf9190613c72565b612fd99190613b7a565b60c9546040516370a0823160e01b81523060048201529192506000916001600160a01b03909116906370a082319060240160206040518083038186803b15801561302257600080fd5b505afa158015613036573d6000803e3d6000fd5b505050506040513d601f19601f8201168201806040525081019061305a9190613c94565b905080821115613068578091505b81156131fe57600060d4548460020154116130af57600061309361308d600142613b7a565b42612cf0565b905060646130a18286613ba9565b6130ab9190613c72565b9150505b60c9546001600160a01b031663a9059cbb876130cb8487613b7a565b6040518363ffffffff1660e01b81526004016130e8929190613cad565b602060405180830381600087803b15801561310257600080fd5b505af1158015613116573d6000803e3d6000fd5b505050506040513d601f19601f8201168201806040525081019061313a9190613de5565b5080156131b0576040516328a1f12360e11b815273465d89df3e9b1afb6957b58be6137feebb8e9f61908190635143e2469061317c908a908690600401613cad565b600060405180830381600087803b15801561319657600080fd5b505af11580156131aa573d6000803e3d6000fd5b50505050505b426002850155604080518481526020810183905288916001600160a01b038916917f3887f2857beaaf367eb618dfb5e22c1ebd74425affb0602c2e9fe126e3f860eb910160405180910390a3505b6003840154835464e8d4a510009161321591613ba9565b61321f9190613c72565b6001840155505050505050565b610b2c8363a9059cbb60e01b848460405160240161324b929190613cad565b60408051601f198184030181529190526020810180516001600160e01b03166001600160e01b03199093169290921790915261348e565b6126f08133612f57565b6040516001600160a01b0380851660248301528316604482015260648101829052610abd9085906323b872dd60e01b9060840161324b565b606060006132d3836002613ba9565b6132de906002613b91565b67ffffffffffffffff8111156132f6576132f6613707565b6040519080825280601f01601f191660200182016040528015613320576020820181803683370190505b509050600360fc1b8160008151811061333b5761333b613c1a565b60200101906001600160f81b031916908160001a905350600f60fb1b8160018151811061336a5761336a613c1a565b60200101906001600160f81b031916908160001a905350600061338e846002613ba9565b613399906001613b91565b90505b6001811115613411576f181899199a1a9b1b9c1cb0b131b232b360811b85600f16601081106133cd576133cd613c1a565b1a60f81b8282815181106133e3576133e3613c1a565b60200101906001600160f81b031916908160001a90535060049490941c9361340a81613e02565b905061339c565b508315610a725760405162461bcd60e51b815260206004820181905260248201527f537472696e67733a20686578206c656e67746820696e73756666696369656e746044820152606401610b23565b600054610100900460ff166134875760405162461bcd60e51b8152600401610b2390613d9a565b6001609755565b60006134e3826040518060400160405280602081526020017f5361666545524332303a206c6f772d6c6576656c2063616c6c206661696c6564815250856001600160a01b03166135609092919063ffffffff16565b805190915015610b2c57808060200190518101906135019190613de5565b610b2c5760405162461bcd60e51b815260206004820152602a60248201527f5361666545524332303a204552433230206f7065726174696f6e20646964206e6044820152691bdd081cdd58d8d9595960b21b6064820152608401610b23565b60606127d68484600085856001600160a01b0385163b6135c25760405162461bcd60e51b815260206004820152601d60248201527f416464726573733a2063616c6c20746f206e6f6e2d636f6e74726163740000006044820152606401610b23565b600080866001600160a01b031685876040516135de9190613e19565b60006040518083038185875af1925050503d806000811461361b576040519150601f19603f3d011682016040523d82523d6000602084013e613620565b606091505b50915091506126608282866060831561363a575081610a72565b82511561364a5782518084602001fd5b8160405162461bcd60e51b8152600401610b239190613d67565b82805482825590600052602060002090810192821561369f579160200282015b8281111561369f578251825591602001919060010190613684565b506136ab9291506136af565b5090565b5b808211156136ab57600081556001016136b0565b6000602082840312156136d657600080fd5b81356001600160e01b031981168114610a7257600080fd5b60006020828403121561370057600080fd5b5035919050565b634e487b7160e01b600052604160045260246000fd5b6040516101c0810167ffffffffffffffff8111828210171561374157613741613707565b60405290565b600082601f83011261375857600080fd5b8135602067ffffffffffffffff8083111561377557613775613707565b8260051b604051601f19603f8301168101818110848211171561379a5761379a613707565b6040529384528581018301938381019250878511156137b857600080fd5b83870191505b84821015612660578135835291830191908301906137be565b600080604083850312156137ea57600080fd5b82359150602083013567ffffffffffffffff81111561380857600080fd5b61381485828601613747565b9150509250929050565b6001600160a01b03811681146126f057600080fd5b803561383e8161381e565b919050565b60006020828403121561385557600080fd5b813567ffffffffffffffff8082111561386d57600080fd5b908301906101c0828603121561388257600080fd5b61388a61371d565b61389383613833565b81526020830135602082015260408301356040820152606083013560608201526080830135608082015260a083013560a08201526138d360c08401613833565b60c08201526138e460e08401613833565b60e08201526101006138f7818501613833565b90820152610120613909848201613833565b90820152610140838101358381111561392157600080fd5b61392d88828701613747565b828401525050610160808401358381111561394757600080fd5b61395388828701613747565b828401525050610180808401358381111561396d57600080fd5b61397988828701613747565b8284015250506101a0808401358381111561399357600080fd5b61399f88828701613747565b918301919091525095945050505050565b80151581146126f057600080fd5b6000806000606084860312156139d357600080fd5b8335925060208401356139e58161381e565b915060408401356139f5816139b0565b809150509250925092565b60008060408385031215613a1357600080fd5b823591506020830135613a258161381e565b809150509250929050565b60008060408385031215613a4357600080fd5b50508035926020909101359150565b600080600060608486031215613a6757600080fd5b833592506020840135915060408401356139f58161381e565b600060208284031215613a9257600080fd5b813567ffffffffffffffff811115613aa957600080fd5b6127d684828501613747565b600080600060608486031215613aca57600080fd5b833592506020840135613adc8161381e565b929592945050506040919091013590565b600080600060608486031215613b0257600080fd5b833592506020840135915060408401356139f5816139b0565b600080600060608486031215613b3057600080fd5b505081359360208301359350604090920135919050565b600060208284031215613b5957600080fd5b8135610a728161381e565b634e487b7160e01b600052601160045260246000fd5b600082821015613b8c57613b8c613b64565b500390565b60008219821115613ba457613ba4613b64565b500190565b6000816000190483118215151615613bc357613bc3613b64565b500290565b6000600019821415613bdc57613bdc613b64565b5060010190565b6020808252601f908201527f5265656e7472616e637947756172643a207265656e7472616e742063616c6c00604082015260600190565b634e487b7160e01b600052603260045260246000fd5b60208082526022908201527f4d6173746572496e766573746f723a3a77697468647261773a206e6f7420676f6040820152611bd960f21b606082015260800190565b600082613c8f57634e487b7160e01b600052601260045260246000fd5b500490565b600060208284031215613ca657600080fd5b5051919050565b6001600160a01b03929092168252602082015260400190565b60005b83811015613ce1578181015183820152602001613cc9565b83811115610abd5750506000910152565b7f416363657373436f6e74726f6c3a206163636f756e7420000000000000000000815260008351613d2a816017850160208801613cc6565b7001034b99036b4b9b9b4b733903937b6329607d1b6017918401918201528351613d5b816028840160208801613cc6565b01602801949350505050565b6020815260008251806020840152613d86816040850160208701613cc6565b601f01601f19169190910160400192915050565b6020808252602b908201527f496e697469616c697a61626c653a20636f6e7472616374206973206e6f74206960408201526a6e697469616c697a696e6760a81b606082015260800190565b600060208284031215613df757600080fd5b8151610a72816139b0565b600081613e1157613e11613b64565b506000190190565b60008251613e2b818460208701613cc6565b919091019291505056fe0393b4c1b6519e8b53ae0efa1ab522060a3b9f8d86d09c8a22ca6d6eea735cf7a49807205ce4d355092ef5a8a18f56e8913cf4a201fbe287825b095693c21775a26469706673582212202340b6e1134d47b2720e43b5c531eddbf311fd81a8f13b3311fe722b0afdf8e864736f6c63430008090033",
  "linkReferences": {},
  "deployedLinkReferences": {}
}