{
  "_format": "hh-sol-artifact-1",
  "contractName": "MasterInvestor",
  "sourceName": "contracts/npc/MasterInvestor.sol",
  "abi": [
    {
      "inputs": [],
      "stateMutability": "nonpayable",
      "type": "constructor"
    },
    {
      "anonymous": false,
      "inputs": [
        {
          "indexed": true,
          "internalType": "address",
          "name": "user",
          "type": "address"
        },
        {
          "indexed": true,
          "internalType": "uint256",
          "name": "pid",
          "type": "uint256"
        },
        {
          "indexed": false,
          "internalType": "uint256",
          "name": "amount",
          "type": "uint256"
        }
      ],
      "name": "Deposit",
      "type": "event"
    },
    {
      "anonymous": false,
      "inputs": [
        {
          "indexed": true,
          "internalType": "address",
          "name": "user",
          "type": "address"
        },
        {
          "indexed": true,
          "internalType": "uint256",
          "name": "pid",
          "type": "uint256"
        },
        {
          "indexed": false,
          "internalType": "uint256",
          "name": "amount",
          "type": "uint256"
        }
      ],
      "name": "EmergencyWithdraw",
      "type": "event"
    },
    {
      "anonymous": false,
      "inputs": [
        {
          "indexed": true,
          "internalType": "bytes32",
          "name": "role",
          "type": "bytes32"
        },
        {
          "indexed": true,
          "internalType": "bytes32",
          "name": "previousAdminRole",
          "type": "bytes32"
        },
        {
          "indexed": true,
          "internalType": "bytes32",
          "name": "newAdminRole",
          "type": "bytes32"
        }
      ],
      "name": "RoleAdminChanged",
      "type": "event"
    },
    {
      "anonymous": false,
      "inputs": [
        {
          "indexed": true,
          "internalType": "bytes32",
          "name": "role",
          "type": "bytes32"
        },
        {
          "indexed": true,
          "internalType": "address",
          "name": "account",
          "type": "address"
        },
        {
          "indexed": true,
          "internalType": "address",
          "name": "sender",
          "type": "address"
        }
      ],
      "name": "RoleGranted",
      "type": "event"
    },
    {
      "anonymous": false,
      "inputs": [
        {
          "indexed": true,
          "internalType": "bytes32",
          "name": "role",
          "type": "bytes32"
        },
        {
          "indexed": true,
          "internalType": "address",
          "name": "account",
          "type": "address"
        },
        {
          "indexed": true,
          "internalType": "address",
          "name": "sender",
          "type": "address"
        }
      ],
      "name": "RoleRevoked",
      "type": "event"
    },
    {
      "anonymous": false,
      "inputs": [
        {
          "indexed": true,
          "internalType": "address",
          "name": "user",
          "type": "address"
        },
        {
          "indexed": true,
          "internalType": "uint256",
          "name": "pid",
          "type": "uint256"
        },
        {
          "indexed": false,
          "internalType": "uint256",
          "name": "amount",
          "type": "uint256"
        },
        {
          "indexed": false,
          "internalType": "uint256",
          "name": "lockAmount",
          "type": "uint256"
        }
      ],
      "name": "SendGovernanceTokenReward",
      "type": "event"
    },
    {
      "anonymous": false,
      "inputs": [
        {
          "indexed": true,
          "internalType": "address",
          "name": "user",
          "type": "address"
        },
        {
          "indexed": true,
          "internalType": "uint256",
          "name": "pid",
          "type": "uint256"
        },
        {
          "indexed": false,
          "internalType": "uint256",
          "name": "amount",
          "type": "uint256"
        }
      ],
      "name": "Withdraw",
      "type": "event"
    },
    {
      "inputs": [],
      "name": "ADMIN_ROLE",
      "outputs": [
        {
          "internalType": "bytes32",
          "name": "",
          "type": "bytes32"
        }
      ],
      "stateMutability": "view",
      "type": "function"
    },
    {
      "inputs": [],
      "name": "AUTHORIZED_ROLE",
      "outputs": [
        {
          "internalType": "bytes32",
          "name": "",
          "type": "bytes32"
        }
      ],
      "stateMutability": "view",
      "type": "function"
    },
    {
      "inputs": [],
      "name": "COMMUNITY_FUND_ADDRESS",
      "outputs": [
        {
          "internalType": "address",
          "name": "",
          "type": "address"
        }
      ],
      "stateMutability": "view",
      "type": "function"
    },
    {
      "inputs": [],
      "name": "DEFAULT_ADMIN_ROLE",
      "outputs": [
        {
          "internalType": "bytes32",
          "name": "",
          "type": "bytes32"
        }
      ],
      "stateMutability": "view",
      "type": "function"
    },
    {
      "inputs": [],
      "name": "DEV_ADDRESS",
      "outputs": [
        {
          "internalType": "address",
          "name": "",
          "type": "address"
        }
      ],
      "stateMutability": "view",
      "type": "function"
    },
    {
      "inputs": [],
      "name": "DEV_DEP_FEE",
      "outputs": [
        {
          "internalType": "uint256",
          "name": "",
          "type": "uint256"
        }
      ],
      "stateMutability": "view",
      "type": "function"
    },
    {
      "inputs": [
        {
          "internalType": "uint256",
          "name": "",
          "type": "uint256"
        }
      ],
      "name": "DEV_FEE_STAGES",
      "outputs": [
        {
          "internalType": "uint256",
          "name": "",
          "type": "uint256"
        }
      ],
      "stateMutability": "view",
      "type": "function"
    },
    {
      "inputs": [],
      "name": "FINISH_BONUS_AT_TIME",
      "outputs": [
        {
          "internalType": "uint256",
          "name": "",
          "type": "uint256"
        }
      ],
      "stateMutability": "view",
      "type": "function"
    },
    {
      "inputs": [],
      "name": "FOUNDER_ADDRESS",
      "outputs": [
        {
          "internalType": "address",
          "name": "",
          "type": "address"
        }
      ],
      "stateMutability": "view",
      "type": "function"
    },
    {
      "inputs": [],
      "name": "GOV_TOKEN",
      "outputs": [
        {
          "internalType": "contract EvoToken",
          "name": "",
          "type": "address"
        }
      ],
      "stateMutability": "view",
      "type": "function"
    },
    {
      "inputs": [
        {
          "internalType": "uint256",
          "name": "",
          "type": "uint256"
        }
      ],
      "name": "HALVING_AT_TIMES",
      "outputs": [
        {
          "internalType": "uint256",
          "name": "",
          "type": "uint256"
        }
      ],
      "stateMutability": "view",
      "type": "function"
    },
    {
      "inputs": [],
      "name": "LP_ADDRESS",
      "outputs": [
        {
          "internalType": "address",
          "name": "",
          "type": "address"
        }
      ],
      "stateMutability": "view",
      "type": "function"
    },
    {
      "inputs": [],
      "name": "PERCENT_FOR_COM",
      "outputs": [
        {
          "internalType": "uint256",
          "name": "",
          "type": "uint256"
        }
      ],
      "stateMutability": "view",
      "type": "function"
    },
    {
      "inputs": [],
      "name": "PERCENT_FOR_DEV",
      "outputs": [
        {
          "internalType": "uint256",
          "name": "",
          "type": "uint256"
        }
      ],
      "stateMutability": "view",
      "type": "function"
    },
    {
      "inputs": [],
      "name": "PERCENT_FOR_FOUNDERS",
      "outputs": [
        {
          "internalType": "uint256",
          "name": "",
          "type": "uint256"
        }
      ],
      "stateMutability": "view",
      "type": "function"
    },
    {
      "inputs": [],
      "name": "PERCENT_FOR_LP",
      "outputs": [
        {
          "internalType": "uint256",
          "name": "",
          "type": "uint256"
        }
      ],
      "stateMutability": "view",
      "type": "function"
    },
    {
      "inputs": [
        {
          "internalType": "uint256",
          "name": "",
          "type": "uint256"
        }
      ],
      "name": "PERCENT_LOCK_BONUS_REWARD",
      "outputs": [
        {
          "internalType": "uint256",
          "name": "",
          "type": "uint256"
        }
      ],
      "stateMutability": "view",
      "type": "function"
    },
    {
      "inputs": [
        {
          "internalType": "uint256",
          "name": "",
          "type": "uint256"
        }
      ],
      "name": "REWARD_MULTIPLIERS",
      "outputs": [
        {
          "internalType": "uint256",
          "name": "",
          "type": "uint256"
        }
      ],
      "stateMutability": "view",
      "type": "function"
    },
    {
      "inputs": [],
      "name": "REWARD_PER_SECOND",
      "outputs": [
        {
          "internalType": "uint256",
          "name": "",
          "type": "uint256"
        }
      ],
      "stateMutability": "view",
      "type": "function"
    },
    {
      "inputs": [],
      "name": "START_TIME",
      "outputs": [
        {
          "internalType": "uint256",
          "name": "",
          "type": "uint256"
        }
      ],
      "stateMutability": "view",
      "type": "function"
    },
    {
      "inputs": [],
      "name": "TOTAL_ALLOCATION_POINTS",
      "outputs": [
        {
          "internalType": "uint256",
          "name": "",
          "type": "uint256"
        }
      ],
      "stateMutability": "view",
      "type": "function"
    },
    {
      "inputs": [],
      "name": "USD_ORACLE",
      "outputs": [
        {
          "internalType": "address",
          "name": "",
          "type": "address"
        }
      ],
      "stateMutability": "view",
      "type": "function"
    },
    {
      "inputs": [],
      "name": "USER_DEP_FEE",
      "outputs": [
        {
          "internalType": "uint256",
          "name": "",
          "type": "uint256"
        }
      ],
      "stateMutability": "view",
      "type": "function"
    },
    {
      "inputs": [
        {
          "internalType": "uint256",
          "name": "",
          "type": "uint256"
        }
      ],
      "name": "USER_FEE_STAGES",
      "outputs": [
        {
          "internalType": "uint256",
          "name": "",
          "type": "uint256"
        }
      ],
      "stateMutability": "view",
      "type": "function"
    },
    {
      "inputs": [
        {
          "internalType": "uint256",
          "name": "_allocPoint",
          "type": "uint256"
        },
        {
          "internalType": "contract IERC20Upgradeable",
          "name": "_lpToken",
          "type": "address"
        },
        {
          "internalType": "bool",
          "name": "_withUpdate",
          "type": "bool"
        }
      ],
      "name": "add",
      "outputs": [],
      "stateMutability": "nonpayable",
      "type": "function"
    },
    {
      "inputs": [
        {
          "internalType": "uint256",
          "name": "_pid",
          "type": "uint256"
        }
      ],
      "name": "claimReward",
      "outputs": [],
      "stateMutability": "nonpayable",
      "type": "function"
    },
    {
      "inputs": [
        {
          "internalType": "uint256[]",
          "name": "_pids",
          "type": "uint256[]"
        }
      ],
      "name": "claimRewards",
      "outputs": [],
      "stateMutability": "nonpayable",
      "type": "function"
    },
    {
      "inputs": [
        {
          "internalType": "uint256",
          "name": "_pid",
          "type": "uint256"
        },
        {
          "internalType": "uint256",
          "name": "_amount",
          "type": "uint256"
        }
      ],
      "name": "deposit",
      "outputs": [],
      "stateMutability": "nonpayable",
      "type": "function"
    },
    {
      "inputs": [
        {
          "internalType": "uint256",
          "name": "_pid",
          "type": "uint256"
        }
      ],
      "name": "emergencyWithdraw",
      "outputs": [],
      "stateMutability": "nonpayable",
      "type": "function"
    },
    {
      "inputs": [
        {
          "internalType": "uint256",
          "name": "_from",
          "type": "uint256"
        },
        {
          "internalType": "uint256",
          "name": "_to",
          "type": "uint256"
        }
      ],
      "name": "getLockPercentage",
      "outputs": [
        {
          "internalType": "uint256",
          "name": "",
          "type": "uint256"
        }
      ],
      "stateMutability": "view",
      "type": "function"
    },
    {
      "inputs": [
        {
          "internalType": "uint256",
          "name": "_from",
          "type": "uint256"
        },
        {
          "internalType": "uint256",
          "name": "_to",
          "type": "uint256"
        }
      ],
      "name": "getMultiplier",
      "outputs": [
        {
          "internalType": "uint256",
          "name": "",
          "type": "uint256"
        }
      ],
      "stateMutability": "view",
      "type": "function"
    },
    {
      "inputs": [
        {
          "internalType": "uint256",
          "name": "pid1",
          "type": "uint256"
        }
      ],
      "name": "getNewRewardPerSecond",
      "outputs": [
        {
          "internalType": "uint256",
          "name": "",
          "type": "uint256"
        }
      ],
      "stateMutability": "view",
      "type": "function"
    },
    {
      "inputs": [
        {
          "internalType": "uint256",
          "name": "_from",
          "type": "uint256"
        },
        {
          "internalType": "uint256",
          "name": "_to",
          "type": "uint256"
        },
        {
          "internalType": "uint256",
          "name": "_allocPoint",
          "type": "uint256"
        }
      ],
      "name": "getPoolReward",
      "outputs": [
        {
          "internalType": "uint256",
          "name": "forDev",
          "type": "uint256"
        },
        {
          "internalType": "uint256",
          "name": "forFarmer",
          "type": "uint256"
        },
        {
          "internalType": "uint256",
          "name": "forLP",
          "type": "uint256"
        },
        {
          "internalType": "uint256",
          "name": "forCom",
          "type": "uint256"
        },
        {
          "internalType": "uint256",
          "name": "forFounders",
          "type": "uint256"
        }
      ],
      "stateMutability": "view",
      "type": "function"
    },
    {
      "inputs": [
        {
          "internalType": "bytes32",
          "name": "role",
          "type": "bytes32"
        }
      ],
      "name": "getRoleAdmin",
      "outputs": [
        {
          "internalType": "bytes32",
          "name": "",
          "type": "bytes32"
        }
      ],
      "stateMutability": "view",
      "type": "function"
    },
    {
      "inputs": [
        {
          "internalType": "bytes32",
          "name": "role",
          "type": "bytes32"
        },
        {
          "internalType": "address",
          "name": "account",
          "type": "address"
        }
      ],
      "name": "grantRole",
      "outputs": [],
      "stateMutability": "nonpayable",
      "type": "function"
    },
    {
      "inputs": [
        {
          "internalType": "bytes32",
          "name": "role",
          "type": "bytes32"
        },
        {
          "internalType": "address",
          "name": "account",
          "type": "address"
        }
      ],
      "name": "hasRole",
      "outputs": [
        {
          "internalType": "bool",
          "name": "",
          "type": "bool"
        }
      ],
      "stateMutability": "view",
      "type": "function"
    },
    {
      "inputs": [
        {
          "components": [
            {
              "internalType": "contract EvoToken",
              "name": "govToken",
              "type": "address"
            },
            {
              "internalType": "uint256",
              "name": "rewardPerSecond",
              "type": "uint256"
            },
            {
              "internalType": "uint256",
              "name": "startTime",
              "type": "uint256"
            },
            {
              "internalType": "uint256",
              "name": "halvingAfterTime",
              "type": "uint256"
            },
            {
              "internalType": "uint256",
              "name": "userDepositFee",
              "type": "uint256"
            },
            {
              "internalType": "uint256",
              "name": "devDepositFee",
              "type": "uint256"
            },
            {
              "internalType": "address",
              "name": "devAddress",
              "type": "address"
            },
            {
              "internalType": "address",
              "name": "lpAddress",
              "type": "address"
            },
            {
              "internalType": "address",
              "name": "communityFundAddress",
              "type": "address"
            },
            {
              "internalType": "address",
              "name": "founderAddress",
              "type": "address"
            },
            {
              "internalType": "uint256[]",
              "name": "rewardMultipliers",
              "type": "uint256[]"
            },
            {
              "internalType": "uint256[]",
              "name": "userFeeStages",
              "type": "uint256[]"
            },
            {
              "internalType": "uint256[]",
              "name": "devFeeStages",
              "type": "uint256[]"
            },
            {
              "internalType": "uint256[]",
              "name": "percentLockBonusReward",
              "type": "uint256[]"
            }
          ],
          "internalType": "struct MasterInvestor.ConstructorParams",
          "name": "params",
          "type": "tuple"
        }
      ],
      "name": "initialize",
      "outputs": [],
      "stateMutability": "nonpayable",
      "type": "function"
    },
    {
      "inputs": [],
      "name": "massUpdatePools",
      "outputs": [],
      "stateMutability": "nonpayable",
      "type": "function"
    },
    {
      "inputs": [
        {
          "internalType": "uint256",
          "name": "_pid",
          "type": "uint256"
        },
        {
          "internalType": "address",
          "name": "_user",
          "type": "address"
        }
      ],
      "name": "pendingReward",
      "outputs": [
        {
          "internalType": "uint256",
          "name": "",
          "type": "uint256"
        }
      ],
      "stateMutability": "view",
      "type": "function"
    },
    {
      "inputs": [
        {
          "internalType": "contract IERC20Upgradeable",
          "name": "",
          "type": "address"
        }
      ],
      "name": "poolExistence",
      "outputs": [
        {
          "internalType": "bool",
          "name": "",
          "type": "bool"
        }
      ],
      "stateMutability": "view",
      "type": "function"
    },
    {
      "inputs": [
        {
          "internalType": "address",
          "name": "",
          "type": "address"
        }
      ],
      "name": "poolId",
      "outputs": [
        {
          "internalType": "uint256",
          "name": "",
          "type": "uint256"
        }
      ],
      "stateMutability": "view",
      "type": "function"
    },
    {
      "inputs": [
        {
          "internalType": "uint256",
          "name": "",
          "type": "uint256"
        }
      ],
      "name": "poolInfo",
      "outputs": [
        {
          "internalType": "contract IERC20Upgradeable",
          "name": "lpToken",
          "type": "address"
        },
        {
          "internalType": "uint256",
          "name": "allocPoint",
          "type": "uint256"
        },
        {
          "internalType": "uint256",
          "name": "lastRewardTime",
          "type": "uint256"
        },
        {
          "internalType": "uint256",
          "name": "accGovTokenPerShare",
          "type": "uint256"
        }
      ],
      "stateMutability": "view",
      "type": "function"
    },
    {
      "inputs": [],
      "name": "poolLength",
      "outputs": [
        {
          "internalType": "uint256",
          "name": "",
          "type": "uint256"
        }
      ],
      "stateMutability": "view",
      "type": "function"
    },
    {
      "inputs": [
        {
          "internalType": "address",
          "name": "_newOwner",
          "type": "address"
        }
      ],
      "name": "reclaimTokenOwnership",
      "outputs": [],
      "stateMutability": "nonpayable",
      "type": "function"
    },
    {
      "inputs": [
        {
          "internalType": "bytes32",
          "name": "role",
          "type": "bytes32"
        },
        {
          "internalType": "address",
          "name": "account",
          "type": "address"
        }
      ],
      "name": "renounceRole",
      "outputs": [],
      "stateMutability": "nonpayable",
      "type": "function"
    },
    {
      "inputs": [
        {
          "internalType": "uint256",
          "name": "_pid",
          "type": "uint256"
        },
        {
          "internalType": "address",
          "name": "_user",
          "type": "address"
        },
        {
          "internalType": "uint256",
          "name": "_time",
          "type": "uint256"
        }
      ],
      "name": "reviseDeposit",
      "outputs": [],
      "stateMutability": "nonpayable",
      "type": "function"
    },
    {
      "inputs": [
        {
          "internalType": "uint256",
          "name": "_pid",
          "type": "uint256"
        },
        {
          "internalType": "address",
          "name": "_user",
          "type": "address"
        },
        {
          "internalType": "uint256",
          "name": "_time",
          "type": "uint256"
        }
      ],
      "name": "reviseWithdraw",
      "outputs": [],
      "stateMutability": "nonpayable",
      "type": "function"
    },
    {
      "inputs": [
        {
          "internalType": "bytes32",
          "name": "role",
          "type": "bytes32"
        },
        {
          "internalType": "address",
          "name": "account",
          "type": "address"
        }
      ],
      "name": "revokeRole",
      "outputs": [],
      "stateMutability": "nonpayable",
      "type": "function"
    },
    {
      "inputs": [
        {
          "internalType": "uint256",
          "name": "_pid",
          "type": "uint256"
        },
        {
          "internalType": "uint256",
          "name": "_allocPoint",
          "type": "uint256"
        },
        {
          "internalType": "bool",
          "name": "_withUpdate",
          "type": "bool"
        }
      ],
      "name": "set",
      "outputs": [],
      "stateMutability": "nonpayable",
      "type": "function"
    },
    {
      "inputs": [
        {
          "internalType": "bytes4",
          "name": "interfaceId",
          "type": "bytes4"
        }
      ],
      "name": "supportsInterface",
      "outputs": [
        {
          "internalType": "bool",
          "name": "",
          "type": "bool"
        }
      ],
      "stateMutability": "view",
      "type": "function"
    },
    {
      "inputs": [],
      "name": "totalAllocPoint",
      "outputs": [
        {
          "internalType": "uint256",
          "name": "",
          "type": "uint256"
        }
      ],
      "stateMutability": "view",
      "type": "function"
    },
    {
      "inputs": [
        {
          "internalType": "uint256",
          "name": "kind",
          "type": "uint256"
        },
        {
          "internalType": "address",
          "name": "_address",
          "type": "address"
        }
      ],
      "name": "updateAddress",
      "outputs": [],
      "stateMutability": "nonpayable",
      "type": "function"
    },
    {
      "inputs": [
        {
          "internalType": "uint256",
          "name": "kind",
          "type": "uint256"
        },
        {
          "internalType": "uint256",
          "name": "fee",
          "type": "uint256"
        }
      ],
      "name": "updateDepositFee",
      "outputs": [],
      "stateMutability": "nonpayable",
      "type": "function"
    },
    {
      "inputs": [
        {
          "internalType": "uint256",
          "name": "kind",
          "type": "uint256"
        },
        {
          "internalType": "uint256[]",
          "name": "feeStages",
          "type": "uint256[]"
        }
      ],
      "name": "updateFeeStages",
      "outputs": [],
      "stateMutability": "nonpayable",
      "type": "function"
    },
    {
      "inputs": [
        {
          "internalType": "uint256[]",
          "name": "times",
          "type": "uint256[]"
        }
      ],
      "name": "updateHalvingAtTimes",
      "outputs": [],
      "stateMutability": "nonpayable",
      "type": "function"
    },
    {
      "inputs": [
        {
          "internalType": "uint256",
          "name": "time",
          "type": "uint256"
        }
      ],
      "name": "updateLastRewardTime",
      "outputs": [],
      "stateMutability": "nonpayable",
      "type": "function"
    },
    {
      "inputs": [
        {
          "internalType": "uint256",
          "name": "kind",
          "type": "uint256"
        },
        {
          "internalType": "uint256",
          "name": "percent",
          "type": "uint256"
        }
      ],
      "name": "updateLockPercent",
      "outputs": [],
      "stateMutability": "nonpayable",
      "type": "function"
    },
    {
      "inputs": [
        {
          "internalType": "uint256",
          "name": "_pid",
          "type": "uint256"
        }
      ],
      "name": "updatePool",
      "outputs": [],
      "stateMutability": "nonpayable",
      "type": "function"
    },
    {
      "inputs": [
        {
          "internalType": "uint256[]",
          "name": "multipliers",
          "type": "uint256[]"
        }
      ],
      "name": "updateRewardMultipliers",
      "outputs": [],
      "stateMutability": "nonpayable",
      "type": "function"
    },
    {
      "inputs": [
        {
          "internalType": "uint256",
          "name": "reward",
          "type": "uint256"
        }
      ],
      "name": "updateRewardPerSecond",
      "outputs": [],
      "stateMutability": "nonpayable",
      "type": "function"
    },
    {
      "inputs": [
        {
          "internalType": "uint256",
          "name": "time",
          "type": "uint256"
        }
      ],
      "name": "updateStartTime",
      "outputs": [],
      "stateMutability": "nonpayable",
      "type": "function"
    },
    {
      "inputs": [
        {
          "internalType": "uint256[]",
          "name": "lockPercents",
          "type": "uint256[]"
        }
      ],
      "name": "updateUserLockPercents",
      "outputs": [],
      "stateMutability": "nonpayable",
      "type": "function"
    },
    {
      "inputs": [
        {
          "internalType": "uint256",
          "name": "_pid",
          "type": "uint256"
        }
      ],
      "name": "userDelta",
      "outputs": [
        {
          "internalType": "uint256",
          "name": "",
          "type": "uint256"
        }
      ],
      "stateMutability": "view",
      "type": "function"
    },
    {
      "inputs": [
        {
          "internalType": "address",
          "name": "",
          "type": "address"
        }
      ],
      "name": "userGlobalInfo",
      "outputs": [
        {
          "internalType": "uint256",
          "name": "",
          "type": "uint256"
        }
      ],
      "stateMutability": "view",
      "type": "function"
    },
    {
      "inputs": [
        {
          "internalType": "uint256",
          "name": "",
          "type": "uint256"
        },
        {
          "internalType": "address",
          "name": "",
          "type": "address"
        }
      ],
      "name": "userInfo",
      "outputs": [
        {
          "internalType": "uint256",
          "name": "amount",
          "type": "uint256"
        },
        {
          "internalType": "uint256",
          "name": "rewardDebt",
          "type": "uint256"
        },
        {
          "internalType": "uint256",
          "name": "rewardDebtAtTime",
          "type": "uint256"
        },
        {
          "internalType": "uint256",
          "name": "lastWithdrawTime",
          "type": "uint256"
        },
        {
          "internalType": "uint256",
          "name": "firstDepositTime",
          "type": "uint256"
        },
        {
          "internalType": "uint256",
          "name": "timeDelta",
          "type": "uint256"
        },
        {
          "internalType": "uint256",
          "name": "lastDepositTime",
          "type": "uint256"
        }
      ],
      "stateMutability": "view",
      "type": "function"
    },
    {
      "inputs": [
        {
          "internalType": "uint256",
          "name": "_pid",
          "type": "uint256"
        },
        {
          "internalType": "uint256",
          "name": "_amount",
          "type": "uint256"
        }
      ],
      "name": "withdraw",
      "outputs": [],
      "stateMutability": "nonpayable",
      "type": "function"
    }
  ],
  "bytecode": "0x60806040523480156200001157600080fd5b50600054610100900460ff166200002f5760005460ff161562000039565b62000039620000de565b620000a15760405162461bcd60e51b815260206004820152602e60248201527f496e697469616c697a61626c653a20636f6e747261637420697320616c72656160448201526d191e481a5b9a5d1a585b1a5e995960921b606482015260840160405180910390fd5b600054610100900460ff16158015620000c4576000805461ffff19166101011790555b8015620000d7576000805461ff00191690555b506200010b565b6000620000f630620000fc60201b62002ac61760201c565b15905090565b6001600160a01b03163b151590565b613bb1806200011b6000396000f3fe608060405234801561001057600080fd5b50600436106103e65760003560e01c806375b238fc1161020a578063c6929e5311610125578063e2bbb158116100b8578063f491adf711610087578063f491adf71461091f578063f646825114610932578063f92d34a914610947578063f930e7701461095a578063ff51a2721461096d57600080fd5b8063e2bbb158146108dd578063ed9bdeda146108f0578063eda67048146108f9578063f1528cee1461090c57600080fd5b8063d56cf10f116100f4578063d56cf10f14610898578063d79c3953146108ab578063d9608d8a146108b4578063ddaa26ad146108d457600080fd5b8063c6929e531461081e578063c8ed768014610827578063cbd258b514610862578063d547741f1461088557600080fd5b80639b963d2a1161019d578063ae169a501161016c578063ae169a50146107d2578063b7877716146107e5578063bd27e3f8146107f8578063c35cadbe1461080b57600080fd5b80639b963d2a1461079b578063a02306f9146107ae578063a217fddf146107b7578063a82859c5146107bf57600080fd5b80638dbb1e3a116101d95780638dbb1e3a146106d057806391d14854146106e357806393f1a40b146106f657806398969e821461078857600080fd5b806375b238fc1461068c5780637c0c5788146106a157806382386d58146106aa578063874feed3146106bd57600080fd5b806335582e68116103055780635312ea8e116102985780636066debd116102675780636066debd14610638578063630b5ba11461064b57806364482f79146106535780636461fc8c1461066657806365cf37711461067957600080fd5b80635312ea8e146105f65780635639e8cf1461060957806356407a611461061c5780635eac62391461062557600080fd5b8063441a3e70116102d4578063441a3e70146105b45780634abbbd28146105c75780634b0cf206146105d057806351eb05a6146105e357600080fd5b806335582e681461057257806336568abe146105855780634004c8e71461059857806343628fb4146105ab57600080fd5b80631526fe271161037d578063248a9ca31161034c578063248a9ca3146105165780632ab29df7146105395780632f2ff15d1461054c57806332399e921461055f57600080fd5b80631526fe27146104ab57806317caf6f1146104e85780631b80c010146104f05780631eaaa0451461050357600080fd5b8063081e3eda116103b9578063081e3eda1461047457806309ae4d2c1461047c5780630a67d5181461048f5780630d329fea1461049857600080fd5b806301ffc9a7146103eb578063027e69991461041357806304aa0f611461043457806306bcf02f1461045f575b600080fd5b6103fe6103f936600461343a565b61098d565b60405190151581526020015b60405180910390f35b610426610421366004613464565b6109c4565b60405190815260200161040a565b60ce54610447906001600160a01b031681565b6040516001600160a01b03909116815260200161040a565b61047261046d366004613464565b6109e5565b005b60de54610426565b61042661048a366004613464565b610a04565b61042660db5481565b6104726104a636600461354d565b610a4c565b6104be6104b9366004613464565b610af5565b604080516001600160a01b039095168552602085019390935291830152606082015260800161040a565b60d854610426565b6104726104fe3660046135b9565b610b39565b610472610511366004613734565b610e4e565b610426610524366004613464565b60009081526065602052604090206001015490565b610472610547366004613776565b6110c0565b61047261055a366004613776565b61117d565b60cd54610447906001600160a01b031681565b6104726105803660046137a6565b6111a3565b610472610593366004613776565b6111fc565b6104726105a6366004613464565b611276565b61042660d85481565b6104726105c23660046137a6565b611295565b61042660d45481565b6104266105de366004613464565b611853565b6104726105f1366004613464565b611863565b610472610604366004613464565b611ddd565b60cb54610447906001600160a01b031681565b61042660d65481565b6104726106333660046137c8565b611f53565b6104726106463660046137fd565b611f93565b610472611fd6565b610472610661366004613835565b611ffd565b610472610674366004613464565b612096565b6104726106873660046137c8565b6120b5565b610426600080516020613b5c83398151915281565b61042660d55481565b6104726106b83660046137fd565b6120e1565b6104266106cb366004613464565b612124565b6104266106de3660046137a6565b612134565b6103fe6106f1366004613776565b612263565b610753610704366004613776565b60e0602052816000526040600020602052806000526040600020600091509150508060000154908060010154908060020154908060030154908060040154908060050154908060060154905087565b604080519788526020880196909652948601939093526060850191909152608084015260a083015260c082015260e00161040a565b610426610796366004613776565b61228e565b6104266107a9366004613464565b6123ec565b61042660dc5481565b610426600081565b6104266107cd366004613464565b61244f565b6104726107e0366004613464565b61245f565b6104726107f33660046137c8565b612474565b6104726108063660046137c8565b6124a0565b6104726108193660046137a6565b6124cc565b61042660dd5481565b61083a610835366004613863565b612505565b604080519586526020860194909452928401919091526060830152608082015260a00161040a565b6103fe61087036600461388f565b60e26020526000908152604090205460ff1681565b610472610893366004613776565b612700565b60cc54610447906001600160a01b031681565b61042660cf5481565b6104266108c236600461388f565b60e16020526000908152604090205481565b61042660d75481565b6104726108eb3660046137a6565b612726565b61042660da5481565b61047261090736600461388f565b61298b565b60ca54610447906001600160a01b031681565b61042661092d366004613464565b612a07565b610426600080516020613b3c83398151915281565b60c954610447906001600160a01b031681565b6104266109683660046137a6565b612a17565b61042661097b36600461388f565b60df6020526000908152604090205481565b60006001600160e01b03198216637965db0b60e01b14806109be57506301ffc9a760e01b6001600160e01b03198316145b92915050565b60d181815481106109d457600080fd5b600091825260209091200154905081565b600080516020613b3c8339815191526109fe8133612ad5565b5060d755565b600081815260e0602090815260408083203384529091528120600381015415610a3d576003810154610a3690426138c2565b9392505050565b6004810154610a3690426138c2565b600080516020613b3c833981519152610a658133612ad5565b8260011415610a87578151610a819060d29060208501906133da565b50505050565b8260021415610aa3578151610a819060d39060208501906133da565b60405162461bcd60e51b815260206004820152601760248201527f496e76616c6964206b696e64206964656e74696669657200000000000000000060448201526064015b60405180910390fd5b505050565b60de8181548110610b0557600080fd5b600091825260209091206004909102018054600182015460028301546003909301546001600160a01b039092169350919084565b600054610100900460ff16610b545760005460ff1615610b58565b303b155b610bbb5760405162461bcd60e51b815260206004820152602e60248201527f496e697469616c697a61626c653a20636f6e747261637420697320616c72656160448201526d191e481a5b9a5d1a585b1a5e995960921b6064820152608401610ae7565b600054610100900460ff16158015610bdd576000805461ffff19166101011790555b610be5612b39565b610bed612b62565b610bf8600033612b91565b610c10600080516020613b5c83398151915233612b91565b610c28600080516020613b3c83398151915233612b91565b6101608201518051610c429160d2916020909101906133da565b506101808201518051610c5d9160d3916020909101906133da565b50815160c980546001600160a01b0319166001600160a01b0390921691909117905560208083015160cf55604083015160d755608083015160d55560a083015160d6556101408301518051610cb69260d09201906133da565b5060c082015160cb80546001600160a01b039283166001600160a01b03199182161790915560e084015160cc805491841691831691909117905561010084015160cd805491841691831691909117905561012084015160ce80549190931691161790556101a08201518051610d339160d9916020909101906133da565b50600060d88190555b60d054610d4b906001906138c2565b811015610dcf576040830151600090610d658360016138d9565b8560600151610d7491906138f1565b610d7e91906138d9565b610d899060016138d9565b60d180546001810182556000919091527f695fb3134ad82c3b8022bc5464edd0bcc9424ef672b52245dcb6ab2374327ce301555080610dc781613910565b915050610d3c565b50604082015160d054610de4906001906138c2565b8360600151610df391906138f1565b610dfd91906138d9565b60d45560d180546001810182556000919091526000197f695fb3134ad82c3b8022bc5464edd0bcc9424ef672b52245dcb6ab2374327ce3909101558015610e4a576000805461ff00191690555b5050565b600080516020613b5c833981519152610e678133612ad5565b6001600160a01b038316600090815260e26020526040902054839060ff1615610ee45760405162461bcd60e51b815260206004820152602960248201527f4d6173746572496e766573746f723a3a6e6f6e4475706c6963617465643a20646044820152681d5c1b1a58d85d195960ba1b6064820152608401610ae7565b6001600160a01b038416600090815260df602052604090205415610f5d5760405162461bcd60e51b815260206004820152602a60248201527f4d6173746572496e766573746f723a3a6164643a206c7020697320616c726561604482015269191e481a5b881c1bdbdb60b21b6064820152608401610ae7565b8215610f6b57610f6b611fd6565b600060d7544211610f7e5760d754610f80565b425b90508560d86000828254610f9491906138d9565b909155505060de54610fa79060016138d9565b6001600160a01b03958616600081815260df602090815260408083209490945560e281528382208054600160ff1990911681179091558451608081018652938452908301998a529282019384526060820181815260de8054948501815590915290517ffae8130c0619f84b4b44f01b84806f04e82e536d70e05f2356977fa318aecc1a600490930292830180546001600160a01b031916919098161790965595517ffae8130c0619f84b4b44f01b84806f04e82e536d70e05f2356977fa318aecc1b870155517ffae8130c0619f84b4b44f01b84806f04e82e536d70e05f2356977fa318aecc1c860155505090517ffae8130c0619f84b4b44f01b84806f04e82e536d70e05f2356977fa318aecc1d9092019190915550565b600080516020613b3c8339815191526110d98133612ad5565b82600114156111025760cb80546001600160a01b0319166001600160a01b038416179055505050565b826002141561112b5760cc80546001600160a01b0319166001600160a01b038416179055505050565b82600314156111545760cd80546001600160a01b0319166001600160a01b038416179055505050565b8260041415610aa35760ce80546001600160a01b0319166001600160a01b038416179055505050565b6000828152606560205260409020600101546111998133612ad5565b610af08383612b91565b600080516020613b3c8339815191526111bc8133612ad5565b82600114156111cc575060da5550565b82600214156111dc575060db5550565b82600314156111ec575060dc5550565b8260041415610aa3575060dd5550565b6001600160a01b038116331461126c5760405162461bcd60e51b815260206004820152602f60248201527f416363657373436f6e74726f6c3a2063616e206f6e6c792072656e6f756e636560448201526e103937b632b9903337b91039b2b63360891b6064820152608401610ae7565b610e4a8282612c17565b600080516020613b3c83398151915261128f8133612ad5565b5060cf55565b600260975414156112b85760405162461bcd60e51b8152600401610ae79061392b565b6002609781905550600060de83815481106112d5576112d5613962565b6000918252602080832086845260e0909152604083206004909202019250816112fb3390565b6001600160a01b03166001600160a01b031681526020019081526020016000209050828160000154101561137c5760405162461bcd60e51b815260206004820152602260248201527f4d6173746572496e766573746f723a3a77697468647261773a206e6f7420676f6044820152611bd960f21b6064820152608401610ae7565b61138584611863565b61138e84612c7e565b821561184857828160000160008282546113a891906138c2565b90915550506003810154156113d05760038101546113c690426138c2565b60058201556113e5565b60048101546113df90426138c2565b60058201555b600080826006015442141561146957606460d260008154811061140a5761140a613962565b90600052602060002001548661142091906138f1565b61142a9190613978565b9150606460d360008154811061144257611442613962565b90600052602060002001548661145891906138f1565b6114629190613978565b90506117af565b60018360050154101580156114835750610e108360050154105b156114d657606460d260018154811061149e5761149e613962565b9060005260206000200154866114b491906138f1565b6114be9190613978565b9150606460d360018154811061144257611442613962565b610e108360050154101580156114f25750620151808360050154105b1561154557606460d260028154811061150d5761150d613962565b90600052602060002001548661152391906138f1565b61152d9190613978565b9150606460d360028154811061144257611442613962565b6201518083600501541015801561156257506203f4808360050154105b156115b557606460d260038154811061157d5761157d613962565b90600052602060002001548661159391906138f1565b61159d9190613978565b9150606460d360038154811061144257611442613962565b6203f4808360050154101580156115d25750620697808360050154105b1561162557606460d26004815481106115ed576115ed613962565b90600052602060002001548661160391906138f1565b61160d9190613978565b9150606460d360048154811061144257611442613962565b620697808360050154101580156116425750621275008360050154105b15611697576103e860d260058154811061165e5761165e613962565b90600052602060002001548661167491906138f1565b61167e9190613978565b91506103e860d360058154811061144257611442613962565b621275008360050154101580156116b457506224ea008360050154105b156117095761271060d26006815481106116d0576116d0613962565b9060005260206000200154866116e691906138f1565b6116f09190613978565b915061271060d360068154811061144257611442613962565b6224ea008360050154106117675761271060d260078154811061172e5761172e613962565b90600052602060002001548661174491906138f1565b61174e9190613978565b915061271060d360078154811061144257611442613962565b60405162461bcd60e51b815260206004820152601860248201527f536f6d657468696e6720697320766572792062726f6b656e00000000000000006044820152606401610ae7565b6117c6335b85546001600160a01b03169084612f3f565b60cb5484546117e2916001600160a01b03918216911683612f3f565b6003840154835464e8d4a51000916117f9916138f1565b6118039190613978565b6001840155604051858152869033907ff279e6a1f5e320cca91135676d9cb6e44ca8a08c0b88342bcdb1144f6511b5689060200160405180910390a350504260038201555b505060016097555050565b60d281815481106109d457600080fd5b600060de828154811061187857611878613962565b9060005260206000209060040201905080600201544211611897575050565b80546040516370a0823160e01b81523060048201526000916001600160a01b0316906370a082319060240160206040518083038186803b1580156118da57600080fd5b505afa1580156118ee573d6000803e3d6000fd5b505050506040513d601f19601f82011682018060405250810190611912919061399a565b905080158061192357506001820154155b1561193357504260029091015550565b600080600080600061194e8760020154428960010154612505565b60c9546040516340c10f1960e01b8152959a50939850919650945092506001600160a01b0316906340c10f199061198b90309088906004016139b3565b600060405180830381600087803b1580156119a557600080fd5b505af11580156119b9573d6000803e3d6000fd5b50505050858464e8d4a510006119cf91906138f1565b6119d99190613978565b8760030160008282546119ec91906138d9565b90915550504260028801558415611aee5760c95460cb546040516340c10f1960e01b81526001600160a01b03928316926340c10f1992611a339291169089906004016139b3565b600060405180830381600087803b158015611a4d57600080fd5b505af1158015611a61573d6000803e3d6000fd5b5050505060d4544211611aee5760c95460cb546001600160a01b039182169163282d3fdf91166064611a9489604b6138f1565b611a9e9190613978565b6040518363ffffffff1660e01b8152600401611abb9291906139b3565b600060405180830381600087803b158015611ad557600080fd5b505af1158015611ae9573d6000803e3d6000fd5b505050505b8215611be55760c95460cc546040516340c10f1960e01b81526001600160a01b03928316926340c10f1992611b2a9291169087906004016139b3565b600060405180830381600087803b158015611b4457600080fd5b505af1158015611b58573d6000803e3d6000fd5b5050505060d4544211611be55760c95460cc546001600160a01b039182169163282d3fdf91166064611b8b87602d6138f1565b611b959190613978565b6040518363ffffffff1660e01b8152600401611bb29291906139b3565b600060405180830381600087803b158015611bcc57600080fd5b505af1158015611be0573d6000803e3d6000fd5b505050505b8115611cdc5760c95460cd546040516340c10f1960e01b81526001600160a01b03928316926340c10f1992611c219291169086906004016139b3565b600060405180830381600087803b158015611c3b57600080fd5b505af1158015611c4f573d6000803e3d6000fd5b5050505060d4544211611cdc5760c95460cd546001600160a01b039182169163282d3fdf91166064611c828660556138f1565b611c8c9190613978565b6040518363ffffffff1660e01b8152600401611ca99291906139b3565b600060405180830381600087803b158015611cc357600080fd5b505af1158015611cd7573d6000803e3d6000fd5b505050505b8015611dd35760c95460ce546040516340c10f1960e01b81526001600160a01b03928316926340c10f1992611d189291169085906004016139b3565b600060405180830381600087803b158015611d3257600080fd5b505af1158015611d46573d6000803e3d6000fd5b5050505060d4544211611dd35760c95460ce546001600160a01b039182169163282d3fdf91166064611d7985605f6138f1565b611d839190613978565b6040518363ffffffff1660e01b8152600401611da09291906139b3565b600060405180830381600087803b158015611dba57600080fd5b505af1158015611dce573d6000803e3d6000fd5b505050505b5050505050505050565b60026097541415611e005760405162461bcd60e51b8152600401610ae79061392b565b6002609781905550600060de8281548110611e1d57611e1d613962565b6000918252602080832085845260e090915260408320600490920201925081611e433390565b6001600160a01b03166001600160a01b0316815260200190815260200160002090506000606460d2600081548110611e7d57611e7d613962565b90600052602060002001548360000154611e9791906138f1565b611ea19190613978565b90506000606460d3600081548110611ebb57611ebb613962565b90600052602060002001548460000154611ed591906138f1565b611edf9190613978565b600080855560018501559050611ef4336117b4565b60cb548454611f10916001600160a01b03918216911683612f3f565b604051828152859033907fbb757047c2b5f3974fe26b7c10f732e7bce710b0952a71082702781e62ae05959060200160405180910390a350506001609755505050565b60005b8151811015610e4a57611f81828281518110611f7457611f74613962565b602002602001015161245f565b80611f8b81613910565b915050611f56565b600080516020613b3c833981519152611fac8133612ad5565b50600092835260e0602090815260408085206001600160a01b039094168552929052912060030155565b60de5460005b81811015610e4a57611fed81611863565b611ff681613910565b9050611fdc565b600080516020613b5c8339815191526120168133612ad5565b811561202457612024611fd6565b8260de858154811061203857612038613962565b90600052602060002090600402016001015460d85461205791906138c2565b61206191906138d9565b60d8819055508260de858154811061207b5761207b613962565b90600052602060002090600402016001018190555050505050565b600080516020613b3c8339815191526120af8133612ad5565b5060d455565b600080516020613b3c8339815191526120ce8133612ad5565b8151610af09060d99060208501906133da565b600080516020613b3c8339815191526120fa8133612ad5565b50600092835260e0602090815260408085206001600160a01b039094168552929052912060040155565b60d081815481106109d457600080fd5b60d754600090819084101561214d5760009150506109be565b60005b60d15481101561225b57600060d1828154811061216f5761216f613962565b90600052602060002001549050600160d08054905061218e91906138c2565b8211156121a157600093505050506109be565b8085116121f557600060d083815481106121bd576121bd613962565b906000526020600020015487876121d491906138c2565b6121de91906138f1565b90506121ea81856138d9565b9450505050506109be565b8086101561224857600060d0838154811061221257612212613962565b9060005260206000200154878361222991906138c2565b61223391906138f1565b9050819650808461224491906138d9565b9350505b508061225381613910565b915050612150565b509392505050565b60009182526065602090815260408084206001600160a01b0393909316845291905290205460ff1690565b60008060de84815481106122a4576122a4613962565b6000918252602080832087845260e0825260408085206001600160a01b038981168752935280852060049485029092016003810154815492516370a0823160e01b8152309681019690965290965091949193919216906370a082319060240160206040518083038186803b15801561231b57600080fd5b505afa15801561232f573d6000803e3d6000fd5b505050506040513d601f19601f82011682018060405250810190612353919061399a565b90508360020154421180156123685750600081115b156123b45760006123828560020154428760010154612505565b5091935084925061239c915083905064e8d4a510006138f1565b6123a69190613978565b6123b090846138d9565b9250505b6001830154835464e8d4a51000906123cd9085906138f1565b6123d79190613978565b6123e191906138c2565b979650505050505050565b6000806124036123fd6001426138c2565b42612134565b905060d85460de848154811061241b5761241b613962565b90600052602060002090600402016001015460cf548361243b91906138f1565b61244591906138f1565b610a369190613978565b60d981815481106109d457600080fd5b61246881611863565b61247181612c7e565b50565b600080516020613b3c83398151915261248d8133612ad5565b8151610af09060d19060208501906133da565b600080516020613b3c8339815191526124b98133612ad5565b8151610af09060d09060208501906133da565b600080516020613b3c8339815191526124e58133612ad5565b82600114156124f5575060d55550565b8260021415610aa3575060d65550565b6000806000806000806125188989612134565b9050600060d8548860cf548461252e91906138f1565b61253891906138f1565b6125429190613978565b9050600060c960009054906101000a90046001600160a01b03166001600160a01b03166318160ddd6040518163ffffffff1660e01b815260040160206040518083038186803b15801561259457600080fd5b505afa1580156125a8573d6000803e3d6000fd5b505050506040513d601f19601f820116820180604052508101906125cc919061399a565b60c960009054906101000a90046001600160a01b03166001600160a01b031663355274ea6040518163ffffffff1660e01b815260040160206040518083038186803b15801561261a57600080fd5b505afa15801561262e573d6000803e3d6000fd5b505050506040513d601f19601f82011682018060405250810190612652919061399a565b61265c91906138c2565b90508181101561267e57600097508096506000955060009450600093506126f2565b606460da548361268e91906138f1565b6126989190613978565b9750819650606460db54836126ad91906138f1565b6126b79190613978565b9550606460dc54836126c991906138f1565b6126d39190613978565b9450606460dd54836126e591906138f1565b6126ef9190613978565b93505b505050939792965093509350565b60008281526065602052604090206001015461271c8133612ad5565b610af08383612c17565b600260975414156127495760405162461bcd60e51b8152600401610ae79061392b565b6002609755806127ba5760405162461bcd60e51b815260206004820152603660248201527f4d6173746572496e766573746f723a3a6465706f7369743a20616d6f756e742060448201527506d7573742062652067726561746572207468616e20360541b6064820152608401610ae7565b600060de83815481106127cf576127cf613962565b6000918252602080832086845260e0909152604083206004909202019250816127f53390565b6001600160a01b0390811682526020808301939093526040918201600090812088825260e0855283822060cb54909316825291909352912090915061283985611863565b61284285612c7e565b6128593384546001600160a01b0316903087612f95565b8154612866574260028301555b61271060d5548561287791906138f1565b6128819190613978565b61288b90856138c2565b82600001600082825461289e91906138d9565b90915550506003830154825464e8d4a51000916128ba916138f1565b6128c49190613978565b600183015560d654612710906128da90866138f1565b6128e49190613978565b6128ee90856138c2565b81600001600082825461290191906138d9565b90915550506003830154815464e8d4a510009161291d916138f1565b6129279190613978565b6001820155604051848152859033907f90890809c654f11d6e72a28fa60149770a0d11ec6c92319d6ceb2bb0a4ea1a159060200160405180910390a360048201541561297257612979565b4260048301555b50426006909101555050600160975550565b600080516020613b3c8339815191526129a48133612ad5565b60c95460405163f2fde38b60e01b81526001600160a01b0384811660048301529091169063f2fde38b90602401600060405180830381600087803b1580156129eb57600080fd5b505af11580156129ff573d6000803e3d6000fd5b505050505050565b60d381815481106109d457600080fd5b60d7546000908190841015612a305760649150506109be565b60005b60d15481101561225b57600060d18281548110612a5257612a52613962565b90600052602060002001549050600160d980549050612a7191906138c2565b821115612a8457600093505050506109be565b808511612ab35760d98281548110612a9e57612a9e613962565b906000526020600020015493505050506109be565b5080612abe81613910565b915050612a33565b6001600160a01b03163b151590565b612adf8282612263565b610e4a57612af7816001600160a01b03166014612fcd565b612b02836020612fcd565b604051602001612b139291906139f8565b60408051601f198184030181529082905262461bcd60e51b8252610ae791600401613a6d565b600054610100900460ff16612b605760405162461bcd60e51b8152600401610ae790613aa0565b565b600054610100900460ff16612b895760405162461bcd60e51b8152600401610ae790613aa0565b612b60613169565b612b9b8282612263565b610e4a5760008281526065602090815260408083206001600160a01b03851684529091529020805460ff19166001179055612bd33390565b6001600160a01b0316816001600160a01b0316837f2f8788117e7eff1d82e926ec794901d17c78024a50270940304540a733656f0d60405160405180910390a45050565b612c218282612263565b15610e4a5760008281526065602090815260408083206001600160a01b0385168085529252808320805460ff1916905551339285917ff6391f5c32d9c69d2a47ea670b442974b53935d1edc7fd64eb21e047a839171b9190a45050565b600060de8281548110612c9357612c93613962565b6000918252602080832085845260e090915260408320600490920201925081612cb93390565b6001600160a01b031681526020810191909152604001600020805490915015610af0576000816001015464e8d4a5100084600301548460000154612cfd91906138f1565b612d079190613978565b612d1191906138c2565b60c9546040516370a0823160e01b81523060048201529192506000916001600160a01b03909116906370a082319060240160206040518083038186803b158015612d5a57600080fd5b505afa158015612d6e573d6000803e3d6000fd5b505050506040513d601f19601f82011682018060405250810190612d92919061399a565b905080821115612da0578091505b8115612f125760c9546001600160a01b031663a9059cbb33846040518363ffffffff1660e01b8152600401612dd69291906139b3565b602060405180830381600087803b158015612df057600080fd5b505af1158015612e04573d6000803e3d6000fd5b505050506040513d601f19601f82011682018060405250810190612e289190613aeb565b50600060d454846002015411612ecd576000612e4e612e486001426138c2565b42612a17565b90506064612e5c82866138f1565b612e669190613978565b60c95460405163282d3fdf60e01b81529193506001600160a01b03169063282d3fdf90612e9990339086906004016139b3565b600060405180830381600087803b158015612eb357600080fd5b505af1158015612ec7573d6000803e3d6000fd5b50505050505b4260028501556040805184815260208101839052879133917f3887f2857beaaf367eb618dfb5e22c1ebd74425affb0602c2e9fe126e3f860eb910160405180910390a3505b6003840154835464e8d4a5100091612f29916138f1565b612f339190613978565b60018401555050505050565b610af08363a9059cbb60e01b8484604051602401612f5e9291906139b3565b60408051601f198184030181529190526020810180516001600160e01b03166001600160e01b031990931692909217909152613197565b6040516001600160a01b0380851660248301528316604482015260648101829052610a819085906323b872dd60e01b90608401612f5e565b60606000612fdc8360026138f1565b612fe79060026138d9565b67ffffffffffffffff811115612fff57612fff61347d565b6040519080825280601f01601f191660200182016040528015613029576020820181803683370190505b509050600360fc1b8160008151811061304457613044613962565b60200101906001600160f81b031916908160001a905350600f60fb1b8160018151811061307357613073613962565b60200101906001600160f81b031916908160001a90535060006130978460026138f1565b6130a29060016138d9565b90505b600181111561311a576f181899199a1a9b1b9c1cb0b131b232b360811b85600f16601081106130d6576130d6613962565b1a60f81b8282815181106130ec576130ec613962565b60200101906001600160f81b031916908160001a90535060049490941c9361311381613b08565b90506130a5565b508315610a365760405162461bcd60e51b815260206004820181905260248201527f537472696e67733a20686578206c656e67746820696e73756666696369656e746044820152606401610ae7565b600054610100900460ff166131905760405162461bcd60e51b8152600401610ae790613aa0565b6001609755565b60006131ec826040518060400160405280602081526020017f5361666545524332303a206c6f772d6c6576656c2063616c6c206661696c6564815250856001600160a01b03166132699092919063ffffffff16565b805190915015610af0578080602001905181019061320a9190613aeb565b610af05760405162461bcd60e51b815260206004820152602a60248201527f5361666545524332303a204552433230206f7065726174696f6e20646964206e6044820152691bdd081cdd58d8d9595960b21b6064820152608401610ae7565b60606132788484600085613280565b949350505050565b6060824710156132e15760405162461bcd60e51b815260206004820152602660248201527f416464726573733a20696e73756666696369656e742062616c616e636520666f6044820152651c8818d85b1b60d21b6064820152608401610ae7565b6001600160a01b0385163b6133385760405162461bcd60e51b815260206004820152601d60248201527f416464726573733a2063616c6c20746f206e6f6e2d636f6e74726163740000006044820152606401610ae7565b600080866001600160a01b031685876040516133549190613b1f565b60006040518083038185875af1925050503d8060008114613391576040519150601f19603f3d011682016040523d82523d6000602084013e613396565b606091505b50915091506123e1828286606083156133b0575081610a36565b8251156133c05782518084602001fd5b8160405162461bcd60e51b8152600401610ae79190613a6d565b828054828255906000526020600020908101928215613415579160200282015b828111156134155782518255916020019190600101906133fa565b50613421929150613425565b5090565b5b808211156134215760008155600101613426565b60006020828403121561344c57600080fd5b81356001600160e01b031981168114610a3657600080fd5b60006020828403121561347657600080fd5b5035919050565b634e487b7160e01b600052604160045260246000fd5b6040516101c0810167ffffffffffffffff811182821017156134b7576134b761347d565b60405290565b600082601f8301126134ce57600080fd5b8135602067ffffffffffffffff808311156134eb576134eb61347d565b8260051b604051601f19603f830116810181811084821117156135105761351061347d565b60405293845285810183019383810192508785111561352e57600080fd5b83870191505b848210156123e157813583529183019190830190613534565b6000806040838503121561356057600080fd5b82359150602083013567ffffffffffffffff81111561357e57600080fd5b61358a858286016134bd565b9150509250929050565b6001600160a01b038116811461247157600080fd5b80356135b481613594565b919050565b6000602082840312156135cb57600080fd5b813567ffffffffffffffff808211156135e357600080fd5b908301906101c082860312156135f857600080fd5b613600613493565b613609836135a9565b81526020830135602082015260408301356040820152606083013560608201526080830135608082015260a083013560a082015261364960c084016135a9565b60c082015261365a60e084016135a9565b60e082015261010061366d8185016135a9565b9082015261012061367f8482016135a9565b90820152610140838101358381111561369757600080fd5b6136a3888287016134bd565b82840152505061016080840135838111156136bd57600080fd5b6136c9888287016134bd565b82840152505061018080840135838111156136e357600080fd5b6136ef888287016134bd565b8284015250506101a0808401358381111561370957600080fd5b613715888287016134bd565b918301919091525095945050505050565b801515811461247157600080fd5b60008060006060848603121561374957600080fd5b83359250602084013561375b81613594565b9150604084013561376b81613726565b809150509250925092565b6000806040838503121561378957600080fd5b82359150602083013561379b81613594565b809150509250929050565b600080604083850312156137b957600080fd5b50508035926020909101359150565b6000602082840312156137da57600080fd5b813567ffffffffffffffff8111156137f157600080fd5b613278848285016134bd565b60008060006060848603121561381257600080fd5b83359250602084013561382481613594565b929592945050506040919091013590565b60008060006060848603121561384a57600080fd5b8335925060208401359150604084013561376b81613726565b60008060006060848603121561387857600080fd5b505081359360208301359350604090920135919050565b6000602082840312156138a157600080fd5b8135610a3681613594565b634e487b7160e01b600052601160045260246000fd5b6000828210156138d4576138d46138ac565b500390565b600082198211156138ec576138ec6138ac565b500190565b600081600019048311821515161561390b5761390b6138ac565b500290565b6000600019821415613924576139246138ac565b5060010190565b6020808252601f908201527f5265656e7472616e637947756172643a207265656e7472616e742063616c6c00604082015260600190565b634e487b7160e01b600052603260045260246000fd5b60008261399557634e487b7160e01b600052601260045260246000fd5b500490565b6000602082840312156139ac57600080fd5b5051919050565b6001600160a01b03929092168252602082015260400190565b60005b838110156139e75781810151838201526020016139cf565b83811115610a815750506000910152565b7f416363657373436f6e74726f6c3a206163636f756e7420000000000000000000815260008351613a308160178501602088016139cc565b7001034b99036b4b9b9b4b733903937b6329607d1b6017918401918201528351613a618160288401602088016139cc565b01602801949350505050565b6020815260008251806020840152613a8c8160408501602087016139cc565b601f01601f19169190910160400192915050565b6020808252602b908201527f496e697469616c697a61626c653a20636f6e7472616374206973206e6f74206960408201526a6e697469616c697a696e6760a81b606082015260800190565b600060208284031215613afd57600080fd5b8151610a3681613726565b600081613b1757613b176138ac565b506000190190565b60008251613b318184602087016139cc565b919091019291505056fe0393b4c1b6519e8b53ae0efa1ab522060a3b9f8d86d09c8a22ca6d6eea735cf7a49807205ce4d355092ef5a8a18f56e8913cf4a201fbe287825b095693c21775a2646970667358221220e51fc13bdecbf689cd2fac2c1893de5881c2e47db4821436d2c8ea5293069e4764736f6c63430008090033",
  "linkReferences": {},
  "deployedLinkReferences": {}
}