{
  "_format": "hh-sol-artifact-1",
  "contractName": "MasterInvestor",
  "sourceName": "contracts/npc/MasterInvestor.sol",
  "abi": [
    {
      "inputs": [],
      "stateMutability": "nonpayable",
      "type": "constructor"
    },
    {
      "anonymous": false,
      "inputs": [
        {
          "indexed": true,
          "internalType": "address",
          "name": "user",
          "type": "address"
        },
        {
          "indexed": true,
          "internalType": "uint256",
          "name": "pid",
          "type": "uint256"
        },
        {
          "indexed": false,
          "internalType": "uint256",
          "name": "amount",
          "type": "uint256"
        }
      ],
      "name": "Deposit",
      "type": "event"
    },
    {
      "anonymous": false,
      "inputs": [
        {
          "indexed": true,
          "internalType": "address",
          "name": "user",
          "type": "address"
        },
        {
          "indexed": true,
          "internalType": "uint256",
          "name": "pid",
          "type": "uint256"
        },
        {
          "indexed": false,
          "internalType": "uint256",
          "name": "amount",
          "type": "uint256"
        }
      ],
      "name": "EmergencyWithdraw",
      "type": "event"
    },
    {
      "anonymous": false,
      "inputs": [
        {
          "indexed": true,
          "internalType": "bytes32",
          "name": "role",
          "type": "bytes32"
        },
        {
          "indexed": true,
          "internalType": "bytes32",
          "name": "previousAdminRole",
          "type": "bytes32"
        },
        {
          "indexed": true,
          "internalType": "bytes32",
          "name": "newAdminRole",
          "type": "bytes32"
        }
      ],
      "name": "RoleAdminChanged",
      "type": "event"
    },
    {
      "anonymous": false,
      "inputs": [
        {
          "indexed": true,
          "internalType": "bytes32",
          "name": "role",
          "type": "bytes32"
        },
        {
          "indexed": true,
          "internalType": "address",
          "name": "account",
          "type": "address"
        },
        {
          "indexed": true,
          "internalType": "address",
          "name": "sender",
          "type": "address"
        }
      ],
      "name": "RoleGranted",
      "type": "event"
    },
    {
      "anonymous": false,
      "inputs": [
        {
          "indexed": true,
          "internalType": "bytes32",
          "name": "role",
          "type": "bytes32"
        },
        {
          "indexed": true,
          "internalType": "address",
          "name": "account",
          "type": "address"
        },
        {
          "indexed": true,
          "internalType": "address",
          "name": "sender",
          "type": "address"
        }
      ],
      "name": "RoleRevoked",
      "type": "event"
    },
    {
      "anonymous": false,
      "inputs": [
        {
          "indexed": true,
          "internalType": "address",
          "name": "user",
          "type": "address"
        },
        {
          "indexed": true,
          "internalType": "uint256",
          "name": "pid",
          "type": "uint256"
        },
        {
          "indexed": false,
          "internalType": "uint256",
          "name": "amount",
          "type": "uint256"
        },
        {
          "indexed": false,
          "internalType": "uint256",
          "name": "lockAmount",
          "type": "uint256"
        }
      ],
      "name": "SendGovernanceTokenReward",
      "type": "event"
    },
    {
      "anonymous": false,
      "inputs": [
        {
          "indexed": true,
          "internalType": "address",
          "name": "user",
          "type": "address"
        },
        {
          "indexed": true,
          "internalType": "uint256",
          "name": "pid",
          "type": "uint256"
        },
        {
          "indexed": false,
          "internalType": "uint256",
          "name": "amount",
          "type": "uint256"
        }
      ],
      "name": "Withdraw",
      "type": "event"
    },
    {
      "inputs": [],
      "name": "ADMIN_ROLE",
      "outputs": [
        {
          "internalType": "bytes32",
          "name": "",
          "type": "bytes32"
        }
      ],
      "stateMutability": "view",
      "type": "function"
    },
    {
      "inputs": [],
      "name": "AUTHORIZED_ROLE",
      "outputs": [
        {
          "internalType": "bytes32",
          "name": "",
          "type": "bytes32"
        }
      ],
      "stateMutability": "view",
      "type": "function"
    },
    {
      "inputs": [],
      "name": "COMMUNITY_FUND_ADDRESS",
      "outputs": [
        {
          "internalType": "address",
          "name": "",
          "type": "address"
        }
      ],
      "stateMutability": "view",
      "type": "function"
    },
    {
      "inputs": [],
      "name": "DEFAULT_ADMIN_ROLE",
      "outputs": [
        {
          "internalType": "bytes32",
          "name": "",
          "type": "bytes32"
        }
      ],
      "stateMutability": "view",
      "type": "function"
    },
    {
      "inputs": [],
      "name": "DEV_ADDRESS",
      "outputs": [
        {
          "internalType": "address",
          "name": "",
          "type": "address"
        }
      ],
      "stateMutability": "view",
      "type": "function"
    },
    {
      "inputs": [],
      "name": "DEV_DEP_FEE",
      "outputs": [
        {
          "internalType": "uint256",
          "name": "",
          "type": "uint256"
        }
      ],
      "stateMutability": "view",
      "type": "function"
    },
    {
      "inputs": [
        {
          "internalType": "uint256",
          "name": "",
          "type": "uint256"
        }
      ],
      "name": "DEV_FEE_STAGES",
      "outputs": [
        {
          "internalType": "uint256",
          "name": "",
          "type": "uint256"
        }
      ],
      "stateMutability": "view",
      "type": "function"
    },
    {
      "inputs": [],
      "name": "FINISH_BONUS_AT_TIME",
      "outputs": [
        {
          "internalType": "uint256",
          "name": "",
          "type": "uint256"
        }
      ],
      "stateMutability": "view",
      "type": "function"
    },
    {
      "inputs": [],
      "name": "FOUNDER_ADDRESS",
      "outputs": [
        {
          "internalType": "address",
          "name": "",
          "type": "address"
        }
      ],
      "stateMutability": "view",
      "type": "function"
    },
    {
      "inputs": [],
      "name": "GOV_TOKEN",
      "outputs": [
        {
          "internalType": "contract EvoToken",
          "name": "",
          "type": "address"
        }
      ],
      "stateMutability": "view",
      "type": "function"
    },
    {
      "inputs": [
        {
          "internalType": "uint256",
          "name": "",
          "type": "uint256"
        }
      ],
      "name": "HALVING_AT_TIMES",
      "outputs": [
        {
          "internalType": "uint256",
          "name": "",
          "type": "uint256"
        }
      ],
      "stateMutability": "view",
      "type": "function"
    },
    {
      "inputs": [],
      "name": "LP_ADDRESS",
      "outputs": [
        {
          "internalType": "address",
          "name": "",
          "type": "address"
        }
      ],
      "stateMutability": "view",
      "type": "function"
    },
    {
      "inputs": [],
      "name": "PERCENT_FOR_COM",
      "outputs": [
        {
          "internalType": "uint256",
          "name": "",
          "type": "uint256"
        }
      ],
      "stateMutability": "view",
      "type": "function"
    },
    {
      "inputs": [],
      "name": "PERCENT_FOR_DEV",
      "outputs": [
        {
          "internalType": "uint256",
          "name": "",
          "type": "uint256"
        }
      ],
      "stateMutability": "view",
      "type": "function"
    },
    {
      "inputs": [],
      "name": "PERCENT_FOR_FOUNDERS",
      "outputs": [
        {
          "internalType": "uint256",
          "name": "",
          "type": "uint256"
        }
      ],
      "stateMutability": "view",
      "type": "function"
    },
    {
      "inputs": [],
      "name": "PERCENT_FOR_LP",
      "outputs": [
        {
          "internalType": "uint256",
          "name": "",
          "type": "uint256"
        }
      ],
      "stateMutability": "view",
      "type": "function"
    },
    {
      "inputs": [
        {
          "internalType": "uint256",
          "name": "",
          "type": "uint256"
        }
      ],
      "name": "PERCENT_LOCK_BONUS_REWARD",
      "outputs": [
        {
          "internalType": "uint256",
          "name": "",
          "type": "uint256"
        }
      ],
      "stateMutability": "view",
      "type": "function"
    },
    {
      "inputs": [
        {
          "internalType": "uint256",
          "name": "",
          "type": "uint256"
        }
      ],
      "name": "REWARD_MULTIPLIERS",
      "outputs": [
        {
          "internalType": "uint256",
          "name": "",
          "type": "uint256"
        }
      ],
      "stateMutability": "view",
      "type": "function"
    },
    {
      "inputs": [],
      "name": "REWARD_PER_SECOND",
      "outputs": [
        {
          "internalType": "uint256",
          "name": "",
          "type": "uint256"
        }
      ],
      "stateMutability": "view",
      "type": "function"
    },
    {
      "inputs": [],
      "name": "START_TIME",
      "outputs": [
        {
          "internalType": "uint256",
          "name": "",
          "type": "uint256"
        }
      ],
      "stateMutability": "view",
      "type": "function"
    },
    {
      "inputs": [],
      "name": "TOTAL_ALLOCATION_POINTS",
      "outputs": [
        {
          "internalType": "uint256",
          "name": "",
          "type": "uint256"
        }
      ],
      "stateMutability": "view",
      "type": "function"
    },
    {
      "inputs": [],
      "name": "USD_ORACLE",
      "outputs": [
        {
          "internalType": "address",
          "name": "",
          "type": "address"
        }
      ],
      "stateMutability": "view",
      "type": "function"
    },
    {
      "inputs": [],
      "name": "USER_DEP_FEE",
      "outputs": [
        {
          "internalType": "uint256",
          "name": "",
          "type": "uint256"
        }
      ],
      "stateMutability": "view",
      "type": "function"
    },
    {
      "inputs": [
        {
          "internalType": "uint256",
          "name": "",
          "type": "uint256"
        }
      ],
      "name": "USER_FEE_STAGES",
      "outputs": [
        {
          "internalType": "uint256",
          "name": "",
          "type": "uint256"
        }
      ],
      "stateMutability": "view",
      "type": "function"
    },
    {
      "inputs": [
        {
          "internalType": "uint256",
          "name": "_allocPoint",
          "type": "uint256"
        },
        {
          "internalType": "contract IERC20Upgradeable",
          "name": "_lpToken",
          "type": "address"
        },
        {
          "internalType": "bool",
          "name": "_withUpdate",
          "type": "bool"
        }
      ],
      "name": "add",
      "outputs": [],
      "stateMutability": "nonpayable",
      "type": "function"
    },
    {
      "inputs": [
        {
          "internalType": "uint256",
          "name": "_pid",
          "type": "uint256"
        }
      ],
      "name": "claimReward",
      "outputs": [],
      "stateMutability": "nonpayable",
      "type": "function"
    },
    {
      "inputs": [
        {
          "internalType": "uint256[]",
          "name": "_pids",
          "type": "uint256[]"
        }
      ],
      "name": "claimRewards",
      "outputs": [],
      "stateMutability": "nonpayable",
      "type": "function"
    },
    {
      "inputs": [
        {
          "internalType": "uint256",
          "name": "_pid",
          "type": "uint256"
        },
        {
          "internalType": "uint256",
          "name": "_amount",
          "type": "uint256"
        }
      ],
      "name": "deposit",
      "outputs": [],
      "stateMutability": "nonpayable",
      "type": "function"
    },
    {
      "inputs": [
        {
          "internalType": "uint256",
          "name": "_pid",
          "type": "uint256"
        }
      ],
      "name": "emergencyWithdraw",
      "outputs": [],
      "stateMutability": "nonpayable",
      "type": "function"
    },
    {
      "inputs": [
        {
          "internalType": "uint256",
          "name": "_from",
          "type": "uint256"
        },
        {
          "internalType": "uint256",
          "name": "_to",
          "type": "uint256"
        }
      ],
      "name": "getLockPercentage",
      "outputs": [
        {
          "internalType": "uint256",
          "name": "",
          "type": "uint256"
        }
      ],
      "stateMutability": "view",
      "type": "function"
    },
    {
      "inputs": [
        {
          "internalType": "uint256",
          "name": "_from",
          "type": "uint256"
        },
        {
          "internalType": "uint256",
          "name": "_to",
          "type": "uint256"
        }
      ],
      "name": "getMultiplier",
      "outputs": [
        {
          "internalType": "uint256",
          "name": "",
          "type": "uint256"
        }
      ],
      "stateMutability": "view",
      "type": "function"
    },
    {
      "inputs": [
        {
          "internalType": "uint256",
          "name": "pid1",
          "type": "uint256"
        }
      ],
      "name": "getNewRewardPerSecond",
      "outputs": [
        {
          "internalType": "uint256",
          "name": "",
          "type": "uint256"
        }
      ],
      "stateMutability": "view",
      "type": "function"
    },
    {
      "inputs": [
        {
          "internalType": "uint256",
          "name": "_from",
          "type": "uint256"
        },
        {
          "internalType": "uint256",
          "name": "_to",
          "type": "uint256"
        },
        {
          "internalType": "uint256",
          "name": "_allocPoint",
          "type": "uint256"
        }
      ],
      "name": "getPoolReward",
      "outputs": [
        {
          "internalType": "uint256",
          "name": "forDev",
          "type": "uint256"
        },
        {
          "internalType": "uint256",
          "name": "forFarmer",
          "type": "uint256"
        },
        {
          "internalType": "uint256",
          "name": "forLP",
          "type": "uint256"
        },
        {
          "internalType": "uint256",
          "name": "forCom",
          "type": "uint256"
        },
        {
          "internalType": "uint256",
          "name": "forFounders",
          "type": "uint256"
        }
      ],
      "stateMutability": "view",
      "type": "function"
    },
    {
      "inputs": [
        {
          "internalType": "bytes32",
          "name": "role",
          "type": "bytes32"
        }
      ],
      "name": "getRoleAdmin",
      "outputs": [
        {
          "internalType": "bytes32",
          "name": "",
          "type": "bytes32"
        }
      ],
      "stateMutability": "view",
      "type": "function"
    },
    {
      "inputs": [
        {
          "internalType": "bytes32",
          "name": "role",
          "type": "bytes32"
        },
        {
          "internalType": "address",
          "name": "account",
          "type": "address"
        }
      ],
      "name": "grantRole",
      "outputs": [],
      "stateMutability": "nonpayable",
      "type": "function"
    },
    {
      "inputs": [
        {
          "internalType": "bytes32",
          "name": "role",
          "type": "bytes32"
        },
        {
          "internalType": "address",
          "name": "account",
          "type": "address"
        }
      ],
      "name": "hasRole",
      "outputs": [
        {
          "internalType": "bool",
          "name": "",
          "type": "bool"
        }
      ],
      "stateMutability": "view",
      "type": "function"
    },
    {
      "inputs": [
        {
          "components": [
            {
              "internalType": "contract EvoToken",
              "name": "govToken",
              "type": "address"
            },
            {
              "internalType": "uint256",
              "name": "rewardPerSecond",
              "type": "uint256"
            },
            {
              "internalType": "uint256",
              "name": "startTime",
              "type": "uint256"
            },
            {
              "internalType": "uint256",
              "name": "halvingAfterTime",
              "type": "uint256"
            },
            {
              "internalType": "uint256",
              "name": "userDepositFee",
              "type": "uint256"
            },
            {
              "internalType": "uint256",
              "name": "devDepositFee",
              "type": "uint256"
            },
            {
              "internalType": "address",
              "name": "devAddress",
              "type": "address"
            },
            {
              "internalType": "address",
              "name": "lpAddress",
              "type": "address"
            },
            {
              "internalType": "address",
              "name": "communityFundAddress",
              "type": "address"
            },
            {
              "internalType": "address",
              "name": "founderAddress",
              "type": "address"
            },
            {
              "internalType": "uint256[]",
              "name": "rewardMultipliers",
              "type": "uint256[]"
            },
            {
              "internalType": "uint256[]",
              "name": "userFeeStages",
              "type": "uint256[]"
            },
            {
              "internalType": "uint256[]",
              "name": "devFeeStages",
              "type": "uint256[]"
            },
            {
              "internalType": "uint256[]",
              "name": "percentLockBonusReward",
              "type": "uint256[]"
            }
          ],
          "internalType": "struct MasterInvestor.ConstructorParams",
          "name": "params",
          "type": "tuple"
        }
      ],
      "name": "initialize",
      "outputs": [],
      "stateMutability": "nonpayable",
      "type": "function"
    },
    {
      "inputs": [],
      "name": "massUpdatePools",
      "outputs": [],
      "stateMutability": "nonpayable",
      "type": "function"
    },
    {
      "inputs": [
        {
          "internalType": "uint256",
          "name": "_pid",
          "type": "uint256"
        },
        {
          "internalType": "address",
          "name": "_user",
          "type": "address"
        }
      ],
      "name": "pendingReward",
      "outputs": [
        {
          "internalType": "uint256",
          "name": "",
          "type": "uint256"
        }
      ],
      "stateMutability": "view",
      "type": "function"
    },
    {
      "inputs": [
        {
          "internalType": "contract IERC20Upgradeable",
          "name": "",
          "type": "address"
        }
      ],
      "name": "poolExistence",
      "outputs": [
        {
          "internalType": "bool",
          "name": "",
          "type": "bool"
        }
      ],
      "stateMutability": "view",
      "type": "function"
    },
    {
      "inputs": [
        {
          "internalType": "address",
          "name": "",
          "type": "address"
        }
      ],
      "name": "poolId",
      "outputs": [
        {
          "internalType": "uint256",
          "name": "",
          "type": "uint256"
        }
      ],
      "stateMutability": "view",
      "type": "function"
    },
    {
      "inputs": [
        {
          "internalType": "uint256",
          "name": "",
          "type": "uint256"
        }
      ],
      "name": "poolInfo",
      "outputs": [
        {
          "internalType": "contract IERC20Upgradeable",
          "name": "lpToken",
          "type": "address"
        },
        {
          "internalType": "uint256",
          "name": "allocPoint",
          "type": "uint256"
        },
        {
          "internalType": "uint256",
          "name": "lastRewardTime",
          "type": "uint256"
        },
        {
          "internalType": "uint256",
          "name": "accGovTokenPerShare",
          "type": "uint256"
        }
      ],
      "stateMutability": "view",
      "type": "function"
    },
    {
      "inputs": [],
      "name": "poolLength",
      "outputs": [
        {
          "internalType": "uint256",
          "name": "",
          "type": "uint256"
        }
      ],
      "stateMutability": "view",
      "type": "function"
    },
    {
      "inputs": [
        {
          "internalType": "address",
          "name": "_newOwner",
          "type": "address"
        }
      ],
      "name": "reclaimTokenOwnership",
      "outputs": [],
      "stateMutability": "nonpayable",
      "type": "function"
    },
    {
      "inputs": [
        {
          "internalType": "bytes32",
          "name": "role",
          "type": "bytes32"
        },
        {
          "internalType": "address",
          "name": "account",
          "type": "address"
        }
      ],
      "name": "renounceRole",
      "outputs": [],
      "stateMutability": "nonpayable",
      "type": "function"
    },
    {
      "inputs": [
        {
          "internalType": "uint256",
          "name": "_pid",
          "type": "uint256"
        },
        {
          "internalType": "address",
          "name": "_user",
          "type": "address"
        },
        {
          "internalType": "uint256",
          "name": "_time",
          "type": "uint256"
        }
      ],
      "name": "reviseDeposit",
      "outputs": [],
      "stateMutability": "nonpayable",
      "type": "function"
    },
    {
      "inputs": [
        {
          "internalType": "uint256",
          "name": "_pid",
          "type": "uint256"
        },
        {
          "internalType": "address",
          "name": "_user",
          "type": "address"
        },
        {
          "internalType": "uint256",
          "name": "_time",
          "type": "uint256"
        }
      ],
      "name": "reviseWithdraw",
      "outputs": [],
      "stateMutability": "nonpayable",
      "type": "function"
    },
    {
      "inputs": [
        {
          "internalType": "bytes32",
          "name": "role",
          "type": "bytes32"
        },
        {
          "internalType": "address",
          "name": "account",
          "type": "address"
        }
      ],
      "name": "revokeRole",
      "outputs": [],
      "stateMutability": "nonpayable",
      "type": "function"
    },
    {
      "inputs": [
        {
          "internalType": "uint256",
          "name": "_pid",
          "type": "uint256"
        },
        {
          "internalType": "uint256",
          "name": "_allocPoint",
          "type": "uint256"
        },
        {
          "internalType": "bool",
          "name": "_withUpdate",
          "type": "bool"
        }
      ],
      "name": "set",
      "outputs": [],
      "stateMutability": "nonpayable",
      "type": "function"
    },
    {
      "inputs": [
        {
          "internalType": "bytes4",
          "name": "interfaceId",
          "type": "bytes4"
        }
      ],
      "name": "supportsInterface",
      "outputs": [
        {
          "internalType": "bool",
          "name": "",
          "type": "bool"
        }
      ],
      "stateMutability": "view",
      "type": "function"
    },
    {
      "inputs": [],
      "name": "totalAllocPoint",
      "outputs": [
        {
          "internalType": "uint256",
          "name": "",
          "type": "uint256"
        }
      ],
      "stateMutability": "view",
      "type": "function"
    },
    {
      "inputs": [
        {
          "internalType": "uint256",
          "name": "kind",
          "type": "uint256"
        },
        {
          "internalType": "address",
          "name": "_address",
          "type": "address"
        }
      ],
      "name": "updateAddress",
      "outputs": [],
      "stateMutability": "nonpayable",
      "type": "function"
    },
    {
      "inputs": [
        {
          "internalType": "uint256",
          "name": "kind",
          "type": "uint256"
        },
        {
          "internalType": "uint256",
          "name": "fee",
          "type": "uint256"
        }
      ],
      "name": "updateDepositFee",
      "outputs": [],
      "stateMutability": "nonpayable",
      "type": "function"
    },
    {
      "inputs": [
        {
          "internalType": "uint256",
          "name": "kind",
          "type": "uint256"
        },
        {
          "internalType": "uint256[]",
          "name": "feeStages",
          "type": "uint256[]"
        }
      ],
      "name": "updateFeeStages",
      "outputs": [],
      "stateMutability": "nonpayable",
      "type": "function"
    },
    {
      "inputs": [
        {
          "internalType": "uint256[]",
          "name": "times",
          "type": "uint256[]"
        }
      ],
      "name": "updateHalvingAtTimes",
      "outputs": [],
      "stateMutability": "nonpayable",
      "type": "function"
    },
    {
      "inputs": [
        {
          "internalType": "uint256",
          "name": "time",
          "type": "uint256"
        }
      ],
      "name": "updateLastRewardTime",
      "outputs": [],
      "stateMutability": "nonpayable",
      "type": "function"
    },
    {
      "inputs": [
        {
          "internalType": "uint256",
          "name": "kind",
          "type": "uint256"
        },
        {
          "internalType": "uint256",
          "name": "percent",
          "type": "uint256"
        }
      ],
      "name": "updateLockPercent",
      "outputs": [],
      "stateMutability": "nonpayable",
      "type": "function"
    },
    {
      "inputs": [
        {
          "internalType": "uint256",
          "name": "_pid",
          "type": "uint256"
        }
      ],
      "name": "updatePool",
      "outputs": [],
      "stateMutability": "nonpayable",
      "type": "function"
    },
    {
      "inputs": [
        {
          "internalType": "uint256[]",
          "name": "multipliers",
          "type": "uint256[]"
        }
      ],
      "name": "updateRewardMultipliers",
      "outputs": [],
      "stateMutability": "nonpayable",
      "type": "function"
    },
    {
      "inputs": [
        {
          "internalType": "uint256",
          "name": "reward",
          "type": "uint256"
        }
      ],
      "name": "updateRewardPerSecond",
      "outputs": [],
      "stateMutability": "nonpayable",
      "type": "function"
    },
    {
      "inputs": [
        {
          "internalType": "uint256",
          "name": "time",
          "type": "uint256"
        }
      ],
      "name": "updateStartTime",
      "outputs": [],
      "stateMutability": "nonpayable",
      "type": "function"
    },
    {
      "inputs": [
        {
          "internalType": "uint256[]",
          "name": "lockPercents",
          "type": "uint256[]"
        }
      ],
      "name": "updateUserLockPercents",
      "outputs": [],
      "stateMutability": "nonpayable",
      "type": "function"
    },
    {
      "inputs": [
        {
          "internalType": "uint256",
          "name": "_pid",
          "type": "uint256"
        }
      ],
      "name": "userDelta",
      "outputs": [
        {
          "internalType": "uint256",
          "name": "",
          "type": "uint256"
        }
      ],
      "stateMutability": "view",
      "type": "function"
    },
    {
      "inputs": [
        {
          "internalType": "uint256",
          "name": "_pid",
          "type": "uint256"
        },
        {
          "internalType": "address",
          "name": "_address",
          "type": "address"
        }
      ],
      "name": "userDeltaOf",
      "outputs": [
        {
          "internalType": "uint256",
          "name": "",
          "type": "uint256"
        }
      ],
      "stateMutability": "view",
      "type": "function"
    },
    {
      "inputs": [
        {
          "internalType": "address",
          "name": "",
          "type": "address"
        }
      ],
      "name": "userGlobalInfo",
      "outputs": [
        {
          "internalType": "uint256",
          "name": "",
          "type": "uint256"
        }
      ],
      "stateMutability": "view",
      "type": "function"
    },
    {
      "inputs": [
        {
          "internalType": "uint256",
          "name": "",
          "type": "uint256"
        },
        {
          "internalType": "address",
          "name": "",
          "type": "address"
        }
      ],
      "name": "userInfo",
      "outputs": [
        {
          "internalType": "uint256",
          "name": "amount",
          "type": "uint256"
        },
        {
          "internalType": "uint256",
          "name": "rewardDebt",
          "type": "uint256"
        },
        {
          "internalType": "uint256",
          "name": "rewardDebtAtTime",
          "type": "uint256"
        },
        {
          "internalType": "uint256",
          "name": "lastWithdrawTime",
          "type": "uint256"
        },
        {
          "internalType": "uint256",
          "name": "firstDepositTime",
          "type": "uint256"
        },
        {
          "internalType": "uint256",
          "name": "timeDelta",
          "type": "uint256"
        },
        {
          "internalType": "uint256",
          "name": "lastDepositTime",
          "type": "uint256"
        }
      ],
      "stateMutability": "view",
      "type": "function"
    },
    {
      "inputs": [
        {
          "internalType": "uint256",
          "name": "_pid",
          "type": "uint256"
        },
        {
          "internalType": "uint256",
          "name": "_amount",
          "type": "uint256"
        }
      ],
      "name": "withdraw",
      "outputs": [],
      "stateMutability": "nonpayable",
      "type": "function"
    }
  ],
  "bytecode": "0x60806040523480156200001157600080fd5b50600054610100900460ff166200002f5760005460ff161562000039565b62000039620000de565b620000a15760405162461bcd60e51b815260206004820152602e60248201527f496e697469616c697a61626c653a20636f6e747261637420697320616c72656160448201526d191e481a5b9a5d1a585b1a5e995960921b606482015260840160405180910390fd5b600054610100900460ff16158015620000c4576000805461ffff19166101011790555b8015620000d7576000805461ff00191690555b506200010b565b6000620000f630620000fc60201b62002b3e1760201c565b15905090565b6001600160a01b03163b151590565b613bbc806200011b6000396000f3fe608060405234801561001057600080fd5b50600436106103f15760003560e01c806375b238fc11610215578063c7b6e52511610125578063e2bbb158116100b8578063f491adf711610087578063f491adf71461093d578063f646825114610950578063f92d34a914610965578063f930e77014610978578063ff51a2721461098b57600080fd5b8063e2bbb158146108fb578063ed9bdeda1461090e578063eda6704814610917578063f1528cee1461092a57600080fd5b8063d56cf10f116100f4578063d56cf10f146108b6578063d79c3953146108c9578063d9608d8a146108d2578063ddaa26ad146108f257600080fd5b8063c7b6e52514610832578063c8ed768014610845578063cbd258b514610880578063d547741f146108a357600080fd5b80639b963d2a116101a8578063ae169a5011610177578063ae169a50146107dd578063b7877716146107f0578063bd27e3f814610803578063c35cadbe14610816578063c6929e531461082957600080fd5b80639b963d2a146107a6578063a02306f9146107b9578063a217fddf146107c2578063a82859c5146107ca57600080fd5b80638dbb1e3a116101e45780638dbb1e3a146106db57806391d14854146106ee57806393f1a40b1461070157806398969e821461079357600080fd5b806375b238fc146106975780637c0c5788146106ac57806382386d58146106b5578063874feed3146106c857600080fd5b806335582e68116103105780635312ea8e116102a35780636066debd116102725780636066debd14610643578063630b5ba11461065657806364482f791461065e5780636461fc8c1461067157806365cf37711461068457600080fd5b80635312ea8e146106015780635639e8cf1461061457806356407a61146106275780635eac62391461063057600080fd5b8063441a3e70116102df578063441a3e70146105bf5780634abbbd28146105d25780634b0cf206146105db57806351eb05a6146105ee57600080fd5b806335582e681461057d57806336568abe146105905780634004c8e7146105a357806343628fb4146105b657600080fd5b80631526fe2711610388578063248a9ca311610357578063248a9ca3146105215780632ab29df7146105445780632f2ff15d1461055757806332399e921461056a57600080fd5b80631526fe27146104b657806317caf6f1146104f35780631b80c010146104fb5780631eaaa0451461050e57600080fd5b8063081e3eda116103c4578063081e3eda1461047f57806309ae4d2c146104875780630a67d5181461049a5780630d329fea146104a357600080fd5b806301ffc9a7146103f6578063027e69991461041e57806304aa0f611461043f57806306bcf02f1461046a575b600080fd5b610409610404366004613445565b6109ab565b60405190151581526020015b60405180910390f35b61043161042c36600461346f565b6109e2565b604051908152602001610415565b60ce54610452906001600160a01b031681565b6040516001600160a01b039091168152602001610415565b61047d61047836600461346f565b610a03565b005b60de54610431565b61043161049536600461346f565b610a22565b61043160db5481565b61047d6104b1366004613558565b610a6a565b6104c96104c436600461346f565b610b13565b604080516001600160a01b0390951685526020850193909352918301526060820152608001610415565b60d854610431565b61047d6105093660046135c4565b610b57565b61047d61051c36600461373f565b610e6c565b61043161052f36600461346f565b60009081526065602052604090206001015490565b61047d610552366004613781565b6110de565b61047d610565366004613781565b61119b565b60cd54610452906001600160a01b031681565b61047d61058b3660046137b1565b6111c1565b61047d61059e366004613781565b61121a565b61047d6105b136600461346f565b611294565b61043160d85481565b61047d6105cd3660046137b1565b6112b3565b61043160d45481565b6104316105e936600461346f565b611871565b61047d6105fc36600461346f565b611881565b61047d61060f36600461346f565b611dfb565b60cb54610452906001600160a01b031681565b61043160d65481565b61047d61063e3660046137d3565b611f71565b61047d610651366004613808565b611fb1565b61047d611ff4565b61047d61066c366004613840565b61201b565b61047d61067f36600461346f565b6120b4565b61047d6106923660046137d3565b6120d3565b610431600080516020613b6783398151915281565b61043160d55481565b61047d6106c3366004613808565b6120ff565b6104316106d636600461346f565b612142565b6104316106e93660046137b1565b612152565b6104096106fc366004613781565b612281565b61075e61070f366004613781565b60e0602052816000526040600020602052806000526040600020600091509150508060000154908060010154908060020154908060030154908060040154908060050154908060060154905087565b604080519788526020880196909652948601939093526060850191909152608084015260a083015260c082015260e001610415565b6104316107a1366004613781565b6122ac565b6104316107b436600461346f565b61240a565b61043160dc5481565b610431600081565b6104316107d836600461346f565b61246d565b61047d6107eb36600461346f565b61247d565b61047d6107fe3660046137d3565b612492565b61047d6108113660046137d3565b6124be565b61047d6108243660046137b1565b6124ea565b61043160dd5481565b610431610840366004613781565b612523565b61085861085336600461386e565b61257d565b604080519586526020860194909452928401919091526060830152608082015260a001610415565b61040961088e36600461389a565b60e26020526000908152604090205460ff1681565b61047d6108b1366004613781565b612778565b60cc54610452906001600160a01b031681565b61043160cf5481565b6104316108e036600461389a565b60e16020526000908152604090205481565b61043160d75481565b61047d6109093660046137b1565b61279e565b61043160da5481565b61047d61092536600461389a565b612a03565b60ca54610452906001600160a01b031681565b61043161094b36600461346f565b612a7f565b610431600080516020613b4783398151915281565b60c954610452906001600160a01b031681565b6104316109863660046137b1565b612a8f565b61043161099936600461389a565b60df6020526000908152604090205481565b60006001600160e01b03198216637965db0b60e01b14806109dc57506301ffc9a760e01b6001600160e01b03198316145b92915050565b60d181815481106109f257600080fd5b600091825260209091200154905081565b600080516020613b47833981519152610a1c8133612b4d565b5060d755565b600081815260e0602090815260408083203384529091528120600381015415610a5b576003810154610a5490426138cd565b9392505050565b6004810154610a5490426138cd565b600080516020613b47833981519152610a838133612b4d565b8260011415610aa5578151610a9f9060d29060208501906133e5565b50505050565b8260021415610ac1578151610a9f9060d39060208501906133e5565b60405162461bcd60e51b815260206004820152601760248201527f496e76616c6964206b696e64206964656e74696669657200000000000000000060448201526064015b60405180910390fd5b505050565b60de8181548110610b2357600080fd5b600091825260209091206004909102018054600182015460028301546003909301546001600160a01b039092169350919084565b600054610100900460ff16610b725760005460ff1615610b76565b303b155b610bd95760405162461bcd60e51b815260206004820152602e60248201527f496e697469616c697a61626c653a20636f6e747261637420697320616c72656160448201526d191e481a5b9a5d1a585b1a5e995960921b6064820152608401610b05565b600054610100900460ff16158015610bfb576000805461ffff19166101011790555b610c03612bb1565b610c0b612bda565b610c16600033612c09565b610c2e600080516020613b6783398151915233612c09565b610c46600080516020613b4783398151915233612c09565b6101608201518051610c609160d2916020909101906133e5565b506101808201518051610c7b9160d3916020909101906133e5565b50815160c980546001600160a01b0319166001600160a01b0390921691909117905560208083015160cf55604083015160d755608083015160d55560a083015160d6556101408301518051610cd49260d09201906133e5565b5060c082015160cb80546001600160a01b039283166001600160a01b03199182161790915560e084015160cc805491841691831691909117905561010084015160cd805491841691831691909117905561012084015160ce80549190931691161790556101a08201518051610d519160d9916020909101906133e5565b50600060d88190555b60d054610d69906001906138cd565b811015610ded576040830151600090610d838360016138e4565b8560600151610d9291906138fc565b610d9c91906138e4565b610da79060016138e4565b60d180546001810182556000919091527f695fb3134ad82c3b8022bc5464edd0bcc9424ef672b52245dcb6ab2374327ce301555080610de58161391b565b915050610d5a565b50604082015160d054610e02906001906138cd565b8360600151610e1191906138fc565b610e1b91906138e4565b60d45560d180546001810182556000919091526000197f695fb3134ad82c3b8022bc5464edd0bcc9424ef672b52245dcb6ab2374327ce3909101558015610e68576000805461ff00191690555b5050565b600080516020613b67833981519152610e858133612b4d565b6001600160a01b038316600090815260e26020526040902054839060ff1615610f025760405162461bcd60e51b815260206004820152602960248201527f4d6173746572496e766573746f723a3a6e6f6e4475706c6963617465643a20646044820152681d5c1b1a58d85d195960ba1b6064820152608401610b05565b6001600160a01b038416600090815260df602052604090205415610f7b5760405162461bcd60e51b815260206004820152602a60248201527f4d6173746572496e766573746f723a3a6164643a206c7020697320616c726561604482015269191e481a5b881c1bdbdb60b21b6064820152608401610b05565b8215610f8957610f89611ff4565b600060d7544211610f9c5760d754610f9e565b425b90508560d86000828254610fb291906138e4565b909155505060de54610fc59060016138e4565b6001600160a01b03958616600081815260df602090815260408083209490945560e281528382208054600160ff1990911681179091558451608081018652938452908301998a529282019384526060820181815260de8054948501815590915290517ffae8130c0619f84b4b44f01b84806f04e82e536d70e05f2356977fa318aecc1a600490930292830180546001600160a01b031916919098161790965595517ffae8130c0619f84b4b44f01b84806f04e82e536d70e05f2356977fa318aecc1b870155517ffae8130c0619f84b4b44f01b84806f04e82e536d70e05f2356977fa318aecc1c860155505090517ffae8130c0619f84b4b44f01b84806f04e82e536d70e05f2356977fa318aecc1d9092019190915550565b600080516020613b478339815191526110f78133612b4d565b82600114156111205760cb80546001600160a01b0319166001600160a01b038416179055505050565b82600214156111495760cc80546001600160a01b0319166001600160a01b038416179055505050565b82600314156111725760cd80546001600160a01b0319166001600160a01b038416179055505050565b8260041415610ac15760ce80546001600160a01b0319166001600160a01b038416179055505050565b6000828152606560205260409020600101546111b78133612b4d565b610b0e8383612c09565b600080516020613b478339815191526111da8133612b4d565b82600114156111ea575060da5550565b82600214156111fa575060db5550565b826003141561120a575060dc5550565b8260041415610ac1575060dd5550565b6001600160a01b038116331461128a5760405162461bcd60e51b815260206004820152602f60248201527f416363657373436f6e74726f6c3a2063616e206f6e6c792072656e6f756e636560448201526e103937b632b9903337b91039b2b63360891b6064820152608401610b05565b610e688282612c8f565b600080516020613b478339815191526112ad8133612b4d565b5060cf55565b600260975414156112d65760405162461bcd60e51b8152600401610b0590613936565b6002609781905550600060de83815481106112f3576112f361396d565b6000918252602080832086845260e0909152604083206004909202019250816113193390565b6001600160a01b03166001600160a01b031681526020019081526020016000209050828160000154101561139a5760405162461bcd60e51b815260206004820152602260248201527f4d6173746572496e766573746f723a3a77697468647261773a206e6f7420676f6044820152611bd960f21b6064820152608401610b05565b6113a384611881565b6113ac84612cf6565b821561186657828160000160008282546113c691906138cd565b90915550506003810154156113ee5760038101546113e490426138cd565b6005820155611403565b60048101546113fd90426138cd565b60058201555b600080826006015442141561148757606460d26000815481106114285761142861396d565b90600052602060002001548661143e91906138fc565b6114489190613983565b9150606460d36000815481106114605761146061396d565b90600052602060002001548661147691906138fc565b6114809190613983565b90506117cd565b60018360050154101580156114a15750610e108360050154105b156114f457606460d26001815481106114bc576114bc61396d565b9060005260206000200154866114d291906138fc565b6114dc9190613983565b9150606460d36001815481106114605761146061396d565b610e108360050154101580156115105750620151808360050154105b1561156357606460d260028154811061152b5761152b61396d565b90600052602060002001548661154191906138fc565b61154b9190613983565b9150606460d36002815481106114605761146061396d565b6201518083600501541015801561158057506203f4808360050154105b156115d357606460d260038154811061159b5761159b61396d565b9060005260206000200154866115b191906138fc565b6115bb9190613983565b9150606460d36003815481106114605761146061396d565b6203f4808360050154101580156115f05750620697808360050154105b1561164357606460d260048154811061160b5761160b61396d565b90600052602060002001548661162191906138fc565b61162b9190613983565b9150606460d36004815481106114605761146061396d565b620697808360050154101580156116605750621275008360050154105b156116b5576103e860d260058154811061167c5761167c61396d565b90600052602060002001548661169291906138fc565b61169c9190613983565b91506103e860d36005815481106114605761146061396d565b621275008360050154101580156116d257506224ea008360050154105b156117275761271060d26006815481106116ee576116ee61396d565b90600052602060002001548661170491906138fc565b61170e9190613983565b915061271060d36006815481106114605761146061396d565b6224ea008360050154106117855761271060d260078154811061174c5761174c61396d565b90600052602060002001548661176291906138fc565b61176c9190613983565b915061271060d36007815481106114605761146061396d565b60405162461bcd60e51b815260206004820152601860248201527f536f6d657468696e6720697320766572792062726f6b656e00000000000000006044820152606401610b05565b6117e4335b85546001600160a01b03169084612fb7565b60cb548454611800916001600160a01b03918216911683612fb7565b6003840154835464e8d4a5100091611817916138fc565b6118219190613983565b6001840155604051858152869033907ff279e6a1f5e320cca91135676d9cb6e44ca8a08c0b88342bcdb1144f6511b5689060200160405180910390a350504260038201555b505060016097555050565b60d281815481106109f257600080fd5b600060de82815481106118965761189661396d565b90600052602060002090600402019050806002015442116118b5575050565b80546040516370a0823160e01b81523060048201526000916001600160a01b0316906370a082319060240160206040518083038186803b1580156118f857600080fd5b505afa15801561190c573d6000803e3d6000fd5b505050506040513d601f19601f8201168201806040525081019061193091906139a5565b905080158061194157506001820154155b1561195157504260029091015550565b600080600080600061196c876002015442896001015461257d565b60c9546040516340c10f1960e01b8152959a50939850919650945092506001600160a01b0316906340c10f19906119a990309088906004016139be565b600060405180830381600087803b1580156119c357600080fd5b505af11580156119d7573d6000803e3d6000fd5b50505050858464e8d4a510006119ed91906138fc565b6119f79190613983565b876003016000828254611a0a91906138e4565b90915550504260028801558415611b0c5760c95460cb546040516340c10f1960e01b81526001600160a01b03928316926340c10f1992611a519291169089906004016139be565b600060405180830381600087803b158015611a6b57600080fd5b505af1158015611a7f573d6000803e3d6000fd5b5050505060d4544211611b0c5760c95460cb546001600160a01b039182169163282d3fdf91166064611ab289604b6138fc565b611abc9190613983565b6040518363ffffffff1660e01b8152600401611ad99291906139be565b600060405180830381600087803b158015611af357600080fd5b505af1158015611b07573d6000803e3d6000fd5b505050505b8215611c035760c95460cc546040516340c10f1960e01b81526001600160a01b03928316926340c10f1992611b489291169087906004016139be565b600060405180830381600087803b158015611b6257600080fd5b505af1158015611b76573d6000803e3d6000fd5b5050505060d4544211611c035760c95460cc546001600160a01b039182169163282d3fdf91166064611ba987602d6138fc565b611bb39190613983565b6040518363ffffffff1660e01b8152600401611bd09291906139be565b600060405180830381600087803b158015611bea57600080fd5b505af1158015611bfe573d6000803e3d6000fd5b505050505b8115611cfa5760c95460cd546040516340c10f1960e01b81526001600160a01b03928316926340c10f1992611c3f9291169086906004016139be565b600060405180830381600087803b158015611c5957600080fd5b505af1158015611c6d573d6000803e3d6000fd5b5050505060d4544211611cfa5760c95460cd546001600160a01b039182169163282d3fdf91166064611ca08660556138fc565b611caa9190613983565b6040518363ffffffff1660e01b8152600401611cc79291906139be565b600060405180830381600087803b158015611ce157600080fd5b505af1158015611cf5573d6000803e3d6000fd5b505050505b8015611df15760c95460ce546040516340c10f1960e01b81526001600160a01b03928316926340c10f1992611d369291169085906004016139be565b600060405180830381600087803b158015611d5057600080fd5b505af1158015611d64573d6000803e3d6000fd5b5050505060d4544211611df15760c95460ce546001600160a01b039182169163282d3fdf91166064611d9785605f6138fc565b611da19190613983565b6040518363ffffffff1660e01b8152600401611dbe9291906139be565b600060405180830381600087803b158015611dd857600080fd5b505af1158015611dec573d6000803e3d6000fd5b505050505b5050505050505050565b60026097541415611e1e5760405162461bcd60e51b8152600401610b0590613936565b6002609781905550600060de8281548110611e3b57611e3b61396d565b6000918252602080832085845260e090915260408320600490920201925081611e613390565b6001600160a01b03166001600160a01b0316815260200190815260200160002090506000606460d2600081548110611e9b57611e9b61396d565b90600052602060002001548360000154611eb591906138fc565b611ebf9190613983565b90506000606460d3600081548110611ed957611ed961396d565b90600052602060002001548460000154611ef391906138fc565b611efd9190613983565b600080855560018501559050611f12336117d2565b60cb548454611f2e916001600160a01b03918216911683612fb7565b604051828152859033907fbb757047c2b5f3974fe26b7c10f732e7bce710b0952a71082702781e62ae05959060200160405180910390a350506001609755505050565b60005b8151811015610e6857611f9f828281518110611f9257611f9261396d565b602002602001015161247d565b80611fa98161391b565b915050611f74565b600080516020613b47833981519152611fca8133612b4d565b50600092835260e0602090815260408085206001600160a01b039094168552929052912060030155565b60de5460005b81811015610e685761200b81611881565b6120148161391b565b9050611ffa565b600080516020613b678339815191526120348133612b4d565b811561204257612042611ff4565b8260de85815481106120565761205661396d565b90600052602060002090600402016001015460d85461207591906138cd565b61207f91906138e4565b60d8819055508260de85815481106120995761209961396d565b90600052602060002090600402016001018190555050505050565b600080516020613b478339815191526120cd8133612b4d565b5060d455565b600080516020613b478339815191526120ec8133612b4d565b8151610b0e9060d99060208501906133e5565b600080516020613b478339815191526121188133612b4d565b50600092835260e0602090815260408085206001600160a01b039094168552929052912060040155565b60d081815481106109f257600080fd5b60d754600090819084101561216b5760009150506109dc565b60005b60d15481101561227957600060d1828154811061218d5761218d61396d565b90600052602060002001549050600160d0805490506121ac91906138cd565b8211156121bf57600093505050506109dc565b80851161221357600060d083815481106121db576121db61396d565b906000526020600020015487876121f291906138cd565b6121fc91906138fc565b905061220881856138e4565b9450505050506109dc565b8086101561226657600060d083815481106122305761223061396d565b9060005260206000200154878361224791906138cd565b61225191906138fc565b9050819650808461226291906138e4565b9350505b50806122718161391b565b91505061216e565b509392505050565b60009182526065602090815260408084206001600160a01b0393909316845291905290205460ff1690565b60008060de84815481106122c2576122c261396d565b6000918252602080832087845260e0825260408085206001600160a01b038981168752935280852060049485029092016003810154815492516370a0823160e01b8152309681019690965290965091949193919216906370a082319060240160206040518083038186803b15801561233957600080fd5b505afa15801561234d573d6000803e3d6000fd5b505050506040513d601f19601f8201168201806040525081019061237191906139a5565b90508360020154421180156123865750600081115b156123d25760006123a0856002015442876001015461257d565b509193508492506123ba915083905064e8d4a510006138fc565b6123c49190613983565b6123ce90846138e4565b9250505b6001830154835464e8d4a51000906123eb9085906138fc565b6123f59190613983565b6123ff91906138cd565b979650505050505050565b60008061242161241b6001426138cd565b42612152565b905060d85460de84815481106124395761243961396d565b90600052602060002090600402016001015460cf548361245991906138fc565b61246391906138fc565b610a549190613983565b60d981815481106109f257600080fd5b61248681611881565b61248f81612cf6565b50565b600080516020613b478339815191526124ab8133612b4d565b8151610b0e9060d19060208501906133e5565b600080516020613b478339815191526124d78133612b4d565b8151610b0e9060d09060208501906133e5565b600080516020613b478339815191526125038133612b4d565b8260011415612513575060d55550565b8260021415610ac1575060d65550565b600082815260e0602090815260408083206001600160a01b0385168452909152812060038101541561256657600381015461255e90426138cd565b9150506109dc565b600481015461257590426138cd565b949350505050565b6000806000806000806125908989612152565b9050600060d8548860cf54846125a691906138fc565b6125b091906138fc565b6125ba9190613983565b9050600060c960009054906101000a90046001600160a01b03166001600160a01b03166318160ddd6040518163ffffffff1660e01b815260040160206040518083038186803b15801561260c57600080fd5b505afa158015612620573d6000803e3d6000fd5b505050506040513d601f19601f8201168201806040525081019061264491906139a5565b60c960009054906101000a90046001600160a01b03166001600160a01b031663355274ea6040518163ffffffff1660e01b815260040160206040518083038186803b15801561269257600080fd5b505afa1580156126a6573d6000803e3d6000fd5b505050506040513d601f19601f820116820180604052508101906126ca91906139a5565b6126d491906138cd565b9050818110156126f6576000975080965060009550600094506000935061276a565b606460da548361270691906138fc565b6127109190613983565b9750819650606460db548361272591906138fc565b61272f9190613983565b9550606460dc548361274191906138fc565b61274b9190613983565b9450606460dd548361275d91906138fc565b6127679190613983565b93505b505050939792965093509350565b6000828152606560205260409020600101546127948133612b4d565b610b0e8383612c8f565b600260975414156127c15760405162461bcd60e51b8152600401610b0590613936565b6002609755806128325760405162461bcd60e51b815260206004820152603660248201527f4d6173746572496e766573746f723a3a6465706f7369743a20616d6f756e742060448201527506d7573742062652067726561746572207468616e20360541b6064820152608401610b05565b600060de83815481106128475761284761396d565b6000918252602080832086845260e09091526040832060049092020192508161286d3390565b6001600160a01b0390811682526020808301939093526040918201600090812088825260e0855283822060cb5490931682529190935291209091506128b185611881565b6128ba85612cf6565b6128d13384546001600160a01b031690308761300d565b81546128de574260028301555b61271060d554856128ef91906138fc565b6128f99190613983565b61290390856138cd565b82600001600082825461291691906138e4565b90915550506003830154825464e8d4a5100091612932916138fc565b61293c9190613983565b600183015560d6546127109061295290866138fc565b61295c9190613983565b61296690856138cd565b81600001600082825461297991906138e4565b90915550506003830154815464e8d4a5100091612995916138fc565b61299f9190613983565b6001820155604051848152859033907f90890809c654f11d6e72a28fa60149770a0d11ec6c92319d6ceb2bb0a4ea1a159060200160405180910390a36004820154156129ea576129f1565b4260048301555b50426006909101555050600160975550565b600080516020613b47833981519152612a1c8133612b4d565b60c95460405163f2fde38b60e01b81526001600160a01b0384811660048301529091169063f2fde38b90602401600060405180830381600087803b158015612a6357600080fd5b505af1158015612a77573d6000803e3d6000fd5b505050505050565b60d381815481106109f257600080fd5b60d7546000908190841015612aa85760649150506109dc565b60005b60d15481101561227957600060d18281548110612aca57612aca61396d565b90600052602060002001549050600160d980549050612ae991906138cd565b821115612afc57600093505050506109dc565b808511612b2b5760d98281548110612b1657612b1661396d565b906000526020600020015493505050506109dc565b5080612b368161391b565b915050612aab565b6001600160a01b03163b151590565b612b578282612281565b610e6857612b6f816001600160a01b03166014613045565b612b7a836020613045565b604051602001612b8b929190613a03565b60408051601f198184030181529082905262461bcd60e51b8252610b0591600401613a78565b600054610100900460ff16612bd85760405162461bcd60e51b8152600401610b0590613aab565b565b600054610100900460ff16612c015760405162461bcd60e51b8152600401610b0590613aab565b612bd86131e1565b612c138282612281565b610e685760008281526065602090815260408083206001600160a01b03851684529091529020805460ff19166001179055612c4b3390565b6001600160a01b0316816001600160a01b0316837f2f8788117e7eff1d82e926ec794901d17c78024a50270940304540a733656f0d60405160405180910390a45050565b612c998282612281565b15610e685760008281526065602090815260408083206001600160a01b0385168085529252808320805460ff1916905551339285917ff6391f5c32d9c69d2a47ea670b442974b53935d1edc7fd64eb21e047a839171b9190a45050565b600060de8281548110612d0b57612d0b61396d565b6000918252602080832085845260e090915260408320600490920201925081612d313390565b6001600160a01b031681526020810191909152604001600020805490915015610b0e576000816001015464e8d4a5100084600301548460000154612d7591906138fc565b612d7f9190613983565b612d8991906138cd565b60c9546040516370a0823160e01b81523060048201529192506000916001600160a01b03909116906370a082319060240160206040518083038186803b158015612dd257600080fd5b505afa158015612de6573d6000803e3d6000fd5b505050506040513d601f19601f82011682018060405250810190612e0a91906139a5565b905080821115612e18578091505b8115612f8a5760c9546001600160a01b031663a9059cbb33846040518363ffffffff1660e01b8152600401612e4e9291906139be565b602060405180830381600087803b158015612e6857600080fd5b505af1158015612e7c573d6000803e3d6000fd5b505050506040513d601f19601f82011682018060405250810190612ea09190613af6565b50600060d454846002015411612f45576000612ec6612ec06001426138cd565b42612a8f565b90506064612ed482866138fc565b612ede9190613983565b60c95460405163282d3fdf60e01b81529193506001600160a01b03169063282d3fdf90612f1190339086906004016139be565b600060405180830381600087803b158015612f2b57600080fd5b505af1158015612f3f573d6000803e3d6000fd5b50505050505b4260028501556040805184815260208101839052879133917f3887f2857beaaf367eb618dfb5e22c1ebd74425affb0602c2e9fe126e3f860eb910160405180910390a3505b6003840154835464e8d4a5100091612fa1916138fc565b612fab9190613983565b60018401555050505050565b610b0e8363a9059cbb60e01b8484604051602401612fd69291906139be565b60408051601f198184030181529190526020810180516001600160e01b03166001600160e01b03199093169290921790915261320f565b6040516001600160a01b0380851660248301528316604482015260648101829052610a9f9085906323b872dd60e01b90608401612fd6565b606060006130548360026138fc565b61305f9060026138e4565b67ffffffffffffffff81111561307757613077613488565b6040519080825280601f01601f1916602001820160405280156130a1576020820181803683370190505b509050600360fc1b816000815181106130bc576130bc61396d565b60200101906001600160f81b031916908160001a905350600f60fb1b816001815181106130eb576130eb61396d565b60200101906001600160f81b031916908160001a905350600061310f8460026138fc565b61311a9060016138e4565b90505b6001811115613192576f181899199a1a9b1b9c1cb0b131b232b360811b85600f166010811061314e5761314e61396d565b1a60f81b8282815181106131645761316461396d565b60200101906001600160f81b031916908160001a90535060049490941c9361318b81613b13565b905061311d565b508315610a545760405162461bcd60e51b815260206004820181905260248201527f537472696e67733a20686578206c656e67746820696e73756666696369656e746044820152606401610b05565b600054610100900460ff166132085760405162461bcd60e51b8152600401610b0590613aab565b6001609755565b6000613264826040518060400160405280602081526020017f5361666545524332303a206c6f772d6c6576656c2063616c6c206661696c6564815250856001600160a01b03166132e19092919063ffffffff16565b805190915015610b0e57808060200190518101906132829190613af6565b610b0e5760405162461bcd60e51b815260206004820152602a60248201527f5361666545524332303a204552433230206f7065726174696f6e20646964206e6044820152691bdd081cdd58d8d9595960b21b6064820152608401610b05565b60606125758484600085856001600160a01b0385163b6133435760405162461bcd60e51b815260206004820152601d60248201527f416464726573733a2063616c6c20746f206e6f6e2d636f6e74726163740000006044820152606401610b05565b600080866001600160a01b0316858760405161335f9190613b2a565b60006040518083038185875af1925050503d806000811461339c576040519150601f19603f3d011682016040523d82523d6000602084013e6133a1565b606091505b50915091506123ff828286606083156133bb575081610a54565b8251156133cb5782518084602001fd5b8160405162461bcd60e51b8152600401610b059190613a78565b828054828255906000526020600020908101928215613420579160200282015b82811115613420578251825591602001919060010190613405565b5061342c929150613430565b5090565b5b8082111561342c5760008155600101613431565b60006020828403121561345757600080fd5b81356001600160e01b031981168114610a5457600080fd5b60006020828403121561348157600080fd5b5035919050565b634e487b7160e01b600052604160045260246000fd5b6040516101c0810167ffffffffffffffff811182821017156134c2576134c2613488565b60405290565b600082601f8301126134d957600080fd5b8135602067ffffffffffffffff808311156134f6576134f6613488565b8260051b604051601f19603f8301168101818110848211171561351b5761351b613488565b60405293845285810183019383810192508785111561353957600080fd5b83870191505b848210156123ff5781358352918301919083019061353f565b6000806040838503121561356b57600080fd5b82359150602083013567ffffffffffffffff81111561358957600080fd5b613595858286016134c8565b9150509250929050565b6001600160a01b038116811461248f57600080fd5b80356135bf8161359f565b919050565b6000602082840312156135d657600080fd5b813567ffffffffffffffff808211156135ee57600080fd5b908301906101c0828603121561360357600080fd5b61360b61349e565b613614836135b4565b81526020830135602082015260408301356040820152606083013560608201526080830135608082015260a083013560a082015261365460c084016135b4565b60c082015261366560e084016135b4565b60e08201526101006136788185016135b4565b9082015261012061368a8482016135b4565b9082015261014083810135838111156136a257600080fd5b6136ae888287016134c8565b82840152505061016080840135838111156136c857600080fd5b6136d4888287016134c8565b82840152505061018080840135838111156136ee57600080fd5b6136fa888287016134c8565b8284015250506101a0808401358381111561371457600080fd5b613720888287016134c8565b918301919091525095945050505050565b801515811461248f57600080fd5b60008060006060848603121561375457600080fd5b8335925060208401356137668161359f565b9150604084013561377681613731565b809150509250925092565b6000806040838503121561379457600080fd5b8235915060208301356137a68161359f565b809150509250929050565b600080604083850312156137c457600080fd5b50508035926020909101359150565b6000602082840312156137e557600080fd5b813567ffffffffffffffff8111156137fc57600080fd5b612575848285016134c8565b60008060006060848603121561381d57600080fd5b83359250602084013561382f8161359f565b929592945050506040919091013590565b60008060006060848603121561385557600080fd5b8335925060208401359150604084013561377681613731565b60008060006060848603121561388357600080fd5b505081359360208301359350604090920135919050565b6000602082840312156138ac57600080fd5b8135610a548161359f565b634e487b7160e01b600052601160045260246000fd5b6000828210156138df576138df6138b7565b500390565b600082198211156138f7576138f76138b7565b500190565b6000816000190483118215151615613916576139166138b7565b500290565b600060001982141561392f5761392f6138b7565b5060010190565b6020808252601f908201527f5265656e7472616e637947756172643a207265656e7472616e742063616c6c00604082015260600190565b634e487b7160e01b600052603260045260246000fd5b6000826139a057634e487b7160e01b600052601260045260246000fd5b500490565b6000602082840312156139b757600080fd5b5051919050565b6001600160a01b03929092168252602082015260400190565b60005b838110156139f25781810151838201526020016139da565b83811115610a9f5750506000910152565b7f416363657373436f6e74726f6c3a206163636f756e7420000000000000000000815260008351613a3b8160178501602088016139d7565b7001034b99036b4b9b9b4b733903937b6329607d1b6017918401918201528351613a6c8160288401602088016139d7565b01602801949350505050565b6020815260008251806020840152613a978160408501602087016139d7565b601f01601f19169190910160400192915050565b6020808252602b908201527f496e697469616c697a61626c653a20636f6e7472616374206973206e6f74206960408201526a6e697469616c697a696e6760a81b606082015260800190565b600060208284031215613b0857600080fd5b8151610a5481613731565b600081613b2257613b226138b7565b506000190190565b60008251613b3c8184602087016139d7565b919091019291505056fe0393b4c1b6519e8b53ae0efa1ab522060a3b9f8d86d09c8a22ca6d6eea735cf7a49807205ce4d355092ef5a8a18f56e8913cf4a201fbe287825b095693c21775a2646970667358221220b16040dee9a57994e1161f6d8ba18c4db22604d5d2ba89a55b6fe8827d0b59c964736f6c63430008090033",
  "linkReferences": {},
  "deployedLinkReferences": {}
}