{
  "_format": "hh-sol-artifact-1",
  "contractName": "MasterInvestor",
  "sourceName": "contracts/npc/MasterInvestor.sol",
  "abi": [
    {
      "inputs": [],
      "stateMutability": "nonpayable",
      "type": "constructor"
    },
    {
      "anonymous": false,
      "inputs": [
        {
          "indexed": true,
          "internalType": "address",
          "name": "user",
          "type": "address"
        },
        {
          "indexed": true,
          "internalType": "uint256",
          "name": "pid",
          "type": "uint256"
        },
        {
          "indexed": false,
          "internalType": "uint256",
          "name": "amount",
          "type": "uint256"
        }
      ],
      "name": "Deposit",
      "type": "event"
    },
    {
      "anonymous": false,
      "inputs": [
        {
          "indexed": true,
          "internalType": "address",
          "name": "user",
          "type": "address"
        },
        {
          "indexed": true,
          "internalType": "uint256",
          "name": "pid",
          "type": "uint256"
        },
        {
          "indexed": false,
          "internalType": "uint256",
          "name": "amount",
          "type": "uint256"
        }
      ],
      "name": "EmergencyWithdraw",
      "type": "event"
    },
    {
      "anonymous": false,
      "inputs": [
        {
          "indexed": false,
          "internalType": "uint8",
          "name": "version",
          "type": "uint8"
        }
      ],
      "name": "Initialized",
      "type": "event"
    },
    {
      "anonymous": false,
      "inputs": [
        {
          "indexed": true,
          "internalType": "bytes32",
          "name": "role",
          "type": "bytes32"
        },
        {
          "indexed": true,
          "internalType": "bytes32",
          "name": "previousAdminRole",
          "type": "bytes32"
        },
        {
          "indexed": true,
          "internalType": "bytes32",
          "name": "newAdminRole",
          "type": "bytes32"
        }
      ],
      "name": "RoleAdminChanged",
      "type": "event"
    },
    {
      "anonymous": false,
      "inputs": [
        {
          "indexed": true,
          "internalType": "bytes32",
          "name": "role",
          "type": "bytes32"
        },
        {
          "indexed": true,
          "internalType": "address",
          "name": "account",
          "type": "address"
        },
        {
          "indexed": true,
          "internalType": "address",
          "name": "sender",
          "type": "address"
        }
      ],
      "name": "RoleGranted",
      "type": "event"
    },
    {
      "anonymous": false,
      "inputs": [
        {
          "indexed": true,
          "internalType": "bytes32",
          "name": "role",
          "type": "bytes32"
        },
        {
          "indexed": true,
          "internalType": "address",
          "name": "account",
          "type": "address"
        },
        {
          "indexed": true,
          "internalType": "address",
          "name": "sender",
          "type": "address"
        }
      ],
      "name": "RoleRevoked",
      "type": "event"
    },
    {
      "anonymous": false,
      "inputs": [
        {
          "indexed": true,
          "internalType": "address",
          "name": "user",
          "type": "address"
        },
        {
          "indexed": true,
          "internalType": "uint256",
          "name": "pid",
          "type": "uint256"
        },
        {
          "indexed": false,
          "internalType": "uint256",
          "name": "amount",
          "type": "uint256"
        },
        {
          "indexed": false,
          "internalType": "uint256",
          "name": "lockAmount",
          "type": "uint256"
        }
      ],
      "name": "SendGovernanceTokenReward",
      "type": "event"
    },
    {
      "anonymous": false,
      "inputs": [
        {
          "indexed": true,
          "internalType": "address",
          "name": "user",
          "type": "address"
        },
        {
          "indexed": true,
          "internalType": "uint256",
          "name": "pid",
          "type": "uint256"
        },
        {
          "indexed": false,
          "internalType": "uint256",
          "name": "amount",
          "type": "uint256"
        }
      ],
      "name": "Withdraw",
      "type": "event"
    },
    {
      "inputs": [],
      "name": "ADMIN_ROLE",
      "outputs": [
        {
          "internalType": "bytes32",
          "name": "",
          "type": "bytes32"
        }
      ],
      "stateMutability": "view",
      "type": "function"
    },
    {
      "inputs": [],
      "name": "CONTRACT_ROLE",
      "outputs": [
        {
          "internalType": "bytes32",
          "name": "",
          "type": "bytes32"
        }
      ],
      "stateMutability": "view",
      "type": "function"
    },
    {
      "inputs": [],
      "name": "DEFAULT_ADMIN_ROLE",
      "outputs": [
        {
          "internalType": "bytes32",
          "name": "",
          "type": "bytes32"
        }
      ],
      "stateMutability": "view",
      "type": "function"
    },
    {
      "inputs": [],
      "name": "DEV_DEP_FEE",
      "outputs": [
        {
          "internalType": "uint256",
          "name": "",
          "type": "uint256"
        }
      ],
      "stateMutability": "view",
      "type": "function"
    },
    {
      "inputs": [
        {
          "internalType": "uint256",
          "name": "",
          "type": "uint256"
        }
      ],
      "name": "DEV_FEE_STAGES",
      "outputs": [
        {
          "internalType": "uint256",
          "name": "",
          "type": "uint256"
        }
      ],
      "stateMutability": "view",
      "type": "function"
    },
    {
      "inputs": [],
      "name": "DEV_FUND_ADDRESS",
      "outputs": [
        {
          "internalType": "address",
          "name": "",
          "type": "address"
        }
      ],
      "stateMutability": "view",
      "type": "function"
    },
    {
      "inputs": [],
      "name": "FEE_SHARE_FUND_ADDRESS",
      "outputs": [
        {
          "internalType": "address",
          "name": "",
          "type": "address"
        }
      ],
      "stateMutability": "view",
      "type": "function"
    },
    {
      "inputs": [],
      "name": "FINISH_BONUS_AT_TIME",
      "outputs": [
        {
          "internalType": "uint256",
          "name": "",
          "type": "uint256"
        }
      ],
      "stateMutability": "view",
      "type": "function"
    },
    {
      "inputs": [],
      "name": "FOUNDERS_FUND_ADDRESS",
      "outputs": [
        {
          "internalType": "address",
          "name": "",
          "type": "address"
        }
      ],
      "stateMutability": "view",
      "type": "function"
    },
    {
      "inputs": [],
      "name": "GOV_TOKEN",
      "outputs": [
        {
          "internalType": "contract IERC20ExtendedUpgradeable",
          "name": "",
          "type": "address"
        }
      ],
      "stateMutability": "view",
      "type": "function"
    },
    {
      "inputs": [
        {
          "internalType": "uint256",
          "name": "",
          "type": "uint256"
        }
      ],
      "name": "HALVING_AT_TIMES",
      "outputs": [
        {
          "internalType": "uint256",
          "name": "",
          "type": "uint256"
        }
      ],
      "stateMutability": "view",
      "type": "function"
    },
    {
      "inputs": [],
      "name": "MARKETING_FUND_ADDRESS",
      "outputs": [
        {
          "internalType": "address",
          "name": "",
          "type": "address"
        }
      ],
      "stateMutability": "view",
      "type": "function"
    },
    {
      "inputs": [],
      "name": "PERCENT_FOR_DEV",
      "outputs": [
        {
          "internalType": "uint256",
          "name": "",
          "type": "uint256"
        }
      ],
      "stateMutability": "view",
      "type": "function"
    },
    {
      "inputs": [],
      "name": "PERCENT_FOR_FEE_SHARE",
      "outputs": [
        {
          "internalType": "uint256",
          "name": "",
          "type": "uint256"
        }
      ],
      "stateMutability": "view",
      "type": "function"
    },
    {
      "inputs": [],
      "name": "PERCENT_FOR_FOUNDERS",
      "outputs": [
        {
          "internalType": "uint256",
          "name": "",
          "type": "uint256"
        }
      ],
      "stateMutability": "view",
      "type": "function"
    },
    {
      "inputs": [],
      "name": "PERCENT_FOR_MARKETING",
      "outputs": [
        {
          "internalType": "uint256",
          "name": "",
          "type": "uint256"
        }
      ],
      "stateMutability": "view",
      "type": "function"
    },
    {
      "inputs": [
        {
          "internalType": "uint256",
          "name": "",
          "type": "uint256"
        }
      ],
      "name": "PERCENT_LOCK_BONUS_REWARD",
      "outputs": [
        {
          "internalType": "uint256",
          "name": "",
          "type": "uint256"
        }
      ],
      "stateMutability": "view",
      "type": "function"
    },
    {
      "inputs": [
        {
          "internalType": "uint256",
          "name": "",
          "type": "uint256"
        }
      ],
      "name": "REWARD_MULTIPLIERS",
      "outputs": [
        {
          "internalType": "uint256",
          "name": "",
          "type": "uint256"
        }
      ],
      "stateMutability": "view",
      "type": "function"
    },
    {
      "inputs": [],
      "name": "REWARD_PER_SECOND",
      "outputs": [
        {
          "internalType": "uint256",
          "name": "",
          "type": "uint256"
        }
      ],
      "stateMutability": "view",
      "type": "function"
    },
    {
      "inputs": [],
      "name": "REWARD_TOKEN",
      "outputs": [
        {
          "internalType": "contract IERC20ExtendedUpgradeable",
          "name": "",
          "type": "address"
        }
      ],
      "stateMutability": "view",
      "type": "function"
    },
    {
      "inputs": [],
      "name": "START_TIME",
      "outputs": [
        {
          "internalType": "uint256",
          "name": "",
          "type": "uint256"
        }
      ],
      "stateMutability": "view",
      "type": "function"
    },
    {
      "inputs": [],
      "name": "TOTAL_ALLOCATION_POINTS",
      "outputs": [
        {
          "internalType": "uint256",
          "name": "",
          "type": "uint256"
        }
      ],
      "stateMutability": "view",
      "type": "function"
    },
    {
      "inputs": [],
      "name": "USER_DEP_FEE",
      "outputs": [
        {
          "internalType": "uint256",
          "name": "",
          "type": "uint256"
        }
      ],
      "stateMutability": "view",
      "type": "function"
    },
    {
      "inputs": [
        {
          "internalType": "uint256",
          "name": "",
          "type": "uint256"
        }
      ],
      "name": "USER_FEE_STAGES",
      "outputs": [
        {
          "internalType": "uint256",
          "name": "",
          "type": "uint256"
        }
      ],
      "stateMutability": "view",
      "type": "function"
    },
    {
      "inputs": [
        {
          "internalType": "uint256",
          "name": "_allocPoint",
          "type": "uint256"
        },
        {
          "internalType": "contract IERC20ExtendedUpgradeable",
          "name": "_lpToken",
          "type": "address"
        },
        {
          "internalType": "bool",
          "name": "_withUpdate",
          "type": "bool"
        }
      ],
      "name": "add",
      "outputs": [],
      "stateMutability": "nonpayable",
      "type": "function"
    },
    {
      "inputs": [
        {
          "internalType": "uint256",
          "name": "_pid",
          "type": "uint256"
        }
      ],
      "name": "claimReward",
      "outputs": [],
      "stateMutability": "nonpayable",
      "type": "function"
    },
    {
      "inputs": [
        {
          "internalType": "uint256[]",
          "name": "_pids",
          "type": "uint256[]"
        }
      ],
      "name": "claimRewards",
      "outputs": [],
      "stateMutability": "nonpayable",
      "type": "function"
    },
    {
      "inputs": [
        {
          "internalType": "uint256",
          "name": "_pid",
          "type": "uint256"
        },
        {
          "internalType": "address",
          "name": "_user",
          "type": "address"
        },
        {
          "internalType": "uint256",
          "name": "_amount",
          "type": "uint256"
        }
      ],
      "name": "correctWithdrawal",
      "outputs": [],
      "stateMutability": "nonpayable",
      "type": "function"
    },
    {
      "inputs": [
        {
          "internalType": "uint256",
          "name": "_pid",
          "type": "uint256"
        },
        {
          "internalType": "uint256",
          "name": "_amount",
          "type": "uint256"
        }
      ],
      "name": "deposit",
      "outputs": [],
      "stateMutability": "nonpayable",
      "type": "function"
    },
    {
      "inputs": [
        {
          "internalType": "uint256",
          "name": "_pid",
          "type": "uint256"
        }
      ],
      "name": "emergencyWithdraw",
      "outputs": [],
      "stateMutability": "nonpayable",
      "type": "function"
    },
    {
      "inputs": [
        {
          "internalType": "uint256",
          "name": "_from",
          "type": "uint256"
        },
        {
          "internalType": "uint256",
          "name": "_to",
          "type": "uint256"
        }
      ],
      "name": "getLockPercentage",
      "outputs": [
        {
          "internalType": "uint256",
          "name": "",
          "type": "uint256"
        }
      ],
      "stateMutability": "view",
      "type": "function"
    },
    {
      "inputs": [
        {
          "internalType": "uint256",
          "name": "_from",
          "type": "uint256"
        },
        {
          "internalType": "uint256",
          "name": "_to",
          "type": "uint256"
        }
      ],
      "name": "getMultiplier",
      "outputs": [
        {
          "internalType": "uint256",
          "name": "",
          "type": "uint256"
        }
      ],
      "stateMutability": "view",
      "type": "function"
    },
    {
      "inputs": [
        {
          "internalType": "uint256",
          "name": "pid1",
          "type": "uint256"
        }
      ],
      "name": "getNewRewardPerSecond",
      "outputs": [
        {
          "internalType": "uint256",
          "name": "",
          "type": "uint256"
        }
      ],
      "stateMutability": "view",
      "type": "function"
    },
    {
      "inputs": [
        {
          "internalType": "uint256",
          "name": "_from",
          "type": "uint256"
        },
        {
          "internalType": "uint256",
          "name": "_to",
          "type": "uint256"
        },
        {
          "internalType": "uint256",
          "name": "_allocPoint",
          "type": "uint256"
        }
      ],
      "name": "getPoolReward",
      "outputs": [
        {
          "internalType": "uint256",
          "name": "forDev",
          "type": "uint256"
        },
        {
          "internalType": "uint256",
          "name": "forFarmer",
          "type": "uint256"
        },
        {
          "internalType": "uint256",
          "name": "forLP",
          "type": "uint256"
        },
        {
          "internalType": "uint256",
          "name": "forCom",
          "type": "uint256"
        },
        {
          "internalType": "uint256",
          "name": "forFounders",
          "type": "uint256"
        }
      ],
      "stateMutability": "view",
      "type": "function"
    },
    {
      "inputs": [
        {
          "internalType": "bytes32",
          "name": "role",
          "type": "bytes32"
        }
      ],
      "name": "getRoleAdmin",
      "outputs": [
        {
          "internalType": "bytes32",
          "name": "",
          "type": "bytes32"
        }
      ],
      "stateMutability": "view",
      "type": "function"
    },
    {
      "inputs": [
        {
          "internalType": "bytes32",
          "name": "role",
          "type": "bytes32"
        },
        {
          "internalType": "address",
          "name": "account",
          "type": "address"
        }
      ],
      "name": "grantRole",
      "outputs": [],
      "stateMutability": "nonpayable",
      "type": "function"
    },
    {
      "inputs": [
        {
          "internalType": "bytes32",
          "name": "role",
          "type": "bytes32"
        },
        {
          "internalType": "address",
          "name": "account",
          "type": "address"
        }
      ],
      "name": "hasRole",
      "outputs": [
        {
          "internalType": "bool",
          "name": "",
          "type": "bool"
        }
      ],
      "stateMutability": "view",
      "type": "function"
    },
    {
      "inputs": [
        {
          "components": [
            {
              "internalType": "contract IERC20ExtendedUpgradeable",
              "name": "govToken",
              "type": "address"
            },
            {
              "internalType": "contract IERC20ExtendedUpgradeable",
              "name": "rewardToken",
              "type": "address"
            },
            {
              "internalType": "uint256",
              "name": "rewardPerSecond",
              "type": "uint256"
            },
            {
              "internalType": "uint256",
              "name": "startTime",
              "type": "uint256"
            },
            {
              "internalType": "uint256",
              "name": "halvingAfterTime",
              "type": "uint256"
            },
            {
              "internalType": "uint256",
              "name": "userDepositFee",
              "type": "uint256"
            },
            {
              "internalType": "uint256",
              "name": "devDepositFee",
              "type": "uint256"
            },
            {
              "internalType": "address",
              "name": "devFundAddress",
              "type": "address"
            },
            {
              "internalType": "address",
              "name": "feeShareFundAddress",
              "type": "address"
            },
            {
              "internalType": "address",
              "name": "marketingFundAddress",
              "type": "address"
            },
            {
              "internalType": "address",
              "name": "foundersFundAddress",
              "type": "address"
            },
            {
              "internalType": "uint256[]",
              "name": "rewardMultipliers",
              "type": "uint256[]"
            },
            {
              "internalType": "uint256[]",
              "name": "userFeeStages",
              "type": "uint256[]"
            },
            {
              "internalType": "uint256[]",
              "name": "devFeeStages",
              "type": "uint256[]"
            },
            {
              "internalType": "uint256[]",
              "name": "percentLockBonusReward",
              "type": "uint256[]"
            }
          ],
          "internalType": "struct MasterInvestor.ConstructorParams",
          "name": "params",
          "type": "tuple"
        }
      ],
      "name": "initialize",
      "outputs": [],
      "stateMutability": "nonpayable",
      "type": "function"
    },
    {
      "inputs": [],
      "name": "massUpdatePools",
      "outputs": [],
      "stateMutability": "nonpayable",
      "type": "function"
    },
    {
      "inputs": [
        {
          "internalType": "uint256",
          "name": "_pid",
          "type": "uint256"
        },
        {
          "internalType": "address",
          "name": "_user",
          "type": "address"
        }
      ],
      "name": "pendingReward",
      "outputs": [
        {
          "internalType": "uint256",
          "name": "",
          "type": "uint256"
        }
      ],
      "stateMutability": "view",
      "type": "function"
    },
    {
      "inputs": [
        {
          "internalType": "contract IERC20ExtendedUpgradeable",
          "name": "",
          "type": "address"
        }
      ],
      "name": "poolExistence",
      "outputs": [
        {
          "internalType": "bool",
          "name": "",
          "type": "bool"
        }
      ],
      "stateMutability": "view",
      "type": "function"
    },
    {
      "inputs": [
        {
          "internalType": "address",
          "name": "",
          "type": "address"
        }
      ],
      "name": "poolId",
      "outputs": [
        {
          "internalType": "uint256",
          "name": "",
          "type": "uint256"
        }
      ],
      "stateMutability": "view",
      "type": "function"
    },
    {
      "inputs": [
        {
          "internalType": "uint256",
          "name": "",
          "type": "uint256"
        }
      ],
      "name": "poolInfo",
      "outputs": [
        {
          "internalType": "contract IERC20ExtendedUpgradeable",
          "name": "lpToken",
          "type": "address"
        },
        {
          "internalType": "uint256",
          "name": "allocPoint",
          "type": "uint256"
        },
        {
          "internalType": "uint256",
          "name": "lastRewardTime",
          "type": "uint256"
        },
        {
          "internalType": "uint256",
          "name": "accGovTokenPerShare",
          "type": "uint256"
        }
      ],
      "stateMutability": "view",
      "type": "function"
    },
    {
      "inputs": [],
      "name": "poolLength",
      "outputs": [
        {
          "internalType": "uint256",
          "name": "",
          "type": "uint256"
        }
      ],
      "stateMutability": "view",
      "type": "function"
    },
    {
      "inputs": [
        {
          "internalType": "bytes32",
          "name": "role",
          "type": "bytes32"
        },
        {
          "internalType": "address",
          "name": "account",
          "type": "address"
        }
      ],
      "name": "renounceRole",
      "outputs": [],
      "stateMutability": "nonpayable",
      "type": "function"
    },
    {
      "inputs": [
        {
          "internalType": "uint256",
          "name": "_pid",
          "type": "uint256"
        },
        {
          "internalType": "address",
          "name": "_user",
          "type": "address"
        },
        {
          "internalType": "uint256",
          "name": "_time",
          "type": "uint256"
        }
      ],
      "name": "reviseDeposit",
      "outputs": [],
      "stateMutability": "nonpayable",
      "type": "function"
    },
    {
      "inputs": [
        {
          "internalType": "uint256",
          "name": "_pid",
          "type": "uint256"
        },
        {
          "internalType": "address",
          "name": "_user",
          "type": "address"
        },
        {
          "internalType": "uint256",
          "name": "_time",
          "type": "uint256"
        }
      ],
      "name": "reviseWithdraw",
      "outputs": [],
      "stateMutability": "nonpayable",
      "type": "function"
    },
    {
      "inputs": [
        {
          "internalType": "bytes32",
          "name": "role",
          "type": "bytes32"
        },
        {
          "internalType": "address",
          "name": "account",
          "type": "address"
        }
      ],
      "name": "revokeRole",
      "outputs": [],
      "stateMutability": "nonpayable",
      "type": "function"
    },
    {
      "inputs": [
        {
          "internalType": "uint256",
          "name": "_pid",
          "type": "uint256"
        },
        {
          "internalType": "uint256",
          "name": "_allocPoint",
          "type": "uint256"
        },
        {
          "internalType": "bool",
          "name": "_withUpdate",
          "type": "bool"
        }
      ],
      "name": "set",
      "outputs": [],
      "stateMutability": "nonpayable",
      "type": "function"
    },
    {
      "inputs": [
        {
          "internalType": "bytes4",
          "name": "interfaceId",
          "type": "bytes4"
        }
      ],
      "name": "supportsInterface",
      "outputs": [
        {
          "internalType": "bool",
          "name": "",
          "type": "bool"
        }
      ],
      "stateMutability": "view",
      "type": "function"
    },
    {
      "inputs": [],
      "name": "totalAllocPoint",
      "outputs": [
        {
          "internalType": "uint256",
          "name": "",
          "type": "uint256"
        }
      ],
      "stateMutability": "view",
      "type": "function"
    },
    {
      "inputs": [
        {
          "internalType": "uint256",
          "name": "kind",
          "type": "uint256"
        },
        {
          "internalType": "address",
          "name": "_address",
          "type": "address"
        }
      ],
      "name": "updateAddress",
      "outputs": [],
      "stateMutability": "nonpayable",
      "type": "function"
    },
    {
      "inputs": [
        {
          "internalType": "uint256",
          "name": "kind",
          "type": "uint256"
        },
        {
          "internalType": "uint256",
          "name": "fee",
          "type": "uint256"
        }
      ],
      "name": "updateDepositFee",
      "outputs": [],
      "stateMutability": "nonpayable",
      "type": "function"
    },
    {
      "inputs": [
        {
          "internalType": "uint256",
          "name": "kind",
          "type": "uint256"
        },
        {
          "internalType": "uint256[]",
          "name": "feeStages",
          "type": "uint256[]"
        }
      ],
      "name": "updateFeeStages",
      "outputs": [],
      "stateMutability": "nonpayable",
      "type": "function"
    },
    {
      "inputs": [
        {
          "internalType": "uint256[]",
          "name": "times",
          "type": "uint256[]"
        }
      ],
      "name": "updateHalvingAtTimes",
      "outputs": [],
      "stateMutability": "nonpayable",
      "type": "function"
    },
    {
      "inputs": [
        {
          "internalType": "uint256",
          "name": "time",
          "type": "uint256"
        }
      ],
      "name": "updateLastRewardTime",
      "outputs": [],
      "stateMutability": "nonpayable",
      "type": "function"
    },
    {
      "inputs": [
        {
          "internalType": "uint256",
          "name": "kind",
          "type": "uint256"
        },
        {
          "internalType": "uint256",
          "name": "percent",
          "type": "uint256"
        }
      ],
      "name": "updateLockPercent",
      "outputs": [],
      "stateMutability": "nonpayable",
      "type": "function"
    },
    {
      "inputs": [
        {
          "internalType": "uint256",
          "name": "_pid",
          "type": "uint256"
        }
      ],
      "name": "updatePool",
      "outputs": [],
      "stateMutability": "nonpayable",
      "type": "function"
    },
    {
      "inputs": [
        {
          "internalType": "uint256[]",
          "name": "multipliers",
          "type": "uint256[]"
        }
      ],
      "name": "updateRewardMultipliers",
      "outputs": [],
      "stateMutability": "nonpayable",
      "type": "function"
    },
    {
      "inputs": [
        {
          "internalType": "uint256",
          "name": "reward",
          "type": "uint256"
        }
      ],
      "name": "updateRewardPerSecond",
      "outputs": [],
      "stateMutability": "nonpayable",
      "type": "function"
    },
    {
      "inputs": [
        {
          "internalType": "uint256",
          "name": "time",
          "type": "uint256"
        }
      ],
      "name": "updateStartTime",
      "outputs": [],
      "stateMutability": "nonpayable",
      "type": "function"
    },
    {
      "inputs": [
        {
          "internalType": "uint256[]",
          "name": "lockPercents",
          "type": "uint256[]"
        }
      ],
      "name": "updateUserLockPercents",
      "outputs": [],
      "stateMutability": "nonpayable",
      "type": "function"
    },
    {
      "inputs": [
        {
          "internalType": "uint256",
          "name": "_pid",
          "type": "uint256"
        }
      ],
      "name": "userDelta",
      "outputs": [
        {
          "internalType": "uint256",
          "name": "",
          "type": "uint256"
        }
      ],
      "stateMutability": "view",
      "type": "function"
    },
    {
      "inputs": [
        {
          "internalType": "uint256",
          "name": "_pid",
          "type": "uint256"
        },
        {
          "internalType": "address",
          "name": "_address",
          "type": "address"
        }
      ],
      "name": "userDeltaOf",
      "outputs": [
        {
          "internalType": "uint256",
          "name": "",
          "type": "uint256"
        }
      ],
      "stateMutability": "view",
      "type": "function"
    },
    {
      "inputs": [
        {
          "internalType": "uint256",
          "name": "",
          "type": "uint256"
        },
        {
          "internalType": "address",
          "name": "",
          "type": "address"
        }
      ],
      "name": "userInfo",
      "outputs": [
        {
          "internalType": "uint256",
          "name": "amount",
          "type": "uint256"
        },
        {
          "internalType": "uint256",
          "name": "rewardDebt",
          "type": "uint256"
        },
        {
          "internalType": "uint256",
          "name": "rewardDebtAtTime",
          "type": "uint256"
        },
        {
          "internalType": "uint256",
          "name": "lastWithdrawTime",
          "type": "uint256"
        },
        {
          "internalType": "uint256",
          "name": "firstDepositTime",
          "type": "uint256"
        },
        {
          "internalType": "uint256",
          "name": "timeDelta",
          "type": "uint256"
        },
        {
          "internalType": "uint256",
          "name": "lastDepositTime",
          "type": "uint256"
        }
      ],
      "stateMutability": "view",
      "type": "function"
    },
    {
      "inputs": [
        {
          "internalType": "uint256",
          "name": "_pid",
          "type": "uint256"
        },
        {
          "internalType": "uint256",
          "name": "_amount",
          "type": "uint256"
        },
        {
          "internalType": "address",
          "name": "_address",
          "type": "address"
        }
      ],
      "name": "withdraw",
      "outputs": [],
      "stateMutability": "nonpayable",
      "type": "function"
    },
    {
      "inputs": [
        {
          "internalType": "uint256",
          "name": "_pid",
          "type": "uint256"
        },
        {
          "internalType": "uint256",
          "name": "_amount",
          "type": "uint256"
        }
      ],
      "name": "withdraw",
      "outputs": [],
      "stateMutability": "nonpayable",
      "type": "function"
    }
  ],
  "bytecode": "0x60806040523480156200001157600080fd5b506200001c62000022565b620000e4565b600054610100900460ff16156200008f5760405162461bcd60e51b815260206004820152602760248201527f496e697469616c697a61626c653a20636f6e747261637420697320696e697469604482015266616c697a696e6760c81b606482015260840160405180910390fd5b60005460ff9081161015620000e2576000805460ff191660ff9081179091556040519081527f7f26b83ff96e1f2b6a682f133852f6798a09c465da95921460cefb38474024989060200160405180910390a15b565b613e5280620000f46000396000f3fe608060405234801561001057600080fd5b50600436106103f15760003560e01c806382386d5811610215578063c35cadbe11610125578063ddaa26ad116100b8578063f491adf711610087578063f491adf71461094e578063f92d34a914610961578063f930e77014610974578063fa0718d914610987578063ff51a2721461099057600080fd5b8063ddaa26ad14610916578063e2bbb1581461091f578063ed9bdeda14610932578063f14dab0f1461093b57600080fd5b8063cbd258b5116100f4578063cbd258b5146108ce578063d547741f146108f1578063d79c395314610904578063d9b0d4351461090d57600080fd5b8063c35cadbe14610864578063c6929e5314610877578063c7b6e52514610880578063c8ed76801461089357600080fd5b806399248ea7116101a8578063a82859c511610177578063a82859c514610805578063ae169a5014610818578063b16826891461082b578063b78777161461083e578063bd27e3f81461085157600080fd5b806399248ea7146107c45780639b963d2a146107d7578063a217fddf146107ea578063a2570bd6146107f257600080fd5b806391d14854116101e457806391d14854146106f957806393f1a40b1461070c57806394a918b71461079e57806398969e82146107b157600080fd5b806382386d5814610695578063874feed3146106a8578063875ad581146106bb5780638dbb1e3a146106e657600080fd5b80634004c8e7116103105780635643759e116102a357806364482f791161027257806364482f791461063e5780636461fc8c1461065157806365cf37711461066457806375b238fc146106775780637c0c57881461068c57600080fd5b80635643759e146105fd5780635eac6239146106105780636066debd14610623578063630b5ba11461063657600080fd5b80634b0cf206116102df5780634b0cf206146105bb57806351eb05a6146105ce5780635312ea8e146105e157806356407a61146105f457600080fd5b80634004c8e71461058357806343628fb414610596578063441a3e701461059f5780634abbbd28146105b257600080fd5b80631526fe27116103885780632ab29df7116103575780632ab29df7146105375780632f2ff15d1461054a57806335582e681461055d57806336568abe1461057057600080fd5b80631526fe27146104bc57806317caf6f1146104f95780631eaaa04514610501578063248a9ca31461051457600080fd5b8063081e3eda116103c4578063081e3eda1461047b57806309ae4d2c146104835780630ad58d2f146104965780630d329fea146104a957600080fd5b806301ffc9a7146103f6578063027e69991461041e57806303fe46ab1461043f57806306bcf02f14610466575b600080fd5b61040961040436600461368c565b6109b0565b60405190151581526020015b60405180910390f35b61043161042c3660046136b6565b6109e7565b604051908152602001610415565b6104317f364d3d7565c7a8300c96fd53e065d19b65848d7b23b3191adcd55621c744223c81565b6104796104743660046136b6565b610a08565b005b60de54610431565b6104316104913660046136b6565b610a26565b6104796104a43660046136f4565b610a6e565b6104796104b73660046137fd565b610beb565b6104cf6104ca3660046136b6565b610c8c565b604080516001600160a01b0390951685526020850193909352918301526060820152608001610415565b60d854610431565b61047961050f366004613852565b610cd0565b6104316105223660046136b6565b60009081526065602052604090206001015490565b610479610545366004613889565b610f41565b610479610558366004613889565b610ff9565b61047961056b3660046138b9565b61101e565b61047961057e366004613889565b611072565b6104796105913660046136b6565b6110f0565b61043160d85481565b6104796105ad3660046138b9565b61110e565b61043160d45481565b6104316105c93660046136b6565b61168f565b6104796105dc3660046136b6565b61169f565b6104796105ef3660046136b6565b611d16565b61043160d65481565b61047961060b3660046138db565b611e8b565b61047961061e366004613913565b611ef1565b6104796106313660046138db565b611f31565b610479611f73565b61047961064c366004613948565b611f9a565b61047961065f3660046136b6565b612032565b610479610672366004613913565b612050565b610431600080516020613dfd83398151915281565b61043160d55481565b6104796106a33660046138db565b61207b565b6104316106b63660046136b6565b6120bd565b60cb546106ce906001600160a01b031681565b6040516001600160a01b039091168152602001610415565b6104316106f43660046138b9565b6120cd565b610409610707366004613889565b6121fc565b61076961071a366004613889565b60e0602052816000526040600020602052806000526040600020600091509150508060000154908060010154908060020154908060030154908060040154908060050154908060060154905087565b604080519788526020880196909652948601939093526060850191909152608084015260a083015260c082015260e001610415565b6104796107ac366004613976565b612227565b6104316107bf366004613889565b6125b2565b60ca546106ce906001600160a01b031681565b6104316107e53660046136b6565b612701565b610431600081565b60ce546106ce906001600160a01b031681565b6104316108133660046136b6565b612764565b6104796108263660046136b6565b612774565b60cc546106ce906001600160a01b031681565b61047961084c366004613913565b612789565b61047961085f366004613913565b6127b4565b6104796108723660046138b9565b6127df565b61043160dd5481565b61043161088e366004613889565b612815565b6108a66108a1366004613af5565b61286f565b604080519586526020860194909452928401919091526060830152608082015260a001610415565b6104096108dc366004613b21565b60e16020526000908152604090205460ff1681565b6104796108ff366004613889565b612a4c565b61043160cf5481565b61043160dc5481565b61043160d75481565b61047961092d3660046138b9565b612a71565b61043160da5481565b60cd546106ce906001600160a01b031681565b61043161095c3660046136b6565b612cd5565b60c9546106ce906001600160a01b031681565b6104316109823660046138b9565b612ce5565b61043160db5481565b61043161099e366004613b21565b60df6020526000908152604090205481565b60006001600160e01b03198216637965db0b60e01b14806109e157506301ffc9a760e01b6001600160e01b03198316145b92915050565b60d181815481106109f757600080fd5b600091825260209091200154905081565b600080516020613dfd833981519152610a2081612d94565b5060d755565b600081815260e0602090815260408083203384529091528120600381015415610a5f576003810154610a589042613b54565b9392505050565b6004810154610a589042613b54565b600260975403610a995760405162461bcd60e51b8152600401610a9090613b67565b60405180910390fd5b60026097557f364d3d7565c7a8300c96fd53e065d19b65848d7b23b3191adcd55621c744223c610ac881612d94565b600060de8581548110610add57610add613b9e565b6000918252602080832088845260e0825260408085206001600160a01b03891686529092529220805460049092029092019250851115610b2f5760405162461bcd60e51b8152600401610a9090613bb4565b610b388661169f565b610b428685612d9e565b8415610bde5784816000016000828254610b5c9190613b54565b90915550508154610b77906001600160a01b0316858761304b565b6003820154815464e8d4a5100091610b8e91613bf6565b610b989190613c15565b600182015560405185815286906001600160a01b038616907ff279e6a1f5e320cca91135676d9cb6e44ca8a08c0b88342bcdb1144f6511b5689060200160405180910390a35b5050600160975550505050565b600080516020613dfd833981519152610c0381612d94565b82600103610c24578151610c1e9060d290602085019061362c565b50505050565b82600203610c3f578151610c1e9060d390602085019061362c565b60405162461bcd60e51b815260206004820152601760248201527f496e76616c6964206b696e64206964656e7469666965720000000000000000006044820152606401610a90565b505050565b60de8181548110610c9c57600080fd5b600091825260209091206004909102018054600182015460028301546003909301546001600160a01b039092169350919084565b600080516020613dfd833981519152610ce881612d94565b6001600160a01b038316600090815260e16020526040902054839060ff1615610d655760405162461bcd60e51b815260206004820152602960248201527f4d6173746572496e766573746f723a3a6e6f6e4475706c6963617465643a20646044820152681d5c1b1a58d85d195960ba1b6064820152608401610a90565b6001600160a01b038416600090815260df602052604090205415610dde5760405162461bcd60e51b815260206004820152602a60248201527f4d6173746572496e766573746f723a3a6164643a206c7020697320616c726561604482015269191e481a5b881c1bdbdb60b21b6064820152608401610a90565b8215610dec57610dec611f73565b600060d7544211610dff5760d754610e01565b425b90508560d86000828254610e159190613c37565b909155505060de54610e28906001613c37565b6001600160a01b03958616600081815260df602090815260408083209490945560e181528382208054600160ff1990911681179091558451608081018652938452908301998a529282019384526060820181815260de8054948501815590915290517ffae8130c0619f84b4b44f01b84806f04e82e536d70e05f2356977fa318aecc1a600490930292830180546001600160a01b031916919098161790965595517ffae8130c0619f84b4b44f01b84806f04e82e536d70e05f2356977fa318aecc1b870155517ffae8130c0619f84b4b44f01b84806f04e82e536d70e05f2356977fa318aecc1c860155505090517ffae8130c0619f84b4b44f01b84806f04e82e536d70e05f2356977fa318aecc1d9092019190915550565b600080516020613dfd833981519152610f5981612d94565b82600103610f815760cb80546001600160a01b0319166001600160a01b038416179055505050565b82600203610fa95760cc80546001600160a01b0319166001600160a01b038416179055505050565b82600303610fd15760cd80546001600160a01b0319166001600160a01b038416179055505050565b82600403610c3f5760ce80546001600160a01b0319166001600160a01b038416179055505050565b60008281526065602052604090206001015461101481612d94565b610c8783836130a1565b600080516020613dfd83398151915261103681612d94565b82600103611045575060da5550565b82600203611054575060db5550565b82600303611063575060dc5550565b82600403610c3f575060dd5550565b6001600160a01b03811633146110e25760405162461bcd60e51b815260206004820152602f60248201527f416363657373436f6e74726f6c3a2063616e206f6e6c792072656e6f756e636560448201526e103937b632b9903337b91039b2b63360891b6064820152608401610a90565b6110ec8282613127565b5050565b600080516020613dfd83398151915261110881612d94565b5060cf55565b6002609754036111305760405162461bcd60e51b8152600401610a9090613b67565b6002609781905550600060de838154811061114d5761114d613b9e565b6000918252602080832086845260e0909152604083206004909202019250816111733390565b6001600160a01b03166001600160a01b03168152602001908152602001600020905082816000015410156111b95760405162461bcd60e51b8152600401610a9090613bb4565b6111c28461169f565b6111cb8461318e565b821561168457828160000160008282546111e59190613b54565b909155505060038101541561120d5760038101546112039042613b54565b6005820155611222565b600481015461121c9042613b54565b60058201555b600080826006015442036112a557606460d260008154811061124657611246613b9e565b90600052602060002001548661125c9190613bf6565b6112669190613c15565b9150606460d360008154811061127e5761127e613b9e565b9060005260206000200154866112949190613bf6565b61129e9190613c15565b90506115eb565b60018360050154101580156112bf5750610e108360050154105b1561131257606460d26001815481106112da576112da613b9e565b9060005260206000200154866112f09190613bf6565b6112fa9190613c15565b9150606460d360018154811061127e5761127e613b9e565b610e1083600501541015801561132e5750620151808360050154105b1561138157606460d260028154811061134957611349613b9e565b90600052602060002001548661135f9190613bf6565b6113699190613c15565b9150606460d360028154811061127e5761127e613b9e565b6201518083600501541015801561139e57506203f4808360050154105b156113f157606460d26003815481106113b9576113b9613b9e565b9060005260206000200154866113cf9190613bf6565b6113d99190613c15565b9150606460d360038154811061127e5761127e613b9e565b6203f48083600501541015801561140e5750620697808360050154105b1561146157606460d260048154811061142957611429613b9e565b90600052602060002001548661143f9190613bf6565b6114499190613c15565b9150606460d360048154811061127e5761127e613b9e565b6206978083600501541015801561147e5750621275008360050154105b156114d3576103e860d260058154811061149a5761149a613b9e565b9060005260206000200154866114b09190613bf6565b6114ba9190613c15565b91506103e860d360058154811061127e5761127e613b9e565b621275008360050154101580156114f057506224ea008360050154105b156115455761271060d260068154811061150c5761150c613b9e565b9060005260206000200154866115229190613bf6565b61152c9190613c15565b915061271060d360068154811061127e5761127e613b9e565b6224ea008360050154106115a35761271060d260078154811061156a5761156a613b9e565b9060005260206000200154866115809190613bf6565b61158a9190613c15565b915061271060d360078154811061127e5761127e613b9e565b60405162461bcd60e51b815260206004820152601860248201527f536f6d657468696e6720697320766572792062726f6b656e00000000000000006044820152606401610a90565b611602335b85546001600160a01b0316908461304b565b60cb54845461161e916001600160a01b0391821691168361304b565b6003840154835464e8d4a510009161163591613bf6565b61163f9190613c15565b6001840155604051858152869033907ff279e6a1f5e320cca91135676d9cb6e44ca8a08c0b88342bcdb1144f6511b5689060200160405180910390a350504260038201555b505060016097555050565b60d281815481106109f757600080fd5b600060de82815481106116b4576116b4613b9e565b90600052602060002090600402019050806002015442116116d3575050565b80546040516370a0823160e01b81523060048201526000916001600160a01b0316906370a0823190602401602060405180830381865afa15801561171b573d6000803e3d6000fd5b505050506040513d601f19601f8201168201806040525081019061173f9190613c4a565b905080158061175057506001820154155b1561176057504260029091015550565b600080600080600061177b876002015442896001015461286f565b60c9546040516340c10f1960e01b8152959a50939850919650945092506001600160a01b0316906340c10f19906117b89030908890600401613c63565b600060405180830381600087803b1580156117d257600080fd5b505af11580156117e6573d6000803e3d6000fd5b50505050858464e8d4a510006117fc9190613bf6565b6118069190613c15565b8760030160008282546118199190613c37565b9091555050426002880155841561195e57600060d45442111561183d576000611854565b606461184a87604b613bf6565b6118549190613c15565b9050600060d454421115611868578661187f565b6064611875886019613bf6565b61187f9190613c15565b60c95460cb546040516340c10f1960e01b81529293506001600160a01b03918216926340c10f19926118b79216908590600401613c63565b600060405180830381600087803b1580156118d157600080fd5b505af11580156118e5573d6000803e3d6000fd5b50505050600082111561195b5760ca5460cb546040516340c10f1960e01b81526001600160a01b03928316926340c10f1992611928929116908690600401613c63565b600060405180830381600087803b15801561194257600080fd5b505af1158015611956573d6000803e3d6000fd5b505050505b50505b8215611a9857600060d45442111561197757600061198e565b606461198485602d613bf6565b61198e9190613c15565b9050600060d4544211156119a257846119b9565b60646119af866037613bf6565b6119b99190613c15565b60c95460cc546040516340c10f1960e01b81529293506001600160a01b03918216926340c10f19926119f19216908590600401613c63565b600060405180830381600087803b158015611a0b57600080fd5b505af1158015611a1f573d6000803e3d6000fd5b505050506000821115611a955760ca5460cc546040516340c10f1960e01b81526001600160a01b03928316926340c10f1992611a62929116908690600401613c63565b600060405180830381600087803b158015611a7c57600080fd5b505af1158015611a90573d6000803e3d6000fd5b505050505b50505b8115611bd257600060d454421115611ab1576000611ac8565b6064611abe846055613bf6565b611ac89190613c15565b9050600060d454421115611adc5783611af3565b6064611ae985600f613bf6565b611af39190613c15565b60c95460cd546040516340c10f1960e01b81529293506001600160a01b03918216926340c10f1992611b2b9216908590600401613c63565b600060405180830381600087803b158015611b4557600080fd5b505af1158015611b59573d6000803e3d6000fd5b505050506000821115611bcf5760ca5460cd546040516340c10f1960e01b81526001600160a01b03928316926340c10f1992611b9c929116908690600401613c63565b600060405180830381600087803b158015611bb657600080fd5b505af1158015611bca573d6000803e3d6000fd5b505050505b50505b8015611d0c57600060d454421115611beb576000611c02565b6064611bf883605f613bf6565b611c029190613c15565b9050600060d454421115611c165782611c2d565b6064611c23846005613bf6565b611c2d9190613c15565b60c95460ce546040516340c10f1960e01b81529293506001600160a01b03918216926340c10f1992611c659216908590600401613c63565b600060405180830381600087803b158015611c7f57600080fd5b505af1158015611c93573d6000803e3d6000fd5b505050506000821115611d095760ca5460ce546040516340c10f1960e01b81526001600160a01b03928316926340c10f1992611cd6929116908690600401613c63565b600060405180830381600087803b158015611cf057600080fd5b505af1158015611d04573d6000803e3d6000fd5b505050505b50505b5050505050505050565b600260975403611d385760405162461bcd60e51b8152600401610a9090613b67565b6002609781905550600060de8281548110611d5557611d55613b9e565b6000918252602080832085845260e090915260408320600490920201925081611d7b3390565b6001600160a01b03166001600160a01b0316815260200190815260200160002090506000606460d2600081548110611db557611db5613b9e565b90600052602060002001548360000154611dcf9190613bf6565b611dd99190613c15565b90506000606460d3600081548110611df357611df3613b9e565b90600052602060002001548460000154611e0d9190613bf6565b611e179190613c15565b600080855560018501559050611e2c336115f0565b60cb548454611e48916001600160a01b0391821691168361304b565b604051828152859033907fbb757047c2b5f3974fe26b7c10f732e7bce710b0952a71082702781e62ae05959060200160405180910390a350506001609755505050565b600080516020613dfd833981519152611ea381612d94565b600060de8581548110611eb857611eb8613b9e565b600091825260209091206004909102018054909150611ee1906001600160a01b0316858561304b565b611eea8561169f565b5050505050565b60005b81518110156110ec57611f1f828281518110611f1257611f12613b9e565b6020026020010151612774565b80611f2981613c7c565b915050611ef4565b600080516020613dfd833981519152611f4981612d94565b50600092835260e0602090815260408085206001600160a01b039094168552929052912060030155565b60de5460005b818110156110ec57611f8a8161169f565b611f9381613c7c565b9050611f79565b600080516020613dfd833981519152611fb281612d94565b8115611fc057611fc0611f73565b8260de8581548110611fd457611fd4613b9e565b90600052602060002090600402016001015460d854611ff39190613b54565b611ffd9190613c37565b60d8819055508260de858154811061201757612017613b9e565b90600052602060002090600402016001018190555050505050565b600080516020613dfd83398151915261204a81612d94565b5060d455565b600080516020613dfd83398151915261206881612d94565b8151610c879060d990602085019061362c565b600080516020613dfd83398151915261209381612d94565b50600092835260e0602090815260408085206001600160a01b039094168552929052912060040155565b60d081815481106109f757600080fd5b60d75460009081908410156120e65760009150506109e1565b60005b60d1548110156121f457600060d1828154811061210857612108613b9e565b90600052602060002001549050600160d0805490506121279190613b54565b82111561213a57600093505050506109e1565b80851161218e57600060d0838154811061215657612156613b9e565b9060005260206000200154878761216d9190613b54565b6121779190613bf6565b90506121838185613c37565b9450505050506109e1565b808610156121e157600060d083815481106121ab576121ab613b9e565b906000526020600020015487836121c29190613b54565b6121cc9190613bf6565b905081965080846121dd9190613c37565b9350505b50806121ec81613c7c565b9150506120e9565b509392505050565b60009182526065602090815260408084206001600160a01b0393909316845291905290205460ff1690565b600054610100900460ff16158080156122475750600054600160ff909116105b806122615750303b158015612261575060005460ff166001145b6122c45760405162461bcd60e51b815260206004820152602e60248201527f496e697469616c697a61626c653a20636f6e747261637420697320616c72656160448201526d191e481a5b9a5d1a585b1a5e995960921b6064820152608401610a90565b6000805460ff1916600117905580156122e7576000805461ff0019166101001790555b6122ef613198565b6122f76131c1565b6123026000336130a1565b61231a600080516020613dfd833981519152336130a1565b6123447f364d3d7565c7a8300c96fd53e065d19b65848d7b23b3191adcd55621c744223c336130a1565b610180820151805161235e9160d29160209091019061362c565b506101a082015180516123799160d39160209091019061362c565b50815160c980546001600160a01b03199081166001600160a01b039384161790915560208085015160ca80549093169316929092179055604083015160cf55606083015160d75560a083015160d55560c083015160d65561016083015180516123e69260d092019061362c565b5060e082015160cb80546001600160a01b039283166001600160a01b03199182161790915561010084015160cc805491841691831691909117905561012084015160cd805491841691831691909117905561014084015160ce80549190931691161790556101c082015180516124649160d99160209091019061362c565b50600060d88190555b60d05461247c90600190613b54565b811015612500576060830151600090612496836001613c37565b85608001516124a59190613bf6565b6124af9190613c37565b6124ba906001613c37565b60d180546001810182556000919091527f695fb3134ad82c3b8022bc5464edd0bcc9424ef672b52245dcb6ab2374327ce3015550806124f881613c7c565b91505061246d565b50606082015160d05461251590600190613b54565b83608001516125249190613bf6565b61252e9190613c37565b60d45560d180546001810182556000919091526000197f695fb3134ad82c3b8022bc5464edd0bcc9424ef672b52245dcb6ab2374327ce39091015580156110ec576000805461ff0019169055604051600181527f7f26b83ff96e1f2b6a682f133852f6798a09c465da95921460cefb38474024989060200160405180910390a15050565b60008060de84815481106125c8576125c8613b9e565b6000918252602080832087845260e0825260408085206001600160a01b038981168752935280852060049485029092016003810154815492516370a0823160e01b8152309681019690965290965091949193919216906370a0823190602401602060405180830381865afa158015612644573d6000803e3d6000fd5b505050506040513d601f19601f820116820180604052508101906126689190613c4a565b905083600201544211801561267d5750600081115b156126c9576000612697856002015442876001015461286f565b509193508492506126b1915083905064e8d4a51000613bf6565b6126bb9190613c15565b6126c59084613c37565b9250505b6001830154835464e8d4a51000906126e2908590613bf6565b6126ec9190613c15565b6126f69190613b54565b979650505050505050565b600080612718612712600142613b54565b426120cd565b905060d85460de848154811061273057612730613b9e565b90600052602060002090600402016001015460cf54836127509190613bf6565b61275a9190613bf6565b610a589190613c15565b60d981815481106109f757600080fd5b61277d8161169f565b6127868161318e565b50565b600080516020613dfd8339815191526127a181612d94565b8151610c879060d190602085019061362c565b600080516020613dfd8339815191526127cc81612d94565b8151610c879060d090602085019061362c565b600080516020613dfd8339815191526127f781612d94565b82600103612806575060d55550565b82600203610c3f575060d65550565b600082815260e0602090815260408083206001600160a01b038516845290915281206003810154156128585760038101546128509042613b54565b9150506109e1565b60048101546128679042613b54565b949350505050565b60008060008060008061288289896120cd565b9050600060d8548860cf54846128989190613bf6565b6128a29190613bf6565b6128ac9190613c15565b9050600060c960009054906101000a90046001600160a01b03166001600160a01b03166318160ddd6040518163ffffffff1660e01b8152600401602060405180830381865afa158015612903573d6000803e3d6000fd5b505050506040513d601f19601f820116820180604052508101906129279190613c4a565b60c960009054906101000a90046001600160a01b03166001600160a01b031663355274ea6040518163ffffffff1660e01b8152600401602060405180830381865afa15801561297a573d6000803e3d6000fd5b505050506040513d601f19601f8201168201806040525081019061299e9190613c4a565b6129a89190613b54565b9050818110156129ca5760009750809650600095506000945060009350612a3e565b606460da54836129da9190613bf6565b6129e49190613c15565b9750819650606460db54836129f99190613bf6565b612a039190613c15565b9550606460dc5483612a159190613bf6565b612a1f9190613c15565b9450606460dd5483612a319190613bf6565b612a3b9190613c15565b93505b505050939792965093509350565b600082815260656020526040902060010154612a6781612d94565b610c878383613127565b600260975403612a935760405162461bcd60e51b8152600401610a9090613b67565b600260975580612b045760405162461bcd60e51b815260206004820152603660248201527f4d6173746572496e766573746f723a3a6465706f7369743a20616d6f756e742060448201527506d7573742062652067726561746572207468616e20360541b6064820152608401610a90565b600060de8381548110612b1957612b19613b9e565b6000918252602080832086845260e090915260408320600490920201925081612b3f3390565b6001600160a01b0390811682526020808301939093526040918201600090812088825260e0855283822060cb549093168252919093529120909150612b838561169f565b612b8c8561318e565b612ba33384546001600160a01b03169030876131f0565b8154600003612bb3574260028301555b61271060d55485612bc49190613bf6565b612bce9190613c15565b612bd89085613b54565b826000016000828254612beb9190613c37565b90915550506003830154825464e8d4a5100091612c0791613bf6565b612c119190613c15565b600183015560d65461271090612c279086613bf6565b612c319190613c15565b612c3b9085613b54565b816000016000828254612c4e9190613c37565b90915550506003830154815464e8d4a5100091612c6a91613bf6565b612c749190613c15565b6001820155604051848152859033907f90890809c654f11d6e72a28fa60149770a0d11ec6c92319d6ceb2bb0a4ea1a159060200160405180910390a36000826004015411612cc3574260048301555b50426006909101555050600160975550565b60d381815481106109f757600080fd5b60d7546000908190841015612cfe5760649150506109e1565b60005b60d1548110156121f457600060d18281548110612d2057612d20613b9e565b90600052602060002001549050600160d980549050612d3f9190613b54565b821115612d5257600093505050506109e1565b808511612d815760d98281548110612d6c57612d6c613b9e565b906000526020600020015493505050506109e1565b5080612d8c81613c7c565b915050612d01565b6127868133613228565b600060de8381548110612db357612db3613b9e565b6000918252602080832086845260e0825260408085206001600160a01b0388168652909252922080546004909202909201925015610c1e576000816001015464e8d4a5100084600301548460000154612e0c9190613bf6565b612e169190613c15565b612e209190613b54565b60c9546040516370a0823160e01b81523060048201529192506000916001600160a01b03909116906370a0823190602401602060405180830381865afa158015612e6e573d6000803e3d6000fd5b505050506040513d601f19601f82011682018060405250810190612e929190613c4a565b905080821115612ea0578091505b811561301d57600060d454846002015411612ee7576000612ecb612ec5600142613b54565b42612ce5565b90506064612ed98286613bf6565b612ee39190613c15565b9150505b60c9546001600160a01b031663a9059cbb87612f038487613b54565b6040518363ffffffff1660e01b8152600401612f20929190613c63565b6020604051808303816000875af1158015612f3f573d6000803e3d6000fd5b505050506040513d601f19601f82011682018060405250810190612f639190613c95565b508015612fcf5760ca546040516340c10f1960e01b81526001600160a01b03909116906340c10f1990612f9c9089908590600401613c63565b600060405180830381600087803b158015612fb657600080fd5b505af1158015612fca573d6000803e3d6000fd5b505050505b426002850155604080518481526020810183905288916001600160a01b038916917f3887f2857beaaf367eb618dfb5e22c1ebd74425affb0602c2e9fe126e3f860eb910160405180910390a3505b6003840154835464e8d4a510009161303491613bf6565b61303e9190613c15565b6001840155505050505050565b610c878363a9059cbb60e01b848460405160240161306a929190613c63565b60408051601f198184030181529190526020810180516001600160e01b03166001600160e01b03199093169290921790915261328c565b6130ab82826121fc565b6110ec5760008281526065602090815260408083206001600160a01b03851684529091529020805460ff191660011790556130e33390565b6001600160a01b0316816001600160a01b0316837f2f8788117e7eff1d82e926ec794901d17c78024a50270940304540a733656f0d60405160405180910390a45050565b61313182826121fc565b156110ec5760008281526065602090815260408083206001600160a01b0385168085529252808320805460ff1916905551339285917ff6391f5c32d9c69d2a47ea670b442974b53935d1edc7fd64eb21e047a839171b9190a45050565b6127868133612d9e565b600054610100900460ff166131bf5760405162461bcd60e51b8152600401610a9090613cb2565b565b600054610100900460ff166131e85760405162461bcd60e51b8152600401610a9090613cb2565b6131bf61335e565b6040516001600160a01b0380851660248301528316604482015260648101829052610c1e9085906323b872dd60e01b9060840161306a565b61323282826121fc565b6110ec5761324a816001600160a01b0316601461338c565b61325583602061338c565b604051602001613266929190613d21565b60408051601f198184030181529082905262461bcd60e51b8252610a9091600401613d96565b60006132e1826040518060400160405280602081526020017f5361666545524332303a206c6f772d6c6576656c2063616c6c206661696c6564815250856001600160a01b03166135289092919063ffffffff16565b805190915015610c8757808060200190518101906132ff9190613c95565b610c875760405162461bcd60e51b815260206004820152602a60248201527f5361666545524332303a204552433230206f7065726174696f6e20646964206e6044820152691bdd081cdd58d8d9595960b21b6064820152608401610a90565b600054610100900460ff166133855760405162461bcd60e51b8152600401610a9090613cb2565b6001609755565b6060600061339b836002613bf6565b6133a6906002613c37565b67ffffffffffffffff8111156133be576133be61372d565b6040519080825280601f01601f1916602001820160405280156133e8576020820181803683370190505b509050600360fc1b8160008151811061340357613403613b9e565b60200101906001600160f81b031916908160001a905350600f60fb1b8160018151811061343257613432613b9e565b60200101906001600160f81b031916908160001a9053506000613456846002613bf6565b613461906001613c37565b90505b60018111156134d9576f181899199a1a9b1b9c1cb0b131b232b360811b85600f166010811061349557613495613b9e565b1a60f81b8282815181106134ab576134ab613b9e565b60200101906001600160f81b031916908160001a90535060049490941c936134d281613dc9565b9050613464565b508315610a585760405162461bcd60e51b815260206004820181905260248201527f537472696e67733a20686578206c656e67746820696e73756666696369656e746044820152606401610a90565b60606128678484600085856001600160a01b0385163b61358a5760405162461bcd60e51b815260206004820152601d60248201527f416464726573733a2063616c6c20746f206e6f6e2d636f6e74726163740000006044820152606401610a90565b600080866001600160a01b031685876040516135a69190613de0565b60006040518083038185875af1925050503d80600081146135e3576040519150601f19603f3d011682016040523d82523d6000602084013e6135e8565b606091505b50915091506126f682828660608315613602575081610a58565b8251156136125782518084602001fd5b8160405162461bcd60e51b8152600401610a909190613d96565b828054828255906000526020600020908101928215613667579160200282015b8281111561366757825182559160200191906001019061364c565b50613673929150613677565b5090565b5b808211156136735760008155600101613678565b60006020828403121561369e57600080fd5b81356001600160e01b031981168114610a5857600080fd5b6000602082840312156136c857600080fd5b5035919050565b6001600160a01b038116811461278657600080fd5b80356136ef816136cf565b919050565b60008060006060848603121561370957600080fd5b83359250602084013591506040840135613722816136cf565b809150509250925092565b634e487b7160e01b600052604160045260246000fd5b6040516101e0810167ffffffffffffffff811182821017156137675761376761372d565b60405290565b600082601f83011261377e57600080fd5b8135602067ffffffffffffffff8083111561379b5761379b61372d565b8260051b604051601f19603f830116810181811084821117156137c0576137c061372d565b6040529384528581018301938381019250878511156137de57600080fd5b83870191505b848210156126f6578135835291830191908301906137e4565b6000806040838503121561381057600080fd5b82359150602083013567ffffffffffffffff81111561382e57600080fd5b61383a8582860161376d565b9150509250929050565b801515811461278657600080fd5b60008060006060848603121561386757600080fd5b833592506020840135613879816136cf565b9150604084013561372281613844565b6000806040838503121561389c57600080fd5b8235915060208301356138ae816136cf565b809150509250929050565b600080604083850312156138cc57600080fd5b50508035926020909101359150565b6000806000606084860312156138f057600080fd5b833592506020840135613902816136cf565b929592945050506040919091013590565b60006020828403121561392557600080fd5b813567ffffffffffffffff81111561393c57600080fd5b6128678482850161376d565b60008060006060848603121561395d57600080fd5b8335925060208401359150604084013561372281613844565b60006020828403121561398857600080fd5b813567ffffffffffffffff808211156139a057600080fd5b908301906101e082860312156139b557600080fd5b6139bd613743565b6139c6836136e4565b81526139d4602084016136e4565b602082015260408301356040820152606083013560608201526080830135608082015260a083013560a082015260c083013560c0820152613a1760e084016136e4565b60e0820152610100613a2a8185016136e4565b90820152610120613a3c8482016136e4565b90820152610140613a4e8482016136e4565b908201526101608381013583811115613a6657600080fd5b613a728882870161376d565b8284015250506101808084013583811115613a8c57600080fd5b613a988882870161376d565b8284015250506101a08084013583811115613ab257600080fd5b613abe8882870161376d565b8284015250506101c08084013583811115613ad857600080fd5b613ae48882870161376d565b918301919091525095945050505050565b600080600060608486031215613b0a57600080fd5b505081359360208301359350604090920135919050565b600060208284031215613b3357600080fd5b8135610a58816136cf565b634e487b7160e01b600052601160045260246000fd5b818103818111156109e1576109e1613b3e565b6020808252601f908201527f5265656e7472616e637947756172643a207265656e7472616e742063616c6c00604082015260600190565b634e487b7160e01b600052603260045260246000fd5b60208082526022908201527f4d6173746572496e766573746f723a3a77697468647261773a206e6f7420676f6040820152611bd960f21b606082015260800190565b6000816000190483118215151615613c1057613c10613b3e565b500290565b600082613c3257634e487b7160e01b600052601260045260246000fd5b500490565b808201808211156109e1576109e1613b3e565b600060208284031215613c5c57600080fd5b5051919050565b6001600160a01b03929092168252602082015260400190565b600060018201613c8e57613c8e613b3e565b5060010190565b600060208284031215613ca757600080fd5b8151610a5881613844565b6020808252602b908201527f496e697469616c697a61626c653a20636f6e7472616374206973206e6f74206960408201526a6e697469616c697a696e6760a81b606082015260800190565b60005b83811015613d18578181015183820152602001613d00565b50506000910152565b7f416363657373436f6e74726f6c3a206163636f756e7420000000000000000000815260008351613d59816017850160208801613cfd565b7001034b99036b4b9b9b4b733903937b6329607d1b6017918401918201528351613d8a816028840160208801613cfd565b01602801949350505050565b6020815260008251806020840152613db5816040850160208701613cfd565b601f01601f19169190910160400192915050565b600081613dd857613dd8613b3e565b506000190190565b60008251613df2818460208701613cfd565b919091019291505056fea49807205ce4d355092ef5a8a18f56e8913cf4a201fbe287825b095693c21775a264697066735822122056bf0ec686abb40043eb9040104c1fa5ec0df79b37f77b46ad101046c66797e564736f6c63430008100033",
  "linkReferences": {},
  "deployedLinkReferences": {}
}