{
  "_format": "hh-sol-artifact-1",
  "contractName": "MasterInvestor",
  "sourceName": "contracts/npc/MasterInvestor.sol",
  "abi": [
    {
      "inputs": [],
      "stateMutability": "nonpayable",
      "type": "constructor"
    },
    {
      "anonymous": false,
      "inputs": [
        {
          "indexed": true,
          "internalType": "address",
          "name": "user",
          "type": "address"
        },
        {
          "indexed": true,
          "internalType": "uint256",
          "name": "pid",
          "type": "uint256"
        },
        {
          "indexed": false,
          "internalType": "uint256",
          "name": "amount",
          "type": "uint256"
        }
      ],
      "name": "Deposit",
      "type": "event"
    },
    {
      "anonymous": false,
      "inputs": [
        {
          "indexed": true,
          "internalType": "address",
          "name": "user",
          "type": "address"
        },
        {
          "indexed": true,
          "internalType": "uint256",
          "name": "pid",
          "type": "uint256"
        },
        {
          "indexed": false,
          "internalType": "uint256",
          "name": "amount",
          "type": "uint256"
        }
      ],
      "name": "EmergencyWithdraw",
      "type": "event"
    },
    {
      "anonymous": false,
      "inputs": [
        {
          "indexed": false,
          "internalType": "uint8",
          "name": "version",
          "type": "uint8"
        }
      ],
      "name": "Initialized",
      "type": "event"
    },
    {
      "anonymous": false,
      "inputs": [
        {
          "indexed": true,
          "internalType": "bytes32",
          "name": "role",
          "type": "bytes32"
        },
        {
          "indexed": true,
          "internalType": "bytes32",
          "name": "previousAdminRole",
          "type": "bytes32"
        },
        {
          "indexed": true,
          "internalType": "bytes32",
          "name": "newAdminRole",
          "type": "bytes32"
        }
      ],
      "name": "RoleAdminChanged",
      "type": "event"
    },
    {
      "anonymous": false,
      "inputs": [
        {
          "indexed": true,
          "internalType": "bytes32",
          "name": "role",
          "type": "bytes32"
        },
        {
          "indexed": true,
          "internalType": "address",
          "name": "account",
          "type": "address"
        },
        {
          "indexed": true,
          "internalType": "address",
          "name": "sender",
          "type": "address"
        }
      ],
      "name": "RoleGranted",
      "type": "event"
    },
    {
      "anonymous": false,
      "inputs": [
        {
          "indexed": true,
          "internalType": "bytes32",
          "name": "role",
          "type": "bytes32"
        },
        {
          "indexed": true,
          "internalType": "address",
          "name": "account",
          "type": "address"
        },
        {
          "indexed": true,
          "internalType": "address",
          "name": "sender",
          "type": "address"
        }
      ],
      "name": "RoleRevoked",
      "type": "event"
    },
    {
      "anonymous": false,
      "inputs": [
        {
          "indexed": true,
          "internalType": "address",
          "name": "user",
          "type": "address"
        },
        {
          "indexed": true,
          "internalType": "uint256",
          "name": "pid",
          "type": "uint256"
        },
        {
          "indexed": false,
          "internalType": "uint256",
          "name": "amount",
          "type": "uint256"
        },
        {
          "indexed": false,
          "internalType": "uint256",
          "name": "lockAmount",
          "type": "uint256"
        }
      ],
      "name": "SendGovernanceTokenReward",
      "type": "event"
    },
    {
      "anonymous": false,
      "inputs": [
        {
          "indexed": true,
          "internalType": "address",
          "name": "user",
          "type": "address"
        },
        {
          "indexed": true,
          "internalType": "uint256",
          "name": "pid",
          "type": "uint256"
        },
        {
          "indexed": false,
          "internalType": "uint256",
          "name": "amount",
          "type": "uint256"
        }
      ],
      "name": "Withdraw",
      "type": "event"
    },
    {
      "inputs": [],
      "name": "ADMIN_ROLE",
      "outputs": [
        {
          "internalType": "bytes32",
          "name": "",
          "type": "bytes32"
        }
      ],
      "stateMutability": "view",
      "type": "function"
    },
    {
      "inputs": [],
      "name": "CONTRACT_ROLE",
      "outputs": [
        {
          "internalType": "bytes32",
          "name": "",
          "type": "bytes32"
        }
      ],
      "stateMutability": "view",
      "type": "function"
    },
    {
      "inputs": [],
      "name": "DEFAULT_ADMIN_ROLE",
      "outputs": [
        {
          "internalType": "bytes32",
          "name": "",
          "type": "bytes32"
        }
      ],
      "stateMutability": "view",
      "type": "function"
    },
    {
      "inputs": [],
      "name": "DEV_DEP_FEE",
      "outputs": [
        {
          "internalType": "uint256",
          "name": "",
          "type": "uint256"
        }
      ],
      "stateMutability": "view",
      "type": "function"
    },
    {
      "inputs": [
        {
          "internalType": "uint256",
          "name": "",
          "type": "uint256"
        }
      ],
      "name": "DEV_FEE_STAGES",
      "outputs": [
        {
          "internalType": "uint256",
          "name": "",
          "type": "uint256"
        }
      ],
      "stateMutability": "view",
      "type": "function"
    },
    {
      "inputs": [],
      "name": "DEV_FUND_ADDRESS",
      "outputs": [
        {
          "internalType": "address",
          "name": "",
          "type": "address"
        }
      ],
      "stateMutability": "view",
      "type": "function"
    },
    {
      "inputs": [],
      "name": "FEE_SHARE_FUND_ADDRESS",
      "outputs": [
        {
          "internalType": "address",
          "name": "",
          "type": "address"
        }
      ],
      "stateMutability": "view",
      "type": "function"
    },
    {
      "inputs": [],
      "name": "FINISH_BONUS_AT_TIME",
      "outputs": [
        {
          "internalType": "uint256",
          "name": "",
          "type": "uint256"
        }
      ],
      "stateMutability": "view",
      "type": "function"
    },
    {
      "inputs": [],
      "name": "FOUNDERS_FUND_ADDRESS",
      "outputs": [
        {
          "internalType": "address",
          "name": "",
          "type": "address"
        }
      ],
      "stateMutability": "view",
      "type": "function"
    },
    {
      "inputs": [],
      "name": "GOV_TOKEN",
      "outputs": [
        {
          "internalType": "contract IERC20ExtendedUpgradeable",
          "name": "",
          "type": "address"
        }
      ],
      "stateMutability": "view",
      "type": "function"
    },
    {
      "inputs": [
        {
          "internalType": "uint256",
          "name": "",
          "type": "uint256"
        }
      ],
      "name": "HALVING_AT_TIMES",
      "outputs": [
        {
          "internalType": "uint256",
          "name": "",
          "type": "uint256"
        }
      ],
      "stateMutability": "view",
      "type": "function"
    },
    {
      "inputs": [],
      "name": "MARKETING_FUND_ADDRESS",
      "outputs": [
        {
          "internalType": "address",
          "name": "",
          "type": "address"
        }
      ],
      "stateMutability": "view",
      "type": "function"
    },
    {
      "inputs": [],
      "name": "PERCENT_FOR_DEV",
      "outputs": [
        {
          "internalType": "uint256",
          "name": "",
          "type": "uint256"
        }
      ],
      "stateMutability": "view",
      "type": "function"
    },
    {
      "inputs": [],
      "name": "PERCENT_FOR_FEE_SHARE",
      "outputs": [
        {
          "internalType": "uint256",
          "name": "",
          "type": "uint256"
        }
      ],
      "stateMutability": "view",
      "type": "function"
    },
    {
      "inputs": [],
      "name": "PERCENT_FOR_FOUNDERS",
      "outputs": [
        {
          "internalType": "uint256",
          "name": "",
          "type": "uint256"
        }
      ],
      "stateMutability": "view",
      "type": "function"
    },
    {
      "inputs": [],
      "name": "PERCENT_FOR_MARKETING",
      "outputs": [
        {
          "internalType": "uint256",
          "name": "",
          "type": "uint256"
        }
      ],
      "stateMutability": "view",
      "type": "function"
    },
    {
      "inputs": [
        {
          "internalType": "uint256",
          "name": "",
          "type": "uint256"
        }
      ],
      "name": "PERCENT_LOCK_BONUS_REWARD",
      "outputs": [
        {
          "internalType": "uint256",
          "name": "",
          "type": "uint256"
        }
      ],
      "stateMutability": "view",
      "type": "function"
    },
    {
      "inputs": [
        {
          "internalType": "uint256",
          "name": "",
          "type": "uint256"
        }
      ],
      "name": "REWARD_MULTIPLIERS",
      "outputs": [
        {
          "internalType": "uint256",
          "name": "",
          "type": "uint256"
        }
      ],
      "stateMutability": "view",
      "type": "function"
    },
    {
      "inputs": [],
      "name": "REWARD_PER_SECOND",
      "outputs": [
        {
          "internalType": "uint256",
          "name": "",
          "type": "uint256"
        }
      ],
      "stateMutability": "view",
      "type": "function"
    },
    {
      "inputs": [],
      "name": "REWARD_TOKEN",
      "outputs": [
        {
          "internalType": "contract IERC20ExtendedUpgradeable",
          "name": "",
          "type": "address"
        }
      ],
      "stateMutability": "view",
      "type": "function"
    },
    {
      "inputs": [],
      "name": "START_TIME",
      "outputs": [
        {
          "internalType": "uint256",
          "name": "",
          "type": "uint256"
        }
      ],
      "stateMutability": "view",
      "type": "function"
    },
    {
      "inputs": [],
      "name": "TOTAL_ALLOCATION_POINTS",
      "outputs": [
        {
          "internalType": "uint256",
          "name": "",
          "type": "uint256"
        }
      ],
      "stateMutability": "view",
      "type": "function"
    },
    {
      "inputs": [],
      "name": "USER_DEP_FEE",
      "outputs": [
        {
          "internalType": "uint256",
          "name": "",
          "type": "uint256"
        }
      ],
      "stateMutability": "view",
      "type": "function"
    },
    {
      "inputs": [
        {
          "internalType": "uint256",
          "name": "",
          "type": "uint256"
        }
      ],
      "name": "USER_FEE_STAGES",
      "outputs": [
        {
          "internalType": "uint256",
          "name": "",
          "type": "uint256"
        }
      ],
      "stateMutability": "view",
      "type": "function"
    },
    {
      "inputs": [
        {
          "internalType": "uint256",
          "name": "_allocPoint",
          "type": "uint256"
        },
        {
          "internalType": "contract IERC20ExtendedUpgradeable",
          "name": "_lpToken",
          "type": "address"
        },
        {
          "internalType": "bool",
          "name": "_withUpdate",
          "type": "bool"
        }
      ],
      "name": "add",
      "outputs": [],
      "stateMutability": "nonpayable",
      "type": "function"
    },
    {
      "inputs": [
        {
          "internalType": "uint256",
          "name": "_pid",
          "type": "uint256"
        }
      ],
      "name": "claimReward",
      "outputs": [],
      "stateMutability": "nonpayable",
      "type": "function"
    },
    {
      "inputs": [
        {
          "internalType": "uint256[]",
          "name": "_pids",
          "type": "uint256[]"
        }
      ],
      "name": "claimRewards",
      "outputs": [],
      "stateMutability": "nonpayable",
      "type": "function"
    },
    {
      "inputs": [
        {
          "internalType": "uint256",
          "name": "_pid",
          "type": "uint256"
        },
        {
          "internalType": "address",
          "name": "_user",
          "type": "address"
        },
        {
          "internalType": "uint256",
          "name": "_amount",
          "type": "uint256"
        }
      ],
      "name": "correctWithdrawal",
      "outputs": [],
      "stateMutability": "nonpayable",
      "type": "function"
    },
    {
      "inputs": [
        {
          "internalType": "uint256",
          "name": "_pid",
          "type": "uint256"
        },
        {
          "internalType": "uint256",
          "name": "_amount",
          "type": "uint256"
        }
      ],
      "name": "deposit",
      "outputs": [],
      "stateMutability": "nonpayable",
      "type": "function"
    },
    {
      "inputs": [
        {
          "internalType": "uint256",
          "name": "_pid",
          "type": "uint256"
        }
      ],
      "name": "emergencyWithdraw",
      "outputs": [],
      "stateMutability": "nonpayable",
      "type": "function"
    },
    {
      "inputs": [
        {
          "internalType": "uint256",
          "name": "_from",
          "type": "uint256"
        },
        {
          "internalType": "uint256",
          "name": "_to",
          "type": "uint256"
        }
      ],
      "name": "getLockPercentage",
      "outputs": [
        {
          "internalType": "uint256",
          "name": "",
          "type": "uint256"
        }
      ],
      "stateMutability": "view",
      "type": "function"
    },
    {
      "inputs": [
        {
          "internalType": "uint256",
          "name": "_from",
          "type": "uint256"
        },
        {
          "internalType": "uint256",
          "name": "_to",
          "type": "uint256"
        }
      ],
      "name": "getMultiplier",
      "outputs": [
        {
          "internalType": "uint256",
          "name": "",
          "type": "uint256"
        }
      ],
      "stateMutability": "view",
      "type": "function"
    },
    {
      "inputs": [
        {
          "internalType": "uint256",
          "name": "pid1",
          "type": "uint256"
        }
      ],
      "name": "getNewRewardPerSecond",
      "outputs": [
        {
          "internalType": "uint256",
          "name": "",
          "type": "uint256"
        }
      ],
      "stateMutability": "view",
      "type": "function"
    },
    {
      "inputs": [
        {
          "internalType": "uint256",
          "name": "_from",
          "type": "uint256"
        },
        {
          "internalType": "uint256",
          "name": "_to",
          "type": "uint256"
        },
        {
          "internalType": "uint256",
          "name": "_allocPoint",
          "type": "uint256"
        }
      ],
      "name": "getPoolReward",
      "outputs": [
        {
          "internalType": "uint256",
          "name": "forDev",
          "type": "uint256"
        },
        {
          "internalType": "uint256",
          "name": "forFarmer",
          "type": "uint256"
        },
        {
          "internalType": "uint256",
          "name": "forLP",
          "type": "uint256"
        },
        {
          "internalType": "uint256",
          "name": "forCom",
          "type": "uint256"
        },
        {
          "internalType": "uint256",
          "name": "forFounders",
          "type": "uint256"
        }
      ],
      "stateMutability": "view",
      "type": "function"
    },
    {
      "inputs": [
        {
          "internalType": "bytes32",
          "name": "role",
          "type": "bytes32"
        }
      ],
      "name": "getRoleAdmin",
      "outputs": [
        {
          "internalType": "bytes32",
          "name": "",
          "type": "bytes32"
        }
      ],
      "stateMutability": "view",
      "type": "function"
    },
    {
      "inputs": [
        {
          "internalType": "bytes32",
          "name": "role",
          "type": "bytes32"
        },
        {
          "internalType": "address",
          "name": "account",
          "type": "address"
        }
      ],
      "name": "grantRole",
      "outputs": [],
      "stateMutability": "nonpayable",
      "type": "function"
    },
    {
      "inputs": [
        {
          "internalType": "bytes32",
          "name": "role",
          "type": "bytes32"
        },
        {
          "internalType": "address",
          "name": "account",
          "type": "address"
        }
      ],
      "name": "hasRole",
      "outputs": [
        {
          "internalType": "bool",
          "name": "",
          "type": "bool"
        }
      ],
      "stateMutability": "view",
      "type": "function"
    },
    {
      "inputs": [
        {
          "components": [
            {
              "internalType": "contract IERC20ExtendedUpgradeable",
              "name": "govToken",
              "type": "address"
            },
            {
              "internalType": "contract IERC20ExtendedUpgradeable",
              "name": "rewardToken",
              "type": "address"
            },
            {
              "internalType": "uint256",
              "name": "rewardPerSecond",
              "type": "uint256"
            },
            {
              "internalType": "uint256",
              "name": "startTime",
              "type": "uint256"
            },
            {
              "internalType": "uint256",
              "name": "halvingAfterTime",
              "type": "uint256"
            },
            {
              "internalType": "uint256",
              "name": "userDepositFee",
              "type": "uint256"
            },
            {
              "internalType": "uint256",
              "name": "devDepositFee",
              "type": "uint256"
            },
            {
              "internalType": "address",
              "name": "devFundAddress",
              "type": "address"
            },
            {
              "internalType": "address",
              "name": "feeShareFundAddress",
              "type": "address"
            },
            {
              "internalType": "address",
              "name": "marketingFundAddress",
              "type": "address"
            },
            {
              "internalType": "address",
              "name": "foundersFundAddress",
              "type": "address"
            },
            {
              "internalType": "uint256[]",
              "name": "rewardMultipliers",
              "type": "uint256[]"
            },
            {
              "internalType": "uint256[]",
              "name": "userFeeStages",
              "type": "uint256[]"
            },
            {
              "internalType": "uint256[]",
              "name": "devFeeStages",
              "type": "uint256[]"
            },
            {
              "internalType": "uint256[]",
              "name": "percentLockBonusReward",
              "type": "uint256[]"
            }
          ],
          "internalType": "struct MasterInvestor.ConstructorParams",
          "name": "params",
          "type": "tuple"
        }
      ],
      "name": "initialize",
      "outputs": [],
      "stateMutability": "nonpayable",
      "type": "function"
    },
    {
      "inputs": [],
      "name": "massUpdatePools",
      "outputs": [],
      "stateMutability": "nonpayable",
      "type": "function"
    },
    {
      "inputs": [
        {
          "internalType": "uint256",
          "name": "_pid",
          "type": "uint256"
        },
        {
          "internalType": "address",
          "name": "_user",
          "type": "address"
        }
      ],
      "name": "pendingReward",
      "outputs": [
        {
          "internalType": "uint256",
          "name": "",
          "type": "uint256"
        }
      ],
      "stateMutability": "view",
      "type": "function"
    },
    {
      "inputs": [
        {
          "internalType": "contract IERC20ExtendedUpgradeable",
          "name": "",
          "type": "address"
        }
      ],
      "name": "poolExistence",
      "outputs": [
        {
          "internalType": "bool",
          "name": "",
          "type": "bool"
        }
      ],
      "stateMutability": "view",
      "type": "function"
    },
    {
      "inputs": [
        {
          "internalType": "address",
          "name": "",
          "type": "address"
        }
      ],
      "name": "poolId",
      "outputs": [
        {
          "internalType": "uint256",
          "name": "",
          "type": "uint256"
        }
      ],
      "stateMutability": "view",
      "type": "function"
    },
    {
      "inputs": [
        {
          "internalType": "uint256",
          "name": "",
          "type": "uint256"
        }
      ],
      "name": "poolInfo",
      "outputs": [
        {
          "internalType": "contract IERC20ExtendedUpgradeable",
          "name": "lpToken",
          "type": "address"
        },
        {
          "internalType": "uint256",
          "name": "allocPoint",
          "type": "uint256"
        },
        {
          "internalType": "uint256",
          "name": "lastRewardTime",
          "type": "uint256"
        },
        {
          "internalType": "uint256",
          "name": "accGovTokenPerShare",
          "type": "uint256"
        }
      ],
      "stateMutability": "view",
      "type": "function"
    },
    {
      "inputs": [],
      "name": "poolLength",
      "outputs": [
        {
          "internalType": "uint256",
          "name": "",
          "type": "uint256"
        }
      ],
      "stateMutability": "view",
      "type": "function"
    },
    {
      "inputs": [
        {
          "internalType": "bytes32",
          "name": "role",
          "type": "bytes32"
        },
        {
          "internalType": "address",
          "name": "account",
          "type": "address"
        }
      ],
      "name": "renounceRole",
      "outputs": [],
      "stateMutability": "nonpayable",
      "type": "function"
    },
    {
      "inputs": [
        {
          "internalType": "uint256",
          "name": "_pid",
          "type": "uint256"
        },
        {
          "internalType": "address",
          "name": "_user",
          "type": "address"
        },
        {
          "internalType": "uint256",
          "name": "_time",
          "type": "uint256"
        }
      ],
      "name": "reviseDeposit",
      "outputs": [],
      "stateMutability": "nonpayable",
      "type": "function"
    },
    {
      "inputs": [
        {
          "internalType": "uint256",
          "name": "_pid",
          "type": "uint256"
        },
        {
          "internalType": "address",
          "name": "_user",
          "type": "address"
        },
        {
          "internalType": "uint256",
          "name": "_time",
          "type": "uint256"
        }
      ],
      "name": "reviseWithdraw",
      "outputs": [],
      "stateMutability": "nonpayable",
      "type": "function"
    },
    {
      "inputs": [
        {
          "internalType": "bytes32",
          "name": "role",
          "type": "bytes32"
        },
        {
          "internalType": "address",
          "name": "account",
          "type": "address"
        }
      ],
      "name": "revokeRole",
      "outputs": [],
      "stateMutability": "nonpayable",
      "type": "function"
    },
    {
      "inputs": [
        {
          "internalType": "uint256",
          "name": "_pid",
          "type": "uint256"
        },
        {
          "internalType": "uint256",
          "name": "_allocPoint",
          "type": "uint256"
        },
        {
          "internalType": "bool",
          "name": "_withUpdate",
          "type": "bool"
        }
      ],
      "name": "set",
      "outputs": [],
      "stateMutability": "nonpayable",
      "type": "function"
    },
    {
      "inputs": [
        {
          "internalType": "bytes4",
          "name": "interfaceId",
          "type": "bytes4"
        }
      ],
      "name": "supportsInterface",
      "outputs": [
        {
          "internalType": "bool",
          "name": "",
          "type": "bool"
        }
      ],
      "stateMutability": "view",
      "type": "function"
    },
    {
      "inputs": [],
      "name": "totalAllocPoint",
      "outputs": [
        {
          "internalType": "uint256",
          "name": "",
          "type": "uint256"
        }
      ],
      "stateMutability": "view",
      "type": "function"
    },
    {
      "inputs": [
        {
          "internalType": "uint256",
          "name": "kind",
          "type": "uint256"
        },
        {
          "internalType": "address",
          "name": "_address",
          "type": "address"
        }
      ],
      "name": "updateAddress",
      "outputs": [],
      "stateMutability": "nonpayable",
      "type": "function"
    },
    {
      "inputs": [
        {
          "internalType": "uint256",
          "name": "kind",
          "type": "uint256"
        },
        {
          "internalType": "uint256",
          "name": "fee",
          "type": "uint256"
        }
      ],
      "name": "updateDepositFee",
      "outputs": [],
      "stateMutability": "nonpayable",
      "type": "function"
    },
    {
      "inputs": [
        {
          "internalType": "uint256",
          "name": "kind",
          "type": "uint256"
        },
        {
          "internalType": "uint256[]",
          "name": "feeStages",
          "type": "uint256[]"
        }
      ],
      "name": "updateFeeStages",
      "outputs": [],
      "stateMutability": "nonpayable",
      "type": "function"
    },
    {
      "inputs": [
        {
          "internalType": "uint256[]",
          "name": "times",
          "type": "uint256[]"
        }
      ],
      "name": "updateHalvingAtTimes",
      "outputs": [],
      "stateMutability": "nonpayable",
      "type": "function"
    },
    {
      "inputs": [
        {
          "internalType": "uint256",
          "name": "time",
          "type": "uint256"
        }
      ],
      "name": "updateLastRewardTime",
      "outputs": [],
      "stateMutability": "nonpayable",
      "type": "function"
    },
    {
      "inputs": [
        {
          "internalType": "uint256",
          "name": "kind",
          "type": "uint256"
        },
        {
          "internalType": "uint256",
          "name": "percent",
          "type": "uint256"
        }
      ],
      "name": "updateLockPercent",
      "outputs": [],
      "stateMutability": "nonpayable",
      "type": "function"
    },
    {
      "inputs": [
        {
          "internalType": "uint256",
          "name": "_pid",
          "type": "uint256"
        }
      ],
      "name": "updatePool",
      "outputs": [],
      "stateMutability": "nonpayable",
      "type": "function"
    },
    {
      "inputs": [
        {
          "internalType": "uint256[]",
          "name": "multipliers",
          "type": "uint256[]"
        }
      ],
      "name": "updateRewardMultipliers",
      "outputs": [],
      "stateMutability": "nonpayable",
      "type": "function"
    },
    {
      "inputs": [
        {
          "internalType": "uint256",
          "name": "reward",
          "type": "uint256"
        }
      ],
      "name": "updateRewardPerSecond",
      "outputs": [],
      "stateMutability": "nonpayable",
      "type": "function"
    },
    {
      "inputs": [
        {
          "internalType": "uint256",
          "name": "time",
          "type": "uint256"
        }
      ],
      "name": "updateStartTime",
      "outputs": [],
      "stateMutability": "nonpayable",
      "type": "function"
    },
    {
      "inputs": [
        {
          "internalType": "uint256[]",
          "name": "lockPercents",
          "type": "uint256[]"
        }
      ],
      "name": "updateUserLockPercents",
      "outputs": [],
      "stateMutability": "nonpayable",
      "type": "function"
    },
    {
      "inputs": [
        {
          "internalType": "uint256",
          "name": "_pid",
          "type": "uint256"
        }
      ],
      "name": "userDelta",
      "outputs": [
        {
          "internalType": "uint256",
          "name": "",
          "type": "uint256"
        }
      ],
      "stateMutability": "view",
      "type": "function"
    },
    {
      "inputs": [
        {
          "internalType": "uint256",
          "name": "_pid",
          "type": "uint256"
        },
        {
          "internalType": "address",
          "name": "_address",
          "type": "address"
        }
      ],
      "name": "userDeltaOf",
      "outputs": [
        {
          "internalType": "uint256",
          "name": "",
          "type": "uint256"
        }
      ],
      "stateMutability": "view",
      "type": "function"
    },
    {
      "inputs": [
        {
          "internalType": "uint256",
          "name": "",
          "type": "uint256"
        },
        {
          "internalType": "address",
          "name": "",
          "type": "address"
        }
      ],
      "name": "userInfo",
      "outputs": [
        {
          "internalType": "uint256",
          "name": "amount",
          "type": "uint256"
        },
        {
          "internalType": "uint256",
          "name": "rewardDebt",
          "type": "uint256"
        },
        {
          "internalType": "uint256",
          "name": "rewardDebtAtTime",
          "type": "uint256"
        },
        {
          "internalType": "uint256",
          "name": "lastWithdrawTime",
          "type": "uint256"
        },
        {
          "internalType": "uint256",
          "name": "firstDepositTime",
          "type": "uint256"
        },
        {
          "internalType": "uint256",
          "name": "timeDelta",
          "type": "uint256"
        },
        {
          "internalType": "uint256",
          "name": "lastDepositTime",
          "type": "uint256"
        }
      ],
      "stateMutability": "view",
      "type": "function"
    },
    {
      "inputs": [
        {
          "internalType": "uint256",
          "name": "_pid",
          "type": "uint256"
        },
        {
          "internalType": "uint256",
          "name": "_amount",
          "type": "uint256"
        },
        {
          "internalType": "address",
          "name": "_address",
          "type": "address"
        }
      ],
      "name": "withdraw",
      "outputs": [],
      "stateMutability": "nonpayable",
      "type": "function"
    },
    {
      "inputs": [
        {
          "internalType": "uint256",
          "name": "_pid",
          "type": "uint256"
        },
        {
          "internalType": "uint256",
          "name": "_amount",
          "type": "uint256"
        }
      ],
      "name": "withdraw",
      "outputs": [],
      "stateMutability": "nonpayable",
      "type": "function"
    }
  ],
  "bytecode": "0x60806040523480156200001157600080fd5b506200001c62000022565b620000e4565b600054610100900460ff16156200008f5760405162461bcd60e51b815260206004820152602760248201527f496e697469616c697a61626c653a20636f6e747261637420697320696e697469604482015266616c697a696e6760c81b606482015260840160405180910390fd5b60005460ff9081161015620000e2576000805460ff191660ff9081179091556040519081527f7f26b83ff96e1f2b6a682f133852f6798a09c465da95921460cefb38474024989060200160405180910390a15b565b613ed080620000f46000396000f3fe608060405234801561001057600080fd5b50600436106103f15760003560e01c806382386d5811610215578063c35cadbe11610125578063ddaa26ad116100b8578063f491adf711610087578063f491adf71461094e578063f92d34a914610961578063f930e77014610974578063fa0718d914610987578063ff51a2721461099057600080fd5b8063ddaa26ad14610916578063e2bbb1581461091f578063ed9bdeda14610932578063f14dab0f1461093b57600080fd5b8063cbd258b5116100f4578063cbd258b5146108ce578063d547741f146108f1578063d79c395314610904578063d9b0d4351461090d57600080fd5b8063c35cadbe14610864578063c6929e5314610877578063c7b6e52514610880578063c8ed76801461089357600080fd5b806399248ea7116101a8578063a82859c511610177578063a82859c514610805578063ae169a5014610818578063b16826891461082b578063b78777161461083e578063bd27e3f81461085157600080fd5b806399248ea7146107c45780639b963d2a146107d7578063a217fddf146107ea578063a2570bd6146107f257600080fd5b806391d14854116101e457806391d14854146106f957806393f1a40b1461070c57806394a918b71461079e57806398969e82146107b157600080fd5b806382386d5814610695578063874feed3146106a8578063875ad581146106bb5780638dbb1e3a146106e657600080fd5b80634004c8e7116103105780635643759e116102a357806364482f791161027257806364482f791461063e5780636461fc8c1461065157806365cf37711461066457806375b238fc146106775780637c0c57881461068c57600080fd5b80635643759e146105fd5780635eac6239146106105780636066debd14610623578063630b5ba11461063657600080fd5b80634b0cf206116102df5780634b0cf206146105bb57806351eb05a6146105ce5780635312ea8e146105e157806356407a61146105f457600080fd5b80634004c8e71461058357806343628fb414610596578063441a3e701461059f5780634abbbd28146105b257600080fd5b80631526fe27116103885780632ab29df7116103575780632ab29df7146105375780632f2ff15d1461054a57806335582e681461055d57806336568abe1461057057600080fd5b80631526fe27146104bc57806317caf6f1146104f95780631eaaa04514610501578063248a9ca31461051457600080fd5b8063081e3eda116103c4578063081e3eda1461047b57806309ae4d2c146104835780630ad58d2f146104965780630d329fea146104a957600080fd5b806301ffc9a7146103f6578063027e69991461041e57806303fe46ab1461043f57806306bcf02f14610466575b600080fd5b6104096104043660046136f7565b6109b0565b60405190151581526020015b60405180910390f35b61043161042c366004613721565b6109e7565b604051908152602001610415565b6104317f364d3d7565c7a8300c96fd53e065d19b65848d7b23b3191adcd55621c744223c81565b610479610474366004613721565b610a08565b005b60de54610431565b610431610491366004613721565b610a26565b6104796104a436600461375f565b610a6e565b6104796104b7366004613868565b610bec565b6104cf6104ca366004613721565b610c8f565b604080516001600160a01b0390951685526020850193909352918301526060820152608001610415565b60d854610431565b61047961050f3660046138bd565b610cd3565b610431610522366004613721565b60009081526065602052604090206001015490565b6104796105453660046138f4565b610f44565b6104796105583660046138f4565b611000565b61047961056b366004613924565b611025565b61047961057e3660046138f4565b61107d565b610479610591366004613721565b6110fb565b61043160d85481565b6104796105ad366004613924565b611119565b61043160d45481565b6104316105c9366004613721565b61169c565b6104796105dc366004613721565b6116ac565b6104796105ef366004613721565b611d32565b61043160d65481565b61047961060b366004613946565b611ea8565b61047961061e36600461397e565b611f0e565b610479610631366004613946565b611f4e565b610479611f90565b61047961064c3660046139b3565b611fb7565b61047961065f366004613721565b61204f565b61047961067236600461397e565b61206d565b610431600080516020613e7b83398151915281565b61043160d55481565b6104796106a3366004613946565b612098565b6104316106b6366004613721565b6120da565b60cb546106ce906001600160a01b031681565b6040516001600160a01b039091168152602001610415565b6104316106f4366004613924565b6120ea565b6104096107073660046138f4565b612219565b61076961071a3660046138f4565b60e0602052816000526040600020602052806000526040600020600091509150508060000154908060010154908060020154908060030154908060040154908060050154908060060154905087565b604080519788526020880196909652948601939093526060850191909152608084015260a083015260c082015260e001610415565b6104796107ac3660046139e1565b612244565b6104316107bf3660046138f4565b6125cf565b60ca546106ce906001600160a01b031681565b6104316107e5366004613721565b61272d565b610431600081565b60ce546106ce906001600160a01b031681565b610431610813366004613721565b612790565b610479610826366004613721565b6127a0565b60cc546106ce906001600160a01b031681565b61047961084c36600461397e565b6127b5565b61047961085f36600461397e565b6127e0565b610479610872366004613924565b61280b565b61043160dd5481565b61043161088e3660046138f4565b612843565b6108a66108a1366004613b60565b61289d565b604080519586526020860194909452928401919091526060830152608082015260a001610415565b6104096108dc366004613b8c565b60e16020526000908152604090205460ff1681565b6104796108ff3660046138f4565b612a98565b61043160cf5481565b61043160dc5481565b61043160d75481565b61047961092d366004613924565b612abd565b61043160da5481565b60cd546106ce906001600160a01b031681565b61043161095c366004613721565b612d22565b60c9546106ce906001600160a01b031681565b610431610982366004613924565b612d32565b61043160db5481565b61043161099e366004613b8c565b60df6020526000908152604090205481565b60006001600160e01b03198216637965db0b60e01b14806109e157506301ffc9a760e01b6001600160e01b03198316145b92915050565b60d181815481106109f757600080fd5b600091825260209091200154905081565b600080516020613e7b833981519152610a2081612de1565b5060d755565b600081815260e0602090815260408083203384529091528120600381015415610a5f576003810154610a589042613bbf565b9392505050565b6004810154610a589042613bbf565b60026097541415610a9a5760405162461bcd60e51b8152600401610a9190613bd6565b60405180910390fd5b60026097557f364d3d7565c7a8300c96fd53e065d19b65848d7b23b3191adcd55621c744223c610ac981612de1565b600060de8581548110610ade57610ade613c0d565b6000918252602080832088845260e0825260408085206001600160a01b03891686529092529220805460049092029092019250851115610b305760405162461bcd60e51b8152600401610a9190613c23565b610b39866116ac565b610b438685612deb565b8415610bdf5784816000016000828254610b5d9190613bbf565b90915550508154610b78906001600160a01b031685876130b6565b6003820154815464e8d4a5100091610b8f91613c65565b610b999190613c84565b600182015560405185815286906001600160a01b038616907ff279e6a1f5e320cca91135676d9cb6e44ca8a08c0b88342bcdb1144f6511b5689060200160405180910390a35b5050600160975550505050565b600080516020613e7b833981519152610c0481612de1565b8260011415610c26578151610c209060d2906020850190613697565b50505050565b8260021415610c42578151610c209060d3906020850190613697565b60405162461bcd60e51b815260206004820152601760248201527f496e76616c6964206b696e64206964656e7469666965720000000000000000006044820152606401610a91565b505050565b60de8181548110610c9f57600080fd5b600091825260209091206004909102018054600182015460028301546003909301546001600160a01b039092169350919084565b600080516020613e7b833981519152610ceb81612de1565b6001600160a01b038316600090815260e16020526040902054839060ff1615610d685760405162461bcd60e51b815260206004820152602960248201527f4d6173746572496e766573746f723a3a6e6f6e4475706c6963617465643a20646044820152681d5c1b1a58d85d195960ba1b6064820152608401610a91565b6001600160a01b038416600090815260df602052604090205415610de15760405162461bcd60e51b815260206004820152602a60248201527f4d6173746572496e766573746f723a3a6164643a206c7020697320616c726561604482015269191e481a5b881c1bdbdb60b21b6064820152608401610a91565b8215610def57610def611f90565b600060d7544211610e025760d754610e04565b425b90508560d86000828254610e189190613ca6565b909155505060de54610e2b906001613ca6565b6001600160a01b03958616600081815260df602090815260408083209490945560e181528382208054600160ff1990911681179091558451608081018652938452908301998a529282019384526060820181815260de8054948501815590915290517ffae8130c0619f84b4b44f01b84806f04e82e536d70e05f2356977fa318aecc1a600490930292830180546001600160a01b031916919098161790965595517ffae8130c0619f84b4b44f01b84806f04e82e536d70e05f2356977fa318aecc1b870155517ffae8130c0619f84b4b44f01b84806f04e82e536d70e05f2356977fa318aecc1c860155505090517ffae8130c0619f84b4b44f01b84806f04e82e536d70e05f2356977fa318aecc1d9092019190915550565b600080516020613e7b833981519152610f5c81612de1565b8260011415610f855760cb80546001600160a01b0319166001600160a01b038416179055505050565b8260021415610fae5760cc80546001600160a01b0319166001600160a01b038416179055505050565b8260031415610fd75760cd80546001600160a01b0319166001600160a01b038416179055505050565b8260041415610c425760ce80546001600160a01b0319166001600160a01b038416179055505050565b60008281526065602052604090206001015461101b81612de1565b610c8a838361310c565b600080516020613e7b83398151915261103d81612de1565b826001141561104d575060da5550565b826002141561105d575060db5550565b826003141561106d575060dc5550565b8260041415610c42575060dd5550565b6001600160a01b03811633146110ed5760405162461bcd60e51b815260206004820152602f60248201527f416363657373436f6e74726f6c3a2063616e206f6e6c792072656e6f756e636560448201526e103937b632b9903337b91039b2b63360891b6064820152608401610a91565b6110f78282613192565b5050565b600080516020613e7b83398151915261111381612de1565b5060cf55565b6002609754141561113c5760405162461bcd60e51b8152600401610a9190613bd6565b6002609781905550600060de838154811061115957611159613c0d565b6000918252602080832086845260e09091526040832060049092020192508161117f3390565b6001600160a01b03166001600160a01b03168152602001908152602001600020905082816000015410156111c55760405162461bcd60e51b8152600401610a9190613c23565b6111ce846116ac565b6111d7846131f9565b821561169157828160000160008282546111f19190613bbf565b909155505060038101541561121957600381015461120f9042613bbf565b600582015561122e565b60048101546112289042613bbf565b60058201555b60008082600601544214156112b257606460d260008154811061125357611253613c0d565b9060005260206000200154866112699190613c65565b6112739190613c84565b9150606460d360008154811061128b5761128b613c0d565b9060005260206000200154866112a19190613c65565b6112ab9190613c84565b90506115f8565b60018360050154101580156112cc5750610e108360050154105b1561131f57606460d26001815481106112e7576112e7613c0d565b9060005260206000200154866112fd9190613c65565b6113079190613c84565b9150606460d360018154811061128b5761128b613c0d565b610e1083600501541015801561133b5750620151808360050154105b1561138e57606460d260028154811061135657611356613c0d565b90600052602060002001548661136c9190613c65565b6113769190613c84565b9150606460d360028154811061128b5761128b613c0d565b620151808360050154101580156113ab57506203f4808360050154105b156113fe57606460d26003815481106113c6576113c6613c0d565b9060005260206000200154866113dc9190613c65565b6113e69190613c84565b9150606460d360038154811061128b5761128b613c0d565b6203f48083600501541015801561141b5750620697808360050154105b1561146e57606460d260048154811061143657611436613c0d565b90600052602060002001548661144c9190613c65565b6114569190613c84565b9150606460d360048154811061128b5761128b613c0d565b6206978083600501541015801561148b5750621275008360050154105b156114e0576103e860d26005815481106114a7576114a7613c0d565b9060005260206000200154866114bd9190613c65565b6114c79190613c84565b91506103e860d360058154811061128b5761128b613c0d565b621275008360050154101580156114fd57506224ea008360050154105b156115525761271060d260068154811061151957611519613c0d565b90600052602060002001548661152f9190613c65565b6115399190613c84565b915061271060d360068154811061128b5761128b613c0d565b6224ea008360050154106115b05761271060d260078154811061157757611577613c0d565b90600052602060002001548661158d9190613c65565b6115979190613c84565b915061271060d360078154811061128b5761128b613c0d565b60405162461bcd60e51b815260206004820152601860248201527f536f6d657468696e6720697320766572792062726f6b656e00000000000000006044820152606401610a91565b61160f335b85546001600160a01b031690846130b6565b60cb54845461162b916001600160a01b039182169116836130b6565b6003840154835464e8d4a510009161164291613c65565b61164c9190613c84565b6001840155604051858152869033907ff279e6a1f5e320cca91135676d9cb6e44ca8a08c0b88342bcdb1144f6511b5689060200160405180910390a350504260038201555b505060016097555050565b60d281815481106109f757600080fd5b600060de82815481106116c1576116c1613c0d565b90600052602060002090600402019050806002015442116116e0575050565b80546040516370a0823160e01b81523060048201526000916001600160a01b0316906370a082319060240160206040518083038186803b15801561172357600080fd5b505afa158015611737573d6000803e3d6000fd5b505050506040513d601f19601f8201168201806040525081019061175b9190613cbe565b905080158061176c57506001820154155b1561177c57504260029091015550565b6000806000806000611797876002015442896001015461289d565b60c9546040516340c10f1960e01b8152959a50939850919650945092506001600160a01b0316906340c10f19906117d49030908890600401613cd7565b600060405180830381600087803b1580156117ee57600080fd5b505af1158015611802573d6000803e3d6000fd5b50505050858464e8d4a510006118189190613c65565b6118229190613c84565b8760030160008282546118359190613ca6565b9091555050426002880155841561197a57600060d454421115611859576000611870565b606461186687604b613c65565b6118709190613c84565b9050600060d454421115611884578661189b565b6064611891886019613c65565b61189b9190613c84565b60c95460cb546040516340c10f1960e01b81529293506001600160a01b03918216926340c10f19926118d39216908590600401613cd7565b600060405180830381600087803b1580156118ed57600080fd5b505af1158015611901573d6000803e3d6000fd5b5050505060008211156119775760ca5460cb546040516340c10f1960e01b81526001600160a01b03928316926340c10f1992611944929116908690600401613cd7565b600060405180830381600087803b15801561195e57600080fd5b505af1158015611972573d6000803e3d6000fd5b505050505b50505b8215611ab457600060d4544211156119935760006119aa565b60646119a085602d613c65565b6119aa9190613c84565b9050600060d4544211156119be57846119d5565b60646119cb866037613c65565b6119d59190613c84565b60c95460cc546040516340c10f1960e01b81529293506001600160a01b03918216926340c10f1992611a0d9216908590600401613cd7565b600060405180830381600087803b158015611a2757600080fd5b505af1158015611a3b573d6000803e3d6000fd5b505050506000821115611ab15760ca5460cc546040516340c10f1960e01b81526001600160a01b03928316926340c10f1992611a7e929116908690600401613cd7565b600060405180830381600087803b158015611a9857600080fd5b505af1158015611aac573d6000803e3d6000fd5b505050505b50505b8115611bee57600060d454421115611acd576000611ae4565b6064611ada846055613c65565b611ae49190613c84565b9050600060d454421115611af85783611b0f565b6064611b0585600f613c65565b611b0f9190613c84565b60c95460cd546040516340c10f1960e01b81529293506001600160a01b03918216926340c10f1992611b479216908590600401613cd7565b600060405180830381600087803b158015611b6157600080fd5b505af1158015611b75573d6000803e3d6000fd5b505050506000821115611beb5760ca5460cd546040516340c10f1960e01b81526001600160a01b03928316926340c10f1992611bb8929116908690600401613cd7565b600060405180830381600087803b158015611bd257600080fd5b505af1158015611be6573d6000803e3d6000fd5b505050505b50505b8015611d2857600060d454421115611c07576000611c1e565b6064611c1483605f613c65565b611c1e9190613c84565b9050600060d454421115611c325782611c49565b6064611c3f846005613c65565b611c499190613c84565b60c95460ce546040516340c10f1960e01b81529293506001600160a01b03918216926340c10f1992611c819216908590600401613cd7565b600060405180830381600087803b158015611c9b57600080fd5b505af1158015611caf573d6000803e3d6000fd5b505050506000821115611d255760ca5460ce546040516340c10f1960e01b81526001600160a01b03928316926340c10f1992611cf2929116908690600401613cd7565b600060405180830381600087803b158015611d0c57600080fd5b505af1158015611d20573d6000803e3d6000fd5b505050505b50505b5050505050505050565b60026097541415611d555760405162461bcd60e51b8152600401610a9190613bd6565b6002609781905550600060de8281548110611d7257611d72613c0d565b6000918252602080832085845260e090915260408320600490920201925081611d983390565b6001600160a01b03166001600160a01b0316815260200190815260200160002090506000606460d2600081548110611dd257611dd2613c0d565b90600052602060002001548360000154611dec9190613c65565b611df69190613c84565b90506000606460d3600081548110611e1057611e10613c0d565b90600052602060002001548460000154611e2a9190613c65565b611e349190613c84565b600080855560018501559050611e49336115fd565b60cb548454611e65916001600160a01b039182169116836130b6565b604051828152859033907fbb757047c2b5f3974fe26b7c10f732e7bce710b0952a71082702781e62ae05959060200160405180910390a350506001609755505050565b600080516020613e7b833981519152611ec081612de1565b600060de8581548110611ed557611ed5613c0d565b600091825260209091206004909102018054909150611efe906001600160a01b031685856130b6565b611f07856116ac565b5050505050565b60005b81518110156110f757611f3c828281518110611f2f57611f2f613c0d565b60200260200101516127a0565b80611f4681613cf0565b915050611f11565b600080516020613e7b833981519152611f6681612de1565b50600092835260e0602090815260408085206001600160a01b039094168552929052912060030155565b60de5460005b818110156110f757611fa7816116ac565b611fb081613cf0565b9050611f96565b600080516020613e7b833981519152611fcf81612de1565b8115611fdd57611fdd611f90565b8260de8581548110611ff157611ff1613c0d565b90600052602060002090600402016001015460d8546120109190613bbf565b61201a9190613ca6565b60d8819055508260de858154811061203457612034613c0d565b90600052602060002090600402016001018190555050505050565b600080516020613e7b83398151915261206781612de1565b5060d455565b600080516020613e7b83398151915261208581612de1565b8151610c8a9060d9906020850190613697565b600080516020613e7b8339815191526120b081612de1565b50600092835260e0602090815260408085206001600160a01b039094168552929052912060040155565b60d081815481106109f757600080fd5b60d75460009081908410156121035760009150506109e1565b60005b60d15481101561221157600060d1828154811061212557612125613c0d565b90600052602060002001549050600160d0805490506121449190613bbf565b82111561215757600093505050506109e1565b8085116121ab57600060d0838154811061217357612173613c0d565b9060005260206000200154878761218a9190613bbf565b6121949190613c65565b90506121a08185613ca6565b9450505050506109e1565b808610156121fe57600060d083815481106121c8576121c8613c0d565b906000526020600020015487836121df9190613bbf565b6121e99190613c65565b905081965080846121fa9190613ca6565b9350505b508061220981613cf0565b915050612106565b509392505050565b60009182526065602090815260408084206001600160a01b0393909316845291905290205460ff1690565b600054610100900460ff16158080156122645750600054600160ff909116105b8061227e5750303b15801561227e575060005460ff166001145b6122e15760405162461bcd60e51b815260206004820152602e60248201527f496e697469616c697a61626c653a20636f6e747261637420697320616c72656160448201526d191e481a5b9a5d1a585b1a5e995960921b6064820152608401610a91565b6000805460ff191660011790558015612304576000805461ff0019166101001790555b61230c613203565b61231461322c565b61231f60003361310c565b612337600080516020613e7b8339815191523361310c565b6123617f364d3d7565c7a8300c96fd53e065d19b65848d7b23b3191adcd55621c744223c3361310c565b610180820151805161237b9160d291602090910190613697565b506101a082015180516123969160d391602090910190613697565b50815160c980546001600160a01b03199081166001600160a01b039384161790915560208085015160ca80549093169316929092179055604083015160cf55606083015160d75560a083015160d55560c083015160d65561016083015180516124039260d0920190613697565b5060e082015160cb80546001600160a01b039283166001600160a01b03199182161790915561010084015160cc805491841691831691909117905561012084015160cd805491841691831691909117905561014084015160ce80549190931691161790556101c082015180516124819160d991602090910190613697565b50600060d88190555b60d05461249990600190613bbf565b81101561251d5760608301516000906124b3836001613ca6565b85608001516124c29190613c65565b6124cc9190613ca6565b6124d7906001613ca6565b60d180546001810182556000919091527f695fb3134ad82c3b8022bc5464edd0bcc9424ef672b52245dcb6ab2374327ce30155508061251581613cf0565b91505061248a565b50606082015160d05461253290600190613bbf565b83608001516125419190613c65565b61254b9190613ca6565b60d45560d180546001810182556000919091526000197f695fb3134ad82c3b8022bc5464edd0bcc9424ef672b52245dcb6ab2374327ce39091015580156110f7576000805461ff0019169055604051600181527f7f26b83ff96e1f2b6a682f133852f6798a09c465da95921460cefb38474024989060200160405180910390a15050565b60008060de84815481106125e5576125e5613c0d565b6000918252602080832087845260e0825260408085206001600160a01b038981168752935280852060049485029092016003810154815492516370a0823160e01b8152309681019690965290965091949193919216906370a082319060240160206040518083038186803b15801561265c57600080fd5b505afa158015612670573d6000803e3d6000fd5b505050506040513d601f19601f820116820180604052508101906126949190613cbe565b90508360020154421180156126a95750600081115b156126f55760006126c3856002015442876001015461289d565b509193508492506126dd915083905064e8d4a51000613c65565b6126e79190613c84565b6126f19084613ca6565b9250505b6001830154835464e8d4a510009061270e908590613c65565b6127189190613c84565b6127229190613bbf565b979650505050505050565b60008061274461273e600142613bbf565b426120ea565b905060d85460de848154811061275c5761275c613c0d565b90600052602060002090600402016001015460cf548361277c9190613c65565b6127869190613c65565b610a589190613c84565b60d981815481106109f757600080fd5b6127a9816116ac565b6127b2816131f9565b50565b600080516020613e7b8339815191526127cd81612de1565b8151610c8a9060d1906020850190613697565b600080516020613e7b8339815191526127f881612de1565b8151610c8a9060d0906020850190613697565b600080516020613e7b83398151915261282381612de1565b8260011415612833575060d55550565b8260021415610c42575060d65550565b600082815260e0602090815260408083206001600160a01b0385168452909152812060038101541561288657600381015461287e9042613bbf565b9150506109e1565b60048101546128959042613bbf565b949350505050565b6000806000806000806128b089896120ea565b9050600060d8548860cf54846128c69190613c65565b6128d09190613c65565b6128da9190613c84565b9050600060c960009054906101000a90046001600160a01b03166001600160a01b03166318160ddd6040518163ffffffff1660e01b815260040160206040518083038186803b15801561292c57600080fd5b505afa158015612940573d6000803e3d6000fd5b505050506040513d601f19601f820116820180604052508101906129649190613cbe565b60c960009054906101000a90046001600160a01b03166001600160a01b031663355274ea6040518163ffffffff1660e01b815260040160206040518083038186803b1580156129b257600080fd5b505afa1580156129c6573d6000803e3d6000fd5b505050506040513d601f19601f820116820180604052508101906129ea9190613cbe565b6129f49190613bbf565b905081811015612a165760009750809650600095506000945060009350612a8a565b606460da5483612a269190613c65565b612a309190613c84565b9750819650606460db5483612a459190613c65565b612a4f9190613c84565b9550606460dc5483612a619190613c65565b612a6b9190613c84565b9450606460dd5483612a7d9190613c65565b612a879190613c84565b93505b505050939792965093509350565b600082815260656020526040902060010154612ab381612de1565b610c8a8383613192565b60026097541415612ae05760405162461bcd60e51b8152600401610a9190613bd6565b600260975580612b515760405162461bcd60e51b815260206004820152603660248201527f4d6173746572496e766573746f723a3a6465706f7369743a20616d6f756e742060448201527506d7573742062652067726561746572207468616e20360541b6064820152608401610a91565b600060de8381548110612b6657612b66613c0d565b6000918252602080832086845260e090915260408320600490920201925081612b8c3390565b6001600160a01b0390811682526020808301939093526040918201600090812088825260e0855283822060cb549093168252919093529120909150612bd0856116ac565b612bd9856131f9565b612bf03384546001600160a01b031690308761325b565b8154612bfd574260028301555b61271060d55485612c0e9190613c65565b612c189190613c84565b612c229085613bbf565b826000016000828254612c359190613ca6565b90915550506003830154825464e8d4a5100091612c5191613c65565b612c5b9190613c84565b600183015560d65461271090612c719086613c65565b612c7b9190613c84565b612c859085613bbf565b816000016000828254612c989190613ca6565b90915550506003830154815464e8d4a5100091612cb491613c65565b612cbe9190613c84565b6001820155604051848152859033907f90890809c654f11d6e72a28fa60149770a0d11ec6c92319d6ceb2bb0a4ea1a159060200160405180910390a3600482015415612d0957612d10565b4260048301555b50426006909101555050600160975550565b60d381815481106109f757600080fd5b60d7546000908190841015612d4b5760649150506109e1565b60005b60d15481101561221157600060d18281548110612d6d57612d6d613c0d565b90600052602060002001549050600160d980549050612d8c9190613bbf565b821115612d9f57600093505050506109e1565b808511612dce5760d98281548110612db957612db9613c0d565b906000526020600020015493505050506109e1565b5080612dd981613cf0565b915050612d4e565b6127b28133613293565b600060de8381548110612e0057612e00613c0d565b6000918252602080832086845260e0825260408085206001600160a01b0388168652909252922080546004909202909201925015610c20576000816001015464e8d4a5100084600301548460000154612e599190613c65565b612e639190613c84565b612e6d9190613bbf565b60c9546040516370a0823160e01b81523060048201529192506000916001600160a01b03909116906370a082319060240160206040518083038186803b158015612eb657600080fd5b505afa158015612eca573d6000803e3d6000fd5b505050506040513d601f19601f82011682018060405250810190612eee9190613cbe565b905080821115612efc578091505b811561308857600060d454846002015411612f43576000612f27612f21600142613bbf565b42612d32565b90506064612f358286613c65565b612f3f9190613c84565b9150505b60c9546001600160a01b031663a9059cbb87612f5f8487613bbf565b6040518363ffffffff1660e01b8152600401612f7c929190613cd7565b602060405180830381600087803b158015612f9657600080fd5b505af1158015612faa573d6000803e3d6000fd5b505050506040513d601f19601f82011682018060405250810190612fce9190613d0b565b50801561303a5760ca546040516340c10f1960e01b81526001600160a01b03909116906340c10f19906130079089908590600401613cd7565b600060405180830381600087803b15801561302157600080fd5b505af1158015613035573d6000803e3d6000fd5b505050505b426002850155604080518481526020810183905288916001600160a01b038916917f3887f2857beaaf367eb618dfb5e22c1ebd74425affb0602c2e9fe126e3f860eb910160405180910390a3505b6003840154835464e8d4a510009161309f91613c65565b6130a99190613c84565b6001840155505050505050565b610c8a8363a9059cbb60e01b84846040516024016130d5929190613cd7565b60408051601f198184030181529190526020810180516001600160e01b03166001600160e01b0319909316929092179091526132f7565b6131168282612219565b6110f75760008281526065602090815260408083206001600160a01b03851684529091529020805460ff1916600117905561314e3390565b6001600160a01b0316816001600160a01b0316837f2f8788117e7eff1d82e926ec794901d17c78024a50270940304540a733656f0d60405160405180910390a45050565b61319c8282612219565b156110f75760008281526065602090815260408083206001600160a01b0385168085529252808320805460ff1916905551339285917ff6391f5c32d9c69d2a47ea670b442974b53935d1edc7fd64eb21e047a839171b9190a45050565b6127b28133612deb565b600054610100900460ff1661322a5760405162461bcd60e51b8152600401610a9190613d28565b565b600054610100900460ff166132535760405162461bcd60e51b8152600401610a9190613d28565b61322a6133c9565b6040516001600160a01b0380851660248301528316604482015260648101829052610c209085906323b872dd60e01b906084016130d5565b61329d8282612219565b6110f7576132b5816001600160a01b031660146133f7565b6132c08360206133f7565b6040516020016132d1929190613d9f565b60408051601f198184030181529082905262461bcd60e51b8252610a9191600401613e14565b600061334c826040518060400160405280602081526020017f5361666545524332303a206c6f772d6c6576656c2063616c6c206661696c6564815250856001600160a01b03166135939092919063ffffffff16565b805190915015610c8a578080602001905181019061336a9190613d0b565b610c8a5760405162461bcd60e51b815260206004820152602a60248201527f5361666545524332303a204552433230206f7065726174696f6e20646964206e6044820152691bdd081cdd58d8d9595960b21b6064820152608401610a91565b600054610100900460ff166133f05760405162461bcd60e51b8152600401610a9190613d28565b6001609755565b60606000613406836002613c65565b613411906002613ca6565b67ffffffffffffffff81111561342957613429613798565b6040519080825280601f01601f191660200182016040528015613453576020820181803683370190505b509050600360fc1b8160008151811061346e5761346e613c0d565b60200101906001600160f81b031916908160001a905350600f60fb1b8160018151811061349d5761349d613c0d565b60200101906001600160f81b031916908160001a90535060006134c1846002613c65565b6134cc906001613ca6565b90505b6001811115613544576f181899199a1a9b1b9c1cb0b131b232b360811b85600f166010811061350057613500613c0d565b1a60f81b82828151811061351657613516613c0d565b60200101906001600160f81b031916908160001a90535060049490941c9361353d81613e47565b90506134cf565b508315610a585760405162461bcd60e51b815260206004820181905260248201527f537472696e67733a20686578206c656e67746820696e73756666696369656e746044820152606401610a91565b60606128958484600085856001600160a01b0385163b6135f55760405162461bcd60e51b815260206004820152601d60248201527f416464726573733a2063616c6c20746f206e6f6e2d636f6e74726163740000006044820152606401610a91565b600080866001600160a01b031685876040516136119190613e5e565b60006040518083038185875af1925050503d806000811461364e576040519150601f19603f3d011682016040523d82523d6000602084013e613653565b606091505b50915091506127228282866060831561366d575081610a58565b82511561367d5782518084602001fd5b8160405162461bcd60e51b8152600401610a919190613e14565b8280548282559060005260206000209081019282156136d2579160200282015b828111156136d25782518255916020019190600101906136b7565b506136de9291506136e2565b5090565b5b808211156136de57600081556001016136e3565b60006020828403121561370957600080fd5b81356001600160e01b031981168114610a5857600080fd5b60006020828403121561373357600080fd5b5035919050565b6001600160a01b03811681146127b257600080fd5b803561375a8161373a565b919050565b60008060006060848603121561377457600080fd5b8335925060208401359150604084013561378d8161373a565b809150509250925092565b634e487b7160e01b600052604160045260246000fd5b6040516101e0810167ffffffffffffffff811182821017156137d2576137d2613798565b60405290565b600082601f8301126137e957600080fd5b8135602067ffffffffffffffff8083111561380657613806613798565b8260051b604051601f19603f8301168101818110848211171561382b5761382b613798565b60405293845285810183019383810192508785111561384957600080fd5b83870191505b848210156127225781358352918301919083019061384f565b6000806040838503121561387b57600080fd5b82359150602083013567ffffffffffffffff81111561389957600080fd5b6138a5858286016137d8565b9150509250929050565b80151581146127b257600080fd5b6000806000606084860312156138d257600080fd5b8335925060208401356138e48161373a565b9150604084013561378d816138af565b6000806040838503121561390757600080fd5b8235915060208301356139198161373a565b809150509250929050565b6000806040838503121561393757600080fd5b50508035926020909101359150565b60008060006060848603121561395b57600080fd5b83359250602084013561396d8161373a565b929592945050506040919091013590565b60006020828403121561399057600080fd5b813567ffffffffffffffff8111156139a757600080fd5b612895848285016137d8565b6000806000606084860312156139c857600080fd5b8335925060208401359150604084013561378d816138af565b6000602082840312156139f357600080fd5b813567ffffffffffffffff80821115613a0b57600080fd5b908301906101e08286031215613a2057600080fd5b613a286137ae565b613a318361374f565b8152613a3f6020840161374f565b602082015260408301356040820152606083013560608201526080830135608082015260a083013560a082015260c083013560c0820152613a8260e0840161374f565b60e0820152610100613a9581850161374f565b90820152610120613aa784820161374f565b90820152610140613ab984820161374f565b908201526101608381013583811115613ad157600080fd5b613add888287016137d8565b8284015250506101808084013583811115613af757600080fd5b613b03888287016137d8565b8284015250506101a08084013583811115613b1d57600080fd5b613b29888287016137d8565b8284015250506101c08084013583811115613b4357600080fd5b613b4f888287016137d8565b918301919091525095945050505050565b600080600060608486031215613b7557600080fd5b505081359360208301359350604090920135919050565b600060208284031215613b9e57600080fd5b8135610a588161373a565b634e487b7160e01b600052601160045260246000fd5b600082821015613bd157613bd1613ba9565b500390565b6020808252601f908201527f5265656e7472616e637947756172643a207265656e7472616e742063616c6c00604082015260600190565b634e487b7160e01b600052603260045260246000fd5b60208082526022908201527f4d6173746572496e766573746f723a3a77697468647261773a206e6f7420676f6040820152611bd960f21b606082015260800190565b6000816000190483118215151615613c7f57613c7f613ba9565b500290565b600082613ca157634e487b7160e01b600052601260045260246000fd5b500490565b60008219821115613cb957613cb9613ba9565b500190565b600060208284031215613cd057600080fd5b5051919050565b6001600160a01b03929092168252602082015260400190565b6000600019821415613d0457613d04613ba9565b5060010190565b600060208284031215613d1d57600080fd5b8151610a58816138af565b6020808252602b908201527f496e697469616c697a61626c653a20636f6e7472616374206973206e6f74206960408201526a6e697469616c697a696e6760a81b606082015260800190565b60005b83811015613d8e578181015183820152602001613d76565b83811115610c205750506000910152565b7f416363657373436f6e74726f6c3a206163636f756e7420000000000000000000815260008351613dd7816017850160208801613d73565b7001034b99036b4b9b9b4b733903937b6329607d1b6017918401918201528351613e08816028840160208801613d73565b01602801949350505050565b6020815260008251806020840152613e33816040850160208701613d73565b601f01601f19169190910160400192915050565b600081613e5657613e56613ba9565b506000190190565b60008251613e70818460208701613d73565b919091019291505056fea49807205ce4d355092ef5a8a18f56e8913cf4a201fbe287825b095693c21775a2646970667358221220d31d70bd9f98500ec968ea41fee8a11d4e47ed4404e65522fea382e47e4875d064736f6c63430008090033",
  "linkReferences": {},
  "deployedLinkReferences": {}
}