{
  "_format": "hh-sol-artifact-1",
  "contractName": "MasterInvestor",
  "sourceName": "contracts/npc/MasterInvestor.sol",
  "abi": [
    {
      "inputs": [],
      "stateMutability": "nonpayable",
      "type": "constructor"
    },
    {
      "anonymous": false,
      "inputs": [
        {
          "indexed": true,
          "internalType": "address",
          "name": "user",
          "type": "address"
        },
        {
          "indexed": true,
          "internalType": "uint256",
          "name": "pid",
          "type": "uint256"
        },
        {
          "indexed": false,
          "internalType": "uint256",
          "name": "amount",
          "type": "uint256"
        }
      ],
      "name": "Deposit",
      "type": "event"
    },
    {
      "anonymous": false,
      "inputs": [
        {
          "indexed": true,
          "internalType": "address",
          "name": "user",
          "type": "address"
        },
        {
          "indexed": true,
          "internalType": "uint256",
          "name": "pid",
          "type": "uint256"
        },
        {
          "indexed": false,
          "internalType": "uint256",
          "name": "amount",
          "type": "uint256"
        }
      ],
      "name": "EmergencyWithdraw",
      "type": "event"
    },
    {
      "anonymous": false,
      "inputs": [
        {
          "indexed": false,
          "internalType": "uint8",
          "name": "version",
          "type": "uint8"
        }
      ],
      "name": "Initialized",
      "type": "event"
    },
    {
      "anonymous": false,
      "inputs": [
        {
          "indexed": true,
          "internalType": "bytes32",
          "name": "role",
          "type": "bytes32"
        },
        {
          "indexed": true,
          "internalType": "bytes32",
          "name": "previousAdminRole",
          "type": "bytes32"
        },
        {
          "indexed": true,
          "internalType": "bytes32",
          "name": "newAdminRole",
          "type": "bytes32"
        }
      ],
      "name": "RoleAdminChanged",
      "type": "event"
    },
    {
      "anonymous": false,
      "inputs": [
        {
          "indexed": true,
          "internalType": "bytes32",
          "name": "role",
          "type": "bytes32"
        },
        {
          "indexed": true,
          "internalType": "address",
          "name": "account",
          "type": "address"
        },
        {
          "indexed": true,
          "internalType": "address",
          "name": "sender",
          "type": "address"
        }
      ],
      "name": "RoleGranted",
      "type": "event"
    },
    {
      "anonymous": false,
      "inputs": [
        {
          "indexed": true,
          "internalType": "bytes32",
          "name": "role",
          "type": "bytes32"
        },
        {
          "indexed": true,
          "internalType": "address",
          "name": "account",
          "type": "address"
        },
        {
          "indexed": true,
          "internalType": "address",
          "name": "sender",
          "type": "address"
        }
      ],
      "name": "RoleRevoked",
      "type": "event"
    },
    {
      "anonymous": false,
      "inputs": [
        {
          "indexed": true,
          "internalType": "address",
          "name": "user",
          "type": "address"
        },
        {
          "indexed": true,
          "internalType": "uint256",
          "name": "pid",
          "type": "uint256"
        },
        {
          "indexed": false,
          "internalType": "uint256",
          "name": "amount",
          "type": "uint256"
        },
        {
          "indexed": false,
          "internalType": "uint256",
          "name": "lockAmount",
          "type": "uint256"
        }
      ],
      "name": "SendGovernanceTokenReward",
      "type": "event"
    },
    {
      "anonymous": false,
      "inputs": [
        {
          "indexed": true,
          "internalType": "address",
          "name": "user",
          "type": "address"
        },
        {
          "indexed": true,
          "internalType": "uint256",
          "name": "pid",
          "type": "uint256"
        },
        {
          "indexed": false,
          "internalType": "uint256",
          "name": "amount",
          "type": "uint256"
        }
      ],
      "name": "Withdraw",
      "type": "event"
    },
    {
      "inputs": [],
      "name": "ADMIN_ROLE",
      "outputs": [
        {
          "internalType": "bytes32",
          "name": "",
          "type": "bytes32"
        }
      ],
      "stateMutability": "view",
      "type": "function"
    },
    {
      "inputs": [],
      "name": "AUTHORIZED_ROLE",
      "outputs": [
        {
          "internalType": "bytes32",
          "name": "",
          "type": "bytes32"
        }
      ],
      "stateMutability": "view",
      "type": "function"
    },
    {
      "inputs": [],
      "name": "COMMUNITY_FUND_ADDRESS",
      "outputs": [
        {
          "internalType": "address",
          "name": "",
          "type": "address"
        }
      ],
      "stateMutability": "view",
      "type": "function"
    },
    {
      "inputs": [],
      "name": "DEFAULT_ADMIN_ROLE",
      "outputs": [
        {
          "internalType": "bytes32",
          "name": "",
          "type": "bytes32"
        }
      ],
      "stateMutability": "view",
      "type": "function"
    },
    {
      "inputs": [],
      "name": "DEV_ADDRESS",
      "outputs": [
        {
          "internalType": "address",
          "name": "",
          "type": "address"
        }
      ],
      "stateMutability": "view",
      "type": "function"
    },
    {
      "inputs": [],
      "name": "DEV_DEP_FEE",
      "outputs": [
        {
          "internalType": "uint256",
          "name": "",
          "type": "uint256"
        }
      ],
      "stateMutability": "view",
      "type": "function"
    },
    {
      "inputs": [
        {
          "internalType": "uint256",
          "name": "",
          "type": "uint256"
        }
      ],
      "name": "DEV_FEE_STAGES",
      "outputs": [
        {
          "internalType": "uint256",
          "name": "",
          "type": "uint256"
        }
      ],
      "stateMutability": "view",
      "type": "function"
    },
    {
      "inputs": [],
      "name": "FINISH_BONUS_AT_TIME",
      "outputs": [
        {
          "internalType": "uint256",
          "name": "",
          "type": "uint256"
        }
      ],
      "stateMutability": "view",
      "type": "function"
    },
    {
      "inputs": [],
      "name": "FOUNDER_ADDRESS",
      "outputs": [
        {
          "internalType": "address",
          "name": "",
          "type": "address"
        }
      ],
      "stateMutability": "view",
      "type": "function"
    },
    {
      "inputs": [],
      "name": "GOV_TOKEN",
      "outputs": [
        {
          "internalType": "contract EvoToken",
          "name": "",
          "type": "address"
        }
      ],
      "stateMutability": "view",
      "type": "function"
    },
    {
      "inputs": [
        {
          "internalType": "uint256",
          "name": "",
          "type": "uint256"
        }
      ],
      "name": "HALVING_AT_TIMES",
      "outputs": [
        {
          "internalType": "uint256",
          "name": "",
          "type": "uint256"
        }
      ],
      "stateMutability": "view",
      "type": "function"
    },
    {
      "inputs": [],
      "name": "LP_ADDRESS",
      "outputs": [
        {
          "internalType": "address",
          "name": "",
          "type": "address"
        }
      ],
      "stateMutability": "view",
      "type": "function"
    },
    {
      "inputs": [],
      "name": "PERCENT_FOR_COM",
      "outputs": [
        {
          "internalType": "uint256",
          "name": "",
          "type": "uint256"
        }
      ],
      "stateMutability": "view",
      "type": "function"
    },
    {
      "inputs": [],
      "name": "PERCENT_FOR_DEV",
      "outputs": [
        {
          "internalType": "uint256",
          "name": "",
          "type": "uint256"
        }
      ],
      "stateMutability": "view",
      "type": "function"
    },
    {
      "inputs": [],
      "name": "PERCENT_FOR_FOUNDERS",
      "outputs": [
        {
          "internalType": "uint256",
          "name": "",
          "type": "uint256"
        }
      ],
      "stateMutability": "view",
      "type": "function"
    },
    {
      "inputs": [],
      "name": "PERCENT_FOR_LP",
      "outputs": [
        {
          "internalType": "uint256",
          "name": "",
          "type": "uint256"
        }
      ],
      "stateMutability": "view",
      "type": "function"
    },
    {
      "inputs": [
        {
          "internalType": "uint256",
          "name": "",
          "type": "uint256"
        }
      ],
      "name": "PERCENT_LOCK_BONUS_REWARD",
      "outputs": [
        {
          "internalType": "uint256",
          "name": "",
          "type": "uint256"
        }
      ],
      "stateMutability": "view",
      "type": "function"
    },
    {
      "inputs": [
        {
          "internalType": "uint256",
          "name": "",
          "type": "uint256"
        }
      ],
      "name": "REWARD_MULTIPLIERS",
      "outputs": [
        {
          "internalType": "uint256",
          "name": "",
          "type": "uint256"
        }
      ],
      "stateMutability": "view",
      "type": "function"
    },
    {
      "inputs": [],
      "name": "REWARD_PER_SECOND",
      "outputs": [
        {
          "internalType": "uint256",
          "name": "",
          "type": "uint256"
        }
      ],
      "stateMutability": "view",
      "type": "function"
    },
    {
      "inputs": [],
      "name": "START_TIME",
      "outputs": [
        {
          "internalType": "uint256",
          "name": "",
          "type": "uint256"
        }
      ],
      "stateMutability": "view",
      "type": "function"
    },
    {
      "inputs": [],
      "name": "TOTAL_ALLOCATION_POINTS",
      "outputs": [
        {
          "internalType": "uint256",
          "name": "",
          "type": "uint256"
        }
      ],
      "stateMutability": "view",
      "type": "function"
    },
    {
      "inputs": [],
      "name": "USD_ORACLE",
      "outputs": [
        {
          "internalType": "address",
          "name": "",
          "type": "address"
        }
      ],
      "stateMutability": "view",
      "type": "function"
    },
    {
      "inputs": [],
      "name": "USER_DEP_FEE",
      "outputs": [
        {
          "internalType": "uint256",
          "name": "",
          "type": "uint256"
        }
      ],
      "stateMutability": "view",
      "type": "function"
    },
    {
      "inputs": [
        {
          "internalType": "uint256",
          "name": "",
          "type": "uint256"
        }
      ],
      "name": "USER_FEE_STAGES",
      "outputs": [
        {
          "internalType": "uint256",
          "name": "",
          "type": "uint256"
        }
      ],
      "stateMutability": "view",
      "type": "function"
    },
    {
      "inputs": [
        {
          "internalType": "uint256",
          "name": "_allocPoint",
          "type": "uint256"
        },
        {
          "internalType": "contract IERC20Upgradeable",
          "name": "_lpToken",
          "type": "address"
        },
        {
          "internalType": "bool",
          "name": "_withUpdate",
          "type": "bool"
        }
      ],
      "name": "add",
      "outputs": [],
      "stateMutability": "nonpayable",
      "type": "function"
    },
    {
      "inputs": [
        {
          "internalType": "uint256",
          "name": "_pid",
          "type": "uint256"
        }
      ],
      "name": "claimReward",
      "outputs": [],
      "stateMutability": "nonpayable",
      "type": "function"
    },
    {
      "inputs": [
        {
          "internalType": "uint256[]",
          "name": "_pids",
          "type": "uint256[]"
        }
      ],
      "name": "claimRewards",
      "outputs": [],
      "stateMutability": "nonpayable",
      "type": "function"
    },
    {
      "inputs": [
        {
          "internalType": "uint256",
          "name": "_pid",
          "type": "uint256"
        },
        {
          "internalType": "uint256",
          "name": "_amount",
          "type": "uint256"
        }
      ],
      "name": "deposit",
      "outputs": [],
      "stateMutability": "nonpayable",
      "type": "function"
    },
    {
      "inputs": [
        {
          "internalType": "uint256",
          "name": "_pid",
          "type": "uint256"
        }
      ],
      "name": "emergencyWithdraw",
      "outputs": [],
      "stateMutability": "nonpayable",
      "type": "function"
    },
    {
      "inputs": [
        {
          "internalType": "uint256",
          "name": "_from",
          "type": "uint256"
        },
        {
          "internalType": "uint256",
          "name": "_to",
          "type": "uint256"
        }
      ],
      "name": "getLockPercentage",
      "outputs": [
        {
          "internalType": "uint256",
          "name": "",
          "type": "uint256"
        }
      ],
      "stateMutability": "view",
      "type": "function"
    },
    {
      "inputs": [
        {
          "internalType": "uint256",
          "name": "_from",
          "type": "uint256"
        },
        {
          "internalType": "uint256",
          "name": "_to",
          "type": "uint256"
        }
      ],
      "name": "getMultiplier",
      "outputs": [
        {
          "internalType": "uint256",
          "name": "",
          "type": "uint256"
        }
      ],
      "stateMutability": "view",
      "type": "function"
    },
    {
      "inputs": [
        {
          "internalType": "uint256",
          "name": "pid1",
          "type": "uint256"
        }
      ],
      "name": "getNewRewardPerSecond",
      "outputs": [
        {
          "internalType": "uint256",
          "name": "",
          "type": "uint256"
        }
      ],
      "stateMutability": "view",
      "type": "function"
    },
    {
      "inputs": [
        {
          "internalType": "uint256",
          "name": "_from",
          "type": "uint256"
        },
        {
          "internalType": "uint256",
          "name": "_to",
          "type": "uint256"
        },
        {
          "internalType": "uint256",
          "name": "_allocPoint",
          "type": "uint256"
        }
      ],
      "name": "getPoolReward",
      "outputs": [
        {
          "internalType": "uint256",
          "name": "forDev",
          "type": "uint256"
        },
        {
          "internalType": "uint256",
          "name": "forFarmer",
          "type": "uint256"
        },
        {
          "internalType": "uint256",
          "name": "forLP",
          "type": "uint256"
        },
        {
          "internalType": "uint256",
          "name": "forCom",
          "type": "uint256"
        },
        {
          "internalType": "uint256",
          "name": "forFounders",
          "type": "uint256"
        }
      ],
      "stateMutability": "view",
      "type": "function"
    },
    {
      "inputs": [
        {
          "internalType": "bytes32",
          "name": "role",
          "type": "bytes32"
        }
      ],
      "name": "getRoleAdmin",
      "outputs": [
        {
          "internalType": "bytes32",
          "name": "",
          "type": "bytes32"
        }
      ],
      "stateMutability": "view",
      "type": "function"
    },
    {
      "inputs": [
        {
          "internalType": "bytes32",
          "name": "role",
          "type": "bytes32"
        },
        {
          "internalType": "address",
          "name": "account",
          "type": "address"
        }
      ],
      "name": "grantRole",
      "outputs": [],
      "stateMutability": "nonpayable",
      "type": "function"
    },
    {
      "inputs": [
        {
          "internalType": "bytes32",
          "name": "role",
          "type": "bytes32"
        },
        {
          "internalType": "address",
          "name": "account",
          "type": "address"
        }
      ],
      "name": "hasRole",
      "outputs": [
        {
          "internalType": "bool",
          "name": "",
          "type": "bool"
        }
      ],
      "stateMutability": "view",
      "type": "function"
    },
    {
      "inputs": [
        {
          "components": [
            {
              "internalType": "contract EvoToken",
              "name": "govToken",
              "type": "address"
            },
            {
              "internalType": "uint256",
              "name": "rewardPerSecond",
              "type": "uint256"
            },
            {
              "internalType": "uint256",
              "name": "startTime",
              "type": "uint256"
            },
            {
              "internalType": "uint256",
              "name": "halvingAfterTime",
              "type": "uint256"
            },
            {
              "internalType": "uint256",
              "name": "userDepositFee",
              "type": "uint256"
            },
            {
              "internalType": "uint256",
              "name": "devDepositFee",
              "type": "uint256"
            },
            {
              "internalType": "address",
              "name": "devAddress",
              "type": "address"
            },
            {
              "internalType": "address",
              "name": "lpAddress",
              "type": "address"
            },
            {
              "internalType": "address",
              "name": "communityFundAddress",
              "type": "address"
            },
            {
              "internalType": "address",
              "name": "founderAddress",
              "type": "address"
            },
            {
              "internalType": "uint256[]",
              "name": "rewardMultipliers",
              "type": "uint256[]"
            },
            {
              "internalType": "uint256[]",
              "name": "userFeeStages",
              "type": "uint256[]"
            },
            {
              "internalType": "uint256[]",
              "name": "devFeeStages",
              "type": "uint256[]"
            },
            {
              "internalType": "uint256[]",
              "name": "percentLockBonusReward",
              "type": "uint256[]"
            }
          ],
          "internalType": "struct MasterInvestor.ConstructorParams",
          "name": "params",
          "type": "tuple"
        }
      ],
      "name": "initialize",
      "outputs": [],
      "stateMutability": "nonpayable",
      "type": "function"
    },
    {
      "inputs": [],
      "name": "massUpdatePools",
      "outputs": [],
      "stateMutability": "nonpayable",
      "type": "function"
    },
    {
      "inputs": [
        {
          "internalType": "uint256",
          "name": "_pid",
          "type": "uint256"
        },
        {
          "internalType": "address",
          "name": "_user",
          "type": "address"
        }
      ],
      "name": "pendingReward",
      "outputs": [
        {
          "internalType": "uint256",
          "name": "",
          "type": "uint256"
        }
      ],
      "stateMutability": "view",
      "type": "function"
    },
    {
      "inputs": [
        {
          "internalType": "contract IERC20Upgradeable",
          "name": "",
          "type": "address"
        }
      ],
      "name": "poolExistence",
      "outputs": [
        {
          "internalType": "bool",
          "name": "",
          "type": "bool"
        }
      ],
      "stateMutability": "view",
      "type": "function"
    },
    {
      "inputs": [
        {
          "internalType": "address",
          "name": "",
          "type": "address"
        }
      ],
      "name": "poolId",
      "outputs": [
        {
          "internalType": "uint256",
          "name": "",
          "type": "uint256"
        }
      ],
      "stateMutability": "view",
      "type": "function"
    },
    {
      "inputs": [
        {
          "internalType": "uint256",
          "name": "",
          "type": "uint256"
        }
      ],
      "name": "poolInfo",
      "outputs": [
        {
          "internalType": "contract IERC20Upgradeable",
          "name": "lpToken",
          "type": "address"
        },
        {
          "internalType": "uint256",
          "name": "allocPoint",
          "type": "uint256"
        },
        {
          "internalType": "uint256",
          "name": "lastRewardTime",
          "type": "uint256"
        },
        {
          "internalType": "uint256",
          "name": "accGovTokenPerShare",
          "type": "uint256"
        }
      ],
      "stateMutability": "view",
      "type": "function"
    },
    {
      "inputs": [],
      "name": "poolLength",
      "outputs": [
        {
          "internalType": "uint256",
          "name": "",
          "type": "uint256"
        }
      ],
      "stateMutability": "view",
      "type": "function"
    },
    {
      "inputs": [
        {
          "internalType": "address",
          "name": "_newOwner",
          "type": "address"
        }
      ],
      "name": "reclaimTokenOwnership",
      "outputs": [],
      "stateMutability": "nonpayable",
      "type": "function"
    },
    {
      "inputs": [
        {
          "internalType": "bytes32",
          "name": "role",
          "type": "bytes32"
        },
        {
          "internalType": "address",
          "name": "account",
          "type": "address"
        }
      ],
      "name": "renounceRole",
      "outputs": [],
      "stateMutability": "nonpayable",
      "type": "function"
    },
    {
      "inputs": [
        {
          "internalType": "uint256",
          "name": "_pid",
          "type": "uint256"
        },
        {
          "internalType": "address",
          "name": "_user",
          "type": "address"
        },
        {
          "internalType": "uint256",
          "name": "_time",
          "type": "uint256"
        }
      ],
      "name": "reviseDeposit",
      "outputs": [],
      "stateMutability": "nonpayable",
      "type": "function"
    },
    {
      "inputs": [
        {
          "internalType": "uint256",
          "name": "_pid",
          "type": "uint256"
        },
        {
          "internalType": "address",
          "name": "_user",
          "type": "address"
        },
        {
          "internalType": "uint256",
          "name": "_time",
          "type": "uint256"
        }
      ],
      "name": "reviseWithdraw",
      "outputs": [],
      "stateMutability": "nonpayable",
      "type": "function"
    },
    {
      "inputs": [
        {
          "internalType": "bytes32",
          "name": "role",
          "type": "bytes32"
        },
        {
          "internalType": "address",
          "name": "account",
          "type": "address"
        }
      ],
      "name": "revokeRole",
      "outputs": [],
      "stateMutability": "nonpayable",
      "type": "function"
    },
    {
      "inputs": [
        {
          "internalType": "uint256",
          "name": "_pid",
          "type": "uint256"
        },
        {
          "internalType": "uint256",
          "name": "_allocPoint",
          "type": "uint256"
        },
        {
          "internalType": "bool",
          "name": "_withUpdate",
          "type": "bool"
        }
      ],
      "name": "set",
      "outputs": [],
      "stateMutability": "nonpayable",
      "type": "function"
    },
    {
      "inputs": [
        {
          "internalType": "bytes4",
          "name": "interfaceId",
          "type": "bytes4"
        }
      ],
      "name": "supportsInterface",
      "outputs": [
        {
          "internalType": "bool",
          "name": "",
          "type": "bool"
        }
      ],
      "stateMutability": "view",
      "type": "function"
    },
    {
      "inputs": [],
      "name": "totalAllocPoint",
      "outputs": [
        {
          "internalType": "uint256",
          "name": "",
          "type": "uint256"
        }
      ],
      "stateMutability": "view",
      "type": "function"
    },
    {
      "inputs": [
        {
          "internalType": "uint256",
          "name": "kind",
          "type": "uint256"
        },
        {
          "internalType": "address",
          "name": "_address",
          "type": "address"
        }
      ],
      "name": "updateAddress",
      "outputs": [],
      "stateMutability": "nonpayable",
      "type": "function"
    },
    {
      "inputs": [
        {
          "internalType": "uint256",
          "name": "kind",
          "type": "uint256"
        },
        {
          "internalType": "uint256",
          "name": "fee",
          "type": "uint256"
        }
      ],
      "name": "updateDepositFee",
      "outputs": [],
      "stateMutability": "nonpayable",
      "type": "function"
    },
    {
      "inputs": [
        {
          "internalType": "uint256",
          "name": "kind",
          "type": "uint256"
        },
        {
          "internalType": "uint256[]",
          "name": "feeStages",
          "type": "uint256[]"
        }
      ],
      "name": "updateFeeStages",
      "outputs": [],
      "stateMutability": "nonpayable",
      "type": "function"
    },
    {
      "inputs": [
        {
          "internalType": "uint256[]",
          "name": "times",
          "type": "uint256[]"
        }
      ],
      "name": "updateHalvingAtTimes",
      "outputs": [],
      "stateMutability": "nonpayable",
      "type": "function"
    },
    {
      "inputs": [
        {
          "internalType": "uint256",
          "name": "time",
          "type": "uint256"
        }
      ],
      "name": "updateLastRewardTime",
      "outputs": [],
      "stateMutability": "nonpayable",
      "type": "function"
    },
    {
      "inputs": [
        {
          "internalType": "uint256",
          "name": "kind",
          "type": "uint256"
        },
        {
          "internalType": "uint256",
          "name": "percent",
          "type": "uint256"
        }
      ],
      "name": "updateLockPercent",
      "outputs": [],
      "stateMutability": "nonpayable",
      "type": "function"
    },
    {
      "inputs": [
        {
          "internalType": "uint256",
          "name": "_pid",
          "type": "uint256"
        }
      ],
      "name": "updatePool",
      "outputs": [],
      "stateMutability": "nonpayable",
      "type": "function"
    },
    {
      "inputs": [
        {
          "internalType": "uint256[]",
          "name": "multipliers",
          "type": "uint256[]"
        }
      ],
      "name": "updateRewardMultipliers",
      "outputs": [],
      "stateMutability": "nonpayable",
      "type": "function"
    },
    {
      "inputs": [
        {
          "internalType": "uint256",
          "name": "reward",
          "type": "uint256"
        }
      ],
      "name": "updateRewardPerSecond",
      "outputs": [],
      "stateMutability": "nonpayable",
      "type": "function"
    },
    {
      "inputs": [
        {
          "internalType": "uint256",
          "name": "time",
          "type": "uint256"
        }
      ],
      "name": "updateStartTime",
      "outputs": [],
      "stateMutability": "nonpayable",
      "type": "function"
    },
    {
      "inputs": [
        {
          "internalType": "uint256[]",
          "name": "lockPercents",
          "type": "uint256[]"
        }
      ],
      "name": "updateUserLockPercents",
      "outputs": [],
      "stateMutability": "nonpayable",
      "type": "function"
    },
    {
      "inputs": [
        {
          "internalType": "uint256",
          "name": "_pid",
          "type": "uint256"
        }
      ],
      "name": "userDelta",
      "outputs": [
        {
          "internalType": "uint256",
          "name": "",
          "type": "uint256"
        }
      ],
      "stateMutability": "view",
      "type": "function"
    },
    {
      "inputs": [
        {
          "internalType": "uint256",
          "name": "_pid",
          "type": "uint256"
        },
        {
          "internalType": "address",
          "name": "_address",
          "type": "address"
        }
      ],
      "name": "userDeltaOf",
      "outputs": [
        {
          "internalType": "uint256",
          "name": "",
          "type": "uint256"
        }
      ],
      "stateMutability": "view",
      "type": "function"
    },
    {
      "inputs": [
        {
          "internalType": "address",
          "name": "",
          "type": "address"
        }
      ],
      "name": "userGlobalInfo",
      "outputs": [
        {
          "internalType": "uint256",
          "name": "",
          "type": "uint256"
        }
      ],
      "stateMutability": "view",
      "type": "function"
    },
    {
      "inputs": [
        {
          "internalType": "uint256",
          "name": "",
          "type": "uint256"
        },
        {
          "internalType": "address",
          "name": "",
          "type": "address"
        }
      ],
      "name": "userInfo",
      "outputs": [
        {
          "internalType": "uint256",
          "name": "amount",
          "type": "uint256"
        },
        {
          "internalType": "uint256",
          "name": "rewardDebt",
          "type": "uint256"
        },
        {
          "internalType": "uint256",
          "name": "rewardDebtAtTime",
          "type": "uint256"
        },
        {
          "internalType": "uint256",
          "name": "lastWithdrawTime",
          "type": "uint256"
        },
        {
          "internalType": "uint256",
          "name": "firstDepositTime",
          "type": "uint256"
        },
        {
          "internalType": "uint256",
          "name": "timeDelta",
          "type": "uint256"
        },
        {
          "internalType": "uint256",
          "name": "lastDepositTime",
          "type": "uint256"
        }
      ],
      "stateMutability": "view",
      "type": "function"
    },
    {
      "inputs": [
        {
          "internalType": "uint256",
          "name": "_pid",
          "type": "uint256"
        },
        {
          "internalType": "uint256",
          "name": "_amount",
          "type": "uint256"
        }
      ],
      "name": "withdraw",
      "outputs": [],
      "stateMutability": "nonpayable",
      "type": "function"
    },
    {
      "inputs": [
        {
          "internalType": "uint256",
          "name": "_pid",
          "type": "uint256"
        },
        {
          "internalType": "uint256",
          "name": "_amount",
          "type": "uint256"
        },
        {
          "internalType": "address",
          "name": "_address",
          "type": "address"
        }
      ],
      "name": "withdrawForClaim",
      "outputs": [],
      "stateMutability": "nonpayable",
      "type": "function"
    }
  ],
  "bytecode": "0x60806040523480156200001157600080fd5b50600062000020600162000087565b9050801562000039576000805461ff0019166101001790555b801562000080576000805461ff0019169055604051600181527f7f26b83ff96e1f2b6a682f133852f6798a09c465da95921460cefb38474024989060200160405180910390a15b50620001a8565b60008054610100900460ff161562000120578160ff166001148015620000c05750620000be306200019960201b62002d411760201c565b155b620001185760405162461bcd60e51b815260206004820152602e6024820152600080516020620040e583398151915260448201526d191e481a5b9a5d1a585b1a5e995960921b60648201526084015b60405180910390fd5b506000919050565b60005460ff8084169116106200017f5760405162461bcd60e51b815260206004820152602e6024820152600080516020620040e583398151915260448201526d191e481a5b9a5d1a585b1a5e995960921b60648201526084016200010f565b506000805460ff191660ff92909216919091179055600190565b6001600160a01b03163b151590565b613f2d80620001b86000396000f3fe608060405234801561001057600080fd5b50600436106103fc5760003560e01c806375b238fc11610215578063c7b6e52511610125578063e2bbb158116100b8578063f491adf711610087578063f491adf71461095b578063f64682511461096e578063f92d34a914610983578063f930e77014610996578063ff51a272146109a957600080fd5b8063e2bbb15814610919578063ed9bdeda1461092c578063eda6704814610935578063f1528cee1461094857600080fd5b8063d56cf10f116100f4578063d56cf10f146108d4578063d79c3953146108e7578063d9608d8a146108f0578063ddaa26ad1461091057600080fd5b8063c7b6e52514610850578063c8ed768014610863578063cbd258b51461089e578063d547741f146108c157600080fd5b80639b963d2a116101a8578063ae169a5011610177578063ae169a50146107fb578063b78777161461080e578063bd27e3f814610821578063c35cadbe14610834578063c6929e531461084757600080fd5b80639b963d2a146107c4578063a02306f9146107d7578063a217fddf146107e0578063a82859c5146107e857600080fd5b80638dbb1e3a116101e45780638dbb1e3a146106f957806391d148541461070c57806393f1a40b1461071f57806398969e82146107b157600080fd5b806375b238fc146106b55780637c0c5788146106ca57806382386d58146106d3578063874feed3146106e657600080fd5b806336568abe116103105780635312ea8e116102a35780636066debd116102725780636066debd14610661578063630b5ba11461067457806364482f791461067c5780636461fc8c1461068f57806365cf3771146106a257600080fd5b80635312ea8e1461061f5780635639e8cf1461063257806356407a61146106455780635eac62391461064e57600080fd5b8063441a3e70116102df578063441a3e70146105dd5780634abbbd28146105f05780634b0cf206146105f957806351eb05a61461060c57600080fd5b806336568abe1461059b5780634004c8e7146105ae57806343628fb4146105c157806343e372c6146105ca57600080fd5b80631526fe2711610393578063248a9ca311610362578063248a9ca31461052c5780632ab29df71461054f5780632f2ff15d1461056257806332399e921461057557806335582e681461058857600080fd5b80631526fe27146104c157806317caf6f1146104fe5780631b80c010146105065780631eaaa0451461051957600080fd5b8063081e3eda116103cf578063081e3eda1461048a57806309ae4d2c146104925780630a67d518146104a55780630d329fea146104ae57600080fd5b806301ffc9a714610401578063027e69991461042957806304aa0f611461044a57806306bcf02f14610475575b600080fd5b61041461040f3660046136fd565b6109c9565b60405190151581526020015b60405180910390f35b61043c610437366004613727565b610a00565b604051908152602001610420565b60ce5461045d906001600160a01b031681565b6040516001600160a01b039091168152602001610420565b610488610483366004613727565b610a21565b005b60de5461043c565b61043c6104a0366004613727565b610a3f565b61043c60db5481565b6104886104bc366004613810565b610a87565b6104d46104cf366004613727565b610b2f565b604080516001600160a01b0390951685526020850193909352918301526060820152608001610420565b60d85461043c565b610488610514366004613877565b610b73565b6104886105273660046139f2565b610e3c565b61043c61053a366004613727565b60009081526065602052604090206001015490565b61048861055d366004613a34565b6110ad565b610488610570366004613a34565b611169565b60cd5461045d906001600160a01b031681565b610488610596366004613a64565b61118e565b6104886105a9366004613a34565b6111e6565b6104886105bc366004613727565b611260565b61043c60d85481565b6104886105d8366004613a86565b61127e565b6104886105eb366004613a64565b6113e1565b61043c60d45481565b61043c610607366004613727565b611964565b61048861061a366004613727565b611974565b61048861062d366004613727565b612008565b60cb5461045d906001600160a01b031681565b61043c60d65481565b61048861065c366004613ab4565b61217e565b61048861066f366004613ae9565b6121be565b610488612200565b61048861068a366004613b21565b612227565b61048861069d366004613727565b6122bf565b6104886106b0366004613ab4565b6122dd565b61043c600080516020613ed883398151915281565b61043c60d55481565b6104886106e1366004613ae9565b612308565b61043c6106f4366004613727565b61234a565b61043c610707366004613a64565b61235a565b61041461071a366004613a34565b612489565b61077c61072d366004613a34565b60e0602052816000526040600020602052806000526040600020600091509150508060000154908060010154908060020154908060030154908060040154908060050154908060060154905087565b604080519788526020880196909652948601939093526060850191909152608084015260a083015260c082015260e001610420565b61043c6107bf366004613a34565b6124b4565b61043c6107d2366004613727565b612612565b61043c60dc5481565b61043c600081565b61043c6107f6366004613727565b612675565b610488610809366004613727565b612685565b61048861081c366004613ab4565b61269a565b61048861082f366004613ab4565b6126c5565b610488610842366004613a64565b6126f0565b61043c60dd5481565b61043c61085e366004613a34565b612728565b610876610871366004613b4f565b612782565b604080519586526020860194909452928401919091526060830152608082015260a001610420565b6104146108ac366004613b7b565b60e26020526000908152604090205460ff1681565b6104886108cf366004613a34565b61297d565b60cc5461045d906001600160a01b031681565b61043c60cf5481565b61043c6108fe366004613b7b565b60e16020526000908152604090205481565b61043c60d75481565b610488610927366004613a64565b6129a2565b61043c60da5481565b610488610943366004613b7b565b612c07565b60ca5461045d906001600160a01b031681565b61043c610969366004613727565b612c82565b61043c600080516020613eb883398151915281565b60c95461045d906001600160a01b031681565b61043c6109a4366004613a64565b612c92565b61043c6109b7366004613b7b565b60df6020526000908152604090205481565b60006001600160e01b03198216637965db0b60e01b14806109fa57506301ffc9a760e01b6001600160e01b03198316145b92915050565b60d18181548110610a1057600080fd5b600091825260209091200154905081565b600080516020613eb8833981519152610a3981612d50565b5060d755565b600081815260e0602090815260408083203384529091528120600381015415610a78576003810154610a719042613bae565b9392505050565b6004810154610a719042613bae565b600080516020613eb8833981519152610a9f81612d50565b8260011415610ac1578151610abb9060d290602085019061369d565b50505050565b8260021415610add578151610abb9060d390602085019061369d565b60405162461bcd60e51b815260206004820152601760248201527f496e76616c6964206b696e64206964656e74696669657200000000000000000060448201526064015b60405180910390fd5b505050565b60de8181548110610b3f57600080fd5b600091825260209091206004909102018054600182015460028301546003909301546001600160a01b039092169350919084565b6000610b7f6001612d5a565b90508015610b97576000805461ff0019166101001790555b610b9f612de7565b610ba7612e10565b610bb2600033612e3f565b610bca600080516020613ed883398151915233612e3f565b610be2600080516020613eb883398151915233612e3f565b6101608201518051610bfc9160d29160209091019061369d565b506101808201518051610c179160d39160209091019061369d565b50815160c980546001600160a01b0319166001600160a01b0390921691909117905560208083015160cf55604083015160d755608083015160d55560a083015160d6556101408301518051610c709260d092019061369d565b5060c082015160cb80546001600160a01b039283166001600160a01b03199182161790915560e084015160cc805491841691831691909117905561010084015160cd805491841691831691909117905561012084015160ce80549190931691161790556101a08201518051610ced9160d99160209091019061369d565b50600060d88190555b60d054610d0590600190613bae565b811015610d89576040830151600090610d1f836001613bc5565b8560600151610d2e9190613bdd565b610d389190613bc5565b610d43906001613bc5565b60d180546001810182556000919091527f695fb3134ad82c3b8022bc5464edd0bcc9424ef672b52245dcb6ab2374327ce301555080610d8181613bfc565b915050610cf6565b50604082015160d054610d9e90600190613bae565b8360600151610dad9190613bdd565b610db79190613bc5565b60d45560d180546001810182556000919091526000197f695fb3134ad82c3b8022bc5464edd0bcc9424ef672b52245dcb6ab2374327ce3909101558015610e38576000805461ff0019169055604051600181527f7f26b83ff96e1f2b6a682f133852f6798a09c465da95921460cefb38474024989060200160405180910390a15b5050565b600080516020613ed8833981519152610e5481612d50565b6001600160a01b038316600090815260e26020526040902054839060ff1615610ed15760405162461bcd60e51b815260206004820152602960248201527f4d6173746572496e766573746f723a3a6e6f6e4475706c6963617465643a20646044820152681d5c1b1a58d85d195960ba1b6064820152608401610b21565b6001600160a01b038416600090815260df602052604090205415610f4a5760405162461bcd60e51b815260206004820152602a60248201527f4d6173746572496e766573746f723a3a6164643a206c7020697320616c726561604482015269191e481a5b881c1bdbdb60b21b6064820152608401610b21565b8215610f5857610f58612200565b600060d7544211610f6b5760d754610f6d565b425b90508560d86000828254610f819190613bc5565b909155505060de54610f94906001613bc5565b6001600160a01b03958616600081815260df602090815260408083209490945560e281528382208054600160ff1990911681179091558451608081018652938452908301998a529282019384526060820181815260de8054948501815590915290517ffae8130c0619f84b4b44f01b84806f04e82e536d70e05f2356977fa318aecc1a600490930292830180546001600160a01b031916919098161790965595517ffae8130c0619f84b4b44f01b84806f04e82e536d70e05f2356977fa318aecc1b870155517ffae8130c0619f84b4b44f01b84806f04e82e536d70e05f2356977fa318aecc1c860155505090517ffae8130c0619f84b4b44f01b84806f04e82e536d70e05f2356977fa318aecc1d9092019190915550565b600080516020613eb88339815191526110c581612d50565b82600114156110ee5760cb80546001600160a01b0319166001600160a01b038416179055505050565b82600214156111175760cc80546001600160a01b0319166001600160a01b038416179055505050565b82600314156111405760cd80546001600160a01b0319166001600160a01b038416179055505050565b8260041415610add5760ce80546001600160a01b0319166001600160a01b038416179055505050565b60008281526065602052604090206001015461118481612d50565b610b2a8383612e3f565b600080516020613eb88339815191526111a681612d50565b82600114156111b6575060da5550565b82600214156111c6575060db5550565b82600314156111d6575060dc5550565b8260041415610add575060dd5550565b6001600160a01b03811633146112565760405162461bcd60e51b815260206004820152602f60248201527f416363657373436f6e74726f6c3a2063616e206f6e6c792072656e6f756e636560448201526e103937b632b9903337b91039b2b63360891b6064820152608401610b21565b610e388282612ec5565b600080516020613eb883398151915261127881612d50565b5060cf55565b600260975414156112a15760405162461bcd60e51b8152600401610b2190613c17565b6002609755600080516020613eb88339815191526112be81612d50565b600060de85815481106112d3576112d3613c4e565b6000918252602080832088845260e0825260408085206001600160a01b038916865290925292208054600490920290920192508511156113255760405162461bcd60e51b8152600401610b2190613c64565b61132e86611974565b6113388685612f2c565b84156113d457848160000160008282546113529190613bae565b9091555050815461136d906001600160a01b03168587613201565b6003820154815464e8d4a510009161138491613bdd565b61138e9190613ca6565b600182015560405185815286906001600160a01b038616907ff279e6a1f5e320cca91135676d9cb6e44ca8a08c0b88342bcdb1144f6511b5689060200160405180910390a35b5050600160975550505050565b600260975414156114045760405162461bcd60e51b8152600401610b2190613c17565b6002609781905550600060de838154811061142157611421613c4e565b6000918252602080832086845260e0909152604083206004909202019250816114473390565b6001600160a01b03166001600160a01b031681526020019081526020016000209050828160000154101561148d5760405162461bcd60e51b8152600401610b2190613c64565b61149684611974565b61149f84613257565b821561195957828160000160008282546114b99190613bae565b90915550506003810154156114e15760038101546114d79042613bae565b60058201556114f6565b60048101546114f09042613bae565b60058201555b600080826006015442141561157a57606460d260008154811061151b5761151b613c4e565b9060005260206000200154866115319190613bdd565b61153b9190613ca6565b9150606460d360008154811061155357611553613c4e565b9060005260206000200154866115699190613bdd565b6115739190613ca6565b90506118c0565b60018360050154101580156115945750610e108360050154105b156115e757606460d26001815481106115af576115af613c4e565b9060005260206000200154866115c59190613bdd565b6115cf9190613ca6565b9150606460d360018154811061155357611553613c4e565b610e108360050154101580156116035750620151808360050154105b1561165657606460d260028154811061161e5761161e613c4e565b9060005260206000200154866116349190613bdd565b61163e9190613ca6565b9150606460d360028154811061155357611553613c4e565b6201518083600501541015801561167357506203f4808360050154105b156116c657606460d260038154811061168e5761168e613c4e565b9060005260206000200154866116a49190613bdd565b6116ae9190613ca6565b9150606460d360038154811061155357611553613c4e565b6203f4808360050154101580156116e35750620697808360050154105b1561173657606460d26004815481106116fe576116fe613c4e565b9060005260206000200154866117149190613bdd565b61171e9190613ca6565b9150606460d360048154811061155357611553613c4e565b620697808360050154101580156117535750621275008360050154105b156117a8576103e860d260058154811061176f5761176f613c4e565b9060005260206000200154866117859190613bdd565b61178f9190613ca6565b91506103e860d360058154811061155357611553613c4e565b621275008360050154101580156117c557506224ea008360050154105b1561181a5761271060d26006815481106117e1576117e1613c4e565b9060005260206000200154866117f79190613bdd565b6118019190613ca6565b915061271060d360068154811061155357611553613c4e565b6224ea008360050154106118785761271060d260078154811061183f5761183f613c4e565b9060005260206000200154866118559190613bdd565b61185f9190613ca6565b915061271060d360078154811061155357611553613c4e565b60405162461bcd60e51b815260206004820152601860248201527f536f6d657468696e6720697320766572792062726f6b656e00000000000000006044820152606401610b21565b6118d7335b85546001600160a01b03169084613201565b60cb5484546118f3916001600160a01b03918216911683613201565b6003840154835464e8d4a510009161190a91613bdd565b6119149190613ca6565b6001840155604051858152869033907ff279e6a1f5e320cca91135676d9cb6e44ca8a08c0b88342bcdb1144f6511b5689060200160405180910390a350504260038201555b505060016097555050565b60d28181548110610a1057600080fd5b600060de828154811061198957611989613c4e565b90600052602060002090600402019050806002015442116119a8575050565b80546040516370a0823160e01b81523060048201526000916001600160a01b0316906370a082319060240160206040518083038186803b1580156119eb57600080fd5b505afa1580156119ff573d6000803e3d6000fd5b505050506040513d601f19601f82011682018060405250810190611a239190613cc8565b9050801580611a3457506001820154155b15611a4457504260029091015550565b6000806000806000611a5f8760020154428960010154612782565b60c9546040516340c10f1960e01b8152959a50939850919650945092506001600160a01b0316906340c10f1990611a9c9030908890600401613ce1565b600060405180830381600087803b158015611ab657600080fd5b505af1158015611aca573d6000803e3d6000fd5b50505050858464e8d4a51000611ae09190613bdd565b611aea9190613ca6565b876003016000828254611afd9190613bc5565b909155505042600288015573465d89df3e9b1afb6957b58be6137feebb8e9f618515611c5557600060d454421115611b36576000611b4d565b6064611b4388604b613bdd565b611b4d9190613ca6565b9050600060d454421115611b615787611b78565b6064611b6e896019613bdd565b611b789190613ca6565b60c95460cb546040516340c10f1960e01b81529293506001600160a01b03918216926340c10f1992611bb09216908590600401613ce1565b600060405180830381600087803b158015611bca57600080fd5b505af1158015611bde573d6000803e3d6000fd5b505050506000821115611c525760cb546040516328a1f12360e11b81526001600160a01b0385811692635143e24692611c1f92909116908690600401613ce1565b600060405180830381600087803b158015611c3957600080fd5b505af1158015611c4d573d6000803e3d6000fd5b505050505b50505b8315611d8d57600060d454421115611c6e576000611c85565b6064611c7b86602d613bdd565b611c859190613ca6565b9050600060d454421115611c995785611cb0565b6064611ca6876037613bdd565b611cb09190613ca6565b60c95460cc546040516340c10f1960e01b81529293506001600160a01b03918216926340c10f1992611ce89216908590600401613ce1565b600060405180830381600087803b158015611d0257600080fd5b505af1158015611d16573d6000803e3d6000fd5b505050506000821115611d8a5760cc546040516328a1f12360e11b81526001600160a01b0385811692635143e24692611d5792909116908690600401613ce1565b600060405180830381600087803b158015611d7157600080fd5b505af1158015611d85573d6000803e3d6000fd5b505050505b50505b8215611ec557600060d454421115611da6576000611dbd565b6064611db3856055613bdd565b611dbd9190613ca6565b9050600060d454421115611dd15784611de8565b6064611dde86600f613bdd565b611de89190613ca6565b60c95460cd546040516340c10f1960e01b81529293506001600160a01b03918216926340c10f1992611e209216908590600401613ce1565b600060405180830381600087803b158015611e3a57600080fd5b505af1158015611e4e573d6000803e3d6000fd5b505050506000821115611ec25760cd546040516328a1f12360e11b81526001600160a01b0385811692635143e24692611e8f92909116908690600401613ce1565b600060405180830381600087803b158015611ea957600080fd5b505af1158015611ebd573d6000803e3d6000fd5b505050505b50505b8115611ffd57600060d454421115611ede576000611ef5565b6064611eeb84605f613bdd565b611ef59190613ca6565b9050600060d454421115611f095783611f20565b6064611f16856005613bdd565b611f209190613ca6565b60c95460ce546040516340c10f1960e01b81529293506001600160a01b03918216926340c10f1992611f589216908590600401613ce1565b600060405180830381600087803b158015611f7257600080fd5b505af1158015611f86573d6000803e3d6000fd5b505050506000821115611ffa5760ce546040516328a1f12360e11b81526001600160a01b0385811692635143e24692611fc792909116908690600401613ce1565b600060405180830381600087803b158015611fe157600080fd5b505af1158015611ff5573d6000803e3d6000fd5b505050505b50505b505050505050505050565b6002609754141561202b5760405162461bcd60e51b8152600401610b2190613c17565b6002609781905550600060de828154811061204857612048613c4e565b6000918252602080832085845260e09091526040832060049092020192508161206e3390565b6001600160a01b03166001600160a01b0316815260200190815260200160002090506000606460d26000815481106120a8576120a8613c4e565b906000526020600020015483600001546120c29190613bdd565b6120cc9190613ca6565b90506000606460d36000815481106120e6576120e6613c4e565b906000526020600020015484600001546121009190613bdd565b61210a9190613ca6565b60008085556001850155905061211f336118c5565b60cb54845461213b916001600160a01b03918216911683613201565b604051828152859033907fbb757047c2b5f3974fe26b7c10f732e7bce710b0952a71082702781e62ae05959060200160405180910390a350506001609755505050565b60005b8151811015610e38576121ac82828151811061219f5761219f613c4e565b6020026020010151612685565b806121b681613bfc565b915050612181565b600080516020613eb88339815191526121d681612d50565b50600092835260e0602090815260408085206001600160a01b039094168552929052912060030155565b60de5460005b81811015610e385761221781611974565b61222081613bfc565b9050612206565b600080516020613ed883398151915261223f81612d50565b811561224d5761224d612200565b8260de858154811061226157612261613c4e565b90600052602060002090600402016001015460d8546122809190613bae565b61228a9190613bc5565b60d8819055508260de85815481106122a4576122a4613c4e565b90600052602060002090600402016001018190555050505050565b600080516020613eb88339815191526122d781612d50565b5060d455565b600080516020613eb88339815191526122f581612d50565b8151610b2a9060d990602085019061369d565b600080516020613eb883398151915261232081612d50565b50600092835260e0602090815260408085206001600160a01b039094168552929052912060040155565b60d08181548110610a1057600080fd5b60d75460009081908410156123735760009150506109fa565b60005b60d15481101561248157600060d1828154811061239557612395613c4e565b90600052602060002001549050600160d0805490506123b49190613bae565b8211156123c757600093505050506109fa565b80851161241b57600060d083815481106123e3576123e3613c4e565b906000526020600020015487876123fa9190613bae565b6124049190613bdd565b90506124108185613bc5565b9450505050506109fa565b8086101561246e57600060d0838154811061243857612438613c4e565b9060005260206000200154878361244f9190613bae565b6124599190613bdd565b9050819650808461246a9190613bc5565b9350505b508061247981613bfc565b915050612376565b509392505050565b60009182526065602090815260408084206001600160a01b0393909316845291905290205460ff1690565b60008060de84815481106124ca576124ca613c4e565b6000918252602080832087845260e0825260408085206001600160a01b038981168752935280852060049485029092016003810154815492516370a0823160e01b8152309681019690965290965091949193919216906370a082319060240160206040518083038186803b15801561254157600080fd5b505afa158015612555573d6000803e3d6000fd5b505050506040513d601f19601f820116820180604052508101906125799190613cc8565b905083600201544211801561258e5750600081115b156125da5760006125a88560020154428760010154612782565b509193508492506125c2915083905064e8d4a51000613bdd565b6125cc9190613ca6565b6125d69084613bc5565b9250505b6001830154835464e8d4a51000906125f3908590613bdd565b6125fd9190613ca6565b6126079190613bae565b979650505050505050565b600080612629612623600142613bae565b4261235a565b905060d85460de848154811061264157612641613c4e565b90600052602060002090600402016001015460cf54836126619190613bdd565b61266b9190613bdd565b610a719190613ca6565b60d98181548110610a1057600080fd5b61268e81611974565b61269781613257565b50565b600080516020613eb88339815191526126b281612d50565b8151610b2a9060d190602085019061369d565b600080516020613eb88339815191526126dd81612d50565b8151610b2a9060d090602085019061369d565b600080516020613eb883398151915261270881612d50565b8260011415612718575060d55550565b8260021415610add575060d65550565b600082815260e0602090815260408083206001600160a01b0385168452909152812060038101541561276b5760038101546127639042613bae565b9150506109fa565b600481015461277a9042613bae565b949350505050565b600080600080600080612795898961235a565b9050600060d8548860cf54846127ab9190613bdd565b6127b59190613bdd565b6127bf9190613ca6565b9050600060c960009054906101000a90046001600160a01b03166001600160a01b03166318160ddd6040518163ffffffff1660e01b815260040160206040518083038186803b15801561281157600080fd5b505afa158015612825573d6000803e3d6000fd5b505050506040513d601f19601f820116820180604052508101906128499190613cc8565b60c960009054906101000a90046001600160a01b03166001600160a01b031663355274ea6040518163ffffffff1660e01b815260040160206040518083038186803b15801561289757600080fd5b505afa1580156128ab573d6000803e3d6000fd5b505050506040513d601f19601f820116820180604052508101906128cf9190613cc8565b6128d99190613bae565b9050818110156128fb576000975080965060009550600094506000935061296f565b606460da548361290b9190613bdd565b6129159190613ca6565b9750819650606460db548361292a9190613bdd565b6129349190613ca6565b9550606460dc54836129469190613bdd565b6129509190613ca6565b9450606460dd54836129629190613bdd565b61296c9190613ca6565b93505b505050939792965093509350565b60008281526065602052604090206001015461299881612d50565b610b2a8383612ec5565b600260975414156129c55760405162461bcd60e51b8152600401610b2190613c17565b600260975580612a365760405162461bcd60e51b815260206004820152603660248201527f4d6173746572496e766573746f723a3a6465706f7369743a20616d6f756e742060448201527506d7573742062652067726561746572207468616e20360541b6064820152608401610b21565b600060de8381548110612a4b57612a4b613c4e565b6000918252602080832086845260e090915260408320600490920201925081612a713390565b6001600160a01b0390811682526020808301939093526040918201600090812088825260e0855283822060cb549093168252919093529120909150612ab585611974565b612abe85613257565b612ad53384546001600160a01b0316903087613261565b8154612ae2574260028301555b61271060d55485612af39190613bdd565b612afd9190613ca6565b612b079085613bae565b826000016000828254612b1a9190613bc5565b90915550506003830154825464e8d4a5100091612b3691613bdd565b612b409190613ca6565b600183015560d65461271090612b569086613bdd565b612b609190613ca6565b612b6a9085613bae565b816000016000828254612b7d9190613bc5565b90915550506003830154815464e8d4a5100091612b9991613bdd565b612ba39190613ca6565b6001820155604051848152859033907f90890809c654f11d6e72a28fa60149770a0d11ec6c92319d6ceb2bb0a4ea1a159060200160405180910390a3600482015415612bee57612bf5565b4260048301555b50426006909101555050600160975550565b600080516020613eb8833981519152612c1f81612d50565b60c95460405163f2fde38b60e01b81526001600160a01b0384811660048301529091169063f2fde38b90602401600060405180830381600087803b158015612c6657600080fd5b505af1158015612c7a573d6000803e3d6000fd5b505050505050565b60d38181548110610a1057600080fd5b60d7546000908190841015612cab5760649150506109fa565b60005b60d15481101561248157600060d18281548110612ccd57612ccd613c4e565b90600052602060002001549050600160d980549050612cec9190613bae565b821115612cff57600093505050506109fa565b808511612d2e5760d98281548110612d1957612d19613c4e565b906000526020600020015493505050506109fa565b5080612d3981613bfc565b915050612cae565b6001600160a01b03163b151590565b6126978133613299565b60008054610100900460ff1615612da1578160ff166001148015612d7d5750303b155b612d995760405162461bcd60e51b8152600401610b2190613cfa565b506000919050565b60005460ff808416911610612dc85760405162461bcd60e51b8152600401610b2190613cfa565b506000805460ff191660ff92909216919091179055600190565b919050565b600054610100900460ff16612e0e5760405162461bcd60e51b8152600401610b2190613d48565b565b600054610100900460ff16612e375760405162461bcd60e51b8152600401610b2190613d48565b612e0e6132fd565b612e498282612489565b610e385760008281526065602090815260408083206001600160a01b03851684529091529020805460ff19166001179055612e813390565b6001600160a01b0316816001600160a01b0316837f2f8788117e7eff1d82e926ec794901d17c78024a50270940304540a733656f0d60405160405180910390a45050565b612ecf8282612489565b15610e385760008281526065602090815260408083206001600160a01b0385168085529252808320805460ff1916905551339285917ff6391f5c32d9c69d2a47ea670b442974b53935d1edc7fd64eb21e047a839171b9190a45050565b600060de8381548110612f4157612f41613c4e565b6000918252602080832086845260e0825260408085206001600160a01b0388168652909252922080546004909202909201925015610abb576000816001015464e8d4a5100084600301548460000154612f9a9190613bdd565b612fa49190613ca6565b612fae9190613bae565b60c9546040516370a0823160e01b81523060048201529192506000916001600160a01b03909116906370a082319060240160206040518083038186803b158015612ff757600080fd5b505afa15801561300b573d6000803e3d6000fd5b505050506040513d601f19601f8201168201806040525081019061302f9190613cc8565b90508082111561303d578091505b81156131d357600060d454846002015411613084576000613068613062600142613bae565b42612c92565b905060646130768286613bdd565b6130809190613ca6565b9150505b60c9546001600160a01b031663a9059cbb876130a08487613bae565b6040518363ffffffff1660e01b81526004016130bd929190613ce1565b602060405180830381600087803b1580156130d757600080fd5b505af11580156130eb573d6000803e3d6000fd5b505050506040513d601f19601f8201168201806040525081019061310f9190613d93565b508015613185576040516328a1f12360e11b815273465d89df3e9b1afb6957b58be6137feebb8e9f61908190635143e24690613151908a908690600401613ce1565b600060405180830381600087803b15801561316b57600080fd5b505af115801561317f573d6000803e3d6000fd5b50505050505b426002850155604080518481526020810183905288916001600160a01b038916917f3887f2857beaaf367eb618dfb5e22c1ebd74425affb0602c2e9fe126e3f860eb910160405180910390a3505b6003840154835464e8d4a51000916131ea91613bdd565b6131f49190613ca6565b6001840155505050505050565b610b2a8363a9059cbb60e01b8484604051602401613220929190613ce1565b60408051601f198184030181529190526020810180516001600160e01b03166001600160e01b03199093169290921790915261332b565b6126978133612f2c565b6040516001600160a01b0380851660248301528316604482015260648101829052610abb9085906323b872dd60e01b90608401613220565b6132a38282612489565b610e38576132bb816001600160a01b031660146133fd565b6132c68360206133fd565b6040516020016132d7929190613ddc565b60408051601f198184030181529082905262461bcd60e51b8252610b2191600401613e51565b600054610100900460ff166133245760405162461bcd60e51b8152600401610b2190613d48565b6001609755565b6000613380826040518060400160405280602081526020017f5361666545524332303a206c6f772d6c6576656c2063616c6c206661696c6564815250856001600160a01b03166135999092919063ffffffff16565b805190915015610b2a578080602001905181019061339e9190613d93565b610b2a5760405162461bcd60e51b815260206004820152602a60248201527f5361666545524332303a204552433230206f7065726174696f6e20646964206e6044820152691bdd081cdd58d8d9595960b21b6064820152608401610b21565b6060600061340c836002613bdd565b613417906002613bc5565b67ffffffffffffffff81111561342f5761342f613740565b6040519080825280601f01601f191660200182016040528015613459576020820181803683370190505b509050600360fc1b8160008151811061347457613474613c4e565b60200101906001600160f81b031916908160001a905350600f60fb1b816001815181106134a3576134a3613c4e565b60200101906001600160f81b031916908160001a90535060006134c7846002613bdd565b6134d2906001613bc5565b90505b600181111561354a576f181899199a1a9b1b9c1cb0b131b232b360811b85600f166010811061350657613506613c4e565b1a60f81b82828151811061351c5761351c613c4e565b60200101906001600160f81b031916908160001a90535060049490941c9361354381613e84565b90506134d5565b508315610a715760405162461bcd60e51b815260206004820181905260248201527f537472696e67733a20686578206c656e67746820696e73756666696369656e746044820152606401610b21565b606061277a8484600085856001600160a01b0385163b6135fb5760405162461bcd60e51b815260206004820152601d60248201527f416464726573733a2063616c6c20746f206e6f6e2d636f6e74726163740000006044820152606401610b21565b600080866001600160a01b031685876040516136179190613e9b565b60006040518083038185875af1925050503d8060008114613654576040519150601f19603f3d011682016040523d82523d6000602084013e613659565b606091505b509150915061260782828660608315613673575081610a71565b8251156136835782518084602001fd5b8160405162461bcd60e51b8152600401610b219190613e51565b8280548282559060005260206000209081019282156136d8579160200282015b828111156136d85782518255916020019190600101906136bd565b506136e49291506136e8565b5090565b5b808211156136e457600081556001016136e9565b60006020828403121561370f57600080fd5b81356001600160e01b031981168114610a7157600080fd5b60006020828403121561373957600080fd5b5035919050565b634e487b7160e01b600052604160045260246000fd5b6040516101c0810167ffffffffffffffff8111828210171561377a5761377a613740565b60405290565b600082601f83011261379157600080fd5b8135602067ffffffffffffffff808311156137ae576137ae613740565b8260051b604051601f19603f830116810181811084821117156137d3576137d3613740565b6040529384528581018301938381019250878511156137f157600080fd5b83870191505b84821015612607578135835291830191908301906137f7565b6000806040838503121561382357600080fd5b82359150602083013567ffffffffffffffff81111561384157600080fd5b61384d85828601613780565b9150509250929050565b6001600160a01b038116811461269757600080fd5b8035612de281613857565b60006020828403121561388957600080fd5b813567ffffffffffffffff808211156138a157600080fd5b908301906101c082860312156138b657600080fd5b6138be613756565b6138c78361386c565b81526020830135602082015260408301356040820152606083013560608201526080830135608082015260a083013560a082015261390760c0840161386c565b60c082015261391860e0840161386c565b60e082015261010061392b81850161386c565b9082015261012061393d84820161386c565b90820152610140838101358381111561395557600080fd5b61396188828701613780565b828401525050610160808401358381111561397b57600080fd5b61398788828701613780565b82840152505061018080840135838111156139a157600080fd5b6139ad88828701613780565b8284015250506101a080840135838111156139c757600080fd5b6139d388828701613780565b918301919091525095945050505050565b801515811461269757600080fd5b600080600060608486031215613a0757600080fd5b833592506020840135613a1981613857565b91506040840135613a29816139e4565b809150509250925092565b60008060408385031215613a4757600080fd5b823591506020830135613a5981613857565b809150509250929050565b60008060408385031215613a7757600080fd5b50508035926020909101359150565b600080600060608486031215613a9b57600080fd5b83359250602084013591506040840135613a2981613857565b600060208284031215613ac657600080fd5b813567ffffffffffffffff811115613add57600080fd5b61277a84828501613780565b600080600060608486031215613afe57600080fd5b833592506020840135613b1081613857565b929592945050506040919091013590565b600080600060608486031215613b3657600080fd5b83359250602084013591506040840135613a29816139e4565b600080600060608486031215613b6457600080fd5b505081359360208301359350604090920135919050565b600060208284031215613b8d57600080fd5b8135610a7181613857565b634e487b7160e01b600052601160045260246000fd5b600082821015613bc057613bc0613b98565b500390565b60008219821115613bd857613bd8613b98565b500190565b6000816000190483118215151615613bf757613bf7613b98565b500290565b6000600019821415613c1057613c10613b98565b5060010190565b6020808252601f908201527f5265656e7472616e637947756172643a207265656e7472616e742063616c6c00604082015260600190565b634e487b7160e01b600052603260045260246000fd5b60208082526022908201527f4d6173746572496e766573746f723a3a77697468647261773a206e6f7420676f6040820152611bd960f21b606082015260800190565b600082613cc357634e487b7160e01b600052601260045260246000fd5b500490565b600060208284031215613cda57600080fd5b5051919050565b6001600160a01b03929092168252602082015260400190565b6020808252602e908201527f496e697469616c697a61626c653a20636f6e747261637420697320616c72656160408201526d191e481a5b9a5d1a585b1a5e995960921b606082015260800190565b6020808252602b908201527f496e697469616c697a61626c653a20636f6e7472616374206973206e6f74206960408201526a6e697469616c697a696e6760a81b606082015260800190565b600060208284031215613da557600080fd5b8151610a71816139e4565b60005b83811015613dcb578181015183820152602001613db3565b83811115610abb5750506000910152565b7f416363657373436f6e74726f6c3a206163636f756e7420000000000000000000815260008351613e14816017850160208801613db0565b7001034b99036b4b9b9b4b733903937b6329607d1b6017918401918201528351613e45816028840160208801613db0565b01602801949350505050565b6020815260008251806020840152613e70816040850160208701613db0565b601f01601f19169190910160400192915050565b600081613e9357613e93613b98565b506000190190565b60008251613ead818460208701613db0565b919091019291505056fe0393b4c1b6519e8b53ae0efa1ab522060a3b9f8d86d09c8a22ca6d6eea735cf7a49807205ce4d355092ef5a8a18f56e8913cf4a201fbe287825b095693c21775a2646970667358221220215069d79b00c23752398fb54814368f19c3c8cb538ce72e111235ccd20cb8c164736f6c63430008090033496e697469616c697a61626c653a20636f6e747261637420697320616c726561",
  "linkReferences": {},
  "deployedLinkReferences": {}
}