{
  "_format": "hh-sol-artifact-1",
  "contractName": "MasterInvestor",
  "sourceName": "contracts/npc/MasterInvestor.sol",
  "abi": [
    {
      "inputs": [],
      "stateMutability": "nonpayable",
      "type": "constructor"
    },
    {
      "anonymous": false,
      "inputs": [
        {
          "indexed": true,
          "internalType": "address",
          "name": "user",
          "type": "address"
        },
        {
          "indexed": true,
          "internalType": "uint256",
          "name": "pid",
          "type": "uint256"
        },
        {
          "indexed": false,
          "internalType": "uint256",
          "name": "amount",
          "type": "uint256"
        }
      ],
      "name": "Deposit",
      "type": "event"
    },
    {
      "anonymous": false,
      "inputs": [
        {
          "indexed": true,
          "internalType": "address",
          "name": "user",
          "type": "address"
        },
        {
          "indexed": true,
          "internalType": "uint256",
          "name": "pid",
          "type": "uint256"
        },
        {
          "indexed": false,
          "internalType": "uint256",
          "name": "amount",
          "type": "uint256"
        }
      ],
      "name": "EmergencyWithdraw",
      "type": "event"
    },
    {
      "anonymous": false,
      "inputs": [
        {
          "indexed": false,
          "internalType": "uint8",
          "name": "version",
          "type": "uint8"
        }
      ],
      "name": "Initialized",
      "type": "event"
    },
    {
      "anonymous": false,
      "inputs": [
        {
          "indexed": true,
          "internalType": "bytes32",
          "name": "role",
          "type": "bytes32"
        },
        {
          "indexed": true,
          "internalType": "bytes32",
          "name": "previousAdminRole",
          "type": "bytes32"
        },
        {
          "indexed": true,
          "internalType": "bytes32",
          "name": "newAdminRole",
          "type": "bytes32"
        }
      ],
      "name": "RoleAdminChanged",
      "type": "event"
    },
    {
      "anonymous": false,
      "inputs": [
        {
          "indexed": true,
          "internalType": "bytes32",
          "name": "role",
          "type": "bytes32"
        },
        {
          "indexed": true,
          "internalType": "address",
          "name": "account",
          "type": "address"
        },
        {
          "indexed": true,
          "internalType": "address",
          "name": "sender",
          "type": "address"
        }
      ],
      "name": "RoleGranted",
      "type": "event"
    },
    {
      "anonymous": false,
      "inputs": [
        {
          "indexed": true,
          "internalType": "bytes32",
          "name": "role",
          "type": "bytes32"
        },
        {
          "indexed": true,
          "internalType": "address",
          "name": "account",
          "type": "address"
        },
        {
          "indexed": true,
          "internalType": "address",
          "name": "sender",
          "type": "address"
        }
      ],
      "name": "RoleRevoked",
      "type": "event"
    },
    {
      "anonymous": false,
      "inputs": [
        {
          "indexed": true,
          "internalType": "address",
          "name": "user",
          "type": "address"
        },
        {
          "indexed": true,
          "internalType": "uint256",
          "name": "pid",
          "type": "uint256"
        },
        {
          "indexed": false,
          "internalType": "uint256",
          "name": "amount",
          "type": "uint256"
        },
        {
          "indexed": false,
          "internalType": "uint256",
          "name": "lockAmount",
          "type": "uint256"
        }
      ],
      "name": "SendGovernanceTokenReward",
      "type": "event"
    },
    {
      "anonymous": false,
      "inputs": [
        {
          "indexed": true,
          "internalType": "address",
          "name": "user",
          "type": "address"
        },
        {
          "indexed": true,
          "internalType": "uint256",
          "name": "pid",
          "type": "uint256"
        },
        {
          "indexed": false,
          "internalType": "uint256",
          "name": "amount",
          "type": "uint256"
        }
      ],
      "name": "Withdraw",
      "type": "event"
    },
    {
      "inputs": [],
      "name": "ADMIN_ROLE",
      "outputs": [
        {
          "internalType": "bytes32",
          "name": "",
          "type": "bytes32"
        }
      ],
      "stateMutability": "view",
      "type": "function"
    },
    {
      "inputs": [],
      "name": "AUTHORIZED_ROLE",
      "outputs": [
        {
          "internalType": "bytes32",
          "name": "",
          "type": "bytes32"
        }
      ],
      "stateMutability": "view",
      "type": "function"
    },
    {
      "inputs": [],
      "name": "COMMUNITY_FUND_ADDRESS",
      "outputs": [
        {
          "internalType": "address",
          "name": "",
          "type": "address"
        }
      ],
      "stateMutability": "view",
      "type": "function"
    },
    {
      "inputs": [],
      "name": "DEFAULT_ADMIN_ROLE",
      "outputs": [
        {
          "internalType": "bytes32",
          "name": "",
          "type": "bytes32"
        }
      ],
      "stateMutability": "view",
      "type": "function"
    },
    {
      "inputs": [],
      "name": "DEV_ADDRESS",
      "outputs": [
        {
          "internalType": "address",
          "name": "",
          "type": "address"
        }
      ],
      "stateMutability": "view",
      "type": "function"
    },
    {
      "inputs": [],
      "name": "DEV_DEP_FEE",
      "outputs": [
        {
          "internalType": "uint256",
          "name": "",
          "type": "uint256"
        }
      ],
      "stateMutability": "view",
      "type": "function"
    },
    {
      "inputs": [
        {
          "internalType": "uint256",
          "name": "",
          "type": "uint256"
        }
      ],
      "name": "DEV_FEE_STAGES",
      "outputs": [
        {
          "internalType": "uint256",
          "name": "",
          "type": "uint256"
        }
      ],
      "stateMutability": "view",
      "type": "function"
    },
    {
      "inputs": [],
      "name": "FINISH_BONUS_AT_TIME",
      "outputs": [
        {
          "internalType": "uint256",
          "name": "",
          "type": "uint256"
        }
      ],
      "stateMutability": "view",
      "type": "function"
    },
    {
      "inputs": [],
      "name": "FOUNDER_ADDRESS",
      "outputs": [
        {
          "internalType": "address",
          "name": "",
          "type": "address"
        }
      ],
      "stateMutability": "view",
      "type": "function"
    },
    {
      "inputs": [],
      "name": "GOV_TOKEN",
      "outputs": [
        {
          "internalType": "contract EvoToken",
          "name": "",
          "type": "address"
        }
      ],
      "stateMutability": "view",
      "type": "function"
    },
    {
      "inputs": [
        {
          "internalType": "uint256",
          "name": "",
          "type": "uint256"
        }
      ],
      "name": "HALVING_AT_TIMES",
      "outputs": [
        {
          "internalType": "uint256",
          "name": "",
          "type": "uint256"
        }
      ],
      "stateMutability": "view",
      "type": "function"
    },
    {
      "inputs": [],
      "name": "LP_ADDRESS",
      "outputs": [
        {
          "internalType": "address",
          "name": "",
          "type": "address"
        }
      ],
      "stateMutability": "view",
      "type": "function"
    },
    {
      "inputs": [],
      "name": "PERCENT_FOR_COM",
      "outputs": [
        {
          "internalType": "uint256",
          "name": "",
          "type": "uint256"
        }
      ],
      "stateMutability": "view",
      "type": "function"
    },
    {
      "inputs": [],
      "name": "PERCENT_FOR_DEV",
      "outputs": [
        {
          "internalType": "uint256",
          "name": "",
          "type": "uint256"
        }
      ],
      "stateMutability": "view",
      "type": "function"
    },
    {
      "inputs": [],
      "name": "PERCENT_FOR_FOUNDERS",
      "outputs": [
        {
          "internalType": "uint256",
          "name": "",
          "type": "uint256"
        }
      ],
      "stateMutability": "view",
      "type": "function"
    },
    {
      "inputs": [],
      "name": "PERCENT_FOR_LP",
      "outputs": [
        {
          "internalType": "uint256",
          "name": "",
          "type": "uint256"
        }
      ],
      "stateMutability": "view",
      "type": "function"
    },
    {
      "inputs": [
        {
          "internalType": "uint256",
          "name": "",
          "type": "uint256"
        }
      ],
      "name": "PERCENT_LOCK_BONUS_REWARD",
      "outputs": [
        {
          "internalType": "uint256",
          "name": "",
          "type": "uint256"
        }
      ],
      "stateMutability": "view",
      "type": "function"
    },
    {
      "inputs": [
        {
          "internalType": "uint256",
          "name": "",
          "type": "uint256"
        }
      ],
      "name": "REWARD_MULTIPLIERS",
      "outputs": [
        {
          "internalType": "uint256",
          "name": "",
          "type": "uint256"
        }
      ],
      "stateMutability": "view",
      "type": "function"
    },
    {
      "inputs": [],
      "name": "REWARD_PER_SECOND",
      "outputs": [
        {
          "internalType": "uint256",
          "name": "",
          "type": "uint256"
        }
      ],
      "stateMutability": "view",
      "type": "function"
    },
    {
      "inputs": [],
      "name": "START_TIME",
      "outputs": [
        {
          "internalType": "uint256",
          "name": "",
          "type": "uint256"
        }
      ],
      "stateMutability": "view",
      "type": "function"
    },
    {
      "inputs": [],
      "name": "TOTAL_ALLOCATION_POINTS",
      "outputs": [
        {
          "internalType": "uint256",
          "name": "",
          "type": "uint256"
        }
      ],
      "stateMutability": "view",
      "type": "function"
    },
    {
      "inputs": [],
      "name": "USD_ORACLE",
      "outputs": [
        {
          "internalType": "address",
          "name": "",
          "type": "address"
        }
      ],
      "stateMutability": "view",
      "type": "function"
    },
    {
      "inputs": [],
      "name": "USER_DEP_FEE",
      "outputs": [
        {
          "internalType": "uint256",
          "name": "",
          "type": "uint256"
        }
      ],
      "stateMutability": "view",
      "type": "function"
    },
    {
      "inputs": [
        {
          "internalType": "uint256",
          "name": "",
          "type": "uint256"
        }
      ],
      "name": "USER_FEE_STAGES",
      "outputs": [
        {
          "internalType": "uint256",
          "name": "",
          "type": "uint256"
        }
      ],
      "stateMutability": "view",
      "type": "function"
    },
    {
      "inputs": [
        {
          "internalType": "uint256",
          "name": "_allocPoint",
          "type": "uint256"
        },
        {
          "internalType": "contract IERC20Upgradeable",
          "name": "_lpToken",
          "type": "address"
        },
        {
          "internalType": "bool",
          "name": "_withUpdate",
          "type": "bool"
        }
      ],
      "name": "add",
      "outputs": [],
      "stateMutability": "nonpayable",
      "type": "function"
    },
    {
      "inputs": [
        {
          "internalType": "uint256",
          "name": "_pid",
          "type": "uint256"
        }
      ],
      "name": "claimReward",
      "outputs": [],
      "stateMutability": "nonpayable",
      "type": "function"
    },
    {
      "inputs": [
        {
          "internalType": "uint256[]",
          "name": "_pids",
          "type": "uint256[]"
        }
      ],
      "name": "claimRewards",
      "outputs": [],
      "stateMutability": "nonpayable",
      "type": "function"
    },
    {
      "inputs": [
        {
          "internalType": "uint256",
          "name": "_pid",
          "type": "uint256"
        },
        {
          "internalType": "address",
          "name": "_user",
          "type": "address"
        },
        {
          "internalType": "uint256",
          "name": "_amount",
          "type": "uint256"
        }
      ],
      "name": "correctWithdrawal",
      "outputs": [],
      "stateMutability": "nonpayable",
      "type": "function"
    },
    {
      "inputs": [
        {
          "internalType": "uint256",
          "name": "_pid",
          "type": "uint256"
        },
        {
          "internalType": "uint256",
          "name": "_amount",
          "type": "uint256"
        }
      ],
      "name": "deposit",
      "outputs": [],
      "stateMutability": "nonpayable",
      "type": "function"
    },
    {
      "inputs": [
        {
          "internalType": "uint256",
          "name": "_pid",
          "type": "uint256"
        }
      ],
      "name": "emergencyWithdraw",
      "outputs": [],
      "stateMutability": "nonpayable",
      "type": "function"
    },
    {
      "inputs": [
        {
          "internalType": "uint256",
          "name": "_from",
          "type": "uint256"
        },
        {
          "internalType": "uint256",
          "name": "_to",
          "type": "uint256"
        }
      ],
      "name": "getLockPercentage",
      "outputs": [
        {
          "internalType": "uint256",
          "name": "",
          "type": "uint256"
        }
      ],
      "stateMutability": "view",
      "type": "function"
    },
    {
      "inputs": [
        {
          "internalType": "uint256",
          "name": "_from",
          "type": "uint256"
        },
        {
          "internalType": "uint256",
          "name": "_to",
          "type": "uint256"
        }
      ],
      "name": "getMultiplier",
      "outputs": [
        {
          "internalType": "uint256",
          "name": "",
          "type": "uint256"
        }
      ],
      "stateMutability": "view",
      "type": "function"
    },
    {
      "inputs": [
        {
          "internalType": "uint256",
          "name": "pid1",
          "type": "uint256"
        }
      ],
      "name": "getNewRewardPerSecond",
      "outputs": [
        {
          "internalType": "uint256",
          "name": "",
          "type": "uint256"
        }
      ],
      "stateMutability": "view",
      "type": "function"
    },
    {
      "inputs": [
        {
          "internalType": "uint256",
          "name": "_from",
          "type": "uint256"
        },
        {
          "internalType": "uint256",
          "name": "_to",
          "type": "uint256"
        },
        {
          "internalType": "uint256",
          "name": "_allocPoint",
          "type": "uint256"
        }
      ],
      "name": "getPoolReward",
      "outputs": [
        {
          "internalType": "uint256",
          "name": "forDev",
          "type": "uint256"
        },
        {
          "internalType": "uint256",
          "name": "forFarmer",
          "type": "uint256"
        },
        {
          "internalType": "uint256",
          "name": "forLP",
          "type": "uint256"
        },
        {
          "internalType": "uint256",
          "name": "forCom",
          "type": "uint256"
        },
        {
          "internalType": "uint256",
          "name": "forFounders",
          "type": "uint256"
        }
      ],
      "stateMutability": "view",
      "type": "function"
    },
    {
      "inputs": [
        {
          "internalType": "bytes32",
          "name": "role",
          "type": "bytes32"
        }
      ],
      "name": "getRoleAdmin",
      "outputs": [
        {
          "internalType": "bytes32",
          "name": "",
          "type": "bytes32"
        }
      ],
      "stateMutability": "view",
      "type": "function"
    },
    {
      "inputs": [
        {
          "internalType": "bytes32",
          "name": "role",
          "type": "bytes32"
        },
        {
          "internalType": "address",
          "name": "account",
          "type": "address"
        }
      ],
      "name": "grantRole",
      "outputs": [],
      "stateMutability": "nonpayable",
      "type": "function"
    },
    {
      "inputs": [
        {
          "internalType": "bytes32",
          "name": "role",
          "type": "bytes32"
        },
        {
          "internalType": "address",
          "name": "account",
          "type": "address"
        }
      ],
      "name": "hasRole",
      "outputs": [
        {
          "internalType": "bool",
          "name": "",
          "type": "bool"
        }
      ],
      "stateMutability": "view",
      "type": "function"
    },
    {
      "inputs": [
        {
          "components": [
            {
              "internalType": "contract EvoToken",
              "name": "govToken",
              "type": "address"
            },
            {
              "internalType": "uint256",
              "name": "rewardPerSecond",
              "type": "uint256"
            },
            {
              "internalType": "uint256",
              "name": "startTime",
              "type": "uint256"
            },
            {
              "internalType": "uint256",
              "name": "halvingAfterTime",
              "type": "uint256"
            },
            {
              "internalType": "uint256",
              "name": "userDepositFee",
              "type": "uint256"
            },
            {
              "internalType": "uint256",
              "name": "devDepositFee",
              "type": "uint256"
            },
            {
              "internalType": "address",
              "name": "devAddress",
              "type": "address"
            },
            {
              "internalType": "address",
              "name": "lpAddress",
              "type": "address"
            },
            {
              "internalType": "address",
              "name": "communityFundAddress",
              "type": "address"
            },
            {
              "internalType": "address",
              "name": "founderAddress",
              "type": "address"
            },
            {
              "internalType": "uint256[]",
              "name": "rewardMultipliers",
              "type": "uint256[]"
            },
            {
              "internalType": "uint256[]",
              "name": "userFeeStages",
              "type": "uint256[]"
            },
            {
              "internalType": "uint256[]",
              "name": "devFeeStages",
              "type": "uint256[]"
            },
            {
              "internalType": "uint256[]",
              "name": "percentLockBonusReward",
              "type": "uint256[]"
            }
          ],
          "internalType": "struct MasterInvestor.ConstructorParams",
          "name": "params",
          "type": "tuple"
        }
      ],
      "name": "initialize",
      "outputs": [],
      "stateMutability": "nonpayable",
      "type": "function"
    },
    {
      "inputs": [],
      "name": "massUpdatePools",
      "outputs": [],
      "stateMutability": "nonpayable",
      "type": "function"
    },
    {
      "inputs": [
        {
          "internalType": "uint256",
          "name": "_pid",
          "type": "uint256"
        },
        {
          "internalType": "address",
          "name": "_user",
          "type": "address"
        }
      ],
      "name": "pendingReward",
      "outputs": [
        {
          "internalType": "uint256",
          "name": "",
          "type": "uint256"
        }
      ],
      "stateMutability": "view",
      "type": "function"
    },
    {
      "inputs": [
        {
          "internalType": "contract IERC20Upgradeable",
          "name": "",
          "type": "address"
        }
      ],
      "name": "poolExistence",
      "outputs": [
        {
          "internalType": "bool",
          "name": "",
          "type": "bool"
        }
      ],
      "stateMutability": "view",
      "type": "function"
    },
    {
      "inputs": [
        {
          "internalType": "address",
          "name": "",
          "type": "address"
        }
      ],
      "name": "poolId",
      "outputs": [
        {
          "internalType": "uint256",
          "name": "",
          "type": "uint256"
        }
      ],
      "stateMutability": "view",
      "type": "function"
    },
    {
      "inputs": [
        {
          "internalType": "uint256",
          "name": "",
          "type": "uint256"
        }
      ],
      "name": "poolInfo",
      "outputs": [
        {
          "internalType": "contract IERC20Upgradeable",
          "name": "lpToken",
          "type": "address"
        },
        {
          "internalType": "uint256",
          "name": "allocPoint",
          "type": "uint256"
        },
        {
          "internalType": "uint256",
          "name": "lastRewardTime",
          "type": "uint256"
        },
        {
          "internalType": "uint256",
          "name": "accGovTokenPerShare",
          "type": "uint256"
        }
      ],
      "stateMutability": "view",
      "type": "function"
    },
    {
      "inputs": [],
      "name": "poolLength",
      "outputs": [
        {
          "internalType": "uint256",
          "name": "",
          "type": "uint256"
        }
      ],
      "stateMutability": "view",
      "type": "function"
    },
    {
      "inputs": [
        {
          "internalType": "address",
          "name": "_newOwner",
          "type": "address"
        }
      ],
      "name": "reclaimTokenOwnership",
      "outputs": [],
      "stateMutability": "nonpayable",
      "type": "function"
    },
    {
      "inputs": [
        {
          "internalType": "bytes32",
          "name": "role",
          "type": "bytes32"
        },
        {
          "internalType": "address",
          "name": "account",
          "type": "address"
        }
      ],
      "name": "renounceRole",
      "outputs": [],
      "stateMutability": "nonpayable",
      "type": "function"
    },
    {
      "inputs": [
        {
          "internalType": "uint256",
          "name": "_pid",
          "type": "uint256"
        },
        {
          "internalType": "address",
          "name": "_user",
          "type": "address"
        },
        {
          "internalType": "uint256",
          "name": "_time",
          "type": "uint256"
        }
      ],
      "name": "reviseDeposit",
      "outputs": [],
      "stateMutability": "nonpayable",
      "type": "function"
    },
    {
      "inputs": [
        {
          "internalType": "uint256",
          "name": "_pid",
          "type": "uint256"
        },
        {
          "internalType": "address",
          "name": "_user",
          "type": "address"
        },
        {
          "internalType": "uint256",
          "name": "_time",
          "type": "uint256"
        }
      ],
      "name": "reviseWithdraw",
      "outputs": [],
      "stateMutability": "nonpayable",
      "type": "function"
    },
    {
      "inputs": [
        {
          "internalType": "bytes32",
          "name": "role",
          "type": "bytes32"
        },
        {
          "internalType": "address",
          "name": "account",
          "type": "address"
        }
      ],
      "name": "revokeRole",
      "outputs": [],
      "stateMutability": "nonpayable",
      "type": "function"
    },
    {
      "inputs": [
        {
          "internalType": "uint256",
          "name": "_pid",
          "type": "uint256"
        },
        {
          "internalType": "uint256",
          "name": "_allocPoint",
          "type": "uint256"
        },
        {
          "internalType": "bool",
          "name": "_withUpdate",
          "type": "bool"
        }
      ],
      "name": "set",
      "outputs": [],
      "stateMutability": "nonpayable",
      "type": "function"
    },
    {
      "inputs": [
        {
          "internalType": "bytes4",
          "name": "interfaceId",
          "type": "bytes4"
        }
      ],
      "name": "supportsInterface",
      "outputs": [
        {
          "internalType": "bool",
          "name": "",
          "type": "bool"
        }
      ],
      "stateMutability": "view",
      "type": "function"
    },
    {
      "inputs": [],
      "name": "totalAllocPoint",
      "outputs": [
        {
          "internalType": "uint256",
          "name": "",
          "type": "uint256"
        }
      ],
      "stateMutability": "view",
      "type": "function"
    },
    {
      "inputs": [
        {
          "internalType": "uint256",
          "name": "kind",
          "type": "uint256"
        },
        {
          "internalType": "address",
          "name": "_address",
          "type": "address"
        }
      ],
      "name": "updateAddress",
      "outputs": [],
      "stateMutability": "nonpayable",
      "type": "function"
    },
    {
      "inputs": [
        {
          "internalType": "uint256",
          "name": "kind",
          "type": "uint256"
        },
        {
          "internalType": "uint256",
          "name": "fee",
          "type": "uint256"
        }
      ],
      "name": "updateDepositFee",
      "outputs": [],
      "stateMutability": "nonpayable",
      "type": "function"
    },
    {
      "inputs": [
        {
          "internalType": "uint256",
          "name": "kind",
          "type": "uint256"
        },
        {
          "internalType": "uint256[]",
          "name": "feeStages",
          "type": "uint256[]"
        }
      ],
      "name": "updateFeeStages",
      "outputs": [],
      "stateMutability": "nonpayable",
      "type": "function"
    },
    {
      "inputs": [
        {
          "internalType": "uint256[]",
          "name": "times",
          "type": "uint256[]"
        }
      ],
      "name": "updateHalvingAtTimes",
      "outputs": [],
      "stateMutability": "nonpayable",
      "type": "function"
    },
    {
      "inputs": [
        {
          "internalType": "uint256",
          "name": "time",
          "type": "uint256"
        }
      ],
      "name": "updateLastRewardTime",
      "outputs": [],
      "stateMutability": "nonpayable",
      "type": "function"
    },
    {
      "inputs": [
        {
          "internalType": "uint256",
          "name": "kind",
          "type": "uint256"
        },
        {
          "internalType": "uint256",
          "name": "percent",
          "type": "uint256"
        }
      ],
      "name": "updateLockPercent",
      "outputs": [],
      "stateMutability": "nonpayable",
      "type": "function"
    },
    {
      "inputs": [
        {
          "internalType": "uint256",
          "name": "_pid",
          "type": "uint256"
        }
      ],
      "name": "updatePool",
      "outputs": [],
      "stateMutability": "nonpayable",
      "type": "function"
    },
    {
      "inputs": [
        {
          "internalType": "uint256[]",
          "name": "multipliers",
          "type": "uint256[]"
        }
      ],
      "name": "updateRewardMultipliers",
      "outputs": [],
      "stateMutability": "nonpayable",
      "type": "function"
    },
    {
      "inputs": [
        {
          "internalType": "uint256",
          "name": "reward",
          "type": "uint256"
        }
      ],
      "name": "updateRewardPerSecond",
      "outputs": [],
      "stateMutability": "nonpayable",
      "type": "function"
    },
    {
      "inputs": [
        {
          "internalType": "uint256",
          "name": "time",
          "type": "uint256"
        }
      ],
      "name": "updateStartTime",
      "outputs": [],
      "stateMutability": "nonpayable",
      "type": "function"
    },
    {
      "inputs": [
        {
          "internalType": "uint256[]",
          "name": "lockPercents",
          "type": "uint256[]"
        }
      ],
      "name": "updateUserLockPercents",
      "outputs": [],
      "stateMutability": "nonpayable",
      "type": "function"
    },
    {
      "inputs": [
        {
          "internalType": "uint256",
          "name": "_pid",
          "type": "uint256"
        }
      ],
      "name": "userDelta",
      "outputs": [
        {
          "internalType": "uint256",
          "name": "",
          "type": "uint256"
        }
      ],
      "stateMutability": "view",
      "type": "function"
    },
    {
      "inputs": [
        {
          "internalType": "uint256",
          "name": "_pid",
          "type": "uint256"
        },
        {
          "internalType": "address",
          "name": "_address",
          "type": "address"
        }
      ],
      "name": "userDeltaOf",
      "outputs": [
        {
          "internalType": "uint256",
          "name": "",
          "type": "uint256"
        }
      ],
      "stateMutability": "view",
      "type": "function"
    },
    {
      "inputs": [
        {
          "internalType": "address",
          "name": "",
          "type": "address"
        }
      ],
      "name": "userGlobalInfo",
      "outputs": [
        {
          "internalType": "uint256",
          "name": "",
          "type": "uint256"
        }
      ],
      "stateMutability": "view",
      "type": "function"
    },
    {
      "inputs": [
        {
          "internalType": "uint256",
          "name": "",
          "type": "uint256"
        },
        {
          "internalType": "address",
          "name": "",
          "type": "address"
        }
      ],
      "name": "userInfo",
      "outputs": [
        {
          "internalType": "uint256",
          "name": "amount",
          "type": "uint256"
        },
        {
          "internalType": "uint256",
          "name": "rewardDebt",
          "type": "uint256"
        },
        {
          "internalType": "uint256",
          "name": "rewardDebtAtTime",
          "type": "uint256"
        },
        {
          "internalType": "uint256",
          "name": "lastWithdrawTime",
          "type": "uint256"
        },
        {
          "internalType": "uint256",
          "name": "firstDepositTime",
          "type": "uint256"
        },
        {
          "internalType": "uint256",
          "name": "timeDelta",
          "type": "uint256"
        },
        {
          "internalType": "uint256",
          "name": "lastDepositTime",
          "type": "uint256"
        }
      ],
      "stateMutability": "view",
      "type": "function"
    },
    {
      "inputs": [
        {
          "internalType": "uint256",
          "name": "_pid",
          "type": "uint256"
        },
        {
          "internalType": "uint256",
          "name": "_amount",
          "type": "uint256"
        }
      ],
      "name": "withdraw",
      "outputs": [],
      "stateMutability": "nonpayable",
      "type": "function"
    },
    {
      "inputs": [
        {
          "internalType": "uint256",
          "name": "_pid",
          "type": "uint256"
        },
        {
          "internalType": "uint256",
          "name": "_amount",
          "type": "uint256"
        },
        {
          "internalType": "address",
          "name": "_address",
          "type": "address"
        }
      ],
      "name": "withdrawForClaim",
      "outputs": [],
      "stateMutability": "nonpayable",
      "type": "function"
    }
  ],
  "bytecode": "0x60806040523480156200001157600080fd5b50600062000020600162000087565b9050801562000039576000805461ff0019166101001790555b801562000080576000805461ff0019169055604051600181527f7f26b83ff96e1f2b6a682f133852f6798a09c465da95921460cefb38474024989060200160405180910390a15b50620001a8565b60008054610100900460ff161562000120578160ff166001148015620000c05750620000be306200019960201b62002a541760201c565b155b620001185760405162461bcd60e51b815260206004820152602e602482015260008051602062003dc083398151915260448201526d191e481a5b9a5d1a585b1a5e995960921b60648201526084015b60405180910390fd5b506000919050565b60005460ff8084169116106200017f5760405162461bcd60e51b815260206004820152602e602482015260008051602062003dc083398151915260448201526d191e481a5b9a5d1a585b1a5e995960921b60648201526084016200010f565b506000805460ff191660ff92909216919091179055600190565b6001600160a01b03163b151590565b613c0880620001b86000396000f3fe608060405234801561001057600080fd5b50600436106104075760003560e01c806365cf377111610220578063c6929e5311610130578063e2bbb158116100b8578063f491adf711610087578063f491adf714610979578063f64682511461098c578063f92d34a9146109a1578063f930e770146109b4578063ff51a272146109c757600080fd5b8063e2bbb15814610937578063ed9bdeda1461094a578063eda6704814610953578063f1528cee1461096657600080fd5b8063d547741f116100ff578063d547741f146108df578063d56cf10f146108f2578063d79c395314610905578063d9608d8a1461090e578063ddaa26ad1461092e57600080fd5b8063c6929e5314610865578063c7b6e5251461086e578063c8ed768014610881578063cbd258b5146108bc57600080fd5b806398969e82116101b3578063a82859c511610182578063a82859c514610806578063ae169a5014610819578063b78777161461082c578063bd27e3f81461083f578063c35cadbe1461085257600080fd5b806398969e82146107cf5780639b963d2a146107e2578063a02306f9146107f5578063a217fddf146107fe57600080fd5b8063874feed3116101ef578063874feed3146107045780638dbb1e3a1461071757806391d148541461072a57806393f1a40b1461073d57600080fd5b806365cf3771146106c057806375b238fc146106d35780637c0c5788146106e857806382386d58146106f157600080fd5b806336568abe1161031b5780635312ea8e116102ae5780635eac62391161027d5780635eac62391461066c5780636066debd1461067f578063630b5ba11461069257806364482f791461069a5780636461fc8c146106ad57600080fd5b80635312ea8e1461062a5780635639e8cf1461063d57806356407a61146106505780635643759e1461065957600080fd5b8063441a3e70116102ea578063441a3e70146105e85780634abbbd28146105fb5780634b0cf2061461060457806351eb05a61461061757600080fd5b806336568abe146105a65780634004c8e7146105b957806343628fb4146105cc57806343e372c6146105d557600080fd5b80631526fe271161039e578063248a9ca31161036d578063248a9ca3146105375780632ab29df71461055a5780632f2ff15d1461056d57806332399e921461058057806335582e681461059357600080fd5b80631526fe27146104cc57806317caf6f1146105095780631b80c010146105115780631eaaa0451461052457600080fd5b8063081e3eda116103da578063081e3eda1461049557806309ae4d2c1461049d5780630a67d518146104b05780630d329fea146104b957600080fd5b806301ffc9a71461040c578063027e69991461043457806304aa0f611461045557806306bcf02f14610480575b600080fd5b61041f61041a3660046133d8565b6109e7565b60405190151581526020015b60405180910390f35b610447610442366004613402565b610a1e565b60405190815260200161042b565b60ce54610468906001600160a01b031681565b6040516001600160a01b03909116815260200161042b565b61049361048e366004613402565b610a3f565b005b60de54610447565b6104476104ab366004613402565b610a5d565b61044760db5481565b6104936104c73660046134eb565b610aa5565b6104df6104da366004613402565b610b4d565b604080516001600160a01b039095168552602085019390935291830152606082015260800161042b565b60d854610447565b61049361051f366004613552565b610b91565b6104936105323660046136cd565b610e5a565b610447610545366004613402565b60009081526065602052604090206001015490565b61049361056836600461370f565b6110cb565b61049361057b36600461370f565b611187565b60cd54610468906001600160a01b031681565b6104936105a136600461373f565b6111ac565b6104936105b436600461370f565b611204565b6104936105c7366004613402565b61127e565b61044760d85481565b6104936105e3366004613761565b61129c565b6104936105f636600461373f565b6113ff565b61044760d45481565b610447610612366004613402565b6117c1565b610493610625366004613402565b6117d1565b610493610638366004613402565b611e65565b60cb54610468906001600160a01b031681565b61044760d65481565b61049361066736600461378f565b611fdb565b61049361067a3660046137c7565b612041565b61049361068d36600461378f565b612081565b6104936120c3565b6104936106a83660046137fc565b6120ea565b6104936106bb366004613402565b612182565b6104936106ce3660046137c7565b6121a0565b610447600080516020613bb383398151915281565b61044760d55481565b6104936106ff36600461378f565b6121cb565b610447610712366004613402565b61220d565b61044761072536600461373f565b61221d565b61041f61073836600461370f565b61234c565b61079a61074b36600461370f565b60e0602052816000526040600020602052806000526040600020600091509150508060000154908060010154908060020154908060030154908060040154908060050154908060060154905087565b604080519788526020880196909652948601939093526060850191909152608084015260a083015260c082015260e00161042b565b6104476107dd36600461370f565b612377565b6104476107f0366004613402565b6124d5565b61044760dc5481565b610447600081565b610447610814366004613402565b612538565b610493610827366004613402565b612548565b61049361083a3660046137c7565b61255d565b61049361084d3660046137c7565b612588565b61049361086036600461373f565b6125b3565b61044760dd5481565b61044761087c36600461370f565b6125eb565b61089461088f36600461382a565b612645565b604080519586526020860194909452928401919091526060830152608082015260a00161042b565b61041f6108ca366004613856565b60e26020526000908152604090205460ff1681565b6104936108ed36600461370f565b612840565b60cc54610468906001600160a01b031681565b61044760cf5481565b61044761091c366004613856565b60e16020526000908152604090205481565b61044760d75481565b61049361094536600461373f565b612865565b61044760da5481565b610493610961366004613856565b61291a565b60ca54610468906001600160a01b031681565b610447610987366004613402565b612995565b610447600080516020613b9383398151915281565b60c954610468906001600160a01b031681565b6104476109c236600461373f565b6129a5565b6104476109d5366004613856565b60df6020526000908152604090205481565b60006001600160e01b03198216637965db0b60e01b1480610a1857506301ffc9a760e01b6001600160e01b03198316145b92915050565b60d18181548110610a2e57600080fd5b600091825260209091200154905081565b600080516020613b93833981519152610a5781612a63565b5060d755565b600081815260e0602090815260408083203384529091528120600381015415610a96576003810154610a8f9042613889565b9392505050565b6004810154610a8f9042613889565b600080516020613b93833981519152610abd81612a63565b8260011415610adf578151610ad99060d2906020850190613378565b50505050565b8260021415610afb578151610ad99060d3906020850190613378565b60405162461bcd60e51b815260206004820152601760248201527f496e76616c6964206b696e64206964656e74696669657200000000000000000060448201526064015b60405180910390fd5b505050565b60de8181548110610b5d57600080fd5b600091825260209091206004909102018054600182015460028301546003909301546001600160a01b039092169350919084565b6000610b9d6001612a6d565b90508015610bb5576000805461ff0019166101001790555b610bbd612afa565b610bc5612b23565b610bd0600033612b52565b610be8600080516020613bb383398151915233612b52565b610c00600080516020613b9383398151915233612b52565b6101608201518051610c1a9160d291602090910190613378565b506101808201518051610c359160d391602090910190613378565b50815160c980546001600160a01b0319166001600160a01b0390921691909117905560208083015160cf55604083015160d755608083015160d55560a083015160d6556101408301518051610c8e9260d0920190613378565b5060c082015160cb80546001600160a01b039283166001600160a01b03199182161790915560e084015160cc805491841691831691909117905561010084015160cd805491841691831691909117905561012084015160ce80549190931691161790556101a08201518051610d0b9160d991602090910190613378565b50600060d88190555b60d054610d2390600190613889565b811015610da7576040830151600090610d3d8360016138a0565b8560600151610d4c91906138b8565b610d5691906138a0565b610d619060016138a0565b60d180546001810182556000919091527f695fb3134ad82c3b8022bc5464edd0bcc9424ef672b52245dcb6ab2374327ce301555080610d9f816138d7565b915050610d14565b50604082015160d054610dbc90600190613889565b8360600151610dcb91906138b8565b610dd591906138a0565b60d45560d180546001810182556000919091526000197f695fb3134ad82c3b8022bc5464edd0bcc9424ef672b52245dcb6ab2374327ce3909101558015610e56576000805461ff0019169055604051600181527f7f26b83ff96e1f2b6a682f133852f6798a09c465da95921460cefb38474024989060200160405180910390a15b5050565b600080516020613bb3833981519152610e7281612a63565b6001600160a01b038316600090815260e26020526040902054839060ff1615610eef5760405162461bcd60e51b815260206004820152602960248201527f4d6173746572496e766573746f723a3a6e6f6e4475706c6963617465643a20646044820152681d5c1b1a58d85d195960ba1b6064820152608401610b3f565b6001600160a01b038416600090815260df602052604090205415610f685760405162461bcd60e51b815260206004820152602a60248201527f4d6173746572496e766573746f723a3a6164643a206c7020697320616c726561604482015269191e481a5b881c1bdbdb60b21b6064820152608401610b3f565b8215610f7657610f766120c3565b600060d7544211610f895760d754610f8b565b425b90508560d86000828254610f9f91906138a0565b909155505060de54610fb29060016138a0565b6001600160a01b03958616600081815260df602090815260408083209490945560e281528382208054600160ff1990911681179091558451608081018652938452908301998a529282019384526060820181815260de8054948501815590915290517ffae8130c0619f84b4b44f01b84806f04e82e536d70e05f2356977fa318aecc1a600490930292830180546001600160a01b031916919098161790965595517ffae8130c0619f84b4b44f01b84806f04e82e536d70e05f2356977fa318aecc1b870155517ffae8130c0619f84b4b44f01b84806f04e82e536d70e05f2356977fa318aecc1c860155505090517ffae8130c0619f84b4b44f01b84806f04e82e536d70e05f2356977fa318aecc1d9092019190915550565b600080516020613b938339815191526110e381612a63565b826001141561110c5760cb80546001600160a01b0319166001600160a01b038416179055505050565b82600214156111355760cc80546001600160a01b0319166001600160a01b038416179055505050565b826003141561115e5760cd80546001600160a01b0319166001600160a01b038416179055505050565b8260041415610afb5760ce80546001600160a01b0319166001600160a01b038416179055505050565b6000828152606560205260409020600101546111a281612a63565b610b488383612b52565b600080516020613b938339815191526111c481612a63565b82600114156111d4575060da5550565b82600214156111e4575060db5550565b82600314156111f4575060dc5550565b8260041415610afb575060dd5550565b6001600160a01b03811633146112745760405162461bcd60e51b815260206004820152602f60248201527f416363657373436f6e74726f6c3a2063616e206f6e6c792072656e6f756e636560448201526e103937b632b9903337b91039b2b63360891b6064820152608401610b3f565b610e568282612bd8565b600080516020613b9383398151915261129681612a63565b5060cf55565b600260975414156112bf5760405162461bcd60e51b8152600401610b3f906138f2565b6002609755600080516020613b938339815191526112dc81612a63565b600060de85815481106112f1576112f1613929565b6000918252602080832088845260e0825260408085206001600160a01b038916865290925292208054600490920290920192508511156113435760405162461bcd60e51b8152600401610b3f9061393f565b61134c866117d1565b6113568685612c3f565b84156113f257848160000160008282546113709190613889565b9091555050815461138b906001600160a01b03168587612f14565b6003820154815464e8d4a51000916113a2916138b8565b6113ac9190613981565b600182015560405185815286906001600160a01b038616907ff279e6a1f5e320cca91135676d9cb6e44ca8a08c0b88342bcdb1144f6511b5689060200160405180910390a35b5050600160975550505050565b600260975414156114225760405162461bcd60e51b8152600401610b3f906138f2565b6002609781905550600060de838154811061143f5761143f613929565b6000918252602080832086845260e0909152604083206004909202019250816114653390565b6001600160a01b03166001600160a01b03168152602001908152602001600020905082816000015410156114ab5760405162461bcd60e51b8152600401610b3f9061393f565b6114b4846117d1565b6114bd84612f6a565b82156117b657828160000160008282546114d79190613889565b90915550506003810154156114ff5760038101546114f59042613889565b6005820155611514565b600481015461150e9042613889565b60058201555b6006810154839060009042141561156257606460d360008154811061153b5761153b613929565b90600052602060002001548661155191906138b8565b61155b9190613981565b905061171d565b600183600501541015801561157c5750610e108360050154105b1561159757606460d360018154811061153b5761153b613929565b610e108360050154101580156115b35750620151808360050154105b156115ce57606460d360028154811061153b5761153b613929565b620151808360050154101580156115eb57506203f4808360050154105b1561160657606460d360038154811061153b5761153b613929565b6203f4808360050154101580156116235750620697808360050154105b1561163e57606460d360048154811061153b5761153b613929565b6206978083600501541015801561165b5750621275008360050154105b15611677576103e860d360058154811061153b5761153b613929565b6212750083600501541015801561169457506224ea008360050154105b156116b05761271060d360068154811061153b5761153b613929565b6224ea008360050154106116d55761271060d360078154811061153b5761153b613929565b60405162461bcd60e51b815260206004820152601860248201527f536f6d657468696e6720697320766572792062726f6b656e00000000000000006044820152606401610b3f565b611734335b85546001600160a01b03169084612f14565b60cb548454611750916001600160a01b03918216911683612f14565b6003840154835464e8d4a5100091611767916138b8565b6117719190613981565b6001840155604051858152869033907ff279e6a1f5e320cca91135676d9cb6e44ca8a08c0b88342bcdb1144f6511b5689060200160405180910390a350504260038201555b505060016097555050565b60d28181548110610a2e57600080fd5b600060de82815481106117e6576117e6613929565b9060005260206000209060040201905080600201544211611805575050565b80546040516370a0823160e01b81523060048201526000916001600160a01b0316906370a082319060240160206040518083038186803b15801561184857600080fd5b505afa15801561185c573d6000803e3d6000fd5b505050506040513d601f19601f8201168201806040525081019061188091906139a3565b905080158061189157506001820154155b156118a157504260029091015550565b60008060008060006118bc8760020154428960010154612645565b60c9546040516340c10f1960e01b8152959a50939850919650945092506001600160a01b0316906340c10f19906118f990309088906004016139bc565b600060405180830381600087803b15801561191357600080fd5b505af1158015611927573d6000803e3d6000fd5b50505050858464e8d4a5100061193d91906138b8565b6119479190613981565b87600301600082825461195a91906138a0565b909155505042600288015573465d89df3e9b1afb6957b58be6137feebb8e9f618515611ab257600060d4544211156119935760006119aa565b60646119a088604b6138b8565b6119aa9190613981565b9050600060d4544211156119be57876119d5565b60646119cb8960196138b8565b6119d59190613981565b60c95460cb546040516340c10f1960e01b81529293506001600160a01b03918216926340c10f1992611a0d92169085906004016139bc565b600060405180830381600087803b158015611a2757600080fd5b505af1158015611a3b573d6000803e3d6000fd5b505050506000821115611aaf5760cb546040516328a1f12360e11b81526001600160a01b0385811692635143e24692611a7c929091169086906004016139bc565b600060405180830381600087803b158015611a9657600080fd5b505af1158015611aaa573d6000803e3d6000fd5b505050505b50505b8315611bea57600060d454421115611acb576000611ae2565b6064611ad886602d6138b8565b611ae29190613981565b9050600060d454421115611af65785611b0d565b6064611b038760376138b8565b611b0d9190613981565b60c95460cc546040516340c10f1960e01b81529293506001600160a01b03918216926340c10f1992611b4592169085906004016139bc565b600060405180830381600087803b158015611b5f57600080fd5b505af1158015611b73573d6000803e3d6000fd5b505050506000821115611be75760cc546040516328a1f12360e11b81526001600160a01b0385811692635143e24692611bb4929091169086906004016139bc565b600060405180830381600087803b158015611bce57600080fd5b505af1158015611be2573d6000803e3d6000fd5b505050505b50505b8215611d2257600060d454421115611c03576000611c1a565b6064611c108560556138b8565b611c1a9190613981565b9050600060d454421115611c2e5784611c45565b6064611c3b86600f6138b8565b611c459190613981565b60c95460cd546040516340c10f1960e01b81529293506001600160a01b03918216926340c10f1992611c7d92169085906004016139bc565b600060405180830381600087803b158015611c9757600080fd5b505af1158015611cab573d6000803e3d6000fd5b505050506000821115611d1f5760cd546040516328a1f12360e11b81526001600160a01b0385811692635143e24692611cec929091169086906004016139bc565b600060405180830381600087803b158015611d0657600080fd5b505af1158015611d1a573d6000803e3d6000fd5b505050505b50505b8115611e5a57600060d454421115611d3b576000611d52565b6064611d4884605f6138b8565b611d529190613981565b9050600060d454421115611d665783611d7d565b6064611d738560056138b8565b611d7d9190613981565b60c95460ce546040516340c10f1960e01b81529293506001600160a01b03918216926340c10f1992611db592169085906004016139bc565b600060405180830381600087803b158015611dcf57600080fd5b505af1158015611de3573d6000803e3d6000fd5b505050506000821115611e575760ce546040516328a1f12360e11b81526001600160a01b0385811692635143e24692611e24929091169086906004016139bc565b600060405180830381600087803b158015611e3e57600080fd5b505af1158015611e52573d6000803e3d6000fd5b505050505b50505b505050505050505050565b60026097541415611e885760405162461bcd60e51b8152600401610b3f906138f2565b6002609781905550600060de8281548110611ea557611ea5613929565b6000918252602080832085845260e090915260408320600490920201925081611ecb3390565b6001600160a01b03166001600160a01b0316815260200190815260200160002090506000606460d2600081548110611f0557611f05613929565b90600052602060002001548360000154611f1f91906138b8565b611f299190613981565b90506000606460d3600081548110611f4357611f43613929565b90600052602060002001548460000154611f5d91906138b8565b611f679190613981565b600080855560018501559050611f7c33611722565b60cb548454611f98916001600160a01b03918216911683612f14565b604051828152859033907fbb757047c2b5f3974fe26b7c10f732e7bce710b0952a71082702781e62ae05959060200160405180910390a350506001609755505050565b600080516020613b93833981519152611ff381612a63565b600060de858154811061200857612008613929565b600091825260209091206004909102018054909150612031906001600160a01b03168585612f14565b61203a856117d1565b5050505050565b60005b8151811015610e565761206f82828151811061206257612062613929565b6020026020010151612548565b80612079816138d7565b915050612044565b600080516020613b9383398151915261209981612a63565b50600092835260e0602090815260408085206001600160a01b039094168552929052912060030155565b60de5460005b81811015610e56576120da816117d1565b6120e3816138d7565b90506120c9565b600080516020613bb383398151915261210281612a63565b8115612110576121106120c3565b8260de858154811061212457612124613929565b90600052602060002090600402016001015460d8546121439190613889565b61214d91906138a0565b60d8819055508260de858154811061216757612167613929565b90600052602060002090600402016001018190555050505050565b600080516020613b9383398151915261219a81612a63565b5060d455565b600080516020613b938339815191526121b881612a63565b8151610b489060d9906020850190613378565b600080516020613b938339815191526121e381612a63565b50600092835260e0602090815260408085206001600160a01b039094168552929052912060040155565b60d08181548110610a2e57600080fd5b60d7546000908190841015612236576000915050610a18565b60005b60d15481101561234457600060d1828154811061225857612258613929565b90600052602060002001549050600160d0805490506122779190613889565b82111561228a5760009350505050610a18565b8085116122de57600060d083815481106122a6576122a6613929565b906000526020600020015487876122bd9190613889565b6122c791906138b8565b90506122d381856138a0565b945050505050610a18565b8086101561233157600060d083815481106122fb576122fb613929565b906000526020600020015487836123129190613889565b61231c91906138b8565b9050819650808461232d91906138a0565b9350505b508061233c816138d7565b915050612239565b509392505050565b60009182526065602090815260408084206001600160a01b0393909316845291905290205460ff1690565b60008060de848154811061238d5761238d613929565b6000918252602080832087845260e0825260408085206001600160a01b038981168752935280852060049485029092016003810154815492516370a0823160e01b8152309681019690965290965091949193919216906370a082319060240160206040518083038186803b15801561240457600080fd5b505afa158015612418573d6000803e3d6000fd5b505050506040513d601f19601f8201168201806040525081019061243c91906139a3565b90508360020154421180156124515750600081115b1561249d57600061246b8560020154428760010154612645565b50919350849250612485915083905064e8d4a510006138b8565b61248f9190613981565b61249990846138a0565b9250505b6001830154835464e8d4a51000906124b69085906138b8565b6124c09190613981565b6124ca9190613889565b979650505050505050565b6000806124ec6124e6600142613889565b4261221d565b905060d85460de848154811061250457612504613929565b90600052602060002090600402016001015460cf548361252491906138b8565b61252e91906138b8565b610a8f9190613981565b60d98181548110610a2e57600080fd5b612551816117d1565b61255a81612f6a565b50565b600080516020613b9383398151915261257581612a63565b8151610b489060d1906020850190613378565b600080516020613b938339815191526125a081612a63565b8151610b489060d0906020850190613378565b600080516020613b938339815191526125cb81612a63565b82600114156125db575060d55550565b8260021415610afb575060d65550565b600082815260e0602090815260408083206001600160a01b0385168452909152812060038101541561262e5760038101546126269042613889565b915050610a18565b600481015461263d9042613889565b949350505050565b600080600080600080612658898961221d565b9050600060d8548860cf548461266e91906138b8565b61267891906138b8565b6126829190613981565b9050600060c960009054906101000a90046001600160a01b03166001600160a01b03166318160ddd6040518163ffffffff1660e01b815260040160206040518083038186803b1580156126d457600080fd5b505afa1580156126e8573d6000803e3d6000fd5b505050506040513d601f19601f8201168201806040525081019061270c91906139a3565b60c960009054906101000a90046001600160a01b03166001600160a01b031663355274ea6040518163ffffffff1660e01b815260040160206040518083038186803b15801561275a57600080fd5b505afa15801561276e573d6000803e3d6000fd5b505050506040513d601f19601f8201168201806040525081019061279291906139a3565b61279c9190613889565b9050818110156127be5760009750809650600095506000945060009350612832565b606460da54836127ce91906138b8565b6127d89190613981565b9750819650606460db54836127ed91906138b8565b6127f79190613981565b9550606460dc548361280991906138b8565b6128139190613981565b9450606460dd548361282591906138b8565b61282f9190613981565b93505b505050939792965093509350565b60008281526065602052604090206001015461285b81612a63565b610b488383612bd8565b600260975414156128885760405162461bcd60e51b8152600401610b3f906138f2565b600260975560405162461bcd60e51b815260206004820152605660248201527f4d6173746572496e766573746f723a3a4465706f736974732064697361626c6560448201527f642e20506c6561736520636865636b20646973636f72642e2068747470733a2f6064820152750bd95d9bdd995c9cd95ccb98dbdb4bd91a5cd8dbdc9960521b608482015260a401610b3f565b600080516020613b9383398151915261293281612a63565b60c95460405163f2fde38b60e01b81526001600160a01b0384811660048301529091169063f2fde38b90602401600060405180830381600087803b15801561297957600080fd5b505af115801561298d573d6000803e3d6000fd5b505050505050565b60d38181548110610a2e57600080fd5b60d75460009081908410156129be576064915050610a18565b60005b60d15481101561234457600060d182815481106129e0576129e0613929565b90600052602060002001549050600160d9805490506129ff9190613889565b821115612a125760009350505050610a18565b808511612a415760d98281548110612a2c57612a2c613929565b90600052602060002001549350505050610a18565b5080612a4c816138d7565b9150506129c1565b6001600160a01b03163b151590565b61255a8133612f74565b60008054610100900460ff1615612ab4578160ff166001148015612a905750303b155b612aac5760405162461bcd60e51b8152600401610b3f906139d5565b506000919050565b60005460ff808416911610612adb5760405162461bcd60e51b8152600401610b3f906139d5565b506000805460ff191660ff92909216919091179055600190565b919050565b600054610100900460ff16612b215760405162461bcd60e51b8152600401610b3f90613a23565b565b600054610100900460ff16612b4a5760405162461bcd60e51b8152600401610b3f90613a23565b612b21612fd8565b612b5c828261234c565b610e565760008281526065602090815260408083206001600160a01b03851684529091529020805460ff19166001179055612b943390565b6001600160a01b0316816001600160a01b0316837f2f8788117e7eff1d82e926ec794901d17c78024a50270940304540a733656f0d60405160405180910390a45050565b612be2828261234c565b15610e565760008281526065602090815260408083206001600160a01b0385168085529252808320805460ff1916905551339285917ff6391f5c32d9c69d2a47ea670b442974b53935d1edc7fd64eb21e047a839171b9190a45050565b600060de8381548110612c5457612c54613929565b6000918252602080832086845260e0825260408085206001600160a01b0388168652909252922080546004909202909201925015610ad9576000816001015464e8d4a5100084600301548460000154612cad91906138b8565b612cb79190613981565b612cc19190613889565b60c9546040516370a0823160e01b81523060048201529192506000916001600160a01b03909116906370a082319060240160206040518083038186803b158015612d0a57600080fd5b505afa158015612d1e573d6000803e3d6000fd5b505050506040513d601f19601f82011682018060405250810190612d4291906139a3565b905080821115612d50578091505b8115612ee657600060d454846002015411612d97576000612d7b612d75600142613889565b426129a5565b90506064612d8982866138b8565b612d939190613981565b9150505b60c9546001600160a01b031663a9059cbb87612db38487613889565b6040518363ffffffff1660e01b8152600401612dd09291906139bc565b602060405180830381600087803b158015612dea57600080fd5b505af1158015612dfe573d6000803e3d6000fd5b505050506040513d601f19601f82011682018060405250810190612e229190613a6e565b508015612e98576040516328a1f12360e11b815273465d89df3e9b1afb6957b58be6137feebb8e9f61908190635143e24690612e64908a9086906004016139bc565b600060405180830381600087803b158015612e7e57600080fd5b505af1158015612e92573d6000803e3d6000fd5b50505050505b426002850155604080518481526020810183905288916001600160a01b038916917f3887f2857beaaf367eb618dfb5e22c1ebd74425affb0602c2e9fe126e3f860eb910160405180910390a3505b6003840154835464e8d4a5100091612efd916138b8565b612f079190613981565b6001840155505050505050565b610b488363a9059cbb60e01b8484604051602401612f339291906139bc565b60408051601f198184030181529190526020810180516001600160e01b03166001600160e01b031990931692909217909152613006565b61255a8133612c3f565b612f7e828261234c565b610e5657612f96816001600160a01b031660146130d8565b612fa18360206130d8565b604051602001612fb2929190613ab7565b60408051601f198184030181529082905262461bcd60e51b8252610b3f91600401613b2c565b600054610100900460ff16612fff5760405162461bcd60e51b8152600401610b3f90613a23565b6001609755565b600061305b826040518060400160405280602081526020017f5361666545524332303a206c6f772d6c6576656c2063616c6c206661696c6564815250856001600160a01b03166132749092919063ffffffff16565b805190915015610b4857808060200190518101906130799190613a6e565b610b485760405162461bcd60e51b815260206004820152602a60248201527f5361666545524332303a204552433230206f7065726174696f6e20646964206e6044820152691bdd081cdd58d8d9595960b21b6064820152608401610b3f565b606060006130e78360026138b8565b6130f29060026138a0565b67ffffffffffffffff81111561310a5761310a61341b565b6040519080825280601f01601f191660200182016040528015613134576020820181803683370190505b509050600360fc1b8160008151811061314f5761314f613929565b60200101906001600160f81b031916908160001a905350600f60fb1b8160018151811061317e5761317e613929565b60200101906001600160f81b031916908160001a90535060006131a28460026138b8565b6131ad9060016138a0565b90505b6001811115613225576f181899199a1a9b1b9c1cb0b131b232b360811b85600f16601081106131e1576131e1613929565b1a60f81b8282815181106131f7576131f7613929565b60200101906001600160f81b031916908160001a90535060049490941c9361321e81613b5f565b90506131b0565b508315610a8f5760405162461bcd60e51b815260206004820181905260248201527f537472696e67733a20686578206c656e67746820696e73756666696369656e746044820152606401610b3f565b606061263d8484600085856001600160a01b0385163b6132d65760405162461bcd60e51b815260206004820152601d60248201527f416464726573733a2063616c6c20746f206e6f6e2d636f6e74726163740000006044820152606401610b3f565b600080866001600160a01b031685876040516132f29190613b76565b60006040518083038185875af1925050503d806000811461332f576040519150601f19603f3d011682016040523d82523d6000602084013e613334565b606091505b50915091506124ca8282866060831561334e575081610a8f565b82511561335e5782518084602001fd5b8160405162461bcd60e51b8152600401610b3f9190613b2c565b8280548282559060005260206000209081019282156133b3579160200282015b828111156133b3578251825591602001919060010190613398565b506133bf9291506133c3565b5090565b5b808211156133bf57600081556001016133c4565b6000602082840312156133ea57600080fd5b81356001600160e01b031981168114610a8f57600080fd5b60006020828403121561341457600080fd5b5035919050565b634e487b7160e01b600052604160045260246000fd5b6040516101c0810167ffffffffffffffff811182821017156134555761345561341b565b60405290565b600082601f83011261346c57600080fd5b8135602067ffffffffffffffff808311156134895761348961341b565b8260051b604051601f19603f830116810181811084821117156134ae576134ae61341b565b6040529384528581018301938381019250878511156134cc57600080fd5b83870191505b848210156124ca578135835291830191908301906134d2565b600080604083850312156134fe57600080fd5b82359150602083013567ffffffffffffffff81111561351c57600080fd5b6135288582860161345b565b9150509250929050565b6001600160a01b038116811461255a57600080fd5b8035612af581613532565b60006020828403121561356457600080fd5b813567ffffffffffffffff8082111561357c57600080fd5b908301906101c0828603121561359157600080fd5b613599613431565b6135a283613547565b81526020830135602082015260408301356040820152606083013560608201526080830135608082015260a083013560a08201526135e260c08401613547565b60c08201526135f360e08401613547565b60e0820152610100613606818501613547565b90820152610120613618848201613547565b90820152610140838101358381111561363057600080fd5b61363c8882870161345b565b828401525050610160808401358381111561365657600080fd5b6136628882870161345b565b828401525050610180808401358381111561367c57600080fd5b6136888882870161345b565b8284015250506101a080840135838111156136a257600080fd5b6136ae8882870161345b565b918301919091525095945050505050565b801515811461255a57600080fd5b6000806000606084860312156136e257600080fd5b8335925060208401356136f481613532565b91506040840135613704816136bf565b809150509250925092565b6000806040838503121561372257600080fd5b82359150602083013561373481613532565b809150509250929050565b6000806040838503121561375257600080fd5b50508035926020909101359150565b60008060006060848603121561377657600080fd5b8335925060208401359150604084013561370481613532565b6000806000606084860312156137a457600080fd5b8335925060208401356137b681613532565b929592945050506040919091013590565b6000602082840312156137d957600080fd5b813567ffffffffffffffff8111156137f057600080fd5b61263d8482850161345b565b60008060006060848603121561381157600080fd5b83359250602084013591506040840135613704816136bf565b60008060006060848603121561383f57600080fd5b505081359360208301359350604090920135919050565b60006020828403121561386857600080fd5b8135610a8f81613532565b634e487b7160e01b600052601160045260246000fd5b60008282101561389b5761389b613873565b500390565b600082198211156138b3576138b3613873565b500190565b60008160001904831182151516156138d2576138d2613873565b500290565b60006000198214156138eb576138eb613873565b5060010190565b6020808252601f908201527f5265656e7472616e637947756172643a207265656e7472616e742063616c6c00604082015260600190565b634e487b7160e01b600052603260045260246000fd5b60208082526022908201527f4d6173746572496e766573746f723a3a77697468647261773a206e6f7420676f6040820152611bd960f21b606082015260800190565b60008261399e57634e487b7160e01b600052601260045260246000fd5b500490565b6000602082840312156139b557600080fd5b5051919050565b6001600160a01b03929092168252602082015260400190565b6020808252602e908201527f496e697469616c697a61626c653a20636f6e747261637420697320616c72656160408201526d191e481a5b9a5d1a585b1a5e995960921b606082015260800190565b6020808252602b908201527f496e697469616c697a61626c653a20636f6e7472616374206973206e6f74206960408201526a6e697469616c697a696e6760a81b606082015260800190565b600060208284031215613a8057600080fd5b8151610a8f816136bf565b60005b83811015613aa6578181015183820152602001613a8e565b83811115610ad95750506000910152565b7f416363657373436f6e74726f6c3a206163636f756e7420000000000000000000815260008351613aef816017850160208801613a8b565b7001034b99036b4b9b9b4b733903937b6329607d1b6017918401918201528351613b20816028840160208801613a8b565b01602801949350505050565b6020815260008251806020840152613b4b816040850160208701613a8b565b601f01601f19169190910160400192915050565b600081613b6e57613b6e613873565b506000190190565b60008251613b88818460208701613a8b565b919091019291505056fe0393b4c1b6519e8b53ae0efa1ab522060a3b9f8d86d09c8a22ca6d6eea735cf7a49807205ce4d355092ef5a8a18f56e8913cf4a201fbe287825b095693c21775a264697066735822122070e32308067f4faf16ec44cd3efcfbe7cdcc17d8781e1e1094407b1ea498361b64736f6c63430008090033496e697469616c697a61626c653a20636f6e747261637420697320616c726561",
  "linkReferences": {},
  "deployedLinkReferences": {}
}