{
  "_format": "hh-sol-artifact-1",
  "contractName": "EvoToken",
  "sourceName": "contracts/deprecated/EvoToken.sol",
  "abi": [
    {
      "inputs": [
        {
          "internalType": "string",
          "name": "_name",
          "type": "string"
        },
        {
          "internalType": "string",
          "name": "_symbol",
          "type": "string"
        },
        {
          "internalType": "uint256",
          "name": "cap_",
          "type": "uint256"
        },
        {
          "internalType": "uint256",
          "name": "_manualMintLimit",
          "type": "uint256"
        },
        {
          "internalType": "uint256",
          "name": "_lockFromBlock",
          "type": "uint256"
        },
        {
          "internalType": "uint256",
          "name": "_lockToBlock",
          "type": "uint256"
        }
      ],
      "stateMutability": "nonpayable",
      "type": "constructor"
    },
    {
      "anonymous": false,
      "inputs": [
        {
          "indexed": true,
          "internalType": "address",
          "name": "owner",
          "type": "address"
        },
        {
          "indexed": true,
          "internalType": "address",
          "name": "spender",
          "type": "address"
        },
        {
          "indexed": false,
          "internalType": "uint256",
          "name": "value",
          "type": "uint256"
        }
      ],
      "name": "Approval",
      "type": "event"
    },
    {
      "anonymous": false,
      "inputs": [
        {
          "indexed": true,
          "internalType": "address",
          "name": "delegator",
          "type": "address"
        },
        {
          "indexed": true,
          "internalType": "address",
          "name": "fromDelegate",
          "type": "address"
        },
        {
          "indexed": true,
          "internalType": "address",
          "name": "toDelegate",
          "type": "address"
        }
      ],
      "name": "DelegateChanged",
      "type": "event"
    },
    {
      "anonymous": false,
      "inputs": [
        {
          "indexed": true,
          "internalType": "address",
          "name": "delegate",
          "type": "address"
        },
        {
          "indexed": false,
          "internalType": "uint256",
          "name": "previousBalance",
          "type": "uint256"
        },
        {
          "indexed": false,
          "internalType": "uint256",
          "name": "newBalance",
          "type": "uint256"
        }
      ],
      "name": "DelegateVotesChanged",
      "type": "event"
    },
    {
      "anonymous": false,
      "inputs": [
        {
          "indexed": true,
          "internalType": "address",
          "name": "to",
          "type": "address"
        },
        {
          "indexed": false,
          "internalType": "uint256",
          "name": "value",
          "type": "uint256"
        }
      ],
      "name": "Lock",
      "type": "event"
    },
    {
      "anonymous": false,
      "inputs": [
        {
          "indexed": false,
          "internalType": "uint256",
          "name": "previousRate",
          "type": "uint256"
        },
        {
          "indexed": false,
          "internalType": "uint256",
          "name": "newRate",
          "type": "uint256"
        }
      ],
      "name": "MaxTransferAmountRateUpdated",
      "type": "event"
    },
    {
      "anonymous": false,
      "inputs": [
        {
          "indexed": true,
          "internalType": "address",
          "name": "previousOwner",
          "type": "address"
        },
        {
          "indexed": true,
          "internalType": "address",
          "name": "newOwner",
          "type": "address"
        }
      ],
      "name": "OwnershipTransferred",
      "type": "event"
    },
    {
      "anonymous": false,
      "inputs": [
        {
          "indexed": true,
          "internalType": "address",
          "name": "from",
          "type": "address"
        },
        {
          "indexed": true,
          "internalType": "address",
          "name": "to",
          "type": "address"
        },
        {
          "indexed": false,
          "internalType": "uint256",
          "name": "value",
          "type": "uint256"
        }
      ],
      "name": "Transfer",
      "type": "event"
    },
    {
      "anonymous": false,
      "inputs": [
        {
          "indexed": true,
          "internalType": "address",
          "name": "to",
          "type": "address"
        },
        {
          "indexed": false,
          "internalType": "uint256",
          "name": "value",
          "type": "uint256"
        }
      ],
      "name": "Unlock",
      "type": "event"
    },
    {
      "inputs": [],
      "name": "DELEGATION_TYPEHASH",
      "outputs": [
        {
          "internalType": "bytes32",
          "name": "",
          "type": "bytes32"
        }
      ],
      "stateMutability": "view",
      "type": "function"
    },
    {
      "inputs": [],
      "name": "DOMAIN_TYPEHASH",
      "outputs": [
        {
          "internalType": "bytes32",
          "name": "",
          "type": "bytes32"
        }
      ],
      "stateMutability": "view",
      "type": "function"
    },
    {
      "inputs": [
        {
          "internalType": "address",
          "name": "_toAdd",
          "type": "address"
        }
      ],
      "name": "addAuthorized",
      "outputs": [],
      "stateMutability": "nonpayable",
      "type": "function"
    },
    {
      "inputs": [
        {
          "internalType": "address",
          "name": "owner",
          "type": "address"
        },
        {
          "internalType": "address",
          "name": "spender",
          "type": "address"
        }
      ],
      "name": "allowance",
      "outputs": [
        {
          "internalType": "uint256",
          "name": "",
          "type": "uint256"
        }
      ],
      "stateMutability": "view",
      "type": "function"
    },
    {
      "inputs": [
        {
          "internalType": "address",
          "name": "spender",
          "type": "address"
        },
        {
          "internalType": "uint256",
          "name": "amount",
          "type": "uint256"
        }
      ],
      "name": "approve",
      "outputs": [
        {
          "internalType": "bool",
          "name": "",
          "type": "bool"
        }
      ],
      "stateMutability": "nonpayable",
      "type": "function"
    },
    {
      "inputs": [
        {
          "internalType": "address",
          "name": "",
          "type": "address"
        }
      ],
      "name": "authorized",
      "outputs": [
        {
          "internalType": "bool",
          "name": "",
          "type": "bool"
        }
      ],
      "stateMutability": "view",
      "type": "function"
    },
    {
      "inputs": [
        {
          "internalType": "address",
          "name": "account",
          "type": "address"
        }
      ],
      "name": "balanceOf",
      "outputs": [
        {
          "internalType": "uint256",
          "name": "",
          "type": "uint256"
        }
      ],
      "stateMutability": "view",
      "type": "function"
    },
    {
      "inputs": [
        {
          "internalType": "address",
          "name": "_holder",
          "type": "address"
        }
      ],
      "name": "canUnlockAmount",
      "outputs": [
        {
          "internalType": "uint256",
          "name": "",
          "type": "uint256"
        }
      ],
      "stateMutability": "view",
      "type": "function"
    },
    {
      "inputs": [],
      "name": "cap",
      "outputs": [
        {
          "internalType": "uint256",
          "name": "",
          "type": "uint256"
        }
      ],
      "stateMutability": "view",
      "type": "function"
    },
    {
      "inputs": [
        {
          "internalType": "uint256",
          "name": "_newCap",
          "type": "uint256"
        }
      ],
      "name": "capUpdate",
      "outputs": [],
      "stateMutability": "nonpayable",
      "type": "function"
    },
    {
      "inputs": [
        {
          "internalType": "address",
          "name": "",
          "type": "address"
        },
        {
          "internalType": "uint32",
          "name": "",
          "type": "uint32"
        }
      ],
      "name": "checkpoints",
      "outputs": [
        {
          "internalType": "uint32",
          "name": "fromBlock",
          "type": "uint32"
        },
        {
          "internalType": "uint256",
          "name": "votes",
          "type": "uint256"
        }
      ],
      "stateMutability": "view",
      "type": "function"
    },
    {
      "inputs": [],
      "name": "circulatingSupply",
      "outputs": [
        {
          "internalType": "uint256",
          "name": "",
          "type": "uint256"
        }
      ],
      "stateMutability": "view",
      "type": "function"
    },
    {
      "inputs": [],
      "name": "decimals",
      "outputs": [
        {
          "internalType": "uint8",
          "name": "",
          "type": "uint8"
        }
      ],
      "stateMutability": "view",
      "type": "function"
    },
    {
      "inputs": [
        {
          "internalType": "address",
          "name": "spender",
          "type": "address"
        },
        {
          "internalType": "uint256",
          "name": "subtractedValue",
          "type": "uint256"
        }
      ],
      "name": "decreaseAllowance",
      "outputs": [
        {
          "internalType": "bool",
          "name": "",
          "type": "bool"
        }
      ],
      "stateMutability": "nonpayable",
      "type": "function"
    },
    {
      "inputs": [
        {
          "internalType": "address",
          "name": "delegatee",
          "type": "address"
        }
      ],
      "name": "delegate",
      "outputs": [],
      "stateMutability": "nonpayable",
      "type": "function"
    },
    {
      "inputs": [
        {
          "internalType": "address",
          "name": "delegatee",
          "type": "address"
        },
        {
          "internalType": "uint256",
          "name": "nonce",
          "type": "uint256"
        },
        {
          "internalType": "uint256",
          "name": "expiry",
          "type": "uint256"
        },
        {
          "internalType": "uint8",
          "name": "v",
          "type": "uint8"
        },
        {
          "internalType": "bytes32",
          "name": "r",
          "type": "bytes32"
        },
        {
          "internalType": "bytes32",
          "name": "s",
          "type": "bytes32"
        }
      ],
      "name": "delegateBySig",
      "outputs": [],
      "stateMutability": "nonpayable",
      "type": "function"
    },
    {
      "inputs": [
        {
          "internalType": "address",
          "name": "delegator",
          "type": "address"
        }
      ],
      "name": "delegates",
      "outputs": [
        {
          "internalType": "address",
          "name": "",
          "type": "address"
        }
      ],
      "stateMutability": "view",
      "type": "function"
    },
    {
      "inputs": [],
      "name": "getChainId",
      "outputs": [
        {
          "internalType": "uint256",
          "name": "",
          "type": "uint256"
        }
      ],
      "stateMutability": "view",
      "type": "function"
    },
    {
      "inputs": [
        {
          "internalType": "address",
          "name": "account",
          "type": "address"
        }
      ],
      "name": "getCurrentVotes",
      "outputs": [
        {
          "internalType": "uint256",
          "name": "",
          "type": "uint256"
        }
      ],
      "stateMutability": "view",
      "type": "function"
    },
    {
      "inputs": [
        {
          "internalType": "address",
          "name": "account",
          "type": "address"
        },
        {
          "internalType": "uint256",
          "name": "blockNumber",
          "type": "uint256"
        }
      ],
      "name": "getPriorVotes",
      "outputs": [
        {
          "internalType": "uint256",
          "name": "",
          "type": "uint256"
        }
      ],
      "stateMutability": "view",
      "type": "function"
    },
    {
      "inputs": [
        {
          "internalType": "address",
          "name": "spender",
          "type": "address"
        },
        {
          "internalType": "uint256",
          "name": "addedValue",
          "type": "uint256"
        }
      ],
      "name": "increaseAllowance",
      "outputs": [
        {
          "internalType": "bool",
          "name": "",
          "type": "bool"
        }
      ],
      "stateMutability": "nonpayable",
      "type": "function"
    },
    {
      "inputs": [
        {
          "internalType": "address",
          "name": "_holder",
          "type": "address"
        }
      ],
      "name": "lastUnlockBlock",
      "outputs": [
        {
          "internalType": "uint256",
          "name": "",
          "type": "uint256"
        }
      ],
      "stateMutability": "view",
      "type": "function"
    },
    {
      "inputs": [
        {
          "internalType": "address",
          "name": "_holder",
          "type": "address"
        },
        {
          "internalType": "uint256",
          "name": "_amount",
          "type": "uint256"
        }
      ],
      "name": "lock",
      "outputs": [],
      "stateMutability": "nonpayable",
      "type": "function"
    },
    {
      "inputs": [],
      "name": "lockFromBlock",
      "outputs": [
        {
          "internalType": "uint256",
          "name": "",
          "type": "uint256"
        }
      ],
      "stateMutability": "view",
      "type": "function"
    },
    {
      "inputs": [
        {
          "internalType": "uint256",
          "name": "_newLockFrom",
          "type": "uint256"
        }
      ],
      "name": "lockFromUpdate",
      "outputs": [],
      "stateMutability": "nonpayable",
      "type": "function"
    },
    {
      "inputs": [
        {
          "internalType": "address",
          "name": "_holder",
          "type": "address"
        }
      ],
      "name": "lockOf",
      "outputs": [
        {
          "internalType": "uint256",
          "name": "",
          "type": "uint256"
        }
      ],
      "stateMutability": "view",
      "type": "function"
    },
    {
      "inputs": [],
      "name": "lockToBlock",
      "outputs": [
        {
          "internalType": "uint256",
          "name": "",
          "type": "uint256"
        }
      ],
      "stateMutability": "view",
      "type": "function"
    },
    {
      "inputs": [
        {
          "internalType": "uint256",
          "name": "_newLockTo",
          "type": "uint256"
        }
      ],
      "name": "lockToUpdate",
      "outputs": [],
      "stateMutability": "nonpayable",
      "type": "function"
    },
    {
      "inputs": [],
      "name": "lockedSupply",
      "outputs": [
        {
          "internalType": "uint256",
          "name": "",
          "type": "uint256"
        }
      ],
      "stateMutability": "view",
      "type": "function"
    },
    {
      "inputs": [
        {
          "internalType": "address",
          "name": "_to",
          "type": "address"
        },
        {
          "internalType": "uint256",
          "name": "_amount",
          "type": "uint256"
        }
      ],
      "name": "manualMint",
      "outputs": [],
      "stateMutability": "nonpayable",
      "type": "function"
    },
    {
      "inputs": [],
      "name": "manualMintLimit",
      "outputs": [
        {
          "internalType": "uint256",
          "name": "",
          "type": "uint256"
        }
      ],
      "stateMutability": "view",
      "type": "function"
    },
    {
      "inputs": [],
      "name": "manualMinted",
      "outputs": [
        {
          "internalType": "uint256",
          "name": "",
          "type": "uint256"
        }
      ],
      "stateMutability": "view",
      "type": "function"
    },
    {
      "inputs": [],
      "name": "maxTransferAmount",
      "outputs": [
        {
          "internalType": "uint256",
          "name": "",
          "type": "uint256"
        }
      ],
      "stateMutability": "view",
      "type": "function"
    },
    {
      "inputs": [],
      "name": "maxTransferAmountRate",
      "outputs": [
        {
          "internalType": "uint16",
          "name": "",
          "type": "uint16"
        }
      ],
      "stateMutability": "view",
      "type": "function"
    },
    {
      "inputs": [],
      "name": "miner",
      "outputs": [
        {
          "internalType": "address",
          "name": "",
          "type": "address"
        }
      ],
      "stateMutability": "view",
      "type": "function"
    },
    {
      "inputs": [
        {
          "internalType": "address",
          "name": "_to",
          "type": "address"
        },
        {
          "internalType": "uint256",
          "name": "_amount",
          "type": "uint256"
        }
      ],
      "name": "mint",
      "outputs": [],
      "stateMutability": "nonpayable",
      "type": "function"
    },
    {
      "inputs": [],
      "name": "name",
      "outputs": [
        {
          "internalType": "string",
          "name": "",
          "type": "string"
        }
      ],
      "stateMutability": "view",
      "type": "function"
    },
    {
      "inputs": [
        {
          "internalType": "address",
          "name": "",
          "type": "address"
        }
      ],
      "name": "nonces",
      "outputs": [
        {
          "internalType": "uint256",
          "name": "",
          "type": "uint256"
        }
      ],
      "stateMutability": "view",
      "type": "function"
    },
    {
      "inputs": [
        {
          "internalType": "address",
          "name": "",
          "type": "address"
        }
      ],
      "name": "numCheckpoints",
      "outputs": [
        {
          "internalType": "uint32",
          "name": "",
          "type": "uint32"
        }
      ],
      "stateMutability": "view",
      "type": "function"
    },
    {
      "inputs": [],
      "name": "owner",
      "outputs": [
        {
          "internalType": "address",
          "name": "",
          "type": "address"
        }
      ],
      "stateMutability": "view",
      "type": "function"
    },
    {
      "inputs": [],
      "name": "profileAgeReq",
      "outputs": [
        {
          "internalType": "uint64",
          "name": "",
          "type": "uint64"
        }
      ],
      "stateMutability": "view",
      "type": "function"
    },
    {
      "inputs": [],
      "name": "profilesContract",
      "outputs": [
        {
          "internalType": "contract IProfiles",
          "name": "",
          "type": "address"
        }
      ],
      "stateMutability": "view",
      "type": "function"
    },
    {
      "inputs": [
        {
          "internalType": "address",
          "name": "_toRemove",
          "type": "address"
        }
      ],
      "name": "removeAuthorized",
      "outputs": [],
      "stateMutability": "nonpayable",
      "type": "function"
    },
    {
      "inputs": [],
      "name": "renounceOwnership",
      "outputs": [],
      "stateMutability": "nonpayable",
      "type": "function"
    },
    {
      "inputs": [
        {
          "internalType": "address",
          "name": "_account",
          "type": "address"
        },
        {
          "internalType": "bool",
          "name": "_excluded",
          "type": "bool"
        }
      ],
      "name": "setExcludedFromAntiWhale",
      "outputs": [],
      "stateMutability": "nonpayable",
      "type": "function"
    },
    {
      "inputs": [
        {
          "internalType": "uint64",
          "name": "_age",
          "type": "uint64"
        }
      ],
      "name": "setProfileAgeReq",
      "outputs": [
        {
          "internalType": "bool",
          "name": "success",
          "type": "bool"
        }
      ],
      "stateMutability": "nonpayable",
      "type": "function"
    },
    {
      "inputs": [
        {
          "internalType": "address",
          "name": "_profilesAddress",
          "type": "address"
        }
      ],
      "name": "setProfiles",
      "outputs": [
        {
          "internalType": "bool",
          "name": "success",
          "type": "bool"
        }
      ],
      "stateMutability": "nonpayable",
      "type": "function"
    },
    {
      "inputs": [],
      "name": "symbol",
      "outputs": [
        {
          "internalType": "string",
          "name": "",
          "type": "string"
        }
      ],
      "stateMutability": "view",
      "type": "function"
    },
    {
      "inputs": [
        {
          "internalType": "address",
          "name": "_holder",
          "type": "address"
        }
      ],
      "name": "totalBalanceOf",
      "outputs": [
        {
          "internalType": "uint256",
          "name": "",
          "type": "uint256"
        }
      ],
      "stateMutability": "view",
      "type": "function"
    },
    {
      "inputs": [],
      "name": "totalLock",
      "outputs": [
        {
          "internalType": "uint256",
          "name": "",
          "type": "uint256"
        }
      ],
      "stateMutability": "view",
      "type": "function"
    },
    {
      "inputs": [],
      "name": "totalSupply",
      "outputs": [
        {
          "internalType": "uint256",
          "name": "",
          "type": "uint256"
        }
      ],
      "stateMutability": "view",
      "type": "function"
    },
    {
      "inputs": [
        {
          "internalType": "address",
          "name": "to",
          "type": "address"
        },
        {
          "internalType": "uint256",
          "name": "amount",
          "type": "uint256"
        }
      ],
      "name": "transfer",
      "outputs": [
        {
          "internalType": "bool",
          "name": "",
          "type": "bool"
        }
      ],
      "stateMutability": "nonpayable",
      "type": "function"
    },
    {
      "inputs": [
        {
          "internalType": "address",
          "name": "_to",
          "type": "address"
        }
      ],
      "name": "transferAll",
      "outputs": [],
      "stateMutability": "nonpayable",
      "type": "function"
    },
    {
      "inputs": [
        {
          "internalType": "address",
          "name": "from",
          "type": "address"
        },
        {
          "internalType": "address",
          "name": "to",
          "type": "address"
        },
        {
          "internalType": "uint256",
          "name": "amount",
          "type": "uint256"
        }
      ],
      "name": "transferFrom",
      "outputs": [
        {
          "internalType": "bool",
          "name": "",
          "type": "bool"
        }
      ],
      "stateMutability": "nonpayable",
      "type": "function"
    },
    {
      "inputs": [
        {
          "internalType": "address",
          "name": "newOwner",
          "type": "address"
        }
      ],
      "name": "transferOwnership",
      "outputs": [],
      "stateMutability": "nonpayable",
      "type": "function"
    },
    {
      "inputs": [],
      "name": "unlock",
      "outputs": [],
      "stateMutability": "nonpayable",
      "type": "function"
    },
    {
      "inputs": [
        {
          "internalType": "address",
          "name": "account",
          "type": "address"
        },
        {
          "internalType": "uint256",
          "name": "amount",
          "type": "uint256"
        }
      ],
      "name": "unlockForUser",
      "outputs": [],
      "stateMutability": "nonpayable",
      "type": "function"
    },
    {
      "inputs": [],
      "name": "unlockedSupply",
      "outputs": [
        {
          "internalType": "uint256",
          "name": "",
          "type": "uint256"
        }
      ],
      "stateMutability": "view",
      "type": "function"
    },
    {
      "inputs": [
        {
          "internalType": "uint256",
          "name": "_newLimit",
          "type": "uint256"
        }
      ],
      "name": "updateManualMintLimit",
      "outputs": [],
      "stateMutability": "nonpayable",
      "type": "function"
    },
    {
      "inputs": [
        {
          "internalType": "uint16",
          "name": "_maxTransferAmountRate",
          "type": "uint16"
        }
      ],
      "name": "updateMaxTransferAmountRate",
      "outputs": [],
      "stateMutability": "nonpayable",
      "type": "function"
    }
  ],
  "bytecode": "0x60806040526000600c55600e8054600160a01b600160e01b03191690556011805461ffff19166127101790553480156200003857600080fd5b50604051620033d3380380620033d38339810160408190526200005b9162000226565b858560036200006b838262000344565b5060046200007a828262000344565b50505062000097620000916200010b60201b60201c565b6200010f565b600793909355600b91909155600955600a55505033600090815260126020526040808220805460ff1990811660019081179092557f7e7fa33969761a458e04f477e039a608702b4f924981d6653935a8319a08ad7b8054821683179055308452919092208054909116909117905562000410565b3390565b600580546001600160a01b038381166001600160a01b0319831681179093556040519116919082907f8be0079c531659141344cd1fd0a4f28419497f9722a3daafe3b4186f6b6457e090600090a35050565b634e487b7160e01b600052604160045260246000fd5b600082601f8301126200018957600080fd5b81516001600160401b0380821115620001a657620001a662000161565b604051601f8301601f19908116603f01168101908282118183101715620001d157620001d162000161565b81604052838152602092508683858801011115620001ee57600080fd5b600091505b83821015620002125785820183015181830184015290820190620001f3565b600093810190920192909252949350505050565b60008060008060008060c087890312156200024057600080fd5b86516001600160401b03808211156200025857600080fd5b620002668a838b0162000177565b975060208901519150808211156200027d57600080fd5b506200028c89828a0162000177565b95505060408701519350606087015192506080870151915060a087015190509295509295509295565b600181811c90821680620002ca57607f821691505b602082108103620002eb57634e487b7160e01b600052602260045260246000fd5b50919050565b601f8211156200033f57600081815260208120601f850160051c810160208610156200031a5750805b601f850160051c820191505b818110156200033b5782815560010162000326565b5050505b505050565b81516001600160401b0381111562000360576200036062000161565b6200037881620003718454620002b5565b84620002f1565b602080601f831160018114620003b05760008415620003975750858301515b600019600386901b1c1916600185901b1785556200033b565b600085815260208120601f198616915b82811015620003e157888601518255948401946001909101908401620003c0565b5085821015620004005787850151600019600388901b60f8161c191681555b5050505050600190811b01905550565b612fb380620004206000396000f3fe608060405234801561001057600080fd5b50600436106103a45760003560e01c8063715018a6116101e9578063b91816111161010f578063e4c5ff46116100ad578063f2fde38b1161007c578063f2fde38b1461089d578063f85b84a4146108b0578063f96cbc1c146108b9578063fd3d27b8146108cc57600080fd5b8063e4c5ff4614610803578063e6b2fb4a14610816578063e7a324dc1461081f578063f1127ed81461084657600080fd5b8063c7f59a67116100e9578063c7f59a67146107c2578063ca5c7b91146107d5578063cf1c316a146107dd578063dd62ed3e146107f057600080fd5b8063b918161114610779578063c38533c61461079c578063c3cda520146107af57600080fd5b806395d89b4111610187578063a9059cbb11610156578063a9059cbb14610738578063a9e757231461074b578063af2b0f6614610753578063b4b5ea571461076657600080fd5b806395d89b4114610702578063a3a7e7f31461070a578063a457c2d71461071d578063a69df4b51461073057600080fd5b806389a2867c116101c357806389a2867c146106b75780638da5cb5b146106e05780638e875e1a146106f15780639358928b146106fa57600080fd5b8063715018a61461067c578063782d6fe1146106845780637ecebe001461069757600080fd5b806336c41a28116102ce5780634b0ee02a1161026c57806366fc237b1161023b57806366fc237b146106125780636a141e2c1461061b5780636fcfff451461062e57806370a082311461066957600080fd5b80634b0ee02a14610597578063587cde1e146105aa5780635a46d3b5146105d65780635c19a95c146105ff57600080fd5b80633ff8bf2e116102a85780633ff8bf2e1461053d57806340346c491461055e57806340c10f1914610571578063485d7d941461058457600080fd5b806336c41a281461050f57806339509351146105225780633a1aae351461053557600080fd5b8063202b176011610346578063313ce56711610315578063313ce567146104df5780633408e470146104ee578063349dc329146104f4578063355274ea1461050757600080fd5b8063202b17601461047f57806320606b701461049257806323b872dd146104b9578063282d3fdf146104cc57600080fd5b80630cb285e2116103825780630cb285e21461041157806318160ddd146104265780631abc4e76146104385780631bc528351461044b57600080fd5b806306428f02146103a957806306fdde03146103d9578063095ea7b3146103ee575b600080fd5b600e546103bc906001600160a01b031681565b6040516001600160a01b0390911681526020015b60405180910390f35b6103e16108d4565b6040516103d09190612a38565b6104016103fc366004612a80565b610966565b60405190151581526020016103d0565b61042461041f366004612aac565b610980565b005b6002545b6040519081526020016103d0565b610424610446366004612aac565b6109e1565b600e5461046690600160a01b900467ffffffffffffffff1681565b60405167ffffffffffffffff90911681526020016103d0565b61042a61048d366004612ac5565b610a39565b61042a7f8cad95687ba82c2ce50e74f7b754645e5117c3a5bec8151c0726d5857980a86681565b6104016104c7366004612ae2565b610b00565b6104246104da366004612a80565b610b24565b604051601281526020016103d0565b4661042a565b600d546103bc906001600160a01b031681565b60075461042a565b61040161051d366004612ac5565b610d04565b610401610530366004612a80565b610e31565b60085461042a565b60115461054b9061ffff1681565b60405161ffff90911681526020016103d0565b61042461056c366004612aac565b610e53565b61042461057f366004612a80565b610eab565b610424610592366004612ac5565b610f31565b61042a6105a5366004612ac5565b610f6f565b6103bc6105b8366004612ac5565b6001600160a01b039081166000908152601360205260409020541690565b61042a6105e4366004612ac5565b6001600160a01b03166000908152600f602052604090205490565b61042461060d366004612ac5565b610f9d565b61042a60095481565b610424610629366004612b23565b610faa565b61065461063c366004612ac5565b60156020526000908152604090205463ffffffff1681565b60405163ffffffff90911681526020016103d0565b61042a610677366004612ac5565b61118b565b6104246111a6565b61042a610692366004612a80565b6111ba565b61042a6106a5366004612ac5565b60166020526000908152604090205481565b61042a6106c5366004612ac5565b6001600160a01b031660009081526010602052604090205490565b6005546001600160a01b03166103bc565b61042a600a5481565b61042a611426565b6103e1611436565b610424610718366004612ac5565b611445565b61040161072b366004612a80565b611534565b6104246115af565b610401610746366004612a80565b6115c6565b61042a6115d4565b610424610761366004612a80565b6115ff565b61042a610774366004612ac5565b61167e565b610401610787366004612ac5565b60066020526000908152604090205460ff1681565b6104246107aa366004612aac565b6116f3565b6104246107bd366004612b56565b61174b565b6104246107d0366004612bb2565b611a25565b61042a611aa3565b6104246107eb366004612ac5565b611aae565b61042a6107fe366004612bf0565b611ada565b610424610811366004612a80565b611b05565b61042a600c5481565b61042a7fe48329057bfd03d55e49b547132e39cffd9c1820ad7b9d4c5307691425d15adf81565b610881610854366004612c1e565b60146020908152600092835260408084209091529082529020805460019091015463ffffffff9091169082565b6040805163ffffffff90931683526020830191909152016103d0565b6104246108ab366004612ac5565b611c08565b61042a600b5481565b6104016108c7366004612c6b565b611c7e565b61042a611d01565b6060600380546108e390612c88565b80601f016020809104026020016040519081016040528092919081815260200182805461090f90612c88565b801561095c5780601f106109315761010080835404028352916020019161095c565b820191906000526020600020905b81548152906001019060200180831161093f57829003601f168201915b5050505050905090565b600033610974818585611d19565b60019150505b92915050565b3360009081526006602052604090205460ff16806109b75750336109ac6005546001600160a01b031690565b6001600160a01b0316145b6109dc5760405162461bcd60e51b81526004016109d390612cc2565b60405180910390fd5b600a55565b3360009081526006602052604090205460ff1680610a18575033610a0d6005546001600160a01b031690565b6001600160a01b0316145b610a345760405162461bcd60e51b81526004016109d390612cc2565b600b55565b6000600954431015610a4d57506000919050565b600a544310610a7257506001600160a01b03166000908152600f602052604090205490565b6001600160a01b038216600090815260106020526040812054610a959043612d0f565b6001600160a01b038416600090815260106020526040812054600a549293509091610ac09190612d0f565b6001600160a01b0385166000908152600f60205260409020549091508190610ae9908490612d22565b610af39190612d57565b949350505050565b919050565b600033610b0e858285611e3d565b610b19858585611eb7565b506001949350505050565b3360009081526006602052604090205460ff1680610b5b575033610b506005546001600160a01b031690565b6001600160a01b0316145b610b775760405162461bcd60e51b81526004016109d390612cc2565b6001600160a01b038216610bcd5760405162461bcd60e51b815260206004820152601f60248201527f43616e6e6f74206c6f636b20746f20746865207a65726f20616464726573730060448201526064016109d3565b610bd68261118b565b811115610c255760405162461bcd60e51b815260206004820152601860248201527f4c6f636b20616d6f756e74206f7665722062616c616e6365000000000000000060448201526064016109d3565b610c30823083611eb7565b6001600160a01b0382166000908152600f6020526040902054610c54908290612d6b565b6001600160a01b0383166000908152600f6020526040902055600854610c7b908290612d6b565b6008556009546001600160a01b0383166000908152601060205260409020541015610cbd576009546001600160a01b0383166000908152601060205260409020555b816001600160a01b03167f625fed9875dada8643f2418b838ae0bc78d9a148a18eee4ee1979ff0f3f5d42782604051610cf891815260200190565b60405180910390a25050565b3360009081526006602052604081205460ff1680610d3b575033610d306005546001600160a01b031690565b6001600160a01b0316145b610d575760405162461bcd60e51b81526004016109d390612cc2565b600082905060006001600160a01b0316816001600160a01b031663b5708ccc6040518163ffffffff1660e01b8152600401602060405180830381865afa158015610da5573d6000803e3d6000fd5b505050506040513d601f19601f82011682018060405250810190610dc99190612d7e565b6001600160a01b031603610e095760405162461bcd60e51b81526020600482015260076024820152661a5b9d985b1a5960ca1b60448201526064016109d3565b600e80546001600160a01b0319166001600160a01b0392909216919091179055506001919050565b600033610974818585610e448383611ada565b610e4e9190612d6b565b611d19565b3360009081526006602052604090205460ff1680610e8a575033610e7f6005546001600160a01b031690565b6001600160a01b0316145b610ea65760405162461bcd60e51b81526004016109d390612cc2565b600755565b3360009081526006602052604090205460ff1680610ee2575033610ed76005546001600160a01b031690565b6001600160a01b0316145b610efe5760405162461bcd60e51b81526004016109d390612cc2565b610f088282612113565b6001600160a01b03808316600090815260136020526040812054610f2d9216836121fe565b5050565b610f3961235d565b336001600160a01b03821603610f4e57600080fd5b6001600160a01b03166000908152600660205260409020805460ff19169055565b6000610f7a8261118b565b6001600160a01b0383166000908152600f602052604090205461097a9190612d6b565b610fa733826123b7565b50565b3360009081526006602052604090205460ff1680610fe1575033610fd66005546001600160a01b031690565b6001600160a01b0316145b610ffd5760405162461bcd60e51b81526004016109d390612cc2565b6127108161ffff16111561109f5760405162461bcd60e51b815260206004820152605760248201527f7570646174654d61785472616e73666572416d6f756e74526174653a204d617860448201527f207472616e7366657220616d6f756e742072617465206d757374206e6f74206560648201527f786365656420746865206d6178696d756d20726174652e000000000000000000608482015260a4016109d3565b60328161ffff1610156111315760405162461bcd60e51b815260206004820152604e60248201527f7570646174654d61785472616e73666572416d6f756e74526174653a204d617860448201527f207472616e7366657220616d6f756e742072617465206d757374206265206d6f60648201526d3932903a3430b710181718181a9760911b608482015260a4016109d3565b6011546040805161ffff928316815291831660208301527fff6316521befb2f41341a167cc0af9a05541f2b9d73de40cba35c37d34e87e6f910160405180910390a16011805461ffff191661ffff92909216919091179055565b6001600160a01b031660009081526020819052604090205490565b6111ae61235d565b6111b86000612446565b565b600043821061121f5760405162461bcd60e51b815260206004820152602b60248201527f45766f546f6b656e3a3a6765745072696f72566f7465733a206e6f742079657460448201526a0819195d195c9b5a5b995960aa1b60648201526084016109d3565b6001600160a01b03831660009081526015602052604081205463ffffffff169081900361125057600091505061097a565b6001600160a01b03841660009081526014602052604081208491611275600185612d9b565b63ffffffff908116825260208201929092526040016000205416116112de576001600160a01b0384166000908152601460205260408120906112b8600184612d9b565b63ffffffff1663ffffffff1681526020019081526020016000206001015491505061097a565b6001600160a01b038416600090815260146020908152604080832083805290915290205463ffffffff1683101561131957600091505061097a565b600080611327600184612d9b565b90505b8163ffffffff168163ffffffff1611156113ef576000600261134c8484612d9b565b6113569190612dbf565b6113609083612d9b565b6001600160a01b038816600090815260146020908152604080832063ffffffff80861685529083529281902081518083019092528054909316808252600190930154918101919091529192508790036113c35760200151945061097a9350505050565b805163ffffffff168711156113da578193506113e8565b6113e5600183612d9b565b92505b505061132a565b506001600160a01b038516600090815260146020908152604080832063ffffffff9094168352929052206001015491505092915050565b600061143160025490565b905090565b6060600480546108e390612c88565b336000908152600f6020526040808220546001600160a01b038416835291205461146f9190612d6b565b6001600160a01b0382166000908152600f602090815260408083209390935560095460109091529190205410156114bd576009546001600160a01b0382166000908152601060205260409020555b33600090815260106020526040808220546001600160a01b038416835291205410156115045733600090815260106020526040808220546001600160a01b03841683529120555b336000818152600f602090815260408083208390556010909152812055610fa7908261152f8261118b565b611eb7565b600033816115428286611ada565b9050838110156115a25760405162461bcd60e51b815260206004820152602560248201527f45524332303a2064656372656173656420616c6c6f77616e63652062656c6f77604482015264207a65726f60d81b60648201526084016109d3565b610b198286868403611d19565b60006115ba33610a39565b9050610fa73382612498565b600033610974818585611eb7565b6011546000906127109061ffff166115eb60025490565b6115f59190612d22565b6114319190612d57565b3360009081526006602052604090205460ff168061163657503361162b6005546001600160a01b031690565b6001600160a01b0316145b6116525760405162461bcd60e51b81526004016109d390612cc2565b600061165d83610a39565b9050801561166f5761166f8382612498565b6116798383612498565b505050565b6001600160a01b03811660009081526015602052604081205463ffffffff16806116a95760006116ec565b6001600160a01b0383166000908152601460205260408120906116cd600184612d9b565b63ffffffff1663ffffffff168152602001908152602001600020600101545b9392505050565b3360009081526006602052604090205460ff168061172a57503361171f6005546001600160a01b031690565b6001600160a01b0316145b6117465760405162461bcd60e51b81526004016109d390612cc2565b600955565b60007f8cad95687ba82c2ce50e74f7b754645e5117c3a5bec8151c0726d5857980a8666117766108d4565b805190602001206117844690565b60408051602080820195909552808201939093526060830191909152306080808401919091528151808403909101815260a0830182528051908401207fe48329057bfd03d55e49b547132e39cffd9c1820ad7b9d4c5307691425d15adf60c08401526001600160a01b038b1660e084015261010083018a90526101208084018a90528251808503909101815261014084019092528151919093012061190160f01b610160830152610162820183905261018282018190529192506000906101a20160408051601f198184030181528282528051602091820120600080855291840180845281905260ff8a169284019290925260608301889052608083018790529092509060019060a0016020604051602081039080840390855afa1580156118b0573d6000803e3d6000fd5b5050604051601f1901519150506001600160a01b0381166119265760405162461bcd60e51b815260206004820152602a60248201527f45766f546f6b656e3a3a64656c656761746542795369673a20696e76616c6964604482015269207369676e617475726560b01b60648201526084016109d3565b6001600160a01b038116600090815260166020526040812080549161194a83612de2565b9190505589146119ab5760405162461bcd60e51b815260206004820152602660248201527f45766f546f6b656e3a3a64656c656761746542795369673a20696e76616c6964604482015265206e6f6e636560d01b60648201526084016109d3565b87421115611a0e5760405162461bcd60e51b815260206004820152602a60248201527f45766f546f6b656e3a3a64656c656761746542795369673a207369676e6174756044820152691c9948195e1c1a5c995960b21b60648201526084016109d3565b611a18818b6123b7565b505050505b505050505050565b3360009081526006602052604090205460ff1680611a5c575033611a516005546001600160a01b031690565b6001600160a01b0316145b611a785760405162461bcd60e51b81526004016109d390612cc2565b6001600160a01b03919091166000908152601260205260409020805460ff1916911515919091179055565b600061143160085490565b611ab661235d565b6001600160a01b03166000908152600660205260409020805460ff19166001179055565b6001600160a01b03918216600090815260016020908152604080832093909416825291909152205490565b3360009081526006602052604090205460ff1680611b3c575033611b316005546001600160a01b031690565b6001600160a01b0316145b611b585760405162461bcd60e51b81526004016109d390612cc2565b600b54600c5410611bc45760405162461bcd60e51b815260206004820152603060248201527f45524332303a206d616e75616c4d696e7465642067726561746572207468616e60448201526f081b585b9d585b135a5b9d131a5b5a5d60821b60648201526084016109d3565b611bce8282612113565b6001600160a01b03808316600090815260136020526040812054611bf39216836121fe565b80600c54611c019190612d6b565b600c555050565b611c1061235d565b6001600160a01b038116611c755760405162461bcd60e51b815260206004820152602660248201527f4f776e61626c653a206e6577206f776e657220697320746865207a65726f206160448201526564647265737360d01b60648201526084016109d3565b610fa781612446565b3360009081526006602052604081205460ff1680611cb5575033611caa6005546001600160a01b031690565b6001600160a01b0316145b611cd15760405162461bcd60e51b81526004016109d390612cc2565b50600e805467ffffffffffffffff8316600160a01b0267ffffffffffffffff60a01b199091161790556001919050565b6000600854611d0f60025490565b6114319190612d0f565b6001600160a01b038316611d7b5760405162461bcd60e51b8152602060048201526024808201527f45524332303a20617070726f76652066726f6d20746865207a65726f206164646044820152637265737360e01b60648201526084016109d3565b6001600160a01b038216611ddc5760405162461bcd60e51b815260206004820152602260248201527f45524332303a20617070726f766520746f20746865207a65726f206164647265604482015261737360f01b60648201526084016109d3565b6001600160a01b0383811660008181526001602090815260408083209487168084529482529182902085905590518481527f8c5be1e5ebec7d5bd14f71427d1e84f3dd0314c0f7b2291e5b200ac8c7c3b925910160405180910390a3505050565b6000611e498484611ada565b90506000198114611eb15781811015611ea45760405162461bcd60e51b815260206004820152601d60248201527f45524332303a20696e73756666696369656e7420616c6c6f77616e636500000060448201526064016109d3565b611eb18484848403611d19565b50505050565b8282826000611ec46115d4565b1115611f8e576001600160a01b03831660009081526012602052604090205460ff16158015611f0c57506001600160a01b03821660009081526012602052604090205460ff16155b15611f8e57611f196115d4565b811115611f8e5760405162461bcd60e51b815260206004820152603860248201527f616e74695768616c653a205472616e7366657220616d6f756e7420657863656560448201527f647320746865206d61785472616e73666572416d6f756e74000000000000000060648201526084016109d3565b600e5486908690600160a01b900467ffffffffffffffff16156120cc576001600160a01b03811660009081526012602052604081205460ff16151590036120cc57600e54604051631335a56760e21b81526001600160a01b0383811660048301526000921690634cd6959c90602401600060405180830381865afa15801561201a573d6000803e3d6000fd5b505050506040513d6000823e601f3d908101601f191682016040526120429190810190612e27565b5091955050505067ffffffffffffffff8316158015925090506120855750600e5467ffffffffffffffff600160a01b90910481169061208390831642612d0f565b115b6120ca5760405162461bcd60e51b81526020600482015260166024820152750e0e4deccd2d8ca40dcdee840ded8c840cadcdeeaced60531b60448201526064016109d3565b505b6120d78888886125f6565b6001600160a01b03808916600090815260136020526040808220548a84168352912054612109929182169116886121fe565b5050505050505050565b6001600160a01b0382166121695760405162461bcd60e51b815260206004820152601f60248201527f45524332303a206d696e7420746f20746865207a65726f20616464726573730060448201526064016109d3565b612175600083836127cf565b80600260008282546121879190612d6b565b90915550506001600160a01b038216600090815260208190526040812080548392906121b4908490612d6b565b90915550506040518181526001600160a01b038316906000907fddf252ad1be2c89b69c2b068fc378daa952ba7f163c4a11628f55a4df523b3ef9060200160405180910390a35050565b816001600160a01b0316836001600160a01b0316141580156122205750600081115b15611679576001600160a01b038316156122c3576001600160a01b03831660009081526015602052604081205463ffffffff1690816122605760006122a3565b6001600160a01b038516600090815260146020526040812090612284600185612d9b565b63ffffffff1663ffffffff168152602001908152602001600020600101545b905060006122b18483612d0f565b90506122bf86848484612842565b5050505b6001600160a01b03821615611679576001600160a01b03821660009081526015602052604081205463ffffffff1690816122fe576000612341565b6001600160a01b038416600090815260146020526040812090612322600185612d9b565b63ffffffff1663ffffffff168152602001908152602001600020600101545b9050600061234f8483612d6b565b9050611a1d85848484612842565b6005546001600160a01b031633146111b85760405162461bcd60e51b815260206004820181905260248201527f4f776e61626c653a2063616c6c6572206973206e6f7420746865206f776e657260448201526064016109d3565b6001600160a01b03808316600090815260136020526040812054909116906123de8461118b565b6001600160a01b0385811660008181526013602052604080822080546001600160a01b031916898616908117909155905194955093928616927f3134e8a2e6d97e929a7e54011ea5485d7d196dd5f0ba4d4ef95803e8e3fc257f9190a4611eb18284836121fe565b600580546001600160a01b038381166001600160a01b0319831681179093556040519116919082907f8be0079c531659141344cd1fd0a4f28419497f9722a3daafe3b4186f6b6457e090600090a35050565b6001600160a01b0382166000908152600f60205260409020546124fd5760405162461bcd60e51b815260206004820152601a60248201527f496e73756666696369656e74206c6f636b656420746f6b656e7300000000000060448201526064016109d3565b6001600160a01b0382166000908152600f602052604090205481111561253857506001600160a01b0381166000908152600f60205260409020545b6125413061118b565b811115612554576125513061118b565b90505b61255f308383611eb7565b6001600160a01b0382166000908152600f6020526040902054612583908290612d0f565b6001600160a01b0383166000908152600f602090815260408083209390935560109052204390556008546125b8908290612d0f565b6008556040518181526001600160a01b038316907f6381d9813cabeb57471b5a7e05078e64845ccdb563146a6911d536f24ce960f190602001610cf8565b6001600160a01b03831661265a5760405162461bcd60e51b815260206004820152602560248201527f45524332303a207472616e736665722066726f6d20746865207a65726f206164604482015264647265737360d81b60648201526084016109d3565b6001600160a01b0382166126bc5760405162461bcd60e51b815260206004820152602360248201527f45524332303a207472616e7366657220746f20746865207a65726f206164647260448201526265737360e81b60648201526084016109d3565b6126c78383836127cf565b6001600160a01b0383166000908152602081905260409020548181101561273f5760405162461bcd60e51b815260206004820152602660248201527f45524332303a207472616e7366657220616d6f756e7420657863656564732062604482015265616c616e636560d01b60648201526084016109d3565b6001600160a01b03808516600090815260208190526040808220858503905591851681529081208054849290612776908490612d6b565b92505081905550826001600160a01b0316846001600160a01b03167fddf252ad1be2c89b69c2b068fc378daa952ba7f163c4a11628f55a4df523b3ef846040516127c291815260200190565b60405180910390a3611eb1565b6001600160a01b03831661167957600754816127ea60025490565b6127f49190612d6b565b11156116795760405162461bcd60e51b815260206004820152601960248201527f45524332304361707065643a206361702065786365656465640000000000000060448201526064016109d3565b600061286643604051806060016040528060388152602001612f46603891396129e4565b905060008463ffffffff161180156128c057506001600160a01b038516600090815260146020526040812063ffffffff8316916128a4600188612d9b565b63ffffffff908116825260208201929092526040016000205416145b15612909576001600160a01b038516600090815260146020526040812083916128ea600188612d9b565b63ffffffff168152602081019190915260400160002060010155612999565b60408051808201825263ffffffff838116825260208083018681526001600160a01b038a166000908152601483528581208a851682529092529390209151825463ffffffff191691161781559051600191820155612968908590612f28565b6001600160a01b0386166000908152601560205260409020805463ffffffff191663ffffffff929092169190911790555b60408051848152602081018490526001600160a01b038716917fdec2bacdd2f05b59de34da9b523dff8be42e5e38e818c82fdb0bae774387a724910160405180910390a25050505050565b6000816401000000008410612a0c5760405162461bcd60e51b81526004016109d39190612a38565b509192915050565b60005b83811015612a2f578181015183820152602001612a17565b50506000910152565b6020815260008251806020840152612a57816040850160208701612a14565b601f01601f19169190910160400192915050565b6001600160a01b0381168114610fa757600080fd5b60008060408385031215612a9357600080fd5b8235612a9e81612a6b565b946020939093013593505050565b600060208284031215612abe57600080fd5b5035919050565b600060208284031215612ad757600080fd5b81356116ec81612a6b565b600080600060608486031215612af757600080fd5b8335612b0281612a6b565b92506020840135612b1281612a6b565b929592945050506040919091013590565b600060208284031215612b3557600080fd5b813561ffff811681146116ec57600080fd5b60ff81168114610fa757600080fd5b60008060008060008060c08789031215612b6f57600080fd5b8635612b7a81612a6b565b955060208701359450604087013593506060870135612b9881612b47565b9598949750929560808101359460a0909101359350915050565b60008060408385031215612bc557600080fd5b8235612bd081612a6b565b915060208301358015158114612be557600080fd5b809150509250929050565b60008060408385031215612c0357600080fd5b8235612c0e81612a6b565b91506020830135612be581612a6b565b60008060408385031215612c3157600080fd5b8235612c3c81612a6b565b9150602083013563ffffffff81168114612be557600080fd5b67ffffffffffffffff81168114610fa757600080fd5b600060208284031215612c7d57600080fd5b81356116ec81612c55565b600181811c90821680612c9c57607f821691505b602082108103612cbc57634e487b7160e01b600052602260045260246000fd5b50919050565b60208082526018908201527f63616c6c6572206973206e6f7420617574686f72697a65640000000000000000604082015260600190565b634e487b7160e01b600052601160045260246000fd5b8181038181111561097a5761097a612cf9565b6000816000190483118215151615612d3c57612d3c612cf9565b500290565b634e487b7160e01b600052601260045260246000fd5b600082612d6657612d66612d41565b500490565b8082018082111561097a5761097a612cf9565b600060208284031215612d9057600080fd5b81516116ec81612a6b565b63ffffffff828116828216039080821115612db857612db8612cf9565b5092915050565b600063ffffffff80841680612dd657612dd6612d41565b92169190910492915050565b600060018201612df457612df4612cf9565b5060010190565b634e487b7160e01b600052604160045260246000fd5b8051610afb81612c55565b8051610afb81612b47565b600080600080600080600060e0888a031215612e4257600080fd5b875196506020880151612e5481612a6b565b604089015190965067ffffffffffffffff80821115612e7257600080fd5b818a0191508a601f830112612e8657600080fd5b815181811115612e9857612e98612dfb565b604051601f8201601f19908116603f01168101908382118183101715612ec057612ec0612dfb565b816040528281528d6020848701011115612ed957600080fd5b612eea836020830160208801612a14565b8099505050505050612efe60608901612e11565b9350612f0c60808901612e1c565b925060a0880151915060c0880151905092959891949750929550565b63ffffffff818116838216019080821115612db857612db8612cf956fe45766f546f6b656e3a3a5f7772697465436865636b706f696e743a20626c6f636b206e756d62657220657863656564732033322062697473a264697066735822122015b4bf35e741458274e208d3ea22a8040e8ad96583ca526a0d283cf01a03e89b64736f6c63430008100033",
  "linkReferences": {},
  "deployedLinkReferences": {}
}