{
  "_format": "hh-sol-artifact-1",
  "contractName": "cEVO",
  "sourceName": "contracts/deprecated/cEVO.sol",
  "abi": [
    {
      "inputs": [],
      "stateMutability": "nonpayable",
      "type": "constructor"
    },
    {
      "anonymous": false,
      "inputs": [
        {
          "indexed": true,
          "internalType": "address",
          "name": "owner",
          "type": "address"
        },
        {
          "indexed": true,
          "internalType": "address",
          "name": "spender",
          "type": "address"
        },
        {
          "indexed": false,
          "internalType": "uint256",
          "name": "value",
          "type": "uint256"
        }
      ],
      "name": "Approval",
      "type": "event"
    },
    {
      "anonymous": false,
      "inputs": [
        {
          "indexed": true,
          "internalType": "address",
          "name": "from",
          "type": "address"
        },
        {
          "indexed": false,
          "internalType": "uint256",
          "name": "amount",
          "type": "uint256"
        }
      ],
      "name": "ClaimedDisbursement",
      "type": "event"
    },
    {
      "anonymous": false,
      "inputs": [
        {
          "indexed": false,
          "internalType": "uint8",
          "name": "version",
          "type": "uint8"
        }
      ],
      "name": "Initialized",
      "type": "event"
    },
    {
      "anonymous": false,
      "inputs": [
        {
          "indexed": false,
          "internalType": "address",
          "name": "account",
          "type": "address"
        }
      ],
      "name": "Paused",
      "type": "event"
    },
    {
      "anonymous": false,
      "inputs": [
        {
          "indexed": true,
          "internalType": "bytes32",
          "name": "role",
          "type": "bytes32"
        },
        {
          "indexed": true,
          "internalType": "bytes32",
          "name": "previousAdminRole",
          "type": "bytes32"
        },
        {
          "indexed": true,
          "internalType": "bytes32",
          "name": "newAdminRole",
          "type": "bytes32"
        }
      ],
      "name": "RoleAdminChanged",
      "type": "event"
    },
    {
      "anonymous": false,
      "inputs": [
        {
          "indexed": true,
          "internalType": "bytes32",
          "name": "role",
          "type": "bytes32"
        },
        {
          "indexed": true,
          "internalType": "address",
          "name": "account",
          "type": "address"
        },
        {
          "indexed": true,
          "internalType": "address",
          "name": "sender",
          "type": "address"
        }
      ],
      "name": "RoleGranted",
      "type": "event"
    },
    {
      "anonymous": false,
      "inputs": [
        {
          "indexed": true,
          "internalType": "bytes32",
          "name": "role",
          "type": "bytes32"
        },
        {
          "indexed": true,
          "internalType": "address",
          "name": "account",
          "type": "address"
        },
        {
          "indexed": true,
          "internalType": "address",
          "name": "sender",
          "type": "address"
        }
      ],
      "name": "RoleRevoked",
      "type": "event"
    },
    {
      "anonymous": false,
      "inputs": [
        {
          "indexed": true,
          "internalType": "address",
          "name": "from",
          "type": "address"
        },
        {
          "indexed": true,
          "internalType": "address",
          "name": "to",
          "type": "address"
        },
        {
          "indexed": false,
          "internalType": "uint256",
          "name": "value",
          "type": "uint256"
        }
      ],
      "name": "Transfer",
      "type": "event"
    },
    {
      "anonymous": false,
      "inputs": [
        {
          "indexed": false,
          "internalType": "address",
          "name": "account",
          "type": "address"
        }
      ],
      "name": "Unpaused",
      "type": "event"
    },
    {
      "inputs": [],
      "name": "DEFAULT_ADMIN_ROLE",
      "outputs": [
        {
          "internalType": "bytes32",
          "name": "",
          "type": "bytes32"
        }
      ],
      "stateMutability": "view",
      "type": "function"
    },
    {
      "inputs": [],
      "name": "DEFAULT_VESTING_PERIOD",
      "outputs": [
        {
          "internalType": "uint256",
          "name": "",
          "type": "uint256"
        }
      ],
      "stateMutability": "view",
      "type": "function"
    },
    {
      "inputs": [],
      "name": "EVO",
      "outputs": [
        {
          "internalType": "contract IEvoToken",
          "name": "",
          "type": "address"
        }
      ],
      "stateMutability": "view",
      "type": "function"
    },
    {
      "inputs": [],
      "name": "MINTER_ROLE",
      "outputs": [
        {
          "internalType": "bytes32",
          "name": "",
          "type": "bytes32"
        }
      ],
      "stateMutability": "view",
      "type": "function"
    },
    {
      "inputs": [],
      "name": "PAUSER_ROLE",
      "outputs": [
        {
          "internalType": "bytes32",
          "name": "",
          "type": "bytes32"
        }
      ],
      "stateMutability": "view",
      "type": "function"
    },
    {
      "inputs": [
        {
          "internalType": "address",
          "name": "to",
          "type": "address"
        }
      ],
      "name": "addGlobalWhitelist",
      "outputs": [],
      "stateMutability": "nonpayable",
      "type": "function"
    },
    {
      "inputs": [
        {
          "internalType": "address",
          "name": "from",
          "type": "address"
        },
        {
          "internalType": "address",
          "name": "to",
          "type": "address"
        }
      ],
      "name": "addWhitelist",
      "outputs": [],
      "stateMutability": "nonpayable",
      "type": "function"
    },
    {
      "inputs": [
        {
          "internalType": "address",
          "name": "owner",
          "type": "address"
        },
        {
          "internalType": "address",
          "name": "spender",
          "type": "address"
        }
      ],
      "name": "allowance",
      "outputs": [
        {
          "internalType": "uint256",
          "name": "",
          "type": "uint256"
        }
      ],
      "stateMutability": "view",
      "type": "function"
    },
    {
      "inputs": [
        {
          "internalType": "address",
          "name": "spender",
          "type": "address"
        },
        {
          "internalType": "uint256",
          "name": "amount",
          "type": "uint256"
        }
      ],
      "name": "approve",
      "outputs": [
        {
          "internalType": "bool",
          "name": "",
          "type": "bool"
        }
      ],
      "stateMutability": "nonpayable",
      "type": "function"
    },
    {
      "inputs": [
        {
          "internalType": "address",
          "name": "account",
          "type": "address"
        }
      ],
      "name": "balanceOf",
      "outputs": [
        {
          "internalType": "uint256",
          "name": "",
          "type": "uint256"
        }
      ],
      "stateMutability": "view",
      "type": "function"
    },
    {
      "inputs": [
        {
          "internalType": "address[]",
          "name": "to",
          "type": "address[]"
        },
        {
          "internalType": "uint256[]",
          "name": "amount",
          "type": "uint256[]"
        },
        {
          "internalType": "uint256",
          "name": "startTime",
          "type": "uint256"
        },
        {
          "internalType": "uint256",
          "name": "duration",
          "type": "uint256"
        }
      ],
      "name": "batchMint",
      "outputs": [],
      "stateMutability": "nonpayable",
      "type": "function"
    },
    {
      "inputs": [
        {
          "internalType": "address",
          "name": "_address",
          "type": "address"
        },
        {
          "internalType": "uint256",
          "name": "amount",
          "type": "uint256"
        }
      ],
      "name": "burn",
      "outputs": [],
      "stateMutability": "nonpayable",
      "type": "function"
    },
    {
      "inputs": [],
      "name": "claimPending",
      "outputs": [],
      "stateMutability": "nonpayable",
      "type": "function"
    },
    {
      "inputs": [],
      "name": "convertLocked",
      "outputs": [],
      "stateMutability": "nonpayable",
      "type": "function"
    },
    {
      "inputs": [],
      "name": "decimals",
      "outputs": [
        {
          "internalType": "uint8",
          "name": "",
          "type": "uint8"
        }
      ],
      "stateMutability": "view",
      "type": "function"
    },
    {
      "inputs": [
        {
          "internalType": "address",
          "name": "spender",
          "type": "address"
        },
        {
          "internalType": "uint256",
          "name": "subtractedValue",
          "type": "uint256"
        }
      ],
      "name": "decreaseAllowance",
      "outputs": [
        {
          "internalType": "bool",
          "name": "",
          "type": "bool"
        }
      ],
      "stateMutability": "nonpayable",
      "type": "function"
    },
    {
      "inputs": [
        {
          "internalType": "address",
          "name": "_address",
          "type": "address"
        }
      ],
      "name": "disbursementOf",
      "outputs": [
        {
          "internalType": "uint256",
          "name": "startTime",
          "type": "uint256"
        },
        {
          "internalType": "uint256",
          "name": "duration",
          "type": "uint256"
        },
        {
          "internalType": "uint256",
          "name": "amount",
          "type": "uint256"
        },
        {
          "internalType": "uint256",
          "name": "balance",
          "type": "uint256"
        }
      ],
      "stateMutability": "view",
      "type": "function"
    },
    {
      "inputs": [
        {
          "internalType": "address",
          "name": "",
          "type": "address"
        },
        {
          "internalType": "uint256",
          "name": "",
          "type": "uint256"
        }
      ],
      "name": "disbursements",
      "outputs": [
        {
          "internalType": "uint256",
          "name": "startTime",
          "type": "uint256"
        },
        {
          "internalType": "uint256",
          "name": "duration",
          "type": "uint256"
        },
        {
          "internalType": "uint256",
          "name": "amount",
          "type": "uint256"
        },
        {
          "internalType": "uint256",
          "name": "balance",
          "type": "uint256"
        }
      ],
      "stateMutability": "view",
      "type": "function"
    },
    {
      "inputs": [
        {
          "internalType": "address",
          "name": "_address",
          "type": "address"
        }
      ],
      "name": "disbursementsOf",
      "outputs": [
        {
          "components": [
            {
              "internalType": "uint256",
              "name": "startTime",
              "type": "uint256"
            },
            {
              "internalType": "uint256",
              "name": "duration",
              "type": "uint256"
            },
            {
              "internalType": "uint256",
              "name": "amount",
              "type": "uint256"
            },
            {
              "internalType": "uint256",
              "name": "balance",
              "type": "uint256"
            }
          ],
          "internalType": "struct cEVO.Disbursement[]",
          "name": "",
          "type": "tuple[]"
        }
      ],
      "stateMutability": "view",
      "type": "function"
    },
    {
      "inputs": [
        {
          "internalType": "bytes32",
          "name": "role",
          "type": "bytes32"
        }
      ],
      "name": "getRoleAdmin",
      "outputs": [
        {
          "internalType": "bytes32",
          "name": "",
          "type": "bytes32"
        }
      ],
      "stateMutability": "view",
      "type": "function"
    },
    {
      "inputs": [
        {
          "internalType": "bytes32",
          "name": "role",
          "type": "bytes32"
        },
        {
          "internalType": "address",
          "name": "account",
          "type": "address"
        }
      ],
      "name": "grantRole",
      "outputs": [],
      "stateMutability": "nonpayable",
      "type": "function"
    },
    {
      "inputs": [
        {
          "internalType": "bytes32",
          "name": "role",
          "type": "bytes32"
        },
        {
          "internalType": "address",
          "name": "account",
          "type": "address"
        }
      ],
      "name": "hasRole",
      "outputs": [
        {
          "internalType": "bool",
          "name": "",
          "type": "bool"
        }
      ],
      "stateMutability": "view",
      "type": "function"
    },
    {
      "inputs": [
        {
          "internalType": "address",
          "name": "spender",
          "type": "address"
        },
        {
          "internalType": "uint256",
          "name": "addedValue",
          "type": "uint256"
        }
      ],
      "name": "increaseAllowance",
      "outputs": [
        {
          "internalType": "bool",
          "name": "",
          "type": "bool"
        }
      ],
      "stateMutability": "nonpayable",
      "type": "function"
    },
    {
      "inputs": [],
      "name": "initialize",
      "outputs": [],
      "stateMutability": "nonpayable",
      "type": "function"
    },
    {
      "inputs": [
        {
          "internalType": "address",
          "name": "",
          "type": "address"
        }
      ],
      "name": "lockedOf",
      "outputs": [
        {
          "internalType": "uint256",
          "name": "",
          "type": "uint256"
        }
      ],
      "stateMutability": "view",
      "type": "function"
    },
    {
      "inputs": [
        {
          "internalType": "address",
          "name": "to",
          "type": "address"
        },
        {
          "internalType": "uint256",
          "name": "startTime",
          "type": "uint256"
        },
        {
          "internalType": "uint256",
          "name": "duration",
          "type": "uint256"
        },
        {
          "internalType": "uint256",
          "name": "amount",
          "type": "uint256"
        }
      ],
      "name": "mint",
      "outputs": [],
      "stateMutability": "nonpayable",
      "type": "function"
    },
    {
      "inputs": [
        {
          "internalType": "address",
          "name": "_address",
          "type": "address"
        },
        {
          "internalType": "uint256",
          "name": "amount",
          "type": "uint256"
        }
      ],
      "name": "mintLocked",
      "outputs": [],
      "stateMutability": "nonpayable",
      "type": "function"
    },
    {
      "inputs": [
        {
          "internalType": "address",
          "name": "from",
          "type": "address"
        },
        {
          "internalType": "address",
          "name": "to",
          "type": "address"
        }
      ],
      "name": "moveLocked",
      "outputs": [],
      "stateMutability": "nonpayable",
      "type": "function"
    },
    {
      "inputs": [],
      "name": "name",
      "outputs": [
        {
          "internalType": "string",
          "name": "",
          "type": "string"
        }
      ],
      "stateMutability": "view",
      "type": "function"
    },
    {
      "inputs": [],
      "name": "pause",
      "outputs": [],
      "stateMutability": "nonpayable",
      "type": "function"
    },
    {
      "inputs": [],
      "name": "paused",
      "outputs": [
        {
          "internalType": "bool",
          "name": "",
          "type": "bool"
        }
      ],
      "stateMutability": "view",
      "type": "function"
    },
    {
      "inputs": [
        {
          "internalType": "address",
          "name": "_address",
          "type": "address"
        }
      ],
      "name": "pendingOf",
      "outputs": [
        {
          "internalType": "uint256",
          "name": "",
          "type": "uint256"
        }
      ],
      "stateMutability": "view",
      "type": "function"
    },
    {
      "inputs": [
        {
          "internalType": "address",
          "name": "_address",
          "type": "address"
        },
        {
          "internalType": "uint256",
          "name": "index",
          "type": "uint256"
        }
      ],
      "name": "removeDisbursement",
      "outputs": [],
      "stateMutability": "nonpayable",
      "type": "function"
    },
    {
      "inputs": [
        {
          "internalType": "bytes32",
          "name": "role",
          "type": "bytes32"
        },
        {
          "internalType": "address",
          "name": "account",
          "type": "address"
        }
      ],
      "name": "renounceRole",
      "outputs": [],
      "stateMutability": "nonpayable",
      "type": "function"
    },
    {
      "inputs": [
        {
          "internalType": "address",
          "name": "_address",
          "type": "address"
        },
        {
          "internalType": "uint256",
          "name": "index",
          "type": "uint256"
        },
        {
          "internalType": "uint256",
          "name": "amount",
          "type": "uint256"
        }
      ],
      "name": "resetDisbursement",
      "outputs": [],
      "stateMutability": "nonpayable",
      "type": "function"
    },
    {
      "inputs": [
        {
          "internalType": "bytes32",
          "name": "role",
          "type": "bytes32"
        },
        {
          "internalType": "address",
          "name": "account",
          "type": "address"
        }
      ],
      "name": "revokeRole",
      "outputs": [],
      "stateMutability": "nonpayable",
      "type": "function"
    },
    {
      "inputs": [
        {
          "internalType": "bytes4",
          "name": "interfaceId",
          "type": "bytes4"
        }
      ],
      "name": "supportsInterface",
      "outputs": [
        {
          "internalType": "bool",
          "name": "",
          "type": "bool"
        }
      ],
      "stateMutability": "view",
      "type": "function"
    },
    {
      "inputs": [],
      "name": "symbol",
      "outputs": [
        {
          "internalType": "string",
          "name": "",
          "type": "string"
        }
      ],
      "stateMutability": "view",
      "type": "function"
    },
    {
      "inputs": [],
      "name": "totalSupply",
      "outputs": [
        {
          "internalType": "uint256",
          "name": "",
          "type": "uint256"
        }
      ],
      "stateMutability": "view",
      "type": "function"
    },
    {
      "inputs": [
        {
          "internalType": "address",
          "name": "to",
          "type": "address"
        },
        {
          "internalType": "uint256",
          "name": "amount",
          "type": "uint256"
        }
      ],
      "name": "transfer",
      "outputs": [
        {
          "internalType": "bool",
          "name": "",
          "type": "bool"
        }
      ],
      "stateMutability": "nonpayable",
      "type": "function"
    },
    {
      "inputs": [
        {
          "internalType": "address",
          "name": "from",
          "type": "address"
        },
        {
          "internalType": "address",
          "name": "to",
          "type": "address"
        },
        {
          "internalType": "uint256",
          "name": "amount",
          "type": "uint256"
        }
      ],
      "name": "transferFrom",
      "outputs": [
        {
          "internalType": "bool",
          "name": "",
          "type": "bool"
        }
      ],
      "stateMutability": "nonpayable",
      "type": "function"
    },
    {
      "inputs": [],
      "name": "unpause",
      "outputs": [],
      "stateMutability": "nonpayable",
      "type": "function"
    }
  ],
  "bytecode": "0x60806040523480156200001157600080fd5b50600054610100900460ff1615808015620000335750600054600160ff909116105b8062000063575062000050306200013d60201b620016901760201c565b15801562000063575060005460ff166001145b620000cb5760405162461bcd60e51b815260206004820152602e60248201527f496e697469616c697a61626c653a20636f6e747261637420697320616c72656160448201526d191e481a5b9a5d1a585b1a5e995960921b606482015260840160405180910390fd5b6000805460ff191660011790558015620000ef576000805461ff0019166101001790555b801562000136576000805461ff0019169055604051600181527f7f26b83ff96e1f2b6a682f133852f6798a09c465da95921460cefb38474024989060200160405180910390a15b506200014c565b6001600160a01b03163b151590565b6129cf806200015c6000396000f3fe608060405234801561001057600080fd5b506004361061025e5760003560e01c806370a0823111610146578063a5f1e282116100c3578063bcd9915e11610087578063bcd9915e1461054a578063d53913931461055d578063d547741f14610572578063dd62ed3e14610585578063e63ab1e914610598578063f44136a1146105ad57600080fd5b8063a5f1e282146104de578063a647e8ec146104fe578063a73d633c14610511578063a9059cbb14610524578063b45cc8451461053757600080fd5b806391d148541161010a57806391d148541461049557806395d89b41146104a85780639dc29fac146104b0578063a217fddf146104c3578063a457c2d7146104cb57600080fd5b806370a08231146104415780637a1530431461046a5780638129fc1c1461047d5780638456cb591461048557806384f6e96b1461048d57600080fd5b8063313ce567116101df578063478b7ad5116101a3578063478b7ad5146103b757806349e8b863146103ca5780635143e246146103fd57806353f7ce2d146104105780635c975abb1461042357806365982e601461042e57600080fd5b8063313ce5671461034757806336568abe1461035657806339509351146103695780633aef80ff1461037c5780633f4ba83a146103af57600080fd5b8063098480ec11610226578063098480ec146102dd57806318160ddd146102f657806323b872dd146102fe578063248a9ca3146103115780632f2ff15d1461033457600080fd5b806301ffc9a71461026357806303a9f06e1461028b57806305cea05f1461029557806306fdde03146102b5578063095ea7b3146102ca575b600080fd5b61027661027136600461234a565b6105c0565b60405190151581526020015b60405180910390f35b6102936105f7565b005b6102a86102a3366004612390565b6108ae565b60405161028291906123ab565b6102bd61094b565b604051610282919061243b565b6102766102d836600461246e565b6109dd565b6102e8630167e98081565b604051908152602001610282565b6035546102e8565b61027661030c366004612498565b6109f5565b6102e861031f3660046124d4565b600090815260c9602052604090206001015490565b6102936103423660046124ed565b610a19565b60405160128152602001610282565b6102936103643660046124ed565b610a43565b61027661037736600461246e565b610ac2565b61038f61038a366004612390565b610ae4565b604080519485526020850193909352918301526060820152608001610282565b610293610bff565b6102936103c536600461246e565b610c22565b6103e5735b747e23a9e4c509dd06fbd2c0e3cb8b846e398f81565b6040516001600160a01b039091168152602001610282565b61029361040b36600461246e565b610ce2565b61029361041e3660046125ef565b610d32565b60655460ff16610276565b61029361043c3660046126bf565b610dff565b6102e861044f366004612390565b6001600160a01b031660009081526033602052604090205490565b61038f61047836600461246e565b610efa565b610293610f40565b6102936110d5565b6102936110f5565b6102766104a33660046124ed565b6112e6565b6102bd611311565b6102936104be36600461246e565b611320565b6102e8600081565b6102766104d936600461246e565b611370565b6102e86104ec366004612390565b60ff6020526000908152604090205481565b61029361050c3660046126f2565b6113eb565b61029361051f36600461272b565b6114aa565b61027661053236600461246e565b6114d7565b610293610545366004612390565b6114e5565b61029361055836600461272b565b6114fb565b6102e860008051602061297a83398151915281565b6102936105803660046124ed565b611555565b6102e861059336600461272b565b61157a565b6102e860008051602061295a83398151915281565b6102e86105bb366004612390565b6115a5565b60006001600160e01b03198216637965db0b60e01b14806105f157506301ffc9a760e01b6001600160e01b03198316145b92915050565b6105ff61169f565b6000805b33600090815260fe60205260409020548110156106f35733600090815260fe6020526040812080548390811061063b5761063b612755565b906000526020600020906004020190506000816003015482600201546106619190612781565b90506000826001015483600201546106799190612798565b905060008184600001544261068e9190612781565b61069891906127ba565b9050808310156106dc576106ac8382612781565b8460030160008282546106bf9190612781565b909155506106cf90508382612781565b6106d990876127d9565b95505b5050505080806106eb906127f1565b915050610603565b50806106fc5750565b61070633826116e5565b6040516370a0823160e01b81523060048201528190735b747e23a9e4c509dd06fbd2c0e3cb8b846e398f906370a082319060240160206040518083038186803b15801561075257600080fd5b505afa158015610766573d6000803e3d6000fd5b505050506040513d601f19601f8201168201806040525081019061078a919061280c565b111561082f57735b747e23a9e4c509dd06fbd2c0e3cb8b846e398f63a9059cbb336040516001600160e01b031960e084901b1681526001600160a01b03909116600482015260248101849052604401602060405180830381600087803b1580156107f357600080fd5b505af1158015610807573d6000803e3d6000fd5b505050506040513d601f19601f8201168201806040525081019061082b9190612825565b5050565b735b747e23a9e4c509dd06fbd2c0e3cb8b846e398f6340c10f19336040516001600160e01b031960e084901b1681526001600160a01b03909116600482015260248101849052604401600060405180830381600087803b15801561089257600080fd5b505af11580156108a6573d6000803e3d6000fd5b50505050505b565b6001600160a01b038116600090815260fe60209081526040808320805482518185028101850190935280835260609492939192909184015b828210156109405783829060005260206000209060040201604051806080016040529081600082015481526020016001820154815260200160028201548152602001600382015481525050815260200190600101906108e6565b505050509050919050565b60606036805461095a90612847565b80601f016020809104026020016040519081016040528092919081815260200182805461098690612847565b80156109d35780601f106109a8576101008083540402835291602001916109d3565b820191906000526020600020905b8154815290600101906020018083116109b657829003601f168201915b5050505050905090565b6000336109eb81858561183f565b5060019392505050565b600033610a03858285611963565b610a0e8585856119d7565b506001949350505050565b600082815260c96020526040902060010154610a3481611bb0565b610a3e8383611bba565b505050565b6001600160a01b0381163314610ab85760405162461bcd60e51b815260206004820152602f60248201527f416363657373436f6e74726f6c3a2063616e206f6e6c792072656e6f756e636560448201526e103937b632b9903337b91039b2b63360891b60648201526084015b60405180910390fd5b61082b8282611c40565b6000336109eb818585610ad5838361157a565b610adf91906127d9565b61183f565b6001600160a01b038116600090815260fe602052604081208054829182918291908290610b1357610b13612755565b600091825260208083206004909202909101546001600160a01b038816835260fe9091526040822080549196509190610b4e57610b4e612755565b906000526020600020906004020160010154925060fe6000866001600160a01b03166001600160a01b03168152602001908152602001600020600081548110610b9957610b99612755565b906000526020600020906004020160020154915060fe6000866001600160a01b03166001600160a01b03168152602001908152602001600020600081548110610be457610be4612755565b90600052602060002090600402016003015490509193509193565b60008051602061295a833981519152610c1781611bb0565b610c1f611ca7565b50565b60008051602061297a833981519152610c3a81611bb0565b6001600160a01b038316600090815260fe60205260408120805484908110610c6457610c64612755565b906000526020600020906004020160030154905060fe6000856001600160a01b03166001600160a01b031681526020019081526020016000208381548110610cae57610cae612755565b600091825260208220600490910201818155600181018290556002810182905560030155610cdc84826116e5565b50505050565b60008051602061297a833981519152610cfa81611bb0565b6001600160a01b038316600090815260ff602052604081208054849290610d229084906127d9565b90915550610a3e90508383611cf9565b60008051602061297a833981519152610d4a81611bb0565b8351855114610d9b5760405162461bcd60e51b815260206004820152601f60248201527f746f20616e6420616d6f756e7420617272617973206d757374206d61746368006044820152606401610aaf565b60005b8551811015610df757610de5868281518110610dbc57610dbc612755565b60200260200101518585888581518110610dd857610dd8612755565b60200260200101516113eb565b80610def816127f1565b915050610d9e565b505050505050565b6000610e0a81611bb0565b6001600160a01b038416600090815260fe60205260408120805485908110610e3457610e34612755565b90600052602060002090600402016003015490508260fe6000876001600160a01b03166001600160a01b031681526020019081526020016000208581548110610e7f57610e7f612755565b9060005260206000209060040201600301819055508260fe6000876001600160a01b03166001600160a01b031681526020019081526020016000208581548110610ecb57610ecb612755565b9060005260206000209060040201600201819055508281106108a6576108a685610ef58584612781565b6116e5565b60fe6020528160005260406000208181548110610f1657600080fd5b60009182526020909120600490910201805460018201546002830154600390930154919450925084565b600054610100900460ff1615808015610f605750600054600160ff909116105b80610f7a5750303b158015610f7a575060005460ff166001145b610fdd5760405162461bcd60e51b815260206004820152602e60248201527f496e697469616c697a61626c653a20636f6e747261637420697320616c72656160448201526d191e481a5b9a5d1a585b1a5e995960921b6064820152608401610aaf565b6000805460ff191660011790558015611000576000805461ff0019166101001790555b611042604051806040016040528060048152602001636345564f60e01b815250604051806040016040528060048152602001636345564f60e01b815250611de4565b61104a611e15565b611052611e44565b61105d600033611bba565b61107560008051602061295a83398151915233611bba565b61108d60008051602061297a83398151915233611bba565b8015610c1f576000805461ff0019169055604051600181527f7f26b83ff96e1f2b6a682f133852f6798a09c465da95921460cefb38474024989060200160405180910390a150565b60008051602061295a8339815191526110ed81611bb0565b610c1f611e6b565b6000735b747e23a9e4c509dd06fbd2c0e3cb8b846e398f635a46d3b5336040516001600160e01b031960e084901b1681526001600160a01b03909116600482015260240160206040518083038186803b15801561115157600080fd5b505afa158015611165573d6000803e3d6000fd5b505050506040513d601f19601f82011682018060405250810190611189919061280c565b9050735b747e23a9e4c509dd06fbd2c0e3cb8b846e398f63af2b0f66336040516001600160e01b031960e084901b1681526001600160a01b03909116600482015260248101849052604401600060405180830381600087803b1580156111ee57600080fd5b505af1158015611202573d6000803e3d6000fd5b50505050735b747e23a9e4c509dd06fbd2c0e3cb8b846e398f6001600160a01b03166323b872dd6112303390565b6040516001600160e01b031960e084901b1681526001600160a01b03909116600482015230602482015260448101849052606401602060405180830381600087803b15801561127e57600080fd5b505af1158015611292573d6000803e3d6000fd5b505050506040513d601f19601f820116820180604052508101906112b69190612825565b5033600090815260ff6020526040812080548392906112d69084906127d9565b90915550610c1f90503382611cf9565b600091825260c9602090815260408084206001600160a01b0393909316845291905290205460ff1690565b60606037805461095a90612847565b60008051602061297a83398151915261133881611bb0565b6001600160a01b038316600090815260ff602052604081208054849290611360908490612781565b90915550610a3e905083836116e5565b6000338161137e828661157a565b9050838110156113de5760405162461bcd60e51b815260206004820152602560248201527f45524332303a2064656372656173656420616c6c6f77616e63652062656c6f77604482015264207a65726f60d81b6064820152608401610aaf565b610a0e828686840361183f565b60008051602061297a83398151915261140381611bb0565b60008085116114125742611414565b845b9050600080851161142957630167e98061142b565b845b6001600160a01b038816600090815260fe6020908152604080832081516080810183528781528084018681529281018a8152606082018b81528354600181810186559488529590962091516004909502909101938455915190830155516002820155905160039091015590506114a18785611cf9565b50505050505050565b60006114b581611bb0565b6001600160a01b038316600090815260fd60205260409020610cdc9083611ea8565b6000336109eb8185856119d7565b60006114f081611bb0565b610a3e60fb83611ea8565b60008051602061297a83398151915261151381611bb0565b6001600160a01b03808416600090815260ff602052604080822080549083905592851682528120805483929061154a9084906127d9565b909155505050505050565b600082815260c9602052604090206001015461157081611bb0565b610a3e8383611c40565b6001600160a01b03918216600090815260346020908152604080832093909416825291909152205490565b600080805b6001600160a01b038416600090815260fe6020526040902054811015611689576001600160a01b038416600090815260fe602052604081208054839081106115f4576115f4612755565b9060005260206000209060040201905060008160030154826002015461161a9190612781565b90506000826001015483600201546116329190612798565b90506000818460000154426116479190612781565b61165191906127ba565b905080831015611672576116658382612781565b61166f90876127d9565b95505b505050508080611681906127f1565b9150506115aa565b5092915050565b6001600160a01b03163b151590565b60655460ff16156108ac5760405162461bcd60e51b815260206004820152601060248201526f14185d5cd8589b194e881c185d5cd95960821b6044820152606401610aaf565b6001600160a01b0382166117455760405162461bcd60e51b815260206004820152602160248201527f45524332303a206275726e2066726f6d20746865207a65726f206164647265736044820152607360f81b6064820152608401610aaf565b61175182600083611ec4565b6001600160a01b038216600090815260336020526040902054818110156117c55760405162461bcd60e51b815260206004820152602260248201527f45524332303a206275726e20616d6f756e7420657863656564732062616c616e604482015261636560f01b6064820152608401610aaf565b6001600160a01b03831660009081526033602052604081208383039055603580548492906117f4908490612781565b90915550506040518281526000906001600160a01b038516907fddf252ad1be2c89b69c2b068fc378daa952ba7f163c4a11628f55a4df523b3ef9060200160405180910390a3505050565b6001600160a01b0383166118a15760405162461bcd60e51b8152602060048201526024808201527f45524332303a20617070726f76652066726f6d20746865207a65726f206164646044820152637265737360e01b6064820152608401610aaf565b6001600160a01b0382166119025760405162461bcd60e51b815260206004820152602260248201527f45524332303a20617070726f766520746f20746865207a65726f206164647265604482015261737360f01b6064820152608401610aaf565b6001600160a01b0383811660008181526034602090815260408083209487168084529482529182902085905590518481527f8c5be1e5ebec7d5bd14f71427d1e84f3dd0314c0f7b2291e5b200ac8c7c3b925910160405180910390a3505050565b600061196f848461157a565b90506000198114610cdc57818110156119ca5760405162461bcd60e51b815260206004820152601d60248201527f45524332303a20696e73756666696369656e7420616c6c6f77616e63650000006044820152606401610aaf565b610cdc848484840361183f565b6001600160a01b038316611a3b5760405162461bcd60e51b815260206004820152602560248201527f45524332303a207472616e736665722066726f6d20746865207a65726f206164604482015264647265737360d81b6064820152608401610aaf565b6001600160a01b038216611a9d5760405162461bcd60e51b815260206004820152602360248201527f45524332303a207472616e7366657220746f20746865207a65726f206164647260448201526265737360e81b6064820152608401610aaf565b611aa8838383611ec4565b6001600160a01b03831660009081526033602052604090205481811015611b205760405162461bcd60e51b815260206004820152602660248201527f45524332303a207472616e7366657220616d6f756e7420657863656564732062604482015265616c616e636560d01b6064820152608401610aaf565b6001600160a01b03808516600090815260336020526040808220858503905591851681529081208054849290611b579084906127d9565b92505081905550826001600160a01b0316846001600160a01b03167fddf252ad1be2c89b69c2b068fc378daa952ba7f163c4a11628f55a4df523b3ef84604051611ba391815260200190565b60405180910390a3610cdc565b610c1f8133611f76565b611bc482826112e6565b61082b57600082815260c9602090815260408083206001600160a01b03851684529091529020805460ff19166001179055611bfc3390565b6001600160a01b0316816001600160a01b0316837f2f8788117e7eff1d82e926ec794901d17c78024a50270940304540a733656f0d60405160405180910390a45050565b611c4a82826112e6565b1561082b57600082815260c9602090815260408083206001600160a01b0385168085529252808320805460ff1916905551339285917ff6391f5c32d9c69d2a47ea670b442974b53935d1edc7fd64eb21e047a839171b9190a45050565b611caf611fda565b6065805460ff191690557f5db9ee0a495bf2e6ff9c91a7834c1ba4fdd244a5e8aa4e537bd38aeae4b073aa335b6040516001600160a01b03909116815260200160405180910390a1565b6001600160a01b038216611d4f5760405162461bcd60e51b815260206004820152601f60248201527f45524332303a206d696e7420746f20746865207a65726f2061646472657373006044820152606401610aaf565b611d5b60008383611ec4565b8060356000828254611d6d91906127d9565b90915550506001600160a01b03821660009081526033602052604081208054839290611d9a9084906127d9565b90915550506040518181526001600160a01b038316906000907fddf252ad1be2c89b69c2b068fc378daa952ba7f163c4a11628f55a4df523b3ef9060200160405180910390a35050565b600054610100900460ff16611e0b5760405162461bcd60e51b8152600401610aaf90612882565b61082b8282612023565b600054610100900460ff16611e3c5760405162461bcd60e51b8152600401610aaf90612882565b6108ac612071565b600054610100900460ff166108ac5760405162461bcd60e51b8152600401610aaf90612882565b611e7361169f565b6065805460ff191660011790557f62e78cea01bee320cd4e420270b5ea74000d11b0c9f74754ebdbfc544b05a258611cdc3390565b6000611ebd836001600160a01b0384166120a4565b9392505050565b611ecc61169f565b8282611ed960fb826120f3565b80611f0157506001600160a01b038216600090815260fd60205260409020611f0190826120f3565b80611f1357506001600160a01b038216155b80611f2557506001600160a01b038116155b611f715760405162461bcd60e51b815260206004820152601860248201527f6345564f206973206e6f6e2d7472616e7366657261626c6500000000000000006044820152606401610aaf565b6108a6565b611f8082826112e6565b61082b57611f98816001600160a01b03166014612115565b611fa3836020612115565b604051602001611fb49291906128cd565b60408051601f198184030181529082905262461bcd60e51b8252610aaf9160040161243b565b60655460ff166108ac5760405162461bcd60e51b815260206004820152601460248201527314185d5cd8589b194e881b9bdd081c185d5cd95960621b6044820152606401610aaf565b600054610100900460ff1661204a5760405162461bcd60e51b8152600401610aaf90612882565b815161205d9060369060208501906122b1565b508051610a3e9060379060208401906122b1565b600054610100900460ff166120985760405162461bcd60e51b8152600401610aaf90612882565b6065805460ff19169055565b60008181526001830160205260408120546120eb575081546001818101845560008481526020808220909301849055845484825282860190935260409020919091556105f1565b5060006105f1565b6001600160a01b03811660009081526001830160205260408120541515611ebd565b606060006121248360026127ba565b61212f9060026127d9565b67ffffffffffffffff81111561214757612147612519565b6040519080825280601f01601f191660200182016040528015612171576020820181803683370190505b509050600360fc1b8160008151811061218c5761218c612755565b60200101906001600160f81b031916908160001a905350600f60fb1b816001815181106121bb576121bb612755565b60200101906001600160f81b031916908160001a90535060006121df8460026127ba565b6121ea9060016127d9565b90505b6001811115612262576f181899199a1a9b1b9c1cb0b131b232b360811b85600f166010811061221e5761221e612755565b1a60f81b82828151811061223457612234612755565b60200101906001600160f81b031916908160001a90535060049490941c9361225b81612942565b90506121ed565b508315611ebd5760405162461bcd60e51b815260206004820181905260248201527f537472696e67733a20686578206c656e67746820696e73756666696369656e746044820152606401610aaf565b8280546122bd90612847565b90600052602060002090601f0160209004810192826122df5760008555612325565b82601f106122f857805160ff1916838001178555612325565b82800160010185558215612325579182015b8281111561232557825182559160200191906001019061230a565b50612331929150612335565b5090565b5b808211156123315760008155600101612336565b60006020828403121561235c57600080fd5b81356001600160e01b031981168114611ebd57600080fd5b80356001600160a01b038116811461238b57600080fd5b919050565b6000602082840312156123a257600080fd5b611ebd82612374565b602080825282518282018190526000919060409081850190868401855b82811015612402578151805185528681015187860152858101518686015260609081015190850152608090930192908501906001016123c8565b5091979650505050505050565b60005b8381101561242a578181015183820152602001612412565b83811115610cdc5750506000910152565b602081526000825180602084015261245a81604085016020870161240f565b601f01601f19169190910160400192915050565b6000806040838503121561248157600080fd5b61248a83612374565b946020939093013593505050565b6000806000606084860312156124ad57600080fd5b6124b684612374565b92506124c460208501612374565b9150604084013590509250925092565b6000602082840312156124e657600080fd5b5035919050565b6000806040838503121561250057600080fd5b8235915061251060208401612374565b90509250929050565b634e487b7160e01b600052604160045260246000fd5b604051601f8201601f1916810167ffffffffffffffff8111828210171561255857612558612519565b604052919050565b600067ffffffffffffffff82111561257a5761257a612519565b5060051b60200190565b600082601f83011261259557600080fd5b813560206125aa6125a583612560565b61252f565b82815260059290921b840181019181810190868411156125c957600080fd5b8286015b848110156125e457803583529183019183016125cd565b509695505050505050565b6000806000806080858703121561260557600080fd5b843567ffffffffffffffff8082111561261d57600080fd5b818701915087601f83011261263157600080fd5b813560206126416125a583612560565b82815260059290921b8401810191818101908b84111561266057600080fd5b948201945b838610156126855761267686612374565b82529482019490820190612665565b9850508801359250508082111561269b57600080fd5b506126a887828801612584565b949794965050505060408301359260600135919050565b6000806000606084860312156126d457600080fd5b6126dd84612374565b95602085013595506040909401359392505050565b6000806000806080858703121561270857600080fd5b61271185612374565b966020860135965060408601359560600135945092505050565b6000806040838503121561273e57600080fd5b61274783612374565b915061251060208401612374565b634e487b7160e01b600052603260045260246000fd5b634e487b7160e01b600052601160045260246000fd5b6000828210156127935761279361276b565b500390565b6000826127b557634e487b7160e01b600052601260045260246000fd5b500490565b60008160001904831182151516156127d4576127d461276b565b500290565b600082198211156127ec576127ec61276b565b500190565b60006000198214156128055761280561276b565b5060010190565b60006020828403121561281e57600080fd5b5051919050565b60006020828403121561283757600080fd5b81518015158114611ebd57600080fd5b600181811c9082168061285b57607f821691505b6020821081141561287c57634e487b7160e01b600052602260045260246000fd5b50919050565b6020808252602b908201527f496e697469616c697a61626c653a20636f6e7472616374206973206e6f74206960408201526a6e697469616c697a696e6760a81b606082015260800190565b7f416363657373436f6e74726f6c3a206163636f756e742000000000000000000081526000835161290581601785016020880161240f565b7001034b99036b4b9b9b4b733903937b6329607d1b601791840191820152835161293681602884016020880161240f565b01602801949350505050565b6000816129515761295161276b565b50600019019056fe65d7a28e3265b37a6474929f336521b332c1681b933f6cb9f3376673440d862a9f2df0fed2c77648de5860a4cc508cd0818c85b8b8a1ab4ceeef8d981c8956a6a2646970667358221220577a93ffe1d14a835bf66aa579b026f8721a01d0a5cea44c4176569960f3ece864736f6c63430008090033",
  "linkReferences": {},
  "deployedLinkReferences": {}
}