{
  "_format": "hh-sol-artifact-1",
  "contractName": "xEVO",
  "sourceName": "contracts/ERC20/xEVO.sol",
  "abi": [
    {
      "inputs": [],
      "stateMutability": "nonpayable",
      "type": "constructor"
    },
    {
      "inputs": [
        {
          "internalType": "address",
          "name": "authority",
          "type": "address"
        }
      ],
      "name": "AccessManagedInvalidAuthority",
      "type": "error"
    },
    {
      "inputs": [
        {
          "internalType": "address",
          "name": "caller",
          "type": "address"
        },
        {
          "internalType": "uint32",
          "name": "delay",
          "type": "uint32"
        }
      ],
      "name": "AccessManagedRequiredDelay",
      "type": "error"
    },
    {
      "inputs": [
        {
          "internalType": "address",
          "name": "caller",
          "type": "address"
        }
      ],
      "name": "AccessManagedUnauthorized",
      "type": "error"
    },
    {
      "inputs": [
        {
          "internalType": "address",
          "name": "target",
          "type": "address"
        }
      ],
      "name": "AddressEmptyCode",
      "type": "error"
    },
    {
      "inputs": [
        {
          "internalType": "address",
          "name": "implementation",
          "type": "address"
        }
      ],
      "name": "ERC1967InvalidImplementation",
      "type": "error"
    },
    {
      "inputs": [],
      "name": "ERC1967NonPayable",
      "type": "error"
    },
    {
      "inputs": [
        {
          "internalType": "address",
          "name": "spender",
          "type": "address"
        },
        {
          "internalType": "uint256",
          "name": "allowance",
          "type": "uint256"
        },
        {
          "internalType": "uint256",
          "name": "needed",
          "type": "uint256"
        }
      ],
      "name": "ERC20InsufficientAllowance",
      "type": "error"
    },
    {
      "inputs": [
        {
          "internalType": "address",
          "name": "sender",
          "type": "address"
        },
        {
          "internalType": "uint256",
          "name": "balance",
          "type": "uint256"
        },
        {
          "internalType": "uint256",
          "name": "needed",
          "type": "uint256"
        }
      ],
      "name": "ERC20InsufficientBalance",
      "type": "error"
    },
    {
      "inputs": [
        {
          "internalType": "address",
          "name": "approver",
          "type": "address"
        }
      ],
      "name": "ERC20InvalidApprover",
      "type": "error"
    },
    {
      "inputs": [
        {
          "internalType": "address",
          "name": "receiver",
          "type": "address"
        }
      ],
      "name": "ERC20InvalidReceiver",
      "type": "error"
    },
    {
      "inputs": [
        {
          "internalType": "address",
          "name": "sender",
          "type": "address"
        }
      ],
      "name": "ERC20InvalidSender",
      "type": "error"
    },
    {
      "inputs": [
        {
          "internalType": "address",
          "name": "spender",
          "type": "address"
        }
      ],
      "name": "ERC20InvalidSpender",
      "type": "error"
    },
    {
      "inputs": [],
      "name": "EnforcedPause",
      "type": "error"
    },
    {
      "inputs": [],
      "name": "ExpectedPause",
      "type": "error"
    },
    {
      "inputs": [],
      "name": "FailedInnerCall",
      "type": "error"
    },
    {
      "inputs": [],
      "name": "InvalidInitialization",
      "type": "error"
    },
    {
      "inputs": [],
      "name": "NotInitializing",
      "type": "error"
    },
    {
      "inputs": [],
      "name": "UUPSUnauthorizedCallContext",
      "type": "error"
    },
    {
      "inputs": [
        {
          "internalType": "bytes32",
          "name": "slot",
          "type": "bytes32"
        }
      ],
      "name": "UUPSUnsupportedProxiableUUID",
      "type": "error"
    },
    {
      "anonymous": false,
      "inputs": [
        {
          "indexed": true,
          "internalType": "address",
          "name": "owner",
          "type": "address"
        },
        {
          "indexed": true,
          "internalType": "address",
          "name": "spender",
          "type": "address"
        },
        {
          "indexed": false,
          "internalType": "uint256",
          "name": "value",
          "type": "uint256"
        }
      ],
      "name": "Approval",
      "type": "event"
    },
    {
      "anonymous": false,
      "inputs": [
        {
          "indexed": false,
          "internalType": "address",
          "name": "authority",
          "type": "address"
        }
      ],
      "name": "AuthorityUpdated",
      "type": "event"
    },
    {
      "anonymous": false,
      "inputs": [
        {
          "indexed": false,
          "internalType": "uint64",
          "name": "version",
          "type": "uint64"
        }
      ],
      "name": "Initialized",
      "type": "event"
    },
    {
      "anonymous": false,
      "inputs": [
        {
          "indexed": false,
          "internalType": "address",
          "name": "account",
          "type": "address"
        }
      ],
      "name": "Paused",
      "type": "event"
    },
    {
      "anonymous": false,
      "inputs": [
        {
          "indexed": true,
          "internalType": "address",
          "name": "from",
          "type": "address"
        },
        {
          "indexed": true,
          "internalType": "address",
          "name": "to",
          "type": "address"
        },
        {
          "indexed": false,
          "internalType": "uint256",
          "name": "value",
          "type": "uint256"
        }
      ],
      "name": "Transfer",
      "type": "event"
    },
    {
      "anonymous": false,
      "inputs": [
        {
          "indexed": false,
          "internalType": "address",
          "name": "account",
          "type": "address"
        }
      ],
      "name": "Unpaused",
      "type": "event"
    },
    {
      "anonymous": false,
      "inputs": [
        {
          "indexed": true,
          "internalType": "address",
          "name": "implementation",
          "type": "address"
        }
      ],
      "name": "Upgraded",
      "type": "event"
    },
    {
      "inputs": [],
      "name": "UPGRADE_INTERFACE_VERSION",
      "outputs": [
        {
          "internalType": "string",
          "name": "",
          "type": "string"
        }
      ],
      "stateMutability": "view",
      "type": "function"
    },
    {
      "inputs": [
        {
          "internalType": "address",
          "name": "owner",
          "type": "address"
        },
        {
          "internalType": "address",
          "name": "spender",
          "type": "address"
        }
      ],
      "name": "allowance",
      "outputs": [
        {
          "internalType": "uint256",
          "name": "",
          "type": "uint256"
        }
      ],
      "stateMutability": "view",
      "type": "function"
    },
    {
      "inputs": [
        {
          "internalType": "address",
          "name": "spender",
          "type": "address"
        },
        {
          "internalType": "uint256",
          "name": "value",
          "type": "uint256"
        }
      ],
      "name": "approve",
      "outputs": [
        {
          "internalType": "bool",
          "name": "",
          "type": "bool"
        }
      ],
      "stateMutability": "nonpayable",
      "type": "function"
    },
    {
      "inputs": [],
      "name": "authority",
      "outputs": [
        {
          "internalType": "address",
          "name": "",
          "type": "address"
        }
      ],
      "stateMutability": "view",
      "type": "function"
    },
    {
      "inputs": [
        {
          "internalType": "address",
          "name": "account",
          "type": "address"
        }
      ],
      "name": "balanceOf",
      "outputs": [
        {
          "internalType": "uint256",
          "name": "",
          "type": "uint256"
        }
      ],
      "stateMutability": "view",
      "type": "function"
    },
    {
      "inputs": [
        {
          "internalType": "address[]",
          "name": "to",
          "type": "address[]"
        },
        {
          "internalType": "uint256[]",
          "name": "amount",
          "type": "uint256[]"
        }
      ],
      "name": "batchBurn",
      "outputs": [],
      "stateMutability": "nonpayable",
      "type": "function"
    },
    {
      "inputs": [
        {
          "internalType": "address[]",
          "name": "to",
          "type": "address[]"
        },
        {
          "internalType": "uint256[]",
          "name": "amount",
          "type": "uint256[]"
        }
      ],
      "name": "batchMint",
      "outputs": [],
      "stateMutability": "nonpayable",
      "type": "function"
    },
    {
      "inputs": [
        {
          "internalType": "uint256",
          "name": "value",
          "type": "uint256"
        }
      ],
      "name": "burn",
      "outputs": [],
      "stateMutability": "nonpayable",
      "type": "function"
    },
    {
      "inputs": [
        {
          "internalType": "address",
          "name": "account",
          "type": "address"
        },
        {
          "internalType": "uint256",
          "name": "value",
          "type": "uint256"
        }
      ],
      "name": "burnFrom",
      "outputs": [],
      "stateMutability": "nonpayable",
      "type": "function"
    },
    {
      "inputs": [],
      "name": "decimals",
      "outputs": [
        {
          "internalType": "uint8",
          "name": "",
          "type": "uint8"
        }
      ],
      "stateMutability": "view",
      "type": "function"
    },
    {
      "inputs": [
        {
          "internalType": "uint256",
          "name": "amount",
          "type": "uint256"
        }
      ],
      "name": "deposit",
      "outputs": [],
      "stateMutability": "nonpayable",
      "type": "function"
    },
    {
      "inputs": [],
      "name": "initialize",
      "outputs": [],
      "stateMutability": "nonpayable",
      "type": "function"
    },
    {
      "inputs": [],
      "name": "isConsumingScheduledOp",
      "outputs": [
        {
          "internalType": "bytes4",
          "name": "",
          "type": "bytes4"
        }
      ],
      "stateMutability": "view",
      "type": "function"
    },
    {
      "inputs": [],
      "name": "name",
      "outputs": [
        {
          "internalType": "string",
          "name": "",
          "type": "string"
        }
      ],
      "stateMutability": "view",
      "type": "function"
    },
    {
      "inputs": [],
      "name": "pause",
      "outputs": [],
      "stateMutability": "nonpayable",
      "type": "function"
    },
    {
      "inputs": [],
      "name": "paused",
      "outputs": [
        {
          "internalType": "bool",
          "name": "",
          "type": "bool"
        }
      ],
      "stateMutability": "view",
      "type": "function"
    },
    {
      "inputs": [],
      "name": "proxiableUUID",
      "outputs": [
        {
          "internalType": "bytes32",
          "name": "",
          "type": "bytes32"
        }
      ],
      "stateMutability": "view",
      "type": "function"
    },
    {
      "inputs": [
        {
          "internalType": "address",
          "name": "newAuthority",
          "type": "address"
        }
      ],
      "name": "setAuthority",
      "outputs": [],
      "stateMutability": "nonpayable",
      "type": "function"
    },
    {
      "inputs": [],
      "name": "symbol",
      "outputs": [
        {
          "internalType": "string",
          "name": "",
          "type": "string"
        }
      ],
      "stateMutability": "view",
      "type": "function"
    },
    {
      "inputs": [],
      "name": "totalSupply",
      "outputs": [
        {
          "internalType": "uint256",
          "name": "",
          "type": "uint256"
        }
      ],
      "stateMutability": "view",
      "type": "function"
    },
    {
      "inputs": [
        {
          "internalType": "address",
          "name": "to",
          "type": "address"
        },
        {
          "internalType": "uint256",
          "name": "value",
          "type": "uint256"
        }
      ],
      "name": "transfer",
      "outputs": [
        {
          "internalType": "bool",
          "name": "",
          "type": "bool"
        }
      ],
      "stateMutability": "nonpayable",
      "type": "function"
    },
    {
      "inputs": [
        {
          "internalType": "address",
          "name": "from",
          "type": "address"
        },
        {
          "internalType": "address",
          "name": "to",
          "type": "address"
        },
        {
          "internalType": "uint256",
          "name": "value",
          "type": "uint256"
        }
      ],
      "name": "transferFrom",
      "outputs": [
        {
          "internalType": "bool",
          "name": "",
          "type": "bool"
        }
      ],
      "stateMutability": "nonpayable",
      "type": "function"
    },
    {
      "inputs": [],
      "name": "unpause",
      "outputs": [],
      "stateMutability": "nonpayable",
      "type": "function"
    },
    {
      "inputs": [
        {
          "internalType": "address",
          "name": "newImplementation",
          "type": "address"
        },
        {
          "internalType": "bytes",
          "name": "data",
          "type": "bytes"
        }
      ],
      "name": "upgradeToAndCall",
      "outputs": [],
      "stateMutability": "payable",
      "type": "function"
    },
    {
      "inputs": [
        {
          "internalType": "uint256",
          "name": "amount",
          "type": "uint256"
        }
      ],
      "name": "withdraw",
      "outputs": [],
      "stateMutability": "nonpayable",
      "type": "function"
    }
  ],
  "bytecode": "0x60a06040523060805234801561001457600080fd5b5061001d610022565b6100d4565b7ff0c57e16840df040f15088dc2f81fe391c3923bec73e23a9662efc9c229c6a00805468010000000000000000900460ff16156100725760405163f92ee8a960e01b815260040160405180910390fd5b80546001600160401b03908116146100d15780546001600160401b0319166001600160401b0390811782556040519081527fc7f505b2f371ae2175ee4913f4499e1f2633a7b5936321eed1cdaeb6115181d29060200160405180910390a15b50565b608051611f606100fd60003960008181610f3f01528181610f6801526110aa0152611f606000f3fe6080604052600436106101665760003560e01c806368573107116100d15780638fb360371161008a578063ad3cb1cc11610064578063ad3cb1cc14610434578063b6b55f2514610465578063bf7e214f14610485578063dd62ed3e146104b257600080fd5b80638fb36037146103d157806395d89b41146103ff578063a9059cbb1461041457600080fd5b8063685731071461030457806370a082311461032457806379cc6790146103675780637a9e5e4b146103875780638129fc1c146103a75780638456cb59146103bc57600080fd5b80633f4ba83a116101235780633f4ba83a1461026257806342966c68146102775780634a6cc677146102975780634f1ef286146102b757806352d1902d146102ca5780635c975abb146102df57600080fd5b806306fdde031461016b578063095ea7b31461019657806318160ddd146101c657806323b872dd146102045780632e1a7d4d14610224578063313ce56714610246575b600080fd5b34801561017757600080fd5b506101806104d2565b60405161018d9190611847565b60405180910390f35b3480156101a257600080fd5b506101b66101b1366004611896565b610595565b604051901515815260200161018d565b3480156101d257600080fd5b507f52c63247e1f47db19d5ce0460030c497f067ca4cebf71ba98eeadabe20bace02545b60405190815260200161018d565b34801561021057600080fd5b506101b661021f3660046118c0565b6105af565b34801561023057600080fd5b5061024461023f3660046118fc565b6105d5565b005b34801561025257600080fd5b506040516012815260200161018d565b34801561026e57600080fd5b50610244610725565b34801561028357600080fd5b506102446102923660046118fc565b61073c565b3480156102a357600080fd5b506102446102b23660046119eb565b610749565b6102446102c5366004611aab565b6107b1565b3480156102d657600080fd5b506101f66107d0565b3480156102eb57600080fd5b50600080516020611f0b8339815191525460ff166101b6565b34801561031057600080fd5b5061024461031f3660046119eb565b6107ed565b34801561033057600080fd5b506101f661033f366004611b51565b6001600160a01b03166000908152600080516020611ecb833981519152602052604090205490565b34801561037357600080fd5b50610244610382366004611896565b610850565b34801561039357600080fd5b506102446103a2366004611b51565b610865565b3480156103b357600080fd5b506102446108ed565b3480156103c857600080fd5b50610244610a6a565b3480156103dd57600080fd5b506103e6610a7b565b6040516001600160e01b0319909116815260200161018d565b34801561040b57600080fd5b50610180610ab4565b34801561042057600080fd5b506101b661042f366004611896565b610af3565b34801561044057600080fd5b50610180604051806040016040528060058152602001640352e302e360dc1b81525081565b34801561047157600080fd5b506102446104803660046118fc565b610b01565b34801561049157600080fd5b5061049a610c35565b6040516001600160a01b03909116815260200161018d565b3480156104be57600080fd5b506101f66104cd366004611b6c565b610c51565b7f52c63247e1f47db19d5ce0460030c497f067ca4cebf71ba98eeadabe20bace038054606091600080516020611ecb8339815191529161051190611b9f565b80601f016020809104026020016040519081016040528092919081815260200182805461053d90611b9f565b801561058a5780601f1061055f5761010080835404028352916020019161058a565b820191906000526020600020905b81548152906001019060200180831161056d57829003601f168201915b505050505091505090565b6000336105a3818585610c9b565b60019150505b92915050565b6000336105bd858285610ca8565b6105c8858585610d08565b60019150505b9392505050565b6105dd610d67565b60006106077f52c63247e1f47db19d5ce0460030c497f067ca4cebf71ba98eeadabe20bace025490565b6040516370a0823160e01b815230600482015290915060009082907342006ab57701251b580bdfc24778c43c9ff589a1906370a0823190602401602060405180830381865afa15801561065e573d6000803e3d6000fd5b505050506040513d601f19601f820116820180604052508101906106829190611bd9565b61068c9085611c08565b6106969190611c1f565b90506106a23384610d98565b60405163a9059cbb60e01b8152336004820152602481018290527342006ab57701251b580bdfc24778c43c9ff589a19063a9059cbb906044015b6020604051808303816000875af11580156106fb573d6000803e3d6000fd5b505050506040513d601f19601f8201168201806040525081019061071f9190611c51565b50505050565b610732335b600036610dce565b61073a610ed4565b565b6107463382610d98565b50565b6107523361072a565b60005b82518110156107ac5761079a83828151811061077357610773611c6c565b602002602001015183838151811061078d5761078d611c6c565b6020026020010151610d98565b806107a481611c82565b915050610755565b505050565b6107b9610f34565b6107c282610fd9565b6107cc8282610fe2565b5050565b60006107da61109f565b50600080516020611eeb83398151915290565b6107f63361072a565b60005b82518110156107ac5761083e83828151811061081757610817611c6c565b602002602001015183838151811061083157610831611c6c565b60200260200101516110e8565b8061084881611c82565b9150506107f9565b61085b823383610ca8565b6107cc8282610d98565b3361086e610c35565b6001600160a01b0316816001600160a01b0316146108ae5760405162d1953b60e31b81526001600160a01b03821660048201526024015b60405180910390fd5b816001600160a01b03163b6000036108e4576040516361798f2f60e11b81526001600160a01b03831660048201526024016108a5565b6107cc8261111e565b7ff0c57e16840df040f15088dc2f81fe391c3923bec73e23a9662efc9c229c6a008054600160401b810460ff16159067ffffffffffffffff166000811580156109335750825b905060008267ffffffffffffffff1660011480156109505750303b155b90508115801561095e575080155b1561097c5760405163f92ee8a960e01b815260040160405180910390fd5b845467ffffffffffffffff1916600117855583156109a657845460ff60401b1916600160401b1785555b6109e8604051806040016040528060048152602001637845564f60e01b815250604051806040016040528060048152602001637845564f60e01b81525061117f565b6109f0611191565b6109f8611199565b610a1573204fc7955f816352afde77d84e4e8719d2c28a0a6111a9565b610a1d611191565b8315610a6357845460ff60401b19168555604051600181527fc7f505b2f371ae2175ee4913f4499e1f2633a7b5936321eed1cdaeb6115181d29060200160405180910390a15b5050505050565b610a733361072a565b61073a6111ba565b600080516020611eab833981519152805460009190600160a01b900460ff16610aa5576000610aae565b638fb3603760e01b5b91505090565b7f52c63247e1f47db19d5ce0460030c497f067ca4cebf71ba98eeadabe20bace048054606091600080516020611ecb8339815191529161051190611b9f565b6000336105a3818585610d08565b610b09610d67565b6040516370a0823160e01b81523060048201526000907342006ab57701251b580bdfc24778c43c9ff589a1906370a0823190602401602060405180830381865afa158015610b5b573d6000803e3d6000fd5b505050506040513d601f19601f82011682018060405250810190610b7f9190611bd9565b90506000610bab7f52c63247e1f47db19d5ce0460030c497f067ca4cebf71ba98eeadabe20bace025490565b9050801580610bb8575081155b15610bcc57610bc733846110e8565b610bf1565b600082610bd98386611c08565b610be39190611c1f565b9050610bef33826110e8565b505b6040516323b872dd60e01b8152336004820152306024820152604481018490527342006ab57701251b580bdfc24778c43c9ff589a1906323b872dd906064016106dc565b600080516020611eab833981519152546001600160a01b031690565b6001600160a01b0391821660009081527f52c63247e1f47db19d5ce0460030c497f067ca4cebf71ba98eeadabe20bace016020908152604080832093909416825291909152205490565b6107ac8383836001611203565b6000610cb48484610c51565b9050600019811461071f5781811015610cf957604051637dc7a0d960e11b81526001600160a01b038416600482015260248101829052604481018390526064016108a5565b61071f84848484036000611203565b6001600160a01b038316610d3257604051634b637e8f60e11b8152600060048201526024016108a5565b6001600160a01b038216610d5c5760405163ec442f0560e01b8152600060048201526024016108a5565b6107ac8383836112ea565b600080516020611f0b8339815191525460ff161561073a5760405163d93c066560e01b815260040160405180910390fd5b6001600160a01b038216610dc257604051634b637e8f60e11b8152600060048201526024016108a5565b6107cc826000836112ea565b600080516020611eab833981519152600080610e09610deb610c35565b8730610dfb600460008a8c611c9b565b610e0491611cc5565b6112f5565b9150915081610ecc5763ffffffff811615610ea957825460ff60a01b1916600160a01b178355610e37610c35565b6001600160a01b03166394c7d7ee8787876040518463ffffffff1660e01b8152600401610e6693929190611cf5565b600060405180830381600087803b158015610e8057600080fd5b505af1158015610e94573d6000803e3d6000fd5b5050845460ff60a01b1916855550610ecc9050565b60405162d1953b60e31b81526001600160a01b03871660048201526024016108a5565b505050505050565b610edc611401565b600080516020611f0b833981519152805460ff191681557f5db9ee0a495bf2e6ff9c91a7834c1ba4fdd244a5e8aa4e537bd38aeae4b073aa335b6040516001600160a01b03909116815260200160405180910390a150565b306001600160a01b037f0000000000000000000000000000000000000000000000000000000000000000161480610fbb57507f00000000000000000000000000000000000000000000000000000000000000006001600160a01b0316610faf600080516020611eeb833981519152546001600160a01b031690565b6001600160a01b031614155b1561073a5760405163703e46dd60e11b815260040160405180910390fd5b6107463361072a565b816001600160a01b03166352d1902d6040518163ffffffff1660e01b8152600401602060405180830381865afa92505050801561103c575060408051601f3d908101601f1916820190925261103991810190611bd9565b60015b61106457604051634c9c8ce360e01b81526001600160a01b03831660048201526024016108a5565b600080516020611eeb833981519152811461109557604051632a87526960e21b8152600481018290526024016108a5565b6107ac8383611431565b306001600160a01b037f0000000000000000000000000000000000000000000000000000000000000000161461073a5760405163703e46dd60e11b815260040160405180910390fd5b6001600160a01b0382166111125760405163ec442f0560e01b8152600060048201526024016108a5565b6107cc600083836112ea565b600080516020611eab83398151915280546001600160a01b0383166001600160a01b03199091168117825560408051918252517f2f658b440c35314f52658ea8a740e05b284cdc84dc9ae01e891f21b8933e7cad9181900360200190a15050565b611187611487565b6107cc82826114d0565b61073a611487565b6111a1611487565b61073a611521565b6111b1611487565b61074681611542565b6111c2610d67565b600080516020611f0b833981519152805460ff191660011781557f62e78cea01bee320cd4e420270b5ea74000d11b0c9f74754ebdbfc544b05a25833610f16565b600080516020611ecb8339815191526001600160a01b03851661123c5760405163e602df0560e01b8152600060048201526024016108a5565b6001600160a01b03841661126657604051634a1406b160e11b8152600060048201526024016108a5565b6001600160a01b03808616600090815260018301602090815260408083209388168352929052208390558115610a6357836001600160a01b0316856001600160a01b03167f8c5be1e5ebec7d5bd14f71427d1e84f3dd0314c0f7b2291e5b200ac8c7c3b925856040516112db91815260200190565b60405180910390a35050505050565b6107ac838383611553565b6040516001600160a01b03848116602483015283811660448301526001600160e01b03198316606483015260009182918291829189169060840160408051601f198184030181529181526020820180516001600160e01b031663b700961360e01b179052516113649190611d35565b600060405180830381855afa9150503d806000811461139f576040519150601f19603f3d011682016040523d82523d6000602084013e6113a4565b606091505b509150915081156113f65760408151106113d657808060200190518101906113cc9190611d51565b90945092506113f6565b60208151106113f657808060200190518101906113f39190611c51565b93505b505094509492505050565b600080516020611f0b8339815191525460ff1661073a57604051638dfc202b60e01b815260040160405180910390fd5b61143a82611566565b6040516001600160a01b038316907fbc7cd75a20ee27fd9adebab32041f755214dbc6bffa90cc0225b39da2e5c2d3b90600090a280511561147f576107ac82826115cb565b6107cc611641565b7ff0c57e16840df040f15088dc2f81fe391c3923bec73e23a9662efc9c229c6a0054600160401b900460ff1661073a57604051631afcd79f60e31b815260040160405180910390fd5b6114d8611487565b600080516020611ecb8339815191527f52c63247e1f47db19d5ce0460030c497f067ca4cebf71ba98eeadabe20bace036115128482611dd7565b506004810161071f8382611dd7565b611529611487565b600080516020611f0b833981519152805460ff19169055565b61154a611487565b6107468161111e565b61155b610d67565b6107ac838383611660565b806001600160a01b03163b60000361159c57604051634c9c8ce360e01b81526001600160a01b03821660048201526024016108a5565b600080516020611eeb83398151915280546001600160a01b0319166001600160a01b0392909216919091179055565b6060600080846001600160a01b0316846040516115e89190611d35565b600060405180830381855af49150503d8060008114611623576040519150601f19603f3d011682016040523d82523d6000602084013e611628565b606091505b509150915061163885838361179e565b95945050505050565b341561073a5760405163b398979f60e01b815260040160405180910390fd5b600080516020611ecb8339815191526001600160a01b03841661169c57818160020160008282546116919190611e97565b9091555061170e9050565b6001600160a01b038416600090815260208290526040902054828110156116ef5760405163391434e360e21b81526001600160a01b038616600482015260248101829052604481018490526064016108a5565b6001600160a01b03851660009081526020839052604090209083900390555b6001600160a01b03831661172c57600281018054839003905561174b565b6001600160a01b03831660009081526020829052604090208054830190555b826001600160a01b0316846001600160a01b03167fddf252ad1be2c89b69c2b068fc378daa952ba7f163c4a11628f55a4df523b3ef8460405161179091815260200190565b60405180910390a350505050565b6060826117b3576117ae826117fa565b6105ce565b81511580156117ca57506001600160a01b0384163b155b156117f357604051639996b31560e01b81526001600160a01b03851660048201526024016108a5565b50806105ce565b80511561180a5780518082602001fd5b604051630a12f52160e11b815260040160405180910390fd5b60005b8381101561183e578181015183820152602001611826565b50506000910152565b6020815260008251806020840152611866816040850160208701611823565b601f01601f19169190910160400192915050565b80356001600160a01b038116811461189157600080fd5b919050565b600080604083850312156118a957600080fd5b6118b28361187a565b946020939093013593505050565b6000806000606084860312156118d557600080fd5b6118de8461187a565b92506118ec6020850161187a565b9150604084013590509250925092565b60006020828403121561190e57600080fd5b5035919050565b634e487b7160e01b600052604160045260246000fd5b604051601f8201601f1916810167ffffffffffffffff8111828210171561195457611954611915565b604052919050565b600067ffffffffffffffff82111561197657611976611915565b5060051b60200190565b600082601f83011261199157600080fd5b813560206119a66119a18361195c565b61192b565b82815260059290921b840181019181810190868411156119c557600080fd5b8286015b848110156119e057803583529183019183016119c9565b509695505050505050565b600080604083850312156119fe57600080fd5b823567ffffffffffffffff80821115611a1657600080fd5b818501915085601f830112611a2a57600080fd5b81356020611a3a6119a18361195c565b82815260059290921b84018101918181019089841115611a5957600080fd5b948201945b83861015611a7e57611a6f8661187a565b82529482019490820190611a5e565b96505086013592505080821115611a9457600080fd5b50611aa185828601611980565b9150509250929050565b60008060408385031215611abe57600080fd5b611ac78361187a565b915060208084013567ffffffffffffffff80821115611ae557600080fd5b818601915086601f830112611af957600080fd5b813581811115611b0b57611b0b611915565b611b1d601f8201601f1916850161192b565b91508082528784828501011115611b3357600080fd5b80848401858401376000848284010152508093505050509250929050565b600060208284031215611b6357600080fd5b6105ce8261187a565b60008060408385031215611b7f57600080fd5b611b888361187a565b9150611b966020840161187a565b90509250929050565b600181811c90821680611bb357607f821691505b602082108103611bd357634e487b7160e01b600052602260045260246000fd5b50919050565b600060208284031215611beb57600080fd5b5051919050565b634e487b7160e01b600052601160045260246000fd5b80820281158282048414176105a9576105a9611bf2565b600082611c3c57634e487b7160e01b600052601260045260246000fd5b500490565b8051801515811461189157600080fd5b600060208284031215611c6357600080fd5b6105ce82611c41565b634e487b7160e01b600052603260045260246000fd5b600060018201611c9457611c94611bf2565b5060010190565b60008085851115611cab57600080fd5b83861115611cb857600080fd5b5050820193919092039150565b6001600160e01b03198135818116916004851015611ced5780818660040360031b1b83161692505b505092915050565b6001600160a01b03841681526040602082018190528101829052818360608301376000818301606090810191909152601f909201601f1916010192915050565b60008251611d47818460208701611823565b9190910192915050565b60008060408385031215611d6457600080fd5b611d6d83611c41565b9150602083015163ffffffff81168114611d8657600080fd5b809150509250929050565b601f8211156107ac57600081815260208120601f850160051c81016020861015611db85750805b601f850160051c820191505b81811015610ecc57828155600101611dc4565b815167ffffffffffffffff811115611df157611df1611915565b611e0581611dff8454611b9f565b84611d91565b602080601f831160018114611e3a5760008415611e225750858301515b600019600386901b1c1916600185901b178555610ecc565b600085815260208120601f198616915b82811015611e6957888601518255948401946001909101908401611e4a565b5085821015611e875787850151600019600388901b60f8161c191681555b5050505050600190811b01905550565b808201808211156105a9576105a9611bf256fef3177357ab46d8af007ab3fdb9af81da189e1068fefdc0073dca88a2cab40a0052c63247e1f47db19d5ce0460030c497f067ca4cebf71ba98eeadabe20bace00360894a13ba1a3210667c828492db98dca3e2076cc3735a920a3ca505d382bbccd5ed15c6e187e77e9aee88184c21f4f2182ab5827cb3b7e07fbedcd63f03300a26469706673582212206bd35e6be2fbf064f1bc0da69ff8b9aa61a259e65225099d1d1ba9e73d54177e64736f6c63430008140033",
  "linkReferences": {},
  "deployedLinkReferences": {}
}