{
  "_format": "hh-sol-artifact-1",
  "contractName": "HatcherHarryUpgradeable",
  "sourceName": "contracts/npc/HatcherHarryUpgradeable.sol",
  "abi": [
    {
      "inputs": [],
      "stateMutability": "nonpayable",
      "type": "constructor"
    },
    {
      "inputs": [
        {
          "internalType": "address",
          "name": "have",
          "type": "address"
        },
        {
          "internalType": "address",
          "name": "want",
          "type": "address"
        }
      ],
      "name": "OnlyCoordinatorCanFulfill",
      "type": "error"
    },
    {
      "anonymous": false,
      "inputs": [
        {
          "indexed": false,
          "internalType": "uint8",
          "name": "version",
          "type": "uint8"
        }
      ],
      "name": "Initialized",
      "type": "event"
    },
    {
      "anonymous": false,
      "inputs": [
        {
          "indexed": false,
          "internalType": "address",
          "name": "account",
          "type": "address"
        }
      ],
      "name": "Paused",
      "type": "event"
    },
    {
      "anonymous": false,
      "inputs": [
        {
          "indexed": true,
          "internalType": "bytes32",
          "name": "role",
          "type": "bytes32"
        },
        {
          "indexed": true,
          "internalType": "bytes32",
          "name": "previousAdminRole",
          "type": "bytes32"
        },
        {
          "indexed": true,
          "internalType": "bytes32",
          "name": "newAdminRole",
          "type": "bytes32"
        }
      ],
      "name": "RoleAdminChanged",
      "type": "event"
    },
    {
      "anonymous": false,
      "inputs": [
        {
          "indexed": true,
          "internalType": "bytes32",
          "name": "role",
          "type": "bytes32"
        },
        {
          "indexed": true,
          "internalType": "address",
          "name": "account",
          "type": "address"
        },
        {
          "indexed": true,
          "internalType": "address",
          "name": "sender",
          "type": "address"
        }
      ],
      "name": "RoleGranted",
      "type": "event"
    },
    {
      "anonymous": false,
      "inputs": [
        {
          "indexed": true,
          "internalType": "bytes32",
          "name": "role",
          "type": "bytes32"
        },
        {
          "indexed": true,
          "internalType": "address",
          "name": "account",
          "type": "address"
        },
        {
          "indexed": true,
          "internalType": "address",
          "name": "sender",
          "type": "address"
        }
      ],
      "name": "RoleRevoked",
      "type": "event"
    },
    {
      "anonymous": false,
      "inputs": [
        {
          "indexed": false,
          "internalType": "address",
          "name": "account",
          "type": "address"
        }
      ],
      "name": "Unpaused",
      "type": "event"
    },
    {
      "inputs": [],
      "name": "ADMIN_ROLE",
      "outputs": [
        {
          "internalType": "bytes32",
          "name": "",
          "type": "bytes32"
        }
      ],
      "stateMutability": "view",
      "type": "function"
    },
    {
      "inputs": [],
      "name": "CONTRACT_ROLE",
      "outputs": [
        {
          "internalType": "bytes32",
          "name": "",
          "type": "bytes32"
        }
      ],
      "stateMutability": "view",
      "type": "function"
    },
    {
      "inputs": [],
      "name": "DEFAULT_ADMIN_ROLE",
      "outputs": [
        {
          "internalType": "bytes32",
          "name": "",
          "type": "bytes32"
        }
      ],
      "stateMutability": "view",
      "type": "function"
    },
    {
      "inputs": [
        {
          "internalType": "bytes32",
          "name": "role",
          "type": "bytes32"
        }
      ],
      "name": "getRoleAdmin",
      "outputs": [
        {
          "internalType": "bytes32",
          "name": "",
          "type": "bytes32"
        }
      ],
      "stateMutability": "view",
      "type": "function"
    },
    {
      "inputs": [
        {
          "internalType": "bytes32",
          "name": "role",
          "type": "bytes32"
        },
        {
          "internalType": "uint256",
          "name": "index",
          "type": "uint256"
        }
      ],
      "name": "getRoleMember",
      "outputs": [
        {
          "internalType": "address",
          "name": "",
          "type": "address"
        }
      ],
      "stateMutability": "view",
      "type": "function"
    },
    {
      "inputs": [
        {
          "internalType": "bytes32",
          "name": "role",
          "type": "bytes32"
        }
      ],
      "name": "getRoleMemberCount",
      "outputs": [
        {
          "internalType": "uint256",
          "name": "",
          "type": "uint256"
        }
      ],
      "stateMutability": "view",
      "type": "function"
    },
    {
      "inputs": [
        {
          "internalType": "bytes32",
          "name": "role",
          "type": "bytes32"
        },
        {
          "internalType": "address",
          "name": "account",
          "type": "address"
        }
      ],
      "name": "grantRole",
      "outputs": [],
      "stateMutability": "nonpayable",
      "type": "function"
    },
    {
      "inputs": [
        {
          "internalType": "bytes32",
          "name": "role",
          "type": "bytes32"
        },
        {
          "internalType": "address",
          "name": "account",
          "type": "address"
        }
      ],
      "name": "hasRole",
      "outputs": [
        {
          "internalType": "bool",
          "name": "",
          "type": "bool"
        }
      ],
      "stateMutability": "view",
      "type": "function"
    },
    {
      "inputs": [],
      "name": "hatch",
      "outputs": [],
      "stateMutability": "nonpayable",
      "type": "function"
    },
    {
      "inputs": [
        {
          "internalType": "uint256[]",
          "name": "tokenIds",
          "type": "uint256[]"
        }
      ],
      "name": "incubate",
      "outputs": [],
      "stateMutability": "nonpayable",
      "type": "function"
    },
    {
      "inputs": [],
      "name": "initialize",
      "outputs": [],
      "stateMutability": "nonpayable",
      "type": "function"
    },
    {
      "inputs": [],
      "name": "pause",
      "outputs": [],
      "stateMutability": "nonpayable",
      "type": "function"
    },
    {
      "inputs": [],
      "name": "paused",
      "outputs": [
        {
          "internalType": "bool",
          "name": "",
          "type": "bool"
        }
      ],
      "stateMutability": "view",
      "type": "function"
    },
    {
      "inputs": [],
      "name": "pendingHatch",
      "outputs": [
        {
          "internalType": "bool",
          "name": "exists",
          "type": "bool"
        },
        {
          "internalType": "bool",
          "name": "ready",
          "type": "bool"
        },
        {
          "internalType": "uint256[]",
          "name": "ids",
          "type": "uint256[]"
        }
      ],
      "stateMutability": "view",
      "type": "function"
    },
    {
      "inputs": [],
      "name": "rarityConfig",
      "outputs": [
        {
          "internalType": "uint256[]",
          "name": "",
          "type": "uint256[]"
        },
        {
          "internalType": "uint256[]",
          "name": "",
          "type": "uint256[]"
        },
        {
          "internalType": "uint256",
          "name": "",
          "type": "uint256"
        }
      ],
      "stateMutability": "view",
      "type": "function"
    },
    {
      "inputs": [
        {
          "internalType": "uint256",
          "name": "requestId",
          "type": "uint256"
        },
        {
          "internalType": "uint256[]",
          "name": "randomWords",
          "type": "uint256[]"
        }
      ],
      "name": "rawFulfillRandomWords",
      "outputs": [],
      "stateMutability": "nonpayable",
      "type": "function"
    },
    {
      "inputs": [
        {
          "internalType": "bytes32",
          "name": "role",
          "type": "bytes32"
        },
        {
          "internalType": "address",
          "name": "account",
          "type": "address"
        }
      ],
      "name": "renounceRole",
      "outputs": [],
      "stateMutability": "nonpayable",
      "type": "function"
    },
    {
      "inputs": [
        {
          "internalType": "bytes32",
          "name": "role",
          "type": "bytes32"
        },
        {
          "internalType": "address",
          "name": "account",
          "type": "address"
        }
      ],
      "name": "revokeRole",
      "outputs": [],
      "stateMutability": "nonpayable",
      "type": "function"
    },
    {
      "inputs": [
        {
          "internalType": "uint256[]",
          "name": "speciesIds",
          "type": "uint256[]"
        },
        {
          "internalType": "uint256[][]",
          "name": "_baseAttributes",
          "type": "uint256[][]"
        }
      ],
      "name": "setBaseAttributes",
      "outputs": [],
      "stateMutability": "nonpayable",
      "type": "function"
    },
    {
      "inputs": [
        {
          "internalType": "address",
          "name": "_address",
          "type": "address"
        }
      ],
      "name": "simulateHatch",
      "outputs": [
        {
          "components": [
            {
              "internalType": "uint256",
              "name": "tokenId",
              "type": "uint256"
            },
            {
              "internalType": "uint256",
              "name": "species",
              "type": "uint256"
            },
            {
              "internalType": "uint256",
              "name": "generation",
              "type": "uint256"
            },
            {
              "internalType": "uint256",
              "name": "experience",
              "type": "uint256"
            },
            {
              "components": [
                {
                  "internalType": "uint256",
                  "name": "gender",
                  "type": "uint256"
                },
                {
                  "internalType": "uint256",
                  "name": "rarity",
                  "type": "uint256"
                },
                {
                  "internalType": "uint256",
                  "name": "primaryType",
                  "type": "uint256"
                },
                {
                  "internalType": "uint256",
                  "name": "secondaryType",
                  "type": "uint256"
                },
                {
                  "internalType": "uint256",
                  "name": "nature",
                  "type": "uint256"
                }
              ],
              "internalType": "struct IEvoStructsUpgradeable.Stats",
              "name": "stats",
              "type": "tuple"
            },
            {
              "components": [
                {
                  "internalType": "uint256",
                  "name": "health",
                  "type": "uint256"
                },
                {
                  "internalType": "uint256",
                  "name": "attack",
                  "type": "uint256"
                },
                {
                  "internalType": "uint256",
                  "name": "defense",
                  "type": "uint256"
                },
                {
                  "internalType": "uint256",
                  "name": "special",
                  "type": "uint256"
                },
                {
                  "internalType": "uint256",
                  "name": "resistance",
                  "type": "uint256"
                },
                {
                  "internalType": "uint256",
                  "name": "speed",
                  "type": "uint256"
                }
              ],
              "internalType": "struct IEvoStructsUpgradeable.BattleStats",
              "name": "battle",
              "type": "tuple"
            },
            {
              "components": [
                {
                  "internalType": "uint256",
                  "name": "total",
                  "type": "uint256"
                },
                {
                  "internalType": "uint256",
                  "name": "remaining",
                  "type": "uint256"
                }
              ],
              "internalType": "struct IEvoStructsUpgradeable.Summons",
              "name": "summons",
              "type": "tuple"
            }
          ],
          "internalType": "struct IEvoStructsUpgradeable.Evo[]",
          "name": "",
          "type": "tuple[]"
        }
      ],
      "stateMutability": "view",
      "type": "function"
    },
    {
      "inputs": [
        {
          "internalType": "bytes4",
          "name": "interfaceId",
          "type": "bytes4"
        }
      ],
      "name": "supportsInterface",
      "outputs": [
        {
          "internalType": "bool",
          "name": "",
          "type": "bool"
        }
      ],
      "stateMutability": "view",
      "type": "function"
    },
    {
      "inputs": [],
      "name": "unpause",
      "outputs": [],
      "stateMutability": "nonpayable",
      "type": "function"
    }
  ],
  "bytecode": "0x60806040523480156200001157600080fd5b506200001c62000022565b620000e4565b600054610100900460ff16156200008f5760405162461bcd60e51b815260206004820152602760248201527f496e697469616c697a61626c653a20636f6e747261637420697320696e697469604482015266616c697a696e6760c81b606482015260840160405180910390fd5b60005460ff9081161015620000e2576000805460ff191660ff9081179091556040519081527f7f26b83ff96e1f2b6a682f133852f6798a09c465da95921460cefb38474024989060200160405180910390a15b565b612c6480620000f46000396000f3fe608060405234801561001057600080fd5b50600436106101425760003560e01c806379c77449116100b857806391d148541161007c57806391d14854146102c6578063a217fddf146102d9578063a40e1a66146102e1578063ca15c873146102f4578063d0db508314610307578063d547741f1461030f57600080fd5b806379c77449146102585780638129fc1c146102785780638456cb59146102805780638936480c146102885780639010d07c1461029b57600080fd5b806336568abe1161010a57806336568abe146101ef5780633f4ba83a14610202578063458357191461020a5780635c975abb146102215780635e29cedb1461022c57806375b238fc1461024357600080fd5b806301ffc9a71461014757806303fe46ab1461016f5780631fe543e3146101a4578063248a9ca3146101b95780632f2ff15d146101dc575b600080fd5b61015a6101553660046122e5565b610322565b60405190151581526020015b60405180910390f35b6101967f364d3d7565c7a8300c96fd53e065d19b65848d7b23b3191adcd55621c744223c81565b604051908152602001610166565b6101b76101b23660046123e5565b61034d565b005b6101966101c736600461242c565b60009081526097602052604090206001015490565b6101b76101ea366004612461565b6103a0565b6101b76101fd366004612461565b6103ca565b6101b7610444565b610212610467565b604051610166939291906124c8565b60335460ff1661015a565b6102346105f4565b604051610166939291906124f4565b610196600080516020612c0f83398151915281565b61026b61026636600461252a565b61070c565b604051610166919061263c565b6101b76108a1565b6101b7610a9a565b6101b761029636600461264f565b610aba565b6102ae6102a9366004612684565b610c1d565b6040516001600160a01b039091168152602001610166565b61015a6102d4366004612461565b610c3c565b610196600081565b6101b76102ef3660046126a6565b610c67565b61019661030236600461242c565b610d7e565b6101b7610d95565b6101b761031d366004612461565b6110f5565b60006001600160e01b03198216635a05180f60e01b148061034757506103478261111a565b92915050565b60fb546001600160a01b031633146103925760fb5460405163073e64fd60e21b81523360048201526001600160a01b0390911660248201526044015b60405180910390fd5b61039c828261114f565b5050565b6000828152609760205260409020600101546103bb81611189565b6103c58383611193565b505050565b6001600160a01b038116331461043a5760405162461bcd60e51b815260206004820152602f60248201527f416363657373436f6e74726f6c3a2063616e206f6e6c792072656e6f756e636560448201526e103937b632b9903337b91039b2b63360891b6064820152608401610389565b61039c82826111b5565b600080516020612c0f83398151915261045c81611189565b6104646111d7565b50565b3360009081526101c2602090815260408083208151815460809481028201850190935260608082018481528695919486949284929184918401828280156104cd57602002820191906000526020600020905b8154815260200190600101908083116104b9575b50505050508152602001600182015481526020016002820180548060200260200160405190810160405280929190818152602001828054801561052f57602002820191906000526020600020905b81548152602001906001019080831161051b575b50505050508152505090508060200151600014156105d8576101c1546001600160a01b031663a5435ec1336040516001600160e01b031960e084901b1681526001600160a01b03909116600482015260240160006040518083038186803b15801561059957600080fd5b505afa1580156105ad573d6000803e3d6000fd5b505050506040513d6000823e601f3d908101601f191682016040526105d591908101906127d6565b90505b6020810151604082015151915190151595911515945092509050565b6060806000806106056101c7611229565b90506000815167ffffffffffffffff8111156106235761062361230f565b60405190808252806020026020018201604052801561064c578160200160208202803683370190505b5090506000805b83518110156106ff5761069c60006101c6600087858151811061067857610678612887565b6020026020010151815260200190815260200160002061123690919063ffffffff16565b6106a5576106ed565b818382815181106106b8576106b8612887565b6020026020010181815250506106e060016101c6600087858151811061067857610678612887565b6106ea90836128b3565b91505b806106f7816128cb565b915050610653565b5091959094509092509050565b6060600080516020612c0f83398151915261072681611189565b6001600160a01b03831660009081526101c260209081526040808320815181546080948102820185019093526060810183815290939192849284919084018282801561079157602002820191906000526020600020905b81548152602001906001019080831161077d575b5050505050815260200160018201548152602001600282018054806020026020016040519081016040528092919081815260200182805480156107f357602002820191906000526020600020905b8154815260200190600101908083116107df575b5050505050815250509050806020015160001415610890576101c15460405163a5435ec160e01b81526001600160a01b0386811660048301529091169063a5435ec19060240160006040518083038186803b15801561085157600080fd5b505afa158015610865573d6000803e3d6000fd5b505050506040513d6000823e601f3d908101601f1916820160405261088d91908101906127d6565b90505b61089981611242565b949350505050565b600054610100900460ff16158080156108c15750600054600160ff909116105b806108db5750303b1580156108db575060005460ff166001145b61093e5760405162461bcd60e51b815260206004820152602e60248201527f496e697469616c697a61626c653a20636f6e747261637420697320616c72656160448201526d191e481a5b9a5d1a585b1a5e995960921b6064820152608401610389565b6000805460ff191660011790558015610961576000805461ff0019166101001790555b610969611423565b610971611454565b73d5d517abe5cf79b7e95ec98db0f0277788aff6347f83250c5584ffa93feb6ee082981c5ebe484c865196750b39835ad4f13780435d601d60036109b78484848461147b565b6109c2600033611193565b6109da600080516020612c0f83398151915233611193565b610a047f364d3d7565c7a8300c96fd53e065d19b65848d7b23b3191adcd55621c744223c33611193565b50506101c080546001600160a01b03199081167375ddd2b19e6f7bed3bfe9d2d21dd226c38c0cbc4179091556101c1805490911673454a0e479ac78e508a95880216c06f50bf3c321c17905550508015610464576000805461ff0019169055604051600181527f7f26b83ff96e1f2b6a682f133852f6798a09c465da95921460cefb38474024989060200160405180910390a150565b600080516020612c0f833981519152610ab281611189565b6104646114b7565b3360009081526101c260205260409020600181015415610b1c5760405162461bcd60e51b815260206004820152601a60248201527f4578697374696e6720686174636820696e2070726f67726573730000000000006044820152606401610389565b600582511115610b645760405162461bcd60e51b815260206004820152601360248201527209ac2f0d2daeada406a40e0cae440d0c2e8c6d606b1b6044820152606401610389565b6101c0546001600160a01b0316630b6539e733846040518363ffffffff1660e01b8152600401610b959291906128e6565b600060405180830381600087803b158015610baf57600080fd5b505af1158015610bc3573d6000803e3d6000fd5b50505050610bd182516114f4565b60018201558151610be890829060208501906121a9565b50600181015460009081526101c56020526040902080546001600160a01b031916339081179091556103c5906101c3906115cd565b600082815260c960205260408120610c3590836115e2565b9392505050565b60009182526097602090815260408084206001600160a01b0393909316845291905290205460ff1690565b600080516020612c0f833981519152610c7f81611189565b60005b8351811015610d7857610cb9848281518110610ca057610ca0612887565b60200260200101516101c76115ee90919063ffffffff16565b5060005b838281518110610ccf57610ccf612887565b602002602001015151811015610d6557610d5281858481518110610cf557610cf5612887565b60200260200101518381518110610d0e57610d0e612887565b60200260200101516101c66000898781518110610d2d57610d2d612887565b602002602001015181526020019081526020016000206115fa9092919063ffffffff16565b5080610d5d816128cb565b915050610cbd565b5080610d70816128cb565b915050610c82565b50505050565b600081815260c96020526040812061034790611607565b3360009081526101c2602090815260408083208151815493840281016080908101909352606081018481529093919284928491840182828015610df757602002820191906000526020600020905b815481526020019060010190808311610de3575b505050505081526020016001820154815260200160028201805480602002602001604051908101604052809291908181526020018280548015610e5957602002820191906000526020600020905b815481526020019060010190808311610e45575b50505050508152505090506000816020015160001415610f08576101c1546001600160a01b031663a5435ec1336040516001600160e01b031960e084901b1681526001600160a01b03909116600482015260240160006040518083038186803b158015610ec557600080fd5b505afa158015610ed9573d6000803e3d6000fd5b505050506040513d6000823e601f3d908101601f19168201604052610f0191908101906127d6565b9150600190505b6000826020015111610f5c5760405162461bcd60e51b815260206004820152601c60248201527f4e6f2070656e64696e6720686174636820696e2070726f6772657373000000006044820152606401610389565b600082604001515111610fa95760405162461bcd60e51b8152602060048201526015602482015274526573756c7473207374696c6c2070656e64696e6760581b6044820152606401610389565b6101c1546001600160a01b0316630681492633610fc585611242565b6040518363ffffffff1660e01b8152600401610fe292919061290a565b600060405180830381600087803b158015610ffc57600080fd5b505af1158015611010573d6000803e3d6000fd5b50505050801561108a576101c1546001600160a01b0316630c9ac092336040516001600160e01b031960e084901b1681526001600160a01b039091166004820152602401600060405180830381600087803b15801561106e57600080fd5b505af1158015611082573d6000803e3d6000fd5b505050505050565b3360008181526101c260208181526040808420600181015485526101c5835290842080546001600160a01b0319169055938352526110c882826121f4565b60018201600090556002820160006110e091906121f4565b50506103c56110ec3390565b6101c390611611565b60008281526097602052604090206001015461111081611189565b6103c583836111b5565b60006001600160e01b03198216637965db0b60e01b148061034757506301ffc9a760e01b6001600160e01b0319831614610347565b60008281526101c560209081526040808320546001600160a01b031683526101c2825290912082516103c5926002909201918401906121a9565b6104648133611626565b61119d828261168a565b600082815260c9602052604090206103c590826115cd565b6111bf8282611710565b600082815260c9602052604090206103c59082611611565b6111df611777565b6033805460ff191690557f5db9ee0a495bf2e6ff9c91a7834c1ba4fdd244a5e8aa4e537bd38aeae4b073aa335b6040516001600160a01b03909116815260200160405180910390a1565b60606000610c35836117c0565b6000610c35838361181c565b6101c05481516040516396908f5160e01b81526060926000926001600160a01b03909116916396908f51916112799160040161292e565b60006040518083038186803b15801561129157600080fd5b505afa1580156112a5573d6000803e3d6000fd5b505050506040513d6000823e601f3d908101601f191682016040526112cd9190810190612941565b905060608060006112dc6105f4565b885151929550909350915067ffffffffffffffff8111156112ff576112ff61230f565b60405190808252806020026020018201604052801561133857816020015b611325612212565b81526020019060019003908161131d5790505b50945060005b8651518110156114195760008760000151828151811061136057611360612887565b6020026020010151905060006113958960400151848151811061138557611385612887565b602002602001015161271061188c565b905060006113bf826000815181106113af576113af612887565b60200260200101518789886118ee565b90506113e6838986815181106113d7576113d7612887565b60200260200101518385611998565b8985815181106113f8576113f8612887565b60200260200101819052505050508080611411906128cb565b91505061133e565b5050505050919050565b600054610100900460ff1661144a5760405162461bcd60e51b8152600401610389906129e1565b611452611ceb565b565b600054610100900460ff166114525760405162461bcd60e51b8152600401610389906129e1565b600054610100900460ff166114a25760405162461bcd60e51b8152600401610389906129e1565b6114ab84611d1e565b610d7884848484611d4e565b6114bf611dd1565b6033805460ff191660011790557f62e78cea01bee320cd4e420270b5ea74000d11b0c9f74754ebdbfc544b05a25861120c3390565b60008061150383614e20612a2c565b61151090620186a0612a58565b61012d5461012e5461012f546040516305d3b1d360e41b8152600481019290925267ffffffffffffffff81166024830152600160401b900461ffff16604482015263ffffffff8084166064830152861660848201529192506001600160a01b031690635d3b1d309060a401602060405180830381600087803b15801561159557600080fd5b505af11580156115a9573d6000803e3d6000fd5b505050506040513d601f19601f82011682018060405250810190610c359190612a80565b6000610c35836001600160a01b038416611e17565b6000610c358383611e66565b6000610c358383611e17565b6000610899848484611e90565b6000610347825490565b6000610c35836001600160a01b038416611ead565b6116308282610c3c565b61039c57611648816001600160a01b03166014611fa0565b611653836020611fa0565b604051602001611664929190612ac5565b60408051601f198184030181529082905262461bcd60e51b825261038991600401612b3a565b6116948282610c3c565b61039c5760008281526097602090815260408083206001600160a01b03851684529091529020805460ff191660011790556116cc3390565b6001600160a01b0316816001600160a01b0316837f2f8788117e7eff1d82e926ec794901d17c78024a50270940304540a733656f0d60405160405180910390a45050565b61171a8282610c3c565b1561039c5760008281526097602090815260408083206001600160a01b0385168085529252808320805460ff1916905551339285917ff6391f5c32d9c69d2a47ea670b442974b53935d1edc7fd64eb21e047a839171b9190a45050565b60335460ff166114525760405162461bcd60e51b815260206004820152601460248201527314185d5cd8589b194e881b9bdd081c185d5cd95960621b6044820152606401610389565b60608160000180548060200260200160405190810160405280929190818152602001828054801561181057602002820191906000526020600020905b8154815260200190600101908083116117fc575b50505050509050919050565b6000818152600283016020526040812054801515806118405750611840848461213c565b610c355760405162461bcd60e51b815260206004820152601e60248201527f456e756d657261626c654d61703a206e6f6e6578697374656e74206b657900006044820152606401610389565b6060806000845b80156118e45760006118a58683612b83565b90506118b18683612b97565b9150808484815181106118c6576118c6612887565b6020908102919091010152826118db816128cb565b93505050611893565b5090949350505050565b600082600184516118ff9190612bab565b8151811061190f5761190f612887565b60200260200101519050600082866119279190612b83565b905060005b855181101561198e5785818151811061194757611947612887565b602002602001015182111561195b5761197c565b84818151811061196d5761196d612887565b6020026020010151925061198e565b80611986816128cb565b91505061192c565b5050949350505050565b6119a0612212565b6000846119ae5760016119b1565b60095b60ff16856119c1576113886119c5565b610bb85b61ffff16846001815181106119dc576119dc612887565b60200260200101516119ee9190612b83565b1090506000856119ff576001611a02565b602d5b60ff1686611a12576103e8611a16565b610bb85b61ffff1685600181518110611a2d57611a2d612887565b6020026020010151611a3f9190612b83565b109050600082611a5c5781611a55576000611a5f565b6001611a5f565b60025b60008781526101c66020526040812060ff92909216925090611a82906002611236565b606487600281518110611a9757611a97612887565b6020026020010151611aa99190612b83565b10611ab5576000611ab8565b60015b60008881526101c66020526040812060ff92909216925090611adb906003611236565b60008981526101c66020526040812091925090611af9906004611236565b90506000601589600381518110611b1257611b12612887565b6020026020010151611b249190612b83565b60408051600580825260c08201909252919250600091906020820160a08036833701905050905060005b8151811015611bb65760338b611b658360046128b3565b81518110611b7557611b75612887565b6020026020010151611b879190612b83565b828281518110611b9957611b99612887565b602090810291909101015280611bae816128cb565b915050611b4e565b506040518060e001604052808e81526020018c815260200160008152602001600081526020016040518060a001604052808881526020018981526020018781526020018681526020018581525081526020016040518060c001604052806032815260200184600081518110611c2d57611c2d612887565b6020026020010151815260200184600181518110611c4d57611c4d612887565b6020026020010151815260200184600281518110611c6d57611c6d612887565b6020026020010151815260200184600381518110611c8d57611c8d612887565b6020026020010151815260200184600481518110611cad57611cad612887565b6020026020010151815250815260200160405180604001604052806103e781526020016103e781525081525098505050505050505050949350505050565b600054610100900460ff16611d125760405162461bcd60e51b8152600401610389906129e1565b6033805460ff19169055565b600054610100900460ff16611d455760405162461bcd60e51b8152600401610389906129e1565b61046481612148565b600054610100900460ff16611d755760405162461bcd60e51b8152600401610389906129e1565b61012d80546001600160a01b039095166001600160a01b03199095169490941790935561012f805461012e9390935561ffff909316600160401b0269ffffffffffffffffffff1990921667ffffffffffffffff90911617179055565b60335460ff16156114525760405162461bcd60e51b815260206004820152601060248201526f14185d5cd8589b194e881c185d5cd95960821b6044820152606401610389565b6000818152600183016020526040812054611e5e57508154600181810184556000848152602080822090930184905584548482528286019093526040902091909155610347565b506000610347565b6000826000018281548110611e7d57611e7d612887565b9060005260206000200154905092915050565b6000828152600284016020526040812082905561089984846115ee565b60008181526001830160205260408120548015611f96576000611ed1600183612bab565b8554909150600090611ee590600190612bab565b9050818114611f4a576000866000018281548110611f0557611f05612887565b9060005260206000200154905080876000018481548110611f2857611f28612887565b6000918252602080832090910192909255918252600188019052604090208390555b8554869080611f5b57611f5b612bc2565b600190038181906000526020600020016000905590558560010160008681526020019081526020016000206000905560019350505050610347565b6000915050610347565b60606000611faf836002612bd8565b611fba9060026128b3565b67ffffffffffffffff811115611fd257611fd261230f565b6040519080825280601f01601f191660200182016040528015611ffc576020820181803683370190505b509050600360fc1b8160008151811061201757612017612887565b60200101906001600160f81b031916908160001a905350600f60fb1b8160018151811061204657612046612887565b60200101906001600160f81b031916908160001a905350600061206a846002612bd8565b6120759060016128b3565b90505b60018111156120ed576f181899199a1a9b1b9c1cb0b131b232b360811b85600f16601081106120a9576120a9612887565b1a60f81b8282815181106120bf576120bf612887565b60200101906001600160f81b031916908160001a90535060049490941c936120e681612bf7565b9050612078565b508315610c355760405162461bcd60e51b815260206004820181905260248201527f537472696e67733a20686578206c656e67746820696e73756666696369656e746044820152606401610389565b6000610c358383612191565b600054610100900460ff1661216f5760405162461bcd60e51b8152600401610389906129e1565b60fb80546001600160a01b0319166001600160a01b0392909216919091179055565b60008181526001830160205260408120541515610c35565b8280548282559060005260206000209081019282156121e4579160200282015b828111156121e45782518255916020019190600101906121c9565b506121f09291506122d0565b5090565b508054600082559060005260206000209081019061046491906122d0565b6040518060e001604052806000815260200160008152602001600081526020016000815260200161226b6040518060a0016040528060008152602001600081526020016000815260200160008152602001600081525090565b81526020016122a96040518060c001604052806000815260200160008152602001600081526020016000815260200160008152602001600081525090565b81526020016122cb604051806040016040528060008152602001600081525090565b905290565b5b808211156121f057600081556001016122d1565b6000602082840312156122f757600080fd5b81356001600160e01b031981168114610c3557600080fd5b634e487b7160e01b600052604160045260246000fd5b604051601f8201601f1916810167ffffffffffffffff8111828210171561234e5761234e61230f565b604052919050565b600067ffffffffffffffff8211156123705761237061230f565b5060051b60200190565b600082601f83011261238b57600080fd5b813560206123a061239b83612356565b612325565b82815260059290921b840181019181810190868411156123bf57600080fd5b8286015b848110156123da57803583529183019183016123c3565b509695505050505050565b600080604083850312156123f857600080fd5b82359150602083013567ffffffffffffffff81111561241657600080fd5b6124228582860161237a565b9150509250929050565b60006020828403121561243e57600080fd5b5035919050565b80356001600160a01b038116811461245c57600080fd5b919050565b6000806040838503121561247457600080fd5b8235915061248460208401612445565b90509250929050565b600081518084526020808501945080840160005b838110156124bd578151875295820195908201906001016124a1565b509495945050505050565b831515815282151560208201526060604082015260006124eb606083018461248d565b95945050505050565b606081526000612507606083018661248d565b8281036020840152612519818661248d565b915050826040830152949350505050565b60006020828403121561253c57600080fd5b610c3582612445565b600081518084526020808501945080840160005b838110156124bd578151805188528381015184890152604080820151818a0152606080830151818b01526080808401518051828d01528088015160a0808e01919091529381015160c0808e01919091528184015160e08e0152818301516101008e015293850151936126046101208e0186805182526020810151602083015260408101516040830152606081015160608301526080810151608083015260a081015160a08301525050565b949094015180516101e08d015260208101516102008d0152935061262792505050565b50610220969096019590820190600101612559565b602081526000610c356020830184612545565b60006020828403121561266157600080fd5b813567ffffffffffffffff81111561267857600080fd5b6108998482850161237a565b6000806040838503121561269757600080fd5b50508035926020909101359150565b600080604083850312156126b957600080fd5b823567ffffffffffffffff808211156126d157600080fd5b6126dd8683870161237a565b93506020915081850135818111156126f457600080fd5b8501601f8101871361270557600080fd5b803561271361239b82612356565b81815260059190911b8201840190848101908983111561273257600080fd5b8584015b8381101561276a5780358681111561274e5760008081fd5b61275c8c898389010161237a565b845250918601918601612736565b508096505050505050509250929050565b600082601f83011261278c57600080fd5b8151602061279c61239b83612356565b82815260059290921b840181019181810190868411156127bb57600080fd5b8286015b848110156123da57805183529183019183016127bf565b6000602082840312156127e857600080fd5b815167ffffffffffffffff8082111561280057600080fd5b908301906060828603121561281457600080fd5b60405160608101818110838211171561282f5761282f61230f565b60405282518281111561284157600080fd5b61284d8782860161277b565b8252506020830151602082015260408301518281111561286c57600080fd5b6128788782860161277b565b60408301525095945050505050565b634e487b7160e01b600052603260045260246000fd5b634e487b7160e01b600052601160045260246000fd5b600082198211156128c6576128c661289d565b500190565b60006000198214156128df576128df61289d565b5060010190565b6001600160a01b03831681526040602082018190526000906108999083018461248d565b6001600160a01b038316815260406020820181905260009061089990830184612545565b602081526000610c35602083018461248d565b6000602080838503121561295457600080fd5b825167ffffffffffffffff81111561296b57600080fd5b8301601f8101851361297c57600080fd5b805161298a61239b82612356565b81815260059190911b820183019083810190878311156129a957600080fd5b928401925b828410156129d657835180151581146129c75760008081fd5b825292840192908401906129ae565b979650505050505050565b6020808252602b908201527f496e697469616c697a61626c653a20636f6e7472616374206973206e6f74206960408201526a6e697469616c697a696e6760a81b606082015260800190565b600063ffffffff80831681851681830481118215151615612a4f57612a4f61289d565b02949350505050565b600063ffffffff808316818516808303821115612a7757612a7761289d565b01949350505050565b600060208284031215612a9257600080fd5b5051919050565b60005b83811015612ab4578181015183820152602001612a9c565b83811115610d785750506000910152565b7f416363657373436f6e74726f6c3a206163636f756e7420000000000000000000815260008351612afd816017850160208801612a99565b7001034b99036b4b9b9b4b733903937b6329607d1b6017918401918201528351612b2e816028840160208801612a99565b01602801949350505050565b6020815260008251806020840152612b59816040850160208701612a99565b601f01601f19169190910160400192915050565b634e487b7160e01b600052601260045260246000fd5b600082612b9257612b92612b6d565b500690565b600082612ba657612ba6612b6d565b500490565b600082821015612bbd57612bbd61289d565b500390565b634e487b7160e01b600052603160045260246000fd5b6000816000190483118215151615612bf257612bf261289d565b500290565b600081612c0657612c0661289d565b50600019019056fea49807205ce4d355092ef5a8a18f56e8913cf4a201fbe287825b095693c21775a26469706673582212204971473baedfbf06128ca7d9e4a6fb3ba0032b68058a8a2d3209131f8e7aaeb564736f6c63430008090033",
  "linkReferences": {},
  "deployedLinkReferences": {}
}