{
  "_format": "hh-sol-artifact-1",
  "contractName": "HatcherHarryUpgradeable",
  "sourceName": "contracts/npc/HatcherHarryUpgradeable.sol",
  "abi": [
    {
      "inputs": [],
      "stateMutability": "nonpayable",
      "type": "constructor"
    },
    {
      "inputs": [
        {
          "internalType": "address",
          "name": "have",
          "type": "address"
        },
        {
          "internalType": "address",
          "name": "want",
          "type": "address"
        }
      ],
      "name": "OnlyCoordinatorCanFulfill",
      "type": "error"
    },
    {
      "anonymous": false,
      "inputs": [
        {
          "indexed": false,
          "internalType": "uint8",
          "name": "version",
          "type": "uint8"
        }
      ],
      "name": "Initialized",
      "type": "event"
    },
    {
      "anonymous": false,
      "inputs": [
        {
          "indexed": false,
          "internalType": "address",
          "name": "account",
          "type": "address"
        }
      ],
      "name": "Paused",
      "type": "event"
    },
    {
      "anonymous": false,
      "inputs": [
        {
          "indexed": true,
          "internalType": "bytes32",
          "name": "role",
          "type": "bytes32"
        },
        {
          "indexed": true,
          "internalType": "bytes32",
          "name": "previousAdminRole",
          "type": "bytes32"
        },
        {
          "indexed": true,
          "internalType": "bytes32",
          "name": "newAdminRole",
          "type": "bytes32"
        }
      ],
      "name": "RoleAdminChanged",
      "type": "event"
    },
    {
      "anonymous": false,
      "inputs": [
        {
          "indexed": true,
          "internalType": "bytes32",
          "name": "role",
          "type": "bytes32"
        },
        {
          "indexed": true,
          "internalType": "address",
          "name": "account",
          "type": "address"
        },
        {
          "indexed": true,
          "internalType": "address",
          "name": "sender",
          "type": "address"
        }
      ],
      "name": "RoleGranted",
      "type": "event"
    },
    {
      "anonymous": false,
      "inputs": [
        {
          "indexed": true,
          "internalType": "bytes32",
          "name": "role",
          "type": "bytes32"
        },
        {
          "indexed": true,
          "internalType": "address",
          "name": "account",
          "type": "address"
        },
        {
          "indexed": true,
          "internalType": "address",
          "name": "sender",
          "type": "address"
        }
      ],
      "name": "RoleRevoked",
      "type": "event"
    },
    {
      "anonymous": false,
      "inputs": [
        {
          "indexed": false,
          "internalType": "address",
          "name": "account",
          "type": "address"
        }
      ],
      "name": "Unpaused",
      "type": "event"
    },
    {
      "inputs": [],
      "name": "ADMIN_ROLE",
      "outputs": [
        {
          "internalType": "bytes32",
          "name": "",
          "type": "bytes32"
        }
      ],
      "stateMutability": "view",
      "type": "function"
    },
    {
      "inputs": [],
      "name": "CONTRACT_ROLE",
      "outputs": [
        {
          "internalType": "bytes32",
          "name": "",
          "type": "bytes32"
        }
      ],
      "stateMutability": "view",
      "type": "function"
    },
    {
      "inputs": [],
      "name": "DEFAULT_ADMIN_ROLE",
      "outputs": [
        {
          "internalType": "bytes32",
          "name": "",
          "type": "bytes32"
        }
      ],
      "stateMutability": "view",
      "type": "function"
    },
    {
      "inputs": [
        {
          "internalType": "address",
          "name": "_address",
          "type": "address"
        },
        {
          "internalType": "uint256[]",
          "name": "tokenIds",
          "type": "uint256[]"
        }
      ],
      "name": "adminReIncubate",
      "outputs": [],
      "stateMutability": "nonpayable",
      "type": "function"
    },
    {
      "inputs": [
        {
          "internalType": "address",
          "name": "_address",
          "type": "address"
        }
      ],
      "name": "getPendingHatch",
      "outputs": [
        {
          "components": [
            {
              "internalType": "uint256[]",
              "name": "ids",
              "type": "uint256[]"
            },
            {
              "internalType": "uint256",
              "name": "requestId",
              "type": "uint256"
            },
            {
              "internalType": "uint256[]",
              "name": "words",
              "type": "uint256[]"
            }
          ],
          "internalType": "struct IEvoStructsUpgradeable.PendingHatch",
          "name": "ph",
          "type": "tuple"
        },
        {
          "internalType": "bool",
          "name": "migrated",
          "type": "bool"
        }
      ],
      "stateMutability": "view",
      "type": "function"
    },
    {
      "inputs": [
        {
          "internalType": "bytes32",
          "name": "role",
          "type": "bytes32"
        }
      ],
      "name": "getRoleAdmin",
      "outputs": [
        {
          "internalType": "bytes32",
          "name": "",
          "type": "bytes32"
        }
      ],
      "stateMutability": "view",
      "type": "function"
    },
    {
      "inputs": [
        {
          "internalType": "bytes32",
          "name": "role",
          "type": "bytes32"
        },
        {
          "internalType": "uint256",
          "name": "index",
          "type": "uint256"
        }
      ],
      "name": "getRoleMember",
      "outputs": [
        {
          "internalType": "address",
          "name": "",
          "type": "address"
        }
      ],
      "stateMutability": "view",
      "type": "function"
    },
    {
      "inputs": [
        {
          "internalType": "bytes32",
          "name": "role",
          "type": "bytes32"
        }
      ],
      "name": "getRoleMemberCount",
      "outputs": [
        {
          "internalType": "uint256",
          "name": "",
          "type": "uint256"
        }
      ],
      "stateMutability": "view",
      "type": "function"
    },
    {
      "inputs": [
        {
          "internalType": "bytes32",
          "name": "role",
          "type": "bytes32"
        },
        {
          "internalType": "address",
          "name": "account",
          "type": "address"
        }
      ],
      "name": "grantRole",
      "outputs": [],
      "stateMutability": "nonpayable",
      "type": "function"
    },
    {
      "inputs": [
        {
          "internalType": "bytes32",
          "name": "role",
          "type": "bytes32"
        },
        {
          "internalType": "address",
          "name": "account",
          "type": "address"
        }
      ],
      "name": "hasRole",
      "outputs": [
        {
          "internalType": "bool",
          "name": "",
          "type": "bool"
        }
      ],
      "stateMutability": "view",
      "type": "function"
    },
    {
      "inputs": [],
      "name": "hatch",
      "outputs": [],
      "stateMutability": "nonpayable",
      "type": "function"
    },
    {
      "inputs": [
        {
          "internalType": "uint256[]",
          "name": "tokenIds",
          "type": "uint256[]"
        }
      ],
      "name": "incubate",
      "outputs": [],
      "stateMutability": "nonpayable",
      "type": "function"
    },
    {
      "inputs": [],
      "name": "initialize",
      "outputs": [],
      "stateMutability": "nonpayable",
      "type": "function"
    },
    {
      "inputs": [],
      "name": "pause",
      "outputs": [],
      "stateMutability": "nonpayable",
      "type": "function"
    },
    {
      "inputs": [],
      "name": "paused",
      "outputs": [
        {
          "internalType": "bool",
          "name": "",
          "type": "bool"
        }
      ],
      "stateMutability": "view",
      "type": "function"
    },
    {
      "inputs": [],
      "name": "pendingHatch",
      "outputs": [
        {
          "internalType": "bool",
          "name": "exists",
          "type": "bool"
        },
        {
          "internalType": "bool",
          "name": "ready",
          "type": "bool"
        },
        {
          "internalType": "uint256[]",
          "name": "ids",
          "type": "uint256[]"
        }
      ],
      "stateMutability": "view",
      "type": "function"
    },
    {
      "inputs": [],
      "name": "rarityConfig",
      "outputs": [
        {
          "internalType": "uint256[]",
          "name": "",
          "type": "uint256[]"
        },
        {
          "internalType": "uint256[]",
          "name": "",
          "type": "uint256[]"
        },
        {
          "internalType": "uint256",
          "name": "",
          "type": "uint256"
        }
      ],
      "stateMutability": "view",
      "type": "function"
    },
    {
      "inputs": [
        {
          "internalType": "uint256",
          "name": "requestId",
          "type": "uint256"
        },
        {
          "internalType": "uint256[]",
          "name": "randomWords",
          "type": "uint256[]"
        }
      ],
      "name": "rawFulfillRandomWords",
      "outputs": [],
      "stateMutability": "nonpayable",
      "type": "function"
    },
    {
      "inputs": [
        {
          "internalType": "bytes32",
          "name": "role",
          "type": "bytes32"
        },
        {
          "internalType": "address",
          "name": "account",
          "type": "address"
        }
      ],
      "name": "renounceRole",
      "outputs": [],
      "stateMutability": "nonpayable",
      "type": "function"
    },
    {
      "inputs": [
        {
          "internalType": "bytes32",
          "name": "role",
          "type": "bytes32"
        },
        {
          "internalType": "address",
          "name": "account",
          "type": "address"
        }
      ],
      "name": "revokeRole",
      "outputs": [],
      "stateMutability": "nonpayable",
      "type": "function"
    },
    {
      "inputs": [
        {
          "internalType": "uint256[]",
          "name": "speciesIds",
          "type": "uint256[]"
        },
        {
          "internalType": "uint256[][]",
          "name": "_baseAttributes",
          "type": "uint256[][]"
        }
      ],
      "name": "setBaseAttributes",
      "outputs": [],
      "stateMutability": "nonpayable",
      "type": "function"
    },
    {
      "inputs": [
        {
          "internalType": "address",
          "name": "_address",
          "type": "address"
        }
      ],
      "name": "simulateHatch",
      "outputs": [
        {
          "components": [
            {
              "internalType": "uint256",
              "name": "tokenId",
              "type": "uint256"
            },
            {
              "internalType": "uint256",
              "name": "species",
              "type": "uint256"
            },
            {
              "internalType": "uint256",
              "name": "generation",
              "type": "uint256"
            },
            {
              "internalType": "uint256",
              "name": "experience",
              "type": "uint256"
            },
            {
              "components": [
                {
                  "internalType": "uint256",
                  "name": "gender",
                  "type": "uint256"
                },
                {
                  "internalType": "uint256",
                  "name": "rarity",
                  "type": "uint256"
                },
                {
                  "internalType": "uint256",
                  "name": "primaryType",
                  "type": "uint256"
                },
                {
                  "internalType": "uint256",
                  "name": "secondaryType",
                  "type": "uint256"
                },
                {
                  "internalType": "uint256",
                  "name": "nature",
                  "type": "uint256"
                }
              ],
              "internalType": "struct IEvoStructsUpgradeable.Stats",
              "name": "stats",
              "type": "tuple"
            },
            {
              "components": [
                {
                  "internalType": "uint256",
                  "name": "health",
                  "type": "uint256"
                },
                {
                  "internalType": "uint256",
                  "name": "attack",
                  "type": "uint256"
                },
                {
                  "internalType": "uint256",
                  "name": "defense",
                  "type": "uint256"
                },
                {
                  "internalType": "uint256",
                  "name": "special",
                  "type": "uint256"
                },
                {
                  "internalType": "uint256",
                  "name": "resistance",
                  "type": "uint256"
                },
                {
                  "internalType": "uint256",
                  "name": "speed",
                  "type": "uint256"
                }
              ],
              "internalType": "struct IEvoStructsUpgradeable.BattleStats",
              "name": "battle",
              "type": "tuple"
            },
            {
              "components": [
                {
                  "internalType": "uint256",
                  "name": "total",
                  "type": "uint256"
                },
                {
                  "internalType": "uint256",
                  "name": "remaining",
                  "type": "uint256"
                }
              ],
              "internalType": "struct IEvoStructsUpgradeable.Summons",
              "name": "summons",
              "type": "tuple"
            }
          ],
          "internalType": "struct IEvoStructsUpgradeable.Evo[]",
          "name": "",
          "type": "tuple[]"
        }
      ],
      "stateMutability": "view",
      "type": "function"
    },
    {
      "inputs": [
        {
          "internalType": "bytes4",
          "name": "interfaceId",
          "type": "bytes4"
        }
      ],
      "name": "supportsInterface",
      "outputs": [
        {
          "internalType": "bool",
          "name": "",
          "type": "bool"
        }
      ],
      "stateMutability": "view",
      "type": "function"
    },
    {
      "inputs": [],
      "name": "unpause",
      "outputs": [],
      "stateMutability": "nonpayable",
      "type": "function"
    }
  ],
  "bytecode": "0x60806040523480156200001157600080fd5b506200001c62000022565b620000e4565b600054610100900460ff16156200008f5760405162461bcd60e51b815260206004820152602760248201527f496e697469616c697a61626c653a20636f6e747261637420697320696e697469604482015266616c697a696e6760c81b606482015260840160405180910390fd5b60005460ff9081161015620000e2576000805460ff191660ff9081179091556040519081527f7f26b83ff96e1f2b6a682f133852f6798a09c465da95921460cefb38474024989060200160405180910390a15b565b612e1b80620000f46000396000f3fe608060405234801561001057600080fd5b50600436106101585760003560e01c806379c77449116100c3578063a217fddf1161007c578063a217fddf14610310578063a40e1a6614610318578063bb6c6b431461032b578063ca15c8731461033e578063d0db508314610351578063d547741f1461035957600080fd5b806379c774491461028f5780638129fc1c146102af5780638456cb59146102b75780638936480c146102bf5780639010d07c146102d257806391d14854146102fd57600080fd5b80633f4ba83a116101155780633f4ba83a1461021857806345835719146102205780635ba7aa07146102375780635c975abb146102585780635e29cedb1461026357806375b238fc1461027a57600080fd5b806301ffc9a71461015d57806303fe46ab146101855780631fe543e3146101ba578063248a9ca3146101cf5780632f2ff15d146101f257806336568abe14610205575b600080fd5b61017061016b366004612416565b61036c565b60405190151581526020015b60405180910390f35b6101ac7f364d3d7565c7a8300c96fd53e065d19b65848d7b23b3191adcd55621c744223c81565b60405190815260200161017c565b6101cd6101c8366004612514565b610397565b005b6101ac6101dd36600461255a565b60009081526097602052604090206001015490565b6101cd61020036600461258f565b6103ea565b6101cd61021336600461258f565b610414565b6101cd61048e565b6102286104b1565b60405161017c939291906125f6565b61024a610245366004612622565b61063e565b60405161017c92919061263d565b60335460ff16610170565b61026b6107d9565b60405161017c93929190612693565b6101ac600080516020612dc683398151915281565b6102a261029d366004612622565b6108f0565b60405161017c91906127c0565b6101cd61094b565b6101cd610b44565b6101cd6102cd3660046127d3565b610b64565b6102e56102e0366004612807565b610d02565b6040516001600160a01b03909116815260200161017c565b61017061030b36600461258f565b610d21565b6101ac600081565b6101cd610326366004612829565b610d4c565b6101cd6103393660046128fd565b610e5d565b6101ac61034c36600461255a565b610fa4565b6101cd610fbb565b6101cd61036736600461258f565b6111e0565b60006001600160e01b03198216635a05180f60e01b1480610391575061039182611205565b92915050565b60fb546001600160a01b031633146103dc5760fb5460405163073e64fd60e21b81523360048201526001600160a01b0390911660248201526044015b60405180910390fd5b6103e6828261123a565b5050565b60008281526097602052604090206001015461040581611274565b61040f838361127e565b505050565b6001600160a01b03811633146104845760405162461bcd60e51b815260206004820152602f60248201527f416363657373436f6e74726f6c3a2063616e206f6e6c792072656e6f756e636560448201526e103937b632b9903337b91039b2b63360891b60648201526084016103d3565b6103e682826112a0565b600080516020612dc68339815191526104a681611274565b6104ae6112c2565b50565b3360009081526101c26020908152604080832081518154608094810282018501909352606080820184815286959194869492849291849184018282801561051757602002820191906000526020600020905b815481526020019060010190808311610503575b50505050508152602001600182015481526020016002820180548060200260200160405190810160405280929190818152602001828054801561057957602002820191906000526020600020905b815481526020019060010190808311610565575b5050505050815250509050806020015160001415610622576101c1546001600160a01b031663a5435ec1336040516001600160e01b031960e084901b1681526001600160a01b03909116600482015260240160006040518083038186803b1580156105e357600080fd5b505afa1580156105f7573d6000803e3d6000fd5b505050506040513d6000823e601f3d908101601f1916820160405261061f919081019061298f565b90505b6020810151604082015151915190151595911515945092509050565b61066260405180606001604052806060815260200160008152602001606081525090565b6001600160a01b03821660009081526101c26020908152604080832081518154608094810282018501909352606081018381529093919284928491908401828280156106cd57602002820191906000526020600020905b8154815260200190600101908083116106b9575b50505050508152602001600182015481526020016002820180548060200260200160405190810160405280929190818152602001828054801561072f57602002820191906000526020600020905b81548152602001906001019080831161071b575b5050505050815250509150600090508160200151600014156107d4576101c15460405163a5435ec160e01b81526001600160a01b0385811660048301529091169063a5435ec19060240160006040518083038186803b15801561079157600080fd5b505afa1580156107a5573d6000803e3d6000fd5b505050506040513d6000823e601f3d908101601f191682016040526107cd919081019061298f565b9150600190505b915091565b6060806000806107ea6101c7611314565b9050600081516001600160401b0381111561080757610807612440565b604051908082528060200260200182016040528015610830578160200160208202803683370190505b5090506000805b83518110156108e35761088060006101c6600087858151811061085c5761085c612a3f565b6020026020010151815260200190815260200160002061132190919063ffffffff16565b610889576108d1565b8183828151811061089c5761089c612a3f565b6020026020010181815250506108c460016101c6600087858151811061085c5761085c612a3f565b6108ce9083612a6b565b91505b806108db81612a83565b915050610837565b5091959094509092509050565b6060600080516020612dc683398151915261090a81611274565b61092e60405180606001604052806060815260200160008152602001606081525090565b6109378461063e565b5090506109438161132d565b949350505050565b600054610100900460ff161580801561096b5750600054600160ff909116105b806109855750303b158015610985575060005460ff166001145b6109e85760405162461bcd60e51b815260206004820152602e60248201527f496e697469616c697a61626c653a20636f6e747261637420697320616c72656160448201526d191e481a5b9a5d1a585b1a5e995960921b60648201526084016103d3565b6000805460ff191660011790558015610a0b576000805461ff0019166101001790555b610a1361150f565b610a1b611540565b73d5d517abe5cf79b7e95ec98db0f0277788aff6347f83250c5584ffa93feb6ee082981c5ebe484c865196750b39835ad4f13780435d601d6003610a6184848484611567565b610a6c60003361127e565b610a84600080516020612dc68339815191523361127e565b610aae7f364d3d7565c7a8300c96fd53e065d19b65848d7b23b3191adcd55621c744223c3361127e565b50506101c080546001600160a01b03199081167375ddd2b19e6f7bed3bfe9d2d21dd226c38c0cbc4179091556101c1805490911673454a0e479ac78e508a95880216c06f50bf3c321c179055505080156104ae576000805461ff0019169055604051600181527f7f26b83ff96e1f2b6a682f133852f6798a09c465da95921460cefb38474024989060200160405180910390a150565b600080516020612dc6833981519152610b5c81611274565b6104ae6115a3565b600581511115610bac5760405162461bcd60e51b815260206004820152601360248201527209ac2f0d2daeada406a40e0cae440d0c2e8c6d606b1b60448201526064016103d3565b610bd060405180606001604052806060815260200160008152602001606081525090565b610bd93361063e565b50602081015190915015610c2f5760405162461bcd60e51b815260206004820152601a60248201527f4578697374696e6720686174636820696e2070726f677265737300000000000060448201526064016103d3565b3360008181526101c26020526040908190206101c0549151630b6539e760e01b815290926001600160a01b0390921691630b6539e791610c7491908790600401612a9e565b600060405180830381600087803b158015610c8e57600080fd5b505af1158015610ca2573d6000803e3d6000fd5b50505050610cb083516115e0565b60018201558251610cc790829060208601906122da565b50600181015460009081526101c56020526040902080546001600160a01b03191633908117909155610cfc906101c3906116b8565b50505050565b600082815260c960205260408120610d1a90836116cd565b9392505050565b60009182526097602090815260408084206001600160a01b0393909316845291905290205460ff1690565b600080516020612dc6833981519152610d6481611274565b60005b8351811015610cfc57610d9e848281518110610d8557610d85612a3f565b60200260200101516101c76116d990919063ffffffff16565b5060005b838281518110610db457610db4612a3f565b602002602001015151811015610e4a57610e3781858481518110610dda57610dda612a3f565b60200260200101518381518110610df357610df3612a3f565b60200260200101516101c66000898781518110610e1257610e12612a3f565b602002602001015181526020019081526020016000206116e59092919063ffffffff16565b5080610e4281612a83565b915050610da2565b5080610e5581612a83565b915050610d67565b600581511115610ea55760405162461bcd60e51b815260206004820152601360248201527209ac2f0d2daeada406a40e0cae440d0c2e8c6d606b1b60448201526064016103d3565b610ec960405180606001604052806060815260200160008152602001606081525090565b610ed28361063e565b50602081015190915015610f285760405162461bcd60e51b815260206004820152601a60248201527f4578697374696e6720686174636820696e2070726f677265737300000000000060448201526064016103d3565b6001600160a01b03831660009081526101c2602052604090208251610f4c906115e0565b60018201558251610f6390829060208601906122da565b50600181015460009081526101c56020526040902080546001600160a01b0319166001600160a01b038616179055610f9d6101c3856116b8565b5050505050565b600081815260c960205260408120610391906116f2565b610fdf60405180606001604052806060815260200160008152602001606081525090565b6000610fea3361063e565b602082015191935091506110405760405162461bcd60e51b815260206004820152601c60248201527f4e6f2070656e64696e6720686174636820696e2070726f67726573730000000060448201526064016103d3565b60008260400151511161108d5760405162461bcd60e51b8152602060048201526015602482015274526573756c7473207374696c6c2070656e64696e6760581b60448201526064016103d3565b60006110988361132d565b6101c154604051630340a49360e11b81529192506001600160a01b0316906306814926906110cc9033908590600401612ac2565b600060405180830381600087803b1580156110e657600080fd5b505af11580156110fa573d6000803e3d6000fd5b505050508115611175576101c1546001600160a01b0316630c9ac092336040516001600160e01b031960e084901b1681526001600160a01b039091166004820152602401600060405180830381600087803b15801561115857600080fd5b505af115801561116c573d6000803e3d6000fd5b50505050505050565b3360008181526101c260208181526040808420600181015485526101c5835290842080546001600160a01b0319169055938352526111b38282612325565b60018201600090556002820160006111cb9190612325565b5050610cfc6111d73390565b6101c3906116fc565b6000828152609760205260409020600101546111fb81611274565b61040f83836112a0565b60006001600160e01b03198216637965db0b60e01b148061039157506301ffc9a760e01b6001600160e01b0319831614610391565b60008281526101c560209081526040808320546001600160a01b031683526101c28252909120825161040f926002909201918401906122da565b6104ae8133611711565b6112888282611775565b600082815260c96020526040902061040f90826116b8565b6112aa82826117fb565b600082815260c96020526040902061040f90826116fc565b6112ca611862565b6033805460ff191690557f5db9ee0a495bf2e6ff9c91a7834c1ba4fdd244a5e8aa4e537bd38aeae4b073aa335b6040516001600160a01b03909116815260200160405180910390a1565b60606000610d1a836118ab565b6000610d1a8383611907565b6101c05481516040516396908f5160e01b81526060926000926001600160a01b03909116916396908f519161136491600401612ae6565b60006040518083038186803b15801561137c57600080fd5b505afa158015611390573d6000803e3d6000fd5b505050506040513d6000823e601f3d908101601f191682016040526113b89190810190612af9565b905060608060006113c76107d9565b88515192955090935091506001600160401b038111156113e9576113e9612440565b60405190808252806020026020018201604052801561142257816020015b61140f612343565b8152602001906001900390816114075790505b50945060005b8651518110156115055760008760000151828151811061144a5761144a612a3f565b6020026020010151905060006114818960400151848151811061146f5761146f612a3f565b6020026020010151612710600e611977565b905060006114ab8260008151811061149b5761149b612a3f565b6020026020010151878988611a21565b90506114d2838986815181106114c3576114c3612a3f565b60200260200101518385611acb565b8985815181106114e4576114e4612a3f565b602002602001018190525050505080806114fd90612a83565b915050611428565b5050505050919050565b600054610100900460ff166115365760405162461bcd60e51b81526004016103d390612b98565b61153e611e1e565b565b600054610100900460ff1661153e5760405162461bcd60e51b81526004016103d390612b98565b600054610100900460ff1661158e5760405162461bcd60e51b81526004016103d390612b98565b61159784611e51565b610cfc84848484611e81565b6115ab611f03565b6033805460ff191660011790557f62e78cea01bee320cd4e420270b5ea74000d11b0c9f74754ebdbfc544b05a2586112f73390565b6000806115ef83614e20612be3565b6115fc90620186a0612c0f565b61012d5461012e5461012f546040516305d3b1d360e41b815260048101929092526001600160401b0381166024830152600160401b900461ffff16604482015263ffffffff8084166064830152861660848201529192506001600160a01b031690635d3b1d309060a401602060405180830381600087803b15801561168057600080fd5b505af1158015611694573d6000803e3d6000fd5b505050506040513d601f19601f82011682018060405250810190610d1a9190612c37565b6000610d1a836001600160a01b038416611f49565b6000610d1a8383611f98565b6000610d1a8383611f49565b6000610943848484611fc2565b6000610391825490565b6000610d1a836001600160a01b038416611fdf565b61171b8282610d21565b6103e657611733816001600160a01b031660146120d2565b61173e8360206120d2565b60405160200161174f929190612c7c565b60408051601f198184030181529082905262461bcd60e51b82526103d391600401612cf1565b61177f8282610d21565b6103e65760008281526097602090815260408083206001600160a01b03851684529091529020805460ff191660011790556117b73390565b6001600160a01b0316816001600160a01b0316837f2f8788117e7eff1d82e926ec794901d17c78024a50270940304540a733656f0d60405160405180910390a45050565b6118058282610d21565b156103e65760008281526097602090815260408083206001600160a01b0385168085529252808320805460ff1916905551339285917ff6391f5c32d9c69d2a47ea670b442974b53935d1edc7fd64eb21e047a839171b9190a45050565b60335460ff1661153e5760405162461bcd60e51b815260206004820152601460248201527314185d5cd8589b194e881b9bdd081c185d5cd95960621b60448201526064016103d3565b6060816000018054806020026020016040519081016040528092919081815260200182805480156118fb57602002820191906000526020600020905b8154815260200190600101908083116118e7575b50505050509050919050565b60008181526002830160205260408120548015158061192b575061192b848461226d565b610d1a5760405162461bcd60e51b815260206004820152601e60248201527f456e756d657261626c654d61703a206e6f6e6578697374656e74206b6579000060448201526064016103d3565b60606000826001600160401b0381111561199357611993612440565b6040519080825280602002602001820160405280156119bc578160200160208202803683370190505b5090508460005b84811015611a165760006119d78784612d3a565b90506119e38784612d4e565b9250808483815181106119f8576119f8612a3f565b60209081029190910101525080611a0e81612a83565b9150506119c3565b509095945050505050565b60008260018451611a329190612d62565b81518110611a4257611a42612a3f565b6020026020010151905060008286611a5a9190612d3a565b905060005b8551811015611ac157858181518110611a7a57611a7a612a3f565b6020026020010151821115611a8e57611aaf565b848181518110611aa057611aa0612a3f565b60200260200101519250611ac1565b80611ab981612a83565b915050611a5f565b5050949350505050565b611ad3612343565b600084611ae1576001611ae4565b60095b60ff1685611af457611388611af8565b610bb85b61ffff1684600181518110611b0f57611b0f612a3f565b6020026020010151611b219190612d3a565b109050600085611b32576001611b35565b602d5b60ff1686611b45576103e8611b49565b610bb85b61ffff1685600181518110611b6057611b60612a3f565b6020026020010151611b729190612d3a565b109050600082611b8f5781611b88576000611b92565b6001611b92565b60025b60008781526101c66020526040812060ff92909216925090611bb5906002611321565b606487600281518110611bca57611bca612a3f565b6020026020010151611bdc9190612d3a565b10611be8576000611beb565b60015b60008881526101c66020526040812060ff92909216925090611c0e906003611321565b60008981526101c66020526040812091925090611c2c906004611321565b90506000601589600381518110611c4557611c45612a3f565b6020026020010151611c579190612d3a565b60408051600580825260c08201909252919250600091906020820160a08036833701905050905060005b8151811015611ce95760338b611c98836004612a6b565b81518110611ca857611ca8612a3f565b6020026020010151611cba9190612d3a565b828281518110611ccc57611ccc612a3f565b602090810291909101015280611ce181612a83565b915050611c81565b506040518060e001604052808e81526020018c815260200160008152602001600081526020016040518060a001604052808881526020018981526020018781526020018681526020018581525081526020016040518060c001604052806032815260200184600081518110611d6057611d60612a3f565b6020026020010151815260200184600181518110611d8057611d80612a3f565b6020026020010151815260200184600281518110611da057611da0612a3f565b6020026020010151815260200184600381518110611dc057611dc0612a3f565b6020026020010151815260200184600481518110611de057611de0612a3f565b6020026020010151815250815260200160405180604001604052806103e781526020016103e781525081525098505050505050505050949350505050565b600054610100900460ff16611e455760405162461bcd60e51b81526004016103d390612b98565b6033805460ff19169055565b600054610100900460ff16611e785760405162461bcd60e51b81526004016103d390612b98565b6104ae81612279565b600054610100900460ff16611ea85760405162461bcd60e51b81526004016103d390612b98565b61012d80546001600160a01b039095166001600160a01b03199095169490941790935561012f805461012e9390935561ffff909316600160401b0269ffffffffffffffffffff199092166001600160401b0390911617179055565b60335460ff161561153e5760405162461bcd60e51b815260206004820152601060248201526f14185d5cd8589b194e881c185d5cd95960821b60448201526064016103d3565b6000818152600183016020526040812054611f9057508154600181810184556000848152602080822090930184905584548482528286019093526040902091909155610391565b506000610391565b6000826000018281548110611faf57611faf612a3f565b9060005260206000200154905092915050565b6000828152600284016020526040812082905561094384846116d9565b600081815260018301602052604081205480156120c8576000612003600183612d62565b855490915060009061201790600190612d62565b905081811461207c57600086600001828154811061203757612037612a3f565b906000526020600020015490508087600001848154811061205a5761205a612a3f565b6000918252602080832090910192909255918252600188019052604090208390555b855486908061208d5761208d612d79565b600190038181906000526020600020016000905590558560010160008681526020019081526020016000206000905560019350505050610391565b6000915050610391565b606060006120e1836002612d8f565b6120ec906002612a6b565b6001600160401b0381111561210357612103612440565b6040519080825280601f01601f19166020018201604052801561212d576020820181803683370190505b509050600360fc1b8160008151811061214857612148612a3f565b60200101906001600160f81b031916908160001a905350600f60fb1b8160018151811061217757612177612a3f565b60200101906001600160f81b031916908160001a905350600061219b846002612d8f565b6121a6906001612a6b565b90505b600181111561221e576f181899199a1a9b1b9c1cb0b131b232b360811b85600f16601081106121da576121da612a3f565b1a60f81b8282815181106121f0576121f0612a3f565b60200101906001600160f81b031916908160001a90535060049490941c9361221781612dae565b90506121a9565b508315610d1a5760405162461bcd60e51b815260206004820181905260248201527f537472696e67733a20686578206c656e67746820696e73756666696369656e7460448201526064016103d3565b6000610d1a83836122c2565b600054610100900460ff166122a05760405162461bcd60e51b81526004016103d390612b98565b60fb80546001600160a01b0319166001600160a01b0392909216919091179055565b60008181526001830160205260408120541515610d1a565b828054828255906000526020600020908101928215612315579160200282015b828111156123155782518255916020019190600101906122fa565b50612321929150612401565b5090565b50805460008255906000526020600020908101906104ae9190612401565b6040518060e001604052806000815260200160008152602001600081526020016000815260200161239c6040518060a0016040528060008152602001600081526020016000815260200160008152602001600081525090565b81526020016123da6040518060c001604052806000815260200160008152602001600081526020016000815260200160008152602001600081525090565b81526020016123fc604051806040016040528060008152602001600081525090565b905290565b5b808211156123215760008155600101612402565b60006020828403121561242857600080fd5b81356001600160e01b031981168114610d1a57600080fd5b634e487b7160e01b600052604160045260246000fd5b604051601f8201601f191681016001600160401b038111828210171561247e5761247e612440565b604052919050565b60006001600160401b0382111561249f5761249f612440565b5060051b60200190565b600082601f8301126124ba57600080fd5b813560206124cf6124ca83612486565b612456565b82815260059290921b840181019181810190868411156124ee57600080fd5b8286015b8481101561250957803583529183019183016124f2565b509695505050505050565b6000806040838503121561252757600080fd5b8235915060208301356001600160401b0381111561254457600080fd5b612550858286016124a9565b9150509250929050565b60006020828403121561256c57600080fd5b5035919050565b80356001600160a01b038116811461258a57600080fd5b919050565b600080604083850312156125a257600080fd5b823591506125b260208401612573565b90509250929050565b600081518084526020808501945080840160005b838110156125eb578151875295820195908201906001016125cf565b509495945050505050565b8315158152821515602082015260606040820152600061261960608301846125bb565b95945050505050565b60006020828403121561263457600080fd5b610d1a82612573565b60408152600083516060604084015261265960a08401826125bb565b9050602085015160608401526040850151603f1984830301608085015261268082826125bb565b9250505082151560208301529392505050565b6060815260006126a660608301866125bb565b82810360208401526126b881866125bb565b915050826040830152949350505050565b600081518084526020808501945080840160005b838110156125eb578151805188528381015184890152604080820151818a0152606080830151818b01526080808401518051828d01528088015160a0808e01919091529381015160c0808e01919091528184015160e08e0152818301516101008e015293850151936127886101208e0186805182526020810151602083015260408101516040830152606081015160608301526080810151608083015260a081015160a08301525050565b949094015180516101e08d015260208101516102008d015293506127ab92505050565b506102209690960195908201906001016126dd565b602081526000610d1a60208301846126c9565b6000602082840312156127e557600080fd5b81356001600160401b038111156127fb57600080fd5b610943848285016124a9565b6000806040838503121561281a57600080fd5b50508035926020909101359150565b6000806040838503121561283c57600080fd5b82356001600160401b038082111561285357600080fd5b61285f868387016124a9565b935060209150818501358181111561287657600080fd5b8501601f8101871361288757600080fd5b80356128956124ca82612486565b81815260059190911b820184019084810190898311156128b457600080fd5b8584015b838110156128ec578035868111156128d05760008081fd5b6128de8c89838901016124a9565b8452509186019186016128b8565b508096505050505050509250929050565b6000806040838503121561291057600080fd5b61291983612573565b915060208301356001600160401b0381111561254457600080fd5b600082601f83011261294557600080fd5b815160206129556124ca83612486565b82815260059290921b8401810191818101908684111561297457600080fd5b8286015b848110156125095780518352918301918301612978565b6000602082840312156129a157600080fd5b81516001600160401b03808211156129b857600080fd5b90830190606082860312156129cc57600080fd5b6040516060810181811083821117156129e7576129e7612440565b6040528251828111156129f957600080fd5b612a0587828601612934565b82525060208301516020820152604083015182811115612a2457600080fd5b612a3087828601612934565b60408301525095945050505050565b634e487b7160e01b600052603260045260246000fd5b634e487b7160e01b600052601160045260246000fd5b60008219821115612a7e57612a7e612a55565b500190565b6000600019821415612a9757612a97612a55565b5060010190565b6001600160a01b0383168152604060208201819052600090610943908301846125bb565b6001600160a01b0383168152604060208201819052600090610943908301846126c9565b602081526000610d1a60208301846125bb565b60006020808385031215612b0c57600080fd5b82516001600160401b03811115612b2257600080fd5b8301601f81018513612b3357600080fd5b8051612b416124ca82612486565b81815260059190911b82018301908381019087831115612b6057600080fd5b928401925b82841015612b8d5783518015158114612b7e5760008081fd5b82529284019290840190612b65565b979650505050505050565b6020808252602b908201527f496e697469616c697a61626c653a20636f6e7472616374206973206e6f74206960408201526a6e697469616c697a696e6760a81b606082015260800190565b600063ffffffff80831681851681830481118215151615612c0657612c06612a55565b02949350505050565b600063ffffffff808316818516808303821115612c2e57612c2e612a55565b01949350505050565b600060208284031215612c4957600080fd5b5051919050565b60005b83811015612c6b578181015183820152602001612c53565b83811115610cfc5750506000910152565b7f416363657373436f6e74726f6c3a206163636f756e7420000000000000000000815260008351612cb4816017850160208801612c50565b7001034b99036b4b9b9b4b733903937b6329607d1b6017918401918201528351612ce5816028840160208801612c50565b01602801949350505050565b6020815260008251806020840152612d10816040850160208701612c50565b601f01601f19169190910160400192915050565b634e487b7160e01b600052601260045260246000fd5b600082612d4957612d49612d24565b500690565b600082612d5d57612d5d612d24565b500490565b600082821015612d7457612d74612a55565b500390565b634e487b7160e01b600052603160045260246000fd5b6000816000190483118215151615612da957612da9612a55565b500290565b600081612dbd57612dbd612a55565b50600019019056fea49807205ce4d355092ef5a8a18f56e8913cf4a201fbe287825b095693c21775a26469706673582212201f26928acff99278ca38ef18c4d86a95db9351383dbb8884ac176c47e7441e0964736f6c63430008090033",
  "linkReferences": {},
  "deployedLinkReferences": {}
}