{
  "_format": "hh-sol-artifact-1",
  "contractName": "HatcherHarryUpgradeable",
  "sourceName": "contracts/npc/HatcherHarryUpgradeable.sol",
  "abi": [
    {
      "inputs": [],
      "stateMutability": "nonpayable",
      "type": "constructor"
    },
    {
      "inputs": [
        {
          "internalType": "address",
          "name": "have",
          "type": "address"
        },
        {
          "internalType": "address",
          "name": "want",
          "type": "address"
        }
      ],
      "name": "OnlyCoordinatorCanFulfill",
      "type": "error"
    },
    {
      "anonymous": false,
      "inputs": [
        {
          "indexed": false,
          "internalType": "uint8",
          "name": "version",
          "type": "uint8"
        }
      ],
      "name": "Initialized",
      "type": "event"
    },
    {
      "anonymous": false,
      "inputs": [
        {
          "indexed": false,
          "internalType": "address",
          "name": "account",
          "type": "address"
        }
      ],
      "name": "Paused",
      "type": "event"
    },
    {
      "anonymous": false,
      "inputs": [
        {
          "indexed": true,
          "internalType": "bytes32",
          "name": "role",
          "type": "bytes32"
        },
        {
          "indexed": true,
          "internalType": "bytes32",
          "name": "previousAdminRole",
          "type": "bytes32"
        },
        {
          "indexed": true,
          "internalType": "bytes32",
          "name": "newAdminRole",
          "type": "bytes32"
        }
      ],
      "name": "RoleAdminChanged",
      "type": "event"
    },
    {
      "anonymous": false,
      "inputs": [
        {
          "indexed": true,
          "internalType": "bytes32",
          "name": "role",
          "type": "bytes32"
        },
        {
          "indexed": true,
          "internalType": "address",
          "name": "account",
          "type": "address"
        },
        {
          "indexed": true,
          "internalType": "address",
          "name": "sender",
          "type": "address"
        }
      ],
      "name": "RoleGranted",
      "type": "event"
    },
    {
      "anonymous": false,
      "inputs": [
        {
          "indexed": true,
          "internalType": "bytes32",
          "name": "role",
          "type": "bytes32"
        },
        {
          "indexed": true,
          "internalType": "address",
          "name": "account",
          "type": "address"
        },
        {
          "indexed": true,
          "internalType": "address",
          "name": "sender",
          "type": "address"
        }
      ],
      "name": "RoleRevoked",
      "type": "event"
    },
    {
      "anonymous": false,
      "inputs": [
        {
          "indexed": false,
          "internalType": "address",
          "name": "account",
          "type": "address"
        }
      ],
      "name": "Unpaused",
      "type": "event"
    },
    {
      "inputs": [],
      "name": "ADMIN_ROLE",
      "outputs": [
        {
          "internalType": "bytes32",
          "name": "",
          "type": "bytes32"
        }
      ],
      "stateMutability": "view",
      "type": "function"
    },
    {
      "inputs": [],
      "name": "CONTRACT_ROLE",
      "outputs": [
        {
          "internalType": "bytes32",
          "name": "",
          "type": "bytes32"
        }
      ],
      "stateMutability": "view",
      "type": "function"
    },
    {
      "inputs": [],
      "name": "DEFAULT_ADMIN_ROLE",
      "outputs": [
        {
          "internalType": "bytes32",
          "name": "",
          "type": "bytes32"
        }
      ],
      "stateMutability": "view",
      "type": "function"
    },
    {
      "inputs": [
        {
          "internalType": "address",
          "name": "_address",
          "type": "address"
        }
      ],
      "name": "getPendingHatch",
      "outputs": [
        {
          "components": [
            {
              "internalType": "uint256[]",
              "name": "ids",
              "type": "uint256[]"
            },
            {
              "internalType": "uint256",
              "name": "requestId",
              "type": "uint256"
            },
            {
              "internalType": "uint256[]",
              "name": "words",
              "type": "uint256[]"
            }
          ],
          "internalType": "struct IEvoStructsUpgradeable.PendingHatch",
          "name": "ph",
          "type": "tuple"
        },
        {
          "internalType": "bool",
          "name": "migrated",
          "type": "bool"
        }
      ],
      "stateMutability": "view",
      "type": "function"
    },
    {
      "inputs": [
        {
          "internalType": "bytes32",
          "name": "role",
          "type": "bytes32"
        }
      ],
      "name": "getRoleAdmin",
      "outputs": [
        {
          "internalType": "bytes32",
          "name": "",
          "type": "bytes32"
        }
      ],
      "stateMutability": "view",
      "type": "function"
    },
    {
      "inputs": [
        {
          "internalType": "bytes32",
          "name": "role",
          "type": "bytes32"
        },
        {
          "internalType": "uint256",
          "name": "index",
          "type": "uint256"
        }
      ],
      "name": "getRoleMember",
      "outputs": [
        {
          "internalType": "address",
          "name": "",
          "type": "address"
        }
      ],
      "stateMutability": "view",
      "type": "function"
    },
    {
      "inputs": [
        {
          "internalType": "bytes32",
          "name": "role",
          "type": "bytes32"
        }
      ],
      "name": "getRoleMemberCount",
      "outputs": [
        {
          "internalType": "uint256",
          "name": "",
          "type": "uint256"
        }
      ],
      "stateMutability": "view",
      "type": "function"
    },
    {
      "inputs": [
        {
          "internalType": "bytes32",
          "name": "role",
          "type": "bytes32"
        },
        {
          "internalType": "address",
          "name": "account",
          "type": "address"
        }
      ],
      "name": "grantRole",
      "outputs": [],
      "stateMutability": "nonpayable",
      "type": "function"
    },
    {
      "inputs": [
        {
          "internalType": "bytes32",
          "name": "role",
          "type": "bytes32"
        },
        {
          "internalType": "address",
          "name": "account",
          "type": "address"
        }
      ],
      "name": "hasRole",
      "outputs": [
        {
          "internalType": "bool",
          "name": "",
          "type": "bool"
        }
      ],
      "stateMutability": "view",
      "type": "function"
    },
    {
      "inputs": [],
      "name": "hatch",
      "outputs": [],
      "stateMutability": "nonpayable",
      "type": "function"
    },
    {
      "inputs": [
        {
          "internalType": "uint256[]",
          "name": "tokenIds",
          "type": "uint256[]"
        }
      ],
      "name": "incubate",
      "outputs": [],
      "stateMutability": "nonpayable",
      "type": "function"
    },
    {
      "inputs": [],
      "name": "initialize",
      "outputs": [],
      "stateMutability": "nonpayable",
      "type": "function"
    },
    {
      "inputs": [],
      "name": "pause",
      "outputs": [],
      "stateMutability": "nonpayable",
      "type": "function"
    },
    {
      "inputs": [],
      "name": "paused",
      "outputs": [
        {
          "internalType": "bool",
          "name": "",
          "type": "bool"
        }
      ],
      "stateMutability": "view",
      "type": "function"
    },
    {
      "inputs": [],
      "name": "pendingHatch",
      "outputs": [
        {
          "internalType": "bool",
          "name": "exists",
          "type": "bool"
        },
        {
          "internalType": "bool",
          "name": "ready",
          "type": "bool"
        },
        {
          "internalType": "uint256[]",
          "name": "ids",
          "type": "uint256[]"
        }
      ],
      "stateMutability": "view",
      "type": "function"
    },
    {
      "inputs": [],
      "name": "rarityConfig",
      "outputs": [
        {
          "internalType": "uint256[]",
          "name": "",
          "type": "uint256[]"
        },
        {
          "internalType": "uint256[]",
          "name": "",
          "type": "uint256[]"
        },
        {
          "internalType": "uint256",
          "name": "",
          "type": "uint256"
        }
      ],
      "stateMutability": "view",
      "type": "function"
    },
    {
      "inputs": [
        {
          "internalType": "uint256",
          "name": "requestId",
          "type": "uint256"
        },
        {
          "internalType": "uint256[]",
          "name": "randomWords",
          "type": "uint256[]"
        }
      ],
      "name": "rawFulfillRandomWords",
      "outputs": [],
      "stateMutability": "nonpayable",
      "type": "function"
    },
    {
      "inputs": [
        {
          "internalType": "bytes32",
          "name": "role",
          "type": "bytes32"
        },
        {
          "internalType": "address",
          "name": "account",
          "type": "address"
        }
      ],
      "name": "renounceRole",
      "outputs": [],
      "stateMutability": "nonpayable",
      "type": "function"
    },
    {
      "inputs": [
        {
          "internalType": "bytes32",
          "name": "role",
          "type": "bytes32"
        },
        {
          "internalType": "address",
          "name": "account",
          "type": "address"
        }
      ],
      "name": "revokeRole",
      "outputs": [],
      "stateMutability": "nonpayable",
      "type": "function"
    },
    {
      "inputs": [
        {
          "internalType": "uint256[]",
          "name": "speciesIds",
          "type": "uint256[]"
        },
        {
          "internalType": "uint256[][]",
          "name": "_baseAttributes",
          "type": "uint256[][]"
        }
      ],
      "name": "setBaseAttributes",
      "outputs": [],
      "stateMutability": "nonpayable",
      "type": "function"
    },
    {
      "inputs": [
        {
          "internalType": "address",
          "name": "_address",
          "type": "address"
        }
      ],
      "name": "simulateHatch",
      "outputs": [
        {
          "components": [
            {
              "internalType": "uint256",
              "name": "tokenId",
              "type": "uint256"
            },
            {
              "internalType": "uint256",
              "name": "species",
              "type": "uint256"
            },
            {
              "internalType": "uint256",
              "name": "generation",
              "type": "uint256"
            },
            {
              "internalType": "uint256",
              "name": "experience",
              "type": "uint256"
            },
            {
              "components": [
                {
                  "internalType": "uint256",
                  "name": "gender",
                  "type": "uint256"
                },
                {
                  "internalType": "uint256",
                  "name": "rarity",
                  "type": "uint256"
                },
                {
                  "internalType": "uint256",
                  "name": "primaryType",
                  "type": "uint256"
                },
                {
                  "internalType": "uint256",
                  "name": "secondaryType",
                  "type": "uint256"
                },
                {
                  "internalType": "uint256",
                  "name": "nature",
                  "type": "uint256"
                }
              ],
              "internalType": "struct IEvoStructsUpgradeable.Stats",
              "name": "stats",
              "type": "tuple"
            },
            {
              "components": [
                {
                  "internalType": "uint256",
                  "name": "health",
                  "type": "uint256"
                },
                {
                  "internalType": "uint256",
                  "name": "attack",
                  "type": "uint256"
                },
                {
                  "internalType": "uint256",
                  "name": "defense",
                  "type": "uint256"
                },
                {
                  "internalType": "uint256",
                  "name": "special",
                  "type": "uint256"
                },
                {
                  "internalType": "uint256",
                  "name": "resistance",
                  "type": "uint256"
                },
                {
                  "internalType": "uint256",
                  "name": "speed",
                  "type": "uint256"
                }
              ],
              "internalType": "struct IEvoStructsUpgradeable.BattleStats",
              "name": "battle",
              "type": "tuple"
            },
            {
              "components": [
                {
                  "internalType": "uint256",
                  "name": "total",
                  "type": "uint256"
                },
                {
                  "internalType": "uint256",
                  "name": "remaining",
                  "type": "uint256"
                }
              ],
              "internalType": "struct IEvoStructsUpgradeable.Summons",
              "name": "summons",
              "type": "tuple"
            }
          ],
          "internalType": "struct IEvoStructsUpgradeable.Evo[]",
          "name": "",
          "type": "tuple[]"
        }
      ],
      "stateMutability": "view",
      "type": "function"
    },
    {
      "inputs": [
        {
          "internalType": "bytes4",
          "name": "interfaceId",
          "type": "bytes4"
        }
      ],
      "name": "supportsInterface",
      "outputs": [
        {
          "internalType": "bool",
          "name": "",
          "type": "bool"
        }
      ],
      "stateMutability": "view",
      "type": "function"
    },
    {
      "inputs": [],
      "name": "unpause",
      "outputs": [],
      "stateMutability": "nonpayable",
      "type": "function"
    }
  ],
  "bytecode": "0x60806040523480156200001157600080fd5b506200001c62000022565b620000e4565b600054610100900460ff16156200008f5760405162461bcd60e51b815260206004820152602760248201527f496e697469616c697a61626c653a20636f6e747261637420697320696e697469604482015266616c697a696e6760c81b606482015260840160405180910390fd5b60005460ff9081161015620000e2576000805460ff191660ff9081179091556040519081527f7f26b83ff96e1f2b6a682f133852f6798a09c465da95921460cefb38474024989060200160405180910390a15b565b612c6c80620000f46000396000f3fe608060405234801561001057600080fd5b506004361061014d5760003560e01c806375b238fc116100c357806391d148541161007c57806391d14854146102f2578063a217fddf14610305578063a40e1a661461030d578063ca15c87314610320578063d0db508314610333578063d547741f1461033b57600080fd5b806375b238fc1461026f57806379c77449146102845780638129fc1c146102a45780638456cb59146102ac5780638936480c146102b45780639010d07c146102c757600080fd5b806336568abe1161011557806336568abe146101fa5780633f4ba83a1461020d57806345835719146102155780635ba7aa071461022c5780635c975abb1461024d5780635e29cedb1461025857600080fd5b806301ffc9a71461015257806303fe46ab1461017a5780631fe543e3146101af578063248a9ca3146101c45780632f2ff15d146101e7575b600080fd5b61016561016036600461229e565b61034e565b60405190151581526020015b60405180910390f35b6101a17f364d3d7565c7a8300c96fd53e065d19b65848d7b23b3191adcd55621c744223c81565b604051908152602001610171565b6101c26101bd36600461239c565b610379565b005b6101a16101d23660046123e2565b60009081526097602052604090206001015490565b6101c26101f5366004612417565b6103cc565b6101c2610208366004612417565b6103f6565b6101c2610470565b61021d610493565b6040516101719392919061247e565b61023f61023a3660046124aa565b610620565b6040516101719291906124c5565b60335460ff16610165565b6102606107bb565b6040516101719392919061251b565b6101a1600080516020612c1783398151915281565b6102976102923660046124aa565b6108d2565b6040516101719190612648565b6101c261092d565b6101c2610b26565b6101c26102c236600461265b565b610b46565b6102da6102d536600461268f565b610cd1565b6040516001600160a01b039091168152602001610171565b610165610300366004612417565b610cf0565b6101a1600081565b6101c261031b3660046126b1565b610d1b565b6101a161032e3660046123e2565b610e2c565b6101c2610e43565b6101c2610349366004612417565b611068565b60006001600160e01b03198216635a05180f60e01b148061037357506103738261108d565b92915050565b60fb546001600160a01b031633146103be5760fb5460405163073e64fd60e21b81523360048201526001600160a01b0390911660248201526044015b60405180910390fd5b6103c882826110c2565b5050565b6000828152609760205260409020600101546103e7816110fc565b6103f18383611106565b505050565b6001600160a01b03811633146104665760405162461bcd60e51b815260206004820152602f60248201527f416363657373436f6e74726f6c3a2063616e206f6e6c792072656e6f756e636560448201526e103937b632b9903337b91039b2b63360891b60648201526084016103b5565b6103c88282611128565b600080516020612c17833981519152610488816110fc565b61049061114a565b50565b3360009081526101c2602090815260408083208151815460809481028201850190935260608082018481528695919486949284929184918401828280156104f957602002820191906000526020600020905b8154815260200190600101908083116104e5575b50505050508152602001600182015481526020016002820180548060200260200160405190810160405280929190818152602001828054801561055b57602002820191906000526020600020905b815481526020019060010190808311610547575b5050505050815250509050806020015160001415610604576101c1546001600160a01b031663a5435ec1336040516001600160e01b031960e084901b1681526001600160a01b03909116600482015260240160006040518083038186803b1580156105c557600080fd5b505afa1580156105d9573d6000803e3d6000fd5b505050506040513d6000823e601f3d908101601f1916820160405261060191908101906127e0565b90505b6020810151604082015151915190151595911515945092509050565b61064460405180606001604052806060815260200160008152602001606081525090565b6001600160a01b03821660009081526101c26020908152604080832081518154608094810282018501909352606081018381529093919284928491908401828280156106af57602002820191906000526020600020905b81548152602001906001019080831161069b575b50505050508152602001600182015481526020016002820180548060200260200160405190810160405280929190818152602001828054801561071157602002820191906000526020600020905b8154815260200190600101908083116106fd575b5050505050815250509150600090508160200151600014156107b6576101c15460405163a5435ec160e01b81526001600160a01b0385811660048301529091169063a5435ec19060240160006040518083038186803b15801561077357600080fd5b505afa158015610787573d6000803e3d6000fd5b505050506040513d6000823e601f3d908101601f191682016040526107af91908101906127e0565b9150600190505b915091565b6060806000806107cc6101c761119c565b9050600081516001600160401b038111156107e9576107e96122c8565b604051908082528060200260200182016040528015610812578160200160208202803683370190505b5090506000805b83518110156108c55761086260006101c6600087858151811061083e5761083e612890565b602002602001015181526020019081526020016000206111a990919063ffffffff16565b61086b576108b3565b8183828151811061087e5761087e612890565b6020026020010181815250506108a660016101c6600087858151811061083e5761083e612890565b6108b090836128bc565b91505b806108bd816128d4565b915050610819565b5091959094509092509050565b6060600080516020612c178339815191526108ec816110fc565b61091060405180606001604052806060815260200160008152602001606081525090565b61091984610620565b509050610925816111b5565b949350505050565b600054610100900460ff161580801561094d5750600054600160ff909116105b806109675750303b158015610967575060005460ff166001145b6109ca5760405162461bcd60e51b815260206004820152602e60248201527f496e697469616c697a61626c653a20636f6e747261637420697320616c72656160448201526d191e481a5b9a5d1a585b1a5e995960921b60648201526084016103b5565b6000805460ff1916600117905580156109ed576000805461ff0019166101001790555b6109f5611397565b6109fd6113c8565b73d5d517abe5cf79b7e95ec98db0f0277788aff6347f83250c5584ffa93feb6ee082981c5ebe484c865196750b39835ad4f13780435d601d6003610a43848484846113ef565b610a4e600033611106565b610a66600080516020612c1783398151915233611106565b610a907f364d3d7565c7a8300c96fd53e065d19b65848d7b23b3191adcd55621c744223c33611106565b50506101c080546001600160a01b03199081167375ddd2b19e6f7bed3bfe9d2d21dd226c38c0cbc4179091556101c1805490911673454a0e479ac78e508a95880216c06f50bf3c321c17905550508015610490576000805461ff0019169055604051600181527f7f26b83ff96e1f2b6a682f133852f6798a09c465da95921460cefb38474024989060200160405180910390a150565b600080516020612c17833981519152610b3e816110fc565b61049061142b565b600581511115610b8e5760405162461bcd60e51b815260206004820152601360248201527209ac2f0d2daeada406a40e0cae440d0c2e8c6d606b1b60448201526064016103b5565b610bb260405180606001604052806060815260200160008152602001606081525090565b610bbb33610620565b50602081015190915015610c115760405162461bcd60e51b815260206004820152601a60248201527f4578697374696e6720686174636820696e2070726f677265737300000000000060448201526064016103b5565b3360008181526101c26020526040908190206101c0549151630b6539e760e01b815290926001600160a01b0390921691630b6539e791610c56919087906004016128ef565b600060405180830381600087803b158015610c7057600080fd5b505af1158015610c84573d6000803e3d6000fd5b50505050610c928351611468565b602083810182905284845260009182526101c590526040902080546001600160a01b03191633908117909155610ccb906101c390611540565b50505050565b600082815260c960205260408120610ce99083611555565b9392505050565b60009182526097602090815260408084206001600160a01b0393909316845291905290205460ff1690565b600080516020612c17833981519152610d33816110fc565b60005b8351811015610ccb57610d6d848281518110610d5457610d54612890565b60200260200101516101c761156190919063ffffffff16565b5060005b838281518110610d8357610d83612890565b602002602001015151811015610e1957610e0681858481518110610da957610da9612890565b60200260200101518381518110610dc257610dc2612890565b60200260200101516101c66000898781518110610de157610de1612890565b6020026020010151815260200190815260200160002061156d9092919063ffffffff16565b5080610e11816128d4565b915050610d71565b5080610e24816128d4565b915050610d36565b600081815260c9602052604081206103739061157a565b610e6760405180606001604052806060815260200160008152602001606081525090565b6000610e7233610620565b60208201519193509150610ec85760405162461bcd60e51b815260206004820152601c60248201527f4e6f2070656e64696e6720686174636820696e2070726f67726573730000000060448201526064016103b5565b600082604001515111610f155760405162461bcd60e51b8152602060048201526015602482015274526573756c7473207374696c6c2070656e64696e6760581b60448201526064016103b5565b6000610f20836111b5565b6101c154604051630340a49360e11b81529192506001600160a01b031690630681492690610f549033908590600401612913565b600060405180830381600087803b158015610f6e57600080fd5b505af1158015610f82573d6000803e3d6000fd5b505050508115610ffd576101c1546001600160a01b0316630c9ac092336040516001600160e01b031960e084901b1681526001600160a01b039091166004820152602401600060405180830381600087803b158015610fe057600080fd5b505af1158015610ff4573d6000803e3d6000fd5b50505050505050565b3360008181526101c260208181526040808420600181015485526101c5835290842080546001600160a01b03191690559383525261103b8282612162565b60018201600090556002820160006110539190612162565b5050610ccb61105f3390565b6101c390611584565b600082815260976020526040902060010154611083816110fc565b6103f18383611128565b60006001600160e01b03198216637965db0b60e01b148061037357506301ffc9a760e01b6001600160e01b0319831614610373565b60008281526101c560209081526040808320546001600160a01b031683526101c2825290912082516103f192600290920191840190612180565b6104908133611599565b61111082826115fd565b600082815260c9602052604090206103f19082611540565b6111328282611683565b600082815260c9602052604090206103f19082611584565b6111526116ea565b6033805460ff191690557f5db9ee0a495bf2e6ff9c91a7834c1ba4fdd244a5e8aa4e537bd38aeae4b073aa335b6040516001600160a01b03909116815260200160405180910390a1565b60606000610ce983611733565b6000610ce9838361178f565b6101c05481516040516396908f5160e01b81526060926000926001600160a01b03909116916396908f51916111ec91600401612937565b60006040518083038186803b15801561120457600080fd5b505afa158015611218573d6000803e3d6000fd5b505050506040513d6000823e601f3d908101601f19168201604052611240919081019061294a565b9050606080600061124f6107bb565b88515192955090935091506001600160401b03811115611271576112716122c8565b6040519080825280602002602001820160405280156112aa57816020015b6112976121cb565b81526020019060019003908161128f5790505b50945060005b86515181101561138d576000876000015182815181106112d2576112d2612890565b602002602001015190506000611309896040015184815181106112f7576112f7612890565b6020026020010151612710600e6117ff565b905060006113338260008151811061132357611323612890565b60200260200101518789886118a9565b905061135a8389868151811061134b5761134b612890565b60200260200101518385611953565b89858151811061136c5761136c612890565b60200260200101819052505050508080611385906128d4565b9150506112b0565b5050505050919050565b600054610100900460ff166113be5760405162461bcd60e51b81526004016103b5906129e9565b6113c6611ca6565b565b600054610100900460ff166113c65760405162461bcd60e51b81526004016103b5906129e9565b600054610100900460ff166114165760405162461bcd60e51b81526004016103b5906129e9565b61141f84611cd9565b610ccb84848484611d09565b611433611d8b565b6033805460ff191660011790557f62e78cea01bee320cd4e420270b5ea74000d11b0c9f74754ebdbfc544b05a25861117f3390565b60008061147783614e20612a34565b61148490620186a0612a60565b61012d5461012e5461012f546040516305d3b1d360e41b815260048101929092526001600160401b0381166024830152600160401b900461ffff16604482015263ffffffff8084166064830152861660848201529192506001600160a01b031690635d3b1d309060a401602060405180830381600087803b15801561150857600080fd5b505af115801561151c573d6000803e3d6000fd5b505050506040513d601f19601f82011682018060405250810190610ce99190612a88565b6000610ce9836001600160a01b038416611dd1565b6000610ce98383611e20565b6000610ce98383611dd1565b6000610925848484611e4a565b6000610373825490565b6000610ce9836001600160a01b038416611e67565b6115a38282610cf0565b6103c8576115bb816001600160a01b03166014611f5a565b6115c6836020611f5a565b6040516020016115d7929190612acd565b60408051601f198184030181529082905262461bcd60e51b82526103b591600401612b42565b6116078282610cf0565b6103c85760008281526097602090815260408083206001600160a01b03851684529091529020805460ff1916600117905561163f3390565b6001600160a01b0316816001600160a01b0316837f2f8788117e7eff1d82e926ec794901d17c78024a50270940304540a733656f0d60405160405180910390a45050565b61168d8282610cf0565b156103c85760008281526097602090815260408083206001600160a01b0385168085529252808320805460ff1916905551339285917ff6391f5c32d9c69d2a47ea670b442974b53935d1edc7fd64eb21e047a839171b9190a45050565b60335460ff166113c65760405162461bcd60e51b815260206004820152601460248201527314185d5cd8589b194e881b9bdd081c185d5cd95960621b60448201526064016103b5565b60608160000180548060200260200160405190810160405280929190818152602001828054801561178357602002820191906000526020600020905b81548152602001906001019080831161176f575b50505050509050919050565b6000818152600283016020526040812054801515806117b357506117b384846120f5565b610ce95760405162461bcd60e51b815260206004820152601e60248201527f456e756d657261626c654d61703a206e6f6e6578697374656e74206b6579000060448201526064016103b5565b60606000826001600160401b0381111561181b5761181b6122c8565b604051908082528060200260200182016040528015611844578160200160208202803683370190505b5090508460005b8481101561189e57600061185f8784612b8b565b905061186b8784612b9f565b92508084838151811061188057611880612890565b60209081029190910101525080611896816128d4565b91505061184b565b509095945050505050565b600082600184516118ba9190612bb3565b815181106118ca576118ca612890565b60200260200101519050600082866118e29190612b8b565b905060005b85518110156119495785818151811061190257611902612890565b602002602001015182111561191657611937565b84818151811061192857611928612890565b60200260200101519250611949565b80611941816128d4565b9150506118e7565b5050949350505050565b61195b6121cb565b60008461196957600161196c565b60095b60ff168561197c57611388611980565b610bb85b61ffff168460018151811061199757611997612890565b60200260200101516119a99190612b8b565b1090506000856119ba5760016119bd565b602d5b60ff16866119cd576103e86119d1565b610bb85b61ffff16856001815181106119e8576119e8612890565b60200260200101516119fa9190612b8b565b109050600082611a175781611a10576000611a1a565b6001611a1a565b60025b60008781526101c66020526040812060ff92909216925090611a3d9060026111a9565b606487600281518110611a5257611a52612890565b6020026020010151611a649190612b8b565b10611a70576000611a73565b60015b60008881526101c66020526040812060ff92909216925090611a969060036111a9565b60008981526101c66020526040812091925090611ab49060046111a9565b90506000601589600381518110611acd57611acd612890565b6020026020010151611adf9190612b8b565b60408051600580825260c08201909252919250600091906020820160a08036833701905050905060005b8151811015611b715760338b611b208360046128bc565b81518110611b3057611b30612890565b6020026020010151611b429190612b8b565b828281518110611b5457611b54612890565b602090810291909101015280611b69816128d4565b915050611b09565b506040518060e001604052808e81526020018c815260200160008152602001600081526020016040518060a001604052808881526020018981526020018781526020018681526020018581525081526020016040518060c001604052806032815260200184600081518110611be857611be8612890565b6020026020010151815260200184600181518110611c0857611c08612890565b6020026020010151815260200184600281518110611c2857611c28612890565b6020026020010151815260200184600381518110611c4857611c48612890565b6020026020010151815260200184600481518110611c6857611c68612890565b6020026020010151815250815260200160405180604001604052806103e781526020016103e781525081525098505050505050505050949350505050565b600054610100900460ff16611ccd5760405162461bcd60e51b81526004016103b5906129e9565b6033805460ff19169055565b600054610100900460ff16611d005760405162461bcd60e51b81526004016103b5906129e9565b61049081612101565b600054610100900460ff16611d305760405162461bcd60e51b81526004016103b5906129e9565b61012d80546001600160a01b039095166001600160a01b03199095169490941790935561012f805461012e9390935561ffff909316600160401b0269ffffffffffffffffffff199092166001600160401b0390911617179055565b60335460ff16156113c65760405162461bcd60e51b815260206004820152601060248201526f14185d5cd8589b194e881c185d5cd95960821b60448201526064016103b5565b6000818152600183016020526040812054611e1857508154600181810184556000848152602080822090930184905584548482528286019093526040902091909155610373565b506000610373565b6000826000018281548110611e3757611e37612890565b9060005260206000200154905092915050565b600082815260028401602052604081208290556109258484611561565b60008181526001830160205260408120548015611f50576000611e8b600183612bb3565b8554909150600090611e9f90600190612bb3565b9050818114611f04576000866000018281548110611ebf57611ebf612890565b9060005260206000200154905080876000018481548110611ee257611ee2612890565b6000918252602080832090910192909255918252600188019052604090208390555b8554869080611f1557611f15612bca565b600190038181906000526020600020016000905590558560010160008681526020019081526020016000206000905560019350505050610373565b6000915050610373565b60606000611f69836002612be0565b611f749060026128bc565b6001600160401b03811115611f8b57611f8b6122c8565b6040519080825280601f01601f191660200182016040528015611fb5576020820181803683370190505b509050600360fc1b81600081518110611fd057611fd0612890565b60200101906001600160f81b031916908160001a905350600f60fb1b81600181518110611fff57611fff612890565b60200101906001600160f81b031916908160001a9053506000612023846002612be0565b61202e9060016128bc565b90505b60018111156120a6576f181899199a1a9b1b9c1cb0b131b232b360811b85600f166010811061206257612062612890565b1a60f81b82828151811061207857612078612890565b60200101906001600160f81b031916908160001a90535060049490941c9361209f81612bff565b9050612031565b508315610ce95760405162461bcd60e51b815260206004820181905260248201527f537472696e67733a20686578206c656e67746820696e73756666696369656e7460448201526064016103b5565b6000610ce9838361214a565b600054610100900460ff166121285760405162461bcd60e51b81526004016103b5906129e9565b60fb80546001600160a01b0319166001600160a01b0392909216919091179055565b60008181526001830160205260408120541515610ce9565b50805460008255906000526020600020908101906104909190612289565b8280548282559060005260206000209081019282156121bb579160200282015b828111156121bb5782518255916020019190600101906121a0565b506121c7929150612289565b5090565b6040518060e00160405280600081526020016000815260200160008152602001600081526020016122246040518060a0016040528060008152602001600081526020016000815260200160008152602001600081525090565b81526020016122626040518060c001604052806000815260200160008152602001600081526020016000815260200160008152602001600081525090565b8152602001612284604051806040016040528060008152602001600081525090565b905290565b5b808211156121c7576000815560010161228a565b6000602082840312156122b057600080fd5b81356001600160e01b031981168114610ce957600080fd5b634e487b7160e01b600052604160045260246000fd5b604051601f8201601f191681016001600160401b0381118282101715612306576123066122c8565b604052919050565b60006001600160401b03821115612327576123276122c8565b5060051b60200190565b600082601f83011261234257600080fd5b813560206123576123528361230e565b6122de565b82815260059290921b8401810191818101908684111561237657600080fd5b8286015b84811015612391578035835291830191830161237a565b509695505050505050565b600080604083850312156123af57600080fd5b8235915060208301356001600160401b038111156123cc57600080fd5b6123d885828601612331565b9150509250929050565b6000602082840312156123f457600080fd5b5035919050565b80356001600160a01b038116811461241257600080fd5b919050565b6000806040838503121561242a57600080fd5b8235915061243a602084016123fb565b90509250929050565b600081518084526020808501945080840160005b8381101561247357815187529582019590820190600101612457565b509495945050505050565b831515815282151560208201526060604082015260006124a16060830184612443565b95945050505050565b6000602082840312156124bc57600080fd5b610ce9826123fb565b6040815260008351606060408401526124e160a0840182612443565b9050602085015160608401526040850151603f198483030160808501526125088282612443565b9250505082151560208301529392505050565b60608152600061252e6060830186612443565b82810360208401526125408186612443565b915050826040830152949350505050565b600081518084526020808501945080840160005b83811015612473578151805188528381015184890152604080820151818a0152606080830151818b01526080808401518051828d01528088015160a0808e01919091529381015160c0808e01919091528184015160e08e0152818301516101008e015293850151936126106101208e0186805182526020810151602083015260408101516040830152606081015160608301526080810151608083015260a081015160a08301525050565b949094015180516101e08d015260208101516102008d0152935061263392505050565b50610220969096019590820190600101612565565b602081526000610ce96020830184612551565b60006020828403121561266d57600080fd5b81356001600160401b0381111561268357600080fd5b61092584828501612331565b600080604083850312156126a257600080fd5b50508035926020909101359150565b600080604083850312156126c457600080fd5b82356001600160401b03808211156126db57600080fd5b6126e786838701612331565b93506020915081850135818111156126fe57600080fd5b8501601f8101871361270f57600080fd5b803561271d6123528261230e565b81815260059190911b8201840190848101908983111561273c57600080fd5b8584015b83811015612774578035868111156127585760008081fd5b6127668c8983890101612331565b845250918601918601612740565b508096505050505050509250929050565b600082601f83011261279657600080fd5b815160206127a66123528361230e565b82815260059290921b840181019181810190868411156127c557600080fd5b8286015b8481101561239157805183529183019183016127c9565b6000602082840312156127f257600080fd5b81516001600160401b038082111561280957600080fd5b908301906060828603121561281d57600080fd5b604051606081018181108382111715612838576128386122c8565b60405282518281111561284a57600080fd5b61285687828601612785565b8252506020830151602082015260408301518281111561287557600080fd5b61288187828601612785565b60408301525095945050505050565b634e487b7160e01b600052603260045260246000fd5b634e487b7160e01b600052601160045260246000fd5b600082198211156128cf576128cf6128a6565b500190565b60006000198214156128e8576128e86128a6565b5060010190565b6001600160a01b038316815260406020820181905260009061092590830184612443565b6001600160a01b038316815260406020820181905260009061092590830184612551565b602081526000610ce96020830184612443565b6000602080838503121561295d57600080fd5b82516001600160401b0381111561297357600080fd5b8301601f8101851361298457600080fd5b80516129926123528261230e565b81815260059190911b820183019083810190878311156129b157600080fd5b928401925b828410156129de57835180151581146129cf5760008081fd5b825292840192908401906129b6565b979650505050505050565b6020808252602b908201527f496e697469616c697a61626c653a20636f6e7472616374206973206e6f74206960408201526a6e697469616c697a696e6760a81b606082015260800190565b600063ffffffff80831681851681830481118215151615612a5757612a576128a6565b02949350505050565b600063ffffffff808316818516808303821115612a7f57612a7f6128a6565b01949350505050565b600060208284031215612a9a57600080fd5b5051919050565b60005b83811015612abc578181015183820152602001612aa4565b83811115610ccb5750506000910152565b7f416363657373436f6e74726f6c3a206163636f756e7420000000000000000000815260008351612b05816017850160208801612aa1565b7001034b99036b4b9b9b4b733903937b6329607d1b6017918401918201528351612b36816028840160208801612aa1565b01602801949350505050565b6020815260008251806020840152612b61816040850160208701612aa1565b601f01601f19169190910160400192915050565b634e487b7160e01b600052601260045260246000fd5b600082612b9a57612b9a612b75565b500690565b600082612bae57612bae612b75565b500490565b600082821015612bc557612bc56128a6565b500390565b634e487b7160e01b600052603160045260246000fd5b6000816000190483118215151615612bfa57612bfa6128a6565b500290565b600081612c0e57612c0e6128a6565b50600019019056fea49807205ce4d355092ef5a8a18f56e8913cf4a201fbe287825b095693c21775a2646970667358221220726ef5191d7a7d16122d1597ce463e32792a333d447f620de7ed017ac05ac67564736f6c63430008090033",
  "linkReferences": {},
  "deployedLinkReferences": {}
}