{
  "_format": "hh-sol-artifact-1",
  "contractName": "EVOL2",
  "sourceName": "contracts/ERC20/EVOL2.sol",
  "abi": [
    {
      "inputs": [],
      "stateMutability": "nonpayable",
      "type": "constructor"
    },
    {
      "anonymous": false,
      "inputs": [
        {
          "indexed": true,
          "internalType": "address",
          "name": "owner",
          "type": "address"
        },
        {
          "indexed": true,
          "internalType": "address",
          "name": "spender",
          "type": "address"
        },
        {
          "indexed": false,
          "internalType": "uint256",
          "name": "value",
          "type": "uint256"
        }
      ],
      "name": "Approval",
      "type": "event"
    },
    {
      "anonymous": false,
      "inputs": [
        {
          "indexed": false,
          "internalType": "uint8",
          "name": "version",
          "type": "uint8"
        }
      ],
      "name": "Initialized",
      "type": "event"
    },
    {
      "anonymous": false,
      "inputs": [
        {
          "indexed": false,
          "internalType": "address",
          "name": "account",
          "type": "address"
        }
      ],
      "name": "Paused",
      "type": "event"
    },
    {
      "anonymous": false,
      "inputs": [
        {
          "indexed": true,
          "internalType": "bytes32",
          "name": "role",
          "type": "bytes32"
        },
        {
          "indexed": true,
          "internalType": "bytes32",
          "name": "previousAdminRole",
          "type": "bytes32"
        },
        {
          "indexed": true,
          "internalType": "bytes32",
          "name": "newAdminRole",
          "type": "bytes32"
        }
      ],
      "name": "RoleAdminChanged",
      "type": "event"
    },
    {
      "anonymous": false,
      "inputs": [
        {
          "indexed": true,
          "internalType": "bytes32",
          "name": "role",
          "type": "bytes32"
        },
        {
          "indexed": true,
          "internalType": "address",
          "name": "account",
          "type": "address"
        },
        {
          "indexed": true,
          "internalType": "address",
          "name": "sender",
          "type": "address"
        }
      ],
      "name": "RoleGranted",
      "type": "event"
    },
    {
      "anonymous": false,
      "inputs": [
        {
          "indexed": true,
          "internalType": "bytes32",
          "name": "role",
          "type": "bytes32"
        },
        {
          "indexed": true,
          "internalType": "address",
          "name": "account",
          "type": "address"
        },
        {
          "indexed": true,
          "internalType": "address",
          "name": "sender",
          "type": "address"
        }
      ],
      "name": "RoleRevoked",
      "type": "event"
    },
    {
      "anonymous": false,
      "inputs": [
        {
          "indexed": true,
          "internalType": "address",
          "name": "from",
          "type": "address"
        },
        {
          "indexed": true,
          "internalType": "address",
          "name": "to",
          "type": "address"
        },
        {
          "indexed": false,
          "internalType": "uint256",
          "name": "value",
          "type": "uint256"
        }
      ],
      "name": "Transfer",
      "type": "event"
    },
    {
      "anonymous": false,
      "inputs": [
        {
          "indexed": false,
          "internalType": "address",
          "name": "account",
          "type": "address"
        }
      ],
      "name": "Unpaused",
      "type": "event"
    },
    {
      "inputs": [],
      "name": "ADMIN_ROLE",
      "outputs": [
        {
          "internalType": "bytes32",
          "name": "",
          "type": "bytes32"
        }
      ],
      "stateMutability": "view",
      "type": "function"
    },
    {
      "inputs": [],
      "name": "BRIDGE_ROLE",
      "outputs": [
        {
          "internalType": "bytes32",
          "name": "",
          "type": "bytes32"
        }
      ],
      "stateMutability": "view",
      "type": "function"
    },
    {
      "inputs": [],
      "name": "DEFAULT_ADMIN_ROLE",
      "outputs": [
        {
          "internalType": "bytes32",
          "name": "",
          "type": "bytes32"
        }
      ],
      "stateMutability": "view",
      "type": "function"
    },
    {
      "inputs": [],
      "name": "DOMAIN_SEPARATOR",
      "outputs": [
        {
          "internalType": "bytes32",
          "name": "",
          "type": "bytes32"
        }
      ],
      "stateMutability": "view",
      "type": "function"
    },
    {
      "inputs": [],
      "name": "MINTER_ROLE",
      "outputs": [
        {
          "internalType": "bytes32",
          "name": "",
          "type": "bytes32"
        }
      ],
      "stateMutability": "view",
      "type": "function"
    },
    {
      "inputs": [
        {
          "internalType": "address",
          "name": "owner",
          "type": "address"
        },
        {
          "internalType": "address",
          "name": "spender",
          "type": "address"
        }
      ],
      "name": "allowance",
      "outputs": [
        {
          "internalType": "uint256",
          "name": "",
          "type": "uint256"
        }
      ],
      "stateMutability": "view",
      "type": "function"
    },
    {
      "inputs": [
        {
          "internalType": "address",
          "name": "spender",
          "type": "address"
        },
        {
          "internalType": "uint256",
          "name": "amount",
          "type": "uint256"
        }
      ],
      "name": "approve",
      "outputs": [
        {
          "internalType": "bool",
          "name": "",
          "type": "bool"
        }
      ],
      "stateMutability": "nonpayable",
      "type": "function"
    },
    {
      "inputs": [
        {
          "internalType": "address",
          "name": "account",
          "type": "address"
        }
      ],
      "name": "balanceOf",
      "outputs": [
        {
          "internalType": "uint256",
          "name": "",
          "type": "uint256"
        }
      ],
      "stateMutability": "view",
      "type": "function"
    },
    {
      "inputs": [
        {
          "internalType": "uint256",
          "name": "amount",
          "type": "uint256"
        }
      ],
      "name": "burn",
      "outputs": [],
      "stateMutability": "nonpayable",
      "type": "function"
    },
    {
      "inputs": [
        {
          "internalType": "address",
          "name": "_from",
          "type": "address"
        },
        {
          "internalType": "uint256",
          "name": "_amount",
          "type": "uint256"
        }
      ],
      "name": "burn",
      "outputs": [],
      "stateMutability": "nonpayable",
      "type": "function"
    },
    {
      "inputs": [
        {
          "internalType": "address",
          "name": "account",
          "type": "address"
        },
        {
          "internalType": "uint256",
          "name": "amount",
          "type": "uint256"
        }
      ],
      "name": "burnFrom",
      "outputs": [],
      "stateMutability": "nonpayable",
      "type": "function"
    },
    {
      "inputs": [],
      "name": "cap",
      "outputs": [
        {
          "internalType": "uint256",
          "name": "",
          "type": "uint256"
        }
      ],
      "stateMutability": "view",
      "type": "function"
    },
    {
      "inputs": [],
      "name": "decimals",
      "outputs": [
        {
          "internalType": "uint8",
          "name": "",
          "type": "uint8"
        }
      ],
      "stateMutability": "view",
      "type": "function"
    },
    {
      "inputs": [
        {
          "internalType": "address",
          "name": "spender",
          "type": "address"
        },
        {
          "internalType": "uint256",
          "name": "subtractedValue",
          "type": "uint256"
        }
      ],
      "name": "decreaseAllowance",
      "outputs": [
        {
          "internalType": "bool",
          "name": "",
          "type": "bool"
        }
      ],
      "stateMutability": "nonpayable",
      "type": "function"
    },
    {
      "inputs": [
        {
          "internalType": "bytes32",
          "name": "role",
          "type": "bytes32"
        }
      ],
      "name": "getRoleAdmin",
      "outputs": [
        {
          "internalType": "bytes32",
          "name": "",
          "type": "bytes32"
        }
      ],
      "stateMutability": "view",
      "type": "function"
    },
    {
      "inputs": [
        {
          "internalType": "bytes32",
          "name": "role",
          "type": "bytes32"
        },
        {
          "internalType": "address",
          "name": "account",
          "type": "address"
        }
      ],
      "name": "grantRole",
      "outputs": [],
      "stateMutability": "nonpayable",
      "type": "function"
    },
    {
      "inputs": [
        {
          "internalType": "bytes32",
          "name": "role",
          "type": "bytes32"
        },
        {
          "internalType": "address",
          "name": "account",
          "type": "address"
        }
      ],
      "name": "hasRole",
      "outputs": [
        {
          "internalType": "bool",
          "name": "",
          "type": "bool"
        }
      ],
      "stateMutability": "view",
      "type": "function"
    },
    {
      "inputs": [
        {
          "internalType": "address",
          "name": "spender",
          "type": "address"
        },
        {
          "internalType": "uint256",
          "name": "addedValue",
          "type": "uint256"
        }
      ],
      "name": "increaseAllowance",
      "outputs": [
        {
          "internalType": "bool",
          "name": "",
          "type": "bool"
        }
      ],
      "stateMutability": "nonpayable",
      "type": "function"
    },
    {
      "inputs": [],
      "name": "initialize",
      "outputs": [],
      "stateMutability": "nonpayable",
      "type": "function"
    },
    {
      "inputs": [],
      "name": "l1Token",
      "outputs": [
        {
          "internalType": "address",
          "name": "",
          "type": "address"
        }
      ],
      "stateMutability": "view",
      "type": "function"
    },
    {
      "inputs": [
        {
          "internalType": "address",
          "name": "to",
          "type": "address"
        },
        {
          "internalType": "uint256",
          "name": "amount",
          "type": "uint256"
        }
      ],
      "name": "mint",
      "outputs": [],
      "stateMutability": "nonpayable",
      "type": "function"
    },
    {
      "inputs": [],
      "name": "name",
      "outputs": [
        {
          "internalType": "string",
          "name": "",
          "type": "string"
        }
      ],
      "stateMutability": "view",
      "type": "function"
    },
    {
      "inputs": [
        {
          "internalType": "address",
          "name": "owner",
          "type": "address"
        }
      ],
      "name": "nonces",
      "outputs": [
        {
          "internalType": "uint256",
          "name": "",
          "type": "uint256"
        }
      ],
      "stateMutability": "view",
      "type": "function"
    },
    {
      "inputs": [],
      "name": "pause",
      "outputs": [],
      "stateMutability": "nonpayable",
      "type": "function"
    },
    {
      "inputs": [],
      "name": "paused",
      "outputs": [
        {
          "internalType": "bool",
          "name": "",
          "type": "bool"
        }
      ],
      "stateMutability": "view",
      "type": "function"
    },
    {
      "inputs": [
        {
          "internalType": "address",
          "name": "owner",
          "type": "address"
        },
        {
          "internalType": "address",
          "name": "spender",
          "type": "address"
        },
        {
          "internalType": "uint256",
          "name": "value",
          "type": "uint256"
        },
        {
          "internalType": "uint256",
          "name": "deadline",
          "type": "uint256"
        },
        {
          "internalType": "uint8",
          "name": "v",
          "type": "uint8"
        },
        {
          "internalType": "bytes32",
          "name": "r",
          "type": "bytes32"
        },
        {
          "internalType": "bytes32",
          "name": "s",
          "type": "bytes32"
        }
      ],
      "name": "permit",
      "outputs": [],
      "stateMutability": "nonpayable",
      "type": "function"
    },
    {
      "inputs": [
        {
          "internalType": "bytes32",
          "name": "role",
          "type": "bytes32"
        },
        {
          "internalType": "address",
          "name": "account",
          "type": "address"
        }
      ],
      "name": "renounceRole",
      "outputs": [],
      "stateMutability": "nonpayable",
      "type": "function"
    },
    {
      "inputs": [
        {
          "internalType": "bytes32",
          "name": "role",
          "type": "bytes32"
        },
        {
          "internalType": "address",
          "name": "account",
          "type": "address"
        }
      ],
      "name": "revokeRole",
      "outputs": [],
      "stateMutability": "nonpayable",
      "type": "function"
    },
    {
      "inputs": [
        {
          "internalType": "address",
          "name": "_l1Token",
          "type": "address"
        }
      ],
      "name": "setL1Token",
      "outputs": [],
      "stateMutability": "nonpayable",
      "type": "function"
    },
    {
      "inputs": [
        {
          "internalType": "bytes4",
          "name": "interfaceId",
          "type": "bytes4"
        }
      ],
      "name": "supportsInterface",
      "outputs": [
        {
          "internalType": "bool",
          "name": "",
          "type": "bool"
        }
      ],
      "stateMutability": "view",
      "type": "function"
    },
    {
      "inputs": [],
      "name": "symbol",
      "outputs": [
        {
          "internalType": "string",
          "name": "",
          "type": "string"
        }
      ],
      "stateMutability": "view",
      "type": "function"
    },
    {
      "inputs": [],
      "name": "totalSupply",
      "outputs": [
        {
          "internalType": "uint256",
          "name": "",
          "type": "uint256"
        }
      ],
      "stateMutability": "view",
      "type": "function"
    },
    {
      "inputs": [
        {
          "internalType": "address",
          "name": "to",
          "type": "address"
        },
        {
          "internalType": "uint256",
          "name": "amount",
          "type": "uint256"
        }
      ],
      "name": "transfer",
      "outputs": [
        {
          "internalType": "bool",
          "name": "",
          "type": "bool"
        }
      ],
      "stateMutability": "nonpayable",
      "type": "function"
    },
    {
      "inputs": [
        {
          "internalType": "address",
          "name": "from",
          "type": "address"
        },
        {
          "internalType": "address",
          "name": "to",
          "type": "address"
        },
        {
          "internalType": "uint256",
          "name": "amount",
          "type": "uint256"
        }
      ],
      "name": "transferFrom",
      "outputs": [
        {
          "internalType": "bool",
          "name": "",
          "type": "bool"
        }
      ],
      "stateMutability": "nonpayable",
      "type": "function"
    },
    {
      "inputs": [],
      "name": "unpause",
      "outputs": [],
      "stateMutability": "nonpayable",
      "type": "function"
    }
  ],
  "bytecode": "0x608060405234801561001057600080fd5b5061001961001e565b6100de565b600054610100900460ff161561008a5760405162461bcd60e51b815260206004820152602760248201527f496e697469616c697a61626c653a20636f6e747261637420697320696e697469604482015266616c697a696e6760c81b606482015260840160405180910390fd5b60005460ff90811610156100dc576000805460ff191660ff9081179091556040519081527f7f26b83ff96e1f2b6a682f133852f6798a09c465da95921460cefb38474024989060200160405180910390a15b565b61216b80620000ee6000396000f3fe608060405234801561001057600080fd5b50600436106102115760003560e01c806375b238fc11610125578063a217fddf116100ad578063c01e1bd61161007c578063c01e1bd61461043a578063d505accf14610466578063d539139314610479578063d547741f146104a0578063dd62ed3e146104b357600080fd5b8063a217fddf146103f7578063a457c2d7146103ff578063a9059cbb14610412578063b5bfddea1461042557600080fd5b80638456cb59116100f45780638456cb59146103ae57806391d14854146103b657806394c36f99146103c957806395d89b41146103dc5780639dc29fac146103e457600080fd5b806375b238fc1461036b57806379cc6790146103805780637ecebe00146103935780638129fc1c146103a657600080fd5b8063355274ea116101a85780633f4ba83a116101775780633f4ba83a1461030957806340c10f191461031157806342966c68146103245780635c975abb1461033757806370a082311461034257600080fd5b8063355274ea146102d35780633644e515146102db57806336568abe146102e357806339509351146102f657600080fd5b806323b872dd116101e457806323b872dd14610278578063248a9ca31461028b5780632f2ff15d146102af578063313ce567146102c457600080fd5b806301ffc9a71461021657806306fdde031461023e578063095ea7b31461025357806318160ddd14610266575b600080fd5b610229610224366004611d3b565b6104c6565b60405190151581526020015b60405180910390f35b6102466104f3565b6040516102359190611d91565b610229610261366004611de0565b610585565b6035545b604051908152602001610235565b610229610286366004611e0a565b61059d565b61026a610299366004611e46565b600090815261012e602052604090206001015490565b6102c26102bd366004611e5f565b6105c1565b005b60405160128152602001610235565b60975461026a565b61026a6105ec565b6102c26102f1366004611e5f565b6105fb565b610229610304366004611de0565b61067e565b6102c26106a0565b6102c261031f366004611de0565b6106c3565b6102c2610332366004611e46565b6106e5565b60ca5460ff16610229565b61026a610350366004611e8b565b6001600160a01b031660009081526033602052604090205490565b61026a60008051602061211683398151915281565b6102c261038e366004611de0565b6106ef565b61026a6103a1366004611e8b565b610704565b6102c2610725565b6102c2610923565b6102296103c4366004611e5f565b610943565b6102c26103d7366004611e8b565b61096f565b6102466109ab565b6102c26103f2366004611de0565b6109ba565b61026a600081565b61022961040d366004611de0565b6109dc565b610229610420366004611de0565b610a57565b61026a6000805160206120f683398151915281565b6102295461044e906001600160a01b031681565b6040516001600160a01b039091168152602001610235565b6102c2610474366004611ea6565b610a65565b61026a7f9f2df0fed2c77648de5860a4cc508cd0818c85b8b8a1ab4ceeef8d981c8956a681565b6102c26104ae366004611e5f565b610bc9565b61026a6104c1366004611f19565b610bef565b6000631d1d8b6360e01b6001600160e01b031983168114806104ec57506104ec83610c1a565b9392505050565b60606036805461050290611f43565b80601f016020809104026020016040519081016040528092919081815260200182805461052e90611f43565b801561057b5780601f106105505761010080835404028352916020019161057b565b820191906000526020600020905b81548152906001019060200180831161055e57829003601f168201915b5050505050905090565b600033610593818585610c4f565b5060019392505050565b6000336105ab858285610d73565b6105b6858585610ded565b506001949350505050565b600082815261012e60205260409020600101546105dd81610fc6565b6105e78383610fd0565b505050565b60006105f6611057565b905090565b6001600160a01b03811633146106705760405162461bcd60e51b815260206004820152602f60248201527f416363657373436f6e74726f6c3a2063616e206f6e6c792072656e6f756e636560448201526e103937b632b9903337b91039b2b63360891b60648201526084015b60405180910390fd5b61067a82826110d4565b5050565b6000336105938185856106918383610bef565b61069b9190611f8e565b610c4f565b6000805160206121168339815191526106b881610fc6565b6106c061113c565b50565b6000805160206120f68339815191526106db81610fc6565b6105e7838361118e565b6106c03382611198565b6106fa823383610d73565b61067a8282611198565b6001600160a01b038116600090815261019460205260408120545b92915050565b600054610100900460ff16158080156107455750600054600160ff909116105b8061075f5750303b15801561075f575060005460ff166001145b6107c25760405162461bcd60e51b815260206004820152602e60248201527f496e697469616c697a61626c653a20636f6e747261637420697320616c72656160448201526d191e481a5b9a5d1a585b1a5e995960921b6064820152608401610667565b6000805460ff1916600117905580156107e5576000805461ff0019166101001790555b6108256040518060400160405280600381526020016245564f60e81b8152506040518060400160405280600381526020016245564f60e81b8152506112f2565b61082d611323565b6108426b01f04ef12cb04cf15800000061134c565b61084a61137c565b610852611323565b6108766040518060400160405280600381526020016245564f60e81b8152506113ab565b610881600033610fd0565b61089960008051602061211683398151915233610fd0565b6108c37f9f2df0fed2c77648de5860a4cc508cd0818c85b8b8a1ab4ceeef8d981c8956a633610fd0565b6108db6000805160206120f683398151915233610fd0565b80156106c0576000805461ff0019169055604051600181527f7f26b83ff96e1f2b6a682f133852f6798a09c465da95921460cefb38474024989060200160405180910390a150565b60008051602061211683398151915261093b81610fc6565b6106c06113f5565b600091825261012e602090815260408084206001600160a01b0393909316845291905290205460ff1690565b60008051602061211683398151915261098781610fc6565b5061022980546001600160a01b0319166001600160a01b0392909216919091179055565b60606037805461050290611f43565b6000805160206120f68339815191526109d281610fc6565b6105e78383611198565b600033816109ea8286610bef565b905083811015610a4a5760405162461bcd60e51b815260206004820152602560248201527f45524332303a2064656372656173656420616c6c6f77616e63652062656c6f77604482015264207a65726f60d81b6064820152608401610667565b6105b68286868403610c4f565b600033610593818585610ded565b83421115610ab55760405162461bcd60e51b815260206004820152601d60248201527f45524332305065726d69743a206578706972656420646561646c696e650000006044820152606401610667565b60007f6e71edae12b1b97f4d1f60370fef10105fa2faae0126114a169c64845d6126c9888888610ae48c611432565b6040805160208101969096526001600160a01b0394851690860152929091166060840152608083015260a082015260c0810186905260e0016040516020818303038152906040528051906020012090506000610b3f8261145b565b90506000610b4f828787876114a9565b9050896001600160a01b0316816001600160a01b031614610bb25760405162461bcd60e51b815260206004820152601e60248201527f45524332305065726d69743a20696e76616c6964207369676e617475726500006044820152606401610667565b610bbd8a8a8a610c4f565b50505050505050505050565b600082815261012e6020526040902060010154610be581610fc6565b6105e783836110d4565b6001600160a01b03918216600090815260346020908152604080832093909416825291909152205490565b60006001600160e01b03198216637965db0b60e01b148061071f57506301ffc9a760e01b6001600160e01b031983161461071f565b6001600160a01b038316610cb15760405162461bcd60e51b8152602060048201526024808201527f45524332303a20617070726f76652066726f6d20746865207a65726f206164646044820152637265737360e01b6064820152608401610667565b6001600160a01b038216610d125760405162461bcd60e51b815260206004820152602260248201527f45524332303a20617070726f766520746f20746865207a65726f206164647265604482015261737360f01b6064820152608401610667565b6001600160a01b0383811660008181526034602090815260408083209487168084529482529182902085905590518481527f8c5be1e5ebec7d5bd14f71427d1e84f3dd0314c0f7b2291e5b200ac8c7c3b925910160405180910390a3505050565b6000610d7f8484610bef565b90506000198114610de75781811015610dda5760405162461bcd60e51b815260206004820152601d60248201527f45524332303a20696e73756666696369656e7420616c6c6f77616e63650000006044820152606401610667565b610de78484848403610c4f565b50505050565b6001600160a01b038316610e515760405162461bcd60e51b815260206004820152602560248201527f45524332303a207472616e736665722066726f6d20746865207a65726f206164604482015264647265737360d81b6064820152608401610667565b6001600160a01b038216610eb35760405162461bcd60e51b815260206004820152602360248201527f45524332303a207472616e7366657220746f20746865207a65726f206164647260448201526265737360e81b6064820152608401610667565b610ebe8383836114d1565b6001600160a01b03831660009081526033602052604090205481811015610f365760405162461bcd60e51b815260206004820152602660248201527f45524332303a207472616e7366657220616d6f756e7420657863656564732062604482015265616c616e636560d01b6064820152608401610667565b6001600160a01b03808516600090815260336020526040808220858503905591851681529081208054849290610f6d908490611f8e565b92505081905550826001600160a01b0316846001600160a01b03167fddf252ad1be2c89b69c2b068fc378daa952ba7f163c4a11628f55a4df523b3ef84604051610fb991815260200190565b60405180910390a3610de7565b6106c081336114d9565b610fda8282610943565b61067a57600082815261012e602090815260408083206001600160a01b03851684529091529020805460ff191660011790556110133390565b6001600160a01b0316816001600160a01b0316837f2f8788117e7eff1d82e926ec794901d17c78024a50270940304540a733656f0d60405160405180910390a45050565b60006105f67f8b73c3c69bb8fe3d512ecc4cf759cc79239f7b179b0ffacaa9a75d522b39400f6110876101605490565b610161546040805160208101859052908101839052606081018290524660808201523060a082015260009060c0016040516020818303038152906040528051906020012090509392505050565b6110de8282610943565b1561067a57600082815261012e602090815260408083206001600160a01b0385168085529252808320805460ff1916905551339285917ff6391f5c32d9c69d2a47ea670b442974b53935d1edc7fd64eb21e047a839171b9190a45050565b61114461153d565b60ca805460ff191690557f5db9ee0a495bf2e6ff9c91a7834c1ba4fdd244a5e8aa4e537bd38aeae4b073aa335b6040516001600160a01b03909116815260200160405180910390a1565b61067a8282611586565b6001600160a01b0382166111f85760405162461bcd60e51b815260206004820152602160248201527f45524332303a206275726e2066726f6d20746865207a65726f206164647265736044820152607360f81b6064820152608401610667565b611204826000836114d1565b6001600160a01b038216600090815260336020526040902054818110156112785760405162461bcd60e51b815260206004820152602260248201527f45524332303a206275726e20616d6f756e7420657863656564732062616c616e604482015261636560f01b6064820152608401610667565b6001600160a01b03831660009081526033602052604081208383039055603580548492906112a7908490611fa6565b90915550506040518281526000906001600160a01b038516907fddf252ad1be2c89b69c2b068fc378daa952ba7f163c4a11628f55a4df523b3ef9060200160405180910390a3505050565b600054610100900460ff166113195760405162461bcd60e51b815260040161066790611fbd565b61067a82826115f5565b600054610100900460ff1661134a5760405162461bcd60e51b815260040161066790611fbd565b565b600054610100900460ff166113735760405162461bcd60e51b815260040161066790611fbd565b6106c081611643565b600054610100900460ff166113a35760405162461bcd60e51b815260040161066790611fbd565b61134a6116b7565b600054610100900460ff166113d25760405162461bcd60e51b815260040161066790611fbd565b6106c081604051806040016040528060018152602001603160f81b8152506116ea565b6113fd61172d565b60ca805460ff191660011790557f62e78cea01bee320cd4e420270b5ea74000d11b0c9f74754ebdbfc544b05a2586111713390565b6001600160a01b0381166000908152610194602052604090208054600181018255905b50919050565b600061071f611468611057565b8360405161190160f01b6020820152602281018390526042810182905260009060620160405160208183030381529060405280519060200120905092915050565b60008060006114ba87878787611773565b915091506114c781611860565b5095945050505050565b6105e761172d565b6114e38282610943565b61067a576114fb816001600160a01b03166014611a1b565b611506836020611a1b565b604051602001611517929190612008565b60408051601f198184030181529082905262461bcd60e51b825261066791600401611d91565b60ca5460ff1661134a5760405162461bcd60e51b815260206004820152601460248201527314185d5cd8589b194e881b9bdd081c185d5cd95960621b6044820152606401610667565b6097548161159360355490565b61159d9190611f8e565b11156115eb5760405162461bcd60e51b815260206004820152601960248201527f45524332304361707065643a20636170206578636565646564000000000000006044820152606401610667565b61067a8282611bb7565b600054610100900460ff1661161c5760405162461bcd60e51b815260040161066790611fbd565b815161162f906036906020850190611ca2565b5080516105e7906037906020840190611ca2565b600054610100900460ff1661166a5760405162461bcd60e51b815260040161066790611fbd565b600081116116b25760405162461bcd60e51b8152602060048201526015602482015274045524332304361707065643a20636170206973203605c1b6044820152606401610667565b609755565b600054610100900460ff166116de5760405162461bcd60e51b815260040161066790611fbd565b60ca805460ff19169055565b600054610100900460ff166117115760405162461bcd60e51b815260040161066790611fbd565b8151602092830120815191909201206101609190915561016155565b60ca5460ff161561134a5760405162461bcd60e51b815260206004820152601060248201526f14185d5cd8589b194e881c185d5cd95960821b6044820152606401610667565b6000807f7fffffffffffffffffffffffffffffff5d576e7357a4501ddfe92f46681b20a08311156117aa5750600090506003611857565b8460ff16601b141580156117c257508460ff16601c14155b156117d35750600090506004611857565b6040805160008082526020820180845289905260ff881692820192909252606081018690526080810185905260019060a0016020604051602081039080840390855afa158015611827573d6000803e3d6000fd5b5050604051601f1901519150506001600160a01b03811661185057600060019250925050611857565b9150600090505b94509492505050565b60008160048111156118745761187461207d565b141561187d5750565b60018160048111156118915761189161207d565b14156118df5760405162461bcd60e51b815260206004820152601860248201527f45434453413a20696e76616c6964207369676e617475726500000000000000006044820152606401610667565b60028160048111156118f3576118f361207d565b14156119415760405162461bcd60e51b815260206004820152601f60248201527f45434453413a20696e76616c6964207369676e6174757265206c656e677468006044820152606401610667565b60038160048111156119555761195561207d565b14156119ae5760405162461bcd60e51b815260206004820152602260248201527f45434453413a20696e76616c6964207369676e6174757265202773272076616c604482015261756560f01b6064820152608401610667565b60048160048111156119c2576119c261207d565b14156106c05760405162461bcd60e51b815260206004820152602260248201527f45434453413a20696e76616c6964207369676e6174757265202776272076616c604482015261756560f01b6064820152608401610667565b60606000611a2a836002612093565b611a35906002611f8e565b67ffffffffffffffff811115611a4d57611a4d6120b2565b6040519080825280601f01601f191660200182016040528015611a77576020820181803683370190505b509050600360fc1b81600081518110611a9257611a926120c8565b60200101906001600160f81b031916908160001a905350600f60fb1b81600181518110611ac157611ac16120c8565b60200101906001600160f81b031916908160001a9053506000611ae5846002612093565b611af0906001611f8e565b90505b6001811115611b68576f181899199a1a9b1b9c1cb0b131b232b360811b85600f1660108110611b2457611b246120c8565b1a60f81b828281518110611b3a57611b3a6120c8565b60200101906001600160f81b031916908160001a90535060049490941c93611b61816120de565b9050611af3565b5083156104ec5760405162461bcd60e51b815260206004820181905260248201527f537472696e67733a20686578206c656e67746820696e73756666696369656e746044820152606401610667565b6001600160a01b038216611c0d5760405162461bcd60e51b815260206004820152601f60248201527f45524332303a206d696e7420746f20746865207a65726f2061646472657373006044820152606401610667565b611c19600083836114d1565b8060356000828254611c2b9190611f8e565b90915550506001600160a01b03821660009081526033602052604081208054839290611c58908490611f8e565b90915550506040518181526001600160a01b038316906000907fddf252ad1be2c89b69c2b068fc378daa952ba7f163c4a11628f55a4df523b3ef9060200160405180910390a35050565b828054611cae90611f43565b90600052602060002090601f016020900481019282611cd05760008555611d16565b82601f10611ce957805160ff1916838001178555611d16565b82800160010185558215611d16579182015b82811115611d16578251825591602001919060010190611cfb565b50611d22929150611d26565b5090565b5b80821115611d225760008155600101611d27565b600060208284031215611d4d57600080fd5b81356001600160e01b0319811681146104ec57600080fd5b60005b83811015611d80578181015183820152602001611d68565b83811115610de75750506000910152565b6020815260008251806020840152611db0816040850160208701611d65565b601f01601f19169190910160400192915050565b80356001600160a01b0381168114611ddb57600080fd5b919050565b60008060408385031215611df357600080fd5b611dfc83611dc4565b946020939093013593505050565b600080600060608486031215611e1f57600080fd5b611e2884611dc4565b9250611e3660208501611dc4565b9150604084013590509250925092565b600060208284031215611e5857600080fd5b5035919050565b60008060408385031215611e7257600080fd5b82359150611e8260208401611dc4565b90509250929050565b600060208284031215611e9d57600080fd5b6104ec82611dc4565b600080600080600080600060e0888a031215611ec157600080fd5b611eca88611dc4565b9650611ed860208901611dc4565b95506040880135945060608801359350608088013560ff81168114611efc57600080fd5b9699959850939692959460a0840135945060c09093013592915050565b60008060408385031215611f2c57600080fd5b611f3583611dc4565b9150611e8260208401611dc4565b600181811c90821680611f5757607f821691505b6020821081141561145557634e487b7160e01b600052602260045260246000fd5b634e487b7160e01b600052601160045260246000fd5b60008219821115611fa157611fa1611f78565b500190565b600082821015611fb857611fb8611f78565b500390565b6020808252602b908201527f496e697469616c697a61626c653a20636f6e7472616374206973206e6f74206960408201526a6e697469616c697a696e6760a81b606082015260800190565b7f416363657373436f6e74726f6c3a206163636f756e7420000000000000000000815260008351612040816017850160208801611d65565b7001034b99036b4b9b9b4b733903937b6329607d1b6017918401918201528351612071816028840160208801611d65565b01602801949350505050565b634e487b7160e01b600052602160045260246000fd5b60008160001904831182151516156120ad576120ad611f78565b500290565b634e487b7160e01b600052604160045260246000fd5b634e487b7160e01b600052603260045260246000fd5b6000816120ed576120ed611f78565b50600019019056fe52ba824bfabc2bcfcdf7f0edbb486ebb05e1836c90e78047efeb949990f72e5fa49807205ce4d355092ef5a8a18f56e8913cf4a201fbe287825b095693c21775a26469706673582212202953048a71cc068579d9404f098a6f5272223a468e19501d20e650707b21b72164736f6c63430008090033",
  "linkReferences": {},
  "deployedLinkReferences": {}
}