{
  "_format": "hh-sol-artifact-1",
  "contractName": "EVOL2",
  "sourceName": "contracts/ERC20/EVOL2.sol",
  "abi": [
    {
      "inputs": [],
      "stateMutability": "nonpayable",
      "type": "constructor"
    },
    {
      "anonymous": false,
      "inputs": [
        {
          "indexed": true,
          "internalType": "address",
          "name": "owner",
          "type": "address"
        },
        {
          "indexed": true,
          "internalType": "address",
          "name": "spender",
          "type": "address"
        },
        {
          "indexed": false,
          "internalType": "uint256",
          "name": "value",
          "type": "uint256"
        }
      ],
      "name": "Approval",
      "type": "event"
    },
    {
      "anonymous": false,
      "inputs": [
        {
          "indexed": false,
          "internalType": "uint8",
          "name": "version",
          "type": "uint8"
        }
      ],
      "name": "Initialized",
      "type": "event"
    },
    {
      "anonymous": false,
      "inputs": [
        {
          "indexed": false,
          "internalType": "address",
          "name": "account",
          "type": "address"
        }
      ],
      "name": "Paused",
      "type": "event"
    },
    {
      "anonymous": false,
      "inputs": [
        {
          "indexed": true,
          "internalType": "bytes32",
          "name": "role",
          "type": "bytes32"
        },
        {
          "indexed": true,
          "internalType": "bytes32",
          "name": "previousAdminRole",
          "type": "bytes32"
        },
        {
          "indexed": true,
          "internalType": "bytes32",
          "name": "newAdminRole",
          "type": "bytes32"
        }
      ],
      "name": "RoleAdminChanged",
      "type": "event"
    },
    {
      "anonymous": false,
      "inputs": [
        {
          "indexed": true,
          "internalType": "bytes32",
          "name": "role",
          "type": "bytes32"
        },
        {
          "indexed": true,
          "internalType": "address",
          "name": "account",
          "type": "address"
        },
        {
          "indexed": true,
          "internalType": "address",
          "name": "sender",
          "type": "address"
        }
      ],
      "name": "RoleGranted",
      "type": "event"
    },
    {
      "anonymous": false,
      "inputs": [
        {
          "indexed": true,
          "internalType": "bytes32",
          "name": "role",
          "type": "bytes32"
        },
        {
          "indexed": true,
          "internalType": "address",
          "name": "account",
          "type": "address"
        },
        {
          "indexed": true,
          "internalType": "address",
          "name": "sender",
          "type": "address"
        }
      ],
      "name": "RoleRevoked",
      "type": "event"
    },
    {
      "anonymous": false,
      "inputs": [
        {
          "indexed": true,
          "internalType": "address",
          "name": "from",
          "type": "address"
        },
        {
          "indexed": true,
          "internalType": "address",
          "name": "to",
          "type": "address"
        },
        {
          "indexed": false,
          "internalType": "uint256",
          "name": "value",
          "type": "uint256"
        }
      ],
      "name": "Transfer",
      "type": "event"
    },
    {
      "anonymous": false,
      "inputs": [
        {
          "indexed": false,
          "internalType": "address",
          "name": "account",
          "type": "address"
        }
      ],
      "name": "Unpaused",
      "type": "event"
    },
    {
      "inputs": [],
      "name": "ADMIN_ROLE",
      "outputs": [
        {
          "internalType": "bytes32",
          "name": "",
          "type": "bytes32"
        }
      ],
      "stateMutability": "view",
      "type": "function"
    },
    {
      "inputs": [],
      "name": "DEFAULT_ADMIN_ROLE",
      "outputs": [
        {
          "internalType": "bytes32",
          "name": "",
          "type": "bytes32"
        }
      ],
      "stateMutability": "view",
      "type": "function"
    },
    {
      "inputs": [],
      "name": "DOMAIN_SEPARATOR",
      "outputs": [
        {
          "internalType": "bytes32",
          "name": "",
          "type": "bytes32"
        }
      ],
      "stateMutability": "view",
      "type": "function"
    },
    {
      "inputs": [],
      "name": "MINTER_ROLE",
      "outputs": [
        {
          "internalType": "bytes32",
          "name": "",
          "type": "bytes32"
        }
      ],
      "stateMutability": "view",
      "type": "function"
    },
    {
      "inputs": [
        {
          "internalType": "address",
          "name": "owner",
          "type": "address"
        },
        {
          "internalType": "address",
          "name": "spender",
          "type": "address"
        }
      ],
      "name": "allowance",
      "outputs": [
        {
          "internalType": "uint256",
          "name": "",
          "type": "uint256"
        }
      ],
      "stateMutability": "view",
      "type": "function"
    },
    {
      "inputs": [
        {
          "internalType": "address",
          "name": "spender",
          "type": "address"
        },
        {
          "internalType": "uint256",
          "name": "amount",
          "type": "uint256"
        }
      ],
      "name": "approve",
      "outputs": [
        {
          "internalType": "bool",
          "name": "",
          "type": "bool"
        }
      ],
      "stateMutability": "nonpayable",
      "type": "function"
    },
    {
      "inputs": [
        {
          "internalType": "address",
          "name": "account",
          "type": "address"
        }
      ],
      "name": "balanceOf",
      "outputs": [
        {
          "internalType": "uint256",
          "name": "",
          "type": "uint256"
        }
      ],
      "stateMutability": "view",
      "type": "function"
    },
    {
      "inputs": [
        {
          "internalType": "uint256",
          "name": "amount",
          "type": "uint256"
        }
      ],
      "name": "burn",
      "outputs": [],
      "stateMutability": "nonpayable",
      "type": "function"
    },
    {
      "inputs": [
        {
          "internalType": "address",
          "name": "account",
          "type": "address"
        },
        {
          "internalType": "uint256",
          "name": "amount",
          "type": "uint256"
        }
      ],
      "name": "burnFrom",
      "outputs": [],
      "stateMutability": "nonpayable",
      "type": "function"
    },
    {
      "inputs": [],
      "name": "cap",
      "outputs": [
        {
          "internalType": "uint256",
          "name": "",
          "type": "uint256"
        }
      ],
      "stateMutability": "view",
      "type": "function"
    },
    {
      "inputs": [],
      "name": "decimals",
      "outputs": [
        {
          "internalType": "uint8",
          "name": "",
          "type": "uint8"
        }
      ],
      "stateMutability": "view",
      "type": "function"
    },
    {
      "inputs": [
        {
          "internalType": "address",
          "name": "spender",
          "type": "address"
        },
        {
          "internalType": "uint256",
          "name": "subtractedValue",
          "type": "uint256"
        }
      ],
      "name": "decreaseAllowance",
      "outputs": [
        {
          "internalType": "bool",
          "name": "",
          "type": "bool"
        }
      ],
      "stateMutability": "nonpayable",
      "type": "function"
    },
    {
      "inputs": [
        {
          "internalType": "bytes32",
          "name": "role",
          "type": "bytes32"
        }
      ],
      "name": "getRoleAdmin",
      "outputs": [
        {
          "internalType": "bytes32",
          "name": "",
          "type": "bytes32"
        }
      ],
      "stateMutability": "view",
      "type": "function"
    },
    {
      "inputs": [
        {
          "internalType": "bytes32",
          "name": "role",
          "type": "bytes32"
        },
        {
          "internalType": "address",
          "name": "account",
          "type": "address"
        }
      ],
      "name": "grantRole",
      "outputs": [],
      "stateMutability": "nonpayable",
      "type": "function"
    },
    {
      "inputs": [
        {
          "internalType": "bytes32",
          "name": "role",
          "type": "bytes32"
        },
        {
          "internalType": "address",
          "name": "account",
          "type": "address"
        }
      ],
      "name": "hasRole",
      "outputs": [
        {
          "internalType": "bool",
          "name": "",
          "type": "bool"
        }
      ],
      "stateMutability": "view",
      "type": "function"
    },
    {
      "inputs": [
        {
          "internalType": "address",
          "name": "spender",
          "type": "address"
        },
        {
          "internalType": "uint256",
          "name": "addedValue",
          "type": "uint256"
        }
      ],
      "name": "increaseAllowance",
      "outputs": [
        {
          "internalType": "bool",
          "name": "",
          "type": "bool"
        }
      ],
      "stateMutability": "nonpayable",
      "type": "function"
    },
    {
      "inputs": [],
      "name": "initialize",
      "outputs": [],
      "stateMutability": "nonpayable",
      "type": "function"
    },
    {
      "inputs": [
        {
          "internalType": "address",
          "name": "to",
          "type": "address"
        },
        {
          "internalType": "uint256",
          "name": "amount",
          "type": "uint256"
        }
      ],
      "name": "mint",
      "outputs": [],
      "stateMutability": "nonpayable",
      "type": "function"
    },
    {
      "inputs": [],
      "name": "name",
      "outputs": [
        {
          "internalType": "string",
          "name": "",
          "type": "string"
        }
      ],
      "stateMutability": "view",
      "type": "function"
    },
    {
      "inputs": [
        {
          "internalType": "address",
          "name": "owner",
          "type": "address"
        }
      ],
      "name": "nonces",
      "outputs": [
        {
          "internalType": "uint256",
          "name": "",
          "type": "uint256"
        }
      ],
      "stateMutability": "view",
      "type": "function"
    },
    {
      "inputs": [],
      "name": "pause",
      "outputs": [],
      "stateMutability": "nonpayable",
      "type": "function"
    },
    {
      "inputs": [],
      "name": "paused",
      "outputs": [
        {
          "internalType": "bool",
          "name": "",
          "type": "bool"
        }
      ],
      "stateMutability": "view",
      "type": "function"
    },
    {
      "inputs": [
        {
          "internalType": "address",
          "name": "owner",
          "type": "address"
        },
        {
          "internalType": "address",
          "name": "spender",
          "type": "address"
        },
        {
          "internalType": "uint256",
          "name": "value",
          "type": "uint256"
        },
        {
          "internalType": "uint256",
          "name": "deadline",
          "type": "uint256"
        },
        {
          "internalType": "uint8",
          "name": "v",
          "type": "uint8"
        },
        {
          "internalType": "bytes32",
          "name": "r",
          "type": "bytes32"
        },
        {
          "internalType": "bytes32",
          "name": "s",
          "type": "bytes32"
        }
      ],
      "name": "permit",
      "outputs": [],
      "stateMutability": "nonpayable",
      "type": "function"
    },
    {
      "inputs": [
        {
          "internalType": "bytes32",
          "name": "role",
          "type": "bytes32"
        },
        {
          "internalType": "address",
          "name": "account",
          "type": "address"
        }
      ],
      "name": "renounceRole",
      "outputs": [],
      "stateMutability": "nonpayable",
      "type": "function"
    },
    {
      "inputs": [
        {
          "internalType": "bytes32",
          "name": "role",
          "type": "bytes32"
        },
        {
          "internalType": "address",
          "name": "account",
          "type": "address"
        }
      ],
      "name": "revokeRole",
      "outputs": [],
      "stateMutability": "nonpayable",
      "type": "function"
    },
    {
      "inputs": [
        {
          "internalType": "bytes4",
          "name": "interfaceId",
          "type": "bytes4"
        }
      ],
      "name": "supportsInterface",
      "outputs": [
        {
          "internalType": "bool",
          "name": "",
          "type": "bool"
        }
      ],
      "stateMutability": "view",
      "type": "function"
    },
    {
      "inputs": [],
      "name": "symbol",
      "outputs": [
        {
          "internalType": "string",
          "name": "",
          "type": "string"
        }
      ],
      "stateMutability": "view",
      "type": "function"
    },
    {
      "inputs": [],
      "name": "totalSupply",
      "outputs": [
        {
          "internalType": "uint256",
          "name": "",
          "type": "uint256"
        }
      ],
      "stateMutability": "view",
      "type": "function"
    },
    {
      "inputs": [
        {
          "internalType": "address",
          "name": "to",
          "type": "address"
        },
        {
          "internalType": "uint256",
          "name": "amount",
          "type": "uint256"
        }
      ],
      "name": "transfer",
      "outputs": [
        {
          "internalType": "bool",
          "name": "",
          "type": "bool"
        }
      ],
      "stateMutability": "nonpayable",
      "type": "function"
    },
    {
      "inputs": [
        {
          "internalType": "address",
          "name": "from",
          "type": "address"
        },
        {
          "internalType": "address",
          "name": "to",
          "type": "address"
        },
        {
          "internalType": "uint256",
          "name": "amount",
          "type": "uint256"
        }
      ],
      "name": "transferFrom",
      "outputs": [
        {
          "internalType": "bool",
          "name": "",
          "type": "bool"
        }
      ],
      "stateMutability": "nonpayable",
      "type": "function"
    },
    {
      "inputs": [],
      "name": "unpause",
      "outputs": [],
      "stateMutability": "nonpayable",
      "type": "function"
    }
  ],
  "bytecode": "0x608060405234801561001057600080fd5b5061001961001e565b6100de565b600054610100900460ff161561008a5760405162461bcd60e51b815260206004820152602760248201527f496e697469616c697a61626c653a20636f6e747261637420697320696e697469604482015266616c697a696e6760c81b606482015260840160405180910390fd5b60005460ff90811610156100dc576000805460ff191660ff9081179091556040519081527f7f26b83ff96e1f2b6a682f133852f6798a09c465da95921460cefb38474024989060200160405180910390a15b565b61208b80620000ee6000396000f3fe608060405234801561001057600080fd5b50600436106101e55760003560e01c80635c975abb1161010f57806395d89b41116100a2578063d505accf11610071578063d505accf146103d3578063d5391393146103e6578063d547741f1461040d578063dd62ed3e1461042057600080fd5b806395d89b411461039d578063a217fddf146103a5578063a457c2d7146103ad578063a9059cbb146103c057600080fd5b80637ecebe00116100de5780637ecebe00146103675780638129fc1c1461037a5780638456cb591461038257806391d148541461038a57600080fd5b80635c975abb1461030b57806370a082311461031657806375b238fc1461033f57806379cc67901461035457600080fd5b8063313ce56711610187578063395093511161015657806339509351146102ca5780633f4ba83a146102dd57806340c10f19146102e557806342966c68146102f857600080fd5b8063313ce56714610298578063355274ea146102a75780633644e515146102af57806336568abe146102b757600080fd5b806318160ddd116101c357806318160ddd1461023a57806323b872dd1461024c578063248a9ca31461025f5780632f2ff15d1461028357600080fd5b806301ffc9a7146101ea57806306fdde0314610212578063095ea7b314610227575b600080fd5b6101fd6101f8366004611c7b565b610433565b60405190151581526020015b60405180910390f35b61021a61046a565b6040516102099190611cd1565b6101fd610235366004611d20565b6104fc565b6035545b604051908152602001610209565b6101fd61025a366004611d4a565b610514565b61023e61026d366004611d86565b600090815261012e602052604090206001015490565b610296610291366004611d9f565b610538565b005b60405160128152602001610209565b60975461023e565b61023e610563565b6102966102c5366004611d9f565b610572565b6101fd6102d8366004611d20565b6105f5565b610296610617565b6102966102f3366004611d20565b61063a565b610296610306366004611d86565b61066e565b60ca5460ff166101fd565b61023e610324366004611dcb565b6001600160a01b031660009081526033602052604090205490565b61023e60008051602061203683398151915281565b610296610362366004611d20565b610678565b61023e610375366004611dcb565b61068d565b6102966106ac565b610296610892565b6101fd610398366004611d9f565b6108b2565b61021a6108de565b61023e600081565b6101fd6103bb366004611d20565b6108ed565b6101fd6103ce366004611d20565b610968565b6102966103e1366004611de6565b610976565b61023e7f9f2df0fed2c77648de5860a4cc508cd0818c85b8b8a1ab4ceeef8d981c8956a681565b61029661041b366004611d9f565b610ada565b61023e61042e366004611e59565b610b00565b60006001600160e01b03198216637965db0b60e01b148061046457506301ffc9a760e01b6001600160e01b03198316145b92915050565b60606036805461047990611e83565b80601f01602080910402602001604051908101604052809291908181526020018280546104a590611e83565b80156104f25780601f106104c7576101008083540402835291602001916104f2565b820191906000526020600020905b8154815290600101906020018083116104d557829003601f168201915b5050505050905090565b60003361050a818585610b2b565b5060019392505050565b600033610522858285610c4f565b61052d858585610cc9565b506001949350505050565b600082815261012e602052604090206001015461055481610ea2565b61055e8383610eac565b505050565b600061056d610f33565b905090565b6001600160a01b03811633146105e75760405162461bcd60e51b815260206004820152602f60248201527f416363657373436f6e74726f6c3a2063616e206f6e6c792072656e6f756e636560448201526e103937b632b9903337b91039b2b63360891b60648201526084015b60405180910390fd5b6105f18282610fb0565b5050565b60003361050a8185856106088383610b00565b6106129190611ece565b610b2b565b60008051602061203683398151915261062f81610ea2565b610637611018565b50565b7f9f2df0fed2c77648de5860a4cc508cd0818c85b8b8a1ab4ceeef8d981c8956a661066481610ea2565b61055e838361106a565b61063733826110d5565b610683823383610c4f565b6105f182826110d5565b6001600160a01b03811660009081526101946020526040812054610464565b600054610100900460ff16158080156106cc5750600054600160ff909116105b806106e65750303b1580156106e6575060005460ff166001145b6107495760405162461bcd60e51b815260206004820152602e60248201527f496e697469616c697a61626c653a20636f6e747261637420697320616c72656160448201526d191e481a5b9a5d1a585b1a5e995960921b60648201526084016105de565b6000805460ff19166001179055801561076c576000805461ff0019166101001790555b6107ac6040518060400160405280600381526020016245564f60e81b8152506040518060400160405280600381526020016245564f60e81b81525061122f565b6107b4611260565b6107c96b01f04ef12cb04cf158000000611289565b6107d16112b9565b6107d9611260565b6107fd6040518060400160405280600381526020016245564f60e81b8152506112e8565b610808600033610eac565b61082060008051602061203683398151915233610eac565b61084a7f9f2df0fed2c77648de5860a4cc508cd0818c85b8b8a1ab4ceeef8d981c8956a633610eac565b8015610637576000805461ff0019169055604051600181527f7f26b83ff96e1f2b6a682f133852f6798a09c465da95921460cefb38474024989060200160405180910390a150565b6000805160206120368339815191526108aa81610ea2565b610637611332565b600091825261012e602090815260408084206001600160a01b0393909316845291905290205460ff1690565b60606037805461047990611e83565b600033816108fb8286610b00565b90508381101561095b5760405162461bcd60e51b815260206004820152602560248201527f45524332303a2064656372656173656420616c6c6f77616e63652062656c6f77604482015264207a65726f60d81b60648201526084016105de565b61052d8286868403610b2b565b60003361050a818585610cc9565b834211156109c65760405162461bcd60e51b815260206004820152601d60248201527f45524332305065726d69743a206578706972656420646561646c696e6500000060448201526064016105de565b60007f6e71edae12b1b97f4d1f60370fef10105fa2faae0126114a169c64845d6126c98888886109f58c61136f565b6040805160208101969096526001600160a01b0394851690860152929091166060840152608083015260a082015260c0810186905260e0016040516020818303038152906040528051906020012090506000610a5082611398565b90506000610a60828787876113e6565b9050896001600160a01b0316816001600160a01b031614610ac35760405162461bcd60e51b815260206004820152601e60248201527f45524332305065726d69743a20696e76616c6964207369676e6174757265000060448201526064016105de565b610ace8a8a8a610b2b565b50505050505050505050565b600082815261012e6020526040902060010154610af681610ea2565b61055e8383610fb0565b6001600160a01b03918216600090815260346020908152604080832093909416825291909152205490565b6001600160a01b038316610b8d5760405162461bcd60e51b8152602060048201526024808201527f45524332303a20617070726f76652066726f6d20746865207a65726f206164646044820152637265737360e01b60648201526084016105de565b6001600160a01b038216610bee5760405162461bcd60e51b815260206004820152602260248201527f45524332303a20617070726f766520746f20746865207a65726f206164647265604482015261737360f01b60648201526084016105de565b6001600160a01b0383811660008181526034602090815260408083209487168084529482529182902085905590518481527f8c5be1e5ebec7d5bd14f71427d1e84f3dd0314c0f7b2291e5b200ac8c7c3b925910160405180910390a3505050565b6000610c5b8484610b00565b90506000198114610cc35781811015610cb65760405162461bcd60e51b815260206004820152601d60248201527f45524332303a20696e73756666696369656e7420616c6c6f77616e636500000060448201526064016105de565b610cc38484848403610b2b565b50505050565b6001600160a01b038316610d2d5760405162461bcd60e51b815260206004820152602560248201527f45524332303a207472616e736665722066726f6d20746865207a65726f206164604482015264647265737360d81b60648201526084016105de565b6001600160a01b038216610d8f5760405162461bcd60e51b815260206004820152602360248201527f45524332303a207472616e7366657220746f20746865207a65726f206164647260448201526265737360e81b60648201526084016105de565b610d9a83838361140e565b6001600160a01b03831660009081526033602052604090205481811015610e125760405162461bcd60e51b815260206004820152602660248201527f45524332303a207472616e7366657220616d6f756e7420657863656564732062604482015265616c616e636560d01b60648201526084016105de565b6001600160a01b03808516600090815260336020526040808220858503905591851681529081208054849290610e49908490611ece565b92505081905550826001600160a01b0316846001600160a01b03167fddf252ad1be2c89b69c2b068fc378daa952ba7f163c4a11628f55a4df523b3ef84604051610e9591815260200190565b60405180910390a3610cc3565b6106378133611416565b610eb682826108b2565b6105f157600082815261012e602090815260408083206001600160a01b03851684529091529020805460ff19166001179055610eef3390565b6001600160a01b0316816001600160a01b0316837f2f8788117e7eff1d82e926ec794901d17c78024a50270940304540a733656f0d60405160405180910390a45050565b600061056d7f8b73c3c69bb8fe3d512ecc4cf759cc79239f7b179b0ffacaa9a75d522b39400f610f636101605490565b610161546040805160208101859052908101839052606081018290524660808201523060a082015260009060c0016040516020818303038152906040528051906020012090509392505050565b610fba82826108b2565b156105f157600082815261012e602090815260408083206001600160a01b0385168085529252808320805460ff1916905551339285917ff6391f5c32d9c69d2a47ea670b442974b53935d1edc7fd64eb21e047a839171b9190a45050565b61102061147a565b60ca805460ff191690557f5db9ee0a495bf2e6ff9c91a7834c1ba4fdd244a5e8aa4e537bd38aeae4b073aa335b6040516001600160a01b03909116815260200160405180910390a1565b6097548161107760355490565b6110819190611ece565b11156110cb5760405162461bcd60e51b8152602060048201526019602482015278115490cc8c10d85c1c19590e8818d85c08195e18d959591959603a1b60448201526064016105de565b6105f182826114c3565b6001600160a01b0382166111355760405162461bcd60e51b815260206004820152602160248201527f45524332303a206275726e2066726f6d20746865207a65726f206164647265736044820152607360f81b60648201526084016105de565b6111418260008361140e565b6001600160a01b038216600090815260336020526040902054818110156111b55760405162461bcd60e51b815260206004820152602260248201527f45524332303a206275726e20616d6f756e7420657863656564732062616c616e604482015261636560f01b60648201526084016105de565b6001600160a01b03831660009081526033602052604081208383039055603580548492906111e4908490611ee6565b90915550506040518281526000906001600160a01b038516907fddf252ad1be2c89b69c2b068fc378daa952ba7f163c4a11628f55a4df523b3ef9060200160405180910390a3505050565b600054610100900460ff166112565760405162461bcd60e51b81526004016105de90611efd565b6105f1828261152e565b600054610100900460ff166112875760405162461bcd60e51b81526004016105de90611efd565b565b600054610100900460ff166112b05760405162461bcd60e51b81526004016105de90611efd565b6106378161157c565b600054610100900460ff166112e05760405162461bcd60e51b81526004016105de90611efd565b6112876115f0565b600054610100900460ff1661130f5760405162461bcd60e51b81526004016105de90611efd565b61063781604051806040016040528060018152602001603160f81b815250611623565b61133a611666565b60ca805460ff191660011790557f62e78cea01bee320cd4e420270b5ea74000d11b0c9f74754ebdbfc544b05a25861104d3390565b6001600160a01b0381166000908152610194602052604090208054600181018255905b50919050565b60006104646113a5610f33565b8360405161190160f01b6020820152602281018390526042810182905260009060620160405160208183030381529060405280519060200120905092915050565b60008060006113f7878787876116ac565b9150915061140481611799565b5095945050505050565b61055e611666565b61142082826108b2565b6105f157611438816001600160a01b03166014611954565b611443836020611954565b604051602001611454929190611f48565b60408051601f198184030181529082905262461bcd60e51b82526105de91600401611cd1565b60ca5460ff166112875760405162461bcd60e51b815260206004820152601460248201527314185d5cd8589b194e881b9bdd081c185d5cd95960621b60448201526064016105de565b609754816114d060355490565b6114da9190611ece565b11156115245760405162461bcd60e51b8152602060048201526019602482015278115490cc8c10d85c1c19590e8818d85c08195e18d959591959603a1b60448201526064016105de565b6105f18282611af7565b600054610100900460ff166115555760405162461bcd60e51b81526004016105de90611efd565b8151611568906036906020850190611be2565b50805161055e906037906020840190611be2565b600054610100900460ff166115a35760405162461bcd60e51b81526004016105de90611efd565b600081116115eb5760405162461bcd60e51b8152602060048201526015602482015274045524332304361707065643a20636170206973203605c1b60448201526064016105de565b609755565b600054610100900460ff166116175760405162461bcd60e51b81526004016105de90611efd565b60ca805460ff19169055565b600054610100900460ff1661164a5760405162461bcd60e51b81526004016105de90611efd565b8151602092830120815191909201206101609190915561016155565b60ca5460ff16156112875760405162461bcd60e51b815260206004820152601060248201526f14185d5cd8589b194e881c185d5cd95960821b60448201526064016105de565b6000807f7fffffffffffffffffffffffffffffff5d576e7357a4501ddfe92f46681b20a08311156116e35750600090506003611790565b8460ff16601b141580156116fb57508460ff16601c14155b1561170c5750600090506004611790565b6040805160008082526020820180845289905260ff881692820192909252606081018690526080810185905260019060a0016020604051602081039080840390855afa158015611760573d6000803e3d6000fd5b5050604051601f1901519150506001600160a01b03811661178957600060019250925050611790565b9150600090505b94509492505050565b60008160048111156117ad576117ad611fbd565b14156117b65750565b60018160048111156117ca576117ca611fbd565b14156118185760405162461bcd60e51b815260206004820152601860248201527f45434453413a20696e76616c6964207369676e6174757265000000000000000060448201526064016105de565b600281600481111561182c5761182c611fbd565b141561187a5760405162461bcd60e51b815260206004820152601f60248201527f45434453413a20696e76616c6964207369676e6174757265206c656e6774680060448201526064016105de565b600381600481111561188e5761188e611fbd565b14156118e75760405162461bcd60e51b815260206004820152602260248201527f45434453413a20696e76616c6964207369676e6174757265202773272076616c604482015261756560f01b60648201526084016105de565b60048160048111156118fb576118fb611fbd565b14156106375760405162461bcd60e51b815260206004820152602260248201527f45434453413a20696e76616c6964207369676e6174757265202776272076616c604482015261756560f01b60648201526084016105de565b60606000611963836002611fd3565b61196e906002611ece565b67ffffffffffffffff81111561198657611986611ff2565b6040519080825280601f01601f1916602001820160405280156119b0576020820181803683370190505b509050600360fc1b816000815181106119cb576119cb612008565b60200101906001600160f81b031916908160001a905350600f60fb1b816001815181106119fa576119fa612008565b60200101906001600160f81b031916908160001a9053506000611a1e846002611fd3565b611a29906001611ece565b90505b6001811115611aa1576f181899199a1a9b1b9c1cb0b131b232b360811b85600f1660108110611a5d57611a5d612008565b1a60f81b828281518110611a7357611a73612008565b60200101906001600160f81b031916908160001a90535060049490941c93611a9a8161201e565b9050611a2c565b508315611af05760405162461bcd60e51b815260206004820181905260248201527f537472696e67733a20686578206c656e67746820696e73756666696369656e7460448201526064016105de565b9392505050565b6001600160a01b038216611b4d5760405162461bcd60e51b815260206004820152601f60248201527f45524332303a206d696e7420746f20746865207a65726f20616464726573730060448201526064016105de565b611b596000838361140e565b8060356000828254611b6b9190611ece565b90915550506001600160a01b03821660009081526033602052604081208054839290611b98908490611ece565b90915550506040518181526001600160a01b038316906000907fddf252ad1be2c89b69c2b068fc378daa952ba7f163c4a11628f55a4df523b3ef9060200160405180910390a35050565b828054611bee90611e83565b90600052602060002090601f016020900481019282611c105760008555611c56565b82601f10611c2957805160ff1916838001178555611c56565b82800160010185558215611c56579182015b82811115611c56578251825591602001919060010190611c3b565b50611c62929150611c66565b5090565b5b80821115611c625760008155600101611c67565b600060208284031215611c8d57600080fd5b81356001600160e01b031981168114611af057600080fd5b60005b83811015611cc0578181015183820152602001611ca8565b83811115610cc35750506000910152565b6020815260008251806020840152611cf0816040850160208701611ca5565b601f01601f19169190910160400192915050565b80356001600160a01b0381168114611d1b57600080fd5b919050565b60008060408385031215611d3357600080fd5b611d3c83611d04565b946020939093013593505050565b600080600060608486031215611d5f57600080fd5b611d6884611d04565b9250611d7660208501611d04565b9150604084013590509250925092565b600060208284031215611d9857600080fd5b5035919050565b60008060408385031215611db257600080fd5b82359150611dc260208401611d04565b90509250929050565b600060208284031215611ddd57600080fd5b611af082611d04565b600080600080600080600060e0888a031215611e0157600080fd5b611e0a88611d04565b9650611e1860208901611d04565b95506040880135945060608801359350608088013560ff81168114611e3c57600080fd5b9699959850939692959460a0840135945060c09093013592915050565b60008060408385031215611e6c57600080fd5b611e7583611d04565b9150611dc260208401611d04565b600181811c90821680611e9757607f821691505b6020821081141561139257634e487b7160e01b600052602260045260246000fd5b634e487b7160e01b600052601160045260246000fd5b60008219821115611ee157611ee1611eb8565b500190565b600082821015611ef857611ef8611eb8565b500390565b6020808252602b908201527f496e697469616c697a61626c653a20636f6e7472616374206973206e6f74206960408201526a6e697469616c697a696e6760a81b606082015260800190565b7f416363657373436f6e74726f6c3a206163636f756e7420000000000000000000815260008351611f80816017850160208801611ca5565b7001034b99036b4b9b9b4b733903937b6329607d1b6017918401918201528351611fb1816028840160208801611ca5565b01602801949350505050565b634e487b7160e01b600052602160045260246000fd5b6000816000190483118215151615611fed57611fed611eb8565b500290565b634e487b7160e01b600052604160045260246000fd5b634e487b7160e01b600052603260045260246000fd5b60008161202d5761202d611eb8565b50600019019056fea49807205ce4d355092ef5a8a18f56e8913cf4a201fbe287825b095693c21775a26469706673582212202872fc47982528c733372b19bec1829404a9155c195b7076e2f857fa3acd6e6364736f6c63430008090033",
  "linkReferences": {},
  "deployedLinkReferences": {}
}