{
  "_format": "hh-sol-artifact-1",
  "contractName": "HatcherHarry",
  "sourceName": "contracts/npc/HatcherHarry/HatcherHarry.sol",
  "abi": [
    {
      "inputs": [],
      "stateMutability": "nonpayable",
      "type": "constructor"
    },
    {
      "anonymous": false,
      "inputs": [
        {
          "indexed": false,
          "internalType": "uint8",
          "name": "version",
          "type": "uint8"
        }
      ],
      "name": "Initialized",
      "type": "event"
    },
    {
      "anonymous": false,
      "inputs": [
        {
          "indexed": false,
          "internalType": "address",
          "name": "account",
          "type": "address"
        }
      ],
      "name": "Paused",
      "type": "event"
    },
    {
      "anonymous": false,
      "inputs": [
        {
          "indexed": true,
          "internalType": "bytes32",
          "name": "role",
          "type": "bytes32"
        },
        {
          "indexed": true,
          "internalType": "bytes32",
          "name": "previousAdminRole",
          "type": "bytes32"
        },
        {
          "indexed": true,
          "internalType": "bytes32",
          "name": "newAdminRole",
          "type": "bytes32"
        }
      ],
      "name": "RoleAdminChanged",
      "type": "event"
    },
    {
      "anonymous": false,
      "inputs": [
        {
          "indexed": true,
          "internalType": "bytes32",
          "name": "role",
          "type": "bytes32"
        },
        {
          "indexed": true,
          "internalType": "address",
          "name": "account",
          "type": "address"
        },
        {
          "indexed": true,
          "internalType": "address",
          "name": "sender",
          "type": "address"
        }
      ],
      "name": "RoleGranted",
      "type": "event"
    },
    {
      "anonymous": false,
      "inputs": [
        {
          "indexed": true,
          "internalType": "bytes32",
          "name": "role",
          "type": "bytes32"
        },
        {
          "indexed": true,
          "internalType": "address",
          "name": "account",
          "type": "address"
        },
        {
          "indexed": true,
          "internalType": "address",
          "name": "sender",
          "type": "address"
        }
      ],
      "name": "RoleRevoked",
      "type": "event"
    },
    {
      "anonymous": false,
      "inputs": [
        {
          "indexed": false,
          "internalType": "address",
          "name": "account",
          "type": "address"
        }
      ],
      "name": "Unpaused",
      "type": "event"
    },
    {
      "inputs": [],
      "name": "ADMIN_ROLE",
      "outputs": [
        {
          "internalType": "bytes32",
          "name": "",
          "type": "bytes32"
        }
      ],
      "stateMutability": "view",
      "type": "function"
    },
    {
      "inputs": [],
      "name": "CONTRACT_ROLE",
      "outputs": [
        {
          "internalType": "bytes32",
          "name": "",
          "type": "bytes32"
        }
      ],
      "stateMutability": "view",
      "type": "function"
    },
    {
      "inputs": [],
      "name": "DEFAULT_ADMIN_ROLE",
      "outputs": [
        {
          "internalType": "bytes32",
          "name": "",
          "type": "bytes32"
        }
      ],
      "stateMutability": "view",
      "type": "function"
    },
    {
      "inputs": [
        {
          "internalType": "bytes32",
          "name": "role",
          "type": "bytes32"
        }
      ],
      "name": "getRoleAdmin",
      "outputs": [
        {
          "internalType": "bytes32",
          "name": "",
          "type": "bytes32"
        }
      ],
      "stateMutability": "view",
      "type": "function"
    },
    {
      "inputs": [
        {
          "internalType": "bytes32",
          "name": "role",
          "type": "bytes32"
        },
        {
          "internalType": "uint256",
          "name": "index",
          "type": "uint256"
        }
      ],
      "name": "getRoleMember",
      "outputs": [
        {
          "internalType": "address",
          "name": "",
          "type": "address"
        }
      ],
      "stateMutability": "view",
      "type": "function"
    },
    {
      "inputs": [
        {
          "internalType": "bytes32",
          "name": "role",
          "type": "bytes32"
        }
      ],
      "name": "getRoleMemberCount",
      "outputs": [
        {
          "internalType": "uint256",
          "name": "",
          "type": "uint256"
        }
      ],
      "stateMutability": "view",
      "type": "function"
    },
    {
      "inputs": [
        {
          "internalType": "bytes32",
          "name": "role",
          "type": "bytes32"
        },
        {
          "internalType": "address",
          "name": "account",
          "type": "address"
        }
      ],
      "name": "grantRole",
      "outputs": [],
      "stateMutability": "nonpayable",
      "type": "function"
    },
    {
      "inputs": [
        {
          "internalType": "bytes32",
          "name": "role",
          "type": "bytes32"
        },
        {
          "internalType": "address",
          "name": "account",
          "type": "address"
        }
      ],
      "name": "hasRole",
      "outputs": [
        {
          "internalType": "bool",
          "name": "",
          "type": "bool"
        }
      ],
      "stateMutability": "view",
      "type": "function"
    },
    {
      "inputs": [
        {
          "internalType": "uint256",
          "name": "tokenId",
          "type": "uint256"
        }
      ],
      "name": "hatch",
      "outputs": [],
      "stateMutability": "payable",
      "type": "function"
    },
    {
      "inputs": [],
      "name": "initialize",
      "outputs": [],
      "stateMutability": "nonpayable",
      "type": "function"
    },
    {
      "inputs": [],
      "name": "pause",
      "outputs": [],
      "stateMutability": "nonpayable",
      "type": "function"
    },
    {
      "inputs": [],
      "name": "paused",
      "outputs": [
        {
          "internalType": "bool",
          "name": "",
          "type": "bool"
        }
      ],
      "stateMutability": "view",
      "type": "function"
    },
    {
      "inputs": [],
      "name": "rarityConfig",
      "outputs": [
        {
          "internalType": "uint256[]",
          "name": "",
          "type": "uint256[]"
        },
        {
          "internalType": "uint256[]",
          "name": "",
          "type": "uint256[]"
        },
        {
          "internalType": "uint256",
          "name": "",
          "type": "uint256"
        }
      ],
      "stateMutability": "view",
      "type": "function"
    },
    {
      "inputs": [
        {
          "internalType": "bytes32",
          "name": "role",
          "type": "bytes32"
        },
        {
          "internalType": "address",
          "name": "account",
          "type": "address"
        }
      ],
      "name": "renounceRole",
      "outputs": [],
      "stateMutability": "nonpayable",
      "type": "function"
    },
    {
      "inputs": [
        {
          "internalType": "bytes32",
          "name": "role",
          "type": "bytes32"
        },
        {
          "internalType": "address",
          "name": "account",
          "type": "address"
        }
      ],
      "name": "revokeRole",
      "outputs": [],
      "stateMutability": "nonpayable",
      "type": "function"
    },
    {
      "inputs": [
        {
          "internalType": "uint256[]",
          "name": "speciesIds",
          "type": "uint256[]"
        },
        {
          "internalType": "uint256[][]",
          "name": "_baseAttributes",
          "type": "uint256[][]"
        }
      ],
      "name": "setBaseAttributes",
      "outputs": [],
      "stateMutability": "nonpayable",
      "type": "function"
    },
    {
      "inputs": [
        {
          "internalType": "address",
          "name": "newTreasury",
          "type": "address"
        }
      ],
      "name": "setTreasury",
      "outputs": [],
      "stateMutability": "nonpayable",
      "type": "function"
    },
    {
      "inputs": [
        {
          "internalType": "uint256",
          "name": "cost",
          "type": "uint256"
        }
      ],
      "name": "setTreatCost",
      "outputs": [],
      "stateMutability": "nonpayable",
      "type": "function"
    },
    {
      "inputs": [],
      "name": "setTuringCredit",
      "outputs": [],
      "stateMutability": "nonpayable",
      "type": "function"
    },
    {
      "inputs": [
        {
          "internalType": "uint256",
          "name": "rand",
          "type": "uint256"
        }
      ],
      "name": "speciesRoll",
      "outputs": [
        {
          "internalType": "uint256",
          "name": "speciesId",
          "type": "uint256"
        }
      ],
      "stateMutability": "view",
      "type": "function"
    },
    {
      "inputs": [
        {
          "internalType": "bytes4",
          "name": "interfaceId",
          "type": "bytes4"
        }
      ],
      "name": "supportsInterface",
      "outputs": [
        {
          "internalType": "bool",
          "name": "",
          "type": "bool"
        }
      ],
      "stateMutability": "view",
      "type": "function"
    },
    {
      "inputs": [
        {
          "internalType": "uint256",
          "name": "tokenId",
          "type": "uint256"
        }
      ],
      "name": "treat",
      "outputs": [],
      "stateMutability": "nonpayable",
      "type": "function"
    },
    {
      "inputs": [],
      "name": "treatCost",
      "outputs": [
        {
          "internalType": "uint256",
          "name": "",
          "type": "uint256"
        }
      ],
      "stateMutability": "view",
      "type": "function"
    },
    {
      "inputs": [],
      "name": "unpause",
      "outputs": [],
      "stateMutability": "nonpayable",
      "type": "function"
    }
  ],
  "bytecode": "0x60806040523480156200001157600080fd5b506200001c62000022565b620000e4565b600054610100900460ff16156200008f5760405162461bcd60e51b815260206004820152602760248201527f496e697469616c697a61626c653a20636f6e747261637420697320696e697469604482015266616c697a696e6760c81b606482015260840160405180910390fd5b60005460ff9081161015620000e2576000805460ff191660ff9081179091556040519081527f7f26b83ff96e1f2b6a682f133852f6798a09c465da95921460cefb38474024989060200160405180910390a15b565b612bbc80620000f46000396000f3fe60806040526004361061014b5760003560e01c806375b238fc116100b6578063a40e1a661161006f578063a40e1a66146103af578063c8c18842146103cf578063ca15c873146103e2578063d547741f14610402578063ef5bd4dd14610422578063f0f442601461044257600080fd5b806375b238fc146102f65780638129fc1c146103185780638456cb591461032d5780639010d07c1461034257806391d148541461037a578063a217fddf1461039a57600080fd5b806336568abe1161010857806336568abe146102595780633f4ba83a1461027957806345ce45a41461028e5780635c975abb146102a55780635e29cedb146102bd5780636dc43c07146102e157600080fd5b806301ffc9a71461015057806302b3b3681461018557806303fe46ab146101a75780631f5ee9fd146101e9578063248a9ca3146102095780632f2ff15d14610239575b600080fd5b34801561015c57600080fd5b5061017061016b36600461227b565b610462565b60405190151581526020015b60405180910390f35b34801561019157600080fd5b506101a56101a03660046122a5565b61048d565b005b3480156101b357600080fd5b506101db7f364d3d7565c7a8300c96fd53e065d19b65848d7b23b3191adcd55621c744223c81565b60405190815260200161017c565b3480156101f557600080fd5b506101db6102043660046122a5565b61066f565b34801561021557600080fd5b506101db6102243660046122a5565b60009081526097602052604090206001015490565b34801561024557600080fd5b506101a56102543660046122d3565b61072f565b34801561026557600080fd5b506101a56102743660046122d3565b610759565b34801561028557600080fd5b506101a56107d7565b34801561029a57600080fd5b506101db6101635481565b3480156102b157600080fd5b5060335460ff16610170565b3480156102c957600080fd5b506102d26107fa565b60405161017c9392919061233e565b3480156102ed57600080fd5b506101a5610912565b34801561030257600080fd5b506101db600080516020612b6783398151915281565b34801561032457600080fd5b506101a5610947565b34801561033957600080fd5b506101a5610b7c565b34801561034e57600080fd5b5061036261035d366004612374565b610b9c565b6040516001600160a01b03909116815260200161017c565b34801561038657600080fd5b506101706103953660046122d3565b610bbb565b3480156103a657600080fd5b506101db600081565b3480156103bb57600080fd5b506101a56103ca366004612496565b610be6565b6101a56103dd3660046122a5565b610cfd565b3480156103ee57600080fd5b506101db6103fd3660046122a5565b611024565b34801561040e57600080fd5b506101a561041d3660046122d3565b61103b565b34801561042e57600080fd5b506101a561043d3660046122a5565b611060565b34801561044e57600080fd5b506101a561045d36600461256b565b61107f565b60006001600160e01b03198216635a05180f60e01b14806104875750610487826110bb565b92915050565b61015e54604051637f5a07bf60e11b8152600481018390526000916001600160a01b03169063feb40f7e9060240160e06040518083038186803b1580156104d357600080fd5b505afa1580156104e7573d6000803e3d6000fd5b505050506040513d601f19601f8201168201806040525081019061050b9190612588565b90508060a0015160001461055c5760405162461bcd60e51b81526020600482015260136024820152721159d9c8185b1c9958591e481d1c99585d1959606a1b60448201526064015b60405180910390fd5b610160546001600160a01b03166323b872dd33610162546101635460405160e085901b6001600160e01b03191681526001600160a01b0393841660048201529290911660248301526044820152606401602060405180830381600087803b1580156105c657600080fd5b505af11580156105da573d6000803e3d6000fd5b505050506040513d601f19601f820116820180604052508101906105fe919061260c565b5061015e54604051637eaf752760e11b815260048082018590526024820152600160448201526001600160a01b039091169063fd5eea4e90606401600060405180830381600087803b15801561065357600080fd5b505af1158015610667573d6000803e3d6000fd5b505050505050565b6000606080600061067e6107fa565b82519295509093509150839061069690600190612644565b815181106106a6576106a661265b565b60200260200101519350600081866106be9190612687565b905060005b8351811015610725578381815181106106de576106de61265b565b60200260200101518211156106f257610713565b8481815181106107045761070461265b565b60200260200101519550610725565b8061071d8161269b565b9150506106c3565b5050505050919050565b60008281526097602052604090206001015461074a816110f0565b61075483836110fa565b505050565b6001600160a01b03811633146107c95760405162461bcd60e51b815260206004820152602f60248201527f416363657373436f6e74726f6c3a2063616e206f6e6c792072656e6f756e636560448201526e103937b632b9903337b91039b2b63360891b6064820152608401610553565b6107d3828261111c565b5050565b600080516020612b678339815191526107ef816110f0565b6107f761113e565b50565b60608060008061080b610165611190565b90506000815167ffffffffffffffff81111561082957610829612396565b604051908082528060200260200182016040528015610852578160200160208202803683370190505b5090506000805b8351811015610905576108a26000610164600087858151811061087e5761087e61265b565b6020026020010151815260200190815260200160002061119d90919063ffffffff16565b6108ab576108f3565b818382815181106108be576108be61265b565b6020026020010181815250506108e66001610164600087858151811061087e5761087e61265b565b6108f090836126b6565b91505b806108fd8161269b565b915050610859565b5091959094509092509050565b600080516020612b6783398151915261092a816110f0565b5061016780546001600160a01b0319166020602160991b01179055565b600054610100900460ff16158080156109675750600054600160ff909116105b806109815750303b158015610981575060005460ff166001145b6109e45760405162461bcd60e51b815260206004820152602e60248201527f496e697469616c697a61626c653a20636f6e747261637420697320616c72656160448201526d191e481a5b9a5d1a585b1a5e995960921b6064820152608401610553565b6000805460ff191660011790558015610a07576000805461ff0019166101001790555b610a0f6111a9565b610a176111da565b610a226000336110fa565b610a3a600080516020612b67833981519152336110fa565b610a647f364d3d7565c7a8300c96fd53e065d19b65848d7b23b3191adcd55621c744223c336110fa565b61016080546001600160a01b031990811673c8849f32138de93f6097199c5721a9efd91cee011790915561016180548216905561015e8054821673a3b63c50f0518aaacf5cf4720b773e1371d10ebf17905561015f80548216733e9694a37846c864c67253af6f5d1f534ff3bf4617905561015d8054821673680e176b2bbdb2336063d0c82961bdb7a52cf13c179055610167805482166020602160991b011790556101628054909116732f52abfca2074b99759b58345bb984419d304243179055680d8d726b7177a800006101635580156107f7576000805461ff0019169055604051600181527f7f26b83ff96e1f2b6a682f133852f6798a09c465da95921460cefb38474024989060200160405180910390a150565b600080516020612b67833981519152610b94816110f0565b6107f7611201565b600082815260c960205260408120610bb4908361123e565b9392505050565b60009182526097602090815260408084206001600160a01b0393909316845291905290205460ff1690565b600080516020612b67833981519152610bfe816110f0565b60005b8351811015610cf757610c38848281518110610c1f57610c1f61265b565b602002602001015161016561124a90919063ffffffff16565b5060005b838281518110610c4e57610c4e61265b565b602002602001015151811015610ce457610cd181858481518110610c7457610c7461265b565b60200260200101518381518110610c8d57610c8d61265b565b60200260200101516101646000898781518110610cac57610cac61265b565b602002602001015181526020019081526020016000206112569092919063ffffffff16565b5080610cdc8161269b565b915050610c3c565b5080610cef8161269b565b915050610c01565b50505050565b3361015e546040516331a9108f60e11b8152600481018490526001600160a01b039283169290911690636352211e9060240160206040518083038186803b158015610d4757600080fd5b505afa158015610d5b573d6000803e3d6000fd5b505050506040513d601f19601f82011682018060405250810190610d7f91906126ce565b6001600160a01b031614610dc15760405162461bcd60e51b81526020600482015260096024820152682737ba1037bbb732b960b91b6044820152606401610553565b61015e54604051637f5a07bf60e11b8152600481018390526000916001600160a01b03169063feb40f7e9060240160e06040518083038186803b158015610e0757600080fd5b505afa158015610e1b573d6000803e3d6000fd5b505050506040513d601f19601f82011682018060405250810190610e3f9190612588565b9050428160c001516203f480610e5591906126b6565b1115610e9a5760405162461bcd60e51b8152602060048201526014602482015273456767207374696c6c20696e6375626174696e6760601b6044820152606401610553565b6060806000610ea76107fa565b91945092509050610eb661126b565b61015d546040805163604a6fa960e01b815290516000926001600160a01b03169163604a6fa991600480830192602092919082900301818787803b158015610efd57600080fd5b505af1158015610f11573d6000803e3d6000fd5b505050506040513d601f19601f82011682018060405250810190610f3591906126eb565b90506000610f4782612710600f61138d565b90506000610f558783611434565b61015e54604051636460c42160e11b8152600481018b90529192506001600160a01b03169063c8c1884290602401600060405180830381600087803b158015610f9d57600080fd5b505af1158015610fb1573d6000803e3d6000fd5b505061015f5460405163779c752760e01b81526001600160a01b03909116925063779c75279150610fe89033908590600401612704565b600060405180830381600087803b15801561100257600080fd5b505af1158015611016573d6000803e3d6000fd5b505050505050505050505050565b600081815260c9602052604081206104879061161d565b600082815260976020526040902060010154611056816110f0565b610754838361111c565b600080516020612b67833981519152611078816110f0565b5061016355565b600080516020612b67833981519152611097816110f0565b5061016280546001600160a01b0319166001600160a01b0392909216919091179055565b60006001600160e01b03198216637965db0b60e01b148061048757506301ffc9a760e01b6001600160e01b0319831614610487565b6107f78133611627565b611104828261168b565b600082815260c9602052604090206107549082611711565b6111268282611726565b600082815260c960205260409020610754908261178d565b6111466117a2565b6033805460ff191690557f5db9ee0a495bf2e6ff9c91a7834c1ba4fdd244a5e8aa4e537bd38aeae4b073aa335b6040516001600160a01b03909116815260200160405180910390a1565b60606000610bb4836117eb565b6000610bb48383611847565b600054610100900460ff166111d05760405162461bcd60e51b81526004016105539061281c565b6111d86118b7565b565b600054610100900460ff166111d85760405162461bcd60e51b81526004016105539061281c565b6112096118ea565b6033805460ff191660011790557f62e78cea01bee320cd4e420270b5ea74000d11b0c9f74754ebdbfc544b05a2586111733390565b6000610bb48383611930565b6000610bb4838361195a565b60006112638484846119a9565b949350505050565b6101675460408051637126fe6f60e11b815290516000926001600160a01b03169163e24dfcde916004808301926020929190829003018186803b1580156112b157600080fd5b505afa1580156112c5573d6000803e3d6000fd5b505050506040513d601f19601f820116820180604052508101906112e991906126eb565b905080341461133a5760405162461bcd60e51b815260206004820152601760248201527f496e73756666696369656e7420547572696e67204665650000000000000000006044820152606401610553565b6101675461015d54604051631fb1244f60e31b8152600481018490526001600160a01b03918216602482015291169063fd8922789083906044016000604051808303818588803b15801561065357600080fd5b60608167ffffffffffffffff8111156113a8576113a8612396565b6040519080825280602002602001820160405280156113d1578160200160208202803683370190505b5090508360005b8381101561142b5760006113ec8684612687565b90506113f88684612867565b92508084838151811061140d5761140d61265b565b602090810291909101015250806114238161269b565b9150506113d8565b50509392505050565b61143c61217e565b61015f54606084015160405163b791e67b60e01b815260048101919091526000916001600160a01b03169063b791e67b906024016102e06040518083038186803b15801561148957600080fd5b505afa15801561149d573d6000803e3d6000fd5b505050506040513d601f19601f820116820180604052508101906114c191906129b7565b61015f54608086015160405163b791e67b60e01b81529293506000926001600160a01b039092169163b791e67b916114ff9160040190815260200190565b6102e06040518083038186803b15801561151857600080fd5b505afa15801561152c573d6000803e3d6000fd5b505050506040513d601f19601f8201168201806040525081019061155091906129b7565b905060008260400151600014801561156a57506040820151155b9050604051806101000160405280876000015181526020018760200151815260200187604001518152602001600081526020016115a98886868a6119c6565b81526020016115c28560a001518560a00151858a611b9b565b8152602001604051806060016040528060008152602001600081526020016000815250815260200160405180608001604052806000815260200160008152602001600081526020016000815250815250935050505092915050565b6000610487825490565b6116318282610bbb565b6107d357611649816001600160a01b03166014611cba565b611654836020611cba565b604051602001611665929190612a72565b60408051601f198184030181529082905262461bcd60e51b825261055391600401612ae7565b6116958282610bbb565b6107d35760008281526097602090815260408083206001600160a01b03851684529091529020805460ff191660011790556116cd3390565b6001600160a01b0316816001600160a01b0316837f2f8788117e7eff1d82e926ec794901d17c78024a50270940304540a733656f0d60405160405180910390a45050565b6000610bb4836001600160a01b03841661195a565b6117308282610bbb565b156107d35760008281526097602090815260408083206001600160a01b0385168085529252808320805460ff1916905551339285917ff6391f5c32d9c69d2a47ea670b442974b53935d1edc7fd64eb21e047a839171b9190a45050565b6000610bb4836001600160a01b038416611e56565b60335460ff166111d85760405162461bcd60e51b815260206004820152601460248201527314185d5cd8589b194e881b9bdd081c185d5cd95960621b6044820152606401610553565b60608160000180548060200260200160405190810160405280929190818152602001828054801561183b57602002820191906000526020600020905b815481526020019060010190808311611827575b50505050509050919050565b60008181526002830160205260408120548015158061186b575061186b8484611f49565b610bb45760405162461bcd60e51b815260206004820152601e60248201527f456e756d657261626c654d61703a206e6f6e6578697374656e74206b657900006044820152606401610553565b600054610100900460ff166118de5760405162461bcd60e51b81526004016105539061281c565b6033805460ff19169055565b60335460ff16156111d85760405162461bcd60e51b815260206004820152601060248201526f14185d5cd8589b194e881c185d5cd95960821b6044820152606401610553565b60008260000182815481106119475761194761265b565b9060005260206000200154905092915050565b60008181526001830160205260408120546119a157508154600181810184556000848152602080822090930184905584548482528286019093526040902091909155610487565b506000610487565b60008281526002840160205260408120829055611263848461124a565b6119ff6040518060c001604052806000815260200160008152602001600081526020016000815260200160008152602001600081525090565b6000611a3e8560800151602001518560800151602001518860a0015160011486600081518110611a3157611a3161265b565b6020026020010151611f55565b60208088015160009081526101649091526040812091925090611a6290600261119d565b606485600181518110611a7757611a7761265b565b6020026020010151611a899190612687565b10611a95576000611a98565b60015b60ff1690506000611aca600361016460008b60200151815260200190815260200160002061119d90919063ffffffff16565b6020808a015160009081526101649091526040812091925090611aee90600461119d565b90506000611b2789608001516080015189608001516080015189600281518110611b1a57611b1a61265b565b602002602001015161204e565b90506000611b608a6080015160a001518a6080015160a001518a600381518110611b5357611b5361265b565b6020026020010151612099565b6040805160c081018252968752602087019790975295850193909352606084019190915260808301525060a081019190915295945050505050565b611bd46040518060c001604052806000815260200160008152602001600081526020016000815260200160008152602001600081525090565b60006040518060c0016040528060328152602001611c16886020015188602001518888600481518110611c0957611c0961265b565b60200260200101516120d8565b8152602001611c3c886040015188604001518888600581518110611c0957611c0961265b565b8152602001611c62886060015188606001518888600681518110611c0957611c0961265b565b8152602001611c88886080015188608001518888600781518110611c0957611c0961265b565b8152602001611cae8860a001518860a001518888600881518110611c0957611c0961265b565b90529695505050505050565b60606000611cc9836002612b1a565b611cd49060026126b6565b67ffffffffffffffff811115611cec57611cec612396565b6040519080825280601f01601f191660200182016040528015611d16576020820181803683370190505b509050600360fc1b81600081518110611d3157611d3161265b565b60200101906001600160f81b031916908160001a905350600f60fb1b81600181518110611d6057611d6061265b565b60200101906001600160f81b031916908160001a9053506000611d84846002612b1a565b611d8f9060016126b6565b90505b6001811115611e07576f181899199a1a9b1b9c1cb0b131b232b360811b85600f1660108110611dc357611dc361265b565b1a60f81b828281518110611dd957611dd961265b565b60200101906001600160f81b031916908160001a90535060049490941c93611e0081612b39565b9050611d92565b508315610bb45760405162461bcd60e51b815260206004820181905260248201527f537472696e67733a20686578206c656e67746820696e73756666696369656e746044820152606401610553565b60008181526001830160205260408120548015611f3f576000611e7a600183612644565b8554909150600090611e8e90600190612644565b9050818114611ef3576000866000018281548110611eae57611eae61265b565b9060005260206000200154905080876000018481548110611ed157611ed161265b565b6000918252602080832090910192909255918252600188019052604090208390555b8554869080611f0457611f04612b50565b600190038181906000526020600020016000905590558560010160008681526020019081526020016000206000905560019350505050610487565b6000915050610487565b6000610bb48383612166565b6000806002611f65866032612b1a565b611f709060646126b6565b611f7b886032612b1a565b611f869060646126b6565b611f9091906126b6565b611f9a9190612867565b90506000600185611fac576001611faf565b60025b60ff16611fbe84611388612867565b611fc9906064612b1a565b611fd39190612867565b611fdd9086612687565b1090506000600186611ff0576001611ff3565b60025b60ff16612002856103e8612867565b61200d906064612b1a565b6120179190612867565b6120219087612687565b1090508161203c578061203557600061203f565b600161203f565b60025b60ff1698975050505050505050565b60008061205c600484612687565b90508061206c5784915050610bb4565b806001141561207e5783915050610bb4565b612089601584612687565b915050610bb4565b509392505050565b6000806120a7600284612687565b9050806120c45760026120ba85876126b6565b6120899190612867565b6120cf601584612687565b95945050505050565b6000821561212c5760006120ed600a86612867565b6120f8600a88612867565b61210291906126b6565b905080612110816033612644565b61211a9085612687565b61212491906126b6565b915050611263565b6000612139600484612687565b9050806121495785915050611263565b806001141561215b5784915050611263565b612124603384612687565b60008181526001830160205260408120541515610bb4565b604051806101000160405280600081526020016000815260200160008152602001600081526020016121df6040518060c001604052806000815260200160008152602001600081526020016000815260200160008152602001600081525090565b815260200161221d6040518060c001604052806000815260200160008152602001600081526020016000815260200160008152602001600081525090565b815260200161224660405180606001604052806000815260200160008152602001600081525090565b81526020016122766040518060800160405280600081526020016000815260200160008152602001600081525090565b905290565b60006020828403121561228d57600080fd5b81356001600160e01b031981168114610bb457600080fd5b6000602082840312156122b757600080fd5b5035919050565b6001600160a01b03811681146107f757600080fd5b600080604083850312156122e657600080fd5b8235915060208301356122f8816122be565b809150509250929050565b600081518084526020808501945080840160005b8381101561233357815187529582019590820190600101612317565b509495945050505050565b6060815260006123516060830186612303565b82810360208401526123638186612303565b915050826040830152949350505050565b6000806040838503121561238757600080fd5b50508035926020909101359150565b634e487b7160e01b600052604160045260246000fd5b604051610100810167ffffffffffffffff811182821017156123d0576123d0612396565b60405290565b604051601f8201601f1916810167ffffffffffffffff811182821017156123ff576123ff612396565b604052919050565b600067ffffffffffffffff82111561242157612421612396565b5060051b60200190565b600082601f83011261243c57600080fd5b8135602061245161244c83612407565b6123d6565b82815260059290921b8401810191818101908684111561247057600080fd5b8286015b8481101561248b5780358352918301918301612474565b509695505050505050565b600080604083850312156124a957600080fd5b823567ffffffffffffffff808211156124c157600080fd5b6124cd8683870161242b565b93506020915081850135818111156124e457600080fd5b8501601f810187136124f557600080fd5b803561250361244c82612407565b81815260059190911b8201840190848101908983111561252257600080fd5b8584015b8381101561255a5780358681111561253e5760008081fd5b61254c8c898389010161242b565b845250918601918601612526565b508096505050505050509250929050565b60006020828403121561257d57600080fd5b8135610bb4816122be565b600060e0828403121561259a57600080fd5b60405160e0810181811067ffffffffffffffff821117156125bd576125bd612396565b8060405250825181526020830151602082015260408301516040820152606083015160608201526080830151608082015260a083015160a082015260c083015160c08201528091505092915050565b60006020828403121561261e57600080fd5b81518015158114610bb457600080fd5b634e487b7160e01b600052601160045260246000fd5b6000828210156126565761265661262e565b500390565b634e487b7160e01b600052603260045260246000fd5b634e487b7160e01b600052601260045260246000fd5b60008261269657612696612671565b500690565b60006000198214156126af576126af61262e565b5060010190565b600082198211156126c9576126c961262e565b500190565b6000602082840312156126e057600080fd5b8151610bb4816122be565b6000602082840312156126fd57600080fd5b5051919050565b60006103008201905060018060a01b038416825282516020830152602083015160408301526040830151606083015260608301516080830152608083015161278460a0840182805182526020810151602083015260408101516040830152606081015160608301526080810151608083015260a081015160a08301525050565b5060a08381015180516101608501526020808201516101808601526040808301516101a08701526060808401516101c088015260808401516101e0880152929093015161020086015260c086015180516102208701528082015161024087015283015161026086015260e08601518051610280870152908101516102a0860152918201516102c08501528101516102e0840152612091565b6020808252602b908201527f496e697469616c697a61626c653a20636f6e7472616374206973206e6f74206960408201526a6e697469616c697a696e6760a81b606082015260800190565b60008261287657612876612671565b500490565b600060c0828403121561288d57600080fd5b60405160c0810181811067ffffffffffffffff821117156128b0576128b0612396565b8060405250809150825181526020830151602082015260408301516040820152606083015160608201526080830151608082015260a083015160a08201525092915050565b60006060828403121561290757600080fd5b6040516060810181811067ffffffffffffffff8211171561292a5761292a612396565b80604052508091508251815260208301516020820152604083015160408201525092915050565b60006080828403121561296357600080fd5b6040516080810181811067ffffffffffffffff8211171561298657612986612396565b8060405250809150825181526020830151602082015260408301516040820152606083015160608201525092915050565b60006102e082840312156129ca57600080fd5b6129d26123ac565b82518152602083015160208201526040830151604082015260608301516060820152612a01846080850161287b565b6080820152612a1484610140850161287b565b60a0820152612a278461020085016128f5565b60c0820152612a3a846102608501612951565b60e08201529392505050565b60005b83811015612a61578181015183820152602001612a49565b83811115610cf75750506000910152565b7f416363657373436f6e74726f6c3a206163636f756e7420000000000000000000815260008351612aaa816017850160208801612a46565b7001034b99036b4b9b9b4b733903937b6329607d1b6017918401918201528351612adb816028840160208801612a46565b01602801949350505050565b6020815260008251806020840152612b06816040850160208701612a46565b601f01601f19169190910160400192915050565b6000816000190483118215151615612b3457612b3461262e565b500290565b600081612b4857612b4861262e565b506000190190565b634e487b7160e01b600052603160045260246000fdfea49807205ce4d355092ef5a8a18f56e8913cf4a201fbe287825b095693c21775a26469706673582212208438a2c62f937a04b9d71ad89b26778b17c527c072ae662a8f239ef118133b7e64736f6c63430008090033",
  "linkReferences": {},
  "deployedLinkReferences": {}
}