{
  "_format": "hh-sol-artifact-1",
  "contractName": "MarketplaceUpgradeable",
  "sourceName": "contracts/marketplace/MarketplaceUpgradeable.sol",
  "abi": [
    {
      "inputs": [],
      "stateMutability": "nonpayable",
      "type": "constructor"
    },
    {
      "anonymous": false,
      "inputs": [
        {
          "indexed": true,
          "internalType": "uint256",
          "name": "saleId",
          "type": "uint256"
        },
        {
          "indexed": true,
          "internalType": "address",
          "name": "seller",
          "type": "address"
        },
        {
          "indexed": true,
          "internalType": "address",
          "name": "bidder",
          "type": "address"
        },
        {
          "indexed": false,
          "internalType": "uint256",
          "name": "royalty",
          "type": "uint256"
        },
        {
          "indexed": false,
          "internalType": "uint256",
          "name": "fee",
          "type": "uint256"
        },
        {
          "indexed": false,
          "internalType": "uint256",
          "name": "revenue",
          "type": "uint256"
        }
      ],
      "name": "AuctionFinalized",
      "type": "event"
    },
    {
      "anonymous": false,
      "inputs": [
        {
          "indexed": true,
          "internalType": "uint256",
          "name": "saleId",
          "type": "uint256"
        },
        {
          "indexed": false,
          "internalType": "address",
          "name": "bidder",
          "type": "address"
        },
        {
          "indexed": false,
          "internalType": "uint256",
          "name": "bidAbount",
          "type": "uint256"
        },
        {
          "indexed": false,
          "internalType": "uint256",
          "name": "endTime",
          "type": "uint256"
        }
      ],
      "name": "BidPlaced",
      "type": "event"
    },
    {
      "anonymous": false,
      "inputs": [
        {
          "indexed": true,
          "internalType": "uint256",
          "name": "saleId",
          "type": "uint256"
        },
        {
          "indexed": true,
          "internalType": "address",
          "name": "seller",
          "type": "address"
        },
        {
          "indexed": true,
          "internalType": "address",
          "name": "buyer",
          "type": "address"
        },
        {
          "indexed": false,
          "internalType": "uint256",
          "name": "royalty",
          "type": "uint256"
        },
        {
          "indexed": false,
          "internalType": "uint256",
          "name": "fee",
          "type": "uint256"
        },
        {
          "indexed": false,
          "internalType": "uint256",
          "name": "revenue",
          "type": "uint256"
        }
      ],
      "name": "FixedPriceFinalized",
      "type": "event"
    },
    {
      "anonymous": false,
      "inputs": [
        {
          "indexed": false,
          "internalType": "uint8",
          "name": "version",
          "type": "uint8"
        }
      ],
      "name": "Initialized",
      "type": "event"
    },
    {
      "anonymous": false,
      "inputs": [
        {
          "indexed": false,
          "internalType": "uint256",
          "name": "nexBidPercentInBasisPoint",
          "type": "uint256"
        },
        {
          "indexed": false,
          "internalType": "uint256",
          "name": "extensionDuration",
          "type": "uint256"
        }
      ],
      "name": "MarketplaceAuctionConfigUpdated",
      "type": "event"
    },
    {
      "anonymous": false,
      "inputs": [
        {
          "indexed": true,
          "internalType": "address",
          "name": "contractAddress",
          "type": "address"
        },
        {
          "indexed": true,
          "internalType": "address",
          "name": "bidTokenAddress",
          "type": "address"
        }
      ],
      "name": "MarketplaceBidTokenConfigured",
      "type": "event"
    },
    {
      "anonymous": false,
      "inputs": [
        {
          "indexed": true,
          "internalType": "uint256",
          "name": "fee",
          "type": "uint256"
        }
      ],
      "name": "MarketplaceFeeUpdated",
      "type": "event"
    },
    {
      "anonymous": false,
      "inputs": [
        {
          "indexed": true,
          "internalType": "uint256",
          "name": "maxRoyaltyPercent",
          "type": "uint256"
        }
      ],
      "name": "MarketplaceRoyaltiesUpdated",
      "type": "event"
    },
    {
      "anonymous": false,
      "inputs": [
        {
          "indexed": true,
          "internalType": "uint256",
          "name": "saleId",
          "type": "uint256"
        },
        {
          "indexed": true,
          "internalType": "address",
          "name": "seller",
          "type": "address"
        },
        {
          "indexed": true,
          "internalType": "address",
          "name": "buyer",
          "type": "address"
        },
        {
          "indexed": false,
          "internalType": "uint256",
          "name": "royalty",
          "type": "uint256"
        },
        {
          "indexed": false,
          "internalType": "uint256",
          "name": "fee",
          "type": "uint256"
        },
        {
          "indexed": false,
          "internalType": "uint256",
          "name": "revenue",
          "type": "uint256"
        }
      ],
      "name": "OfferFinalized",
      "type": "event"
    },
    {
      "anonymous": false,
      "inputs": [
        {
          "indexed": true,
          "internalType": "bytes32",
          "name": "role",
          "type": "bytes32"
        },
        {
          "indexed": true,
          "internalType": "bytes32",
          "name": "previousAdminRole",
          "type": "bytes32"
        },
        {
          "indexed": true,
          "internalType": "bytes32",
          "name": "newAdminRole",
          "type": "bytes32"
        }
      ],
      "name": "RoleAdminChanged",
      "type": "event"
    },
    {
      "anonymous": false,
      "inputs": [
        {
          "indexed": true,
          "internalType": "bytes32",
          "name": "role",
          "type": "bytes32"
        },
        {
          "indexed": true,
          "internalType": "address",
          "name": "account",
          "type": "address"
        },
        {
          "indexed": true,
          "internalType": "address",
          "name": "sender",
          "type": "address"
        }
      ],
      "name": "RoleGranted",
      "type": "event"
    },
    {
      "anonymous": false,
      "inputs": [
        {
          "indexed": true,
          "internalType": "bytes32",
          "name": "role",
          "type": "bytes32"
        },
        {
          "indexed": true,
          "internalType": "address",
          "name": "account",
          "type": "address"
        },
        {
          "indexed": true,
          "internalType": "address",
          "name": "sender",
          "type": "address"
        }
      ],
      "name": "RoleRevoked",
      "type": "event"
    },
    {
      "anonymous": false,
      "inputs": [
        {
          "indexed": true,
          "internalType": "uint256",
          "name": "saleId",
          "type": "uint256"
        },
        {
          "indexed": false,
          "internalType": "string",
          "name": "reason",
          "type": "string"
        }
      ],
      "name": "SaleCanceled",
      "type": "event"
    },
    {
      "anonymous": false,
      "inputs": [
        {
          "indexed": true,
          "internalType": "uint256",
          "name": "saleId",
          "type": "uint256"
        },
        {
          "indexed": false,
          "internalType": "enum MarketplaceCoreUpgradeable.SaleType",
          "name": "saleType",
          "type": "uint8"
        },
        {
          "indexed": true,
          "internalType": "address",
          "name": "seller",
          "type": "address"
        },
        {
          "indexed": true,
          "internalType": "address",
          "name": "contractAddress",
          "type": "address"
        },
        {
          "indexed": false,
          "internalType": "uint256[]",
          "name": "tokenIds",
          "type": "uint256[]"
        },
        {
          "indexed": false,
          "internalType": "uint256[]",
          "name": "values",
          "type": "uint256[]"
        },
        {
          "indexed": false,
          "internalType": "address",
          "name": "bidToken",
          "type": "address"
        },
        {
          "indexed": false,
          "internalType": "uint256",
          "name": "startTime",
          "type": "uint256"
        },
        {
          "indexed": false,
          "internalType": "uint256",
          "name": "duration",
          "type": "uint256"
        },
        {
          "indexed": false,
          "internalType": "uint256",
          "name": "extensionDuration",
          "type": "uint256"
        },
        {
          "indexed": false,
          "internalType": "uint256",
          "name": "endTime",
          "type": "uint256"
        },
        {
          "indexed": false,
          "internalType": "uint256",
          "name": "minPrice",
          "type": "uint256"
        }
      ],
      "name": "SaleCreated",
      "type": "event"
    },
    {
      "inputs": [],
      "name": "DEFAULT_ADMIN_ROLE",
      "outputs": [
        {
          "internalType": "bytes32",
          "name": "",
          "type": "bytes32"
        }
      ],
      "stateMutability": "view",
      "type": "function"
    },
    {
      "inputs": [],
      "name": "PAUSER_ROLE",
      "outputs": [
        {
          "internalType": "bytes32",
          "name": "",
          "type": "bytes32"
        }
      ],
      "stateMutability": "view",
      "type": "function"
    },
    {
      "inputs": [],
      "name": "UPDATER_ROLE",
      "outputs": [
        {
          "internalType": "bytes32",
          "name": "",
          "type": "bytes32"
        }
      ],
      "stateMutability": "view",
      "type": "function"
    },
    {
      "inputs": [
        {
          "internalType": "uint256",
          "name": "saleId",
          "type": "uint256"
        }
      ],
      "name": "acceptOffer",
      "outputs": [],
      "stateMutability": "nonpayable",
      "type": "function"
    },
    {
      "inputs": [
        {
          "internalType": "uint256",
          "name": "saleId",
          "type": "uint256"
        },
        {
          "internalType": "uint256",
          "name": "bidAmount",
          "type": "uint256"
        }
      ],
      "name": "bidAuction",
      "outputs": [],
      "stateMutability": "nonpayable",
      "type": "function"
    },
    {
      "inputs": [
        {
          "internalType": "uint256",
          "name": "saleId",
          "type": "uint256"
        },
        {
          "internalType": "uint256",
          "name": "buyAmount",
          "type": "uint256"
        }
      ],
      "name": "buyFixedPrice",
      "outputs": [],
      "stateMutability": "nonpayable",
      "type": "function"
    },
    {
      "inputs": [
        {
          "internalType": "uint256",
          "name": "saleId",
          "type": "uint256"
        }
      ],
      "name": "cancelOffer",
      "outputs": [],
      "stateMutability": "nonpayable",
      "type": "function"
    },
    {
      "inputs": [
        {
          "internalType": "uint256",
          "name": "saleId",
          "type": "uint256"
        },
        {
          "internalType": "string",
          "name": "reason",
          "type": "string"
        }
      ],
      "name": "cancelSale",
      "outputs": [],
      "stateMutability": "nonpayable",
      "type": "function"
    },
    {
      "inputs": [
        {
          "internalType": "uint256",
          "name": "saleId",
          "type": "uint256"
        },
        {
          "internalType": "string",
          "name": "reason",
          "type": "string"
        }
      ],
      "name": "cancelSaleByAdmin",
      "outputs": [],
      "stateMutability": "nonpayable",
      "type": "function"
    },
    {
      "inputs": [
        {
          "internalType": "address",
          "name": "contractAddress",
          "type": "address"
        },
        {
          "internalType": "uint256",
          "name": "tokenId",
          "type": "uint256"
        },
        {
          "internalType": "uint256",
          "name": "value",
          "type": "uint256"
        },
        {
          "internalType": "address",
          "name": "bidToken",
          "type": "address"
        },
        {
          "internalType": "uint256",
          "name": "startTime",
          "type": "uint256"
        },
        {
          "internalType": "uint256",
          "name": "duration",
          "type": "uint256"
        },
        {
          "internalType": "uint256",
          "name": "minPrice",
          "type": "uint256"
        }
      ],
      "name": "createERC1155Auction",
      "outputs": [],
      "stateMutability": "nonpayable",
      "type": "function"
    },
    {
      "inputs": [
        {
          "internalType": "address",
          "name": "contractAddress",
          "type": "address"
        },
        {
          "internalType": "uint256[]",
          "name": "tokenIds",
          "type": "uint256[]"
        },
        {
          "internalType": "uint256[]",
          "name": "values",
          "type": "uint256[]"
        },
        {
          "internalType": "address",
          "name": "bidToken",
          "type": "address"
        },
        {
          "internalType": "uint256",
          "name": "startTime",
          "type": "uint256"
        },
        {
          "internalType": "uint256",
          "name": "duration",
          "type": "uint256"
        },
        {
          "internalType": "uint256",
          "name": "minPrice",
          "type": "uint256"
        }
      ],
      "name": "createERC1155BundleAuction",
      "outputs": [],
      "stateMutability": "nonpayable",
      "type": "function"
    },
    {
      "inputs": [
        {
          "internalType": "address",
          "name": "contractAddress",
          "type": "address"
        },
        {
          "internalType": "uint256[]",
          "name": "tokenIds",
          "type": "uint256[]"
        },
        {
          "internalType": "uint256[]",
          "name": "values",
          "type": "uint256[]"
        },
        {
          "internalType": "address",
          "name": "bidToken",
          "type": "address"
        },
        {
          "internalType": "uint256",
          "name": "startTime",
          "type": "uint256"
        },
        {
          "internalType": "uint256",
          "name": "duration",
          "type": "uint256"
        },
        {
          "internalType": "uint256",
          "name": "minPrice",
          "type": "uint256"
        }
      ],
      "name": "createERC1155BundleFixedPrice",
      "outputs": [],
      "stateMutability": "nonpayable",
      "type": "function"
    },
    {
      "inputs": [
        {
          "internalType": "address",
          "name": "contractAddress",
          "type": "address"
        },
        {
          "internalType": "uint256",
          "name": "tokenId",
          "type": "uint256"
        },
        {
          "internalType": "uint256",
          "name": "value",
          "type": "uint256"
        },
        {
          "internalType": "address",
          "name": "bidToken",
          "type": "address"
        },
        {
          "internalType": "uint256",
          "name": "startTime",
          "type": "uint256"
        },
        {
          "internalType": "uint256",
          "name": "duration",
          "type": "uint256"
        },
        {
          "internalType": "uint256",
          "name": "minPrice",
          "type": "uint256"
        }
      ],
      "name": "createERC1155FixedPrice",
      "outputs": [],
      "stateMutability": "nonpayable",
      "type": "function"
    },
    {
      "inputs": [
        {
          "internalType": "address",
          "name": "contractAddress",
          "type": "address"
        },
        {
          "internalType": "uint256",
          "name": "tokenId",
          "type": "uint256"
        },
        {
          "internalType": "address",
          "name": "bidToken",
          "type": "address"
        },
        {
          "internalType": "uint256",
          "name": "startTime",
          "type": "uint256"
        },
        {
          "internalType": "uint256",
          "name": "duration",
          "type": "uint256"
        },
        {
          "internalType": "uint256",
          "name": "minPrice",
          "type": "uint256"
        },
        {
          "internalType": "uint256",
          "name": "royaltyBps",
          "type": "uint256"
        }
      ],
      "name": "createERC721Auction",
      "outputs": [],
      "stateMutability": "nonpayable",
      "type": "function"
    },
    {
      "inputs": [
        {
          "internalType": "address",
          "name": "contractAddress",
          "type": "address"
        },
        {
          "internalType": "uint256",
          "name": "tokenId",
          "type": "uint256"
        },
        {
          "internalType": "address",
          "name": "bidToken",
          "type": "address"
        },
        {
          "internalType": "uint256",
          "name": "startTime",
          "type": "uint256"
        },
        {
          "internalType": "uint256",
          "name": "duration",
          "type": "uint256"
        },
        {
          "internalType": "uint256",
          "name": "minPrice",
          "type": "uint256"
        },
        {
          "internalType": "uint256",
          "name": "royaltyBps",
          "type": "uint256"
        }
      ],
      "name": "createERC721FixedPrice",
      "outputs": [],
      "stateMutability": "nonpayable",
      "type": "function"
    },
    {
      "inputs": [
        {
          "internalType": "address",
          "name": "contractAddress",
          "type": "address"
        },
        {
          "internalType": "uint256",
          "name": "tokenId",
          "type": "uint256"
        },
        {
          "internalType": "address",
          "name": "bidToken",
          "type": "address"
        },
        {
          "internalType": "uint256",
          "name": "duration",
          "type": "uint256"
        },
        {
          "internalType": "uint256",
          "name": "minPrice",
          "type": "uint256"
        }
      ],
      "name": "createERC721Offer",
      "outputs": [],
      "stateMutability": "nonpayable",
      "type": "function"
    },
    {
      "inputs": [],
      "name": "currentSaleId",
      "outputs": [
        {
          "internalType": "uint256",
          "name": "",
          "type": "uint256"
        }
      ],
      "stateMutability": "view",
      "type": "function"
    },
    {
      "inputs": [
        {
          "internalType": "uint256",
          "name": "saleId",
          "type": "uint256"
        }
      ],
      "name": "finalizeAuction",
      "outputs": [],
      "stateMutability": "nonpayable",
      "type": "function"
    },
    {
      "inputs": [
        {
          "internalType": "uint256",
          "name": "saleId",
          "type": "uint256"
        }
      ],
      "name": "getAuctionMinBidAmount",
      "outputs": [
        {
          "internalType": "uint256",
          "name": "",
          "type": "uint256"
        }
      ],
      "stateMutability": "view",
      "type": "function"
    },
    {
      "inputs": [],
      "name": "getMarketplaceAuctionConfig",
      "outputs": [
        {
          "internalType": "uint256",
          "name": "",
          "type": "uint256"
        },
        {
          "internalType": "uint256",
          "name": "",
          "type": "uint256"
        }
      ],
      "stateMutability": "view",
      "type": "function"
    },
    {
      "inputs": [],
      "name": "getMarketplaceBank",
      "outputs": [
        {
          "internalType": "address",
          "name": "",
          "type": "address"
        }
      ],
      "stateMutability": "view",
      "type": "function"
    },
    {
      "inputs": [
        {
          "internalType": "address",
          "name": "contractAddress",
          "type": "address"
        }
      ],
      "name": "getMarketplaceBidTokenOf",
      "outputs": [
        {
          "internalType": "address",
          "name": "",
          "type": "address"
        }
      ],
      "stateMutability": "view",
      "type": "function"
    },
    {
      "inputs": [],
      "name": "getMarketplaceFee",
      "outputs": [
        {
          "internalType": "uint256",
          "name": "",
          "type": "uint256"
        }
      ],
      "stateMutability": "view",
      "type": "function"
    },
    {
      "inputs": [],
      "name": "getMarketplaceRoyaltyPercent",
      "outputs": [
        {
          "internalType": "uint256",
          "name": "",
          "type": "uint256"
        }
      ],
      "stateMutability": "view",
      "type": "function"
    },
    {
      "inputs": [],
      "name": "getMarketplaceTreasury",
      "outputs": [
        {
          "internalType": "address",
          "name": "",
          "type": "address"
        }
      ],
      "stateMutability": "view",
      "type": "function"
    },
    {
      "inputs": [
        {
          "internalType": "bytes32",
          "name": "role",
          "type": "bytes32"
        }
      ],
      "name": "getRoleAdmin",
      "outputs": [
        {
          "internalType": "bytes32",
          "name": "",
          "type": "bytes32"
        }
      ],
      "stateMutability": "view",
      "type": "function"
    },
    {
      "inputs": [
        {
          "internalType": "bytes32",
          "name": "role",
          "type": "bytes32"
        },
        {
          "internalType": "address",
          "name": "account",
          "type": "address"
        }
      ],
      "name": "grantRole",
      "outputs": [],
      "stateMutability": "nonpayable",
      "type": "function"
    },
    {
      "inputs": [
        {
          "internalType": "bytes32",
          "name": "role",
          "type": "bytes32"
        },
        {
          "internalType": "address",
          "name": "account",
          "type": "address"
        }
      ],
      "name": "hasRole",
      "outputs": [
        {
          "internalType": "bool",
          "name": "",
          "type": "bool"
        }
      ],
      "stateMutability": "view",
      "type": "function"
    },
    {
      "inputs": [
        {
          "internalType": "uint256",
          "name": "maxRoyaltyBps",
          "type": "uint256"
        },
        {
          "internalType": "uint256",
          "name": "marketFeeBps",
          "type": "uint256"
        },
        {
          "internalType": "address",
          "name": "treasury",
          "type": "address"
        },
        {
          "internalType": "uint256",
          "name": "nexBidPercentBps",
          "type": "uint256"
        }
      ],
      "name": "initialize",
      "outputs": [],
      "stateMutability": "nonpayable",
      "type": "function"
    },
    {
      "inputs": [
        {
          "internalType": "address",
          "name": "contractAddress",
          "type": "address"
        }
      ],
      "name": "removeMarketplaceBidToken",
      "outputs": [],
      "stateMutability": "nonpayable",
      "type": "function"
    },
    {
      "inputs": [
        {
          "internalType": "bytes32",
          "name": "role",
          "type": "bytes32"
        },
        {
          "internalType": "address",
          "name": "account",
          "type": "address"
        }
      ],
      "name": "renounceRole",
      "outputs": [],
      "stateMutability": "nonpayable",
      "type": "function"
    },
    {
      "inputs": [
        {
          "internalType": "bytes32",
          "name": "role",
          "type": "bytes32"
        },
        {
          "internalType": "address",
          "name": "account",
          "type": "address"
        }
      ],
      "name": "revokeRole",
      "outputs": [],
      "stateMutability": "nonpayable",
      "type": "function"
    },
    {
      "inputs": [
        {
          "internalType": "address",
          "name": "bank",
          "type": "address"
        }
      ],
      "name": "setMarketplaceBank",
      "outputs": [],
      "stateMutability": "nonpayable",
      "type": "function"
    },
    {
      "inputs": [
        {
          "internalType": "address",
          "name": "contractAddress",
          "type": "address"
        },
        {
          "internalType": "address",
          "name": "bidTokenAddress",
          "type": "address"
        }
      ],
      "name": "setMarketplaceBidToken",
      "outputs": [],
      "stateMutability": "nonpayable",
      "type": "function"
    },
    {
      "inputs": [
        {
          "internalType": "uint256",
          "name": "fee",
          "type": "uint256"
        }
      ],
      "name": "setMarketplaceFee",
      "outputs": [],
      "stateMutability": "nonpayable",
      "type": "function"
    },
    {
      "inputs": [
        {
          "internalType": "uint256",
          "name": "maxRoyaltyPercent",
          "type": "uint256"
        }
      ],
      "name": "setMarketplaceRoyaltyPercent",
      "outputs": [],
      "stateMutability": "nonpayable",
      "type": "function"
    },
    {
      "inputs": [
        {
          "internalType": "address",
          "name": "treasury",
          "type": "address"
        }
      ],
      "name": "setMarketplaceTreasury",
      "outputs": [],
      "stateMutability": "nonpayable",
      "type": "function"
    },
    {
      "inputs": [
        {
          "internalType": "bytes4",
          "name": "interfaceId",
          "type": "bytes4"
        }
      ],
      "name": "supportsInterface",
      "outputs": [
        {
          "internalType": "bool",
          "name": "",
          "type": "bool"
        }
      ],
      "stateMutability": "view",
      "type": "function"
    },
    {
      "inputs": [
        {
          "internalType": "uint256",
          "name": "nexBidPercent",
          "type": "uint256"
        }
      ],
      "name": "updateMarketplaceAuctionConfig",
      "outputs": [],
      "stateMutability": "nonpayable",
      "type": "function"
    }
  ],
  "bytecode": "0x60806040523480156200001157600080fd5b50600054610100900460ff1615808015620000335750600054600160ff909116105b8062000063575062000050306200013d60201b6200290d1760201c565b15801562000063575060005460ff166001145b620000cb5760405162461bcd60e51b815260206004820152602e60248201527f496e697469616c697a61626c653a20636f6e747261637420697320616c72656160448201526d191e481a5b9a5d1a585b1a5e995960921b606482015260840160405180910390fd5b6000805460ff191660011790558015620000ef576000805461ff0019166101001790555b801562000136576000805461ff0019169055604051600181527f7f26b83ff96e1f2b6a682f133852f6798a09c465da95921460cefb38474024989060200160405180910390a15b506200014c565b6001600160a01b03163b151590565b614d62806200015c6000396000f3fe608060405234801561001057600080fd5b506004361061023d5760003560e01c8063924c10591161013b578063cf9640b4116100b8578063e80838631161007c578063e808386314610517578063eecabdf01461052a578063ef706adf1461053d578063fb022cf114610550578063fe0a2c0a1461056357600080fd5b8063cf9640b4146104a4578063d181e984146104b7578063d547741f146104ca578063d6bfef83146104dd578063e63ab1e9146104f057600080fd5b8063a0c55397116100ff578063a0c5539714610436578063a217fddf14610449578063b6b03ef714610451578063c815729d1461047e578063cd462ab71461049157600080fd5b8063924c1059146103cd5780639407ea98146103ea5780639643afca146103fd5780639914b00d146104105780639e7e44801461042357600080fd5b806336568abe116101c95780637587b4df1161018d5780637587b4df1461036e57806376840be514610381578063856e50b51461039457806389b84ec6146103a757806391d14854146103ba57600080fd5b806336568abe1461030d5780633f5ae78c1461032057806347e63380146103465780634ce896901461035b57806374c1f09f1461032057600080fd5b8063248de0ed11610210578063248de0ed146102c357806326a7b37b146102d65780632e849894146102df5780632f2ff15d146102e757806332ee5f37146102fa57600080fd5b806301ffc9a71461024257806306cd5ce31461026a5780631637c6d61461027f578063248a9ca314610292575b600080fd5b610255610250366004614092565b61056c565b60405190151581526020015b60405180910390f35b61027d6102783660046140d1565b6105a3565b005b61027d61028d36600461416a565b61064a565b6102b56102a0366004614209565b60009081526065602052604090206001015490565b604051908152602001610261565b61027d6102d1366004614222565b6109f6565b610191546102b5565b6102b5610a37565b61027d6102f536600461423f565b610a47565b61027d6103083660046142e4565b610a71565b61027d61031b36600461423f565b610a8e565b6101c3546001600160a01b03165b6040516001600160a01b039091168152602001610261565b6102b5600080516020614ced83398151915281565b61027d610369366004614388565b610b0c565b61027d61037c3660046143b6565b610ba2565b6102b561038f366004614209565b610ed2565b61027d6103a236600461416a565b610f11565b61027d6103b5366004614222565b611297565b6102556103c836600461423f565b6112fa565b610228546102275460408051928352602083019190915201610261565b61027d6103f8366004614209565b611325565b61027d61040b366004614209565b611394565b61027d61041e3660046142e4565b611481565b61027d610431366004614209565b611497565b61027d6104443660046143b6565b611506565b6102b5600081565b61032e61045f366004614222565b6001600160a01b03908116600090815261012d60205260409020541690565b61027d61048c366004614209565b6119e1565b61027d61049f366004614222565b611dbe565b61027d6104b23660046143d8565b611e21565b61027d6104c5366004614417565b611efb565b61027d6104d836600461423f565b611fa8565b61027d6104eb36600461447c565b611fcd565b6102b57f65d7a28e3265b37a6474929f336521b332c1681b933f6cb9f3376673440d862a81565b61027d610525366004614209565b612068565b61027d61053836600461447c565b612475565b61027d61054b366004614209565b612510565b61027d61055e366004614417565b612871565b61015f546102b5565b60006001600160e01b03198216637965db0b60e01b148061059d57506301ffc9a760e01b6001600160e01b03198316145b92915050565b6040805160018082528183019092526000916020808301908036833701905050905084816000815181106105d9576105d96144c0565b602090810291909101015260408051600180825281830190925260009181602001602082028036833701905050905060018160008151811061061d5761061d6144c0565b60200260200101818152505061064161063c88600085858a8a8a61291c565b612aea565b50505050505050565b600260975414156106765760405162461bcd60e51b815260040161066d906144d6565b60405180910390fd5b6002609755600080516020614ced83398151915261069381612d0d565b60008251116106b45760405162461bcd60e51b815260040161066d9061450d565b6000838152610259602052604080822081516101a081019092528054829060ff1660028111156106e6576106e6614575565b60028111156106f7576106f7614575565b8152815461010090046001600160a01b0390811660208301526001808401549182166040840152606090920191600160a01b90910460ff169081111561073f5761073f614575565b600181111561075057610750614575565b8152602001600282018054806020026020016040519081016040528092919081815260200182805480156107a357602002820191906000526020600020905b81548152602001906001019080831161078f575b50505050508152602001600382018054806020026020016040519081016040528092919081815260200182805480156107fb57602002820191906000526020600020905b8154815260200190600101908083116107e7575b505050918352505060048201546001600160a01b039081166020830152600583015460408301526006830154606083015260078301546080830152600883015460a083015260098301541660c0820152600a9091015460e0909101526101408101519091506108bf5760405162461bcd60e51b815260206004820152602a60248201527f4d61726b6574706c616365436f72655570677261646561626c653a2053616c65604482015269081b9bdd08199bdd5b9960b21b606482015260840161066d565b60008481526102596020526040812080546001600160a81b031990811682556001820180549091169055906108f76002830182613f96565b610905600383016000613f96565b506004810180546001600160a01b0319908116909155600060058301819055600683018190556007830181905560088301819055600983018054909216909155600a90910155606081015160408201516020830151608084015160a085015161097394939230929091612d1a565b6101608101516001600160a01b0316156109b3576109b38161016001518261018001518360c001516001600160a01b0316612e759092919063ffffffff16565b837feea67889aa1eb47570ae236516cf0e18f0627d822a512e46bb29b1a683d09f1b846040516109e391906145b7565b60405180910390a2505060016097555050565b600080516020614ced833981519152610a0e81612d0d565b506001600160a01b0316600090815261012d6020526040902080546001600160a01b0319169055565b6000610a4260c95490565b905090565b600082815260656020526040902060010154610a6281612d0d565b610a6c8383612ed8565b505050565b610641610a8760008960018a8a8a8a8a8a612f5e565b6000613128565b6001600160a01b0381163314610afe5760405162461bcd60e51b815260206004820152602f60248201527f416363657373436f6e74726f6c3a2063616e206f6e6c792072656e6f756e636560448201526e103937b632b9903337b91039b2b63360891b606482015260840161066d565b610b088282613358565b5050565b600080516020614ced833981519152610b2481612d0d565b6001600160a01b0383163b610b4b5760405162461bcd60e51b815260040161066d906145ea565b6001600160a01b0382163b610b725760405162461bcd60e51b815260040161066d906145ea565b506001600160a01b03918216600090815261012d6020526040902080546001600160a01b03191691909216179055565b60026097541415610bc55760405162461bcd60e51b815260040161066d906144d6565b600260975560008281526102596020526040812090815460ff166002811115610bf057610bf0614575565b14610c3b5760405162461bcd60e51b81526020600482015260276024820152600080516020614d0d83398151915260448201526620bab1ba34b7b760c91b606482015260840161066d565b42816008015411610c5e5760405162461bcd60e51b815260040161066d90614639565b4281600501541115610c825760405162461bcd60e51b815260040161066d90614681565b60098101546001600160a01b0316331415610d055760405162461bcd60e51b815260206004820152603a60248201527f4d61726b6574706c616365436f72655570677261646561626c653a20596f752060448201527f616c7265616479206172652063757272656e7420626964646572000000000000606482015260840161066d565b80546001600160a01b0361010090910416331415610d715760405162461bcd60e51b8152602060048201526024808201527f4d61726b6574706c616365436f72655570677261646561626c653a2053656c6660448201526308189a5960e21b606482015260840161066d565b60098101546001600160a01b0316610dac578181600a01541115610da75760405162461bcd60e51b815260040161066d906146cd565b610ddf565b6000610dbb82600a01546133bf565b905080831015610ddd5760405162461bcd60e51b815260040161066d906146cd565b505b600a81018054600983018054928590556001600160a01b03198316331790556007830154600884015491926001600160a01b031691610e1f904290614731565b1015610e3a576007830154610e349042614748565b60088401555b60048301546001600160a01b0316610e5481333088613400565b6001600160a01b03821615610e7757610e776001600160a01b0382168385612e75565b857f51db8e23b3f4479b162fd48823b8402895442b8f6cfd94f66239391881ec7b6f336008870154604080516001600160a01b039093168352602083018a905282015260600160405180910390a25050600160975550505050565b60008181526102596020526040812060098101546001600160a01b0316610efd57600a015492915050565b610f0a81600a01546133bf565b9392505050565b60026097541415610f345760405162461bcd60e51b815260040161066d906144d6565b60026097558051610f575760405162461bcd60e51b815260040161066d9061450d565b6000828152610259602052604080822081516101a081019092528054829060ff166002811115610f8957610f89614575565b6002811115610f9a57610f9a614575565b8152815461010090046001600160a01b0390811660208301526001808401549182166040840152606090920191600160a01b90910460ff1690811115610fe257610fe2614575565b6001811115610ff357610ff3614575565b81526020016002820180548060200260200160405190810160405280929190818152602001828054801561104657602002820191906000526020600020905b815481526020019060010190808311611032575b505050505081526020016003820180548060200260200160405190810160405280929190818152602001828054801561109e57602002820191906000526020600020905b81548152602001906001019080831161108a575b505050918352505060048201546001600160a01b039081166020830152600583015460408301526006830154606083015260078301546080830152600883015460a083015260098301541660c0820152600a9091015460e0909101529050336001600160a01b031681602001516001600160a01b0316146111615760405162461bcd60e51b81526020600482015260296024820152600080516020614d0d833981519152604482015268796f75722073616c6560b81b606482015260840161066d565b60008381526102596020526040812080546001600160a81b031990811682556001820180549091169055906111996002830182613f96565b6111a7600383016000613f96565b506004810180546001600160a01b0319908116909155600060058301819055600683018190556007830181905560088301819055600983018054909216909155600a90910155606081015160408201516020830151608084015160a085015161121594939230929091612d1a565b6101608101516001600160a01b031615611255576112558161016001518261018001518360c001516001600160a01b0316612e759092919063ffffffff16565b827feea67889aa1eb47570ae236516cf0e18f0627d822a512e46bb29b1a683d09f1b8360405161128591906145b7565b60405180910390a25050600160975550565b600080516020614ced8339815191526112af81612d0d565b6001600160a01b0382163b6112d65760405162461bcd60e51b815260040161066d90614760565b506101c480546001600160a01b0319166001600160a01b0392909216919091179055565b60009182526065602090815260408084206001600160a01b0393909316845291905290205460ff1690565b600080516020614ced83398151915261133d81612d0d565b6103e882111561135f5760405162461bcd60e51b815260040161066d906147c7565b61019182905560405182907fe18aa129833f655a8166b6185277fee7a53f67e46fd32329bc2fc2ac21274d5590600090a25050565b600080516020614ced8339815191526113ac81612d0d565b6127108211156114385760405162461bcd60e51b815260206004820152604b60248201527f4d61726b6574706c61636541756374696f6e436f6e666967557067726164656160448201527f626c653a204d696e20696e6372656d656e74206d757374206265203e3d30252060648201526a616e64203c3d203130302560a81b608482015260a40161066d565b610228829055610227546040805184815260208101929092527f1ffe3fb8dff3c6bf01dce5eb6611ff49840debc0c49cb48f73e4943799bc7de091015b60405180910390a15050565b610641610a8760018960018a8a8a8a8a8a612f5e565b600080516020614ced8339815191526114af81612d0d565b6103e88211156114d15760405162461bcd60e51b815260040161066d9061480c565b61015f82905560405182907f89afacb18fe1d58d6e5250629b682650f4d3ed83667a19e072953949a96b513c90600090a25050565b600260975414156115295760405162461bcd60e51b815260040161066d906144d6565b600260978190556000838152610259602052604080822081516101a081019092528054929391929091839160ff169081111561156757611567614575565b600281111561157857611578614575565b8152815461010090046001600160a01b0390811660208301526001808401549182166040840152606090920191600160a01b90910460ff16908111156115c0576115c0614575565b60018111156115d1576115d1614575565b81526020016002820180548060200260200160405190810160405280929190818152602001828054801561162457602002820191906000526020600020905b815481526020019060010190808311611610575b505050505081526020016003820180548060200260200160405190810160405280929190818152602001828054801561167c57602002820191906000526020600020905b815481526020019060010190808311611668575b505050918352505060048201546001600160a01b039081166020830152600583015460408301526006830154606083015260078301546080830152600883015460a083015260098301541660c0820152600a9091015460e09091015290506001815160028111156116ef576116ef614575565b1461173e5760405162461bcd60e51b815260206004820152602b6024820152600080516020614d0d83398151915260448201526a46697865642d707269636560a81b606482015260840161066d565b4281610140015110156117635760405162461bcd60e51b815260040161066d90614639565b428160e0015111156117875760405162461bcd60e51b815260040161066d90614681565b81816101800151146117f05760405162461bcd60e51b815260206004820152602c60248201527f4d61726b6574706c616365436f72655570677261646561626c653a2057726f6e60448201526b19c8189d5e48185b5bdd5b9d60a21b606482015260840161066d565b60208101516001600160a01b03163314156118595760405162461bcd60e51b8152602060048201526024808201527f4d61726b6574706c616365436f72655570677261646561626c653a2053656c666044820152632062757960e01b606482015260840161066d565b60008381526102596020526040812080546001600160a81b031990811682556001820180549091169055906118916002830182613f96565b61189f600383016000613f96565b506004810180546001600160a01b0319908116909155600060058301819055600683018190556007830181905560088301819055600983018054909216909155600a9091015561018081015160c08201513391611909916001600160a01b03169083903090613400565b61192782606001518360400151308486608001518760a00151612d1a565b60008060006119688560400151866080015160008151811061194b5761194b6144c0565b60200260200101518760c00151886020015189610180015161343e565b925092509250836001600160a01b031685602001516001600160a01b0316887f84c291c877f36c4dec491685a451cdc7ef25d8dc76807e6e27748c597e99eb6c8686866040516119cb939291909283526020830191909152604082015260600190565b60405180910390a4505060016097555050505050565b60026097541415611a045760405162461bcd60e51b815260040161066d906144d6565b600260978190556000828152610259602052604080822081516101a081019092528054929391929091839160ff1690811115611a4257611a42614575565b6002811115611a5357611a53614575565b8152815461010090046001600160a01b0390811660208301526001808401549182166040840152606090920191600160a01b90910460ff1690811115611a9b57611a9b614575565b6001811115611aac57611aac614575565b815260200160028201805480602002602001604051908101604052809291908181526020018280548015611aff57602002820191906000526020600020905b815481526020019060010190808311611aeb575b5050505050815260200160038201805480602002602001604051908101604052809291908181526020018280548015611b5757602002820191906000526020600020905b815481526020019060010190808311611b43575b505050918352505060048201546001600160a01b039081166020830152600583015460408301526006830154606083015260078301546080830152600883015460a083015260098301541660c0820152600a9091015460e0909101529050600281516002811115611bca57611bca614575565b14611be75760405162461bcd60e51b815260040161066d9061485a565b428161014001511115611c4e5760405162461bcd60e51b815260206004820152602960248201527f4d61726b6574706c616365436f72655570677261646561626c653a204f666665604482015268391034b99037bb32b960b91b606482015260840161066d565b60008281526102596020526040812080546001600160a81b03199081168255600182018054909116905590611c866002830182613f96565b611c94600383016000613f96565b506004810180546001600160a01b0319908116909155600060058301819055600683018190556007830181905560088301819055600983018054909216909155600a9091015560608101516040820151611cff91903384610160015185608001518660a00151612d1a565b6000806000611d4284604001518560800151600081518110611d2357611d236144c0565b60200260200101518660c00151611d373390565b88610180015161343e565b9250925092508361016001516001600160a01b031684602001516001600160a01b0316867f7c0fede85ef76479a8dac8062ea64c0ca72c1a862849b88ef93d223dcccc3cbe868686604051611daa939291909283526020830191909152604082015260600190565b60405180910390a450506001609755505050565b600080516020614ced833981519152611dd681612d0d565b6001600160a01b0382163b611dfd5760405162461bcd60e51b815260040161066d90614760565b506101c380546001600160a01b0319166001600160a01b0392909216919091179055565b600054610100900460ff1615808015611e415750600054600160ff909116105b80611e5b5750303b158015611e5b575060005460ff166001145b611e775760405162461bcd60e51b815260040161066d9061488d565b6000805460ff191660011790558015611e9a576000805461ff0019166101001790555b611ea26134e4565b611eae8585858561350d565b8015611ef4576000805461ff0019169055604051600181527f7f26b83ff96e1f2b6a682f133852f6798a09c465da95921460cefb38474024989060200160405180910390a15b5050505050565b604080516001808252818301909252600091602080830190803683370190505090508681600081518110611f3157611f316144c0565b6020908102919091010152604080516001808252818301909252600091816020016020820280368337019050509050600181600081518110611f7557611f756144c0565b602002602001018181525050611f9d611f9760008b600086868d8d8d8d612f5e565b84613128565b505050505050505050565b600082815260656020526040902060010154611fc381612d0d565b610a6c8383613358565b604080516001808252818301909252600091602080830190803683370190505090508681600081518110612003576120036144c0565b60209081029190910101526040805160018082528183019092526000918160200160208202803683370190505090508681600081518110612046576120466144c0565b602002602001018181525050611f9d610a8760018b600186868c8c8c8c612f5e565b6002609754141561208b5760405162461bcd60e51b815260040161066d906144d6565b600260978190556000828152610259602052604080822081516101a081019092528054929391929091839160ff16908111156120c9576120c9614575565b60028111156120da576120da614575565b8152815461010090046001600160a01b0390811660208301526001808401549182166040840152606090920191600160a01b90910460ff169081111561212257612122614575565b600181111561213357612133614575565b81526020016002820180548060200260200160405190810160405280929190818152602001828054801561218657602002820191906000526020600020905b815481526020019060010190808311612172575b50505050508152602001600382018054806020026020016040519081016040528092919081815260200182805480156121de57602002820191906000526020600020905b8154815260200190600101908083116121ca575b505050918352505060048201546001600160a01b039081166020830152600583015460408301526006830154606083015260078301546080830152600883015460a083015260098301541660c0820152600a9091015460e0909101526101408101519091506122a55760405162461bcd60e51b815260206004820152602d60248201527f4d61726b6574706c616365436f72655570677261646561626c653a204175637460448201526c1a5bdb881b9bdd08199bdd5b99609a1b606482015260840161066d565b42816101400151106123175760405162461bcd60e51b815260206004820152603560248201527f4d61726b6574706c616365436f72655570677261646561626c653a2041756374604482015274696f6e207374696c6c20696e2070726f677265737360581b606482015260840161066d565b60008281526102596020526040812080546001600160a81b0319908116825560018201805490911690559061234f6002830182613f96565b61235d600383016000613f96565b506004810180546001600160a01b0319908116909155600060058301819055600683018190556007830181905560088301819055600983018054909216909155600a9091015560608101516040820151610160830151608084015160a08501516123cc94939230929091612d1a565b600080600061240d846040015185608001516000815181106123f0576123f06144c0565b60200260200101518660c00151876020015188610180015161343e565b9250925092508361016001516001600160a01b031684602001516001600160a01b0316867f09d19bc6c9a71e6ce2f33285073bb069912c80a714bf42bcaddc9247716ffb48868686604051611daa939291909283526020830191909152604082015260600190565b6040805160018082528183019092526000916020808301908036833701905050905086816000815181106124ab576124ab6144c0565b602090810291909101015260408051600180825281830190925260009181602001602082028036833701905050905086816000815181106124ee576124ee6144c0565b602002602001018181525050611f9d610a8760008b600186868c8c8c8c612f5e565b600260975414156125335760405162461bcd60e51b815260040161066d906144d6565b600260978190556000828152610259602052604080822081516101a081019092528054929391929091839160ff169081111561257157612571614575565b600281111561258257612582614575565b8152815461010090046001600160a01b0390811660208301526001808401549182166040840152606090920191600160a01b90910460ff16908111156125ca576125ca614575565b60018111156125db576125db614575565b81526020016002820180548060200260200160405190810160405280929190818152602001828054801561262e57602002820191906000526020600020905b81548152602001906001019080831161261a575b505050505081526020016003820180548060200260200160405190810160405280929190818152602001828054801561268657602002820191906000526020600020905b815481526020019060010190808311612672575b505050918352505060048201546001600160a01b039081166020830152600583015460408301526006830154606083015260078301546080830152600883015460a083015260098301541660c0820152600a9091015460e09091015290506002815160028111156126f9576126f9614575565b146127165760405162461bcd60e51b815260040161066d9061485a565b6101608101516001600160a01b031633146127745760405162461bcd60e51b815260206004820152602a6024820152600080516020614d0d8339815191526044820152693cb7bab91037b33332b960b11b606482015260840161066d565b60008281526102596020526040812080546001600160a81b031990811682556001820180549091169055906127ac6002830182613f96565b6127ba600383016000613f96565b506004810180546001600160a01b0319908116909155600060058301819055600683018190556007830181905560088301819055600983018054909216909155600a9091015561016081015161018082015160c0830151612826926001600160a01b0390911691612e75565b817feea67889aa1eb47570ae236516cf0e18f0627d822a512e46bb29b1a683d09f1b60405161286090602080825260009082015260400190565b60405180910390a250506001609755565b6040805160018082528183019092526000916020808301908036833701905050905086816000815181106128a7576128a76144c0565b60209081029190910101526040805160018082528183019092526000918160200160208202803683370190505090506001816000815181106128eb576128eb6144c0565b602002602001018181525050611f9d611f9760018b600086868d8d8d8d612f5e565b6001600160a01b03163b151590565b612924613fb4565b60008651116129455760405162461bcd60e51b815260040161066d906148db565b84518651146129665760405162461bcd60e51b815260040161066d9061491c565b6001600160a01b03808916600090815261012d60205260409020548116908516146129a35760405162461bcd60e51b815260040161066d90614972565b6129ae856001613560565b6129ca5760405162461bcd60e51b815260040161066d906149ad565b600083116129ea5760405162461bcd60e51b815260040161066d906149e4565b6129f488876135b2565b612a4f5760405162461bcd60e51b815260206004820152602660248201527f4d61726b6574706c616365436f72655570677261646561626c653a2053656c666044820152651037b33332b960d11b606482015260840161066d565b604080516101a0810190915242908060028152600060208201526001600160a01b038b166040820152606001896001811115612a8d57612a8d614575565b8152602001888152602001878152602001866001600160a01b031681526020018281526020018581526020016102275481526020018583612ace9190614748565b8152336020820152604001939093525090979650505050505050565b6000612af4613676565b600081815261025960205260409020835181549293508492829060ff19166001836002811115612b2657612b26614575565b0217905550602082015181546001600160a01b0391821661010002610100600160a81b0319909116178255604083015160018084018054929093166001600160a01b0319831681178455606086015193926001600160a81b0319161790600160a01b908490811115612b9a57612b9a614575565b021790555060808201518051612bba916002840191602090910190614032565b5060a08201518051612bd6916003840191602090910190614032565b5060c0828101516004830180546001600160a01b039283166001600160a01b03199182161790915560e0850151600585015561010085015160068501556101208501516007850155610140850151600885015561016085015160098501805491909316911617905561018090920151600a90910155820151612c71612c583390565b6101808501516001600160a01b03841691903090613400565b82604001516001600160a01b03168361016001516001600160a01b0316837f0c93cebaa7f8b20ed02ebb54d9a7ffcaa31b566f866a0b2e783e599b7bae24af600287608001518860a001518960c001518a60e001518b6101000151610227548d61010001518e60e00151612ce59190614748565b8e6101800151604051612d0099989796959493929190614a59565b60405180910390a4505050565b612d178133613697565b50565b6001866001811115612d2e57612d2e614575565b1415612d9d57604051631759616b60e11b81526001600160a01b03861690632eb2c2d690612d66908790879087908790600401614ae3565b600060405180830381600087803b158015612d8057600080fd5b505af1158015612d94573d6000803e3d6000fd5b50505050612e6d565b6000866001811115612db157612db1614575565b1415612e6d578460005b8351811015612e6a57816001600160a01b03166323b872dd8787878581518110612de757612de76144c0565b60209081029190910101516040516001600160e01b031960e086901b1681526001600160a01b0393841660048201529290911660248301526044820152606401600060405180830381600087803b158015612e4157600080fd5b505af1158015612e55573d6000803e3d6000fd5b5050505080612e6390614b3e565b9050612dbb565b50505b505050505050565b6040516001600160a01b038316602482015260448101829052610a6c90849063a9059cbb60e01b906064015b60408051601f198184030181529190526020810180516001600160e01b03166001600160e01b0319909316929092179091526136fb565b612ee282826112fa565b610b085760008281526065602090815260408083206001600160a01b03851684529091529020805460ff19166001179055612f1a3390565b6001600160a01b0316816001600160a01b0316837f2f8788117e7eff1d82e926ec794901d17c78024a50270940304540a733656f0d60405160405180910390a45050565b612f66613fb4565b6000875111612f875760405162461bcd60e51b815260040161066d906148db565b8551875114612fa85760405162461bcd60e51b815260040161066d9061491c565b6001600160a01b03808a16600090815261012d6020526040902054811690861614612fe55760405162461bcd60e51b815260040161066d90614972565b612ff0866001613560565b61300c5760405162461bcd60e51b815260040161066d906149ad565b428410156130605760405162461bcd60e51b815260206004820152602d6024820152600080516020614ccd83398151915260448201526c6c696420737461727454696d6560981b606482015260840161066d565b600083116130805760405162461bcd60e51b815260040161066d906149e4565b604051806101a001604052808b600281111561309e5761309e614575565b81523360208201526001600160a01b038b1660408201526060018960018111156130ca576130ca614575565b8152602001888152602001878152602001866001600160a01b03168152602001858152602001848152602001610227548152602001848661310b9190614748565b815260006020820152604001929092525098975050505050505050565b801561315c5761315c338360400151846080015160008151811061314e5761314e6144c0565b6020026020010151846137cd565b6000613166613676565b600081815261025960205260409020845181549293508592829060ff1916600183600281111561319857613198614575565b0217905550602082015181546001600160a01b0391821661010002610100600160a81b0319909116178255604083015160018084018054929093166001600160a01b0319831681178455606086015193926001600160a81b0319161790600160a01b90849081111561320c5761320c614575565b02179055506080820151805161322c916002840191602090910190614032565b5060a08201518051613248916003840191602090910190614032565b5060c08201516004820180546001600160a01b039283166001600160a01b03199182161790915560e0840151600584015561010084015160068401556101208401516007840155610140840151600884015561016084015160098401805491909316911617905561018090910151600a90910155606083015160408401516132e291906132d23390565b3087608001518860a00151612d1a565b82604001516001600160a01b031683602001516001600160a01b0316827f0c93cebaa7f8b20ed02ebb54d9a7ffcaa31b566f866a0b2e783e599b7bae24af866000015187608001518860a001518960c001518a60e001518b6101000151610227548d61010001518e60e00151612ce59190614748565b61336282826112fa565b15610b085760008281526065602090815260408083206001600160a01b0385168085529252808320805460ff1916905551339285917ff6391f5c32d9c69d2a47ea670b442974b53935d1edc7fd64eb21e047a839171b9190a45050565b60008061271061022854846133d49190614b59565b6133de9190614b78565b905080156133f5576133f08184614748565b610f0a565b610f0a836001614748565b6040516001600160a01b03808516602483015283166044820152606481018290526134389085906323b872dd60e01b90608401612ea1565b50505050565b60008060008061344d8561392e565b905060008061345d8b8b8961394c565b909250905060008161346f858a614731565b6134799190614731565b9050898215613496576134966001600160a01b0382168585612e75565b6134bd6134ac6101c3546001600160a01b031690565b6001600160a01b0383169087612e75565b6134d16001600160a01b0382168b84612e75565b50909b929a509850909650505050505050565b600054610100900460ff1661350b5760405162461bcd60e51b815260040161066d90614b9a565b565b600054610100900460ff166135345760405162461bcd60e51b815260040161066d90614b9a565b61353c6134e4565b6135446139c2565b61354c6139f1565b613557848484613a20565b61343881613a62565b6000805b83518110156135a85782848281518110613580576135806144c0565b6020026020010151101561359857600091505061059d565b6135a181614b3e565b9050613564565b5060019392505050565b6000826001600160a01b0316636352211e836000815181106135d6576135d66144c0565b60200260200101516040518263ffffffff1660e01b81526004016135fc91815260200190565b60206040518083038186803b15801561361457600080fd5b505afa158015613628573d6000803e3d6000fd5b505050506040513d601f19601f8201168201806040525081019061364c9190614be5565b6001600160a01b0316336001600160a01b0316141561366d5750600061059d565b50600192915050565b60008061368260c95490565b905061369260c980546001019055565b919050565b6136a182826112fa565b610b08576136b9816001600160a01b03166014613a97565b6136c4836020613a97565b6040516020016136d5929190614c02565b60408051601f198184030181529082905262461bcd60e51b825261066d916004016145b7565b6000613750826040518060400160405280602081526020017f5361666545524332303a206c6f772d6c6576656c2063616c6c206661696c6564815250856001600160a01b0316613c339092919063ffffffff16565b805190915015610a6c578080602001905181019061376e9190614c77565b610a6c5760405162461bcd60e51b815260206004820152602a60248201527f5361666545524332303a204552433230206f7065726174696f6e20646964206e6044820152691bdd081cdd58d8d9595960b21b606482015260840161066d565b6001600160a01b03838116600090815261016060209081526040808320868452909152902054161561385e5760405162461bcd60e51b815260206004820152603460248201527f4d61726b6574706c616365526f79616c746965735570677261646561626c653a60448201527308149bde585b1d1e48185b1c9958591e481cd95d60621b606482015260840161066d565b600081118015613871575061015f548111155b6138d65760405162461bcd60e51b815260206004820152603060248201527f4d61726b6574706c616365526f79616c746965735570677261646561626c653a60448201526f20496e76616c696420726f79616c747960801b606482015260840161066d565b6040805180820182526001600160a01b03958616815260208082019384529486166000908152610160865282812094815293909452909120915182546001600160a01b03191693169290921781559051600190910155565b600061271061019154836139429190614b59565b61059d9190614b78565b6001600160a01b038084166000908152610160602090815260408083208684529091528120805491928392166139895760008092509250506139ba565b805460018201546001600160a01b0390911690612710906139aa9087614b59565b6139b49190614b78565b92509250505b935093915050565b600054610100900460ff166139e95760405162461bcd60e51b815260040161066d90614b9a565b61350b613c4a565b600054610100900460ff16613a185760405162461bcd60e51b815260040161066d90614b9a565b61350b6134e4565b600054610100900460ff16613a475760405162461bcd60e51b815260040161066d90614b9a565b613a5083613c78565b613a5982613ccf565b610a6c81613d26565b600054610100900460ff16613a895760405162461bcd60e51b815260040161066d90614b9a565b613a916134e4565b61022855565b60606000613aa6836002614b59565b613ab1906002614748565b67ffffffffffffffff811115613ac957613ac9614123565b6040519080825280601f01601f191660200182016040528015613af3576020820181803683370190505b509050600360fc1b81600081518110613b0e57613b0e6144c0565b60200101906001600160f81b031916908160001a905350600f60fb1b81600181518110613b3d57613b3d6144c0565b60200101906001600160f81b031916908160001a9053506000613b61846002614b59565b613b6c906001614748565b90505b6001811115613be4576f181899199a1a9b1b9c1cb0b131b232b360811b85600f1660108110613ba057613ba06144c0565b1a60f81b828281518110613bb657613bb66144c0565b60200101906001600160f81b031916908160001a90535060049490941c93613bdd81614c99565b9050613b6f565b508315610f0a5760405162461bcd60e51b815260206004820181905260248201527f537472696e67733a20686578206c656e67746820696e73756666696369656e74604482015260640161066d565b6060613c428484600085613e2c565b949350505050565b600054610100900460ff16613c715760405162461bcd60e51b815260040161066d90614b9a565b6001609755565b600054610100900460ff16613c9f5760405162461bcd60e51b815260040161066d90614b9a565b6103e8811115613cc15760405162461bcd60e51b815260040161066d9061480c565b61015f819055612d176134e4565b600054610100900460ff16613cf65760405162461bcd60e51b815260040161066d90614b9a565b6103e8811115613d185760405162461bcd60e51b815260040161066d906147c7565b610191819055612d176134e4565b600054610100900460ff1615808015613d465750600054600160ff909116105b80613d605750303b158015613d60575060005460ff166001145b613d7c5760405162461bcd60e51b815260040161066d9061488d565b6000805460ff191660011790558015613d9f576000805461ff0019166101001790555b6001600160a01b0382163b613dc65760405162461bcd60e51b815260040161066d90614760565b613dce6134e4565b6101c380546001600160a01b0319166001600160a01b0384161790558015610b08576000805461ff0019169055604051600181527f7f26b83ff96e1f2b6a682f133852f6798a09c465da95921460cefb384740249890602001611475565b606082471015613e8d5760405162461bcd60e51b815260206004820152602660248201527f416464726573733a20696e73756666696369656e742062616c616e636520666f6044820152651c8818d85b1b60d21b606482015260840161066d565b6001600160a01b0385163b613ee45760405162461bcd60e51b815260206004820152601d60248201527f416464726573733a2063616c6c20746f206e6f6e2d636f6e7472616374000000604482015260640161066d565b600080866001600160a01b03168587604051613f009190614cb0565b60006040518083038185875af1925050503d8060008114613f3d576040519150601f19603f3d011682016040523d82523d6000602084013e613f42565b606091505b5091509150613f52828286613f5d565b979650505050505050565b60608315613f6c575081610f0a565b825115613f7c5782518084602001fd5b8160405162461bcd60e51b815260040161066d91906145b7565b5080546000825590600052602060002090810190612d17919061407d565b604080516101a081019091528060008152600060208201819052604082018190526060909101908152602001606081526020016060815260200160006001600160a01b031681526020016000815260200160008152602001600081526020016000815260200160006001600160a01b03168152602001600081525090565b82805482825590600052602060002090810192821561406d579160200282015b8281111561406d578251825591602001919060010190614052565b5061407992915061407d565b5090565b5b80821115614079576000815560010161407e565b6000602082840312156140a457600080fd5b81356001600160e01b031981168114610f0a57600080fd5b6001600160a01b0381168114612d1757600080fd5b600080600080600060a086880312156140e957600080fd5b85356140f4816140bc565b945060208601359350604086013561410b816140bc565b94979396509394606081013594506080013592915050565b634e487b7160e01b600052604160045260246000fd5b604051601f8201601f1916810167ffffffffffffffff8111828210171561416257614162614123565b604052919050565b6000806040838503121561417d57600080fd5b8235915060208084013567ffffffffffffffff8082111561419d57600080fd5b818601915086601f8301126141b157600080fd5b8135818111156141c3576141c3614123565b6141d5601f8201601f19168501614139565b915080825287848285010111156141eb57600080fd5b80848401858401376000848284010152508093505050509250929050565b60006020828403121561421b57600080fd5b5035919050565b60006020828403121561423457600080fd5b8135610f0a816140bc565b6000806040838503121561425257600080fd5b823591506020830135614264816140bc565b809150509250929050565b600082601f83011261428057600080fd5b8135602067ffffffffffffffff82111561429c5761429c614123565b8160051b6142ab828201614139565b92835284810182019282810190878511156142c557600080fd5b83870192505b84831015613f52578235825291830191908301906142cb565b600080600080600080600060e0888a0312156142ff57600080fd5b873561430a816140bc565b9650602088013567ffffffffffffffff8082111561432757600080fd5b6143338b838c0161426f565b975060408a013591508082111561434957600080fd5b506143568a828b0161426f565b9550506060880135614367816140bc565b9699959850939660808101359560a0820135955060c0909101359350915050565b6000806040838503121561439b57600080fd5b82356143a6816140bc565b91506020830135614264816140bc565b600080604083850312156143c957600080fd5b50508035926020909101359150565b600080600080608085870312156143ee57600080fd5b84359350602085013592506040850135614407816140bc565b9396929550929360600135925050565b600080600080600080600060e0888a03121561443257600080fd5b873561443d816140bc565b9650602088013595506040880135614454816140bc565b969995985095966060810135965060808101359560a0820135955060c0909101359350915050565b600080600080600080600060e0888a03121561449757600080fd5b87356144a2816140bc565b965060208801359550604088013594506060880135614367816140bc565b634e487b7160e01b600052603260045260246000fd5b6020808252601f908201527f5265656e7472616e637947756172643a207265656e7472616e742063616c6c00604082015260600190565b60208082526042908201527f4d61726b6574706c616365436f72655570677261646561626c653a20496e636c60408201527f756465206120726561736f6e20666f7220746869732063616e63656c6c61746960608201526137b760f11b608082015260a00190565b634e487b7160e01b600052602160045260246000fd5b60005b838110156145a657818101518382015260200161458e565b838111156134385750506000910152565b60208152600082518060208401526145d681604085016020870161458b565b601f01601f19169190910160400192915050565b6020808252602f908201527f4d61726b6574706c616365426964546f6b656e735570677261646561626c653a60408201526e08139bdd08184818dbdb9d1c9858dd608a1b606082015260800190565b60208082526028908201527f4d61726b6574706c616365436f72655570677261646561626c653a2053616c656040820152671034b99037bb32b960c11b606082015260800190565b6020808252602c908201527f4d61726b6574706c616365436f72655570677261646561626c653a2053616c6560408201526b081b9bdd081cdd185c9d195960a21b606082015260800190565b6020808252602e908201527f4d61726b6574706c616365436f72655570677261646561626c653a204269642060408201526d616d6f756e7420746f6f206c6f7760901b606082015260800190565b634e487b7160e01b600052601160045260246000fd5b6000828210156147435761474361471b565b500390565b6000821982111561475b5761475b61471b565b500190565b60208082526041908201527f4d61726b6574706c61636546756e6444657374696e6174696f6e73557067726160408201527f646561626c653a2041646472657373206973206e6f74206120636f6e747261636060820152601d60fa1b608082015260a00190565b60208082526025908201527f4d61726b6574706c6163654665655570677261646561626c653a2046656573206040820152643e2031302560d81b606082015260800190565b6020808252602e908201527f4d61726b6574706c616365526f79616c746965735570677261646561626c653a60408201526d20526f79616c7479203e2031302560901b606082015260800190565b6020808252602590820152600080516020614d0d83398151915260408201526437b33332b960d91b606082015260800190565b6020808252602e908201527f496e697469616c697a61626c653a20636f6e747261637420697320616c72656160408201526d191e481a5b9a5d1a585b1a5e995960921b606082015260800190565b6020808252603390820152600080516020614ccd8339815191526040820152720d8d2c840e8ded6cadc92c8e640d8cadccee8d606b1b606082015260800190565b60208082526036908201527f4d61726b6574706c616365436f72655570677261646561626c653a20546f6b656040820152750dc92c8e640d8cadccee8d040c8dedce840dac2e8c6d60531b606082015260800190565b6020808252602d90820152600080516020614ccd83398151915260408201526c3634b2103134b2103a37b5b2b760991b606082015260800190565b6020808252602990820152600080516020614ccd8339815191526040820152686c69642076616c756560b81b606082015260800190565b6020808252602c90820152600080516020614ccd83398151915260408201526b3634b210323ab930ba34b7b760a11b606082015260800190565b600081518084526020808501945080840160005b83811015614a4e57815187529582019590820190600101614a32565b509495945050505050565b600061012060038c10614a7c57634e487b7160e01b600052602160045260246000fd5b8b8352806020840152614a918184018c614a1e565b90508281036040840152614aa5818b614a1e565b6001600160a01b039990991660608401525050608081019590955260a085019390935260c084019190915260e0830152610100909101529392505050565b6001600160a01b0385811682528416602082015260a060408201819052600090614b0f90830185614a1e565b8281036060840152614b218185614a1e565b838103608090940193909352505060008152602001949350505050565b6000600019821415614b5257614b5261471b565b5060010190565b6000816000190483118215151615614b7357614b7361471b565b500290565b600082614b9557634e487b7160e01b600052601260045260246000fd5b500490565b6020808252602b908201527f496e697469616c697a61626c653a20636f6e7472616374206973206e6f74206960408201526a6e697469616c697a696e6760a81b606082015260800190565b600060208284031215614bf757600080fd5b8151610f0a816140bc565b7f416363657373436f6e74726f6c3a206163636f756e7420000000000000000000815260008351614c3a81601785016020880161458b565b7001034b99036b4b9b9b4b733903937b6329607d1b6017918401918201528351614c6b81602884016020880161458b565b01602801949350505050565b600060208284031215614c8957600080fd5b81518015158114610f0a57600080fd5b600081614ca857614ca861471b565b506000190190565b60008251614cc281846020870161458b565b919091019291505056fe4d61726b6574706c616365436f72655570677261646561626c653a20496e766173e573f9566d61418a34d5de3ff49360f9c51fec37f7486551670290f6285dab4d61726b6574706c616365436f72655570677261646561626c653a204e6f7420a26469706673582212201cbb63d0e42d78fefabf052aea8e43cb1165b8732268a3819e204ed602bebfde64736f6c63430008090033",
  "linkReferences": {},
  "deployedLinkReferences": {}
}