{
  "_format": "hh-sol-artifact-1",
  "contractName": "MarketplaceUpgradeable",
  "sourceName": "contracts/marketplace/MarketplaceUpgradeable.sol",
  "abi": [
    {
      "inputs": [],
      "stateMutability": "nonpayable",
      "type": "constructor"
    },
    {
      "anonymous": false,
      "inputs": [
        {
          "indexed": true,
          "internalType": "uint256",
          "name": "saleId",
          "type": "uint256"
        },
        {
          "indexed": true,
          "internalType": "address",
          "name": "seller",
          "type": "address"
        },
        {
          "indexed": true,
          "internalType": "address",
          "name": "bidder",
          "type": "address"
        },
        {
          "indexed": false,
          "internalType": "uint256",
          "name": "royalty",
          "type": "uint256"
        },
        {
          "indexed": false,
          "internalType": "uint256",
          "name": "fee",
          "type": "uint256"
        },
        {
          "indexed": false,
          "internalType": "uint256",
          "name": "revenue",
          "type": "uint256"
        }
      ],
      "name": "AuctionFinalized",
      "type": "event"
    },
    {
      "anonymous": false,
      "inputs": [
        {
          "indexed": true,
          "internalType": "uint256",
          "name": "saleId",
          "type": "uint256"
        },
        {
          "indexed": false,
          "internalType": "address",
          "name": "bidder",
          "type": "address"
        },
        {
          "indexed": false,
          "internalType": "uint256",
          "name": "bidAbount",
          "type": "uint256"
        },
        {
          "indexed": false,
          "internalType": "uint256",
          "name": "endTime",
          "type": "uint256"
        }
      ],
      "name": "BidPlaced",
      "type": "event"
    },
    {
      "anonymous": false,
      "inputs": [
        {
          "indexed": true,
          "internalType": "uint256",
          "name": "saleId",
          "type": "uint256"
        },
        {
          "indexed": true,
          "internalType": "address",
          "name": "seller",
          "type": "address"
        },
        {
          "indexed": true,
          "internalType": "address",
          "name": "buyer",
          "type": "address"
        },
        {
          "indexed": false,
          "internalType": "uint256",
          "name": "royalty",
          "type": "uint256"
        },
        {
          "indexed": false,
          "internalType": "uint256",
          "name": "fee",
          "type": "uint256"
        },
        {
          "indexed": false,
          "internalType": "uint256",
          "name": "revenue",
          "type": "uint256"
        }
      ],
      "name": "FixedPriceFinalized",
      "type": "event"
    },
    {
      "anonymous": false,
      "inputs": [
        {
          "indexed": false,
          "internalType": "uint8",
          "name": "version",
          "type": "uint8"
        }
      ],
      "name": "Initialized",
      "type": "event"
    },
    {
      "anonymous": false,
      "inputs": [
        {
          "indexed": false,
          "internalType": "uint256",
          "name": "nexBidPercentInBasisPoint",
          "type": "uint256"
        },
        {
          "indexed": false,
          "internalType": "uint256",
          "name": "extensionDuration",
          "type": "uint256"
        }
      ],
      "name": "MarketplaceAuctionConfigUpdated",
      "type": "event"
    },
    {
      "anonymous": false,
      "inputs": [
        {
          "indexed": true,
          "internalType": "address",
          "name": "contractAddress",
          "type": "address"
        },
        {
          "indexed": true,
          "internalType": "address",
          "name": "bidTokenAddress",
          "type": "address"
        }
      ],
      "name": "MarketplaceBidTokenConfigured",
      "type": "event"
    },
    {
      "anonymous": false,
      "inputs": [
        {
          "indexed": true,
          "internalType": "uint256",
          "name": "feeBurned",
          "type": "uint256"
        }
      ],
      "name": "MarketplaceFeeBurnedUpdated",
      "type": "event"
    },
    {
      "anonymous": false,
      "inputs": [
        {
          "indexed": true,
          "internalType": "uint256",
          "name": "feeReflected",
          "type": "uint256"
        }
      ],
      "name": "MarketplaceFeeReflectedUpdated",
      "type": "event"
    },
    {
      "anonymous": false,
      "inputs": [
        {
          "indexed": true,
          "internalType": "uint256",
          "name": "fee",
          "type": "uint256"
        }
      ],
      "name": "MarketplaceFeeUpdated",
      "type": "event"
    },
    {
      "anonymous": false,
      "inputs": [
        {
          "indexed": true,
          "internalType": "uint256",
          "name": "maxRoyaltyPercent",
          "type": "uint256"
        }
      ],
      "name": "MarketplaceRoyaltiesUpdated",
      "type": "event"
    },
    {
      "anonymous": false,
      "inputs": [
        {
          "indexed": true,
          "internalType": "uint256",
          "name": "saleId",
          "type": "uint256"
        },
        {
          "indexed": true,
          "internalType": "address",
          "name": "seller",
          "type": "address"
        },
        {
          "indexed": true,
          "internalType": "address",
          "name": "buyer",
          "type": "address"
        },
        {
          "indexed": false,
          "internalType": "uint256",
          "name": "royalty",
          "type": "uint256"
        },
        {
          "indexed": false,
          "internalType": "uint256",
          "name": "fee",
          "type": "uint256"
        },
        {
          "indexed": false,
          "internalType": "uint256",
          "name": "revenue",
          "type": "uint256"
        }
      ],
      "name": "OfferFinalized",
      "type": "event"
    },
    {
      "anonymous": false,
      "inputs": [
        {
          "indexed": true,
          "internalType": "bytes32",
          "name": "role",
          "type": "bytes32"
        },
        {
          "indexed": true,
          "internalType": "bytes32",
          "name": "previousAdminRole",
          "type": "bytes32"
        },
        {
          "indexed": true,
          "internalType": "bytes32",
          "name": "newAdminRole",
          "type": "bytes32"
        }
      ],
      "name": "RoleAdminChanged",
      "type": "event"
    },
    {
      "anonymous": false,
      "inputs": [
        {
          "indexed": true,
          "internalType": "bytes32",
          "name": "role",
          "type": "bytes32"
        },
        {
          "indexed": true,
          "internalType": "address",
          "name": "account",
          "type": "address"
        },
        {
          "indexed": true,
          "internalType": "address",
          "name": "sender",
          "type": "address"
        }
      ],
      "name": "RoleGranted",
      "type": "event"
    },
    {
      "anonymous": false,
      "inputs": [
        {
          "indexed": true,
          "internalType": "bytes32",
          "name": "role",
          "type": "bytes32"
        },
        {
          "indexed": true,
          "internalType": "address",
          "name": "account",
          "type": "address"
        },
        {
          "indexed": true,
          "internalType": "address",
          "name": "sender",
          "type": "address"
        }
      ],
      "name": "RoleRevoked",
      "type": "event"
    },
    {
      "anonymous": false,
      "inputs": [
        {
          "indexed": true,
          "internalType": "uint256",
          "name": "saleId",
          "type": "uint256"
        },
        {
          "indexed": false,
          "internalType": "string",
          "name": "reason",
          "type": "string"
        }
      ],
      "name": "SaleCanceled",
      "type": "event"
    },
    {
      "anonymous": false,
      "inputs": [
        {
          "indexed": true,
          "internalType": "uint256",
          "name": "saleId",
          "type": "uint256"
        },
        {
          "indexed": false,
          "internalType": "enum MarketplaceCoreUpgradeable.SaleType",
          "name": "saleType",
          "type": "uint8"
        },
        {
          "indexed": true,
          "internalType": "address",
          "name": "seller",
          "type": "address"
        },
        {
          "indexed": true,
          "internalType": "address",
          "name": "contractAddress",
          "type": "address"
        },
        {
          "indexed": false,
          "internalType": "uint256[]",
          "name": "tokenIds",
          "type": "uint256[]"
        },
        {
          "indexed": false,
          "internalType": "uint256[]",
          "name": "values",
          "type": "uint256[]"
        },
        {
          "indexed": false,
          "internalType": "address",
          "name": "bidToken",
          "type": "address"
        },
        {
          "indexed": false,
          "internalType": "uint256",
          "name": "startTime",
          "type": "uint256"
        },
        {
          "indexed": false,
          "internalType": "uint256",
          "name": "duration",
          "type": "uint256"
        },
        {
          "indexed": false,
          "internalType": "uint256",
          "name": "extensionDuration",
          "type": "uint256"
        },
        {
          "indexed": false,
          "internalType": "uint256",
          "name": "endTime",
          "type": "uint256"
        },
        {
          "indexed": false,
          "internalType": "uint256",
          "name": "minPrice",
          "type": "uint256"
        }
      ],
      "name": "SaleCreated",
      "type": "event"
    },
    {
      "inputs": [],
      "name": "ADMIN_ROLE",
      "outputs": [
        {
          "internalType": "bytes32",
          "name": "",
          "type": "bytes32"
        }
      ],
      "stateMutability": "view",
      "type": "function"
    },
    {
      "inputs": [],
      "name": "DEFAULT_ADMIN_ROLE",
      "outputs": [
        {
          "internalType": "bytes32",
          "name": "",
          "type": "bytes32"
        }
      ],
      "stateMutability": "view",
      "type": "function"
    },
    {
      "inputs": [],
      "name": "UPDATER_ROLE",
      "outputs": [
        {
          "internalType": "bytes32",
          "name": "",
          "type": "bytes32"
        }
      ],
      "stateMutability": "view",
      "type": "function"
    },
    {
      "inputs": [
        {
          "internalType": "uint256",
          "name": "saleId",
          "type": "uint256"
        }
      ],
      "name": "acceptOffer",
      "outputs": [],
      "stateMutability": "nonpayable",
      "type": "function"
    },
    {
      "inputs": [],
      "name": "activeSaleIds",
      "outputs": [
        {
          "internalType": "uint256[]",
          "name": "",
          "type": "uint256[]"
        }
      ],
      "stateMutability": "view",
      "type": "function"
    },
    {
      "inputs": [],
      "name": "activeSales",
      "outputs": [
        {
          "components": [
            {
              "internalType": "enum MarketplaceCoreUpgradeable.SaleType",
              "name": "saleType",
              "type": "uint8"
            },
            {
              "internalType": "address",
              "name": "seller",
              "type": "address"
            },
            {
              "internalType": "address",
              "name": "contractAddress",
              "type": "address"
            },
            {
              "internalType": "enum MarketplaceCoreUpgradeable.TokenType",
              "name": "tokenType",
              "type": "uint8"
            },
            {
              "internalType": "uint256[]",
              "name": "tokenIds",
              "type": "uint256[]"
            },
            {
              "internalType": "uint256[]",
              "name": "values",
              "type": "uint256[]"
            },
            {
              "internalType": "address",
              "name": "bidToken",
              "type": "address"
            },
            {
              "internalType": "uint256",
              "name": "startTime",
              "type": "uint256"
            },
            {
              "internalType": "uint256",
              "name": "duration",
              "type": "uint256"
            },
            {
              "internalType": "uint256",
              "name": "extensionDuration",
              "type": "uint256"
            },
            {
              "internalType": "uint256",
              "name": "endTime",
              "type": "uint256"
            },
            {
              "internalType": "address",
              "name": "bidder",
              "type": "address"
            },
            {
              "internalType": "uint256",
              "name": "bidAmount",
              "type": "uint256"
            }
          ],
          "internalType": "struct MarketplaceCoreUpgradeable.Sale[]",
          "name": "",
          "type": "tuple[]"
        }
      ],
      "stateMutability": "view",
      "type": "function"
    },
    {
      "inputs": [
        {
          "internalType": "uint256",
          "name": "saleId",
          "type": "uint256"
        },
        {
          "internalType": "uint256",
          "name": "bidAmount",
          "type": "uint256"
        }
      ],
      "name": "bidAuction",
      "outputs": [],
      "stateMutability": "nonpayable",
      "type": "function"
    },
    {
      "inputs": [
        {
          "internalType": "uint256",
          "name": "saleId",
          "type": "uint256"
        },
        {
          "internalType": "uint256",
          "name": "buyAmount",
          "type": "uint256"
        }
      ],
      "name": "buyFixedPrice",
      "outputs": [],
      "stateMutability": "nonpayable",
      "type": "function"
    },
    {
      "inputs": [
        {
          "internalType": "uint256",
          "name": "saleId",
          "type": "uint256"
        }
      ],
      "name": "cancelOffer",
      "outputs": [],
      "stateMutability": "nonpayable",
      "type": "function"
    },
    {
      "inputs": [
        {
          "internalType": "uint256",
          "name": "saleId",
          "type": "uint256"
        },
        {
          "internalType": "string",
          "name": "reason",
          "type": "string"
        }
      ],
      "name": "cancelSale",
      "outputs": [],
      "stateMutability": "nonpayable",
      "type": "function"
    },
    {
      "inputs": [
        {
          "internalType": "uint256",
          "name": "saleId",
          "type": "uint256"
        },
        {
          "internalType": "string",
          "name": "reason",
          "type": "string"
        }
      ],
      "name": "cancelSaleByAdmin",
      "outputs": [],
      "stateMutability": "nonpayable",
      "type": "function"
    },
    {
      "inputs": [
        {
          "internalType": "address",
          "name": "contractAddress",
          "type": "address"
        },
        {
          "internalType": "uint256",
          "name": "tokenId",
          "type": "uint256"
        },
        {
          "internalType": "uint256",
          "name": "value",
          "type": "uint256"
        },
        {
          "internalType": "address",
          "name": "bidToken",
          "type": "address"
        },
        {
          "internalType": "uint256",
          "name": "startTime",
          "type": "uint256"
        },
        {
          "internalType": "uint256",
          "name": "duration",
          "type": "uint256"
        },
        {
          "internalType": "uint256",
          "name": "minPrice",
          "type": "uint256"
        }
      ],
      "name": "createERC1155Auction",
      "outputs": [],
      "stateMutability": "nonpayable",
      "type": "function"
    },
    {
      "inputs": [
        {
          "internalType": "address",
          "name": "contractAddress",
          "type": "address"
        },
        {
          "internalType": "uint256[]",
          "name": "tokenIds",
          "type": "uint256[]"
        },
        {
          "internalType": "uint256[]",
          "name": "values",
          "type": "uint256[]"
        },
        {
          "internalType": "address",
          "name": "bidToken",
          "type": "address"
        },
        {
          "internalType": "uint256",
          "name": "startTime",
          "type": "uint256"
        },
        {
          "internalType": "uint256",
          "name": "duration",
          "type": "uint256"
        },
        {
          "internalType": "uint256",
          "name": "minPrice",
          "type": "uint256"
        }
      ],
      "name": "createERC1155BundleAuction",
      "outputs": [],
      "stateMutability": "nonpayable",
      "type": "function"
    },
    {
      "inputs": [
        {
          "internalType": "address",
          "name": "contractAddress",
          "type": "address"
        },
        {
          "internalType": "uint256[]",
          "name": "tokenIds",
          "type": "uint256[]"
        },
        {
          "internalType": "uint256[]",
          "name": "values",
          "type": "uint256[]"
        },
        {
          "internalType": "address",
          "name": "bidToken",
          "type": "address"
        },
        {
          "internalType": "uint256",
          "name": "startTime",
          "type": "uint256"
        },
        {
          "internalType": "uint256",
          "name": "duration",
          "type": "uint256"
        },
        {
          "internalType": "uint256",
          "name": "minPrice",
          "type": "uint256"
        }
      ],
      "name": "createERC1155BundleFixedPrice",
      "outputs": [],
      "stateMutability": "nonpayable",
      "type": "function"
    },
    {
      "inputs": [
        {
          "internalType": "address",
          "name": "contractAddress",
          "type": "address"
        },
        {
          "internalType": "uint256",
          "name": "tokenId",
          "type": "uint256"
        },
        {
          "internalType": "uint256",
          "name": "value",
          "type": "uint256"
        },
        {
          "internalType": "address",
          "name": "bidToken",
          "type": "address"
        },
        {
          "internalType": "uint256",
          "name": "startTime",
          "type": "uint256"
        },
        {
          "internalType": "uint256",
          "name": "duration",
          "type": "uint256"
        },
        {
          "internalType": "uint256",
          "name": "minPrice",
          "type": "uint256"
        }
      ],
      "name": "createERC1155FixedPrice",
      "outputs": [],
      "stateMutability": "nonpayable",
      "type": "function"
    },
    {
      "inputs": [
        {
          "internalType": "address",
          "name": "contractAddress",
          "type": "address"
        },
        {
          "internalType": "uint256",
          "name": "tokenId",
          "type": "uint256"
        },
        {
          "internalType": "address",
          "name": "bidToken",
          "type": "address"
        },
        {
          "internalType": "uint256",
          "name": "startTime",
          "type": "uint256"
        },
        {
          "internalType": "uint256",
          "name": "duration",
          "type": "uint256"
        },
        {
          "internalType": "uint256",
          "name": "minPrice",
          "type": "uint256"
        },
        {
          "internalType": "uint256",
          "name": "royaltyBps",
          "type": "uint256"
        }
      ],
      "name": "createERC721Auction",
      "outputs": [],
      "stateMutability": "nonpayable",
      "type": "function"
    },
    {
      "inputs": [
        {
          "internalType": "address",
          "name": "contractAddress",
          "type": "address"
        },
        {
          "internalType": "uint256",
          "name": "tokenId",
          "type": "uint256"
        },
        {
          "internalType": "address",
          "name": "bidToken",
          "type": "address"
        },
        {
          "internalType": "uint256",
          "name": "startTime",
          "type": "uint256"
        },
        {
          "internalType": "uint256",
          "name": "duration",
          "type": "uint256"
        },
        {
          "internalType": "uint256",
          "name": "minPrice",
          "type": "uint256"
        },
        {
          "internalType": "uint256",
          "name": "royaltyBps",
          "type": "uint256"
        }
      ],
      "name": "createERC721FixedPrice",
      "outputs": [],
      "stateMutability": "nonpayable",
      "type": "function"
    },
    {
      "inputs": [
        {
          "internalType": "address",
          "name": "contractAddress",
          "type": "address"
        },
        {
          "internalType": "uint256",
          "name": "tokenId",
          "type": "uint256"
        },
        {
          "internalType": "address",
          "name": "bidToken",
          "type": "address"
        },
        {
          "internalType": "uint256",
          "name": "duration",
          "type": "uint256"
        },
        {
          "internalType": "uint256",
          "name": "minPrice",
          "type": "uint256"
        }
      ],
      "name": "createERC721Offer",
      "outputs": [],
      "stateMutability": "nonpayable",
      "type": "function"
    },
    {
      "inputs": [],
      "name": "currentSaleId",
      "outputs": [
        {
          "internalType": "uint256",
          "name": "",
          "type": "uint256"
        }
      ],
      "stateMutability": "view",
      "type": "function"
    },
    {
      "inputs": [
        {
          "internalType": "uint256",
          "name": "saleId",
          "type": "uint256"
        }
      ],
      "name": "finalizeAuction",
      "outputs": [],
      "stateMutability": "nonpayable",
      "type": "function"
    },
    {
      "inputs": [
        {
          "internalType": "uint256",
          "name": "saleId",
          "type": "uint256"
        }
      ],
      "name": "getAuctionMinBidAmount",
      "outputs": [
        {
          "internalType": "uint256",
          "name": "",
          "type": "uint256"
        }
      ],
      "stateMutability": "view",
      "type": "function"
    },
    {
      "inputs": [],
      "name": "getMarketplaceAuctionConfig",
      "outputs": [
        {
          "internalType": "uint256",
          "name": "",
          "type": "uint256"
        },
        {
          "internalType": "uint256",
          "name": "",
          "type": "uint256"
        }
      ],
      "stateMutability": "view",
      "type": "function"
    },
    {
      "inputs": [],
      "name": "getMarketplaceBank",
      "outputs": [
        {
          "internalType": "address",
          "name": "",
          "type": "address"
        }
      ],
      "stateMutability": "view",
      "type": "function"
    },
    {
      "inputs": [
        {
          "internalType": "address",
          "name": "contractAddress",
          "type": "address"
        }
      ],
      "name": "getMarketplaceBidTokenOf",
      "outputs": [
        {
          "internalType": "address",
          "name": "",
          "type": "address"
        }
      ],
      "stateMutability": "view",
      "type": "function"
    },
    {
      "inputs": [],
      "name": "getMarketplaceFee",
      "outputs": [
        {
          "internalType": "uint256",
          "name": "",
          "type": "uint256"
        }
      ],
      "stateMutability": "view",
      "type": "function"
    },
    {
      "inputs": [],
      "name": "getMarketplaceFeeBurned",
      "outputs": [
        {
          "internalType": "uint256",
          "name": "",
          "type": "uint256"
        }
      ],
      "stateMutability": "view",
      "type": "function"
    },
    {
      "inputs": [],
      "name": "getMarketplaceFeeReflected",
      "outputs": [
        {
          "internalType": "uint256",
          "name": "",
          "type": "uint256"
        }
      ],
      "stateMutability": "view",
      "type": "function"
    },
    {
      "inputs": [],
      "name": "getMarketplaceFees",
      "outputs": [
        {
          "internalType": "uint256",
          "name": "",
          "type": "uint256"
        },
        {
          "internalType": "uint256",
          "name": "",
          "type": "uint256"
        },
        {
          "internalType": "uint256",
          "name": "",
          "type": "uint256"
        }
      ],
      "stateMutability": "view",
      "type": "function"
    },
    {
      "inputs": [],
      "name": "getMarketplaceRoyaltyPercent",
      "outputs": [
        {
          "internalType": "uint256",
          "name": "",
          "type": "uint256"
        }
      ],
      "stateMutability": "view",
      "type": "function"
    },
    {
      "inputs": [],
      "name": "getMarketplaceTreasury",
      "outputs": [
        {
          "internalType": "address",
          "name": "",
          "type": "address"
        }
      ],
      "stateMutability": "view",
      "type": "function"
    },
    {
      "inputs": [
        {
          "internalType": "bytes32",
          "name": "role",
          "type": "bytes32"
        }
      ],
      "name": "getRoleAdmin",
      "outputs": [
        {
          "internalType": "bytes32",
          "name": "",
          "type": "bytes32"
        }
      ],
      "stateMutability": "view",
      "type": "function"
    },
    {
      "inputs": [
        {
          "internalType": "bytes32",
          "name": "role",
          "type": "bytes32"
        },
        {
          "internalType": "uint256",
          "name": "index",
          "type": "uint256"
        }
      ],
      "name": "getRoleMember",
      "outputs": [
        {
          "internalType": "address",
          "name": "",
          "type": "address"
        }
      ],
      "stateMutability": "view",
      "type": "function"
    },
    {
      "inputs": [
        {
          "internalType": "bytes32",
          "name": "role",
          "type": "bytes32"
        }
      ],
      "name": "getRoleMemberCount",
      "outputs": [
        {
          "internalType": "uint256",
          "name": "",
          "type": "uint256"
        }
      ],
      "stateMutability": "view",
      "type": "function"
    },
    {
      "inputs": [
        {
          "internalType": "bytes32",
          "name": "role",
          "type": "bytes32"
        },
        {
          "internalType": "address",
          "name": "account",
          "type": "address"
        }
      ],
      "name": "grantRole",
      "outputs": [],
      "stateMutability": "nonpayable",
      "type": "function"
    },
    {
      "inputs": [
        {
          "internalType": "bytes32",
          "name": "role",
          "type": "bytes32"
        },
        {
          "internalType": "address",
          "name": "account",
          "type": "address"
        }
      ],
      "name": "hasRole",
      "outputs": [
        {
          "internalType": "bool",
          "name": "",
          "type": "bool"
        }
      ],
      "stateMutability": "view",
      "type": "function"
    },
    {
      "inputs": [
        {
          "internalType": "uint256",
          "name": "maxRoyaltyBps",
          "type": "uint256"
        },
        {
          "internalType": "uint256",
          "name": "marketFeeBps",
          "type": "uint256"
        },
        {
          "internalType": "uint256",
          "name": "marketFeeBurnedBps",
          "type": "uint256"
        },
        {
          "internalType": "uint256",
          "name": "marketFeeReflectedBps",
          "type": "uint256"
        },
        {
          "internalType": "address",
          "name": "treasury",
          "type": "address"
        },
        {
          "internalType": "address",
          "name": "bank",
          "type": "address"
        },
        {
          "internalType": "uint256",
          "name": "nexBidPercentBps",
          "type": "uint256"
        }
      ],
      "name": "initialize",
      "outputs": [],
      "stateMutability": "nonpayable",
      "type": "function"
    },
    {
      "inputs": [
        {
          "internalType": "address",
          "name": "contractAddress",
          "type": "address"
        }
      ],
      "name": "removeMarketplaceBidToken",
      "outputs": [],
      "stateMutability": "nonpayable",
      "type": "function"
    },
    {
      "inputs": [
        {
          "internalType": "bytes32",
          "name": "role",
          "type": "bytes32"
        },
        {
          "internalType": "address",
          "name": "account",
          "type": "address"
        }
      ],
      "name": "renounceRole",
      "outputs": [],
      "stateMutability": "nonpayable",
      "type": "function"
    },
    {
      "inputs": [
        {
          "internalType": "bytes32",
          "name": "role",
          "type": "bytes32"
        },
        {
          "internalType": "address",
          "name": "account",
          "type": "address"
        }
      ],
      "name": "revokeRole",
      "outputs": [],
      "stateMutability": "nonpayable",
      "type": "function"
    },
    {
      "inputs": [
        {
          "internalType": "address",
          "name": "bank",
          "type": "address"
        }
      ],
      "name": "setMarketplaceBank",
      "outputs": [],
      "stateMutability": "nonpayable",
      "type": "function"
    },
    {
      "inputs": [
        {
          "internalType": "address",
          "name": "contractAddress",
          "type": "address"
        },
        {
          "internalType": "address",
          "name": "bidTokenAddress",
          "type": "address"
        }
      ],
      "name": "setMarketplaceBidToken",
      "outputs": [],
      "stateMutability": "nonpayable",
      "type": "function"
    },
    {
      "inputs": [
        {
          "internalType": "uint256",
          "name": "fee",
          "type": "uint256"
        }
      ],
      "name": "setMarketplaceFee",
      "outputs": [],
      "stateMutability": "nonpayable",
      "type": "function"
    },
    {
      "inputs": [
        {
          "internalType": "uint256",
          "name": "feeBurned",
          "type": "uint256"
        }
      ],
      "name": "setMarketplaceFeeBurned",
      "outputs": [],
      "stateMutability": "nonpayable",
      "type": "function"
    },
    {
      "inputs": [
        {
          "internalType": "uint256",
          "name": "feeReflected",
          "type": "uint256"
        }
      ],
      "name": "setMarketplaceFeeReflected",
      "outputs": [],
      "stateMutability": "nonpayable",
      "type": "function"
    },
    {
      "inputs": [
        {
          "internalType": "uint256",
          "name": "maxRoyaltyPercent",
          "type": "uint256"
        }
      ],
      "name": "setMarketplaceRoyaltyPercent",
      "outputs": [],
      "stateMutability": "nonpayable",
      "type": "function"
    },
    {
      "inputs": [
        {
          "internalType": "address",
          "name": "treasury",
          "type": "address"
        }
      ],
      "name": "setMarketplaceTreasury",
      "outputs": [],
      "stateMutability": "nonpayable",
      "type": "function"
    },
    {
      "inputs": [
        {
          "internalType": "bytes4",
          "name": "interfaceId",
          "type": "bytes4"
        }
      ],
      "name": "supportsInterface",
      "outputs": [
        {
          "internalType": "bool",
          "name": "",
          "type": "bool"
        }
      ],
      "stateMutability": "view",
      "type": "function"
    },
    {
      "inputs": [
        {
          "internalType": "uint256",
          "name": "nexBidPercent",
          "type": "uint256"
        }
      ],
      "name": "updateMarketplaceAuctionConfig",
      "outputs": [],
      "stateMutability": "nonpayable",
      "type": "function"
    }
  ],
  "bytecode": "0x60806040523480156200001157600080fd5b506200001c62000022565b620000e4565b600054610100900460ff16156200008f5760405162461bcd60e51b815260206004820152602760248201527f496e697469616c697a61626c653a20636f6e747261637420697320696e697469604482015266616c697a696e6760c81b606482015260840160405180910390fd5b60005460ff9081161015620000e2576000805460ff191660ff9081179091556040519081527f7f26b83ff96e1f2b6a682f133852f6798a09c465da95921460cefb38474024989060200160405180910390a15b565b61586880620000f46000396000f3fe608060405234801561001057600080fd5b50600436106102a05760003560e01c80639010d07c11610167578063ca15c873116100ce578063d72593d411610087578063d72593d414610628578063e80838631461063b578063eecabdf01461064e578063ef706adf14610661578063fb022cf114610674578063fe0a2c0a1461068757600080fd5b8063ca15c873146105b4578063cd462ab7146105c7578063d181e984146105da578063d3b7f2f3146105ed578063d547741f14610602578063d6bfef831461061557600080fd5b80639e7e4480116101205780639e7e448014610531578063a04341da14610544578063a0c5539714610559578063a217fddf1461056c578063b6b03ef714610574578063c815729d146105a157600080fd5b80639010d07c146104b557806391d14854146104c8578063924c1059146104db5780639407ea98146104f85780639643afca1461050b5780639914b00d1461051e57600080fd5b80633f5ae78c1161020b5780637587b4df116101c45780637587b4df1461043957806375b238fc1461044c57806376840be514610473578063856e50b51461048657806389b84ec6146104995780638a8ee937146104ac57600080fd5b80633f5ae78c1461039f57806347e63380146103c55780634ce89690146103da578063546031ae146103ed57806354e1e9a61461040057806374c1f09f1461042757600080fd5b80632620e0d11161025d5780632620e0d11461034c57806326a7b37b146103555780632e8498941461035e5780632f2ff15d1461036657806332ee5f371461037957806336568abe1461038c57600080fd5b806301ffc9a7146102a557806306cd5ce3146102cd5780631637c6d6146102e25780631c89c97d146102f5578063248a9ca314610308578063248de0ed14610339575b600080fd5b6102b86102b3366004614a05565b610690565b60405190151581526020015b60405180910390f35b6102e06102db366004614a44565b6106bb565b005b6102e06102f0366004614add565b610762565b6102e0610303366004614b7c565b610b0e565b61032b610316366004614be5565b60009081526065602052604090206001015490565b6040519081526020016102c4565b6102e0610347366004614bfe565b610bee565b6101c55461032b565b6101c35461032b565b61032b610c2f565b6102e0610374366004614c1b565b610c3f565b6102e0610387366004614cc0565b610c69565b6102e061039a366004614c1b565b610c86565b6101f6546001600160a01b03165b6040516001600160a01b0390911681526020016102c4565b61032b6000805160206157f383398151915281565b6102e06103e8366004614d64565b610d04565b6102e06103fb366004614be5565b610d9a565b6101c3546101c4546101c554604080519384526020840192909252908201526060016102c4565b6101f5546001600160a01b03166103ad565b6102e0610447366004614d92565b610e09565b61032b7fa49807205ce4d355092ef5a8a18f56e8913cf4a201fbe287825b095693c2177581565b61032b610481366004614be5565b611139565b6102e0610494366004614add565b611178565b6102e06104a7366004614bfe565b6114fe565b6101c45461032b565b6103ad6104c3366004614d92565b611561565b6102b86104d6366004614c1b565b611579565b61025a5461025954604080519283526020830191909152016102c4565b6102e0610506366004614be5565b6115a4565b6102e0610519366004614be5565b611613565b6102e061052c366004614cc0565b6116ff565b6102e061053f366004614be5565b611715565b61054c611784565b6040516102c49190614def565b6102e0610567366004614d92565b611791565b61032b600081565b6103ad610582366004614bfe565b6001600160a01b03908116600090815261015f60205260409020541690565b6102e06105af366004614be5565b611c6c565b61032b6105c2366004614be5565b612049565b6102e06105d5366004614bfe565b612060565b6102e06105e8366004614e02565b6120c3565b6105f5612170565b6040516102c49190614ea1565b6102e0610610366004614c1b565b6123ec565b6102e0610623366004614fd4565b612411565b6102e0610636366004614be5565b6124ac565b6102e0610649366004614be5565b61251b565b6102e061065c366004614fd4565b612928565b6102e061066f366004614be5565b6129c3565b6102e0610682366004614e02565b612d24565b6101915461032b565b60006001600160e01b03198216635a05180f60e01b14806106b557506106b582612dc0565b92915050565b6040805160018082528183019092526000916020808301908036833701905050905084816000815181106106f1576106f1615018565b602090810291909101015260408051600180825281830190925260009181602001602082028036833701905050905060018160008151811061073557610735615018565b60200260200101818152505061075961075488600085858a8a8a612df5565b612fc3565b50505050505050565b600260c954141561078e5760405162461bcd60e51b81526004016107859061502e565b60405180910390fd5b600260c9556000805160206157f38339815191526107ab816131e6565b60008251116107cc5760405162461bcd60e51b815260040161078590615065565b600083815261028b602052604080822081516101a081019092528054829060ff1660028111156107fe576107fe614e67565b600281111561080f5761080f614e67565b8152815461010090046001600160a01b0390811660208301526001808401549182166040840152606090920191600160a01b90910460ff169081111561085757610857614e67565b600181111561086857610868614e67565b8152602001600282018054806020026020016040519081016040528092919081815260200182805480156108bb57602002820191906000526020600020905b8154815260200190600101908083116108a7575b505050505081526020016003820180548060200260200160405190810160405280929190818152602001828054801561091357602002820191906000526020600020905b8154815260200190600101908083116108ff575b505050918352505060048201546001600160a01b039081166020830152600583015460408301526006830154606083015260078301546080830152600883015460a083015260098301541660c0820152600a9091015460e0909101526101408101519091506109d75760405162461bcd60e51b815260206004820152602a60248201527f4d61726b6574706c616365436f72655570677261646561626c653a2053616c65604482015269081b9bdd08199bdd5b9960b21b6064820152608401610785565b600084815261028b6020526040812080546001600160a81b03199081168255600182018054909116905590610a0f6002830182614909565b610a1d600383016000614909565b506004810180546001600160a01b0319908116909155600060058301819055600683018190556007830181905560088301819055600983018054909216909155600a90910155606081015160408201516020830151608084015160a0850151610a8b949392309290916131f3565b6101608101516001600160a01b031615610acb57610acb8161016001518261018001518360c001516001600160a01b031661334b9092919063ffffffff16565b837feea67889aa1eb47570ae236516cf0e18f0627d822a512e46bb29b1a683d09f1b84604051610afb91906150f9565b60405180910390a25050600160c9555050565b600054610100900460ff1615808015610b2e5750600054600160ff909116105b80610b485750303b158015610b48575060005460ff166001145b610b645760405162461bcd60e51b81526004016107859061512c565b6000805460ff191660011790558015610b87576000805461ff0019166101001790555b610b8f6133ae565b610b9e888888888888886133d7565b8015610be4576000805461ff0019169055604051600181527f7f26b83ff96e1f2b6a682f133852f6798a09c465da95921460cefb38474024989060200160405180910390a15b5050505050505050565b6000805160206157f3833981519152610c06816131e6565b506001600160a01b0316600090815261015f6020526040902080546001600160a01b0319169055565b6000610c3a60fb5490565b905090565b600082815260656020526040902060010154610c5a816131e6565b610c648383613476565b505050565b610759610c7f60008960018a8a8a8a8a8a613498565b6000613662565b6001600160a01b0381163314610cf65760405162461bcd60e51b815260206004820152602f60248201527f416363657373436f6e74726f6c3a2063616e206f6e6c792072656e6f756e636560448201526e103937b632b9903337b91039b2b63360891b6064820152608401610785565b610d008282613892565b5050565b6000805160206157f3833981519152610d1c816131e6565b6001600160a01b0383163b610d435760405162461bcd60e51b81526004016107859061517a565b6001600160a01b0382163b610d6a5760405162461bcd60e51b81526004016107859061517a565b506001600160a01b03918216600090815261015f6020526040902080546001600160a01b03191691909216179055565b6000805160206157f3833981519152610db2816131e6565b6103e8821115610dd45760405162461bcd60e51b8152600401610785906151c9565b6101c482905560405182907f086af270a7a0c7861851e846161323c377107a88b974abb21dd0d2dd212e07b890600090a25050565b600260c9541415610e2c5760405162461bcd60e51b81526004016107859061502e565b600260c955600082815261028b6020526040812090815460ff166002811115610e5757610e57614e67565b14610ea25760405162461bcd60e51b8152602060048201526027602482015260008051602061581383398151915260448201526620bab1ba34b7b760c91b6064820152608401610785565b42816008015411610ec55760405162461bcd60e51b81526004016107859061520e565b4281600501541115610ee95760405162461bcd60e51b815260040161078590615256565b60098101546001600160a01b0316331415610f6c5760405162461bcd60e51b815260206004820152603a60248201527f4d61726b6574706c616365436f72655570677261646561626c653a20596f752060448201527f616c7265616479206172652063757272656e74206269646465720000000000006064820152608401610785565b80546001600160a01b0361010090910416331415610fd85760405162461bcd60e51b8152602060048201526024808201527f4d61726b6574706c616365436f72655570677261646561626c653a2053656c6660448201526308189a5960e21b6064820152608401610785565b60098101546001600160a01b0316611013578181600a0154111561100e5760405162461bcd60e51b8152600401610785906152a2565b611046565b600061102282600a01546138b4565b9050808310156110445760405162461bcd60e51b8152600401610785906152a2565b505b600a81018054600983018054928590556001600160a01b03198316331790556007830154600884015491926001600160a01b031691611086904290615306565b10156110a157600783015461109b904261531d565b60088401555b60048301546001600160a01b03166110bb813330886138f5565b6001600160a01b038216156110de576110de6001600160a01b038216838561334b565b857f51db8e23b3f4479b162fd48823b8402895442b8f6cfd94f66239391881ec7b6f336008870154604080516001600160a01b039093168352602083018a905282015260600160405180910390a25050600160c95550505050565b600081815261028b6020526040812060098101546001600160a01b031661116457600a015492915050565b61117181600a01546138b4565b9392505050565b600260c954141561119b5760405162461bcd60e51b81526004016107859061502e565b600260c95580516111be5760405162461bcd60e51b815260040161078590615065565b600082815261028b602052604080822081516101a081019092528054829060ff1660028111156111f0576111f0614e67565b600281111561120157611201614e67565b8152815461010090046001600160a01b0390811660208301526001808401549182166040840152606090920191600160a01b90910460ff169081111561124957611249614e67565b600181111561125a5761125a614e67565b8152602001600282018054806020026020016040519081016040528092919081815260200182805480156112ad57602002820191906000526020600020905b815481526020019060010190808311611299575b505050505081526020016003820180548060200260200160405190810160405280929190818152602001828054801561130557602002820191906000526020600020905b8154815260200190600101908083116112f1575b505050918352505060048201546001600160a01b039081166020830152600583015460408301526006830154606083015260078301546080830152600883015460a083015260098301541660c0820152600a9091015460e0909101529050336001600160a01b031681602001516001600160a01b0316146113c85760405162461bcd60e51b81526020600482015260296024820152600080516020615813833981519152604482015268796f75722073616c6560b81b6064820152608401610785565b600083815261028b6020526040812080546001600160a81b031990811682556001820180549091169055906114006002830182614909565b61140e600383016000614909565b506004810180546001600160a01b0319908116909155600060058301819055600683018190556007830181905560088301819055600983018054909216909155600a90910155606081015160408201516020830151608084015160a085015161147c949392309290916131f3565b6101608101516001600160a01b0316156114bc576114bc8161016001518261018001518360c001516001600160a01b031661334b9092919063ffffffff16565b827feea67889aa1eb47570ae236516cf0e18f0627d822a512e46bb29b1a683d09f1b836040516114ec91906150f9565b60405180910390a25050600160c95550565b6000805160206157f3833981519152611516816131e6565b6001600160a01b0382163b61153d5760405162461bcd60e51b815260040161078590615335565b506101f680546001600160a01b0319166001600160a01b0392909216919091179055565b60008281526097602052604081206111719083613933565b60009182526065602090815260408084206001600160a01b0393909316845291905290205460ff1690565b6000805160206157f38339815191526115bc816131e6565b6103e88211156115de5760405162461bcd60e51b8152600401610785906151c9565b6101c382905560405182907fe18aa129833f655a8166b6185277fee7a53f67e46fd32329bc2fc2ac21274d5590600090a25050565b6000805160206157f383398151915261162b816131e6565b6127108211156116b75760405162461bcd60e51b815260206004820152604b60248201527f4d61726b6574706c61636541756374696f6e436f6e666967557067726164656160448201527f626c653a204d696e20696e6372656d656e74206d757374206265203e3d30252060648201526a616e64203c3d203130302560a81b608482015260a401610785565b61025a829055610259546040805184815260208101929092527f1ffe3fb8dff3c6bf01dce5eb6611ff49840debc0c49cb48f73e4943799bc7de0910160405180910390a15050565b610759610c7f60018960018a8a8a8a8a8a613498565b6000805160206157f383398151915261172d816131e6565b6103e882111561174f5760405162461bcd60e51b81526004016107859061539c565b61019182905560405182907f89afacb18fe1d58d6e5250629b682650f4d3ed83667a19e072953949a96b513c90600090a25050565b6060610c3a61028c61393f565b600260c95414156117b45760405162461bcd60e51b81526004016107859061502e565b600260c9819055600083815261028b602052604080822081516101a081019092528054929391929091839160ff16908111156117f2576117f2614e67565b600281111561180357611803614e67565b8152815461010090046001600160a01b0390811660208301526001808401549182166040840152606090920191600160a01b90910460ff169081111561184b5761184b614e67565b600181111561185c5761185c614e67565b8152602001600282018054806020026020016040519081016040528092919081815260200182805480156118af57602002820191906000526020600020905b81548152602001906001019080831161189b575b505050505081526020016003820180548060200260200160405190810160405280929190818152602001828054801561190757602002820191906000526020600020905b8154815260200190600101908083116118f3575b505050918352505060048201546001600160a01b039081166020830152600583015460408301526006830154606083015260078301546080830152600883015460a083015260098301541660c0820152600a9091015460e090910152905060018151600281111561197a5761197a614e67565b146119c95760405162461bcd60e51b815260206004820152602b602482015260008051602061581383398151915260448201526a46697865642d707269636560a81b6064820152608401610785565b4281610140015110156119ee5760405162461bcd60e51b81526004016107859061520e565b428160e001511115611a125760405162461bcd60e51b815260040161078590615256565b8181610180015114611a7b5760405162461bcd60e51b815260206004820152602c60248201527f4d61726b6574706c616365436f72655570677261646561626c653a2057726f6e60448201526b19c8189d5e48185b5bdd5b9d60a21b6064820152608401610785565b60208101516001600160a01b0316331415611ae45760405162461bcd60e51b8152602060048201526024808201527f4d61726b6574706c616365436f72655570677261646561626c653a2053656c666044820152632062757960e01b6064820152608401610785565b600083815261028b6020526040812080546001600160a81b03199081168255600182018054909116905590611b1c6002830182614909565b611b2a600383016000614909565b506004810180546001600160a01b0319908116909155600060058301819055600683018190556007830181905560088301819055600983018054909216909155600a9091015561018081015160c08201513391611b94916001600160a01b031690839030906138f5565b611bb282606001518360400151308486608001518760a001516131f3565b6000806000611bf385604001518660800151600081518110611bd657611bd6615018565b60200260200101518760c00151886020015189610180015161394c565b925092509250836001600160a01b031685602001516001600160a01b0316887f84c291c877f36c4dec491685a451cdc7ef25d8dc76807e6e27748c597e99eb6c868686604051611c56939291909283526020830191909152604082015260600190565b60405180910390a45050600160c9555050505050565b600260c9541415611c8f5760405162461bcd60e51b81526004016107859061502e565b600260c9819055600082815261028b602052604080822081516101a081019092528054929391929091839160ff1690811115611ccd57611ccd614e67565b6002811115611cde57611cde614e67565b8152815461010090046001600160a01b0390811660208301526001808401549182166040840152606090920191600160a01b90910460ff1690811115611d2657611d26614e67565b6001811115611d3757611d37614e67565b815260200160028201805480602002602001604051908101604052809291908181526020018280548015611d8a57602002820191906000526020600020905b815481526020019060010190808311611d76575b5050505050815260200160038201805480602002602001604051908101604052809291908181526020018280548015611de257602002820191906000526020600020905b815481526020019060010190808311611dce575b505050918352505060048201546001600160a01b039081166020830152600583015460408301526006830154606083015260078301546080830152600883015460a083015260098301541660c0820152600a9091015460e0909101529050600281516002811115611e5557611e55614e67565b14611e725760405162461bcd60e51b8152600401610785906153ea565b428161014001511115611ed95760405162461bcd60e51b815260206004820152602960248201527f4d61726b6574706c616365436f72655570677261646561626c653a204f666665604482015268391034b99037bb32b960b91b6064820152608401610785565b600082815261028b6020526040812080546001600160a81b03199081168255600182018054909116905590611f116002830182614909565b611f1f600383016000614909565b506004810180546001600160a01b0319908116909155600060058301819055600683018190556007830181905560088301819055600983018054909216909155600a9091015560608101516040820151611f8a91903384610160015185608001518660a001516131f3565b6000806000611fcd84604001518560800151600081518110611fae57611fae615018565b60200260200101518660c00151611fc23390565b88610180015161394c565b9250925092508361016001516001600160a01b031684602001516001600160a01b0316867f7c0fede85ef76479a8dac8062ea64c0ca72c1a862849b88ef93d223dcccc3cbe868686604051612035939291909283526020830191909152604082015260600190565b60405180910390a45050600160c955505050565b60008181526097602052604081206106b590613ab7565b6000805160206157f3833981519152612078816131e6565b6001600160a01b0382163b61209f5760405162461bcd60e51b815260040161078590615335565b506101f580546001600160a01b0319166001600160a01b0392909216919091179055565b6040805160018082528183019092526000916020808301908036833701905050905086816000815181106120f9576120f9615018565b602090810291909101015260408051600180825281830190925260009181602001602082028036833701905050905060018160008151811061213d5761213d615018565b60200260200101818152505061216561215f60008b600086868d8d8d8d613498565b84613662565b505050505050505050565b6060600061217f61028c61393f565b90506000815167ffffffffffffffff81111561219d5761219d614a96565b6040519080825280602002602001820160405280156121d657816020015b6121c3614927565b8152602001906001900390816121bb5790505b50905060005b82518110156123e55761028b60008483815181106121fc576121fc615018565b60200260200101518152602001908152602001600020604051806101a00160405290816000820160009054906101000a900460ff16600281111561224257612242614e67565b600281111561225357612253614e67565b8152815461010090046001600160a01b0390811660208301526001808401549182166040840152606090920191600160a01b90910460ff169081111561229b5761229b614e67565b60018111156122ac576122ac614e67565b8152602001600282018054806020026020016040519081016040528092919081815260200182805480156122ff57602002820191906000526020600020905b8154815260200190600101908083116122eb575b505050505081526020016003820180548060200260200160405190810160405280929190818152602001828054801561235757602002820191906000526020600020905b815481526020019060010190808311612343575b505050918352505060048201546001600160a01b039081166020830152600583015460408301526006830154606083015260078301546080830152600883015460a083015260098301541660c0820152600a9091015460e09091015282518390839081106123c7576123c7615018565b602002602001018190525080806123dd9061541d565b9150506121dc565b5092915050565b600082815260656020526040902060010154612407816131e6565b610c648383613892565b60408051600180825281830190925260009160208083019080368337019050509050868160008151811061244757612447615018565b6020908102919091010152604080516001808252818301909252600091816020016020820280368337019050509050868160008151811061248a5761248a615018565b602002602001018181525050612165610c7f60018b600186868c8c8c8c613498565b6000805160206157f38339815191526124c4816131e6565b6103e88211156124e65760405162461bcd60e51b8152600401610785906151c9565b6101c582905560405182907fbb0460111fde3453ee69cc3ecf6ed205a5cfa4f7315d6e48585ecaee4d4ed6df90600090a25050565b600260c954141561253e5760405162461bcd60e51b81526004016107859061502e565b600260c9819055600082815261028b602052604080822081516101a081019092528054929391929091839160ff169081111561257c5761257c614e67565b600281111561258d5761258d614e67565b8152815461010090046001600160a01b0390811660208301526001808401549182166040840152606090920191600160a01b90910460ff16908111156125d5576125d5614e67565b60018111156125e6576125e6614e67565b81526020016002820180548060200260200160405190810160405280929190818152602001828054801561263957602002820191906000526020600020905b815481526020019060010190808311612625575b505050505081526020016003820180548060200260200160405190810160405280929190818152602001828054801561269157602002820191906000526020600020905b81548152602001906001019080831161267d575b505050918352505060048201546001600160a01b039081166020830152600583015460408301526006830154606083015260078301546080830152600883015460a083015260098301541660c0820152600a9091015460e0909101526101408101519091506127585760405162461bcd60e51b815260206004820152602d60248201527f4d61726b6574706c616365436f72655570677261646561626c653a204175637460448201526c1a5bdb881b9bdd08199bdd5b99609a1b6064820152608401610785565b42816101400151106127ca5760405162461bcd60e51b815260206004820152603560248201527f4d61726b6574706c616365436f72655570677261646561626c653a2041756374604482015274696f6e207374696c6c20696e2070726f677265737360581b6064820152608401610785565b600082815261028b6020526040812080546001600160a81b031990811682556001820180549091169055906128026002830182614909565b612810600383016000614909565b506004810180546001600160a01b0319908116909155600060058301819055600683018190556007830181905560088301819055600983018054909216909155600a9091015560608101516040820151610160830151608084015160a085015161287f949392309290916131f3565b60008060006128c0846040015185608001516000815181106128a3576128a3615018565b60200260200101518660c00151876020015188610180015161394c565b9250925092508361016001516001600160a01b031684602001516001600160a01b0316867f09d19bc6c9a71e6ce2f33285073bb069912c80a714bf42bcaddc9247716ffb48868686604051612035939291909283526020830191909152604082015260600190565b60408051600180825281830190925260009160208083019080368337019050509050868160008151811061295e5761295e615018565b602090810291909101015260408051600180825281830190925260009181602001602082028036833701905050905086816000815181106129a1576129a1615018565b602002602001018181525050612165610c7f60008b600186868c8c8c8c613498565b600260c95414156129e65760405162461bcd60e51b81526004016107859061502e565b600260c9819055600082815261028b602052604080822081516101a081019092528054929391929091839160ff1690811115612a2457612a24614e67565b6002811115612a3557612a35614e67565b8152815461010090046001600160a01b0390811660208301526001808401549182166040840152606090920191600160a01b90910460ff1690811115612a7d57612a7d614e67565b6001811115612a8e57612a8e614e67565b815260200160028201805480602002602001604051908101604052809291908181526020018280548015612ae157602002820191906000526020600020905b815481526020019060010190808311612acd575b5050505050815260200160038201805480602002602001604051908101604052809291908181526020018280548015612b3957602002820191906000526020600020905b815481526020019060010190808311612b25575b505050918352505060048201546001600160a01b039081166020830152600583015460408301526006830154606083015260078301546080830152600883015460a083015260098301541660c0820152600a9091015460e0909101529050600281516002811115612bac57612bac614e67565b14612bc95760405162461bcd60e51b8152600401610785906153ea565b6101608101516001600160a01b03163314612c275760405162461bcd60e51b815260206004820152602a60248201526000805160206158138339815191526044820152693cb7bab91037b33332b960b11b6064820152608401610785565b600082815261028b6020526040812080546001600160a81b03199081168255600182018054909116905590612c5f6002830182614909565b612c6d600383016000614909565b506004810180546001600160a01b0319908116909155600060058301819055600683018190556007830181905560088301819055600983018054909216909155600a9091015561016081015161018082015160c0830151612cd9926001600160a01b039091169161334b565b817feea67889aa1eb47570ae236516cf0e18f0627d822a512e46bb29b1a683d09f1b604051612d1390602080825260009082015260400190565b60405180910390a25050600160c955565b604080516001808252818301909252600091602080830190803683370190505090508681600081518110612d5a57612d5a615018565b6020908102919091010152604080516001808252818301909252600091816020016020820280368337019050509050600181600081518110612d9e57612d9e615018565b60200260200101818152505061216561215f60018b600086868d8d8d8d613498565b60006001600160e01b03198216637965db0b60e01b14806106b557506301ffc9a760e01b6001600160e01b03198316146106b5565b612dfd614927565b6000865111612e1e5760405162461bcd60e51b815260040161078590615438565b8451865114612e3f5760405162461bcd60e51b815260040161078590615479565b6001600160a01b03808916600090815261015f6020526040902054811690851614612e7c5760405162461bcd60e51b8152600401610785906154cf565b612e87856001613ac1565b612ea35760405162461bcd60e51b81526004016107859061550a565b60008311612ec35760405162461bcd60e51b815260040161078590615541565b612ecd8887613b13565b612f285760405162461bcd60e51b815260206004820152602660248201527f4d61726b6574706c616365436f72655570677261646561626c653a2053656c666044820152651037b33332b960d11b6064820152608401610785565b604080516101a0810190915242908060028152600060208201526001600160a01b038b166040820152606001896001811115612f6657612f66614e67565b8152602001888152602001878152602001866001600160a01b031681526020018281526020018581526020016102595481526020018583612fa7919061531d565b8152336020820152604001939093525090979650505050505050565b6000612fcd613bd7565b600081815261028b60205260409020835181549293508492829060ff19166001836002811115612fff57612fff614e67565b0217905550602082015181546001600160a01b0391821661010002610100600160a81b0319909116178255604083015160018084018054929093166001600160a01b0319831681178455606086015193926001600160a81b0319161790600160a01b90849081111561307357613073614e67565b0217905550608082015180516130939160028401916020909101906149a5565b5060a082015180516130af9160038401916020909101906149a5565b5060c0828101516004830180546001600160a01b039283166001600160a01b03199182161790915560e0850151600585015561010085015160068501556101208501516007850155610140850151600885015561016085015160098501805491909316911617905561018090920151600a9091015582015161314a6131313390565b6101808501516001600160a01b038416919030906138f5565b82604001516001600160a01b03168361016001516001600160a01b0316837f0c93cebaa7f8b20ed02ebb54d9a7ffcaa31b566f866a0b2e783e599b7bae24af600287608001518860a001518960c001518a60e001518b6101000151610259548d61010001518e60e001516131be919061531d565b8e61018001516040516131d99998979695949392919061557b565b60405180910390a4505050565b6131f08133613bf8565b50565b600186600181111561320757613207614e67565b141561327657604051631759616b60e11b81526001600160a01b03861690632eb2c2d69061323f9087908790879087906004016155ee565b600060405180830381600087803b15801561325957600080fd5b505af115801561326d573d6000803e3d6000fd5b50505050613343565b600086600181111561328a5761328a614e67565b1415613343578460005b8351811015610be457816001600160a01b03166323b872dd87878785815181106132c0576132c0615018565b60209081029190910101516040516001600160e01b031960e086901b1681526001600160a01b0393841660048201529290911660248301526044820152606401600060405180830381600087803b15801561331a57600080fd5b505af115801561332e573d6000803e3d6000fd5b505050508061333c9061541d565b9050613294565b505050505050565b6040516001600160a01b038316602482015260448101829052610c6490849063a9059cbb60e01b906064015b60408051601f198184030181529190526020810180516001600160e01b03166001600160e01b031990931692909217909152613c5c565b600054610100900460ff166133d55760405162461bcd60e51b815260040161078590615649565b565b600054610100900460ff166133fe5760405162461bcd60e51b815260040161078590615649565b6134066133ae565b61340e613d2e565b613416613d5d565b613424878787878787613d8c565b61342d81613dd1565b613438600033613476565b6134627fa49807205ce4d355092ef5a8a18f56e8913cf4a201fbe287825b095693c2177533613476565b6107596000805160206157f3833981519152335b6134808282613e06565b6000828152609760205260409020610c649082613e8c565b6134a0614927565b60008751116134c15760405162461bcd60e51b815260040161078590615438565b85518751146134e25760405162461bcd60e51b815260040161078590615479565b6001600160a01b03808a16600090815261015f602052604090205481169086161461351f5760405162461bcd60e51b8152600401610785906154cf565b61352a866001613ac1565b6135465760405162461bcd60e51b81526004016107859061550a565b4284101561359a5760405162461bcd60e51b815260206004820152602d60248201526000805160206157d383398151915260448201526c6c696420737461727454696d6560981b6064820152608401610785565b600083116135ba5760405162461bcd60e51b815260040161078590615541565b604051806101a001604052808b60028111156135d8576135d8614e67565b81523360208201526001600160a01b038b16604082015260600189600181111561360457613604614e67565b8152602001888152602001878152602001866001600160a01b031681526020018581526020018481526020016102595481526020018486613645919061531d565b815260006020820152604001929092525098975050505050505050565b801561369657613696338360400151846080015160008151811061368857613688615018565b602002602001015184613ea1565b60006136a0613bd7565b600081815261028b60205260409020845181549293508592829060ff191660018360028111156136d2576136d2614e67565b0217905550602082015181546001600160a01b0391821661010002610100600160a81b0319909116178255604083015160018084018054929093166001600160a01b0319831681178455606086015193926001600160a81b0319161790600160a01b90849081111561374657613746614e67565b0217905550608082015180516137669160028401916020909101906149a5565b5060a082015180516137829160038401916020909101906149a5565b5060c08201516004820180546001600160a01b039283166001600160a01b03199182161790915560e0840151600584015561010084015160068401556101208401516007840155610140840151600884015561016084015160098401805491909316911617905561018090910151600a909101556060830151604084015161381c919061380c3390565b3087608001518860a001516131f3565b82604001516001600160a01b031683602001516001600160a01b0316827f0c93cebaa7f8b20ed02ebb54d9a7ffcaa31b566f866a0b2e783e599b7bae24af866000015187608001518860a001518960c001518a60e001518b6101000151610259548d61010001518e60e001516131be919061531d565b61389c8282614002565b6000828152609760205260409020610c649082614069565b60008061271061025a54846138c99190615694565b6138d391906156b3565b905080156138ea576138e5818461531d565b611171565b61117183600161531d565b6040516001600160a01b038085166024830152831660448201526064810182905261392d9085906323b872dd60e01b90608401613377565b50505050565b6000611171838361407e565b60606000611171836140a8565b60008060008061395b85614104565b9050600061396886614122565b9050600061397587614136565b90506000806139858d8d8b61414a565b90925090506000836139978688615306565b6139a19190615306565b90506000826139b0888d615306565b6139ba9190615306565b90508c83156139d7576139d76001600160a01b038216868661334b565b8615613a3857604051630852cd8d60e31b8152600481018890526001600160a01b038216906342966c6890602401600060405180830381600087803b158015613a1f57600080fd5b505af1158015613a33573d6000803e3d6000fd5b505050505b8515613a6557613a65613a546101f6546001600160a01b031690565b6001600160a01b038316908861334b565b613a8c613a7b6101f5546001600160a01b031690565b6001600160a01b038316908561334b565b613aa06001600160a01b0382168e8461334b565b50919e959d50909b50939950505050505050505050565b60006106b5825490565b6000805b8351811015613b095782848281518110613ae157613ae1615018565b60200260200101511015613af95760009150506106b5565b613b028161541d565b9050613ac5565b5060019392505050565b6000826001600160a01b0316636352211e83600081518110613b3757613b37615018565b60200260200101516040518263ffffffff1660e01b8152600401613b5d91815260200190565b60206040518083038186803b158015613b7557600080fd5b505afa158015613b89573d6000803e3d6000fd5b505050506040513d601f19601f82011682018060405250810190613bad91906156d5565b6001600160a01b0316336001600160a01b03161415613bce575060006106b5565b50600192915050565b600080613be360fb5490565b9050613bf360fb80546001019055565b919050565b613c028282611579565b610d0057613c1a816001600160a01b031660146141c0565b613c258360206141c0565b604051602001613c369291906156f2565b60408051601f198184030181529082905262461bcd60e51b8252610785916004016150f9565b6000613cb1826040518060400160405280602081526020017f5361666545524332303a206c6f772d6c6576656c2063616c6c206661696c6564815250856001600160a01b031661435c9092919063ffffffff16565b805190915015610c645780806020019051810190613ccf9190615767565b610c645760405162461bcd60e51b815260206004820152602a60248201527f5361666545524332303a204552433230206f7065726174696f6e20646964206e6044820152691bdd081cdd58d8d9595960b21b6064820152608401610785565b600054610100900460ff16613d555760405162461bcd60e51b815260040161078590615649565b6133d5614373565b600054610100900460ff16613d845760405162461bcd60e51b815260040161078590615649565b6133d56133ae565b600054610100900460ff16613db35760405162461bcd60e51b815260040161078590615649565b613dbc866143a1565b613dc78585856143f8565b613343828261445b565b600054610100900460ff16613df85760405162461bcd60e51b815260040161078590615649565b613e006133ae565b61025a55565b613e108282611579565b610d005760008281526065602090815260408083206001600160a01b03851684529091529020805460ff19166001179055613e483390565b6001600160a01b0316816001600160a01b0316837f2f8788117e7eff1d82e926ec794901d17c78024a50270940304540a733656f0d60405160405180910390a45050565b6000611171836001600160a01b03841661465d565b6001600160a01b038381166000908152610192602090815260408083208684529091529020541615613f325760405162461bcd60e51b815260206004820152603460248201527f4d61726b6574706c616365526f79616c746965735570677261646561626c653a60448201527308149bde585b1d1e48185b1c9958591e481cd95d60621b6064820152608401610785565b600081118015613f455750610191548111155b613faa5760405162461bcd60e51b815260206004820152603060248201527f4d61726b6574706c616365526f79616c746965735570677261646561626c653a60448201526f20496e76616c696420726f79616c747960801b6064820152608401610785565b6040805180820182526001600160a01b03958616815260208082019384529486166000908152610192865282812094815293909452909120915182546001600160a01b03191693169290921781559051600190910155565b61400c8282611579565b15610d005760008281526065602090815260408083206001600160a01b0385168085529252808320805460ff1916905551339285917ff6391f5c32d9c69d2a47ea670b442974b53935d1edc7fd64eb21e047a839171b9190a45050565b6000611171836001600160a01b0384166146ac565b600082600001828154811061409557614095615018565b9060005260206000200154905092915050565b6060816000018054806020026020016040519081016040528092919081815260200182805480156140f857602002820191906000526020600020905b8154815260200190600101908083116140e4575b50505050509050919050565b60006127106101c354836141189190615694565b6106b591906156b3565b60006127106101c454836141189190615694565b60006127106101c554836141189190615694565b6001600160a01b038084166000908152610192602090815260408083208684529091528120805491928392166141875760008092509250506141b8565b805460018201546001600160a01b0390911690612710906141a89087615694565b6141b291906156b3565b92509250505b935093915050565b606060006141cf836002615694565b6141da90600261531d565b67ffffffffffffffff8111156141f2576141f2614a96565b6040519080825280601f01601f19166020018201604052801561421c576020820181803683370190505b509050600360fc1b8160008151811061423757614237615018565b60200101906001600160f81b031916908160001a905350600f60fb1b8160018151811061426657614266615018565b60200101906001600160f81b031916908160001a905350600061428a846002615694565b61429590600161531d565b90505b600181111561430d576f181899199a1a9b1b9c1cb0b131b232b360811b85600f16601081106142c9576142c9615018565b1a60f81b8282815181106142df576142df615018565b60200101906001600160f81b031916908160001a90535060049490941c9361430681615789565b9050614298565b5083156111715760405162461bcd60e51b815260206004820181905260248201527f537472696e67733a20686578206c656e67746820696e73756666696369656e746044820152606401610785565b606061436b848460008561479f565b949350505050565b600054610100900460ff1661439a5760405162461bcd60e51b815260040161078590615649565b600160c955565b600054610100900460ff166143c85760405162461bcd60e51b815260040161078590615649565b6103e88111156143ea5760405162461bcd60e51b81526004016107859061539c565b6101918190556131f06133ae565b600054610100900460ff1661441f5760405162461bcd60e51b815260040161078590615649565b6103e88311156144415760405162461bcd60e51b8152600401610785906151c9565b6101c38390556101c48290556101c5819055610c646133ae565b600054610100900460ff161580801561447b5750600054600160ff909116105b806144955750303b158015614495575060005460ff166001145b6144b15760405162461bcd60e51b81526004016107859061512c565b6000805460ff1916600117905580156144d4576000805461ff0019166101001790555b6001600160a01b0383163b61455c5760405162461bcd60e51b815260206004820152604260248201527f4d61726b6574706c61636546756e6444657374696e6174696f6e73557067726160448201527f646561626c653a205472656173757279206973206e6f74206120636f6e74726160648201526118dd60f21b608482015260a401610785565b6001600160a01b0382163b6145d95760405162461bcd60e51b815260206004820152603e60248201527f4d61726b6574706c61636546756e6444657374696e6174696f6e73557067726160448201527f646561626c653a2042616e6b206973206e6f74206120636f6e747261637400006064820152608401610785565b6145e16133ae565b6101f580546001600160a01b038086166001600160a01b0319928316179092556101f68054928516929091169190911790558015610c64576000805461ff0019169055604051600181527f7f26b83ff96e1f2b6a682f133852f6798a09c465da95921460cefb38474024989060200160405180910390a1505050565b60008181526001830160205260408120546146a4575081546001818101845560008481526020808220909301849055845484825282860190935260409020919091556106b5565b5060006106b5565b600081815260018301602052604081205480156147955760006146d0600183615306565b85549091506000906146e490600190615306565b905081811461474957600086600001828154811061470457614704615018565b906000526020600020015490508087600001848154811061472757614727615018565b6000918252602080832090910192909255918252600188019052604090208390555b855486908061475a5761475a6157a0565b6001900381819060005260206000200160009055905585600101600086815260200190815260200160002060009055600193505050506106b5565b60009150506106b5565b6060824710156148005760405162461bcd60e51b815260206004820152602660248201527f416464726573733a20696e73756666696369656e742062616c616e636520666f6044820152651c8818d85b1b60d21b6064820152608401610785565b6001600160a01b0385163b6148575760405162461bcd60e51b815260206004820152601d60248201527f416464726573733a2063616c6c20746f206e6f6e2d636f6e74726163740000006044820152606401610785565b600080866001600160a01b0316858760405161487391906157b6565b60006040518083038185875af1925050503d80600081146148b0576040519150601f19603f3d011682016040523d82523d6000602084013e6148b5565b606091505b50915091506148c58282866148d0565b979650505050505050565b606083156148df575081611171565b8251156148ef5782518084602001fd5b8160405162461bcd60e51b815260040161078591906150f9565b50805460008255906000526020600020908101906131f091906149f0565b604080516101a081019091528060008152600060208201819052604082018190526060909101908152602001606081526020016060815260200160006001600160a01b031681526020016000815260200160008152602001600081526020016000815260200160006001600160a01b03168152602001600081525090565b8280548282559060005260206000209081019282156149e0579160200282015b828111156149e05782518255916020019190600101906149c5565b506149ec9291506149f0565b5090565b5b808211156149ec57600081556001016149f1565b600060208284031215614a1757600080fd5b81356001600160e01b03198116811461117157600080fd5b6001600160a01b03811681146131f057600080fd5b600080600080600060a08688031215614a5c57600080fd5b8535614a6781614a2f565b9450602086013593506040860135614a7e81614a2f565b94979396509394606081013594506080013592915050565b634e487b7160e01b600052604160045260246000fd5b604051601f8201601f1916810167ffffffffffffffff81118282101715614ad557614ad5614a96565b604052919050565b60008060408385031215614af057600080fd5b8235915060208084013567ffffffffffffffff80821115614b1057600080fd5b818601915086601f830112614b2457600080fd5b813581811115614b3657614b36614a96565b614b48601f8201601f19168501614aac565b91508082528784828501011115614b5e57600080fd5b80848401858401376000848284010152508093505050509250929050565b600080600080600080600060e0888a031215614b9757600080fd5b873596506020880135955060408801359450606088013593506080880135614bbe81614a2f565b925060a0880135614bce81614a2f565b8092505060c0880135905092959891949750929550565b600060208284031215614bf757600080fd5b5035919050565b600060208284031215614c1057600080fd5b813561117181614a2f565b60008060408385031215614c2e57600080fd5b823591506020830135614c4081614a2f565b809150509250929050565b600082601f830112614c5c57600080fd5b8135602067ffffffffffffffff821115614c7857614c78614a96565b8160051b614c87828201614aac565b9283528481018201928281019087851115614ca157600080fd5b83870192505b848310156148c557823582529183019190830190614ca7565b600080600080600080600060e0888a031215614cdb57600080fd5b8735614ce681614a2f565b9650602088013567ffffffffffffffff80821115614d0357600080fd5b614d0f8b838c01614c4b565b975060408a0135915080821115614d2557600080fd5b50614d328a828b01614c4b565b9550506060880135614d4381614a2f565b9699959850939660808101359560a0820135955060c0909101359350915050565b60008060408385031215614d7757600080fd5b8235614d8281614a2f565b91506020830135614c4081614a2f565b60008060408385031215614da557600080fd5b50508035926020909101359150565b600081518084526020808501945080840160005b83811015614de457815187529582019590820190600101614dc8565b509495945050505050565b6020815260006111716020830184614db4565b600080600080600080600060e0888a031215614e1d57600080fd5b8735614e2881614a2f565b9650602088013595506040880135614e3f81614a2f565b969995985095966060810135965060808101359560a0820135955060c0909101359350915050565b634e487b7160e01b600052602160045260246000fd5b60038110614e8d57614e8d614e67565b9052565b60028110614e8d57614e8d614e67565b60006020808301818452808551808352604092508286019150828160051b87010184880160005b83811015614fc657603f1989840301855281516101a0614ee9858351614e7d565b888201516001600160a01b03908116868b0152888301511688860152606080830151614f1782880182614e91565b50506080808301518282880152614f3083880182614db4565b9250505060a08083015186830382880152614f4b8382614db4565b9250505060c080830151614f69828801826001600160a01b03169052565b505060e08281015190860152610100808301519086015261012080830151908601526101408083015190860152610160808301516001600160a01b0316908601526101809182015191909401529386019390860190600101614ec8565b509098975050505050505050565b600080600080600080600060e0888a031215614fef57600080fd5b8735614ffa81614a2f565b965060208801359550604088013594506060880135614d4381614a2f565b634e487b7160e01b600052603260045260246000fd5b6020808252601f908201527f5265656e7472616e637947756172643a207265656e7472616e742063616c6c00604082015260600190565b60208082526042908201527f4d61726b6574706c616365436f72655570677261646561626c653a20496e636c60408201527f756465206120726561736f6e20666f7220746869732063616e63656c6c61746960608201526137b760f11b608082015260a00190565b60005b838110156150e85781810151838201526020016150d0565b8381111561392d5750506000910152565b60208152600082518060208401526151188160408501602087016150cd565b601f01601f19169190910160400192915050565b6020808252602e908201527f496e697469616c697a61626c653a20636f6e747261637420697320616c72656160408201526d191e481a5b9a5d1a585b1a5e995960921b606082015260800190565b6020808252602f908201527f4d61726b6574706c616365426964546f6b656e735570677261646561626c653a60408201526e08139bdd08184818dbdb9d1c9858dd608a1b606082015260800190565b60208082526025908201527f4d61726b6574706c6163654665655570677261646561626c653a2046656573206040820152643e2031302560d81b606082015260800190565b60208082526028908201527f4d61726b6574706c616365436f72655570677261646561626c653a2053616c656040820152671034b99037bb32b960c11b606082015260800190565b6020808252602c908201527f4d61726b6574706c616365436f72655570677261646561626c653a2053616c6560408201526b081b9bdd081cdd185c9d195960a21b606082015260800190565b6020808252602e908201527f4d61726b6574706c616365436f72655570677261646561626c653a204269642060408201526d616d6f756e7420746f6f206c6f7760901b606082015260800190565b634e487b7160e01b600052601160045260246000fd5b600082821015615318576153186152f0565b500390565b60008219821115615330576153306152f0565b500190565b60208082526041908201527f4d61726b6574706c61636546756e6444657374696e6174696f6e73557067726160408201527f646561626c653a2041646472657373206973206e6f74206120636f6e747261636060820152601d60fa1b608082015260a00190565b6020808252602e908201527f4d61726b6574706c616365526f79616c746965735570677261646561626c653a60408201526d20526f79616c7479203e2031302560901b606082015260800190565b602080825260259082015260008051602061581383398151915260408201526437b33332b960d91b606082015260800190565b6000600019821415615431576154316152f0565b5060010190565b60208082526033908201526000805160206157d38339815191526040820152720d8d2c840e8ded6cadc92c8e640d8cadccee8d606b1b606082015260800190565b60208082526036908201527f4d61726b6574706c616365436f72655570677261646561626c653a20546f6b656040820152750dc92c8e640d8cadccee8d040c8dedce840dac2e8c6d60531b606082015260800190565b6020808252602d908201526000805160206157d383398151915260408201526c3634b2103134b2103a37b5b2b760991b606082015260800190565b60208082526029908201526000805160206157d38339815191526040820152686c69642076616c756560b81b606082015260800190565b6020808252602c908201526000805160206157d383398151915260408201526b3634b210323ab930ba34b7b760a11b606082015260800190565b600061012061558a838d614e7d565b80602084015261559c8184018c614db4565b905082810360408401526155b0818b614db4565b6001600160a01b039990991660608401525050608081019590955260a085019390935260c084019190915260e0830152610100909101529392505050565b6001600160a01b0385811682528416602082015260a06040820181905260009061561a90830185614db4565b828103606084015261562c8185614db4565b838103608090940193909352505060008152602001949350505050565b6020808252602b908201527f496e697469616c697a61626c653a20636f6e7472616374206973206e6f74206960408201526a6e697469616c697a696e6760a81b606082015260800190565b60008160001904831182151516156156ae576156ae6152f0565b500290565b6000826156d057634e487b7160e01b600052601260045260246000fd5b500490565b6000602082840312156156e757600080fd5b815161117181614a2f565b7f416363657373436f6e74726f6c3a206163636f756e742000000000000000000081526000835161572a8160178501602088016150cd565b7001034b99036b4b9b9b4b733903937b6329607d1b601791840191820152835161575b8160288401602088016150cd565b01602801949350505050565b60006020828403121561577957600080fd5b8151801515811461117157600080fd5b600081615798576157986152f0565b506000190190565b634e487b7160e01b600052603160045260246000fd5b600082516157c88184602087016150cd565b919091019291505056fe4d61726b6574706c616365436f72655570677261646561626c653a20496e766173e573f9566d61418a34d5de3ff49360f9c51fec37f7486551670290f6285dab4d61726b6574706c616365436f72655570677261646561626c653a204e6f7420a2646970667358221220709b3b2ec46745aa6cab57823f890eb03928048782f9a26708d9e419459b8d8e64736f6c63430008090033",
  "linkReferences": {},
  "deployedLinkReferences": {}
}